{
	"data": {
		"bytecode": {
			"linkReferences": {},
			"object": "6080604052348015600e575f80fd5b506103978061001c5f395ff3fe608060405234801561000f575f80fd5b50600436106100f0575f3560e01c806344ad2fad116100935780638a6f5402116100635780638a6f5402146101d75780639620b05d146101df578063ac805759146101f4578063cab84dfe146101fc575f80fd5b806344ad2fad146101a057806348378eea146101b75780636b4bccb2146101c7578063830f6ae7146101cf575f80fd5b8063297b657a116100ce578063297b657a1461014a578063306a23c71461018957806333c0f099146101905780633b4de54114610198575f80fd5b806311c171ba146100f45780631eaeb9261461010b5780632325a1fd14610142575b5f80fd5b6006545b6040519081526020015b60405180910390f35b60085460e01b6040517fffffffff000000000000000000000000000000000000000000000000000000009091168152602001610102565b6005546100f8565b600854640100000000900460f81b6040517fff000000000000000000000000000000000000000000000000000000000000009091168152602001610102565b5f546100f8565b6007546100f8565b6004546100f8565b600b5460ff165b6040519015158152602001610102565b600b54610100900460ff166101a7565b6001546100f8565b6002546100f8565b6003546100f8565b6101e761023c565b60405161010291906102db565b6101e76102cc565b60085465010000000000900460801b6040517fffffffffffffffffffffffffffffffff000000000000000000000000000000009091168152602001610102565b6060600a805461024b90610310565b80601f016020809104026020016040519081016040528092919081815260200182805461027790610310565b80156102c25780601f10610299576101008083540402835291602001916102c2565b820191905f5260205f20905b8154815290600101906020018083116102a557829003601f168201915b5050505050905090565b60606009805461024b90610310565b602081525f82518060208401528060208501604085015e5f604082850101526040601f19601f83011684010191505092915050565b600181811c9082168061032457607f821691505b60208210810361035b577f4e487b71000000000000000000000000000000000000000000000000000000005f52602260045260245ffd5b5091905056fea2646970667358221220105dd5a86862c4d20957d2a0763017fa41d04791d3cf4dadc09d12953180874d64736f6c63430008190033",
			"opcodes": "PUSH1 0x80 PUSH1 0x40 MSTORE CALLVALUE DUP1 ISZERO PUSH1 0xE JUMPI PUSH0 DUP1 REVERT JUMPDEST POP PUSH2 0x397 DUP1 PUSH2 0x1C PUSH0 CODECOPY PUSH0 RETURN INVALID PUSH1 0x80 PUSH1 0x40 MSTORE CALLVALUE DUP1 ISZERO PUSH2 0xF JUMPI PUSH0 DUP1 REVERT JUMPDEST POP PUSH1 0x4 CALLDATASIZE LT PUSH2 0xF0 JUMPI PUSH0 CALLDATALOAD PUSH1 0xE0 SHR DUP1 PUSH4 0x44AD2FAD GT PUSH2 0x93 JUMPI DUP1 PUSH4 0x8A6F5402 GT PUSH2 0x63 JUMPI DUP1 PUSH4 0x8A6F5402 EQ PUSH2 0x1D7 JUMPI DUP1 PUSH4 0x9620B05D EQ PUSH2 0x1DF JUMPI DUP1 PUSH4 0xAC805759 EQ PUSH2 0x1F4 JUMPI DUP1 PUSH4 0xCAB84DFE EQ PUSH2 0x1FC JUMPI PUSH0 DUP1 REVERT JUMPDEST DUP1 PUSH4 0x44AD2FAD EQ PUSH2 0x1A0 JUMPI DUP1 PUSH4 0x48378EEA EQ PUSH2 0x1B7 JUMPI DUP1 PUSH4 0x6B4BCCB2 EQ PUSH2 0x1C7 JUMPI DUP1 PUSH4 0x830F6AE7 EQ PUSH2 0x1CF JUMPI PUSH0 DUP1 REVERT JUMPDEST DUP1 PUSH4 0x297B657A GT PUSH2 0xCE JUMPI DUP1 PUSH4 0x297B657A EQ PUSH2 0x14A JUMPI DUP1 PUSH4 0x306A23C7 EQ PUSH2 0x189 JUMPI DUP1 PUSH4 0x33C0F099 EQ PUSH2 0x190 JUMPI DUP1 PUSH4 0x3B4DE541 EQ PUSH2 0x198 JUMPI PUSH0 DUP1 REVERT JUMPDEST DUP1 PUSH4 0x11C171BA EQ PUSH2 0xF4 JUMPI DUP1 PUSH4 0x1EAEB926 EQ PUSH2 0x10B JUMPI DUP1 PUSH4 0x2325A1FD EQ PUSH2 0x142 JUMPI JUMPDEST PUSH0 DUP1 REVERT JUMPDEST PUSH1 0x6 SLOAD JUMPDEST PUSH1 0x40 MLOAD SWAP1 DUP2 MSTORE PUSH1 0x20 ADD JUMPDEST PUSH1 0x40 MLOAD DUP1 SWAP2 SUB SWAP1 RETURN JUMPDEST PUSH1 0x8 SLOAD PUSH1 0xE0 SHL PUSH1 0x40 MLOAD PUSH32 0xFFFFFFFF00000000000000000000000000000000000000000000000000000000 SWAP1 SWAP2 AND DUP2 MSTORE PUSH1 0x20 ADD PUSH2 0x102 JUMP JUMPDEST PUSH1 0x5 SLOAD PUSH2 0xF8 JUMP JUMPDEST PUSH1 0x8 SLOAD PUSH5 0x100000000 SWAP1 DIV PUSH1 0xF8 SHL PUSH1 0x40 MLOAD PUSH32 0xFF00000000000000000000000000000000000000000000000000000000000000 SWAP1 SWAP2 AND DUP2 MSTORE PUSH1 0x20 ADD PUSH2 0x102 JUMP JUMPDEST PUSH0 SLOAD PUSH2 0xF8 JUMP JUMPDEST PUSH1 0x7 SLOAD PUSH2 0xF8 JUMP JUMPDEST PUSH1 0x4 SLOAD PUSH2 0xF8 JUMP JUMPDEST PUSH1 0xB SLOAD PUSH1 0xFF AND JUMPDEST PUSH1 0x40 MLOAD SWAP1 ISZERO ISZERO DUP2 MSTORE PUSH1 0x20 ADD PUSH2 0x102 JUMP JUMPDEST PUSH1 0xB SLOAD PUSH2 0x100 SWAP1 DIV PUSH1 0xFF AND PUSH2 0x1A7 JUMP JUMPDEST PUSH1 0x1 SLOAD PUSH2 0xF8 JUMP JUMPDEST PUSH1 0x2 SLOAD PUSH2 0xF8 JUMP JUMPDEST PUSH1 0x3 SLOAD PUSH2 0xF8 JUMP JUMPDEST PUSH2 0x1E7 PUSH2 0x23C JUMP JUMPDEST PUSH1 0x40 MLOAD PUSH2 0x102 SWAP2 SWAP1 PUSH2 0x2DB JUMP JUMPDEST PUSH2 0x1E7 PUSH2 0x2CC JUMP JUMPDEST PUSH1 0x8 SLOAD PUSH6 0x10000000000 SWAP1 DIV PUSH1 0x80 SHL PUSH1 0x40 MLOAD PUSH32 0xFFFFFFFFFFFFFFFFFFFFFFFFFFFFFFFF00000000000000000000000000000000 SWAP1 SWAP2 AND DUP2 MSTORE PUSH1 0x20 ADD PUSH2 0x102 JUMP JUMPDEST PUSH1 0x60 PUSH1 0xA DUP1 SLOAD PUSH2 0x24B SWAP1 PUSH2 0x310 JUMP JUMPDEST DUP1 PUSH1 0x1F ADD PUSH1 0x20 DUP1 SWAP2 DIV MUL PUSH1 0x20 ADD PUSH1 0x40 MLOAD SWAP1 DUP2 ADD PUSH1 0x40 MSTORE DUP1 SWAP3 SWAP2 SWAP1 DUP2 DUP2 MSTORE PUSH1 0x20 ADD DUP3 DUP1 SLOAD PUSH2 0x277 SWAP1 PUSH2 0x310 JUMP JUMPDEST DUP1 ISZERO PUSH2 0x2C2 JUMPI DUP1 PUSH1 0x1F LT PUSH2 0x299 JUMPI PUSH2 0x100 DUP1 DUP4 SLOAD DIV MUL DUP4 MSTORE SWAP2 PUSH1 0x20 ADD SWAP2 PUSH2 0x2C2 JUMP JUMPDEST DUP3 ADD SWAP2 SWAP1 PUSH0 MSTORE PUSH1 0x20 PUSH0 KECCAK256 SWAP1 JUMPDEST DUP2 SLOAD DUP2 MSTORE SWAP1 PUSH1 0x1 ADD SWAP1 PUSH1 0x20 ADD DUP1 DUP4 GT PUSH2 0x2A5 JUMPI DUP3 SWAP1 SUB PUSH1 0x1F AND DUP3 ADD SWAP2 JUMPDEST POP POP POP POP POP SWAP1 POP SWAP1 JUMP JUMPDEST PUSH1 0x60 PUSH1 0x9 DUP1 SLOAD PUSH2 0x24B SWAP1 PUSH2 0x310 JUMP JUMPDEST PUSH1 0x20 DUP2 MSTORE PUSH0 DUP3 MLOAD DUP1 PUSH1 0x20 DUP5 ADD MSTORE DUP1 PUSH1 0x20 DUP6 ADD PUSH1 0x40 DUP6 ADD MCOPY PUSH0 PUSH1 0x40 DUP3 DUP6 ADD ADD MSTORE PUSH1 0x40 PUSH1 0x1F NOT PUSH1 0x1F DUP4 ADD AND DUP5 ADD ADD SWAP2 POP POP SWAP3 SWAP2 POP POP JUMP JUMPDEST PUSH1 0x1 DUP2 DUP2 SHR SWAP1 DUP3 AND DUP1 PUSH2 0x324 JUMPI PUSH1 0x7F DUP3 AND SWAP2 POP JUMPDEST PUSH1 0x20 DUP3 LT DUP2 SUB PUSH2 0x35B JUMPI PUSH32 0x4E487B7100000000000000000000000000000000000000000000000000000000 PUSH0 MSTORE PUSH1 0x22 PUSH1 0x4 MSTORE PUSH1 0x24 PUSH0 REVERT JUMPDEST POP SWAP2 SWAP1 POP JUMP INVALID LOG2 PUSH5 0x6970667358 0x22 SLT KECCAK256 LT TSTORE 0xD5 0xA8 PUSH9 0x62C4D20957D2A07630 OR STATICCALL COINBASE 0xD0 SELFBALANCE SWAP2 0xD3 0xCF 0x4D 0xAD 0xC0 SWAP14 SLT SWAP6 BALANCE DUP1 DUP8 0x4D PUSH5 0x736F6C6343 STOP ADDMOD NOT STOP CALLER "
		},
		"gasEstimates": {
			"creation": {
				"codeDepositCost": "183800",
				"executionCost": "224",
				"totalCost": "184024"
			},
			"external": {
				"getBool1()": "2315",
				"getBool2()": "2359",
				"getHash1()": "2293",
				"getHash2()": "2347",
				"getHash3()": "2340",
				"getHash4()": "2328",
				"getHash5()": "2393",
				"getNum1()": "2324",
				"getNum2()": "2347",
				"getNum3()": "2369",
				"getNum4()": "2302",
				"getNum5()": "2369",
				"getNum6()": "2348",
				"getStr1()": "infinite",
				"getStr2()": "infinite"
			}
		},
		"methodIdentifiers": {
			"getBool1()": "44ad2fad",
			"getBool2()": "48378eea",
			"getHash1()": "11c171ba",
			"getHash2()": "33c0f099",
			"getHash3()": "1eaeb926",
			"getHash4()": "297b657a",
			"getHash5()": "cab84dfe",
			"getNum1()": "306a23c7",
			"getNum2()": "6b4bccb2",
			"getNum3()": "830f6ae7",
			"getNum4()": "8a6f5402",
			"getNum5()": "3b4de541",
			"getNum6()": "2325a1fd",
			"getStr1()": "ac805759",
			"getStr2()": "9620b05d"
		}
	},
	"abi": [
		{
			"inputs": [],
			"name": "getBool1",
			"outputs": [
				{
					"internalType": "bool",
					"name": "",
					"type": "bool"
				}
			],
			"stateMutability": "view",
			"type": "function"
		},
		{
			"inputs": [],
			"name": "getBool2",
			"outputs": [
				{
					"internalType": "bool",
					"name": "",
					"type": "bool"
				}
			],
			"stateMutability": "view",
			"type": "function"
		},
		{
			"inputs": [],
			"name": "getHash1",
			"outputs": [
				{
					"internalType": "bytes32",
					"name": "",
					"type": "bytes32"
				}
			],
			"stateMutability": "view",
			"type": "function"
		},
		{
			"inputs": [],
			"name": "getHash2",
			"outputs": [
				{
					"internalType": "bytes32",
					"name": "",
					"type": "bytes32"
				}
			],
			"stateMutability": "view",
			"type": "function"
		},
		{
			"inputs": [],
			"name": "getHash3",
			"outputs": [
				{
					"internalType": "bytes4",
					"name": "",
					"type": "bytes4"
				}
			],
			"stateMutability": "view",
			"type": "function"
		},
		{
			"inputs": [],
			"name": "getHash4",
			"outputs": [
				{
					"internalType": "bytes1",
					"name": "",
					"type": "bytes1"
				}
			],
			"stateMutability": "view",
			"type": "function"
		},
		{
			"inputs": [],
			"name": "getHash5",
			"outputs": [
				{
					"internalType": "bytes16",
					"name": "",
					"type": "bytes16"
				}
			],
			"stateMutability": "view",
			"type": "function"
		},
		{
			"inputs": [],
			"name": "getNum1",
			"outputs": [
				{
					"internalType": "uint256",
					"name": "",
					"type": "uint256"
				}
			],
			"stateMutability": "view",
			"type": "function"
		},
		{
			"inputs": [],
			"name": "getNum2",
			"outputs": [
				{
					"internalType": "uint256",
					"name": "",
					"type": "uint256"
				}
			],
			"stateMutability": "view",
			"type": "function"
		},
		{
			"inputs": [],
			"name": "getNum3",
			"outputs": [
				{
					"internalType": "uint256",
					"name": "",
					"type": "uint256"
				}
			],
			"stateMutability": "view",
			"type": "function"
		},
		{
			"inputs": [],
			"name": "getNum4",
			"outputs": [
				{
					"internalType": "uint256",
					"name": "",
					"type": "uint256"
				}
			],
			"stateMutability": "view",
			"type": "function"
		},
		{
			"inputs": [],
			"name": "getNum5",
			"outputs": [
				{
					"internalType": "uint256",
					"name": "",
					"type": "uint256"
				}
			],
			"stateMutability": "view",
			"type": "function"
		},
		{
			"inputs": [],
			"name": "getNum6",
			"outputs": [
				{
					"internalType": "uint256",
					"name": "",
					"type": "uint256"
				}
			],
			"stateMutability": "view",
			"type": "function"
		},
		{
			"inputs": [],
			"name": "getStr1",
			"outputs": [
				{
					"internalType": "string",
					"name": "",
					"type": "string"
				}
			],
			"stateMutability": "view",
			"type": "function"
		},
		{
			"inputs": [],
			"name": "getStr2",
			"outputs": [
				{
					"internalType": "string",
					"name": "",
					"type": "string"
				}
			],
			"stateMutability": "view",
			"type": "function"
		}
	]
}