{
	"data": {
		"bytecode": {
			"linkReferences": {},
			"object": "6080604052348015600e575f80fd5b506103ba8061001c5f395ff3fe608060405234801561000f575f80fd5b50600436106100f0575f3560e01c8063910654d311610093578063d4515de511610063578063d4515de5146101f0578063e845ce8f1461022e578063ec630c7014610250578063fcdcfa501461025d575f80fd5b8063910654d3146101c0578063a531f36a146101c9578063ba1663ca146101d2578063d118d187146101db575f80fd5b8063425a1fb6116100ce578063425a1fb61461015f57806369743312146101685780637c75023a146101715780638eae5a3c1461017a575f80fd5b806315d4266c146100f457806319d730c6146101105780633b9eac4b14610157575b5f80fd5b6100fd60015481565b6040519081526020015b60405180910390f35b6008546101269065010000000000900460801b81565b6040517fffffffffffffffffffffffffffffffff000000000000000000000000000000009091168152602001610107565b6100fd5f5481565b6100fd60075481565b6100fd60045481565b6100fd60035481565b60085461018f90640100000000900460f81b81565b6040517fff000000000000000000000000000000000000000000000000000000000000009091168152602001610107565b6100fd60055481565b6100fd60025481565b6100fd60065481565b6101e3610265565b60405161010791906102fe565b6008546101fd9060e01b81565b6040517fffffffff000000000000000000000000000000000000000000000000000000009091168152602001610107565b600b5461024090610100900460ff1681565b6040519015158152602001610107565b600b546102409060ff1681565b6101e36102f1565b6009805461027290610333565b80601f016020809104026020016040519081016040528092919081815260200182805461029e90610333565b80156102e95780601f106102c0576101008083540402835291602001916102e9565b820191905f5260205f20905b8154815290600101906020018083116102cc57829003601f168201915b505050505081565b600a805461027290610333565b602081525f82518060208401528060208501604085015e5f604082850101526040601f19601f83011684010191505092915050565b600181811c9082168061034757607f821691505b60208210810361037e577f4e487b71000000000000000000000000000000000000000000000000000000005f52602260045260245ffd5b5091905056fea2646970667358221220abee03bac4147bb252bd5a9eaa207c8247156569cfe8a86783bb95dac309d1ce64736f6c63430008190033",
			"opcodes": "PUSH1 0x80 PUSH1 0x40 MSTORE CALLVALUE DUP1 ISZERO PUSH1 0xE JUMPI PUSH0 DUP1 REVERT JUMPDEST POP PUSH2 0x3BA DUP1 PUSH2 0x1C PUSH0 CODECOPY PUSH0 RETURN INVALID PUSH1 0x80 PUSH1 0x40 MSTORE CALLVALUE DUP1 ISZERO PUSH2 0xF JUMPI PUSH0 DUP1 REVERT JUMPDEST POP PUSH1 0x4 CALLDATASIZE LT PUSH2 0xF0 JUMPI PUSH0 CALLDATALOAD PUSH1 0xE0 SHR DUP1 PUSH4 0x910654D3 GT PUSH2 0x93 JUMPI DUP1 PUSH4 0xD4515DE5 GT PUSH2 0x63 JUMPI DUP1 PUSH4 0xD4515DE5 EQ PUSH2 0x1F0 JUMPI DUP1 PUSH4 0xE845CE8F EQ PUSH2 0x22E JUMPI DUP1 PUSH4 0xEC630C70 EQ PUSH2 0x250 JUMPI DUP1 PUSH4 0xFCDCFA50 EQ PUSH2 0x25D JUMPI PUSH0 DUP1 REVERT JUMPDEST DUP1 PUSH4 0x910654D3 EQ PUSH2 0x1C0 JUMPI DUP1 PUSH4 0xA531F36A EQ PUSH2 0x1C9 JUMPI DUP1 PUSH4 0xBA1663CA EQ PUSH2 0x1D2 JUMPI DUP1 PUSH4 0xD118D187 EQ PUSH2 0x1DB JUMPI PUSH0 DUP1 REVERT JUMPDEST DUP1 PUSH4 0x425A1FB6 GT PUSH2 0xCE JUMPI DUP1 PUSH4 0x425A1FB6 EQ PUSH2 0x15F JUMPI DUP1 PUSH4 0x69743312 EQ PUSH2 0x168 JUMPI DUP1 PUSH4 0x7C75023A EQ PUSH2 0x171 JUMPI DUP1 PUSH4 0x8EAE5A3C EQ PUSH2 0x17A JUMPI PUSH0 DUP1 REVERT JUMPDEST DUP1 PUSH4 0x15D4266C EQ PUSH2 0xF4 JUMPI DUP1 PUSH4 0x19D730C6 EQ PUSH2 0x110 JUMPI DUP1 PUSH4 0x3B9EAC4B EQ PUSH2 0x157 JUMPI JUMPDEST PUSH0 DUP1 REVERT JUMPDEST PUSH2 0xFD PUSH1 0x1 SLOAD DUP2 JUMP JUMPDEST PUSH1 0x40 MLOAD SWAP1 DUP2 MSTORE PUSH1 0x20 ADD JUMPDEST PUSH1 0x40 MLOAD DUP1 SWAP2 SUB SWAP1 RETURN JUMPDEST PUSH1 0x8 SLOAD PUSH2 0x126 SWAP1 PUSH6 0x10000000000 SWAP1 DIV PUSH1 0x80 SHL DUP2 JUMP JUMPDEST PUSH1 0x40 MLOAD PUSH32 0xFFFFFFFFFFFFFFFFFFFFFFFFFFFFFFFF00000000000000000000000000000000 SWAP1 SWAP2 AND DUP2 MSTORE PUSH1 0x20 ADD PUSH2 0x107 JUMP JUMPDEST PUSH2 0xFD PUSH0 SLOAD DUP2 JUMP JUMPDEST PUSH2 0xFD PUSH1 0x7 SLOAD DUP2 JUMP JUMPDEST PUSH2 0xFD PUSH1 0x4 SLOAD DUP2 JUMP JUMPDEST PUSH2 0xFD PUSH1 0x3 SLOAD DUP2 JUMP JUMPDEST PUSH1 0x8 SLOAD PUSH2 0x18F SWAP1 PUSH5 0x100000000 SWAP1 DIV PUSH1 0xF8 SHL DUP2 JUMP JUMPDEST PUSH1 0x40 MLOAD PUSH32 0xFF00000000000000000000000000000000000000000000000000000000000000 SWAP1 SWAP2 AND DUP2 MSTORE PUSH1 0x20 ADD PUSH2 0x107 JUMP JUMPDEST PUSH2 0xFD PUSH1 0x5 SLOAD DUP2 JUMP JUMPDEST PUSH2 0xFD PUSH1 0x2 SLOAD DUP2 JUMP JUMPDEST PUSH2 0xFD PUSH1 0x6 SLOAD DUP2 JUMP JUMPDEST PUSH2 0x1E3 PUSH2 0x265 JUMP JUMPDEST PUSH1 0x40 MLOAD PUSH2 0x107 SWAP2 SWAP1 PUSH2 0x2FE JUMP JUMPDEST PUSH1 0x8 SLOAD PUSH2 0x1FD SWAP1 PUSH1 0xE0 SHL DUP2 JUMP JUMPDEST PUSH1 0x40 MLOAD PUSH32 0xFFFFFFFF00000000000000000000000000000000000000000000000000000000 SWAP1 SWAP2 AND DUP2 MSTORE PUSH1 0x20 ADD PUSH2 0x107 JUMP JUMPDEST PUSH1 0xB SLOAD PUSH2 0x240 SWAP1 PUSH2 0x100 SWAP1 DIV PUSH1 0xFF AND DUP2 JUMP JUMPDEST PUSH1 0x40 MLOAD SWAP1 ISZERO ISZERO DUP2 MSTORE PUSH1 0x20 ADD PUSH2 0x107 JUMP JUMPDEST PUSH1 0xB SLOAD PUSH2 0x240 SWAP1 PUSH1 0xFF AND DUP2 JUMP JUMPDEST PUSH2 0x1E3 PUSH2 0x2F1 JUMP JUMPDEST PUSH1 0x9 DUP1 SLOAD PUSH2 0x272 SWAP1 PUSH2 0x333 JUMP JUMPDEST DUP1 PUSH1 0x1F ADD PUSH1 0x20 DUP1 SWAP2 DIV MUL PUSH1 0x20 ADD PUSH1 0x40 MLOAD SWAP1 DUP2 ADD PUSH1 0x40 MSTORE DUP1 SWAP3 SWAP2 SWAP1 DUP2 DUP2 MSTORE PUSH1 0x20 ADD DUP3 DUP1 SLOAD PUSH2 0x29E SWAP1 PUSH2 0x333 JUMP JUMPDEST DUP1 ISZERO PUSH2 0x2E9 JUMPI DUP1 PUSH1 0x1F LT PUSH2 0x2C0 JUMPI PUSH2 0x100 DUP1 DUP4 SLOAD DIV MUL DUP4 MSTORE SWAP2 PUSH1 0x20 ADD SWAP2 PUSH2 0x2E9 JUMP JUMPDEST DUP3 ADD SWAP2 SWAP1 PUSH0 MSTORE PUSH1 0x20 PUSH0 KECCAK256 SWAP1 JUMPDEST DUP2 SLOAD DUP2 MSTORE SWAP1 PUSH1 0x1 ADD SWAP1 PUSH1 0x20 ADD DUP1 DUP4 GT PUSH2 0x2CC JUMPI DUP3 SWAP1 SUB PUSH1 0x1F AND DUP3 ADD SWAP2 JUMPDEST POP POP POP POP POP DUP2 JUMP JUMPDEST PUSH1 0xA DUP1 SLOAD PUSH2 0x272 SWAP1 PUSH2 0x333 JUMP JUMPDEST PUSH1 0x20 DUP2 MSTORE PUSH0 DUP3 MLOAD DUP1 PUSH1 0x20 DUP5 ADD MSTORE DUP1 PUSH1 0x20 DUP6 ADD PUSH1 0x40 DUP6 ADD MCOPY PUSH0 PUSH1 0x40 DUP3 DUP6 ADD ADD MSTORE PUSH1 0x40 PUSH1 0x1F NOT PUSH1 0x1F DUP4 ADD AND DUP5 ADD ADD SWAP2 POP POP SWAP3 SWAP2 POP POP JUMP JUMPDEST PUSH1 0x1 DUP2 DUP2 SHR SWAP1 DUP3 AND DUP1 PUSH2 0x347 JUMPI PUSH1 0x7F DUP3 AND SWAP2 POP JUMPDEST PUSH1 0x20 DUP3 LT DUP2 SUB PUSH2 0x37E JUMPI PUSH32 0x4E487B7100000000000000000000000000000000000000000000000000000000 PUSH0 MSTORE PUSH1 0x22 PUSH1 0x4 MSTORE PUSH1 0x24 PUSH0 REVERT JUMPDEST POP SWAP2 SWAP1 POP JUMP INVALID LOG2 PUSH5 0x6970667358 0x22 SLT KECCAK256 0xAB 0xEE SUB 0xBA 0xC4 EQ PUSH28 0xB252BD5A9EAA207C8247156569CFE8A86783BB95DAC309D1CE64736F PUSH13 0x63430008190033000000000000 "
		},
		"gasEstimates": {
			"creation": {
				"codeDepositCost": "190800",
				"executionCost": "230",
				"totalCost": "191030"
			},
			"external": {
				"bool1()": "2375",
				"bool2()": "2364",
				"hash1()": "2350",
				"hash2()": "2306",
				"hash3()": "2334",
				"hash4()": "2412",
				"hash5()": "2369",
				"num1()": "2350",
				"num2()": "2307",
				"num3()": "2328",
				"num4()": "2350",
				"num5()": "2328",
				"num6()": "2306",
				"str1()": "infinite",
				"str2()": "infinite"
			}
		},
		"methodIdentifiers": {
			"bool1()": "ec630c70",
			"bool2()": "e845ce8f",
			"hash1()": "ba1663ca",
			"hash2()": "425a1fb6",
			"hash3()": "d4515de5",
			"hash4()": "8eae5a3c",
			"hash5()": "19d730c6",
			"num1()": "3b9eac4b",
			"num2()": "15d4266c",
			"num3()": "a531f36a",
			"num4()": "7c75023a",
			"num5()": "69743312",
			"num6()": "910654d3",
			"str1()": "d118d187",
			"str2()": "fcdcfa50"
		}
	},
	"abi": [
		{
			"inputs": [],
			"name": "bool1",
			"outputs": [
				{
					"internalType": "bool",
					"name": "",
					"type": "bool"
				}
			],
			"stateMutability": "view",
			"type": "function"
		},
		{
			"inputs": [],
			"name": "bool2",
			"outputs": [
				{
					"internalType": "bool",
					"name": "",
					"type": "bool"
				}
			],
			"stateMutability": "view",
			"type": "function"
		},
		{
			"inputs": [],
			"name": "hash1",
			"outputs": [
				{
					"internalType": "bytes32",
					"name": "",
					"type": "bytes32"
				}
			],
			"stateMutability": "view",
			"type": "function"
		},
		{
			"inputs": [],
			"name": "hash2",
			"outputs": [
				{
					"internalType": "bytes32",
					"name": "",
					"type": "bytes32"
				}
			],
			"stateMutability": "view",
			"type": "function"
		},
		{
			"inputs": [],
			"name": "hash3",
			"outputs": [
				{
					"internalType": "bytes4",
					"name": "",
					"type": "bytes4"
				}
			],
			"stateMutability": "view",
			"type": "function"
		},
		{
			"inputs": [],
			"name": "hash4",
			"outputs": [
				{
					"internalType": "bytes1",
					"name": "",
					"type": "bytes1"
				}
			],
			"stateMutability": "view",
			"type": "function"
		},
		{
			"inputs": [],
			"name": "hash5",
			"outputs": [
				{
					"internalType": "bytes16",
					"name": "",
					"type": "bytes16"
				}
			],
			"stateMutability": "view",
			"type": "function"
		},
		{
			"inputs": [],
			"name": "num1",
			"outputs": [
				{
					"internalType": "uint256",
					"name": "",
					"type": "uint256"
				}
			],
			"stateMutability": "view",
			"type": "function"
		},
		{
			"inputs": [],
			"name": "num2",
			"outputs": [
				{
					"internalType": "uint256",
					"name": "",
					"type": "uint256"
				}
			],
			"stateMutability": "view",
			"type": "function"
		},
		{
			"inputs": [],
			"name": "num3",
			"outputs": [
				{
					"internalType": "uint256",
					"name": "",
					"type": "uint256"
				}
			],
			"stateMutability": "view",
			"type": "function"
		},
		{
			"inputs": [],
			"name": "num4",
			"outputs": [
				{
					"internalType": "uint256",
					"name": "",
					"type": "uint256"
				}
			],
			"stateMutability": "view",
			"type": "function"
		},
		{
			"inputs": [],
			"name": "num5",
			"outputs": [
				{
					"internalType": "uint256",
					"name": "",
					"type": "uint256"
				}
			],
			"stateMutability": "view",
			"type": "function"
		},
		{
			"inputs": [],
			"name": "num6",
			"outputs": [
				{
					"internalType": "uint256",
					"name": "",
					"type": "uint256"
				}
			],
			"stateMutability": "view",
			"type": "function"
		},
		{
			"inputs": [],
			"name": "str1",
			"outputs": [
				{
					"internalType": "string",
					"name": "",
					"type": "string"
				}
			],
			"stateMutability": "view",
			"type": "function"
		},
		{
			"inputs": [],
			"name": "str2",
			"outputs": [
				{
					"internalType": "string",
					"name": "",
					"type": "string"
				}
			],
			"stateMutability": "view",
			"type": "function"
		}
	]
}