{
	"contracts/ContractK/ContractKV1.sol": {
		"ContractKV1": {
			"abi": [
				{
					"inputs": [
						{
							"internalType": "uint256[]",
							"name": "nums",
							"type": "uint256[]"
						}
					],
					"name": "sumNumbers",
					"outputs": [
						{
							"internalType": "uint256",
							"name": "",
							"type": "uint256"
						}
					],
					"stateMutability": "pure",
					"type": "function"
				}
			],
			"devdoc": {
				"kind": "dev",
				"methods": {},
				"version": 1
			},
			"evm": {
				"assembly": "    /* \"contracts/ContractK/ContractKV1.sol\":63:323  contract ContractKV1 {... */\n  mstore(0x40, 0x80)\n  callvalue\n  dup1\n  iszero\n  tag_1\n  jumpi\n  0x00\n  dup1\n  revert\ntag_1:\n  pop\n  dataSize(sub_0)\n  dup1\n  dataOffset(sub_0)\n  0x00\n  codecopy\n  0x00\n  return\nstop\n\nsub_0: assembly {\n        /* \"contracts/ContractK/ContractKV1.sol\":63:323  contract ContractKV1 {... */\n      mstore(0x40, 0x80)\n      callvalue\n      dup1\n      iszero\n      tag_1\n      jumpi\n      0x00\n      dup1\n      revert\n    tag_1:\n      pop\n      jumpi(tag_2, lt(calldatasize, 0x04))\n      shr(0xe0, calldataload(0x00))\n      dup1\n      0xd906b08e\n      eq\n      tag_3\n      jumpi\n    tag_2:\n      0x00\n      dup1\n      revert\n        /* \"contracts/ContractK/ContractKV1.sol\":91:320  function sumNumbers(uint256[] memory nums) public pure returns (uint256) {... */\n    tag_3:\n      tag_4\n      tag_5\n      calldatasize\n      0x04\n      tag_6\n      jump\t// in\n    tag_5:\n      tag_7\n      jump\t// in\n    tag_4:\n      mload(0x40)\n        /* \"#utility.yul\":1469:1494   */\n      swap1\n      dup2\n      mstore\n        /* \"#utility.yul\":1457:1459   */\n      0x20\n        /* \"#utility.yul\":1442:1460   */\n      add\n        /* \"contracts/ContractK/ContractKV1.sol\":91:320  function sumNumbers(uint256[] memory nums) public pure returns (uint256) {... */\n      mload(0x40)\n      dup1\n      swap2\n      sub\n      swap1\n      return\n    tag_7:\n        /* \"contracts/ContractK/ContractKV1.sol\":155:162  uint256 */\n      0x00\n        /* \"contracts/ContractK/ContractKV1.sol\":175:186  uint256 sum */\n      dup1\n        /* \"contracts/ContractK/ContractKV1.sol\":204:213  uint256 i */\n      0x00\n        /* \"contracts/ContractK/ContractKV1.sol\":199:282  for (uint256 i = 0; i < nums.length; i++) {... */\n    tag_11:\n        /* \"contracts/ContractK/ContractKV1.sol\":223:227  nums */\n      dup4\n        /* \"contracts/ContractK/ContractKV1.sol\":223:234  nums.length */\n      mload\n        /* \"contracts/ContractK/ContractKV1.sol\":219:220  i */\n      dup2\n        /* \"contracts/ContractK/ContractKV1.sol\":219:234  i < nums.length */\n      lt\n        /* \"contracts/ContractK/ContractKV1.sol\":199:282  for (uint256 i = 0; i < nums.length; i++) {... */\n      iszero\n      tag_12\n      jumpi\n        /* \"contracts/ContractK/ContractKV1.sol\":263:267  nums */\n      dup4\n        /* \"contracts/ContractK/ContractKV1.sol\":268:269  i */\n      dup2\n        /* \"contracts/ContractK/ContractKV1.sol\":263:270  nums[i] */\n      dup2\n      mload\n      dup2\n      lt\n      tag_15\n      jumpi\n      tag_15\n      tag_16\n      jump\t// in\n    tag_15:\n      0x20\n      mul\n      0x20\n      add\n      add\n      mload\n        /* \"contracts/ContractK/ContractKV1.sol\":256:270  sum += nums[i] */\n      dup3\n      tag_17\n      swap2\n      swap1\n      tag_18\n      jump\t// in\n    tag_17:\n      swap2\n      pop\n        /* \"contracts/ContractK/ContractKV1.sol\":236:239  i++ */\n      0x01\n      add\n        /* \"contracts/ContractK/ContractKV1.sol\":199:282  for (uint256 i = 0; i < nums.length; i++) {... */\n      jump(tag_11)\n    tag_12:\n      pop\n        /* \"contracts/ContractK/ContractKV1.sol\":309:312  sum */\n      swap3\n        /* \"contracts/ContractK/ContractKV1.sol\":91:320  function sumNumbers(uint256[] memory nums) public pure returns (uint256) {... */\n      swap2\n      pop\n      pop\n      jump\t// out\n        /* \"#utility.yul\":14:198   */\n    tag_19:\n      shl(0xe0, 0x4e487b71)\n        /* \"#utility.yul\":63:64   */\n      0x00\n        /* \"#utility.yul\":56:144   */\n      mstore\n        /* \"#utility.yul\":163:167   */\n      0x41\n        /* \"#utility.yul\":160:161   */\n      0x04\n        /* \"#utility.yul\":153:168   */\n      mstore\n        /* \"#utility.yul\":187:191   */\n      0x24\n        /* \"#utility.yul\":184:185   */\n      0x00\n        /* \"#utility.yul\":177:192   */\n      revert\n        /* \"#utility.yul\":203:1318   */\n    tag_6:\n        /* \"#utility.yul\":287:293   */\n      0x00\n        /* \"#utility.yul\":318:320   */\n      0x20\n        /* \"#utility.yul\":361:363   */\n      dup1\n        /* \"#utility.yul\":349:358   */\n      dup4\n        /* \"#utility.yul\":340:347   */\n      dup6\n        /* \"#utility.yul\":336:359   */\n      sub\n        /* \"#utility.yul\":332:364   */\n      slt\n        /* \"#utility.yul\":329:381   */\n      iszero\n      tag_23\n      jumpi\n        /* \"#utility.yul\":377:378   */\n      0x00\n        /* \"#utility.yul\":374:375   */\n      dup1\n        /* \"#utility.yul\":367:379   */\n      revert\n        /* \"#utility.yul\":329:381   */\n    tag_23:\n        /* \"#utility.yul\":417:426   */\n      dup3\n        /* \"#utility.yul\":404:427   */\n      calldataload\n        /* \"#utility.yul\":446:464   */\n      0xffffffffffffffff\n        /* \"#utility.yul\":487:489   */\n      dup1\n        /* \"#utility.yul\":479:485   */\n      dup3\n        /* \"#utility.yul\":476:490   */\n      gt\n        /* \"#utility.yul\":473:507   */\n      iszero\n      tag_24\n      jumpi\n        /* \"#utility.yul\":503:504   */\n      0x00\n        /* \"#utility.yul\":500:501   */\n      dup1\n        /* \"#utility.yul\":493:505   */\n      revert\n        /* \"#utility.yul\":473:507   */\n    tag_24:\n        /* \"#utility.yul\":541:547   */\n      dup2\n        /* \"#utility.yul\":530:539   */\n      dup6\n        /* \"#utility.yul\":526:548   */\n      add\n        /* \"#utility.yul\":516:548   */\n      swap2\n      pop\n        /* \"#utility.yul\":586:593   */\n      dup6\n        /* \"#utility.yul\":579:583   */\n      0x1f\n        /* \"#utility.yul\":575:577   */\n      dup4\n        /* \"#utility.yul\":571:584   */\n      add\n        /* \"#utility.yul\":567:594   */\n      slt\n        /* \"#utility.yul\":557:612   */\n      tag_25\n      jumpi\n        /* \"#utility.yul\":608:609   */\n      0x00\n        /* \"#utility.yul\":605:606   */\n      dup1\n        /* \"#utility.yul\":598:610   */\n      revert\n        /* \"#utility.yul\":557:612   */\n    tag_25:\n        /* \"#utility.yul\":644:646   */\n      dup2\n        /* \"#utility.yul\":631:647   */\n      calldataload\n        /* \"#utility.yul\":666:668   */\n      dup2\n        /* \"#utility.yul\":662:664   */\n      dup2\n        /* \"#utility.yul\":659:669   */\n      gt\n        /* \"#utility.yul\":656:692   */\n      iszero\n      tag_27\n      jumpi\n        /* \"#utility.yul\":672:690   */\n      tag_27\n      tag_19\n      jump\t// in\n    tag_27:\n        /* \"#utility.yul\":718:720   */\n      dup1\n        /* \"#utility.yul\":715:716   */\n      0x05\n        /* \"#utility.yul\":711:721   */\n      shl\n        /* \"#utility.yul\":750:752   */\n      0x40\n        /* \"#utility.yul\":744:753   */\n      mload\n        /* \"#utility.yul\":813:815   */\n      0x1f\n        /* \"#utility.yul\":809:816   */\n      not\n        /* \"#utility.yul\":804:806   */\n      0x3f\n        /* \"#utility.yul\":800:802   */\n      dup4\n        /* \"#utility.yul\":796:807   */\n      add\n        /* \"#utility.yul\":792:817   */\n      and\n        /* \"#utility.yul\":784:790   */\n      dup2\n        /* \"#utility.yul\":780:818   */\n      add\n        /* \"#utility.yul\":868:874   */\n      dup2\n        /* \"#utility.yul\":856:866   */\n      dup2\n        /* \"#utility.yul\":853:875   */\n      lt\n        /* \"#utility.yul\":848:850   */\n      dup6\n        /* \"#utility.yul\":836:846   */\n      dup3\n        /* \"#utility.yul\":833:851   */\n      gt\n        /* \"#utility.yul\":830:876   */\n      or\n        /* \"#utility.yul\":827:899   */\n      iszero\n      tag_29\n      jumpi\n        /* \"#utility.yul\":879:897   */\n      tag_29\n      tag_19\n      jump\t// in\n    tag_29:\n        /* \"#utility.yul\":915:917   */\n      0x40\n        /* \"#utility.yul\":908:930   */\n      mstore\n        /* \"#utility.yul\":965:983   */\n      swap2\n      dup3\n      mstore\n        /* \"#utility.yul\":999:1014   */\n      dup5\n      dup3\n      add\n      swap3\n      pop\n        /* \"#utility.yul\":1041:1052   */\n      dup4\n      dup2\n      add\n        /* \"#utility.yul\":1037:1057   */\n      dup6\n      add\n      swap2\n        /* \"#utility.yul\":1069:1088   */\n      dup9\n      dup4\n      gt\n        /* \"#utility.yul\":1066:1105   */\n      iszero\n      tag_30\n      jumpi\n        /* \"#utility.yul\":1101:1102   */\n      0x00\n        /* \"#utility.yul\":1098:1099   */\n      dup1\n        /* \"#utility.yul\":1091:1103   */\n      revert\n        /* \"#utility.yul\":1066:1105   */\n    tag_30:\n        /* \"#utility.yul\":1125:1136   */\n      swap4\n      dup6\n      add\n      swap4\n        /* \"#utility.yul\":1145:1287   */\n    tag_31:\n        /* \"#utility.yul\":1161:1167   */\n      dup3\n        /* \"#utility.yul\":1156:1159   */\n      dup6\n        /* \"#utility.yul\":1153:1168   */\n      lt\n        /* \"#utility.yul\":1145:1287   */\n      iszero\n      tag_33\n      jumpi\n        /* \"#utility.yul\":1227:1244   */\n      dup5\n      calldataload\n        /* \"#utility.yul\":1215:1245   */\n      dup5\n      mstore\n        /* \"#utility.yul\":1178:1190   */\n      swap4\n      dup6\n      add\n      swap4\n        /* \"#utility.yul\":1265:1277   */\n      swap3\n      dup6\n      add\n      swap3\n        /* \"#utility.yul\":1145:1287   */\n      jump(tag_31)\n    tag_33:\n        /* \"#utility.yul\":1306:1312   */\n      swap9\n        /* \"#utility.yul\":203:1318   */\n      swap8\n      pop\n      pop\n      pop\n      pop\n      pop\n      pop\n      pop\n      pop\n      jump\t// out\n        /* \"#utility.yul\":1505:1689   */\n    tag_16:\n      shl(0xe0, 0x4e487b71)\n        /* \"#utility.yul\":1554:1555   */\n      0x00\n        /* \"#utility.yul\":1547:1635   */\n      mstore\n        /* \"#utility.yul\":1654:1658   */\n      0x32\n        /* \"#utility.yul\":1651:1652   */\n      0x04\n        /* \"#utility.yul\":1644:1659   */\n      mstore\n        /* \"#utility.yul\":1678:1682   */\n      0x24\n        /* \"#utility.yul\":1675:1676   */\n      0x00\n        /* \"#utility.yul\":1668:1683   */\n      revert\n        /* \"#utility.yul\":1694:1973   */\n    tag_18:\n        /* \"#utility.yul\":1759:1768   */\n      dup1\n      dup3\n      add\n        /* \"#utility.yul\":1780:1790   */\n      dup1\n      dup3\n      gt\n        /* \"#utility.yul\":1777:1967   */\n      iszero\n      tag_37\n      jumpi\n      shl(0xe0, 0x4e487b71)\n        /* \"#utility.yul\":1820:1821   */\n      0x00\n        /* \"#utility.yul\":1813:1901   */\n      mstore\n        /* \"#utility.yul\":1924:1928   */\n      0x11\n        /* \"#utility.yul\":1921:1922   */\n      0x04\n        /* \"#utility.yul\":1914:1929   */\n      mstore\n        /* \"#utility.yul\":1952:1956   */\n      0x24\n        /* \"#utility.yul\":1949:1950   */\n      0x00\n        /* \"#utility.yul\":1942:1957   */\n      revert\n        /* \"#utility.yul\":1777:1967   */\n    tag_37:\n        /* \"#utility.yul\":1694:1973   */\n      swap3\n      swap2\n      pop\n      pop\n      jump\t// out\n\n    auxdata: 0xa26469706673582212206270cd5bda04f7286cc01c9f6fc18a3c27623ab050e914004c2cf3294afab4f064736f6c63430008190033\n}\n",
				"bytecode": {
					"linkReferences": {},
					"object": "6080604052348015600e575f80fd5b506101d18061001c5f395ff3fe608060405234801561000f575f80fd5b5060043610610029575f3560e01c8063d906b08e1461002d575b5f80fd5b61004061003b3660046100a9565b610052565b60405190815260200160405180910390f35b5f805f5b835181101561008e5783818151811061007157610071610162565b6020026020010151826100849190610176565b9150600101610056565b5092915050565b634e487b7160e01b5f52604160045260245ffd5b5f60208083850312156100ba575f80fd5b823567ffffffffffffffff808211156100d1575f80fd5b818501915085601f8301126100e4575f80fd5b8135818111156100f6576100f6610095565b8060051b604051601f19603f8301168101818110858211171561011b5761011b610095565b604052918252848201925083810185019188831115610138575f80fd5b938501935b828510156101565784358452938501939285019261013d565b98975050505050505050565b634e487b7160e01b5f52603260045260245ffd5b8082018082111561019557634e487b7160e01b5f52601160045260245ffd5b9291505056fea26469706673582212206270cd5bda04f7286cc01c9f6fc18a3c27623ab050e914004c2cf3294afab4f064736f6c63430008190033",
					"opcodes": "PUSH1 0x80 PUSH1 0x40 MSTORE CALLVALUE DUP1 ISZERO PUSH1 0xE JUMPI PUSH0 DUP1 REVERT JUMPDEST POP PUSH2 0x1D1 DUP1 PUSH2 0x1C PUSH0 CODECOPY PUSH0 RETURN INVALID PUSH1 0x80 PUSH1 0x40 MSTORE CALLVALUE DUP1 ISZERO PUSH2 0xF JUMPI PUSH0 DUP1 REVERT JUMPDEST POP PUSH1 0x4 CALLDATASIZE LT PUSH2 0x29 JUMPI PUSH0 CALLDATALOAD PUSH1 0xE0 SHR DUP1 PUSH4 0xD906B08E EQ PUSH2 0x2D JUMPI JUMPDEST PUSH0 DUP1 REVERT JUMPDEST PUSH2 0x40 PUSH2 0x3B CALLDATASIZE PUSH1 0x4 PUSH2 0xA9 JUMP JUMPDEST PUSH2 0x52 JUMP JUMPDEST PUSH1 0x40 MLOAD SWAP1 DUP2 MSTORE PUSH1 0x20 ADD PUSH1 0x40 MLOAD DUP1 SWAP2 SUB SWAP1 RETURN JUMPDEST PUSH0 DUP1 PUSH0 JUMPDEST DUP4 MLOAD DUP2 LT ISZERO PUSH2 0x8E JUMPI DUP4 DUP2 DUP2 MLOAD DUP2 LT PUSH2 0x71 JUMPI PUSH2 0x71 PUSH2 0x162 JUMP JUMPDEST PUSH1 0x20 MUL PUSH1 0x20 ADD ADD MLOAD DUP3 PUSH2 0x84 SWAP2 SWAP1 PUSH2 0x176 JUMP JUMPDEST SWAP2 POP PUSH1 0x1 ADD PUSH2 0x56 JUMP JUMPDEST POP SWAP3 SWAP2 POP POP JUMP JUMPDEST PUSH4 0x4E487B71 PUSH1 0xE0 SHL PUSH0 MSTORE PUSH1 0x41 PUSH1 0x4 MSTORE PUSH1 0x24 PUSH0 REVERT JUMPDEST PUSH0 PUSH1 0x20 DUP1 DUP4 DUP6 SUB SLT ISZERO PUSH2 0xBA JUMPI PUSH0 DUP1 REVERT JUMPDEST DUP3 CALLDATALOAD PUSH8 0xFFFFFFFFFFFFFFFF DUP1 DUP3 GT ISZERO PUSH2 0xD1 JUMPI PUSH0 DUP1 REVERT JUMPDEST DUP2 DUP6 ADD SWAP2 POP DUP6 PUSH1 0x1F DUP4 ADD SLT PUSH2 0xE4 JUMPI PUSH0 DUP1 REVERT JUMPDEST DUP2 CALLDATALOAD DUP2 DUP2 GT ISZERO PUSH2 0xF6 JUMPI PUSH2 0xF6 PUSH2 0x95 JUMP JUMPDEST DUP1 PUSH1 0x5 SHL PUSH1 0x40 MLOAD PUSH1 0x1F NOT PUSH1 0x3F DUP4 ADD AND DUP2 ADD DUP2 DUP2 LT DUP6 DUP3 GT OR ISZERO PUSH2 0x11B JUMPI PUSH2 0x11B PUSH2 0x95 JUMP JUMPDEST PUSH1 0x40 MSTORE SWAP2 DUP3 MSTORE DUP5 DUP3 ADD SWAP3 POP DUP4 DUP2 ADD DUP6 ADD SWAP2 DUP9 DUP4 GT ISZERO PUSH2 0x138 JUMPI PUSH0 DUP1 REVERT JUMPDEST SWAP4 DUP6 ADD SWAP4 JUMPDEST DUP3 DUP6 LT ISZERO PUSH2 0x156 JUMPI DUP5 CALLDATALOAD DUP5 MSTORE SWAP4 DUP6 ADD SWAP4 SWAP3 DUP6 ADD SWAP3 PUSH2 0x13D JUMP JUMPDEST SWAP9 SWAP8 POP POP POP POP POP POP POP POP JUMP JUMPDEST PUSH4 0x4E487B71 PUSH1 0xE0 SHL PUSH0 MSTORE PUSH1 0x32 PUSH1 0x4 MSTORE PUSH1 0x24 PUSH0 REVERT JUMPDEST DUP1 DUP3 ADD DUP1 DUP3 GT ISZERO PUSH2 0x195 JUMPI PUSH4 0x4E487B71 PUSH1 0xE0 SHL PUSH0 MSTORE PUSH1 0x11 PUSH1 0x4 MSTORE PUSH1 0x24 PUSH0 REVERT JUMPDEST SWAP3 SWAP2 POP POP JUMP INVALID LOG2 PUSH5 0x6970667358 0x22 SLT KECCAK256 PUSH3 0x70CD5B 0xDA DIV 0xF7 0x28 PUSH13 0xC01C9F6FC18A3C27623AB050E9 EQ STOP 0x4C 0x2C RETURN 0x29 BLOBBASEFEE STATICCALL 0xB4 CREATE PUSH5 0x736F6C6343 STOP ADDMOD NOT STOP CALLER "
				},
				"gasEstimates": {
					"creation": {
						"codeDepositCost": "93000",
						"executionCost": "139",
						"totalCost": "93139"
					},
					"external": {
						"sumNumbers(uint256[])": "infinite"
					}
				},
				"methodIdentifiers": {
					"sumNumbers(uint256[])": "d906b08e"
				}
			},
			"storageLayout": {
				"storage": [],
				"types": null
			},
			"userdoc": {
				"kind": "user",
				"methods": {},
				"version": 1
			}
		}
	}
}