{
	"contracts/ContractP/ContractPV4.sol": {
		"ContractPV4": {
			"abi": [
				{
					"inputs": [],
					"name": "getValues",
					"outputs": [
						{
							"internalType": "uint8",
							"name": "a",
							"type": "uint8"
						},
						{
							"internalType": "uint8",
							"name": "b",
							"type": "uint8"
						},
						{
							"internalType": "uint16",
							"name": "c",
							"type": "uint16"
						},
						{
							"internalType": "uint16",
							"name": "d",
							"type": "uint16"
						},
						{
							"internalType": "uint32",
							"name": "e",
							"type": "uint32"
						},
						{
							"internalType": "uint64",
							"name": "f",
							"type": "uint64"
						},
						{
							"internalType": "uint112",
							"name": "g",
							"type": "uint112"
						}
					],
					"stateMutability": "view",
					"type": "function"
				},
				{
					"inputs": [
						{
							"internalType": "uint8",
							"name": "a",
							"type": "uint8"
						}
					],
					"name": "setA",
					"outputs": [],
					"stateMutability": "nonpayable",
					"type": "function"
				},
				{
					"inputs": [
						{
							"internalType": "uint8",
							"name": "b",
							"type": "uint8"
						}
					],
					"name": "setB",
					"outputs": [],
					"stateMutability": "nonpayable",
					"type": "function"
				},
				{
					"inputs": [
						{
							"internalType": "uint16",
							"name": "c",
							"type": "uint16"
						}
					],
					"name": "setC",
					"outputs": [],
					"stateMutability": "nonpayable",
					"type": "function"
				},
				{
					"inputs": [
						{
							"internalType": "uint16",
							"name": "d",
							"type": "uint16"
						}
					],
					"name": "setD",
					"outputs": [],
					"stateMutability": "nonpayable",
					"type": "function"
				},
				{
					"inputs": [
						{
							"internalType": "uint32",
							"name": "e",
							"type": "uint32"
						}
					],
					"name": "setE",
					"outputs": [],
					"stateMutability": "nonpayable",
					"type": "function"
				},
				{
					"inputs": [
						{
							"internalType": "uint64",
							"name": "f",
							"type": "uint64"
						}
					],
					"name": "setF",
					"outputs": [],
					"stateMutability": "nonpayable",
					"type": "function"
				},
				{
					"inputs": [
						{
							"internalType": "uint112",
							"name": "g",
							"type": "uint112"
						}
					],
					"name": "setG",
					"outputs": [],
					"stateMutability": "nonpayable",
					"type": "function"
				}
			],
			"devdoc": {
				"kind": "dev",
				"methods": {},
				"version": 1
			},
			"evm": {
				"assembly": "    /* \"contracts/ContractP/ContractPV4.sol\":63:2903  contract ContractPV4 {... */\n  mstore(0x40, 0x80)\n  callvalue\n  dup1\n  iszero\n  tag_1\n  jumpi\n  0x00\n  dup1\n  revert\ntag_1:\n  pop\n  dataSize(sub_0)\n  dup1\n  dataOffset(sub_0)\n  0x00\n  codecopy\n  0x00\n  return\nstop\n\nsub_0: assembly {\n        /* \"contracts/ContractP/ContractPV4.sol\":63:2903  contract ContractPV4 {... */\n      mstore(0x40, 0x80)\n      callvalue\n      dup1\n      iszero\n      tag_1\n      jumpi\n      0x00\n      dup1\n      revert\n    tag_1:\n      pop\n      jumpi(tag_2, lt(calldatasize, 0x04))\n      shr(0xe0, calldataload(0x00))\n      dup1\n      0x8c659031\n      gt\n      tag_11\n      jumpi\n      dup1\n      0x8c659031\n      eq\n      tag_7\n      jumpi\n      dup1\n      0x9ad09c83\n      eq\n      tag_8\n      jumpi\n      dup1\n      0xa35ca28d\n      eq\n      tag_9\n      jumpi\n      dup1\n      0xc04a87d1\n      eq\n      tag_10\n      jumpi\n      0x00\n      dup1\n      revert\n    tag_11:\n      dup1\n      0x16abdf7d\n      eq\n      tag_3\n      jumpi\n      dup1\n      0x19eb4a90\n      eq\n      tag_4\n      jumpi\n      dup1\n      0x26ccace9\n      eq\n      tag_5\n      jumpi\n      dup1\n      0x6074e99e\n      eq\n      tag_6\n      jumpi\n    tag_2:\n      0x00\n      dup1\n      revert\n        /* \"contracts/ContractP/ContractPV4.sol\":1353:1506  function setB(uint8 b) public {... */\n    tag_3:\n      tag_12\n      tag_13\n      calldatasize\n      0x04\n      tag_14\n      jump\t// in\n    tag_13:\n        /* \"contracts/ContractP/ContractPV4.sol\":1484:1485  b */\n      dup1\n        /* \"contracts/ContractP/ContractPV4.sol\":1477:1482  B_POS */\n      0x08\n        /* \"contracts/ContractP/ContractPV4.sol\":1473:1486  shl(B_POS, b) */\n      shl\n        /* \"contracts/ContractP/ContractPV4.sol\":1463:1469  B_MASK */\n      0xff00\n        /* \"contracts/ContractP/ContractPV4.sol\":1459:1470  not(B_MASK) */\n      not\n        /* \"contracts/ContractP/ContractPV4.sol\":1448:1456  num.slot */\n      0x00\n        /* \"contracts/ContractP/ContractPV4.sol\":1442:1457  sload(num.slot) */\n      sload\n        /* \"contracts/ContractP/ContractPV4.sol\":1438:1471  and(sload(num.slot), not(B_MASK)) */\n      and\n        /* \"contracts/ContractP/ContractPV4.sol\":1435:1487  or(and(sload(num.slot), not(B_MASK)), shl(B_POS, b)) */\n      or\n        /* \"contracts/ContractP/ContractPV4.sol\":1425:1433  num.slot */\n      0x00\n        /* \"contracts/ContractP/ContractPV4.sol\":1418:1488  sstore(num.slot, or(and(sload(num.slot), not(B_MASK)), shl(B_POS, b))) */\n      sstore\n        /* \"contracts/ContractP/ContractPV4.sol\":1353:1506  function setB(uint8 b) public {... */\n      pop\n      jump\n    tag_12:\n      stop\n        /* \"contracts/ContractP/ContractPV4.sol\":2325:2900  function getValues() public view returns (... */\n    tag_4:\n      tag_16\n        /* \"contracts/ContractP/ContractPV4.sol\":2377:2384  uint8 a */\n      0x00\n        /* \"contracts/ContractP/ContractPV4.sol\":2550:2565  sload(num.slot) */\n      sload\n        /* \"contracts/ContractP/ContractPV4.sol\":2605:2611  A_MASK */\n      0xff\n        /* \"contracts/ContractP/ContractPV4.sol\":2598:2612  and(n, A_MASK) */\n      dup1\n      dup3\n      and\n      swap3\n        /* \"contracts/ContractP/ContractPV4.sol\":2635:2640  B_POS */\n      0x08\n        /* \"contracts/ContractP/ContractPV4.sol\":2631:2657  shr(B_POS, and(n, B_MASK)) */\n      dup4\n      swap1\n      shr\n      swap1\n      swap2\n      and\n      swap2\n        /* \"contracts/ContractP/ContractPV4.sol\":2676:2702  shr(C_POS, and(n, C_MASK)) */\n      0xffff\n        /* \"contracts/ContractP/ContractPV4.sol\":2680:2685  C_POS */\n      0x10\n        /* \"contracts/ContractP/ContractPV4.sol\":2676:2702  shr(C_POS, and(n, C_MASK)) */\n      dup3\n      swap1\n      shr\n      dup2\n      and\n      swap3\n        /* \"contracts/ContractP/ContractPV4.sol\":2725:2730  D_POS */\n      0x20\n        /* \"contracts/ContractP/ContractPV4.sol\":2721:2747  shr(D_POS, and(n, D_MASK)) */\n      dup4\n      swap1\n      shr\n      swap1\n      swap2\n      and\n      swap2\n        /* \"contracts/ContractP/ContractPV4.sol\":2766:2792  shr(E_POS, and(n, E_MASK)) */\n      0xffffffff\n        /* \"contracts/ContractP/ContractPV4.sol\":2770:2775  E_POS */\n      0x30\n        /* \"contracts/ContractP/ContractPV4.sol\":2766:2792  shr(E_POS, and(n, E_MASK)) */\n      dup3\n      swap1\n      shr\n      and\n      swap2\n        /* \"contracts/ContractP/ContractPV4.sol\":2811:2837  shr(F_POS, and(n, F_MASK)) */\n      0xffffffffffffffff\n        /* \"contracts/ContractP/ContractPV4.sol\":2815:2820  F_POS */\n      0x50\n        /* \"contracts/ContractP/ContractPV4.sol\":2811:2837  shr(F_POS, and(n, F_MASK)) */\n      dup4\n      swap1\n      shr\n      and\n      swap2\n        /* \"contracts/ContractP/ContractPV4.sol\":2860:2865  G_POS */\n      0x90\n        /* \"contracts/ContractP/ContractPV4.sol\":2856:2882  shr(G_POS, and(n, G_MASK)) */\n      shr\n      swap1\n        /* \"contracts/ContractP/ContractPV4.sol\":2325:2900  function getValues() public view returns (... */\n      jump\n    tag_16:\n      0x40\n      dup1\n      mload\n        /* \"#utility.yul\":617:621   */\n      0xff\n        /* \"#utility.yul\":605:622   */\n      swap9\n      dup10\n      and\n        /* \"#utility.yul\":587:623   */\n      dup2\n      mstore\n        /* \"#utility.yul\":659:676   */\n      swap8\n      swap1\n      swap7\n      and\n        /* \"#utility.yul\":654:656   */\n      0x20\n        /* \"#utility.yul\":639:657   */\n      dup9\n      add\n        /* \"#utility.yul\":632:677   */\n      mstore\n        /* \"#utility.yul\":696:702   */\n      0xffff\n        /* \"#utility.yul\":738:753   */\n      swap5\n      dup6\n      and\n        /* \"#utility.yul\":718:736   */\n      swap6\n      dup8\n      add\n        /* \"#utility.yul\":711:754   */\n      swap6\n      swap1\n      swap6\n      mstore\n        /* \"#utility.yul\":790:805   */\n      swap3\n      swap1\n      swap2\n      and\n        /* \"#utility.yul\":785:787   */\n      0x60\n        /* \"#utility.yul\":770:788   */\n      dup6\n      add\n        /* \"#utility.yul\":763:806   */\n      mstore\n        /* \"#utility.yul\":855:865   */\n      0xffffffff\n        /* \"#utility.yul\":843:866   */\n      and\n        /* \"#utility.yul\":837:840   */\n      0x80\n        /* \"#utility.yul\":822:841   */\n      dup5\n      add\n        /* \"#utility.yul\":815:867   */\n      mstore\n        /* \"#utility.yul\":916:934   */\n      0xffffffffffffffff\n        /* \"#utility.yul\":904:935   */\n      and\n        /* \"#utility.yul\":898:901   */\n      0xa0\n        /* \"#utility.yul\":883:902   */\n      dup4\n      add\n        /* \"#utility.yul\":876:936   */\n      mstore\n        /* \"#utility.yul\":985:1015   */\n      0xffffffffffffffffffffffffffff\n        /* \"#utility.yul\":973:1016   */\n      and\n        /* \"#utility.yul\":967:970   */\n      0xc0\n        /* \"#utility.yul\":952:971   */\n      dup3\n      add\n        /* \"#utility.yul\":945:1017   */\n      mstore\n        /* \"#utility.yul\":574:577   */\n      0xe0\n        /* \"#utility.yul\":559:578   */\n      add\n        /* \"contracts/ContractP/ContractPV4.sol\":2325:2900  function getValues() public view returns (... */\n      mload(0x40)\n      dup1\n      swap2\n      sub\n      swap1\n      return\n        /* \"contracts/ContractP/ContractPV4.sol\":2000:2154  function setF(uint64 f) public {... */\n    tag_5:\n      tag_12\n      tag_21\n      calldatasize\n      0x04\n      tag_22\n      jump\t// in\n    tag_21:\n        /* \"contracts/ContractP/ContractPV4.sol\":2132:2133  f */\n      dup1\n        /* \"contracts/ContractP/ContractPV4.sol\":2125:2130  F_POS */\n      0x50\n        /* \"contracts/ContractP/ContractPV4.sol\":2121:2134  shl(F_POS, f) */\n      shl\n        /* \"contracts/ContractP/ContractPV4.sol\":2111:2117  F_MASK */\n      0xffffffffffffffff00000000000000000000\n        /* \"contracts/ContractP/ContractPV4.sol\":2107:2118  not(F_MASK) */\n      not\n        /* \"contracts/ContractP/ContractPV4.sol\":2096:2104  num.slot */\n      0x00\n        /* \"contracts/ContractP/ContractPV4.sol\":2090:2105  sload(num.slot) */\n      sload\n        /* \"contracts/ContractP/ContractPV4.sol\":2086:2119  and(sload(num.slot), not(F_MASK)) */\n      and\n        /* \"contracts/ContractP/ContractPV4.sol\":2083:2135  or(and(sload(num.slot), not(F_MASK)), shl(F_POS, f)) */\n      or\n        /* \"contracts/ContractP/ContractPV4.sol\":2073:2081  num.slot */\n      0x00\n        /* \"contracts/ContractP/ContractPV4.sol\":2066:2136  sstore(num.slot, or(and(sload(num.slot), not(F_MASK)), shl(F_POS, f))) */\n      sstore\n        /* \"contracts/ContractP/ContractPV4.sol\":2000:2154  function setF(uint64 f) public {... */\n      pop\n      jump\n        /* \"contracts/ContractP/ContractPV4.sol\":1838:1992  function setE(uint32 e) public {... */\n    tag_6:\n      tag_12\n      tag_25\n      calldatasize\n      0x04\n      tag_26\n      jump\t// in\n    tag_25:\n        /* \"contracts/ContractP/ContractPV4.sol\":1970:1971  e */\n      dup1\n        /* \"contracts/ContractP/ContractPV4.sol\":1963:1968  E_POS */\n      0x30\n        /* \"contracts/ContractP/ContractPV4.sol\":1959:1972  shl(E_POS, e) */\n      shl\n        /* \"contracts/ContractP/ContractPV4.sol\":1949:1955  E_MASK */\n      0xffffffff000000000000\n        /* \"contracts/ContractP/ContractPV4.sol\":1945:1956  not(E_MASK) */\n      not\n        /* \"contracts/ContractP/ContractPV4.sol\":1934:1942  num.slot */\n      0x00\n        /* \"contracts/ContractP/ContractPV4.sol\":1928:1943  sload(num.slot) */\n      sload\n        /* \"contracts/ContractP/ContractPV4.sol\":1924:1957  and(sload(num.slot), not(E_MASK)) */\n      and\n        /* \"contracts/ContractP/ContractPV4.sol\":1921:1973  or(and(sload(num.slot), not(E_MASK)), shl(E_POS, e)) */\n      or\n        /* \"contracts/ContractP/ContractPV4.sol\":1911:1919  num.slot */\n      0x00\n        /* \"contracts/ContractP/ContractPV4.sol\":1904:1974  sstore(num.slot, or(and(sload(num.slot), not(E_MASK)), shl(E_POS, e))) */\n      sstore\n        /* \"contracts/ContractP/ContractPV4.sol\":1838:1992  function setE(uint32 e) public {... */\n      pop\n      jump\n        /* \"contracts/ContractP/ContractPV4.sol\":1676:1830  function setD(uint16 d) public {... */\n    tag_7:\n      tag_12\n      tag_29\n      calldatasize\n      0x04\n      tag_30\n      jump\t// in\n    tag_29:\n        /* \"contracts/ContractP/ContractPV4.sol\":1808:1809  d */\n      dup1\n        /* \"contracts/ContractP/ContractPV4.sol\":1801:1806  D_POS */\n      0x20\n        /* \"contracts/ContractP/ContractPV4.sol\":1797:1810  shl(D_POS, d) */\n      shl\n        /* \"contracts/ContractP/ContractPV4.sol\":1787:1793  D_MASK */\n      0xffff00000000\n        /* \"contracts/ContractP/ContractPV4.sol\":1783:1794  not(D_MASK) */\n      not\n        /* \"contracts/ContractP/ContractPV4.sol\":1772:1780  num.slot */\n      0x00\n        /* \"contracts/ContractP/ContractPV4.sol\":1766:1781  sload(num.slot) */\n      sload\n        /* \"contracts/ContractP/ContractPV4.sol\":1762:1795  and(sload(num.slot), not(D_MASK)) */\n      and\n        /* \"contracts/ContractP/ContractPV4.sol\":1759:1811  or(and(sload(num.slot), not(D_MASK)), shl(D_POS, d)) */\n      or\n        /* \"contracts/ContractP/ContractPV4.sol\":1749:1757  num.slot */\n      0x00\n        /* \"contracts/ContractP/ContractPV4.sol\":1742:1812  sstore(num.slot, or(and(sload(num.slot), not(D_MASK)), shl(D_POS, d))) */\n      sstore\n        /* \"contracts/ContractP/ContractPV4.sol\":1676:1830  function setD(uint16 d) public {... */\n      pop\n      jump\n        /* \"contracts/ContractP/ContractPV4.sol\":2162:2317  function setG(uint112 g) public {... */\n    tag_8:\n      tag_12\n      tag_33\n      calldatasize\n      0x04\n      tag_34\n      jump\t// in\n    tag_33:\n        /* \"contracts/ContractP/ContractPV4.sol\":2295:2296  g */\n      dup1\n        /* \"contracts/ContractP/ContractPV4.sol\":2288:2293  G_POS */\n      0x90\n        /* \"contracts/ContractP/ContractPV4.sol\":2284:2297  shl(G_POS, g) */\n      shl\n        /* \"contracts/ContractP/ContractPV4.sol\":2274:2280  G_MASK */\n      0xffffffffffffffffffffffffffff000000000000000000000000000000000000\n        /* \"contracts/ContractP/ContractPV4.sol\":2270:2281  not(G_MASK) */\n      not\n        /* \"contracts/ContractP/ContractPV4.sol\":2259:2267  num.slot */\n      0x00\n        /* \"contracts/ContractP/ContractPV4.sol\":2253:2268  sload(num.slot) */\n      sload\n        /* \"contracts/ContractP/ContractPV4.sol\":2249:2282  and(sload(num.slot), not(G_MASK)) */\n      and\n        /* \"contracts/ContractP/ContractPV4.sol\":2246:2298  or(and(sload(num.slot), not(G_MASK)), shl(G_POS, g)) */\n      or\n        /* \"contracts/ContractP/ContractPV4.sol\":2236:2244  num.slot */\n      0x00\n        /* \"contracts/ContractP/ContractPV4.sol\":2229:2299  sstore(num.slot, or(and(sload(num.slot), not(G_MASK)), shl(G_POS, g))) */\n      sstore\n        /* \"contracts/ContractP/ContractPV4.sol\":2162:2317  function setG(uint112 g) public {... */\n      pop\n      jump\n        /* \"contracts/ContractP/ContractPV4.sol\":1514:1668  function setC(uint16 c) public {... */\n    tag_9:\n      tag_12\n      tag_37\n      calldatasize\n      0x04\n      tag_30\n      jump\t// in\n    tag_37:\n        /* \"contracts/ContractP/ContractPV4.sol\":1646:1647  c */\n      dup1\n        /* \"contracts/ContractP/ContractPV4.sol\":1639:1644  C_POS */\n      0x10\n        /* \"contracts/ContractP/ContractPV4.sol\":1635:1648  shl(C_POS, c) */\n      shl\n        /* \"contracts/ContractP/ContractPV4.sol\":1625:1631  C_MASK */\n      0xffff0000\n        /* \"contracts/ContractP/ContractPV4.sol\":1621:1632  not(C_MASK) */\n      not\n        /* \"contracts/ContractP/ContractPV4.sol\":1610:1618  num.slot */\n      0x00\n        /* \"contracts/ContractP/ContractPV4.sol\":1604:1619  sload(num.slot) */\n      sload\n        /* \"contracts/ContractP/ContractPV4.sol\":1600:1633  and(sload(num.slot), not(C_MASK)) */\n      and\n        /* \"contracts/ContractP/ContractPV4.sol\":1597:1649  or(and(sload(num.slot), not(C_MASK)), shl(C_POS, c)) */\n      or\n        /* \"contracts/ContractP/ContractPV4.sol\":1587:1595  num.slot */\n      0x00\n        /* \"contracts/ContractP/ContractPV4.sol\":1580:1650  sstore(num.slot, or(and(sload(num.slot), not(C_MASK)), shl(C_POS, c))) */\n      sstore\n        /* \"contracts/ContractP/ContractPV4.sol\":1514:1668  function setC(uint16 c) public {... */\n      pop\n      jump\n        /* \"contracts/ContractP/ContractPV4.sol\":1204:1345  function setA(uint8 a) public {... */\n    tag_10:\n      tag_12\n      tag_40\n      calldatasize\n      0x04\n      tag_14\n      jump\t// in\n    tag_40:\n        /* \"contracts/ContractP/ContractPV4.sol\":1324:1325  a */\n      dup1\n        /* \"contracts/ContractP/ContractPV4.sol\":1314:1320  A_MASK */\n      0xff\n        /* \"contracts/ContractP/ContractPV4.sol\":1310:1321  not(A_MASK) */\n      not\n        /* \"contracts/ContractP/ContractPV4.sol\":1299:1307  num.slot */\n      0x00\n        /* \"contracts/ContractP/ContractPV4.sol\":1293:1308  sload(num.slot) */\n      sload\n        /* \"contracts/ContractP/ContractPV4.sol\":1289:1322  and(sload(num.slot), not(A_MASK)) */\n      and\n        /* \"contracts/ContractP/ContractPV4.sol\":1286:1326  or(and(sload(num.slot), not(A_MASK)), a) */\n      or\n        /* \"contracts/ContractP/ContractPV4.sol\":1276:1284  num.slot */\n      0x00\n        /* \"contracts/ContractP/ContractPV4.sol\":1269:1327  sstore(num.slot, or(and(sload(num.slot), not(A_MASK)), a)) */\n      sstore\n        /* \"contracts/ContractP/ContractPV4.sol\":1204:1345  function setA(uint8 a) public {... */\n      pop\n      jump\n        /* \"#utility.yul\":14:283   */\n    tag_14:\n        /* \"#utility.yul\":71:77   */\n      0x00\n        /* \"#utility.yul\":124:126   */\n      0x20\n        /* \"#utility.yul\":112:121   */\n      dup3\n        /* \"#utility.yul\":103:110   */\n      dup5\n        /* \"#utility.yul\":99:122   */\n      sub\n        /* \"#utility.yul\":95:127   */\n      slt\n        /* \"#utility.yul\":92:144   */\n      iszero\n      tag_52\n      jumpi\n        /* \"#utility.yul\":140:141   */\n      0x00\n        /* \"#utility.yul\":137:138   */\n      dup1\n        /* \"#utility.yul\":130:142   */\n      revert\n        /* \"#utility.yul\":92:144   */\n    tag_52:\n        /* \"#utility.yul\":179:188   */\n      dup2\n        /* \"#utility.yul\":166:189   */\n      calldataload\n        /* \"#utility.yul\":229:233   */\n      0xff\n        /* \"#utility.yul\":222:227   */\n      dup2\n        /* \"#utility.yul\":218:234   */\n      and\n        /* \"#utility.yul\":211:216   */\n      dup2\n        /* \"#utility.yul\":208:235   */\n      eq\n        /* \"#utility.yul\":198:253   */\n      tag_53\n      jumpi\n        /* \"#utility.yul\":249:250   */\n      0x00\n        /* \"#utility.yul\":246:247   */\n      dup1\n        /* \"#utility.yul\":239:251   */\n      revert\n        /* \"#utility.yul\":198:253   */\n    tag_53:\n        /* \"#utility.yul\":272:277   */\n      swap4\n        /* \"#utility.yul\":14:283   */\n      swap3\n      pop\n      pop\n      pop\n      jump\t// out\n        /* \"#utility.yul\":1028:1312   */\n    tag_22:\n        /* \"#utility.yul\":1086:1092   */\n      0x00\n        /* \"#utility.yul\":1139:1141   */\n      0x20\n        /* \"#utility.yul\":1127:1136   */\n      dup3\n        /* \"#utility.yul\":1118:1125   */\n      dup5\n        /* \"#utility.yul\":1114:1137   */\n      sub\n        /* \"#utility.yul\":1110:1142   */\n      slt\n        /* \"#utility.yul\":1107:1159   */\n      iszero\n      tag_56\n      jumpi\n        /* \"#utility.yul\":1155:1156   */\n      0x00\n        /* \"#utility.yul\":1152:1153   */\n      dup1\n        /* \"#utility.yul\":1145:1157   */\n      revert\n        /* \"#utility.yul\":1107:1159   */\n    tag_56:\n        /* \"#utility.yul\":1194:1203   */\n      dup2\n        /* \"#utility.yul\":1181:1204   */\n      calldataload\n        /* \"#utility.yul\":1244:1262   */\n      0xffffffffffffffff\n        /* \"#utility.yul\":1237:1242   */\n      dup2\n        /* \"#utility.yul\":1233:1263   */\n      and\n        /* \"#utility.yul\":1226:1231   */\n      dup2\n        /* \"#utility.yul\":1223:1264   */\n      eq\n        /* \"#utility.yul\":1213:1282   */\n      tag_53\n      jumpi\n        /* \"#utility.yul\":1278:1279   */\n      0x00\n        /* \"#utility.yul\":1275:1276   */\n      dup1\n        /* \"#utility.yul\":1268:1280   */\n      revert\n        /* \"#utility.yul\":1317:1593   */\n    tag_26:\n        /* \"#utility.yul\":1375:1381   */\n      0x00\n        /* \"#utility.yul\":1428:1430   */\n      0x20\n        /* \"#utility.yul\":1416:1425   */\n      dup3\n        /* \"#utility.yul\":1407:1414   */\n      dup5\n        /* \"#utility.yul\":1403:1426   */\n      sub\n        /* \"#utility.yul\":1399:1431   */\n      slt\n        /* \"#utility.yul\":1396:1448   */\n      iszero\n      tag_59\n      jumpi\n        /* \"#utility.yul\":1444:1445   */\n      0x00\n        /* \"#utility.yul\":1441:1442   */\n      dup1\n        /* \"#utility.yul\":1434:1446   */\n      revert\n        /* \"#utility.yul\":1396:1448   */\n    tag_59:\n        /* \"#utility.yul\":1483:1492   */\n      dup2\n        /* \"#utility.yul\":1470:1493   */\n      calldataload\n        /* \"#utility.yul\":1533:1543   */\n      0xffffffff\n        /* \"#utility.yul\":1526:1531   */\n      dup2\n        /* \"#utility.yul\":1522:1544   */\n      and\n        /* \"#utility.yul\":1515:1520   */\n      dup2\n        /* \"#utility.yul\":1512:1545   */\n      eq\n        /* \"#utility.yul\":1502:1563   */\n      tag_53\n      jumpi\n        /* \"#utility.yul\":1559:1560   */\n      0x00\n        /* \"#utility.yul\":1556:1557   */\n      dup1\n        /* \"#utility.yul\":1549:1561   */\n      revert\n        /* \"#utility.yul\":1598:1870   */\n    tag_30:\n        /* \"#utility.yul\":1656:1662   */\n      0x00\n        /* \"#utility.yul\":1709:1711   */\n      0x20\n        /* \"#utility.yul\":1697:1706   */\n      dup3\n        /* \"#utility.yul\":1688:1695   */\n      dup5\n        /* \"#utility.yul\":1684:1707   */\n      sub\n        /* \"#utility.yul\":1680:1712   */\n      slt\n        /* \"#utility.yul\":1677:1729   */\n      iszero\n      tag_62\n      jumpi\n        /* \"#utility.yul\":1725:1726   */\n      0x00\n        /* \"#utility.yul\":1722:1723   */\n      dup1\n        /* \"#utility.yul\":1715:1727   */\n      revert\n        /* \"#utility.yul\":1677:1729   */\n    tag_62:\n        /* \"#utility.yul\":1764:1773   */\n      dup2\n        /* \"#utility.yul\":1751:1774   */\n      calldataload\n        /* \"#utility.yul\":1814:1820   */\n      0xffff\n        /* \"#utility.yul\":1807:1812   */\n      dup2\n        /* \"#utility.yul\":1803:1821   */\n      and\n        /* \"#utility.yul\":1796:1801   */\n      dup2\n        /* \"#utility.yul\":1793:1822   */\n      eq\n        /* \"#utility.yul\":1783:1840   */\n      tag_53\n      jumpi\n        /* \"#utility.yul\":1836:1837   */\n      0x00\n        /* \"#utility.yul\":1833:1834   */\n      dup1\n        /* \"#utility.yul\":1826:1838   */\n      revert\n        /* \"#utility.yul\":1875:2172   */\n    tag_34:\n        /* \"#utility.yul\":1934:1940   */\n      0x00\n        /* \"#utility.yul\":1987:1989   */\n      0x20\n        /* \"#utility.yul\":1975:1984   */\n      dup3\n        /* \"#utility.yul\":1966:1973   */\n      dup5\n        /* \"#utility.yul\":1962:1985   */\n      sub\n        /* \"#utility.yul\":1958:1990   */\n      slt\n        /* \"#utility.yul\":1955:2007   */\n      iszero\n      tag_65\n      jumpi\n        /* \"#utility.yul\":2003:2004   */\n      0x00\n        /* \"#utility.yul\":2000:2001   */\n      dup1\n        /* \"#utility.yul\":1993:2005   */\n      revert\n        /* \"#utility.yul\":1955:2007   */\n    tag_65:\n        /* \"#utility.yul\":2042:2051   */\n      dup2\n        /* \"#utility.yul\":2029:2052   */\n      calldataload\n        /* \"#utility.yul\":2092:2122   */\n      0xffffffffffffffffffffffffffff\n        /* \"#utility.yul\":2085:2090   */\n      dup2\n        /* \"#utility.yul\":2081:2123   */\n      and\n        /* \"#utility.yul\":2074:2079   */\n      dup2\n        /* \"#utility.yul\":2071:2124   */\n      eq\n        /* \"#utility.yul\":2061:2142   */\n      tag_53\n      jumpi\n        /* \"#utility.yul\":2138:2139   */\n      0x00\n        /* \"#utility.yul\":2135:2136   */\n      dup1\n        /* \"#utility.yul\":2128:2140   */\n      revert\n\n    auxdata: 0xa26469706673582212203f9d8d95a958da0cbe4d44285e063de3af13dfeb9adadde49216f6e82160e8bd64736f6c63430008190033\n}\n",
				"bytecode": {
					"linkReferences": {},
					"object": "6080604052348015600e575f80fd5b506103408061001c5f395ff3fe608060405234801561000f575f80fd5b5060043610610085575f3560e01c80638c659031116100585780638c659031146101af5780639ad09c83146101d2578063a35ca28d1461020f578063c04a87d114610230575f80fd5b806316abdf7d1461008957806319eb4a90146100aa57806326ccace9146101595780636074e99e14610188575b5f80fd5b6100a861009736600461024b565b8060081b61ff00195f5416175f5550565b005b6100f45f5460ff80821692600883901c9091169161ffff601082901c811692602083901c9091169163ffffffff603082901c169167ffffffffffffffff605083901c169160901c90565b6040805160ff988916815297909616602088015261ffff9485169587019590955292909116606085015263ffffffff16608084015267ffffffffffffffff1660a08301526dffffffffffffffffffffffffffff1660c082015260e00160405180910390f35b6100a8610167366004610272565b8060501b71ffffffffffffffff00000000000000000000195f5416175f5550565b6100a8610196366004610299565b8060301b69ffffffff000000000000195f5416175f5550565b6100a86101bd3660046102bc565b8060201b65ffff00000000195f5416175f5550565b6100a86101e03660046102dd565b8060901b7fffffffffffffffffffffffffffff000000000000000000000000000000000000195f5416175f5550565b6100a861021d3660046102bc565b8060101b63ffff0000195f5416175f5550565b6100a861023e36600461024b565b8060ff195f5416175f5550565b5f6020828403121561025b575f80fd5b813560ff8116811461026b575f80fd5b9392505050565b5f60208284031215610282575f80fd5b813567ffffffffffffffff8116811461026b575f80fd5b5f602082840312156102a9575f80fd5b813563ffffffff8116811461026b575f80fd5b5f602082840312156102cc575f80fd5b813561ffff8116811461026b575f80fd5b5f602082840312156102ed575f80fd5b81356dffffffffffffffffffffffffffff8116811461026b575f80fdfea26469706673582212203f9d8d95a958da0cbe4d44285e063de3af13dfeb9adadde49216f6e82160e8bd64736f6c63430008190033",
					"opcodes": "PUSH1 0x80 PUSH1 0x40 MSTORE CALLVALUE DUP1 ISZERO PUSH1 0xE JUMPI PUSH0 DUP1 REVERT JUMPDEST POP PUSH2 0x340 DUP1 PUSH2 0x1C PUSH0 CODECOPY PUSH0 RETURN INVALID PUSH1 0x80 PUSH1 0x40 MSTORE CALLVALUE DUP1 ISZERO PUSH2 0xF JUMPI PUSH0 DUP1 REVERT JUMPDEST POP PUSH1 0x4 CALLDATASIZE LT PUSH2 0x85 JUMPI PUSH0 CALLDATALOAD PUSH1 0xE0 SHR DUP1 PUSH4 0x8C659031 GT PUSH2 0x58 JUMPI DUP1 PUSH4 0x8C659031 EQ PUSH2 0x1AF JUMPI DUP1 PUSH4 0x9AD09C83 EQ PUSH2 0x1D2 JUMPI DUP1 PUSH4 0xA35CA28D EQ PUSH2 0x20F JUMPI DUP1 PUSH4 0xC04A87D1 EQ PUSH2 0x230 JUMPI PUSH0 DUP1 REVERT JUMPDEST DUP1 PUSH4 0x16ABDF7D EQ PUSH2 0x89 JUMPI DUP1 PUSH4 0x19EB4A90 EQ PUSH2 0xAA JUMPI DUP1 PUSH4 0x26CCACE9 EQ PUSH2 0x159 JUMPI DUP1 PUSH4 0x6074E99E EQ PUSH2 0x188 JUMPI JUMPDEST PUSH0 DUP1 REVERT JUMPDEST PUSH2 0xA8 PUSH2 0x97 CALLDATASIZE PUSH1 0x4 PUSH2 0x24B JUMP JUMPDEST DUP1 PUSH1 0x8 SHL PUSH2 0xFF00 NOT PUSH0 SLOAD AND OR PUSH0 SSTORE POP JUMP JUMPDEST STOP JUMPDEST PUSH2 0xF4 PUSH0 SLOAD PUSH1 0xFF DUP1 DUP3 AND SWAP3 PUSH1 0x8 DUP4 SWAP1 SHR SWAP1 SWAP2 AND SWAP2 PUSH2 0xFFFF PUSH1 0x10 DUP3 SWAP1 SHR DUP2 AND SWAP3 PUSH1 0x20 DUP4 SWAP1 SHR SWAP1 SWAP2 AND SWAP2 PUSH4 0xFFFFFFFF PUSH1 0x30 DUP3 SWAP1 SHR AND SWAP2 PUSH8 0xFFFFFFFFFFFFFFFF PUSH1 0x50 DUP4 SWAP1 SHR AND SWAP2 PUSH1 0x90 SHR SWAP1 JUMP JUMPDEST PUSH1 0x40 DUP1 MLOAD PUSH1 0xFF SWAP9 DUP10 AND DUP2 MSTORE SWAP8 SWAP1 SWAP7 AND PUSH1 0x20 DUP9 ADD MSTORE PUSH2 0xFFFF SWAP5 DUP6 AND SWAP6 DUP8 ADD SWAP6 SWAP1 SWAP6 MSTORE SWAP3 SWAP1 SWAP2 AND PUSH1 0x60 DUP6 ADD MSTORE PUSH4 0xFFFFFFFF AND PUSH1 0x80 DUP5 ADD MSTORE PUSH8 0xFFFFFFFFFFFFFFFF AND PUSH1 0xA0 DUP4 ADD MSTORE PUSH14 0xFFFFFFFFFFFFFFFFFFFFFFFFFFFF AND PUSH1 0xC0 DUP3 ADD MSTORE PUSH1 0xE0 ADD PUSH1 0x40 MLOAD DUP1 SWAP2 SUB SWAP1 RETURN JUMPDEST PUSH2 0xA8 PUSH2 0x167 CALLDATASIZE PUSH1 0x4 PUSH2 0x272 JUMP JUMPDEST DUP1 PUSH1 0x50 SHL PUSH18 0xFFFFFFFFFFFFFFFF00000000000000000000 NOT PUSH0 SLOAD AND OR PUSH0 SSTORE POP JUMP JUMPDEST PUSH2 0xA8 PUSH2 0x196 CALLDATASIZE PUSH1 0x4 PUSH2 0x299 JUMP JUMPDEST DUP1 PUSH1 0x30 SHL PUSH10 0xFFFFFFFF000000000000 NOT PUSH0 SLOAD AND OR PUSH0 SSTORE POP JUMP JUMPDEST PUSH2 0xA8 PUSH2 0x1BD CALLDATASIZE PUSH1 0x4 PUSH2 0x2BC JUMP JUMPDEST DUP1 PUSH1 0x20 SHL PUSH6 0xFFFF00000000 NOT PUSH0 SLOAD AND OR PUSH0 SSTORE POP JUMP JUMPDEST PUSH2 0xA8 PUSH2 0x1E0 CALLDATASIZE PUSH1 0x4 PUSH2 0x2DD JUMP JUMPDEST DUP1 PUSH1 0x90 SHL PUSH32 0xFFFFFFFFFFFFFFFFFFFFFFFFFFFF000000000000000000000000000000000000 NOT PUSH0 SLOAD AND OR PUSH0 SSTORE POP JUMP JUMPDEST PUSH2 0xA8 PUSH2 0x21D CALLDATASIZE PUSH1 0x4 PUSH2 0x2BC JUMP JUMPDEST DUP1 PUSH1 0x10 SHL PUSH4 0xFFFF0000 NOT PUSH0 SLOAD AND OR PUSH0 SSTORE POP JUMP JUMPDEST PUSH2 0xA8 PUSH2 0x23E CALLDATASIZE PUSH1 0x4 PUSH2 0x24B JUMP JUMPDEST DUP1 PUSH1 0xFF NOT PUSH0 SLOAD AND OR PUSH0 SSTORE POP JUMP JUMPDEST PUSH0 PUSH1 0x20 DUP3 DUP5 SUB SLT ISZERO PUSH2 0x25B JUMPI PUSH0 DUP1 REVERT JUMPDEST DUP2 CALLDATALOAD PUSH1 0xFF DUP2 AND DUP2 EQ PUSH2 0x26B JUMPI PUSH0 DUP1 REVERT JUMPDEST SWAP4 SWAP3 POP POP POP JUMP JUMPDEST PUSH0 PUSH1 0x20 DUP3 DUP5 SUB SLT ISZERO PUSH2 0x282 JUMPI PUSH0 DUP1 REVERT JUMPDEST DUP2 CALLDATALOAD PUSH8 0xFFFFFFFFFFFFFFFF DUP2 AND DUP2 EQ PUSH2 0x26B JUMPI PUSH0 DUP1 REVERT JUMPDEST PUSH0 PUSH1 0x20 DUP3 DUP5 SUB SLT ISZERO PUSH2 0x2A9 JUMPI PUSH0 DUP1 REVERT JUMPDEST DUP2 CALLDATALOAD PUSH4 0xFFFFFFFF DUP2 AND DUP2 EQ PUSH2 0x26B JUMPI PUSH0 DUP1 REVERT JUMPDEST PUSH0 PUSH1 0x20 DUP3 DUP5 SUB SLT ISZERO PUSH2 0x2CC JUMPI PUSH0 DUP1 REVERT JUMPDEST DUP2 CALLDATALOAD PUSH2 0xFFFF DUP2 AND DUP2 EQ PUSH2 0x26B JUMPI PUSH0 DUP1 REVERT JUMPDEST PUSH0 PUSH1 0x20 DUP3 DUP5 SUB SLT ISZERO PUSH2 0x2ED JUMPI PUSH0 DUP1 REVERT JUMPDEST DUP2 CALLDATALOAD PUSH14 0xFFFFFFFFFFFFFFFFFFFFFFFFFFFF DUP2 AND DUP2 EQ PUSH2 0x26B JUMPI PUSH0 DUP1 REVERT INVALID LOG2 PUSH5 0x6970667358 0x22 SLT KECCAK256 EXTCODEHASH SWAP14 DUP14 SWAP6 0xA9 PC 0xDA 0xC 0xBE 0x4D PREVRANDAO 0x28 MCOPY MOD RETURNDATASIZE 0xE3 0xAF SGT 0xDF 0xEB SWAP11 0xDA 0xDD 0xE4 SWAP3 AND 0xF6 0xE8 0x21 PUSH1 0xE8 0xBD PUSH5 0x736F6C6343 STOP ADDMOD NOT STOP CALLER "
				},
				"gasEstimates": {
					"creation": {
						"codeDepositCost": "166400",
						"executionCost": "206",
						"totalCost": "166606"
					},
					"external": {
						"getValues()": "2604",
						"setA(uint8)": "24528",
						"setB(uint8)": "24469",
						"setC(uint16)": "24512",
						"setD(uint16)": "24468",
						"setE(uint32)": "24535",
						"setF(uint64)": "24513",
						"setG(uint112)": "24490"
					}
				},
				"methodIdentifiers": {
					"getValues()": "19eb4a90",
					"setA(uint8)": "c04a87d1",
					"setB(uint8)": "16abdf7d",
					"setC(uint16)": "a35ca28d",
					"setD(uint16)": "8c659031",
					"setE(uint32)": "6074e99e",
					"setF(uint64)": "26ccace9",
					"setG(uint112)": "9ad09c83"
				}
			},
			"storageLayout": {
				"storage": [
					{
						"astId": 3,
						"contract": "contracts/ContractP/ContractPV4.sol:ContractPV4",
						"label": "num",
						"offset": 0,
						"slot": "0",
						"type": "t_uint256"
					}
				],
				"types": {
					"t_uint256": {
						"encoding": "inplace",
						"label": "uint256",
						"numberOfBytes": "32"
					}
				}
			},
			"userdoc": {
				"kind": "user",
				"methods": {},
				"version": 1
			}
		}
	}
}