{
	"data": {
		"bytecode": {
			"linkReferences": {},
			"object": "6080604052348015600e575f80fd5b5060f28061001b5f395ff3fe6080604052348015600e575f80fd5b50600436106026575f3560e01c8063571c00a414602a575b5f80fd5b603960353660046066565b604b565b60405190815260200160405180910390f35b5f60548383605d565b90505b92915050565b5f605482846085565b5f80604083850312156076575f80fd5b50508035926020909101359150565b808201808211156057577f4e487b71000000000000000000000000000000000000000000000000000000005f52601160045260245ffdfea26469706673582212203ecfd76256f6b6862e10e9c9be0d97df79b43805918fe78f95176cbb4c5798d364736f6c63430008190033",
			"opcodes": "PUSH1 0x80 PUSH1 0x40 MSTORE CALLVALUE DUP1 ISZERO PUSH1 0xE JUMPI PUSH0 DUP1 REVERT JUMPDEST POP PUSH1 0xF2 DUP1 PUSH2 0x1B PUSH0 CODECOPY PUSH0 RETURN INVALID PUSH1 0x80 PUSH1 0x40 MSTORE CALLVALUE DUP1 ISZERO PUSH1 0xE JUMPI PUSH0 DUP1 REVERT JUMPDEST POP PUSH1 0x4 CALLDATASIZE LT PUSH1 0x26 JUMPI PUSH0 CALLDATALOAD PUSH1 0xE0 SHR DUP1 PUSH4 0x571C00A4 EQ PUSH1 0x2A JUMPI JUMPDEST PUSH0 DUP1 REVERT JUMPDEST PUSH1 0x39 PUSH1 0x35 CALLDATASIZE PUSH1 0x4 PUSH1 0x66 JUMP JUMPDEST PUSH1 0x4B JUMP JUMPDEST PUSH1 0x40 MLOAD SWAP1 DUP2 MSTORE PUSH1 0x20 ADD PUSH1 0x40 MLOAD DUP1 SWAP2 SUB SWAP1 RETURN JUMPDEST PUSH0 PUSH1 0x54 DUP4 DUP4 PUSH1 0x5D JUMP JUMPDEST SWAP1 POP JUMPDEST SWAP3 SWAP2 POP POP JUMP JUMPDEST PUSH0 PUSH1 0x54 DUP3 DUP5 PUSH1 0x85 JUMP JUMPDEST PUSH0 DUP1 PUSH1 0x40 DUP4 DUP6 SUB SLT ISZERO PUSH1 0x76 JUMPI PUSH0 DUP1 REVERT JUMPDEST POP POP DUP1 CALLDATALOAD SWAP3 PUSH1 0x20 SWAP1 SWAP2 ADD CALLDATALOAD SWAP2 POP JUMP JUMPDEST DUP1 DUP3 ADD DUP1 DUP3 GT ISZERO PUSH1 0x57 JUMPI PUSH32 0x4E487B7100000000000000000000000000000000000000000000000000000000 PUSH0 MSTORE PUSH1 0x11 PUSH1 0x4 MSTORE PUSH1 0x24 PUSH0 REVERT INVALID LOG2 PUSH5 0x6970667358 0x22 SLT KECCAK256 RETURNDATACOPY 0xCF 0xD7 PUSH3 0x56F6B6 DUP7 0x2E LT 0xE9 0xC9 0xBE 0xD SWAP8 0xDF PUSH26 0xB43805918FE78F95176CBB4C5798D364736F6C63430008190033 "
		},
		"gasEstimates": {
			"creation": {
				"codeDepositCost": "48400",
				"executionCost": "97",
				"totalCost": "48497"
			},
			"external": {
				"addV5(uint256,uint256)": "infinite"
			}
		},
		"methodIdentifiers": {
			"addV5(uint256,uint256)": "571c00a4"
		}
	},
	"abi": [
		{
			"inputs": [
				{
					"internalType": "uint256",
					"name": "x",
					"type": "uint256"
				},
				{
					"internalType": "uint256",
					"name": "y",
					"type": "uint256"
				}
			],
			"name": "addV5",
			"outputs": [
				{
					"internalType": "uint256",
					"name": "",
					"type": "uint256"
				}
			],
			"stateMutability": "pure",
			"type": "function"
		}
	]
}