{
	"data": {
		"bytecode": {
			"linkReferences": {},
			"object": "6080604052348015600e575f80fd5b506106d08061001c5f395ff3fe608060405234801561000f575f80fd5b506004361061003f575f3560e01c806306ead22e1461004357806315cde88e1461006f5780637b834b9f14610084575b5f80fd5b61005661005136600461023d565b610097565b6040516100669493929190610254565b60405180910390f35b61008261007d36600461032f565b610145565b005b6100826100923660046104e3565b6101d6565b5f60208190529081526040902080546001820180549192916100b890610543565b80601f01602080910402602001604051908101604052809291908181526020018280546100e490610543565b801561012f5780601f106101065761010080835404028352916020019161012f565b820191905f5260205f20905b81548152906001019060200180831161011257829003601f168201915b5050505050908060020154908060030154905084565b5f5b81518110156101d2578181815181106101625761016261057b565b60200260200101515f8084848151811061017e5761017e61057b565b60200260200101515f015181526020019081526020015f205f820151815f015560208201518160010190816101b391906105da565b5060408201516002820155606090910151600390910155600101610147565b5050565b5f5b8251811015610238575f805f8584815181106101f6576101f661057b565b602002602001015181526020019081526020015f20905082828151811061021f5761021f61057b565b60209081029190910101516003909101556001016101d8565b505050565b5f6020828403121561024d575f80fd5b5035919050565b848152608060208201525f8451806080840152806020870160a085015e5f60a0828501015260a0601f19601f83011684010191505083604083015282606083015295945050505050565b634e487b7160e01b5f52604160045260245ffd5b6040516080810167ffffffffffffffff811182821017156102d5576102d561029e565b60405290565b604051601f8201601f1916810167ffffffffffffffff811182821017156103045761030461029e565b604052919050565b5f67ffffffffffffffff8211156103255761032561029e565b5060051b60200190565b5f6020808385031215610340575f80fd5b823567ffffffffffffffff80821115610357575f80fd5b818501915085601f83011261036a575f80fd5b813561037d6103788261030c565b6102db565b81815260059190911b8301840190848101908883111561039b575f80fd5b8585015b8381101561046f578035858111156103b5575f80fd5b8601601f196080828d03820112156103cb575f80fd5b6103d36102b2565b898301358152604080840135898111156103eb575f80fd5b8401603f81018f136103fb575f80fd5b8b8101358a81111561040f5761040f61029e565b61041f8d86601f840116016102db565b94508085528f83828401011115610434575f80fd5b808383018e8701375f9085018d015250818b01929092526060838101359282019290925260809092013590820152835291860191860161039f565b5098975050505050505050565b5f82601f83011261048b575f80fd5b8135602061049b6103788361030c565b8083825260208201915060208460051b8701019350868411156104bc575f80fd5b602086015b848110156104d857803583529183019183016104c1565b509695505050505050565b5f80604083850312156104f4575f80fd5b823567ffffffffffffffff8082111561050b575f80fd5b6105178683870161047c565b9350602085013591508082111561052c575f80fd5b506105398582860161047c565b9150509250929050565b600181811c9082168061055757607f821691505b60208210810361057557634e487b7160e01b5f52602260045260245ffd5b50919050565b634e487b7160e01b5f52603260045260245ffd5b601f82111561023857805f5260205f20601f840160051c810160208510156105b45750805b601f840160051c820191505b818110156105d3575f81556001016105c0565b5050505050565b815167ffffffffffffffff8111156105f4576105f461029e565b610608816106028454610543565b8461058f565b602080601f83116001811461063b575f84156106245750858301515b5f19600386901b1c1916600185901b178555610692565b5f85815260208120601f198616915b828110156106695788860151825594840194600190910190840161064a565b508582101561068657878501515f19600388901b60f8161c191681555b505060018460011b0185555b50505050505056fea264697066735822122081f7a77c6aadd36f410270654ae6734ecf1565bfe53201cde6f94c0767a3edb264736f6c63430008190033",
			"opcodes": "PUSH1 0x80 PUSH1 0x40 MSTORE CALLVALUE DUP1 ISZERO PUSH1 0xE JUMPI PUSH0 DUP1 REVERT JUMPDEST POP PUSH2 0x6D0 DUP1 PUSH2 0x1C PUSH0 CODECOPY PUSH0 RETURN INVALID PUSH1 0x80 PUSH1 0x40 MSTORE CALLVALUE DUP1 ISZERO PUSH2 0xF JUMPI PUSH0 DUP1 REVERT JUMPDEST POP PUSH1 0x4 CALLDATASIZE LT PUSH2 0x3F JUMPI PUSH0 CALLDATALOAD PUSH1 0xE0 SHR DUP1 PUSH4 0x6EAD22E EQ PUSH2 0x43 JUMPI DUP1 PUSH4 0x15CDE88E EQ PUSH2 0x6F JUMPI DUP1 PUSH4 0x7B834B9F EQ PUSH2 0x84 JUMPI JUMPDEST PUSH0 DUP1 REVERT JUMPDEST PUSH2 0x56 PUSH2 0x51 CALLDATASIZE PUSH1 0x4 PUSH2 0x23D JUMP JUMPDEST PUSH2 0x97 JUMP JUMPDEST PUSH1 0x40 MLOAD PUSH2 0x66 SWAP5 SWAP4 SWAP3 SWAP2 SWAP1 PUSH2 0x254 JUMP JUMPDEST PUSH1 0x40 MLOAD DUP1 SWAP2 SUB SWAP1 RETURN JUMPDEST PUSH2 0x82 PUSH2 0x7D CALLDATASIZE PUSH1 0x4 PUSH2 0x32F JUMP JUMPDEST PUSH2 0x145 JUMP JUMPDEST STOP JUMPDEST PUSH2 0x82 PUSH2 0x92 CALLDATASIZE PUSH1 0x4 PUSH2 0x4E3 JUMP JUMPDEST PUSH2 0x1D6 JUMP JUMPDEST PUSH0 PUSH1 0x20 DUP2 SWAP1 MSTORE SWAP1 DUP2 MSTORE PUSH1 0x40 SWAP1 KECCAK256 DUP1 SLOAD PUSH1 0x1 DUP3 ADD DUP1 SLOAD SWAP2 SWAP3 SWAP2 PUSH2 0xB8 SWAP1 PUSH2 0x543 JUMP JUMPDEST DUP1 PUSH1 0x1F ADD PUSH1 0x20 DUP1 SWAP2 DIV MUL PUSH1 0x20 ADD PUSH1 0x40 MLOAD SWAP1 DUP2 ADD PUSH1 0x40 MSTORE DUP1 SWAP3 SWAP2 SWAP1 DUP2 DUP2 MSTORE PUSH1 0x20 ADD DUP3 DUP1 SLOAD PUSH2 0xE4 SWAP1 PUSH2 0x543 JUMP JUMPDEST DUP1 ISZERO PUSH2 0x12F JUMPI DUP1 PUSH1 0x1F LT PUSH2 0x106 JUMPI PUSH2 0x100 DUP1 DUP4 SLOAD DIV MUL DUP4 MSTORE SWAP2 PUSH1 0x20 ADD SWAP2 PUSH2 0x12F JUMP JUMPDEST DUP3 ADD SWAP2 SWAP1 PUSH0 MSTORE PUSH1 0x20 PUSH0 KECCAK256 SWAP1 JUMPDEST DUP2 SLOAD DUP2 MSTORE SWAP1 PUSH1 0x1 ADD SWAP1 PUSH1 0x20 ADD DUP1 DUP4 GT PUSH2 0x112 JUMPI DUP3 SWAP1 SUB PUSH1 0x1F AND DUP3 ADD SWAP2 JUMPDEST POP POP POP POP POP SWAP1 DUP1 PUSH1 0x2 ADD SLOAD SWAP1 DUP1 PUSH1 0x3 ADD SLOAD SWAP1 POP DUP5 JUMP JUMPDEST PUSH0 JUMPDEST DUP2 MLOAD DUP2 LT ISZERO PUSH2 0x1D2 JUMPI DUP2 DUP2 DUP2 MLOAD DUP2 LT PUSH2 0x162 JUMPI PUSH2 0x162 PUSH2 0x57B JUMP JUMPDEST PUSH1 0x20 MUL PUSH1 0x20 ADD ADD MLOAD PUSH0 DUP1 DUP5 DUP5 DUP2 MLOAD DUP2 LT PUSH2 0x17E JUMPI PUSH2 0x17E PUSH2 0x57B JUMP JUMPDEST PUSH1 0x20 MUL PUSH1 0x20 ADD ADD MLOAD PUSH0 ADD MLOAD DUP2 MSTORE PUSH1 0x20 ADD SWAP1 DUP2 MSTORE PUSH1 0x20 ADD PUSH0 KECCAK256 PUSH0 DUP3 ADD MLOAD DUP2 PUSH0 ADD SSTORE PUSH1 0x20 DUP3 ADD MLOAD DUP2 PUSH1 0x1 ADD SWAP1 DUP2 PUSH2 0x1B3 SWAP2 SWAP1 PUSH2 0x5DA JUMP JUMPDEST POP PUSH1 0x40 DUP3 ADD MLOAD PUSH1 0x2 DUP3 ADD SSTORE PUSH1 0x60 SWAP1 SWAP2 ADD MLOAD PUSH1 0x3 SWAP1 SWAP2 ADD SSTORE PUSH1 0x1 ADD PUSH2 0x147 JUMP JUMPDEST POP POP JUMP JUMPDEST PUSH0 JUMPDEST DUP3 MLOAD DUP2 LT ISZERO PUSH2 0x238 JUMPI PUSH0 DUP1 PUSH0 DUP6 DUP5 DUP2 MLOAD DUP2 LT PUSH2 0x1F6 JUMPI PUSH2 0x1F6 PUSH2 0x57B JUMP JUMPDEST PUSH1 0x20 MUL PUSH1 0x20 ADD ADD MLOAD DUP2 MSTORE PUSH1 0x20 ADD SWAP1 DUP2 MSTORE PUSH1 0x20 ADD PUSH0 KECCAK256 SWAP1 POP DUP3 DUP3 DUP2 MLOAD DUP2 LT PUSH2 0x21F JUMPI PUSH2 0x21F PUSH2 0x57B JUMP JUMPDEST PUSH1 0x20 SWAP1 DUP2 MUL SWAP2 SWAP1 SWAP2 ADD ADD MLOAD PUSH1 0x3 SWAP1 SWAP2 ADD SSTORE PUSH1 0x1 ADD PUSH2 0x1D8 JUMP JUMPDEST POP POP POP JUMP JUMPDEST PUSH0 PUSH1 0x20 DUP3 DUP5 SUB SLT ISZERO PUSH2 0x24D JUMPI PUSH0 DUP1 REVERT JUMPDEST POP CALLDATALOAD SWAP2 SWAP1 POP JUMP JUMPDEST DUP5 DUP2 MSTORE PUSH1 0x80 PUSH1 0x20 DUP3 ADD MSTORE PUSH0 DUP5 MLOAD DUP1 PUSH1 0x80 DUP5 ADD MSTORE DUP1 PUSH1 0x20 DUP8 ADD PUSH1 0xA0 DUP6 ADD MCOPY PUSH0 PUSH1 0xA0 DUP3 DUP6 ADD ADD MSTORE PUSH1 0xA0 PUSH1 0x1F NOT PUSH1 0x1F DUP4 ADD AND DUP5 ADD ADD SWAP2 POP POP DUP4 PUSH1 0x40 DUP4 ADD MSTORE DUP3 PUSH1 0x60 DUP4 ADD MSTORE SWAP6 SWAP5 POP POP POP POP POP JUMP JUMPDEST PUSH4 0x4E487B71 PUSH1 0xE0 SHL PUSH0 MSTORE PUSH1 0x41 PUSH1 0x4 MSTORE PUSH1 0x24 PUSH0 REVERT JUMPDEST PUSH1 0x40 MLOAD PUSH1 0x80 DUP2 ADD PUSH8 0xFFFFFFFFFFFFFFFF DUP2 GT DUP3 DUP3 LT OR ISZERO PUSH2 0x2D5 JUMPI PUSH2 0x2D5 PUSH2 0x29E JUMP JUMPDEST PUSH1 0x40 MSTORE SWAP1 JUMP JUMPDEST PUSH1 0x40 MLOAD PUSH1 0x1F DUP3 ADD PUSH1 0x1F NOT AND DUP2 ADD PUSH8 0xFFFFFFFFFFFFFFFF DUP2 GT DUP3 DUP3 LT OR ISZERO PUSH2 0x304 JUMPI PUSH2 0x304 PUSH2 0x29E JUMP JUMPDEST PUSH1 0x40 MSTORE SWAP2 SWAP1 POP JUMP JUMPDEST PUSH0 PUSH8 0xFFFFFFFFFFFFFFFF DUP3 GT ISZERO PUSH2 0x325 JUMPI PUSH2 0x325 PUSH2 0x29E JUMP JUMPDEST POP PUSH1 0x5 SHL PUSH1 0x20 ADD SWAP1 JUMP JUMPDEST PUSH0 PUSH1 0x20 DUP1 DUP4 DUP6 SUB SLT ISZERO PUSH2 0x340 JUMPI PUSH0 DUP1 REVERT JUMPDEST DUP3 CALLDATALOAD PUSH8 0xFFFFFFFFFFFFFFFF DUP1 DUP3 GT ISZERO PUSH2 0x357 JUMPI PUSH0 DUP1 REVERT JUMPDEST DUP2 DUP6 ADD SWAP2 POP DUP6 PUSH1 0x1F DUP4 ADD SLT PUSH2 0x36A JUMPI PUSH0 DUP1 REVERT JUMPDEST DUP2 CALLDATALOAD PUSH2 0x37D PUSH2 0x378 DUP3 PUSH2 0x30C JUMP JUMPDEST PUSH2 0x2DB JUMP JUMPDEST DUP2 DUP2 MSTORE PUSH1 0x5 SWAP2 SWAP1 SWAP2 SHL DUP4 ADD DUP5 ADD SWAP1 DUP5 DUP2 ADD SWAP1 DUP9 DUP4 GT ISZERO PUSH2 0x39B JUMPI PUSH0 DUP1 REVERT JUMPDEST DUP6 DUP6 ADD JUMPDEST DUP4 DUP2 LT ISZERO PUSH2 0x46F JUMPI DUP1 CALLDATALOAD DUP6 DUP2 GT ISZERO PUSH2 0x3B5 JUMPI PUSH0 DUP1 REVERT JUMPDEST DUP7 ADD PUSH1 0x1F NOT PUSH1 0x80 DUP3 DUP14 SUB DUP3 ADD SLT ISZERO PUSH2 0x3CB JUMPI PUSH0 DUP1 REVERT JUMPDEST PUSH2 0x3D3 PUSH2 0x2B2 JUMP JUMPDEST DUP10 DUP4 ADD CALLDATALOAD DUP2 MSTORE PUSH1 0x40 DUP1 DUP5 ADD CALLDATALOAD DUP10 DUP2 GT ISZERO PUSH2 0x3EB JUMPI PUSH0 DUP1 REVERT JUMPDEST DUP5 ADD PUSH1 0x3F DUP2 ADD DUP16 SGT PUSH2 0x3FB JUMPI PUSH0 DUP1 REVERT JUMPDEST DUP12 DUP2 ADD CALLDATALOAD DUP11 DUP2 GT ISZERO PUSH2 0x40F JUMPI PUSH2 0x40F PUSH2 0x29E JUMP JUMPDEST PUSH2 0x41F DUP14 DUP7 PUSH1 0x1F DUP5 ADD AND ADD PUSH2 0x2DB JUMP JUMPDEST SWAP5 POP DUP1 DUP6 MSTORE DUP16 DUP4 DUP3 DUP5 ADD ADD GT ISZERO PUSH2 0x434 JUMPI PUSH0 DUP1 REVERT JUMPDEST DUP1 DUP4 DUP4 ADD DUP15 DUP8 ADD CALLDATACOPY PUSH0 SWAP1 DUP6 ADD DUP14 ADD MSTORE POP DUP2 DUP12 ADD SWAP3 SWAP1 SWAP3 MSTORE PUSH1 0x60 DUP4 DUP2 ADD CALLDATALOAD SWAP3 DUP3 ADD SWAP3 SWAP1 SWAP3 MSTORE PUSH1 0x80 SWAP1 SWAP3 ADD CALLDATALOAD SWAP1 DUP3 ADD MSTORE DUP4 MSTORE SWAP2 DUP7 ADD SWAP2 DUP7 ADD PUSH2 0x39F JUMP JUMPDEST POP SWAP9 SWAP8 POP POP POP POP POP POP POP POP JUMP JUMPDEST PUSH0 DUP3 PUSH1 0x1F DUP4 ADD SLT PUSH2 0x48B JUMPI PUSH0 DUP1 REVERT JUMPDEST DUP2 CALLDATALOAD PUSH1 0x20 PUSH2 0x49B PUSH2 0x378 DUP4 PUSH2 0x30C JUMP JUMPDEST DUP1 DUP4 DUP3 MSTORE PUSH1 0x20 DUP3 ADD SWAP2 POP PUSH1 0x20 DUP5 PUSH1 0x5 SHL DUP8 ADD ADD SWAP4 POP DUP7 DUP5 GT ISZERO PUSH2 0x4BC JUMPI PUSH0 DUP1 REVERT JUMPDEST PUSH1 0x20 DUP7 ADD JUMPDEST DUP5 DUP2 LT ISZERO PUSH2 0x4D8 JUMPI DUP1 CALLDATALOAD DUP4 MSTORE SWAP2 DUP4 ADD SWAP2 DUP4 ADD PUSH2 0x4C1 JUMP JUMPDEST POP SWAP7 SWAP6 POP POP POP POP POP POP JUMP JUMPDEST PUSH0 DUP1 PUSH1 0x40 DUP4 DUP6 SUB SLT ISZERO PUSH2 0x4F4 JUMPI PUSH0 DUP1 REVERT JUMPDEST DUP3 CALLDATALOAD PUSH8 0xFFFFFFFFFFFFFFFF DUP1 DUP3 GT ISZERO PUSH2 0x50B JUMPI PUSH0 DUP1 REVERT JUMPDEST PUSH2 0x517 DUP7 DUP4 DUP8 ADD PUSH2 0x47C JUMP JUMPDEST SWAP4 POP PUSH1 0x20 DUP6 ADD CALLDATALOAD SWAP2 POP DUP1 DUP3 GT ISZERO PUSH2 0x52C JUMPI PUSH0 DUP1 REVERT JUMPDEST POP PUSH2 0x539 DUP6 DUP3 DUP7 ADD PUSH2 0x47C JUMP JUMPDEST SWAP2 POP POP SWAP3 POP SWAP3 SWAP1 POP JUMP JUMPDEST PUSH1 0x1 DUP2 DUP2 SHR SWAP1 DUP3 AND DUP1 PUSH2 0x557 JUMPI PUSH1 0x7F DUP3 AND SWAP2 POP JUMPDEST PUSH1 0x20 DUP3 LT DUP2 SUB PUSH2 0x575 JUMPI PUSH4 0x4E487B71 PUSH1 0xE0 SHL PUSH0 MSTORE PUSH1 0x22 PUSH1 0x4 MSTORE PUSH1 0x24 PUSH0 REVERT JUMPDEST POP SWAP2 SWAP1 POP JUMP JUMPDEST PUSH4 0x4E487B71 PUSH1 0xE0 SHL PUSH0 MSTORE PUSH1 0x32 PUSH1 0x4 MSTORE PUSH1 0x24 PUSH0 REVERT JUMPDEST PUSH1 0x1F DUP3 GT ISZERO PUSH2 0x238 JUMPI DUP1 PUSH0 MSTORE PUSH1 0x20 PUSH0 KECCAK256 PUSH1 0x1F DUP5 ADD PUSH1 0x5 SHR DUP2 ADD PUSH1 0x20 DUP6 LT ISZERO PUSH2 0x5B4 JUMPI POP DUP1 JUMPDEST PUSH1 0x1F DUP5 ADD PUSH1 0x5 SHR DUP3 ADD SWAP2 POP JUMPDEST DUP2 DUP2 LT ISZERO PUSH2 0x5D3 JUMPI PUSH0 DUP2 SSTORE PUSH1 0x1 ADD PUSH2 0x5C0 JUMP JUMPDEST POP POP POP POP POP JUMP JUMPDEST DUP2 MLOAD PUSH8 0xFFFFFFFFFFFFFFFF DUP2 GT ISZERO PUSH2 0x5F4 JUMPI PUSH2 0x5F4 PUSH2 0x29E JUMP JUMPDEST PUSH2 0x608 DUP2 PUSH2 0x602 DUP5 SLOAD PUSH2 0x543 JUMP JUMPDEST DUP5 PUSH2 0x58F JUMP JUMPDEST PUSH1 0x20 DUP1 PUSH1 0x1F DUP4 GT PUSH1 0x1 DUP2 EQ PUSH2 0x63B JUMPI PUSH0 DUP5 ISZERO PUSH2 0x624 JUMPI POP DUP6 DUP4 ADD MLOAD JUMPDEST PUSH0 NOT PUSH1 0x3 DUP7 SWAP1 SHL SHR NOT AND PUSH1 0x1 DUP6 SWAP1 SHL OR DUP6 SSTORE PUSH2 0x692 JUMP JUMPDEST PUSH0 DUP6 DUP2 MSTORE PUSH1 0x20 DUP2 KECCAK256 PUSH1 0x1F NOT DUP7 AND SWAP2 JUMPDEST DUP3 DUP2 LT ISZERO PUSH2 0x669 JUMPI DUP9 DUP7 ADD MLOAD DUP3 SSTORE SWAP5 DUP5 ADD SWAP5 PUSH1 0x1 SWAP1 SWAP2 ADD SWAP1 DUP5 ADD PUSH2 0x64A JUMP JUMPDEST POP DUP6 DUP3 LT ISZERO PUSH2 0x686 JUMPI DUP8 DUP6 ADD MLOAD PUSH0 NOT PUSH1 0x3 DUP9 SWAP1 SHL PUSH1 0xF8 AND SHR NOT AND DUP2 SSTORE JUMPDEST POP POP PUSH1 0x1 DUP5 PUSH1 0x1 SHL ADD DUP6 SSTORE JUMPDEST POP POP POP POP POP POP JUMP INVALID LOG2 PUSH5 0x6970667358 0x22 SLT KECCAK256 DUP2 0xF7 0xA7 PUSH29 0x6AADD36F410270654AE6734ECF1565BFE53201CDE6F94C0767A3EDB264 PUSH20 0x6F6C634300081900330000000000000000000000 "
		},
		"gasEstimates": {
			"creation": {
				"codeDepositCost": "348800",
				"executionCost": "384",
				"totalCost": "349184"
			},
			"external": {
				"addStudents((uint256,string,uint256,uint256)[])": "infinite",
				"students(uint256)": "infinite",
				"updateAverageScore(uint256[],uint256[])": "infinite"
			}
		},
		"methodIdentifiers": {
			"addStudents((uint256,string,uint256,uint256)[])": "15cde88e",
			"students(uint256)": "06ead22e",
			"updateAverageScore(uint256[],uint256[])": "7b834b9f"
		}
	},
	"abi": [
		{
			"inputs": [
				{
					"components": [
						{
							"internalType": "uint256",
							"name": "id",
							"type": "uint256"
						},
						{
							"internalType": "string",
							"name": "name",
							"type": "string"
						},
						{
							"internalType": "uint256",
							"name": "age",
							"type": "uint256"
						},
						{
							"internalType": "uint256",
							"name": "averageScore",
							"type": "uint256"
						}
					],
					"internalType": "struct ContractKV6.Student[]",
					"name": "_students",
					"type": "tuple[]"
				}
			],
			"name": "addStudents",
			"outputs": [],
			"stateMutability": "nonpayable",
			"type": "function"
		},
		{
			"inputs": [
				{
					"internalType": "uint256",
					"name": "",
					"type": "uint256"
				}
			],
			"name": "students",
			"outputs": [
				{
					"internalType": "uint256",
					"name": "id",
					"type": "uint256"
				},
				{
					"internalType": "string",
					"name": "name",
					"type": "string"
				},
				{
					"internalType": "uint256",
					"name": "age",
					"type": "uint256"
				},
				{
					"internalType": "uint256",
					"name": "averageScore",
					"type": "uint256"
				}
			],
			"stateMutability": "view",
			"type": "function"
		},
		{
			"inputs": [
				{
					"internalType": "uint256[]",
					"name": "ids",
					"type": "uint256[]"
				},
				{
					"internalType": "uint256[]",
					"name": "scores",
					"type": "uint256[]"
				}
			],
			"name": "updateAverageScore",
			"outputs": [],
			"stateMutability": "nonpayable",
			"type": "function"
		}
	]
}