{
	"data": {
		"bytecode": {
			"linkReferences": {},
			"object": "6080604052348015600e575f80fd5b506102338061001c5f395ff3fe608060405234801561000f575f80fd5b5060043610610029575f3560e01c80635106d5291461002d575b5f80fd5b61004061003b36600461016a565b610052565b60405190815260200160405180910390f35b5f805f5b84518110156100b157838181518110610071576100716101ca565b602002602001015185828151811061008b5761008b6101ca565b602002602001015161009d91906101de565b6100a790836101de565b9150600101610056565b5090505b92915050565b634e487b7160e01b5f52604160045260245ffd5b5f82601f8301126100de575f80fd5b8135602067ffffffffffffffff808311156100fb576100fb6100bb565b8260051b604051601f19603f83011681018181108482111715610120576101206100bb565b604052938452602081870181019490810192508785111561013f575f80fd5b6020870191505b8482101561015f57813583529183019190830190610146565b979650505050505050565b5f806040838503121561017b575f80fd5b823567ffffffffffffffff80821115610192575f80fd5b61019e868387016100cf565b935060208501359150808211156101b3575f80fd5b506101c0858286016100cf565b9150509250929050565b634e487b7160e01b5f52603260045260245ffd5b808201808211156100b557634e487b7160e01b5f52601160045260245ffdfea264697066735822122008b46059a484612e09cc582aacd2a5895e2d0ae05dad257f244d58d72586160a64736f6c63430008190033",
			"opcodes": "PUSH1 0x80 PUSH1 0x40 MSTORE CALLVALUE DUP1 ISZERO PUSH1 0xE JUMPI PUSH0 DUP1 REVERT JUMPDEST POP PUSH2 0x233 DUP1 PUSH2 0x1C PUSH0 CODECOPY PUSH0 RETURN INVALID PUSH1 0x80 PUSH1 0x40 MSTORE CALLVALUE DUP1 ISZERO PUSH2 0xF JUMPI PUSH0 DUP1 REVERT JUMPDEST POP PUSH1 0x4 CALLDATASIZE LT PUSH2 0x29 JUMPI PUSH0 CALLDATALOAD PUSH1 0xE0 SHR DUP1 PUSH4 0x5106D529 EQ PUSH2 0x2D JUMPI JUMPDEST PUSH0 DUP1 REVERT JUMPDEST PUSH2 0x40 PUSH2 0x3B CALLDATASIZE PUSH1 0x4 PUSH2 0x16A JUMP JUMPDEST PUSH2 0x52 JUMP JUMPDEST PUSH1 0x40 MLOAD SWAP1 DUP2 MSTORE PUSH1 0x20 ADD PUSH1 0x40 MLOAD DUP1 SWAP2 SUB SWAP1 RETURN JUMPDEST PUSH0 DUP1 PUSH0 JUMPDEST DUP5 MLOAD DUP2 LT ISZERO PUSH2 0xB1 JUMPI DUP4 DUP2 DUP2 MLOAD DUP2 LT PUSH2 0x71 JUMPI PUSH2 0x71 PUSH2 0x1CA JUMP JUMPDEST PUSH1 0x20 MUL PUSH1 0x20 ADD ADD MLOAD DUP6 DUP3 DUP2 MLOAD DUP2 LT PUSH2 0x8B JUMPI PUSH2 0x8B PUSH2 0x1CA JUMP JUMPDEST PUSH1 0x20 MUL PUSH1 0x20 ADD ADD MLOAD PUSH2 0x9D SWAP2 SWAP1 PUSH2 0x1DE JUMP JUMPDEST PUSH2 0xA7 SWAP1 DUP4 PUSH2 0x1DE JUMP JUMPDEST SWAP2 POP PUSH1 0x1 ADD PUSH2 0x56 JUMP JUMPDEST POP SWAP1 POP JUMPDEST SWAP3 SWAP2 POP POP JUMP JUMPDEST PUSH4 0x4E487B71 PUSH1 0xE0 SHL PUSH0 MSTORE PUSH1 0x41 PUSH1 0x4 MSTORE PUSH1 0x24 PUSH0 REVERT JUMPDEST PUSH0 DUP3 PUSH1 0x1F DUP4 ADD SLT PUSH2 0xDE JUMPI PUSH0 DUP1 REVERT JUMPDEST DUP2 CALLDATALOAD PUSH1 0x20 PUSH8 0xFFFFFFFFFFFFFFFF DUP1 DUP4 GT ISZERO PUSH2 0xFB JUMPI PUSH2 0xFB PUSH2 0xBB JUMP JUMPDEST DUP3 PUSH1 0x5 SHL PUSH1 0x40 MLOAD PUSH1 0x1F NOT PUSH1 0x3F DUP4 ADD AND DUP2 ADD DUP2 DUP2 LT DUP5 DUP3 GT OR ISZERO PUSH2 0x120 JUMPI PUSH2 0x120 PUSH2 0xBB JUMP JUMPDEST PUSH1 0x40 MSTORE SWAP4 DUP5 MSTORE PUSH1 0x20 DUP2 DUP8 ADD DUP2 ADD SWAP5 SWAP1 DUP2 ADD SWAP3 POP DUP8 DUP6 GT ISZERO PUSH2 0x13F JUMPI PUSH0 DUP1 REVERT JUMPDEST PUSH1 0x20 DUP8 ADD SWAP2 POP JUMPDEST DUP5 DUP3 LT ISZERO PUSH2 0x15F JUMPI DUP2 CALLDATALOAD DUP4 MSTORE SWAP2 DUP4 ADD SWAP2 SWAP1 DUP4 ADD SWAP1 PUSH2 0x146 JUMP JUMPDEST SWAP8 SWAP7 POP POP POP POP POP POP POP JUMP JUMPDEST PUSH0 DUP1 PUSH1 0x40 DUP4 DUP6 SUB SLT ISZERO PUSH2 0x17B JUMPI PUSH0 DUP1 REVERT JUMPDEST DUP3 CALLDATALOAD PUSH8 0xFFFFFFFFFFFFFFFF DUP1 DUP3 GT ISZERO PUSH2 0x192 JUMPI PUSH0 DUP1 REVERT JUMPDEST PUSH2 0x19E DUP7 DUP4 DUP8 ADD PUSH2 0xCF JUMP JUMPDEST SWAP4 POP PUSH1 0x20 DUP6 ADD CALLDATALOAD SWAP2 POP DUP1 DUP3 GT ISZERO PUSH2 0x1B3 JUMPI PUSH0 DUP1 REVERT JUMPDEST POP PUSH2 0x1C0 DUP6 DUP3 DUP7 ADD PUSH2 0xCF JUMP JUMPDEST SWAP2 POP POP SWAP3 POP SWAP3 SWAP1 POP JUMP JUMPDEST PUSH4 0x4E487B71 PUSH1 0xE0 SHL PUSH0 MSTORE PUSH1 0x32 PUSH1 0x4 MSTORE PUSH1 0x24 PUSH0 REVERT JUMPDEST DUP1 DUP3 ADD DUP1 DUP3 GT ISZERO PUSH2 0xB5 JUMPI PUSH4 0x4E487B71 PUSH1 0xE0 SHL PUSH0 MSTORE PUSH1 0x11 PUSH1 0x4 MSTORE PUSH1 0x24 PUSH0 REVERT INVALID LOG2 PUSH5 0x6970667358 0x22 SLT KECCAK256 ADDMOD 0xB4 PUSH1 0x59 LOG4 DUP5 PUSH2 0x2E09 0xCC PC 0x2A 0xAC 0xD2 0xA5 DUP10 MCOPY 0x2D EXP 0xE0 TSTORE 0xAD 0x25 PUSH32 0x244D58D72586160A64736F6C6343000819003300000000000000000000000000 "
		},
		"gasEstimates": {
			"creation": {
				"codeDepositCost": "112600",
				"executionCost": "157",
				"totalCost": "112757"
			},
			"external": {
				"sumMultipleNumbers(uint256[],uint256[])": "infinite"
			}
		},
		"methodIdentifiers": {
			"sumMultipleNumbers(uint256[],uint256[])": "5106d529"
		}
	},
	"abi": [
		{
			"inputs": [
				{
					"internalType": "uint256[]",
					"name": "nums1",
					"type": "uint256[]"
				},
				{
					"internalType": "uint256[]",
					"name": "nums2",
					"type": "uint256[]"
				}
			],
			"name": "sumMultipleNumbers",
			"outputs": [
				{
					"internalType": "uint256",
					"name": "",
					"type": "uint256"
				}
			],
			"stateMutability": "pure",
			"type": "function"
		}
	]
}