{
	"data": {
		"bytecode": {
			"linkReferences": {},
			"object": "6080604052348015600e575f80fd5b506101d68061001c5f395ff3fe608060405234801561000f575f80fd5b5060043610610029575f3560e01c80635106d5291461002d575b5f80fd5b61004061003b366004610100565b610052565b60405190815260200160405180910390f35b5f805f5b858110156100ae5784848281811061007057610070610167565b9050602002013587878381811061008957610089610167565b9050602002013561009a919061017b565b6100a4908361017b565b9150600101610056565b5095945050505050565b5f8083601f8401126100c8575f80fd5b50813567ffffffffffffffff8111156100df575f80fd5b6020830191508360208260051b85010111156100f9575f80fd5b9250929050565b5f805f8060408587031215610113575f80fd5b843567ffffffffffffffff8082111561012a575f80fd5b610136888389016100b8565b9096509450602087013591508082111561014e575f80fd5b5061015b878288016100b8565b95989497509550505050565b634e487b7160e01b5f52603260045260245ffd5b8082018082111561019a57634e487b7160e01b5f52601160045260245ffd5b9291505056fea2646970667358221220712d1cd05db3342c1b30f5f0264d71d9cae4219080e8be2cec86049db24e4e0164736f6c63430008190033",
			"opcodes": "PUSH1 0x80 PUSH1 0x40 MSTORE CALLVALUE DUP1 ISZERO PUSH1 0xE JUMPI PUSH0 DUP1 REVERT JUMPDEST POP PUSH2 0x1D6 DUP1 PUSH2 0x1C PUSH0 CODECOPY PUSH0 RETURN INVALID PUSH1 0x80 PUSH1 0x40 MSTORE CALLVALUE DUP1 ISZERO PUSH2 0xF JUMPI PUSH0 DUP1 REVERT JUMPDEST POP PUSH1 0x4 CALLDATASIZE LT PUSH2 0x29 JUMPI PUSH0 CALLDATALOAD PUSH1 0xE0 SHR DUP1 PUSH4 0x5106D529 EQ PUSH2 0x2D JUMPI JUMPDEST PUSH0 DUP1 REVERT JUMPDEST PUSH2 0x40 PUSH2 0x3B CALLDATASIZE PUSH1 0x4 PUSH2 0x100 JUMP JUMPDEST PUSH2 0x52 JUMP JUMPDEST PUSH1 0x40 MLOAD SWAP1 DUP2 MSTORE PUSH1 0x20 ADD PUSH1 0x40 MLOAD DUP1 SWAP2 SUB SWAP1 RETURN JUMPDEST PUSH0 DUP1 PUSH0 JUMPDEST DUP6 DUP2 LT ISZERO PUSH2 0xAE JUMPI DUP5 DUP5 DUP3 DUP2 DUP2 LT PUSH2 0x70 JUMPI PUSH2 0x70 PUSH2 0x167 JUMP JUMPDEST SWAP1 POP PUSH1 0x20 MUL ADD CALLDATALOAD DUP8 DUP8 DUP4 DUP2 DUP2 LT PUSH2 0x89 JUMPI PUSH2 0x89 PUSH2 0x167 JUMP JUMPDEST SWAP1 POP PUSH1 0x20 MUL ADD CALLDATALOAD PUSH2 0x9A SWAP2 SWAP1 PUSH2 0x17B JUMP JUMPDEST PUSH2 0xA4 SWAP1 DUP4 PUSH2 0x17B JUMP JUMPDEST SWAP2 POP PUSH1 0x1 ADD PUSH2 0x56 JUMP JUMPDEST POP SWAP6 SWAP5 POP POP POP POP POP JUMP JUMPDEST PUSH0 DUP1 DUP4 PUSH1 0x1F DUP5 ADD SLT PUSH2 0xC8 JUMPI PUSH0 DUP1 REVERT JUMPDEST POP DUP2 CALLDATALOAD PUSH8 0xFFFFFFFFFFFFFFFF DUP2 GT ISZERO PUSH2 0xDF JUMPI PUSH0 DUP1 REVERT JUMPDEST PUSH1 0x20 DUP4 ADD SWAP2 POP DUP4 PUSH1 0x20 DUP3 PUSH1 0x5 SHL DUP6 ADD ADD GT ISZERO PUSH2 0xF9 JUMPI PUSH0 DUP1 REVERT JUMPDEST SWAP3 POP SWAP3 SWAP1 POP JUMP JUMPDEST PUSH0 DUP1 PUSH0 DUP1 PUSH1 0x40 DUP6 DUP8 SUB SLT ISZERO PUSH2 0x113 JUMPI PUSH0 DUP1 REVERT JUMPDEST DUP5 CALLDATALOAD PUSH8 0xFFFFFFFFFFFFFFFF DUP1 DUP3 GT ISZERO PUSH2 0x12A JUMPI PUSH0 DUP1 REVERT JUMPDEST PUSH2 0x136 DUP9 DUP4 DUP10 ADD PUSH2 0xB8 JUMP JUMPDEST SWAP1 SWAP7 POP SWAP5 POP PUSH1 0x20 DUP8 ADD CALLDATALOAD SWAP2 POP DUP1 DUP3 GT ISZERO PUSH2 0x14E JUMPI PUSH0 DUP1 REVERT JUMPDEST POP PUSH2 0x15B DUP8 DUP3 DUP9 ADD PUSH2 0xB8 JUMP JUMPDEST SWAP6 SWAP9 SWAP5 SWAP8 POP SWAP6 POP POP POP POP JUMP JUMPDEST PUSH4 0x4E487B71 PUSH1 0xE0 SHL PUSH0 MSTORE PUSH1 0x32 PUSH1 0x4 MSTORE PUSH1 0x24 PUSH0 REVERT JUMPDEST DUP1 DUP3 ADD DUP1 DUP3 GT ISZERO PUSH2 0x19A JUMPI PUSH4 0x4E487B71 PUSH1 0xE0 SHL PUSH0 MSTORE PUSH1 0x11 PUSH1 0x4 MSTORE PUSH1 0x24 PUSH0 REVERT JUMPDEST SWAP3 SWAP2 POP POP JUMP INVALID LOG2 PUSH5 0x6970667358 0x22 SLT KECCAK256 PUSH18 0x2D1CD05DB3342C1B30F5F0264D71D9CAE421 SWAP1 DUP1 0xE8 0xBE 0x2C 0xEC DUP7 DIV SWAP14 0xB2 0x4E 0x4E ADD PUSH5 0x736F6C6343 STOP ADDMOD NOT STOP CALLER "
		},
		"gasEstimates": {
			"creation": {
				"codeDepositCost": "94000",
				"executionCost": "139",
				"totalCost": "94139"
			},
			"external": {
				"sumMultipleNumbers(uint256[],uint256[])": "infinite"
			}
		},
		"methodIdentifiers": {
			"sumMultipleNumbers(uint256[],uint256[])": "5106d529"
		}
	},
	"abi": [
		{
			"inputs": [
				{
					"internalType": "uint256[]",
					"name": "nums1",
					"type": "uint256[]"
				},
				{
					"internalType": "uint256[]",
					"name": "nums2",
					"type": "uint256[]"
				}
			],
			"name": "sumMultipleNumbers",
			"outputs": [
				{
					"internalType": "uint256",
					"name": "",
					"type": "uint256"
				}
			],
			"stateMutability": "pure",
			"type": "function"
		}
	]
}