{
	"data": {
		"bytecode": {
			"linkReferences": {},
			"object": "6080604052348015600e575f80fd5b50610b238061001c5f395ff3fe608060405234801561000f575f80fd5b506004361061003f575f3560e01c806306ead22e146100435780630f23b455146100755780636f906852146100a5575b5f80fd5b61005d600480360381019061005891906102d3565b6100c1565b60405161006c9392919061037d565b60405180910390f35b61008f600480360381019061008a919061041a565b61016d565b60405161009c9190610465565b60405180910390f35b6100bf60048036038101906100ba9190610709565b6101cd565b005b6001602052805f5260405f205f91509050805f0180546100e09061077d565b80601f016020809104026020016040519081016040528092919081815260200182805461010c9061077d565b80156101575780601f1061012e57610100808354040283529160200191610157565b820191905f5260205f20905b81548152906001019060200180831161013a57829003601f168201915b5050505050908060010154908060020154905083565b5f805f90505b838390508110156101c65760015f858584818110610194576101936107ad565b5b9050602002013581526020019081526020015f2060020154826101b79190610807565b91508080600101915050610173565b5092915050565b5f805490505f5b8251811015610273575f8382815181106101f1576101f06107ad565b5b60200260200101516040018181525050828181518110610214576102136107ad565b5b602002602001015160015f8481526020019081526020015f205f820151815f01908161024091906109d7565b506020820151816001015560408201518160020155905050818061026390610aa6565b92505080806001019150506101d4565b50805f808282546102849190610807565b925050819055505050565b5f604051905090565b5f80fd5b5f80fd5b5f819050919050565b6102b2816102a0565b81146102bc575f80fd5b50565b5f813590506102cd816102a9565b92915050565b5f602082840312156102e8576102e7610298565b5b5f6102f5848285016102bf565b91505092915050565b5f81519050919050565b5f82825260208201905092915050565b8281835e5f83830152505050565b5f601f19601f8301169050919050565b5f610340826102fe565b61034a8185610308565b935061035a818560208601610318565b61036381610326565b840191505092915050565b610377816102a0565b82525050565b5f6060820190508181035f8301526103958186610336565b90506103a4602083018561036e565b6103b1604083018461036e565b949350505050565b5f80fd5b5f80fd5b5f80fd5b5f8083601f8401126103da576103d96103b9565b5b8235905067ffffffffffffffff8111156103f7576103f66103bd565b5b602083019150836020820283011115610413576104126103c1565b5b9250929050565b5f80602083850312156104305761042f610298565b5b5f83013567ffffffffffffffff81111561044d5761044c61029c565b5b610459858286016103c5565b92509250509250929050565b5f6020820190506104785f83018461036e565b92915050565b7f4e487b71000000000000000000000000000000000000000000000000000000005f52604160045260245ffd5b6104b482610326565b810181811067ffffffffffffffff821117156104d3576104d261047e565b5b80604052505050565b5f6104e561028f565b90506104f182826104ab565b919050565b5f67ffffffffffffffff8211156105105761050f61047e565b5b602082029050602081019050919050565b5f80fd5b5f80fd5b5f80fd5b5f67ffffffffffffffff8211156105475761054661047e565b5b61055082610326565b9050602081019050919050565b828183375f83830152505050565b5f61057d6105788461052d565b6104dc565b90508281526020810184848401111561059957610598610529565b5b6105a484828561055d565b509392505050565b5f82601f8301126105c0576105bf6103b9565b5b81356105d084826020860161056b565b91505092915050565b5f606082840312156105ee576105ed610521565b5b6105f860606104dc565b90505f82013567ffffffffffffffff81111561061757610616610525565b5b610623848285016105ac565b5f830152506020610636848285016102bf565b602083015250604061064a848285016102bf565b60408301525092915050565b5f610668610663846104f6565b6104dc565b9050808382526020820190506020840283018581111561068b5761068a6103c1565b5b835b818110156106d257803567ffffffffffffffff8111156106b0576106af6103b9565b5b8086016106bd89826105d9565b8552602085019450505060208101905061068d565b5050509392505050565b5f82601f8301126106f0576106ef6103b9565b5b8135610700848260208601610656565b91505092915050565b5f6020828403121561071e5761071d610298565b5b5f82013567ffffffffffffffff81111561073b5761073a61029c565b5b610747848285016106dc565b91505092915050565b7f4e487b71000000000000000000000000000000000000000000000000000000005f52602260045260245ffd5b5f600282049050600182168061079457607f821691505b6020821081036107a7576107a6610750565b5b50919050565b7f4e487b71000000000000000000000000000000000000000000000000000000005f52603260045260245ffd5b7f4e487b71000000000000000000000000000000000000000000000000000000005f52601160045260245ffd5b5f610811826102a0565b915061081c836102a0565b9250828201905080821115610834576108336107da565b5b92915050565b5f819050815f5260205f209050919050565b5f6020601f8301049050919050565b5f82821b905092915050565b5f600883026108967fffffffffffffffffffffffffffffffffffffffffffffffffffffffffffffffff8261085b565b6108a0868361085b565b95508019841693508086168417925050509392505050565b5f819050919050565b5f6108db6108d66108d1846102a0565b6108b8565b6102a0565b9050919050565b5f819050919050565b6108f4836108c1565b610908610900826108e2565b848454610867565b825550505050565b5f90565b61091c610910565b6109278184846108eb565b505050565b5b8181101561094a5761093f5f82610914565b60018101905061092d565b5050565b601f82111561098f576109608161083a565b6109698461084c565b81016020851015610978578190505b61098c6109848561084c565b83018261092c565b50505b505050565b5f82821c905092915050565b5f6109af5f1984600802610994565b1980831691505092915050565b5f6109c783836109a0565b9150826002028217905092915050565b6109e0826102fe565b67ffffffffffffffff8111156109f9576109f861047e565b5b610a03825461077d565b610a0e82828561094e565b5f60209050601f831160018114610a3f575f8415610a2d578287015190505b610a3785826109bc565b865550610a9e565b601f198416610a4d8661083a565b5f5b82811015610a7457848901518255600182019150602085019450602081019050610a4f565b86831015610a915784890151610a8d601f8916826109a0565b8355505b6001600288020188555050505b505050505050565b5f610ab0826102a0565b91507fffffffffffffffffffffffffffffffffffffffffffffffffffffffffffffffff8203610ae257610ae16107da565b5b60018201905091905056fea264697066735822122050d9cbe0a4259f72a92aa95d0d3f534db277f46f8212e375d5b1857ac8a8ee7264736f6c63430008190033",
			"opcodes": "PUSH1 0x80 PUSH1 0x40 MSTORE CALLVALUE DUP1 ISZERO PUSH1 0xE JUMPI PUSH0 DUP1 REVERT JUMPDEST POP PUSH2 0xB23 DUP1 PUSH2 0x1C PUSH0 CODECOPY PUSH0 RETURN INVALID PUSH1 0x80 PUSH1 0x40 MSTORE CALLVALUE DUP1 ISZERO PUSH2 0xF JUMPI PUSH0 DUP1 REVERT JUMPDEST POP PUSH1 0x4 CALLDATASIZE LT PUSH2 0x3F JUMPI PUSH0 CALLDATALOAD PUSH1 0xE0 SHR DUP1 PUSH4 0x6EAD22E EQ PUSH2 0x43 JUMPI DUP1 PUSH4 0xF23B455 EQ PUSH2 0x75 JUMPI DUP1 PUSH4 0x6F906852 EQ PUSH2 0xA5 JUMPI JUMPDEST PUSH0 DUP1 REVERT JUMPDEST PUSH2 0x5D PUSH1 0x4 DUP1 CALLDATASIZE SUB DUP2 ADD SWAP1 PUSH2 0x58 SWAP2 SWAP1 PUSH2 0x2D3 JUMP JUMPDEST PUSH2 0xC1 JUMP JUMPDEST PUSH1 0x40 MLOAD PUSH2 0x6C SWAP4 SWAP3 SWAP2 SWAP1 PUSH2 0x37D JUMP JUMPDEST PUSH1 0x40 MLOAD DUP1 SWAP2 SUB SWAP1 RETURN JUMPDEST PUSH2 0x8F PUSH1 0x4 DUP1 CALLDATASIZE SUB DUP2 ADD SWAP1 PUSH2 0x8A SWAP2 SWAP1 PUSH2 0x41A JUMP JUMPDEST PUSH2 0x16D JUMP JUMPDEST PUSH1 0x40 MLOAD PUSH2 0x9C SWAP2 SWAP1 PUSH2 0x465 JUMP JUMPDEST PUSH1 0x40 MLOAD DUP1 SWAP2 SUB SWAP1 RETURN JUMPDEST PUSH2 0xBF PUSH1 0x4 DUP1 CALLDATASIZE SUB DUP2 ADD SWAP1 PUSH2 0xBA SWAP2 SWAP1 PUSH2 0x709 JUMP JUMPDEST PUSH2 0x1CD JUMP JUMPDEST STOP JUMPDEST PUSH1 0x1 PUSH1 0x20 MSTORE DUP1 PUSH0 MSTORE PUSH1 0x40 PUSH0 KECCAK256 PUSH0 SWAP2 POP SWAP1 POP DUP1 PUSH0 ADD DUP1 SLOAD PUSH2 0xE0 SWAP1 PUSH2 0x77D JUMP JUMPDEST DUP1 PUSH1 0x1F ADD PUSH1 0x20 DUP1 SWAP2 DIV MUL PUSH1 0x20 ADD PUSH1 0x40 MLOAD SWAP1 DUP2 ADD PUSH1 0x40 MSTORE DUP1 SWAP3 SWAP2 SWAP1 DUP2 DUP2 MSTORE PUSH1 0x20 ADD DUP3 DUP1 SLOAD PUSH2 0x10C SWAP1 PUSH2 0x77D JUMP JUMPDEST DUP1 ISZERO PUSH2 0x157 JUMPI DUP1 PUSH1 0x1F LT PUSH2 0x12E JUMPI PUSH2 0x100 DUP1 DUP4 SLOAD DIV MUL DUP4 MSTORE SWAP2 PUSH1 0x20 ADD SWAP2 PUSH2 0x157 JUMP JUMPDEST DUP3 ADD SWAP2 SWAP1 PUSH0 MSTORE PUSH1 0x20 PUSH0 KECCAK256 SWAP1 JUMPDEST DUP2 SLOAD DUP2 MSTORE SWAP1 PUSH1 0x1 ADD SWAP1 PUSH1 0x20 ADD DUP1 DUP4 GT PUSH2 0x13A JUMPI DUP3 SWAP1 SUB PUSH1 0x1F AND DUP3 ADD SWAP2 JUMPDEST POP POP POP POP POP SWAP1 DUP1 PUSH1 0x1 ADD SLOAD SWAP1 DUP1 PUSH1 0x2 ADD SLOAD SWAP1 POP DUP4 JUMP JUMPDEST PUSH0 DUP1 PUSH0 SWAP1 POP JUMPDEST DUP4 DUP4 SWAP1 POP DUP2 LT ISZERO PUSH2 0x1C6 JUMPI PUSH1 0x1 PUSH0 DUP6 DUP6 DUP5 DUP2 DUP2 LT PUSH2 0x194 JUMPI PUSH2 0x193 PUSH2 0x7AD JUMP JUMPDEST JUMPDEST SWAP1 POP PUSH1 0x20 MUL ADD CALLDATALOAD DUP2 MSTORE PUSH1 0x20 ADD SWAP1 DUP2 MSTORE PUSH1 0x20 ADD PUSH0 KECCAK256 PUSH1 0x2 ADD SLOAD DUP3 PUSH2 0x1B7 SWAP2 SWAP1 PUSH2 0x807 JUMP JUMPDEST SWAP2 POP DUP1 DUP1 PUSH1 0x1 ADD SWAP2 POP POP PUSH2 0x173 JUMP JUMPDEST POP SWAP3 SWAP2 POP POP JUMP JUMPDEST PUSH0 DUP1 SLOAD SWAP1 POP PUSH0 JUMPDEST DUP3 MLOAD DUP2 LT ISZERO PUSH2 0x273 JUMPI PUSH0 DUP4 DUP3 DUP2 MLOAD DUP2 LT PUSH2 0x1F1 JUMPI PUSH2 0x1F0 PUSH2 0x7AD JUMP JUMPDEST JUMPDEST PUSH1 0x20 MUL PUSH1 0x20 ADD ADD MLOAD PUSH1 0x40 ADD DUP2 DUP2 MSTORE POP POP DUP3 DUP2 DUP2 MLOAD DUP2 LT PUSH2 0x214 JUMPI PUSH2 0x213 PUSH2 0x7AD JUMP JUMPDEST JUMPDEST PUSH1 0x20 MUL PUSH1 0x20 ADD ADD MLOAD PUSH1 0x1 PUSH0 DUP5 DUP2 MSTORE PUSH1 0x20 ADD SWAP1 DUP2 MSTORE PUSH1 0x20 ADD PUSH0 KECCAK256 PUSH0 DUP3 ADD MLOAD DUP2 PUSH0 ADD SWAP1 DUP2 PUSH2 0x240 SWAP2 SWAP1 PUSH2 0x9D7 JUMP JUMPDEST POP PUSH1 0x20 DUP3 ADD MLOAD DUP2 PUSH1 0x1 ADD SSTORE PUSH1 0x40 DUP3 ADD MLOAD DUP2 PUSH1 0x2 ADD SSTORE SWAP1 POP POP DUP2 DUP1 PUSH2 0x263 SWAP1 PUSH2 0xAA6 JUMP JUMPDEST SWAP3 POP POP DUP1 DUP1 PUSH1 0x1 ADD SWAP2 POP POP PUSH2 0x1D4 JUMP JUMPDEST POP DUP1 PUSH0 DUP1 DUP3 DUP3 SLOAD PUSH2 0x284 SWAP2 SWAP1 PUSH2 0x807 JUMP JUMPDEST SWAP3 POP POP DUP2 SWAP1 SSTORE POP POP POP JUMP JUMPDEST PUSH0 PUSH1 0x40 MLOAD SWAP1 POP SWAP1 JUMP JUMPDEST PUSH0 DUP1 REVERT JUMPDEST PUSH0 DUP1 REVERT JUMPDEST PUSH0 DUP2 SWAP1 POP SWAP2 SWAP1 POP JUMP JUMPDEST PUSH2 0x2B2 DUP2 PUSH2 0x2A0 JUMP JUMPDEST DUP2 EQ PUSH2 0x2BC JUMPI PUSH0 DUP1 REVERT JUMPDEST POP JUMP JUMPDEST PUSH0 DUP2 CALLDATALOAD SWAP1 POP PUSH2 0x2CD DUP2 PUSH2 0x2A9 JUMP JUMPDEST SWAP3 SWAP2 POP POP JUMP JUMPDEST PUSH0 PUSH1 0x20 DUP3 DUP5 SUB SLT ISZERO PUSH2 0x2E8 JUMPI PUSH2 0x2E7 PUSH2 0x298 JUMP JUMPDEST JUMPDEST PUSH0 PUSH2 0x2F5 DUP5 DUP3 DUP6 ADD PUSH2 0x2BF JUMP JUMPDEST SWAP2 POP POP SWAP3 SWAP2 POP POP JUMP JUMPDEST PUSH0 DUP2 MLOAD SWAP1 POP SWAP2 SWAP1 POP JUMP JUMPDEST PUSH0 DUP3 DUP3 MSTORE PUSH1 0x20 DUP3 ADD SWAP1 POP SWAP3 SWAP2 POP POP JUMP JUMPDEST DUP3 DUP2 DUP4 MCOPY PUSH0 DUP4 DUP4 ADD MSTORE POP POP POP JUMP JUMPDEST PUSH0 PUSH1 0x1F NOT PUSH1 0x1F DUP4 ADD AND SWAP1 POP SWAP2 SWAP1 POP JUMP JUMPDEST PUSH0 PUSH2 0x340 DUP3 PUSH2 0x2FE JUMP JUMPDEST PUSH2 0x34A DUP2 DUP6 PUSH2 0x308 JUMP JUMPDEST SWAP4 POP PUSH2 0x35A DUP2 DUP6 PUSH1 0x20 DUP7 ADD PUSH2 0x318 JUMP JUMPDEST PUSH2 0x363 DUP2 PUSH2 0x326 JUMP JUMPDEST DUP5 ADD SWAP2 POP POP SWAP3 SWAP2 POP POP JUMP JUMPDEST PUSH2 0x377 DUP2 PUSH2 0x2A0 JUMP JUMPDEST DUP3 MSTORE POP POP JUMP JUMPDEST PUSH0 PUSH1 0x60 DUP3 ADD SWAP1 POP DUP2 DUP2 SUB PUSH0 DUP4 ADD MSTORE PUSH2 0x395 DUP2 DUP7 PUSH2 0x336 JUMP JUMPDEST SWAP1 POP PUSH2 0x3A4 PUSH1 0x20 DUP4 ADD DUP6 PUSH2 0x36E JUMP JUMPDEST PUSH2 0x3B1 PUSH1 0x40 DUP4 ADD DUP5 PUSH2 0x36E JUMP JUMPDEST SWAP5 SWAP4 POP POP POP POP JUMP JUMPDEST PUSH0 DUP1 REVERT JUMPDEST PUSH0 DUP1 REVERT JUMPDEST PUSH0 DUP1 REVERT JUMPDEST PUSH0 DUP1 DUP4 PUSH1 0x1F DUP5 ADD SLT PUSH2 0x3DA JUMPI PUSH2 0x3D9 PUSH2 0x3B9 JUMP JUMPDEST JUMPDEST DUP3 CALLDATALOAD SWAP1 POP PUSH8 0xFFFFFFFFFFFFFFFF DUP2 GT ISZERO PUSH2 0x3F7 JUMPI PUSH2 0x3F6 PUSH2 0x3BD JUMP JUMPDEST JUMPDEST PUSH1 0x20 DUP4 ADD SWAP2 POP DUP4 PUSH1 0x20 DUP3 MUL DUP4 ADD GT ISZERO PUSH2 0x413 JUMPI PUSH2 0x412 PUSH2 0x3C1 JUMP JUMPDEST JUMPDEST SWAP3 POP SWAP3 SWAP1 POP JUMP JUMPDEST PUSH0 DUP1 PUSH1 0x20 DUP4 DUP6 SUB SLT ISZERO PUSH2 0x430 JUMPI PUSH2 0x42F PUSH2 0x298 JUMP JUMPDEST JUMPDEST PUSH0 DUP4 ADD CALLDATALOAD PUSH8 0xFFFFFFFFFFFFFFFF DUP2 GT ISZERO PUSH2 0x44D JUMPI PUSH2 0x44C PUSH2 0x29C JUMP JUMPDEST JUMPDEST PUSH2 0x459 DUP6 DUP3 DUP7 ADD PUSH2 0x3C5 JUMP JUMPDEST SWAP3 POP SWAP3 POP POP SWAP3 POP SWAP3 SWAP1 POP JUMP JUMPDEST PUSH0 PUSH1 0x20 DUP3 ADD SWAP1 POP PUSH2 0x478 PUSH0 DUP4 ADD DUP5 PUSH2 0x36E JUMP JUMPDEST SWAP3 SWAP2 POP POP JUMP JUMPDEST PUSH32 0x4E487B7100000000000000000000000000000000000000000000000000000000 PUSH0 MSTORE PUSH1 0x41 PUSH1 0x4 MSTORE PUSH1 0x24 PUSH0 REVERT JUMPDEST PUSH2 0x4B4 DUP3 PUSH2 0x326 JUMP JUMPDEST DUP2 ADD DUP2 DUP2 LT PUSH8 0xFFFFFFFFFFFFFFFF DUP3 GT OR ISZERO PUSH2 0x4D3 JUMPI PUSH2 0x4D2 PUSH2 0x47E JUMP JUMPDEST JUMPDEST DUP1 PUSH1 0x40 MSTORE POP POP POP JUMP JUMPDEST PUSH0 PUSH2 0x4E5 PUSH2 0x28F JUMP JUMPDEST SWAP1 POP PUSH2 0x4F1 DUP3 DUP3 PUSH2 0x4AB JUMP JUMPDEST SWAP2 SWAP1 POP JUMP JUMPDEST PUSH0 PUSH8 0xFFFFFFFFFFFFFFFF DUP3 GT ISZERO PUSH2 0x510 JUMPI PUSH2 0x50F PUSH2 0x47E JUMP JUMPDEST JUMPDEST PUSH1 0x20 DUP3 MUL SWAP1 POP PUSH1 0x20 DUP2 ADD SWAP1 POP SWAP2 SWAP1 POP JUMP JUMPDEST PUSH0 DUP1 REVERT JUMPDEST PUSH0 DUP1 REVERT JUMPDEST PUSH0 DUP1 REVERT JUMPDEST PUSH0 PUSH8 0xFFFFFFFFFFFFFFFF DUP3 GT ISZERO PUSH2 0x547 JUMPI PUSH2 0x546 PUSH2 0x47E JUMP JUMPDEST JUMPDEST PUSH2 0x550 DUP3 PUSH2 0x326 JUMP JUMPDEST SWAP1 POP PUSH1 0x20 DUP2 ADD SWAP1 POP SWAP2 SWAP1 POP JUMP JUMPDEST DUP3 DUP2 DUP4 CALLDATACOPY PUSH0 DUP4 DUP4 ADD MSTORE POP POP POP JUMP JUMPDEST PUSH0 PUSH2 0x57D PUSH2 0x578 DUP5 PUSH2 0x52D JUMP JUMPDEST PUSH2 0x4DC JUMP JUMPDEST SWAP1 POP DUP3 DUP2 MSTORE PUSH1 0x20 DUP2 ADD DUP5 DUP5 DUP5 ADD GT ISZERO PUSH2 0x599 JUMPI PUSH2 0x598 PUSH2 0x529 JUMP JUMPDEST JUMPDEST PUSH2 0x5A4 DUP5 DUP3 DUP6 PUSH2 0x55D JUMP JUMPDEST POP SWAP4 SWAP3 POP POP POP JUMP JUMPDEST PUSH0 DUP3 PUSH1 0x1F DUP4 ADD SLT PUSH2 0x5C0 JUMPI PUSH2 0x5BF PUSH2 0x3B9 JUMP JUMPDEST JUMPDEST DUP2 CALLDATALOAD PUSH2 0x5D0 DUP5 DUP3 PUSH1 0x20 DUP7 ADD PUSH2 0x56B JUMP JUMPDEST SWAP2 POP POP SWAP3 SWAP2 POP POP JUMP JUMPDEST PUSH0 PUSH1 0x60 DUP3 DUP5 SUB SLT ISZERO PUSH2 0x5EE JUMPI PUSH2 0x5ED PUSH2 0x521 JUMP JUMPDEST JUMPDEST PUSH2 0x5F8 PUSH1 0x60 PUSH2 0x4DC JUMP JUMPDEST SWAP1 POP PUSH0 DUP3 ADD CALLDATALOAD PUSH8 0xFFFFFFFFFFFFFFFF DUP2 GT ISZERO PUSH2 0x617 JUMPI PUSH2 0x616 PUSH2 0x525 JUMP JUMPDEST JUMPDEST PUSH2 0x623 DUP5 DUP3 DUP6 ADD PUSH2 0x5AC JUMP JUMPDEST PUSH0 DUP4 ADD MSTORE POP PUSH1 0x20 PUSH2 0x636 DUP5 DUP3 DUP6 ADD PUSH2 0x2BF JUMP JUMPDEST PUSH1 0x20 DUP4 ADD MSTORE POP PUSH1 0x40 PUSH2 0x64A DUP5 DUP3 DUP6 ADD PUSH2 0x2BF JUMP JUMPDEST PUSH1 0x40 DUP4 ADD MSTORE POP SWAP3 SWAP2 POP POP JUMP JUMPDEST PUSH0 PUSH2 0x668 PUSH2 0x663 DUP5 PUSH2 0x4F6 JUMP JUMPDEST PUSH2 0x4DC JUMP JUMPDEST SWAP1 POP DUP1 DUP4 DUP3 MSTORE PUSH1 0x20 DUP3 ADD SWAP1 POP PUSH1 0x20 DUP5 MUL DUP4 ADD DUP6 DUP2 GT ISZERO PUSH2 0x68B JUMPI PUSH2 0x68A PUSH2 0x3C1 JUMP JUMPDEST JUMPDEST DUP4 JUMPDEST DUP2 DUP2 LT ISZERO PUSH2 0x6D2 JUMPI DUP1 CALLDATALOAD PUSH8 0xFFFFFFFFFFFFFFFF DUP2 GT ISZERO PUSH2 0x6B0 JUMPI PUSH2 0x6AF PUSH2 0x3B9 JUMP JUMPDEST JUMPDEST DUP1 DUP7 ADD PUSH2 0x6BD DUP10 DUP3 PUSH2 0x5D9 JUMP JUMPDEST DUP6 MSTORE PUSH1 0x20 DUP6 ADD SWAP5 POP POP POP PUSH1 0x20 DUP2 ADD SWAP1 POP PUSH2 0x68D JUMP JUMPDEST POP POP POP SWAP4 SWAP3 POP POP POP JUMP JUMPDEST PUSH0 DUP3 PUSH1 0x1F DUP4 ADD SLT PUSH2 0x6F0 JUMPI PUSH2 0x6EF PUSH2 0x3B9 JUMP JUMPDEST JUMPDEST DUP2 CALLDATALOAD PUSH2 0x700 DUP5 DUP3 PUSH1 0x20 DUP7 ADD PUSH2 0x656 JUMP JUMPDEST SWAP2 POP POP SWAP3 SWAP2 POP POP JUMP JUMPDEST PUSH0 PUSH1 0x20 DUP3 DUP5 SUB SLT ISZERO PUSH2 0x71E JUMPI PUSH2 0x71D PUSH2 0x298 JUMP JUMPDEST JUMPDEST PUSH0 DUP3 ADD CALLDATALOAD PUSH8 0xFFFFFFFFFFFFFFFF DUP2 GT ISZERO PUSH2 0x73B JUMPI PUSH2 0x73A PUSH2 0x29C JUMP JUMPDEST JUMPDEST PUSH2 0x747 DUP5 DUP3 DUP6 ADD PUSH2 0x6DC JUMP JUMPDEST SWAP2 POP POP SWAP3 SWAP2 POP POP JUMP JUMPDEST PUSH32 0x4E487B7100000000000000000000000000000000000000000000000000000000 PUSH0 MSTORE PUSH1 0x22 PUSH1 0x4 MSTORE PUSH1 0x24 PUSH0 REVERT JUMPDEST PUSH0 PUSH1 0x2 DUP3 DIV SWAP1 POP PUSH1 0x1 DUP3 AND DUP1 PUSH2 0x794 JUMPI PUSH1 0x7F DUP3 AND SWAP2 POP JUMPDEST PUSH1 0x20 DUP3 LT DUP2 SUB PUSH2 0x7A7 JUMPI PUSH2 0x7A6 PUSH2 0x750 JUMP JUMPDEST JUMPDEST POP SWAP2 SWAP1 POP JUMP JUMPDEST PUSH32 0x4E487B7100000000000000000000000000000000000000000000000000000000 PUSH0 MSTORE PUSH1 0x32 PUSH1 0x4 MSTORE PUSH1 0x24 PUSH0 REVERT JUMPDEST PUSH32 0x4E487B7100000000000000000000000000000000000000000000000000000000 PUSH0 MSTORE PUSH1 0x11 PUSH1 0x4 MSTORE PUSH1 0x24 PUSH0 REVERT JUMPDEST PUSH0 PUSH2 0x811 DUP3 PUSH2 0x2A0 JUMP JUMPDEST SWAP2 POP PUSH2 0x81C DUP4 PUSH2 0x2A0 JUMP JUMPDEST SWAP3 POP DUP3 DUP3 ADD SWAP1 POP DUP1 DUP3 GT ISZERO PUSH2 0x834 JUMPI PUSH2 0x833 PUSH2 0x7DA JUMP JUMPDEST JUMPDEST SWAP3 SWAP2 POP POP JUMP JUMPDEST PUSH0 DUP2 SWAP1 POP DUP2 PUSH0 MSTORE PUSH1 0x20 PUSH0 KECCAK256 SWAP1 POP SWAP2 SWAP1 POP JUMP JUMPDEST PUSH0 PUSH1 0x20 PUSH1 0x1F DUP4 ADD DIV SWAP1 POP SWAP2 SWAP1 POP JUMP JUMPDEST PUSH0 DUP3 DUP3 SHL SWAP1 POP SWAP3 SWAP2 POP POP JUMP JUMPDEST PUSH0 PUSH1 0x8 DUP4 MUL PUSH2 0x896 PUSH32 0xFFFFFFFFFFFFFFFFFFFFFFFFFFFFFFFFFFFFFFFFFFFFFFFFFFFFFFFFFFFFFFFF DUP3 PUSH2 0x85B JUMP JUMPDEST PUSH2 0x8A0 DUP7 DUP4 PUSH2 0x85B JUMP JUMPDEST SWAP6 POP DUP1 NOT DUP5 AND SWAP4 POP DUP1 DUP7 AND DUP5 OR SWAP3 POP POP POP SWAP4 SWAP3 POP POP POP JUMP JUMPDEST PUSH0 DUP2 SWAP1 POP SWAP2 SWAP1 POP JUMP JUMPDEST PUSH0 PUSH2 0x8DB PUSH2 0x8D6 PUSH2 0x8D1 DUP5 PUSH2 0x2A0 JUMP JUMPDEST PUSH2 0x8B8 JUMP JUMPDEST PUSH2 0x2A0 JUMP JUMPDEST SWAP1 POP SWAP2 SWAP1 POP JUMP JUMPDEST PUSH0 DUP2 SWAP1 POP SWAP2 SWAP1 POP JUMP JUMPDEST PUSH2 0x8F4 DUP4 PUSH2 0x8C1 JUMP JUMPDEST PUSH2 0x908 PUSH2 0x900 DUP3 PUSH2 0x8E2 JUMP JUMPDEST DUP5 DUP5 SLOAD PUSH2 0x867 JUMP JUMPDEST DUP3 SSTORE POP POP POP POP JUMP JUMPDEST PUSH0 SWAP1 JUMP JUMPDEST PUSH2 0x91C PUSH2 0x910 JUMP JUMPDEST PUSH2 0x927 DUP2 DUP5 DUP5 PUSH2 0x8EB JUMP JUMPDEST POP POP POP JUMP JUMPDEST JUMPDEST DUP2 DUP2 LT ISZERO PUSH2 0x94A JUMPI PUSH2 0x93F PUSH0 DUP3 PUSH2 0x914 JUMP JUMPDEST PUSH1 0x1 DUP2 ADD SWAP1 POP PUSH2 0x92D JUMP JUMPDEST POP POP JUMP JUMPDEST PUSH1 0x1F DUP3 GT ISZERO PUSH2 0x98F JUMPI PUSH2 0x960 DUP2 PUSH2 0x83A JUMP JUMPDEST PUSH2 0x969 DUP5 PUSH2 0x84C JUMP JUMPDEST DUP2 ADD PUSH1 0x20 DUP6 LT ISZERO PUSH2 0x978 JUMPI DUP2 SWAP1 POP JUMPDEST PUSH2 0x98C PUSH2 0x984 DUP6 PUSH2 0x84C JUMP JUMPDEST DUP4 ADD DUP3 PUSH2 0x92C JUMP JUMPDEST POP POP JUMPDEST POP POP POP JUMP JUMPDEST PUSH0 DUP3 DUP3 SHR SWAP1 POP SWAP3 SWAP2 POP POP JUMP JUMPDEST PUSH0 PUSH2 0x9AF PUSH0 NOT DUP5 PUSH1 0x8 MUL PUSH2 0x994 JUMP JUMPDEST NOT DUP1 DUP4 AND SWAP2 POP POP SWAP3 SWAP2 POP POP JUMP JUMPDEST PUSH0 PUSH2 0x9C7 DUP4 DUP4 PUSH2 0x9A0 JUMP JUMPDEST SWAP2 POP DUP3 PUSH1 0x2 MUL DUP3 OR SWAP1 POP SWAP3 SWAP2 POP POP JUMP JUMPDEST PUSH2 0x9E0 DUP3 PUSH2 0x2FE JUMP JUMPDEST PUSH8 0xFFFFFFFFFFFFFFFF DUP2 GT ISZERO PUSH2 0x9F9 JUMPI PUSH2 0x9F8 PUSH2 0x47E JUMP JUMPDEST JUMPDEST PUSH2 0xA03 DUP3 SLOAD PUSH2 0x77D JUMP JUMPDEST PUSH2 0xA0E DUP3 DUP3 DUP6 PUSH2 0x94E JUMP JUMPDEST PUSH0 PUSH1 0x20 SWAP1 POP PUSH1 0x1F DUP4 GT PUSH1 0x1 DUP2 EQ PUSH2 0xA3F JUMPI PUSH0 DUP5 ISZERO PUSH2 0xA2D JUMPI DUP3 DUP8 ADD MLOAD SWAP1 POP JUMPDEST PUSH2 0xA37 DUP6 DUP3 PUSH2 0x9BC JUMP JUMPDEST DUP7 SSTORE POP PUSH2 0xA9E JUMP JUMPDEST PUSH1 0x1F NOT DUP5 AND PUSH2 0xA4D DUP7 PUSH2 0x83A JUMP JUMPDEST PUSH0 JUMPDEST DUP3 DUP2 LT ISZERO PUSH2 0xA74 JUMPI DUP5 DUP10 ADD MLOAD DUP3 SSTORE PUSH1 0x1 DUP3 ADD SWAP2 POP PUSH1 0x20 DUP6 ADD SWAP5 POP PUSH1 0x20 DUP2 ADD SWAP1 POP PUSH2 0xA4F JUMP JUMPDEST DUP7 DUP4 LT ISZERO PUSH2 0xA91 JUMPI DUP5 DUP10 ADD MLOAD PUSH2 0xA8D PUSH1 0x1F DUP10 AND DUP3 PUSH2 0x9A0 JUMP JUMPDEST DUP4 SSTORE POP JUMPDEST PUSH1 0x1 PUSH1 0x2 DUP9 MUL ADD DUP9 SSTORE POP POP POP JUMPDEST POP POP POP POP POP POP JUMP JUMPDEST PUSH0 PUSH2 0xAB0 DUP3 PUSH2 0x2A0 JUMP JUMPDEST SWAP2 POP PUSH32 0xFFFFFFFFFFFFFFFFFFFFFFFFFFFFFFFFFFFFFFFFFFFFFFFFFFFFFFFFFFFFFFFF DUP3 SUB PUSH2 0xAE2 JUMPI PUSH2 0xAE1 PUSH2 0x7DA JUMP JUMPDEST JUMPDEST PUSH1 0x1 DUP3 ADD SWAP1 POP SWAP2 SWAP1 POP JUMP INVALID LOG2 PUSH5 0x6970667358 0x22 SLT KECCAK256 POP 0xD9 0xCB 0xE0 LOG4 0x25 SWAP16 PUSH19 0xA92AA95D0D3F534DB277F46F8212E375D5B185 PUSH27 0xC8A8EE7264736F6C63430008190033000000000000000000000000 "
		},
		"gasEstimates": {
			"creation": {
				"codeDepositCost": "570200",
				"executionCost": "604",
				"totalCost": "570804"
			},
			"external": {
				"addStudents((string,uint256,uint256)[])": "infinite",
				"calcAverageScore(uint256[])": "infinite",
				"students(uint256)": "infinite"
			}
		},
		"methodIdentifiers": {
			"addStudents((string,uint256,uint256)[])": "6f906852",
			"calcAverageScore(uint256[])": "0f23b455",
			"students(uint256)": "06ead22e"
		}
	},
	"abi": [
		{
			"inputs": [
				{
					"components": [
						{
							"internalType": "string",
							"name": "name",
							"type": "string"
						},
						{
							"internalType": "uint256",
							"name": "age",
							"type": "uint256"
						},
						{
							"internalType": "uint256",
							"name": "averageScore",
							"type": "uint256"
						}
					],
					"internalType": "struct ContractKV7.Student[]",
					"name": "_students",
					"type": "tuple[]"
				}
			],
			"name": "addStudents",
			"outputs": [],
			"stateMutability": "nonpayable",
			"type": "function"
		},
		{
			"inputs": [
				{
					"internalType": "uint256[]",
					"name": "ids",
					"type": "uint256[]"
				}
			],
			"name": "calcAverageScore",
			"outputs": [
				{
					"internalType": "uint256",
					"name": "average",
					"type": "uint256"
				}
			],
			"stateMutability": "view",
			"type": "function"
		},
		{
			"inputs": [
				{
					"internalType": "uint256",
					"name": "",
					"type": "uint256"
				}
			],
			"name": "students",
			"outputs": [
				{
					"internalType": "string",
					"name": "name",
					"type": "string"
				},
				{
					"internalType": "uint256",
					"name": "age",
					"type": "uint256"
				},
				{
					"internalType": "uint256",
					"name": "averageScore",
					"type": "uint256"
				}
			],
			"stateMutability": "view",
			"type": "function"
		}
	]
}