{
	"contracts/ContractA/ContractAV1.sol": {
		"ContractAV1": {
			"abi": [
				{
					"inputs": [],
					"name": "num",
					"outputs": [
						{
							"internalType": "uint8",
							"name": "",
							"type": "uint8"
						}
					],
					"stateMutability": "view",
					"type": "function"
				}
			],
			"devdoc": {
				"kind": "dev",
				"methods": {},
				"version": 1
			},
			"evm": {
				"assembly": "    /* \"contracts/ContractA/ContractAV1.sol\":63:111  contract ContractAV1 {... */\n  mstore(0x40, 0x80)\n  callvalue\n  dup1\n  iszero\n  tag_1\n  jumpi\n  0x00\n  dup1\n  revert\ntag_1:\n  pop\n  dataSize(sub_0)\n  dup1\n  dataOffset(sub_0)\n  0x00\n  codecopy\n  0x00\n  return\nstop\n\nsub_0: assembly {\n        /* \"contracts/ContractA/ContractAV1.sol\":63:111  contract ContractAV1 {... */\n      mstore(0x40, 0x80)\n      callvalue\n      dup1\n      iszero\n      tag_1\n      jumpi\n      0x00\n      dup1\n      revert\n    tag_1:\n      pop\n      jumpi(tag_2, lt(calldatasize, 0x04))\n      shr(0xe0, calldataload(0x00))\n      dup1\n      0x4e70b1dc\n      eq\n      tag_3\n      jumpi\n    tag_2:\n      0x00\n      dup1\n      revert\n        /* \"contracts/ContractA/ContractAV1.sol\":91:107  uint8 public num */\n    tag_3:\n      sload(0x00)\n      tag_4\n      swap1\n      0xff\n      and\n      dup2\n      jump\n    tag_4:\n      mload(0x40)\n        /* \"#utility.yul\":186:190   */\n      0xff\n        /* \"#utility.yul\":174:191   */\n      swap1\n      swap2\n      and\n        /* \"#utility.yul\":156:192   */\n      dup2\n      mstore\n        /* \"#utility.yul\":144:146   */\n      0x20\n        /* \"#utility.yul\":129:147   */\n      add\n        /* \"contracts/ContractA/ContractAV1.sol\":91:107  uint8 public num */\n      mload(0x40)\n      dup1\n      swap2\n      sub\n      swap1\n      return\n\n    auxdata: 0xa264697066735822122056edd5c708c633f08ee7e26d7a554e9f01735cb60f58151e5ea09d72993977f464736f6c63430008190033\n}\n",
				"bytecode": {
					"linkReferences": {},
					"object": "6080604052348015600e575f80fd5b50608180601a5f395ff3fe6080604052348015600e575f80fd5b50600436106026575f3560e01c80634e70b1dc14602a575b5f80fd5b5f5460359060ff1681565b60405160ff909116815260200160405180910390f3fea264697066735822122056edd5c708c633f08ee7e26d7a554e9f01735cb60f58151e5ea09d72993977f464736f6c63430008190033",
					"opcodes": "PUSH1 0x80 PUSH1 0x40 MSTORE CALLVALUE DUP1 ISZERO PUSH1 0xE JUMPI PUSH0 DUP1 REVERT JUMPDEST POP PUSH1 0x81 DUP1 PUSH1 0x1A PUSH0 CODECOPY PUSH0 RETURN INVALID PUSH1 0x80 PUSH1 0x40 MSTORE CALLVALUE DUP1 ISZERO PUSH1 0xE JUMPI PUSH0 DUP1 REVERT JUMPDEST POP PUSH1 0x4 CALLDATASIZE LT PUSH1 0x26 JUMPI PUSH0 CALLDATALOAD PUSH1 0xE0 SHR DUP1 PUSH4 0x4E70B1DC EQ PUSH1 0x2A JUMPI JUMPDEST PUSH0 DUP1 REVERT JUMPDEST PUSH0 SLOAD PUSH1 0x35 SWAP1 PUSH1 0xFF AND DUP2 JUMP JUMPDEST PUSH1 0x40 MLOAD PUSH1 0xFF SWAP1 SWAP2 AND DUP2 MSTORE PUSH1 0x20 ADD PUSH1 0x40 MLOAD DUP1 SWAP2 SUB SWAP1 RETURN INVALID LOG2 PUSH5 0x6970667358 0x22 SLT KECCAK256 JUMP 0xED 0xD5 0xC7 ADDMOD 0xC6 CALLER CREATE DUP15 0xE7 0xE2 PUSH14 0x7A554E9F01735CB60F58151E5EA0 SWAP14 PUSH19 0x993977F464736F6C6343000819003300000000 "
				},
				"gasEstimates": {
					"creation": {
						"codeDepositCost": "25800",
						"executionCost": "79",
						"totalCost": "25879"
					},
					"external": {
						"num()": "2277"
					}
				},
				"methodIdentifiers": {
					"num()": "4e70b1dc"
				}
			},
			"storageLayout": {
				"storage": [
					{
						"astId": 3,
						"contract": "contracts/ContractA/ContractAV1.sol:ContractAV1",
						"label": "num",
						"offset": 0,
						"slot": "0",
						"type": "t_uint8"
					}
				],
				"types": {
					"t_uint8": {
						"encoding": "inplace",
						"label": "uint8",
						"numberOfBytes": "1"
					}
				}
			},
			"userdoc": {
				"kind": "user",
				"methods": {},
				"version": 1
			}
		}
	}
}