{
	"contracts/ContractL/ContractLV1.sol": {
		"ContractLV1": {
			"abi": [
				{
					"inputs": [
						{
							"internalType": "uint256",
							"name": "a",
							"type": "uint256"
						},
						{
							"internalType": "uint256",
							"name": "b",
							"type": "uint256"
						},
						{
							"internalType": "uint256",
							"name": "c",
							"type": "uint256"
						},
						{
							"internalType": "uint256",
							"name": "d",
							"type": "uint256"
						},
						{
							"internalType": "uint256",
							"name": "e",
							"type": "uint256"
						}
					],
					"name": "sum",
					"outputs": [
						{
							"internalType": "uint256",
							"name": "",
							"type": "uint256"
						}
					],
					"stateMutability": "pure",
					"type": "function"
				}
			],
			"devdoc": {
				"kind": "dev",
				"methods": {},
				"version": 1
			},
			"evm": {
				"assembly": "    /* \"contracts/ContractL/ContractLV1.sol\":63:289  contract ContractLV1 {... */\n  mstore(0x40, 0x80)\n  callvalue\n  dup1\n  iszero\n  tag_1\n  jumpi\n  0x00\n  dup1\n  revert\ntag_1:\n  pop\n  dataSize(sub_0)\n  dup1\n  dataOffset(sub_0)\n  0x00\n  codecopy\n  0x00\n  return\nstop\n\nsub_0: assembly {\n        /* \"contracts/ContractL/ContractLV1.sol\":63:289  contract ContractLV1 {... */\n      mstore(0x40, 0x80)\n      callvalue\n      dup1\n      iszero\n      tag_1\n      jumpi\n      0x00\n      dup1\n      revert\n    tag_1:\n      pop\n      jumpi(tag_2, lt(calldatasize, 0x04))\n      shr(0xe0, calldataload(0x00))\n      dup1\n      0x9c163fe3\n      eq\n      tag_3\n      jumpi\n    tag_2:\n      0x00\n      dup1\n      revert\n        /* \"contracts/ContractL/ContractLV1.sol\":91:286  function sum(... */\n    tag_3:\n      tag_4\n      tag_5\n      calldatasize\n      0x04\n      tag_6\n      jump\t// in\n    tag_5:\n      tag_7\n      jump\t// in\n    tag_4:\n      mload(0x40)\n        /* \"#utility.yul\":619:644   */\n      swap1\n      dup2\n      mstore\n        /* \"#utility.yul\":607:609   */\n      0x20\n        /* \"#utility.yul\":592:610   */\n      add\n        /* \"contracts/ContractL/ContractLV1.sol\":91:286  function sum(... */\n      mload(0x40)\n      dup1\n      swap2\n      sub\n      swap1\n      return\n    tag_7:\n        /* \"contracts/ContractL/ContractLV1.sol\":234:241  uint256 */\n      0x00\n        /* \"contracts/ContractL/ContractLV1.sol\":277:278  e */\n      dup2\n        /* \"contracts/ContractL/ContractLV1.sol\":273:274  d */\n      dup4\n        /* \"contracts/ContractL/ContractLV1.sol\":269:270  c */\n      dup6\n        /* \"contracts/ContractL/ContractLV1.sol\":261:266  a + b */\n      tag_11\n        /* \"contracts/ContractL/ContractLV1.sol\":265:266  b */\n      dup9\n        /* \"contracts/ContractL/ContractLV1.sol\":261:262  a */\n      dup11\n        /* \"contracts/ContractL/ContractLV1.sol\":261:266  a + b */\n      tag_12\n      jump\t// in\n    tag_11:\n        /* \"contracts/ContractL/ContractLV1.sol\":261:270  a + b + c */\n      tag_13\n      swap2\n      swap1\n      tag_12\n      jump\t// in\n    tag_13:\n        /* \"contracts/ContractL/ContractLV1.sol\":261:274  a + b + c + d */\n      tag_14\n      swap2\n      swap1\n      tag_12\n      jump\t// in\n    tag_14:\n        /* \"contracts/ContractL/ContractLV1.sol\":261:278  a + b + c + d + e */\n      tag_15\n      swap2\n      swap1\n      tag_12\n      jump\t// in\n    tag_15:\n        /* \"contracts/ContractL/ContractLV1.sol\":254:278  return a + b + c + d + e */\n      swap7\n        /* \"contracts/ContractL/ContractLV1.sol\":91:286  function sum(... */\n      swap6\n      pop\n      pop\n      pop\n      pop\n      pop\n      pop\n      jump\t// out\n        /* \"#utility.yul\":14:468   */\n    tag_6:\n        /* \"#utility.yul\":109:115   */\n      0x00\n        /* \"#utility.yul\":117:123   */\n      dup1\n        /* \"#utility.yul\":125:131   */\n      0x00\n        /* \"#utility.yul\":133:139   */\n      dup1\n        /* \"#utility.yul\":141:147   */\n      0x00\n        /* \"#utility.yul\":194:197   */\n      0xa0\n        /* \"#utility.yul\":182:191   */\n      dup7\n        /* \"#utility.yul\":173:180   */\n      dup9\n        /* \"#utility.yul\":169:192   */\n      sub\n        /* \"#utility.yul\":165:198   */\n      slt\n        /* \"#utility.yul\":162:215   */\n      iszero\n      tag_18\n      jumpi\n        /* \"#utility.yul\":211:212   */\n      0x00\n        /* \"#utility.yul\":208:209   */\n      dup1\n        /* \"#utility.yul\":201:213   */\n      revert\n        /* \"#utility.yul\":162:215   */\n    tag_18:\n      pop\n      pop\n        /* \"#utility.yul\":234:257   */\n      dup4\n      calldataload\n      swap6\n        /* \"#utility.yul\":304:306   */\n      0x20\n        /* \"#utility.yul\":289:307   */\n      dup6\n      add\n        /* \"#utility.yul\":276:308   */\n      calldataload\n      swap6\n      pop\n        /* \"#utility.yul\":355:357   */\n      0x40\n        /* \"#utility.yul\":340:358   */\n      dup6\n      add\n        /* \"#utility.yul\":327:359   */\n      calldataload\n      swap5\n        /* \"#utility.yul\":406:408   */\n      0x60\n        /* \"#utility.yul\":391:409   */\n      dup2\n      add\n        /* \"#utility.yul\":378:410   */\n      calldataload\n      swap5\n      pop\n        /* \"#utility.yul\":457:460   */\n      0x80\n        /* \"#utility.yul\":442:461   */\n      add\n        /* \"#utility.yul\":429:462   */\n      calldataload\n      swap3\n      pop\n        /* \"#utility.yul\":14:468   */\n      swap1\n      pop\n      jump\t// out\n        /* \"#utility.yul\":655:934   */\n    tag_12:\n        /* \"#utility.yul\":720:729   */\n      dup1\n      dup3\n      add\n        /* \"#utility.yul\":741:751   */\n      dup1\n      dup3\n      gt\n        /* \"#utility.yul\":738:928   */\n      iszero\n      tag_21\n      jumpi\n        /* \"#utility.yul\":784:861   */\n      0x4e487b7100000000000000000000000000000000000000000000000000000000\n        /* \"#utility.yul\":781:782   */\n      0x00\n        /* \"#utility.yul\":774:862   */\n      mstore\n        /* \"#utility.yul\":885:889   */\n      0x11\n        /* \"#utility.yul\":882:883   */\n      0x04\n        /* \"#utility.yul\":875:890   */\n      mstore\n        /* \"#utility.yul\":913:917   */\n      0x24\n        /* \"#utility.yul\":910:911   */\n      0x00\n        /* \"#utility.yul\":903:918   */\n      revert\n        /* \"#utility.yul\":738:928   */\n    tag_21:\n        /* \"#utility.yul\":655:934   */\n      swap3\n      swap2\n      pop\n      pop\n      jump\t// out\n\n    auxdata: 0xa264697066735822122019ae09f448c2c79237d807f9560b0eb3665a31615f84f34980645c9ee51ec63864736f6c63430008190033\n}\n",
				"bytecode": {
					"linkReferences": {},
					"object": "6080604052348015600e575f80fd5b506101228061001c5f395ff3fe6080604052348015600e575f80fd5b50600436106026575f3560e01c80639c163fe314602a575b5f80fd5b603960353660046079565b604b565b60405190815260200160405180910390f35b5f8183856057888a60af565b605f919060af565b6067919060af565b606f919060af565b9695505050505050565b5f805f805f60a08688031215608c575f80fd5b505083359560208501359550604085013594606081013594506080013592509050565b8082018082111560e6577f4e487b71000000000000000000000000000000000000000000000000000000005f52601160045260245ffd5b9291505056fea264697066735822122019ae09f448c2c79237d807f9560b0eb3665a31615f84f34980645c9ee51ec63864736f6c63430008190033",
					"opcodes": "PUSH1 0x80 PUSH1 0x40 MSTORE CALLVALUE DUP1 ISZERO PUSH1 0xE JUMPI PUSH0 DUP1 REVERT JUMPDEST POP PUSH2 0x122 DUP1 PUSH2 0x1C PUSH0 CODECOPY PUSH0 RETURN INVALID PUSH1 0x80 PUSH1 0x40 MSTORE CALLVALUE DUP1 ISZERO PUSH1 0xE JUMPI PUSH0 DUP1 REVERT JUMPDEST POP PUSH1 0x4 CALLDATASIZE LT PUSH1 0x26 JUMPI PUSH0 CALLDATALOAD PUSH1 0xE0 SHR DUP1 PUSH4 0x9C163FE3 EQ PUSH1 0x2A JUMPI JUMPDEST PUSH0 DUP1 REVERT JUMPDEST PUSH1 0x39 PUSH1 0x35 CALLDATASIZE PUSH1 0x4 PUSH1 0x79 JUMP JUMPDEST PUSH1 0x4B JUMP JUMPDEST PUSH1 0x40 MLOAD SWAP1 DUP2 MSTORE PUSH1 0x20 ADD PUSH1 0x40 MLOAD DUP1 SWAP2 SUB SWAP1 RETURN JUMPDEST PUSH0 DUP2 DUP4 DUP6 PUSH1 0x57 DUP9 DUP11 PUSH1 0xAF JUMP JUMPDEST PUSH1 0x5F SWAP2 SWAP1 PUSH1 0xAF JUMP JUMPDEST PUSH1 0x67 SWAP2 SWAP1 PUSH1 0xAF JUMP JUMPDEST PUSH1 0x6F SWAP2 SWAP1 PUSH1 0xAF JUMP JUMPDEST SWAP7 SWAP6 POP POP POP POP POP POP JUMP JUMPDEST PUSH0 DUP1 PUSH0 DUP1 PUSH0 PUSH1 0xA0 DUP7 DUP9 SUB SLT ISZERO PUSH1 0x8C JUMPI PUSH0 DUP1 REVERT JUMPDEST POP POP DUP4 CALLDATALOAD SWAP6 PUSH1 0x20 DUP6 ADD CALLDATALOAD SWAP6 POP PUSH1 0x40 DUP6 ADD CALLDATALOAD SWAP5 PUSH1 0x60 DUP2 ADD CALLDATALOAD SWAP5 POP PUSH1 0x80 ADD CALLDATALOAD SWAP3 POP SWAP1 POP JUMP JUMPDEST DUP1 DUP3 ADD DUP1 DUP3 GT ISZERO PUSH1 0xE6 JUMPI PUSH32 0x4E487B7100000000000000000000000000000000000000000000000000000000 PUSH0 MSTORE PUSH1 0x11 PUSH1 0x4 MSTORE PUSH1 0x24 PUSH0 REVERT JUMPDEST SWAP3 SWAP2 POP POP JUMP INVALID LOG2 PUSH5 0x6970667358 0x22 SLT KECCAK256 NOT 0xAE MULMOD DELEGATECALL BASEFEE 0xC2 0xC7 SWAP3 CALLDATACOPY 0xD8 SMOD 0xF9 JUMP SIGNEXTEND 0xE 0xB3 PUSH7 0x5A31615F84F349 DUP1 PUSH5 0x5C9EE51EC6 CODESIZE PUSH5 0x736F6C6343 STOP ADDMOD NOT STOP CALLER "
				},
				"gasEstimates": {
					"creation": {
						"codeDepositCost": "58000",
						"executionCost": "109",
						"totalCost": "58109"
					},
					"external": {
						"sum(uint256,uint256,uint256,uint256,uint256)": "infinite"
					}
				},
				"methodIdentifiers": {
					"sum(uint256,uint256,uint256,uint256,uint256)": "9c163fe3"
				}
			},
			"storageLayout": {
				"storage": [],
				"types": null
			},
			"userdoc": {
				"kind": "user",
				"methods": {},
				"version": 1
			}
		}
	}
}