{
	"contracts/ContractL/ContractLV5.sol": {
		"ContractLV5": {
			"abi": [
				{
					"inputs": [
						{
							"internalType": "uint256[]",
							"name": "ids",
							"type": "uint256[]"
						},
						{
							"internalType": "string[]",
							"name": "names",
							"type": "string[]"
						},
						{
							"internalType": "string[]",
							"name": "descriptions",
							"type": "string[]"
						}
					],
					"name": "addItems",
					"outputs": [],
					"stateMutability": "nonpayable",
					"type": "function"
				},
				{
					"inputs": [
						{
							"internalType": "uint256",
							"name": "id",
							"type": "uint256"
						}
					],
					"name": "getItem",
					"outputs": [
						{
							"components": [
								{
									"internalType": "uint256",
									"name": "id",
									"type": "uint256"
								},
								{
									"internalType": "string",
									"name": "name",
									"type": "string"
								},
								{
									"internalType": "string",
									"name": "description",
									"type": "string"
								}
							],
							"internalType": "struct ContractLV5.Item",
							"name": "",
							"type": "tuple"
						}
					],
					"stateMutability": "view",
					"type": "function"
				},
				{
					"inputs": [
						{
							"internalType": "uint256",
							"name": "",
							"type": "uint256"
						}
					],
					"name": "items",
					"outputs": [
						{
							"internalType": "uint256",
							"name": "id",
							"type": "uint256"
						},
						{
							"internalType": "string",
							"name": "name",
							"type": "string"
						},
						{
							"internalType": "string",
							"name": "description",
							"type": "string"
						}
					],
					"stateMutability": "view",
					"type": "function"
				},
				{
					"inputs": [
						{
							"internalType": "uint256[]",
							"name": "ids",
							"type": "uint256[]"
						},
						{
							"internalType": "string[]",
							"name": "descriptions",
							"type": "string[]"
						}
					],
					"name": "updateDescriptions",
					"outputs": [],
					"stateMutability": "nonpayable",
					"type": "function"
				}
			],
			"devdoc": {
				"kind": "dev",
				"methods": {},
				"version": 1
			},
			"evm": {
				"assembly": "    /* \"contracts/ContractL/ContractLV5.sol\":63:1101  contract ContractLV5 {... */\n  mstore(0x40, 0x80)\n  callvalue\n  dup1\n  iszero\n  tag_1\n  jumpi\n  0x00\n  dup1\n  revert\ntag_1:\n  pop\n  dataSize(sub_0)\n  dup1\n  dataOffset(sub_0)\n  0x00\n  codecopy\n  0x00\n  return\nstop\n\nsub_0: assembly {\n        /* \"contracts/ContractL/ContractLV5.sol\":63:1101  contract ContractLV5 {... */\n      mstore(0x40, 0x80)\n      callvalue\n      dup1\n      iszero\n      tag_1\n      jumpi\n      0x00\n      dup1\n      revert\n    tag_1:\n      pop\n      jumpi(tag_2, lt(calldatasize, 0x04))\n      shr(0xe0, calldataload(0x00))\n      dup1\n      0x1d6b4304\n      eq\n      tag_3\n      jumpi\n      dup1\n      0x3129e773\n      eq\n      tag_4\n      jumpi\n      dup1\n      0xbfb231d2\n      eq\n      tag_5\n      jumpi\n      dup1\n      0xe81f05eb\n      eq\n      tag_6\n      jumpi\n    tag_2:\n      0x00\n      dup1\n      revert\n        /* \"contracts/ContractL/ContractLV5.sol\":731:992  function updateDescriptions(uint256[] calldata ids, string[] calldata descriptions) public {... */\n    tag_3:\n      tag_7\n      tag_8\n      calldatasize\n      0x04\n      tag_9\n      jump\t// in\n    tag_8:\n      tag_10\n      jump\t// in\n    tag_7:\n      stop\n        /* \"contracts/ContractL/ContractLV5.sol\":1000:1098  function getItem(uint256 id) public view returns (Item memory) {... */\n    tag_4:\n      tag_11\n      tag_12\n      calldatasize\n      0x04\n      tag_13\n      jump\t// in\n    tag_12:\n      tag_14\n      jump\t// in\n    tag_11:\n      mload(0x40)\n      tag_15\n      swap2\n      swap1\n      tag_16\n      jump\t// in\n    tag_15:\n      mload(0x40)\n      dup1\n      swap2\n      sub\n      swap1\n      return\n        /* \"contracts/ContractL/ContractLV5.sol\":191:229  mapping (uint256 => Item) public items */\n    tag_5:\n      tag_17\n      tag_18\n      calldatasize\n      0x04\n      tag_13\n      jump\t// in\n    tag_18:\n      tag_19\n      jump\t// in\n    tag_17:\n      mload(0x40)\n      tag_15\n      swap4\n      swap3\n      swap2\n      swap1\n      tag_21\n      jump\t// in\n        /* \"contracts/ContractL/ContractLV5.sol\":385:723  function addItems(uint256[] calldata ids, string[] calldata names, string[] calldata descriptions) public {... */\n    tag_6:\n      tag_7\n      tag_23\n      calldatasize\n      0x04\n      tag_24\n      jump\t// in\n    tag_23:\n      tag_25\n      jump\t// in\n        /* \"contracts/ContractL/ContractLV5.sol\":731:992  function updateDescriptions(uint256[] calldata ids, string[] calldata descriptions) public {... */\n    tag_10:\n        /* \"contracts/ContractL/ContractLV5.sol\":838:847  uint256 i */\n      0x00\n        /* \"contracts/ContractL/ContractLV5.sol\":833:985  for (uint256 i = 0; i < ids.length; i++) {... */\n    tag_27:\n        /* \"contracts/ContractL/ContractLV5.sol\":853:867  i < ids.length */\n      dup4\n      dup2\n      lt\n        /* \"contracts/ContractL/ContractLV5.sol\":833:985  for (uint256 i = 0; i < ids.length; i++) {... */\n      iszero\n      tag_28\n      jumpi\n        /* \"contracts/ContractL/ContractLV5.sol\":889:906  Item storage item */\n      0x00\n        /* \"contracts/ContractL/ContractLV5.sol\":909:914  items */\n      dup1\n        /* \"contracts/ContractL/ContractLV5.sol\":909:922  items[ids[i]] */\n      0x00\n        /* \"contracts/ContractL/ContractLV5.sol\":915:918  ids */\n      dup8\n      dup8\n        /* \"contracts/ContractL/ContractLV5.sol\":919:920  i */\n      dup6\n        /* \"contracts/ContractL/ContractLV5.sol\":915:921  ids[i] */\n      dup2\n      dup2\n      lt\n      tag_31\n      jumpi\n      tag_31\n      tag_32\n      jump\t// in\n    tag_31:\n      swap1\n      pop\n      0x20\n      mul\n      add\n      calldataload\n        /* \"contracts/ContractL/ContractLV5.sol\":909:922  items[ids[i]] */\n      dup2\n      mstore\n      0x20\n      add\n      swap1\n      dup2\n      mstore\n      0x20\n      add\n      0x00\n      keccak256\n        /* \"contracts/ContractL/ContractLV5.sol\":889:922  Item storage item = items[ids[i]] */\n      swap1\n      pop\n        /* \"contracts/ContractL/ContractLV5.sol\":958:970  descriptions */\n      dup4\n      dup4\n        /* \"contracts/ContractL/ContractLV5.sol\":971:972  i */\n      dup4\n        /* \"contracts/ContractL/ContractLV5.sol\":958:973  descriptions[i] */\n      dup2\n      dup2\n      lt\n      tag_34\n      jumpi\n      tag_34\n      tag_32\n      jump\t// in\n    tag_34:\n      swap1\n      pop\n      0x20\n      mul\n      dup2\n      add\n      swap1\n      tag_35\n      swap2\n      swap1\n      tag_36\n      jump\t// in\n    tag_35:\n        /* \"contracts/ContractL/ContractLV5.sol\":939:955  item.description */\n      0x02\n      dup4\n      add\n      swap2\n        /* \"contracts/ContractL/ContractLV5.sol\":939:973  item.description = descriptions[i] */\n      tag_37\n      swap2\n      swap1\n        /* \"contracts/ContractL/ContractLV5.sol\":939:955  item.description */\n      dup4\n        /* \"contracts/ContractL/ContractLV5.sol\":939:973  item.description = descriptions[i] */\n      tag_38\n      jump\t// in\n    tag_37:\n      pop\n      pop\n        /* \"contracts/ContractL/ContractLV5.sol\":869:872  i++ */\n      0x01\n      add\n        /* \"contracts/ContractL/ContractLV5.sol\":833:985  for (uint256 i = 0; i < ids.length; i++) {... */\n      jump(tag_27)\n    tag_28:\n      pop\n        /* \"contracts/ContractL/ContractLV5.sol\":731:992  function updateDescriptions(uint256[] calldata ids, string[] calldata descriptions) public {... */\n      pop\n      pop\n      pop\n      pop\n      jump\t// out\n        /* \"contracts/ContractL/ContractLV5.sol\":1000:1098  function getItem(uint256 id) public view returns (Item memory) {... */\n    tag_14:\n        /* \"contracts/ContractL/ContractLV5.sol\":1050:1061  Item memory */\n      tag_39\n      mload(0x40)\n      dup1\n      0x60\n      add\n      0x40\n      mstore\n      dup1\n      0x00\n      dup2\n      mstore\n      0x20\n      add\n      0x60\n      dup2\n      mstore\n      0x20\n      add\n      0x60\n      dup2\n      mstore\n      pop\n      swap1\n      jump\n    tag_39:\n        /* \"contracts/ContractL/ContractLV5.sol\":1081:1086  items */\n      0x00\n        /* \"contracts/ContractL/ContractLV5.sol\":1081:1090  items[id] */\n      dup3\n      dup2\n      mstore\n      0x20\n      dup2\n      dup2\n      mstore\n      0x40\n      swap2\n      dup3\n      swap1\n      keccak256\n        /* \"contracts/ContractL/ContractLV5.sol\":1074:1090  return items[id] */\n      dup3\n      mload\n      0x60\n      dup2\n      add\n      swap1\n      swap4\n      mstore\n      dup1\n      sload\n      dup4\n      mstore\n      0x01\n      dup2\n      add\n      dup1\n      sload\n        /* \"contracts/ContractL/ContractLV5.sol\":1081:1090  items[id] */\n      swap2\n      swap3\n        /* \"contracts/ContractL/ContractLV5.sol\":1074:1090  return items[id] */\n      dup5\n      add\n      swap2\n      tag_42\n      swap1\n      tag_43\n      jump\t// in\n    tag_42:\n      dup1\n      0x1f\n      add\n      0x20\n      dup1\n      swap2\n      div\n      mul\n      0x20\n      add\n      mload(0x40)\n      swap1\n      dup2\n      add\n      0x40\n      mstore\n      dup1\n      swap3\n      swap2\n      swap1\n      dup2\n      dup2\n      mstore\n      0x20\n      add\n      dup3\n      dup1\n      sload\n      tag_44\n      swap1\n      tag_43\n      jump\t// in\n    tag_44:\n      dup1\n      iszero\n      tag_45\n      jumpi\n      dup1\n      0x1f\n      lt\n      tag_46\n      jumpi\n      0x0100\n      dup1\n      dup4\n      sload\n      div\n      mul\n      dup4\n      mstore\n      swap2\n      0x20\n      add\n      swap2\n      jump(tag_45)\n    tag_46:\n      dup3\n      add\n      swap2\n      swap1\n      0x00\n      mstore\n      keccak256(0x00, 0x20)\n      swap1\n    tag_47:\n      dup2\n      sload\n      dup2\n      mstore\n      swap1\n      0x01\n      add\n      swap1\n      0x20\n      add\n      dup1\n      dup4\n      gt\n      tag_47\n      jumpi\n      dup3\n      swap1\n      sub\n      0x1f\n      and\n      dup3\n      add\n      swap2\n    tag_45:\n      pop\n      pop\n      pop\n      pop\n      pop\n      dup2\n      mstore\n      0x20\n      add\n      0x02\n      dup3\n      add\n      dup1\n      sload\n      tag_48\n      swap1\n      tag_43\n      jump\t// in\n    tag_48:\n      dup1\n      0x1f\n      add\n      0x20\n      dup1\n      swap2\n      div\n      mul\n      0x20\n      add\n      mload(0x40)\n      swap1\n      dup2\n      add\n      0x40\n      mstore\n      dup1\n      swap3\n      swap2\n      swap1\n      dup2\n      dup2\n      mstore\n      0x20\n      add\n      dup3\n      dup1\n      sload\n      tag_49\n      swap1\n      tag_43\n      jump\t// in\n    tag_49:\n      dup1\n      iszero\n      tag_50\n      jumpi\n      dup1\n      0x1f\n      lt\n      tag_51\n      jumpi\n      0x0100\n      dup1\n      dup4\n      sload\n      div\n      mul\n      dup4\n      mstore\n      swap2\n      0x20\n      add\n      swap2\n      jump(tag_50)\n    tag_51:\n      dup3\n      add\n      swap2\n      swap1\n      0x00\n      mstore\n      keccak256(0x00, 0x20)\n      swap1\n    tag_52:\n      dup2\n      sload\n      dup2\n      mstore\n      swap1\n      0x01\n      add\n      swap1\n      0x20\n      add\n      dup1\n      dup4\n      gt\n      tag_52\n      jumpi\n      dup3\n      swap1\n      sub\n      0x1f\n      and\n      dup3\n      add\n      swap2\n    tag_50:\n      pop\n      pop\n      pop\n      pop\n      pop\n      dup2\n      mstore\n      pop\n      pop\n      swap1\n      pop\n        /* \"contracts/ContractL/ContractLV5.sol\":1000:1098  function getItem(uint256 id) public view returns (Item memory) {... */\n      swap2\n      swap1\n      pop\n      jump\t// out\n        /* \"contracts/ContractL/ContractLV5.sol\":191:229  mapping (uint256 => Item) public items */\n    tag_19:\n      0x00\n      0x20\n      dup2\n      swap1\n      mstore\n      swap1\n      dup2\n      mstore\n      0x40\n      swap1\n      keccak256\n      dup1\n      sload\n      0x01\n      dup3\n      add\n      dup1\n      sload\n      swap2\n      swap3\n      swap2\n      tag_53\n      swap1\n      tag_43\n      jump\t// in\n    tag_53:\n      dup1\n      0x1f\n      add\n      0x20\n      dup1\n      swap2\n      div\n      mul\n      0x20\n      add\n      mload(0x40)\n      swap1\n      dup2\n      add\n      0x40\n      mstore\n      dup1\n      swap3\n      swap2\n      swap1\n      dup2\n      dup2\n      mstore\n      0x20\n      add\n      dup3\n      dup1\n      sload\n      tag_54\n      swap1\n      tag_43\n      jump\t// in\n    tag_54:\n      dup1\n      iszero\n      tag_55\n      jumpi\n      dup1\n      0x1f\n      lt\n      tag_56\n      jumpi\n      0x0100\n      dup1\n      dup4\n      sload\n      div\n      mul\n      dup4\n      mstore\n      swap2\n      0x20\n      add\n      swap2\n      jump(tag_55)\n    tag_56:\n      dup3\n      add\n      swap2\n      swap1\n      0x00\n      mstore\n      keccak256(0x00, 0x20)\n      swap1\n    tag_57:\n      dup2\n      sload\n      dup2\n      mstore\n      swap1\n      0x01\n      add\n      swap1\n      0x20\n      add\n      dup1\n      dup4\n      gt\n      tag_57\n      jumpi\n      dup3\n      swap1\n      sub\n      0x1f\n      and\n      dup3\n      add\n      swap2\n    tag_55:\n      pop\n      pop\n      pop\n      pop\n      pop\n      swap1\n      dup1\n      0x02\n      add\n      dup1\n      sload\n      tag_58\n      swap1\n      tag_43\n      jump\t// in\n    tag_58:\n      dup1\n      0x1f\n      add\n      0x20\n      dup1\n      swap2\n      div\n      mul\n      0x20\n      add\n      mload(0x40)\n      swap1\n      dup2\n      add\n      0x40\n      mstore\n      dup1\n      swap3\n      swap2\n      swap1\n      dup2\n      dup2\n      mstore\n      0x20\n      add\n      dup3\n      dup1\n      sload\n      tag_59\n      swap1\n      tag_43\n      jump\t// in\n    tag_59:\n      dup1\n      iszero\n      tag_60\n      jumpi\n      dup1\n      0x1f\n      lt\n      tag_61\n      jumpi\n      0x0100\n      dup1\n      dup4\n      sload\n      div\n      mul\n      dup4\n      mstore\n      swap2\n      0x20\n      add\n      swap2\n      jump(tag_60)\n    tag_61:\n      dup3\n      add\n      swap2\n      swap1\n      0x00\n      mstore\n      keccak256(0x00, 0x20)\n      swap1\n    tag_62:\n      dup2\n      sload\n      dup2\n      mstore\n      swap1\n      0x01\n      add\n      swap1\n      0x20\n      add\n      dup1\n      dup4\n      gt\n      tag_62\n      jumpi\n      dup3\n      swap1\n      sub\n      0x1f\n      and\n      dup3\n      add\n      swap2\n    tag_60:\n      pop\n      pop\n      pop\n      pop\n      pop\n      swap1\n      pop\n      dup4\n      jump\t// out\n        /* \"contracts/ContractL/ContractLV5.sol\":385:723  function addItems(uint256[] calldata ids, string[] calldata names, string[] calldata descriptions) public {... */\n    tag_25:\n        /* \"contracts/ContractL/ContractLV5.sol\":507:516  uint256 i */\n      0x00\n        /* \"contracts/ContractL/ContractLV5.sol\":502:716  for (uint256 i = 0; i < ids.length; i++) {... */\n    tag_64:\n        /* \"contracts/ContractL/ContractLV5.sol\":522:536  i < ids.length */\n      dup6\n      dup2\n      lt\n        /* \"contracts/ContractL/ContractLV5.sol\":502:716  for (uint256 i = 0; i < ids.length; i++) {... */\n      iszero\n      tag_65\n      jumpi\n        /* \"contracts/ContractL/ContractLV5.sol\":574:704  Item({... */\n      mload(0x40)\n      dup1\n      0x60\n      add\n      0x40\n      mstore\n      dup1\n        /* \"contracts/ContractL/ContractLV5.sol\":602:605  ids */\n      dup9\n      dup9\n        /* \"contracts/ContractL/ContractLV5.sol\":606:607  i */\n      dup5\n        /* \"contracts/ContractL/ContractLV5.sol\":602:608  ids[i] */\n      dup2\n      dup2\n      lt\n      tag_68\n      jumpi\n      tag_68\n      tag_32\n      jump\t// in\n    tag_68:\n      swap1\n      pop\n      0x20\n      mul\n      add\n      calldataload\n        /* \"contracts/ContractL/ContractLV5.sol\":574:704  Item({... */\n      dup2\n      mstore\n      0x20\n      add\n        /* \"contracts/ContractL/ContractLV5.sol\":633:638  names */\n      dup7\n      dup7\n        /* \"contracts/ContractL/ContractLV5.sol\":639:640  i */\n      dup5\n        /* \"contracts/ContractL/ContractLV5.sol\":633:641  names[i] */\n      dup2\n      dup2\n      lt\n      tag_70\n      jumpi\n      tag_70\n      tag_32\n      jump\t// in\n    tag_70:\n      swap1\n      pop\n      0x20\n      mul\n      dup2\n      add\n      swap1\n      tag_71\n      swap2\n      swap1\n      tag_36\n      jump\t// in\n    tag_71:\n        /* \"contracts/ContractL/ContractLV5.sol\":574:704  Item({... */\n      dup1\n      dup1\n      0x1f\n      add\n      0x20\n      dup1\n      swap2\n      div\n      mul\n      0x20\n      add\n      mload(0x40)\n      swap1\n      dup2\n      add\n      0x40\n      mstore\n      dup1\n      swap4\n      swap3\n      swap2\n      swap1\n      dup2\n      dup2\n      mstore\n      0x20\n      add\n      dup4\n      dup4\n      dup1\n      dup3\n      dup5\n      calldatacopy\n      0x00\n      swap3\n      add\n      swap2\n      swap1\n      swap2\n      mstore\n      pop\n      pop\n      pop\n      swap1\n      dup3\n      mstore\n      pop\n      0x20\n      add\n        /* \"contracts/ContractL/ContractLV5.sol\":673:685  descriptions */\n      dup5\n      dup5\n        /* \"contracts/ContractL/ContractLV5.sol\":686:687  i */\n      dup5\n        /* \"contracts/ContractL/ContractLV5.sol\":673:688  descriptions[i] */\n      dup2\n      dup2\n      lt\n      tag_73\n      jumpi\n      tag_73\n      tag_32\n      jump\t// in\n    tag_73:\n      swap1\n      pop\n      0x20\n      mul\n      dup2\n      add\n      swap1\n      tag_74\n      swap2\n      swap1\n      tag_36\n      jump\t// in\n    tag_74:\n        /* \"contracts/ContractL/ContractLV5.sol\":574:704  Item({... */\n      dup1\n      dup1\n      0x1f\n      add\n      0x20\n      dup1\n      swap2\n      div\n      mul\n      0x20\n      add\n      mload(0x40)\n      swap1\n      dup2\n      add\n      0x40\n      mstore\n      dup1\n      swap4\n      swap3\n      swap2\n      swap1\n      dup2\n      dup2\n      mstore\n      0x20\n      add\n      dup4\n      dup4\n      dup1\n      dup3\n      dup5\n      calldatacopy\n      0x00\n      swap3\n      add\n      dup3\n      swap1\n      mstore\n      pop\n      swap4\n      swap1\n      swap5\n      mstore\n      pop\n      swap1\n      swap2\n      pop\n      dup2\n      swap1\n      pop\n        /* \"contracts/ContractL/ContractLV5.sol\":564:567  ids */\n      dup10\n      dup10\n        /* \"contracts/ContractL/ContractLV5.sol\":568:569  i */\n      dup6\n        /* \"contracts/ContractL/ContractLV5.sol\":564:570  ids[i] */\n      dup2\n      dup2\n      lt\n      tag_76\n      jumpi\n      tag_76\n      tag_32\n      jump\t// in\n    tag_76:\n      swap1\n      pop\n      0x20\n      mul\n      add\n      calldataload\n        /* \"contracts/ContractL/ContractLV5.sol\":558:571  items[ids[i]] */\n      dup2\n      mstore\n      0x20\n      add\n      swap1\n      dup2\n      mstore\n      0x20\n      add\n      0x00\n      keccak256\n        /* \"contracts/ContractL/ContractLV5.sol\":558:704  items[ids[i]] = Item({... */\n      0x00\n      dup3\n      add\n      mload\n      dup2\n      0x00\n      add\n      sstore\n      0x20\n      dup3\n      add\n      mload\n      dup2\n      0x01\n      add\n      swap1\n      dup2\n      tag_77\n      swap2\n      swap1\n      tag_78\n      jump\t// in\n    tag_77:\n      pop\n      0x40\n      dup3\n      add\n      mload\n      0x02\n      dup3\n      add\n      swap1\n      tag_79\n      swap1\n      dup3\n      tag_78\n      jump\t// in\n    tag_79:\n      pop\n      pop\n      pop\n        /* \"contracts/ContractL/ContractLV5.sol\":538:541  i++ */\n      0x01\n      add\n        /* \"contracts/ContractL/ContractLV5.sol\":502:716  for (uint256 i = 0; i < ids.length; i++) {... */\n      jump(tag_64)\n    tag_65:\n      pop\n        /* \"contracts/ContractL/ContractLV5.sol\":385:723  function addItems(uint256[] calldata ids, string[] calldata names, string[] calldata descriptions) public {... */\n      pop\n      pop\n      pop\n      pop\n      pop\n      pop\n      jump\t// out\n        /* \"#utility.yul\":14:381   */\n    tag_80:\n        /* \"#utility.yul\":77:85   */\n      0x00\n        /* \"#utility.yul\":87:93   */\n      dup1\n        /* \"#utility.yul\":141:144   */\n      dup4\n        /* \"#utility.yul\":134:138   */\n      0x1f\n        /* \"#utility.yul\":126:132   */\n      dup5\n        /* \"#utility.yul\":122:139   */\n      add\n        /* \"#utility.yul\":118:145   */\n      slt\n        /* \"#utility.yul\":108:163   */\n      tag_88\n      jumpi\n        /* \"#utility.yul\":159:160   */\n      0x00\n        /* \"#utility.yul\":156:157   */\n      dup1\n        /* \"#utility.yul\":149:161   */\n      revert\n        /* \"#utility.yul\":108:163   */\n    tag_88:\n      pop\n        /* \"#utility.yul\":182:202   */\n      dup2\n      calldataload\n        /* \"#utility.yul\":225:243   */\n      0xffffffffffffffff\n        /* \"#utility.yul\":214:244   */\n      dup2\n      gt\n        /* \"#utility.yul\":211:261   */\n      iszero\n      tag_89\n      jumpi\n        /* \"#utility.yul\":257:258   */\n      0x00\n        /* \"#utility.yul\":254:255   */\n      dup1\n        /* \"#utility.yul\":247:259   */\n      revert\n        /* \"#utility.yul\":211:261   */\n    tag_89:\n        /* \"#utility.yul\":294:298   */\n      0x20\n        /* \"#utility.yul\":286:292   */\n      dup4\n        /* \"#utility.yul\":282:299   */\n      add\n        /* \"#utility.yul\":270:299   */\n      swap2\n      pop\n        /* \"#utility.yul\":354:357   */\n      dup4\n        /* \"#utility.yul\":347:351   */\n      0x20\n        /* \"#utility.yul\":337:343   */\n      dup3\n        /* \"#utility.yul\":334:335   */\n      0x05\n        /* \"#utility.yul\":330:344   */\n      shl\n        /* \"#utility.yul\":322:328   */\n      dup6\n        /* \"#utility.yul\":318:345   */\n      add\n        /* \"#utility.yul\":314:352   */\n      add\n        /* \"#utility.yul\":311:358   */\n      gt\n        /* \"#utility.yul\":308:375   */\n      iszero\n      tag_90\n      jumpi\n        /* \"#utility.yul\":371:372   */\n      0x00\n        /* \"#utility.yul\":368:369   */\n      dup1\n        /* \"#utility.yul\":361:373   */\n      revert\n        /* \"#utility.yul\":308:375   */\n    tag_90:\n        /* \"#utility.yul\":14:381   */\n      swap3\n      pop\n      swap3\n      swap1\n      pop\n      jump\t// out\n        /* \"#utility.yul\":386:1171   */\n    tag_9:\n        /* \"#utility.yul\":520:526   */\n      0x00\n        /* \"#utility.yul\":528:534   */\n      dup1\n        /* \"#utility.yul\":536:542   */\n      0x00\n        /* \"#utility.yul\":544:550   */\n      dup1\n        /* \"#utility.yul\":597:599   */\n      0x40\n        /* \"#utility.yul\":585:594   */\n      dup6\n        /* \"#utility.yul\":576:583   */\n      dup8\n        /* \"#utility.yul\":572:595   */\n      sub\n        /* \"#utility.yul\":568:600   */\n      slt\n        /* \"#utility.yul\":565:617   */\n      iszero\n      tag_92\n      jumpi\n        /* \"#utility.yul\":613:614   */\n      0x00\n        /* \"#utility.yul\":610:611   */\n      dup1\n        /* \"#utility.yul\":603:615   */\n      revert\n        /* \"#utility.yul\":565:617   */\n    tag_92:\n        /* \"#utility.yul\":653:662   */\n      dup5\n        /* \"#utility.yul\":640:663   */\n      calldataload\n        /* \"#utility.yul\":682:700   */\n      0xffffffffffffffff\n        /* \"#utility.yul\":723:725   */\n      dup1\n        /* \"#utility.yul\":715:721   */\n      dup3\n        /* \"#utility.yul\":712:726   */\n      gt\n        /* \"#utility.yul\":709:743   */\n      iszero\n      tag_93\n      jumpi\n        /* \"#utility.yul\":739:740   */\n      0x00\n        /* \"#utility.yul\":736:737   */\n      dup1\n        /* \"#utility.yul\":729:741   */\n      revert\n        /* \"#utility.yul\":709:743   */\n    tag_93:\n        /* \"#utility.yul\":778:848   */\n      tag_94\n        /* \"#utility.yul\":840:847   */\n      dup9\n        /* \"#utility.yul\":831:837   */\n      dup4\n        /* \"#utility.yul\":820:829   */\n      dup10\n        /* \"#utility.yul\":816:838   */\n      add\n        /* \"#utility.yul\":778:848   */\n      tag_80\n      jump\t// in\n    tag_94:\n        /* \"#utility.yul\":867:875   */\n      swap1\n      swap7\n      pop\n        /* \"#utility.yul\":752:848   */\n      swap5\n      pop\n        /* \"#utility.yul\":955:957   */\n      0x20\n        /* \"#utility.yul\":940:958   */\n      dup8\n      add\n        /* \"#utility.yul\":927:959   */\n      calldataload\n      swap2\n      pop\n        /* \"#utility.yul\":971:987   */\n      dup1\n      dup3\n      gt\n        /* \"#utility.yul\":968:1004   */\n      iszero\n      tag_95\n      jumpi\n        /* \"#utility.yul\":1000:1001   */\n      0x00\n        /* \"#utility.yul\":997:998   */\n      dup1\n        /* \"#utility.yul\":990:1002   */\n      revert\n        /* \"#utility.yul\":968:1004   */\n    tag_95:\n      pop\n        /* \"#utility.yul\":1039:1111   */\n      tag_96\n        /* \"#utility.yul\":1103:1110   */\n      dup8\n        /* \"#utility.yul\":1092:1100   */\n      dup3\n        /* \"#utility.yul\":1081:1090   */\n      dup9\n        /* \"#utility.yul\":1077:1101   */\n      add\n        /* \"#utility.yul\":1039:1111   */\n      tag_80\n      jump\t// in\n    tag_96:\n        /* \"#utility.yul\":386:1171   */\n      swap6\n      swap9\n      swap5\n      swap8\n      pop\n        /* \"#utility.yul\":1130:1138   */\n      swap6\n      pop\n      pop\n      pop\n      pop\n        /* \"#utility.yul\":386:1171   */\n      jump\t// out\n        /* \"#utility.yul\":1176:1356   */\n    tag_13:\n        /* \"#utility.yul\":1235:1241   */\n      0x00\n        /* \"#utility.yul\":1288:1290   */\n      0x20\n        /* \"#utility.yul\":1276:1285   */\n      dup3\n        /* \"#utility.yul\":1267:1274   */\n      dup5\n        /* \"#utility.yul\":1263:1286   */\n      sub\n        /* \"#utility.yul\":1259:1291   */\n      slt\n        /* \"#utility.yul\":1256:1308   */\n      iszero\n      tag_98\n      jumpi\n        /* \"#utility.yul\":1304:1305   */\n      0x00\n        /* \"#utility.yul\":1301:1302   */\n      dup1\n        /* \"#utility.yul\":1294:1306   */\n      revert\n        /* \"#utility.yul\":1256:1308   */\n    tag_98:\n      pop\n        /* \"#utility.yul\":1327:1350   */\n      calldataload\n      swap2\n        /* \"#utility.yul\":1176:1356   */\n      swap1\n      pop\n      jump\t// out\n        /* \"#utility.yul\":1361:1650   */\n    tag_81:\n        /* \"#utility.yul\":1403:1406   */\n      0x00\n        /* \"#utility.yul\":1441:1446   */\n      dup2\n        /* \"#utility.yul\":1435:1447   */\n      mload\n        /* \"#utility.yul\":1468:1474   */\n      dup1\n        /* \"#utility.yul\":1463:1466   */\n      dup5\n        /* \"#utility.yul\":1456:1475   */\n      mstore\n        /* \"#utility.yul\":1524:1530   */\n      dup1\n        /* \"#utility.yul\":1517:1521   */\n      0x20\n        /* \"#utility.yul\":1510:1515   */\n      dup5\n        /* \"#utility.yul\":1506:1522   */\n      add\n        /* \"#utility.yul\":1499:1503   */\n      0x20\n        /* \"#utility.yul\":1494:1497   */\n      dup7\n        /* \"#utility.yul\":1490:1504   */\n      add\n        /* \"#utility.yul\":1484:1531   */\n      mcopy\n        /* \"#utility.yul\":1576:1577   */\n      0x00\n        /* \"#utility.yul\":1569:1573   */\n      0x20\n        /* \"#utility.yul\":1560:1566   */\n      dup3\n        /* \"#utility.yul\":1555:1558   */\n      dup7\n        /* \"#utility.yul\":1551:1567   */\n      add\n        /* \"#utility.yul\":1547:1574   */\n      add\n        /* \"#utility.yul\":1540:1578   */\n      mstore\n        /* \"#utility.yul\":1639:1643   */\n      0x20\n        /* \"#utility.yul\":1632:1634   */\n      0x1f\n        /* \"#utility.yul\":1628:1635   */\n      not\n        /* \"#utility.yul\":1623:1625   */\n      0x1f\n        /* \"#utility.yul\":1615:1621   */\n      dup4\n        /* \"#utility.yul\":1611:1626   */\n      add\n        /* \"#utility.yul\":1607:1636   */\n      and\n        /* \"#utility.yul\":1602:1605   */\n      dup6\n        /* \"#utility.yul\":1598:1637   */\n      add\n        /* \"#utility.yul\":1594:1644   */\n      add\n        /* \"#utility.yul\":1587:1644   */\n      swap2\n      pop\n      pop\n        /* \"#utility.yul\":1361:1650   */\n      swap3\n      swap2\n      pop\n      pop\n      jump\t// out\n        /* \"#utility.yul\":1655:2234   */\n    tag_16:\n        /* \"#utility.yul\":1822:1824   */\n      0x20\n        /* \"#utility.yul\":1811:1820   */\n      dup2\n        /* \"#utility.yul\":1804:1825   */\n      mstore\n        /* \"#utility.yul\":1867:1873   */\n      dup2\n        /* \"#utility.yul\":1861:1874   */\n      mload\n        /* \"#utility.yul\":1856:1858   */\n      0x20\n        /* \"#utility.yul\":1845:1854   */\n      dup3\n        /* \"#utility.yul\":1841:1859   */\n      add\n        /* \"#utility.yul\":1834:1875   */\n      mstore\n        /* \"#utility.yul\":1785:1789   */\n      0x00\n        /* \"#utility.yul\":1922:1924   */\n      0x20\n        /* \"#utility.yul\":1914:1920   */\n      dup4\n        /* \"#utility.yul\":1910:1925   */\n      add\n        /* \"#utility.yul\":1904:1926   */\n      mload\n        /* \"#utility.yul\":1962:1966   */\n      0x60\n        /* \"#utility.yul\":1957:1959   */\n      0x40\n        /* \"#utility.yul\":1946:1955   */\n      dup5\n        /* \"#utility.yul\":1942:1960   */\n      add\n        /* \"#utility.yul\":1935:1967   */\n      mstore\n        /* \"#utility.yul\":1990:2042   */\n      tag_101\n        /* \"#utility.yul\":2037:2040   */\n      0x80\n        /* \"#utility.yul\":2026:2035   */\n      dup5\n        /* \"#utility.yul\":2022:2041   */\n      add\n        /* \"#utility.yul\":2008:2020   */\n      dup3\n        /* \"#utility.yul\":1990:2042   */\n      tag_81\n      jump\t// in\n    tag_101:\n        /* \"#utility.yul\":1976:2042   */\n      swap1\n      pop\n        /* \"#utility.yul\":2091:2093   */\n      0x40\n        /* \"#utility.yul\":2083:2089   */\n      dup5\n        /* \"#utility.yul\":2079:2094   */\n      add\n        /* \"#utility.yul\":2073:2095   */\n      mload\n        /* \"#utility.yul\":2165:2167   */\n      0x1f\n        /* \"#utility.yul\":2161:2168   */\n      not\n        /* \"#utility.yul\":2149:2158   */\n      dup5\n        /* \"#utility.yul\":2141:2147   */\n      dup4\n        /* \"#utility.yul\":2137:2159   */\n      sub\n        /* \"#utility.yul\":2133:2169   */\n      add\n        /* \"#utility.yul\":2126:2130   */\n      0x60\n        /* \"#utility.yul\":2115:2124   */\n      dup6\n        /* \"#utility.yul\":2111:2131   */\n      add\n        /* \"#utility.yul\":2104:2170   */\n      mstore\n        /* \"#utility.yul\":2187:2228   */\n      tag_102\n        /* \"#utility.yul\":2221:2227   */\n      dup3\n        /* \"#utility.yul\":2205:2219   */\n      dup3\n        /* \"#utility.yul\":2187:2228   */\n      tag_81\n      jump\t// in\n    tag_102:\n        /* \"#utility.yul\":2179:2228   */\n      swap6\n        /* \"#utility.yul\":1655:2234   */\n      swap5\n      pop\n      pop\n      pop\n      pop\n      pop\n      jump\t// out\n        /* \"#utility.yul\":2239:2693   */\n    tag_21:\n        /* \"#utility.yul\":2464:2470   */\n      dup4\n        /* \"#utility.yul\":2453:2462   */\n      dup2\n        /* \"#utility.yul\":2446:2471   */\n      mstore\n        /* \"#utility.yul\":2507:2509   */\n      0x60\n        /* \"#utility.yul\":2502:2504   */\n      0x20\n        /* \"#utility.yul\":2491:2500   */\n      dup3\n        /* \"#utility.yul\":2487:2505   */\n      add\n        /* \"#utility.yul\":2480:2510   */\n      mstore\n        /* \"#utility.yul\":2427:2431   */\n      0x00\n        /* \"#utility.yul\":2533:2578   */\n      tag_104\n        /* \"#utility.yul\":2574:2576   */\n      0x60\n        /* \"#utility.yul\":2563:2572   */\n      dup4\n        /* \"#utility.yul\":2559:2577   */\n      add\n        /* \"#utility.yul\":2551:2557   */\n      dup6\n        /* \"#utility.yul\":2533:2578   */\n      tag_81\n      jump\t// in\n    tag_104:\n        /* \"#utility.yul\":2626:2635   */\n      dup3\n        /* \"#utility.yul\":2618:2624   */\n      dup2\n        /* \"#utility.yul\":2614:2636   */\n      sub\n        /* \"#utility.yul\":2609:2611   */\n      0x40\n        /* \"#utility.yul\":2598:2607   */\n      dup5\n        /* \"#utility.yul\":2594:2612   */\n      add\n        /* \"#utility.yul\":2587:2637   */\n      mstore\n        /* \"#utility.yul\":2654:2687   */\n      tag_105\n        /* \"#utility.yul\":2680:2686   */\n      dup2\n        /* \"#utility.yul\":2672:2678   */\n      dup6\n        /* \"#utility.yul\":2654:2687   */\n      tag_81\n      jump\t// in\n    tag_105:\n        /* \"#utility.yul\":2646:2687   */\n      swap7\n        /* \"#utility.yul\":2239:2693   */\n      swap6\n      pop\n      pop\n      pop\n      pop\n      pop\n      pop\n      jump\t// out\n        /* \"#utility.yul\":2698:3810   */\n    tag_24:\n        /* \"#utility.yul\":2880:2886   */\n      0x00\n        /* \"#utility.yul\":2888:2894   */\n      dup1\n        /* \"#utility.yul\":2896:2902   */\n      0x00\n        /* \"#utility.yul\":2904:2910   */\n      dup1\n        /* \"#utility.yul\":2912:2918   */\n      0x00\n        /* \"#utility.yul\":2920:2926   */\n      dup1\n        /* \"#utility.yul\":2973:2975   */\n      0x60\n        /* \"#utility.yul\":2961:2970   */\n      dup8\n        /* \"#utility.yul\":2952:2959   */\n      dup10\n        /* \"#utility.yul\":2948:2971   */\n      sub\n        /* \"#utility.yul\":2944:2976   */\n      slt\n        /* \"#utility.yul\":2941:2993   */\n      iszero\n      tag_107\n      jumpi\n        /* \"#utility.yul\":2989:2990   */\n      0x00\n        /* \"#utility.yul\":2986:2987   */\n      dup1\n        /* \"#utility.yul\":2979:2991   */\n      revert\n        /* \"#utility.yul\":2941:2993   */\n    tag_107:\n        /* \"#utility.yul\":3029:3038   */\n      dup7\n        /* \"#utility.yul\":3016:3039   */\n      calldataload\n        /* \"#utility.yul\":3058:3076   */\n      0xffffffffffffffff\n        /* \"#utility.yul\":3099:3101   */\n      dup1\n        /* \"#utility.yul\":3091:3097   */\n      dup3\n        /* \"#utility.yul\":3088:3102   */\n      gt\n        /* \"#utility.yul\":3085:3119   */\n      iszero\n      tag_108\n      jumpi\n        /* \"#utility.yul\":3115:3116   */\n      0x00\n        /* \"#utility.yul\":3112:3113   */\n      dup1\n        /* \"#utility.yul\":3105:3117   */\n      revert\n        /* \"#utility.yul\":3085:3119   */\n    tag_108:\n        /* \"#utility.yul\":3154:3224   */\n      tag_109\n        /* \"#utility.yul\":3216:3223   */\n      dup11\n        /* \"#utility.yul\":3207:3213   */\n      dup4\n        /* \"#utility.yul\":3196:3205   */\n      dup12\n        /* \"#utility.yul\":3192:3214   */\n      add\n        /* \"#utility.yul\":3154:3224   */\n      tag_80\n      jump\t// in\n    tag_109:\n        /* \"#utility.yul\":3243:3251   */\n      swap1\n      swap9\n      pop\n        /* \"#utility.yul\":3128:3224   */\n      swap7\n      pop\n        /* \"#utility.yul\":3331:3333   */\n      0x20\n        /* \"#utility.yul\":3316:3334   */\n      dup10\n      add\n        /* \"#utility.yul\":3303:3335   */\n      calldataload\n      swap2\n      pop\n        /* \"#utility.yul\":3347:3363   */\n      dup1\n      dup3\n      gt\n        /* \"#utility.yul\":3344:3380   */\n      iszero\n      tag_110\n      jumpi\n        /* \"#utility.yul\":3376:3377   */\n      0x00\n        /* \"#utility.yul\":3373:3374   */\n      dup1\n        /* \"#utility.yul\":3366:3378   */\n      revert\n        /* \"#utility.yul\":3344:3380   */\n    tag_110:\n        /* \"#utility.yul\":3415:3487   */\n      tag_111\n        /* \"#utility.yul\":3479:3486   */\n      dup11\n        /* \"#utility.yul\":3468:3476   */\n      dup4\n        /* \"#utility.yul\":3457:3466   */\n      dup12\n        /* \"#utility.yul\":3453:3477   */\n      add\n        /* \"#utility.yul\":3415:3487   */\n      tag_80\n      jump\t// in\n    tag_111:\n        /* \"#utility.yul\":3506:3514   */\n      swap1\n      swap7\n      pop\n        /* \"#utility.yul\":3389:3487   */\n      swap5\n      pop\n        /* \"#utility.yul\":3594:3596   */\n      0x40\n        /* \"#utility.yul\":3579:3597   */\n      dup10\n      add\n        /* \"#utility.yul\":3566:3598   */\n      calldataload\n      swap2\n      pop\n        /* \"#utility.yul\":3610:3626   */\n      dup1\n      dup3\n      gt\n        /* \"#utility.yul\":3607:3643   */\n      iszero\n      tag_112\n      jumpi\n        /* \"#utility.yul\":3639:3640   */\n      0x00\n        /* \"#utility.yul\":3636:3637   */\n      dup1\n        /* \"#utility.yul\":3629:3641   */\n      revert\n        /* \"#utility.yul\":3607:3643   */\n    tag_112:\n      pop\n        /* \"#utility.yul\":3678:3750   */\n      tag_113\n        /* \"#utility.yul\":3742:3749   */\n      dup10\n        /* \"#utility.yul\":3731:3739   */\n      dup3\n        /* \"#utility.yul\":3720:3729   */\n      dup11\n        /* \"#utility.yul\":3716:3740   */\n      add\n        /* \"#utility.yul\":3678:3750   */\n      tag_80\n      jump\t// in\n    tag_113:\n        /* \"#utility.yul\":2698:3810   */\n      swap8\n      swap11\n      swap7\n      swap10\n      pop\n      swap5\n      swap8\n      pop\n      swap3\n      swap6\n        /* \"#utility.yul\":3769:3777   */\n      swap4\n      swap5\n        /* \"#utility.yul\":2698:3810   */\n      swap3\n      pop\n      pop\n      pop\n      jump\t// out\n        /* \"#utility.yul\":3815:3999   */\n    tag_32:\n      shl(0xe0, 0x4e487b71)\n        /* \"#utility.yul\":3864:3865   */\n      0x00\n        /* \"#utility.yul\":3857:3945   */\n      mstore\n        /* \"#utility.yul\":3964:3968   */\n      0x32\n        /* \"#utility.yul\":3961:3962   */\n      0x04\n        /* \"#utility.yul\":3954:3969   */\n      mstore\n        /* \"#utility.yul\":3988:3992   */\n      0x24\n        /* \"#utility.yul\":3985:3986   */\n      0x00\n        /* \"#utility.yul\":3978:3993   */\n      revert\n        /* \"#utility.yul\":4004:4526   */\n    tag_36:\n        /* \"#utility.yul\":4082:4086   */\n      0x00\n        /* \"#utility.yul\":4088:4094   */\n      dup1\n        /* \"#utility.yul\":4148:4159   */\n      dup4\n        /* \"#utility.yul\":4135:4160   */\n      calldataload\n        /* \"#utility.yul\":4242:4244   */\n      0x1e\n        /* \"#utility.yul\":4238:4245   */\n      not\n        /* \"#utility.yul\":4227:4235   */\n      dup5\n        /* \"#utility.yul\":4211:4225   */\n      calldatasize\n        /* \"#utility.yul\":4207:4236   */\n      sub\n        /* \"#utility.yul\":4203:4246   */\n      add\n        /* \"#utility.yul\":4183:4201   */\n      dup2\n        /* \"#utility.yul\":4179:4247   */\n      slt\n        /* \"#utility.yul\":4169:4265   */\n      tag_116\n      jumpi\n        /* \"#utility.yul\":4261:4262   */\n      0x00\n        /* \"#utility.yul\":4258:4259   */\n      dup1\n        /* \"#utility.yul\":4251:4263   */\n      revert\n        /* \"#utility.yul\":4169:4265   */\n    tag_116:\n        /* \"#utility.yul\":4288:4321   */\n      dup4\n      add\n        /* \"#utility.yul\":4340:4360   */\n      dup1\n      calldataload\n      swap2\n      pop\n        /* \"#utility.yul\":4383:4401   */\n      0xffffffffffffffff\n        /* \"#utility.yul\":4372:4402   */\n      dup3\n      gt\n        /* \"#utility.yul\":4369:4419   */\n      iszero\n      tag_117\n      jumpi\n        /* \"#utility.yul\":4415:4416   */\n      0x00\n        /* \"#utility.yul\":4412:4413   */\n      dup1\n        /* \"#utility.yul\":4405:4417   */\n      revert\n        /* \"#utility.yul\":4369:4419   */\n    tag_117:\n        /* \"#utility.yul\":4448:4452   */\n      0x20\n        /* \"#utility.yul\":4436:4453   */\n      add\n      swap2\n      pop\n        /* \"#utility.yul\":4479:4493   */\n      calldatasize\n        /* \"#utility.yul\":4475:4502   */\n      dup2\n      swap1\n      sub\n        /* \"#utility.yul\":4465:4503   */\n      dup3\n      sgt\n        /* \"#utility.yul\":4462:4520   */\n      iszero\n      tag_90\n      jumpi\n        /* \"#utility.yul\":4516:4517   */\n      0x00\n        /* \"#utility.yul\":4513:4514   */\n      dup1\n        /* \"#utility.yul\":4506:4518   */\n      revert\n        /* \"#utility.yul\":4531:4715   */\n    tag_82:\n      shl(0xe0, 0x4e487b71)\n        /* \"#utility.yul\":4580:4581   */\n      0x00\n        /* \"#utility.yul\":4573:4661   */\n      mstore\n        /* \"#utility.yul\":4680:4684   */\n      0x41\n        /* \"#utility.yul\":4677:4678   */\n      0x04\n        /* \"#utility.yul\":4670:4685   */\n      mstore\n        /* \"#utility.yul\":4704:4708   */\n      0x24\n        /* \"#utility.yul\":4701:4702   */\n      0x00\n        /* \"#utility.yul\":4694:4709   */\n      revert\n        /* \"#utility.yul\":4720:5157   */\n    tag_43:\n        /* \"#utility.yul\":4799:4800   */\n      0x01\n        /* \"#utility.yul\":4795:4807   */\n      dup2\n      dup2\n      shr\n      swap1\n        /* \"#utility.yul\":4842:4854   */\n      dup3\n      and\n      dup1\n        /* \"#utility.yul\":4863:4924   */\n      tag_121\n      jumpi\n        /* \"#utility.yul\":4917:4921   */\n      0x7f\n        /* \"#utility.yul\":4909:4915   */\n      dup3\n        /* \"#utility.yul\":4905:4922   */\n      and\n        /* \"#utility.yul\":4895:4922   */\n      swap2\n      pop\n        /* \"#utility.yul\":4863:4924   */\n    tag_121:\n        /* \"#utility.yul\":4970:4972   */\n      0x20\n        /* \"#utility.yul\":4962:4968   */\n      dup3\n        /* \"#utility.yul\":4959:4973   */\n      lt\n        /* \"#utility.yul\":4939:4957   */\n      dup2\n        /* \"#utility.yul\":4936:4974   */\n      sub\n        /* \"#utility.yul\":4933:5151   */\n      tag_122\n      jumpi\n      shl(0xe0, 0x4e487b71)\n        /* \"#utility.yul\":5004:5005   */\n      0x00\n        /* \"#utility.yul\":4997:5085   */\n      mstore\n        /* \"#utility.yul\":5108:5112   */\n      0x22\n        /* \"#utility.yul\":5105:5106   */\n      0x04\n        /* \"#utility.yul\":5098:5113   */\n      mstore\n        /* \"#utility.yul\":5136:5140   */\n      0x24\n        /* \"#utility.yul\":5133:5134   */\n      0x00\n        /* \"#utility.yul\":5126:5141   */\n      revert\n        /* \"#utility.yul\":4933:5151   */\n    tag_122:\n      pop\n        /* \"#utility.yul\":4720:5157   */\n      swap2\n      swap1\n      pop\n      jump\t// out\n        /* \"#utility.yul\":5288:5806   */\n    tag_84:\n        /* \"#utility.yul\":5390:5392   */\n      0x1f\n        /* \"#utility.yul\":5385:5388   */\n      dup3\n        /* \"#utility.yul\":5382:5393   */\n      gt\n        /* \"#utility.yul\":5379:5800   */\n      iszero\n      tag_125\n      jumpi\n        /* \"#utility.yul\":5426:5431   */\n      dup1\n        /* \"#utility.yul\":5423:5424   */\n      0x00\n        /* \"#utility.yul\":5416:5432   */\n      mstore\n        /* \"#utility.yul\":5470:5474   */\n      0x20\n        /* \"#utility.yul\":5467:5468   */\n      0x00\n        /* \"#utility.yul\":5457:5475   */\n      keccak256\n        /* \"#utility.yul\":5540:5542   */\n      0x1f\n        /* \"#utility.yul\":5528:5538   */\n      dup5\n        /* \"#utility.yul\":5524:5543   */\n      add\n        /* \"#utility.yul\":5521:5522   */\n      0x05\n        /* \"#utility.yul\":5517:5544   */\n      shr\n        /* \"#utility.yul\":5511:5515   */\n      dup2\n        /* \"#utility.yul\":5507:5545   */\n      add\n        /* \"#utility.yul\":5576:5580   */\n      0x20\n        /* \"#utility.yul\":5564:5574   */\n      dup6\n        /* \"#utility.yul\":5561:5581   */\n      lt\n        /* \"#utility.yul\":5558:5605   */\n      iszero\n      tag_126\n      jumpi\n      pop\n        /* \"#utility.yul\":5599:5603   */\n      dup1\n        /* \"#utility.yul\":5558:5605   */\n    tag_126:\n        /* \"#utility.yul\":5654:5656   */\n      0x1f\n        /* \"#utility.yul\":5649:5652   */\n      dup5\n        /* \"#utility.yul\":5645:5657   */\n      add\n        /* \"#utility.yul\":5642:5643   */\n      0x05\n        /* \"#utility.yul\":5638:5658   */\n      shr\n        /* \"#utility.yul\":5632:5636   */\n      dup3\n        /* \"#utility.yul\":5628:5659   */\n      add\n        /* \"#utility.yul\":5618:5659   */\n      swap2\n      pop\n        /* \"#utility.yul\":5709:5790   */\n    tag_127:\n        /* \"#utility.yul\":5727:5729   */\n      dup2\n        /* \"#utility.yul\":5720:5725   */\n      dup2\n        /* \"#utility.yul\":5717:5730   */\n      lt\n        /* \"#utility.yul\":5709:5790   */\n      iszero\n      tag_28\n      jumpi\n        /* \"#utility.yul\":5786:5787   */\n      0x00\n        /* \"#utility.yul\":5772:5788   */\n      dup2\n      sstore\n        /* \"#utility.yul\":5753:5754   */\n      0x01\n        /* \"#utility.yul\":5742:5755   */\n      add\n        /* \"#utility.yul\":5709:5790   */\n      jump(tag_127)\n        /* \"#utility.yul\":5379:5800   */\n    tag_125:\n        /* \"#utility.yul\":5288:5806   */\n      pop\n      pop\n      pop\n      jump\t// out\n        /* \"#utility.yul\":5982:7180   */\n    tag_38:\n        /* \"#utility.yul\":6106:6124   */\n      0xffffffffffffffff\n        /* \"#utility.yul\":6101:6104   */\n      dup4\n        /* \"#utility.yul\":6098:6125   */\n      gt\n        /* \"#utility.yul\":6095:6148   */\n      iszero\n      tag_133\n      jumpi\n        /* \"#utility.yul\":6128:6146   */\n      tag_133\n      tag_82\n      jump\t// in\n    tag_133:\n        /* \"#utility.yul\":6157:6251   */\n      tag_134\n        /* \"#utility.yul\":6247:6250   */\n      dup4\n        /* \"#utility.yul\":6207:6245   */\n      tag_135\n        /* \"#utility.yul\":6239:6243   */\n      dup4\n        /* \"#utility.yul\":6233:6244   */\n      sload\n        /* \"#utility.yul\":6207:6245   */\n      tag_43\n      jump\t// in\n    tag_135:\n        /* \"#utility.yul\":6201:6205   */\n      dup4\n        /* \"#utility.yul\":6157:6251   */\n      tag_84\n      jump\t// in\n    tag_134:\n        /* \"#utility.yul\":6277:6278   */\n      0x00\n        /* \"#utility.yul\":6302:6304   */\n      0x1f\n        /* \"#utility.yul\":6297:6300   */\n      dup5\n        /* \"#utility.yul\":6294:6305   */\n      gt\n        /* \"#utility.yul\":6319:6320   */\n      0x01\n        /* \"#utility.yul\":6314:6922   */\n      dup2\n      eq\n      tag_137\n      jumpi\n        /* \"#utility.yul\":6966:6967   */\n      0x00\n        /* \"#utility.yul\":6983:6986   */\n      dup6\n        /* \"#utility.yul\":6980:7073   */\n      iszero\n      tag_138\n      jumpi\n      pop\n        /* \"#utility.yul\":7039:7058   */\n      dup4\n      dup3\n      add\n        /* \"#utility.yul\":7026:7059   */\n      calldataload\n        /* \"#utility.yul\":6980:7073   */\n    tag_138:\n      not(0x00)\n        /* \"#utility.yul\":5939:5940   */\n      0x03\n        /* \"#utility.yul\":5935:5946   */\n      dup8\n      swap1\n      shl\n        /* \"#utility.yul\":5931:5955   */\n      shr\n        /* \"#utility.yul\":5927:5956   */\n      not\n        /* \"#utility.yul\":5917:5957   */\n      and\n        /* \"#utility.yul\":5963:5964   */\n      0x01\n        /* \"#utility.yul\":5959:5970   */\n      dup7\n      swap1\n      shl\n        /* \"#utility.yul\":5914:5971   */\n      or\n        /* \"#utility.yul\":7086:7164   */\n      dup4\n      sstore\n        /* \"#utility.yul\":6287:7174   */\n      jump(tag_28)\n        /* \"#utility.yul\":6314:6922   */\n    tag_137:\n        /* \"#utility.yul\":5235:5236   */\n      0x00\n        /* \"#utility.yul\":5228:5242   */\n      dup4\n      dup2\n      mstore\n        /* \"#utility.yul\":5272:5276   */\n      0x20\n        /* \"#utility.yul\":5259:5277   */\n      dup2\n      keccak256\n      not(0x1f)\n        /* \"#utility.yul\":6350:6367   */\n      dup8\n      and\n      swap2\n        /* \"#utility.yul\":6465:6694   */\n    tag_141:\n        /* \"#utility.yul\":6479:6486   */\n      dup3\n        /* \"#utility.yul\":6476:6477   */\n      dup2\n        /* \"#utility.yul\":6473:6487   */\n      lt\n        /* \"#utility.yul\":6465:6694   */\n      iszero\n      tag_143\n      jumpi\n        /* \"#utility.yul\":6568:6587   */\n      dup7\n      dup6\n      add\n        /* \"#utility.yul\":6555:6588   */\n      calldataload\n        /* \"#utility.yul\":6540:6589   */\n      dup3\n      sstore\n        /* \"#utility.yul\":6675:6679   */\n      0x20\n        /* \"#utility.yul\":6660:6680   */\n      swap5\n      dup6\n      add\n      swap5\n        /* \"#utility.yul\":6628:6629   */\n      0x01\n        /* \"#utility.yul\":6616:6630   */\n      swap1\n      swap3\n      add\n      swap2\n        /* \"#utility.yul\":6495:6507   */\n      add\n        /* \"#utility.yul\":6465:6694   */\n      jump(tag_141)\n    tag_143:\n        /* \"#utility.yul\":6469:6472   */\n      pop\n        /* \"#utility.yul\":6722:6725   */\n      dup7\n        /* \"#utility.yul\":6713:6720   */\n      dup3\n        /* \"#utility.yul\":6710:6726   */\n      lt\n        /* \"#utility.yul\":6707:6866   */\n      iszero\n      tag_144\n      jumpi\n        /* \"#utility.yul\":6846:6847   */\n      0x00\n        /* \"#utility.yul\":6842:6848   */\n      not\n        /* \"#utility.yul\":6836:6839   */\n      0xf8\n        /* \"#utility.yul\":6830:6833   */\n      dup9\n        /* \"#utility.yul\":6827:6828   */\n      0x03\n        /* \"#utility.yul\":6823:6834   */\n      shl\n        /* \"#utility.yul\":6819:6840   */\n      and\n        /* \"#utility.yul\":6815:6849   */\n      shr\n        /* \"#utility.yul\":6811:6850   */\n      not\n        /* \"#utility.yul\":6798:6807   */\n      dup5\n        /* \"#utility.yul\":6793:6796   */\n      dup8\n        /* \"#utility.yul\":6789:6808   */\n      add\n        /* \"#utility.yul\":6776:6809   */\n      calldataload\n        /* \"#utility.yul\":6772:6851   */\n      and\n        /* \"#utility.yul\":6764:6770   */\n      dup2\n        /* \"#utility.yul\":6757:6852   */\n      sstore\n        /* \"#utility.yul\":6707:6866   */\n    tag_144:\n      pop\n      pop\n        /* \"#utility.yul\":6909:6910   */\n      0x01\n        /* \"#utility.yul\":6903:6906   */\n      dup6\n        /* \"#utility.yul\":6900:6901   */\n      0x01\n        /* \"#utility.yul\":6896:6907   */\n      shl\n        /* \"#utility.yul\":6892:6911   */\n      add\n        /* \"#utility.yul\":6886:6890   */\n      dup4\n        /* \"#utility.yul\":6879:6912   */\n      sstore\n        /* \"#utility.yul\":6287:7174   */\n      pop\n      pop\n        /* \"#utility.yul\":5982:7180   */\n      pop\n      pop\n      pop\n      jump\t// out\n        /* \"#utility.yul\":7185:8530   */\n    tag_78:\n        /* \"#utility.yul\":7311:7314   */\n      dup2\n        /* \"#utility.yul\":7305:7315   */\n      mload\n        /* \"#utility.yul\":7338:7356   */\n      0xffffffffffffffff\n        /* \"#utility.yul\":7330:7336   */\n      dup2\n        /* \"#utility.yul\":7327:7357   */\n      gt\n        /* \"#utility.yul\":7324:7380   */\n      iszero\n      tag_147\n      jumpi\n        /* \"#utility.yul\":7360:7378   */\n      tag_147\n      tag_82\n      jump\t// in\n    tag_147:\n        /* \"#utility.yul\":7389:7486   */\n      tag_148\n        /* \"#utility.yul\":7479:7485   */\n      dup2\n        /* \"#utility.yul\":7439:7477   */\n      tag_149\n        /* \"#utility.yul\":7471:7475   */\n      dup5\n        /* \"#utility.yul\":7465:7476   */\n      sload\n        /* \"#utility.yul\":7439:7477   */\n      tag_43\n      jump\t// in\n    tag_149:\n        /* \"#utility.yul\":7433:7437   */\n      dup5\n        /* \"#utility.yul\":7389:7486   */\n      tag_84\n      jump\t// in\n    tag_148:\n        /* \"#utility.yul\":7541:7545   */\n      0x20\n      dup1\n        /* \"#utility.yul\":7598:7600   */\n      0x1f\n        /* \"#utility.yul\":7587:7601   */\n      dup4\n      gt\n        /* \"#utility.yul\":7615:7616   */\n      0x01\n        /* \"#utility.yul\":7610:8273   */\n      dup2\n      eq\n      tag_151\n      jumpi\n        /* \"#utility.yul\":8317:8318   */\n      0x00\n        /* \"#utility.yul\":8334:8340   */\n      dup5\n        /* \"#utility.yul\":8331:8420   */\n      iszero\n      tag_152\n      jumpi\n      pop\n        /* \"#utility.yul\":8386:8405   */\n      dup6\n      dup4\n      add\n        /* \"#utility.yul\":8380:8406   */\n      mload\n        /* \"#utility.yul\":8331:8420   */\n    tag_152:\n      not(0x00)\n        /* \"#utility.yul\":5939:5940   */\n      0x03\n        /* \"#utility.yul\":5935:5946   */\n      dup7\n      swap1\n      shl\n        /* \"#utility.yul\":5931:5955   */\n      shr\n        /* \"#utility.yul\":5927:5956   */\n      not\n        /* \"#utility.yul\":5917:5957   */\n      and\n        /* \"#utility.yul\":5963:5964   */\n      0x01\n        /* \"#utility.yul\":5959:5970   */\n      dup6\n      swap1\n      shl\n        /* \"#utility.yul\":5914:5971   */\n      or\n        /* \"#utility.yul\":8433:8514   */\n      dup6\n      sstore\n        /* \"#utility.yul\":7580:8524   */\n      jump(tag_150)\n        /* \"#utility.yul\":7610:8273   */\n    tag_151:\n        /* \"#utility.yul\":5235:5236   */\n      0x00\n        /* \"#utility.yul\":5228:5242   */\n      dup6\n      dup2\n      mstore\n        /* \"#utility.yul\":5272:5276   */\n      0x20\n        /* \"#utility.yul\":5259:5277   */\n      dup2\n      keccak256\n      not(0x1f)\n        /* \"#utility.yul\":7646:7666   */\n      dup7\n      and\n      swap2\n        /* \"#utility.yul\":7764:8000   */\n    tag_155:\n        /* \"#utility.yul\":7778:7785   */\n      dup3\n        /* \"#utility.yul\":7775:7776   */\n      dup2\n        /* \"#utility.yul\":7772:7786   */\n      lt\n        /* \"#utility.yul\":7764:8000   */\n      iszero\n      tag_157\n      jumpi\n        /* \"#utility.yul\":7867:7886   */\n      dup9\n      dup7\n      add\n        /* \"#utility.yul\":7861:7887   */\n      mload\n        /* \"#utility.yul\":7846:7888   */\n      dup3\n      sstore\n        /* \"#utility.yul\":7959:7986   */\n      swap5\n      dup5\n      add\n      swap5\n        /* \"#utility.yul\":7927:7928   */\n      0x01\n        /* \"#utility.yul\":7915:7929   */\n      swap1\n      swap2\n      add\n      swap1\n        /* \"#utility.yul\":7794:7813   */\n      dup5\n      add\n        /* \"#utility.yul\":7764:8000   */\n      jump(tag_155)\n    tag_157:\n        /* \"#utility.yul\":7768:7771   */\n      pop\n        /* \"#utility.yul\":8028:8034   */\n      dup6\n        /* \"#utility.yul\":8019:8026   */\n      dup3\n        /* \"#utility.yul\":8016:8035   */\n      lt\n        /* \"#utility.yul\":8013:8214   */\n      iszero\n      tag_158\n      jumpi\n        /* \"#utility.yul\":8089:8108   */\n      dup8\n      dup6\n      add\n        /* \"#utility.yul\":8083:8109   */\n      mload\n      not(0x00)\n        /* \"#utility.yul\":8172:8173   */\n      0x03\n        /* \"#utility.yul\":8168:8182   */\n      dup9\n      swap1\n      shl\n        /* \"#utility.yul\":8184:8187   */\n      0xf8\n        /* \"#utility.yul\":8164:8188   */\n      and\n        /* \"#utility.yul\":8160:8197   */\n      shr\n        /* \"#utility.yul\":8156:8198   */\n      not\n        /* \"#utility.yul\":8141:8199   */\n      and\n        /* \"#utility.yul\":8126:8200   */\n      dup2\n      sstore\n        /* \"#utility.yul\":8013:8214   */\n    tag_158:\n      pop\n      pop\n        /* \"#utility.yul\":8260:8261   */\n      0x01\n        /* \"#utility.yul\":8251:8257   */\n      dup5\n        /* \"#utility.yul\":8248:8249   */\n      0x01\n        /* \"#utility.yul\":8244:8258   */\n      shl\n        /* \"#utility.yul\":8240:8262   */\n      add\n        /* \"#utility.yul\":8234:8238   */\n      dup6\n        /* \"#utility.yul\":8227:8263   */\n      sstore\n        /* \"#utility.yul\":7580:8524   */\n    tag_150:\n      pop\n      pop\n      pop\n      pop\n        /* \"#utility.yul\":7185:8530   */\n      pop\n      pop\n      jump\t// out\n\n    auxdata: 0xa26469706673582212201459638a4766311571205b84d8f91f992aaac5857536ed8248fbf9229ab1ef1764736f6c63430008190033\n}\n",
				"bytecode": {
					"linkReferences": {},
					"object": "6080604052348015600e575f80fd5b506109cf8061001c5f395ff3fe608060405234801561000f575f80fd5b506004361061004a575f3560e01c80631d6b43041461004e5780633129e77314610063578063bfb231d21461008c578063e81f05eb146100ae575b5f80fd5b61006161005c366004610575565b6100c1565b005b6100766100713660046105dc565b61013b565b6040516100839190610621565b60405180910390f35b61009f61009a3660046105dc565b6102a5565b6040516100839392919061066c565b6100616100bc3660046106a0565b6103d3565b5f5b83811015610134575f805f8787858181106100e0576100e0610733565b9050602002013581526020019081526020015f20905083838381811061010857610108610733565b905060200281019061011a9190610747565b600283019161012a91908361081f565b50506001016100c3565b5050505050565b61015e60405180606001604052805f815260200160608152602001606081525090565b5f828152602081815260409182902082516060810190935280548352600181018054919284019161018e9061079e565b80601f01602080910402602001604051908101604052809291908181526020018280546101ba9061079e565b80156102055780601f106101dc57610100808354040283529160200191610205565b820191905f5260205f20905b8154815290600101906020018083116101e857829003601f168201915b5050505050815260200160028201805461021e9061079e565b80601f016020809104026020016040519081016040528092919081815260200182805461024a9061079e565b80156102955780601f1061026c57610100808354040283529160200191610295565b820191905f5260205f20905b81548152906001019060200180831161027857829003601f168201915b5050505050815250509050919050565b5f60208190529081526040902080546001820180549192916102c69061079e565b80601f01602080910402602001604051908101604052809291908181526020018280546102f29061079e565b801561033d5780601f106103145761010080835404028352916020019161033d565b820191905f5260205f20905b81548152906001019060200180831161032057829003601f168201915b5050505050908060020180546103529061079e565b80601f016020809104026020016040519081016040528092919081815260200182805461037e9061079e565b80156103c95780601f106103a0576101008083540402835291602001916103c9565b820191905f5260205f20905b8154815290600101906020018083116103ac57829003601f168201915b5050505050905083565b5f5b858110156105245760405180606001604052808888848181106103fa576103fa610733565b90506020020135815260200186868481811061041857610418610733565b905060200281019061042a9190610747565b8080601f0160208091040260200160405190810160405280939291908181526020018383808284375f9201919091525050509082525060200184848481811061047557610475610733565b90506020028101906104879190610747565b8080601f0160208091040260200160405190810160405280939291908181526020018383808284375f92018290525093909452509091508190508989858181106104d3576104d3610733565b9050602002013581526020019081526020015f205f820151815f0155602082015181600101908161050491906108d9565b506040820151600282019061051990826108d9565b5050506001016103d5565b50505050505050565b5f8083601f84011261053d575f80fd5b50813567ffffffffffffffff811115610554575f80fd5b6020830191508360208260051b850101111561056e575f80fd5b9250929050565b5f805f8060408587031215610588575f80fd5b843567ffffffffffffffff8082111561059f575f80fd5b6105ab8883890161052d565b909650945060208701359150808211156105c3575f80fd5b506105d08782880161052d565b95989497509550505050565b5f602082840312156105ec575f80fd5b5035919050565b5f81518084528060208401602086015e5f602082860101526020601f19601f83011685010191505092915050565b60208152815160208201525f60208301516060604084015261064660808401826105f3565b90506040840151601f1984830301606085015261066382826105f3565b95945050505050565b838152606060208201525f61068460608301856105f3565b828103604084015261069681856105f3565b9695505050505050565b5f805f805f80606087890312156106b5575f80fd5b863567ffffffffffffffff808211156106cc575f80fd5b6106d88a838b0161052d565b909850965060208901359150808211156106f0575f80fd5b6106fc8a838b0161052d565b90965094506040890135915080821115610714575f80fd5b5061072189828a0161052d565b979a9699509497509295939492505050565b634e487b7160e01b5f52603260045260245ffd5b5f808335601e1984360301811261075c575f80fd5b83018035915067ffffffffffffffff821115610776575f80fd5b60200191503681900382131561056e575f80fd5b634e487b7160e01b5f52604160045260245ffd5b600181811c908216806107b257607f821691505b6020821081036107d057634e487b7160e01b5f52602260045260245ffd5b50919050565b601f82111561081a57805f5260205f20601f840160051c810160208510156107fb5750805b601f840160051c820191505b81811015610134575f8155600101610807565b505050565b67ffffffffffffffff8311156108375761083761078a565b61084b83610845835461079e565b836107d6565b5f601f84116001811461087c575f85156108655750838201355b5f19600387901b1c1916600186901b178355610134565b5f83815260208120601f198716915b828110156108ab578685013582556020948501946001909201910161088b565b50868210156108c7575f1960f88860031b161c19848701351681555b505060018560011b0183555050505050565b815167ffffffffffffffff8111156108f3576108f361078a565b61090781610901845461079e565b846107d6565b602080601f83116001811461093a575f84156109235750858301515b5f19600386901b1c1916600185901b178555610991565b5f85815260208120601f198616915b8281101561096857888601518255948401946001909101908401610949565b508582101561098557878501515f19600388901b60f8161c191681555b505060018460011b0185555b50505050505056fea26469706673582212201459638a4766311571205b84d8f91f992aaac5857536ed8248fbf9229ab1ef1764736f6c63430008190033",
					"opcodes": "PUSH1 0x80 PUSH1 0x40 MSTORE CALLVALUE DUP1 ISZERO PUSH1 0xE JUMPI PUSH0 DUP1 REVERT JUMPDEST POP PUSH2 0x9CF DUP1 PUSH2 0x1C PUSH0 CODECOPY PUSH0 RETURN INVALID PUSH1 0x80 PUSH1 0x40 MSTORE CALLVALUE DUP1 ISZERO PUSH2 0xF JUMPI PUSH0 DUP1 REVERT JUMPDEST POP PUSH1 0x4 CALLDATASIZE LT PUSH2 0x4A JUMPI PUSH0 CALLDATALOAD PUSH1 0xE0 SHR DUP1 PUSH4 0x1D6B4304 EQ PUSH2 0x4E JUMPI DUP1 PUSH4 0x3129E773 EQ PUSH2 0x63 JUMPI DUP1 PUSH4 0xBFB231D2 EQ PUSH2 0x8C JUMPI DUP1 PUSH4 0xE81F05EB EQ PUSH2 0xAE JUMPI JUMPDEST PUSH0 DUP1 REVERT JUMPDEST PUSH2 0x61 PUSH2 0x5C CALLDATASIZE PUSH1 0x4 PUSH2 0x575 JUMP JUMPDEST PUSH2 0xC1 JUMP JUMPDEST STOP JUMPDEST PUSH2 0x76 PUSH2 0x71 CALLDATASIZE PUSH1 0x4 PUSH2 0x5DC JUMP JUMPDEST PUSH2 0x13B JUMP JUMPDEST PUSH1 0x40 MLOAD PUSH2 0x83 SWAP2 SWAP1 PUSH2 0x621 JUMP JUMPDEST PUSH1 0x40 MLOAD DUP1 SWAP2 SUB SWAP1 RETURN JUMPDEST PUSH2 0x9F PUSH2 0x9A CALLDATASIZE PUSH1 0x4 PUSH2 0x5DC JUMP JUMPDEST PUSH2 0x2A5 JUMP JUMPDEST PUSH1 0x40 MLOAD PUSH2 0x83 SWAP4 SWAP3 SWAP2 SWAP1 PUSH2 0x66C JUMP JUMPDEST PUSH2 0x61 PUSH2 0xBC CALLDATASIZE PUSH1 0x4 PUSH2 0x6A0 JUMP JUMPDEST PUSH2 0x3D3 JUMP JUMPDEST PUSH0 JUMPDEST DUP4 DUP2 LT ISZERO PUSH2 0x134 JUMPI PUSH0 DUP1 PUSH0 DUP8 DUP8 DUP6 DUP2 DUP2 LT PUSH2 0xE0 JUMPI PUSH2 0xE0 PUSH2 0x733 JUMP JUMPDEST SWAP1 POP PUSH1 0x20 MUL ADD CALLDATALOAD DUP2 MSTORE PUSH1 0x20 ADD SWAP1 DUP2 MSTORE PUSH1 0x20 ADD PUSH0 KECCAK256 SWAP1 POP DUP4 DUP4 DUP4 DUP2 DUP2 LT PUSH2 0x108 JUMPI PUSH2 0x108 PUSH2 0x733 JUMP JUMPDEST SWAP1 POP PUSH1 0x20 MUL DUP2 ADD SWAP1 PUSH2 0x11A SWAP2 SWAP1 PUSH2 0x747 JUMP JUMPDEST PUSH1 0x2 DUP4 ADD SWAP2 PUSH2 0x12A SWAP2 SWAP1 DUP4 PUSH2 0x81F JUMP JUMPDEST POP POP PUSH1 0x1 ADD PUSH2 0xC3 JUMP JUMPDEST POP POP POP POP POP JUMP JUMPDEST PUSH2 0x15E PUSH1 0x40 MLOAD DUP1 PUSH1 0x60 ADD PUSH1 0x40 MSTORE DUP1 PUSH0 DUP2 MSTORE PUSH1 0x20 ADD PUSH1 0x60 DUP2 MSTORE PUSH1 0x20 ADD PUSH1 0x60 DUP2 MSTORE POP SWAP1 JUMP JUMPDEST PUSH0 DUP3 DUP2 MSTORE PUSH1 0x20 DUP2 DUP2 MSTORE PUSH1 0x40 SWAP2 DUP3 SWAP1 KECCAK256 DUP3 MLOAD PUSH1 0x60 DUP2 ADD SWAP1 SWAP4 MSTORE DUP1 SLOAD DUP4 MSTORE PUSH1 0x1 DUP2 ADD DUP1 SLOAD SWAP2 SWAP3 DUP5 ADD SWAP2 PUSH2 0x18E SWAP1 PUSH2 0x79E JUMP JUMPDEST DUP1 PUSH1 0x1F ADD PUSH1 0x20 DUP1 SWAP2 DIV MUL PUSH1 0x20 ADD PUSH1 0x40 MLOAD SWAP1 DUP2 ADD PUSH1 0x40 MSTORE DUP1 SWAP3 SWAP2 SWAP1 DUP2 DUP2 MSTORE PUSH1 0x20 ADD DUP3 DUP1 SLOAD PUSH2 0x1BA SWAP1 PUSH2 0x79E JUMP JUMPDEST DUP1 ISZERO PUSH2 0x205 JUMPI DUP1 PUSH1 0x1F LT PUSH2 0x1DC JUMPI PUSH2 0x100 DUP1 DUP4 SLOAD DIV MUL DUP4 MSTORE SWAP2 PUSH1 0x20 ADD SWAP2 PUSH2 0x205 JUMP JUMPDEST DUP3 ADD SWAP2 SWAP1 PUSH0 MSTORE PUSH1 0x20 PUSH0 KECCAK256 SWAP1 JUMPDEST DUP2 SLOAD DUP2 MSTORE SWAP1 PUSH1 0x1 ADD SWAP1 PUSH1 0x20 ADD DUP1 DUP4 GT PUSH2 0x1E8 JUMPI DUP3 SWAP1 SUB PUSH1 0x1F AND DUP3 ADD SWAP2 JUMPDEST POP POP POP POP POP DUP2 MSTORE PUSH1 0x20 ADD PUSH1 0x2 DUP3 ADD DUP1 SLOAD PUSH2 0x21E SWAP1 PUSH2 0x79E JUMP JUMPDEST DUP1 PUSH1 0x1F ADD PUSH1 0x20 DUP1 SWAP2 DIV MUL PUSH1 0x20 ADD PUSH1 0x40 MLOAD SWAP1 DUP2 ADD PUSH1 0x40 MSTORE DUP1 SWAP3 SWAP2 SWAP1 DUP2 DUP2 MSTORE PUSH1 0x20 ADD DUP3 DUP1 SLOAD PUSH2 0x24A SWAP1 PUSH2 0x79E JUMP JUMPDEST DUP1 ISZERO PUSH2 0x295 JUMPI DUP1 PUSH1 0x1F LT PUSH2 0x26C JUMPI PUSH2 0x100 DUP1 DUP4 SLOAD DIV MUL DUP4 MSTORE SWAP2 PUSH1 0x20 ADD SWAP2 PUSH2 0x295 JUMP JUMPDEST DUP3 ADD SWAP2 SWAP1 PUSH0 MSTORE PUSH1 0x20 PUSH0 KECCAK256 SWAP1 JUMPDEST DUP2 SLOAD DUP2 MSTORE SWAP1 PUSH1 0x1 ADD SWAP1 PUSH1 0x20 ADD DUP1 DUP4 GT PUSH2 0x278 JUMPI DUP3 SWAP1 SUB PUSH1 0x1F AND DUP3 ADD SWAP2 JUMPDEST POP POP POP POP POP DUP2 MSTORE POP POP SWAP1 POP SWAP2 SWAP1 POP JUMP JUMPDEST PUSH0 PUSH1 0x20 DUP2 SWAP1 MSTORE SWAP1 DUP2 MSTORE PUSH1 0x40 SWAP1 KECCAK256 DUP1 SLOAD PUSH1 0x1 DUP3 ADD DUP1 SLOAD SWAP2 SWAP3 SWAP2 PUSH2 0x2C6 SWAP1 PUSH2 0x79E JUMP JUMPDEST DUP1 PUSH1 0x1F ADD PUSH1 0x20 DUP1 SWAP2 DIV MUL PUSH1 0x20 ADD PUSH1 0x40 MLOAD SWAP1 DUP2 ADD PUSH1 0x40 MSTORE DUP1 SWAP3 SWAP2 SWAP1 DUP2 DUP2 MSTORE PUSH1 0x20 ADD DUP3 DUP1 SLOAD PUSH2 0x2F2 SWAP1 PUSH2 0x79E JUMP JUMPDEST DUP1 ISZERO PUSH2 0x33D JUMPI DUP1 PUSH1 0x1F LT PUSH2 0x314 JUMPI PUSH2 0x100 DUP1 DUP4 SLOAD DIV MUL DUP4 MSTORE SWAP2 PUSH1 0x20 ADD SWAP2 PUSH2 0x33D JUMP JUMPDEST DUP3 ADD SWAP2 SWAP1 PUSH0 MSTORE PUSH1 0x20 PUSH0 KECCAK256 SWAP1 JUMPDEST DUP2 SLOAD DUP2 MSTORE SWAP1 PUSH1 0x1 ADD SWAP1 PUSH1 0x20 ADD DUP1 DUP4 GT PUSH2 0x320 JUMPI DUP3 SWAP1 SUB PUSH1 0x1F AND DUP3 ADD SWAP2 JUMPDEST POP POP POP POP POP SWAP1 DUP1 PUSH1 0x2 ADD DUP1 SLOAD PUSH2 0x352 SWAP1 PUSH2 0x79E JUMP JUMPDEST DUP1 PUSH1 0x1F ADD PUSH1 0x20 DUP1 SWAP2 DIV MUL PUSH1 0x20 ADD PUSH1 0x40 MLOAD SWAP1 DUP2 ADD PUSH1 0x40 MSTORE DUP1 SWAP3 SWAP2 SWAP1 DUP2 DUP2 MSTORE PUSH1 0x20 ADD DUP3 DUP1 SLOAD PUSH2 0x37E SWAP1 PUSH2 0x79E JUMP JUMPDEST DUP1 ISZERO PUSH2 0x3C9 JUMPI DUP1 PUSH1 0x1F LT PUSH2 0x3A0 JUMPI PUSH2 0x100 DUP1 DUP4 SLOAD DIV MUL DUP4 MSTORE SWAP2 PUSH1 0x20 ADD SWAP2 PUSH2 0x3C9 JUMP JUMPDEST DUP3 ADD SWAP2 SWAP1 PUSH0 MSTORE PUSH1 0x20 PUSH0 KECCAK256 SWAP1 JUMPDEST DUP2 SLOAD DUP2 MSTORE SWAP1 PUSH1 0x1 ADD SWAP1 PUSH1 0x20 ADD DUP1 DUP4 GT PUSH2 0x3AC JUMPI DUP3 SWAP1 SUB PUSH1 0x1F AND DUP3 ADD SWAP2 JUMPDEST POP POP POP POP POP SWAP1 POP DUP4 JUMP JUMPDEST PUSH0 JUMPDEST DUP6 DUP2 LT ISZERO PUSH2 0x524 JUMPI PUSH1 0x40 MLOAD DUP1 PUSH1 0x60 ADD PUSH1 0x40 MSTORE DUP1 DUP9 DUP9 DUP5 DUP2 DUP2 LT PUSH2 0x3FA JUMPI PUSH2 0x3FA PUSH2 0x733 JUMP JUMPDEST SWAP1 POP PUSH1 0x20 MUL ADD CALLDATALOAD DUP2 MSTORE PUSH1 0x20 ADD DUP7 DUP7 DUP5 DUP2 DUP2 LT PUSH2 0x418 JUMPI PUSH2 0x418 PUSH2 0x733 JUMP JUMPDEST SWAP1 POP PUSH1 0x20 MUL DUP2 ADD SWAP1 PUSH2 0x42A SWAP2 SWAP1 PUSH2 0x747 JUMP JUMPDEST DUP1 DUP1 PUSH1 0x1F ADD PUSH1 0x20 DUP1 SWAP2 DIV MUL PUSH1 0x20 ADD PUSH1 0x40 MLOAD SWAP1 DUP2 ADD PUSH1 0x40 MSTORE DUP1 SWAP4 SWAP3 SWAP2 SWAP1 DUP2 DUP2 MSTORE PUSH1 0x20 ADD DUP4 DUP4 DUP1 DUP3 DUP5 CALLDATACOPY PUSH0 SWAP3 ADD SWAP2 SWAP1 SWAP2 MSTORE POP POP POP SWAP1 DUP3 MSTORE POP PUSH1 0x20 ADD DUP5 DUP5 DUP5 DUP2 DUP2 LT PUSH2 0x475 JUMPI PUSH2 0x475 PUSH2 0x733 JUMP JUMPDEST SWAP1 POP PUSH1 0x20 MUL DUP2 ADD SWAP1 PUSH2 0x487 SWAP2 SWAP1 PUSH2 0x747 JUMP JUMPDEST DUP1 DUP1 PUSH1 0x1F ADD PUSH1 0x20 DUP1 SWAP2 DIV MUL PUSH1 0x20 ADD PUSH1 0x40 MLOAD SWAP1 DUP2 ADD PUSH1 0x40 MSTORE DUP1 SWAP4 SWAP3 SWAP2 SWAP1 DUP2 DUP2 MSTORE PUSH1 0x20 ADD DUP4 DUP4 DUP1 DUP3 DUP5 CALLDATACOPY PUSH0 SWAP3 ADD DUP3 SWAP1 MSTORE POP SWAP4 SWAP1 SWAP5 MSTORE POP SWAP1 SWAP2 POP DUP2 SWAP1 POP DUP10 DUP10 DUP6 DUP2 DUP2 LT PUSH2 0x4D3 JUMPI PUSH2 0x4D3 PUSH2 0x733 JUMP JUMPDEST SWAP1 POP PUSH1 0x20 MUL ADD CALLDATALOAD DUP2 MSTORE PUSH1 0x20 ADD SWAP1 DUP2 MSTORE PUSH1 0x20 ADD PUSH0 KECCAK256 PUSH0 DUP3 ADD MLOAD DUP2 PUSH0 ADD SSTORE PUSH1 0x20 DUP3 ADD MLOAD DUP2 PUSH1 0x1 ADD SWAP1 DUP2 PUSH2 0x504 SWAP2 SWAP1 PUSH2 0x8D9 JUMP JUMPDEST POP PUSH1 0x40 DUP3 ADD MLOAD PUSH1 0x2 DUP3 ADD SWAP1 PUSH2 0x519 SWAP1 DUP3 PUSH2 0x8D9 JUMP JUMPDEST POP POP POP PUSH1 0x1 ADD PUSH2 0x3D5 JUMP JUMPDEST POP POP POP POP POP POP POP JUMP JUMPDEST PUSH0 DUP1 DUP4 PUSH1 0x1F DUP5 ADD SLT PUSH2 0x53D JUMPI PUSH0 DUP1 REVERT JUMPDEST POP DUP2 CALLDATALOAD PUSH8 0xFFFFFFFFFFFFFFFF DUP2 GT ISZERO PUSH2 0x554 JUMPI PUSH0 DUP1 REVERT JUMPDEST PUSH1 0x20 DUP4 ADD SWAP2 POP DUP4 PUSH1 0x20 DUP3 PUSH1 0x5 SHL DUP6 ADD ADD GT ISZERO PUSH2 0x56E JUMPI PUSH0 DUP1 REVERT JUMPDEST SWAP3 POP SWAP3 SWAP1 POP JUMP JUMPDEST PUSH0 DUP1 PUSH0 DUP1 PUSH1 0x40 DUP6 DUP8 SUB SLT ISZERO PUSH2 0x588 JUMPI PUSH0 DUP1 REVERT JUMPDEST DUP5 CALLDATALOAD PUSH8 0xFFFFFFFFFFFFFFFF DUP1 DUP3 GT ISZERO PUSH2 0x59F JUMPI PUSH0 DUP1 REVERT JUMPDEST PUSH2 0x5AB DUP9 DUP4 DUP10 ADD PUSH2 0x52D JUMP JUMPDEST SWAP1 SWAP7 POP SWAP5 POP PUSH1 0x20 DUP8 ADD CALLDATALOAD SWAP2 POP DUP1 DUP3 GT ISZERO PUSH2 0x5C3 JUMPI PUSH0 DUP1 REVERT JUMPDEST POP PUSH2 0x5D0 DUP8 DUP3 DUP9 ADD PUSH2 0x52D JUMP JUMPDEST SWAP6 SWAP9 SWAP5 SWAP8 POP SWAP6 POP POP POP POP JUMP JUMPDEST PUSH0 PUSH1 0x20 DUP3 DUP5 SUB SLT ISZERO PUSH2 0x5EC JUMPI PUSH0 DUP1 REVERT JUMPDEST POP CALLDATALOAD SWAP2 SWAP1 POP JUMP JUMPDEST PUSH0 DUP2 MLOAD DUP1 DUP5 MSTORE DUP1 PUSH1 0x20 DUP5 ADD PUSH1 0x20 DUP7 ADD MCOPY PUSH0 PUSH1 0x20 DUP3 DUP7 ADD ADD MSTORE PUSH1 0x20 PUSH1 0x1F NOT PUSH1 0x1F DUP4 ADD AND DUP6 ADD ADD SWAP2 POP POP SWAP3 SWAP2 POP POP JUMP JUMPDEST PUSH1 0x20 DUP2 MSTORE DUP2 MLOAD PUSH1 0x20 DUP3 ADD MSTORE PUSH0 PUSH1 0x20 DUP4 ADD MLOAD PUSH1 0x60 PUSH1 0x40 DUP5 ADD MSTORE PUSH2 0x646 PUSH1 0x80 DUP5 ADD DUP3 PUSH2 0x5F3 JUMP JUMPDEST SWAP1 POP PUSH1 0x40 DUP5 ADD MLOAD PUSH1 0x1F NOT DUP5 DUP4 SUB ADD PUSH1 0x60 DUP6 ADD MSTORE PUSH2 0x663 DUP3 DUP3 PUSH2 0x5F3 JUMP JUMPDEST SWAP6 SWAP5 POP POP POP POP POP JUMP JUMPDEST DUP4 DUP2 MSTORE PUSH1 0x60 PUSH1 0x20 DUP3 ADD MSTORE PUSH0 PUSH2 0x684 PUSH1 0x60 DUP4 ADD DUP6 PUSH2 0x5F3 JUMP JUMPDEST DUP3 DUP2 SUB PUSH1 0x40 DUP5 ADD MSTORE PUSH2 0x696 DUP2 DUP6 PUSH2 0x5F3 JUMP JUMPDEST SWAP7 SWAP6 POP POP POP POP POP POP JUMP JUMPDEST PUSH0 DUP1 PUSH0 DUP1 PUSH0 DUP1 PUSH1 0x60 DUP8 DUP10 SUB SLT ISZERO PUSH2 0x6B5 JUMPI PUSH0 DUP1 REVERT JUMPDEST DUP7 CALLDATALOAD PUSH8 0xFFFFFFFFFFFFFFFF DUP1 DUP3 GT ISZERO PUSH2 0x6CC JUMPI PUSH0 DUP1 REVERT JUMPDEST PUSH2 0x6D8 DUP11 DUP4 DUP12 ADD PUSH2 0x52D JUMP JUMPDEST SWAP1 SWAP9 POP SWAP7 POP PUSH1 0x20 DUP10 ADD CALLDATALOAD SWAP2 POP DUP1 DUP3 GT ISZERO PUSH2 0x6F0 JUMPI PUSH0 DUP1 REVERT JUMPDEST PUSH2 0x6FC DUP11 DUP4 DUP12 ADD PUSH2 0x52D JUMP JUMPDEST SWAP1 SWAP7 POP SWAP5 POP PUSH1 0x40 DUP10 ADD CALLDATALOAD SWAP2 POP DUP1 DUP3 GT ISZERO PUSH2 0x714 JUMPI PUSH0 DUP1 REVERT JUMPDEST POP PUSH2 0x721 DUP10 DUP3 DUP11 ADD PUSH2 0x52D JUMP JUMPDEST SWAP8 SWAP11 SWAP7 SWAP10 POP SWAP5 SWAP8 POP SWAP3 SWAP6 SWAP4 SWAP5 SWAP3 POP POP POP JUMP JUMPDEST PUSH4 0x4E487B71 PUSH1 0xE0 SHL PUSH0 MSTORE PUSH1 0x32 PUSH1 0x4 MSTORE PUSH1 0x24 PUSH0 REVERT JUMPDEST PUSH0 DUP1 DUP4 CALLDATALOAD PUSH1 0x1E NOT DUP5 CALLDATASIZE SUB ADD DUP2 SLT PUSH2 0x75C JUMPI PUSH0 DUP1 REVERT JUMPDEST DUP4 ADD DUP1 CALLDATALOAD SWAP2 POP PUSH8 0xFFFFFFFFFFFFFFFF DUP3 GT ISZERO PUSH2 0x776 JUMPI PUSH0 DUP1 REVERT JUMPDEST PUSH1 0x20 ADD SWAP2 POP CALLDATASIZE DUP2 SWAP1 SUB DUP3 SGT ISZERO PUSH2 0x56E JUMPI PUSH0 DUP1 REVERT JUMPDEST PUSH4 0x4E487B71 PUSH1 0xE0 SHL PUSH0 MSTORE PUSH1 0x41 PUSH1 0x4 MSTORE PUSH1 0x24 PUSH0 REVERT JUMPDEST PUSH1 0x1 DUP2 DUP2 SHR SWAP1 DUP3 AND DUP1 PUSH2 0x7B2 JUMPI PUSH1 0x7F DUP3 AND SWAP2 POP JUMPDEST PUSH1 0x20 DUP3 LT DUP2 SUB PUSH2 0x7D0 JUMPI PUSH4 0x4E487B71 PUSH1 0xE0 SHL PUSH0 MSTORE PUSH1 0x22 PUSH1 0x4 MSTORE PUSH1 0x24 PUSH0 REVERT JUMPDEST POP SWAP2 SWAP1 POP JUMP JUMPDEST PUSH1 0x1F DUP3 GT ISZERO PUSH2 0x81A JUMPI DUP1 PUSH0 MSTORE PUSH1 0x20 PUSH0 KECCAK256 PUSH1 0x1F DUP5 ADD PUSH1 0x5 SHR DUP2 ADD PUSH1 0x20 DUP6 LT ISZERO PUSH2 0x7FB JUMPI POP DUP1 JUMPDEST PUSH1 0x1F DUP5 ADD PUSH1 0x5 SHR DUP3 ADD SWAP2 POP JUMPDEST DUP2 DUP2 LT ISZERO PUSH2 0x134 JUMPI PUSH0 DUP2 SSTORE PUSH1 0x1 ADD PUSH2 0x807 JUMP JUMPDEST POP POP POP JUMP JUMPDEST PUSH8 0xFFFFFFFFFFFFFFFF DUP4 GT ISZERO PUSH2 0x837 JUMPI PUSH2 0x837 PUSH2 0x78A JUMP JUMPDEST PUSH2 0x84B DUP4 PUSH2 0x845 DUP4 SLOAD PUSH2 0x79E JUMP JUMPDEST DUP4 PUSH2 0x7D6 JUMP JUMPDEST PUSH0 PUSH1 0x1F DUP5 GT PUSH1 0x1 DUP2 EQ PUSH2 0x87C JUMPI PUSH0 DUP6 ISZERO PUSH2 0x865 JUMPI POP DUP4 DUP3 ADD CALLDATALOAD JUMPDEST PUSH0 NOT PUSH1 0x3 DUP8 SWAP1 SHL SHR NOT AND PUSH1 0x1 DUP7 SWAP1 SHL OR DUP4 SSTORE PUSH2 0x134 JUMP JUMPDEST PUSH0 DUP4 DUP2 MSTORE PUSH1 0x20 DUP2 KECCAK256 PUSH1 0x1F NOT DUP8 AND SWAP2 JUMPDEST DUP3 DUP2 LT ISZERO PUSH2 0x8AB JUMPI DUP7 DUP6 ADD CALLDATALOAD DUP3 SSTORE PUSH1 0x20 SWAP5 DUP6 ADD SWAP5 PUSH1 0x1 SWAP1 SWAP3 ADD SWAP2 ADD PUSH2 0x88B JUMP JUMPDEST POP DUP7 DUP3 LT ISZERO PUSH2 0x8C7 JUMPI PUSH0 NOT PUSH1 0xF8 DUP9 PUSH1 0x3 SHL AND SHR NOT DUP5 DUP8 ADD CALLDATALOAD AND DUP2 SSTORE JUMPDEST POP POP PUSH1 0x1 DUP6 PUSH1 0x1 SHL ADD DUP4 SSTORE POP POP POP POP POP JUMP JUMPDEST DUP2 MLOAD PUSH8 0xFFFFFFFFFFFFFFFF DUP2 GT ISZERO PUSH2 0x8F3 JUMPI PUSH2 0x8F3 PUSH2 0x78A JUMP JUMPDEST PUSH2 0x907 DUP2 PUSH2 0x901 DUP5 SLOAD PUSH2 0x79E JUMP JUMPDEST DUP5 PUSH2 0x7D6 JUMP JUMPDEST PUSH1 0x20 DUP1 PUSH1 0x1F DUP4 GT PUSH1 0x1 DUP2 EQ PUSH2 0x93A JUMPI PUSH0 DUP5 ISZERO PUSH2 0x923 JUMPI POP DUP6 DUP4 ADD MLOAD JUMPDEST PUSH0 NOT PUSH1 0x3 DUP7 SWAP1 SHL SHR NOT AND PUSH1 0x1 DUP6 SWAP1 SHL OR DUP6 SSTORE PUSH2 0x991 JUMP JUMPDEST PUSH0 DUP6 DUP2 MSTORE PUSH1 0x20 DUP2 KECCAK256 PUSH1 0x1F NOT DUP7 AND SWAP2 JUMPDEST DUP3 DUP2 LT ISZERO PUSH2 0x968 JUMPI DUP9 DUP7 ADD MLOAD DUP3 SSTORE SWAP5 DUP5 ADD SWAP5 PUSH1 0x1 SWAP1 SWAP2 ADD SWAP1 DUP5 ADD PUSH2 0x949 JUMP JUMPDEST POP DUP6 DUP3 LT ISZERO PUSH2 0x985 JUMPI DUP8 DUP6 ADD MLOAD PUSH0 NOT PUSH1 0x3 DUP9 SWAP1 SHL PUSH1 0xF8 AND SHR NOT AND DUP2 SSTORE JUMPDEST POP POP PUSH1 0x1 DUP5 PUSH1 0x1 SHL ADD DUP6 SSTORE JUMPDEST POP POP POP POP POP POP JUMP INVALID LOG2 PUSH5 0x6970667358 0x22 SLT KECCAK256 EQ MSIZE PUSH4 0x8A476631 ISZERO PUSH18 0x205B84D8F91F992AAAC5857536ED8248FBF9 0x22 SWAP11 0xB1 0xEF OR PUSH5 0x736F6C6343 STOP ADDMOD NOT STOP CALLER "
				},
				"gasEstimates": {
					"creation": {
						"codeDepositCost": "502200",
						"executionCost": "535",
						"totalCost": "502735"
					},
					"external": {
						"addItems(uint256[],string[],string[])": "infinite",
						"getItem(uint256)": "infinite",
						"items(uint256)": "infinite",
						"updateDescriptions(uint256[],string[])": "infinite"
					}
				},
				"methodIdentifiers": {
					"addItems(uint256[],string[],string[])": "e81f05eb",
					"getItem(uint256)": "3129e773",
					"items(uint256)": "bfb231d2",
					"updateDescriptions(uint256[],string[])": "1d6b4304"
				}
			},
			"storageLayout": {
				"storage": [
					{
						"astId": 13,
						"contract": "contracts/ContractL/ContractLV5.sol:ContractLV5",
						"label": "items",
						"offset": 0,
						"slot": "0",
						"type": "t_mapping(t_uint256,t_struct(Item)8_storage)"
					}
				],
				"types": {
					"t_mapping(t_uint256,t_struct(Item)8_storage)": {
						"encoding": "mapping",
						"key": "t_uint256",
						"label": "mapping(uint256 => struct ContractLV5.Item)",
						"numberOfBytes": "32",
						"value": "t_struct(Item)8_storage"
					},
					"t_string_storage": {
						"encoding": "bytes",
						"label": "string",
						"numberOfBytes": "32"
					},
					"t_struct(Item)8_storage": {
						"encoding": "inplace",
						"label": "struct ContractLV5.Item",
						"members": [
							{
								"astId": 3,
								"contract": "contracts/ContractL/ContractLV5.sol:ContractLV5",
								"label": "id",
								"offset": 0,
								"slot": "0",
								"type": "t_uint256"
							},
							{
								"astId": 5,
								"contract": "contracts/ContractL/ContractLV5.sol:ContractLV5",
								"label": "name",
								"offset": 0,
								"slot": "1",
								"type": "t_string_storage"
							},
							{
								"astId": 7,
								"contract": "contracts/ContractL/ContractLV5.sol:ContractLV5",
								"label": "description",
								"offset": 0,
								"slot": "2",
								"type": "t_string_storage"
							}
						],
						"numberOfBytes": "96"
					},
					"t_uint256": {
						"encoding": "inplace",
						"label": "uint256",
						"numberOfBytes": "32"
					}
				}
			},
			"userdoc": {
				"kind": "user",
				"methods": {},
				"version": 1
			}
		}
	}
}