{
	"contracts/ContractL/ContractLV2.sol": {
		"ContractLV2": {
			"abi": [
				{
					"inputs": [
						{
							"internalType": "uint256[]",
							"name": "nums",
							"type": "uint256[]"
						}
					],
					"name": "sum",
					"outputs": [
						{
							"internalType": "uint256",
							"name": "total",
							"type": "uint256"
						}
					],
					"stateMutability": "pure",
					"type": "function"
				}
			],
			"devdoc": {
				"kind": "dev",
				"methods": {},
				"version": 1
			},
			"evm": {
				"assembly": "    /* \"contracts/ContractL/ContractLV2.sol\":63:293  contract ContractLV2 {... */\n  mstore(0x40, 0x80)\n  callvalue\n  dup1\n  iszero\n  tag_1\n  jumpi\n  0x00\n  dup1\n  revert\ntag_1:\n  pop\n  dataSize(sub_0)\n  dup1\n  dataOffset(sub_0)\n  0x00\n  codecopy\n  0x00\n  return\nstop\n\nsub_0: assembly {\n        /* \"contracts/ContractL/ContractLV2.sol\":63:293  contract ContractLV2 {... */\n      mstore(0x40, 0x80)\n      callvalue\n      dup1\n      iszero\n      tag_1\n      jumpi\n      0x00\n      dup1\n      revert\n    tag_1:\n      pop\n      jumpi(tag_2, lt(calldatasize, 0x04))\n      shr(0xe0, calldataload(0x00))\n      dup1\n      0x0194db8e\n      eq\n      tag_3\n      jumpi\n    tag_2:\n      0x00\n      dup1\n      revert\n        /* \"contracts/ContractL/ContractLV2.sol\":113:290  function sum(uint256[] calldata nums) public pure returns (uint256 total) {... */\n    tag_3:\n      tag_4\n      tag_5\n      calldatasize\n      0x04\n      tag_6\n      jump\t// in\n    tag_5:\n      tag_7\n      jump\t// in\n    tag_4:\n      mload(0x40)\n        /* \"#utility.yul\":780:805   */\n      swap1\n      dup2\n      mstore\n        /* \"#utility.yul\":768:770   */\n      0x20\n        /* \"#utility.yul\":753:771   */\n      add\n        /* \"contracts/ContractL/ContractLV2.sol\":113:290  function sum(uint256[] calldata nums) public pure returns (uint256 total) {... */\n      mload(0x40)\n      dup1\n      swap2\n      sub\n      swap1\n      return\n    tag_7:\n        /* \"contracts/ContractL/ContractLV2.sol\":172:185  uint256 total */\n      0x00\n      dup1\n        /* \"contracts/ContractL/ContractLV2.sol\":198:283  for (uint256 i = 0; i < nums.length; i++) {... */\n    tag_11:\n        /* \"contracts/ContractL/ContractLV2.sol\":218:233  i < nums.length */\n      dup3\n      dup2\n      lt\n        /* \"contracts/ContractL/ContractLV2.sol\":198:283  for (uint256 i = 0; i < nums.length; i++) {... */\n      iszero\n      tag_12\n      jumpi\n        /* \"contracts/ContractL/ContractLV2.sol\":264:268  nums */\n      dup4\n      dup4\n        /* \"contracts/ContractL/ContractLV2.sol\":269:270  i */\n      dup3\n        /* \"contracts/ContractL/ContractLV2.sol\":264:271  nums[i] */\n      dup2\n      dup2\n      lt\n      tag_15\n      jumpi\n      tag_15\n      tag_16\n      jump\t// in\n    tag_15:\n      swap1\n      pop\n      0x20\n      mul\n      add\n      calldataload\n        /* \"contracts/ContractL/ContractLV2.sol\":255:271  total += nums[i] */\n      dup3\n      tag_17\n      swap2\n      swap1\n      tag_18\n      jump\t// in\n    tag_17:\n      swap2\n      pop\n        /* \"contracts/ContractL/ContractLV2.sol\":235:238  i++ */\n      0x01\n      add\n        /* \"contracts/ContractL/ContractLV2.sol\":198:283  for (uint256 i = 0; i < nums.length; i++) {... */\n      jump(tag_11)\n    tag_12:\n      pop\n        /* \"contracts/ContractL/ContractLV2.sol\":113:290  function sum(uint256[] calldata nums) public pure returns (uint256 total) {... */\n      swap3\n      swap2\n      pop\n      pop\n      jump\t// out\n        /* \"#utility.yul\":14:629   */\n    tag_6:\n        /* \"#utility.yul\":100:106   */\n      0x00\n        /* \"#utility.yul\":108:114   */\n      dup1\n        /* \"#utility.yul\":161:163   */\n      0x20\n        /* \"#utility.yul\":149:158   */\n      dup4\n        /* \"#utility.yul\":140:147   */\n      dup6\n        /* \"#utility.yul\":136:159   */\n      sub\n        /* \"#utility.yul\":132:164   */\n      slt\n        /* \"#utility.yul\":129:181   */\n      iszero\n      tag_21\n      jumpi\n        /* \"#utility.yul\":177:178   */\n      0x00\n        /* \"#utility.yul\":174:175   */\n      dup1\n        /* \"#utility.yul\":167:179   */\n      revert\n        /* \"#utility.yul\":129:181   */\n    tag_21:\n        /* \"#utility.yul\":217:226   */\n      dup3\n        /* \"#utility.yul\":204:227   */\n      calldataload\n        /* \"#utility.yul\":246:264   */\n      0xffffffffffffffff\n        /* \"#utility.yul\":287:289   */\n      dup1\n        /* \"#utility.yul\":279:285   */\n      dup3\n        /* \"#utility.yul\":276:290   */\n      gt\n        /* \"#utility.yul\":273:307   */\n      iszero\n      tag_22\n      jumpi\n        /* \"#utility.yul\":303:304   */\n      0x00\n        /* \"#utility.yul\":300:301   */\n      dup1\n        /* \"#utility.yul\":293:305   */\n      revert\n        /* \"#utility.yul\":273:307   */\n    tag_22:\n        /* \"#utility.yul\":341:347   */\n      dup2\n        /* \"#utility.yul\":330:339   */\n      dup6\n        /* \"#utility.yul\":326:348   */\n      add\n        /* \"#utility.yul\":316:348   */\n      swap2\n      pop\n        /* \"#utility.yul\":386:393   */\n      dup6\n        /* \"#utility.yul\":379:383   */\n      0x1f\n        /* \"#utility.yul\":375:377   */\n      dup4\n        /* \"#utility.yul\":371:384   */\n      add\n        /* \"#utility.yul\":367:394   */\n      slt\n        /* \"#utility.yul\":357:412   */\n      tag_23\n      jumpi\n        /* \"#utility.yul\":408:409   */\n      0x00\n        /* \"#utility.yul\":405:406   */\n      dup1\n        /* \"#utility.yul\":398:410   */\n      revert\n        /* \"#utility.yul\":357:412   */\n    tag_23:\n        /* \"#utility.yul\":448:450   */\n      dup2\n        /* \"#utility.yul\":435:451   */\n      calldataload\n        /* \"#utility.yul\":474:476   */\n      dup2\n        /* \"#utility.yul\":466:472   */\n      dup2\n        /* \"#utility.yul\":463:477   */\n      gt\n        /* \"#utility.yul\":460:494   */\n      iszero\n      tag_24\n      jumpi\n        /* \"#utility.yul\":490:491   */\n      0x00\n        /* \"#utility.yul\":487:488   */\n      dup1\n        /* \"#utility.yul\":480:492   */\n      revert\n        /* \"#utility.yul\":460:494   */\n    tag_24:\n        /* \"#utility.yul\":543:550   */\n      dup7\n        /* \"#utility.yul\":538:540   */\n      0x20\n        /* \"#utility.yul\":528:534   */\n      dup3\n        /* \"#utility.yul\":525:526   */\n      0x05\n        /* \"#utility.yul\":521:535   */\n      shl\n        /* \"#utility.yul\":517:519   */\n      dup6\n        /* \"#utility.yul\":513:536   */\n      add\n        /* \"#utility.yul\":509:541   */\n      add\n        /* \"#utility.yul\":506:551   */\n      gt\n        /* \"#utility.yul\":503:568   */\n      iszero\n      tag_25\n      jumpi\n        /* \"#utility.yul\":564:565   */\n      0x00\n        /* \"#utility.yul\":561:562   */\n      dup1\n        /* \"#utility.yul\":554:566   */\n      revert\n        /* \"#utility.yul\":503:568   */\n    tag_25:\n        /* \"#utility.yul\":595:597   */\n      0x20\n        /* \"#utility.yul\":587:598   */\n      swap3\n      swap1\n      swap3\n      add\n      swap7\n        /* \"#utility.yul\":617:623   */\n      swap2\n      swap6\n      pop\n        /* \"#utility.yul\":14:629   */\n      swap1\n      swap4\n      pop\n      pop\n      pop\n      pop\n      jump\t// out\n        /* \"#utility.yul\":816:1000   */\n    tag_16:\n      shl(0xe0, 0x4e487b71)\n        /* \"#utility.yul\":865:866   */\n      0x00\n        /* \"#utility.yul\":858:946   */\n      mstore\n        /* \"#utility.yul\":965:969   */\n      0x32\n        /* \"#utility.yul\":962:963   */\n      0x04\n        /* \"#utility.yul\":955:970   */\n      mstore\n        /* \"#utility.yul\":989:993   */\n      0x24\n        /* \"#utility.yul\":986:987   */\n      0x00\n        /* \"#utility.yul\":979:994   */\n      revert\n        /* \"#utility.yul\":1005:1284   */\n    tag_18:\n        /* \"#utility.yul\":1070:1079   */\n      dup1\n      dup3\n      add\n        /* \"#utility.yul\":1091:1101   */\n      dup1\n      dup3\n      gt\n        /* \"#utility.yul\":1088:1278   */\n      iszero\n      tag_29\n      jumpi\n      shl(0xe0, 0x4e487b71)\n        /* \"#utility.yul\":1131:1132   */\n      0x00\n        /* \"#utility.yul\":1124:1212   */\n      mstore\n        /* \"#utility.yul\":1235:1239   */\n      0x11\n        /* \"#utility.yul\":1232:1233   */\n      0x04\n        /* \"#utility.yul\":1225:1240   */\n      mstore\n        /* \"#utility.yul\":1263:1267   */\n      0x24\n        /* \"#utility.yul\":1260:1261   */\n      0x00\n        /* \"#utility.yul\":1253:1268   */\n      revert\n        /* \"#utility.yul\":1088:1278   */\n    tag_29:\n        /* \"#utility.yul\":1005:1284   */\n      swap3\n      swap2\n      pop\n      pop\n      jump\t// out\n\n    auxdata: 0xa2646970667358221220a59a06016b060e3a80a6514a244c6185812170ce528e8240d960ca85937f998264736f6c63430008190033\n}\n",
				"bytecode": {
					"linkReferences": {},
					"object": "6080604052348015600e575f80fd5b506101708061001c5f395ff3fe608060405234801561000f575f80fd5b5060043610610029575f3560e01c80630194db8e1461002d575b5f80fd5b61004061003b366004610092565b610052565b60405190815260200160405180910390f35b5f805b8281101561008b5783838281811061006f5761006f610101565b90506020020135826100819190610115565b9150600101610055565b5092915050565b5f80602083850312156100a3575f80fd5b823567ffffffffffffffff808211156100ba575f80fd5b818501915085601f8301126100cd575f80fd5b8135818111156100db575f80fd5b8660208260051b85010111156100ef575f80fd5b60209290920196919550909350505050565b634e487b7160e01b5f52603260045260245ffd5b8082018082111561013457634e487b7160e01b5f52601160045260245ffd5b9291505056fea2646970667358221220a59a06016b060e3a80a6514a244c6185812170ce528e8240d960ca85937f998264736f6c63430008190033",
					"opcodes": "PUSH1 0x80 PUSH1 0x40 MSTORE CALLVALUE DUP1 ISZERO PUSH1 0xE JUMPI PUSH0 DUP1 REVERT JUMPDEST POP PUSH2 0x170 DUP1 PUSH2 0x1C PUSH0 CODECOPY PUSH0 RETURN INVALID PUSH1 0x80 PUSH1 0x40 MSTORE CALLVALUE DUP1 ISZERO PUSH2 0xF JUMPI PUSH0 DUP1 REVERT JUMPDEST POP PUSH1 0x4 CALLDATASIZE LT PUSH2 0x29 JUMPI PUSH0 CALLDATALOAD PUSH1 0xE0 SHR DUP1 PUSH4 0x194DB8E EQ PUSH2 0x2D JUMPI JUMPDEST PUSH0 DUP1 REVERT JUMPDEST PUSH2 0x40 PUSH2 0x3B CALLDATASIZE PUSH1 0x4 PUSH2 0x92 JUMP JUMPDEST PUSH2 0x52 JUMP JUMPDEST PUSH1 0x40 MLOAD SWAP1 DUP2 MSTORE PUSH1 0x20 ADD PUSH1 0x40 MLOAD DUP1 SWAP2 SUB SWAP1 RETURN JUMPDEST PUSH0 DUP1 JUMPDEST DUP3 DUP2 LT ISZERO PUSH2 0x8B JUMPI DUP4 DUP4 DUP3 DUP2 DUP2 LT PUSH2 0x6F JUMPI PUSH2 0x6F PUSH2 0x101 JUMP JUMPDEST SWAP1 POP PUSH1 0x20 MUL ADD CALLDATALOAD DUP3 PUSH2 0x81 SWAP2 SWAP1 PUSH2 0x115 JUMP JUMPDEST SWAP2 POP PUSH1 0x1 ADD PUSH2 0x55 JUMP JUMPDEST POP SWAP3 SWAP2 POP POP JUMP JUMPDEST PUSH0 DUP1 PUSH1 0x20 DUP4 DUP6 SUB SLT ISZERO PUSH2 0xA3 JUMPI PUSH0 DUP1 REVERT JUMPDEST DUP3 CALLDATALOAD PUSH8 0xFFFFFFFFFFFFFFFF DUP1 DUP3 GT ISZERO PUSH2 0xBA JUMPI PUSH0 DUP1 REVERT JUMPDEST DUP2 DUP6 ADD SWAP2 POP DUP6 PUSH1 0x1F DUP4 ADD SLT PUSH2 0xCD JUMPI PUSH0 DUP1 REVERT JUMPDEST DUP2 CALLDATALOAD DUP2 DUP2 GT ISZERO PUSH2 0xDB JUMPI PUSH0 DUP1 REVERT JUMPDEST DUP7 PUSH1 0x20 DUP3 PUSH1 0x5 SHL DUP6 ADD ADD GT ISZERO PUSH2 0xEF JUMPI PUSH0 DUP1 REVERT JUMPDEST PUSH1 0x20 SWAP3 SWAP1 SWAP3 ADD SWAP7 SWAP2 SWAP6 POP SWAP1 SWAP4 POP POP POP POP JUMP JUMPDEST PUSH4 0x4E487B71 PUSH1 0xE0 SHL PUSH0 MSTORE PUSH1 0x32 PUSH1 0x4 MSTORE PUSH1 0x24 PUSH0 REVERT JUMPDEST DUP1 DUP3 ADD DUP1 DUP3 GT ISZERO PUSH2 0x134 JUMPI PUSH4 0x4E487B71 PUSH1 0xE0 SHL PUSH0 MSTORE PUSH1 0x11 PUSH1 0x4 MSTORE PUSH1 0x24 PUSH0 REVERT JUMPDEST SWAP3 SWAP2 POP POP JUMP INVALID LOG2 PUSH5 0x6970667358 0x22 SLT KECCAK256 0xA5 SWAP11 MOD ADD PUSH12 0x60E3A80A6514A244C618581 0x21 PUSH17 0xCE528E8240D960CA85937F998264736F6C PUSH4 0x43000819 STOP CALLER "
				},
				"gasEstimates": {
					"creation": {
						"codeDepositCost": "73600",
						"executionCost": "121",
						"totalCost": "73721"
					},
					"external": {
						"sum(uint256[])": "infinite"
					}
				},
				"methodIdentifiers": {
					"sum(uint256[])": "0194db8e"
				}
			},
			"storageLayout": {
				"storage": [],
				"types": null
			},
			"userdoc": {
				"kind": "user",
				"methods": {},
				"version": 1
			}
		}
	}
}