{
	"contracts/ContractL/ContractLV4Helper.sol": {
		"ContractLV4Helper": {
			"abi": [
				{
					"inputs": [
						{
							"internalType": "uint256",
							"name": "a",
							"type": "uint256"
						},
						{
							"internalType": "uint256",
							"name": "b",
							"type": "uint256"
						},
						{
							"internalType": "uint256",
							"name": "c",
							"type": "uint256"
						},
						{
							"internalType": "uint256",
							"name": "d",
							"type": "uint256"
						},
						{
							"internalType": "uint256",
							"name": "e",
							"type": "uint256"
						}
					],
					"name": "packValues",
					"outputs": [
						{
							"internalType": "uint256",
							"name": "packedData",
							"type": "uint256"
						}
					],
					"stateMutability": "pure",
					"type": "function"
				}
			],
			"devdoc": {
				"kind": "dev",
				"methods": {},
				"version": 1
			},
			"evm": {
				"assembly": "    /* \"contracts/ContractL/ContractLV4Helper.sol\":59:857  contract ContractLV4Helper {... */\n  mstore(0x40, 0x80)\n  callvalue\n  dup1\n  iszero\n  tag_1\n  jumpi\n  0x00\n  dup1\n  revert\ntag_1:\n  pop\n  dataSize(sub_0)\n  dup1\n  dataOffset(sub_0)\n  0x00\n  codecopy\n  0x00\n  return\nstop\n\nsub_0: assembly {\n        /* \"contracts/ContractL/ContractLV4Helper.sol\":59:857  contract ContractLV4Helper {... */\n      mstore(0x40, 0x80)\n      callvalue\n      dup1\n      iszero\n      tag_1\n      jumpi\n      0x00\n      dup1\n      revert\n    tag_1:\n      pop\n      jumpi(tag_2, lt(calldatasize, 0x04))\n      shr(0xe0, calldataload(0x00))\n      dup1\n      0x3ad0055b\n      eq\n      tag_3\n      jumpi\n    tag_2:\n      0x00\n      dup1\n      revert\n        /* \"contracts/ContractL/ContractLV4Helper.sol\":188:855  function packValues(... */\n    tag_3:\n      tag_4\n      0x04\n      dup1\n      calldatasize\n      sub\n      dup2\n      add\n      swap1\n      tag_5\n      swap2\n      swap1\n      tag_6\n      jump\t// in\n    tag_5:\n      tag_7\n      jump\t// in\n    tag_4:\n      mload(0x40)\n      tag_8\n      swap2\n      swap1\n      tag_9\n      jump\t// in\n    tag_8:\n      mload(0x40)\n      dup1\n      swap2\n      sub\n      swap1\n      return\n    tag_7:\n        /* \"contracts/ContractL/ContractLV4Helper.sol\":331:349  uint256 packedData */\n      0x00\n        /* \"contracts/ContractL/ContractLV4Helper.sol\":374:381  1 << 48 */\n      0x01000000000000\n        /* \"contracts/ContractL/ContractLV4Helper.sol\":369:370  a */\n      dup7\n        /* \"contracts/ContractL/ContractLV4Helper.sol\":369:382  a < (1 << 48) */\n      lt\n        /* \"contracts/ContractL/ContractLV4Helper.sol\":361:412  require(a < (1 << 48), \"a does not fit in 48 bits\") */\n      tag_11\n      jumpi\n      mload(0x40)\n      0x08c379a000000000000000000000000000000000000000000000000000000000\n      dup2\n      mstore\n      0x04\n      add\n      tag_12\n      swap1\n      tag_13\n      jump\t// in\n    tag_12:\n      mload(0x40)\n      dup1\n      swap2\n      sub\n      swap1\n      revert\n    tag_11:\n        /* \"contracts/ContractL/ContractLV4Helper.sol\":435:442  1 << 48 */\n      0x01000000000000\n        /* \"contracts/ContractL/ContractLV4Helper.sol\":430:431  b */\n      dup6\n        /* \"contracts/ContractL/ContractLV4Helper.sol\":430:443  b < (1 << 48) */\n      lt\n        /* \"contracts/ContractL/ContractLV4Helper.sol\":422:473  require(b < (1 << 48), \"b does not fit in 48 bits\") */\n      tag_14\n      jumpi\n      mload(0x40)\n      0x08c379a000000000000000000000000000000000000000000000000000000000\n      dup2\n      mstore\n      0x04\n      add\n      tag_15\n      swap1\n      tag_16\n      jump\t// in\n    tag_15:\n      mload(0x40)\n      dup1\n      swap2\n      sub\n      swap1\n      revert\n    tag_14:\n        /* \"contracts/ContractL/ContractLV4Helper.sol\":496:503  1 << 48 */\n      0x01000000000000\n        /* \"contracts/ContractL/ContractLV4Helper.sol\":491:492  c */\n      dup5\n        /* \"contracts/ContractL/ContractLV4Helper.sol\":491:504  c < (1 << 48) */\n      lt\n        /* \"contracts/ContractL/ContractLV4Helper.sol\":483:534  require(c < (1 << 48), \"c does not fit in 48 bits\") */\n      tag_17\n      jumpi\n      mload(0x40)\n      0x08c379a000000000000000000000000000000000000000000000000000000000\n      dup2\n      mstore\n      0x04\n      add\n      tag_18\n      swap1\n      tag_19\n      jump\t// in\n    tag_18:\n      mload(0x40)\n      dup1\n      swap2\n      sub\n      swap1\n      revert\n    tag_17:\n        /* \"contracts/ContractL/ContractLV4Helper.sol\":557:564  1 << 48 */\n      0x01000000000000\n        /* \"contracts/ContractL/ContractLV4Helper.sol\":552:553  d */\n      dup4\n        /* \"contracts/ContractL/ContractLV4Helper.sol\":552:565  d < (1 << 48) */\n      lt\n        /* \"contracts/ContractL/ContractLV4Helper.sol\":544:595  require(d < (1 << 48), \"d does not fit in 48 bits\") */\n      tag_20\n      jumpi\n      mload(0x40)\n      0x08c379a000000000000000000000000000000000000000000000000000000000\n      dup2\n      mstore\n      0x04\n      add\n      tag_21\n      swap1\n      tag_22\n      jump\t// in\n    tag_21:\n      mload(0x40)\n      dup1\n      swap2\n      sub\n      swap1\n      revert\n    tag_20:\n        /* \"contracts/ContractL/ContractLV4Helper.sol\":618:625  1 << 64 */\n      0x010000000000000000\n        /* \"contracts/ContractL/ContractLV4Helper.sol\":613:614  e */\n      dup3\n        /* \"contracts/ContractL/ContractLV4Helper.sol\":613:626  e < (1 << 64) */\n      lt\n        /* \"contracts/ContractL/ContractLV4Helper.sol\":605:656  require(e < (1 << 64), \"e does not fit in 64 bits\") */\n      tag_23\n      jumpi\n      mload(0x40)\n      0x08c379a000000000000000000000000000000000000000000000000000000000\n      dup2\n      mstore\n      0x04\n      add\n      tag_24\n      swap1\n      tag_25\n      jump\t// in\n    tag_24:\n      mload(0x40)\n      dup1\n      swap2\n      sub\n      swap1\n      revert\n    tag_23:\n        /* \"contracts/ContractL/ContractLV4Helper.sol\":816:819  192 */\n      0xc0\n        /* \"contracts/ContractL/ContractLV4Helper.sol\":811:812  e */\n      dup3\n        /* \"contracts/ContractL/ContractLV4Helper.sol\":811:819  e << 192 */\n      swap1\n      shl\n        /* \"contracts/ContractL/ContractLV4Helper.sol\":781:784  144 */\n      0x90\n        /* \"contracts/ContractL/ContractLV4Helper.sol\":776:777  d */\n      dup5\n        /* \"contracts/ContractL/ContractLV4Helper.sol\":776:784  d << 144 */\n      swap1\n      shl\n        /* \"contracts/ContractL/ContractLV4Helper.sol\":747:749  96 */\n      0x60\n        /* \"contracts/ContractL/ContractLV4Helper.sol\":742:743  c */\n      dup7\n        /* \"contracts/ContractL/ContractLV4Helper.sol\":742:749  c << 96 */\n      swap1\n      shl\n        /* \"contracts/ContractL/ContractLV4Helper.sol\":713:715  48 */\n      0x30\n        /* \"contracts/ContractL/ContractLV4Helper.sol\":708:709  b */\n      dup9\n        /* \"contracts/ContractL/ContractLV4Helper.sol\":708:715  b << 48 */\n      swap1\n      shl\n        /* \"contracts/ContractL/ContractLV4Helper.sol\":681:682  a */\n      dup10\n        /* \"contracts/ContractL/ContractLV4Helper.sol\":681:716  a |... */\n      or\n        /* \"contracts/ContractL/ContractLV4Helper.sol\":681:750  a |... */\n      or\n        /* \"contracts/ContractL/ContractLV4Helper.sol\":681:785  a |... */\n      or\n        /* \"contracts/ContractL/ContractLV4Helper.sol\":681:820  a |... */\n      or\n        /* \"contracts/ContractL/ContractLV4Helper.sol\":667:821  packedData = (a |... */\n      swap1\n      pop\n        /* \"contracts/ContractL/ContractLV4Helper.sol\":188:855  function packValues(... */\n      swap6\n      swap5\n      pop\n      pop\n      pop\n      pop\n      pop\n      jump\t// out\n        /* \"#utility.yul\":88:205   */\n    tag_27:\n        /* \"#utility.yul\":197:198   */\n      0x00\n        /* \"#utility.yul\":194:195   */\n      dup1\n        /* \"#utility.yul\":187:199   */\n      revert\n        /* \"#utility.yul\":334:411   */\n    tag_29:\n        /* \"#utility.yul\":371:378   */\n      0x00\n        /* \"#utility.yul\":400:405   */\n      dup2\n        /* \"#utility.yul\":389:405   */\n      swap1\n      pop\n        /* \"#utility.yul\":334:411   */\n      swap2\n      swap1\n      pop\n      jump\t// out\n        /* \"#utility.yul\":417:539   */\n    tag_30:\n        /* \"#utility.yul\":490:514   */\n      tag_50\n        /* \"#utility.yul\":508:513   */\n      dup2\n        /* \"#utility.yul\":490:514   */\n      tag_29\n      jump\t// in\n    tag_50:\n        /* \"#utility.yul\":483:488   */\n      dup2\n        /* \"#utility.yul\":480:515   */\n      eq\n        /* \"#utility.yul\":470:533   */\n      tag_51\n      jumpi\n        /* \"#utility.yul\":529:530   */\n      0x00\n        /* \"#utility.yul\":526:527   */\n      dup1\n        /* \"#utility.yul\":519:531   */\n      revert\n        /* \"#utility.yul\":470:533   */\n    tag_51:\n        /* \"#utility.yul\":417:539   */\n      pop\n      jump\t// out\n        /* \"#utility.yul\":545:684   */\n    tag_31:\n        /* \"#utility.yul\":591:596   */\n      0x00\n        /* \"#utility.yul\":629:635   */\n      dup2\n        /* \"#utility.yul\":616:636   */\n      calldataload\n        /* \"#utility.yul\":607:636   */\n      swap1\n      pop\n        /* \"#utility.yul\":645:678   */\n      tag_53\n        /* \"#utility.yul\":672:677   */\n      dup2\n        /* \"#utility.yul\":645:678   */\n      tag_30\n      jump\t// in\n    tag_53:\n        /* \"#utility.yul\":545:684   */\n      swap3\n      swap2\n      pop\n      pop\n      jump\t// out\n        /* \"#utility.yul\":690:1601   */\n    tag_6:\n        /* \"#utility.yul\":785:791   */\n      0x00\n        /* \"#utility.yul\":793:799   */\n      dup1\n        /* \"#utility.yul\":801:807   */\n      0x00\n        /* \"#utility.yul\":809:815   */\n      dup1\n        /* \"#utility.yul\":817:823   */\n      0x00\n        /* \"#utility.yul\":866:869   */\n      0xa0\n        /* \"#utility.yul\":854:863   */\n      dup7\n        /* \"#utility.yul\":845:852   */\n      dup9\n        /* \"#utility.yul\":841:864   */\n      sub\n        /* \"#utility.yul\":837:870   */\n      slt\n        /* \"#utility.yul\":834:954   */\n      iszero\n      tag_55\n      jumpi\n        /* \"#utility.yul\":873:952   */\n      tag_56\n      tag_27\n      jump\t// in\n    tag_56:\n        /* \"#utility.yul\":834:954   */\n    tag_55:\n        /* \"#utility.yul\":993:994   */\n      0x00\n        /* \"#utility.yul\":1018:1071   */\n      tag_57\n        /* \"#utility.yul\":1063:1070   */\n      dup9\n        /* \"#utility.yul\":1054:1060   */\n      dup3\n        /* \"#utility.yul\":1043:1052   */\n      dup10\n        /* \"#utility.yul\":1039:1061   */\n      add\n        /* \"#utility.yul\":1018:1071   */\n      tag_31\n      jump\t// in\n    tag_57:\n        /* \"#utility.yul\":1008:1071   */\n      swap6\n      pop\n        /* \"#utility.yul\":964:1081   */\n      pop\n        /* \"#utility.yul\":1120:1122   */\n      0x20\n        /* \"#utility.yul\":1146:1199   */\n      tag_58\n        /* \"#utility.yul\":1191:1198   */\n      dup9\n        /* \"#utility.yul\":1182:1188   */\n      dup3\n        /* \"#utility.yul\":1171:1180   */\n      dup10\n        /* \"#utility.yul\":1167:1189   */\n      add\n        /* \"#utility.yul\":1146:1199   */\n      tag_31\n      jump\t// in\n    tag_58:\n        /* \"#utility.yul\":1136:1199   */\n      swap5\n      pop\n        /* \"#utility.yul\":1091:1209   */\n      pop\n        /* \"#utility.yul\":1248:1250   */\n      0x40\n        /* \"#utility.yul\":1274:1327   */\n      tag_59\n        /* \"#utility.yul\":1319:1326   */\n      dup9\n        /* \"#utility.yul\":1310:1316   */\n      dup3\n        /* \"#utility.yul\":1299:1308   */\n      dup10\n        /* \"#utility.yul\":1295:1317   */\n      add\n        /* \"#utility.yul\":1274:1327   */\n      tag_31\n      jump\t// in\n    tag_59:\n        /* \"#utility.yul\":1264:1327   */\n      swap4\n      pop\n        /* \"#utility.yul\":1219:1337   */\n      pop\n        /* \"#utility.yul\":1376:1378   */\n      0x60\n        /* \"#utility.yul\":1402:1455   */\n      tag_60\n        /* \"#utility.yul\":1447:1454   */\n      dup9\n        /* \"#utility.yul\":1438:1444   */\n      dup3\n        /* \"#utility.yul\":1427:1436   */\n      dup10\n        /* \"#utility.yul\":1423:1445   */\n      add\n        /* \"#utility.yul\":1402:1455   */\n      tag_31\n      jump\t// in\n    tag_60:\n        /* \"#utility.yul\":1392:1455   */\n      swap3\n      pop\n        /* \"#utility.yul\":1347:1465   */\n      pop\n        /* \"#utility.yul\":1504:1507   */\n      0x80\n        /* \"#utility.yul\":1531:1584   */\n      tag_61\n        /* \"#utility.yul\":1576:1583   */\n      dup9\n        /* \"#utility.yul\":1567:1573   */\n      dup3\n        /* \"#utility.yul\":1556:1565   */\n      dup10\n        /* \"#utility.yul\":1552:1574   */\n      add\n        /* \"#utility.yul\":1531:1584   */\n      tag_31\n      jump\t// in\n    tag_61:\n        /* \"#utility.yul\":1521:1584   */\n      swap2\n      pop\n        /* \"#utility.yul\":1475:1594   */\n      pop\n        /* \"#utility.yul\":690:1601   */\n      swap3\n      swap6\n      pop\n      swap3\n      swap6\n      swap1\n      swap4\n      pop\n      jump\t// out\n        /* \"#utility.yul\":1607:1725   */\n    tag_32:\n        /* \"#utility.yul\":1694:1718   */\n      tag_63\n        /* \"#utility.yul\":1712:1717   */\n      dup2\n        /* \"#utility.yul\":1694:1718   */\n      tag_29\n      jump\t// in\n    tag_63:\n        /* \"#utility.yul\":1689:1692   */\n      dup3\n        /* \"#utility.yul\":1682:1719   */\n      mstore\n        /* \"#utility.yul\":1607:1725   */\n      pop\n      pop\n      jump\t// out\n        /* \"#utility.yul\":1731:1953   */\n    tag_9:\n        /* \"#utility.yul\":1824:1828   */\n      0x00\n        /* \"#utility.yul\":1862:1864   */\n      0x20\n        /* \"#utility.yul\":1851:1860   */\n      dup3\n        /* \"#utility.yul\":1847:1865   */\n      add\n        /* \"#utility.yul\":1839:1865   */\n      swap1\n      pop\n        /* \"#utility.yul\":1875:1946   */\n      tag_65\n        /* \"#utility.yul\":1943:1944   */\n      0x00\n        /* \"#utility.yul\":1932:1941   */\n      dup4\n        /* \"#utility.yul\":1928:1945   */\n      add\n        /* \"#utility.yul\":1919:1925   */\n      dup5\n        /* \"#utility.yul\":1875:1946   */\n      tag_32\n      jump\t// in\n    tag_65:\n        /* \"#utility.yul\":1731:1953   */\n      swap3\n      swap2\n      pop\n      pop\n      jump\t// out\n        /* \"#utility.yul\":1959:2128   */\n    tag_33:\n        /* \"#utility.yul\":2043:2054   */\n      0x00\n        /* \"#utility.yul\":2077:2083   */\n      dup3\n        /* \"#utility.yul\":2072:2075   */\n      dup3\n        /* \"#utility.yul\":2065:2084   */\n      mstore\n        /* \"#utility.yul\":2117:2121   */\n      0x20\n        /* \"#utility.yul\":2112:2115   */\n      dup3\n        /* \"#utility.yul\":2108:2122   */\n      add\n        /* \"#utility.yul\":2093:2122   */\n      swap1\n      pop\n        /* \"#utility.yul\":1959:2128   */\n      swap3\n      swap2\n      pop\n      pop\n      jump\t// out\n        /* \"#utility.yul\":2134:2309   */\n    tag_34:\n        /* \"#utility.yul\":2274:2301   */\n      0x6120646f6573206e6f742066697420696e203438206269747300000000000000\n        /* \"#utility.yul\":2270:2271   */\n      0x00\n        /* \"#utility.yul\":2262:2268   */\n      dup3\n        /* \"#utility.yul\":2258:2272   */\n      add\n        /* \"#utility.yul\":2251:2302   */\n      mstore\n        /* \"#utility.yul\":2134:2309   */\n      pop\n      jump\t// out\n        /* \"#utility.yul\":2315:2681   */\n    tag_35:\n        /* \"#utility.yul\":2457:2460   */\n      0x00\n        /* \"#utility.yul\":2478:2545   */\n      tag_69\n        /* \"#utility.yul\":2542:2544   */\n      0x19\n        /* \"#utility.yul\":2537:2540   */\n      dup4\n        /* \"#utility.yul\":2478:2545   */\n      tag_33\n      jump\t// in\n    tag_69:\n        /* \"#utility.yul\":2471:2545   */\n      swap2\n      pop\n        /* \"#utility.yul\":2554:2647   */\n      tag_70\n        /* \"#utility.yul\":2643:2646   */\n      dup3\n        /* \"#utility.yul\":2554:2647   */\n      tag_34\n      jump\t// in\n    tag_70:\n        /* \"#utility.yul\":2672:2674   */\n      0x20\n        /* \"#utility.yul\":2667:2670   */\n      dup3\n        /* \"#utility.yul\":2663:2675   */\n      add\n        /* \"#utility.yul\":2656:2675   */\n      swap1\n      pop\n        /* \"#utility.yul\":2315:2681   */\n      swap2\n      swap1\n      pop\n      jump\t// out\n        /* \"#utility.yul\":2687:3106   */\n    tag_13:\n        /* \"#utility.yul\":2853:2857   */\n      0x00\n        /* \"#utility.yul\":2891:2893   */\n      0x20\n        /* \"#utility.yul\":2880:2889   */\n      dup3\n        /* \"#utility.yul\":2876:2894   */\n      add\n        /* \"#utility.yul\":2868:2894   */\n      swap1\n      pop\n        /* \"#utility.yul\":2940:2949   */\n      dup2\n        /* \"#utility.yul\":2934:2938   */\n      dup2\n        /* \"#utility.yul\":2930:2950   */\n      sub\n        /* \"#utility.yul\":2926:2927   */\n      0x00\n        /* \"#utility.yul\":2915:2924   */\n      dup4\n        /* \"#utility.yul\":2911:2928   */\n      add\n        /* \"#utility.yul\":2904:2951   */\n      mstore\n        /* \"#utility.yul\":2968:3099   */\n      tag_72\n        /* \"#utility.yul\":3094:3098   */\n      dup2\n        /* \"#utility.yul\":2968:3099   */\n      tag_35\n      jump\t// in\n    tag_72:\n        /* \"#utility.yul\":2960:3099   */\n      swap1\n      pop\n        /* \"#utility.yul\":2687:3106   */\n      swap2\n      swap1\n      pop\n      jump\t// out\n        /* \"#utility.yul\":3112:3287   */\n    tag_36:\n        /* \"#utility.yul\":3252:3279   */\n      0x6220646f6573206e6f742066697420696e203438206269747300000000000000\n        /* \"#utility.yul\":3248:3249   */\n      0x00\n        /* \"#utility.yul\":3240:3246   */\n      dup3\n        /* \"#utility.yul\":3236:3250   */\n      add\n        /* \"#utility.yul\":3229:3280   */\n      mstore\n        /* \"#utility.yul\":3112:3287   */\n      pop\n      jump\t// out\n        /* \"#utility.yul\":3293:3659   */\n    tag_37:\n        /* \"#utility.yul\":3435:3438   */\n      0x00\n        /* \"#utility.yul\":3456:3523   */\n      tag_75\n        /* \"#utility.yul\":3520:3522   */\n      0x19\n        /* \"#utility.yul\":3515:3518   */\n      dup4\n        /* \"#utility.yul\":3456:3523   */\n      tag_33\n      jump\t// in\n    tag_75:\n        /* \"#utility.yul\":3449:3523   */\n      swap2\n      pop\n        /* \"#utility.yul\":3532:3625   */\n      tag_76\n        /* \"#utility.yul\":3621:3624   */\n      dup3\n        /* \"#utility.yul\":3532:3625   */\n      tag_36\n      jump\t// in\n    tag_76:\n        /* \"#utility.yul\":3650:3652   */\n      0x20\n        /* \"#utility.yul\":3645:3648   */\n      dup3\n        /* \"#utility.yul\":3641:3653   */\n      add\n        /* \"#utility.yul\":3634:3653   */\n      swap1\n      pop\n        /* \"#utility.yul\":3293:3659   */\n      swap2\n      swap1\n      pop\n      jump\t// out\n        /* \"#utility.yul\":3665:4084   */\n    tag_16:\n        /* \"#utility.yul\":3831:3835   */\n      0x00\n        /* \"#utility.yul\":3869:3871   */\n      0x20\n        /* \"#utility.yul\":3858:3867   */\n      dup3\n        /* \"#utility.yul\":3854:3872   */\n      add\n        /* \"#utility.yul\":3846:3872   */\n      swap1\n      pop\n        /* \"#utility.yul\":3918:3927   */\n      dup2\n        /* \"#utility.yul\":3912:3916   */\n      dup2\n        /* \"#utility.yul\":3908:3928   */\n      sub\n        /* \"#utility.yul\":3904:3905   */\n      0x00\n        /* \"#utility.yul\":3893:3902   */\n      dup4\n        /* \"#utility.yul\":3889:3906   */\n      add\n        /* \"#utility.yul\":3882:3929   */\n      mstore\n        /* \"#utility.yul\":3946:4077   */\n      tag_78\n        /* \"#utility.yul\":4072:4076   */\n      dup2\n        /* \"#utility.yul\":3946:4077   */\n      tag_37\n      jump\t// in\n    tag_78:\n        /* \"#utility.yul\":3938:4077   */\n      swap1\n      pop\n        /* \"#utility.yul\":3665:4084   */\n      swap2\n      swap1\n      pop\n      jump\t// out\n        /* \"#utility.yul\":4090:4265   */\n    tag_38:\n        /* \"#utility.yul\":4230:4257   */\n      0x6320646f6573206e6f742066697420696e203438206269747300000000000000\n        /* \"#utility.yul\":4226:4227   */\n      0x00\n        /* \"#utility.yul\":4218:4224   */\n      dup3\n        /* \"#utility.yul\":4214:4228   */\n      add\n        /* \"#utility.yul\":4207:4258   */\n      mstore\n        /* \"#utility.yul\":4090:4265   */\n      pop\n      jump\t// out\n        /* \"#utility.yul\":4271:4637   */\n    tag_39:\n        /* \"#utility.yul\":4413:4416   */\n      0x00\n        /* \"#utility.yul\":4434:4501   */\n      tag_81\n        /* \"#utility.yul\":4498:4500   */\n      0x19\n        /* \"#utility.yul\":4493:4496   */\n      dup4\n        /* \"#utility.yul\":4434:4501   */\n      tag_33\n      jump\t// in\n    tag_81:\n        /* \"#utility.yul\":4427:4501   */\n      swap2\n      pop\n        /* \"#utility.yul\":4510:4603   */\n      tag_82\n        /* \"#utility.yul\":4599:4602   */\n      dup3\n        /* \"#utility.yul\":4510:4603   */\n      tag_38\n      jump\t// in\n    tag_82:\n        /* \"#utility.yul\":4628:4630   */\n      0x20\n        /* \"#utility.yul\":4623:4626   */\n      dup3\n        /* \"#utility.yul\":4619:4631   */\n      add\n        /* \"#utility.yul\":4612:4631   */\n      swap1\n      pop\n        /* \"#utility.yul\":4271:4637   */\n      swap2\n      swap1\n      pop\n      jump\t// out\n        /* \"#utility.yul\":4643:5062   */\n    tag_19:\n        /* \"#utility.yul\":4809:4813   */\n      0x00\n        /* \"#utility.yul\":4847:4849   */\n      0x20\n        /* \"#utility.yul\":4836:4845   */\n      dup3\n        /* \"#utility.yul\":4832:4850   */\n      add\n        /* \"#utility.yul\":4824:4850   */\n      swap1\n      pop\n        /* \"#utility.yul\":4896:4905   */\n      dup2\n        /* \"#utility.yul\":4890:4894   */\n      dup2\n        /* \"#utility.yul\":4886:4906   */\n      sub\n        /* \"#utility.yul\":4882:4883   */\n      0x00\n        /* \"#utility.yul\":4871:4880   */\n      dup4\n        /* \"#utility.yul\":4867:4884   */\n      add\n        /* \"#utility.yul\":4860:4907   */\n      mstore\n        /* \"#utility.yul\":4924:5055   */\n      tag_84\n        /* \"#utility.yul\":5050:5054   */\n      dup2\n        /* \"#utility.yul\":4924:5055   */\n      tag_39\n      jump\t// in\n    tag_84:\n        /* \"#utility.yul\":4916:5055   */\n      swap1\n      pop\n        /* \"#utility.yul\":4643:5062   */\n      swap2\n      swap1\n      pop\n      jump\t// out\n        /* \"#utility.yul\":5068:5243   */\n    tag_40:\n        /* \"#utility.yul\":5208:5235   */\n      0x6420646f6573206e6f742066697420696e203438206269747300000000000000\n        /* \"#utility.yul\":5204:5205   */\n      0x00\n        /* \"#utility.yul\":5196:5202   */\n      dup3\n        /* \"#utility.yul\":5192:5206   */\n      add\n        /* \"#utility.yul\":5185:5236   */\n      mstore\n        /* \"#utility.yul\":5068:5243   */\n      pop\n      jump\t// out\n        /* \"#utility.yul\":5249:5615   */\n    tag_41:\n        /* \"#utility.yul\":5391:5394   */\n      0x00\n        /* \"#utility.yul\":5412:5479   */\n      tag_87\n        /* \"#utility.yul\":5476:5478   */\n      0x19\n        /* \"#utility.yul\":5471:5474   */\n      dup4\n        /* \"#utility.yul\":5412:5479   */\n      tag_33\n      jump\t// in\n    tag_87:\n        /* \"#utility.yul\":5405:5479   */\n      swap2\n      pop\n        /* \"#utility.yul\":5488:5581   */\n      tag_88\n        /* \"#utility.yul\":5577:5580   */\n      dup3\n        /* \"#utility.yul\":5488:5581   */\n      tag_40\n      jump\t// in\n    tag_88:\n        /* \"#utility.yul\":5606:5608   */\n      0x20\n        /* \"#utility.yul\":5601:5604   */\n      dup3\n        /* \"#utility.yul\":5597:5609   */\n      add\n        /* \"#utility.yul\":5590:5609   */\n      swap1\n      pop\n        /* \"#utility.yul\":5249:5615   */\n      swap2\n      swap1\n      pop\n      jump\t// out\n        /* \"#utility.yul\":5621:6040   */\n    tag_22:\n        /* \"#utility.yul\":5787:5791   */\n      0x00\n        /* \"#utility.yul\":5825:5827   */\n      0x20\n        /* \"#utility.yul\":5814:5823   */\n      dup3\n        /* \"#utility.yul\":5810:5828   */\n      add\n        /* \"#utility.yul\":5802:5828   */\n      swap1\n      pop\n        /* \"#utility.yul\":5874:5883   */\n      dup2\n        /* \"#utility.yul\":5868:5872   */\n      dup2\n        /* \"#utility.yul\":5864:5884   */\n      sub\n        /* \"#utility.yul\":5860:5861   */\n      0x00\n        /* \"#utility.yul\":5849:5858   */\n      dup4\n        /* \"#utility.yul\":5845:5862   */\n      add\n        /* \"#utility.yul\":5838:5885   */\n      mstore\n        /* \"#utility.yul\":5902:6033   */\n      tag_90\n        /* \"#utility.yul\":6028:6032   */\n      dup2\n        /* \"#utility.yul\":5902:6033   */\n      tag_41\n      jump\t// in\n    tag_90:\n        /* \"#utility.yul\":5894:6033   */\n      swap1\n      pop\n        /* \"#utility.yul\":5621:6040   */\n      swap2\n      swap1\n      pop\n      jump\t// out\n        /* \"#utility.yul\":6046:6221   */\n    tag_42:\n        /* \"#utility.yul\":6186:6213   */\n      0x6520646f6573206e6f742066697420696e203634206269747300000000000000\n        /* \"#utility.yul\":6182:6183   */\n      0x00\n        /* \"#utility.yul\":6174:6180   */\n      dup3\n        /* \"#utility.yul\":6170:6184   */\n      add\n        /* \"#utility.yul\":6163:6214   */\n      mstore\n        /* \"#utility.yul\":6046:6221   */\n      pop\n      jump\t// out\n        /* \"#utility.yul\":6227:6593   */\n    tag_43:\n        /* \"#utility.yul\":6369:6372   */\n      0x00\n        /* \"#utility.yul\":6390:6457   */\n      tag_93\n        /* \"#utility.yul\":6454:6456   */\n      0x19\n        /* \"#utility.yul\":6449:6452   */\n      dup4\n        /* \"#utility.yul\":6390:6457   */\n      tag_33\n      jump\t// in\n    tag_93:\n        /* \"#utility.yul\":6383:6457   */\n      swap2\n      pop\n        /* \"#utility.yul\":6466:6559   */\n      tag_94\n        /* \"#utility.yul\":6555:6558   */\n      dup3\n        /* \"#utility.yul\":6466:6559   */\n      tag_42\n      jump\t// in\n    tag_94:\n        /* \"#utility.yul\":6584:6586   */\n      0x20\n        /* \"#utility.yul\":6579:6582   */\n      dup3\n        /* \"#utility.yul\":6575:6587   */\n      add\n        /* \"#utility.yul\":6568:6587   */\n      swap1\n      pop\n        /* \"#utility.yul\":6227:6593   */\n      swap2\n      swap1\n      pop\n      jump\t// out\n        /* \"#utility.yul\":6599:7018   */\n    tag_25:\n        /* \"#utility.yul\":6765:6769   */\n      0x00\n        /* \"#utility.yul\":6803:6805   */\n      0x20\n        /* \"#utility.yul\":6792:6801   */\n      dup3\n        /* \"#utility.yul\":6788:6806   */\n      add\n        /* \"#utility.yul\":6780:6806   */\n      swap1\n      pop\n        /* \"#utility.yul\":6852:6861   */\n      dup2\n        /* \"#utility.yul\":6846:6850   */\n      dup2\n        /* \"#utility.yul\":6842:6862   */\n      sub\n        /* \"#utility.yul\":6838:6839   */\n      0x00\n        /* \"#utility.yul\":6827:6836   */\n      dup4\n        /* \"#utility.yul\":6823:6840   */\n      add\n        /* \"#utility.yul\":6816:6863   */\n      mstore\n        /* \"#utility.yul\":6880:7011   */\n      tag_96\n        /* \"#utility.yul\":7006:7010   */\n      dup2\n        /* \"#utility.yul\":6880:7011   */\n      tag_43\n      jump\t// in\n    tag_96:\n        /* \"#utility.yul\":6872:7011   */\n      swap1\n      pop\n        /* \"#utility.yul\":6599:7018   */\n      swap2\n      swap1\n      pop\n      jump\t// out\n\n    auxdata: 0xa2646970667358221220b93b566ed37c97150d25b13292efc655c5f46ae1a019c324391c34e3464b471564736f6c63430008190033\n}\n",
				"bytecode": {
					"linkReferences": {},
					"object": "6080604052348015600e575f80fd5b506105158061001c5f395ff3fe608060405234801561000f575f80fd5b5060043610610029575f3560e01c80633ad0055b1461002d575b5f80fd5b61004760048036038101906100429190610228565b61005d565b60405161005491906102ae565b60405180910390f35b5f660100000000000086106100a7576040517f08c379a000000000000000000000000000000000000000000000000000000000815260040161009e90610321565b60405180910390fd5b660100000000000085106100f0576040517f08c379a00000000000000000000000000000000000000000000000000000000081526004016100e790610389565b60405180910390fd5b66010000000000008410610139576040517f08c379a0000000000000000000000000000000000000000000000000000000008152600401610130906103f1565b60405180910390fd5b66010000000000008310610182576040517f08c379a000000000000000000000000000000000000000000000000000000000815260040161017990610459565b60405180910390fd5b6801000000000000000082106101cd576040517f08c379a00000000000000000000000000000000000000000000000000000000081526004016101c4906104c1565b60405180910390fd5b60c082901b609084901b606086901b603088901b8917171717905095945050505050565b5f80fd5b5f819050919050565b610207816101f5565b8114610211575f80fd5b50565b5f81359050610222816101fe565b92915050565b5f805f805f60a08688031215610241576102406101f1565b5b5f61024e88828901610214565b955050602061025f88828901610214565b945050604061027088828901610214565b935050606061028188828901610214565b925050608061029288828901610214565b9150509295509295909350565b6102a8816101f5565b82525050565b5f6020820190506102c15f83018461029f565b92915050565b5f82825260208201905092915050565b7f6120646f6573206e6f742066697420696e2034382062697473000000000000005f82015250565b5f61030b6019836102c7565b9150610316826102d7565b602082019050919050565b5f6020820190508181035f830152610338816102ff565b9050919050565b7f6220646f6573206e6f742066697420696e2034382062697473000000000000005f82015250565b5f6103736019836102c7565b915061037e8261033f565b602082019050919050565b5f6020820190508181035f8301526103a081610367565b9050919050565b7f6320646f6573206e6f742066697420696e2034382062697473000000000000005f82015250565b5f6103db6019836102c7565b91506103e6826103a7565b602082019050919050565b5f6020820190508181035f830152610408816103cf565b9050919050565b7f6420646f6573206e6f742066697420696e2034382062697473000000000000005f82015250565b5f6104436019836102c7565b915061044e8261040f565b602082019050919050565b5f6020820190508181035f83015261047081610437565b9050919050565b7f6520646f6573206e6f742066697420696e2036342062697473000000000000005f82015250565b5f6104ab6019836102c7565b91506104b682610477565b602082019050919050565b5f6020820190508181035f8301526104d88161049f565b905091905056fea2646970667358221220b93b566ed37c97150d25b13292efc655c5f46ae1a019c324391c34e3464b471564736f6c63430008190033",
					"opcodes": "PUSH1 0x80 PUSH1 0x40 MSTORE CALLVALUE DUP1 ISZERO PUSH1 0xE JUMPI PUSH0 DUP1 REVERT JUMPDEST POP PUSH2 0x515 DUP1 PUSH2 0x1C PUSH0 CODECOPY PUSH0 RETURN INVALID PUSH1 0x80 PUSH1 0x40 MSTORE CALLVALUE DUP1 ISZERO PUSH2 0xF JUMPI PUSH0 DUP1 REVERT JUMPDEST POP PUSH1 0x4 CALLDATASIZE LT PUSH2 0x29 JUMPI PUSH0 CALLDATALOAD PUSH1 0xE0 SHR DUP1 PUSH4 0x3AD0055B EQ PUSH2 0x2D JUMPI JUMPDEST PUSH0 DUP1 REVERT JUMPDEST PUSH2 0x47 PUSH1 0x4 DUP1 CALLDATASIZE SUB DUP2 ADD SWAP1 PUSH2 0x42 SWAP2 SWAP1 PUSH2 0x228 JUMP JUMPDEST PUSH2 0x5D JUMP JUMPDEST PUSH1 0x40 MLOAD PUSH2 0x54 SWAP2 SWAP1 PUSH2 0x2AE JUMP JUMPDEST PUSH1 0x40 MLOAD DUP1 SWAP2 SUB SWAP1 RETURN JUMPDEST PUSH0 PUSH7 0x1000000000000 DUP7 LT PUSH2 0xA7 JUMPI PUSH1 0x40 MLOAD PUSH32 0x8C379A000000000000000000000000000000000000000000000000000000000 DUP2 MSTORE PUSH1 0x4 ADD PUSH2 0x9E SWAP1 PUSH2 0x321 JUMP JUMPDEST PUSH1 0x40 MLOAD DUP1 SWAP2 SUB SWAP1 REVERT JUMPDEST PUSH7 0x1000000000000 DUP6 LT PUSH2 0xF0 JUMPI PUSH1 0x40 MLOAD PUSH32 0x8C379A000000000000000000000000000000000000000000000000000000000 DUP2 MSTORE PUSH1 0x4 ADD PUSH2 0xE7 SWAP1 PUSH2 0x389 JUMP JUMPDEST PUSH1 0x40 MLOAD DUP1 SWAP2 SUB SWAP1 REVERT JUMPDEST PUSH7 0x1000000000000 DUP5 LT PUSH2 0x139 JUMPI PUSH1 0x40 MLOAD PUSH32 0x8C379A000000000000000000000000000000000000000000000000000000000 DUP2 MSTORE PUSH1 0x4 ADD PUSH2 0x130 SWAP1 PUSH2 0x3F1 JUMP JUMPDEST PUSH1 0x40 MLOAD DUP1 SWAP2 SUB SWAP1 REVERT JUMPDEST PUSH7 0x1000000000000 DUP4 LT PUSH2 0x182 JUMPI PUSH1 0x40 MLOAD PUSH32 0x8C379A000000000000000000000000000000000000000000000000000000000 DUP2 MSTORE PUSH1 0x4 ADD PUSH2 0x179 SWAP1 PUSH2 0x459 JUMP JUMPDEST PUSH1 0x40 MLOAD DUP1 SWAP2 SUB SWAP1 REVERT JUMPDEST PUSH9 0x10000000000000000 DUP3 LT PUSH2 0x1CD JUMPI PUSH1 0x40 MLOAD PUSH32 0x8C379A000000000000000000000000000000000000000000000000000000000 DUP2 MSTORE PUSH1 0x4 ADD PUSH2 0x1C4 SWAP1 PUSH2 0x4C1 JUMP JUMPDEST PUSH1 0x40 MLOAD DUP1 SWAP2 SUB SWAP1 REVERT JUMPDEST PUSH1 0xC0 DUP3 SWAP1 SHL PUSH1 0x90 DUP5 SWAP1 SHL PUSH1 0x60 DUP7 SWAP1 SHL PUSH1 0x30 DUP9 SWAP1 SHL DUP10 OR OR OR OR SWAP1 POP SWAP6 SWAP5 POP POP POP POP POP JUMP JUMPDEST PUSH0 DUP1 REVERT JUMPDEST PUSH0 DUP2 SWAP1 POP SWAP2 SWAP1 POP JUMP JUMPDEST PUSH2 0x207 DUP2 PUSH2 0x1F5 JUMP JUMPDEST DUP2 EQ PUSH2 0x211 JUMPI PUSH0 DUP1 REVERT JUMPDEST POP JUMP JUMPDEST PUSH0 DUP2 CALLDATALOAD SWAP1 POP PUSH2 0x222 DUP2 PUSH2 0x1FE JUMP JUMPDEST SWAP3 SWAP2 POP POP JUMP JUMPDEST PUSH0 DUP1 PUSH0 DUP1 PUSH0 PUSH1 0xA0 DUP7 DUP9 SUB SLT ISZERO PUSH2 0x241 JUMPI PUSH2 0x240 PUSH2 0x1F1 JUMP JUMPDEST JUMPDEST PUSH0 PUSH2 0x24E DUP9 DUP3 DUP10 ADD PUSH2 0x214 JUMP JUMPDEST SWAP6 POP POP PUSH1 0x20 PUSH2 0x25F DUP9 DUP3 DUP10 ADD PUSH2 0x214 JUMP JUMPDEST SWAP5 POP POP PUSH1 0x40 PUSH2 0x270 DUP9 DUP3 DUP10 ADD PUSH2 0x214 JUMP JUMPDEST SWAP4 POP POP PUSH1 0x60 PUSH2 0x281 DUP9 DUP3 DUP10 ADD PUSH2 0x214 JUMP JUMPDEST SWAP3 POP POP PUSH1 0x80 PUSH2 0x292 DUP9 DUP3 DUP10 ADD PUSH2 0x214 JUMP JUMPDEST SWAP2 POP POP SWAP3 SWAP6 POP SWAP3 SWAP6 SWAP1 SWAP4 POP JUMP JUMPDEST PUSH2 0x2A8 DUP2 PUSH2 0x1F5 JUMP JUMPDEST DUP3 MSTORE POP POP JUMP JUMPDEST PUSH0 PUSH1 0x20 DUP3 ADD SWAP1 POP PUSH2 0x2C1 PUSH0 DUP4 ADD DUP5 PUSH2 0x29F JUMP JUMPDEST SWAP3 SWAP2 POP POP JUMP JUMPDEST PUSH0 DUP3 DUP3 MSTORE PUSH1 0x20 DUP3 ADD SWAP1 POP SWAP3 SWAP2 POP POP JUMP JUMPDEST PUSH32 0x6120646F6573206E6F742066697420696E203438206269747300000000000000 PUSH0 DUP3 ADD MSTORE POP JUMP JUMPDEST PUSH0 PUSH2 0x30B PUSH1 0x19 DUP4 PUSH2 0x2C7 JUMP JUMPDEST SWAP2 POP PUSH2 0x316 DUP3 PUSH2 0x2D7 JUMP JUMPDEST PUSH1 0x20 DUP3 ADD SWAP1 POP SWAP2 SWAP1 POP JUMP JUMPDEST PUSH0 PUSH1 0x20 DUP3 ADD SWAP1 POP DUP2 DUP2 SUB PUSH0 DUP4 ADD MSTORE PUSH2 0x338 DUP2 PUSH2 0x2FF JUMP JUMPDEST SWAP1 POP SWAP2 SWAP1 POP JUMP JUMPDEST PUSH32 0x6220646F6573206E6F742066697420696E203438206269747300000000000000 PUSH0 DUP3 ADD MSTORE POP JUMP JUMPDEST PUSH0 PUSH2 0x373 PUSH1 0x19 DUP4 PUSH2 0x2C7 JUMP JUMPDEST SWAP2 POP PUSH2 0x37E DUP3 PUSH2 0x33F JUMP JUMPDEST PUSH1 0x20 DUP3 ADD SWAP1 POP SWAP2 SWAP1 POP JUMP JUMPDEST PUSH0 PUSH1 0x20 DUP3 ADD SWAP1 POP DUP2 DUP2 SUB PUSH0 DUP4 ADD MSTORE PUSH2 0x3A0 DUP2 PUSH2 0x367 JUMP JUMPDEST SWAP1 POP SWAP2 SWAP1 POP JUMP JUMPDEST PUSH32 0x6320646F6573206E6F742066697420696E203438206269747300000000000000 PUSH0 DUP3 ADD MSTORE POP JUMP JUMPDEST PUSH0 PUSH2 0x3DB PUSH1 0x19 DUP4 PUSH2 0x2C7 JUMP JUMPDEST SWAP2 POP PUSH2 0x3E6 DUP3 PUSH2 0x3A7 JUMP JUMPDEST PUSH1 0x20 DUP3 ADD SWAP1 POP SWAP2 SWAP1 POP JUMP JUMPDEST PUSH0 PUSH1 0x20 DUP3 ADD SWAP1 POP DUP2 DUP2 SUB PUSH0 DUP4 ADD MSTORE PUSH2 0x408 DUP2 PUSH2 0x3CF JUMP JUMPDEST SWAP1 POP SWAP2 SWAP1 POP JUMP JUMPDEST PUSH32 0x6420646F6573206E6F742066697420696E203438206269747300000000000000 PUSH0 DUP3 ADD MSTORE POP JUMP JUMPDEST PUSH0 PUSH2 0x443 PUSH1 0x19 DUP4 PUSH2 0x2C7 JUMP JUMPDEST SWAP2 POP PUSH2 0x44E DUP3 PUSH2 0x40F JUMP JUMPDEST PUSH1 0x20 DUP3 ADD SWAP1 POP SWAP2 SWAP1 POP JUMP JUMPDEST PUSH0 PUSH1 0x20 DUP3 ADD SWAP1 POP DUP2 DUP2 SUB PUSH0 DUP4 ADD MSTORE PUSH2 0x470 DUP2 PUSH2 0x437 JUMP JUMPDEST SWAP1 POP SWAP2 SWAP1 POP JUMP JUMPDEST PUSH32 0x6520646F6573206E6F742066697420696E203634206269747300000000000000 PUSH0 DUP3 ADD MSTORE POP JUMP JUMPDEST PUSH0 PUSH2 0x4AB PUSH1 0x19 DUP4 PUSH2 0x2C7 JUMP JUMPDEST SWAP2 POP PUSH2 0x4B6 DUP3 PUSH2 0x477 JUMP JUMPDEST PUSH1 0x20 DUP3 ADD SWAP1 POP SWAP2 SWAP1 POP JUMP JUMPDEST PUSH0 PUSH1 0x20 DUP3 ADD SWAP1 POP DUP2 DUP2 SUB PUSH0 DUP4 ADD MSTORE PUSH2 0x4D8 DUP2 PUSH2 0x49F JUMP JUMPDEST SWAP1 POP SWAP2 SWAP1 POP JUMP INVALID LOG2 PUSH5 0x6970667358 0x22 SLT KECCAK256 0xB9 EXTCODESIZE JUMP PUSH15 0xD37C97150D25B13292EFC655C5F46A 0xE1 LOG0 NOT 0xC3 0x24 CODECOPY SHR CALLVALUE 0xE3 CHAINID 0x4B SELFBALANCE ISZERO PUSH5 0x736F6C6343 STOP ADDMOD NOT STOP CALLER "
				},
				"gasEstimates": {
					"creation": {
						"codeDepositCost": "260200",
						"executionCost": "298",
						"totalCost": "260498"
					},
					"external": {
						"packValues(uint256,uint256,uint256,uint256,uint256)": "infinite"
					}
				},
				"methodIdentifiers": {
					"packValues(uint256,uint256,uint256,uint256,uint256)": "3ad0055b"
				}
			},
			"storageLayout": {
				"storage": [],
				"types": null
			},
			"userdoc": {
				"kind": "user",
				"methods": {},
				"version": 1
			}
		}
	}
}