{
	"contracts/ContractL/ContractLV4.sol": {
		"ContractLV4": {
			"abi": [
				{
					"inputs": [
						{
							"internalType": "uint256",
							"name": "packedData",
							"type": "uint256"
						}
					],
					"name": "sum",
					"outputs": [
						{
							"internalType": "uint256",
							"name": "total",
							"type": "uint256"
						}
					],
					"stateMutability": "pure",
					"type": "function"
				}
			],
			"devdoc": {
				"kind": "dev",
				"methods": {},
				"version": 1
			},
			"evm": {
				"assembly": "    /* \"contracts/ContractL/ContractLV4.sol\":63:701  contract ContractLV4 {... */\n  mstore(0x40, 0x80)\n  callvalue\n  dup1\n  iszero\n  tag_1\n  jumpi\n  0x00\n  dup1\n  revert\ntag_1:\n  pop\n  dataSize(sub_0)\n  dup1\n  dataOffset(sub_0)\n  0x00\n  codecopy\n  0x00\n  return\nstop\n\nsub_0: assembly {\n        /* \"contracts/ContractL/ContractLV4.sol\":63:701  contract ContractLV4 {... */\n      mstore(0x40, 0x80)\n      callvalue\n      dup1\n      iszero\n      tag_1\n      jumpi\n      0x00\n      dup1\n      revert\n    tag_1:\n      pop\n      jumpi(tag_2, lt(calldatasize, 0x04))\n      shr(0xe0, calldataload(0x00))\n      dup1\n      0x188b85b4\n      eq\n      tag_3\n      jumpi\n    tag_2:\n      0x00\n      dup1\n      revert\n        /* \"contracts/ContractL/ContractLV4.sol\":91:698  function sum(uint256 packedData) public pure returns (uint256 total) {... */\n    tag_3:\n      tag_4\n      tag_5\n      calldatasize\n      0x04\n      tag_6\n      jump\t// in\n    tag_5:\n      tag_7\n      jump\t// in\n    tag_4:\n      mload(0x40)\n        /* \"#utility.yul\":345:370   */\n      swap1\n      dup2\n      mstore\n        /* \"#utility.yul\":333:335   */\n      0x20\n        /* \"#utility.yul\":318:336   */\n      add\n        /* \"contracts/ContractL/ContractLV4.sol\":91:698  function sum(uint256 packedData) public pure returns (uint256 total) {... */\n      mload(0x40)\n      dup1\n      swap2\n      sub\n      swap1\n      return\n    tag_7:\n        /* \"contracts/ContractL/ContractLV4.sol\":145:158  uint256 total */\n      0x00\n        /* \"contracts/ContractL/ContractLV4.sol\":674:677  192 */\n      0xc0\n        /* \"contracts/ContractL/ContractLV4.sol\":660:670  packedData */\n      dup3\n        /* \"contracts/ContractL/ContractLV4.sol\":660:677  packedData >> 192 */\n      swap1\n      shr\n        /* \"contracts/ContractL/ContractLV4.sol\":606:609  144 */\n      0x90\n        /* \"contracts/ContractL/ContractLV4.sol\":592:602  packedData */\n      dup4\n        /* \"contracts/ContractL/ContractLV4.sol\":592:609  packedData >> 144 */\n      swap1\n      shr\n        /* \"contracts/ContractL/ContractLV4.sol\":614:627  (1 << 48) - 1 */\n      0xffffffffffff\n        /* \"contracts/ContractL/ContractLV4.sol\":591:628  (packedData >> 144) & ((1 << 48) - 1) */\n      and\n        /* \"contracts/ContractL/ContractLV4.sol\":540:542  96 */\n      0x60\n        /* \"contracts/ContractL/ContractLV4.sol\":526:536  packedData */\n      dup5\n        /* \"contracts/ContractL/ContractLV4.sol\":526:542  packedData >> 96 */\n      swap1\n      shr\n        /* \"contracts/ContractL/ContractLV4.sol\":547:560  (1 << 48) - 1 */\n      0xffffffffffff\n        /* \"contracts/ContractL/ContractLV4.sol\":525:561  (packedData >> 96) & ((1 << 48) - 1) */\n      and\n        /* \"contracts/ContractL/ContractLV4.sol\":472:474  48 */\n      0x30\n        /* \"contracts/ContractL/ContractLV4.sol\":458:468  packedData */\n      dup6\n        /* \"contracts/ContractL/ContractLV4.sol\":458:474  packedData >> 48 */\n      swap1\n      shr\n        /* \"contracts/ContractL/ContractLV4.sol\":479:492  (1 << 48) - 1 */\n      0xffffffffffff\n        /* \"contracts/ContractL/ContractLV4.sol\":457:493  (packedData >> 48) & ((1 << 48) - 1) */\n      and\n        /* \"contracts/ContractL/ContractLV4.sol\":388:398  packedData */\n      dup6\n        /* \"contracts/ContractL/ContractLV4.sol\":402:415  (1 << 48) - 1 */\n      0xffffffffffff\n        /* \"contracts/ContractL/ContractLV4.sol\":388:416  packedData & ((1 << 48) - 1) */\n      and\n        /* \"contracts/ContractL/ContractLV4.sol\":387:494  (packedData & ((1 << 48) - 1)) +                   ... */\n      tag_11\n      swap2\n      swap1\n      tag_12\n      jump\t// in\n    tag_11:\n        /* \"contracts/ContractL/ContractLV4.sol\":387:562  (packedData & ((1 << 48) - 1)) +                   ... */\n      tag_13\n      swap2\n      swap1\n      tag_12\n      jump\t// in\n    tag_13:\n        /* \"contracts/ContractL/ContractLV4.sol\":387:629  (packedData & ((1 << 48) - 1)) +                   ... */\n      tag_14\n      swap2\n      swap1\n      tag_12\n      jump\t// in\n    tag_14:\n        /* \"contracts/ContractL/ContractLV4.sol\":387:678  (packedData & ((1 << 48) - 1)) +                   ... */\n      tag_15\n      swap2\n      swap1\n      tag_12\n      jump\t// in\n    tag_15:\n        /* \"contracts/ContractL/ContractLV4.sol\":379:679  return ((packedData & ((1 << 48) - 1)) +                   ... */\n      swap3\n        /* \"contracts/ContractL/ContractLV4.sol\":91:698  function sum(uint256 packedData) public pure returns (uint256 total) {... */\n      swap2\n      pop\n      pop\n      jump\t// out\n        /* \"#utility.yul\":14:194   */\n    tag_6:\n        /* \"#utility.yul\":73:79   */\n      0x00\n        /* \"#utility.yul\":126:128   */\n      0x20\n        /* \"#utility.yul\":114:123   */\n      dup3\n        /* \"#utility.yul\":105:112   */\n      dup5\n        /* \"#utility.yul\":101:124   */\n      sub\n        /* \"#utility.yul\":97:129   */\n      slt\n        /* \"#utility.yul\":94:146   */\n      iszero\n      tag_18\n      jumpi\n        /* \"#utility.yul\":142:143   */\n      0x00\n        /* \"#utility.yul\":139:140   */\n      dup1\n        /* \"#utility.yul\":132:144   */\n      revert\n        /* \"#utility.yul\":94:146   */\n    tag_18:\n      pop\n        /* \"#utility.yul\":165:188   */\n      calldataload\n      swap2\n        /* \"#utility.yul\":14:194   */\n      swap1\n      pop\n      jump\t// out\n        /* \"#utility.yul\":381:660   */\n    tag_12:\n        /* \"#utility.yul\":446:455   */\n      dup1\n      dup3\n      add\n        /* \"#utility.yul\":467:477   */\n      dup1\n      dup3\n      gt\n        /* \"#utility.yul\":464:654   */\n      iszero\n      tag_15\n      jumpi\n        /* \"#utility.yul\":510:587   */\n      0x4e487b7100000000000000000000000000000000000000000000000000000000\n        /* \"#utility.yul\":507:508   */\n      0x00\n        /* \"#utility.yul\":500:588   */\n      mstore\n        /* \"#utility.yul\":611:615   */\n      0x11\n        /* \"#utility.yul\":608:609   */\n      0x04\n        /* \"#utility.yul\":601:616   */\n      mstore\n        /* \"#utility.yul\":639:643   */\n      0x24\n        /* \"#utility.yul\":636:637   */\n      0x00\n        /* \"#utility.yul\":629:644   */\n      revert\n\n    auxdata: 0xa2646970667358221220a946f82b93ddfb22df8f926d4ed28cd507756c02dec303b510fbcec977a20d2664736f6c63430008190033\n}\n",
				"bytecode": {
					"linkReferences": {},
					"object": "6080604052348015600e575f80fd5b5061012a8061001c5f395ff3fe6080604052348015600e575f80fd5b50600436106026575f3560e01c8063188b85b414602a575b5f80fd5b6039603536600460a7565b604b565b60405190815260200160405180910390f35b5f60c082901c609083901c65ffffffffffff16606084901c65ffffffffffff16603085901c65ffffffffffff168565ffffffffffff166089919060bd565b6091919060bd565b6099919060bd565b60a1919060bd565b92915050565b5f6020828403121560b6575f80fd5b5035919050565b8082018082111560a1577f4e487b71000000000000000000000000000000000000000000000000000000005f52601160045260245ffdfea2646970667358221220a946f82b93ddfb22df8f926d4ed28cd507756c02dec303b510fbcec977a20d2664736f6c63430008190033",
					"opcodes": "PUSH1 0x80 PUSH1 0x40 MSTORE CALLVALUE DUP1 ISZERO PUSH1 0xE JUMPI PUSH0 DUP1 REVERT JUMPDEST POP PUSH2 0x12A DUP1 PUSH2 0x1C PUSH0 CODECOPY PUSH0 RETURN INVALID PUSH1 0x80 PUSH1 0x40 MSTORE CALLVALUE DUP1 ISZERO PUSH1 0xE JUMPI PUSH0 DUP1 REVERT JUMPDEST POP PUSH1 0x4 CALLDATASIZE LT PUSH1 0x26 JUMPI PUSH0 CALLDATALOAD PUSH1 0xE0 SHR DUP1 PUSH4 0x188B85B4 EQ PUSH1 0x2A JUMPI JUMPDEST PUSH0 DUP1 REVERT JUMPDEST PUSH1 0x39 PUSH1 0x35 CALLDATASIZE PUSH1 0x4 PUSH1 0xA7 JUMP JUMPDEST PUSH1 0x4B JUMP JUMPDEST PUSH1 0x40 MLOAD SWAP1 DUP2 MSTORE PUSH1 0x20 ADD PUSH1 0x40 MLOAD DUP1 SWAP2 SUB SWAP1 RETURN JUMPDEST PUSH0 PUSH1 0xC0 DUP3 SWAP1 SHR PUSH1 0x90 DUP4 SWAP1 SHR PUSH6 0xFFFFFFFFFFFF AND PUSH1 0x60 DUP5 SWAP1 SHR PUSH6 0xFFFFFFFFFFFF AND PUSH1 0x30 DUP6 SWAP1 SHR PUSH6 0xFFFFFFFFFFFF AND DUP6 PUSH6 0xFFFFFFFFFFFF AND PUSH1 0x89 SWAP2 SWAP1 PUSH1 0xBD JUMP JUMPDEST PUSH1 0x91 SWAP2 SWAP1 PUSH1 0xBD JUMP JUMPDEST PUSH1 0x99 SWAP2 SWAP1 PUSH1 0xBD JUMP JUMPDEST PUSH1 0xA1 SWAP2 SWAP1 PUSH1 0xBD JUMP JUMPDEST SWAP3 SWAP2 POP POP JUMP JUMPDEST PUSH0 PUSH1 0x20 DUP3 DUP5 SUB SLT ISZERO PUSH1 0xB6 JUMPI PUSH0 DUP1 REVERT JUMPDEST POP CALLDATALOAD SWAP2 SWAP1 POP JUMP JUMPDEST DUP1 DUP3 ADD DUP1 DUP3 GT ISZERO PUSH1 0xA1 JUMPI PUSH32 0x4E487B7100000000000000000000000000000000000000000000000000000000 PUSH0 MSTORE PUSH1 0x11 PUSH1 0x4 MSTORE PUSH1 0x24 PUSH0 REVERT INVALID LOG2 PUSH5 0x6970667358 0x22 SLT KECCAK256 0xA9 CHAINID 0xF8 0x2B SWAP4 0xDD 0xFB 0x22 0xDF DUP16 SWAP3 PUSH14 0x4ED28CD507756C02DEC303B510FB 0xCE 0xC9 PUSH24 0xA20D2664736F6C6343000819003300000000000000000000 "
				},
				"gasEstimates": {
					"creation": {
						"codeDepositCost": "59600",
						"executionCost": "109",
						"totalCost": "59709"
					},
					"external": {
						"sum(uint256)": "infinite"
					}
				},
				"methodIdentifiers": {
					"sum(uint256)": "188b85b4"
				}
			},
			"storageLayout": {
				"storage": [],
				"types": null
			},
			"userdoc": {
				"kind": "user",
				"methods": {},
				"version": 1
			}
		}
	}
}