{
	"contracts/ContractL/ContractL1.sol": {
		"ContractLV1": {
			"abi": [
				{
					"inputs": [
						{
							"internalType": "uint256",
							"name": "a",
							"type": "uint256"
						},
						{
							"internalType": "uint256",
							"name": "b",
							"type": "uint256"
						},
						{
							"internalType": "uint256",
							"name": "c",
							"type": "uint256"
						},
						{
							"internalType": "uint256",
							"name": "d",
							"type": "uint256"
						},
						{
							"internalType": "uint256",
							"name": "e",
							"type": "uint256"
						}
					],
					"name": "sum",
					"outputs": [
						{
							"internalType": "uint256",
							"name": "",
							"type": "uint256"
						}
					],
					"stateMutability": "pure",
					"type": "function"
				}
			],
			"devdoc": {
				"kind": "dev",
				"methods": {},
				"version": 1
			},
			"evm": {
				"assembly": "    /* \"contracts/ContractL/ContractL1.sol\":63:289  contract ContractLV1 {... */\n  mstore(0x40, 0x80)\n  callvalue\n  dup1\n  iszero\n  tag_1\n  jumpi\n  0x00\n  dup1\n  revert\ntag_1:\n  pop\n  dataSize(sub_0)\n  dup1\n  dataOffset(sub_0)\n  0x00\n  codecopy\n  0x00\n  return\nstop\n\nsub_0: assembly {\n        /* \"contracts/ContractL/ContractL1.sol\":63:289  contract ContractLV1 {... */\n      mstore(0x40, 0x80)\n      callvalue\n      dup1\n      iszero\n      tag_1\n      jumpi\n      0x00\n      dup1\n      revert\n    tag_1:\n      pop\n      jumpi(tag_2, lt(calldatasize, 0x04))\n      shr(0xe0, calldataload(0x00))\n      dup1\n      0x9c163fe3\n      eq\n      tag_3\n      jumpi\n    tag_2:\n      0x00\n      dup1\n      revert\n        /* \"contracts/ContractL/ContractL1.sol\":91:286  function sum(... */\n    tag_3:\n      tag_4\n      0x04\n      dup1\n      calldatasize\n      sub\n      dup2\n      add\n      swap1\n      tag_5\n      swap2\n      swap1\n      tag_6\n      jump\t// in\n    tag_5:\n      tag_7\n      jump\t// in\n    tag_4:\n      mload(0x40)\n      tag_8\n      swap2\n      swap1\n      tag_9\n      jump\t// in\n    tag_8:\n      mload(0x40)\n      dup1\n      swap2\n      sub\n      swap1\n      return\n    tag_7:\n        /* \"contracts/ContractL/ContractL1.sol\":234:241  uint256 */\n      0x00\n        /* \"contracts/ContractL/ContractL1.sol\":277:278  e */\n      dup2\n        /* \"contracts/ContractL/ContractL1.sol\":273:274  d */\n      dup4\n        /* \"contracts/ContractL/ContractL1.sol\":269:270  c */\n      dup6\n        /* \"contracts/ContractL/ContractL1.sol\":265:266  b */\n      dup8\n        /* \"contracts/ContractL/ContractL1.sol\":261:262  a */\n      dup10\n        /* \"contracts/ContractL/ContractL1.sol\":261:266  a + b */\n      tag_11\n      swap2\n      swap1\n      tag_12\n      jump\t// in\n    tag_11:\n        /* \"contracts/ContractL/ContractL1.sol\":261:270  a + b + c */\n      tag_13\n      swap2\n      swap1\n      tag_12\n      jump\t// in\n    tag_13:\n        /* \"contracts/ContractL/ContractL1.sol\":261:274  a + b + c + d */\n      tag_14\n      swap2\n      swap1\n      tag_12\n      jump\t// in\n    tag_14:\n        /* \"contracts/ContractL/ContractL1.sol\":261:278  a + b + c + d + e */\n      tag_15\n      swap2\n      swap1\n      tag_12\n      jump\t// in\n    tag_15:\n        /* \"contracts/ContractL/ContractL1.sol\":254:278  return a + b + c + d + e */\n      swap1\n      pop\n        /* \"contracts/ContractL/ContractL1.sol\":91:286  function sum(... */\n      swap6\n      swap5\n      pop\n      pop\n      pop\n      pop\n      pop\n      jump\t// out\n        /* \"#utility.yul\":88:205   */\n    tag_17:\n        /* \"#utility.yul\":197:198   */\n      0x00\n        /* \"#utility.yul\":194:195   */\n      dup1\n        /* \"#utility.yul\":187:199   */\n      revert\n        /* \"#utility.yul\":334:411   */\n    tag_19:\n        /* \"#utility.yul\":371:378   */\n      0x00\n        /* \"#utility.yul\":400:405   */\n      dup2\n        /* \"#utility.yul\":389:405   */\n      swap1\n      pop\n        /* \"#utility.yul\":334:411   */\n      swap2\n      swap1\n      pop\n      jump\t// out\n        /* \"#utility.yul\":417:539   */\n    tag_20:\n        /* \"#utility.yul\":490:514   */\n      tag_30\n        /* \"#utility.yul\":508:513   */\n      dup2\n        /* \"#utility.yul\":490:514   */\n      tag_19\n      jump\t// in\n    tag_30:\n        /* \"#utility.yul\":483:488   */\n      dup2\n        /* \"#utility.yul\":480:515   */\n      eq\n        /* \"#utility.yul\":470:533   */\n      tag_31\n      jumpi\n        /* \"#utility.yul\":529:530   */\n      0x00\n        /* \"#utility.yul\":526:527   */\n      dup1\n        /* \"#utility.yul\":519:531   */\n      revert\n        /* \"#utility.yul\":470:533   */\n    tag_31:\n        /* \"#utility.yul\":417:539   */\n      pop\n      jump\t// out\n        /* \"#utility.yul\":545:684   */\n    tag_21:\n        /* \"#utility.yul\":591:596   */\n      0x00\n        /* \"#utility.yul\":629:635   */\n      dup2\n        /* \"#utility.yul\":616:636   */\n      calldataload\n        /* \"#utility.yul\":607:636   */\n      swap1\n      pop\n        /* \"#utility.yul\":645:678   */\n      tag_33\n        /* \"#utility.yul\":672:677   */\n      dup2\n        /* \"#utility.yul\":645:678   */\n      tag_20\n      jump\t// in\n    tag_33:\n        /* \"#utility.yul\":545:684   */\n      swap3\n      swap2\n      pop\n      pop\n      jump\t// out\n        /* \"#utility.yul\":690:1601   */\n    tag_6:\n        /* \"#utility.yul\":785:791   */\n      0x00\n        /* \"#utility.yul\":793:799   */\n      dup1\n        /* \"#utility.yul\":801:807   */\n      0x00\n        /* \"#utility.yul\":809:815   */\n      dup1\n        /* \"#utility.yul\":817:823   */\n      0x00\n        /* \"#utility.yul\":866:869   */\n      0xa0\n        /* \"#utility.yul\":854:863   */\n      dup7\n        /* \"#utility.yul\":845:852   */\n      dup9\n        /* \"#utility.yul\":841:864   */\n      sub\n        /* \"#utility.yul\":837:870   */\n      slt\n        /* \"#utility.yul\":834:954   */\n      iszero\n      tag_35\n      jumpi\n        /* \"#utility.yul\":873:952   */\n      tag_36\n      tag_17\n      jump\t// in\n    tag_36:\n        /* \"#utility.yul\":834:954   */\n    tag_35:\n        /* \"#utility.yul\":993:994   */\n      0x00\n        /* \"#utility.yul\":1018:1071   */\n      tag_37\n        /* \"#utility.yul\":1063:1070   */\n      dup9\n        /* \"#utility.yul\":1054:1060   */\n      dup3\n        /* \"#utility.yul\":1043:1052   */\n      dup10\n        /* \"#utility.yul\":1039:1061   */\n      add\n        /* \"#utility.yul\":1018:1071   */\n      tag_21\n      jump\t// in\n    tag_37:\n        /* \"#utility.yul\":1008:1071   */\n      swap6\n      pop\n        /* \"#utility.yul\":964:1081   */\n      pop\n        /* \"#utility.yul\":1120:1122   */\n      0x20\n        /* \"#utility.yul\":1146:1199   */\n      tag_38\n        /* \"#utility.yul\":1191:1198   */\n      dup9\n        /* \"#utility.yul\":1182:1188   */\n      dup3\n        /* \"#utility.yul\":1171:1180   */\n      dup10\n        /* \"#utility.yul\":1167:1189   */\n      add\n        /* \"#utility.yul\":1146:1199   */\n      tag_21\n      jump\t// in\n    tag_38:\n        /* \"#utility.yul\":1136:1199   */\n      swap5\n      pop\n        /* \"#utility.yul\":1091:1209   */\n      pop\n        /* \"#utility.yul\":1248:1250   */\n      0x40\n        /* \"#utility.yul\":1274:1327   */\n      tag_39\n        /* \"#utility.yul\":1319:1326   */\n      dup9\n        /* \"#utility.yul\":1310:1316   */\n      dup3\n        /* \"#utility.yul\":1299:1308   */\n      dup10\n        /* \"#utility.yul\":1295:1317   */\n      add\n        /* \"#utility.yul\":1274:1327   */\n      tag_21\n      jump\t// in\n    tag_39:\n        /* \"#utility.yul\":1264:1327   */\n      swap4\n      pop\n        /* \"#utility.yul\":1219:1337   */\n      pop\n        /* \"#utility.yul\":1376:1378   */\n      0x60\n        /* \"#utility.yul\":1402:1455   */\n      tag_40\n        /* \"#utility.yul\":1447:1454   */\n      dup9\n        /* \"#utility.yul\":1438:1444   */\n      dup3\n        /* \"#utility.yul\":1427:1436   */\n      dup10\n        /* \"#utility.yul\":1423:1445   */\n      add\n        /* \"#utility.yul\":1402:1455   */\n      tag_21\n      jump\t// in\n    tag_40:\n        /* \"#utility.yul\":1392:1455   */\n      swap3\n      pop\n        /* \"#utility.yul\":1347:1465   */\n      pop\n        /* \"#utility.yul\":1504:1507   */\n      0x80\n        /* \"#utility.yul\":1531:1584   */\n      tag_41\n        /* \"#utility.yul\":1576:1583   */\n      dup9\n        /* \"#utility.yul\":1567:1573   */\n      dup3\n        /* \"#utility.yul\":1556:1565   */\n      dup10\n        /* \"#utility.yul\":1552:1574   */\n      add\n        /* \"#utility.yul\":1531:1584   */\n      tag_21\n      jump\t// in\n    tag_41:\n        /* \"#utility.yul\":1521:1584   */\n      swap2\n      pop\n        /* \"#utility.yul\":1475:1594   */\n      pop\n        /* \"#utility.yul\":690:1601   */\n      swap3\n      swap6\n      pop\n      swap3\n      swap6\n      swap1\n      swap4\n      pop\n      jump\t// out\n        /* \"#utility.yul\":1607:1725   */\n    tag_22:\n        /* \"#utility.yul\":1694:1718   */\n      tag_43\n        /* \"#utility.yul\":1712:1717   */\n      dup2\n        /* \"#utility.yul\":1694:1718   */\n      tag_19\n      jump\t// in\n    tag_43:\n        /* \"#utility.yul\":1689:1692   */\n      dup3\n        /* \"#utility.yul\":1682:1719   */\n      mstore\n        /* \"#utility.yul\":1607:1725   */\n      pop\n      pop\n      jump\t// out\n        /* \"#utility.yul\":1731:1953   */\n    tag_9:\n        /* \"#utility.yul\":1824:1828   */\n      0x00\n        /* \"#utility.yul\":1862:1864   */\n      0x20\n        /* \"#utility.yul\":1851:1860   */\n      dup3\n        /* \"#utility.yul\":1847:1865   */\n      add\n        /* \"#utility.yul\":1839:1865   */\n      swap1\n      pop\n        /* \"#utility.yul\":1875:1946   */\n      tag_45\n        /* \"#utility.yul\":1943:1944   */\n      0x00\n        /* \"#utility.yul\":1932:1941   */\n      dup4\n        /* \"#utility.yul\":1928:1945   */\n      add\n        /* \"#utility.yul\":1919:1925   */\n      dup5\n        /* \"#utility.yul\":1875:1946   */\n      tag_22\n      jump\t// in\n    tag_45:\n        /* \"#utility.yul\":1731:1953   */\n      swap3\n      swap2\n      pop\n      pop\n      jump\t// out\n        /* \"#utility.yul\":1959:2139   */\n    tag_23:\n        /* \"#utility.yul\":2007:2084   */\n      0x4e487b7100000000000000000000000000000000000000000000000000000000\n        /* \"#utility.yul\":2004:2005   */\n      0x00\n        /* \"#utility.yul\":1997:2085   */\n      mstore\n        /* \"#utility.yul\":2104:2108   */\n      0x11\n        /* \"#utility.yul\":2101:2102   */\n      0x04\n        /* \"#utility.yul\":2094:2109   */\n      mstore\n        /* \"#utility.yul\":2128:2132   */\n      0x24\n        /* \"#utility.yul\":2125:2126   */\n      0x00\n        /* \"#utility.yul\":2118:2133   */\n      revert\n        /* \"#utility.yul\":2145:2336   */\n    tag_12:\n        /* \"#utility.yul\":2185:2188   */\n      0x00\n        /* \"#utility.yul\":2204:2224   */\n      tag_48\n        /* \"#utility.yul\":2222:2223   */\n      dup3\n        /* \"#utility.yul\":2204:2224   */\n      tag_19\n      jump\t// in\n    tag_48:\n        /* \"#utility.yul\":2199:2224   */\n      swap2\n      pop\n        /* \"#utility.yul\":2238:2258   */\n      tag_49\n        /* \"#utility.yul\":2256:2257   */\n      dup4\n        /* \"#utility.yul\":2238:2258   */\n      tag_19\n      jump\t// in\n    tag_49:\n        /* \"#utility.yul\":2233:2258   */\n      swap3\n      pop\n        /* \"#utility.yul\":2281:2282   */\n      dup3\n        /* \"#utility.yul\":2278:2279   */\n      dup3\n        /* \"#utility.yul\":2274:2283   */\n      add\n        /* \"#utility.yul\":2267:2283   */\n      swap1\n      pop\n        /* \"#utility.yul\":2302:2305   */\n      dup1\n        /* \"#utility.yul\":2299:2300   */\n      dup3\n        /* \"#utility.yul\":2296:2306   */\n      gt\n        /* \"#utility.yul\":2293:2329   */\n      iszero\n      tag_50\n      jumpi\n        /* \"#utility.yul\":2309:2327   */\n      tag_51\n      tag_23\n      jump\t// in\n    tag_51:\n        /* \"#utility.yul\":2293:2329   */\n    tag_50:\n        /* \"#utility.yul\":2145:2336   */\n      swap3\n      swap2\n      pop\n      pop\n      jump\t// out\n\n    auxdata: 0xa26469706673582212203faa81264346ebc42b006ebe6201c201b7def6d5fe427af05806d2dc0ac4fdb464736f6c63430008190033\n}\n",
				"bytecode": {
					"linkReferences": {},
					"object": "6080604052348015600e575f80fd5b506102028061001c5f395ff3fe608060405234801561000f575f80fd5b5060043610610029575f3560e01c80639c163fe31461002d575b5f80fd5b610047600480360381019061004291906100cd565b61005d565b6040516100549190610153565b60405180910390f35b5f818385878961006d9190610199565b6100779190610199565b6100819190610199565b61008b9190610199565b905095945050505050565b5f80fd5b5f819050919050565b6100ac8161009a565b81146100b6575f80fd5b50565b5f813590506100c7816100a3565b92915050565b5f805f805f60a086880312156100e6576100e5610096565b5b5f6100f3888289016100b9565b9550506020610104888289016100b9565b9450506040610115888289016100b9565b9350506060610126888289016100b9565b9250506080610137888289016100b9565b9150509295509295909350565b61014d8161009a565b82525050565b5f6020820190506101665f830184610144565b92915050565b7f4e487b71000000000000000000000000000000000000000000000000000000005f52601160045260245ffd5b5f6101a38261009a565b91506101ae8361009a565b92508282019050808211156101c6576101c561016c565b5b9291505056fea26469706673582212203faa81264346ebc42b006ebe6201c201b7def6d5fe427af05806d2dc0ac4fdb464736f6c63430008190033",
					"opcodes": "PUSH1 0x80 PUSH1 0x40 MSTORE CALLVALUE DUP1 ISZERO PUSH1 0xE JUMPI PUSH0 DUP1 REVERT JUMPDEST POP PUSH2 0x202 DUP1 PUSH2 0x1C PUSH0 CODECOPY PUSH0 RETURN INVALID PUSH1 0x80 PUSH1 0x40 MSTORE CALLVALUE DUP1 ISZERO PUSH2 0xF JUMPI PUSH0 DUP1 REVERT JUMPDEST POP PUSH1 0x4 CALLDATASIZE LT PUSH2 0x29 JUMPI PUSH0 CALLDATALOAD PUSH1 0xE0 SHR DUP1 PUSH4 0x9C163FE3 EQ PUSH2 0x2D JUMPI JUMPDEST PUSH0 DUP1 REVERT JUMPDEST PUSH2 0x47 PUSH1 0x4 DUP1 CALLDATASIZE SUB DUP2 ADD SWAP1 PUSH2 0x42 SWAP2 SWAP1 PUSH2 0xCD JUMP JUMPDEST PUSH2 0x5D JUMP JUMPDEST PUSH1 0x40 MLOAD PUSH2 0x54 SWAP2 SWAP1 PUSH2 0x153 JUMP JUMPDEST PUSH1 0x40 MLOAD DUP1 SWAP2 SUB SWAP1 RETURN JUMPDEST PUSH0 DUP2 DUP4 DUP6 DUP8 DUP10 PUSH2 0x6D SWAP2 SWAP1 PUSH2 0x199 JUMP JUMPDEST PUSH2 0x77 SWAP2 SWAP1 PUSH2 0x199 JUMP JUMPDEST PUSH2 0x81 SWAP2 SWAP1 PUSH2 0x199 JUMP JUMPDEST PUSH2 0x8B SWAP2 SWAP1 PUSH2 0x199 JUMP JUMPDEST SWAP1 POP SWAP6 SWAP5 POP POP POP POP POP JUMP JUMPDEST PUSH0 DUP1 REVERT JUMPDEST PUSH0 DUP2 SWAP1 POP SWAP2 SWAP1 POP JUMP JUMPDEST PUSH2 0xAC DUP2 PUSH2 0x9A JUMP JUMPDEST DUP2 EQ PUSH2 0xB6 JUMPI PUSH0 DUP1 REVERT JUMPDEST POP JUMP JUMPDEST PUSH0 DUP2 CALLDATALOAD SWAP1 POP PUSH2 0xC7 DUP2 PUSH2 0xA3 JUMP JUMPDEST SWAP3 SWAP2 POP POP JUMP JUMPDEST PUSH0 DUP1 PUSH0 DUP1 PUSH0 PUSH1 0xA0 DUP7 DUP9 SUB SLT ISZERO PUSH2 0xE6 JUMPI PUSH2 0xE5 PUSH2 0x96 JUMP JUMPDEST JUMPDEST PUSH0 PUSH2 0xF3 DUP9 DUP3 DUP10 ADD PUSH2 0xB9 JUMP JUMPDEST SWAP6 POP POP PUSH1 0x20 PUSH2 0x104 DUP9 DUP3 DUP10 ADD PUSH2 0xB9 JUMP JUMPDEST SWAP5 POP POP PUSH1 0x40 PUSH2 0x115 DUP9 DUP3 DUP10 ADD PUSH2 0xB9 JUMP JUMPDEST SWAP4 POP POP PUSH1 0x60 PUSH2 0x126 DUP9 DUP3 DUP10 ADD PUSH2 0xB9 JUMP JUMPDEST SWAP3 POP POP PUSH1 0x80 PUSH2 0x137 DUP9 DUP3 DUP10 ADD PUSH2 0xB9 JUMP JUMPDEST SWAP2 POP POP SWAP3 SWAP6 POP SWAP3 SWAP6 SWAP1 SWAP4 POP JUMP JUMPDEST PUSH2 0x14D DUP2 PUSH2 0x9A JUMP JUMPDEST DUP3 MSTORE POP POP JUMP JUMPDEST PUSH0 PUSH1 0x20 DUP3 ADD SWAP1 POP PUSH2 0x166 PUSH0 DUP4 ADD DUP5 PUSH2 0x144 JUMP JUMPDEST SWAP3 SWAP2 POP POP JUMP JUMPDEST PUSH32 0x4E487B7100000000000000000000000000000000000000000000000000000000 PUSH0 MSTORE PUSH1 0x11 PUSH1 0x4 MSTORE PUSH1 0x24 PUSH0 REVERT JUMPDEST PUSH0 PUSH2 0x1A3 DUP3 PUSH2 0x9A JUMP JUMPDEST SWAP2 POP PUSH2 0x1AE DUP4 PUSH2 0x9A JUMP JUMPDEST SWAP3 POP DUP3 DUP3 ADD SWAP1 POP DUP1 DUP3 GT ISZERO PUSH2 0x1C6 JUMPI PUSH2 0x1C5 PUSH2 0x16C JUMP JUMPDEST JUMPDEST SWAP3 SWAP2 POP POP JUMP INVALID LOG2 PUSH5 0x6970667358 0x22 SLT KECCAK256 EXTCODEHASH 0xAA DUP2 0x26 NUMBER CHAINID 0xEB 0xC4 0x2B STOP PUSH15 0xBE6201C201B7DEF6D5FE427AF05806 0xD2 0xDC EXP 0xC4 REVERT 0xB4 PUSH5 0x736F6C6343 STOP ADDMOD NOT STOP CALLER "
				},
				"gasEstimates": {
					"creation": {
						"codeDepositCost": "102800",
						"executionCost": "151",
						"totalCost": "102951"
					},
					"external": {
						"sum(uint256,uint256,uint256,uint256,uint256)": "infinite"
					}
				},
				"methodIdentifiers": {
					"sum(uint256,uint256,uint256,uint256,uint256)": "9c163fe3"
				}
			},
			"storageLayout": {
				"storage": [],
				"types": null
			},
			"userdoc": {
				"kind": "user",
				"methods": {},
				"version": 1
			}
		}
	}
}