{
	"contracts/ContractL/ContractLV3.sol": {
		"ContractLV3": {
			"abi": [
				{
					"inputs": [
						{
							"internalType": "uint256[5]",
							"name": "nums",
							"type": "uint256[5]"
						}
					],
					"name": "sum",
					"outputs": [
						{
							"internalType": "uint256",
							"name": "total",
							"type": "uint256"
						}
					],
					"stateMutability": "pure",
					"type": "function"
				}
			],
			"devdoc": {
				"kind": "dev",
				"methods": {},
				"version": 1
			},
			"evm": {
				"assembly": "    /* \"contracts/ContractL/ContractLV3.sol\":63:304  contract ContractLV3 {... */\n  mstore(0x40, 0x80)\n  callvalue\n  dup1\n  iszero\n  tag_1\n  jumpi\n  0x00\n  dup1\n  revert\ntag_1:\n  pop\n  dataSize(sub_0)\n  dup1\n  dataOffset(sub_0)\n  0x00\n  codecopy\n  0x00\n  return\nstop\n\nsub_0: assembly {\n        /* \"contracts/ContractL/ContractLV3.sol\":63:304  contract ContractLV3 {... */\n      mstore(0x40, 0x80)\n      callvalue\n      dup1\n      iszero\n      tag_1\n      jumpi\n      0x00\n      dup1\n      revert\n    tag_1:\n      pop\n      jumpi(tag_2, lt(calldatasize, 0x04))\n      shr(0xe0, calldataload(0x00))\n      dup1\n      0xf7c17593\n      eq\n      tag_3\n      jumpi\n    tag_2:\n      0x00\n      dup1\n      revert\n        /* \"contracts/ContractL/ContractLV3.sol\":123:301  function sum(uint256[5] calldata nums) public pure returns (uint256 total) {... */\n    tag_3:\n      tag_4\n      tag_5\n      calldatasize\n      0x04\n      tag_6\n      jump\t// in\n    tag_5:\n      tag_7\n      jump\t// in\n    tag_4:\n      mload(0x40)\n        /* \"#utility.yul\":418:443   */\n      swap1\n      dup2\n      mstore\n        /* \"#utility.yul\":406:408   */\n      0x20\n        /* \"#utility.yul\":391:409   */\n      add\n        /* \"contracts/ContractL/ContractLV3.sol\":123:301  function sum(uint256[5] calldata nums) public pure returns (uint256 total) {... */\n      mload(0x40)\n      dup1\n      swap2\n      sub\n      swap1\n      return\n    tag_7:\n        /* \"contracts/ContractL/ContractLV3.sol\":183:196  uint256 total */\n      0x00\n      dup1\n        /* \"contracts/ContractL/ContractLV3.sol\":209:294  for (uint256 i = 0; i < nums.length; i++) {... */\n    tag_11:\n        /* \"contracts/ContractL/ContractLV3.sol\":233:244  nums.length */\n      0x05\n        /* \"contracts/ContractL/ContractLV3.sol\":229:230  i */\n      dup2\n        /* \"contracts/ContractL/ContractLV3.sol\":229:244  i < nums.length */\n      lt\n        /* \"contracts/ContractL/ContractLV3.sol\":209:294  for (uint256 i = 0; i < nums.length; i++) {... */\n      iszero\n      tag_12\n      jumpi\n        /* \"contracts/ContractL/ContractLV3.sol\":275:279  nums */\n      dup3\n        /* \"contracts/ContractL/ContractLV3.sol\":280:281  i */\n      dup2\n        /* \"contracts/ContractL/ContractLV3.sol\":275:282  nums[i] */\n      0x05\n      dup2\n      lt\n      tag_15\n      jumpi\n      tag_15\n      tag_16\n      jump\t// in\n    tag_15:\n      0x20\n      mul\n      add\n      calldataload\n        /* \"contracts/ContractL/ContractLV3.sol\":266:282  total += nums[i] */\n      dup3\n      tag_17\n      swap2\n      swap1\n      tag_18\n      jump\t// in\n    tag_17:\n      swap2\n      pop\n        /* \"contracts/ContractL/ContractLV3.sol\":246:249  i++ */\n      0x01\n      add\n        /* \"contracts/ContractL/ContractLV3.sol\":209:294  for (uint256 i = 0; i < nums.length; i++) {... */\n      jump(tag_11)\n    tag_12:\n      pop\n        /* \"contracts/ContractL/ContractLV3.sol\":123:301  function sum(uint256[5] calldata nums) public pure returns (uint256 total) {... */\n      swap2\n      swap1\n      pop\n      jump\t// out\n        /* \"#utility.yul\":14:267   */\n    tag_6:\n        /* \"#utility.yul\":98:104   */\n      0x00\n        /* \"#utility.yul\":151:154   */\n      0xa0\n        /* \"#utility.yul\":139:148   */\n      dup3\n        /* \"#utility.yul\":130:137   */\n      dup5\n        /* \"#utility.yul\":126:149   */\n      sub\n        /* \"#utility.yul\":122:155   */\n      slt\n        /* \"#utility.yul\":119:172   */\n      iszero\n      tag_21\n      jumpi\n        /* \"#utility.yul\":168:169   */\n      0x00\n        /* \"#utility.yul\":165:166   */\n      dup1\n        /* \"#utility.yul\":158:170   */\n      revert\n        /* \"#utility.yul\":119:172   */\n    tag_21:\n        /* \"#utility.yul\":208:215   */\n      dup3\n        /* \"#utility.yul\":202:205   */\n      0xa0\n        /* \"#utility.yul\":191:200   */\n      dup4\n        /* \"#utility.yul\":187:206   */\n      add\n        /* \"#utility.yul\":184:216   */\n      gt\n        /* \"#utility.yul\":181:233   */\n      iszero\n      tag_12\n      jumpi\n        /* \"#utility.yul\":229:230   */\n      0x00\n        /* \"#utility.yul\":226:227   */\n      dup1\n        /* \"#utility.yul\":219:231   */\n      revert\n        /* \"#utility.yul\":454:638   */\n    tag_16:\n      shl(0xe0, 0x4e487b71)\n        /* \"#utility.yul\":503:504   */\n      0x00\n        /* \"#utility.yul\":496:584   */\n      mstore\n        /* \"#utility.yul\":603:607   */\n      0x32\n        /* \"#utility.yul\":600:601   */\n      0x04\n        /* \"#utility.yul\":593:608   */\n      mstore\n        /* \"#utility.yul\":627:631   */\n      0x24\n        /* \"#utility.yul\":624:625   */\n      0x00\n        /* \"#utility.yul\":617:632   */\n      revert\n        /* \"#utility.yul\":643:922   */\n    tag_18:\n        /* \"#utility.yul\":708:717   */\n      dup1\n      dup3\n      add\n        /* \"#utility.yul\":729:739   */\n      dup1\n      dup3\n      gt\n        /* \"#utility.yul\":726:916   */\n      iszero\n      tag_26\n      jumpi\n      shl(0xe0, 0x4e487b71)\n        /* \"#utility.yul\":769:770   */\n      0x00\n        /* \"#utility.yul\":762:850   */\n      mstore\n        /* \"#utility.yul\":873:877   */\n      0x11\n        /* \"#utility.yul\":870:871   */\n      0x04\n        /* \"#utility.yul\":863:878   */\n      mstore\n        /* \"#utility.yul\":901:905   */\n      0x24\n        /* \"#utility.yul\":898:899   */\n      0x00\n        /* \"#utility.yul\":891:906   */\n      revert\n        /* \"#utility.yul\":726:916   */\n    tag_26:\n        /* \"#utility.yul\":643:922   */\n      swap3\n      swap2\n      pop\n      pop\n      jump\t// out\n\n    auxdata: 0xa26469706673582212201bc1cb04d335d5d22791c6c9f4bb7350ac1a5d896df94968c2393dc9b583986664736f6c63430008190033\n}\n",
				"bytecode": {
					"linkReferences": {},
					"object": "6080604052348015600e575f80fd5b5061010d8061001c5f395ff3fe6080604052348015600e575f80fd5b50600436106026575f3560e01c8063f7c1759314602a575b5f80fd5b603960353660046082565b604b565b60405190815260200160405180910390f35b5f805b6005811015607c578281600581106065576065609f565b6020020135826073919060b3565b9150600101604e565b50919050565b5f60a082840312156091575f80fd5b8260a083011115607c575f80fd5b634e487b7160e01b5f52603260045260245ffd5b8082018082111560d157634e487b7160e01b5f52601160045260245ffd5b9291505056fea26469706673582212201bc1cb04d335d5d22791c6c9f4bb7350ac1a5d896df94968c2393dc9b583986664736f6c63430008190033",
					"opcodes": "PUSH1 0x80 PUSH1 0x40 MSTORE CALLVALUE DUP1 ISZERO PUSH1 0xE JUMPI PUSH0 DUP1 REVERT JUMPDEST POP PUSH2 0x10D DUP1 PUSH2 0x1C PUSH0 CODECOPY PUSH0 RETURN INVALID PUSH1 0x80 PUSH1 0x40 MSTORE CALLVALUE DUP1 ISZERO PUSH1 0xE JUMPI PUSH0 DUP1 REVERT JUMPDEST POP PUSH1 0x4 CALLDATASIZE LT PUSH1 0x26 JUMPI PUSH0 CALLDATALOAD PUSH1 0xE0 SHR DUP1 PUSH4 0xF7C17593 EQ PUSH1 0x2A JUMPI JUMPDEST PUSH0 DUP1 REVERT JUMPDEST PUSH1 0x39 PUSH1 0x35 CALLDATASIZE PUSH1 0x4 PUSH1 0x82 JUMP JUMPDEST PUSH1 0x4B JUMP JUMPDEST PUSH1 0x40 MLOAD SWAP1 DUP2 MSTORE PUSH1 0x20 ADD PUSH1 0x40 MLOAD DUP1 SWAP2 SUB SWAP1 RETURN JUMPDEST PUSH0 DUP1 JUMPDEST PUSH1 0x5 DUP2 LT ISZERO PUSH1 0x7C JUMPI DUP3 DUP2 PUSH1 0x5 DUP2 LT PUSH1 0x65 JUMPI PUSH1 0x65 PUSH1 0x9F JUMP JUMPDEST PUSH1 0x20 MUL ADD CALLDATALOAD DUP3 PUSH1 0x73 SWAP2 SWAP1 PUSH1 0xB3 JUMP JUMPDEST SWAP2 POP PUSH1 0x1 ADD PUSH1 0x4E JUMP JUMPDEST POP SWAP2 SWAP1 POP JUMP JUMPDEST PUSH0 PUSH1 0xA0 DUP3 DUP5 SUB SLT ISZERO PUSH1 0x91 JUMPI PUSH0 DUP1 REVERT JUMPDEST DUP3 PUSH1 0xA0 DUP4 ADD GT ISZERO PUSH1 0x7C JUMPI PUSH0 DUP1 REVERT JUMPDEST PUSH4 0x4E487B71 PUSH1 0xE0 SHL PUSH0 MSTORE PUSH1 0x32 PUSH1 0x4 MSTORE PUSH1 0x24 PUSH0 REVERT JUMPDEST DUP1 DUP3 ADD DUP1 DUP3 GT ISZERO PUSH1 0xD1 JUMPI PUSH4 0x4E487B71 PUSH1 0xE0 SHL PUSH0 MSTORE PUSH1 0x11 PUSH1 0x4 MSTORE PUSH1 0x24 PUSH0 REVERT JUMPDEST SWAP3 SWAP2 POP POP JUMP INVALID LOG2 PUSH5 0x6970667358 0x22 SLT KECCAK256 SHL 0xC1 0xCB DIV 0xD3 CALLDATALOAD 0xD5 0xD2 0x27 SWAP2 0xC6 0xC9 DELEGATECALL 0xBB PUSH20 0x50AC1A5D896DF94968C2393DC9B583986664736F PUSH13 0x63430008190033000000000000 "
				},
				"gasEstimates": {
					"creation": {
						"codeDepositCost": "53800",
						"executionCost": "103",
						"totalCost": "53903"
					},
					"external": {
						"sum(uint256[5])": "infinite"
					}
				},
				"methodIdentifiers": {
					"sum(uint256[5])": "f7c17593"
				}
			},
			"storageLayout": {
				"storage": [],
				"types": null
			},
			"userdoc": {
				"kind": "user",
				"methods": {},
				"version": 1
			}
		}
	}
}