{
	"contracts/ContractO/ContractOV1.sol": {
		"ContractOV1": {
			"abi": [
				{
					"inputs": [],
					"stateMutability": "nonpayable",
					"type": "constructor"
				},
				{
					"inputs": [
						{
							"internalType": "address",
							"name": "",
							"type": "address"
						}
					],
					"name": "balances",
					"outputs": [
						{
							"internalType": "uint256",
							"name": "",
							"type": "uint256"
						}
					],
					"stateMutability": "view",
					"type": "function"
				},
				{
					"inputs": [
						{
							"internalType": "address",
							"name": "",
							"type": "address"
						}
					],
					"name": "hasPerms",
					"outputs": [
						{
							"internalType": "bool",
							"name": "",
							"type": "bool"
						}
					],
					"stateMutability": "view",
					"type": "function"
				},
				{
					"inputs": [
						{
							"internalType": "address",
							"name": "to",
							"type": "address"
						},
						{
							"internalType": "uint256",
							"name": "amount",
							"type": "uint256"
						}
					],
					"name": "sendBalance",
					"outputs": [],
					"stateMutability": "nonpayable",
					"type": "function"
				},
				{
					"inputs": [
						{
							"internalType": "address",
							"name": "addr",
							"type": "address"
						},
						{
							"internalType": "uint256",
							"name": "balance",
							"type": "uint256"
						}
					],
					"name": "setBalance",
					"outputs": [],
					"stateMutability": "nonpayable",
					"type": "function"
				},
				{
					"inputs": [
						{
							"internalType": "address",
							"name": "addr",
							"type": "address"
						},
						{
							"internalType": "bool",
							"name": "perms",
							"type": "bool"
						}
					],
					"name": "setPerms",
					"outputs": [],
					"stateMutability": "nonpayable",
					"type": "function"
				}
			],
			"devdoc": {
				"kind": "dev",
				"methods": {},
				"version": 1
			},
			"evm": {
				"assembly": "    /* \"contracts/ContractO/ContractOV1.sol\":63:1051  contract ContractOV1 {... */\n  mstore(0x40, 0x80)\n    /* \"contracts/ContractO/ContractOV1.sol\":342:403  constructor() {... */\n  callvalue\n  dup1\n  iszero\n  tag_1\n  jumpi\n  0x00\n  dup1\n  revert\ntag_1:\n  pop\n    /* \"contracts/ContractO/ContractOV1.sol\":376:386  msg.sender */\n  caller\n    /* \"contracts/ContractO/ContractOV1.sol\":367:387  balances[msg.sender] */\n  0x00\n  swap1\n  dup2\n  mstore\n    /* \"contracts/ContractO/ContractOV1.sol\":367:375  balances */\n  0x01\n    /* \"contracts/ContractO/ContractOV1.sol\":367:387  balances[msg.sender] */\n  0x20\n  mstore\n  0x40\n  swap1\n  keccak256\n    /* \"contracts/ContractO/ContractOV1.sol\":390:395  10000 */\n  0x2710\n    /* \"contracts/ContractO/ContractOV1.sol\":367:395  balances[msg.sender] = 10000 */\n  swap1\n  sstore\n    /* \"contracts/ContractO/ContractOV1.sol\":63:1051  contract ContractOV1 {... */\n  dataSize(sub_0)\n  dup1\n  dataOffset(sub_0)\n  0x00\n  codecopy\n  0x00\n  return\nstop\n\nsub_0: assembly {\n        /* \"contracts/ContractO/ContractOV1.sol\":63:1051  contract ContractOV1 {... */\n      mstore(0x40, 0x80)\n      callvalue\n      dup1\n      iszero\n      tag_1\n      jumpi\n      0x00\n      dup1\n      revert\n    tag_1:\n      pop\n      jumpi(tag_2, lt(calldatasize, 0x04))\n      shr(0xe0, calldataload(0x00))\n      dup1\n      0x27e235e3\n      gt\n      tag_8\n      jumpi\n      dup1\n      0x27e235e3\n      eq\n      tag_5\n      jumpi\n      dup1\n      0xe30443bc\n      eq\n      tag_6\n      jumpi\n      dup1\n      0xfc75893d\n      eq\n      tag_7\n      jumpi\n      0x00\n      dup1\n      revert\n    tag_8:\n      dup1\n      0x0e185200\n      eq\n      tag_3\n      jumpi\n      dup1\n      0x239b2c94\n      eq\n      tag_4\n      jumpi\n    tag_2:\n      0x00\n      dup1\n      revert\n        /* \"contracts/ContractO/ContractOV1.sol\":91:132  mapping (address => bool) public hasPerms */\n    tag_3:\n      tag_9\n      tag_10\n      calldatasize\n      0x04\n      tag_11\n      jump\t// in\n    tag_10:\n      0x00\n      0x20\n      dup2\n      swap1\n      mstore\n      swap1\n      dup2\n      mstore\n      0x40\n      swap1\n      keccak256\n      sload\n      0xff\n      and\n      dup2\n      jump\n    tag_9:\n      mload(0x40)\n        /* \"#utility.yul\":571:585   */\n      swap1\n      iszero\n        /* \"#utility.yul\":564:586   */\n      iszero\n        /* \"#utility.yul\":546:587   */\n      dup2\n      mstore\n        /* \"#utility.yul\":534:536   */\n      0x20\n        /* \"#utility.yul\":519:537   */\n      add\n        /* \"contracts/ContractO/ContractOV1.sol\":91:132  mapping (address => bool) public hasPerms */\n    tag_13:\n      mload(0x40)\n      dup1\n      swap2\n      sub\n      swap1\n      return\n        /* \"contracts/ContractO/ContractOV1.sol\":411:503  function setPerms(address addr, bool perms) public {... */\n    tag_4:\n      tag_15\n      tag_16\n      calldatasize\n      0x04\n      tag_17\n      jump\t// in\n    tag_16:\n        /* \"contracts/ContractO/ContractOV1.sol\":473:487  hasPerms[addr] */\n      0xffffffffffffffffffffffffffffffffffffffff\n      swap2\n      swap1\n      swap2\n      and\n        /* \"contracts/ContractO/ContractOV1.sol\":473:481  hasPerms */\n      0x00\n        /* \"contracts/ContractO/ContractOV1.sol\":473:487  hasPerms[addr] */\n      swap1\n      dup2\n      mstore\n      0x20\n      dup2\n      swap1\n      mstore\n      0x40\n      swap1\n      keccak256\n        /* \"contracts/ContractO/ContractOV1.sol\":473:495  hasPerms[addr] = perms */\n      dup1\n      sload\n      not(0xff)\n      and\n      swap2\n      iszero\n      iszero\n      swap2\n      swap1\n      swap2\n      or\n      swap1\n      sstore\n        /* \"contracts/ContractO/ContractOV1.sol\":411:503  function setPerms(address addr, bool perms) public {... */\n      jump\n    tag_15:\n      stop\n        /* \"contracts/ContractO/ContractOV1.sol\":139:183  mapping (address => uint256) public balances */\n    tag_5:\n      tag_19\n      tag_20\n      calldatasize\n      0x04\n      tag_11\n      jump\t// in\n    tag_20:\n      mstore(0x20, 0x01)\n      0x00\n      swap1\n      dup2\n      mstore\n      0x40\n      swap1\n      keccak256\n      sload\n      dup2\n      jump\n    tag_19:\n      mload(0x40)\n        /* \"#utility.yul\":1096:1121   */\n      swap1\n      dup2\n      mstore\n        /* \"#utility.yul\":1084:1086   */\n      0x20\n        /* \"#utility.yul\":1069:1087   */\n      add\n        /* \"contracts/ContractO/ContractOV1.sol\":139:183  mapping (address => uint256) public balances */\n      tag_13\n        /* \"#utility.yul\":950:1127   */\n      jump\n        /* \"contracts/ContractO/ContractOV1.sol\":511:612  function setBalance(address addr, uint256 balance) public {... */\n    tag_6:\n      tag_15\n      tag_25\n      calldatasize\n      0x04\n      tag_26\n      jump\t// in\n    tag_25:\n        /* \"contracts/ContractO/ContractOV1.sol\":580:594  balances[addr] */\n      0xffffffffffffffffffffffffffffffffffffffff\n      swap1\n      swap2\n      and\n      0x00\n      swap1\n      dup2\n      mstore\n        /* \"contracts/ContractO/ContractOV1.sol\":580:588  balances */\n      0x01\n        /* \"contracts/ContractO/ContractOV1.sol\":580:594  balances[addr] */\n      0x20\n      mstore\n      0x40\n      swap1\n      keccak256\n        /* \"contracts/ContractO/ContractOV1.sol\":580:604  balances[addr] = balance */\n      sstore\n        /* \"contracts/ContractO/ContractOV1.sol\":511:612  function setBalance(address addr, uint256 balance) public {... */\n      jump\n        /* \"contracts/ContractO/ContractOV1.sol\":620:1048  function sendBalance(address to, uint256 amount) public {... */\n    tag_7:\n      tag_15\n      tag_29\n      calldatasize\n      0x04\n      tag_26\n      jump\t// in\n    tag_29:\n        /* \"contracts/ContractO/ContractOV1.sol\":887:897  msg.sender */\n      caller\n        /* \"contracts/ContractO/ContractOV1.sol\":878:886  hasPerms */\n      0x00\n        /* \"contracts/ContractO/ContractOV1.sol\":878:898  hasPerms[msg.sender] */\n      swap1\n      dup2\n      mstore\n      0x20\n      dup2\n      swap1\n      mstore\n      0x40\n      swap1\n      keccak256\n      sload\n      0xff\n      and\n        /* \"contracts/ContractO/ContractOV1.sol\":878:932  hasPerms[msg.sender] && balances[msg.sender] >= amount */\n      dup1\n      iszero\n      tag_34\n      jumpi\n      pop\n        /* \"contracts/ContractO/ContractOV1.sol\":911:921  msg.sender */\n      caller\n        /* \"contracts/ContractO/ContractOV1.sol\":902:922  balances[msg.sender] */\n      0x00\n      swap1\n      dup2\n      mstore\n        /* \"contracts/ContractO/ContractOV1.sol\":902:910  balances */\n      0x01\n        /* \"contracts/ContractO/ContractOV1.sol\":902:922  balances[msg.sender] */\n      0x20\n      mstore\n      0x40\n      swap1\n      keccak256\n      sload\n        /* \"contracts/ContractO/ContractOV1.sol\":902:932  balances[msg.sender] >= amount */\n      dup2\n      gt\n      iszero\n        /* \"contracts/ContractO/ContractOV1.sol\":878:932  hasPerms[msg.sender] && balances[msg.sender] >= amount */\n    tag_34:\n        /* \"contracts/ContractO/ContractOV1.sol\":870:964  require(hasPerms[msg.sender] && balances[msg.sender] >= amount, \"No perms/not enough balance\") */\n      tag_35\n      jumpi\n      mload(0x40)\n      0x08c379a000000000000000000000000000000000000000000000000000000000\n      dup2\n      mstore\n        /* \"#utility.yul\":1593:1595   */\n      0x20\n        /* \"contracts/ContractO/ContractOV1.sol\":870:964  require(hasPerms[msg.sender] && balances[msg.sender] >= amount, \"No perms/not enough balance\") */\n      0x04\n      dup3\n      add\n        /* \"#utility.yul\":1575:1596   */\n      mstore\n        /* \"#utility.yul\":1632:1634   */\n      0x1b\n        /* \"#utility.yul\":1612:1630   */\n      0x24\n      dup3\n      add\n        /* \"#utility.yul\":1605:1635   */\n      mstore\n        /* \"#utility.yul\":1671:1700   */\n      0x4e6f207065726d732f6e6f7420656e6f7567682062616c616e63650000000000\n        /* \"#utility.yul\":1651:1669   */\n      0x44\n      dup3\n      add\n        /* \"#utility.yul\":1644:1701   */\n      mstore\n        /* \"#utility.yul\":1718:1736   */\n      0x64\n      add\n        /* \"contracts/ContractO/ContractOV1.sol\":870:964  require(hasPerms[msg.sender] && balances[msg.sender] >= amount, \"No perms/not enough balance\") */\n      mload(0x40)\n      dup1\n      swap2\n      sub\n      swap1\n      revert\n    tag_35:\n        /* \"contracts/ContractO/ContractOV1.sol\":986:996  msg.sender */\n      caller\n        /* \"contracts/ContractO/ContractOV1.sol\":977:997  balances[msg.sender] */\n      0x00\n      swap1\n      dup2\n      mstore\n        /* \"contracts/ContractO/ContractOV1.sol\":977:985  balances */\n      0x01\n        /* \"contracts/ContractO/ContractOV1.sol\":977:997  balances[msg.sender] */\n      0x20\n      mstore\n      0x40\n      dup2\n      keccak256\n        /* \"contracts/ContractO/ContractOV1.sol\":977:1007  balances[msg.sender] -= amount */\n      dup1\n      sload\n        /* \"contracts/ContractO/ContractOV1.sol\":1001:1007  amount */\n      dup4\n      swap3\n        /* \"contracts/ContractO/ContractOV1.sol\":977:997  balances[msg.sender] */\n      swap1\n        /* \"contracts/ContractO/ContractOV1.sol\":977:1007  balances[msg.sender] -= amount */\n      tag_38\n      swap1\n        /* \"contracts/ContractO/ContractOV1.sol\":1001:1007  amount */\n      dup5\n      swap1\n        /* \"contracts/ContractO/ContractOV1.sol\":977:1007  balances[msg.sender] -= amount */\n      tag_39\n      jump\t// in\n    tag_38:\n      swap1\n      swap2\n      sstore\n      pop\n      pop\n        /* \"contracts/ContractO/ContractOV1.sol\":1018:1030  balances[to] */\n      0xffffffffffffffffffffffffffffffffffffffff\n      dup3\n      and\n      0x00\n      swap1\n      dup2\n      mstore\n        /* \"contracts/ContractO/ContractOV1.sol\":1018:1026  balances */\n      0x01\n        /* \"contracts/ContractO/ContractOV1.sol\":1018:1030  balances[to] */\n      0x20\n      mstore\n      0x40\n      dup2\n      keccak256\n        /* \"contracts/ContractO/ContractOV1.sol\":1018:1040  balances[to] += amount */\n      dup1\n      sload\n        /* \"contracts/ContractO/ContractOV1.sol\":1034:1040  amount */\n      dup4\n      swap3\n        /* \"contracts/ContractO/ContractOV1.sol\":1018:1030  balances[to] */\n      swap1\n        /* \"contracts/ContractO/ContractOV1.sol\":1018:1040  balances[to] += amount */\n      tag_40\n      swap1\n        /* \"contracts/ContractO/ContractOV1.sol\":1034:1040  amount */\n      dup5\n      swap1\n        /* \"contracts/ContractO/ContractOV1.sol\":1018:1040  balances[to] += amount */\n      tag_41\n      jump\t// in\n    tag_40:\n      swap1\n      swap2\n      sstore\n      pop\n      pop\n      pop\n      pop\n        /* \"contracts/ContractO/ContractOV1.sol\":620:1048  function sendBalance(address to, uint256 amount) public {... */\n      jump\t// out\n        /* \"#utility.yul\":14:210   */\n    tag_42:\n        /* \"#utility.yul\":82:102   */\n      dup1\n      calldataload\n        /* \"#utility.yul\":142:184   */\n      0xffffffffffffffffffffffffffffffffffffffff\n        /* \"#utility.yul\":131:185   */\n      dup2\n      and\n        /* \"#utility.yul\":121:186   */\n      dup2\n      eq\n        /* \"#utility.yul\":111:204   */\n      tag_46\n      jumpi\n        /* \"#utility.yul\":200:201   */\n      0x00\n        /* \"#utility.yul\":197:198   */\n      dup1\n        /* \"#utility.yul\":190:202   */\n      revert\n        /* \"#utility.yul\":111:204   */\n    tag_46:\n        /* \"#utility.yul\":14:210   */\n      swap2\n      swap1\n      pop\n      jump\t// out\n        /* \"#utility.yul\":215:401   */\n    tag_11:\n        /* \"#utility.yul\":274:280   */\n      0x00\n        /* \"#utility.yul\":327:329   */\n      0x20\n        /* \"#utility.yul\":315:324   */\n      dup3\n        /* \"#utility.yul\":306:313   */\n      dup5\n        /* \"#utility.yul\":302:325   */\n      sub\n        /* \"#utility.yul\":298:330   */\n      slt\n        /* \"#utility.yul\":295:347   */\n      iszero\n      tag_48\n      jumpi\n        /* \"#utility.yul\":343:344   */\n      0x00\n        /* \"#utility.yul\":340:341   */\n      dup1\n        /* \"#utility.yul\":333:345   */\n      revert\n        /* \"#utility.yul\":295:347   */\n    tag_48:\n        /* \"#utility.yul\":366:395   */\n      tag_49\n        /* \"#utility.yul\":385:394   */\n      dup3\n        /* \"#utility.yul\":366:395   */\n      tag_42\n      jump\t// in\n    tag_49:\n        /* \"#utility.yul\":356:395   */\n      swap4\n        /* \"#utility.yul\":215:401   */\n      swap3\n      pop\n      pop\n      pop\n      jump\t// out\n        /* \"#utility.yul\":598:945   */\n    tag_17:\n        /* \"#utility.yul\":663:669   */\n      0x00\n        /* \"#utility.yul\":671:677   */\n      dup1\n        /* \"#utility.yul\":724:726   */\n      0x40\n        /* \"#utility.yul\":712:721   */\n      dup4\n        /* \"#utility.yul\":703:710   */\n      dup6\n        /* \"#utility.yul\":699:722   */\n      sub\n        /* \"#utility.yul\":695:727   */\n      slt\n        /* \"#utility.yul\":692:744   */\n      iszero\n      tag_52\n      jumpi\n        /* \"#utility.yul\":740:741   */\n      0x00\n        /* \"#utility.yul\":737:738   */\n      dup1\n        /* \"#utility.yul\":730:742   */\n      revert\n        /* \"#utility.yul\":692:744   */\n    tag_52:\n        /* \"#utility.yul\":763:792   */\n      tag_53\n        /* \"#utility.yul\":782:791   */\n      dup4\n        /* \"#utility.yul\":763:792   */\n      tag_42\n      jump\t// in\n    tag_53:\n        /* \"#utility.yul\":753:792   */\n      swap2\n      pop\n        /* \"#utility.yul\":842:844   */\n      0x20\n        /* \"#utility.yul\":831:840   */\n      dup4\n        /* \"#utility.yul\":827:845   */\n      add\n        /* \"#utility.yul\":814:846   */\n      calldataload\n        /* \"#utility.yul\":889:894   */\n      dup1\n        /* \"#utility.yul\":882:895   */\n      iszero\n        /* \"#utility.yul\":875:896   */\n      iszero\n        /* \"#utility.yul\":868:873   */\n      dup2\n        /* \"#utility.yul\":865:897   */\n      eq\n        /* \"#utility.yul\":855:915   */\n      tag_54\n      jumpi\n        /* \"#utility.yul\":911:912   */\n      0x00\n        /* \"#utility.yul\":908:909   */\n      dup1\n        /* \"#utility.yul\":901:913   */\n      revert\n        /* \"#utility.yul\":855:915   */\n    tag_54:\n        /* \"#utility.yul\":934:939   */\n      dup1\n        /* \"#utility.yul\":924:939   */\n      swap2\n      pop\n      pop\n        /* \"#utility.yul\":598:945   */\n      swap3\n      pop\n      swap3\n      swap1\n      pop\n      jump\t// out\n        /* \"#utility.yul\":1132:1386   */\n    tag_26:\n        /* \"#utility.yul\":1200:1206   */\n      0x00\n        /* \"#utility.yul\":1208:1214   */\n      dup1\n        /* \"#utility.yul\":1261:1263   */\n      0x40\n        /* \"#utility.yul\":1249:1258   */\n      dup4\n        /* \"#utility.yul\":1240:1247   */\n      dup6\n        /* \"#utility.yul\":1236:1259   */\n      sub\n        /* \"#utility.yul\":1232:1264   */\n      slt\n        /* \"#utility.yul\":1229:1281   */\n      iszero\n      tag_57\n      jumpi\n        /* \"#utility.yul\":1277:1278   */\n      0x00\n        /* \"#utility.yul\":1274:1275   */\n      dup1\n        /* \"#utility.yul\":1267:1279   */\n      revert\n        /* \"#utility.yul\":1229:1281   */\n    tag_57:\n        /* \"#utility.yul\":1300:1329   */\n      tag_58\n        /* \"#utility.yul\":1319:1328   */\n      dup4\n        /* \"#utility.yul\":1300:1329   */\n      tag_42\n      jump\t// in\n    tag_58:\n        /* \"#utility.yul\":1290:1329   */\n      swap5\n        /* \"#utility.yul\":1376:1378   */\n      0x20\n        /* \"#utility.yul\":1361:1379   */\n      swap4\n      swap1\n      swap4\n      add\n        /* \"#utility.yul\":1348:1380   */\n      calldataload\n      swap4\n      pop\n      pop\n      pop\n        /* \"#utility.yul\":1132:1386   */\n      jump\t// out\n        /* \"#utility.yul\":1747:1931   */\n    tag_43:\n        /* \"#utility.yul\":1799:1876   */\n      0x4e487b7100000000000000000000000000000000000000000000000000000000\n        /* \"#utility.yul\":1796:1797   */\n      0x00\n        /* \"#utility.yul\":1789:1877   */\n      mstore\n        /* \"#utility.yul\":1896:1900   */\n      0x11\n        /* \"#utility.yul\":1893:1894   */\n      0x04\n        /* \"#utility.yul\":1886:1901   */\n      mstore\n        /* \"#utility.yul\":1920:1924   */\n      0x24\n        /* \"#utility.yul\":1917:1918   */\n      0x00\n        /* \"#utility.yul\":1910:1925   */\n      revert\n        /* \"#utility.yul\":1936:2064   */\n    tag_39:\n        /* \"#utility.yul\":2003:2012   */\n      dup2\n      dup2\n      sub\n        /* \"#utility.yul\":2024:2035   */\n      dup2\n      dup2\n      gt\n        /* \"#utility.yul\":2021:2058   */\n      iszero\n      tag_63\n      jumpi\n        /* \"#utility.yul\":2038:2056   */\n      tag_63\n      tag_43\n      jump\t// in\n    tag_63:\n        /* \"#utility.yul\":1936:2064   */\n      swap3\n      swap2\n      pop\n      pop\n      jump\t// out\n        /* \"#utility.yul\":2069:2194   */\n    tag_41:\n        /* \"#utility.yul\":2134:2143   */\n      dup1\n      dup3\n      add\n        /* \"#utility.yul\":2155:2165   */\n      dup1\n      dup3\n      gt\n        /* \"#utility.yul\":2152:2188   */\n      iszero\n      tag_63\n      jumpi\n        /* \"#utility.yul\":2168:2186   */\n      tag_63\n      tag_43\n      jump\t// in\n\n    auxdata: 0xa264697066735822122046ca3e45d411c94bd252bd4562ecd18d5296aa9a6fc54371ae938f3db1fefe8164736f6c63430008190033\n}\n",
				"bytecode": {
					"linkReferences": {},
					"object": "6080604052348015600e575f80fd5b50335f90815260016020526040902061271090556103858061002f5f395ff3fe608060405234801561000f575f80fd5b5060043610610064575f3560e01c806327e235e31161004d57806327e235e3146100e6578063e30443bc14610113578063fc75893d14610149575f80fd5b80630e18520014610068578063239b2c941461009f575b5f80fd5b61008a610076366004610275565b5f6020819052908152604090205460ff1681565b60405190151581526020015b60405180910390f35b6100e46100ad366004610295565b73ffffffffffffffffffffffffffffffffffffffff919091165f908152602081905260409020805460ff1916911515919091179055565b005b6101056100f4366004610275565b60016020525f908152604090205481565b604051908152602001610096565b6100e46101213660046102ce565b73ffffffffffffffffffffffffffffffffffffffff9091165f90815260016020526040902055565b6100e46101573660046102ce565b335f9081526020819052604090205460ff1680156101835750335f908152600160205260409020548111155b6101ed576040517f08c379a000000000000000000000000000000000000000000000000000000000815260206004820152601b60248201527f4e6f207065726d732f6e6f7420656e6f7567682062616c616e63650000000000604482015260640160405180910390fd5b335f908152600160205260408120805483929061020b908490610323565b909155505073ffffffffffffffffffffffffffffffffffffffff82165f908152600160205260408120805483929061024490849061033c565b90915550505050565b803573ffffffffffffffffffffffffffffffffffffffff81168114610270575f80fd5b919050565b5f60208284031215610285575f80fd5b61028e8261024d565b9392505050565b5f80604083850312156102a6575f80fd5b6102af8361024d565b9150602083013580151581146102c3575f80fd5b809150509250929050565b5f80604083850312156102df575f80fd5b6102e88361024d565b946020939093013593505050565b7f4e487b71000000000000000000000000000000000000000000000000000000005f52601160045260245ffd5b81810381811115610336576103366102f6565b92915050565b80820180821115610336576103366102f656fea264697066735822122046ca3e45d411c94bd252bd4562ecd18d5296aa9a6fc54371ae938f3db1fefe8164736f6c63430008190033",
					"opcodes": "PUSH1 0x80 PUSH1 0x40 MSTORE CALLVALUE DUP1 ISZERO PUSH1 0xE JUMPI PUSH0 DUP1 REVERT JUMPDEST POP CALLER PUSH0 SWAP1 DUP2 MSTORE PUSH1 0x1 PUSH1 0x20 MSTORE PUSH1 0x40 SWAP1 KECCAK256 PUSH2 0x2710 SWAP1 SSTORE PUSH2 0x385 DUP1 PUSH2 0x2F PUSH0 CODECOPY PUSH0 RETURN INVALID PUSH1 0x80 PUSH1 0x40 MSTORE CALLVALUE DUP1 ISZERO PUSH2 0xF JUMPI PUSH0 DUP1 REVERT JUMPDEST POP PUSH1 0x4 CALLDATASIZE LT PUSH2 0x64 JUMPI PUSH0 CALLDATALOAD PUSH1 0xE0 SHR DUP1 PUSH4 0x27E235E3 GT PUSH2 0x4D JUMPI DUP1 PUSH4 0x27E235E3 EQ PUSH2 0xE6 JUMPI DUP1 PUSH4 0xE30443BC EQ PUSH2 0x113 JUMPI DUP1 PUSH4 0xFC75893D EQ PUSH2 0x149 JUMPI PUSH0 DUP1 REVERT JUMPDEST DUP1 PUSH4 0xE185200 EQ PUSH2 0x68 JUMPI DUP1 PUSH4 0x239B2C94 EQ PUSH2 0x9F JUMPI JUMPDEST PUSH0 DUP1 REVERT JUMPDEST PUSH2 0x8A PUSH2 0x76 CALLDATASIZE PUSH1 0x4 PUSH2 0x275 JUMP JUMPDEST PUSH0 PUSH1 0x20 DUP2 SWAP1 MSTORE SWAP1 DUP2 MSTORE PUSH1 0x40 SWAP1 KECCAK256 SLOAD PUSH1 0xFF AND DUP2 JUMP JUMPDEST PUSH1 0x40 MLOAD SWAP1 ISZERO ISZERO DUP2 MSTORE PUSH1 0x20 ADD JUMPDEST PUSH1 0x40 MLOAD DUP1 SWAP2 SUB SWAP1 RETURN JUMPDEST PUSH2 0xE4 PUSH2 0xAD CALLDATASIZE PUSH1 0x4 PUSH2 0x295 JUMP JUMPDEST PUSH20 0xFFFFFFFFFFFFFFFFFFFFFFFFFFFFFFFFFFFFFFFF SWAP2 SWAP1 SWAP2 AND PUSH0 SWAP1 DUP2 MSTORE PUSH1 0x20 DUP2 SWAP1 MSTORE PUSH1 0x40 SWAP1 KECCAK256 DUP1 SLOAD PUSH1 0xFF NOT AND SWAP2 ISZERO ISZERO SWAP2 SWAP1 SWAP2 OR SWAP1 SSTORE JUMP JUMPDEST STOP JUMPDEST PUSH2 0x105 PUSH2 0xF4 CALLDATASIZE PUSH1 0x4 PUSH2 0x275 JUMP JUMPDEST PUSH1 0x1 PUSH1 0x20 MSTORE PUSH0 SWAP1 DUP2 MSTORE PUSH1 0x40 SWAP1 KECCAK256 SLOAD DUP2 JUMP JUMPDEST PUSH1 0x40 MLOAD SWAP1 DUP2 MSTORE PUSH1 0x20 ADD PUSH2 0x96 JUMP JUMPDEST PUSH2 0xE4 PUSH2 0x121 CALLDATASIZE PUSH1 0x4 PUSH2 0x2CE JUMP JUMPDEST PUSH20 0xFFFFFFFFFFFFFFFFFFFFFFFFFFFFFFFFFFFFFFFF SWAP1 SWAP2 AND PUSH0 SWAP1 DUP2 MSTORE PUSH1 0x1 PUSH1 0x20 MSTORE PUSH1 0x40 SWAP1 KECCAK256 SSTORE JUMP JUMPDEST PUSH2 0xE4 PUSH2 0x157 CALLDATASIZE PUSH1 0x4 PUSH2 0x2CE JUMP JUMPDEST CALLER PUSH0 SWAP1 DUP2 MSTORE PUSH1 0x20 DUP2 SWAP1 MSTORE PUSH1 0x40 SWAP1 KECCAK256 SLOAD PUSH1 0xFF AND DUP1 ISZERO PUSH2 0x183 JUMPI POP CALLER PUSH0 SWAP1 DUP2 MSTORE PUSH1 0x1 PUSH1 0x20 MSTORE PUSH1 0x40 SWAP1 KECCAK256 SLOAD DUP2 GT ISZERO JUMPDEST PUSH2 0x1ED JUMPI PUSH1 0x40 MLOAD PUSH32 0x8C379A000000000000000000000000000000000000000000000000000000000 DUP2 MSTORE PUSH1 0x20 PUSH1 0x4 DUP3 ADD MSTORE PUSH1 0x1B PUSH1 0x24 DUP3 ADD MSTORE PUSH32 0x4E6F207065726D732F6E6F7420656E6F7567682062616C616E63650000000000 PUSH1 0x44 DUP3 ADD MSTORE PUSH1 0x64 ADD PUSH1 0x40 MLOAD DUP1 SWAP2 SUB SWAP1 REVERT JUMPDEST CALLER PUSH0 SWAP1 DUP2 MSTORE PUSH1 0x1 PUSH1 0x20 MSTORE PUSH1 0x40 DUP2 KECCAK256 DUP1 SLOAD DUP4 SWAP3 SWAP1 PUSH2 0x20B SWAP1 DUP5 SWAP1 PUSH2 0x323 JUMP JUMPDEST SWAP1 SWAP2 SSTORE POP POP PUSH20 0xFFFFFFFFFFFFFFFFFFFFFFFFFFFFFFFFFFFFFFFF DUP3 AND PUSH0 SWAP1 DUP2 MSTORE PUSH1 0x1 PUSH1 0x20 MSTORE PUSH1 0x40 DUP2 KECCAK256 DUP1 SLOAD DUP4 SWAP3 SWAP1 PUSH2 0x244 SWAP1 DUP5 SWAP1 PUSH2 0x33C JUMP JUMPDEST SWAP1 SWAP2 SSTORE POP POP POP POP JUMP JUMPDEST DUP1 CALLDATALOAD PUSH20 0xFFFFFFFFFFFFFFFFFFFFFFFFFFFFFFFFFFFFFFFF DUP2 AND DUP2 EQ PUSH2 0x270 JUMPI PUSH0 DUP1 REVERT JUMPDEST SWAP2 SWAP1 POP JUMP JUMPDEST PUSH0 PUSH1 0x20 DUP3 DUP5 SUB SLT ISZERO PUSH2 0x285 JUMPI PUSH0 DUP1 REVERT JUMPDEST PUSH2 0x28E DUP3 PUSH2 0x24D JUMP JUMPDEST SWAP4 SWAP3 POP POP POP JUMP JUMPDEST PUSH0 DUP1 PUSH1 0x40 DUP4 DUP6 SUB SLT ISZERO PUSH2 0x2A6 JUMPI PUSH0 DUP1 REVERT JUMPDEST PUSH2 0x2AF DUP4 PUSH2 0x24D JUMP JUMPDEST SWAP2 POP PUSH1 0x20 DUP4 ADD CALLDATALOAD DUP1 ISZERO ISZERO DUP2 EQ PUSH2 0x2C3 JUMPI PUSH0 DUP1 REVERT JUMPDEST DUP1 SWAP2 POP POP SWAP3 POP SWAP3 SWAP1 POP JUMP JUMPDEST PUSH0 DUP1 PUSH1 0x40 DUP4 DUP6 SUB SLT ISZERO PUSH2 0x2DF JUMPI PUSH0 DUP1 REVERT JUMPDEST PUSH2 0x2E8 DUP4 PUSH2 0x24D JUMP JUMPDEST SWAP5 PUSH1 0x20 SWAP4 SWAP1 SWAP4 ADD CALLDATALOAD SWAP4 POP POP POP JUMP JUMPDEST PUSH32 0x4E487B7100000000000000000000000000000000000000000000000000000000 PUSH0 MSTORE PUSH1 0x11 PUSH1 0x4 MSTORE PUSH1 0x24 PUSH0 REVERT JUMPDEST DUP2 DUP2 SUB DUP2 DUP2 GT ISZERO PUSH2 0x336 JUMPI PUSH2 0x336 PUSH2 0x2F6 JUMP JUMPDEST SWAP3 SWAP2 POP POP JUMP JUMPDEST DUP1 DUP3 ADD DUP1 DUP3 GT ISZERO PUSH2 0x336 JUMPI PUSH2 0x336 PUSH2 0x2F6 JUMP INVALID LOG2 PUSH5 0x6970667358 0x22 SLT KECCAK256 CHAINID 0xCA RETURNDATACOPY GASLIMIT 0xD4 GT 0xC9 0x4B 0xD2 MSTORE 0xBD GASLIMIT PUSH3 0xECD18D MSTORE SWAP7 0xAA SWAP11 PUSH16 0xC54371AE938F3DB1FEFE8164736F6C63 NUMBER STOP ADDMOD NOT STOP CALLER "
				},
				"gasEstimates": {
					"creation": {
						"codeDepositCost": "180200",
						"executionCost": "22400",
						"totalCost": "202600"
					},
					"external": {
						"balances(address)": "2504",
						"hasPerms(address)": "2509",
						"sendBalance(address,uint256)": "infinite",
						"setBalance(address,uint256)": "22499",
						"setPerms(address,bool)": "24681"
					}
				},
				"methodIdentifiers": {
					"balances(address)": "27e235e3",
					"hasPerms(address)": "0e185200",
					"sendBalance(address,uint256)": "fc75893d",
					"setBalance(address,uint256)": "e30443bc",
					"setPerms(address,bool)": "239b2c94"
				}
			},
			"storageLayout": {
				"storage": [
					{
						"astId": 5,
						"contract": "contracts/ContractO/ContractOV1.sol:ContractOV1",
						"label": "hasPerms",
						"offset": 0,
						"slot": "0",
						"type": "t_mapping(t_address,t_bool)"
					},
					{
						"astId": 9,
						"contract": "contracts/ContractO/ContractOV1.sol:ContractOV1",
						"label": "balances",
						"offset": 0,
						"slot": "1",
						"type": "t_mapping(t_address,t_uint256)"
					}
				],
				"types": {
					"t_address": {
						"encoding": "inplace",
						"label": "address",
						"numberOfBytes": "20"
					},
					"t_bool": {
						"encoding": "inplace",
						"label": "bool",
						"numberOfBytes": "1"
					},
					"t_mapping(t_address,t_bool)": {
						"encoding": "mapping",
						"key": "t_address",
						"label": "mapping(address => bool)",
						"numberOfBytes": "32",
						"value": "t_bool"
					},
					"t_mapping(t_address,t_uint256)": {
						"encoding": "mapping",
						"key": "t_address",
						"label": "mapping(address => uint256)",
						"numberOfBytes": "32",
						"value": "t_uint256"
					},
					"t_uint256": {
						"encoding": "inplace",
						"label": "uint256",
						"numberOfBytes": "32"
					}
				}
			},
			"userdoc": {
				"kind": "user",
				"methods": {},
				"version": 1
			}
		}
	}
}