{
	"contracts/ContractR/ContractRV1.sol": {
		"ContractRV1": {
			"abi": [
				{
					"inputs": [
						{
							"internalType": "bytes32",
							"name": "hash",
							"type": "bytes32"
						},
						{
							"internalType": "bytes",
							"name": "signature",
							"type": "bytes"
						}
					],
					"name": "recoverSigner",
					"outputs": [
						{
							"internalType": "address",
							"name": "",
							"type": "address"
						}
					],
					"stateMutability": "pure",
					"type": "function"
				}
			],
			"devdoc": {
				"kind": "dev",
				"methods": {},
				"version": 1
			},
			"evm": {
				"assembly": "    /* \"contracts/ContractR/ContractRV1.sol\":63:697  contract ContractRV1 {... */\n  mstore(0x40, 0x80)\n  callvalue\n  dup1\n  iszero\n  tag_1\n  jumpi\n  0x00\n  dup1\n  revert\ntag_1:\n  pop\n  dataSize(sub_0)\n  dup1\n  dataOffset(sub_0)\n  0x00\n  codecopy\n  0x00\n  return\nstop\n\nsub_0: assembly {\n        /* \"contracts/ContractR/ContractRV1.sol\":63:697  contract ContractRV1 {... */\n      mstore(0x40, 0x80)\n      callvalue\n      dup1\n      iszero\n      tag_1\n      jumpi\n      0x00\n      dup1\n      revert\n    tag_1:\n      pop\n      jumpi(tag_2, lt(calldatasize, 0x04))\n      shr(0xe0, calldataload(0x00))\n      dup1\n      0x97aba7f9\n      eq\n      tag_3\n      jumpi\n    tag_2:\n      0x00\n      dup1\n      revert\n        /* \"contracts/ContractR/ContractRV1.sol\":91:694  function recoverSigner(bytes32 hash, bytes memory signature) public pure returns (address) {... */\n    tag_3:\n      tag_4\n      tag_5\n      calldatasize\n      0x04\n      tag_6\n      jump\t// in\n    tag_5:\n      tag_7\n      jump\t// in\n    tag_4:\n      mload(0x40)\n        /* \"#utility.yul\":1373:1415   */\n      0xffffffffffffffffffffffffffffffffffffffff\n        /* \"#utility.yul\":1361:1416   */\n      swap1\n      swap2\n      and\n        /* \"#utility.yul\":1343:1417   */\n      dup2\n      mstore\n        /* \"#utility.yul\":1331:1333   */\n      0x20\n        /* \"#utility.yul\":1316:1334   */\n      add\n        /* \"contracts/ContractR/ContractRV1.sol\":91:694  function recoverSigner(bytes32 hash, bytes memory signature) public pure returns (address) {... */\n      mload(0x40)\n      dup1\n      swap2\n      sub\n      swap1\n      return\n    tag_7:\n        /* \"contracts/ContractR/ContractRV1.sol\":173:180  address */\n      0x00\n        /* \"contracts/ContractR/ContractRV1.sol\":201:210  signature */\n      dup2\n        /* \"contracts/ContractR/ContractRV1.sol\":201:217  signature.length */\n      mload\n        /* \"contracts/ContractR/ContractRV1.sol\":221:223  65 */\n      0x41\n        /* \"contracts/ContractR/ContractRV1.sol\":201:223  signature.length == 65 */\n      eq\n        /* \"contracts/ContractR/ContractRV1.sol\":193:246  require(signature.length == 65, \"Invalid sig length\") */\n      tag_11\n      jumpi\n      mload(0x40)\n      0x08c379a000000000000000000000000000000000000000000000000000000000\n      dup2\n      mstore\n        /* \"#utility.yul\":1630:1632   */\n      0x20\n        /* \"contracts/ContractR/ContractRV1.sol\":193:246  require(signature.length == 65, \"Invalid sig length\") */\n      0x04\n      dup3\n      add\n        /* \"#utility.yul\":1612:1633   */\n      mstore\n        /* \"#utility.yul\":1669:1671   */\n      0x12\n        /* \"#utility.yul\":1649:1667   */\n      0x24\n      dup3\n      add\n        /* \"#utility.yul\":1642:1672   */\n      mstore\n        /* \"#utility.yul\":1708:1728   */\n      0x496e76616c696420736967206c656e6774680000000000000000000000000000\n        /* \"#utility.yul\":1688:1706   */\n      0x44\n      dup3\n      add\n        /* \"#utility.yul\":1681:1729   */\n      mstore\n        /* \"#utility.yul\":1746:1764   */\n      0x64\n      add\n        /* \"contracts/ContractR/ContractRV1.sol\":193:246  require(signature.length == 65, \"Invalid sig length\") */\n      mload(0x40)\n      dup1\n      swap2\n      sub\n      swap1\n      revert\n    tag_11:\n        /* \"contracts/ContractR/ContractRV1.sol\":421:425  0x20 */\n      0x20\n        /* \"contracts/ContractR/ContractRV1.sol\":406:426  add(signature, 0x20) */\n      dup3\n      add\n        /* \"contracts/ContractR/ContractRV1.sol\":400:427  mload(add(signature, 0x20)) */\n      mload\n        /* \"contracts/ContractR/ContractRV1.sol\":467:471  0x40 */\n      0x40\n        /* \"contracts/ContractR/ContractRV1.sol\":452:472  add(signature, 0x40) */\n      dup4\n      add\n        /* \"contracts/ContractR/ContractRV1.sol\":446:473  mload(add(signature, 0x40)) */\n      mload\n        /* \"contracts/ContractR/ContractRV1.sol\":521:525  0x60 */\n      0x60\n        /* \"contracts/ContractR/ContractRV1.sol\":506:526  add(signature, 0x60) */\n      dup5\n      add\n        /* \"contracts/ContractR/ContractRV1.sol\":500:527  mload(add(signature, 0x60)) */\n      mload\n        /* \"contracts/ContractR/ContractRV1.sol\":259:268  bytes32 r */\n      0x00\n        /* \"contracts/ContractR/ContractRV1.sol\":492:528  byte(0, mload(add(signature, 0x60))) */\n      byte\n        /* \"contracts/ContractR/ContractRV1.sol\":605:607  27 */\n      0x1b\n        /* \"contracts/ContractR/ContractRV1.sol\":601:607  v < 27 */\n      dup2\n      lt\n        /* \"contracts/ContractR/ContractRV1.sol\":597:643  if (v < 27) {... */\n      iszero\n      tag_14\n      jumpi\n        /* \"contracts/ContractR/ContractRV1.sol\":624:631  v += 27 */\n      tag_15\n        /* \"contracts/ContractR/ContractRV1.sol\":629:631  27 */\n      0x1b\n        /* \"contracts/ContractR/ContractRV1.sol\":624:631  v += 27 */\n      dup3\n      tag_16\n      jump\t// in\n    tag_15:\n      swap1\n      pop\n        /* \"contracts/ContractR/ContractRV1.sol\":597:643  if (v < 27) {... */\n    tag_14:\n        /* \"contracts/ContractR/ContractRV1.sol\":662:686  ecrecover(hash, v, r, s) */\n      0x40\n      dup1\n      mload\n      0x00\n      dup2\n      mstore\n      0x20\n      dup2\n      add\n      dup1\n      dup4\n      mstore\n        /* \"#utility.yul\":2309:2334   */\n      dup9\n      swap1\n      mstore\n        /* \"#utility.yul\":2382:2386   */\n      0xff\n        /* \"#utility.yul\":2370:2387   */\n      dup4\n      and\n        /* \"#utility.yul\":2350:2368   */\n      swap2\n      dup2\n      add\n        /* \"#utility.yul\":2343:2388   */\n      swap2\n      swap1\n      swap2\n      mstore\n        /* \"#utility.yul\":2404:2422   */\n      0x60\n      dup2\n      add\n        /* \"#utility.yul\":2397:2431   */\n      dup5\n      swap1\n      mstore\n        /* \"#utility.yul\":2447:2465   */\n      0x80\n      dup2\n      add\n        /* \"#utility.yul\":2440:2474   */\n      dup4\n      swap1\n      mstore\n        /* \"contracts/ContractR/ContractRV1.sol\":662:686  ecrecover(hash, v, r, s) */\n      0x01\n      swap1\n        /* \"#utility.yul\":2281:2300   */\n      0xa0\n      add\n        /* \"contracts/ContractR/ContractRV1.sol\":662:686  ecrecover(hash, v, r, s) */\n      0x20\n      mload(0x40)\n      0x20\n      dup2\n      sub\n      swap1\n      dup1\n      dup5\n      sub\n      swap1\n      dup6\n      gas\n      staticcall\n      iszero\n      dup1\n      iszero\n      tag_20\n      jumpi\n      returndatasize\n      0x00\n      dup1\n      returndatacopy\n      revert(0x00, returndatasize)\n    tag_20:\n      pop\n      pop\n      pop\n      mload(sub(mload(0x40), 0x20))\n        /* \"contracts/ContractR/ContractRV1.sol\":655:686  return ecrecover(hash, v, r, s) */\n      swap4\n      pop\n      pop\n      pop\n      pop\n        /* \"contracts/ContractR/ContractRV1.sol\":91:694  function recoverSigner(bytes32 hash, bytes memory signature) public pure returns (address) {... */\n    tag_10:\n      swap3\n      swap2\n      pop\n      pop\n      jump\t// out\n        /* \"#utility.yul\":14:198   */\n    tag_21:\n      shl(0xe0, 0x4e487b71)\n        /* \"#utility.yul\":63:64   */\n      0x00\n        /* \"#utility.yul\":56:144   */\n      mstore\n        /* \"#utility.yul\":163:167   */\n      0x41\n        /* \"#utility.yul\":160:161   */\n      0x04\n        /* \"#utility.yul\":153:168   */\n      mstore\n        /* \"#utility.yul\":187:191   */\n      0x24\n        /* \"#utility.yul\":184:185   */\n      0x00\n        /* \"#utility.yul\":177:192   */\n      revert\n        /* \"#utility.yul\":203:1192   */\n    tag_6:\n        /* \"#utility.yul\":280:286   */\n      0x00\n        /* \"#utility.yul\":288:294   */\n      dup1\n        /* \"#utility.yul\":341:343   */\n      0x40\n        /* \"#utility.yul\":329:338   */\n      dup4\n        /* \"#utility.yul\":320:327   */\n      dup6\n        /* \"#utility.yul\":316:339   */\n      sub\n        /* \"#utility.yul\":312:344   */\n      slt\n        /* \"#utility.yul\":309:361   */\n      iszero\n      tag_25\n      jumpi\n        /* \"#utility.yul\":357:358   */\n      0x00\n        /* \"#utility.yul\":354:355   */\n      dup1\n        /* \"#utility.yul\":347:359   */\n      revert\n        /* \"#utility.yul\":309:361   */\n    tag_25:\n        /* \"#utility.yul\":393:402   */\n      dup3\n        /* \"#utility.yul\":380:403   */\n      calldataload\n        /* \"#utility.yul\":370:403   */\n      swap2\n      pop\n        /* \"#utility.yul\":454:456   */\n      0x20\n        /* \"#utility.yul\":443:452   */\n      dup4\n        /* \"#utility.yul\":439:457   */\n      add\n        /* \"#utility.yul\":426:458   */\n      calldataload\n        /* \"#utility.yul\":477:495   */\n      0xffffffffffffffff\n        /* \"#utility.yul\":518:520   */\n      dup1\n        /* \"#utility.yul\":510:516   */\n      dup3\n        /* \"#utility.yul\":507:521   */\n      gt\n        /* \"#utility.yul\":504:538   */\n      iszero\n      tag_26\n      jumpi\n        /* \"#utility.yul\":534:535   */\n      0x00\n        /* \"#utility.yul\":531:532   */\n      dup1\n        /* \"#utility.yul\":524:536   */\n      revert\n        /* \"#utility.yul\":504:538   */\n    tag_26:\n        /* \"#utility.yul\":572:578   */\n      dup2\n        /* \"#utility.yul\":561:570   */\n      dup6\n        /* \"#utility.yul\":557:579   */\n      add\n        /* \"#utility.yul\":547:579   */\n      swap2\n      pop\n        /* \"#utility.yul\":617:624   */\n      dup6\n        /* \"#utility.yul\":610:614   */\n      0x1f\n        /* \"#utility.yul\":606:608   */\n      dup4\n        /* \"#utility.yul\":602:615   */\n      add\n        /* \"#utility.yul\":598:625   */\n      slt\n        /* \"#utility.yul\":588:643   */\n      tag_27\n      jumpi\n        /* \"#utility.yul\":639:640   */\n      0x00\n        /* \"#utility.yul\":636:637   */\n      dup1\n        /* \"#utility.yul\":629:641   */\n      revert\n        /* \"#utility.yul\":588:643   */\n    tag_27:\n        /* \"#utility.yul\":675:677   */\n      dup2\n        /* \"#utility.yul\":662:678   */\n      calldataload\n        /* \"#utility.yul\":697:699   */\n      dup2\n        /* \"#utility.yul\":693:695   */\n      dup2\n        /* \"#utility.yul\":690:700   */\n      gt\n        /* \"#utility.yul\":687:723   */\n      iszero\n      tag_29\n      jumpi\n        /* \"#utility.yul\":703:721   */\n      tag_29\n      tag_21\n      jump\t// in\n    tag_29:\n        /* \"#utility.yul\":778:780   */\n      0x40\n        /* \"#utility.yul\":772:781   */\n      mload\n        /* \"#utility.yul\":746:748   */\n      0x1f\n        /* \"#utility.yul\":832:845   */\n      dup3\n      add\n      not(0x1f)\n        /* \"#utility.yul\":828:850   */\n      swap1\n      dup2\n      and\n        /* \"#utility.yul\":852:854   */\n      0x3f\n        /* \"#utility.yul\":824:855   */\n      add\n        /* \"#utility.yul\":820:860   */\n      and\n        /* \"#utility.yul\":808:861   */\n      dup2\n      add\n      swap1\n        /* \"#utility.yul\":876:894   */\n      dup4\n      dup3\n      gt\n        /* \"#utility.yul\":896:918   */\n      dup2\n      dup4\n      lt\n        /* \"#utility.yul\":873:919   */\n      or\n        /* \"#utility.yul\":870:942   */\n      iszero\n      tag_31\n      jumpi\n        /* \"#utility.yul\":922:940   */\n      tag_31\n      tag_21\n      jump\t// in\n    tag_31:\n        /* \"#utility.yul\":962:972   */\n      dup2\n        /* \"#utility.yul\":958:960   */\n      0x40\n        /* \"#utility.yul\":951:973   */\n      mstore\n        /* \"#utility.yul\":997:999   */\n      dup3\n        /* \"#utility.yul\":989:995   */\n      dup2\n        /* \"#utility.yul\":982:1000   */\n      mstore\n        /* \"#utility.yul\":1037:1044   */\n      dup9\n        /* \"#utility.yul\":1032:1034   */\n      0x20\n        /* \"#utility.yul\":1027:1029   */\n      dup5\n        /* \"#utility.yul\":1023:1025   */\n      dup8\n        /* \"#utility.yul\":1019:1030   */\n      add\n        /* \"#utility.yul\":1015:1035   */\n      add\n        /* \"#utility.yul\":1012:1045   */\n      gt\n        /* \"#utility.yul\":1009:1062   */\n      iszero\n      tag_32\n      jumpi\n        /* \"#utility.yul\":1058:1059   */\n      0x00\n        /* \"#utility.yul\":1055:1056   */\n      dup1\n        /* \"#utility.yul\":1048:1060   */\n      revert\n        /* \"#utility.yul\":1009:1062   */\n    tag_32:\n        /* \"#utility.yul\":1114:1116   */\n      dup3\n        /* \"#utility.yul\":1109:1111   */\n      0x20\n        /* \"#utility.yul\":1105:1107   */\n      dup7\n        /* \"#utility.yul\":1101:1112   */\n      add\n        /* \"#utility.yul\":1096:1098   */\n      0x20\n        /* \"#utility.yul\":1088:1094   */\n      dup4\n        /* \"#utility.yul\":1084:1099   */\n      add\n        /* \"#utility.yul\":1071:1117   */\n      calldatacopy\n        /* \"#utility.yul\":1159:1160   */\n      0x00\n        /* \"#utility.yul\":1154:1156   */\n      0x20\n        /* \"#utility.yul\":1149:1151   */\n      dup5\n        /* \"#utility.yul\":1141:1147   */\n      dup4\n        /* \"#utility.yul\":1137:1152   */\n      add\n        /* \"#utility.yul\":1133:1157   */\n      add\n        /* \"#utility.yul\":1126:1161   */\n      mstore\n        /* \"#utility.yul\":1180:1186   */\n      dup1\n        /* \"#utility.yul\":1170:1186   */\n      swap6\n      pop\n      pop\n      pop\n      pop\n      pop\n      pop\n        /* \"#utility.yul\":203:1192   */\n      swap3\n      pop\n      swap3\n      swap1\n      pop\n      jump\t// out\n        /* \"#utility.yul\":1775:2077   */\n    tag_16:\n        /* \"#utility.yul\":1863:1867   */\n      0xff\n        /* \"#utility.yul\":1842:1854   */\n      dup2\n      dup2\n      and\n        /* \"#utility.yul\":1856:1868   */\n      dup4\n      dup3\n      and\n        /* \"#utility.yul\":1838:1869   */\n      add\n      swap1\n        /* \"#utility.yul\":1881:1894   */\n      dup2\n      gt\n        /* \"#utility.yul\":1878:2071   */\n      iszero\n      tag_10\n      jumpi\n      shl(0xe0, 0x4e487b71)\n        /* \"#utility.yul\":1924:1925   */\n      0x00\n        /* \"#utility.yul\":1917:2005   */\n      mstore\n        /* \"#utility.yul\":2028:2032   */\n      0x11\n        /* \"#utility.yul\":2025:2026   */\n      0x04\n        /* \"#utility.yul\":2018:2033   */\n      mstore\n        /* \"#utility.yul\":2056:2060   */\n      0x24\n        /* \"#utility.yul\":2053:2054   */\n      0x00\n        /* \"#utility.yul\":2046:2061   */\n      revert\n\n    auxdata: 0xa2646970667358221220e1804fac9661cbde8692fe34f9fbafbe98fc8fc15c2c813d196f5aac0aeb137064736f6c63430008190033\n}\n",
				"bytecode": {
					"linkReferences": {},
					"object": "6080604052348015600e575f80fd5b5061028b8061001c5f395ff3fe608060405234801561000f575f80fd5b5060043610610029575f3560e01c806397aba7f91461002d575b5f80fd5b61004061003b36600461017b565b610069565b60405173ffffffffffffffffffffffffffffffffffffffff909116815260200160405180910390f35b5f81516041146100d9576040517f08c379a000000000000000000000000000000000000000000000000000000000815260206004820152601260248201527f496e76616c696420736967206c656e6774680000000000000000000000000000604482015260640160405180910390fd5b6020820151604083015160608401515f1a601b811015610101576100fe601b82610230565b90505b604080515f81526020810180835288905260ff831691810191909152606081018490526080810183905260019060a0016020604051602081039080840390855afa158015610151573d5f803e3d5ffd5b5050506020604051035193505050505b92915050565b634e487b7160e01b5f52604160045260245ffd5b5f806040838503121561018c575f80fd5b82359150602083013567ffffffffffffffff808211156101aa575f80fd5b818501915085601f8301126101bd575f80fd5b8135818111156101cf576101cf610167565b604051601f8201601f19908116603f011681019083821181831017156101f7576101f7610167565b8160405282815288602084870101111561020f575f80fd5b826020860160208301375f6020848301015280955050505050509250929050565b60ff818116838216019081111561016157634e487b7160e01b5f52601160045260245ffdfea2646970667358221220e1804fac9661cbde8692fe34f9fbafbe98fc8fc15c2c813d196f5aac0aeb137064736f6c63430008190033",
					"opcodes": "PUSH1 0x80 PUSH1 0x40 MSTORE CALLVALUE DUP1 ISZERO PUSH1 0xE JUMPI PUSH0 DUP1 REVERT JUMPDEST POP PUSH2 0x28B DUP1 PUSH2 0x1C PUSH0 CODECOPY PUSH0 RETURN INVALID PUSH1 0x80 PUSH1 0x40 MSTORE CALLVALUE DUP1 ISZERO PUSH2 0xF JUMPI PUSH0 DUP1 REVERT JUMPDEST POP PUSH1 0x4 CALLDATASIZE LT PUSH2 0x29 JUMPI PUSH0 CALLDATALOAD PUSH1 0xE0 SHR DUP1 PUSH4 0x97ABA7F9 EQ PUSH2 0x2D JUMPI JUMPDEST PUSH0 DUP1 REVERT JUMPDEST PUSH2 0x40 PUSH2 0x3B CALLDATASIZE PUSH1 0x4 PUSH2 0x17B JUMP JUMPDEST PUSH2 0x69 JUMP JUMPDEST PUSH1 0x40 MLOAD PUSH20 0xFFFFFFFFFFFFFFFFFFFFFFFFFFFFFFFFFFFFFFFF SWAP1 SWAP2 AND DUP2 MSTORE PUSH1 0x20 ADD PUSH1 0x40 MLOAD DUP1 SWAP2 SUB SWAP1 RETURN JUMPDEST PUSH0 DUP2 MLOAD PUSH1 0x41 EQ PUSH2 0xD9 JUMPI PUSH1 0x40 MLOAD PUSH32 0x8C379A000000000000000000000000000000000000000000000000000000000 DUP2 MSTORE PUSH1 0x20 PUSH1 0x4 DUP3 ADD MSTORE PUSH1 0x12 PUSH1 0x24 DUP3 ADD MSTORE PUSH32 0x496E76616C696420736967206C656E6774680000000000000000000000000000 PUSH1 0x44 DUP3 ADD MSTORE PUSH1 0x64 ADD PUSH1 0x40 MLOAD DUP1 SWAP2 SUB SWAP1 REVERT JUMPDEST PUSH1 0x20 DUP3 ADD MLOAD PUSH1 0x40 DUP4 ADD MLOAD PUSH1 0x60 DUP5 ADD MLOAD PUSH0 BYTE PUSH1 0x1B DUP2 LT ISZERO PUSH2 0x101 JUMPI PUSH2 0xFE PUSH1 0x1B DUP3 PUSH2 0x230 JUMP JUMPDEST SWAP1 POP JUMPDEST PUSH1 0x40 DUP1 MLOAD PUSH0 DUP2 MSTORE PUSH1 0x20 DUP2 ADD DUP1 DUP4 MSTORE DUP9 SWAP1 MSTORE PUSH1 0xFF DUP4 AND SWAP2 DUP2 ADD SWAP2 SWAP1 SWAP2 MSTORE PUSH1 0x60 DUP2 ADD DUP5 SWAP1 MSTORE PUSH1 0x80 DUP2 ADD DUP4 SWAP1 MSTORE PUSH1 0x1 SWAP1 PUSH1 0xA0 ADD PUSH1 0x20 PUSH1 0x40 MLOAD PUSH1 0x20 DUP2 SUB SWAP1 DUP1 DUP5 SUB SWAP1 DUP6 GAS STATICCALL ISZERO DUP1 ISZERO PUSH2 0x151 JUMPI RETURNDATASIZE PUSH0 DUP1 RETURNDATACOPY RETURNDATASIZE PUSH0 REVERT JUMPDEST POP POP POP PUSH1 0x20 PUSH1 0x40 MLOAD SUB MLOAD SWAP4 POP POP POP POP JUMPDEST SWAP3 SWAP2 POP POP JUMP JUMPDEST PUSH4 0x4E487B71 PUSH1 0xE0 SHL PUSH0 MSTORE PUSH1 0x41 PUSH1 0x4 MSTORE PUSH1 0x24 PUSH0 REVERT JUMPDEST PUSH0 DUP1 PUSH1 0x40 DUP4 DUP6 SUB SLT ISZERO PUSH2 0x18C JUMPI PUSH0 DUP1 REVERT JUMPDEST DUP3 CALLDATALOAD SWAP2 POP PUSH1 0x20 DUP4 ADD CALLDATALOAD PUSH8 0xFFFFFFFFFFFFFFFF DUP1 DUP3 GT ISZERO PUSH2 0x1AA JUMPI PUSH0 DUP1 REVERT JUMPDEST DUP2 DUP6 ADD SWAP2 POP DUP6 PUSH1 0x1F DUP4 ADD SLT PUSH2 0x1BD JUMPI PUSH0 DUP1 REVERT JUMPDEST DUP2 CALLDATALOAD DUP2 DUP2 GT ISZERO PUSH2 0x1CF JUMPI PUSH2 0x1CF PUSH2 0x167 JUMP JUMPDEST PUSH1 0x40 MLOAD PUSH1 0x1F DUP3 ADD PUSH1 0x1F NOT SWAP1 DUP2 AND PUSH1 0x3F ADD AND DUP2 ADD SWAP1 DUP4 DUP3 GT DUP2 DUP4 LT OR ISZERO PUSH2 0x1F7 JUMPI PUSH2 0x1F7 PUSH2 0x167 JUMP JUMPDEST DUP2 PUSH1 0x40 MSTORE DUP3 DUP2 MSTORE DUP9 PUSH1 0x20 DUP5 DUP8 ADD ADD GT ISZERO PUSH2 0x20F JUMPI PUSH0 DUP1 REVERT JUMPDEST DUP3 PUSH1 0x20 DUP7 ADD PUSH1 0x20 DUP4 ADD CALLDATACOPY PUSH0 PUSH1 0x20 DUP5 DUP4 ADD ADD MSTORE DUP1 SWAP6 POP POP POP POP POP POP SWAP3 POP SWAP3 SWAP1 POP JUMP JUMPDEST PUSH1 0xFF DUP2 DUP2 AND DUP4 DUP3 AND ADD SWAP1 DUP2 GT ISZERO PUSH2 0x161 JUMPI PUSH4 0x4E487B71 PUSH1 0xE0 SHL PUSH0 MSTORE PUSH1 0x11 PUSH1 0x4 MSTORE PUSH1 0x24 PUSH0 REVERT INVALID LOG2 PUSH5 0x6970667358 0x22 SLT KECCAK256 0xE1 DUP1 0x4F 0xAC SWAP7 PUSH2 0xCBDE DUP7 SWAP3 INVALID CALLVALUE 0xF9 0xFB 0xAF 0xBE SWAP9 0xFC DUP16 0xC1 TLOAD 0x2C DUP2 RETURNDATASIZE NOT PUSH16 0x5AAC0AEB137064736F6C634300081900 CALLER "
				},
				"gasEstimates": {
					"creation": {
						"codeDepositCost": "130200",
						"executionCost": "175",
						"totalCost": "130375"
					},
					"external": {
						"recoverSigner(bytes32,bytes)": "infinite"
					}
				},
				"methodIdentifiers": {
					"recoverSigner(bytes32,bytes)": "97aba7f9"
				}
			},
			"storageLayout": {
				"storage": [],
				"types": null
			},
			"userdoc": {
				"kind": "user",
				"methods": {},
				"version": 1
			}
		}
	}
}