{
	"contracts/ContractV/ContractVV2.sol": {
		"ContractVV2": {
			"abi": [
				{
					"inputs": [],
					"stateMutability": "nonpayable",
					"type": "constructor"
				},
				{
					"inputs": [],
					"name": "ApprovalCallerNotOwnerNorApproved",
					"type": "error"
				},
				{
					"inputs": [],
					"name": "ApprovalQueryForNonexistentToken",
					"type": "error"
				},
				{
					"inputs": [],
					"name": "BalanceQueryForZeroAddress",
					"type": "error"
				},
				{
					"inputs": [],
					"name": "CreatureDoesntExist",
					"type": "error"
				},
				{
					"inputs": [],
					"name": "CreatureNotOwned",
					"type": "error"
				},
				{
					"inputs": [],
					"name": "MintERC2309QuantityExceedsLimit",
					"type": "error"
				},
				{
					"inputs": [],
					"name": "MintToZeroAddress",
					"type": "error"
				},
				{
					"inputs": [],
					"name": "MintZeroQuantity",
					"type": "error"
				},
				{
					"inputs": [],
					"name": "NotCompatibleWithSpotMints",
					"type": "error"
				},
				{
					"inputs": [],
					"name": "OwnerQueryForNonexistentToken",
					"type": "error"
				},
				{
					"inputs": [],
					"name": "OwnershipNotInitializedForExtraData",
					"type": "error"
				},
				{
					"inputs": [],
					"name": "SequentialMintExceedsLimit",
					"type": "error"
				},
				{
					"inputs": [],
					"name": "SequentialUpToTooSmall",
					"type": "error"
				},
				{
					"inputs": [],
					"name": "SpotMintTokenIdTooSmall",
					"type": "error"
				},
				{
					"inputs": [],
					"name": "TokenAlreadyExists",
					"type": "error"
				},
				{
					"inputs": [],
					"name": "TransferCallerNotOwnerNorApproved",
					"type": "error"
				},
				{
					"inputs": [],
					"name": "TransferFromIncorrectOwner",
					"type": "error"
				},
				{
					"inputs": [],
					"name": "TransferToNonERC721ReceiverImplementer",
					"type": "error"
				},
				{
					"inputs": [],
					"name": "TransferToZeroAddress",
					"type": "error"
				},
				{
					"inputs": [],
					"name": "URIQueryForNonexistentToken",
					"type": "error"
				},
				{
					"anonymous": false,
					"inputs": [
						{
							"indexed": true,
							"internalType": "address",
							"name": "owner",
							"type": "address"
						},
						{
							"indexed": true,
							"internalType": "address",
							"name": "approved",
							"type": "address"
						},
						{
							"indexed": true,
							"internalType": "uint256",
							"name": "tokenId",
							"type": "uint256"
						}
					],
					"name": "Approval",
					"type": "event"
				},
				{
					"anonymous": false,
					"inputs": [
						{
							"indexed": true,
							"internalType": "address",
							"name": "owner",
							"type": "address"
						},
						{
							"indexed": true,
							"internalType": "address",
							"name": "operator",
							"type": "address"
						},
						{
							"indexed": false,
							"internalType": "bool",
							"name": "approved",
							"type": "bool"
						}
					],
					"name": "ApprovalForAll",
					"type": "event"
				},
				{
					"anonymous": false,
					"inputs": [
						{
							"indexed": true,
							"internalType": "uint256",
							"name": "winnerId",
							"type": "uint256"
						},
						{
							"indexed": true,
							"internalType": "uint256",
							"name": "loserId",
							"type": "uint256"
						}
					],
					"name": "BattleResult",
					"type": "event"
				},
				{
					"anonymous": false,
					"inputs": [
						{
							"indexed": true,
							"internalType": "uint256",
							"name": "fromTokenId",
							"type": "uint256"
						},
						{
							"indexed": false,
							"internalType": "uint256",
							"name": "toTokenId",
							"type": "uint256"
						},
						{
							"indexed": true,
							"internalType": "address",
							"name": "from",
							"type": "address"
						},
						{
							"indexed": true,
							"internalType": "address",
							"name": "to",
							"type": "address"
						}
					],
					"name": "ConsecutiveTransfer",
					"type": "event"
				},
				{
					"anonymous": false,
					"inputs": [
						{
							"indexed": true,
							"internalType": "uint256",
							"name": "creatureId",
							"type": "uint256"
						},
						{
							"indexed": true,
							"internalType": "address",
							"name": "owner",
							"type": "address"
						}
					],
					"name": "CreatureCreated",
					"type": "event"
				},
				{
					"anonymous": false,
					"inputs": [
						{
							"indexed": true,
							"internalType": "address",
							"name": "from",
							"type": "address"
						},
						{
							"indexed": true,
							"internalType": "address",
							"name": "to",
							"type": "address"
						},
						{
							"indexed": true,
							"internalType": "uint256",
							"name": "tokenId",
							"type": "uint256"
						}
					],
					"name": "Transfer",
					"type": "event"
				},
				{
					"inputs": [
						{
							"internalType": "address",
							"name": "to",
							"type": "address"
						},
						{
							"internalType": "uint256",
							"name": "tokenId",
							"type": "uint256"
						}
					],
					"name": "approve",
					"outputs": [],
					"stateMutability": "payable",
					"type": "function"
				},
				{
					"inputs": [
						{
							"internalType": "address",
							"name": "owner",
							"type": "address"
						}
					],
					"name": "balanceOf",
					"outputs": [
						{
							"internalType": "uint256",
							"name": "",
							"type": "uint256"
						}
					],
					"stateMutability": "view",
					"type": "function"
				},
				{
					"inputs": [
						{
							"internalType": "uint256",
							"name": "tokenId",
							"type": "uint256"
						}
					],
					"name": "getApproved",
					"outputs": [
						{
							"internalType": "address",
							"name": "",
							"type": "address"
						}
					],
					"stateMutability": "view",
					"type": "function"
				},
				{
					"inputs": [
						{
							"internalType": "uint256",
							"name": "id",
							"type": "uint256"
						}
					],
					"name": "getCreature",
					"outputs": [
						{
							"components": [
								{
									"internalType": "uint256",
									"name": "id",
									"type": "uint256"
								},
								{
									"internalType": "address",
									"name": "owner",
									"type": "address"
								},
								{
									"internalType": "uint256",
									"name": "gameStats",
									"type": "uint256"
								},
								{
									"internalType": "uint256",
									"name": "battleRecord",
									"type": "uint256"
								}
							],
							"internalType": "struct ContractVV2.Creature",
							"name": "",
							"type": "tuple"
						}
					],
					"stateMutability": "view",
					"type": "function"
				},
				{
					"inputs": [],
					"name": "getNextCreatureId",
					"outputs": [
						{
							"internalType": "uint256",
							"name": "",
							"type": "uint256"
						}
					],
					"stateMutability": "view",
					"type": "function"
				},
				{
					"inputs": [
						{
							"internalType": "address",
							"name": "owner",
							"type": "address"
						},
						{
							"internalType": "address",
							"name": "operator",
							"type": "address"
						}
					],
					"name": "isApprovedForAll",
					"outputs": [
						{
							"internalType": "bool",
							"name": "",
							"type": "bool"
						}
					],
					"stateMutability": "view",
					"type": "function"
				},
				{
					"inputs": [
						{
							"internalType": "uint256",
							"name": "gameStats",
							"type": "uint256"
						}
					],
					"name": "mintCreature",
					"outputs": [],
					"stateMutability": "nonpayable",
					"type": "function"
				},
				{
					"inputs": [],
					"name": "name",
					"outputs": [
						{
							"internalType": "string",
							"name": "",
							"type": "string"
						}
					],
					"stateMutability": "view",
					"type": "function"
				},
				{
					"inputs": [
						{
							"internalType": "uint256",
							"name": "tokenId",
							"type": "uint256"
						}
					],
					"name": "ownerOf",
					"outputs": [
						{
							"internalType": "address",
							"name": "",
							"type": "address"
						}
					],
					"stateMutability": "view",
					"type": "function"
				},
				{
					"inputs": [
						{
							"internalType": "uint256",
							"name": "winnerId",
							"type": "uint256"
						},
						{
							"internalType": "uint256",
							"name": "loserId",
							"type": "uint256"
						}
					],
					"name": "recordBattleResult",
					"outputs": [],
					"stateMutability": "nonpayable",
					"type": "function"
				},
				{
					"inputs": [
						{
							"internalType": "address",
							"name": "from",
							"type": "address"
						},
						{
							"internalType": "address",
							"name": "to",
							"type": "address"
						},
						{
							"internalType": "uint256",
							"name": "tokenId",
							"type": "uint256"
						}
					],
					"name": "safeTransferFrom",
					"outputs": [],
					"stateMutability": "payable",
					"type": "function"
				},
				{
					"inputs": [
						{
							"internalType": "address",
							"name": "from",
							"type": "address"
						},
						{
							"internalType": "address",
							"name": "to",
							"type": "address"
						},
						{
							"internalType": "uint256",
							"name": "tokenId",
							"type": "uint256"
						},
						{
							"internalType": "bytes",
							"name": "_data",
							"type": "bytes"
						}
					],
					"name": "safeTransferFrom",
					"outputs": [],
					"stateMutability": "payable",
					"type": "function"
				},
				{
					"inputs": [
						{
							"internalType": "address",
							"name": "operator",
							"type": "address"
						},
						{
							"internalType": "bool",
							"name": "approved",
							"type": "bool"
						}
					],
					"name": "setApprovalForAll",
					"outputs": [],
					"stateMutability": "nonpayable",
					"type": "function"
				},
				{
					"inputs": [
						{
							"internalType": "bytes4",
							"name": "interfaceId",
							"type": "bytes4"
						}
					],
					"name": "supportsInterface",
					"outputs": [
						{
							"internalType": "bool",
							"name": "",
							"type": "bool"
						}
					],
					"stateMutability": "view",
					"type": "function"
				},
				{
					"inputs": [],
					"name": "symbol",
					"outputs": [
						{
							"internalType": "string",
							"name": "",
							"type": "string"
						}
					],
					"stateMutability": "view",
					"type": "function"
				},
				{
					"inputs": [
						{
							"internalType": "uint256",
							"name": "tokenId",
							"type": "uint256"
						}
					],
					"name": "tokenURI",
					"outputs": [
						{
							"internalType": "string",
							"name": "",
							"type": "string"
						}
					],
					"stateMutability": "view",
					"type": "function"
				},
				{
					"inputs": [],
					"name": "totalSupply",
					"outputs": [
						{
							"internalType": "uint256",
							"name": "result",
							"type": "uint256"
						}
					],
					"stateMutability": "view",
					"type": "function"
				},
				{
					"inputs": [
						{
							"internalType": "address",
							"name": "from",
							"type": "address"
						},
						{
							"internalType": "address",
							"name": "to",
							"type": "address"
						},
						{
							"internalType": "uint256",
							"name": "tokenId",
							"type": "uint256"
						}
					],
					"name": "transferFrom",
					"outputs": [],
					"stateMutability": "payable",
					"type": "function"
				},
				{
					"inputs": [
						{
							"internalType": "uint256",
							"name": "battleRecord",
							"type": "uint256"
						}
					],
					"name": "unpackBattleRecord",
					"outputs": [
						{
							"internalType": "uint256",
							"name": "wins",
							"type": "uint256"
						},
						{
							"internalType": "uint256",
							"name": "losses",
							"type": "uint256"
						}
					],
					"stateMutability": "pure",
					"type": "function"
				}
			],
			"devdoc": {
				"events": {
					"Approval(address,address,uint256)": {
						"details": "Emitted when `owner` enables `approved` to manage the `tokenId` token."
					},
					"ApprovalForAll(address,address,bool)": {
						"details": "Emitted when `owner` enables or disables (`approved`) `operator` to manage all of its assets."
					},
					"ConsecutiveTransfer(uint256,uint256,address,address)": {
						"details": "Emitted when tokens in `fromTokenId` to `toTokenId` (inclusive) is transferred from `from` to `to`, as defined in the [ERC2309](https://eips.ethereum.org/EIPS/eip-2309) standard. See {_mintERC2309} for more details."
					},
					"Transfer(address,address,uint256)": {
						"details": "Emitted when `tokenId` token is transferred from `from` to `to`."
					}
				},
				"kind": "dev",
				"methods": {
					"approve(address,uint256)": {
						"details": "Gives permission to `to` to transfer `tokenId` token to another account. See {ERC721A-_approve}. Requirements: - The caller must own the token or be an approved operator."
					},
					"balanceOf(address)": {
						"details": "Returns the number of tokens in `owner`'s account."
					},
					"getApproved(uint256)": {
						"details": "Returns the account approved for `tokenId` token. Requirements: - `tokenId` must exist."
					},
					"isApprovedForAll(address,address)": {
						"details": "Returns if the `operator` is allowed to manage all of the assets of `owner`. See {setApprovalForAll}."
					},
					"name()": {
						"details": "Returns the token collection name."
					},
					"ownerOf(uint256)": {
						"details": "Returns the owner of the `tokenId` token. Requirements: - `tokenId` must exist."
					},
					"safeTransferFrom(address,address,uint256)": {
						"details": "Equivalent to `safeTransferFrom(from, to, tokenId, '')`."
					},
					"safeTransferFrom(address,address,uint256,bytes)": {
						"details": "Safely transfers `tokenId` token from `from` to `to`. Requirements: - `from` cannot be the zero address. - `to` cannot be the zero address. - `tokenId` token must exist and be owned by `from`. - If the caller is not `from`, it must be approved to move this token by either {approve} or {setApprovalForAll}. - If `to` refers to a smart contract, it must implement {IERC721Receiver-onERC721Received}, which is called upon a safe transfer. Emits a {Transfer} event."
					},
					"setApprovalForAll(address,bool)": {
						"details": "Approve or remove `operator` as an operator for the caller. Operators can call {transferFrom} or {safeTransferFrom} for any token owned by the caller. Requirements: - The `operator` cannot be the caller. Emits an {ApprovalForAll} event."
					},
					"supportsInterface(bytes4)": {
						"details": "Returns true if this contract implements the interface defined by `interfaceId`. See the corresponding [EIP section](https://eips.ethereum.org/EIPS/eip-165#how-interfaces-are-identified) to learn more about how these ids are created. This function call must use less than 30000 gas."
					},
					"symbol()": {
						"details": "Returns the token collection symbol."
					},
					"tokenURI(uint256)": {
						"details": "Returns the Uniform Resource Identifier (URI) for `tokenId` token."
					},
					"totalSupply()": {
						"details": "Returns the total number of tokens in existence. Burned tokens will reduce the count. To get the total number of tokens minted, please see {_totalMinted}."
					},
					"transferFrom(address,address,uint256)": {
						"details": "Transfers `tokenId` from `from` to `to`. Requirements: - `from` cannot be the zero address. - `to` cannot be the zero address. - `tokenId` token must be owned by `from`. - If the caller is not `from`, it must be approved to move this token by either {approve} or {setApprovalForAll}. Emits a {Transfer} event."
					}
				},
				"version": 1
			},
			"evm": {
				"assembly": "    /* \"contracts/ContractV/ContractVV2.sol\":252:4894  contract ContractVV2 is ERC721A, Context {... */\n  mstore(0x40, 0x80)\n    /* \"contracts/ContractV/ContractVV2.sol\":1511:1589  constructor() ERC721A(\"Digiture\", \"DGT\") {... */\n  callvalue\n  dup1\n  iszero\n  tag_1\n  jumpi\n  0x00\n  dup1\n  revert\ntag_1:\n  pop\n    /* \"https://github.com/chiru-labs/ERC721A/blob/main/contracts/ERC721A.sol\":5261:5507  constructor(string memory name_, string memory symbol_) {... */\n  mload(0x40)\n  dup1\n  0x40\n  add\n  0x40\n  mstore\n  dup1\n  0x08\n  dup2\n  mstore\n  0x20\n  add\n  shl(0xc0, 0x4469676974757265)\n  dup2\n  mstore\n  pop\n  mload(0x40)\n  dup1\n  0x40\n  add\n  0x40\n  mstore\n  dup1\n  0x03\n  dup2\n  mstore\n  0x20\n  add\n  shl(0xea, 0x1111d5)\n  dup2\n  mstore\n  pop\n    /* \"https://github.com/chiru-labs/ERC721A/blob/main/contracts/ERC721A.sol\":5335:5340  name_ */\n  dup2\n    /* \"https://github.com/chiru-labs/ERC721A/blob/main/contracts/ERC721A.sol\":5327:5332  _name */\n  0x02\n    /* \"https://github.com/chiru-labs/ERC721A/blob/main/contracts/ERC721A.sol\":5327:5340  _name = name_ */\n  swap1\n  dup2\n  tag_5\n  swap2\n  swap1\n  tag_6\n  jump\t// in\ntag_5:\n  pop\n    /* \"https://github.com/chiru-labs/ERC721A/blob/main/contracts/ERC721A.sol\":5350:5357  _symbol */\n  0x03\n    /* \"https://github.com/chiru-labs/ERC721A/blob/main/contracts/ERC721A.sol\":5350:5367  _symbol = symbol_ */\n  tag_7\n    /* \"https://github.com/chiru-labs/ERC721A/blob/main/contracts/ERC721A.sol\":5360:5367  symbol_ */\n  dup3\n    /* \"https://github.com/chiru-labs/ERC721A/blob/main/contracts/ERC721A.sol\":5350:5357  _symbol */\n  dup3\n    /* \"https://github.com/chiru-labs/ERC721A/blob/main/contracts/ERC721A.sol\":5350:5367  _symbol = symbol_ */\n  tag_6\n  jump\t// in\ntag_7:\n  pop\n  pop\n    /* \"https://github.com/chiru-labs/ERC721A/blob/main/contracts/ERC721A.sol\":6022:6029  uint256 */\n  0x00\n    /* \"https://github.com/chiru-labs/ERC721A/blob/main/contracts/ERC721A.sol\":5377:5408  _currentIndex = _startTokenId() */\n  dup1\n  sstore\n  pop\n    /* \"contracts/ContractV/ContractVV2.sol\":1580:1581  1 */\n  0x01\n    /* \"contracts/ContractV/ContractVV2.sol\":1563:1577  nextCreatureId */\n  0x09\n    /* \"contracts/ContractV/ContractVV2.sol\":1563:1581  nextCreatureId = 1 */\n  sstore\n    /* \"contracts/ContractV/ContractVV2.sol\":252:4894  contract ContractVV2 is ERC721A, Context {... */\n  jump(tag_26)\n    /* \"#utility.yul\":14:141   */\ntag_21:\n    /* \"#utility.yul\":75:85   */\n  0x4e487b71\n    /* \"#utility.yul\":70:73   */\n  0xe0\n    /* \"#utility.yul\":66:86   */\n  shl\n    /* \"#utility.yul\":63:64   */\n  0x00\n    /* \"#utility.yul\":56:87   */\n  mstore\n    /* \"#utility.yul\":106:110   */\n  0x41\n    /* \"#utility.yul\":103:104   */\n  0x04\n    /* \"#utility.yul\":96:111   */\n  mstore\n    /* \"#utility.yul\":130:134   */\n  0x24\n    /* \"#utility.yul\":127:128   */\n  0x00\n    /* \"#utility.yul\":120:135   */\n  revert\n    /* \"#utility.yul\":146:526   */\ntag_22:\n    /* \"#utility.yul\":225:226   */\n  0x01\n    /* \"#utility.yul\":221:233   */\n  dup2\n  dup2\n  shr\n  swap1\n    /* \"#utility.yul\":268:280   */\n  dup3\n  and\n  dup1\n    /* \"#utility.yul\":289:350   */\n  tag_29\n  jumpi\n    /* \"#utility.yul\":343:347   */\n  0x7f\n    /* \"#utility.yul\":335:341   */\n  dup3\n    /* \"#utility.yul\":331:348   */\n  and\n    /* \"#utility.yul\":321:348   */\n  swap2\n  pop\n    /* \"#utility.yul\":289:350   */\ntag_29:\n    /* \"#utility.yul\":396:398   */\n  0x20\n    /* \"#utility.yul\":388:394   */\n  dup3\n    /* \"#utility.yul\":385:399   */\n  lt\n    /* \"#utility.yul\":365:383   */\n  dup2\n    /* \"#utility.yul\":362:400   */\n  sub\n    /* \"#utility.yul\":359:520   */\n  tag_30\n  jumpi\n    /* \"#utility.yul\":442:452   */\n  0x4e487b71\n    /* \"#utility.yul\":437:440   */\n  0xe0\n    /* \"#utility.yul\":433:453   */\n  shl\n    /* \"#utility.yul\":430:431   */\n  0x00\n    /* \"#utility.yul\":423:454   */\n  mstore\n    /* \"#utility.yul\":477:481   */\n  0x22\n    /* \"#utility.yul\":474:475   */\n  0x04\n    /* \"#utility.yul\":467:482   */\n  mstore\n    /* \"#utility.yul\":505:509   */\n  0x24\n    /* \"#utility.yul\":502:503   */\n  0x00\n    /* \"#utility.yul\":495:510   */\n  revert\n    /* \"#utility.yul\":359:520   */\ntag_30:\n  pop\n    /* \"#utility.yul\":146:526   */\n  swap2\n  swap1\n  pop\n  jump\t// out\n    /* \"#utility.yul\":657:1175   */\ntag_24:\n    /* \"#utility.yul\":759:761   */\n  0x1f\n    /* \"#utility.yul\":754:757   */\n  dup3\n    /* \"#utility.yul\":751:762   */\n  gt\n    /* \"#utility.yul\":748:1169   */\n  iszero\n  tag_33\n  jumpi\n    /* \"#utility.yul\":795:800   */\n  dup1\n    /* \"#utility.yul\":792:793   */\n  0x00\n    /* \"#utility.yul\":785:801   */\n  mstore\n    /* \"#utility.yul\":839:843   */\n  0x20\n    /* \"#utility.yul\":836:837   */\n  0x00\n    /* \"#utility.yul\":826:844   */\n  keccak256\n    /* \"#utility.yul\":909:911   */\n  0x1f\n    /* \"#utility.yul\":897:907   */\n  dup5\n    /* \"#utility.yul\":893:912   */\n  add\n    /* \"#utility.yul\":890:891   */\n  0x05\n    /* \"#utility.yul\":886:913   */\n  shr\n    /* \"#utility.yul\":880:884   */\n  dup2\n    /* \"#utility.yul\":876:914   */\n  add\n    /* \"#utility.yul\":945:949   */\n  0x20\n    /* \"#utility.yul\":933:943   */\n  dup6\n    /* \"#utility.yul\":930:950   */\n  lt\n    /* \"#utility.yul\":927:974   */\n  iszero\n  tag_34\n  jumpi\n  pop\n    /* \"#utility.yul\":968:972   */\n  dup1\n    /* \"#utility.yul\":927:974   */\ntag_34:\n    /* \"#utility.yul\":1023:1025   */\n  0x1f\n    /* \"#utility.yul\":1018:1021   */\n  dup5\n    /* \"#utility.yul\":1014:1026   */\n  add\n    /* \"#utility.yul\":1011:1012   */\n  0x05\n    /* \"#utility.yul\":1007:1027   */\n  shr\n    /* \"#utility.yul\":1001:1005   */\n  dup3\n    /* \"#utility.yul\":997:1028   */\n  add\n    /* \"#utility.yul\":987:1028   */\n  swap2\n  pop\n    /* \"#utility.yul\":1078:1159   */\ntag_35:\n    /* \"#utility.yul\":1096:1098   */\n  dup2\n    /* \"#utility.yul\":1089:1094   */\n  dup2\n    /* \"#utility.yul\":1086:1099   */\n  lt\n    /* \"#utility.yul\":1078:1159   */\n  iszero\n  tag_37\n  jumpi\n    /* \"#utility.yul\":1155:1156   */\n  0x00\n    /* \"#utility.yul\":1141:1157   */\n  dup2\n  sstore\n    /* \"#utility.yul\":1122:1123   */\n  0x01\n    /* \"#utility.yul\":1111:1124   */\n  add\n    /* \"#utility.yul\":1078:1159   */\n  jump(tag_35)\ntag_37:\n    /* \"#utility.yul\":1082:1085   */\n  pop\n  pop\n    /* \"#utility.yul\":748:1169   */\ntag_33:\n    /* \"#utility.yul\":657:1175   */\n  pop\n  pop\n  pop\n  jump\t// out\n    /* \"#utility.yul\":1351:2696   */\ntag_6:\n    /* \"#utility.yul\":1471:1481   */\n  dup2\n  mload\n  sub(shl(0x40, 0x01), 0x01)\n    /* \"#utility.yul\":1493:1523   */\n  dup2\n  gt\n    /* \"#utility.yul\":1490:1546   */\n  iszero\n  tag_41\n  jumpi\n    /* \"#utility.yul\":1526:1544   */\n  tag_41\n  tag_21\n  jump\t// in\ntag_41:\n    /* \"#utility.yul\":1555:1652   */\n  tag_42\n    /* \"#utility.yul\":1645:1651   */\n  dup2\n    /* \"#utility.yul\":1605:1643   */\n  tag_43\n    /* \"#utility.yul\":1637:1641   */\n  dup5\n    /* \"#utility.yul\":1631:1642   */\n  sload\n    /* \"#utility.yul\":1605:1643   */\n  tag_22\n  jump\t// in\ntag_43:\n    /* \"#utility.yul\":1599:1603   */\n  dup5\n    /* \"#utility.yul\":1555:1652   */\n  tag_24\n  jump\t// in\ntag_42:\n    /* \"#utility.yul\":1707:1711   */\n  0x20\n  dup1\n    /* \"#utility.yul\":1764:1766   */\n  0x1f\n    /* \"#utility.yul\":1753:1767   */\n  dup4\n  gt\n    /* \"#utility.yul\":1781:1782   */\n  0x01\n    /* \"#utility.yul\":1776:2439   */\n  dup2\n  eq\n  tag_45\n  jumpi\n    /* \"#utility.yul\":2483:2484   */\n  0x00\n    /* \"#utility.yul\":2500:2506   */\n  dup5\n    /* \"#utility.yul\":2497:2586   */\n  iszero\n  tag_46\n  jumpi\n  pop\n    /* \"#utility.yul\":2552:2571   */\n  dup6\n  dup4\n  add\n    /* \"#utility.yul\":2546:2572   */\n  mload\n    /* \"#utility.yul\":2497:2586   */\ntag_46:\n  not(0x00)\n    /* \"#utility.yul\":1308:1309   */\n  0x03\n    /* \"#utility.yul\":1304:1315   */\n  dup7\n  swap1\n  shl\n    /* \"#utility.yul\":1300:1324   */\n  shr\n    /* \"#utility.yul\":1296:1325   */\n  not\n    /* \"#utility.yul\":1286:1326   */\n  and\n    /* \"#utility.yul\":1332:1333   */\n  0x01\n    /* \"#utility.yul\":1328:1339   */\n  dup6\n  swap1\n  shl\n    /* \"#utility.yul\":1283:1340   */\n  or\n    /* \"#utility.yul\":2599:2680   */\n  dup6\n  sstore\n    /* \"#utility.yul\":1746:2690   */\n  jump(tag_44)\n    /* \"#utility.yul\":1776:2439   */\ntag_45:\n    /* \"#utility.yul\":604:605   */\n  0x00\n    /* \"#utility.yul\":597:611   */\n  dup6\n  dup2\n  mstore\n    /* \"#utility.yul\":641:645   */\n  0x20\n    /* \"#utility.yul\":628:646   */\n  dup2\n  keccak256\n  not(0x1f)\n    /* \"#utility.yul\":1812:1832   */\n  dup7\n  and\n  swap2\n    /* \"#utility.yul\":1930:2166   */\ntag_49:\n    /* \"#utility.yul\":1944:1951   */\n  dup3\n    /* \"#utility.yul\":1941:1942   */\n  dup2\n    /* \"#utility.yul\":1938:1952   */\n  lt\n    /* \"#utility.yul\":1930:2166   */\n  iszero\n  tag_51\n  jumpi\n    /* \"#utility.yul\":2033:2052   */\n  dup9\n  dup7\n  add\n    /* \"#utility.yul\":2027:2053   */\n  mload\n    /* \"#utility.yul\":2012:2054   */\n  dup3\n  sstore\n    /* \"#utility.yul\":2125:2152   */\n  swap5\n  dup5\n  add\n  swap5\n    /* \"#utility.yul\":2093:2094   */\n  0x01\n    /* \"#utility.yul\":2081:2095   */\n  swap1\n  swap2\n  add\n  swap1\n    /* \"#utility.yul\":1960:1979   */\n  dup5\n  add\n    /* \"#utility.yul\":1930:2166   */\n  jump(tag_49)\ntag_51:\n    /* \"#utility.yul\":1934:1937   */\n  pop\n    /* \"#utility.yul\":2194:2200   */\n  dup6\n    /* \"#utility.yul\":2185:2192   */\n  dup3\n    /* \"#utility.yul\":2182:2201   */\n  lt\n    /* \"#utility.yul\":2179:2380   */\n  iszero\n  tag_52\n  jumpi\n    /* \"#utility.yul\":2255:2274   */\n  dup8\n  dup6\n  add\n    /* \"#utility.yul\":2249:2275   */\n  mload\n  not(0x00)\n    /* \"#utility.yul\":2338:2339   */\n  0x03\n    /* \"#utility.yul\":2334:2348   */\n  dup9\n  swap1\n  shl\n    /* \"#utility.yul\":2350:2353   */\n  0xf8\n    /* \"#utility.yul\":2330:2354   */\n  and\n    /* \"#utility.yul\":2326:2363   */\n  shr\n    /* \"#utility.yul\":2322:2364   */\n  not\n    /* \"#utility.yul\":2307:2365   */\n  and\n    /* \"#utility.yul\":2292:2366   */\n  dup2\n  sstore\n    /* \"#utility.yul\":2179:2380   */\ntag_52:\n  pop\n  pop\n    /* \"#utility.yul\":2426:2427   */\n  0x01\n    /* \"#utility.yul\":2417:2423   */\n  dup5\n    /* \"#utility.yul\":2414:2415   */\n  0x01\n    /* \"#utility.yul\":2410:2424   */\n  shl\n    /* \"#utility.yul\":2406:2428   */\n  add\n    /* \"#utility.yul\":2400:2404   */\n  dup6\n    /* \"#utility.yul\":2393:2429   */\n  sstore\n    /* \"#utility.yul\":1746:2690   */\ntag_44:\n  pop\n  pop\n  pop\n  pop\n    /* \"#utility.yul\":1351:2696   */\n  pop\n  pop\n  jump\t// out\ntag_26:\n    /* \"contracts/ContractV/ContractVV2.sol\":252:4894  contract ContractVV2 is ERC721A, Context {... */\n  dataSize(sub_0)\n  dup1\n  dataOffset(sub_0)\n  0x00\n  codecopy\n  0x00\n  return\nstop\n\nsub_0: assembly {\n        /* \"contracts/ContractV/ContractVV2.sol\":252:4894  contract ContractVV2 is ERC721A, Context {... */\n      mstore(0x40, 0x80)\n      jumpi(tag_1, lt(calldatasize, 0x04))\n      shr(0xe0, calldataload(0x00))\n      dup1\n      0x6352211e\n      gt\n      tag_21\n      jumpi\n      dup1\n      0xb88d4fde\n      gt\n      tag_22\n      jumpi\n      dup1\n      0xe985e9c5\n      gt\n      tag_23\n      jumpi\n      dup1\n      0xe985e9c5\n      eq\n      tag_18\n      jumpi\n      dup1\n      0xf052d65a\n      eq\n      tag_19\n      jumpi\n      dup1\n      0xfd499a74\n      eq\n      tag_20\n      jumpi\n      0x00\n      dup1\n      revert\n    tag_23:\n      dup1\n      0xb88d4fde\n      eq\n      tag_16\n      jumpi\n      dup1\n      0xc87b56dd\n      eq\n      tag_17\n      jumpi\n      0x00\n      dup1\n      revert\n    tag_22:\n      dup1\n      0x95d89b41\n      gt\n      tag_24\n      jumpi\n      dup1\n      0x95d89b41\n      eq\n      tag_13\n      jumpi\n      dup1\n      0xa22cb465\n      eq\n      tag_14\n      jumpi\n      dup1\n      0xa32ce491\n      eq\n      tag_15\n      jumpi\n      0x00\n      dup1\n      revert\n    tag_24:\n      dup1\n      0x6352211e\n      eq\n      tag_11\n      jumpi\n      dup1\n      0x70a08231\n      eq\n      tag_12\n      jumpi\n      0x00\n      dup1\n      revert\n    tag_21:\n      dup1\n      0x18160ddd\n      gt\n      tag_25\n      jumpi\n      dup1\n      0x3095fe91\n      gt\n      tag_26\n      jumpi\n      dup1\n      0x3095fe91\n      eq\n      tag_8\n      jumpi\n      dup1\n      0x3beb9327\n      eq\n      tag_9\n      jumpi\n      dup1\n      0x42842e0e\n      eq\n      tag_10\n      jumpi\n      0x00\n      dup1\n      revert\n    tag_26:\n      dup1\n      0x18160ddd\n      eq\n      tag_6\n      jumpi\n      dup1\n      0x23b872dd\n      eq\n      tag_7\n      jumpi\n      0x00\n      dup1\n      revert\n    tag_25:\n      dup1\n      0x01ffc9a7\n      eq\n      tag_2\n      jumpi\n      dup1\n      0x06fdde03\n      eq\n      tag_3\n      jumpi\n      dup1\n      0x081812fc\n      eq\n      tag_4\n      jumpi\n      dup1\n      0x095ea7b3\n      eq\n      tag_5\n      jumpi\n    tag_1:\n      0x00\n      dup1\n      revert\n        /* \"https://github.com/chiru-labs/ERC721A/blob/main/contracts/ERC721A.sol\":10689:11319  function supportsInterface(bytes4 interfaceId) public view virtual override returns (bool) {... */\n    tag_2:\n      callvalue\n      dup1\n      iszero\n      tag_27\n      jumpi\n      0x00\n      dup1\n      revert\n    tag_27:\n      pop\n      tag_28\n      tag_29\n      calldatasize\n      0x04\n      tag_30\n      jump\t// in\n    tag_29:\n      tag_31\n      jump\t// in\n    tag_28:\n      mload(0x40)\n        /* \"#utility.yul\":611:625   */\n      swap1\n      iszero\n        /* \"#utility.yul\":604:626   */\n      iszero\n        /* \"#utility.yul\":586:627   */\n      dup2\n      mstore\n        /* \"#utility.yul\":574:576   */\n      0x20\n        /* \"#utility.yul\":559:577   */\n      add\n        /* \"https://github.com/chiru-labs/ERC721A/blob/main/contracts/ERC721A.sol\":10689:11319  function supportsInterface(bytes4 interfaceId) public view virtual override returns (bool) {... */\n    tag_32:\n      mload(0x40)\n      dup1\n      swap2\n      sub\n      swap1\n      return\n        /* \"https://github.com/chiru-labs/ERC721A/blob/main/contracts/ERC721A.sol\":11573:11671  function name() public view virtual override returns (string memory) {... */\n    tag_3:\n      callvalue\n      dup1\n      iszero\n      tag_34\n      jumpi\n      0x00\n      dup1\n      revert\n    tag_34:\n      pop\n      tag_35\n      tag_36\n      jump\t// in\n    tag_35:\n      mload(0x40)\n      tag_32\n      swap2\n      swap1\n      tag_38\n      jump\t// in\n        /* \"https://github.com/chiru-labs/ERC721A/blob/main/contracts/ERC721A.sol\":18636:18859  function getApproved(uint256 tokenId) public view virtual override returns (address) {... */\n    tag_4:\n      callvalue\n      dup1\n      iszero\n      tag_39\n      jumpi\n      0x00\n      dup1\n      revert\n    tag_39:\n      pop\n      tag_40\n      tag_41\n      calldatasize\n      0x04\n      tag_42\n      jump\t// in\n    tag_41:\n      tag_43\n      jump\t// in\n    tag_40:\n      mload(0x40)\n      sub(shl(0xa0, 0x01), 0x01)\n        /* \"#utility.yul\":1528:1583   */\n      swap1\n      swap2\n      and\n        /* \"#utility.yul\":1510:1584   */\n      dup2\n      mstore\n        /* \"#utility.yul\":1498:1500   */\n      0x20\n        /* \"#utility.yul\":1483:1501   */\n      add\n        /* \"https://github.com/chiru-labs/ERC721A/blob/main/contracts/ERC721A.sol\":18636:18859  function getApproved(uint256 tokenId) public view virtual override returns (address) {... */\n      tag_32\n        /* \"#utility.yul\":1364:1590   */\n      jump\n        /* \"https://github.com/chiru-labs/ERC721A/blob/main/contracts/ERC721A.sol\":18364:18486  function approve(address to, uint256 tokenId) public payable virtual override {... */\n    tag_5:\n      tag_46\n      tag_47\n      calldatasize\n      0x04\n      tag_48\n      jump\t// in\n    tag_47:\n      tag_49\n      jump\t// in\n    tag_46:\n      stop\n        /* \"https://github.com/chiru-labs/ERC721A/blob/main/contracts/ERC721A.sol\":6890:7454  function totalSupply() public view virtual override returns (uint256 result) {... */\n    tag_6:\n      callvalue\n      dup1\n      iszero\n      tag_50\n      jumpi\n      0x00\n      dup1\n      revert\n    tag_50:\n      pop\n        /* \"https://github.com/chiru-labs/ERC721A/blob/main/contracts/ERC721A.sol\":7328:7340  _burnCounter */\n      sload(0x01)\n        /* \"https://github.com/chiru-labs/ERC721A/blob/main/contracts/ERC721A.sol\":6951:6965  uint256 result */\n      0x00\n        /* \"https://github.com/chiru-labs/ERC721A/blob/main/contracts/ERC721A.sol\":7312:7325  _currentIndex */\n      sload\n        /* \"https://github.com/chiru-labs/ERC721A/blob/main/contracts/ERC721A.sol\":7312:7340  _currentIndex - _burnCounter */\n      sub\n        /* \"https://github.com/chiru-labs/ERC721A/blob/main/contracts/ERC721A.sol\":6890:7454  function totalSupply() public view virtual override returns (uint256 result) {... */\n    tag_51:\n      mload(0x40)\n        /* \"#utility.yul\":2201:2226   */\n      swap1\n      dup2\n      mstore\n        /* \"#utility.yul\":2189:2191   */\n      0x20\n        /* \"#utility.yul\":2174:2192   */\n      add\n        /* \"https://github.com/chiru-labs/ERC721A/blob/main/contracts/ERC721A.sol\":6890:7454  function totalSupply() public view virtual override returns (uint256 result) {... */\n      tag_32\n        /* \"#utility.yul\":2055:2232   */\n      jump\n        /* \"https://github.com/chiru-labs/ERC721A/blob/main/contracts/ERC721A.sol\":22796:26243  function transferFrom(... */\n    tag_7:\n      tag_46\n      tag_56\n      calldatasize\n      0x04\n      tag_57\n      jump\t// in\n    tag_56:\n      tag_58\n      jump\t// in\n        /* \"contracts/ContractV/ContractVV2.sol\":1597:1698  function getNextCreatureId() external view returns (uint256) {... */\n    tag_8:\n      callvalue\n      dup1\n      iszero\n      tag_59\n      jumpi\n      0x00\n      dup1\n      revert\n    tag_59:\n      pop\n        /* \"contracts/ContractV/ContractVV2.sol\":1676:1690  nextCreatureId */\n      sload(0x09)\n        /* \"contracts/ContractV/ContractVV2.sol\":1597:1698  function getNextCreatureId() external view returns (uint256) {... */\n      jump(tag_51)\n        /* \"contracts/ContractV/ContractVV2.sol\":3019:3593  function mintCreature(uint256 gameStats) external {... */\n    tag_9:\n      callvalue\n      dup1\n      iszero\n      tag_63\n      jumpi\n      0x00\n      dup1\n      revert\n    tag_63:\n      pop\n      tag_46\n      tag_65\n      calldatasize\n      0x04\n      tag_42\n      jump\t// in\n    tag_65:\n      tag_66\n      jump\t// in\n        /* \"https://github.com/chiru-labs/ERC721A/blob/main/contracts/ERC721A.sol\":26334:26521  function safeTransferFrom(... */\n    tag_10:\n      tag_46\n      tag_68\n      calldatasize\n      0x04\n      tag_57\n      jump\t// in\n    tag_68:\n      tag_69\n      jump\t// in\n        /* \"https://github.com/chiru-labs/ERC721A/blob/main/contracts/ERC721A.sol\":12934:13084  function ownerOf(uint256 tokenId) public view virtual override returns (address) {... */\n    tag_11:\n      callvalue\n      dup1\n      iszero\n      tag_70\n      jumpi\n      0x00\n      dup1\n      revert\n    tag_70:\n      pop\n      tag_40\n      tag_72\n      calldatasize\n      0x04\n      tag_42\n      jump\t// in\n    tag_72:\n      tag_73\n      jump\t// in\n        /* \"https://github.com/chiru-labs/ERC721A/blob/main/contracts/ERC721A.sol\":8570:8809  function balanceOf(address owner) public view virtual override returns (uint256) {... */\n    tag_12:\n      callvalue\n      dup1\n      iszero\n      tag_75\n      jumpi\n      0x00\n      dup1\n      revert\n    tag_75:\n      pop\n      tag_51\n      tag_77\n      calldatasize\n      0x04\n      tag_78\n      jump\t// in\n    tag_77:\n      tag_79\n      jump\t// in\n        /* \"https://github.com/chiru-labs/ERC721A/blob/main/contracts/ERC721A.sol\":11742:11844  function symbol() public view virtual override returns (string memory) {... */\n    tag_13:\n      callvalue\n      dup1\n      iszero\n      tag_81\n      jumpi\n      0x00\n      dup1\n      revert\n    tag_81:\n      pop\n      tag_35\n      tag_83\n      jump\t// in\n        /* \"https://github.com/chiru-labs/ERC721A/blob/main/contracts/ERC721A.sol\":19186:19417  function setApprovalForAll(address operator, bool approved) public virtual override {... */\n    tag_14:\n      callvalue\n      dup1\n      iszero\n      tag_85\n      jumpi\n      0x00\n      dup1\n      revert\n    tag_85:\n      pop\n      tag_46\n      tag_87\n      calldatasize\n      0x04\n      tag_88\n      jump\t// in\n    tag_87:\n      tag_89\n      jump\t// in\n        /* \"contracts/ContractV/ContractVV2.sol\":3782:4595  function recordBattleResult(uint256 winnerId, uint256 loserId) external onlyOwnedCreature(winnerId) {... */\n    tag_15:\n      callvalue\n      dup1\n      iszero\n      tag_90\n      jumpi\n      0x00\n      dup1\n      revert\n    tag_90:\n      pop\n      tag_46\n      tag_92\n      calldatasize\n      0x04\n      tag_93\n      jump\t// in\n    tag_92:\n      tag_94\n      jump\t// in\n        /* \"https://github.com/chiru-labs/ERC721A/blob/main/contracts/ERC721A.sol\":27102:27507  function safeTransferFrom(... */\n    tag_16:\n      tag_46\n      tag_96\n      calldatasize\n      0x04\n      tag_97\n      jump\t// in\n    tag_96:\n      tag_98\n      jump\t// in\n        /* \"https://github.com/chiru-labs/ERC721A/blob/main/contracts/ERC721A.sol\":11945:12267  function tokenURI(uint256 tokenId) public view virtual override returns (string memory) {... */\n    tag_17:\n      callvalue\n      dup1\n      iszero\n      tag_99\n      jumpi\n      0x00\n      dup1\n      revert\n    tag_99:\n      pop\n      tag_35\n      tag_101\n      calldatasize\n      0x04\n      tag_42\n      jump\t// in\n    tag_101:\n      tag_102\n      jump\t// in\n        /* \"https://github.com/chiru-labs/ERC721A/blob/main/contracts/ERC721A.sol\":19567:19729  function isApprovedForAll(address owner, address operator) public view virtual override returns (bool) {... */\n    tag_18:\n      callvalue\n      dup1\n      iszero\n      tag_104\n      jumpi\n      0x00\n      dup1\n      revert\n    tag_104:\n      pop\n      tag_28\n      tag_106\n      calldatasize\n      0x04\n      tag_107\n      jump\t// in\n    tag_106:\n      sub(shl(0xa0, 0x01), 0x01)\n        /* \"https://github.com/chiru-labs/ERC721A/blob/main/contracts/ERC721A.sol\":19687:19712  _operatorApprovals[owner] */\n      swap2\n      dup3\n      and\n        /* \"https://github.com/chiru-labs/ERC721A/blob/main/contracts/ERC721A.sol\":19664:19668  bool */\n      0x00\n        /* \"https://github.com/chiru-labs/ERC721A/blob/main/contracts/ERC721A.sol\":19687:19712  _operatorApprovals[owner] */\n      swap1\n      dup2\n      mstore\n        /* \"https://github.com/chiru-labs/ERC721A/blob/main/contracts/ERC721A.sol\":19687:19705  _operatorApprovals */\n      0x07\n        /* \"https://github.com/chiru-labs/ERC721A/blob/main/contracts/ERC721A.sol\":19687:19712  _operatorApprovals[owner] */\n      0x20\n      swap1\n      dup2\n      mstore\n      0x40\n      dup1\n      dup4\n      keccak256\n        /* \"https://github.com/chiru-labs/ERC721A/blob/main/contracts/ERC721A.sol\":19687:19722  _operatorApprovals[owner][operator] */\n      swap4\n      swap1\n      swap5\n      and\n      dup3\n      mstore\n      swap2\n      swap1\n      swap2\n      mstore\n      keccak256\n      sload\n      0xff\n      and\n      swap1\n        /* \"https://github.com/chiru-labs/ERC721A/blob/main/contracts/ERC721A.sol\":19567:19729  function isApprovedForAll(address owner, address operator) public view virtual override returns (bool) {... */\n      jump\n        /* \"contracts/ContractV/ContractVV2.sol\":1706:1818  function getCreature(uint256 id) external view returns (Creature memory) {... */\n    tag_19:\n      callvalue\n      dup1\n      iszero\n      tag_110\n      jumpi\n      0x00\n      dup1\n      revert\n    tag_110:\n      pop\n      tag_111\n      tag_112\n      calldatasize\n      0x04\n      tag_42\n      jump\t// in\n    tag_112:\n      tag_113\n      jump\t// in\n    tag_111:\n      mload(0x40)\n      tag_32\n      swap2\n      swap1\n        /* \"#utility.yul\":5176:5189   */\n      dup2\n      mload\n        /* \"#utility.yul\":5158:5190   */\n      dup2\n      mstore\n        /* \"#utility.yul\":5250:5254   */\n      0x20\n        /* \"#utility.yul\":5238:5255   */\n      dup1\n      dup4\n      add\n        /* \"#utility.yul\":5232:5256   */\n      mload\n      sub(shl(0xa0, 0x01), 0x01)\n        /* \"#utility.yul\":5228:5301   */\n      and\n        /* \"#utility.yul\":5206:5226   */\n      swap1\n      dup3\n      add\n        /* \"#utility.yul\":5199:5302   */\n      mstore\n        /* \"#utility.yul\":5358:5362   */\n      0x40\n        /* \"#utility.yul\":5346:5363   */\n      dup1\n      dup4\n      add\n        /* \"#utility.yul\":5340:5364   */\n      mload\n        /* \"#utility.yul\":5318:5338   */\n      swap1\n      dup3\n      add\n        /* \"#utility.yul\":5311:5365   */\n      mstore\n        /* \"#utility.yul\":5421:5425   */\n      0x60\n        /* \"#utility.yul\":5409:5426   */\n      swap2\n      dup3\n      add\n        /* \"#utility.yul\":5403:5427   */\n      mload\n        /* \"#utility.yul\":5381:5401   */\n      swap2\n      dup2\n      add\n        /* \"#utility.yul\":5374:5428   */\n      swap2\n      swap1\n      swap2\n      mstore\n        /* \"#utility.yul\":5145:5148   */\n      0x80\n        /* \"#utility.yul\":5130:5149   */\n      add\n      swap1\n        /* \"#utility.yul\":4963:5434   */\n      jump\n        /* \"contracts/ContractV/ContractVV2.sol\":1894:2356  function unpackBattleRecord(uint256 battleRecord) public pure returns (uint256 wins, uint256 losses) {... */\n    tag_20:\n      callvalue\n      dup1\n      iszero\n      tag_116\n      jumpi\n      0x00\n      dup1\n      revert\n    tag_116:\n      pop\n      tag_117\n      tag_118\n      calldatasize\n      0x04\n      tag_42\n      jump\t// in\n    tag_118:\n        /* \"contracts/ContractV/ContractVV2.sol\":2154:2173  sub(shl(128, 1), 1) */\n      0xffffffffffffffffffffffffffffffff\n        /* \"contracts/ContractV/ContractVV2.sol\":2118:2174  and(shr(WINS_BITPOS, battleRecord), sub(shl(128, 1), 1)) */\n      dup2\n      and\n      swap2\n        /* \"contracts/ContractV/ContractVV2.sol\":2162:2165  128 */\n      0x80\n        /* \"contracts/ContractV/ContractVV2.sol\":2284:2316  shr(LOSSES_BITPOS, battleRecord) */\n      swap2\n      swap1\n      swap2\n      shr\n      swap1\n        /* \"contracts/ContractV/ContractVV2.sol\":1894:2356  function unpackBattleRecord(uint256 battleRecord) public pure returns (uint256 wins, uint256 losses) {... */\n      jump\n    tag_117:\n      0x40\n      dup1\n      mload\n        /* \"#utility.yul\":5613:5638   */\n      swap3\n      dup4\n      mstore\n        /* \"#utility.yul\":5669:5671   */\n      0x20\n        /* \"#utility.yul\":5654:5672   */\n      dup4\n      add\n        /* \"#utility.yul\":5647:5681   */\n      swap2\n      swap1\n      swap2\n      mstore\n        /* \"#utility.yul\":5586:5604   */\n      add\n        /* \"contracts/ContractV/ContractVV2.sol\":1894:2356  function unpackBattleRecord(uint256 battleRecord) public pure returns (uint256 wins, uint256 losses) {... */\n      tag_32\n        /* \"#utility.yul\":5439:5687   */\n      jump\n        /* \"https://github.com/chiru-labs/ERC721A/blob/main/contracts/ERC721A.sol\":10689:11319  function supportsInterface(bytes4 interfaceId) public view virtual override returns (bool) {... */\n    tag_31:\n        /* \"https://github.com/chiru-labs/ERC721A/blob/main/contracts/ERC721A.sol\":10774:10778  bool */\n      0x00\n        /* \"https://github.com/chiru-labs/ERC721A/blob/main/contracts/ERC721A.sol\":11092:11117  interfaceId == 0x01ffc9a7 */\n      0x01ffc9a700000000000000000000000000000000000000000000000000000000\n      not(sub(shl(0xe0, 0x01), 0x01))\n      dup4\n      and\n      eq\n      dup1\n        /* \"https://github.com/chiru-labs/ERC721A/blob/main/contracts/ERC721A.sol\":11092:11193  interfaceId == 0x01ffc9a7 || // ERC165 interface ID for ERC165.... */\n      tag_123\n      jumpi\n      pop\n        /* \"https://github.com/chiru-labs/ERC721A/blob/main/contracts/ERC721A.sol\":11168:11193  interfaceId == 0x80ac58cd */\n      0x80ac58cd00000000000000000000000000000000000000000000000000000000\n      not(sub(shl(0xe0, 0x01), 0x01))\n      dup4\n      and\n      eq\n        /* \"https://github.com/chiru-labs/ERC721A/blob/main/contracts/ERC721A.sol\":11092:11193  interfaceId == 0x01ffc9a7 || // ERC165 interface ID for ERC165.... */\n    tag_123:\n        /* \"https://github.com/chiru-labs/ERC721A/blob/main/contracts/ERC721A.sol\":11092:11269  interfaceId == 0x01ffc9a7 || // ERC165 interface ID for ERC165.... */\n      dup1\n      tag_124\n      jumpi\n      pop\n        /* \"https://github.com/chiru-labs/ERC721A/blob/main/contracts/ERC721A.sol\":11244:11269  interfaceId == 0x5b5e139f */\n      0x5b5e139f00000000000000000000000000000000000000000000000000000000\n      not(sub(shl(0xe0, 0x01), 0x01))\n      dup4\n      and\n      eq\n        /* \"https://github.com/chiru-labs/ERC721A/blob/main/contracts/ERC721A.sol\":11092:11269  interfaceId == 0x01ffc9a7 || // ERC165 interface ID for ERC165.... */\n    tag_124:\n        /* \"https://github.com/chiru-labs/ERC721A/blob/main/contracts/ERC721A.sol\":11073:11269  return... */\n      swap3\n        /* \"https://github.com/chiru-labs/ERC721A/blob/main/contracts/ERC721A.sol\":10689:11319  function supportsInterface(bytes4 interfaceId) public view virtual override returns (bool) {... */\n      swap2\n      pop\n      pop\n      jump\t// out\n        /* \"https://github.com/chiru-labs/ERC721A/blob/main/contracts/ERC721A.sol\":11573:11671  function name() public view virtual override returns (string memory) {... */\n    tag_36:\n        /* \"https://github.com/chiru-labs/ERC721A/blob/main/contracts/ERC721A.sol\":11627:11640  string memory */\n      0x60\n        /* \"https://github.com/chiru-labs/ERC721A/blob/main/contracts/ERC721A.sol\":11659:11664  _name */\n      0x02\n        /* \"https://github.com/chiru-labs/ERC721A/blob/main/contracts/ERC721A.sol\":11652:11664  return _name */\n      dup1\n      sload\n      tag_126\n      swap1\n      tag_127\n      jump\t// in\n    tag_126:\n      dup1\n      0x1f\n      add\n      0x20\n      dup1\n      swap2\n      div\n      mul\n      0x20\n      add\n      mload(0x40)\n      swap1\n      dup2\n      add\n      0x40\n      mstore\n      dup1\n      swap3\n      swap2\n      swap1\n      dup2\n      dup2\n      mstore\n      0x20\n      add\n      dup3\n      dup1\n      sload\n      tag_128\n      swap1\n      tag_127\n      jump\t// in\n    tag_128:\n      dup1\n      iszero\n      tag_129\n      jumpi\n      dup1\n      0x1f\n      lt\n      tag_130\n      jumpi\n      0x0100\n      dup1\n      dup4\n      sload\n      div\n      mul\n      dup4\n      mstore\n      swap2\n      0x20\n      add\n      swap2\n      jump(tag_129)\n    tag_130:\n      dup3\n      add\n      swap2\n      swap1\n      0x00\n      mstore\n      keccak256(0x00, 0x20)\n      swap1\n    tag_131:\n      dup2\n      sload\n      dup2\n      mstore\n      swap1\n      0x01\n      add\n      swap1\n      0x20\n      add\n      dup1\n      dup4\n      gt\n      tag_131\n      jumpi\n      dup3\n      swap1\n      sub\n      0x1f\n      and\n      dup3\n      add\n      swap2\n    tag_129:\n      pop\n      pop\n      pop\n      pop\n      pop\n      swap1\n      pop\n        /* \"https://github.com/chiru-labs/ERC721A/blob/main/contracts/ERC721A.sol\":11573:11671  function name() public view virtual override returns (string memory) {... */\n      swap1\n      jump\t// out\n        /* \"https://github.com/chiru-labs/ERC721A/blob/main/contracts/ERC721A.sol\":18636:18859  function getApproved(uint256 tokenId) public view virtual override returns (address) {... */\n    tag_43:\n        /* \"https://github.com/chiru-labs/ERC721A/blob/main/contracts/ERC721A.sol\":18712:18719  address */\n      0x00\n        /* \"https://github.com/chiru-labs/ERC721A/blob/main/contracts/ERC721A.sol\":18736:18752  _exists(tokenId) */\n      tag_133\n        /* \"https://github.com/chiru-labs/ERC721A/blob/main/contracts/ERC721A.sol\":18744:18751  tokenId */\n      dup3\n        /* \"https://github.com/chiru-labs/ERC721A/blob/main/contracts/ERC721A.sol\":18736:18743  _exists */\n      tag_134\n        /* \"https://github.com/chiru-labs/ERC721A/blob/main/contracts/ERC721A.sol\":18736:18752  _exists(tokenId) */\n      jump\t// in\n    tag_133:\n        /* \"https://github.com/chiru-labs/ERC721A/blob/main/contracts/ERC721A.sol\":18731:18804  if (!_exists(tokenId)) _revert(ApprovalQueryForNonexistentToken.selector) */\n      tag_136\n      jumpi\n        /* \"https://github.com/chiru-labs/ERC721A/blob/main/contracts/ERC721A.sol\":18754:18804  _revert(ApprovalQueryForNonexistentToken.selector) */\n      tag_136\n        /* \"https://github.com/chiru-labs/ERC721A/blob/main/contracts/ERC721A.sol\":18762:18803  ApprovalQueryForNonexistentToken.selector */\n      0xcf4700e400000000000000000000000000000000000000000000000000000000\n        /* \"https://github.com/chiru-labs/ERC721A/blob/main/contracts/ERC721A.sol\":18754:18761  _revert */\n      tag_137\n        /* \"https://github.com/chiru-labs/ERC721A/blob/main/contracts/ERC721A.sol\":18754:18804  _revert(ApprovalQueryForNonexistentToken.selector) */\n      jump\t// in\n    tag_136:\n      pop\n        /* \"https://github.com/chiru-labs/ERC721A/blob/main/contracts/ERC721A.sol\":18822:18846  _tokenApprovals[tokenId] */\n      0x00\n      swap1\n      dup2\n      mstore\n        /* \"https://github.com/chiru-labs/ERC721A/blob/main/contracts/ERC721A.sol\":18822:18837  _tokenApprovals */\n      0x06\n        /* \"https://github.com/chiru-labs/ERC721A/blob/main/contracts/ERC721A.sol\":18822:18846  _tokenApprovals[tokenId] */\n      0x20\n      mstore\n      0x40\n      swap1\n      keccak256\n        /* \"https://github.com/chiru-labs/ERC721A/blob/main/contracts/ERC721A.sol\":18822:18852  _tokenApprovals[tokenId].value */\n      sload\n      sub(shl(0xa0, 0x01), 0x01)\n      and\n      swap1\n        /* \"https://github.com/chiru-labs/ERC721A/blob/main/contracts/ERC721A.sol\":18636:18859  function getApproved(uint256 tokenId) public view virtual override returns (address) {... */\n      jump\t// out\n        /* \"https://github.com/chiru-labs/ERC721A/blob/main/contracts/ERC721A.sol\":18364:18486  function approve(address to, uint256 tokenId) public payable virtual override {... */\n    tag_49:\n        /* \"https://github.com/chiru-labs/ERC721A/blob/main/contracts/ERC721A.sol\":18452:18479  _approve(to, tokenId, true) */\n      tag_139\n        /* \"https://github.com/chiru-labs/ERC721A/blob/main/contracts/ERC721A.sol\":18461:18463  to */\n      dup3\n        /* \"https://github.com/chiru-labs/ERC721A/blob/main/contracts/ERC721A.sol\":18465:18472  tokenId */\n      dup3\n        /* \"https://github.com/chiru-labs/ERC721A/blob/main/contracts/ERC721A.sol\":18474:18478  true */\n      0x01\n        /* \"https://github.com/chiru-labs/ERC721A/blob/main/contracts/ERC721A.sol\":18452:18460  _approve */\n      tag_140\n        /* \"https://github.com/chiru-labs/ERC721A/blob/main/contracts/ERC721A.sol\":18452:18479  _approve(to, tokenId, true) */\n      jump\t// in\n    tag_139:\n        /* \"https://github.com/chiru-labs/ERC721A/blob/main/contracts/ERC721A.sol\":18364:18486  function approve(address to, uint256 tokenId) public payable virtual override {... */\n      pop\n      pop\n      jump\t// out\n        /* \"https://github.com/chiru-labs/ERC721A/blob/main/contracts/ERC721A.sol\":22796:26243  function transferFrom(... */\n    tag_58:\n        /* \"https://github.com/chiru-labs/ERC721A/blob/main/contracts/ERC721A.sol\":22933:22960  uint256 prevOwnershipPacked */\n      0x00\n        /* \"https://github.com/chiru-labs/ERC721A/blob/main/contracts/ERC721A.sol\":22963:22990  _packedOwnershipOf(tokenId) */\n      tag_148\n        /* \"https://github.com/chiru-labs/ERC721A/blob/main/contracts/ERC721A.sol\":22982:22989  tokenId */\n      dup3\n        /* \"https://github.com/chiru-labs/ERC721A/blob/main/contracts/ERC721A.sol\":22963:22981  _packedOwnershipOf */\n      tag_149\n        /* \"https://github.com/chiru-labs/ERC721A/blob/main/contracts/ERC721A.sol\":22963:22990  _packedOwnershipOf(tokenId) */\n      jump\t// in\n    tag_148:\n      sub(shl(0xa0, 0x01), 0x01)\n        /* \"https://github.com/chiru-labs/ERC721A/blob/main/contracts/ERC721A.sol\":23115:23137  uint256(uint160(from)) */\n      swap5\n      dup6\n      and\n      swap5\n        /* \"https://github.com/chiru-labs/ERC721A/blob/main/contracts/ERC721A.sol\":22933:22990  uint256 prevOwnershipPacked = _packedOwnershipOf(tokenId) */\n      swap1\n      swap2\n      pop\n        /* \"https://github.com/chiru-labs/ERC721A/blob/main/contracts/ERC721A.sol\":23173:23218  address(uint160(prevOwnershipPacked)) != from */\n      dup2\n      and\n      dup5\n      eq\n        /* \"https://github.com/chiru-labs/ERC721A/blob/main/contracts/ERC721A.sol\":23169:23264  if (address(uint160(prevOwnershipPacked)) != from) _revert(TransferFromIncorrectOwner.selector) */\n      tag_151\n      jumpi\n        /* \"https://github.com/chiru-labs/ERC721A/blob/main/contracts/ERC721A.sol\":23220:23264  _revert(TransferFromIncorrectOwner.selector) */\n      tag_151\n        /* \"https://github.com/chiru-labs/ERC721A/blob/main/contracts/ERC721A.sol\":23228:23263  TransferFromIncorrectOwner.selector */\n      0xa114810000000000000000000000000000000000000000000000000000000000\n        /* \"https://github.com/chiru-labs/ERC721A/blob/main/contracts/ERC721A.sol\":23220:23227  _revert */\n      tag_137\n        /* \"https://github.com/chiru-labs/ERC721A/blob/main/contracts/ERC721A.sol\":23220:23264  _revert(TransferFromIncorrectOwner.selector) */\n      jump\t// in\n    tag_151:\n        /* \"https://github.com/chiru-labs/ERC721A/blob/main/contracts/ERC721A.sol\":23276:23303  uint256 approvedAddressSlot */\n      0x00\n        /* \"https://github.com/chiru-labs/ERC721A/blob/main/contracts/ERC721A.sol\":21929:21953  _tokenApprovals[tokenId] */\n      dup3\n      dup2\n      mstore\n        /* \"https://github.com/chiru-labs/ERC721A/blob/main/contracts/ERC721A.sol\":21929:21944  _tokenApprovals */\n      0x06\n        /* \"https://github.com/chiru-labs/ERC721A/blob/main/contracts/ERC721A.sol\":21929:21953  _tokenApprovals[tokenId] */\n      0x20\n      mstore\n      0x40\n      swap1\n      keccak256\n        /* \"https://github.com/chiru-labs/ERC721A/blob/main/contracts/ERC721A.sol\":22153:22179  sload(approvedAddressSlot) */\n      dup1\n      sload\n        /* \"https://github.com/chiru-labs/ERC721A/blob/main/contracts/ERC721A.sol\":47819:47829  msg.sender */\n      caller\n        /* \"https://github.com/chiru-labs/ERC721A/blob/main/contracts/ERC721A.sol\":21566:21596  eq(msgSender, approvedAddress) */\n      dup1\n      dup3\n      eq\n      sub(shl(0xa0, 0x01), 0x01)\n        /* \"https://github.com/chiru-labs/ERC721A/blob/main/contracts/ERC721A.sol\":21263:21291  and(owner, _BITMASK_ADDRESS) */\n      dup9\n      and\n        /* \"https://github.com/chiru-labs/ERC721A/blob/main/contracts/ERC721A.sol\":21544:21564  eq(msgSender, owner) */\n      swap1\n      swap2\n      eq\n        /* \"https://github.com/chiru-labs/ERC721A/blob/main/contracts/ERC721A.sol\":21541:21597  or(eq(msgSender, owner), eq(msgSender, approvedAddress)) */\n      or\n        /* \"https://github.com/chiru-labs/ERC721A/blob/main/contracts/ERC721A.sol\":23459:23647  if (!_isSenderApprovedOrOwner(approvedAddress, from, _msgSenderERC721A()))... */\n      tag_162\n      jumpi\n        /* \"https://github.com/chiru-labs/ERC721A/blob/main/contracts/ERC721A.sol\":23551:23594  isApprovedForAll(from, _msgSenderERC721A()) */\n      tag_159\n        /* \"https://github.com/chiru-labs/ERC721A/blob/main/contracts/ERC721A.sol\":23568:23572  from */\n      dup7\n        /* \"https://github.com/chiru-labs/ERC721A/blob/main/contracts/ERC721A.sol\":47819:47829  msg.sender */\n      caller\n        /* \"https://github.com/chiru-labs/ERC721A/blob/main/contracts/ERC721A.sol\":19567:19729  function isApprovedForAll(address owner, address operator) public view virtual override returns (bool) {... */\n      tag_106\n      jump\t// in\n        /* \"https://github.com/chiru-labs/ERC721A/blob/main/contracts/ERC721A.sol\":23551:23594  isApprovedForAll(from, _msgSenderERC721A()) */\n    tag_159:\n        /* \"https://github.com/chiru-labs/ERC721A/blob/main/contracts/ERC721A.sol\":23546:23647  if (!isApprovedForAll(from, _msgSenderERC721A())) _revert(TransferCallerNotOwnerNorApproved.selector) */\n      tag_162\n      jumpi\n        /* \"https://github.com/chiru-labs/ERC721A/blob/main/contracts/ERC721A.sol\":23596:23647  _revert(TransferCallerNotOwnerNorApproved.selector) */\n      tag_162\n        /* \"https://github.com/chiru-labs/ERC721A/blob/main/contracts/ERC721A.sol\":23604:23646  TransferCallerNotOwnerNorApproved.selector */\n      0x59c896be00000000000000000000000000000000000000000000000000000000\n        /* \"https://github.com/chiru-labs/ERC721A/blob/main/contracts/ERC721A.sol\":23596:23603  _revert */\n      tag_137\n        /* \"https://github.com/chiru-labs/ERC721A/blob/main/contracts/ERC721A.sol\":23596:23647  _revert(TransferCallerNotOwnerNorApproved.selector) */\n      jump\t// in\n    tag_162:\n        /* \"https://github.com/chiru-labs/ERC721A/blob/main/contracts/ERC721A.sol\":23790:23805  approvedAddress */\n      dup1\n        /* \"https://github.com/chiru-labs/ERC721A/blob/main/contracts/ERC721A.sol\":23787:23944  if approvedAddress {... */\n      iszero\n      tag_165\n      jumpi\n        /* \"https://github.com/chiru-labs/ERC721A/blob/main/contracts/ERC721A.sol\":23928:23929  0 */\n      0x00\n        /* \"https://github.com/chiru-labs/ERC721A/blob/main/contracts/ERC721A.sol\":23907:23926  approvedAddressSlot */\n      dup3\n        /* \"https://github.com/chiru-labs/ERC721A/blob/main/contracts/ERC721A.sol\":23900:23930  sstore(approvedAddressSlot, 0) */\n      sstore\n        /* \"https://github.com/chiru-labs/ERC721A/blob/main/contracts/ERC721A.sol\":23787:23944  if approvedAddress {... */\n    tag_165:\n      sub(shl(0xa0, 0x01), 0x01)\n        /* \"https://github.com/chiru-labs/ERC721A/blob/main/contracts/ERC721A.sol\":24316:24340  _packedAddressData[from] */\n      dup7\n      dup2\n      and\n      0x00\n      swap1\n      dup2\n      mstore\n        /* \"https://github.com/chiru-labs/ERC721A/blob/main/contracts/ERC721A.sol\":24316:24334  _packedAddressData */\n      0x05\n        /* \"https://github.com/chiru-labs/ERC721A/blob/main/contracts/ERC721A.sol\":24316:24340  _packedAddressData[from] */\n      0x20\n      mstore\n      0x40\n      dup1\n      dup3\n      keccak256\n        /* \"https://github.com/chiru-labs/ERC721A/blob/main/contracts/ERC721A.sol\":24314:24340  --_packedAddressData[from] */\n      dup1\n      sload\n      not(0x00)\n      add\n      swap1\n      sstore\n        /* \"https://github.com/chiru-labs/ERC721A/blob/main/contracts/ERC721A.sol\":24384:24406  _packedAddressData[to] */\n      swap2\n      dup8\n      and\n      dup1\n      dup3\n      mstore\n      swap2\n      swap1\n      keccak256\n        /* \"https://github.com/chiru-labs/ERC721A/blob/main/contracts/ERC721A.sol\":24382:24406  ++_packedAddressData[to] */\n      dup1\n      sload\n      0x01\n      add\n      swap1\n      sstore\n        /* \"https://github.com/chiru-labs/ERC721A/blob/main/contracts/ERC721A.sol\":17492:17503  timestamp() */\n      timestamp\n        /* \"https://github.com/chiru-labs/ERC721A/blob/main/contracts/ERC721A.sol\":17467:17490  _BITPOS_START_TIMESTAMP */\n      0xa0\n        /* \"https://github.com/chiru-labs/ERC721A/blob/main/contracts/ERC721A.sol\":17463:17504  shl(_BITPOS_START_TIMESTAMP, timestamp()) */\n      shl\n        /* \"https://github.com/chiru-labs/ERC721A/blob/main/contracts/ERC721A.sol\":17450:17513  or(owner, or(shl(_BITPOS_START_TIMESTAMP, timestamp()), flags)) */\n      or\n      shl(0xe1, 0x01)\n      or\n        /* \"https://github.com/chiru-labs/ERC721A/blob/main/contracts/ERC721A.sol\":24670:24696  _packedOwnerships[tokenId] */\n      0x00\n      dup6\n      dup2\n      mstore\n        /* \"https://github.com/chiru-labs/ERC721A/blob/main/contracts/ERC721A.sol\":24670:24687  _packedOwnerships */\n      0x04\n        /* \"https://github.com/chiru-labs/ERC721A/blob/main/contracts/ERC721A.sol\":24670:24696  _packedOwnerships[tokenId] */\n      0x20\n      mstore\n      0x40\n      dup2\n      keccak256\n        /* \"https://github.com/chiru-labs/ERC721A/blob/main/contracts/ERC721A.sol\":24670:24842  _packedOwnerships[tokenId] = _packOwnershipData(... */\n      swap2\n      swap1\n      swap2\n      sstore\n      shl(0xe1, 0x01)\n        /* \"https://github.com/chiru-labs/ERC721A/blob/main/contracts/ERC721A.sol\":24959:25006  prevOwnershipPacked & _BITMASK_NEXT_INITIALIZED */\n      dup5\n      and\n        /* \"https://github.com/chiru-labs/ERC721A/blob/main/contracts/ERC721A.sol\":24959:25011  prevOwnershipPacked & _BITMASK_NEXT_INITIALIZED == 0 */\n      swap1\n      sub\n        /* \"https://github.com/chiru-labs/ERC721A/blob/main/contracts/ERC721A.sol\":24955:25572  if (prevOwnershipPacked & _BITMASK_NEXT_INITIALIZED == 0) {... */\n      tag_170\n      jumpi\n        /* \"https://github.com/chiru-labs/ERC721A/blob/main/contracts/ERC721A.sol\":25063:25064  1 */\n      0x01\n        /* \"https://github.com/chiru-labs/ERC721A/blob/main/contracts/ERC721A.sol\":25053:25064  tokenId + 1 */\n      dup5\n      add\n        /* \"https://github.com/chiru-labs/ERC721A/blob/main/contracts/ERC721A.sol\":25031:25050  uint256 nextTokenId */\n      0x00\n        /* \"https://github.com/chiru-labs/ERC721A/blob/main/contracts/ERC721A.sol\":25184:25214  _packedOwnerships[nextTokenId] */\n      dup2\n      dup2\n      mstore\n        /* \"https://github.com/chiru-labs/ERC721A/blob/main/contracts/ERC721A.sol\":25184:25201  _packedOwnerships */\n      0x04\n        /* \"https://github.com/chiru-labs/ERC721A/blob/main/contracts/ERC721A.sol\":25184:25214  _packedOwnerships[nextTokenId] */\n      0x20\n      mstore\n      0x40\n      dup2\n      keccak256\n      sload\n        /* \"https://github.com/chiru-labs/ERC721A/blob/main/contracts/ERC721A.sol\":25184:25219  _packedOwnerships[nextTokenId] == 0 */\n      swap1\n      sub\n        /* \"https://github.com/chiru-labs/ERC721A/blob/main/contracts/ERC721A.sol\":25180:25558  if (_packedOwnerships[nextTokenId] == 0) {... */\n      tag_172\n      jumpi\n        /* \"https://github.com/chiru-labs/ERC721A/blob/main/contracts/ERC721A.sol\":25320:25333  _currentIndex */\n      sload(0x00)\n        /* \"https://github.com/chiru-labs/ERC721A/blob/main/contracts/ERC721A.sol\":25305:25316  nextTokenId */\n      dup2\n        /* \"https://github.com/chiru-labs/ERC721A/blob/main/contracts/ERC721A.sol\":25305:25333  nextTokenId != _currentIndex */\n      eq\n        /* \"https://github.com/chiru-labs/ERC721A/blob/main/contracts/ERC721A.sol\":25301:25540  if (nextTokenId != _currentIndex) {... */\n      tag_172\n      jumpi\n        /* \"https://github.com/chiru-labs/ERC721A/blob/main/contracts/ERC721A.sol\":25465:25495  _packedOwnerships[nextTokenId] */\n      0x00\n      dup2\n      dup2\n      mstore\n        /* \"https://github.com/chiru-labs/ERC721A/blob/main/contracts/ERC721A.sol\":25465:25482  _packedOwnerships */\n      0x04\n        /* \"https://github.com/chiru-labs/ERC721A/blob/main/contracts/ERC721A.sol\":25465:25495  _packedOwnerships[nextTokenId] */\n      0x20\n      mstore\n      0x40\n      swap1\n      keccak256\n        /* \"https://github.com/chiru-labs/ERC721A/blob/main/contracts/ERC721A.sol\":25465:25517  _packedOwnerships[nextTokenId] = prevOwnershipPacked */\n      dup5\n      swap1\n      sstore\n        /* \"https://github.com/chiru-labs/ERC721A/blob/main/contracts/ERC721A.sol\":25301:25540  if (nextTokenId != _currentIndex) {... */\n    tag_172:\n        /* \"https://github.com/chiru-labs/ERC721A/blob/main/contracts/ERC721A.sol\":25013:25572  {... */\n      pop\n        /* \"https://github.com/chiru-labs/ERC721A/blob/main/contracts/ERC721A.sol\":24955:25572  if (prevOwnershipPacked & _BITMASK_NEXT_INITIALIZED == 0) {... */\n    tag_170:\n      sub(shl(0xa0, 0x01), 0x01)\n        /* \"https://github.com/chiru-labs/ERC721A/blob/main/contracts/ERC721A.sol\":25700:25720  uint256(uint160(to)) */\n      dup6\n      and\n        /* \"https://github.com/chiru-labs/ERC721A/blob/main/contracts/ERC721A.sol\":26071:26078  tokenId */\n      dup5\n        /* \"https://github.com/chiru-labs/ERC721A/blob/main/contracts/ERC721A.sol\":25700:25720  uint256(uint160(to)) */\n      dup2\n        /* \"https://github.com/chiru-labs/ERC721A/blob/main/contracts/ERC721A.sol\":26003:26007  from */\n      dup9\n        /* \"https://github.com/chiru-labs/ERC721A/blob/main/contracts/ERC721A.sol\":25946:25971  _TRANSFER_EVENT_SIGNATURE */\n      0xddf252ad1be2c89b69c2b068fc378daa952ba7f163c4a11628f55a4df523b3ef\n        /* \"https://github.com/chiru-labs/ERC721A/blob/main/contracts/ERC721A.sol\":25681:25697  uint256 toMasked */\n      0x00\n      dup1\n        /* \"https://github.com/chiru-labs/ERC721A/blob/main/contracts/ERC721A.sol\":25814:26106  log4(... */\n      log4\n        /* \"https://github.com/chiru-labs/ERC721A/blob/main/contracts/ERC721A.sol\":26129:26137  toMasked */\n      dup1\n        /* \"https://github.com/chiru-labs/ERC721A/blob/main/contracts/ERC721A.sol\":26141:26142  0 */\n      0x00\n        /* \"https://github.com/chiru-labs/ERC721A/blob/main/contracts/ERC721A.sol\":26129:26142  toMasked == 0 */\n      sub\n        /* \"https://github.com/chiru-labs/ERC721A/blob/main/contracts/ERC721A.sol\":26125:26183  if (toMasked == 0) _revert(TransferToZeroAddress.selector) */\n      tag_174\n      jumpi\n        /* \"https://github.com/chiru-labs/ERC721A/blob/main/contracts/ERC721A.sol\":26144:26183  _revert(TransferToZeroAddress.selector) */\n      tag_174\n        /* \"https://github.com/chiru-labs/ERC721A/blob/main/contracts/ERC721A.sol\":26152:26182  TransferToZeroAddress.selector */\n      0xea553b3400000000000000000000000000000000000000000000000000000000\n        /* \"https://github.com/chiru-labs/ERC721A/blob/main/contracts/ERC721A.sol\":26144:26151  _revert */\n      tag_137\n        /* \"https://github.com/chiru-labs/ERC721A/blob/main/contracts/ERC721A.sol\":26144:26183  _revert(TransferToZeroAddress.selector) */\n      jump\t// in\n    tag_174:\n        /* \"https://github.com/chiru-labs/ERC721A/blob/main/contracts/ERC721A.sol\":22923:26243  {... */\n      pop\n      pop\n      pop\n      pop\n        /* \"https://github.com/chiru-labs/ERC721A/blob/main/contracts/ERC721A.sol\":22796:26243  function transferFrom(... */\n      pop\n      pop\n      pop\n      jump\t// out\n        /* \"contracts/ContractV/ContractVV2.sol\":3019:3593  function mintCreature(uint256 gameStats) external {... */\n    tag_66:\n        /* \"contracts/ContractV/ContractVV2.sol\":3108:3223  Creature(... */\n      mload(0x40)\n      dup1\n      0x80\n      add\n      0x40\n      mstore\n      dup1\n        /* \"contracts/ContractV/ContractVV2.sol\":3131:3145  nextCreatureId */\n      sload(0x09)\n        /* \"contracts/ContractV/ContractVV2.sol\":3108:3223  Creature(... */\n      dup2\n      mstore\n      0x20\n      add\n        /* \"contracts/ContractV/ContractVV2.sol\":3160:3172  _msgSender() */\n      tag_179\n        /* \"https://github.com/chiru-labs/ERC721A/blob/main/contracts/ERC721A.sol\":47819:47829  msg.sender */\n      caller\n      swap1\n        /* \"https://github.com/chiru-labs/ERC721A/blob/main/contracts/ERC721A.sol\":47733:47836  function _msgSenderERC721A() internal view virtual returns (address) {... */\n      jump\n        /* \"contracts/ContractV/ContractVV2.sol\":3160:3172  _msgSender() */\n    tag_179:\n      sub(shl(0xa0, 0x01), 0x01)\n        /* \"contracts/ContractV/ContractVV2.sol\":3108:3223  Creature(... */\n      swap1\n      dup2\n      and\n      dup3\n      mstore\n      0x20\n      dup1\n      dup4\n      add\n      dup6\n      swap1\n      mstore\n      0x00\n      0x40\n      swap4\n      dup5\n      add\n      dup2\n      swap1\n      mstore\n        /* \"contracts/ContractV/ContractVV2.sol\":3090:3104  nextCreatureId */\n      sload(0x09)\n        /* \"contracts/ContractV/ContractVV2.sol\":3080:3105  creatures[nextCreatureId] */\n      dup2\n      mstore\n        /* \"contracts/ContractV/ContractVV2.sol\":3080:3089  creatures */\n      0x0a\n        /* \"contracts/ContractV/ContractVV2.sol\":3080:3105  creatures[nextCreatureId] */\n      dup3\n      mstore\n      dup4\n      swap1\n      keccak256\n        /* \"contracts/ContractV/ContractVV2.sol\":3080:3223  creatures[nextCreatureId] = Creature(... */\n      dup5\n      mload\n      dup2\n      sstore\n      swap1\n      dup5\n      add\n      mload\n      0x01\n      dup3\n      add\n      dup1\n      sload\n      not(0xffffffffffffffffffffffffffffffffffffffff)\n      and\n      swap2\n      swap1\n      swap4\n      and\n      or\n      swap1\n      swap2\n      sstore\n      swap1\n      dup3\n      add\n      mload\n      0x02\n      dup3\n      add\n      sstore\n      0x60\n      swap1\n      swap2\n      add\n      mload\n      0x03\n      swap1\n      swap2\n      add\n      sstore\n        /* \"contracts/ContractV/ContractVV2.sol\":3261:3287  _safeMint(_msgSender(), 1) */\n      tag_181\n        /* \"https://github.com/chiru-labs/ERC721A/blob/main/contracts/ERC721A.sol\":47819:47829  msg.sender */\n      caller\n        /* \"contracts/ContractV/ContractVV2.sol\":3285:3286  1 */\n      0x01\n        /* \"contracts/ContractV/ContractVV2.sol\":3261:3270  _safeMint */\n      tag_183\n        /* \"contracts/ContractV/ContractVV2.sol\":3261:3287  _safeMint(_msgSender(), 1) */\n      jump\t// in\n    tag_181:\n        /* \"contracts/ContractV/ContractVV2.sol\":3323:3337  nextCreatureId */\n      sload(0x09)\n        /* \"contracts/ContractV/ContractVV2.sol\":3307:3352  CreatureCreated(nextCreatureId, _msgSender()) */\n      mload(0x40)\n        /* \"https://github.com/chiru-labs/ERC721A/blob/main/contracts/ERC721A.sol\":47819:47829  msg.sender */\n      caller\n      swap2\n        /* \"contracts/ContractV/ContractVV2.sol\":3323:3337  nextCreatureId */\n      swap1\n        /* \"contracts/ContractV/ContractVV2.sol\":3307:3352  CreatureCreated(nextCreatureId, _msgSender()) */\n      0xfce6b98db3cc5152281e5d3e4c7332adfb0d4b574cc5723dc73792f7624043cc\n      swap1\n      0x00\n      swap1\n      log3\n        /* \"contracts/ContractV/ContractVV2.sol\":3540:3541  1 */\n      0x01\n        /* \"contracts/ContractV/ContractVV2.sol\":3496:3515  nextCreatureId.slot */\n      0x09\n        /* \"contracts/ContractV/ContractVV2.sol\":3490:3516  sload(nextCreatureId.slot) */\n      sload\n        /* \"contracts/ContractV/ContractVV2.sol\":3464:3560  add(... */\n      add\n        /* \"contracts/ContractV/ContractVV2.sol\":3425:3444  nextCreatureId.slot */\n      0x09\n        /* \"contracts/ContractV/ContractVV2.sol\":3400:3575  sstore(... */\n      sstore\n        /* \"contracts/ContractV/ContractVV2.sol\":3019:3593  function mintCreature(uint256 gameStats) external {... */\n      pop\n      jump\t// out\n        /* \"https://github.com/chiru-labs/ERC721A/blob/main/contracts/ERC721A.sol\":26334:26521  function safeTransferFrom(... */\n    tag_69:\n        /* \"https://github.com/chiru-labs/ERC721A/blob/main/contracts/ERC721A.sol\":26475:26514  safeTransferFrom(from, to, tokenId, '') */\n      tag_186\n        /* \"https://github.com/chiru-labs/ERC721A/blob/main/contracts/ERC721A.sol\":26492:26496  from */\n      dup4\n        /* \"https://github.com/chiru-labs/ERC721A/blob/main/contracts/ERC721A.sol\":26498:26500  to */\n      dup4\n        /* \"https://github.com/chiru-labs/ERC721A/blob/main/contracts/ERC721A.sol\":26502:26509  tokenId */\n      dup4\n        /* \"https://github.com/chiru-labs/ERC721A/blob/main/contracts/ERC721A.sol\":26475:26514  safeTransferFrom(from, to, tokenId, '') */\n      mload(0x40)\n      dup1\n      0x20\n      add\n      0x40\n      mstore\n      dup1\n      0x00\n      dup2\n      mstore\n      pop\n        /* \"https://github.com/chiru-labs/ERC721A/blob/main/contracts/ERC721A.sol\":26475:26491  safeTransferFrom */\n      tag_98\n        /* \"https://github.com/chiru-labs/ERC721A/blob/main/contracts/ERC721A.sol\":26475:26514  safeTransferFrom(from, to, tokenId, '') */\n      jump\t// in\n    tag_186:\n        /* \"https://github.com/chiru-labs/ERC721A/blob/main/contracts/ERC721A.sol\":26334:26521  function safeTransferFrom(... */\n      pop\n      pop\n      pop\n      jump\t// out\n        /* \"https://github.com/chiru-labs/ERC721A/blob/main/contracts/ERC721A.sol\":12934:13084  function ownerOf(uint256 tokenId) public view virtual override returns (address) {... */\n    tag_73:\n        /* \"https://github.com/chiru-labs/ERC721A/blob/main/contracts/ERC721A.sol\":13006:13013  address */\n      0x00\n        /* \"https://github.com/chiru-labs/ERC721A/blob/main/contracts/ERC721A.sol\":13048:13075  _packedOwnershipOf(tokenId) */\n      tag_124\n        /* \"https://github.com/chiru-labs/ERC721A/blob/main/contracts/ERC721A.sol\":13067:13074  tokenId */\n      dup3\n        /* \"https://github.com/chiru-labs/ERC721A/blob/main/contracts/ERC721A.sol\":13048:13066  _packedOwnershipOf */\n      tag_149\n        /* \"https://github.com/chiru-labs/ERC721A/blob/main/contracts/ERC721A.sol\":13048:13075  _packedOwnershipOf(tokenId) */\n      jump\t// in\n        /* \"https://github.com/chiru-labs/ERC721A/blob/main/contracts/ERC721A.sol\":8570:8809  function balanceOf(address owner) public view virtual override returns (uint256) {... */\n    tag_79:\n        /* \"https://github.com/chiru-labs/ERC721A/blob/main/contracts/ERC721A.sol\":8642:8649  uint256 */\n      0x00\n      sub(shl(0xa0, 0x01), 0x01)\n        /* \"https://github.com/chiru-labs/ERC721A/blob/main/contracts/ERC721A.sol\":8665:8684  owner == address(0) */\n      dup3\n      and\n        /* \"https://github.com/chiru-labs/ERC721A/blob/main/contracts/ERC721A.sol\":8661:8730  if (owner == address(0)) _revert(BalanceQueryForZeroAddress.selector) */\n      tag_191\n      jumpi\n        /* \"https://github.com/chiru-labs/ERC721A/blob/main/contracts/ERC721A.sol\":8686:8730  _revert(BalanceQueryForZeroAddress.selector) */\n      tag_191\n        /* \"https://github.com/chiru-labs/ERC721A/blob/main/contracts/ERC721A.sol\":8694:8729  BalanceQueryForZeroAddress.selector */\n      0x8f4eb60400000000000000000000000000000000000000000000000000000000\n        /* \"https://github.com/chiru-labs/ERC721A/blob/main/contracts/ERC721A.sol\":8686:8693  _revert */\n      tag_137\n        /* \"https://github.com/chiru-labs/ERC721A/blob/main/contracts/ERC721A.sol\":8686:8730  _revert(BalanceQueryForZeroAddress.selector) */\n      jump\t// in\n    tag_191:\n      pop\n      sub(shl(0xa0, 0x01), 0x01)\n        /* \"https://github.com/chiru-labs/ERC721A/blob/main/contracts/ERC721A.sol\":8747:8772  _packedAddressData[owner] */\n      and\n      0x00\n      swap1\n      dup2\n      mstore\n        /* \"https://github.com/chiru-labs/ERC721A/blob/main/contracts/ERC721A.sol\":8747:8765  _packedAddressData */\n      0x05\n        /* \"https://github.com/chiru-labs/ERC721A/blob/main/contracts/ERC721A.sol\":8747:8772  _packedAddressData[owner] */\n      0x20\n      mstore\n      0x40\n      swap1\n      keccak256\n      sload\n        /* \"https://github.com/chiru-labs/ERC721A/blob/main/contracts/ERC721A.sol\":1518:1531  (1 << 64) - 1 */\n      0xffffffffffffffff\n        /* \"https://github.com/chiru-labs/ERC721A/blob/main/contracts/ERC721A.sol\":8747:8802  _packedAddressData[owner] & _BITMASK_ADDRESS_DATA_ENTRY */\n      and\n      swap1\n        /* \"https://github.com/chiru-labs/ERC721A/blob/main/contracts/ERC721A.sol\":8570:8809  function balanceOf(address owner) public view virtual override returns (uint256) {... */\n      jump\t// out\n        /* \"https://github.com/chiru-labs/ERC721A/blob/main/contracts/ERC721A.sol\":11742:11844  function symbol() public view virtual override returns (string memory) {... */\n    tag_83:\n        /* \"https://github.com/chiru-labs/ERC721A/blob/main/contracts/ERC721A.sol\":11798:11811  string memory */\n      0x60\n        /* \"https://github.com/chiru-labs/ERC721A/blob/main/contracts/ERC721A.sol\":11830:11837  _symbol */\n      0x03\n        /* \"https://github.com/chiru-labs/ERC721A/blob/main/contracts/ERC721A.sol\":11823:11837  return _symbol */\n      dup1\n      sload\n      tag_126\n      swap1\n      tag_127\n      jump\t// in\n        /* \"https://github.com/chiru-labs/ERC721A/blob/main/contracts/ERC721A.sol\":19186:19417  function setApprovalForAll(address operator, bool approved) public virtual override {... */\n    tag_89:\n        /* \"https://github.com/chiru-labs/ERC721A/blob/main/contracts/ERC721A.sol\":47819:47829  msg.sender */\n      caller\n        /* \"https://github.com/chiru-labs/ERC721A/blob/main/contracts/ERC721A.sol\":19280:19319  _operatorApprovals[_msgSenderERC721A()] */\n      0x00\n      dup2\n      dup2\n      mstore\n        /* \"https://github.com/chiru-labs/ERC721A/blob/main/contracts/ERC721A.sol\":19280:19298  _operatorApprovals */\n      0x07\n        /* \"https://github.com/chiru-labs/ERC721A/blob/main/contracts/ERC721A.sol\":19280:19319  _operatorApprovals[_msgSenderERC721A()] */\n      0x20\n      swap1\n      dup2\n      mstore\n      0x40\n      dup1\n      dup4\n      keccak256\n      sub(shl(0xa0, 0x01), 0x01)\n        /* \"https://github.com/chiru-labs/ERC721A/blob/main/contracts/ERC721A.sol\":19280:19329  _operatorApprovals[_msgSenderERC721A()][operator] */\n      dup8\n      and\n      dup1\n      dup6\n      mstore\n      swap1\n      dup4\n      mstore\n      swap3\n      dup2\n      swap1\n      keccak256\n        /* \"https://github.com/chiru-labs/ERC721A/blob/main/contracts/ERC721A.sol\":19280:19340  _operatorApprovals[_msgSenderERC721A()][operator] = approved */\n      dup1\n      sload\n      not(0xff)\n      and\n      dup7\n      iszero\n      iszero\n      swap1\n      dup2\n      or\n      swap1\n      swap2\n      sstore\n        /* \"https://github.com/chiru-labs/ERC721A/blob/main/contracts/ERC721A.sol\":19355:19410  ApprovalForAll(_msgSenderERC721A(), operator, approved) */\n      swap1\n      mload\n        /* \"#utility.yul\":586:627   */\n      swap1\n      dup2\n      mstore\n        /* \"https://github.com/chiru-labs/ERC721A/blob/main/contracts/ERC721A.sol\":19280:19329  _operatorApprovals[_msgSenderERC721A()][operator] */\n      swap2\n      swap3\n        /* \"https://github.com/chiru-labs/ERC721A/blob/main/contracts/ERC721A.sol\":47819:47829  msg.sender */\n      swap2\n        /* \"https://github.com/chiru-labs/ERC721A/blob/main/contracts/ERC721A.sol\":19355:19410  ApprovalForAll(_msgSenderERC721A(), operator, approved) */\n      0x17307eab39ab6107e8899845ad3d59bd9653f200f220920489ca2b5937696c31\n      swap2\n        /* \"#utility.yul\":559:577   */\n      add\n        /* \"https://github.com/chiru-labs/ERC721A/blob/main/contracts/ERC721A.sol\":19355:19410  ApprovalForAll(_msgSenderERC721A(), operator, approved) */\n      mload(0x40)\n      dup1\n      swap2\n      sub\n      swap1\n      log3\n        /* \"https://github.com/chiru-labs/ERC721A/blob/main/contracts/ERC721A.sol\":19186:19417  function setApprovalForAll(address operator, bool approved) public virtual override {... */\n      pop\n      pop\n      jump\t// out\n        /* \"contracts/ContractV/ContractVV2.sol\":3782:4595  function recordBattleResult(uint256 winnerId, uint256 loserId) external onlyOwnedCreature(winnerId) {... */\n    tag_94:\n        /* \"contracts/ContractV/ContractVV2.sol\":3872:3880  winnerId */\n      dup2\n        /* \"contracts/ContractV/ContractVV2.sol\":1458:1481  _checkCreatureOwned(id) */\n      tag_203\n        /* \"contracts/ContractV/ContractVV2.sol\":1478:1480  id */\n      dup2\n        /* \"contracts/ContractV/ContractVV2.sol\":1458:1477  _checkCreatureOwned */\n      tag_204\n        /* \"contracts/ContractV/ContractVV2.sol\":1458:1481  _checkCreatureOwned(id) */\n      jump\t// in\n    tag_203:\n        /* \"contracts/ContractV/ContractVV2.sol\":3893:3923  _checkCreatureExists(winnerId) */\n      tag_206\n        /* \"contracts/ContractV/ContractVV2.sol\":3914:3922  winnerId */\n      dup4\n        /* \"contracts/ContractV/ContractVV2.sol\":3893:3913  _checkCreatureExists */\n      tag_207\n        /* \"contracts/ContractV/ContractVV2.sol\":3893:3923  _checkCreatureExists(winnerId) */\n      jump\t// in\n    tag_206:\n        /* \"contracts/ContractV/ContractVV2.sol\":3934:3963  _checkCreatureExists(loserId) */\n      tag_208\n        /* \"contracts/ContractV/ContractVV2.sol\":3955:3962  loserId */\n      dup3\n        /* \"contracts/ContractV/ContractVV2.sol\":3934:3954  _checkCreatureExists */\n      tag_207\n        /* \"contracts/ContractV/ContractVV2.sol\":3934:3963  _checkCreatureExists(loserId) */\n      jump\t// in\n    tag_208:\n        /* \"contracts/ContractV/ContractVV2.sol\":3976:3999  Creature storage winner */\n      0x00\n        /* \"contracts/ContractV/ContractVV2.sol\":4002:4021  creatures[winnerId] */\n      dup4\n      dup2\n      mstore\n        /* \"contracts/ContractV/ContractVV2.sol\":4002:4011  creatures */\n      0x0a\n        /* \"contracts/ContractV/ContractVV2.sol\":4002:4021  creatures[winnerId] */\n      0x20\n      mstore\n      0x40\n      dup1\n      dup3\n      keccak256\n        /* \"contracts/ContractV/ContractVV2.sol\":4057:4075  creatures[loserId] */\n      dup5\n      dup4\n      mstore\n      swap2\n      keccak256\n        /* \"contracts/ContractV/ContractVV2.sol\":4152:4171  winner.battleRecord */\n      0x03\n      dup1\n      dup4\n      add\n      sload\n        /* \"contracts/ContractV/ContractVV2.sol\":4245:4263  loser.battleRecord */\n      swap1\n      dup3\n      add\n      sload\n        /* \"contracts/ContractV/ContractVV2.sol\":2154:2173  sub(shl(128, 1), 1) */\n      0xffffffffffffffffffffffffffffffff\n        /* \"contracts/ContractV/ContractVV2.sol\":2118:2174  and(shr(WINS_BITPOS, battleRecord), sub(shl(128, 1), 1)) */\n      dup1\n      dup4\n      and\n        /* \"contracts/ContractV/ContractVV2.sol\":4331:4332  1 */\n      0x01\n        /* \"contracts/ContractV/ContractVV2.sol\":4315:4333  add(winnerWins, 1) */\n      swap1\n      dup2\n      add\n      swap4\n        /* \"contracts/ContractV/ContractVV2.sol\":2162:2165  128 */\n      0x80\n        /* \"contracts/ContractV/ContractVV2.sol\":2284:2316  shr(LOSSES_BITPOS, battleRecord) */\n      dup2\n      dup2\n      shr\n      swap5\n        /* \"contracts/ContractV/ContractVV2.sol\":2118:2174  and(shr(WINS_BITPOS, battleRecord), sub(shl(128, 1), 1)) */\n      swap4\n      dup5\n      and\n      swap4\n        /* \"contracts/ContractV/ContractVV2.sol\":2284:2316  shr(LOSSES_BITPOS, battleRecord) */\n      swap1\n      shr\n        /* \"contracts/ContractV/ContractVV2.sol\":4362:4381  add(loserLosses, 1) */\n      swap1\n      swap2\n      add\n      swap1\n        /* \"contracts/ContractV/ContractVV2.sol\":2891:2917  shl(LOSSES_BITPOS, losses) */\n      0xffffffffffffffffffffffffffffffff00000000000000000000000000000000\n      and\n        /* \"contracts/ContractV/ContractVV2.sol\":2821:2936  or(... */\n      dup5\n      or\n        /* \"contracts/ContractV/ContractVV2.sol\":4404:4423  winner.battleRecord */\n      0x03\n      dup8\n      add\n        /* \"contracts/ContractV/ContractVV2.sol\":4404:4468  winner.battleRecord = packBattleRecord(winnerWins, winnerLosses) */\n      sstore\n        /* \"contracts/ContractV/ContractVV2.sol\":4500:4540  packBattleRecord(loserWins, loserLosses) */\n      tag_213\n        /* \"contracts/ContractV/ContractVV2.sol\":4517:4526  loserWins */\n      dup3\n        /* \"contracts/ContractV/ContractVV2.sol\":4528:4539  loserLosses */\n      dup3\n        /* \"contracts/ContractV/ContractVV2.sol\":2895:2908  LOSSES_BITPOS */\n      0x80\n        /* \"contracts/ContractV/ContractVV2.sol\":2891:2917  shl(LOSSES_BITPOS, losses) */\n      shl\n        /* \"contracts/ContractV/ContractVV2.sol\":2821:2936  or(... */\n      or\n      swap1\n        /* \"contracts/ContractV/ContractVV2.sol\":2570:2954  function packBattleRecord(uint256 wins, uint256 losses) internal pure returns (uint256 battleRecord) {... */\n      jump\n        /* \"contracts/ContractV/ContractVV2.sol\":4500:4540  packBattleRecord(loserWins, loserLosses) */\n    tag_213:\n        /* \"contracts/ContractV/ContractVV2.sol\":4479:4497  loser.battleRecord */\n      0x03\n      dup7\n      add\n        /* \"contracts/ContractV/ContractVV2.sol\":4479:4540  loser.battleRecord = packBattleRecord(loserWins, loserLosses) */\n      sstore\n        /* \"contracts/ContractV/ContractVV2.sol\":4556:4587  BattleResult(winnerId, loserId) */\n      mload(0x40)\n        /* \"contracts/ContractV/ContractVV2.sol\":4579:4586  loserId */\n      dup9\n      swap1\n        /* \"contracts/ContractV/ContractVV2.sol\":4569:4577  winnerId */\n      dup11\n      swap1\n        /* \"contracts/ContractV/ContractVV2.sol\":4556:4587  BattleResult(winnerId, loserId) */\n      0x37fdf7cda6ec1c848e98866fe5e1f781b2b5976a1d79c7770394e65503ce92af\n      swap1\n      0x00\n      swap1\n      log3\n        /* \"contracts/ContractV/ContractVV2.sol\":3882:4595  {... */\n      pop\n      pop\n      pop\n      pop\n      pop\n      pop\n        /* \"contracts/ContractV/ContractVV2.sol\":3782:4595  function recordBattleResult(uint256 winnerId, uint256 loserId) external onlyOwnedCreature(winnerId) {... */\n      pop\n      pop\n      pop\n      jump\t// out\n        /* \"https://github.com/chiru-labs/ERC721A/blob/main/contracts/ERC721A.sol\":27102:27507  function safeTransferFrom(... */\n    tag_98:\n        /* \"https://github.com/chiru-labs/ERC721A/blob/main/contracts/ERC721A.sol\":27271:27302  transferFrom(from, to, tokenId) */\n      tag_215\n        /* \"https://github.com/chiru-labs/ERC721A/blob/main/contracts/ERC721A.sol\":27284:27288  from */\n      dup5\n        /* \"https://github.com/chiru-labs/ERC721A/blob/main/contracts/ERC721A.sol\":27290:27292  to */\n      dup5\n        /* \"https://github.com/chiru-labs/ERC721A/blob/main/contracts/ERC721A.sol\":27294:27301  tokenId */\n      dup5\n        /* \"https://github.com/chiru-labs/ERC721A/blob/main/contracts/ERC721A.sol\":27271:27283  transferFrom */\n      tag_58\n        /* \"https://github.com/chiru-labs/ERC721A/blob/main/contracts/ERC721A.sol\":27271:27302  transferFrom(from, to, tokenId) */\n      jump\t// in\n    tag_215:\n      sub(shl(0xa0, 0x01), 0x01)\n        /* \"https://github.com/chiru-labs/ERC721A/blob/main/contracts/ERC721A.sol\":27316:27330  to.code.length */\n      dup4\n      and\n      extcodesize\n        /* \"https://github.com/chiru-labs/ERC721A/blob/main/contracts/ERC721A.sol\":27316:27335  to.code.length != 0 */\n      iszero\n        /* \"https://github.com/chiru-labs/ERC721A/blob/main/contracts/ERC721A.sol\":27312:27501  if (to.code.length != 0)... */\n      tag_220\n      jumpi\n        /* \"https://github.com/chiru-labs/ERC721A/blob/main/contracts/ERC721A.sol\":27354:27410  _checkContractOnERC721Received(from, to, tokenId, _data) */\n      tag_217\n        /* \"https://github.com/chiru-labs/ERC721A/blob/main/contracts/ERC721A.sol\":27385:27389  from */\n      dup5\n        /* \"https://github.com/chiru-labs/ERC721A/blob/main/contracts/ERC721A.sol\":27391:27393  to */\n      dup5\n        /* \"https://github.com/chiru-labs/ERC721A/blob/main/contracts/ERC721A.sol\":27395:27402  tokenId */\n      dup5\n        /* \"https://github.com/chiru-labs/ERC721A/blob/main/contracts/ERC721A.sol\":27404:27409  _data */\n      dup5\n        /* \"https://github.com/chiru-labs/ERC721A/blob/main/contracts/ERC721A.sol\":27354:27384  _checkContractOnERC721Received */\n      tag_218\n        /* \"https://github.com/chiru-labs/ERC721A/blob/main/contracts/ERC721A.sol\":27354:27410  _checkContractOnERC721Received(from, to, tokenId, _data) */\n      jump\t// in\n    tag_217:\n        /* \"https://github.com/chiru-labs/ERC721A/blob/main/contracts/ERC721A.sol\":27349:27501  if (!_checkContractOnERC721Received(from, to, tokenId, _data)) {... */\n      tag_220\n      jumpi\n        /* \"https://github.com/chiru-labs/ERC721A/blob/main/contracts/ERC721A.sol\":27430:27486  _revert(TransferToNonERC721ReceiverImplementer.selector) */\n      tag_220\n      shl(0xe1, 0x68d2bf6b)\n        /* \"https://github.com/chiru-labs/ERC721A/blob/main/contracts/ERC721A.sol\":27430:27437  _revert */\n      tag_137\n        /* \"https://github.com/chiru-labs/ERC721A/blob/main/contracts/ERC721A.sol\":27430:27486  _revert(TransferToNonERC721ReceiverImplementer.selector) */\n      jump\t// in\n    tag_220:\n        /* \"https://github.com/chiru-labs/ERC721A/blob/main/contracts/ERC721A.sol\":27102:27507  function safeTransferFrom(... */\n      pop\n      pop\n      pop\n      pop\n      jump\t// out\n        /* \"https://github.com/chiru-labs/ERC721A/blob/main/contracts/ERC721A.sol\":11945:12267  function tokenURI(uint256 tokenId) public view virtual override returns (string memory) {... */\n    tag_102:\n        /* \"https://github.com/chiru-labs/ERC721A/blob/main/contracts/ERC721A.sol\":12018:12031  string memory */\n      0x60\n        /* \"https://github.com/chiru-labs/ERC721A/blob/main/contracts/ERC721A.sol\":12048:12064  _exists(tokenId) */\n      tag_222\n        /* \"https://github.com/chiru-labs/ERC721A/blob/main/contracts/ERC721A.sol\":12056:12063  tokenId */\n      dup3\n        /* \"https://github.com/chiru-labs/ERC721A/blob/main/contracts/ERC721A.sol\":12048:12055  _exists */\n      tag_134\n        /* \"https://github.com/chiru-labs/ERC721A/blob/main/contracts/ERC721A.sol\":12048:12064  _exists(tokenId) */\n      jump\t// in\n    tag_222:\n        /* \"https://github.com/chiru-labs/ERC721A/blob/main/contracts/ERC721A.sol\":12043:12111  if (!_exists(tokenId)) _revert(URIQueryForNonexistentToken.selector) */\n      tag_224\n      jumpi\n        /* \"https://github.com/chiru-labs/ERC721A/blob/main/contracts/ERC721A.sol\":12066:12111  _revert(URIQueryForNonexistentToken.selector) */\n      tag_224\n        /* \"https://github.com/chiru-labs/ERC721A/blob/main/contracts/ERC721A.sol\":12074:12110  URIQueryForNonexistentToken.selector */\n      0xa14c4b5000000000000000000000000000000000000000000000000000000000\n        /* \"https://github.com/chiru-labs/ERC721A/blob/main/contracts/ERC721A.sol\":12066:12073  _revert */\n      tag_137\n        /* \"https://github.com/chiru-labs/ERC721A/blob/main/contracts/ERC721A.sol\":12066:12111  _revert(URIQueryForNonexistentToken.selector) */\n      jump\t// in\n    tag_224:\n        /* \"https://github.com/chiru-labs/ERC721A/blob/main/contracts/ERC721A.sol\":12122:12143  string memory baseURI */\n      0x00\n        /* \"https://github.com/chiru-labs/ERC721A/blob/main/contracts/ERC721A.sol\":12146:12156  _baseURI() */\n      tag_225\n        /* \"https://github.com/chiru-labs/ERC721A/blob/main/contracts/ERC721A.sol\":12588:12597  return '' */\n      0x40\n      dup1\n      mload\n      0x20\n      dup2\n      add\n      swap1\n      swap2\n      mstore\n      0x00\n      dup2\n      mstore\n      swap1\n        /* \"https://github.com/chiru-labs/ERC721A/blob/main/contracts/ERC721A.sol\":12512:12604  function _baseURI() internal view virtual returns (string memory) {... */\n      jump\n        /* \"https://github.com/chiru-labs/ERC721A/blob/main/contracts/ERC721A.sol\":12146:12156  _baseURI() */\n    tag_225:\n        /* \"https://github.com/chiru-labs/ERC721A/blob/main/contracts/ERC721A.sol\":12122:12156  string memory baseURI = _baseURI() */\n      swap1\n      pop\n        /* \"https://github.com/chiru-labs/ERC721A/blob/main/contracts/ERC721A.sol\":12179:12186  baseURI */\n      dup1\n        /* \"https://github.com/chiru-labs/ERC721A/blob/main/contracts/ERC721A.sol\":12173:12194  bytes(baseURI).length */\n      mload\n        /* \"https://github.com/chiru-labs/ERC721A/blob/main/contracts/ERC721A.sol\":12198:12199  0 */\n      0x00\n        /* \"https://github.com/chiru-labs/ERC721A/blob/main/contracts/ERC721A.sol\":12173:12199  bytes(baseURI).length != 0 */\n      sub\n        /* \"https://github.com/chiru-labs/ERC721A/blob/main/contracts/ERC721A.sol\":12173:12260  bytes(baseURI).length != 0 ? string(abi.encodePacked(baseURI, _toString(tokenId))) : '' */\n      tag_227\n      jumpi\n      mload(0x40)\n      dup1\n      0x20\n      add\n      0x40\n      mstore\n      dup1\n      0x00\n      dup2\n      mstore\n      pop\n      jump(tag_228)\n    tag_227:\n        /* \"https://github.com/chiru-labs/ERC721A/blob/main/contracts/ERC721A.sol\":12226:12233  baseURI */\n      dup1\n        /* \"https://github.com/chiru-labs/ERC721A/blob/main/contracts/ERC721A.sol\":12235:12253  _toString(tokenId) */\n      tag_229\n        /* \"https://github.com/chiru-labs/ERC721A/blob/main/contracts/ERC721A.sol\":12245:12252  tokenId */\n      dup5\n        /* \"https://github.com/chiru-labs/ERC721A/blob/main/contracts/ERC721A.sol\":12235:12244  _toString */\n      tag_230\n        /* \"https://github.com/chiru-labs/ERC721A/blob/main/contracts/ERC721A.sol\":12235:12253  _toString(tokenId) */\n      jump\t// in\n    tag_229:\n        /* \"https://github.com/chiru-labs/ERC721A/blob/main/contracts/ERC721A.sol\":12209:12254  abi.encodePacked(baseURI, _toString(tokenId)) */\n      add(0x20, mload(0x40))\n      tag_231\n      swap3\n      swap2\n      swap1\n      tag_232\n      jump\t// in\n    tag_231:\n      mload(0x40)\n      0x20\n      dup2\n      dup4\n      sub\n      sub\n      dup2\n      mstore\n      swap1\n      0x40\n      mstore\n        /* \"https://github.com/chiru-labs/ERC721A/blob/main/contracts/ERC721A.sol\":12173:12260  bytes(baseURI).length != 0 ? string(abi.encodePacked(baseURI, _toString(tokenId))) : '' */\n    tag_228:\n        /* \"https://github.com/chiru-labs/ERC721A/blob/main/contracts/ERC721A.sol\":12166:12260  return bytes(baseURI).length != 0 ? string(abi.encodePacked(baseURI, _toString(tokenId))) : '' */\n      swap4\n        /* \"https://github.com/chiru-labs/ERC721A/blob/main/contracts/ERC721A.sol\":11945:12267  function tokenURI(uint256 tokenId) public view virtual override returns (string memory) {... */\n      swap3\n      pop\n      pop\n      pop\n      jump\t// out\n        /* \"contracts/ContractV/ContractVV2.sol\":1706:1818  function getCreature(uint256 id) external view returns (Creature memory) {... */\n    tag_113:\n        /* \"contracts/ContractV/ContractVV2.sol\":1762:1777  Creature memory */\n      tag_234\n      mload(0x40)\n      dup1\n      0x80\n      add\n      0x40\n      mstore\n      dup1\n      0x00\n      dup2\n      mstore\n      0x20\n      add\n      and(sub(shl(0xa0, 0x01), 0x01), 0x00)\n      dup2\n      mstore\n      0x20\n      add\n      0x00\n      dup2\n      mstore\n      0x20\n      add\n      0x00\n      dup2\n      mstore\n      pop\n      swap1\n      jump\n    tag_234:\n      pop\n        /* \"contracts/ContractV/ContractVV2.sol\":1797:1810  creatures[id] */\n      0x00\n      swap1\n      dup2\n      mstore\n        /* \"contracts/ContractV/ContractVV2.sol\":1797:1806  creatures */\n      0x0a\n        /* \"contracts/ContractV/ContractVV2.sol\":1797:1810  creatures[id] */\n      0x20\n      swap1\n      dup2\n      mstore\n      0x40\n      swap2\n      dup3\n      swap1\n      keccak256\n        /* \"contracts/ContractV/ContractVV2.sol\":1790:1810  return creatures[id] */\n      dup3\n      mload\n      0x80\n      dup2\n      add\n      dup5\n      mstore\n      dup2\n      sload\n      dup2\n      mstore\n      0x01\n      dup3\n      add\n      sload\n      sub(shl(0xa0, 0x01), 0x01)\n      and\n      swap3\n      dup2\n      add\n      swap3\n      swap1\n      swap3\n      mstore\n      0x02\n      dup2\n      add\n      sload\n      swap3\n      dup3\n      add\n      swap3\n      swap1\n      swap3\n      mstore\n      0x03\n      swap1\n      swap2\n      add\n      sload\n      0x60\n      dup3\n      add\n      mstore\n      swap1\n        /* \"contracts/ContractV/ContractVV2.sol\":1706:1818  function getCreature(uint256 id) external view returns (Creature memory) {... */\n      jump\t// out\n        /* \"https://github.com/chiru-labs/ERC721A/blob/main/contracts/ERC721A.sol\":19978:20443  function _exists(uint256 tokenId) internal view virtual returns (bool result) {... */\n    tag_134:\n        /* \"https://github.com/chiru-labs/ERC721A/blob/main/contracts/ERC721A.sol\":20043:20054  bool result */\n      0x00\n        /* \"https://github.com/chiru-labs/ERC721A/blob/main/contracts/ERC721A.sol\":20231:20244  _currentIndex */\n      dup1\n      sload\n        /* \"https://github.com/chiru-labs/ERC721A/blob/main/contracts/ERC721A.sol\":20221:20228  tokenId */\n      dup3\n        /* \"https://github.com/chiru-labs/ERC721A/blob/main/contracts/ERC721A.sol\":20221:20244  tokenId < _currentIndex */\n      lt\n        /* \"https://github.com/chiru-labs/ERC721A/blob/main/contracts/ERC721A.sol\":20217:20427  if (tokenId < _currentIndex) {... */\n      iszero\n      tag_245\n      jumpi\n        /* \"https://github.com/chiru-labs/ERC721A/blob/main/contracts/ERC721A.sol\":20264:20278  uint256 packed */\n      0x00\n        /* \"https://github.com/chiru-labs/ERC721A/blob/main/contracts/ERC721A.sol\":20296:20356  while ((packed = _packedOwnerships[tokenId]) == 0) --tokenId */\n    tag_246:\n      pop\n        /* \"https://github.com/chiru-labs/ERC721A/blob/main/contracts/ERC721A.sol\":20313:20339  _packedOwnerships[tokenId] */\n      0x00\n      dup3\n      dup2\n      mstore\n        /* \"https://github.com/chiru-labs/ERC721A/blob/main/contracts/ERC721A.sol\":20313:20330  _packedOwnerships */\n      0x04\n        /* \"https://github.com/chiru-labs/ERC721A/blob/main/contracts/ERC721A.sol\":20313:20339  _packedOwnerships[tokenId] */\n      0x20\n      mstore\n      0x40\n      dup2\n      keccak256\n      sload\n      swap1\n        /* \"https://github.com/chiru-labs/ERC721A/blob/main/contracts/ERC721A.sol\":20303:20345  (packed = _packedOwnerships[tokenId]) == 0 */\n      dup2\n      swap1\n      sub\n        /* \"https://github.com/chiru-labs/ERC721A/blob/main/contracts/ERC721A.sol\":20296:20356  while ((packed = _packedOwnerships[tokenId]) == 0) --tokenId */\n      tag_247\n      jumpi\n        /* \"https://github.com/chiru-labs/ERC721A/blob/main/contracts/ERC721A.sol\":20347:20356  --tokenId */\n      tag_248\n      dup4\n      tag_249\n      jump\t// in\n    tag_248:\n      swap3\n      pop\n        /* \"https://github.com/chiru-labs/ERC721A/blob/main/contracts/ERC721A.sol\":20296:20356  while ((packed = _packedOwnerships[tokenId]) == 0) --tokenId */\n      jump(tag_246)\n    tag_247:\n      shl(0xe0, 0x01)\n        /* \"https://github.com/chiru-labs/ERC721A/blob/main/contracts/ERC721A.sol\":20383:20407  packed & _BITMASK_BURNED */\n      and\n        /* \"https://github.com/chiru-labs/ERC721A/blob/main/contracts/ERC721A.sol\":20383:20412  packed & _BITMASK_BURNED == 0 */\n      iszero\n      swap1\n      pop\n        /* \"https://github.com/chiru-labs/ERC721A/blob/main/contracts/ERC721A.sol\":20217:20427  if (tokenId < _currentIndex) {... */\n    tag_245:\n        /* \"https://github.com/chiru-labs/ERC721A/blob/main/contracts/ERC721A.sol\":19978:20443  function _exists(uint256 tokenId) internal view virtual returns (bool result) {... */\n      swap2\n      swap1\n      pop\n      jump\t// out\n        /* \"https://github.com/chiru-labs/ERC721A/blob/main/contracts/ERC721A.sol\":49703:49863  function _revert(bytes4 errorSelector) internal pure {... */\n    tag_137:\n        /* \"https://github.com/chiru-labs/ERC721A/blob/main/contracts/ERC721A.sol\":49802:49815  errorSelector */\n      dup1\n        /* \"https://github.com/chiru-labs/ERC721A/blob/main/contracts/ERC721A.sol\":49796:49800  0x00 */\n      0x00\n        /* \"https://github.com/chiru-labs/ERC721A/blob/main/contracts/ERC721A.sol\":49789:49816  mstore(0x00, errorSelector) */\n      mstore\n        /* \"https://github.com/chiru-labs/ERC721A/blob/main/contracts/ERC721A.sol\":49842:49846  0x04 */\n      0x04\n        /* \"https://github.com/chiru-labs/ERC721A/blob/main/contracts/ERC721A.sol\":49836:49840  0x00 */\n      0x00\n        /* \"https://github.com/chiru-labs/ERC721A/blob/main/contracts/ERC721A.sol\":49829:49847  revert(0x00, 0x04) */\n      revert\n        /* \"https://github.com/chiru-labs/ERC721A/blob/main/contracts/ERC721A.sol\":41333:41793  function _approve(... */\n    tag_140:\n        /* \"https://github.com/chiru-labs/ERC721A/blob/main/contracts/ERC721A.sol\":41457:41470  address owner */\n      0x00\n        /* \"https://github.com/chiru-labs/ERC721A/blob/main/contracts/ERC721A.sol\":41473:41489  ownerOf(tokenId) */\n      tag_252\n        /* \"https://github.com/chiru-labs/ERC721A/blob/main/contracts/ERC721A.sol\":41481:41488  tokenId */\n      dup4\n        /* \"https://github.com/chiru-labs/ERC721A/blob/main/contracts/ERC721A.sol\":41473:41480  ownerOf */\n      tag_73\n        /* \"https://github.com/chiru-labs/ERC721A/blob/main/contracts/ERC721A.sol\":41473:41489  ownerOf(tokenId) */\n      jump\t// in\n    tag_252:\n        /* \"https://github.com/chiru-labs/ERC721A/blob/main/contracts/ERC721A.sol\":41457:41489  address owner = ownerOf(tokenId) */\n      swap1\n      pop\n        /* \"https://github.com/chiru-labs/ERC721A/blob/main/contracts/ERC721A.sol\":41504:41517  approvalCheck */\n      dup2\n        /* \"https://github.com/chiru-labs/ERC721A/blob/main/contracts/ERC721A.sol\":41504:41549  approvalCheck && _msgSenderERC721A() != owner */\n      dup1\n      iszero\n      tag_253\n      jumpi\n      pop\n        /* \"https://github.com/chiru-labs/ERC721A/blob/main/contracts/ERC721A.sol\":47819:47829  msg.sender */\n      caller\n      sub(shl(0xa0, 0x01), 0x01)\n        /* \"https://github.com/chiru-labs/ERC721A/blob/main/contracts/ERC721A.sol\":41521:41549  _msgSenderERC721A() != owner */\n      dup3\n      and\n      eq\n      iszero\n        /* \"https://github.com/chiru-labs/ERC721A/blob/main/contracts/ERC721A.sol\":41504:41549  approvalCheck && _msgSenderERC721A() != owner */\n    tag_253:\n        /* \"https://github.com/chiru-labs/ERC721A/blob/main/contracts/ERC721A.sol\":41500:41698  if (approvalCheck && _msgSenderERC721A() != owner)... */\n      iszero\n      tag_259\n      jumpi\n        /* \"https://github.com/chiru-labs/ERC721A/blob/main/contracts/ERC721A.sol\":41568:41612  isApprovedForAll(owner, _msgSenderERC721A()) */\n      tag_256\n        /* \"https://github.com/chiru-labs/ERC721A/blob/main/contracts/ERC721A.sol\":41585:41590  owner */\n      dup2\n        /* \"https://github.com/chiru-labs/ERC721A/blob/main/contracts/ERC721A.sol\":47819:47829  msg.sender */\n      caller\n        /* \"https://github.com/chiru-labs/ERC721A/blob/main/contracts/ERC721A.sol\":19567:19729  function isApprovedForAll(address owner, address operator) public view virtual override returns (bool) {... */\n      tag_106\n      jump\t// in\n        /* \"https://github.com/chiru-labs/ERC721A/blob/main/contracts/ERC721A.sol\":41568:41612  isApprovedForAll(owner, _msgSenderERC721A()) */\n    tag_256:\n        /* \"https://github.com/chiru-labs/ERC721A/blob/main/contracts/ERC721A.sol\":41563:41698  if (!isApprovedForAll(owner, _msgSenderERC721A())) {... */\n      tag_259\n      jumpi\n        /* \"https://github.com/chiru-labs/ERC721A/blob/main/contracts/ERC721A.sol\":41632:41683  _revert(ApprovalCallerNotOwnerNorApproved.selector) */\n      tag_259\n        /* \"https://github.com/chiru-labs/ERC721A/blob/main/contracts/ERC721A.sol\":41640:41682  ApprovalCallerNotOwnerNorApproved.selector */\n      0xcfb3b94200000000000000000000000000000000000000000000000000000000\n        /* \"https://github.com/chiru-labs/ERC721A/blob/main/contracts/ERC721A.sol\":41632:41639  _revert */\n      tag_137\n        /* \"https://github.com/chiru-labs/ERC721A/blob/main/contracts/ERC721A.sol\":41632:41683  _revert(ApprovalCallerNotOwnerNorApproved.selector) */\n      jump\t// in\n    tag_259:\n        /* \"https://github.com/chiru-labs/ERC721A/blob/main/contracts/ERC721A.sol\":41708:41732  _tokenApprovals[tokenId] */\n      0x00\n      dup4\n      dup2\n      mstore\n        /* \"https://github.com/chiru-labs/ERC721A/blob/main/contracts/ERC721A.sol\":41708:41723  _tokenApprovals */\n      0x06\n        /* \"https://github.com/chiru-labs/ERC721A/blob/main/contracts/ERC721A.sol\":41708:41732  _tokenApprovals[tokenId] */\n      0x20\n      mstore\n      0x40\n      dup1\n      dup3\n      keccak256\n        /* \"https://github.com/chiru-labs/ERC721A/blob/main/contracts/ERC721A.sol\":41708:41743  _tokenApprovals[tokenId].value = to */\n      dup1\n      sload\n      not(0xffffffffffffffffffffffffffffffffffffffff)\n      and\n      sub(shl(0xa0, 0x01), 0x01)\n      dup9\n      dup2\n      and\n      swap2\n      dup3\n      or\n      swap1\n      swap3\n      sstore\n        /* \"https://github.com/chiru-labs/ERC721A/blob/main/contracts/ERC721A.sol\":41758:41786  Approval(owner, to, tokenId) */\n      swap2\n      mload\n        /* \"https://github.com/chiru-labs/ERC721A/blob/main/contracts/ERC721A.sol\":41708:41732  _tokenApprovals[tokenId] */\n      dup7\n      swap4\n        /* \"https://github.com/chiru-labs/ERC721A/blob/main/contracts/ERC721A.sol\":41758:41786  Approval(owner, to, tokenId) */\n      swap2\n      dup6\n      and\n      swap2\n      0x8c5be1e5ebec7d5bd14f71427d1e84f3dd0314c0f7b2291e5b200ac8c7c3b925\n      swap2\n      log4\n        /* \"https://github.com/chiru-labs/ERC721A/blob/main/contracts/ERC721A.sol\":41447:41793  {... */\n      pop\n        /* \"https://github.com/chiru-labs/ERC721A/blob/main/contracts/ERC721A.sol\":41333:41793  function _approve(... */\n      pop\n      pop\n      pop\n      jump\t// out\n        /* \"https://github.com/chiru-labs/ERC721A/blob/main/contracts/ERC721A.sol\":14380:16553  function _packedOwnershipOf(uint256 tokenId) private view returns (uint256 packed) {... */\n    tag_149:\n        /* \"https://github.com/chiru-labs/ERC721A/blob/main/contracts/ERC721A.sol\":14528:14554  _packedOwnerships[tokenId] */\n      0x00\n      dup2\n      dup2\n      mstore\n        /* \"https://github.com/chiru-labs/ERC721A/blob/main/contracts/ERC721A.sol\":14528:14545  _packedOwnerships */\n      0x04\n        /* \"https://github.com/chiru-labs/ERC721A/blob/main/contracts/ERC721A.sol\":14528:14554  _packedOwnerships[tokenId] */\n      0x20\n      mstore\n      0x40\n      swap1\n      keccak256\n      sload\n        /* \"https://github.com/chiru-labs/ERC721A/blob/main/contracts/ERC721A.sol\":14847:14853  packed */\n      dup1\n        /* \"https://github.com/chiru-labs/ERC721A/blob/main/contracts/ERC721A.sol\":14857:14858  0 */\n      0x00\n        /* \"https://github.com/chiru-labs/ERC721A/blob/main/contracts/ERC721A.sol\":14847:14858  packed == 0 */\n      sub\n        /* \"https://github.com/chiru-labs/ERC721A/blob/main/contracts/ERC721A.sol\":14843:16113  if (packed == 0) {... */\n      tag_270\n      jumpi\n        /* \"https://github.com/chiru-labs/ERC721A/blob/main/contracts/ERC721A.sol\":14893:14906  _currentIndex */\n      sload(0x00)\n        /* \"https://github.com/chiru-labs/ERC721A/blob/main/contracts/ERC721A.sol\":14882:14889  tokenId */\n      dup3\n        /* \"https://github.com/chiru-labs/ERC721A/blob/main/contracts/ERC721A.sol\":14882:14906  tokenId >= _currentIndex */\n      lt\n        /* \"https://github.com/chiru-labs/ERC721A/blob/main/contracts/ERC721A.sol\":14878:14955  if (tokenId >= _currentIndex) _revert(OwnerQueryForNonexistentToken.selector) */\n      tag_272\n      jumpi\n        /* \"https://github.com/chiru-labs/ERC721A/blob/main/contracts/ERC721A.sol\":14908:14955  _revert(OwnerQueryForNonexistentToken.selector) */\n      tag_272\n      shl(0xe1, 0x6f96cda1)\n        /* \"https://github.com/chiru-labs/ERC721A/blob/main/contracts/ERC721A.sol\":14908:14915  _revert */\n      tag_137\n        /* \"https://github.com/chiru-labs/ERC721A/blob/main/contracts/ERC721A.sol\":14908:14955  _revert(OwnerQueryForNonexistentToken.selector) */\n      jump\t// in\n    tag_272:\n        /* \"https://github.com/chiru-labs/ERC721A/blob/main/contracts/ERC721A.sol\":15502:16099  for (;;) {... */\n    tag_273:\n      pop\n      not(0x00)\n        /* \"https://github.com/chiru-labs/ERC721A/blob/main/contracts/ERC721A.sol\":15596:15605  --tokenId */\n      add\n        /* \"https://github.com/chiru-labs/ERC721A/blob/main/contracts/ERC721A.sol\":15578:15606  _packedOwnerships[--tokenId] */\n      0x00\n      dup2\n      dup2\n      mstore\n        /* \"https://github.com/chiru-labs/ERC721A/blob/main/contracts/ERC721A.sol\":15578:15595  _packedOwnerships */\n      0x04\n        /* \"https://github.com/chiru-labs/ERC721A/blob/main/contracts/ERC721A.sol\":15578:15606  _packedOwnerships[--tokenId] */\n      0x20\n      mstore\n      0x40\n      swap1\n      keccak256\n      sload\n        /* \"https://github.com/chiru-labs/ERC721A/blob/main/contracts/ERC721A.sol\":15650:15675  if (packed == 0) continue */\n      dup1\n      iszero\n        /* \"https://github.com/chiru-labs/ERC721A/blob/main/contracts/ERC721A.sol\":15502:16099  for (;;) {... */\n      tag_273\n        /* \"https://github.com/chiru-labs/ERC721A/blob/main/contracts/ERC721A.sol\":15650:15675  if (packed == 0) continue */\n      jumpi\n      shl(0xe0, 0x01)\n        /* \"https://github.com/chiru-labs/ERC721A/blob/main/contracts/ERC721A.sol\":15701:15707  packed */\n      dup2\n        /* \"https://github.com/chiru-labs/ERC721A/blob/main/contracts/ERC721A.sol\":15701:15725  packed & _BITMASK_BURNED */\n      and\n        /* \"https://github.com/chiru-labs/ERC721A/blob/main/contracts/ERC721A.sol\":15729:15730  0 */\n      0x00\n        /* \"https://github.com/chiru-labs/ERC721A/blob/main/contracts/ERC721A.sol\":15701:15730  packed & _BITMASK_BURNED == 0 */\n      sub\n        /* \"https://github.com/chiru-labs/ERC721A/blob/main/contracts/ERC721A.sol\":15697:15745  if (packed & _BITMASK_BURNED == 0) return packed */\n      tag_277\n      jumpi\n        /* \"https://github.com/chiru-labs/ERC721A/blob/main/contracts/ERC721A.sol\":14380:16553  function _packedOwnershipOf(uint256 tokenId) private view returns (uint256 packed) {... */\n      swap2\n      swap1\n      pop\n      jump\t// out\n        /* \"https://github.com/chiru-labs/ERC721A/blob/main/contracts/ERC721A.sol\":15697:15745  if (packed & _BITMASK_BURNED == 0) return packed */\n    tag_277:\n        /* \"https://github.com/chiru-labs/ERC721A/blob/main/contracts/ERC721A.sol\":16033:16080  _revert(OwnerQueryForNonexistentToken.selector) */\n      tag_278\n      shl(0xe1, 0x6f96cda1)\n        /* \"https://github.com/chiru-labs/ERC721A/blob/main/contracts/ERC721A.sol\":16033:16040  _revert */\n      tag_137\n        /* \"https://github.com/chiru-labs/ERC721A/blob/main/contracts/ERC721A.sol\":16033:16080  _revert(OwnerQueryForNonexistentToken.selector) */\n      jump\t// in\n    tag_278:\n        /* \"https://github.com/chiru-labs/ERC721A/blob/main/contracts/ERC721A.sol\":15502:16099  for (;;) {... */\n      jump(tag_273)\n        /* \"https://github.com/chiru-labs/ERC721A/blob/main/contracts/ERC721A.sol\":14843:16113  if (packed == 0) {... */\n    tag_270:\n      shl(0xe0, 0x01)\n        /* \"https://github.com/chiru-labs/ERC721A/blob/main/contracts/ERC721A.sol\":16435:16441  packed */\n      dup2\n        /* \"https://github.com/chiru-labs/ERC721A/blob/main/contracts/ERC721A.sol\":16435:16459  packed & _BITMASK_BURNED */\n      and\n        /* \"https://github.com/chiru-labs/ERC721A/blob/main/contracts/ERC721A.sol\":16463:16464  0 */\n      0x00\n        /* \"https://github.com/chiru-labs/ERC721A/blob/main/contracts/ERC721A.sol\":16435:16464  packed & _BITMASK_BURNED == 0 */\n      sub\n        /* \"https://github.com/chiru-labs/ERC721A/blob/main/contracts/ERC721A.sol\":16431:16479  if (packed & _BITMASK_BURNED == 0) return packed */\n      tag_279\n      jumpi\n        /* \"https://github.com/chiru-labs/ERC721A/blob/main/contracts/ERC721A.sol\":14380:16553  function _packedOwnershipOf(uint256 tokenId) private view returns (uint256 packed) {... */\n      swap2\n      swap1\n      pop\n      jump\t// out\n        /* \"https://github.com/chiru-labs/ERC721A/blob/main/contracts/ERC721A.sol\":16431:16479  if (packed & _BITMASK_BURNED == 0) return packed */\n    tag_279:\n        /* \"https://github.com/chiru-labs/ERC721A/blob/main/contracts/ERC721A.sol\":16499:16546  _revert(OwnerQueryForNonexistentToken.selector) */\n      tag_245\n      shl(0xe1, 0x6f96cda1)\n        /* \"https://github.com/chiru-labs/ERC721A/blob/main/contracts/ERC721A.sol\":16499:16506  _revert */\n      tag_137\n        /* \"https://github.com/chiru-labs/ERC721A/blob/main/contracts/ERC721A.sol\":16499:16546  _revert(OwnerQueryForNonexistentToken.selector) */\n      jump\t// in\n        /* \"https://github.com/chiru-labs/ERC721A/blob/main/contracts/ERC721A.sol\":36661:36771  function _safeMint(address to, uint256 quantity) internal virtual {... */\n    tag_183:\n        /* \"https://github.com/chiru-labs/ERC721A/blob/main/contracts/ERC721A.sol\":36737:36764  _safeMint(to, quantity, '') */\n      tag_139\n        /* \"https://github.com/chiru-labs/ERC721A/blob/main/contracts/ERC721A.sol\":36747:36749  to */\n      dup3\n        /* \"https://github.com/chiru-labs/ERC721A/blob/main/contracts/ERC721A.sol\":36751:36759  quantity */\n      dup3\n        /* \"https://github.com/chiru-labs/ERC721A/blob/main/contracts/ERC721A.sol\":36737:36764  _safeMint(to, quantity, '') */\n      mload(0x40)\n      dup1\n      0x20\n      add\n      0x40\n      mstore\n      dup1\n      0x00\n      dup2\n      mstore\n      pop\n        /* \"https://github.com/chiru-labs/ERC721A/blob/main/contracts/ERC721A.sol\":36737:36746  _safeMint */\n      tag_293\n        /* \"https://github.com/chiru-labs/ERC721A/blob/main/contracts/ERC721A.sol\":36737:36764  _safeMint(to, quantity, '') */\n      jump\t// in\n        /* \"contracts/ContractV/ContractVV2.sol\":4603:4742  function _checkCreatureOwned(uint256 id) private view {... */\n    tag_204:\n        /* \"contracts/ContractV/ContractVV2.sol\":4672:4685  creatures[id] */\n      0x00\n      dup2\n      dup2\n      mstore\n        /* \"contracts/ContractV/ContractVV2.sol\":4672:4681  creatures */\n      0x0a\n        /* \"contracts/ContractV/ContractVV2.sol\":4672:4685  creatures[id] */\n      0x20\n      mstore\n      0x40\n      swap1\n      keccak256\n        /* \"contracts/ContractV/ContractVV2.sol\":4672:4691  creatures[id].owner */\n      0x01\n      add\n      sload\n      sub(shl(0xa0, 0x01), 0x01)\n      and\n        /* \"https://github.com/chiru-labs/ERC721A/blob/main/contracts/ERC721A.sol\":47819:47829  msg.sender */\n      caller\n        /* \"contracts/ContractV/ContractVV2.sol\":4672:4707  creatures[id].owner != _msgSender() */\n      eq\n        /* \"contracts/ContractV/ContractVV2.sol\":4668:4734  if (creatures[id].owner != _msgSender()) revert CreatureNotOwned() */\n      tag_296\n      jumpi\n        /* \"contracts/ContractV/ContractVV2.sol\":4716:4734  CreatureNotOwned() */\n      mload(0x40)\n      0x233de59500000000000000000000000000000000000000000000000000000000\n      dup2\n      mstore\n      0x04\n      add\n      mload(0x40)\n      dup1\n      swap2\n      sub\n      swap1\n      revert\n        /* \"contracts/ContractV/ContractVV2.sol\":4668:4734  if (creatures[id].owner != _msgSender()) revert CreatureNotOwned() */\n    tag_296:\n        /* \"contracts/ContractV/ContractVV2.sol\":4603:4742  function _checkCreatureOwned(uint256 id) private view {... */\n      pop\n      jump\t// out\n        /* \"contracts/ContractV/ContractVV2.sol\":4750:4891  function _checkCreatureExists(uint256 id) private view {... */\n    tag_207:\n        /* \"contracts/ContractV/ContractVV2.sol\":4851:4852  0 */\n      0x00\n        /* \"contracts/ContractV/ContractVV2.sol\":4820:4833  creatures[id] */\n      dup2\n      dup2\n      mstore\n        /* \"contracts/ContractV/ContractVV2.sol\":4820:4829  creatures */\n      0x0a\n        /* \"contracts/ContractV/ContractVV2.sol\":4820:4833  creatures[id] */\n      0x20\n      mstore\n      0x40\n      swap1\n      keccak256\n        /* \"contracts/ContractV/ContractVV2.sol\":4820:4839  creatures[id].owner */\n      0x01\n      add\n      sload\n      sub(shl(0xa0, 0x01), 0x01)\n      and\n        /* \"contracts/ContractV/ContractVV2.sol\":4816:4883  if (creatures[id].owner == address(0)) revert CreatureDoesntExist() */\n      tag_296\n      jumpi\n        /* \"contracts/ContractV/ContractVV2.sol\":4862:4883  CreatureDoesntExist() */\n      mload(0x40)\n      0xdc80d2f500000000000000000000000000000000000000000000000000000000\n      dup2\n      mstore\n      0x04\n      add\n      mload(0x40)\n      dup1\n      swap2\n      sub\n      swap1\n      revert\n        /* \"https://github.com/chiru-labs/ERC721A/blob/main/contracts/ERC721A.sol\":29533:30206  function _checkContractOnERC721Received(... */\n    tag_218:\n        /* \"https://github.com/chiru-labs/ERC721A/blob/main/contracts/ERC721A.sol\":29711:29799  ERC721A__IERC721Receiver(to).onERC721Received(_msgSenderERC721A(), from, tokenId, _data) */\n      mload(0x40)\n      shl(0xe1, 0x0a85bd01)\n      dup2\n      mstore\n        /* \"https://github.com/chiru-labs/ERC721A/blob/main/contracts/ERC721A.sol\":29691:29695  bool */\n      0x00\n      swap1\n      sub(shl(0xa0, 0x01), 0x01)\n        /* \"https://github.com/chiru-labs/ERC721A/blob/main/contracts/ERC721A.sol\":29711:29756  ERC721A__IERC721Receiver(to).onERC721Received */\n      dup6\n      and\n      swap1\n      0x150b7a02\n      swap1\n        /* \"https://github.com/chiru-labs/ERC721A/blob/main/contracts/ERC721A.sol\":29711:29799  ERC721A__IERC721Receiver(to).onERC721Received(_msgSenderERC721A(), from, tokenId, _data) */\n      tag_302\n      swap1\n        /* \"https://github.com/chiru-labs/ERC721A/blob/main/contracts/ERC721A.sol\":47819:47829  msg.sender */\n      caller\n      swap1\n        /* \"https://github.com/chiru-labs/ERC721A/blob/main/contracts/ERC721A.sol\":29778:29782  from */\n      dup10\n      swap1\n        /* \"https://github.com/chiru-labs/ERC721A/blob/main/contracts/ERC721A.sol\":29784:29791  tokenId */\n      dup9\n      swap1\n        /* \"https://github.com/chiru-labs/ERC721A/blob/main/contracts/ERC721A.sol\":29793:29798  _data */\n      dup9\n      swap1\n        /* \"https://github.com/chiru-labs/ERC721A/blob/main/contracts/ERC721A.sol\":29711:29799  ERC721A__IERC721Receiver(to).onERC721Received(_msgSenderERC721A(), from, tokenId, _data) */\n      0x04\n      add\n      tag_303\n      jump\t// in\n    tag_302:\n      0x20\n      mload(0x40)\n      dup1\n      dup4\n      sub\n      dup2\n      0x00\n      dup8\n      gas\n      call\n      swap3\n      pop\n      pop\n      pop\n      dup1\n      iszero\n      tag_304\n      jumpi\n      pop\n      0x40\n      dup1\n      mload\n      0x1f\n      returndatasize\n      swap1\n      dup2\n      add\n      not(0x1f)\n      and\n      dup3\n      add\n      swap1\n      swap3\n      mstore\n      tag_305\n      swap2\n      dup2\n      add\n      swap1\n      tag_306\n      jump\t// in\n    tag_305:\n      0x01\n    tag_304:\n        /* \"https://github.com/chiru-labs/ERC721A/blob/main/contracts/ERC721A.sol\":29707:30200  try ERC721A__IERC721Receiver(to).onERC721Received(_msgSenderERC721A(), from, tokenId, _data) returns (... */\n      tag_307\n      jumpi\n      returndatasize\n      dup1\n      dup1\n      iszero\n      tag_312\n      jumpi\n      mload(0x40)\n      swap2\n      pop\n      and(add(returndatasize, 0x3f), not(0x1f))\n      dup3\n      add\n      0x40\n      mstore\n      returndatasize\n      dup3\n      mstore\n      returndatasize\n      0x00\n      0x20\n      dup5\n      add\n      returndatacopy\n      jump(tag_311)\n    tag_312:\n      0x60\n      swap2\n      pop\n    tag_311:\n      pop\n        /* \"https://github.com/chiru-labs/ERC721A/blob/main/contracts/ERC721A.sol\":29989:29995  reason */\n      dup1\n        /* \"https://github.com/chiru-labs/ERC721A/blob/main/contracts/ERC721A.sol\":29989:30002  reason.length */\n      mload\n        /* \"https://github.com/chiru-labs/ERC721A/blob/main/contracts/ERC721A.sol\":30006:30007  0 */\n      0x00\n        /* \"https://github.com/chiru-labs/ERC721A/blob/main/contracts/ERC721A.sol\":29989:30007  reason.length == 0 */\n      sub\n        /* \"https://github.com/chiru-labs/ERC721A/blob/main/contracts/ERC721A.sol\":29985:30098  if (reason.length == 0) {... */\n      tag_314\n      jumpi\n        /* \"https://github.com/chiru-labs/ERC721A/blob/main/contracts/ERC721A.sol\":30027:30083  _revert(TransferToNonERC721ReceiverImplementer.selector) */\n      tag_314\n      shl(0xe1, 0x68d2bf6b)\n        /* \"https://github.com/chiru-labs/ERC721A/blob/main/contracts/ERC721A.sol\":30027:30034  _revert */\n      tag_137\n        /* \"https://github.com/chiru-labs/ERC721A/blob/main/contracts/ERC721A.sol\":30027:30083  _revert(TransferToNonERC721ReceiverImplementer.selector) */\n      jump\t// in\n    tag_314:\n        /* \"https://github.com/chiru-labs/ERC721A/blob/main/contracts/ERC721A.sol\":30168:30174  reason */\n      dup1\n        /* \"https://github.com/chiru-labs/ERC721A/blob/main/contracts/ERC721A.sol\":30162:30175  mload(reason) */\n      mload\n        /* \"https://github.com/chiru-labs/ERC721A/blob/main/contracts/ERC721A.sol\":30153:30159  reason */\n      dup2\n        /* \"https://github.com/chiru-labs/ERC721A/blob/main/contracts/ERC721A.sol\":30149:30151  32 */\n      0x20\n        /* \"https://github.com/chiru-labs/ERC721A/blob/main/contracts/ERC721A.sol\":30145:30160  add(32, reason) */\n      add\n        /* \"https://github.com/chiru-labs/ERC721A/blob/main/contracts/ERC721A.sol\":30138:30176  revert(add(32, reason), mload(reason)) */\n      revert\n        /* \"https://github.com/chiru-labs/ERC721A/blob/main/contracts/ERC721A.sol\":29707:30200  try ERC721A__IERC721Receiver(to).onERC721Received(_msgSenderERC721A(), from, tokenId, _data) returns (... */\n    tag_307:\n      not(sub(shl(0xe0, 0x01), 0x01))\n        /* \"https://github.com/chiru-labs/ERC721A/blob/main/contracts/ERC721A.sol\":29867:29931  retval == ERC721A__IERC721Receiver(to).onERC721Received.selector */\n      and\n      shl(0xe1, 0x0a85bd01)\n      eq\n      swap1\n      pop\n        /* \"https://github.com/chiru-labs/ERC721A/blob/main/contracts/ERC721A.sol\":29707:30200  try ERC721A__IERC721Receiver(to).onERC721Received(_msgSenderERC721A(), from, tokenId, _data) returns (... */\n    tag_315:\n        /* \"https://github.com/chiru-labs/ERC721A/blob/main/contracts/ERC721A.sol\":29533:30206  function _checkContractOnERC721Received(... */\n      swap5\n      swap4\n      pop\n      pop\n      pop\n      pop\n      jump\t// out\n        /* \"https://github.com/chiru-labs/ERC721A/blob/main/contracts/ERC721A.sol\":47933:49641  function _toString(uint256 value) internal pure virtual returns (string memory str) {... */\n    tag_230:\n        /* \"https://github.com/chiru-labs/ERC721A/blob/main/contracts/ERC721A.sol\":47998:48015  string memory str */\n      0x60\n        /* \"https://github.com/chiru-labs/ERC721A/blob/main/contracts/ERC721A.sol\":48426:48430  0xa0 */\n      0xa0\n        /* \"https://github.com/chiru-labs/ERC721A/blob/main/contracts/ERC721A.sol\":48419:48423  0x40 */\n      0x40\n        /* \"https://github.com/chiru-labs/ERC721A/blob/main/contracts/ERC721A.sol\":48413:48424  mload(0x40) */\n      mload\n        /* \"https://github.com/chiru-labs/ERC721A/blob/main/contracts/ERC721A.sol\":48409:48431  add(mload(0x40), 0xa0) */\n      add\n        /* \"https://github.com/chiru-labs/ERC721A/blob/main/contracts/ERC721A.sol\":48516:48517  m */\n      dup1\n        /* \"https://github.com/chiru-labs/ERC721A/blob/main/contracts/ERC721A.sol\":48510:48514  0x40 */\n      0x40\n        /* \"https://github.com/chiru-labs/ERC721A/blob/main/contracts/ERC721A.sol\":48503:48518  mstore(0x40, m) */\n      mstore\n        /* \"https://github.com/chiru-labs/ERC721A/blob/main/contracts/ERC721A.sol\":48589:48593  0x20 */\n      0x20\n        /* \"https://github.com/chiru-labs/ERC721A/blob/main/contracts/ERC721A.sol\":48586:48587  m */\n      dup2\n        /* \"https://github.com/chiru-labs/ERC721A/blob/main/contracts/ERC721A.sol\":48582:48594  sub(m, 0x20) */\n      sub\n        /* \"https://github.com/chiru-labs/ERC721A/blob/main/contracts/ERC721A.sol\":48575:48594  str := sub(m, 0x20) */\n      swap2\n      pop\n      pop\n        /* \"https://github.com/chiru-labs/ERC721A/blob/main/contracts/ERC721A.sol\":48669:48670  0 */\n      0x00\n        /* \"https://github.com/chiru-labs/ERC721A/blob/main/contracts/ERC721A.sol\":48664:48667  str */\n      dup2\n        /* \"https://github.com/chiru-labs/ERC721A/blob/main/contracts/ERC721A.sol\":48657:48671  mstore(str, 0) */\n      mstore\n        /* \"https://github.com/chiru-labs/ERC721A/blob/main/contracts/ERC721A.sol\":48770:48773  str */\n      dup1\n        /* \"https://github.com/chiru-labs/ERC721A/blob/main/contracts/ERC721A.sol\":49004:49009  value */\n      dup3\n        /* \"https://github.com/chiru-labs/ERC721A/blob/main/contracts/ERC721A.sol\":48986:49405  for { let temp := value } 1 {} {... */\n    tag_318:\n        /* \"https://github.com/chiru-labs/ERC721A/blob/main/contracts/ERC721A.sol\":49051:49052  1 */\n      0x01\n        /* \"https://github.com/chiru-labs/ERC721A/blob/main/contracts/ERC721A.sol\":49046:49049  str */\n      dup4\n        /* \"https://github.com/chiru-labs/ERC721A/blob/main/contracts/ERC721A.sol\":49042:49053  sub(str, 1) */\n      sub\n        /* \"https://github.com/chiru-labs/ERC721A/blob/main/contracts/ERC721A.sol\":49035:49053  str := sub(str, 1) */\n      swap3\n      pop\n        /* \"https://github.com/chiru-labs/ERC721A/blob/main/contracts/ERC721A.sol\":49219:49221  10 */\n      0x0a\n        /* \"https://github.com/chiru-labs/ERC721A/blob/main/contracts/ERC721A.sol\":49213:49217  temp */\n      dup2\n        /* \"https://github.com/chiru-labs/ERC721A/blob/main/contracts/ERC721A.sol\":49209:49222  mod(temp, 10) */\n      mod\n        /* \"https://github.com/chiru-labs/ERC721A/blob/main/contracts/ERC721A.sol\":49205:49207  48 */\n      0x30\n        /* \"https://github.com/chiru-labs/ERC721A/blob/main/contracts/ERC721A.sol\":49201:49223  add(48, mod(temp, 10)) */\n      add\n        /* \"https://github.com/chiru-labs/ERC721A/blob/main/contracts/ERC721A.sol\":49196:49199  str */\n      dup4\n        /* \"https://github.com/chiru-labs/ERC721A/blob/main/contracts/ERC721A.sol\":49188:49224  mstore8(str, add(48, mod(temp, 10))) */\n      mstore8\n        /* \"https://github.com/chiru-labs/ERC721A/blob/main/contracts/ERC721A.sol\":49311:49313  10 */\n      0x0a\n        /* \"https://github.com/chiru-labs/ERC721A/blob/main/contracts/ERC721A.sol\":49301:49314  div(temp, 10) */\n      swap1\n      div\n        /* \"https://github.com/chiru-labs/ERC721A/blob/main/contracts/ERC721A.sol\":49366:49391  if iszero(temp) { break } */\n      dup1\n        /* \"https://github.com/chiru-labs/ERC721A/blob/main/contracts/ERC721A.sol\":48986:49405  for { let temp := value } 1 {} {... */\n      tag_318\n        /* \"https://github.com/chiru-labs/ERC721A/blob/main/contracts/ERC721A.sol\":49366:49391  if iszero(temp) { break } */\n      jumpi\n      pop\n        /* \"https://github.com/chiru-labs/ERC721A/blob/main/contracts/ERC721A.sol\":49433:49446  sub(end, str) */\n      dup2\n      swap1\n      sub\n      not(0x1f)\n        /* \"https://github.com/chiru-labs/ERC721A/blob/main/contracts/ERC721A.sol\":49546:49560  sub(str, 0x20) */\n      swap1\n      swap2\n      add\n        /* \"https://github.com/chiru-labs/ERC721A/blob/main/contracts/ERC721A.sol\":49606:49625  mstore(str, length) */\n      swap1\n      dup2\n      mstore\n        /* \"https://github.com/chiru-labs/ERC721A/blob/main/contracts/ERC721A.sol\":49546:49560  sub(str, 0x20) */\n      swap2\n        /* \"https://github.com/chiru-labs/ERC721A/blob/main/contracts/ERC721A.sol\":47933:49641  function _toString(uint256 value) internal pure virtual returns (string memory str) {... */\n      swap1\n      pop\n      jump\t// out\n        /* \"https://github.com/chiru-labs/ERC721A/blob/main/contracts/ERC721A.sol\":35816:36582  function _safeMint(... */\n    tag_293:\n        /* \"https://github.com/chiru-labs/ERC721A/blob/main/contracts/ERC721A.sol\":35942:35961  _mint(to, quantity) */\n      tag_325\n        /* \"https://github.com/chiru-labs/ERC721A/blob/main/contracts/ERC721A.sol\":35948:35950  to */\n      dup4\n        /* \"https://github.com/chiru-labs/ERC721A/blob/main/contracts/ERC721A.sol\":35952:35960  quantity */\n      dup4\n        /* \"https://github.com/chiru-labs/ERC721A/blob/main/contracts/ERC721A.sol\":35942:35947  _mint */\n      tag_326\n        /* \"https://github.com/chiru-labs/ERC721A/blob/main/contracts/ERC721A.sol\":35942:35961  _mint(to, quantity) */\n      jump\t// in\n    tag_325:\n      sub(shl(0xa0, 0x01), 0x01)\n        /* \"https://github.com/chiru-labs/ERC721A/blob/main/contracts/ERC721A.sol\":36000:36014  to.code.length */\n      dup4\n      and\n      extcodesize\n        /* \"https://github.com/chiru-labs/ERC721A/blob/main/contracts/ERC721A.sol\":36000:36019  to.code.length != 0 */\n      iszero\n        /* \"https://github.com/chiru-labs/ERC721A/blob/main/contracts/ERC721A.sol\":35996:36566  if (to.code.length != 0) {... */\n      tag_186\n      jumpi\n        /* \"https://github.com/chiru-labs/ERC721A/blob/main/contracts/ERC721A.sol\":36039:36050  uint256 end */\n      0x00\n        /* \"https://github.com/chiru-labs/ERC721A/blob/main/contracts/ERC721A.sol\":36053:36066  _currentIndex */\n      sload\n        /* \"https://github.com/chiru-labs/ERC721A/blob/main/contracts/ERC721A.sol\":36100:36114  end - quantity */\n      dup3\n      dup2\n      sub\n        /* \"https://github.com/chiru-labs/ERC721A/blob/main/contracts/ERC721A.sol\":36132:36370  do {... */\n    tag_328:\n        /* \"https://github.com/chiru-labs/ERC721A/blob/main/contracts/ERC721A.sol\":36162:36224  _checkContractOnERC721Received(address(0), to, index++, _data) */\n      tag_331\n        /* \"https://github.com/chiru-labs/ERC721A/blob/main/contracts/ERC721A.sol\":36201:36202  0 */\n      0x00\n        /* \"https://github.com/chiru-labs/ERC721A/blob/main/contracts/ERC721A.sol\":36205:36207  to */\n      dup7\n        /* \"https://github.com/chiru-labs/ERC721A/blob/main/contracts/ERC721A.sol\":36209:36216  index++ */\n      dup4\n      dup1\n      0x01\n      add\n      swap5\n      pop\n        /* \"https://github.com/chiru-labs/ERC721A/blob/main/contracts/ERC721A.sol\":36218:36223  _data */\n      dup7\n        /* \"https://github.com/chiru-labs/ERC721A/blob/main/contracts/ERC721A.sol\":36162:36192  _checkContractOnERC721Received */\n      tag_218\n        /* \"https://github.com/chiru-labs/ERC721A/blob/main/contracts/ERC721A.sol\":36162:36224  _checkContractOnERC721Received(address(0), to, index++, _data) */\n      jump\t// in\n    tag_331:\n        /* \"https://github.com/chiru-labs/ERC721A/blob/main/contracts/ERC721A.sol\":36157:36331  if (!_checkContractOnERC721Received(address(0), to, index++, _data)) {... */\n      tag_333\n      jumpi\n        /* \"https://github.com/chiru-labs/ERC721A/blob/main/contracts/ERC721A.sol\":36252:36308  _revert(TransferToNonERC721ReceiverImplementer.selector) */\n      tag_333\n      shl(0xe1, 0x68d2bf6b)\n        /* \"https://github.com/chiru-labs/ERC721A/blob/main/contracts/ERC721A.sol\":36252:36259  _revert */\n      tag_137\n        /* \"https://github.com/chiru-labs/ERC721A/blob/main/contracts/ERC721A.sol\":36252:36308  _revert(TransferToNonERC721ReceiverImplementer.selector) */\n      jump\t// in\n    tag_333:\n        /* \"https://github.com/chiru-labs/ERC721A/blob/main/contracts/ERC721A.sol\":36365:36368  end */\n      dup2\n        /* \"https://github.com/chiru-labs/ERC721A/blob/main/contracts/ERC721A.sol\":36357:36362  index */\n      dup2\n        /* \"https://github.com/chiru-labs/ERC721A/blob/main/contracts/ERC721A.sol\":36357:36368  index < end */\n      lt\n        /* \"https://github.com/chiru-labs/ERC721A/blob/main/contracts/ERC721A.sol\":36132:36370  do {... */\n      tag_328\n      jumpi\n        /* \"https://github.com/chiru-labs/ERC721A/blob/main/contracts/ERC721A.sol\":36538:36541  end */\n      dup2\n        /* \"https://github.com/chiru-labs/ERC721A/blob/main/contracts/ERC721A.sol\":36521:36534  _currentIndex */\n      sload(0x00)\n        /* \"https://github.com/chiru-labs/ERC721A/blob/main/contracts/ERC721A.sol\":36521:36541  _currentIndex != end */\n      eq\n        /* \"https://github.com/chiru-labs/ERC721A/blob/main/contracts/ERC721A.sol\":36517:36551  if (_currentIndex != end) revert() */\n      tag_334\n      jumpi\n        /* \"https://github.com/chiru-labs/ERC721A/blob/main/contracts/ERC721A.sol\":36543:36551  revert() */\n      0x00\n      dup1\n      revert\n        /* \"https://github.com/chiru-labs/ERC721A/blob/main/contracts/ERC721A.sol\":36517:36551  if (_currentIndex != end) revert() */\n    tag_334:\n        /* \"https://github.com/chiru-labs/ERC721A/blob/main/contracts/ERC721A.sol\":36021:36566  {... */\n      pop\n      pop\n        /* \"https://github.com/chiru-labs/ERC721A/blob/main/contracts/ERC721A.sol\":35816:36582  function _safeMint(... */\n      pop\n      pop\n      pop\n      jump\t// out\n        /* \"https://github.com/chiru-labs/ERC721A/blob/main/contracts/ERC721A.sol\":30652:32995  function _mint(address to, uint256 quantity) internal virtual {... */\n    tag_326:\n        /* \"https://github.com/chiru-labs/ERC721A/blob/main/contracts/ERC721A.sol\":30724:30744  uint256 startTokenId */\n      0x00\n        /* \"https://github.com/chiru-labs/ERC721A/blob/main/contracts/ERC721A.sol\":30747:30760  _currentIndex */\n      dup1\n      sload\n      swap1\n        /* \"https://github.com/chiru-labs/ERC721A/blob/main/contracts/ERC721A.sol\":30774:30787  quantity == 0 */\n      dup3\n      swap1\n      sub\n        /* \"https://github.com/chiru-labs/ERC721A/blob/main/contracts/ERC721A.sol\":30770:30823  if (quantity == 0) _revert(MintZeroQuantity.selector) */\n      tag_337\n      jumpi\n        /* \"https://github.com/chiru-labs/ERC721A/blob/main/contracts/ERC721A.sol\":30789:30823  _revert(MintZeroQuantity.selector) */\n      tag_337\n        /* \"https://github.com/chiru-labs/ERC721A/blob/main/contracts/ERC721A.sol\":30797:30822  MintZeroQuantity.selector */\n      0xb562e8dd00000000000000000000000000000000000000000000000000000000\n        /* \"https://github.com/chiru-labs/ERC721A/blob/main/contracts/ERC721A.sol\":30789:30796  _revert */\n      tag_137\n        /* \"https://github.com/chiru-labs/ERC721A/blob/main/contracts/ERC721A.sol\":30789:30823  _revert(MintZeroQuantity.selector) */\n      jump\t// in\n    tag_337:\n        /* \"https://github.com/chiru-labs/ERC721A/blob/main/contracts/ERC721A.sol\":31323:31354  _packedOwnerships[startTokenId] */\n      0x00\n      dup2\n      dup2\n      mstore\n        /* \"https://github.com/chiru-labs/ERC721A/blob/main/contracts/ERC721A.sol\":31323:31340  _packedOwnerships */\n      0x04\n        /* \"https://github.com/chiru-labs/ERC721A/blob/main/contracts/ERC721A.sol\":31323:31354  _packedOwnerships[startTokenId] */\n      0x20\n      swap1\n      dup2\n      mstore\n      0x40\n      dup1\n      dup4\n      keccak256\n      sub(shl(0xa0, 0x01), 0x01)\n        /* \"https://github.com/chiru-labs/ERC721A/blob/main/contracts/ERC721A.sol\":17320:17348  and(owner, _BITMASK_ADDRESS) */\n      dup8\n      and\n        /* \"https://github.com/chiru-labs/ERC721A/blob/main/contracts/ERC721A.sol\":17492:17503  timestamp() */\n      timestamp\n        /* \"https://github.com/chiru-labs/ERC721A/blob/main/contracts/ERC721A.sol\":17467:17490  _BITPOS_START_TIMESTAMP */\n      0xa0\n        /* \"https://github.com/chiru-labs/ERC721A/blob/main/contracts/ERC721A.sol\":17463:17504  shl(_BITPOS_START_TIMESTAMP, timestamp()) */\n      shl\n        /* \"https://github.com/chiru-labs/ERC721A/blob/main/contracts/ERC721A.sol\":17925:17926  1 */\n      0x01\n        /* \"https://github.com/chiru-labs/ERC721A/blob/main/contracts/ERC721A.sol\":17912:17927  eq(quantity, 1) */\n      dup9\n      eq\n        /* \"https://github.com/chiru-labs/ERC721A/blob/main/contracts/ERC721A.sol\":17886:17910  _BITPOS_NEXT_INITIALIZED */\n      0xe1\n        /* \"https://github.com/chiru-labs/ERC721A/blob/main/contracts/ERC721A.sol\":17882:17928  shl(_BITPOS_NEXT_INITIALIZED, eq(quantity, 1)) */\n      shl\n        /* \"https://github.com/chiru-labs/ERC721A/blob/main/contracts/ERC721A.sol\":17460:17512  or(shl(_BITPOS_START_TIMESTAMP, timestamp()), flags) */\n      or\n        /* \"https://github.com/chiru-labs/ERC721A/blob/main/contracts/ERC721A.sol\":17450:17513  or(owner, or(shl(_BITPOS_START_TIMESTAMP, timestamp()), flags)) */\n      dup2\n      or\n        /* \"https://github.com/chiru-labs/ERC721A/blob/main/contracts/ERC721A.sol\":31323:31493  _packedOwnerships[startTokenId] = _packOwnershipData(... */\n      swap1\n      swap2\n      sstore\n        /* \"https://github.com/chiru-labs/ERC721A/blob/main/contracts/ERC721A.sol\":31704:31726  _packedAddressData[to] */\n      dup1\n      dup5\n      mstore\n        /* \"https://github.com/chiru-labs/ERC721A/blob/main/contracts/ERC721A.sol\":31704:31722  _packedAddressData */\n      0x05\n        /* \"https://github.com/chiru-labs/ERC721A/blob/main/contracts/ERC721A.sol\":31704:31726  _packedAddressData[to] */\n      swap1\n      swap3\n      mstore\n      dup3\n      keccak256\n        /* \"https://github.com/chiru-labs/ERC721A/blob/main/contracts/ERC721A.sol\":31704:31775  _packedAddressData[to] += quantity * ((1 << _BITPOS_NUMBER_MINTED) | 1) */\n      dup1\n      sload\n        /* \"https://github.com/chiru-labs/ERC721A/blob/main/contracts/ERC721A.sol\":31742:31774  (1 << _BITPOS_NUMBER_MINTED) | 1 */\n      0x010000000000000001\n        /* \"https://github.com/chiru-labs/ERC721A/blob/main/contracts/ERC721A.sol\":31730:31775  quantity * ((1 << _BITPOS_NUMBER_MINTED) | 1) */\n      dup7\n      mul\n        /* \"https://github.com/chiru-labs/ERC721A/blob/main/contracts/ERC721A.sol\":31704:31775  _packedAddressData[to] += quantity * ((1 << _BITPOS_NUMBER_MINTED) | 1) */\n      add\n      swap1\n      sstore\n        /* \"https://github.com/chiru-labs/ERC721A/blob/main/contracts/ERC721A.sol\":17320:17348  and(owner, _BITMASK_ADDRESS) */\n      swap1\n        /* \"https://github.com/chiru-labs/ERC721A/blob/main/contracts/ERC721A.sol\":31960:31973  toMasked == 0 */\n      dup2\n      swap1\n      sub\n        /* \"https://github.com/chiru-labs/ERC721A/blob/main/contracts/ERC721A.sol\":31956:32010  if (toMasked == 0) _revert(MintToZeroAddress.selector) */\n      tag_344\n      jumpi\n        /* \"https://github.com/chiru-labs/ERC721A/blob/main/contracts/ERC721A.sol\":31975:32010  _revert(MintToZeroAddress.selector) */\n      tag_344\n        /* \"https://github.com/chiru-labs/ERC721A/blob/main/contracts/ERC721A.sol\":31983:32009  MintToZeroAddress.selector */\n      0x2e07630000000000000000000000000000000000000000000000000000000000\n        /* \"https://github.com/chiru-labs/ERC721A/blob/main/contracts/ERC721A.sol\":31975:31982  _revert */\n      tag_137\n        /* \"https://github.com/chiru-labs/ERC721A/blob/main/contracts/ERC721A.sol\":31975:32010  _revert(MintToZeroAddress.selector) */\n      jump\t// in\n    tag_344:\n        /* \"https://github.com/chiru-labs/ERC721A/blob/main/contracts/ERC721A.sol\":32039:32062  startTokenId + quantity */\n      dup2\n      dup4\n      add\n      dup3\n        /* \"https://github.com/chiru-labs/ERC721A/blob/main/contracts/ERC721A.sol\":32213:32875  do {... */\n    tag_348:\n        /* \"https://github.com/chiru-labs/ERC721A/blob/main/contracts/ERC721A.sol\":32623:32630  tokenId */\n      dup1\n        /* \"https://github.com/chiru-labs/ERC721A/blob/main/contracts/ERC721A.sol\":32580:32588  toMasked */\n      dup4\n        /* \"https://github.com/chiru-labs/ERC721A/blob/main/contracts/ERC721A.sol\":32536:32537  0 */\n      0x00\n        /* \"https://github.com/chiru-labs/ERC721A/blob/main/contracts/ERC721A.sol\":32471:32496  _TRANSFER_EVENT_SIGNATURE */\n      0xddf252ad1be2c89b69c2b068fc378daa952ba7f163c4a11628f55a4df523b3ef\n        /* \"https://github.com/chiru-labs/ERC721A/blob/main/contracts/ERC721A.sol\":32409:32410  0 */\n      0x00\n        /* \"https://github.com/chiru-labs/ERC721A/blob/main/contracts/ERC721A.sol\":32345:32346  0 */\n      dup1\n        /* \"https://github.com/chiru-labs/ERC721A/blob/main/contracts/ERC721A.sol\":32315:32666  log4(... */\n      log4\n        /* \"https://github.com/chiru-labs/ERC721A/blob/main/contracts/ERC721A.sol\":32870:32873  end */\n      dup2\n        /* \"https://github.com/chiru-labs/ERC721A/blob/main/contracts/ERC721A.sol\":32857:32866  ++tokenId */\n      dup2\n      0x01\n      add\n      swap2\n      pop\n      dup2\n        /* \"https://github.com/chiru-labs/ERC721A/blob/main/contracts/ERC721A.sol\":32857:32873  ++tokenId != end */\n      sub\n        /* \"https://github.com/chiru-labs/ERC721A/blob/main/contracts/ERC721A.sol\":32213:32875  do {... */\n      tag_348\n      jumpi\n      pop\n        /* \"https://github.com/chiru-labs/ERC721A/blob/main/contracts/ERC721A.sol\":32889:32902  _currentIndex */\n      0x00\n        /* \"https://github.com/chiru-labs/ERC721A/blob/main/contracts/ERC721A.sol\":32889:32908  _currentIndex = end */\n      sstore\n      pop\n        /* \"https://github.com/chiru-labs/ERC721A/blob/main/contracts/ERC721A.sol\":26334:26521  function safeTransferFrom(... */\n      pop\n      pop\n      pop\n      jump\t// out\n        /* \"#utility.yul\":14:191   */\n    tag_353:\n      not(sub(shl(0xe0, 0x01), 0x01))\n        /* \"#utility.yul\":92:97   */\n      dup2\n        /* \"#utility.yul\":88:166   */\n      and\n        /* \"#utility.yul\":81:86   */\n      dup2\n        /* \"#utility.yul\":78:167   */\n      eq\n        /* \"#utility.yul\":68:185   */\n      tag_296\n      jumpi\n        /* \"#utility.yul\":181:182   */\n      0x00\n        /* \"#utility.yul\":178:179   */\n      dup1\n        /* \"#utility.yul\":171:183   */\n      revert\n        /* \"#utility.yul\":196:441   */\n    tag_30:\n        /* \"#utility.yul\":254:260   */\n      0x00\n        /* \"#utility.yul\":307:309   */\n      0x20\n        /* \"#utility.yul\":295:304   */\n      dup3\n        /* \"#utility.yul\":286:293   */\n      dup5\n        /* \"#utility.yul\":282:305   */\n      sub\n        /* \"#utility.yul\":278:310   */\n      slt\n        /* \"#utility.yul\":275:327   */\n      iszero\n      tag_362\n      jumpi\n        /* \"#utility.yul\":323:324   */\n      0x00\n        /* \"#utility.yul\":320:321   */\n      dup1\n        /* \"#utility.yul\":313:325   */\n      revert\n        /* \"#utility.yul\":275:327   */\n    tag_362:\n        /* \"#utility.yul\":362:371   */\n      dup2\n        /* \"#utility.yul\":349:372   */\n      calldataload\n        /* \"#utility.yul\":381:411   */\n      tag_228\n        /* \"#utility.yul\":405:410   */\n      dup2\n        /* \"#utility.yul\":381:411   */\n      tag_353\n      jump\t// in\n        /* \"#utility.yul\":638:938   */\n    tag_354:\n        /* \"#utility.yul\":691:694   */\n      0x00\n        /* \"#utility.yul\":729:734   */\n      dup2\n        /* \"#utility.yul\":723:735   */\n      mload\n        /* \"#utility.yul\":756:762   */\n      dup1\n        /* \"#utility.yul\":751:754   */\n      dup5\n        /* \"#utility.yul\":744:763   */\n      mstore\n        /* \"#utility.yul\":812:818   */\n      dup1\n        /* \"#utility.yul\":805:809   */\n      0x20\n        /* \"#utility.yul\":798:803   */\n      dup5\n        /* \"#utility.yul\":794:810   */\n      add\n        /* \"#utility.yul\":787:791   */\n      0x20\n        /* \"#utility.yul\":782:785   */\n      dup7\n        /* \"#utility.yul\":778:792   */\n      add\n        /* \"#utility.yul\":772:819   */\n      mcopy\n        /* \"#utility.yul\":864:865   */\n      0x00\n        /* \"#utility.yul\":857:861   */\n      0x20\n        /* \"#utility.yul\":848:854   */\n      dup3\n        /* \"#utility.yul\":843:846   */\n      dup7\n        /* \"#utility.yul\":839:855   */\n      add\n        /* \"#utility.yul\":835:862   */\n      add\n        /* \"#utility.yul\":828:866   */\n      mstore\n        /* \"#utility.yul\":927:931   */\n      0x20\n        /* \"#utility.yul\":920:922   */\n      0x1f\n        /* \"#utility.yul\":916:923   */\n      not\n        /* \"#utility.yul\":911:913   */\n      0x1f\n        /* \"#utility.yul\":903:909   */\n      dup4\n        /* \"#utility.yul\":899:914   */\n      add\n        /* \"#utility.yul\":895:924   */\n      and\n        /* \"#utility.yul\":890:893   */\n      dup6\n        /* \"#utility.yul\":886:925   */\n      add\n        /* \"#utility.yul\":882:932   */\n      add\n        /* \"#utility.yul\":875:932   */\n      swap2\n      pop\n      pop\n        /* \"#utility.yul\":638:938   */\n      swap3\n      swap2\n      pop\n      pop\n      jump\t// out\n        /* \"#utility.yul\":943:1174   */\n    tag_38:\n        /* \"#utility.yul\":1092:1094   */\n      0x20\n        /* \"#utility.yul\":1081:1090   */\n      dup2\n        /* \"#utility.yul\":1074:1095   */\n      mstore\n        /* \"#utility.yul\":1055:1059   */\n      0x00\n        /* \"#utility.yul\":1112:1168   */\n      tag_228\n        /* \"#utility.yul\":1164:1166   */\n      0x20\n        /* \"#utility.yul\":1153:1162   */\n      dup4\n        /* \"#utility.yul\":1149:1167   */\n      add\n        /* \"#utility.yul\":1141:1147   */\n      dup5\n        /* \"#utility.yul\":1112:1168   */\n      tag_354\n      jump\t// in\n        /* \"#utility.yul\":1179:1359   */\n    tag_42:\n        /* \"#utility.yul\":1238:1244   */\n      0x00\n        /* \"#utility.yul\":1291:1293   */\n      0x20\n        /* \"#utility.yul\":1279:1288   */\n      dup3\n        /* \"#utility.yul\":1270:1277   */\n      dup5\n        /* \"#utility.yul\":1266:1289   */\n      sub\n        /* \"#utility.yul\":1262:1294   */\n      slt\n        /* \"#utility.yul\":1259:1311   */\n      iszero\n      tag_369\n      jumpi\n        /* \"#utility.yul\":1307:1308   */\n      0x00\n        /* \"#utility.yul\":1304:1305   */\n      dup1\n        /* \"#utility.yul\":1297:1309   */\n      revert\n        /* \"#utility.yul\":1259:1311   */\n    tag_369:\n      pop\n        /* \"#utility.yul\":1330:1353   */\n      calldataload\n      swap2\n        /* \"#utility.yul\":1179:1359   */\n      swap1\n      pop\n      jump\t// out\n        /* \"#utility.yul\":1595:1791   */\n    tag_355:\n        /* \"#utility.yul\":1663:1683   */\n      dup1\n      calldataload\n      sub(shl(0xa0, 0x01), 0x01)\n        /* \"#utility.yul\":1712:1766   */\n      dup2\n      and\n        /* \"#utility.yul\":1702:1767   */\n      dup2\n      eq\n        /* \"#utility.yul\":1692:1785   */\n      tag_245\n      jumpi\n        /* \"#utility.yul\":1781:1782   */\n      0x00\n        /* \"#utility.yul\":1778:1779   */\n      dup1\n        /* \"#utility.yul\":1771:1783   */\n      revert\n        /* \"#utility.yul\":1796:2050   */\n    tag_48:\n        /* \"#utility.yul\":1864:1870   */\n      0x00\n        /* \"#utility.yul\":1872:1878   */\n      dup1\n        /* \"#utility.yul\":1925:1927   */\n      0x40\n        /* \"#utility.yul\":1913:1922   */\n      dup4\n        /* \"#utility.yul\":1904:1911   */\n      dup6\n        /* \"#utility.yul\":1900:1923   */\n      sub\n        /* \"#utility.yul\":1896:1928   */\n      slt\n        /* \"#utility.yul\":1893:1945   */\n      iszero\n      tag_374\n      jumpi\n        /* \"#utility.yul\":1941:1942   */\n      0x00\n        /* \"#utility.yul\":1938:1939   */\n      dup1\n        /* \"#utility.yul\":1931:1943   */\n      revert\n        /* \"#utility.yul\":1893:1945   */\n    tag_374:\n        /* \"#utility.yul\":1964:1993   */\n      tag_375\n        /* \"#utility.yul\":1983:1992   */\n      dup4\n        /* \"#utility.yul\":1964:1993   */\n      tag_355\n      jump\t// in\n    tag_375:\n        /* \"#utility.yul\":1954:1993   */\n      swap5\n        /* \"#utility.yul\":2040:2042   */\n      0x20\n        /* \"#utility.yul\":2025:2043   */\n      swap4\n      swap1\n      swap4\n      add\n        /* \"#utility.yul\":2012:2044   */\n      calldataload\n      swap4\n      pop\n      pop\n      pop\n        /* \"#utility.yul\":1796:2050   */\n      jump\t// out\n        /* \"#utility.yul\":2237:2565   */\n    tag_57:\n        /* \"#utility.yul\":2314:2320   */\n      0x00\n        /* \"#utility.yul\":2322:2328   */\n      dup1\n        /* \"#utility.yul\":2330:2336   */\n      0x00\n        /* \"#utility.yul\":2383:2385   */\n      0x60\n        /* \"#utility.yul\":2371:2380   */\n      dup5\n        /* \"#utility.yul\":2362:2369   */\n      dup7\n        /* \"#utility.yul\":2358:2381   */\n      sub\n        /* \"#utility.yul\":2354:2386   */\n      slt\n        /* \"#utility.yul\":2351:2403   */\n      iszero\n      tag_378\n      jumpi\n        /* \"#utility.yul\":2399:2400   */\n      0x00\n        /* \"#utility.yul\":2396:2397   */\n      dup1\n        /* \"#utility.yul\":2389:2401   */\n      revert\n        /* \"#utility.yul\":2351:2403   */\n    tag_378:\n        /* \"#utility.yul\":2422:2451   */\n      tag_379\n        /* \"#utility.yul\":2441:2450   */\n      dup5\n        /* \"#utility.yul\":2422:2451   */\n      tag_355\n      jump\t// in\n    tag_379:\n        /* \"#utility.yul\":2412:2451   */\n      swap3\n      pop\n        /* \"#utility.yul\":2470:2508   */\n      tag_380\n        /* \"#utility.yul\":2504:2506   */\n      0x20\n        /* \"#utility.yul\":2493:2502   */\n      dup6\n        /* \"#utility.yul\":2489:2507   */\n      add\n        /* \"#utility.yul\":2470:2508   */\n      tag_355\n      jump\t// in\n    tag_380:\n        /* \"#utility.yul\":2460:2508   */\n      swap2\n      pop\n        /* \"#utility.yul\":2555:2557   */\n      0x40\n        /* \"#utility.yul\":2544:2553   */\n      dup5\n        /* \"#utility.yul\":2540:2558   */\n      add\n        /* \"#utility.yul\":2527:2559   */\n      calldataload\n        /* \"#utility.yul\":2517:2559   */\n      swap1\n      pop\n        /* \"#utility.yul\":2237:2565   */\n      swap3\n      pop\n      swap3\n      pop\n      swap3\n      jump\t// out\n        /* \"#utility.yul\":2570:2756   */\n    tag_78:\n        /* \"#utility.yul\":2629:2635   */\n      0x00\n        /* \"#utility.yul\":2682:2684   */\n      0x20\n        /* \"#utility.yul\":2670:2679   */\n      dup3\n        /* \"#utility.yul\":2661:2668   */\n      dup5\n        /* \"#utility.yul\":2657:2680   */\n      sub\n        /* \"#utility.yul\":2653:2685   */\n      slt\n        /* \"#utility.yul\":2650:2702   */\n      iszero\n      tag_382\n      jumpi\n        /* \"#utility.yul\":2698:2699   */\n      0x00\n        /* \"#utility.yul\":2695:2696   */\n      dup1\n        /* \"#utility.yul\":2688:2700   */\n      revert\n        /* \"#utility.yul\":2650:2702   */\n    tag_382:\n        /* \"#utility.yul\":2721:2750   */\n      tag_228\n        /* \"#utility.yul\":2740:2749   */\n      dup3\n        /* \"#utility.yul\":2721:2750   */\n      tag_355\n      jump\t// in\n        /* \"#utility.yul\":2761:3108   */\n    tag_88:\n        /* \"#utility.yul\":2826:2832   */\n      0x00\n        /* \"#utility.yul\":2834:2840   */\n      dup1\n        /* \"#utility.yul\":2887:2889   */\n      0x40\n        /* \"#utility.yul\":2875:2884   */\n      dup4\n        /* \"#utility.yul\":2866:2873   */\n      dup6\n        /* \"#utility.yul\":2862:2885   */\n      sub\n        /* \"#utility.yul\":2858:2890   */\n      slt\n        /* \"#utility.yul\":2855:2907   */\n      iszero\n      tag_385\n      jumpi\n        /* \"#utility.yul\":2903:2904   */\n      0x00\n        /* \"#utility.yul\":2900:2901   */\n      dup1\n        /* \"#utility.yul\":2893:2905   */\n      revert\n        /* \"#utility.yul\":2855:2907   */\n    tag_385:\n        /* \"#utility.yul\":2926:2955   */\n      tag_386\n        /* \"#utility.yul\":2945:2954   */\n      dup4\n        /* \"#utility.yul\":2926:2955   */\n      tag_355\n      jump\t// in\n    tag_386:\n        /* \"#utility.yul\":2916:2955   */\n      swap2\n      pop\n        /* \"#utility.yul\":3005:3007   */\n      0x20\n        /* \"#utility.yul\":2994:3003   */\n      dup4\n        /* \"#utility.yul\":2990:3008   */\n      add\n        /* \"#utility.yul\":2977:3009   */\n      calldataload\n        /* \"#utility.yul\":3052:3057   */\n      dup1\n        /* \"#utility.yul\":3045:3058   */\n      iszero\n        /* \"#utility.yul\":3038:3059   */\n      iszero\n        /* \"#utility.yul\":3031:3036   */\n      dup2\n        /* \"#utility.yul\":3028:3060   */\n      eq\n        /* \"#utility.yul\":3018:3078   */\n      tag_387\n      jumpi\n        /* \"#utility.yul\":3074:3075   */\n      0x00\n        /* \"#utility.yul\":3071:3072   */\n      dup1\n        /* \"#utility.yul\":3064:3076   */\n      revert\n        /* \"#utility.yul\":3018:3078   */\n    tag_387:\n        /* \"#utility.yul\":3097:3102   */\n      dup1\n        /* \"#utility.yul\":3087:3102   */\n      swap2\n      pop\n      pop\n        /* \"#utility.yul\":2761:3108   */\n      swap3\n      pop\n      swap3\n      swap1\n      pop\n      jump\t// out\n        /* \"#utility.yul\":3113:3361   */\n    tag_93:\n        /* \"#utility.yul\":3181:3187   */\n      0x00\n        /* \"#utility.yul\":3189:3195   */\n      dup1\n        /* \"#utility.yul\":3242:3244   */\n      0x40\n        /* \"#utility.yul\":3230:3239   */\n      dup4\n        /* \"#utility.yul\":3221:3228   */\n      dup6\n        /* \"#utility.yul\":3217:3240   */\n      sub\n        /* \"#utility.yul\":3213:3245   */\n      slt\n        /* \"#utility.yul\":3210:3262   */\n      iszero\n      tag_389\n      jumpi\n        /* \"#utility.yul\":3258:3259   */\n      0x00\n        /* \"#utility.yul\":3255:3256   */\n      dup1\n        /* \"#utility.yul\":3248:3260   */\n      revert\n        /* \"#utility.yul\":3210:3262   */\n    tag_389:\n      pop\n      pop\n        /* \"#utility.yul\":3281:3304   */\n      dup1\n      calldataload\n      swap3\n        /* \"#utility.yul\":3351:3353   */\n      0x20\n        /* \"#utility.yul\":3336:3354   */\n      swap1\n      swap2\n      add\n        /* \"#utility.yul\":3323:3355   */\n      calldataload\n      swap2\n      pop\n        /* \"#utility.yul\":3113:3361   */\n      jump\t// out\n        /* \"#utility.yul\":3366:3550   */\n    tag_356:\n      shl(0xe0, 0x4e487b71)\n        /* \"#utility.yul\":3415:3416   */\n      0x00\n        /* \"#utility.yul\":3408:3496   */\n      mstore\n        /* \"#utility.yul\":3515:3519   */\n      0x41\n        /* \"#utility.yul\":3512:3513   */\n      0x04\n        /* \"#utility.yul\":3505:3520   */\n      mstore\n        /* \"#utility.yul\":3539:3543   */\n      0x24\n        /* \"#utility.yul\":3536:3537   */\n      0x00\n        /* \"#utility.yul\":3529:3544   */\n      revert\n        /* \"#utility.yul\":3555:4693   */\n    tag_97:\n        /* \"#utility.yul\":3650:3656   */\n      0x00\n        /* \"#utility.yul\":3658:3664   */\n      dup1\n        /* \"#utility.yul\":3666:3672   */\n      0x00\n        /* \"#utility.yul\":3674:3680   */\n      dup1\n        /* \"#utility.yul\":3727:3730   */\n      0x80\n        /* \"#utility.yul\":3715:3724   */\n      dup6\n        /* \"#utility.yul\":3706:3713   */\n      dup8\n        /* \"#utility.yul\":3702:3725   */\n      sub\n        /* \"#utility.yul\":3698:3731   */\n      slt\n        /* \"#utility.yul\":3695:3748   */\n      iszero\n      tag_392\n      jumpi\n        /* \"#utility.yul\":3744:3745   */\n      0x00\n        /* \"#utility.yul\":3741:3742   */\n      dup1\n        /* \"#utility.yul\":3734:3746   */\n      revert\n        /* \"#utility.yul\":3695:3748   */\n    tag_392:\n        /* \"#utility.yul\":3767:3796   */\n      tag_393\n        /* \"#utility.yul\":3786:3795   */\n      dup6\n        /* \"#utility.yul\":3767:3796   */\n      tag_355\n      jump\t// in\n    tag_393:\n        /* \"#utility.yul\":3757:3796   */\n      swap4\n      pop\n        /* \"#utility.yul\":3815:3853   */\n      tag_394\n        /* \"#utility.yul\":3849:3851   */\n      0x20\n        /* \"#utility.yul\":3838:3847   */\n      dup7\n        /* \"#utility.yul\":3834:3852   */\n      add\n        /* \"#utility.yul\":3815:3853   */\n      tag_355\n      jump\t// in\n    tag_394:\n        /* \"#utility.yul\":3805:3853   */\n      swap3\n      pop\n        /* \"#utility.yul\":3900:3902   */\n      0x40\n        /* \"#utility.yul\":3889:3898   */\n      dup6\n        /* \"#utility.yul\":3885:3903   */\n      add\n        /* \"#utility.yul\":3872:3904   */\n      calldataload\n        /* \"#utility.yul\":3862:3904   */\n      swap2\n      pop\n        /* \"#utility.yul\":3955:3957   */\n      0x60\n        /* \"#utility.yul\":3944:3953   */\n      dup6\n        /* \"#utility.yul\":3940:3958   */\n      add\n        /* \"#utility.yul\":3927:3959   */\n      calldataload\n        /* \"#utility.yul\":3978:3996   */\n      0xffffffffffffffff\n        /* \"#utility.yul\":4019:4021   */\n      dup1\n        /* \"#utility.yul\":4011:4017   */\n      dup3\n        /* \"#utility.yul\":4008:4022   */\n      gt\n        /* \"#utility.yul\":4005:4039   */\n      iszero\n      tag_395\n      jumpi\n        /* \"#utility.yul\":4035:4036   */\n      0x00\n        /* \"#utility.yul\":4032:4033   */\n      dup1\n        /* \"#utility.yul\":4025:4037   */\n      revert\n        /* \"#utility.yul\":4005:4039   */\n    tag_395:\n        /* \"#utility.yul\":4073:4079   */\n      dup2\n        /* \"#utility.yul\":4062:4071   */\n      dup8\n        /* \"#utility.yul\":4058:4080   */\n      add\n        /* \"#utility.yul\":4048:4080   */\n      swap2\n      pop\n        /* \"#utility.yul\":4118:4125   */\n      dup8\n        /* \"#utility.yul\":4111:4115   */\n      0x1f\n        /* \"#utility.yul\":4107:4109   */\n      dup4\n        /* \"#utility.yul\":4103:4116   */\n      add\n        /* \"#utility.yul\":4099:4126   */\n      slt\n        /* \"#utility.yul\":4089:4144   */\n      tag_396\n      jumpi\n        /* \"#utility.yul\":4140:4141   */\n      0x00\n        /* \"#utility.yul\":4137:4138   */\n      dup1\n        /* \"#utility.yul\":4130:4142   */\n      revert\n        /* \"#utility.yul\":4089:4144   */\n    tag_396:\n        /* \"#utility.yul\":4176:4178   */\n      dup2\n        /* \"#utility.yul\":4163:4179   */\n      calldataload\n        /* \"#utility.yul\":4198:4200   */\n      dup2\n        /* \"#utility.yul\":4194:4196   */\n      dup2\n        /* \"#utility.yul\":4191:4201   */\n      gt\n        /* \"#utility.yul\":4188:4224   */\n      iszero\n      tag_398\n      jumpi\n        /* \"#utility.yul\":4204:4222   */\n      tag_398\n      tag_356\n      jump\t// in\n    tag_398:\n        /* \"#utility.yul\":4279:4281   */\n      0x40\n        /* \"#utility.yul\":4273:4282   */\n      mload\n        /* \"#utility.yul\":4247:4249   */\n      0x1f\n        /* \"#utility.yul\":4333:4346   */\n      dup3\n      add\n      not(0x1f)\n        /* \"#utility.yul\":4329:4351   */\n      swap1\n      dup2\n      and\n        /* \"#utility.yul\":4353:4355   */\n      0x3f\n        /* \"#utility.yul\":4325:4356   */\n      add\n        /* \"#utility.yul\":4321:4361   */\n      and\n        /* \"#utility.yul\":4309:4362   */\n      dup2\n      add\n      swap1\n        /* \"#utility.yul\":4377:4395   */\n      dup4\n      dup3\n      gt\n        /* \"#utility.yul\":4397:4419   */\n      dup2\n      dup4\n      lt\n        /* \"#utility.yul\":4374:4420   */\n      or\n        /* \"#utility.yul\":4371:4443   */\n      iszero\n      tag_400\n      jumpi\n        /* \"#utility.yul\":4423:4441   */\n      tag_400\n      tag_356\n      jump\t// in\n    tag_400:\n        /* \"#utility.yul\":4463:4473   */\n      dup2\n        /* \"#utility.yul\":4459:4461   */\n      0x40\n        /* \"#utility.yul\":4452:4474   */\n      mstore\n        /* \"#utility.yul\":4498:4500   */\n      dup3\n        /* \"#utility.yul\":4490:4496   */\n      dup2\n        /* \"#utility.yul\":4483:4501   */\n      mstore\n        /* \"#utility.yul\":4538:4545   */\n      dup11\n        /* \"#utility.yul\":4533:4535   */\n      0x20\n        /* \"#utility.yul\":4528:4530   */\n      dup5\n        /* \"#utility.yul\":4524:4526   */\n      dup8\n        /* \"#utility.yul\":4520:4531   */\n      add\n        /* \"#utility.yul\":4516:4536   */\n      add\n        /* \"#utility.yul\":4513:4546   */\n      gt\n        /* \"#utility.yul\":4510:4563   */\n      iszero\n      tag_401\n      jumpi\n        /* \"#utility.yul\":4559:4560   */\n      0x00\n        /* \"#utility.yul\":4556:4557   */\n      dup1\n        /* \"#utility.yul\":4549:4561   */\n      revert\n        /* \"#utility.yul\":4510:4563   */\n    tag_401:\n        /* \"#utility.yul\":4615:4617   */\n      dup3\n        /* \"#utility.yul\":4610:4612   */\n      0x20\n        /* \"#utility.yul\":4606:4608   */\n      dup7\n        /* \"#utility.yul\":4602:4613   */\n      add\n        /* \"#utility.yul\":4597:4599   */\n      0x20\n        /* \"#utility.yul\":4589:4595   */\n      dup4\n        /* \"#utility.yul\":4585:4600   */\n      add\n        /* \"#utility.yul\":4572:4618   */\n      calldatacopy\n        /* \"#utility.yul\":4660:4661   */\n      0x00\n        /* \"#utility.yul\":4655:4657   */\n      0x20\n        /* \"#utility.yul\":4650:4652   */\n      dup5\n        /* \"#utility.yul\":4642:4648   */\n      dup4\n        /* \"#utility.yul\":4638:4653   */\n      add\n        /* \"#utility.yul\":4634:4658   */\n      add\n        /* \"#utility.yul\":4627:4662   */\n      mstore\n        /* \"#utility.yul\":4681:4687   */\n      dup1\n        /* \"#utility.yul\":4671:4687   */\n      swap6\n      pop\n      pop\n      pop\n      pop\n      pop\n      pop\n        /* \"#utility.yul\":3555:4693   */\n      swap3\n      swap6\n      swap2\n      swap5\n      pop\n      swap3\n      pop\n      jump\t// out\n        /* \"#utility.yul\":4698:4958   */\n    tag_107:\n        /* \"#utility.yul\":4766:4772   */\n      0x00\n        /* \"#utility.yul\":4774:4780   */\n      dup1\n        /* \"#utility.yul\":4827:4829   */\n      0x40\n        /* \"#utility.yul\":4815:4824   */\n      dup4\n        /* \"#utility.yul\":4806:4813   */\n      dup6\n        /* \"#utility.yul\":4802:4825   */\n      sub\n        /* \"#utility.yul\":4798:4830   */\n      slt\n        /* \"#utility.yul\":4795:4847   */\n      iszero\n      tag_403\n      jumpi\n        /* \"#utility.yul\":4843:4844   */\n      0x00\n        /* \"#utility.yul\":4840:4841   */\n      dup1\n        /* \"#utility.yul\":4833:4845   */\n      revert\n        /* \"#utility.yul\":4795:4847   */\n    tag_403:\n        /* \"#utility.yul\":4866:4895   */\n      tag_404\n        /* \"#utility.yul\":4885:4894   */\n      dup4\n        /* \"#utility.yul\":4866:4895   */\n      tag_355\n      jump\t// in\n    tag_404:\n        /* \"#utility.yul\":4856:4895   */\n      swap2\n      pop\n        /* \"#utility.yul\":4914:4952   */\n      tag_405\n        /* \"#utility.yul\":4948:4950   */\n      0x20\n        /* \"#utility.yul\":4937:4946   */\n      dup5\n        /* \"#utility.yul\":4933:4951   */\n      add\n        /* \"#utility.yul\":4914:4952   */\n      tag_355\n      jump\t// in\n    tag_405:\n        /* \"#utility.yul\":4904:4952   */\n      swap1\n      pop\n        /* \"#utility.yul\":4698:4958   */\n      swap3\n      pop\n      swap3\n      swap1\n      pop\n      jump\t// out\n        /* \"#utility.yul\":5692:6129   */\n    tag_127:\n        /* \"#utility.yul\":5771:5772   */\n      0x01\n        /* \"#utility.yul\":5767:5779   */\n      dup2\n      dup2\n      shr\n      swap1\n        /* \"#utility.yul\":5814:5826   */\n      dup3\n      and\n      dup1\n        /* \"#utility.yul\":5835:5896   */\n      tag_409\n      jumpi\n        /* \"#utility.yul\":5889:5893   */\n      0x7f\n        /* \"#utility.yul\":5881:5887   */\n      dup3\n        /* \"#utility.yul\":5877:5894   */\n      and\n        /* \"#utility.yul\":5867:5894   */\n      swap2\n      pop\n        /* \"#utility.yul\":5835:5896   */\n    tag_409:\n        /* \"#utility.yul\":5942:5944   */\n      0x20\n        /* \"#utility.yul\":5934:5940   */\n      dup3\n        /* \"#utility.yul\":5931:5945   */\n      lt\n        /* \"#utility.yul\":5911:5929   */\n      dup2\n        /* \"#utility.yul\":5908:5946   */\n      sub\n        /* \"#utility.yul\":5905:6123   */\n      tag_410\n      jumpi\n      shl(0xe0, 0x4e487b71)\n        /* \"#utility.yul\":5976:5977   */\n      0x00\n        /* \"#utility.yul\":5969:6057   */\n      mstore\n        /* \"#utility.yul\":6080:6084   */\n      0x22\n        /* \"#utility.yul\":6077:6078   */\n      0x04\n        /* \"#utility.yul\":6070:6085   */\n      mstore\n        /* \"#utility.yul\":6108:6112   */\n      0x24\n        /* \"#utility.yul\":6105:6106   */\n      0x00\n        /* \"#utility.yul\":6098:6113   */\n      revert\n        /* \"#utility.yul\":5905:6123   */\n    tag_410:\n      pop\n        /* \"#utility.yul\":5692:6129   */\n      swap2\n      swap1\n      pop\n      jump\t// out\n        /* \"#utility.yul\":6134:6346   */\n    tag_357:\n        /* \"#utility.yul\":6176:6179   */\n      0x00\n        /* \"#utility.yul\":6214:6219   */\n      dup2\n        /* \"#utility.yul\":6208:6220   */\n      mload\n        /* \"#utility.yul\":6258:6264   */\n      dup1\n        /* \"#utility.yul\":6251:6255   */\n      0x20\n        /* \"#utility.yul\":6244:6249   */\n      dup5\n        /* \"#utility.yul\":6240:6256   */\n      add\n        /* \"#utility.yul\":6235:6238   */\n      dup6\n        /* \"#utility.yul\":6229:6265   */\n      mcopy\n        /* \"#utility.yul\":6320:6321   */\n      0x00\n        /* \"#utility.yul\":6284:6300   */\n      swap4\n      add\n        /* \"#utility.yul\":6309:6322   */\n      swap3\n      dup4\n      mstore\n      pop\n        /* \"#utility.yul\":6284:6300   */\n      swap1\n      swap2\n        /* \"#utility.yul\":6134:6346   */\n      swap1\n      pop\n      jump\t// out\n        /* \"#utility.yul\":6351:6618   */\n    tag_232:\n        /* \"#utility.yul\":6530:6533   */\n      0x00\n        /* \"#utility.yul\":6555:6612   */\n      tag_315\n        /* \"#utility.yul\":6581:6611   */\n      tag_414\n        /* \"#utility.yul\":6607:6610   */\n      dup4\n        /* \"#utility.yul\":6599:6605   */\n      dup7\n        /* \"#utility.yul\":6581:6611   */\n      tag_357\n      jump\t// in\n    tag_414:\n        /* \"#utility.yul\":6573:6579   */\n      dup5\n        /* \"#utility.yul\":6555:6612   */\n      tag_357\n      jump\t// in\n        /* \"#utility.yul\":6623:6913   */\n    tag_249:\n        /* \"#utility.yul\":6662:6665   */\n      0x00\n        /* \"#utility.yul\":6690:6695   */\n      dup2\n        /* \"#utility.yul\":6680:6873   */\n      tag_416\n      jumpi\n      shl(0xe0, 0x4e487b71)\n        /* \"#utility.yul\":6726:6727   */\n      0x00\n        /* \"#utility.yul\":6719:6807   */\n      mstore\n        /* \"#utility.yul\":6830:6834   */\n      0x11\n        /* \"#utility.yul\":6827:6828   */\n      0x04\n        /* \"#utility.yul\":6820:6835   */\n      mstore\n        /* \"#utility.yul\":6858:6862   */\n      0x24\n        /* \"#utility.yul\":6855:6856   */\n      0x00\n        /* \"#utility.yul\":6848:6863   */\n      revert\n        /* \"#utility.yul\":6680:6873   */\n    tag_416:\n      pop\n      not(0x00)\n        /* \"#utility.yul\":6889:6907   */\n      add\n      swap1\n        /* \"#utility.yul\":6623:6913   */\n      jump\t// out\n        /* \"#utility.yul\":6918:7441   */\n    tag_303:\n        /* \"#utility.yul\":7112:7116   */\n      0x00\n      sub(shl(0xa0, 0x01), 0x01)\n        /* \"#utility.yul\":7222:7224   */\n      dup1\n        /* \"#utility.yul\":7214:7220   */\n      dup8\n        /* \"#utility.yul\":7210:7225   */\n      and\n        /* \"#utility.yul\":7199:7208   */\n      dup4\n        /* \"#utility.yul\":7192:7226   */\n      mstore\n        /* \"#utility.yul\":7274:7276   */\n      dup1\n        /* \"#utility.yul\":7266:7272   */\n      dup7\n        /* \"#utility.yul\":7262:7277   */\n      and\n        /* \"#utility.yul\":7257:7259   */\n      0x20\n        /* \"#utility.yul\":7246:7255   */\n      dup5\n        /* \"#utility.yul\":7242:7260   */\n      add\n        /* \"#utility.yul\":7235:7278   */\n      mstore\n      pop\n        /* \"#utility.yul\":7314:7320   */\n      dup4\n        /* \"#utility.yul\":7309:7311   */\n      0x40\n        /* \"#utility.yul\":7298:7307   */\n      dup4\n        /* \"#utility.yul\":7294:7312   */\n      add\n        /* \"#utility.yul\":7287:7321   */\n      mstore\n        /* \"#utility.yul\":7357:7360   */\n      0x80\n        /* \"#utility.yul\":7352:7354   */\n      0x60\n        /* \"#utility.yul\":7341:7350   */\n      dup4\n        /* \"#utility.yul\":7337:7355   */\n      add\n        /* \"#utility.yul\":7330:7361   */\n      mstore\n        /* \"#utility.yul\":7378:7435   */\n      tag_418\n        /* \"#utility.yul\":7430:7433   */\n      0x80\n        /* \"#utility.yul\":7419:7428   */\n      dup4\n        /* \"#utility.yul\":7415:7434   */\n      add\n        /* \"#utility.yul\":7407:7413   */\n      dup5\n        /* \"#utility.yul\":7378:7435   */\n      tag_354\n      jump\t// in\n    tag_418:\n        /* \"#utility.yul\":7370:7435   */\n      swap7\n        /* \"#utility.yul\":6918:7441   */\n      swap6\n      pop\n      pop\n      pop\n      pop\n      pop\n      pop\n      jump\t// out\n        /* \"#utility.yul\":7446:7695   */\n    tag_306:\n        /* \"#utility.yul\":7515:7521   */\n      0x00\n        /* \"#utility.yul\":7568:7570   */\n      0x20\n        /* \"#utility.yul\":7556:7565   */\n      dup3\n        /* \"#utility.yul\":7547:7554   */\n      dup5\n        /* \"#utility.yul\":7543:7566   */\n      sub\n        /* \"#utility.yul\":7539:7571   */\n      slt\n        /* \"#utility.yul\":7536:7588   */\n      iszero\n      tag_420\n      jumpi\n        /* \"#utility.yul\":7584:7585   */\n      0x00\n        /* \"#utility.yul\":7581:7582   */\n      dup1\n        /* \"#utility.yul\":7574:7586   */\n      revert\n        /* \"#utility.yul\":7536:7588   */\n    tag_420:\n        /* \"#utility.yul\":7616:7625   */\n      dup2\n        /* \"#utility.yul\":7610:7626   */\n      mload\n        /* \"#utility.yul\":7635:7665   */\n      tag_228\n        /* \"#utility.yul\":7659:7664   */\n      dup2\n        /* \"#utility.yul\":7635:7665   */\n      tag_353\n      jump\t// in\n\n    auxdata: 0xa2646970667358221220b468e2bdc02ff23cea636c3af6e7e53d598f09a3c1c305042d0a55531167c71464736f6c63430008190033\n}\n",
				"bytecode": {
					"linkReferences": {},
					"object": "608060405234801561000f575f80fd5b5060405180604001604052806008815260200167446967697475726560c01b815250604051806040016040528060038152602001621111d560ea1b815250816002908161005c9190610111565b5060036100698282610111565b50505f80555060016009556101d0565b634e487b7160e01b5f52604160045260245ffd5b600181811c908216806100a157607f821691505b6020821081036100bf57634e487b7160e01b5f52602260045260245ffd5b50919050565b601f82111561010c57805f5260205f20601f840160051c810160208510156100ea5750805b601f840160051c820191505b81811015610109575f81556001016100f6565b50505b505050565b81516001600160401b0381111561012a5761012a610079565b61013e81610138845461008d565b846100c5565b602080601f831160018114610171575f841561015a5750858301515b5f19600386901b1c1916600185901b1785556101c8565b5f85815260208120601f198616915b8281101561019f57888601518255948401946001909101908401610180565b50858210156101bc57878501515f19600388901b60f8161c191681555b505060018460011b0185555b505050505050565b6113a1806101dd5f395ff3fe60806040526004361061013d575f3560e01c80636352211e116100bb578063b88d4fde11610071578063e985e9c511610057578063e985e9c51461031e578063f052d65a14610365578063fd499a74146103c0575f80fd5b8063b88d4fde146102ec578063c87b56dd146102ff575f80fd5b806395d89b41116100a157806395d89b411461029a578063a22cb465146102ae578063a32ce491146102cd575f80fd5b80636352211e1461025c57806370a082311461027b575f80fd5b806318160ddd116101105780633095fe91116100f65780633095fe91146102165780633beb93271461022a57806342842e0e14610249575f80fd5b806318160ddd146101e257806323b872dd14610203575f80fd5b806301ffc9a71461014157806306fdde0314610175578063081812fc14610196578063095ea7b3146101cd575b5f80fd5b34801561014c575f80fd5b5061016061015b36600461101c565b61040c565b60405190151581526020015b60405180910390f35b348015610180575f80fd5b506101896104a8565b60405161016c9190611065565b3480156101a1575f80fd5b506101b56101b0366004611077565b610538565b6040516001600160a01b03909116815260200161016c565b6101e06101db3660046110a4565b61058a565b005b3480156101ed575f80fd5b506001545f54035b60405190815260200161016c565b6101e06102113660046110cc565b61059a565b348015610221575f80fd5b506009546101f5565b348015610235575f80fd5b506101e0610244366004611077565b610740565b6101e06102573660046110cc565b61080b565b348015610267575f80fd5b506101b5610276366004611077565b61082a565b348015610286575f80fd5b506101f5610295366004611105565b610834565b3480156102a5575f80fd5b50610189610891565b3480156102b9575f80fd5b506101e06102c836600461111e565b6108a0565b3480156102d8575f80fd5b506101e06102e7366004611157565b61090b565b6101e06102fa36600461118b565b6109df565b34801561030a575f80fd5b50610189610319366004611077565b610a20565b348015610329575f80fd5b50610160610338366004611260565b6001600160a01b039182165f90815260076020908152604080832093909416825291909152205460ff1690565b348015610370575f80fd5b5061038461037f366004611077565b610abd565b60405161016c9190815181526020808301516001600160a01b031690820152604080830151908201526060918201519181019190915260800190565b3480156103cb575f80fd5b506103f76103da366004611077565b6fffffffffffffffffffffffffffffffff81169160809190911c90565b6040805192835260208301919091520161016c565b5f7f01ffc9a7000000000000000000000000000000000000000000000000000000006001600160e01b03198316148061046e57507f80ac58cd000000000000000000000000000000000000000000000000000000006001600160e01b03198316145b806104a257507f5b5e139f000000000000000000000000000000000000000000000000000000006001600160e01b03198316145b92915050565b6060600280546104b790611291565b80601f01602080910402602001604051908101604052809291908181526020018280546104e390611291565b801561052e5780601f106105055761010080835404028352916020019161052e565b820191905f5260205f20905b81548152906001019060200180831161051157829003601f168201915b5050505050905090565b5f61054282610b3a565b61056f5761056f7fcf4700e400000000000000000000000000000000000000000000000000000000610b7c565b505f908152600660205260409020546001600160a01b031690565b61059682826001610b84565b5050565b5f6105a482610c4b565b6001600160a01b0394851694909150811684146105e4576105e47fa114810000000000000000000000000000000000000000000000000000000000610b7c565b5f8281526006602052604090208054338082146001600160a01b03881690911417610640576106138633610338565b610640576106407f59c896be00000000000000000000000000000000000000000000000000000000610b7c565b801561064a575f82555b6001600160a01b038681165f9081526005602052604080822080545f19019055918716808252919020805460010190554260a01b17600160e11b175f85815260046020526040812091909155600160e11b841690036106d657600184015f8181526004602052604081205490036106d4575f5481146106d4575f8181526004602052604090208490555b505b6001600160a01b0385168481887fddf252ad1be2c89b69c2b068fc378daa952ba7f163c4a11628f55a4df523b3ef5f80a4805f03610737576107377fea553b3400000000000000000000000000000000000000000000000000000000610b7c565b50505050505050565b6040518060800160405280600954815260200161075a3390565b6001600160a01b03908116825260208083018590525f60409384018190526009548152600a8252839020845181559084015160018201805473ffffffffffffffffffffffffffffffffffffffff191691909316179091559082015160028201556060909101516003909101556107d1336001610cda565b6009546040513391907ffce6b98db3cc5152281e5d3e4c7332adfb0d4b574cc5723dc73792f7624043cc905f90a360016009540160095550565b61082583838360405180602001604052805f8152506109df565b505050565b5f6104a282610c4b565b5f6001600160a01b03821661086c5761086c7f8f4eb60400000000000000000000000000000000000000000000000000000000610b7c565b506001600160a01b03165f9081526005602052604090205467ffffffffffffffff1690565b6060600380546104b790611291565b335f8181526007602090815260408083206001600160a01b03871680855290835292819020805460ff191686151590811790915590519081529192917f17307eab39ab6107e8899845ad3d59bd9653f200f220920489ca2b5937696c31910160405180910390a35050565b8161091581610cf3565b61091e83610d48565b61092782610d48565b5f838152600a60205260408082208483529120600380830154908201546fffffffffffffffffffffffffffffffff808316600190810193608081811c9493841693901c909101907fffffffffffffffffffffffffffffffff0000000000000000000000000000000016841760038701556109a3828260801b1790565b600386015560405188908a907f37fdf7cda6ec1c848e98866fe5e1f781b2b5976a1d79c7770394e65503ce92af905f90a3505050505050505050565b6109ea84848461059a565b6001600160a01b0383163b15610a1a57610a0684848484610d98565b610a1a57610a1a6368d2bf6b60e11b610b7c565b50505050565b6060610a2b82610b3a565b610a5857610a587fa14c4b5000000000000000000000000000000000000000000000000000000000610b7c565b5f610a6d60408051602081019091525f815290565b905080515f03610a8b5760405180602001604052805f815250610ab6565b80610a9584610e77565b604051602001610aa69291906112e0565b6040516020818303038152906040525b9392505050565b610aed60405180608001604052805f81526020015f6001600160a01b031681526020015f81526020015f81525090565b505f908152600a602090815260409182902082516080810184528154815260018201546001600160a01b031692810192909252600281015492820192909252600390910154606082015290565b5f8054821015610b77575f5b505f8281526004602052604081205490819003610b6d57610b66836112f4565b9250610b46565b600160e01b161590505b919050565b805f5260045ffd5b5f610b8e8361082a565b9050818015610ba65750336001600160a01b03821614155b15610be257610bb58133610338565b610be257610be27fcfb3b94200000000000000000000000000000000000000000000000000000000610b7c565b5f83815260066020526040808220805473ffffffffffffffffffffffffffffffffffffffff19166001600160a01b0388811691821790925591518693918516917f8c5be1e5ebec7d5bd14f71427d1e84f3dd0314c0f7b2291e5b200ac8c7c3b92591a450505050565b5f81815260046020526040902054805f03610cb8575f548210610c7857610c78636f96cda160e11b610b7c565b5b505f19015f818152600460205260409020548015610c7957600160e01b81165f03610ca357919050565b610cb3636f96cda160e11b610b7c565b610c79565b600160e01b81165f03610cca57919050565b610b77636f96cda160e11b610b7c565b610596828260405180602001604052805f815250610eba565b5f818152600a60205260409020600101546001600160a01b03163314610d45576040517f233de59500000000000000000000000000000000000000000000000000000000815260040160405180910390fd5b50565b5f818152600a60205260409020600101546001600160a01b0316610d45576040517fdc80d2f500000000000000000000000000000000000000000000000000000000815260040160405180910390fd5b604051630a85bd0160e11b81525f906001600160a01b0385169063150b7a0290610dcc903390899088908890600401611315565b6020604051808303815f875af1925050508015610e06575060408051601f3d908101601f19168201909252610e0391810190611350565b60015b610e59573d808015610e33576040519150601f19603f3d011682016040523d82523d5f602084013e610e38565b606091505b5080515f03610e5157610e516368d2bf6b60e11b610b7c565b805181602001fd5b6001600160e01b031916630a85bd0160e11b1490505b949350505050565b606060a06040510180604052602081039150505f815280825b600183039250600a81066030018353600a900480610e905750819003601f19909101908152919050565b610ec48383610f1a565b6001600160a01b0383163b15610825575f548281035b610eec5f868380600101945086610d98565b610f0057610f006368d2bf6b60e11b610b7c565b818110610eda57815f5414610f13575f80fd5b5050505050565b5f805490829003610f4e57610f4e7fb562e8dd00000000000000000000000000000000000000000000000000000000610b7c565b5f8181526004602090815260408083206001600160a01b0387164260a01b6001881460e11b17811790915580845260059092528220805468010000000000000001860201905590819003610fc557610fc57f2e07630000000000000000000000000000000000000000000000000000000000610b7c565b818301825b80835f7fddf252ad1be2c89b69c2b068fc378daa952ba7f163c4a11628f55a4df523b3ef5f80a4818160010191508103610fca57505f5550505050565b6001600160e01b031981168114610d45575f80fd5b5f6020828403121561102c575f80fd5b8135610ab681611007565b5f81518084528060208401602086015e5f602082860101526020601f19601f83011685010191505092915050565b602081525f610ab66020830184611037565b5f60208284031215611087575f80fd5b5035919050565b80356001600160a01b0381168114610b77575f80fd5b5f80604083850312156110b5575f80fd5b6110be8361108e565b946020939093013593505050565b5f805f606084860312156110de575f80fd5b6110e78461108e565b92506110f56020850161108e565b9150604084013590509250925092565b5f60208284031215611115575f80fd5b610ab68261108e565b5f806040838503121561112f575f80fd5b6111388361108e565b91506020830135801515811461114c575f80fd5b809150509250929050565b5f8060408385031215611168575f80fd5b50508035926020909101359150565b634e487b7160e01b5f52604160045260245ffd5b5f805f806080858703121561119e575f80fd5b6111a78561108e565b93506111b56020860161108e565b925060408501359150606085013567ffffffffffffffff808211156111d8575f80fd5b818701915087601f8301126111eb575f80fd5b8135818111156111fd576111fd611177565b604051601f8201601f19908116603f0116810190838211818310171561122557611225611177565b816040528281528a602084870101111561123d575f80fd5b826020860160208301375f60208483010152809550505050505092959194509250565b5f8060408385031215611271575f80fd5b61127a8361108e565b91506112886020840161108e565b90509250929050565b600181811c908216806112a557607f821691505b6020821081036112c357634e487b7160e01b5f52602260045260245ffd5b50919050565b5f81518060208401855e5f93019283525090919050565b5f610e6f6112ee83866112c9565b846112c9565b5f8161130e57634e487b7160e01b5f52601160045260245ffd5b505f190190565b5f6001600160a01b038087168352808616602084015250836040830152608060608301526113466080830184611037565b9695505050505050565b5f60208284031215611360575f80fd5b8151610ab68161100756fea2646970667358221220b468e2bdc02ff23cea636c3af6e7e53d598f09a3c1c305042d0a55531167c71464736f6c63430008190033",
					"opcodes": "PUSH1 0x80 PUSH1 0x40 MSTORE CALLVALUE DUP1 ISZERO PUSH2 0xF JUMPI PUSH0 DUP1 REVERT JUMPDEST POP PUSH1 0x40 MLOAD DUP1 PUSH1 0x40 ADD PUSH1 0x40 MSTORE DUP1 PUSH1 0x8 DUP2 MSTORE PUSH1 0x20 ADD PUSH8 0x4469676974757265 PUSH1 0xC0 SHL DUP2 MSTORE POP PUSH1 0x40 MLOAD DUP1 PUSH1 0x40 ADD PUSH1 0x40 MSTORE DUP1 PUSH1 0x3 DUP2 MSTORE PUSH1 0x20 ADD PUSH3 0x1111D5 PUSH1 0xEA SHL DUP2 MSTORE POP DUP2 PUSH1 0x2 SWAP1 DUP2 PUSH2 0x5C SWAP2 SWAP1 PUSH2 0x111 JUMP JUMPDEST POP PUSH1 0x3 PUSH2 0x69 DUP3 DUP3 PUSH2 0x111 JUMP JUMPDEST POP POP PUSH0 DUP1 SSTORE POP PUSH1 0x1 PUSH1 0x9 SSTORE PUSH2 0x1D0 JUMP JUMPDEST PUSH4 0x4E487B71 PUSH1 0xE0 SHL PUSH0 MSTORE PUSH1 0x41 PUSH1 0x4 MSTORE PUSH1 0x24 PUSH0 REVERT JUMPDEST PUSH1 0x1 DUP2 DUP2 SHR SWAP1 DUP3 AND DUP1 PUSH2 0xA1 JUMPI PUSH1 0x7F DUP3 AND SWAP2 POP JUMPDEST PUSH1 0x20 DUP3 LT DUP2 SUB PUSH2 0xBF JUMPI PUSH4 0x4E487B71 PUSH1 0xE0 SHL PUSH0 MSTORE PUSH1 0x22 PUSH1 0x4 MSTORE PUSH1 0x24 PUSH0 REVERT JUMPDEST POP SWAP2 SWAP1 POP JUMP JUMPDEST PUSH1 0x1F DUP3 GT ISZERO PUSH2 0x10C JUMPI DUP1 PUSH0 MSTORE PUSH1 0x20 PUSH0 KECCAK256 PUSH1 0x1F DUP5 ADD PUSH1 0x5 SHR DUP2 ADD PUSH1 0x20 DUP6 LT ISZERO PUSH2 0xEA JUMPI POP DUP1 JUMPDEST PUSH1 0x1F DUP5 ADD PUSH1 0x5 SHR DUP3 ADD SWAP2 POP JUMPDEST DUP2 DUP2 LT ISZERO PUSH2 0x109 JUMPI PUSH0 DUP2 SSTORE PUSH1 0x1 ADD PUSH2 0xF6 JUMP JUMPDEST POP POP JUMPDEST POP POP POP JUMP JUMPDEST DUP2 MLOAD PUSH1 0x1 PUSH1 0x1 PUSH1 0x40 SHL SUB DUP2 GT ISZERO PUSH2 0x12A JUMPI PUSH2 0x12A PUSH2 0x79 JUMP JUMPDEST PUSH2 0x13E DUP2 PUSH2 0x138 DUP5 SLOAD PUSH2 0x8D JUMP JUMPDEST DUP5 PUSH2 0xC5 JUMP JUMPDEST PUSH1 0x20 DUP1 PUSH1 0x1F DUP4 GT PUSH1 0x1 DUP2 EQ PUSH2 0x171 JUMPI PUSH0 DUP5 ISZERO PUSH2 0x15A JUMPI POP DUP6 DUP4 ADD MLOAD JUMPDEST PUSH0 NOT PUSH1 0x3 DUP7 SWAP1 SHL SHR NOT AND PUSH1 0x1 DUP6 SWAP1 SHL OR DUP6 SSTORE PUSH2 0x1C8 JUMP JUMPDEST PUSH0 DUP6 DUP2 MSTORE PUSH1 0x20 DUP2 KECCAK256 PUSH1 0x1F NOT DUP7 AND SWAP2 JUMPDEST DUP3 DUP2 LT ISZERO PUSH2 0x19F JUMPI DUP9 DUP7 ADD MLOAD DUP3 SSTORE SWAP5 DUP5 ADD SWAP5 PUSH1 0x1 SWAP1 SWAP2 ADD SWAP1 DUP5 ADD PUSH2 0x180 JUMP JUMPDEST POP DUP6 DUP3 LT ISZERO PUSH2 0x1BC JUMPI DUP8 DUP6 ADD MLOAD PUSH0 NOT PUSH1 0x3 DUP9 SWAP1 SHL PUSH1 0xF8 AND SHR NOT AND DUP2 SSTORE JUMPDEST POP POP PUSH1 0x1 DUP5 PUSH1 0x1 SHL ADD DUP6 SSTORE JUMPDEST POP POP POP POP POP POP JUMP JUMPDEST PUSH2 0x13A1 DUP1 PUSH2 0x1DD PUSH0 CODECOPY PUSH0 RETURN INVALID PUSH1 0x80 PUSH1 0x40 MSTORE PUSH1 0x4 CALLDATASIZE LT PUSH2 0x13D JUMPI PUSH0 CALLDATALOAD PUSH1 0xE0 SHR DUP1 PUSH4 0x6352211E GT PUSH2 0xBB JUMPI DUP1 PUSH4 0xB88D4FDE GT PUSH2 0x71 JUMPI DUP1 PUSH4 0xE985E9C5 GT PUSH2 0x57 JUMPI DUP1 PUSH4 0xE985E9C5 EQ PUSH2 0x31E JUMPI DUP1 PUSH4 0xF052D65A EQ PUSH2 0x365 JUMPI DUP1 PUSH4 0xFD499A74 EQ PUSH2 0x3C0 JUMPI PUSH0 DUP1 REVERT JUMPDEST DUP1 PUSH4 0xB88D4FDE EQ PUSH2 0x2EC JUMPI DUP1 PUSH4 0xC87B56DD EQ PUSH2 0x2FF JUMPI PUSH0 DUP1 REVERT JUMPDEST DUP1 PUSH4 0x95D89B41 GT PUSH2 0xA1 JUMPI DUP1 PUSH4 0x95D89B41 EQ PUSH2 0x29A JUMPI DUP1 PUSH4 0xA22CB465 EQ PUSH2 0x2AE JUMPI DUP1 PUSH4 0xA32CE491 EQ PUSH2 0x2CD JUMPI PUSH0 DUP1 REVERT JUMPDEST DUP1 PUSH4 0x6352211E EQ PUSH2 0x25C JUMPI DUP1 PUSH4 0x70A08231 EQ PUSH2 0x27B JUMPI PUSH0 DUP1 REVERT JUMPDEST DUP1 PUSH4 0x18160DDD GT PUSH2 0x110 JUMPI DUP1 PUSH4 0x3095FE91 GT PUSH2 0xF6 JUMPI DUP1 PUSH4 0x3095FE91 EQ PUSH2 0x216 JUMPI DUP1 PUSH4 0x3BEB9327 EQ PUSH2 0x22A JUMPI DUP1 PUSH4 0x42842E0E EQ PUSH2 0x249 JUMPI PUSH0 DUP1 REVERT JUMPDEST DUP1 PUSH4 0x18160DDD EQ PUSH2 0x1E2 JUMPI DUP1 PUSH4 0x23B872DD EQ PUSH2 0x203 JUMPI PUSH0 DUP1 REVERT JUMPDEST DUP1 PUSH4 0x1FFC9A7 EQ PUSH2 0x141 JUMPI DUP1 PUSH4 0x6FDDE03 EQ PUSH2 0x175 JUMPI DUP1 PUSH4 0x81812FC EQ PUSH2 0x196 JUMPI DUP1 PUSH4 0x95EA7B3 EQ PUSH2 0x1CD JUMPI JUMPDEST PUSH0 DUP1 REVERT JUMPDEST CALLVALUE DUP1 ISZERO PUSH2 0x14C JUMPI PUSH0 DUP1 REVERT JUMPDEST POP PUSH2 0x160 PUSH2 0x15B CALLDATASIZE PUSH1 0x4 PUSH2 0x101C JUMP JUMPDEST PUSH2 0x40C JUMP JUMPDEST PUSH1 0x40 MLOAD SWAP1 ISZERO ISZERO DUP2 MSTORE PUSH1 0x20 ADD JUMPDEST PUSH1 0x40 MLOAD DUP1 SWAP2 SUB SWAP1 RETURN JUMPDEST CALLVALUE DUP1 ISZERO PUSH2 0x180 JUMPI PUSH0 DUP1 REVERT JUMPDEST POP PUSH2 0x189 PUSH2 0x4A8 JUMP JUMPDEST PUSH1 0x40 MLOAD PUSH2 0x16C SWAP2 SWAP1 PUSH2 0x1065 JUMP JUMPDEST CALLVALUE DUP1 ISZERO PUSH2 0x1A1 JUMPI PUSH0 DUP1 REVERT JUMPDEST POP PUSH2 0x1B5 PUSH2 0x1B0 CALLDATASIZE PUSH1 0x4 PUSH2 0x1077 JUMP JUMPDEST PUSH2 0x538 JUMP JUMPDEST PUSH1 0x40 MLOAD PUSH1 0x1 PUSH1 0x1 PUSH1 0xA0 SHL SUB SWAP1 SWAP2 AND DUP2 MSTORE PUSH1 0x20 ADD PUSH2 0x16C JUMP JUMPDEST PUSH2 0x1E0 PUSH2 0x1DB CALLDATASIZE PUSH1 0x4 PUSH2 0x10A4 JUMP JUMPDEST PUSH2 0x58A JUMP JUMPDEST STOP JUMPDEST CALLVALUE DUP1 ISZERO PUSH2 0x1ED JUMPI PUSH0 DUP1 REVERT JUMPDEST POP PUSH1 0x1 SLOAD PUSH0 SLOAD SUB JUMPDEST PUSH1 0x40 MLOAD SWAP1 DUP2 MSTORE PUSH1 0x20 ADD PUSH2 0x16C JUMP JUMPDEST PUSH2 0x1E0 PUSH2 0x211 CALLDATASIZE PUSH1 0x4 PUSH2 0x10CC JUMP JUMPDEST PUSH2 0x59A JUMP JUMPDEST CALLVALUE DUP1 ISZERO PUSH2 0x221 JUMPI PUSH0 DUP1 REVERT JUMPDEST POP PUSH1 0x9 SLOAD PUSH2 0x1F5 JUMP JUMPDEST CALLVALUE DUP1 ISZERO PUSH2 0x235 JUMPI PUSH0 DUP1 REVERT JUMPDEST POP PUSH2 0x1E0 PUSH2 0x244 CALLDATASIZE PUSH1 0x4 PUSH2 0x1077 JUMP JUMPDEST PUSH2 0x740 JUMP JUMPDEST PUSH2 0x1E0 PUSH2 0x257 CALLDATASIZE PUSH1 0x4 PUSH2 0x10CC JUMP JUMPDEST PUSH2 0x80B JUMP JUMPDEST CALLVALUE DUP1 ISZERO PUSH2 0x267 JUMPI PUSH0 DUP1 REVERT JUMPDEST POP PUSH2 0x1B5 PUSH2 0x276 CALLDATASIZE PUSH1 0x4 PUSH2 0x1077 JUMP JUMPDEST PUSH2 0x82A JUMP JUMPDEST CALLVALUE DUP1 ISZERO PUSH2 0x286 JUMPI PUSH0 DUP1 REVERT JUMPDEST POP PUSH2 0x1F5 PUSH2 0x295 CALLDATASIZE PUSH1 0x4 PUSH2 0x1105 JUMP JUMPDEST PUSH2 0x834 JUMP JUMPDEST CALLVALUE DUP1 ISZERO PUSH2 0x2A5 JUMPI PUSH0 DUP1 REVERT JUMPDEST POP PUSH2 0x189 PUSH2 0x891 JUMP JUMPDEST CALLVALUE DUP1 ISZERO PUSH2 0x2B9 JUMPI PUSH0 DUP1 REVERT JUMPDEST POP PUSH2 0x1E0 PUSH2 0x2C8 CALLDATASIZE PUSH1 0x4 PUSH2 0x111E JUMP JUMPDEST PUSH2 0x8A0 JUMP JUMPDEST CALLVALUE DUP1 ISZERO PUSH2 0x2D8 JUMPI PUSH0 DUP1 REVERT JUMPDEST POP PUSH2 0x1E0 PUSH2 0x2E7 CALLDATASIZE PUSH1 0x4 PUSH2 0x1157 JUMP JUMPDEST PUSH2 0x90B JUMP JUMPDEST PUSH2 0x1E0 PUSH2 0x2FA CALLDATASIZE PUSH1 0x4 PUSH2 0x118B JUMP JUMPDEST PUSH2 0x9DF JUMP JUMPDEST CALLVALUE DUP1 ISZERO PUSH2 0x30A JUMPI PUSH0 DUP1 REVERT JUMPDEST POP PUSH2 0x189 PUSH2 0x319 CALLDATASIZE PUSH1 0x4 PUSH2 0x1077 JUMP JUMPDEST PUSH2 0xA20 JUMP JUMPDEST CALLVALUE DUP1 ISZERO PUSH2 0x329 JUMPI PUSH0 DUP1 REVERT JUMPDEST POP PUSH2 0x160 PUSH2 0x338 CALLDATASIZE PUSH1 0x4 PUSH2 0x1260 JUMP JUMPDEST PUSH1 0x1 PUSH1 0x1 PUSH1 0xA0 SHL SUB SWAP2 DUP3 AND PUSH0 SWAP1 DUP2 MSTORE PUSH1 0x7 PUSH1 0x20 SWAP1 DUP2 MSTORE PUSH1 0x40 DUP1 DUP4 KECCAK256 SWAP4 SWAP1 SWAP5 AND DUP3 MSTORE SWAP2 SWAP1 SWAP2 MSTORE KECCAK256 SLOAD PUSH1 0xFF AND SWAP1 JUMP JUMPDEST CALLVALUE DUP1 ISZERO PUSH2 0x370 JUMPI PUSH0 DUP1 REVERT JUMPDEST POP PUSH2 0x384 PUSH2 0x37F CALLDATASIZE PUSH1 0x4 PUSH2 0x1077 JUMP JUMPDEST PUSH2 0xABD JUMP JUMPDEST PUSH1 0x40 MLOAD PUSH2 0x16C SWAP2 SWAP1 DUP2 MLOAD DUP2 MSTORE PUSH1 0x20 DUP1 DUP4 ADD MLOAD PUSH1 0x1 PUSH1 0x1 PUSH1 0xA0 SHL SUB AND SWAP1 DUP3 ADD MSTORE PUSH1 0x40 DUP1 DUP4 ADD MLOAD SWAP1 DUP3 ADD MSTORE PUSH1 0x60 SWAP2 DUP3 ADD MLOAD SWAP2 DUP2 ADD SWAP2 SWAP1 SWAP2 MSTORE PUSH1 0x80 ADD SWAP1 JUMP JUMPDEST CALLVALUE DUP1 ISZERO PUSH2 0x3CB JUMPI PUSH0 DUP1 REVERT JUMPDEST POP PUSH2 0x3F7 PUSH2 0x3DA CALLDATASIZE PUSH1 0x4 PUSH2 0x1077 JUMP JUMPDEST PUSH16 0xFFFFFFFFFFFFFFFFFFFFFFFFFFFFFFFF DUP2 AND SWAP2 PUSH1 0x80 SWAP2 SWAP1 SWAP2 SHR SWAP1 JUMP JUMPDEST PUSH1 0x40 DUP1 MLOAD SWAP3 DUP4 MSTORE PUSH1 0x20 DUP4 ADD SWAP2 SWAP1 SWAP2 MSTORE ADD PUSH2 0x16C JUMP JUMPDEST PUSH0 PUSH32 0x1FFC9A700000000000000000000000000000000000000000000000000000000 PUSH1 0x1 PUSH1 0x1 PUSH1 0xE0 SHL SUB NOT DUP4 AND EQ DUP1 PUSH2 0x46E JUMPI POP PUSH32 0x80AC58CD00000000000000000000000000000000000000000000000000000000 PUSH1 0x1 PUSH1 0x1 PUSH1 0xE0 SHL SUB NOT DUP4 AND EQ JUMPDEST DUP1 PUSH2 0x4A2 JUMPI POP PUSH32 0x5B5E139F00000000000000000000000000000000000000000000000000000000 PUSH1 0x1 PUSH1 0x1 PUSH1 0xE0 SHL SUB NOT DUP4 AND EQ JUMPDEST SWAP3 SWAP2 POP POP JUMP JUMPDEST PUSH1 0x60 PUSH1 0x2 DUP1 SLOAD PUSH2 0x4B7 SWAP1 PUSH2 0x1291 JUMP JUMPDEST DUP1 PUSH1 0x1F ADD PUSH1 0x20 DUP1 SWAP2 DIV MUL PUSH1 0x20 ADD PUSH1 0x40 MLOAD SWAP1 DUP2 ADD PUSH1 0x40 MSTORE DUP1 SWAP3 SWAP2 SWAP1 DUP2 DUP2 MSTORE PUSH1 0x20 ADD DUP3 DUP1 SLOAD PUSH2 0x4E3 SWAP1 PUSH2 0x1291 JUMP JUMPDEST DUP1 ISZERO PUSH2 0x52E JUMPI DUP1 PUSH1 0x1F LT PUSH2 0x505 JUMPI PUSH2 0x100 DUP1 DUP4 SLOAD DIV MUL DUP4 MSTORE SWAP2 PUSH1 0x20 ADD SWAP2 PUSH2 0x52E JUMP JUMPDEST DUP3 ADD SWAP2 SWAP1 PUSH0 MSTORE PUSH1 0x20 PUSH0 KECCAK256 SWAP1 JUMPDEST DUP2 SLOAD DUP2 MSTORE SWAP1 PUSH1 0x1 ADD SWAP1 PUSH1 0x20 ADD DUP1 DUP4 GT PUSH2 0x511 JUMPI DUP3 SWAP1 SUB PUSH1 0x1F AND DUP3 ADD SWAP2 JUMPDEST POP POP POP POP POP SWAP1 POP SWAP1 JUMP JUMPDEST PUSH0 PUSH2 0x542 DUP3 PUSH2 0xB3A JUMP JUMPDEST PUSH2 0x56F JUMPI PUSH2 0x56F PUSH32 0xCF4700E400000000000000000000000000000000000000000000000000000000 PUSH2 0xB7C JUMP JUMPDEST POP PUSH0 SWAP1 DUP2 MSTORE PUSH1 0x6 PUSH1 0x20 MSTORE PUSH1 0x40 SWAP1 KECCAK256 SLOAD PUSH1 0x1 PUSH1 0x1 PUSH1 0xA0 SHL SUB AND SWAP1 JUMP JUMPDEST PUSH2 0x596 DUP3 DUP3 PUSH1 0x1 PUSH2 0xB84 JUMP JUMPDEST POP POP JUMP JUMPDEST PUSH0 PUSH2 0x5A4 DUP3 PUSH2 0xC4B JUMP JUMPDEST PUSH1 0x1 PUSH1 0x1 PUSH1 0xA0 SHL SUB SWAP5 DUP6 AND SWAP5 SWAP1 SWAP2 POP DUP2 AND DUP5 EQ PUSH2 0x5E4 JUMPI PUSH2 0x5E4 PUSH32 0xA114810000000000000000000000000000000000000000000000000000000000 PUSH2 0xB7C JUMP JUMPDEST PUSH0 DUP3 DUP2 MSTORE PUSH1 0x6 PUSH1 0x20 MSTORE PUSH1 0x40 SWAP1 KECCAK256 DUP1 SLOAD CALLER DUP1 DUP3 EQ PUSH1 0x1 PUSH1 0x1 PUSH1 0xA0 SHL SUB DUP9 AND SWAP1 SWAP2 EQ OR PUSH2 0x640 JUMPI PUSH2 0x613 DUP7 CALLER PUSH2 0x338 JUMP JUMPDEST PUSH2 0x640 JUMPI PUSH2 0x640 PUSH32 0x59C896BE00000000000000000000000000000000000000000000000000000000 PUSH2 0xB7C JUMP JUMPDEST DUP1 ISZERO PUSH2 0x64A JUMPI PUSH0 DUP3 SSTORE JUMPDEST PUSH1 0x1 PUSH1 0x1 PUSH1 0xA0 SHL SUB DUP7 DUP2 AND PUSH0 SWAP1 DUP2 MSTORE PUSH1 0x5 PUSH1 0x20 MSTORE PUSH1 0x40 DUP1 DUP3 KECCAK256 DUP1 SLOAD PUSH0 NOT ADD SWAP1 SSTORE SWAP2 DUP8 AND DUP1 DUP3 MSTORE SWAP2 SWAP1 KECCAK256 DUP1 SLOAD PUSH1 0x1 ADD SWAP1 SSTORE TIMESTAMP PUSH1 0xA0 SHL OR PUSH1 0x1 PUSH1 0xE1 SHL OR PUSH0 DUP6 DUP2 MSTORE PUSH1 0x4 PUSH1 0x20 MSTORE PUSH1 0x40 DUP2 KECCAK256 SWAP2 SWAP1 SWAP2 SSTORE PUSH1 0x1 PUSH1 0xE1 SHL DUP5 AND SWAP1 SUB PUSH2 0x6D6 JUMPI PUSH1 0x1 DUP5 ADD PUSH0 DUP2 DUP2 MSTORE PUSH1 0x4 PUSH1 0x20 MSTORE PUSH1 0x40 DUP2 KECCAK256 SLOAD SWAP1 SUB PUSH2 0x6D4 JUMPI PUSH0 SLOAD DUP2 EQ PUSH2 0x6D4 JUMPI PUSH0 DUP2 DUP2 MSTORE PUSH1 0x4 PUSH1 0x20 MSTORE PUSH1 0x40 SWAP1 KECCAK256 DUP5 SWAP1 SSTORE JUMPDEST POP JUMPDEST PUSH1 0x1 PUSH1 0x1 PUSH1 0xA0 SHL SUB DUP6 AND DUP5 DUP2 DUP9 PUSH32 0xDDF252AD1BE2C89B69C2B068FC378DAA952BA7F163C4A11628F55A4DF523B3EF PUSH0 DUP1 LOG4 DUP1 PUSH0 SUB PUSH2 0x737 JUMPI PUSH2 0x737 PUSH32 0xEA553B3400000000000000000000000000000000000000000000000000000000 PUSH2 0xB7C JUMP JUMPDEST POP POP POP POP POP POP POP JUMP JUMPDEST PUSH1 0x40 MLOAD DUP1 PUSH1 0x80 ADD PUSH1 0x40 MSTORE DUP1 PUSH1 0x9 SLOAD DUP2 MSTORE PUSH1 0x20 ADD PUSH2 0x75A CALLER SWAP1 JUMP JUMPDEST PUSH1 0x1 PUSH1 0x1 PUSH1 0xA0 SHL SUB SWAP1 DUP2 AND DUP3 MSTORE PUSH1 0x20 DUP1 DUP4 ADD DUP6 SWAP1 MSTORE PUSH0 PUSH1 0x40 SWAP4 DUP5 ADD DUP2 SWAP1 MSTORE PUSH1 0x9 SLOAD DUP2 MSTORE PUSH1 0xA DUP3 MSTORE DUP4 SWAP1 KECCAK256 DUP5 MLOAD DUP2 SSTORE SWAP1 DUP5 ADD MLOAD PUSH1 0x1 DUP3 ADD DUP1 SLOAD PUSH20 0xFFFFFFFFFFFFFFFFFFFFFFFFFFFFFFFFFFFFFFFF NOT AND SWAP2 SWAP1 SWAP4 AND OR SWAP1 SWAP2 SSTORE SWAP1 DUP3 ADD MLOAD PUSH1 0x2 DUP3 ADD SSTORE PUSH1 0x60 SWAP1 SWAP2 ADD MLOAD PUSH1 0x3 SWAP1 SWAP2 ADD SSTORE PUSH2 0x7D1 CALLER PUSH1 0x1 PUSH2 0xCDA JUMP JUMPDEST PUSH1 0x9 SLOAD PUSH1 0x40 MLOAD CALLER SWAP2 SWAP1 PUSH32 0xFCE6B98DB3CC5152281E5D3E4C7332ADFB0D4B574CC5723DC73792F7624043CC SWAP1 PUSH0 SWAP1 LOG3 PUSH1 0x1 PUSH1 0x9 SLOAD ADD PUSH1 0x9 SSTORE POP JUMP JUMPDEST PUSH2 0x825 DUP4 DUP4 DUP4 PUSH1 0x40 MLOAD DUP1 PUSH1 0x20 ADD PUSH1 0x40 MSTORE DUP1 PUSH0 DUP2 MSTORE POP PUSH2 0x9DF JUMP JUMPDEST POP POP POP JUMP JUMPDEST PUSH0 PUSH2 0x4A2 DUP3 PUSH2 0xC4B JUMP JUMPDEST PUSH0 PUSH1 0x1 PUSH1 0x1 PUSH1 0xA0 SHL SUB DUP3 AND PUSH2 0x86C JUMPI PUSH2 0x86C PUSH32 0x8F4EB60400000000000000000000000000000000000000000000000000000000 PUSH2 0xB7C JUMP JUMPDEST POP PUSH1 0x1 PUSH1 0x1 PUSH1 0xA0 SHL SUB AND PUSH0 SWAP1 DUP2 MSTORE PUSH1 0x5 PUSH1 0x20 MSTORE PUSH1 0x40 SWAP1 KECCAK256 SLOAD PUSH8 0xFFFFFFFFFFFFFFFF AND SWAP1 JUMP JUMPDEST PUSH1 0x60 PUSH1 0x3 DUP1 SLOAD PUSH2 0x4B7 SWAP1 PUSH2 0x1291 JUMP JUMPDEST CALLER PUSH0 DUP2 DUP2 MSTORE PUSH1 0x7 PUSH1 0x20 SWAP1 DUP2 MSTORE PUSH1 0x40 DUP1 DUP4 KECCAK256 PUSH1 0x1 PUSH1 0x1 PUSH1 0xA0 SHL SUB DUP8 AND DUP1 DUP6 MSTORE SWAP1 DUP4 MSTORE SWAP3 DUP2 SWAP1 KECCAK256 DUP1 SLOAD PUSH1 0xFF NOT AND DUP7 ISZERO ISZERO SWAP1 DUP2 OR SWAP1 SWAP2 SSTORE SWAP1 MLOAD SWAP1 DUP2 MSTORE SWAP2 SWAP3 SWAP2 PUSH32 0x17307EAB39AB6107E8899845AD3D59BD9653F200F220920489CA2B5937696C31 SWAP2 ADD PUSH1 0x40 MLOAD DUP1 SWAP2 SUB SWAP1 LOG3 POP POP JUMP JUMPDEST DUP2 PUSH2 0x915 DUP2 PUSH2 0xCF3 JUMP JUMPDEST PUSH2 0x91E DUP4 PUSH2 0xD48 JUMP JUMPDEST PUSH2 0x927 DUP3 PUSH2 0xD48 JUMP JUMPDEST PUSH0 DUP4 DUP2 MSTORE PUSH1 0xA PUSH1 0x20 MSTORE PUSH1 0x40 DUP1 DUP3 KECCAK256 DUP5 DUP4 MSTORE SWAP2 KECCAK256 PUSH1 0x3 DUP1 DUP4 ADD SLOAD SWAP1 DUP3 ADD SLOAD PUSH16 0xFFFFFFFFFFFFFFFFFFFFFFFFFFFFFFFF DUP1 DUP4 AND PUSH1 0x1 SWAP1 DUP2 ADD SWAP4 PUSH1 0x80 DUP2 DUP2 SHR SWAP5 SWAP4 DUP5 AND SWAP4 SWAP1 SHR SWAP1 SWAP2 ADD SWAP1 PUSH32 0xFFFFFFFFFFFFFFFFFFFFFFFFFFFFFFFF00000000000000000000000000000000 AND DUP5 OR PUSH1 0x3 DUP8 ADD SSTORE PUSH2 0x9A3 DUP3 DUP3 PUSH1 0x80 SHL OR SWAP1 JUMP JUMPDEST PUSH1 0x3 DUP7 ADD SSTORE PUSH1 0x40 MLOAD DUP9 SWAP1 DUP11 SWAP1 PUSH32 0x37FDF7CDA6EC1C848E98866FE5E1F781B2B5976A1D79C7770394E65503CE92AF SWAP1 PUSH0 SWAP1 LOG3 POP POP POP POP POP POP POP POP POP JUMP JUMPDEST PUSH2 0x9EA DUP5 DUP5 DUP5 PUSH2 0x59A JUMP JUMPDEST PUSH1 0x1 PUSH1 0x1 PUSH1 0xA0 SHL SUB DUP4 AND EXTCODESIZE ISZERO PUSH2 0xA1A JUMPI PUSH2 0xA06 DUP5 DUP5 DUP5 DUP5 PUSH2 0xD98 JUMP JUMPDEST PUSH2 0xA1A JUMPI PUSH2 0xA1A PUSH4 0x68D2BF6B PUSH1 0xE1 SHL PUSH2 0xB7C JUMP JUMPDEST POP POP POP POP JUMP JUMPDEST PUSH1 0x60 PUSH2 0xA2B DUP3 PUSH2 0xB3A JUMP JUMPDEST PUSH2 0xA58 JUMPI PUSH2 0xA58 PUSH32 0xA14C4B5000000000000000000000000000000000000000000000000000000000 PUSH2 0xB7C JUMP JUMPDEST PUSH0 PUSH2 0xA6D PUSH1 0x40 DUP1 MLOAD PUSH1 0x20 DUP2 ADD SWAP1 SWAP2 MSTORE PUSH0 DUP2 MSTORE SWAP1 JUMP JUMPDEST SWAP1 POP DUP1 MLOAD PUSH0 SUB PUSH2 0xA8B JUMPI PUSH1 0x40 MLOAD DUP1 PUSH1 0x20 ADD PUSH1 0x40 MSTORE DUP1 PUSH0 DUP2 MSTORE POP PUSH2 0xAB6 JUMP JUMPDEST DUP1 PUSH2 0xA95 DUP5 PUSH2 0xE77 JUMP JUMPDEST PUSH1 0x40 MLOAD PUSH1 0x20 ADD PUSH2 0xAA6 SWAP3 SWAP2 SWAP1 PUSH2 0x12E0 JUMP JUMPDEST PUSH1 0x40 MLOAD PUSH1 0x20 DUP2 DUP4 SUB SUB DUP2 MSTORE SWAP1 PUSH1 0x40 MSTORE JUMPDEST SWAP4 SWAP3 POP POP POP JUMP JUMPDEST PUSH2 0xAED PUSH1 0x40 MLOAD DUP1 PUSH1 0x80 ADD PUSH1 0x40 MSTORE DUP1 PUSH0 DUP2 MSTORE PUSH1 0x20 ADD PUSH0 PUSH1 0x1 PUSH1 0x1 PUSH1 0xA0 SHL SUB AND DUP2 MSTORE PUSH1 0x20 ADD PUSH0 DUP2 MSTORE PUSH1 0x20 ADD PUSH0 DUP2 MSTORE POP SWAP1 JUMP JUMPDEST POP PUSH0 SWAP1 DUP2 MSTORE PUSH1 0xA PUSH1 0x20 SWAP1 DUP2 MSTORE PUSH1 0x40 SWAP2 DUP3 SWAP1 KECCAK256 DUP3 MLOAD PUSH1 0x80 DUP2 ADD DUP5 MSTORE DUP2 SLOAD DUP2 MSTORE PUSH1 0x1 DUP3 ADD SLOAD PUSH1 0x1 PUSH1 0x1 PUSH1 0xA0 SHL SUB AND SWAP3 DUP2 ADD SWAP3 SWAP1 SWAP3 MSTORE PUSH1 0x2 DUP2 ADD SLOAD SWAP3 DUP3 ADD SWAP3 SWAP1 SWAP3 MSTORE PUSH1 0x3 SWAP1 SWAP2 ADD SLOAD PUSH1 0x60 DUP3 ADD MSTORE SWAP1 JUMP JUMPDEST PUSH0 DUP1 SLOAD DUP3 LT ISZERO PUSH2 0xB77 JUMPI PUSH0 JUMPDEST POP PUSH0 DUP3 DUP2 MSTORE PUSH1 0x4 PUSH1 0x20 MSTORE PUSH1 0x40 DUP2 KECCAK256 SLOAD SWAP1 DUP2 SWAP1 SUB PUSH2 0xB6D JUMPI PUSH2 0xB66 DUP4 PUSH2 0x12F4 JUMP JUMPDEST SWAP3 POP PUSH2 0xB46 JUMP JUMPDEST PUSH1 0x1 PUSH1 0xE0 SHL AND ISZERO SWAP1 POP JUMPDEST SWAP2 SWAP1 POP JUMP JUMPDEST DUP1 PUSH0 MSTORE PUSH1 0x4 PUSH0 REVERT JUMPDEST PUSH0 PUSH2 0xB8E DUP4 PUSH2 0x82A JUMP JUMPDEST SWAP1 POP DUP2 DUP1 ISZERO PUSH2 0xBA6 JUMPI POP CALLER PUSH1 0x1 PUSH1 0x1 PUSH1 0xA0 SHL SUB DUP3 AND EQ ISZERO JUMPDEST ISZERO PUSH2 0xBE2 JUMPI PUSH2 0xBB5 DUP2 CALLER PUSH2 0x338 JUMP JUMPDEST PUSH2 0xBE2 JUMPI PUSH2 0xBE2 PUSH32 0xCFB3B94200000000000000000000000000000000000000000000000000000000 PUSH2 0xB7C JUMP JUMPDEST PUSH0 DUP4 DUP2 MSTORE PUSH1 0x6 PUSH1 0x20 MSTORE PUSH1 0x40 DUP1 DUP3 KECCAK256 DUP1 SLOAD PUSH20 0xFFFFFFFFFFFFFFFFFFFFFFFFFFFFFFFFFFFFFFFF NOT AND PUSH1 0x1 PUSH1 0x1 PUSH1 0xA0 SHL SUB DUP9 DUP2 AND SWAP2 DUP3 OR SWAP1 SWAP3 SSTORE SWAP2 MLOAD DUP7 SWAP4 SWAP2 DUP6 AND SWAP2 PUSH32 0x8C5BE1E5EBEC7D5BD14F71427D1E84F3DD0314C0F7B2291E5B200AC8C7C3B925 SWAP2 LOG4 POP POP POP POP JUMP JUMPDEST PUSH0 DUP2 DUP2 MSTORE PUSH1 0x4 PUSH1 0x20 MSTORE PUSH1 0x40 SWAP1 KECCAK256 SLOAD DUP1 PUSH0 SUB PUSH2 0xCB8 JUMPI PUSH0 SLOAD DUP3 LT PUSH2 0xC78 JUMPI PUSH2 0xC78 PUSH4 0x6F96CDA1 PUSH1 0xE1 SHL PUSH2 0xB7C JUMP JUMPDEST JUMPDEST POP PUSH0 NOT ADD PUSH0 DUP2 DUP2 MSTORE PUSH1 0x4 PUSH1 0x20 MSTORE PUSH1 0x40 SWAP1 KECCAK256 SLOAD DUP1 ISZERO PUSH2 0xC79 JUMPI PUSH1 0x1 PUSH1 0xE0 SHL DUP2 AND PUSH0 SUB PUSH2 0xCA3 JUMPI SWAP2 SWAP1 POP JUMP JUMPDEST PUSH2 0xCB3 PUSH4 0x6F96CDA1 PUSH1 0xE1 SHL PUSH2 0xB7C JUMP JUMPDEST PUSH2 0xC79 JUMP JUMPDEST PUSH1 0x1 PUSH1 0xE0 SHL DUP2 AND PUSH0 SUB PUSH2 0xCCA JUMPI SWAP2 SWAP1 POP JUMP JUMPDEST PUSH2 0xB77 PUSH4 0x6F96CDA1 PUSH1 0xE1 SHL PUSH2 0xB7C JUMP JUMPDEST PUSH2 0x596 DUP3 DUP3 PUSH1 0x40 MLOAD DUP1 PUSH1 0x20 ADD PUSH1 0x40 MSTORE DUP1 PUSH0 DUP2 MSTORE POP PUSH2 0xEBA JUMP JUMPDEST PUSH0 DUP2 DUP2 MSTORE PUSH1 0xA PUSH1 0x20 MSTORE PUSH1 0x40 SWAP1 KECCAK256 PUSH1 0x1 ADD SLOAD PUSH1 0x1 PUSH1 0x1 PUSH1 0xA0 SHL SUB AND CALLER EQ PUSH2 0xD45 JUMPI PUSH1 0x40 MLOAD PUSH32 0x233DE59500000000000000000000000000000000000000000000000000000000 DUP2 MSTORE PUSH1 0x4 ADD PUSH1 0x40 MLOAD DUP1 SWAP2 SUB SWAP1 REVERT JUMPDEST POP JUMP JUMPDEST PUSH0 DUP2 DUP2 MSTORE PUSH1 0xA PUSH1 0x20 MSTORE PUSH1 0x40 SWAP1 KECCAK256 PUSH1 0x1 ADD SLOAD PUSH1 0x1 PUSH1 0x1 PUSH1 0xA0 SHL SUB AND PUSH2 0xD45 JUMPI PUSH1 0x40 MLOAD PUSH32 0xDC80D2F500000000000000000000000000000000000000000000000000000000 DUP2 MSTORE PUSH1 0x4 ADD PUSH1 0x40 MLOAD DUP1 SWAP2 SUB SWAP1 REVERT JUMPDEST PUSH1 0x40 MLOAD PUSH4 0xA85BD01 PUSH1 0xE1 SHL DUP2 MSTORE PUSH0 SWAP1 PUSH1 0x1 PUSH1 0x1 PUSH1 0xA0 SHL SUB DUP6 AND SWAP1 PUSH4 0x150B7A02 SWAP1 PUSH2 0xDCC SWAP1 CALLER SWAP1 DUP10 SWAP1 DUP9 SWAP1 DUP9 SWAP1 PUSH1 0x4 ADD PUSH2 0x1315 JUMP JUMPDEST PUSH1 0x20 PUSH1 0x40 MLOAD DUP1 DUP4 SUB DUP2 PUSH0 DUP8 GAS CALL SWAP3 POP POP POP DUP1 ISZERO PUSH2 0xE06 JUMPI POP PUSH1 0x40 DUP1 MLOAD PUSH1 0x1F RETURNDATASIZE SWAP1 DUP2 ADD PUSH1 0x1F NOT AND DUP3 ADD SWAP1 SWAP3 MSTORE PUSH2 0xE03 SWAP2 DUP2 ADD SWAP1 PUSH2 0x1350 JUMP JUMPDEST PUSH1 0x1 JUMPDEST PUSH2 0xE59 JUMPI RETURNDATASIZE DUP1 DUP1 ISZERO PUSH2 0xE33 JUMPI PUSH1 0x40 MLOAD SWAP2 POP PUSH1 0x1F NOT PUSH1 0x3F RETURNDATASIZE ADD AND DUP3 ADD PUSH1 0x40 MSTORE RETURNDATASIZE DUP3 MSTORE RETURNDATASIZE PUSH0 PUSH1 0x20 DUP5 ADD RETURNDATACOPY PUSH2 0xE38 JUMP JUMPDEST PUSH1 0x60 SWAP2 POP JUMPDEST POP DUP1 MLOAD PUSH0 SUB PUSH2 0xE51 JUMPI PUSH2 0xE51 PUSH4 0x68D2BF6B PUSH1 0xE1 SHL PUSH2 0xB7C JUMP JUMPDEST DUP1 MLOAD DUP2 PUSH1 0x20 ADD REVERT JUMPDEST PUSH1 0x1 PUSH1 0x1 PUSH1 0xE0 SHL SUB NOT AND PUSH4 0xA85BD01 PUSH1 0xE1 SHL EQ SWAP1 POP JUMPDEST SWAP5 SWAP4 POP POP POP POP JUMP JUMPDEST PUSH1 0x60 PUSH1 0xA0 PUSH1 0x40 MLOAD ADD DUP1 PUSH1 0x40 MSTORE PUSH1 0x20 DUP2 SUB SWAP2 POP POP PUSH0 DUP2 MSTORE DUP1 DUP3 JUMPDEST PUSH1 0x1 DUP4 SUB SWAP3 POP PUSH1 0xA DUP2 MOD PUSH1 0x30 ADD DUP4 MSTORE8 PUSH1 0xA SWAP1 DIV DUP1 PUSH2 0xE90 JUMPI POP DUP2 SWAP1 SUB PUSH1 0x1F NOT SWAP1 SWAP2 ADD SWAP1 DUP2 MSTORE SWAP2 SWAP1 POP JUMP JUMPDEST PUSH2 0xEC4 DUP4 DUP4 PUSH2 0xF1A JUMP JUMPDEST PUSH1 0x1 PUSH1 0x1 PUSH1 0xA0 SHL SUB DUP4 AND EXTCODESIZE ISZERO PUSH2 0x825 JUMPI PUSH0 SLOAD DUP3 DUP2 SUB JUMPDEST PUSH2 0xEEC PUSH0 DUP7 DUP4 DUP1 PUSH1 0x1 ADD SWAP5 POP DUP7 PUSH2 0xD98 JUMP JUMPDEST PUSH2 0xF00 JUMPI PUSH2 0xF00 PUSH4 0x68D2BF6B PUSH1 0xE1 SHL PUSH2 0xB7C JUMP JUMPDEST DUP2 DUP2 LT PUSH2 0xEDA JUMPI DUP2 PUSH0 SLOAD EQ PUSH2 0xF13 JUMPI PUSH0 DUP1 REVERT JUMPDEST POP POP POP POP POP JUMP JUMPDEST PUSH0 DUP1 SLOAD SWAP1 DUP3 SWAP1 SUB PUSH2 0xF4E JUMPI PUSH2 0xF4E PUSH32 0xB562E8DD00000000000000000000000000000000000000000000000000000000 PUSH2 0xB7C JUMP JUMPDEST PUSH0 DUP2 DUP2 MSTORE PUSH1 0x4 PUSH1 0x20 SWAP1 DUP2 MSTORE PUSH1 0x40 DUP1 DUP4 KECCAK256 PUSH1 0x1 PUSH1 0x1 PUSH1 0xA0 SHL SUB DUP8 AND TIMESTAMP PUSH1 0xA0 SHL PUSH1 0x1 DUP9 EQ PUSH1 0xE1 SHL OR DUP2 OR SWAP1 SWAP2 SSTORE DUP1 DUP5 MSTORE PUSH1 0x5 SWAP1 SWAP3 MSTORE DUP3 KECCAK256 DUP1 SLOAD PUSH9 0x10000000000000001 DUP7 MUL ADD SWAP1 SSTORE SWAP1 DUP2 SWAP1 SUB PUSH2 0xFC5 JUMPI PUSH2 0xFC5 PUSH32 0x2E07630000000000000000000000000000000000000000000000000000000000 PUSH2 0xB7C JUMP JUMPDEST DUP2 DUP4 ADD DUP3 JUMPDEST DUP1 DUP4 PUSH0 PUSH32 0xDDF252AD1BE2C89B69C2B068FC378DAA952BA7F163C4A11628F55A4DF523B3EF PUSH0 DUP1 LOG4 DUP2 DUP2 PUSH1 0x1 ADD SWAP2 POP DUP2 SUB PUSH2 0xFCA JUMPI POP PUSH0 SSTORE POP POP POP POP JUMP JUMPDEST PUSH1 0x1 PUSH1 0x1 PUSH1 0xE0 SHL SUB NOT DUP2 AND DUP2 EQ PUSH2 0xD45 JUMPI PUSH0 DUP1 REVERT JUMPDEST PUSH0 PUSH1 0x20 DUP3 DUP5 SUB SLT ISZERO PUSH2 0x102C JUMPI PUSH0 DUP1 REVERT JUMPDEST DUP2 CALLDATALOAD PUSH2 0xAB6 DUP2 PUSH2 0x1007 JUMP JUMPDEST PUSH0 DUP2 MLOAD DUP1 DUP5 MSTORE DUP1 PUSH1 0x20 DUP5 ADD PUSH1 0x20 DUP7 ADD MCOPY PUSH0 PUSH1 0x20 DUP3 DUP7 ADD ADD MSTORE PUSH1 0x20 PUSH1 0x1F NOT PUSH1 0x1F DUP4 ADD AND DUP6 ADD ADD SWAP2 POP POP SWAP3 SWAP2 POP POP JUMP JUMPDEST PUSH1 0x20 DUP2 MSTORE PUSH0 PUSH2 0xAB6 PUSH1 0x20 DUP4 ADD DUP5 PUSH2 0x1037 JUMP JUMPDEST PUSH0 PUSH1 0x20 DUP3 DUP5 SUB SLT ISZERO PUSH2 0x1087 JUMPI PUSH0 DUP1 REVERT JUMPDEST POP CALLDATALOAD SWAP2 SWAP1 POP JUMP JUMPDEST DUP1 CALLDATALOAD PUSH1 0x1 PUSH1 0x1 PUSH1 0xA0 SHL SUB DUP2 AND DUP2 EQ PUSH2 0xB77 JUMPI PUSH0 DUP1 REVERT JUMPDEST PUSH0 DUP1 PUSH1 0x40 DUP4 DUP6 SUB SLT ISZERO PUSH2 0x10B5 JUMPI PUSH0 DUP1 REVERT JUMPDEST PUSH2 0x10BE DUP4 PUSH2 0x108E JUMP JUMPDEST SWAP5 PUSH1 0x20 SWAP4 SWAP1 SWAP4 ADD CALLDATALOAD SWAP4 POP POP POP JUMP JUMPDEST PUSH0 DUP1 PUSH0 PUSH1 0x60 DUP5 DUP7 SUB SLT ISZERO PUSH2 0x10DE JUMPI PUSH0 DUP1 REVERT JUMPDEST PUSH2 0x10E7 DUP5 PUSH2 0x108E JUMP JUMPDEST SWAP3 POP PUSH2 0x10F5 PUSH1 0x20 DUP6 ADD PUSH2 0x108E JUMP JUMPDEST SWAP2 POP PUSH1 0x40 DUP5 ADD CALLDATALOAD SWAP1 POP SWAP3 POP SWAP3 POP SWAP3 JUMP JUMPDEST PUSH0 PUSH1 0x20 DUP3 DUP5 SUB SLT ISZERO PUSH2 0x1115 JUMPI PUSH0 DUP1 REVERT JUMPDEST PUSH2 0xAB6 DUP3 PUSH2 0x108E JUMP JUMPDEST PUSH0 DUP1 PUSH1 0x40 DUP4 DUP6 SUB SLT ISZERO PUSH2 0x112F JUMPI PUSH0 DUP1 REVERT JUMPDEST PUSH2 0x1138 DUP4 PUSH2 0x108E JUMP JUMPDEST SWAP2 POP PUSH1 0x20 DUP4 ADD CALLDATALOAD DUP1 ISZERO ISZERO DUP2 EQ PUSH2 0x114C JUMPI PUSH0 DUP1 REVERT JUMPDEST DUP1 SWAP2 POP POP SWAP3 POP SWAP3 SWAP1 POP JUMP JUMPDEST PUSH0 DUP1 PUSH1 0x40 DUP4 DUP6 SUB SLT ISZERO PUSH2 0x1168 JUMPI PUSH0 DUP1 REVERT JUMPDEST POP POP DUP1 CALLDATALOAD SWAP3 PUSH1 0x20 SWAP1 SWAP2 ADD CALLDATALOAD SWAP2 POP JUMP JUMPDEST PUSH4 0x4E487B71 PUSH1 0xE0 SHL PUSH0 MSTORE PUSH1 0x41 PUSH1 0x4 MSTORE PUSH1 0x24 PUSH0 REVERT JUMPDEST PUSH0 DUP1 PUSH0 DUP1 PUSH1 0x80 DUP6 DUP8 SUB SLT ISZERO PUSH2 0x119E JUMPI PUSH0 DUP1 REVERT JUMPDEST PUSH2 0x11A7 DUP6 PUSH2 0x108E JUMP JUMPDEST SWAP4 POP PUSH2 0x11B5 PUSH1 0x20 DUP7 ADD PUSH2 0x108E JUMP JUMPDEST SWAP3 POP PUSH1 0x40 DUP6 ADD CALLDATALOAD SWAP2 POP PUSH1 0x60 DUP6 ADD CALLDATALOAD PUSH8 0xFFFFFFFFFFFFFFFF DUP1 DUP3 GT ISZERO PUSH2 0x11D8 JUMPI PUSH0 DUP1 REVERT JUMPDEST DUP2 DUP8 ADD SWAP2 POP DUP8 PUSH1 0x1F DUP4 ADD SLT PUSH2 0x11EB JUMPI PUSH0 DUP1 REVERT JUMPDEST DUP2 CALLDATALOAD DUP2 DUP2 GT ISZERO PUSH2 0x11FD JUMPI PUSH2 0x11FD PUSH2 0x1177 JUMP JUMPDEST PUSH1 0x40 MLOAD PUSH1 0x1F DUP3 ADD PUSH1 0x1F NOT SWAP1 DUP2 AND PUSH1 0x3F ADD AND DUP2 ADD SWAP1 DUP4 DUP3 GT DUP2 DUP4 LT OR ISZERO PUSH2 0x1225 JUMPI PUSH2 0x1225 PUSH2 0x1177 JUMP JUMPDEST DUP2 PUSH1 0x40 MSTORE DUP3 DUP2 MSTORE DUP11 PUSH1 0x20 DUP5 DUP8 ADD ADD GT ISZERO PUSH2 0x123D JUMPI PUSH0 DUP1 REVERT JUMPDEST DUP3 PUSH1 0x20 DUP7 ADD PUSH1 0x20 DUP4 ADD CALLDATACOPY PUSH0 PUSH1 0x20 DUP5 DUP4 ADD ADD MSTORE DUP1 SWAP6 POP POP POP POP POP POP SWAP3 SWAP6 SWAP2 SWAP5 POP SWAP3 POP JUMP JUMPDEST PUSH0 DUP1 PUSH1 0x40 DUP4 DUP6 SUB SLT ISZERO PUSH2 0x1271 JUMPI PUSH0 DUP1 REVERT JUMPDEST PUSH2 0x127A DUP4 PUSH2 0x108E JUMP JUMPDEST SWAP2 POP PUSH2 0x1288 PUSH1 0x20 DUP5 ADD PUSH2 0x108E JUMP JUMPDEST SWAP1 POP SWAP3 POP SWAP3 SWAP1 POP JUMP JUMPDEST PUSH1 0x1 DUP2 DUP2 SHR SWAP1 DUP3 AND DUP1 PUSH2 0x12A5 JUMPI PUSH1 0x7F DUP3 AND SWAP2 POP JUMPDEST PUSH1 0x20 DUP3 LT DUP2 SUB PUSH2 0x12C3 JUMPI PUSH4 0x4E487B71 PUSH1 0xE0 SHL PUSH0 MSTORE PUSH1 0x22 PUSH1 0x4 MSTORE PUSH1 0x24 PUSH0 REVERT JUMPDEST POP SWAP2 SWAP1 POP JUMP JUMPDEST PUSH0 DUP2 MLOAD DUP1 PUSH1 0x20 DUP5 ADD DUP6 MCOPY PUSH0 SWAP4 ADD SWAP3 DUP4 MSTORE POP SWAP1 SWAP2 SWAP1 POP JUMP JUMPDEST PUSH0 PUSH2 0xE6F PUSH2 0x12EE DUP4 DUP7 PUSH2 0x12C9 JUMP JUMPDEST DUP5 PUSH2 0x12C9 JUMP JUMPDEST PUSH0 DUP2 PUSH2 0x130E JUMPI PUSH4 0x4E487B71 PUSH1 0xE0 SHL PUSH0 MSTORE PUSH1 0x11 PUSH1 0x4 MSTORE PUSH1 0x24 PUSH0 REVERT JUMPDEST POP PUSH0 NOT ADD SWAP1 JUMP JUMPDEST PUSH0 PUSH1 0x1 PUSH1 0x1 PUSH1 0xA0 SHL SUB DUP1 DUP8 AND DUP4 MSTORE DUP1 DUP7 AND PUSH1 0x20 DUP5 ADD MSTORE POP DUP4 PUSH1 0x40 DUP4 ADD MSTORE PUSH1 0x80 PUSH1 0x60 DUP4 ADD MSTORE PUSH2 0x1346 PUSH1 0x80 DUP4 ADD DUP5 PUSH2 0x1037 JUMP JUMPDEST SWAP7 SWAP6 POP POP POP POP POP POP JUMP JUMPDEST PUSH0 PUSH1 0x20 DUP3 DUP5 SUB SLT ISZERO PUSH2 0x1360 JUMPI PUSH0 DUP1 REVERT JUMPDEST DUP2 MLOAD PUSH2 0xAB6 DUP2 PUSH2 0x1007 JUMP INVALID LOG2 PUSH5 0x6970667358 0x22 SLT KECCAK256 0xB4 PUSH9 0xE2BDC02FF23CEA636C GASPRICE 0xF6 0xE7 0xE5 RETURNDATASIZE MSIZE DUP16 MULMOD LOG3 0xC1 0xC3 SDIV DIV 0x2D EXP SSTORE MSTORE8 GT PUSH8 0xC71464736F6C6343 STOP ADDMOD NOT STOP CALLER "
				},
				"gasEstimates": {
					"creation": {
						"codeDepositCost": "1005000",
						"executionCost": "infinite",
						"totalCost": "infinite"
					},
					"external": {
						"approve(address,uint256)": "infinite",
						"balanceOf(address)": "2659",
						"getApproved(uint256)": "infinite",
						"getCreature(uint256)": "9221",
						"getNextCreatureId()": "2336",
						"isApprovedForAll(address,address)": "infinite",
						"mintCreature(uint256)": "infinite",
						"name()": "infinite",
						"ownerOf(uint256)": "infinite",
						"recordBattleResult(uint256,uint256)": "infinite",
						"safeTransferFrom(address,address,uint256)": "infinite",
						"safeTransferFrom(address,address,uint256,bytes)": "infinite",
						"setApprovalForAll(address,bool)": "26649",
						"supportsInterface(bytes4)": "513",
						"symbol()": "infinite",
						"tokenURI(uint256)": "infinite",
						"totalSupply()": "4431",
						"transferFrom(address,address,uint256)": "infinite",
						"unpackBattleRecord(uint256)": "406"
					},
					"internal": {
						"_checkCreatureExists(uint256)": "infinite",
						"_checkCreatureOwned(uint256)": "infinite",
						"packBattleRecord(uint256,uint256)": "infinite"
					}
				},
				"methodIdentifiers": {
					"approve(address,uint256)": "095ea7b3",
					"balanceOf(address)": "70a08231",
					"getApproved(uint256)": "081812fc",
					"getCreature(uint256)": "f052d65a",
					"getNextCreatureId()": "3095fe91",
					"isApprovedForAll(address,address)": "e985e9c5",
					"mintCreature(uint256)": "3beb9327",
					"name()": "06fdde03",
					"ownerOf(uint256)": "6352211e",
					"recordBattleResult(uint256,uint256)": "a32ce491",
					"safeTransferFrom(address,address,uint256)": "42842e0e",
					"safeTransferFrom(address,address,uint256,bytes)": "b88d4fde",
					"setApprovalForAll(address,bool)": "a22cb465",
					"supportsInterface(bytes4)": "01ffc9a7",
					"symbol()": "95d89b41",
					"tokenURI(uint256)": "c87b56dd",
					"totalSupply()": "18160ddd",
					"transferFrom(address,address,uint256)": "23b872dd",
					"unpackBattleRecord(uint256)": "fd499a74"
				}
			},
			"storageLayout": {
				"storage": [
					{
						"astId": 388,
						"contract": "contracts/ContractV/ContractVV2.sol:ContractVV2",
						"label": "_currentIndex",
						"offset": 0,
						"slot": "0",
						"type": "t_uint256"
					},
					{
						"astId": 390,
						"contract": "contracts/ContractV/ContractVV2.sol:ContractVV2",
						"label": "_burnCounter",
						"offset": 0,
						"slot": "1",
						"type": "t_uint256"
					},
					{
						"astId": 392,
						"contract": "contracts/ContractV/ContractVV2.sol:ContractVV2",
						"label": "_name",
						"offset": 0,
						"slot": "2",
						"type": "t_string_storage"
					},
					{
						"astId": 394,
						"contract": "contracts/ContractV/ContractVV2.sol:ContractVV2",
						"label": "_symbol",
						"offset": 0,
						"slot": "3",
						"type": "t_string_storage"
					},
					{
						"astId": 398,
						"contract": "contracts/ContractV/ContractVV2.sol:ContractVV2",
						"label": "_packedOwnerships",
						"offset": 0,
						"slot": "4",
						"type": "t_mapping(t_uint256,t_uint256)"
					},
					{
						"astId": 402,
						"contract": "contracts/ContractV/ContractVV2.sol:ContractVV2",
						"label": "_packedAddressData",
						"offset": 0,
						"slot": "5",
						"type": "t_mapping(t_address,t_uint256)"
					},
					{
						"astId": 407,
						"contract": "contracts/ContractV/ContractVV2.sol:ContractVV2",
						"label": "_tokenApprovals",
						"offset": 0,
						"slot": "6",
						"type": "t_mapping(t_uint256,t_struct(TokenApprovalRef)320_storage)"
					},
					{
						"astId": 413,
						"contract": "contracts/ContractV/ContractVV2.sol:ContractVV2",
						"label": "_operatorApprovals",
						"offset": 0,
						"slot": "7",
						"type": "t_mapping(t_address,t_mapping(t_address,t_bool))"
					},
					{
						"astId": 415,
						"contract": "contracts/ContractV/ContractVV2.sol:ContractVV2",
						"label": "_spotMinted",
						"offset": 0,
						"slot": "8",
						"type": "t_uint256"
					},
					{
						"astId": 18,
						"contract": "contracts/ContractV/ContractVV2.sol:ContractVV2",
						"label": "nextCreatureId",
						"offset": 0,
						"slot": "9",
						"type": "t_uint256"
					},
					{
						"astId": 23,
						"contract": "contracts/ContractV/ContractVV2.sol:ContractVV2",
						"label": "creatures",
						"offset": 0,
						"slot": "10",
						"type": "t_mapping(t_uint256,t_struct(Creature)16_storage)"
					}
				],
				"types": {
					"t_address": {
						"encoding": "inplace",
						"label": "address",
						"numberOfBytes": "20"
					},
					"t_bool": {
						"encoding": "inplace",
						"label": "bool",
						"numberOfBytes": "1"
					},
					"t_mapping(t_address,t_bool)": {
						"encoding": "mapping",
						"key": "t_address",
						"label": "mapping(address => bool)",
						"numberOfBytes": "32",
						"value": "t_bool"
					},
					"t_mapping(t_address,t_mapping(t_address,t_bool))": {
						"encoding": "mapping",
						"key": "t_address",
						"label": "mapping(address => mapping(address => bool))",
						"numberOfBytes": "32",
						"value": "t_mapping(t_address,t_bool)"
					},
					"t_mapping(t_address,t_uint256)": {
						"encoding": "mapping",
						"key": "t_address",
						"label": "mapping(address => uint256)",
						"numberOfBytes": "32",
						"value": "t_uint256"
					},
					"t_mapping(t_uint256,t_struct(Creature)16_storage)": {
						"encoding": "mapping",
						"key": "t_uint256",
						"label": "mapping(uint256 => struct ContractVV2.Creature)",
						"numberOfBytes": "32",
						"value": "t_struct(Creature)16_storage"
					},
					"t_mapping(t_uint256,t_struct(TokenApprovalRef)320_storage)": {
						"encoding": "mapping",
						"key": "t_uint256",
						"label": "mapping(uint256 => struct ERC721A.TokenApprovalRef)",
						"numberOfBytes": "32",
						"value": "t_struct(TokenApprovalRef)320_storage"
					},
					"t_mapping(t_uint256,t_uint256)": {
						"encoding": "mapping",
						"key": "t_uint256",
						"label": "mapping(uint256 => uint256)",
						"numberOfBytes": "32",
						"value": "t_uint256"
					},
					"t_string_storage": {
						"encoding": "bytes",
						"label": "string",
						"numberOfBytes": "32"
					},
					"t_struct(Creature)16_storage": {
						"encoding": "inplace",
						"label": "struct ContractVV2.Creature",
						"members": [
							{
								"astId": 9,
								"contract": "contracts/ContractV/ContractVV2.sol:ContractVV2",
								"label": "id",
								"offset": 0,
								"slot": "0",
								"type": "t_uint256"
							},
							{
								"astId": 11,
								"contract": "contracts/ContractV/ContractVV2.sol:ContractVV2",
								"label": "owner",
								"offset": 0,
								"slot": "1",
								"type": "t_address"
							},
							{
								"astId": 13,
								"contract": "contracts/ContractV/ContractVV2.sol:ContractVV2",
								"label": "gameStats",
								"offset": 0,
								"slot": "2",
								"type": "t_uint256"
							},
							{
								"astId": 15,
								"contract": "contracts/ContractV/ContractVV2.sol:ContractVV2",
								"label": "battleRecord",
								"offset": 0,
								"slot": "3",
								"type": "t_uint256"
							}
						],
						"numberOfBytes": "128"
					},
					"t_struct(TokenApprovalRef)320_storage": {
						"encoding": "inplace",
						"label": "struct ERC721A.TokenApprovalRef",
						"members": [
							{
								"astId": 319,
								"contract": "contracts/ContractV/ContractVV2.sol:ContractVV2",
								"label": "value",
								"offset": 0,
								"slot": "0",
								"type": "t_address"
							}
						],
						"numberOfBytes": "32"
					},
					"t_uint256": {
						"encoding": "inplace",
						"label": "uint256",
						"numberOfBytes": "32"
					}
				}
			},
			"userdoc": {
				"errors": {
					"ApprovalCallerNotOwnerNorApproved()": [
						{
							"notice": "The caller must own the token or be an approved operator."
						}
					],
					"ApprovalQueryForNonexistentToken()": [
						{
							"notice": "The token does not exist."
						}
					],
					"BalanceQueryForZeroAddress()": [
						{
							"notice": "Cannot query the balance for the zero address."
						}
					],
					"MintERC2309QuantityExceedsLimit()": [
						{
							"notice": "The `quantity` minted with ERC2309 exceeds the safety limit."
						}
					],
					"MintToZeroAddress()": [
						{
							"notice": "Cannot mint to the zero address."
						}
					],
					"MintZeroQuantity()": [
						{
							"notice": "The quantity of tokens minted must be more than zero."
						}
					],
					"NotCompatibleWithSpotMints()": [
						{
							"notice": "The feature is not compatible with spot mints."
						}
					],
					"OwnerQueryForNonexistentToken()": [
						{
							"notice": "The token does not exist."
						}
					],
					"OwnershipNotInitializedForExtraData()": [
						{
							"notice": "The `extraData` cannot be set on an unintialized ownership slot."
						}
					],
					"SequentialMintExceedsLimit()": [
						{
							"notice": "The `tokenId` of a sequential mint exceeds `_sequentialUpTo()`."
						}
					],
					"SequentialUpToTooSmall()": [
						{
							"notice": "`_sequentialUpTo()` must be greater than `_startTokenId()`."
						}
					],
					"SpotMintTokenIdTooSmall()": [
						{
							"notice": "Spot minting requires a `tokenId` greater than `_sequentialUpTo()`."
						}
					],
					"TokenAlreadyExists()": [
						{
							"notice": "Cannot mint over a token that already exists."
						}
					],
					"TransferCallerNotOwnerNorApproved()": [
						{
							"notice": "The caller must own the token or be an approved operator."
						}
					],
					"TransferFromIncorrectOwner()": [
						{
							"notice": "The token must be owned by `from`."
						}
					],
					"TransferToNonERC721ReceiverImplementer()": [
						{
							"notice": "Cannot safely transfer to a contract that does not implement the ERC721Receiver interface."
						}
					],
					"TransferToZeroAddress()": [
						{
							"notice": "Cannot transfer to the zero address."
						}
					],
					"URIQueryForNonexistentToken()": [
						{
							"notice": "The token does not exist."
						}
					]
				},
				"kind": "user",
				"methods": {},
				"version": 1
			}
		}
	}
}