{
	"contracts/ContractV/ContractVV1.sol": {
		"ContractVV1": {
			"abi": [
				{
					"inputs": [],
					"stateMutability": "nonpayable",
					"type": "constructor"
				},
				{
					"inputs": [],
					"name": "ApprovalCallerNotOwnerNorApproved",
					"type": "error"
				},
				{
					"inputs": [],
					"name": "ApprovalQueryForNonexistentToken",
					"type": "error"
				},
				{
					"inputs": [],
					"name": "BalanceQueryForZeroAddress",
					"type": "error"
				},
				{
					"inputs": [],
					"name": "CreatureNotOwned",
					"type": "error"
				},
				{
					"inputs": [],
					"name": "MintERC2309QuantityExceedsLimit",
					"type": "error"
				},
				{
					"inputs": [],
					"name": "MintToZeroAddress",
					"type": "error"
				},
				{
					"inputs": [],
					"name": "MintZeroQuantity",
					"type": "error"
				},
				{
					"inputs": [],
					"name": "NotCompatibleWithSpotMints",
					"type": "error"
				},
				{
					"inputs": [],
					"name": "OwnerQueryForNonexistentToken",
					"type": "error"
				},
				{
					"inputs": [],
					"name": "OwnershipNotInitializedForExtraData",
					"type": "error"
				},
				{
					"inputs": [],
					"name": "SequentialMintExceedsLimit",
					"type": "error"
				},
				{
					"inputs": [],
					"name": "SequentialUpToTooSmall",
					"type": "error"
				},
				{
					"inputs": [],
					"name": "SpotMintTokenIdTooSmall",
					"type": "error"
				},
				{
					"inputs": [],
					"name": "TokenAlreadyExists",
					"type": "error"
				},
				{
					"inputs": [],
					"name": "TransferCallerNotOwnerNorApproved",
					"type": "error"
				},
				{
					"inputs": [],
					"name": "TransferFromIncorrectOwner",
					"type": "error"
				},
				{
					"inputs": [],
					"name": "TransferToNonERC721ReceiverImplementer",
					"type": "error"
				},
				{
					"inputs": [],
					"name": "TransferToZeroAddress",
					"type": "error"
				},
				{
					"inputs": [],
					"name": "URIQueryForNonexistentToken",
					"type": "error"
				},
				{
					"anonymous": false,
					"inputs": [
						{
							"indexed": true,
							"internalType": "address",
							"name": "owner",
							"type": "address"
						},
						{
							"indexed": true,
							"internalType": "address",
							"name": "approved",
							"type": "address"
						},
						{
							"indexed": true,
							"internalType": "uint256",
							"name": "tokenId",
							"type": "uint256"
						}
					],
					"name": "Approval",
					"type": "event"
				},
				{
					"anonymous": false,
					"inputs": [
						{
							"indexed": true,
							"internalType": "address",
							"name": "owner",
							"type": "address"
						},
						{
							"indexed": true,
							"internalType": "address",
							"name": "operator",
							"type": "address"
						},
						{
							"indexed": false,
							"internalType": "bool",
							"name": "approved",
							"type": "bool"
						}
					],
					"name": "ApprovalForAll",
					"type": "event"
				},
				{
					"anonymous": false,
					"inputs": [
						{
							"indexed": true,
							"internalType": "uint256",
							"name": "winnerId",
							"type": "uint256"
						},
						{
							"indexed": true,
							"internalType": "uint256",
							"name": "loserId",
							"type": "uint256"
						}
					],
					"name": "BattleResult",
					"type": "event"
				},
				{
					"anonymous": false,
					"inputs": [
						{
							"indexed": true,
							"internalType": "uint256",
							"name": "fromTokenId",
							"type": "uint256"
						},
						{
							"indexed": false,
							"internalType": "uint256",
							"name": "toTokenId",
							"type": "uint256"
						},
						{
							"indexed": true,
							"internalType": "address",
							"name": "from",
							"type": "address"
						},
						{
							"indexed": true,
							"internalType": "address",
							"name": "to",
							"type": "address"
						}
					],
					"name": "ConsecutiveTransfer",
					"type": "event"
				},
				{
					"anonymous": false,
					"inputs": [
						{
							"indexed": true,
							"internalType": "uint256",
							"name": "creatureId",
							"type": "uint256"
						},
						{
							"indexed": true,
							"internalType": "address",
							"name": "owner",
							"type": "address"
						}
					],
					"name": "CreatureCreated",
					"type": "event"
				},
				{
					"anonymous": false,
					"inputs": [
						{
							"indexed": true,
							"internalType": "address",
							"name": "from",
							"type": "address"
						},
						{
							"indexed": true,
							"internalType": "address",
							"name": "to",
							"type": "address"
						},
						{
							"indexed": true,
							"internalType": "uint256",
							"name": "tokenId",
							"type": "uint256"
						}
					],
					"name": "Transfer",
					"type": "event"
				},
				{
					"inputs": [
						{
							"internalType": "address",
							"name": "to",
							"type": "address"
						},
						{
							"internalType": "uint256",
							"name": "tokenId",
							"type": "uint256"
						}
					],
					"name": "approve",
					"outputs": [],
					"stateMutability": "payable",
					"type": "function"
				},
				{
					"inputs": [
						{
							"internalType": "address",
							"name": "owner",
							"type": "address"
						}
					],
					"name": "balanceOf",
					"outputs": [
						{
							"internalType": "uint256",
							"name": "",
							"type": "uint256"
						}
					],
					"stateMutability": "view",
					"type": "function"
				},
				{
					"inputs": [
						{
							"internalType": "uint256",
							"name": "ownerCreatureId",
							"type": "uint256"
						},
						{
							"internalType": "uint256",
							"name": "opponentCreatureId",
							"type": "uint256"
						}
					],
					"name": "battle",
					"outputs": [],
					"stateMutability": "nonpayable",
					"type": "function"
				},
				{
					"inputs": [],
					"name": "createRandomCreature",
					"outputs": [],
					"stateMutability": "nonpayable",
					"type": "function"
				},
				{
					"inputs": [
						{
							"internalType": "uint256",
							"name": "tokenId",
							"type": "uint256"
						}
					],
					"name": "getApproved",
					"outputs": [
						{
							"internalType": "address",
							"name": "",
							"type": "address"
						}
					],
					"stateMutability": "view",
					"type": "function"
				},
				{
					"inputs": [
						{
							"internalType": "uint256",
							"name": "id",
							"type": "uint256"
						}
					],
					"name": "getCreature",
					"outputs": [
						{
							"components": [
								{
									"internalType": "uint256",
									"name": "id",
									"type": "uint256"
								},
								{
									"internalType": "address",
									"name": "owner",
									"type": "address"
								},
								{
									"internalType": "uint256",
									"name": "gameStats",
									"type": "uint256"
								},
								{
									"internalType": "uint256",
									"name": "battleRecord",
									"type": "uint256"
								}
							],
							"internalType": "struct ContractVV1.Creature",
							"name": "",
							"type": "tuple"
						}
					],
					"stateMutability": "view",
					"type": "function"
				},
				{
					"inputs": [],
					"name": "getNextCreatureId",
					"outputs": [
						{
							"internalType": "uint256",
							"name": "",
							"type": "uint256"
						}
					],
					"stateMutability": "view",
					"type": "function"
				},
				{
					"inputs": [
						{
							"internalType": "address",
							"name": "owner",
							"type": "address"
						},
						{
							"internalType": "address",
							"name": "operator",
							"type": "address"
						}
					],
					"name": "isApprovedForAll",
					"outputs": [
						{
							"internalType": "bool",
							"name": "",
							"type": "bool"
						}
					],
					"stateMutability": "view",
					"type": "function"
				},
				{
					"inputs": [],
					"name": "name",
					"outputs": [
						{
							"internalType": "string",
							"name": "",
							"type": "string"
						}
					],
					"stateMutability": "view",
					"type": "function"
				},
				{
					"inputs": [
						{
							"internalType": "uint256",
							"name": "tokenId",
							"type": "uint256"
						}
					],
					"name": "ownerOf",
					"outputs": [
						{
							"internalType": "address",
							"name": "",
							"type": "address"
						}
					],
					"stateMutability": "view",
					"type": "function"
				},
				{
					"inputs": [
						{
							"internalType": "address",
							"name": "from",
							"type": "address"
						},
						{
							"internalType": "address",
							"name": "to",
							"type": "address"
						},
						{
							"internalType": "uint256",
							"name": "tokenId",
							"type": "uint256"
						}
					],
					"name": "safeTransferFrom",
					"outputs": [],
					"stateMutability": "payable",
					"type": "function"
				},
				{
					"inputs": [
						{
							"internalType": "address",
							"name": "from",
							"type": "address"
						},
						{
							"internalType": "address",
							"name": "to",
							"type": "address"
						},
						{
							"internalType": "uint256",
							"name": "tokenId",
							"type": "uint256"
						},
						{
							"internalType": "bytes",
							"name": "_data",
							"type": "bytes"
						}
					],
					"name": "safeTransferFrom",
					"outputs": [],
					"stateMutability": "payable",
					"type": "function"
				},
				{
					"inputs": [
						{
							"internalType": "address",
							"name": "operator",
							"type": "address"
						},
						{
							"internalType": "bool",
							"name": "approved",
							"type": "bool"
						}
					],
					"name": "setApprovalForAll",
					"outputs": [],
					"stateMutability": "nonpayable",
					"type": "function"
				},
				{
					"inputs": [
						{
							"internalType": "bytes4",
							"name": "interfaceId",
							"type": "bytes4"
						}
					],
					"name": "supportsInterface",
					"outputs": [
						{
							"internalType": "bool",
							"name": "",
							"type": "bool"
						}
					],
					"stateMutability": "view",
					"type": "function"
				},
				{
					"inputs": [],
					"name": "symbol",
					"outputs": [
						{
							"internalType": "string",
							"name": "",
							"type": "string"
						}
					],
					"stateMutability": "view",
					"type": "function"
				},
				{
					"inputs": [
						{
							"internalType": "uint256",
							"name": "tokenId",
							"type": "uint256"
						}
					],
					"name": "tokenURI",
					"outputs": [
						{
							"internalType": "string",
							"name": "",
							"type": "string"
						}
					],
					"stateMutability": "view",
					"type": "function"
				},
				{
					"inputs": [],
					"name": "totalSupply",
					"outputs": [
						{
							"internalType": "uint256",
							"name": "result",
							"type": "uint256"
						}
					],
					"stateMutability": "view",
					"type": "function"
				},
				{
					"inputs": [
						{
							"internalType": "address",
							"name": "from",
							"type": "address"
						},
						{
							"internalType": "address",
							"name": "to",
							"type": "address"
						},
						{
							"internalType": "uint256",
							"name": "tokenId",
							"type": "uint256"
						}
					],
					"name": "transferFrom",
					"outputs": [],
					"stateMutability": "payable",
					"type": "function"
				},
				{
					"inputs": [
						{
							"internalType": "uint256",
							"name": "battleRecord",
							"type": "uint256"
						}
					],
					"name": "unpackBattleRecord",
					"outputs": [
						{
							"internalType": "uint256",
							"name": "wins",
							"type": "uint256"
						},
						{
							"internalType": "uint256",
							"name": "losses",
							"type": "uint256"
						}
					],
					"stateMutability": "pure",
					"type": "function"
				},
				{
					"inputs": [
						{
							"internalType": "uint256",
							"name": "gameStats",
							"type": "uint256"
						}
					],
					"name": "unpackGameStats",
					"outputs": [
						{
							"internalType": "uint256",
							"name": "strength",
							"type": "uint256"
						},
						{
							"internalType": "uint256",
							"name": "agility",
							"type": "uint256"
						},
						{
							"internalType": "uint256",
							"name": "intelligence",
							"type": "uint256"
						},
						{
							"internalType": "uint256",
							"name": "specialPower",
							"type": "uint256"
						}
					],
					"stateMutability": "pure",
					"type": "function"
				}
			],
			"devdoc": {
				"events": {
					"Approval(address,address,uint256)": {
						"details": "Emitted when `owner` enables `approved` to manage the `tokenId` token."
					},
					"ApprovalForAll(address,address,bool)": {
						"details": "Emitted when `owner` enables or disables (`approved`) `operator` to manage all of its assets."
					},
					"ConsecutiveTransfer(uint256,uint256,address,address)": {
						"details": "Emitted when tokens in `fromTokenId` to `toTokenId` (inclusive) is transferred from `from` to `to`, as defined in the [ERC2309](https://eips.ethereum.org/EIPS/eip-2309) standard. See {_mintERC2309} for more details."
					},
					"Transfer(address,address,uint256)": {
						"details": "Emitted when `tokenId` token is transferred from `from` to `to`."
					}
				},
				"kind": "dev",
				"methods": {
					"approve(address,uint256)": {
						"details": "Gives permission to `to` to transfer `tokenId` token to another account. See {ERC721A-_approve}. Requirements: - The caller must own the token or be an approved operator."
					},
					"balanceOf(address)": {
						"details": "Returns the number of tokens in `owner`'s account."
					},
					"getApproved(uint256)": {
						"details": "Returns the account approved for `tokenId` token. Requirements: - `tokenId` must exist."
					},
					"isApprovedForAll(address,address)": {
						"details": "Returns if the `operator` is allowed to manage all of the assets of `owner`. See {setApprovalForAll}."
					},
					"name()": {
						"details": "Returns the token collection name."
					},
					"ownerOf(uint256)": {
						"details": "Returns the owner of the `tokenId` token. Requirements: - `tokenId` must exist."
					},
					"safeTransferFrom(address,address,uint256)": {
						"details": "Equivalent to `safeTransferFrom(from, to, tokenId, '')`."
					},
					"safeTransferFrom(address,address,uint256,bytes)": {
						"details": "Safely transfers `tokenId` token from `from` to `to`. Requirements: - `from` cannot be the zero address. - `to` cannot be the zero address. - `tokenId` token must exist and be owned by `from`. - If the caller is not `from`, it must be approved to move this token by either {approve} or {setApprovalForAll}. - If `to` refers to a smart contract, it must implement {IERC721Receiver-onERC721Received}, which is called upon a safe transfer. Emits a {Transfer} event."
					},
					"setApprovalForAll(address,bool)": {
						"details": "Approve or remove `operator` as an operator for the caller. Operators can call {transferFrom} or {safeTransferFrom} for any token owned by the caller. Requirements: - The `operator` cannot be the caller. Emits an {ApprovalForAll} event."
					},
					"supportsInterface(bytes4)": {
						"details": "Returns true if this contract implements the interface defined by `interfaceId`. See the corresponding [EIP section](https://eips.ethereum.org/EIPS/eip-165#how-interfaces-are-identified) to learn more about how these ids are created. This function call must use less than 30000 gas."
					},
					"symbol()": {
						"details": "Returns the token collection symbol."
					},
					"tokenURI(uint256)": {
						"details": "Returns the Uniform Resource Identifier (URI) for `tokenId` token."
					},
					"totalSupply()": {
						"details": "Returns the total number of tokens in existence. Burned tokens will reduce the count. To get the total number of tokens minted, please see {_totalMinted}."
					},
					"transferFrom(address,address,uint256)": {
						"details": "Transfers `tokenId` from `from` to `to`. Requirements: - `from` cannot be the zero address. - `to` cannot be the zero address. - `tokenId` token must be owned by `from`. - If the caller is not `from`, it must be approved to move this token by either {approve} or {setApprovalForAll}. Emits a {Transfer} event."
					}
				},
				"version": 1
			},
			"evm": {
				"assembly": "    /* \"contracts/ContractV/ContractVV1.sol\":252:7505  contract ContractVV1 is ERC721A, Context {... */\n  mstore(0x40, 0x80)\n    /* \"contracts/ContractV/ContractVV1.sol\":1477:1555  constructor() ERC721A(\"Digiture\", \"DGT\") {... */\n  callvalue\n  dup1\n  iszero\n  tag_1\n  jumpi\n  0x00\n  dup1\n  revert\ntag_1:\n  pop\n    /* \"https://github.com/chiru-labs/ERC721A/blob/main/contracts/ERC721A.sol\":5261:5507  constructor(string memory name_, string memory symbol_) {... */\n  mload(0x40)\n  dup1\n  0x40\n  add\n  0x40\n  mstore\n  dup1\n  0x08\n  dup2\n  mstore\n  0x20\n  add\n  shl(0xc0, 0x4469676974757265)\n  dup2\n  mstore\n  pop\n  mload(0x40)\n  dup1\n  0x40\n  add\n  0x40\n  mstore\n  dup1\n  0x03\n  dup2\n  mstore\n  0x20\n  add\n  shl(0xea, 0x1111d5)\n  dup2\n  mstore\n  pop\n    /* \"https://github.com/chiru-labs/ERC721A/blob/main/contracts/ERC721A.sol\":5335:5340  name_ */\n  dup2\n    /* \"https://github.com/chiru-labs/ERC721A/blob/main/contracts/ERC721A.sol\":5327:5332  _name */\n  0x02\n    /* \"https://github.com/chiru-labs/ERC721A/blob/main/contracts/ERC721A.sol\":5327:5340  _name = name_ */\n  swap1\n  dup2\n  tag_5\n  swap2\n  swap1\n  tag_6\n  jump\t// in\ntag_5:\n  pop\n    /* \"https://github.com/chiru-labs/ERC721A/blob/main/contracts/ERC721A.sol\":5350:5357  _symbol */\n  0x03\n    /* \"https://github.com/chiru-labs/ERC721A/blob/main/contracts/ERC721A.sol\":5350:5367  _symbol = symbol_ */\n  tag_7\n    /* \"https://github.com/chiru-labs/ERC721A/blob/main/contracts/ERC721A.sol\":5360:5367  symbol_ */\n  dup3\n    /* \"https://github.com/chiru-labs/ERC721A/blob/main/contracts/ERC721A.sol\":5350:5357  _symbol */\n  dup3\n    /* \"https://github.com/chiru-labs/ERC721A/blob/main/contracts/ERC721A.sol\":5350:5367  _symbol = symbol_ */\n  tag_6\n  jump\t// in\ntag_7:\n  pop\n  pop\n    /* \"https://github.com/chiru-labs/ERC721A/blob/main/contracts/ERC721A.sol\":6022:6029  uint256 */\n  0x00\n    /* \"https://github.com/chiru-labs/ERC721A/blob/main/contracts/ERC721A.sol\":5377:5408  _currentIndex = _startTokenId() */\n  dup1\n  sstore\n  pop\n    /* \"contracts/ContractV/ContractVV1.sol\":1546:1547  1 */\n  0x01\n    /* \"contracts/ContractV/ContractVV1.sol\":1529:1543  nextCreatureId */\n  0x09\n    /* \"contracts/ContractV/ContractVV1.sol\":1529:1547  nextCreatureId = 1 */\n  sstore\n    /* \"contracts/ContractV/ContractVV1.sol\":252:7505  contract ContractVV1 is ERC721A, Context {... */\n  jump(tag_26)\n    /* \"#utility.yul\":14:141   */\ntag_21:\n    /* \"#utility.yul\":75:85   */\n  0x4e487b71\n    /* \"#utility.yul\":70:73   */\n  0xe0\n    /* \"#utility.yul\":66:86   */\n  shl\n    /* \"#utility.yul\":63:64   */\n  0x00\n    /* \"#utility.yul\":56:87   */\n  mstore\n    /* \"#utility.yul\":106:110   */\n  0x41\n    /* \"#utility.yul\":103:104   */\n  0x04\n    /* \"#utility.yul\":96:111   */\n  mstore\n    /* \"#utility.yul\":130:134   */\n  0x24\n    /* \"#utility.yul\":127:128   */\n  0x00\n    /* \"#utility.yul\":120:135   */\n  revert\n    /* \"#utility.yul\":146:526   */\ntag_22:\n    /* \"#utility.yul\":225:226   */\n  0x01\n    /* \"#utility.yul\":221:233   */\n  dup2\n  dup2\n  shr\n  swap1\n    /* \"#utility.yul\":268:280   */\n  dup3\n  and\n  dup1\n    /* \"#utility.yul\":289:350   */\n  tag_29\n  jumpi\n    /* \"#utility.yul\":343:347   */\n  0x7f\n    /* \"#utility.yul\":335:341   */\n  dup3\n    /* \"#utility.yul\":331:348   */\n  and\n    /* \"#utility.yul\":321:348   */\n  swap2\n  pop\n    /* \"#utility.yul\":289:350   */\ntag_29:\n    /* \"#utility.yul\":396:398   */\n  0x20\n    /* \"#utility.yul\":388:394   */\n  dup3\n    /* \"#utility.yul\":385:399   */\n  lt\n    /* \"#utility.yul\":365:383   */\n  dup2\n    /* \"#utility.yul\":362:400   */\n  sub\n    /* \"#utility.yul\":359:520   */\n  tag_30\n  jumpi\n    /* \"#utility.yul\":442:452   */\n  0x4e487b71\n    /* \"#utility.yul\":437:440   */\n  0xe0\n    /* \"#utility.yul\":433:453   */\n  shl\n    /* \"#utility.yul\":430:431   */\n  0x00\n    /* \"#utility.yul\":423:454   */\n  mstore\n    /* \"#utility.yul\":477:481   */\n  0x22\n    /* \"#utility.yul\":474:475   */\n  0x04\n    /* \"#utility.yul\":467:482   */\n  mstore\n    /* \"#utility.yul\":505:509   */\n  0x24\n    /* \"#utility.yul\":502:503   */\n  0x00\n    /* \"#utility.yul\":495:510   */\n  revert\n    /* \"#utility.yul\":359:520   */\ntag_30:\n  pop\n    /* \"#utility.yul\":146:526   */\n  swap2\n  swap1\n  pop\n  jump\t// out\n    /* \"#utility.yul\":657:1175   */\ntag_24:\n    /* \"#utility.yul\":759:761   */\n  0x1f\n    /* \"#utility.yul\":754:757   */\n  dup3\n    /* \"#utility.yul\":751:762   */\n  gt\n    /* \"#utility.yul\":748:1169   */\n  iszero\n  tag_33\n  jumpi\n    /* \"#utility.yul\":795:800   */\n  dup1\n    /* \"#utility.yul\":792:793   */\n  0x00\n    /* \"#utility.yul\":785:801   */\n  mstore\n    /* \"#utility.yul\":839:843   */\n  0x20\n    /* \"#utility.yul\":836:837   */\n  0x00\n    /* \"#utility.yul\":826:844   */\n  keccak256\n    /* \"#utility.yul\":909:911   */\n  0x1f\n    /* \"#utility.yul\":897:907   */\n  dup5\n    /* \"#utility.yul\":893:912   */\n  add\n    /* \"#utility.yul\":890:891   */\n  0x05\n    /* \"#utility.yul\":886:913   */\n  shr\n    /* \"#utility.yul\":880:884   */\n  dup2\n    /* \"#utility.yul\":876:914   */\n  add\n    /* \"#utility.yul\":945:949   */\n  0x20\n    /* \"#utility.yul\":933:943   */\n  dup6\n    /* \"#utility.yul\":930:950   */\n  lt\n    /* \"#utility.yul\":927:974   */\n  iszero\n  tag_34\n  jumpi\n  pop\n    /* \"#utility.yul\":968:972   */\n  dup1\n    /* \"#utility.yul\":927:974   */\ntag_34:\n    /* \"#utility.yul\":1023:1025   */\n  0x1f\n    /* \"#utility.yul\":1018:1021   */\n  dup5\n    /* \"#utility.yul\":1014:1026   */\n  add\n    /* \"#utility.yul\":1011:1012   */\n  0x05\n    /* \"#utility.yul\":1007:1027   */\n  shr\n    /* \"#utility.yul\":1001:1005   */\n  dup3\n    /* \"#utility.yul\":997:1028   */\n  add\n    /* \"#utility.yul\":987:1028   */\n  swap2\n  pop\n    /* \"#utility.yul\":1078:1159   */\ntag_35:\n    /* \"#utility.yul\":1096:1098   */\n  dup2\n    /* \"#utility.yul\":1089:1094   */\n  dup2\n    /* \"#utility.yul\":1086:1099   */\n  lt\n    /* \"#utility.yul\":1078:1159   */\n  iszero\n  tag_37\n  jumpi\n    /* \"#utility.yul\":1155:1156   */\n  0x00\n    /* \"#utility.yul\":1141:1157   */\n  dup2\n  sstore\n    /* \"#utility.yul\":1122:1123   */\n  0x01\n    /* \"#utility.yul\":1111:1124   */\n  add\n    /* \"#utility.yul\":1078:1159   */\n  jump(tag_35)\ntag_37:\n    /* \"#utility.yul\":1082:1085   */\n  pop\n  pop\n    /* \"#utility.yul\":748:1169   */\ntag_33:\n    /* \"#utility.yul\":657:1175   */\n  pop\n  pop\n  pop\n  jump\t// out\n    /* \"#utility.yul\":1351:2696   */\ntag_6:\n    /* \"#utility.yul\":1471:1481   */\n  dup2\n  mload\n  sub(shl(0x40, 0x01), 0x01)\n    /* \"#utility.yul\":1493:1523   */\n  dup2\n  gt\n    /* \"#utility.yul\":1490:1546   */\n  iszero\n  tag_41\n  jumpi\n    /* \"#utility.yul\":1526:1544   */\n  tag_41\n  tag_21\n  jump\t// in\ntag_41:\n    /* \"#utility.yul\":1555:1652   */\n  tag_42\n    /* \"#utility.yul\":1645:1651   */\n  dup2\n    /* \"#utility.yul\":1605:1643   */\n  tag_43\n    /* \"#utility.yul\":1637:1641   */\n  dup5\n    /* \"#utility.yul\":1631:1642   */\n  sload\n    /* \"#utility.yul\":1605:1643   */\n  tag_22\n  jump\t// in\ntag_43:\n    /* \"#utility.yul\":1599:1603   */\n  dup5\n    /* \"#utility.yul\":1555:1652   */\n  tag_24\n  jump\t// in\ntag_42:\n    /* \"#utility.yul\":1707:1711   */\n  0x20\n  dup1\n    /* \"#utility.yul\":1764:1766   */\n  0x1f\n    /* \"#utility.yul\":1753:1767   */\n  dup4\n  gt\n    /* \"#utility.yul\":1781:1782   */\n  0x01\n    /* \"#utility.yul\":1776:2439   */\n  dup2\n  eq\n  tag_45\n  jumpi\n    /* \"#utility.yul\":2483:2484   */\n  0x00\n    /* \"#utility.yul\":2500:2506   */\n  dup5\n    /* \"#utility.yul\":2497:2586   */\n  iszero\n  tag_46\n  jumpi\n  pop\n    /* \"#utility.yul\":2552:2571   */\n  dup6\n  dup4\n  add\n    /* \"#utility.yul\":2546:2572   */\n  mload\n    /* \"#utility.yul\":2497:2586   */\ntag_46:\n  not(0x00)\n    /* \"#utility.yul\":1308:1309   */\n  0x03\n    /* \"#utility.yul\":1304:1315   */\n  dup7\n  swap1\n  shl\n    /* \"#utility.yul\":1300:1324   */\n  shr\n    /* \"#utility.yul\":1296:1325   */\n  not\n    /* \"#utility.yul\":1286:1326   */\n  and\n    /* \"#utility.yul\":1332:1333   */\n  0x01\n    /* \"#utility.yul\":1328:1339   */\n  dup6\n  swap1\n  shl\n    /* \"#utility.yul\":1283:1340   */\n  or\n    /* \"#utility.yul\":2599:2680   */\n  dup6\n  sstore\n    /* \"#utility.yul\":1746:2690   */\n  jump(tag_44)\n    /* \"#utility.yul\":1776:2439   */\ntag_45:\n    /* \"#utility.yul\":604:605   */\n  0x00\n    /* \"#utility.yul\":597:611   */\n  dup6\n  dup2\n  mstore\n    /* \"#utility.yul\":641:645   */\n  0x20\n    /* \"#utility.yul\":628:646   */\n  dup2\n  keccak256\n  not(0x1f)\n    /* \"#utility.yul\":1812:1832   */\n  dup7\n  and\n  swap2\n    /* \"#utility.yul\":1930:2166   */\ntag_49:\n    /* \"#utility.yul\":1944:1951   */\n  dup3\n    /* \"#utility.yul\":1941:1942   */\n  dup2\n    /* \"#utility.yul\":1938:1952   */\n  lt\n    /* \"#utility.yul\":1930:2166   */\n  iszero\n  tag_51\n  jumpi\n    /* \"#utility.yul\":2033:2052   */\n  dup9\n  dup7\n  add\n    /* \"#utility.yul\":2027:2053   */\n  mload\n    /* \"#utility.yul\":2012:2054   */\n  dup3\n  sstore\n    /* \"#utility.yul\":2125:2152   */\n  swap5\n  dup5\n  add\n  swap5\n    /* \"#utility.yul\":2093:2094   */\n  0x01\n    /* \"#utility.yul\":2081:2095   */\n  swap1\n  swap2\n  add\n  swap1\n    /* \"#utility.yul\":1960:1979   */\n  dup5\n  add\n    /* \"#utility.yul\":1930:2166   */\n  jump(tag_49)\ntag_51:\n    /* \"#utility.yul\":1934:1937   */\n  pop\n    /* \"#utility.yul\":2194:2200   */\n  dup6\n    /* \"#utility.yul\":2185:2192   */\n  dup3\n    /* \"#utility.yul\":2182:2201   */\n  lt\n    /* \"#utility.yul\":2179:2380   */\n  iszero\n  tag_52\n  jumpi\n    /* \"#utility.yul\":2255:2274   */\n  dup8\n  dup6\n  add\n    /* \"#utility.yul\":2249:2275   */\n  mload\n  not(0x00)\n    /* \"#utility.yul\":2338:2339   */\n  0x03\n    /* \"#utility.yul\":2334:2348   */\n  dup9\n  swap1\n  shl\n    /* \"#utility.yul\":2350:2353   */\n  0xf8\n    /* \"#utility.yul\":2330:2354   */\n  and\n    /* \"#utility.yul\":2326:2363   */\n  shr\n    /* \"#utility.yul\":2322:2364   */\n  not\n    /* \"#utility.yul\":2307:2365   */\n  and\n    /* \"#utility.yul\":2292:2366   */\n  dup2\n  sstore\n    /* \"#utility.yul\":2179:2380   */\ntag_52:\n  pop\n  pop\n    /* \"#utility.yul\":2426:2427   */\n  0x01\n    /* \"#utility.yul\":2417:2423   */\n  dup5\n    /* \"#utility.yul\":2414:2415   */\n  0x01\n    /* \"#utility.yul\":2410:2424   */\n  shl\n    /* \"#utility.yul\":2406:2428   */\n  add\n    /* \"#utility.yul\":2400:2404   */\n  dup6\n    /* \"#utility.yul\":2393:2429   */\n  sstore\n    /* \"#utility.yul\":1746:2690   */\ntag_44:\n  pop\n  pop\n  pop\n  pop\n    /* \"#utility.yul\":1351:2696   */\n  pop\n  pop\n  jump\t// out\ntag_26:\n    /* \"contracts/ContractV/ContractVV1.sol\":252:7505  contract ContractVV1 is ERC721A, Context {... */\n  dataSize(sub_0)\n  dup1\n  dataOffset(sub_0)\n  0x00\n  codecopy\n  0x00\n  return\nstop\n\nsub_0: assembly {\n        /* \"contracts/ContractV/ContractVV1.sol\":252:7505  contract ContractVV1 is ERC721A, Context {... */\n      mstore(0x40, 0x80)\n      jumpi(tag_1, lt(calldatasize, 0x04))\n      shr(0xe0, calldataload(0x00))\n      dup1\n      0x4ecbc664\n      gt\n      tag_22\n      jumpi\n      dup1\n      0xb88d4fde\n      gt\n      tag_23\n      jumpi\n      dup1\n      0xe985e9c5\n      gt\n      tag_24\n      jumpi\n      dup1\n      0xe985e9c5\n      eq\n      tag_19\n      jumpi\n      dup1\n      0xf052d65a\n      eq\n      tag_20\n      jumpi\n      dup1\n      0xfd499a74\n      eq\n      tag_21\n      jumpi\n      0x00\n      dup1\n      revert\n    tag_24:\n      dup1\n      0xb88d4fde\n      eq\n      tag_17\n      jumpi\n      dup1\n      0xc87b56dd\n      eq\n      tag_18\n      jumpi\n      0x00\n      dup1\n      revert\n    tag_23:\n      dup1\n      0x70a08231\n      gt\n      tag_25\n      jumpi\n      dup1\n      0x70a08231\n      eq\n      tag_14\n      jumpi\n      dup1\n      0x95d89b41\n      eq\n      tag_15\n      jumpi\n      dup1\n      0xa22cb465\n      eq\n      tag_16\n      jumpi\n      0x00\n      dup1\n      revert\n    tag_25:\n      dup1\n      0x4ecbc664\n      eq\n      tag_12\n      jumpi\n      dup1\n      0x6352211e\n      eq\n      tag_13\n      jumpi\n      0x00\n      dup1\n      revert\n    tag_22:\n      dup1\n      0x23b872dd\n      gt\n      tag_26\n      jumpi\n      dup1\n      0x3095fe91\n      gt\n      tag_27\n      jumpi\n      dup1\n      0x3095fe91\n      eq\n      tag_9\n      jumpi\n      dup1\n      0x42842e0e\n      eq\n      tag_10\n      jumpi\n      dup1\n      0x42e29b4e\n      eq\n      tag_11\n      jumpi\n      0x00\n      dup1\n      revert\n    tag_27:\n      dup1\n      0x23b872dd\n      eq\n      tag_7\n      jumpi\n      dup1\n      0x2a0c5221\n      eq\n      tag_8\n      jumpi\n      0x00\n      dup1\n      revert\n    tag_26:\n      dup1\n      0x081812fc\n      gt\n      tag_28\n      jumpi\n      dup1\n      0x081812fc\n      eq\n      tag_4\n      jumpi\n      dup1\n      0x095ea7b3\n      eq\n      tag_5\n      jumpi\n      dup1\n      0x18160ddd\n      eq\n      tag_6\n      jumpi\n      0x00\n      dup1\n      revert\n    tag_28:\n      dup1\n      0x01ffc9a7\n      eq\n      tag_2\n      jumpi\n      dup1\n      0x06fdde03\n      eq\n      tag_3\n      jumpi\n    tag_1:\n      0x00\n      dup1\n      revert\n        /* \"https://github.com/chiru-labs/ERC721A/blob/main/contracts/ERC721A.sol\":10689:11319  function supportsInterface(bytes4 interfaceId) public view virtual override returns (bool) {... */\n    tag_2:\n      callvalue\n      dup1\n      iszero\n      tag_29\n      jumpi\n      0x00\n      dup1\n      revert\n    tag_29:\n      pop\n      tag_30\n      tag_31\n      calldatasize\n      0x04\n      tag_32\n      jump\t// in\n    tag_31:\n      tag_33\n      jump\t// in\n    tag_30:\n      mload(0x40)\n        /* \"#utility.yul\":611:625   */\n      swap1\n      iszero\n        /* \"#utility.yul\":604:626   */\n      iszero\n        /* \"#utility.yul\":586:627   */\n      dup2\n      mstore\n        /* \"#utility.yul\":574:576   */\n      0x20\n        /* \"#utility.yul\":559:577   */\n      add\n        /* \"https://github.com/chiru-labs/ERC721A/blob/main/contracts/ERC721A.sol\":10689:11319  function supportsInterface(bytes4 interfaceId) public view virtual override returns (bool) {... */\n    tag_34:\n      mload(0x40)\n      dup1\n      swap2\n      sub\n      swap1\n      return\n        /* \"https://github.com/chiru-labs/ERC721A/blob/main/contracts/ERC721A.sol\":11573:11671  function name() public view virtual override returns (string memory) {... */\n    tag_3:\n      callvalue\n      dup1\n      iszero\n      tag_36\n      jumpi\n      0x00\n      dup1\n      revert\n    tag_36:\n      pop\n      tag_37\n      tag_38\n      jump\t// in\n    tag_37:\n      mload(0x40)\n      tag_34\n      swap2\n      swap1\n      tag_40\n      jump\t// in\n        /* \"https://github.com/chiru-labs/ERC721A/blob/main/contracts/ERC721A.sol\":18636:18859  function getApproved(uint256 tokenId) public view virtual override returns (address) {... */\n    tag_4:\n      callvalue\n      dup1\n      iszero\n      tag_41\n      jumpi\n      0x00\n      dup1\n      revert\n    tag_41:\n      pop\n      tag_42\n      tag_43\n      calldatasize\n      0x04\n      tag_44\n      jump\t// in\n    tag_43:\n      tag_45\n      jump\t// in\n    tag_42:\n      mload(0x40)\n      sub(shl(0xa0, 0x01), 0x01)\n        /* \"#utility.yul\":1528:1583   */\n      swap1\n      swap2\n      and\n        /* \"#utility.yul\":1510:1584   */\n      dup2\n      mstore\n        /* \"#utility.yul\":1498:1500   */\n      0x20\n        /* \"#utility.yul\":1483:1501   */\n      add\n        /* \"https://github.com/chiru-labs/ERC721A/blob/main/contracts/ERC721A.sol\":18636:18859  function getApproved(uint256 tokenId) public view virtual override returns (address) {... */\n      tag_34\n        /* \"#utility.yul\":1364:1590   */\n      jump\n        /* \"https://github.com/chiru-labs/ERC721A/blob/main/contracts/ERC721A.sol\":18364:18486  function approve(address to, uint256 tokenId) public payable virtual override {... */\n    tag_5:\n      tag_48\n      tag_49\n      calldatasize\n      0x04\n      tag_50\n      jump\t// in\n    tag_49:\n      tag_51\n      jump\t// in\n    tag_48:\n      stop\n        /* \"https://github.com/chiru-labs/ERC721A/blob/main/contracts/ERC721A.sol\":6890:7454  function totalSupply() public view virtual override returns (uint256 result) {... */\n    tag_6:\n      callvalue\n      dup1\n      iszero\n      tag_52\n      jumpi\n      0x00\n      dup1\n      revert\n    tag_52:\n      pop\n        /* \"https://github.com/chiru-labs/ERC721A/blob/main/contracts/ERC721A.sol\":7328:7340  _burnCounter */\n      sload(0x01)\n        /* \"https://github.com/chiru-labs/ERC721A/blob/main/contracts/ERC721A.sol\":6951:6965  uint256 result */\n      0x00\n        /* \"https://github.com/chiru-labs/ERC721A/blob/main/contracts/ERC721A.sol\":7312:7325  _currentIndex */\n      sload\n        /* \"https://github.com/chiru-labs/ERC721A/blob/main/contracts/ERC721A.sol\":7312:7340  _currentIndex - _burnCounter */\n      sub\n        /* \"https://github.com/chiru-labs/ERC721A/blob/main/contracts/ERC721A.sol\":6890:7454  function totalSupply() public view virtual override returns (uint256 result) {... */\n    tag_53:\n      mload(0x40)\n        /* \"#utility.yul\":2201:2226   */\n      swap1\n      dup2\n      mstore\n        /* \"#utility.yul\":2189:2191   */\n      0x20\n        /* \"#utility.yul\":2174:2192   */\n      add\n        /* \"https://github.com/chiru-labs/ERC721A/blob/main/contracts/ERC721A.sol\":6890:7454  function totalSupply() public view virtual override returns (uint256 result) {... */\n      tag_34\n        /* \"#utility.yul\":2055:2232   */\n      jump\n        /* \"https://github.com/chiru-labs/ERC721A/blob/main/contracts/ERC721A.sol\":22796:26243  function transferFrom(... */\n    tag_7:\n      tag_48\n      tag_58\n      calldatasize\n      0x04\n      tag_59\n      jump\t// in\n    tag_58:\n      tag_60\n      jump\t// in\n        /* \"contracts/ContractV/ContractVV1.sol\":5739:6905  function battle(uint256 ownerCreatureId, uint256 opponentCreatureId) external onlyOwnedCreature(ownerCreatureId) {... */\n    tag_8:\n      callvalue\n      dup1\n      iszero\n      tag_61\n      jumpi\n      0x00\n      dup1\n      revert\n    tag_61:\n      pop\n      tag_48\n      tag_63\n      calldatasize\n      0x04\n      tag_64\n      jump\t// in\n    tag_63:\n      tag_65\n      jump\t// in\n        /* \"contracts/ContractV/ContractVV1.sol\":1563:1664  function getNextCreatureId() external view returns (uint256) {... */\n    tag_9:\n      callvalue\n      dup1\n      iszero\n      tag_66\n      jumpi\n      0x00\n      dup1\n      revert\n    tag_66:\n      pop\n        /* \"contracts/ContractV/ContractVV1.sol\":1642:1656  nextCreatureId */\n      sload(0x09)\n        /* \"contracts/ContractV/ContractVV1.sol\":1563:1664  function getNextCreatureId() external view returns (uint256) {... */\n      jump(tag_53)\n        /* \"https://github.com/chiru-labs/ERC721A/blob/main/contracts/ERC721A.sol\":26334:26521  function safeTransferFrom(... */\n    tag_10:\n      tag_48\n      tag_71\n      calldatasize\n      0x04\n      tag_59\n      jump\t// in\n    tag_71:\n      tag_72\n      jump\t// in\n        /* \"contracts/ContractV/ContractVV1.sol\":2939:3584  function unpackGameStats(uint256 gameStats) public pure returns (... */\n    tag_11:\n      callvalue\n      dup1\n      iszero\n      tag_73\n      jumpi\n      0x00\n      dup1\n      revert\n    tag_73:\n      pop\n      tag_74\n      tag_75\n      calldatasize\n      0x04\n      tag_44\n      jump\t// in\n    tag_75:\n        /* \"contracts/ContractV/ContractVV1.sol\":3286:3304  sub(shl(64, 1), 1) */\n      0xffffffffffffffff\n        /* \"contracts/ContractV/ContractVV1.sol\":3249:3305  and(shr(STRENGTH_BITPOS, gameStats), sub(shl(64, 1), 1)) */\n      dup2\n      dup2\n      and\n      swap3\n        /* \"contracts/ContractV/ContractVV1.sol\":3294:3296  64 */\n      0x40\n        /* \"contracts/ContractV/ContractVV1.sol\":3334:3364  shr(AGILITY_BITPOS, gameStats) */\n      dup4\n      swap1\n      shr\n        /* \"contracts/ContractV/ContractVV1.sol\":3330:3385  and(shr(AGILITY_BITPOS, gameStats), sub(shl(64, 1), 1)) */\n      dup3\n      and\n      swap3\n        /* \"contracts/ContractV/ContractVV1.sol\":3423:3442  INTELLIGENCE_BITPOS */\n      0x80\n        /* \"contracts/ContractV/ContractVV1.sol\":3419:3454  shr(INTELLIGENCE_BITPOS, gameStats) */\n      dup2\n      swap1\n      shr\n        /* \"contracts/ContractV/ContractVV1.sol\":3415:3475  and(shr(INTELLIGENCE_BITPOS, gameStats), sub(shl(64, 1), 1)) */\n      swap1\n      swap3\n      and\n      swap2\n        /* \"contracts/ContractV/ContractVV1.sol\":3513:3533  SPECIAL_POWER_BITPOS */\n      0xc0\n        /* \"contracts/ContractV/ContractVV1.sol\":3509:3545  shr(SPECIAL_POWER_BITPOS, gameStats) */\n      shr\n      swap1\n        /* \"contracts/ContractV/ContractVV1.sol\":2939:3584  function unpackGameStats(uint256 gameStats) public pure returns (... */\n      jump\n    tag_74:\n      0x40\n      dup1\n      mload\n        /* \"#utility.yul\":3054:3079   */\n      swap5\n      dup6\n      mstore\n        /* \"#utility.yul\":3110:3112   */\n      0x20\n        /* \"#utility.yul\":3095:3113   */\n      dup6\n      add\n        /* \"#utility.yul\":3088:3122   */\n      swap4\n      swap1\n      swap4\n      mstore\n        /* \"#utility.yul\":3138:3156   */\n      swap2\n      dup4\n      add\n        /* \"#utility.yul\":3131:3165   */\n      mstore\n        /* \"#utility.yul\":3196:3198   */\n      0x60\n        /* \"#utility.yul\":3181:3199   */\n      dup3\n      add\n        /* \"#utility.yul\":3174:3208   */\n      mstore\n        /* \"#utility.yul\":3041:3044   */\n      0x80\n        /* \"#utility.yul\":3026:3045   */\n      add\n        /* \"contracts/ContractV/ContractVV1.sol\":2939:3584  function unpackGameStats(uint256 gameStats) public pure returns (... */\n      tag_34\n        /* \"#utility.yul\":2823:3214   */\n      jump\n        /* \"contracts/ContractV/ContractVV1.sol\":4728:5695  function createRandomCreature() external {... */\n    tag_12:\n      callvalue\n      dup1\n      iszero\n      tag_79\n      jumpi\n      0x00\n      dup1\n      revert\n    tag_79:\n      pop\n      tag_48\n      tag_81\n      jump\t// in\n        /* \"https://github.com/chiru-labs/ERC721A/blob/main/contracts/ERC721A.sol\":12934:13084  function ownerOf(uint256 tokenId) public view virtual override returns (address) {... */\n    tag_13:\n      callvalue\n      dup1\n      iszero\n      tag_82\n      jumpi\n      0x00\n      dup1\n      revert\n    tag_82:\n      pop\n      tag_42\n      tag_84\n      calldatasize\n      0x04\n      tag_44\n      jump\t// in\n    tag_84:\n      tag_85\n      jump\t// in\n        /* \"https://github.com/chiru-labs/ERC721A/blob/main/contracts/ERC721A.sol\":8570:8809  function balanceOf(address owner) public view virtual override returns (uint256) {... */\n    tag_14:\n      callvalue\n      dup1\n      iszero\n      tag_87\n      jumpi\n      0x00\n      dup1\n      revert\n    tag_87:\n      pop\n      tag_53\n      tag_89\n      calldatasize\n      0x04\n      tag_90\n      jump\t// in\n    tag_89:\n      tag_91\n      jump\t// in\n        /* \"https://github.com/chiru-labs/ERC721A/blob/main/contracts/ERC721A.sol\":11742:11844  function symbol() public view virtual override returns (string memory) {... */\n    tag_15:\n      callvalue\n      dup1\n      iszero\n      tag_93\n      jumpi\n      0x00\n      dup1\n      revert\n    tag_93:\n      pop\n      tag_37\n      tag_95\n      jump\t// in\n        /* \"https://github.com/chiru-labs/ERC721A/blob/main/contracts/ERC721A.sol\":19186:19417  function setApprovalForAll(address operator, bool approved) public virtual override {... */\n    tag_16:\n      callvalue\n      dup1\n      iszero\n      tag_97\n      jumpi\n      0x00\n      dup1\n      revert\n    tag_97:\n      pop\n      tag_48\n      tag_99\n      calldatasize\n      0x04\n      tag_100\n      jump\t// in\n    tag_99:\n      tag_101\n      jump\t// in\n        /* \"https://github.com/chiru-labs/ERC721A/blob/main/contracts/ERC721A.sol\":27102:27507  function safeTransferFrom(... */\n    tag_17:\n      tag_48\n      tag_103\n      calldatasize\n      0x04\n      tag_104\n      jump\t// in\n    tag_103:\n      tag_105\n      jump\t// in\n        /* \"https://github.com/chiru-labs/ERC721A/blob/main/contracts/ERC721A.sol\":11945:12267  function tokenURI(uint256 tokenId) public view virtual override returns (string memory) {... */\n    tag_18:\n      callvalue\n      dup1\n      iszero\n      tag_106\n      jumpi\n      0x00\n      dup1\n      revert\n    tag_106:\n      pop\n      tag_37\n      tag_108\n      calldatasize\n      0x04\n      tag_44\n      jump\t// in\n    tag_108:\n      tag_109\n      jump\t// in\n        /* \"https://github.com/chiru-labs/ERC721A/blob/main/contracts/ERC721A.sol\":19567:19729  function isApprovedForAll(address owner, address operator) public view virtual override returns (bool) {... */\n    tag_19:\n      callvalue\n      dup1\n      iszero\n      tag_111\n      jumpi\n      0x00\n      dup1\n      revert\n    tag_111:\n      pop\n      tag_30\n      tag_113\n      calldatasize\n      0x04\n      tag_114\n      jump\t// in\n    tag_113:\n      sub(shl(0xa0, 0x01), 0x01)\n        /* \"https://github.com/chiru-labs/ERC721A/blob/main/contracts/ERC721A.sol\":19687:19712  _operatorApprovals[owner] */\n      swap2\n      dup3\n      and\n        /* \"https://github.com/chiru-labs/ERC721A/blob/main/contracts/ERC721A.sol\":19664:19668  bool */\n      0x00\n        /* \"https://github.com/chiru-labs/ERC721A/blob/main/contracts/ERC721A.sol\":19687:19712  _operatorApprovals[owner] */\n      swap1\n      dup2\n      mstore\n        /* \"https://github.com/chiru-labs/ERC721A/blob/main/contracts/ERC721A.sol\":19687:19705  _operatorApprovals */\n      0x07\n        /* \"https://github.com/chiru-labs/ERC721A/blob/main/contracts/ERC721A.sol\":19687:19712  _operatorApprovals[owner] */\n      0x20\n      swap1\n      dup2\n      mstore\n      0x40\n      dup1\n      dup4\n      keccak256\n        /* \"https://github.com/chiru-labs/ERC721A/blob/main/contracts/ERC721A.sol\":19687:19722  _operatorApprovals[owner][operator] */\n      swap4\n      swap1\n      swap5\n      and\n      dup3\n      mstore\n      swap2\n      swap1\n      swap2\n      mstore\n      keccak256\n      sload\n      0xff\n      and\n      swap1\n        /* \"https://github.com/chiru-labs/ERC721A/blob/main/contracts/ERC721A.sol\":19567:19729  function isApprovedForAll(address owner, address operator) public view virtual override returns (bool) {... */\n      jump\n        /* \"contracts/ContractV/ContractVV1.sol\":1672:1784  function getCreature(uint256 id) external view returns (Creature memory) {... */\n    tag_20:\n      callvalue\n      dup1\n      iszero\n      tag_117\n      jumpi\n      0x00\n      dup1\n      revert\n    tag_117:\n      pop\n      tag_118\n      tag_119\n      calldatasize\n      0x04\n      tag_44\n      jump\t// in\n    tag_119:\n      tag_120\n      jump\t// in\n    tag_118:\n      mload(0x40)\n      tag_34\n      swap2\n      swap1\n        /* \"#utility.yul\":5572:5585   */\n      dup2\n      mload\n        /* \"#utility.yul\":5554:5586   */\n      dup2\n      mstore\n        /* \"#utility.yul\":5646:5650   */\n      0x20\n        /* \"#utility.yul\":5634:5651   */\n      dup1\n      dup4\n      add\n        /* \"#utility.yul\":5628:5652   */\n      mload\n      sub(shl(0xa0, 0x01), 0x01)\n        /* \"#utility.yul\":5624:5697   */\n      and\n        /* \"#utility.yul\":5602:5622   */\n      swap1\n      dup3\n      add\n        /* \"#utility.yul\":5595:5698   */\n      mstore\n        /* \"#utility.yul\":5754:5758   */\n      0x40\n        /* \"#utility.yul\":5742:5759   */\n      dup1\n      dup4\n      add\n        /* \"#utility.yul\":5736:5760   */\n      mload\n        /* \"#utility.yul\":5714:5734   */\n      swap1\n      dup3\n      add\n        /* \"#utility.yul\":5707:5761   */\n      mstore\n        /* \"#utility.yul\":5817:5821   */\n      0x60\n        /* \"#utility.yul\":5805:5822   */\n      swap2\n      dup3\n      add\n        /* \"#utility.yul\":5799:5823   */\n      mload\n        /* \"#utility.yul\":5777:5797   */\n      swap2\n      dup2\n      add\n        /* \"#utility.yul\":5770:5824   */\n      swap2\n      swap1\n      swap2\n      mstore\n        /* \"#utility.yul\":5541:5544   */\n      0x80\n        /* \"#utility.yul\":5526:5545   */\n      add\n      swap1\n        /* \"#utility.yul\":5359:5830   */\n      jump\n        /* \"contracts/ContractV/ContractVV1.sol\":4258:4720  function unpackBattleRecord(uint256 battleRecord) public pure returns (uint256 wins, uint256 losses) {... */\n    tag_21:\n      callvalue\n      dup1\n      iszero\n      tag_123\n      jumpi\n      0x00\n      dup1\n      revert\n    tag_123:\n      pop\n      tag_124\n      tag_125\n      calldatasize\n      0x04\n      tag_44\n      jump\t// in\n    tag_125:\n        /* \"contracts/ContractV/ContractVV1.sol\":4518:4537  sub(shl(128, 1), 1) */\n      0xffffffffffffffffffffffffffffffff\n        /* \"contracts/ContractV/ContractVV1.sol\":4482:4538  and(shr(WINS_BITPOS, battleRecord), sub(shl(128, 1), 1)) */\n      dup2\n      and\n      swap2\n        /* \"contracts/ContractV/ContractVV1.sol\":4526:4529  128 */\n      0x80\n        /* \"contracts/ContractV/ContractVV1.sol\":4648:4680  shr(LOSSES_BITPOS, battleRecord) */\n      swap2\n      swap1\n      swap2\n      shr\n      swap1\n        /* \"contracts/ContractV/ContractVV1.sol\":4258:4720  function unpackBattleRecord(uint256 battleRecord) public pure returns (uint256 wins, uint256 losses) {... */\n      jump\n    tag_124:\n      0x40\n      dup1\n      mload\n        /* \"#utility.yul\":6009:6034   */\n      swap3\n      dup4\n      mstore\n        /* \"#utility.yul\":6065:6067   */\n      0x20\n        /* \"#utility.yul\":6050:6068   */\n      dup4\n      add\n        /* \"#utility.yul\":6043:6077   */\n      swap2\n      swap1\n      swap2\n      mstore\n        /* \"#utility.yul\":5982:6000   */\n      add\n        /* \"contracts/ContractV/ContractVV1.sol\":4258:4720  function unpackBattleRecord(uint256 battleRecord) public pure returns (uint256 wins, uint256 losses) {... */\n      tag_34\n        /* \"#utility.yul\":5835:6083   */\n      jump\n        /* \"https://github.com/chiru-labs/ERC721A/blob/main/contracts/ERC721A.sol\":10689:11319  function supportsInterface(bytes4 interfaceId) public view virtual override returns (bool) {... */\n    tag_33:\n        /* \"https://github.com/chiru-labs/ERC721A/blob/main/contracts/ERC721A.sol\":10774:10778  bool */\n      0x00\n        /* \"https://github.com/chiru-labs/ERC721A/blob/main/contracts/ERC721A.sol\":11092:11117  interfaceId == 0x01ffc9a7 */\n      0x01ffc9a700000000000000000000000000000000000000000000000000000000\n      not(sub(shl(0xe0, 0x01), 0x01))\n      dup4\n      and\n      eq\n      dup1\n        /* \"https://github.com/chiru-labs/ERC721A/blob/main/contracts/ERC721A.sol\":11092:11193  interfaceId == 0x01ffc9a7 || // ERC165 interface ID for ERC165.... */\n      tag_130\n      jumpi\n      pop\n        /* \"https://github.com/chiru-labs/ERC721A/blob/main/contracts/ERC721A.sol\":11168:11193  interfaceId == 0x80ac58cd */\n      0x80ac58cd00000000000000000000000000000000000000000000000000000000\n      not(sub(shl(0xe0, 0x01), 0x01))\n      dup4\n      and\n      eq\n        /* \"https://github.com/chiru-labs/ERC721A/blob/main/contracts/ERC721A.sol\":11092:11193  interfaceId == 0x01ffc9a7 || // ERC165 interface ID for ERC165.... */\n    tag_130:\n        /* \"https://github.com/chiru-labs/ERC721A/blob/main/contracts/ERC721A.sol\":11092:11269  interfaceId == 0x01ffc9a7 || // ERC165 interface ID for ERC165.... */\n      dup1\n      tag_131\n      jumpi\n      pop\n        /* \"https://github.com/chiru-labs/ERC721A/blob/main/contracts/ERC721A.sol\":11244:11269  interfaceId == 0x5b5e139f */\n      0x5b5e139f00000000000000000000000000000000000000000000000000000000\n      not(sub(shl(0xe0, 0x01), 0x01))\n      dup4\n      and\n      eq\n        /* \"https://github.com/chiru-labs/ERC721A/blob/main/contracts/ERC721A.sol\":11092:11269  interfaceId == 0x01ffc9a7 || // ERC165 interface ID for ERC165.... */\n    tag_131:\n        /* \"https://github.com/chiru-labs/ERC721A/blob/main/contracts/ERC721A.sol\":11073:11269  return... */\n      swap3\n        /* \"https://github.com/chiru-labs/ERC721A/blob/main/contracts/ERC721A.sol\":10689:11319  function supportsInterface(bytes4 interfaceId) public view virtual override returns (bool) {... */\n      swap2\n      pop\n      pop\n      jump\t// out\n        /* \"https://github.com/chiru-labs/ERC721A/blob/main/contracts/ERC721A.sol\":11573:11671  function name() public view virtual override returns (string memory) {... */\n    tag_38:\n        /* \"https://github.com/chiru-labs/ERC721A/blob/main/contracts/ERC721A.sol\":11627:11640  string memory */\n      0x60\n        /* \"https://github.com/chiru-labs/ERC721A/blob/main/contracts/ERC721A.sol\":11659:11664  _name */\n      0x02\n        /* \"https://github.com/chiru-labs/ERC721A/blob/main/contracts/ERC721A.sol\":11652:11664  return _name */\n      dup1\n      sload\n      tag_133\n      swap1\n      tag_134\n      jump\t// in\n    tag_133:\n      dup1\n      0x1f\n      add\n      0x20\n      dup1\n      swap2\n      div\n      mul\n      0x20\n      add\n      mload(0x40)\n      swap1\n      dup2\n      add\n      0x40\n      mstore\n      dup1\n      swap3\n      swap2\n      swap1\n      dup2\n      dup2\n      mstore\n      0x20\n      add\n      dup3\n      dup1\n      sload\n      tag_135\n      swap1\n      tag_134\n      jump\t// in\n    tag_135:\n      dup1\n      iszero\n      tag_136\n      jumpi\n      dup1\n      0x1f\n      lt\n      tag_137\n      jumpi\n      0x0100\n      dup1\n      dup4\n      sload\n      div\n      mul\n      dup4\n      mstore\n      swap2\n      0x20\n      add\n      swap2\n      jump(tag_136)\n    tag_137:\n      dup3\n      add\n      swap2\n      swap1\n      0x00\n      mstore\n      keccak256(0x00, 0x20)\n      swap1\n    tag_138:\n      dup2\n      sload\n      dup2\n      mstore\n      swap1\n      0x01\n      add\n      swap1\n      0x20\n      add\n      dup1\n      dup4\n      gt\n      tag_138\n      jumpi\n      dup3\n      swap1\n      sub\n      0x1f\n      and\n      dup3\n      add\n      swap2\n    tag_136:\n      pop\n      pop\n      pop\n      pop\n      pop\n      swap1\n      pop\n        /* \"https://github.com/chiru-labs/ERC721A/blob/main/contracts/ERC721A.sol\":11573:11671  function name() public view virtual override returns (string memory) {... */\n      swap1\n      jump\t// out\n        /* \"https://github.com/chiru-labs/ERC721A/blob/main/contracts/ERC721A.sol\":18636:18859  function getApproved(uint256 tokenId) public view virtual override returns (address) {... */\n    tag_45:\n        /* \"https://github.com/chiru-labs/ERC721A/blob/main/contracts/ERC721A.sol\":18712:18719  address */\n      0x00\n        /* \"https://github.com/chiru-labs/ERC721A/blob/main/contracts/ERC721A.sol\":18736:18752  _exists(tokenId) */\n      tag_140\n        /* \"https://github.com/chiru-labs/ERC721A/blob/main/contracts/ERC721A.sol\":18744:18751  tokenId */\n      dup3\n        /* \"https://github.com/chiru-labs/ERC721A/blob/main/contracts/ERC721A.sol\":18736:18743  _exists */\n      tag_141\n        /* \"https://github.com/chiru-labs/ERC721A/blob/main/contracts/ERC721A.sol\":18736:18752  _exists(tokenId) */\n      jump\t// in\n    tag_140:\n        /* \"https://github.com/chiru-labs/ERC721A/blob/main/contracts/ERC721A.sol\":18731:18804  if (!_exists(tokenId)) _revert(ApprovalQueryForNonexistentToken.selector) */\n      tag_143\n      jumpi\n        /* \"https://github.com/chiru-labs/ERC721A/blob/main/contracts/ERC721A.sol\":18754:18804  _revert(ApprovalQueryForNonexistentToken.selector) */\n      tag_143\n        /* \"https://github.com/chiru-labs/ERC721A/blob/main/contracts/ERC721A.sol\":18762:18803  ApprovalQueryForNonexistentToken.selector */\n      0xcf4700e400000000000000000000000000000000000000000000000000000000\n        /* \"https://github.com/chiru-labs/ERC721A/blob/main/contracts/ERC721A.sol\":18754:18761  _revert */\n      tag_144\n        /* \"https://github.com/chiru-labs/ERC721A/blob/main/contracts/ERC721A.sol\":18754:18804  _revert(ApprovalQueryForNonexistentToken.selector) */\n      jump\t// in\n    tag_143:\n      pop\n        /* \"https://github.com/chiru-labs/ERC721A/blob/main/contracts/ERC721A.sol\":18822:18846  _tokenApprovals[tokenId] */\n      0x00\n      swap1\n      dup2\n      mstore\n        /* \"https://github.com/chiru-labs/ERC721A/blob/main/contracts/ERC721A.sol\":18822:18837  _tokenApprovals */\n      0x06\n        /* \"https://github.com/chiru-labs/ERC721A/blob/main/contracts/ERC721A.sol\":18822:18846  _tokenApprovals[tokenId] */\n      0x20\n      mstore\n      0x40\n      swap1\n      keccak256\n        /* \"https://github.com/chiru-labs/ERC721A/blob/main/contracts/ERC721A.sol\":18822:18852  _tokenApprovals[tokenId].value */\n      sload\n      sub(shl(0xa0, 0x01), 0x01)\n      and\n      swap1\n        /* \"https://github.com/chiru-labs/ERC721A/blob/main/contracts/ERC721A.sol\":18636:18859  function getApproved(uint256 tokenId) public view virtual override returns (address) {... */\n      jump\t// out\n        /* \"https://github.com/chiru-labs/ERC721A/blob/main/contracts/ERC721A.sol\":18364:18486  function approve(address to, uint256 tokenId) public payable virtual override {... */\n    tag_51:\n        /* \"https://github.com/chiru-labs/ERC721A/blob/main/contracts/ERC721A.sol\":18452:18479  _approve(to, tokenId, true) */\n      tag_146\n        /* \"https://github.com/chiru-labs/ERC721A/blob/main/contracts/ERC721A.sol\":18461:18463  to */\n      dup3\n        /* \"https://github.com/chiru-labs/ERC721A/blob/main/contracts/ERC721A.sol\":18465:18472  tokenId */\n      dup3\n        /* \"https://github.com/chiru-labs/ERC721A/blob/main/contracts/ERC721A.sol\":18474:18478  true */\n      0x01\n        /* \"https://github.com/chiru-labs/ERC721A/blob/main/contracts/ERC721A.sol\":18452:18460  _approve */\n      tag_147\n        /* \"https://github.com/chiru-labs/ERC721A/blob/main/contracts/ERC721A.sol\":18452:18479  _approve(to, tokenId, true) */\n      jump\t// in\n    tag_146:\n        /* \"https://github.com/chiru-labs/ERC721A/blob/main/contracts/ERC721A.sol\":18364:18486  function approve(address to, uint256 tokenId) public payable virtual override {... */\n      pop\n      pop\n      jump\t// out\n        /* \"https://github.com/chiru-labs/ERC721A/blob/main/contracts/ERC721A.sol\":22796:26243  function transferFrom(... */\n    tag_60:\n        /* \"https://github.com/chiru-labs/ERC721A/blob/main/contracts/ERC721A.sol\":22933:22960  uint256 prevOwnershipPacked */\n      0x00\n        /* \"https://github.com/chiru-labs/ERC721A/blob/main/contracts/ERC721A.sol\":22963:22990  _packedOwnershipOf(tokenId) */\n      tag_155\n        /* \"https://github.com/chiru-labs/ERC721A/blob/main/contracts/ERC721A.sol\":22982:22989  tokenId */\n      dup3\n        /* \"https://github.com/chiru-labs/ERC721A/blob/main/contracts/ERC721A.sol\":22963:22981  _packedOwnershipOf */\n      tag_156\n        /* \"https://github.com/chiru-labs/ERC721A/blob/main/contracts/ERC721A.sol\":22963:22990  _packedOwnershipOf(tokenId) */\n      jump\t// in\n    tag_155:\n      sub(shl(0xa0, 0x01), 0x01)\n        /* \"https://github.com/chiru-labs/ERC721A/blob/main/contracts/ERC721A.sol\":23115:23137  uint256(uint160(from)) */\n      swap5\n      dup6\n      and\n      swap5\n        /* \"https://github.com/chiru-labs/ERC721A/blob/main/contracts/ERC721A.sol\":22933:22990  uint256 prevOwnershipPacked = _packedOwnershipOf(tokenId) */\n      swap1\n      swap2\n      pop\n        /* \"https://github.com/chiru-labs/ERC721A/blob/main/contracts/ERC721A.sol\":23173:23218  address(uint160(prevOwnershipPacked)) != from */\n      dup2\n      and\n      dup5\n      eq\n        /* \"https://github.com/chiru-labs/ERC721A/blob/main/contracts/ERC721A.sol\":23169:23264  if (address(uint160(prevOwnershipPacked)) != from) _revert(TransferFromIncorrectOwner.selector) */\n      tag_158\n      jumpi\n        /* \"https://github.com/chiru-labs/ERC721A/blob/main/contracts/ERC721A.sol\":23220:23264  _revert(TransferFromIncorrectOwner.selector) */\n      tag_158\n        /* \"https://github.com/chiru-labs/ERC721A/blob/main/contracts/ERC721A.sol\":23228:23263  TransferFromIncorrectOwner.selector */\n      0xa114810000000000000000000000000000000000000000000000000000000000\n        /* \"https://github.com/chiru-labs/ERC721A/blob/main/contracts/ERC721A.sol\":23220:23227  _revert */\n      tag_144\n        /* \"https://github.com/chiru-labs/ERC721A/blob/main/contracts/ERC721A.sol\":23220:23264  _revert(TransferFromIncorrectOwner.selector) */\n      jump\t// in\n    tag_158:\n        /* \"https://github.com/chiru-labs/ERC721A/blob/main/contracts/ERC721A.sol\":23276:23303  uint256 approvedAddressSlot */\n      0x00\n        /* \"https://github.com/chiru-labs/ERC721A/blob/main/contracts/ERC721A.sol\":21929:21953  _tokenApprovals[tokenId] */\n      dup3\n      dup2\n      mstore\n        /* \"https://github.com/chiru-labs/ERC721A/blob/main/contracts/ERC721A.sol\":21929:21944  _tokenApprovals */\n      0x06\n        /* \"https://github.com/chiru-labs/ERC721A/blob/main/contracts/ERC721A.sol\":21929:21953  _tokenApprovals[tokenId] */\n      0x20\n      mstore\n      0x40\n      swap1\n      keccak256\n        /* \"https://github.com/chiru-labs/ERC721A/blob/main/contracts/ERC721A.sol\":22153:22179  sload(approvedAddressSlot) */\n      dup1\n      sload\n        /* \"https://github.com/chiru-labs/ERC721A/blob/main/contracts/ERC721A.sol\":47819:47829  msg.sender */\n      caller\n        /* \"https://github.com/chiru-labs/ERC721A/blob/main/contracts/ERC721A.sol\":21566:21596  eq(msgSender, approvedAddress) */\n      dup1\n      dup3\n      eq\n      sub(shl(0xa0, 0x01), 0x01)\n        /* \"https://github.com/chiru-labs/ERC721A/blob/main/contracts/ERC721A.sol\":21263:21291  and(owner, _BITMASK_ADDRESS) */\n      dup9\n      and\n        /* \"https://github.com/chiru-labs/ERC721A/blob/main/contracts/ERC721A.sol\":21544:21564  eq(msgSender, owner) */\n      swap1\n      swap2\n      eq\n        /* \"https://github.com/chiru-labs/ERC721A/blob/main/contracts/ERC721A.sol\":21541:21597  or(eq(msgSender, owner), eq(msgSender, approvedAddress)) */\n      or\n        /* \"https://github.com/chiru-labs/ERC721A/blob/main/contracts/ERC721A.sol\":23459:23647  if (!_isSenderApprovedOrOwner(approvedAddress, from, _msgSenderERC721A()))... */\n      tag_169\n      jumpi\n      sub(shl(0xa0, 0x01), 0x01)\n        /* \"https://github.com/chiru-labs/ERC721A/blob/main/contracts/ERC721A.sol\":19687:19712  _operatorApprovals[owner] */\n      dup7\n      and\n        /* \"https://github.com/chiru-labs/ERC721A/blob/main/contracts/ERC721A.sol\":19664:19668  bool */\n      0x00\n        /* \"https://github.com/chiru-labs/ERC721A/blob/main/contracts/ERC721A.sol\":19687:19712  _operatorApprovals[owner] */\n      swap1\n      dup2\n      mstore\n        /* \"https://github.com/chiru-labs/ERC721A/blob/main/contracts/ERC721A.sol\":19687:19705  _operatorApprovals */\n      0x07\n        /* \"https://github.com/chiru-labs/ERC721A/blob/main/contracts/ERC721A.sol\":19687:19712  _operatorApprovals[owner] */\n      0x20\n      swap1\n      dup2\n      mstore\n      0x40\n      dup1\n      dup4\n      keccak256\n        /* \"https://github.com/chiru-labs/ERC721A/blob/main/contracts/ERC721A.sol\":47819:47829  msg.sender */\n      caller\n        /* \"https://github.com/chiru-labs/ERC721A/blob/main/contracts/ERC721A.sol\":19687:19722  _operatorApprovals[owner][operator] */\n      dup5\n      mstore\n      swap1\n      swap2\n      mstore\n      swap1\n      keccak256\n      sload\n      0xff\n      and\n        /* \"https://github.com/chiru-labs/ERC721A/blob/main/contracts/ERC721A.sol\":23546:23647  if (!isApprovedForAll(from, _msgSenderERC721A())) _revert(TransferCallerNotOwnerNorApproved.selector) */\n      tag_169\n      jumpi\n        /* \"https://github.com/chiru-labs/ERC721A/blob/main/contracts/ERC721A.sol\":23596:23647  _revert(TransferCallerNotOwnerNorApproved.selector) */\n      tag_169\n        /* \"https://github.com/chiru-labs/ERC721A/blob/main/contracts/ERC721A.sol\":23604:23646  TransferCallerNotOwnerNorApproved.selector */\n      0x59c896be00000000000000000000000000000000000000000000000000000000\n        /* \"https://github.com/chiru-labs/ERC721A/blob/main/contracts/ERC721A.sol\":23596:23603  _revert */\n      tag_144\n        /* \"https://github.com/chiru-labs/ERC721A/blob/main/contracts/ERC721A.sol\":23596:23647  _revert(TransferCallerNotOwnerNorApproved.selector) */\n      jump\t// in\n    tag_169:\n        /* \"https://github.com/chiru-labs/ERC721A/blob/main/contracts/ERC721A.sol\":23790:23805  approvedAddress */\n      dup1\n        /* \"https://github.com/chiru-labs/ERC721A/blob/main/contracts/ERC721A.sol\":23787:23944  if approvedAddress {... */\n      iszero\n      tag_172\n      jumpi\n        /* \"https://github.com/chiru-labs/ERC721A/blob/main/contracts/ERC721A.sol\":23928:23929  0 */\n      0x00\n        /* \"https://github.com/chiru-labs/ERC721A/blob/main/contracts/ERC721A.sol\":23907:23926  approvedAddressSlot */\n      dup3\n        /* \"https://github.com/chiru-labs/ERC721A/blob/main/contracts/ERC721A.sol\":23900:23930  sstore(approvedAddressSlot, 0) */\n      sstore\n        /* \"https://github.com/chiru-labs/ERC721A/blob/main/contracts/ERC721A.sol\":23787:23944  if approvedAddress {... */\n    tag_172:\n      sub(shl(0xa0, 0x01), 0x01)\n        /* \"https://github.com/chiru-labs/ERC721A/blob/main/contracts/ERC721A.sol\":24316:24340  _packedAddressData[from] */\n      dup7\n      dup2\n      and\n      0x00\n      swap1\n      dup2\n      mstore\n        /* \"https://github.com/chiru-labs/ERC721A/blob/main/contracts/ERC721A.sol\":24316:24334  _packedAddressData */\n      0x05\n        /* \"https://github.com/chiru-labs/ERC721A/blob/main/contracts/ERC721A.sol\":24316:24340  _packedAddressData[from] */\n      0x20\n      mstore\n      0x40\n      dup1\n      dup3\n      keccak256\n        /* \"https://github.com/chiru-labs/ERC721A/blob/main/contracts/ERC721A.sol\":24314:24340  --_packedAddressData[from] */\n      dup1\n      sload\n      not(0x00)\n      add\n      swap1\n      sstore\n        /* \"https://github.com/chiru-labs/ERC721A/blob/main/contracts/ERC721A.sol\":24384:24406  _packedAddressData[to] */\n      swap2\n      dup8\n      and\n      dup1\n      dup3\n      mstore\n      swap2\n      swap1\n      keccak256\n        /* \"https://github.com/chiru-labs/ERC721A/blob/main/contracts/ERC721A.sol\":24382:24406  ++_packedAddressData[to] */\n      dup1\n      sload\n      0x01\n      add\n      swap1\n      sstore\n        /* \"https://github.com/chiru-labs/ERC721A/blob/main/contracts/ERC721A.sol\":17492:17503  timestamp() */\n      timestamp\n        /* \"https://github.com/chiru-labs/ERC721A/blob/main/contracts/ERC721A.sol\":17467:17490  _BITPOS_START_TIMESTAMP */\n      0xa0\n        /* \"https://github.com/chiru-labs/ERC721A/blob/main/contracts/ERC721A.sol\":17463:17504  shl(_BITPOS_START_TIMESTAMP, timestamp()) */\n      shl\n        /* \"https://github.com/chiru-labs/ERC721A/blob/main/contracts/ERC721A.sol\":17450:17513  or(owner, or(shl(_BITPOS_START_TIMESTAMP, timestamp()), flags)) */\n      or\n      shl(0xe1, 0x01)\n      or\n        /* \"https://github.com/chiru-labs/ERC721A/blob/main/contracts/ERC721A.sol\":24670:24696  _packedOwnerships[tokenId] */\n      0x00\n      dup6\n      dup2\n      mstore\n        /* \"https://github.com/chiru-labs/ERC721A/blob/main/contracts/ERC721A.sol\":24670:24687  _packedOwnerships */\n      0x04\n        /* \"https://github.com/chiru-labs/ERC721A/blob/main/contracts/ERC721A.sol\":24670:24696  _packedOwnerships[tokenId] */\n      0x20\n      mstore\n      0x40\n      dup2\n      keccak256\n        /* \"https://github.com/chiru-labs/ERC721A/blob/main/contracts/ERC721A.sol\":24670:24842  _packedOwnerships[tokenId] = _packOwnershipData(... */\n      swap2\n      swap1\n      swap2\n      sstore\n      shl(0xe1, 0x01)\n        /* \"https://github.com/chiru-labs/ERC721A/blob/main/contracts/ERC721A.sol\":24959:25006  prevOwnershipPacked & _BITMASK_NEXT_INITIALIZED */\n      dup5\n      and\n        /* \"https://github.com/chiru-labs/ERC721A/blob/main/contracts/ERC721A.sol\":24959:25011  prevOwnershipPacked & _BITMASK_NEXT_INITIALIZED == 0 */\n      swap1\n      sub\n        /* \"https://github.com/chiru-labs/ERC721A/blob/main/contracts/ERC721A.sol\":24955:25572  if (prevOwnershipPacked & _BITMASK_NEXT_INITIALIZED == 0) {... */\n      tag_177\n      jumpi\n        /* \"https://github.com/chiru-labs/ERC721A/blob/main/contracts/ERC721A.sol\":25063:25064  1 */\n      0x01\n        /* \"https://github.com/chiru-labs/ERC721A/blob/main/contracts/ERC721A.sol\":25053:25064  tokenId + 1 */\n      dup5\n      add\n        /* \"https://github.com/chiru-labs/ERC721A/blob/main/contracts/ERC721A.sol\":25031:25050  uint256 nextTokenId */\n      0x00\n        /* \"https://github.com/chiru-labs/ERC721A/blob/main/contracts/ERC721A.sol\":25184:25214  _packedOwnerships[nextTokenId] */\n      dup2\n      dup2\n      mstore\n        /* \"https://github.com/chiru-labs/ERC721A/blob/main/contracts/ERC721A.sol\":25184:25201  _packedOwnerships */\n      0x04\n        /* \"https://github.com/chiru-labs/ERC721A/blob/main/contracts/ERC721A.sol\":25184:25214  _packedOwnerships[nextTokenId] */\n      0x20\n      mstore\n      0x40\n      dup2\n      keccak256\n      sload\n        /* \"https://github.com/chiru-labs/ERC721A/blob/main/contracts/ERC721A.sol\":25184:25219  _packedOwnerships[nextTokenId] == 0 */\n      swap1\n      sub\n        /* \"https://github.com/chiru-labs/ERC721A/blob/main/contracts/ERC721A.sol\":25180:25558  if (_packedOwnerships[nextTokenId] == 0) {... */\n      tag_179\n      jumpi\n        /* \"https://github.com/chiru-labs/ERC721A/blob/main/contracts/ERC721A.sol\":25320:25333  _currentIndex */\n      sload(0x00)\n        /* \"https://github.com/chiru-labs/ERC721A/blob/main/contracts/ERC721A.sol\":25305:25316  nextTokenId */\n      dup2\n        /* \"https://github.com/chiru-labs/ERC721A/blob/main/contracts/ERC721A.sol\":25305:25333  nextTokenId != _currentIndex */\n      eq\n        /* \"https://github.com/chiru-labs/ERC721A/blob/main/contracts/ERC721A.sol\":25301:25540  if (nextTokenId != _currentIndex) {... */\n      tag_179\n      jumpi\n        /* \"https://github.com/chiru-labs/ERC721A/blob/main/contracts/ERC721A.sol\":25465:25495  _packedOwnerships[nextTokenId] */\n      0x00\n      dup2\n      dup2\n      mstore\n        /* \"https://github.com/chiru-labs/ERC721A/blob/main/contracts/ERC721A.sol\":25465:25482  _packedOwnerships */\n      0x04\n        /* \"https://github.com/chiru-labs/ERC721A/blob/main/contracts/ERC721A.sol\":25465:25495  _packedOwnerships[nextTokenId] */\n      0x20\n      mstore\n      0x40\n      swap1\n      keccak256\n        /* \"https://github.com/chiru-labs/ERC721A/blob/main/contracts/ERC721A.sol\":25465:25517  _packedOwnerships[nextTokenId] = prevOwnershipPacked */\n      dup5\n      swap1\n      sstore\n        /* \"https://github.com/chiru-labs/ERC721A/blob/main/contracts/ERC721A.sol\":25301:25540  if (nextTokenId != _currentIndex) {... */\n    tag_179:\n        /* \"https://github.com/chiru-labs/ERC721A/blob/main/contracts/ERC721A.sol\":25013:25572  {... */\n      pop\n        /* \"https://github.com/chiru-labs/ERC721A/blob/main/contracts/ERC721A.sol\":24955:25572  if (prevOwnershipPacked & _BITMASK_NEXT_INITIALIZED == 0) {... */\n    tag_177:\n      sub(shl(0xa0, 0x01), 0x01)\n        /* \"https://github.com/chiru-labs/ERC721A/blob/main/contracts/ERC721A.sol\":25700:25720  uint256(uint160(to)) */\n      dup6\n      and\n        /* \"https://github.com/chiru-labs/ERC721A/blob/main/contracts/ERC721A.sol\":26071:26078  tokenId */\n      dup5\n        /* \"https://github.com/chiru-labs/ERC721A/blob/main/contracts/ERC721A.sol\":25700:25720  uint256(uint160(to)) */\n      dup2\n        /* \"https://github.com/chiru-labs/ERC721A/blob/main/contracts/ERC721A.sol\":26003:26007  from */\n      dup9\n        /* \"https://github.com/chiru-labs/ERC721A/blob/main/contracts/ERC721A.sol\":25946:25971  _TRANSFER_EVENT_SIGNATURE */\n      0xddf252ad1be2c89b69c2b068fc378daa952ba7f163c4a11628f55a4df523b3ef\n        /* \"https://github.com/chiru-labs/ERC721A/blob/main/contracts/ERC721A.sol\":25681:25697  uint256 toMasked */\n      0x00\n      dup1\n        /* \"https://github.com/chiru-labs/ERC721A/blob/main/contracts/ERC721A.sol\":25814:26106  log4(... */\n      log4\n        /* \"https://github.com/chiru-labs/ERC721A/blob/main/contracts/ERC721A.sol\":26129:26137  toMasked */\n      dup1\n        /* \"https://github.com/chiru-labs/ERC721A/blob/main/contracts/ERC721A.sol\":26141:26142  0 */\n      0x00\n        /* \"https://github.com/chiru-labs/ERC721A/blob/main/contracts/ERC721A.sol\":26129:26142  toMasked == 0 */\n      sub\n        /* \"https://github.com/chiru-labs/ERC721A/blob/main/contracts/ERC721A.sol\":26125:26183  if (toMasked == 0) _revert(TransferToZeroAddress.selector) */\n      tag_181\n      jumpi\n        /* \"https://github.com/chiru-labs/ERC721A/blob/main/contracts/ERC721A.sol\":26144:26183  _revert(TransferToZeroAddress.selector) */\n      tag_181\n        /* \"https://github.com/chiru-labs/ERC721A/blob/main/contracts/ERC721A.sol\":26152:26182  TransferToZeroAddress.selector */\n      0xea553b3400000000000000000000000000000000000000000000000000000000\n        /* \"https://github.com/chiru-labs/ERC721A/blob/main/contracts/ERC721A.sol\":26144:26151  _revert */\n      tag_144\n        /* \"https://github.com/chiru-labs/ERC721A/blob/main/contracts/ERC721A.sol\":26144:26183  _revert(TransferToZeroAddress.selector) */\n      jump\t// in\n    tag_181:\n        /* \"https://github.com/chiru-labs/ERC721A/blob/main/contracts/ERC721A.sol\":22923:26243  {... */\n      pop\n      pop\n      pop\n      pop\n        /* \"https://github.com/chiru-labs/ERC721A/blob/main/contracts/ERC721A.sol\":22796:26243  function transferFrom(... */\n      pop\n      pop\n      pop\n      jump\t// out\n        /* \"contracts/ContractV/ContractVV1.sol\":5739:6905  function battle(uint256 ownerCreatureId, uint256 opponentCreatureId) external onlyOwnedCreature(ownerCreatureId) {... */\n    tag_65:\n        /* \"contracts/ContractV/ContractVV1.sol\":5835:5850  ownerCreatureId */\n      dup2\n        /* \"contracts/ContractV/ContractVV1.sol\":1424:1447  _checkCreatureOwned(id) */\n      tag_185\n        /* \"contracts/ContractV/ContractVV1.sol\":1444:1446  id */\n      dup2\n        /* \"contracts/ContractV/ContractVV1.sol\":1424:1443  _checkCreatureOwned */\n      tag_186\n        /* \"contracts/ContractV/ContractVV1.sol\":1424:1447  _checkCreatureOwned(id) */\n      jump\t// in\n    tag_185:\n        /* \"contracts/ContractV/ContractVV1.sol\":5864:5885  uint256 ownerStrength */\n      0x00\n        /* \"contracts/ContractV/ContractVV1.sol\":5981:6007  creatures[ownerCreatureId] */\n      dup4\n      dup2\n      mstore\n        /* \"contracts/ContractV/ContractVV1.sol\":5981:5990  creatures */\n      0x0a\n        /* \"contracts/ContractV/ContractVV1.sol\":5981:6007  creatures[ownerCreatureId] */\n      0x20\n      mstore\n      0x40\n      dup1\n      dup3\n      keccak256\n        /* \"contracts/ContractV/ContractVV1.sol\":5981:6017  creatures[ownerCreatureId].gameStats */\n      0x02\n      swap1\n      dup2\n      add\n      sload\n        /* \"contracts/ContractV/ContractVV1.sol\":6159:6188  creatures[opponentCreatureId] */\n      dup6\n      dup5\n      mstore\n      swap3\n      dup3\n      swap1\n      keccak256\n        /* \"contracts/ContractV/ContractVV1.sol\":6159:6198  creatures[opponentCreatureId].gameStats */\n      add\n      sload\n        /* \"contracts/ContractV/ContractVV1.sol\":3286:3304  sub(shl(64, 1), 1) */\n      0xffffffffffffffff\n        /* \"contracts/ContractV/ContractVV1.sol\":3249:3305  and(shr(STRENGTH_BITPOS, gameStats), sub(shl(64, 1), 1)) */\n      dup1\n      dup5\n      and\n      swap4\n        /* \"contracts/ContractV/ContractVV1.sol\":3334:3364  shr(AGILITY_BITPOS, gameStats) */\n      dup1\n      dup5\n      shr\n        /* \"contracts/ContractV/ContractVV1.sol\":3330:3385  and(shr(AGILITY_BITPOS, gameStats), sub(shl(64, 1), 1)) */\n      dup3\n      and\n      swap4\n        /* \"contracts/ContractV/ContractVV1.sol\":3423:3442  INTELLIGENCE_BITPOS */\n      0x80\n        /* \"contracts/ContractV/ContractVV1.sol\":3419:3454  shr(INTELLIGENCE_BITPOS, gameStats) */\n      dup3\n      dup2\n      shr\n        /* \"contracts/ContractV/ContractVV1.sol\":3415:3475  and(shr(INTELLIGENCE_BITPOS, gameStats), sub(shl(64, 1), 1)) */\n      dup5\n      and\n      swap5\n        /* \"contracts/ContractV/ContractVV1.sol\":3513:3533  SPECIAL_POWER_BITPOS */\n      0xc0\n        /* \"contracts/ContractV/ContractVV1.sol\":3509:3545  shr(SPECIAL_POWER_BITPOS, gameStats) */\n      swap4\n      dup5\n      shr\n      swap5\n        /* \"contracts/ContractV/ContractVV1.sol\":3249:3305  and(shr(STRENGTH_BITPOS, gameStats), sub(shl(64, 1), 1)) */\n      dup1\n      dup3\n      and\n      swap5\n        /* \"contracts/ContractV/ContractVV1.sol\":3334:3364  shr(AGILITY_BITPOS, gameStats) */\n      swap4\n      dup3\n      swap1\n      shr\n        /* \"contracts/ContractV/ContractVV1.sol\":3330:3385  and(shr(AGILITY_BITPOS, gameStats), sub(shl(64, 1), 1)) */\n      dup2\n      and\n      swap4\n        /* \"contracts/ContractV/ContractVV1.sol\":3419:3454  shr(INTELLIGENCE_BITPOS, gameStats) */\n      swap3\n      dup3\n      swap1\n      shr\n        /* \"contracts/ContractV/ContractVV1.sol\":3415:3475  and(shr(INTELLIGENCE_BITPOS, gameStats), sub(shl(64, 1), 1)) */\n      and\n      swap2\n        /* \"contracts/ContractV/ContractVV1.sol\":3509:3545  shr(SPECIAL_POWER_BITPOS, gameStats) */\n      shr\n      dup1\n        /* \"contracts/ContractV/ContractVV1.sol\":3415:3475  and(shr(INTELLIGENCE_BITPOS, gameStats), sub(shl(64, 1), 1)) */\n      dup3\n        /* \"contracts/ContractV/ContractVV1.sol\":6412:6446  opponentStrength + opponentAgility */\n      tag_190\n        /* \"contracts/ContractV/ContractVV1.sol\":3330:3385  and(shr(AGILITY_BITPOS, gameStats), sub(shl(64, 1), 1)) */\n      dup6\n        /* \"contracts/ContractV/ContractVV1.sol\":3249:3305  and(shr(STRENGTH_BITPOS, gameStats), sub(shl(64, 1), 1)) */\n      dup8\n        /* \"contracts/ContractV/ContractVV1.sol\":6412:6446  opponentStrength + opponentAgility */\n      tag_191\n      jump\t// in\n    tag_190:\n        /* \"contracts/ContractV/ContractVV1.sol\":6412:6469  opponentStrength + opponentAgility + opponentIntelligence */\n      tag_192\n      swap2\n      swap1\n      tag_191\n      jump\t// in\n    tag_192:\n        /* \"contracts/ContractV/ContractVV1.sol\":6412:6492  opponentStrength + opponentAgility + opponentIntelligence + opponentSpecialPower */\n      tag_193\n      swap2\n      swap1\n      tag_191\n      jump\t// in\n    tag_193:\n        /* \"contracts/ContractV/ContractVV1.sol\":6392:6409  ownerSpecialPower */\n      dup6\n        /* \"contracts/ContractV/ContractVV1.sol\":6372:6389  ownerIntelligence */\n      dup8\n        /* \"contracts/ContractV/ContractVV1.sol\":6341:6369  ownerStrength + ownerAgility */\n      tag_194\n        /* \"contracts/ContractV/ContractVV1.sol\":6357:6369  ownerAgility */\n      dup11\n        /* \"contracts/ContractV/ContractVV1.sol\":6341:6354  ownerStrength */\n      dup13\n        /* \"contracts/ContractV/ContractVV1.sol\":6341:6369  ownerStrength + ownerAgility */\n      tag_191\n      jump\t// in\n    tag_194:\n        /* \"contracts/ContractV/ContractVV1.sol\":6341:6389  ownerStrength + ownerAgility + ownerIntelligence */\n      tag_195\n      swap2\n      swap1\n      tag_191\n      jump\t// in\n    tag_195:\n        /* \"contracts/ContractV/ContractVV1.sol\":6341:6409  ownerStrength + ownerAgility + ownerIntelligence + ownerSpecialPower */\n      tag_196\n      swap2\n      swap1\n      tag_191\n      jump\t// in\n    tag_196:\n        /* \"contracts/ContractV/ContractVV1.sol\":6341:6492  ownerStrength + ownerAgility + ownerIntelligence + ownerSpecialPower > opponentStrength + opponentAgility + opponentIntelligence + opponentSpecialPower */\n      gt\n        /* \"contracts/ContractV/ContractVV1.sol\":6337:6898  if (ownerStrength + ownerAgility + ownerIntelligence + ownerSpecialPower > opponentStrength + opponentAgility + opponentIntelligence + opponentSpecialPower) {... */\n      iszero\n      tag_197\n      jumpi\n        /* \"contracts/ContractV/ContractVV1.sol\":6509:6551  _updateBattleRecord(ownerCreatureId, true) */\n      tag_198\n        /* \"contracts/ContractV/ContractVV1.sol\":6529:6544  ownerCreatureId */\n      dup12\n        /* \"contracts/ContractV/ContractVV1.sol\":6546:6550  true */\n      0x01\n        /* \"contracts/ContractV/ContractVV1.sol\":6509:6528  _updateBattleRecord */\n      tag_199\n        /* \"contracts/ContractV/ContractVV1.sol\":6509:6551  _updateBattleRecord(ownerCreatureId, true) */\n      jump\t// in\n    tag_198:\n        /* \"contracts/ContractV/ContractVV1.sol\":6566:6612  _updateBattleRecord(opponentCreatureId, false) */\n      tag_200\n        /* \"contracts/ContractV/ContractVV1.sol\":6586:6604  opponentCreatureId */\n      dup11\n        /* \"contracts/ContractV/ContractVV1.sol\":6606:6611  false */\n      0x00\n        /* \"contracts/ContractV/ContractVV1.sol\":6566:6585  _updateBattleRecord */\n      tag_199\n        /* \"contracts/ContractV/ContractVV1.sol\":6566:6612  _updateBattleRecord(opponentCreatureId, false) */\n      jump\t// in\n    tag_200:\n        /* \"contracts/ContractV/ContractVV1.sol\":6632:6681  BattleResult(ownerCreatureId, opponentCreatureId) */\n      mload(0x40)\n        /* \"contracts/ContractV/ContractVV1.sol\":6662:6680  opponentCreatureId */\n      dup11\n      swap1\n        /* \"contracts/ContractV/ContractVV1.sol\":6645:6660  ownerCreatureId */\n      dup13\n      swap1\n        /* \"contracts/ContractV/ContractVV1.sol\":6632:6681  BattleResult(ownerCreatureId, opponentCreatureId) */\n      0x37fdf7cda6ec1c848e98866fe5e1f781b2b5976a1d79c7770394e65503ce92af\n      swap1\n      0x00\n      swap1\n      log3\n        /* \"contracts/ContractV/ContractVV1.sol\":6337:6898  if (ownerStrength + ownerAgility + ownerIntelligence + ownerSpecialPower > opponentStrength + opponentAgility + opponentIntelligence + opponentSpecialPower) {... */\n      jump(tag_201)\n    tag_197:\n        /* \"contracts/ContractV/ContractVV1.sol\":6714:6757  _updateBattleRecord(ownerCreatureId, false) */\n      tag_202\n        /* \"contracts/ContractV/ContractVV1.sol\":6734:6749  ownerCreatureId */\n      dup12\n        /* \"contracts/ContractV/ContractVV1.sol\":6751:6756  false */\n      0x00\n        /* \"contracts/ContractV/ContractVV1.sol\":6714:6733  _updateBattleRecord */\n      tag_199\n        /* \"contracts/ContractV/ContractVV1.sol\":6714:6757  _updateBattleRecord(ownerCreatureId, false) */\n      jump\t// in\n    tag_202:\n        /* \"contracts/ContractV/ContractVV1.sol\":6772:6817  _updateBattleRecord(opponentCreatureId, true) */\n      tag_203\n        /* \"contracts/ContractV/ContractVV1.sol\":6792:6810  opponentCreatureId */\n      dup11\n        /* \"contracts/ContractV/ContractVV1.sol\":6812:6816  true */\n      0x01\n        /* \"contracts/ContractV/ContractVV1.sol\":6772:6791  _updateBattleRecord */\n      tag_199\n        /* \"contracts/ContractV/ContractVV1.sol\":6772:6817  _updateBattleRecord(opponentCreatureId, true) */\n      jump\t// in\n    tag_203:\n        /* \"contracts/ContractV/ContractVV1.sol\":6837:6886  BattleResult(ownerCreatureId, opponentCreatureId) */\n      mload(0x40)\n        /* \"contracts/ContractV/ContractVV1.sol\":6867:6885  opponentCreatureId */\n      dup11\n      swap1\n        /* \"contracts/ContractV/ContractVV1.sol\":6850:6865  ownerCreatureId */\n      dup13\n      swap1\n        /* \"contracts/ContractV/ContractVV1.sol\":6837:6886  BattleResult(ownerCreatureId, opponentCreatureId) */\n      0x37fdf7cda6ec1c848e98866fe5e1f781b2b5976a1d79c7770394e65503ce92af\n      swap1\n      0x00\n      swap1\n      log3\n        /* \"contracts/ContractV/ContractVV1.sol\":6337:6898  if (ownerStrength + ownerAgility + ownerIntelligence + ownerSpecialPower > opponentStrength + opponentAgility + opponentIntelligence + opponentSpecialPower) {... */\n    tag_201:\n        /* \"contracts/ContractV/ContractVV1.sol\":5852:6905  {... */\n      pop\n      pop\n      pop\n      pop\n      pop\n      pop\n      pop\n      pop\n        /* \"contracts/ContractV/ContractVV1.sol\":5739:6905  function battle(uint256 ownerCreatureId, uint256 opponentCreatureId) external onlyOwnedCreature(ownerCreatureId) {... */\n      pop\n      pop\n      pop\n      jump\t// out\n        /* \"https://github.com/chiru-labs/ERC721A/blob/main/contracts/ERC721A.sol\":26334:26521  function safeTransferFrom(... */\n    tag_72:\n        /* \"https://github.com/chiru-labs/ERC721A/blob/main/contracts/ERC721A.sol\":26475:26514  safeTransferFrom(from, to, tokenId, '') */\n      tag_206\n        /* \"https://github.com/chiru-labs/ERC721A/blob/main/contracts/ERC721A.sol\":26492:26496  from */\n      dup4\n        /* \"https://github.com/chiru-labs/ERC721A/blob/main/contracts/ERC721A.sol\":26498:26500  to */\n      dup4\n        /* \"https://github.com/chiru-labs/ERC721A/blob/main/contracts/ERC721A.sol\":26502:26509  tokenId */\n      dup4\n        /* \"https://github.com/chiru-labs/ERC721A/blob/main/contracts/ERC721A.sol\":26475:26514  safeTransferFrom(from, to, tokenId, '') */\n      mload(0x40)\n      dup1\n      0x20\n      add\n      0x40\n      mstore\n      dup1\n      0x00\n      dup2\n      mstore\n      pop\n        /* \"https://github.com/chiru-labs/ERC721A/blob/main/contracts/ERC721A.sol\":26475:26491  safeTransferFrom */\n      tag_105\n        /* \"https://github.com/chiru-labs/ERC721A/blob/main/contracts/ERC721A.sol\":26475:26514  safeTransferFrom(from, to, tokenId, '') */\n      jump\t// in\n    tag_206:\n        /* \"https://github.com/chiru-labs/ERC721A/blob/main/contracts/ERC721A.sol\":26334:26521  function safeTransferFrom(... */\n      pop\n      pop\n      pop\n      jump\t// out\n        /* \"contracts/ContractV/ContractVV1.sol\":4728:5695  function createRandomCreature() external {... */\n    tag_81:\n        /* \"contracts/ContractV/ContractVV1.sol\":4813:4878  abi.encodePacked(block.timestamp, block.prevrandao, _msgSender()) */\n      0x40\n      dup1\n      mload\n        /* \"contracts/ContractV/ContractVV1.sol\":4830:4845  block.timestamp */\n      timestamp\n        /* \"contracts/ContractV/ContractVV1.sol\":4813:4878  abi.encodePacked(block.timestamp, block.prevrandao, _msgSender()) */\n      0x20\n      dup1\n      dup4\n      add\n        /* \"#utility.yul\":7034:7053   */\n      swap2\n      swap1\n      swap2\n      mstore\n        /* \"contracts/ContractV/ContractVV1.sol\":4847:4863  block.prevrandao */\n      prevrandao\n        /* \"#utility.yul\":7069:7081   */\n      dup3\n      dup5\n      add\n        /* \"#utility.yul\":7062:7090   */\n      mstore\n        /* \"https://github.com/chiru-labs/ERC721A/blob/main/contracts/ERC721A.sol\":47819:47829  msg.sender */\n      caller\n        /* \"#utility.yul\":7128:7130   */\n      0x60\n        /* \"#utility.yul\":7124:7139   */\n      dup2\n      dup2\n      shl\n      not(0xffffffffffffffffffffffff)\n        /* \"#utility.yul\":7120:7173   */\n      and\n        /* \"#utility.yul\":7106:7118   */\n      swap1\n      dup5\n      add\n        /* \"#utility.yul\":7099:7174   */\n      mstore\n        /* \"contracts/ContractV/ContractVV1.sol\":4813:4878  abi.encodePacked(block.timestamp, block.prevrandao, _msgSender()) */\n      dup4\n      mload\n      0x54\n      dup2\n      dup6\n      sub\n      add\n      dup2\n      mstore\n        /* \"#utility.yul\":7190:7202   */\n      0x74\n      dup5\n      add\n        /* \"contracts/ContractV/ContractVV1.sol\":4813:4878  abi.encodePacked(block.timestamp, block.prevrandao, _msgSender()) */\n      dup1\n      dup7\n      mstore\n        /* \"contracts/ContractV/ContractVV1.sol\":4803:4879  keccak256(abi.encodePacked(block.timestamp, block.prevrandao, _msgSender())) */\n      dup2\n      mload\n      swap2\n      swap1\n      swap4\n      add\n      keccak256\n        /* \"contracts/ContractV/ContractVV1.sol\":4921:5327  Creature(... */\n      0xf4\n      dup5\n      add\n      swap1\n      swap5\n      mstore\n        /* \"contracts/ContractV/ContractVV1.sol\":4944:4958  nextCreatureId */\n      sload(0x09)\n        /* \"contracts/ContractV/ContractVV1.sol\":4921:5327  Creature(... */\n      dup3\n      mstore\n      0x94\n      dup4\n      add\n      mstore\n        /* \"#utility.yul\":7190:7202   */\n      swap1\n        /* \"contracts/ContractV/ContractVV1.sol\":4921:5327  Creature(... */\n      0xb4\n      add\n        /* \"contracts/ContractV/ContractVV1.sol\":5095:5279  packGameStats(... */\n      tag_214\n        /* \"contracts/ContractV/ContractVV1.sol\":5127:5138  rand % 1000 */\n      tag_215\n        /* \"contracts/ContractV/ContractVV1.sol\":5134:5138  1000 */\n      0x03e8\n        /* \"contracts/ContractV/ContractVV1.sol\":4803:4879  keccak256(abi.encodePacked(block.timestamp, block.prevrandao, _msgSender())) */\n      dup6\n        /* \"contracts/ContractV/ContractVV1.sol\":5127:5138  rand % 1000 */\n      tag_216\n      jump\t// in\n    tag_215:\n        /* \"contracts/ContractV/ContractVV1.sol\":5173:5177  1000 */\n      0x03e8\n        /* \"contracts/ContractV/ContractVV1.sol\":5158:5169  rand / 1000 */\n      tag_217\n        /* \"contracts/ContractV/ContractVV1.sol\":5173:5177  1000 */\n      dup2\n        /* \"contracts/ContractV/ContractVV1.sol\":5158:5162  rand */\n      dup8\n        /* \"contracts/ContractV/ContractVV1.sol\":5158:5169  rand / 1000 */\n      tag_218\n      jump\t// in\n    tag_217:\n        /* \"contracts/ContractV/ContractVV1.sol\":5157:5177  (rand / 1000) % 1000 */\n      tag_219\n      swap2\n      swap1\n      tag_216\n      jump\t// in\n    tag_219:\n        /* \"contracts/ContractV/ContractVV1.sol\":5215:5219  1000 */\n      0x03e8\n        /* \"contracts/ContractV/ContractVV1.sol\":5197:5211  rand / 1000000 */\n      tag_220\n        /* \"contracts/ContractV/ContractVV1.sol\":5204:5211  1000000 */\n      0x0f4240\n        /* \"contracts/ContractV/ContractVV1.sol\":5197:5201  rand */\n      dup9\n        /* \"contracts/ContractV/ContractVV1.sol\":5197:5211  rand / 1000000 */\n      tag_218\n      jump\t// in\n    tag_220:\n        /* \"contracts/ContractV/ContractVV1.sol\":5196:5219  (rand / 1000000) % 1000 */\n      tag_221\n      swap2\n      swap1\n      tag_216\n      jump\t// in\n    tag_221:\n        /* \"contracts/ContractV/ContractVV1.sol\":5260:5264  1000 */\n      0x03e8\n        /* \"contracts/ContractV/ContractVV1.sol\":5239:5256  rand / 1000000000 */\n      tag_222\n        /* \"contracts/ContractV/ContractVV1.sol\":5246:5256  1000000000 */\n      0x3b9aca00\n        /* \"contracts/ContractV/ContractVV1.sol\":5239:5243  rand */\n      dup10\n        /* \"contracts/ContractV/ContractVV1.sol\":5239:5256  rand / 1000000000 */\n      tag_218\n      jump\t// in\n    tag_222:\n        /* \"contracts/ContractV/ContractVV1.sol\":5238:5264  (rand / 1000000000) % 1000 */\n      tag_223\n      swap2\n      swap1\n      tag_216\n      jump\t// in\n    tag_223:\n        /* \"contracts/ContractV/ContractVV1.sol\":2168:2185  uint256 gameStats */\n      0x00\n        /* \"contracts/ContractV/ContractVV1.sol\":2813:2825  specialPower */\n      dup2\n        /* \"contracts/ContractV/ContractVV1.sol\":2791:2811  SPECIAL_POWER_BITPOS */\n      0xc0\n        /* \"contracts/ContractV/ContractVV1.sol\":2787:2826  shl(SPECIAL_POWER_BITPOS, specialPower) */\n      shl\n        /* \"contracts/ContractV/ContractVV1.sol\":2728:2740  intelligence */\n      dup4\n        /* \"contracts/ContractV/ContractVV1.sol\":2707:2726  INTELLIGENCE_BITPOS */\n      0x80\n        /* \"contracts/ContractV/ContractVV1.sol\":2703:2741  shl(INTELLIGENCE_BITPOS, intelligence) */\n      shl\n        /* \"contracts/ContractV/ContractVV1.sol\":2641:2648  agility */\n      dup6\n        /* \"contracts/ContractV/ContractVV1.sol\":2625:2639  AGILITY_BITPOS */\n      0x40\n        /* \"contracts/ContractV/ContractVV1.sol\":2621:2649  shl(AGILITY_BITPOS, agility) */\n      shl\n        /* \"contracts/ContractV/ContractVV1.sol\":2581:2589  strength */\n      dup8\n        /* \"contracts/ContractV/ContractVV1.sol\":2564:2579  STRENGTH_BITPOS */\n      0x00\n        /* \"contracts/ContractV/ContractVV1.sol\":2560:2590  shl(STRENGTH_BITPOS, strength) */\n      shl\n        /* \"contracts/ContractV/ContractVV1.sol\":2527:2676  or(... */\n      or\n        /* \"contracts/ContractV/ContractVV1.sol\":2498:2764  or(... */\n      or\n        /* \"contracts/ContractV/ContractVV1.sol\":2473:2845  or(... */\n      or\n        /* \"contracts/ContractV/ContractVV1.sol\":2442:2845  gameStats := ... */\n      swap1\n      pop\n        /* \"contracts/ContractV/ContractVV1.sol\":1997:2863  function packGameStats(... */\n      swap5\n      swap4\n      pop\n      pop\n      pop\n      pop\n      jump\n        /* \"contracts/ContractV/ContractVV1.sol\":5095:5279  packGameStats(... */\n    tag_214:\n        /* \"contracts/ContractV/ContractVV1.sol\":4921:5327  Creature(... */\n      dup2\n      mstore\n      0x20\n      add\n        /* \"contracts/ContractV/ContractVV1.sol\":5311:5312  0 */\n      0x00\n        /* \"contracts/ContractV/ContractVV1.sol\":4921:5327  Creature(... */\n      swap1\n      mstore\n        /* \"contracts/ContractV/ContractVV1.sol\":4903:4917  nextCreatureId */\n      sload(0x09)\n        /* \"contracts/ContractV/ContractVV1.sol\":4893:4918  creatures[nextCreatureId] */\n      0x00\n      swap1\n      dup2\n      mstore\n        /* \"contracts/ContractV/ContractVV1.sol\":4893:4902  creatures */\n      0x0a\n        /* \"contracts/ContractV/ContractVV1.sol\":4893:4918  creatures[nextCreatureId] */\n      0x20\n      swap1\n      dup2\n      mstore\n      0x40\n      swap2\n      dup3\n      swap1\n      keccak256\n        /* \"contracts/ContractV/ContractVV1.sol\":4893:5327  creatures[nextCreatureId] = Creature(... */\n      dup4\n      mload\n      dup2\n      sstore\n      swap1\n      dup4\n      add\n      mload\n      0x01\n      dup3\n      add\n      dup1\n      sload\n      not(0xffffffffffffffffffffffffffffffffffffffff)\n      and\n      sub(shl(0xa0, 0x01), 0x01)\n      swap1\n      swap3\n      and\n      swap2\n      swap1\n      swap2\n      or\n      swap1\n      sstore\n      swap1\n      dup3\n      add\n      mload\n      0x02\n      dup3\n      add\n      sstore\n      0x60\n      swap1\n      swap2\n      add\n      mload\n      0x03\n      swap1\n      swap2\n      add\n      sstore\n        /* \"contracts/ContractV/ContractVV1.sol\":5365:5391  _safeMint(_msgSender(), 1) */\n      tag_227\n        /* \"https://github.com/chiru-labs/ERC721A/blob/main/contracts/ERC721A.sol\":47819:47829  msg.sender */\n      caller\n        /* \"contracts/ContractV/ContractVV1.sol\":5389:5390  1 */\n      0x01\n        /* \"contracts/ContractV/ContractVV1.sol\":5365:5374  _safeMint */\n      tag_229\n        /* \"contracts/ContractV/ContractVV1.sol\":5365:5391  _safeMint(_msgSender(), 1) */\n      jump\t// in\n    tag_227:\n        /* \"contracts/ContractV/ContractVV1.sol\":5579:5580  1 */\n      0x01\n        /* \"contracts/ContractV/ContractVV1.sol\":5535:5554  nextCreatureId.slot */\n      0x09\n        /* \"contracts/ContractV/ContractVV1.sol\":5529:5555  sload(nextCreatureId.slot) */\n      sload\n        /* \"contracts/ContractV/ContractVV1.sol\":5503:5599  add(... */\n      add\n        /* \"contracts/ContractV/ContractVV1.sol\":5464:5483  nextCreatureId.slot */\n      0x09\n        /* \"contracts/ContractV/ContractVV1.sol\":5439:5614  sstore(... */\n      sstore\n        /* \"contracts/ContractV/ContractVV1.sol\":5674:5686  _msgSender() */\n      tag_230\n        /* \"https://github.com/chiru-labs/ERC721A/blob/main/contracts/ERC721A.sol\":47819:47829  msg.sender */\n      caller\n      swap1\n        /* \"https://github.com/chiru-labs/ERC721A/blob/main/contracts/ERC721A.sol\":47733:47836  function _msgSenderERC721A() internal view virtual returns (address) {... */\n      jump\n        /* \"contracts/ContractV/ContractVV1.sol\":5674:5686  _msgSender() */\n    tag_230:\n      sub(shl(0xa0, 0x01), 0x01)\n        /* \"contracts/ContractV/ContractVV1.sol\":5642:5687  CreatureCreated(nextCreatureId, _msgSender()) */\n      and\n        /* \"contracts/ContractV/ContractVV1.sol\":5658:5672  nextCreatureId */\n      sload(0x09)\n        /* \"contracts/ContractV/ContractVV1.sol\":5642:5687  CreatureCreated(nextCreatureId, _msgSender()) */\n      0xfce6b98db3cc5152281e5d3e4c7332adfb0d4b574cc5723dc73792f7624043cc\n      mload(0x40)\n      mload(0x40)\n      dup1\n      swap2\n      sub\n      swap1\n      log3\n        /* \"contracts/ContractV/ContractVV1.sol\":4769:5695  {... */\n      pop\n        /* \"contracts/ContractV/ContractVV1.sol\":4728:5695  function createRandomCreature() external {... */\n      jump\t// out\n        /* \"https://github.com/chiru-labs/ERC721A/blob/main/contracts/ERC721A.sol\":12934:13084  function ownerOf(uint256 tokenId) public view virtual override returns (address) {... */\n    tag_85:\n        /* \"https://github.com/chiru-labs/ERC721A/blob/main/contracts/ERC721A.sol\":13006:13013  address */\n      0x00\n        /* \"https://github.com/chiru-labs/ERC721A/blob/main/contracts/ERC721A.sol\":13048:13075  _packedOwnershipOf(tokenId) */\n      tag_131\n        /* \"https://github.com/chiru-labs/ERC721A/blob/main/contracts/ERC721A.sol\":13067:13074  tokenId */\n      dup3\n        /* \"https://github.com/chiru-labs/ERC721A/blob/main/contracts/ERC721A.sol\":13048:13066  _packedOwnershipOf */\n      tag_156\n        /* \"https://github.com/chiru-labs/ERC721A/blob/main/contracts/ERC721A.sol\":13048:13075  _packedOwnershipOf(tokenId) */\n      jump\t// in\n        /* \"https://github.com/chiru-labs/ERC721A/blob/main/contracts/ERC721A.sol\":8570:8809  function balanceOf(address owner) public view virtual override returns (uint256) {... */\n    tag_91:\n        /* \"https://github.com/chiru-labs/ERC721A/blob/main/contracts/ERC721A.sol\":8642:8649  uint256 */\n      0x00\n      sub(shl(0xa0, 0x01), 0x01)\n        /* \"https://github.com/chiru-labs/ERC721A/blob/main/contracts/ERC721A.sol\":8665:8684  owner == address(0) */\n      dup3\n      and\n        /* \"https://github.com/chiru-labs/ERC721A/blob/main/contracts/ERC721A.sol\":8661:8730  if (owner == address(0)) _revert(BalanceQueryForZeroAddress.selector) */\n      tag_235\n      jumpi\n        /* \"https://github.com/chiru-labs/ERC721A/blob/main/contracts/ERC721A.sol\":8686:8730  _revert(BalanceQueryForZeroAddress.selector) */\n      tag_235\n        /* \"https://github.com/chiru-labs/ERC721A/blob/main/contracts/ERC721A.sol\":8694:8729  BalanceQueryForZeroAddress.selector */\n      0x8f4eb60400000000000000000000000000000000000000000000000000000000\n        /* \"https://github.com/chiru-labs/ERC721A/blob/main/contracts/ERC721A.sol\":8686:8693  _revert */\n      tag_144\n        /* \"https://github.com/chiru-labs/ERC721A/blob/main/contracts/ERC721A.sol\":8686:8730  _revert(BalanceQueryForZeroAddress.selector) */\n      jump\t// in\n    tag_235:\n      pop\n      sub(shl(0xa0, 0x01), 0x01)\n        /* \"https://github.com/chiru-labs/ERC721A/blob/main/contracts/ERC721A.sol\":8747:8772  _packedAddressData[owner] */\n      and\n      0x00\n      swap1\n      dup2\n      mstore\n        /* \"https://github.com/chiru-labs/ERC721A/blob/main/contracts/ERC721A.sol\":8747:8765  _packedAddressData */\n      0x05\n        /* \"https://github.com/chiru-labs/ERC721A/blob/main/contracts/ERC721A.sol\":8747:8772  _packedAddressData[owner] */\n      0x20\n      mstore\n      0x40\n      swap1\n      keccak256\n      sload\n        /* \"https://github.com/chiru-labs/ERC721A/blob/main/contracts/ERC721A.sol\":1518:1531  (1 << 64) - 1 */\n      0xffffffffffffffff\n        /* \"https://github.com/chiru-labs/ERC721A/blob/main/contracts/ERC721A.sol\":8747:8802  _packedAddressData[owner] & _BITMASK_ADDRESS_DATA_ENTRY */\n      and\n      swap1\n        /* \"https://github.com/chiru-labs/ERC721A/blob/main/contracts/ERC721A.sol\":8570:8809  function balanceOf(address owner) public view virtual override returns (uint256) {... */\n      jump\t// out\n        /* \"https://github.com/chiru-labs/ERC721A/blob/main/contracts/ERC721A.sol\":11742:11844  function symbol() public view virtual override returns (string memory) {... */\n    tag_95:\n        /* \"https://github.com/chiru-labs/ERC721A/blob/main/contracts/ERC721A.sol\":11798:11811  string memory */\n      0x60\n        /* \"https://github.com/chiru-labs/ERC721A/blob/main/contracts/ERC721A.sol\":11830:11837  _symbol */\n      0x03\n        /* \"https://github.com/chiru-labs/ERC721A/blob/main/contracts/ERC721A.sol\":11823:11837  return _symbol */\n      dup1\n      sload\n      tag_133\n      swap1\n      tag_134\n      jump\t// in\n        /* \"https://github.com/chiru-labs/ERC721A/blob/main/contracts/ERC721A.sol\":19186:19417  function setApprovalForAll(address operator, bool approved) public virtual override {... */\n    tag_101:\n        /* \"https://github.com/chiru-labs/ERC721A/blob/main/contracts/ERC721A.sol\":47819:47829  msg.sender */\n      caller\n        /* \"https://github.com/chiru-labs/ERC721A/blob/main/contracts/ERC721A.sol\":19280:19319  _operatorApprovals[_msgSenderERC721A()] */\n      0x00\n      dup2\n      dup2\n      mstore\n        /* \"https://github.com/chiru-labs/ERC721A/blob/main/contracts/ERC721A.sol\":19280:19298  _operatorApprovals */\n      0x07\n        /* \"https://github.com/chiru-labs/ERC721A/blob/main/contracts/ERC721A.sol\":19280:19319  _operatorApprovals[_msgSenderERC721A()] */\n      0x20\n      swap1\n      dup2\n      mstore\n      0x40\n      dup1\n      dup4\n      keccak256\n      sub(shl(0xa0, 0x01), 0x01)\n        /* \"https://github.com/chiru-labs/ERC721A/blob/main/contracts/ERC721A.sol\":19280:19329  _operatorApprovals[_msgSenderERC721A()][operator] */\n      dup8\n      and\n      dup1\n      dup6\n      mstore\n      swap1\n      dup4\n      mstore\n      swap3\n      dup2\n      swap1\n      keccak256\n        /* \"https://github.com/chiru-labs/ERC721A/blob/main/contracts/ERC721A.sol\":19280:19340  _operatorApprovals[_msgSenderERC721A()][operator] = approved */\n      dup1\n      sload\n      not(0xff)\n      and\n      dup7\n      iszero\n      iszero\n      swap1\n      dup2\n      or\n      swap1\n      swap2\n      sstore\n        /* \"https://github.com/chiru-labs/ERC721A/blob/main/contracts/ERC721A.sol\":19355:19410  ApprovalForAll(_msgSenderERC721A(), operator, approved) */\n      swap1\n      mload\n        /* \"#utility.yul\":586:627   */\n      swap1\n      dup2\n      mstore\n        /* \"https://github.com/chiru-labs/ERC721A/blob/main/contracts/ERC721A.sol\":19280:19329  _operatorApprovals[_msgSenderERC721A()][operator] */\n      swap2\n      swap3\n        /* \"https://github.com/chiru-labs/ERC721A/blob/main/contracts/ERC721A.sol\":47819:47829  msg.sender */\n      swap2\n        /* \"https://github.com/chiru-labs/ERC721A/blob/main/contracts/ERC721A.sol\":19355:19410  ApprovalForAll(_msgSenderERC721A(), operator, approved) */\n      0x17307eab39ab6107e8899845ad3d59bd9653f200f220920489ca2b5937696c31\n      swap2\n        /* \"#utility.yul\":559:577   */\n      add\n        /* \"https://github.com/chiru-labs/ERC721A/blob/main/contracts/ERC721A.sol\":19355:19410  ApprovalForAll(_msgSenderERC721A(), operator, approved) */\n      mload(0x40)\n      dup1\n      swap2\n      sub\n      swap1\n      log3\n        /* \"https://github.com/chiru-labs/ERC721A/blob/main/contracts/ERC721A.sol\":19186:19417  function setApprovalForAll(address operator, bool approved) public virtual override {... */\n      pop\n      pop\n      jump\t// out\n        /* \"https://github.com/chiru-labs/ERC721A/blob/main/contracts/ERC721A.sol\":27102:27507  function safeTransferFrom(... */\n    tag_105:\n        /* \"https://github.com/chiru-labs/ERC721A/blob/main/contracts/ERC721A.sol\":27271:27302  transferFrom(from, to, tokenId) */\n      tag_247\n        /* \"https://github.com/chiru-labs/ERC721A/blob/main/contracts/ERC721A.sol\":27284:27288  from */\n      dup5\n        /* \"https://github.com/chiru-labs/ERC721A/blob/main/contracts/ERC721A.sol\":27290:27292  to */\n      dup5\n        /* \"https://github.com/chiru-labs/ERC721A/blob/main/contracts/ERC721A.sol\":27294:27301  tokenId */\n      dup5\n        /* \"https://github.com/chiru-labs/ERC721A/blob/main/contracts/ERC721A.sol\":27271:27283  transferFrom */\n      tag_60\n        /* \"https://github.com/chiru-labs/ERC721A/blob/main/contracts/ERC721A.sol\":27271:27302  transferFrom(from, to, tokenId) */\n      jump\t// in\n    tag_247:\n      sub(shl(0xa0, 0x01), 0x01)\n        /* \"https://github.com/chiru-labs/ERC721A/blob/main/contracts/ERC721A.sol\":27316:27330  to.code.length */\n      dup4\n      and\n      extcodesize\n        /* \"https://github.com/chiru-labs/ERC721A/blob/main/contracts/ERC721A.sol\":27316:27335  to.code.length != 0 */\n      iszero\n        /* \"https://github.com/chiru-labs/ERC721A/blob/main/contracts/ERC721A.sol\":27312:27501  if (to.code.length != 0)... */\n      tag_252\n      jumpi\n        /* \"https://github.com/chiru-labs/ERC721A/blob/main/contracts/ERC721A.sol\":27354:27410  _checkContractOnERC721Received(from, to, tokenId, _data) */\n      tag_249\n        /* \"https://github.com/chiru-labs/ERC721A/blob/main/contracts/ERC721A.sol\":27385:27389  from */\n      dup5\n        /* \"https://github.com/chiru-labs/ERC721A/blob/main/contracts/ERC721A.sol\":27391:27393  to */\n      dup5\n        /* \"https://github.com/chiru-labs/ERC721A/blob/main/contracts/ERC721A.sol\":27395:27402  tokenId */\n      dup5\n        /* \"https://github.com/chiru-labs/ERC721A/blob/main/contracts/ERC721A.sol\":27404:27409  _data */\n      dup5\n        /* \"https://github.com/chiru-labs/ERC721A/blob/main/contracts/ERC721A.sol\":27354:27384  _checkContractOnERC721Received */\n      tag_250\n        /* \"https://github.com/chiru-labs/ERC721A/blob/main/contracts/ERC721A.sol\":27354:27410  _checkContractOnERC721Received(from, to, tokenId, _data) */\n      jump\t// in\n    tag_249:\n        /* \"https://github.com/chiru-labs/ERC721A/blob/main/contracts/ERC721A.sol\":27349:27501  if (!_checkContractOnERC721Received(from, to, tokenId, _data)) {... */\n      tag_252\n      jumpi\n        /* \"https://github.com/chiru-labs/ERC721A/blob/main/contracts/ERC721A.sol\":27430:27486  _revert(TransferToNonERC721ReceiverImplementer.selector) */\n      tag_252\n      shl(0xe1, 0x68d2bf6b)\n        /* \"https://github.com/chiru-labs/ERC721A/blob/main/contracts/ERC721A.sol\":27430:27437  _revert */\n      tag_144\n        /* \"https://github.com/chiru-labs/ERC721A/blob/main/contracts/ERC721A.sol\":27430:27486  _revert(TransferToNonERC721ReceiverImplementer.selector) */\n      jump\t// in\n    tag_252:\n        /* \"https://github.com/chiru-labs/ERC721A/blob/main/contracts/ERC721A.sol\":27102:27507  function safeTransferFrom(... */\n      pop\n      pop\n      pop\n      pop\n      jump\t// out\n        /* \"https://github.com/chiru-labs/ERC721A/blob/main/contracts/ERC721A.sol\":11945:12267  function tokenURI(uint256 tokenId) public view virtual override returns (string memory) {... */\n    tag_109:\n        /* \"https://github.com/chiru-labs/ERC721A/blob/main/contracts/ERC721A.sol\":12018:12031  string memory */\n      0x60\n        /* \"https://github.com/chiru-labs/ERC721A/blob/main/contracts/ERC721A.sol\":12048:12064  _exists(tokenId) */\n      tag_254\n        /* \"https://github.com/chiru-labs/ERC721A/blob/main/contracts/ERC721A.sol\":12056:12063  tokenId */\n      dup3\n        /* \"https://github.com/chiru-labs/ERC721A/blob/main/contracts/ERC721A.sol\":12048:12055  _exists */\n      tag_141\n        /* \"https://github.com/chiru-labs/ERC721A/blob/main/contracts/ERC721A.sol\":12048:12064  _exists(tokenId) */\n      jump\t// in\n    tag_254:\n        /* \"https://github.com/chiru-labs/ERC721A/blob/main/contracts/ERC721A.sol\":12043:12111  if (!_exists(tokenId)) _revert(URIQueryForNonexistentToken.selector) */\n      tag_256\n      jumpi\n        /* \"https://github.com/chiru-labs/ERC721A/blob/main/contracts/ERC721A.sol\":12066:12111  _revert(URIQueryForNonexistentToken.selector) */\n      tag_256\n        /* \"https://github.com/chiru-labs/ERC721A/blob/main/contracts/ERC721A.sol\":12074:12110  URIQueryForNonexistentToken.selector */\n      0xa14c4b5000000000000000000000000000000000000000000000000000000000\n        /* \"https://github.com/chiru-labs/ERC721A/blob/main/contracts/ERC721A.sol\":12066:12073  _revert */\n      tag_144\n        /* \"https://github.com/chiru-labs/ERC721A/blob/main/contracts/ERC721A.sol\":12066:12111  _revert(URIQueryForNonexistentToken.selector) */\n      jump\t// in\n    tag_256:\n        /* \"https://github.com/chiru-labs/ERC721A/blob/main/contracts/ERC721A.sol\":12122:12143  string memory baseURI */\n      0x00\n        /* \"https://github.com/chiru-labs/ERC721A/blob/main/contracts/ERC721A.sol\":12146:12156  _baseURI() */\n      tag_257\n        /* \"https://github.com/chiru-labs/ERC721A/blob/main/contracts/ERC721A.sol\":12588:12597  return '' */\n      0x40\n      dup1\n      mload\n      0x20\n      dup2\n      add\n      swap1\n      swap2\n      mstore\n      0x00\n      dup2\n      mstore\n      swap1\n        /* \"https://github.com/chiru-labs/ERC721A/blob/main/contracts/ERC721A.sol\":12512:12604  function _baseURI() internal view virtual returns (string memory) {... */\n      jump\n        /* \"https://github.com/chiru-labs/ERC721A/blob/main/contracts/ERC721A.sol\":12146:12156  _baseURI() */\n    tag_257:\n        /* \"https://github.com/chiru-labs/ERC721A/blob/main/contracts/ERC721A.sol\":12122:12156  string memory baseURI = _baseURI() */\n      swap1\n      pop\n        /* \"https://github.com/chiru-labs/ERC721A/blob/main/contracts/ERC721A.sol\":12179:12186  baseURI */\n      dup1\n        /* \"https://github.com/chiru-labs/ERC721A/blob/main/contracts/ERC721A.sol\":12173:12194  bytes(baseURI).length */\n      mload\n        /* \"https://github.com/chiru-labs/ERC721A/blob/main/contracts/ERC721A.sol\":12198:12199  0 */\n      0x00\n        /* \"https://github.com/chiru-labs/ERC721A/blob/main/contracts/ERC721A.sol\":12173:12199  bytes(baseURI).length != 0 */\n      sub\n        /* \"https://github.com/chiru-labs/ERC721A/blob/main/contracts/ERC721A.sol\":12173:12260  bytes(baseURI).length != 0 ? string(abi.encodePacked(baseURI, _toString(tokenId))) : '' */\n      tag_259\n      jumpi\n      mload(0x40)\n      dup1\n      0x20\n      add\n      0x40\n      mstore\n      dup1\n      0x00\n      dup2\n      mstore\n      pop\n      jump(tag_260)\n    tag_259:\n        /* \"https://github.com/chiru-labs/ERC721A/blob/main/contracts/ERC721A.sol\":12226:12233  baseURI */\n      dup1\n        /* \"https://github.com/chiru-labs/ERC721A/blob/main/contracts/ERC721A.sol\":12235:12253  _toString(tokenId) */\n      tag_261\n        /* \"https://github.com/chiru-labs/ERC721A/blob/main/contracts/ERC721A.sol\":12245:12252  tokenId */\n      dup5\n        /* \"https://github.com/chiru-labs/ERC721A/blob/main/contracts/ERC721A.sol\":12235:12244  _toString */\n      tag_262\n        /* \"https://github.com/chiru-labs/ERC721A/blob/main/contracts/ERC721A.sol\":12235:12253  _toString(tokenId) */\n      jump\t// in\n    tag_261:\n        /* \"https://github.com/chiru-labs/ERC721A/blob/main/contracts/ERC721A.sol\":12209:12254  abi.encodePacked(baseURI, _toString(tokenId)) */\n      add(0x20, mload(0x40))\n      tag_263\n      swap3\n      swap2\n      swap1\n      tag_264\n      jump\t// in\n    tag_263:\n      mload(0x40)\n      0x20\n      dup2\n      dup4\n      sub\n      sub\n      dup2\n      mstore\n      swap1\n      0x40\n      mstore\n        /* \"https://github.com/chiru-labs/ERC721A/blob/main/contracts/ERC721A.sol\":12173:12260  bytes(baseURI).length != 0 ? string(abi.encodePacked(baseURI, _toString(tokenId))) : '' */\n    tag_260:\n        /* \"https://github.com/chiru-labs/ERC721A/blob/main/contracts/ERC721A.sol\":12166:12260  return bytes(baseURI).length != 0 ? string(abi.encodePacked(baseURI, _toString(tokenId))) : '' */\n      swap4\n        /* \"https://github.com/chiru-labs/ERC721A/blob/main/contracts/ERC721A.sol\":11945:12267  function tokenURI(uint256 tokenId) public view virtual override returns (string memory) {... */\n      swap3\n      pop\n      pop\n      pop\n      jump\t// out\n        /* \"contracts/ContractV/ContractVV1.sol\":1672:1784  function getCreature(uint256 id) external view returns (Creature memory) {... */\n    tag_120:\n        /* \"contracts/ContractV/ContractVV1.sol\":1728:1743  Creature memory */\n      tag_266\n      mload(0x40)\n      dup1\n      0x80\n      add\n      0x40\n      mstore\n      dup1\n      0x00\n      dup2\n      mstore\n      0x20\n      add\n      and(sub(shl(0xa0, 0x01), 0x01), 0x00)\n      dup2\n      mstore\n      0x20\n      add\n      0x00\n      dup2\n      mstore\n      0x20\n      add\n      0x00\n      dup2\n      mstore\n      pop\n      swap1\n      jump\n    tag_266:\n      pop\n        /* \"contracts/ContractV/ContractVV1.sol\":1763:1776  creatures[id] */\n      0x00\n      swap1\n      dup2\n      mstore\n        /* \"contracts/ContractV/ContractVV1.sol\":1763:1772  creatures */\n      0x0a\n        /* \"contracts/ContractV/ContractVV1.sol\":1763:1776  creatures[id] */\n      0x20\n      swap1\n      dup2\n      mstore\n      0x40\n      swap2\n      dup3\n      swap1\n      keccak256\n        /* \"contracts/ContractV/ContractVV1.sol\":1756:1776  return creatures[id] */\n      dup3\n      mload\n      0x80\n      dup2\n      add\n      dup5\n      mstore\n      dup2\n      sload\n      dup2\n      mstore\n      0x01\n      dup3\n      add\n      sload\n      sub(shl(0xa0, 0x01), 0x01)\n      and\n      swap3\n      dup2\n      add\n      swap3\n      swap1\n      swap3\n      mstore\n      0x02\n      dup2\n      add\n      sload\n      swap3\n      dup3\n      add\n      swap3\n      swap1\n      swap3\n      mstore\n      0x03\n      swap1\n      swap2\n      add\n      sload\n      0x60\n      dup3\n      add\n      mstore\n      swap1\n        /* \"contracts/ContractV/ContractVV1.sol\":1672:1784  function getCreature(uint256 id) external view returns (Creature memory) {... */\n      jump\t// out\n        /* \"https://github.com/chiru-labs/ERC721A/blob/main/contracts/ERC721A.sol\":19978:20443  function _exists(uint256 tokenId) internal view virtual returns (bool result) {... */\n    tag_141:\n        /* \"https://github.com/chiru-labs/ERC721A/blob/main/contracts/ERC721A.sol\":20043:20054  bool result */\n      0x00\n        /* \"https://github.com/chiru-labs/ERC721A/blob/main/contracts/ERC721A.sol\":20231:20244  _currentIndex */\n      dup1\n      sload\n        /* \"https://github.com/chiru-labs/ERC721A/blob/main/contracts/ERC721A.sol\":20221:20228  tokenId */\n      dup3\n        /* \"https://github.com/chiru-labs/ERC721A/blob/main/contracts/ERC721A.sol\":20221:20244  tokenId < _currentIndex */\n      lt\n        /* \"https://github.com/chiru-labs/ERC721A/blob/main/contracts/ERC721A.sol\":20217:20427  if (tokenId < _currentIndex) {... */\n      iszero\n      tag_277\n      jumpi\n        /* \"https://github.com/chiru-labs/ERC721A/blob/main/contracts/ERC721A.sol\":20264:20278  uint256 packed */\n      0x00\n        /* \"https://github.com/chiru-labs/ERC721A/blob/main/contracts/ERC721A.sol\":20296:20356  while ((packed = _packedOwnerships[tokenId]) == 0) --tokenId */\n    tag_278:\n      pop\n        /* \"https://github.com/chiru-labs/ERC721A/blob/main/contracts/ERC721A.sol\":20313:20339  _packedOwnerships[tokenId] */\n      0x00\n      dup3\n      dup2\n      mstore\n        /* \"https://github.com/chiru-labs/ERC721A/blob/main/contracts/ERC721A.sol\":20313:20330  _packedOwnerships */\n      0x04\n        /* \"https://github.com/chiru-labs/ERC721A/blob/main/contracts/ERC721A.sol\":20313:20339  _packedOwnerships[tokenId] */\n      0x20\n      mstore\n      0x40\n      dup2\n      keccak256\n      sload\n      swap1\n        /* \"https://github.com/chiru-labs/ERC721A/blob/main/contracts/ERC721A.sol\":20303:20345  (packed = _packedOwnerships[tokenId]) == 0 */\n      dup2\n      swap1\n      sub\n        /* \"https://github.com/chiru-labs/ERC721A/blob/main/contracts/ERC721A.sol\":20296:20356  while ((packed = _packedOwnerships[tokenId]) == 0) --tokenId */\n      tag_279\n      jumpi\n        /* \"https://github.com/chiru-labs/ERC721A/blob/main/contracts/ERC721A.sol\":20347:20356  --tokenId */\n      tag_280\n      dup4\n      tag_281\n      jump\t// in\n    tag_280:\n      swap3\n      pop\n        /* \"https://github.com/chiru-labs/ERC721A/blob/main/contracts/ERC721A.sol\":20296:20356  while ((packed = _packedOwnerships[tokenId]) == 0) --tokenId */\n      jump(tag_278)\n    tag_279:\n      shl(0xe0, 0x01)\n        /* \"https://github.com/chiru-labs/ERC721A/blob/main/contracts/ERC721A.sol\":20383:20407  packed & _BITMASK_BURNED */\n      and\n        /* \"https://github.com/chiru-labs/ERC721A/blob/main/contracts/ERC721A.sol\":20383:20412  packed & _BITMASK_BURNED == 0 */\n      iszero\n      swap1\n      pop\n        /* \"https://github.com/chiru-labs/ERC721A/blob/main/contracts/ERC721A.sol\":20217:20427  if (tokenId < _currentIndex) {... */\n    tag_277:\n        /* \"https://github.com/chiru-labs/ERC721A/blob/main/contracts/ERC721A.sol\":19978:20443  function _exists(uint256 tokenId) internal view virtual returns (bool result) {... */\n      swap2\n      swap1\n      pop\n      jump\t// out\n        /* \"https://github.com/chiru-labs/ERC721A/blob/main/contracts/ERC721A.sol\":49703:49863  function _revert(bytes4 errorSelector) internal pure {... */\n    tag_144:\n        /* \"https://github.com/chiru-labs/ERC721A/blob/main/contracts/ERC721A.sol\":49802:49815  errorSelector */\n      dup1\n        /* \"https://github.com/chiru-labs/ERC721A/blob/main/contracts/ERC721A.sol\":49796:49800  0x00 */\n      0x00\n        /* \"https://github.com/chiru-labs/ERC721A/blob/main/contracts/ERC721A.sol\":49789:49816  mstore(0x00, errorSelector) */\n      mstore\n        /* \"https://github.com/chiru-labs/ERC721A/blob/main/contracts/ERC721A.sol\":49842:49846  0x04 */\n      0x04\n        /* \"https://github.com/chiru-labs/ERC721A/blob/main/contracts/ERC721A.sol\":49836:49840  0x00 */\n      0x00\n        /* \"https://github.com/chiru-labs/ERC721A/blob/main/contracts/ERC721A.sol\":49829:49847  revert(0x00, 0x04) */\n      revert\n        /* \"https://github.com/chiru-labs/ERC721A/blob/main/contracts/ERC721A.sol\":41333:41793  function _approve(... */\n    tag_147:\n        /* \"https://github.com/chiru-labs/ERC721A/blob/main/contracts/ERC721A.sol\":41457:41470  address owner */\n      0x00\n        /* \"https://github.com/chiru-labs/ERC721A/blob/main/contracts/ERC721A.sol\":41473:41489  ownerOf(tokenId) */\n      tag_284\n        /* \"https://github.com/chiru-labs/ERC721A/blob/main/contracts/ERC721A.sol\":41481:41488  tokenId */\n      dup4\n        /* \"https://github.com/chiru-labs/ERC721A/blob/main/contracts/ERC721A.sol\":41473:41480  ownerOf */\n      tag_85\n        /* \"https://github.com/chiru-labs/ERC721A/blob/main/contracts/ERC721A.sol\":41473:41489  ownerOf(tokenId) */\n      jump\t// in\n    tag_284:\n        /* \"https://github.com/chiru-labs/ERC721A/blob/main/contracts/ERC721A.sol\":41457:41489  address owner = ownerOf(tokenId) */\n      swap1\n      pop\n        /* \"https://github.com/chiru-labs/ERC721A/blob/main/contracts/ERC721A.sol\":41504:41517  approvalCheck */\n      dup2\n        /* \"https://github.com/chiru-labs/ERC721A/blob/main/contracts/ERC721A.sol\":41504:41549  approvalCheck && _msgSenderERC721A() != owner */\n      dup1\n      iszero\n      tag_285\n      jumpi\n      pop\n        /* \"https://github.com/chiru-labs/ERC721A/blob/main/contracts/ERC721A.sol\":47819:47829  msg.sender */\n      caller\n      sub(shl(0xa0, 0x01), 0x01)\n        /* \"https://github.com/chiru-labs/ERC721A/blob/main/contracts/ERC721A.sol\":41521:41549  _msgSenderERC721A() != owner */\n      dup3\n      and\n      eq\n      iszero\n        /* \"https://github.com/chiru-labs/ERC721A/blob/main/contracts/ERC721A.sol\":41504:41549  approvalCheck && _msgSenderERC721A() != owner */\n    tag_285:\n        /* \"https://github.com/chiru-labs/ERC721A/blob/main/contracts/ERC721A.sol\":41500:41698  if (approvalCheck && _msgSenderERC721A() != owner)... */\n      iszero\n      tag_291\n      jumpi\n      sub(shl(0xa0, 0x01), 0x01)\n        /* \"https://github.com/chiru-labs/ERC721A/blob/main/contracts/ERC721A.sol\":19687:19712  _operatorApprovals[owner] */\n      dup2\n      and\n        /* \"https://github.com/chiru-labs/ERC721A/blob/main/contracts/ERC721A.sol\":19664:19668  bool */\n      0x00\n        /* \"https://github.com/chiru-labs/ERC721A/blob/main/contracts/ERC721A.sol\":19687:19712  _operatorApprovals[owner] */\n      swap1\n      dup2\n      mstore\n        /* \"https://github.com/chiru-labs/ERC721A/blob/main/contracts/ERC721A.sol\":19687:19705  _operatorApprovals */\n      0x07\n        /* \"https://github.com/chiru-labs/ERC721A/blob/main/contracts/ERC721A.sol\":19687:19712  _operatorApprovals[owner] */\n      0x20\n      swap1\n      dup2\n      mstore\n      0x40\n      dup1\n      dup4\n      keccak256\n        /* \"https://github.com/chiru-labs/ERC721A/blob/main/contracts/ERC721A.sol\":47819:47829  msg.sender */\n      caller\n        /* \"https://github.com/chiru-labs/ERC721A/blob/main/contracts/ERC721A.sol\":19687:19722  _operatorApprovals[owner][operator] */\n      dup5\n      mstore\n      swap1\n      swap2\n      mstore\n      swap1\n      keccak256\n      sload\n      0xff\n      and\n        /* \"https://github.com/chiru-labs/ERC721A/blob/main/contracts/ERC721A.sol\":41563:41698  if (!isApprovedForAll(owner, _msgSenderERC721A())) {... */\n      tag_291\n      jumpi\n        /* \"https://github.com/chiru-labs/ERC721A/blob/main/contracts/ERC721A.sol\":41632:41683  _revert(ApprovalCallerNotOwnerNorApproved.selector) */\n      tag_291\n        /* \"https://github.com/chiru-labs/ERC721A/blob/main/contracts/ERC721A.sol\":41640:41682  ApprovalCallerNotOwnerNorApproved.selector */\n      0xcfb3b94200000000000000000000000000000000000000000000000000000000\n        /* \"https://github.com/chiru-labs/ERC721A/blob/main/contracts/ERC721A.sol\":41632:41639  _revert */\n      tag_144\n        /* \"https://github.com/chiru-labs/ERC721A/blob/main/contracts/ERC721A.sol\":41632:41683  _revert(ApprovalCallerNotOwnerNorApproved.selector) */\n      jump\t// in\n    tag_291:\n        /* \"https://github.com/chiru-labs/ERC721A/blob/main/contracts/ERC721A.sol\":41708:41732  _tokenApprovals[tokenId] */\n      0x00\n      dup4\n      dup2\n      mstore\n        /* \"https://github.com/chiru-labs/ERC721A/blob/main/contracts/ERC721A.sol\":41708:41723  _tokenApprovals */\n      0x06\n        /* \"https://github.com/chiru-labs/ERC721A/blob/main/contracts/ERC721A.sol\":41708:41732  _tokenApprovals[tokenId] */\n      0x20\n      mstore\n      0x40\n      dup1\n      dup3\n      keccak256\n        /* \"https://github.com/chiru-labs/ERC721A/blob/main/contracts/ERC721A.sol\":41708:41743  _tokenApprovals[tokenId].value = to */\n      dup1\n      sload\n      not(0xffffffffffffffffffffffffffffffffffffffff)\n      and\n      sub(shl(0xa0, 0x01), 0x01)\n      dup9\n      dup2\n      and\n      swap2\n      dup3\n      or\n      swap1\n      swap3\n      sstore\n        /* \"https://github.com/chiru-labs/ERC721A/blob/main/contracts/ERC721A.sol\":41758:41786  Approval(owner, to, tokenId) */\n      swap2\n      mload\n        /* \"https://github.com/chiru-labs/ERC721A/blob/main/contracts/ERC721A.sol\":41708:41732  _tokenApprovals[tokenId] */\n      dup7\n      swap4\n        /* \"https://github.com/chiru-labs/ERC721A/blob/main/contracts/ERC721A.sol\":41758:41786  Approval(owner, to, tokenId) */\n      swap2\n      dup6\n      and\n      swap2\n      0x8c5be1e5ebec7d5bd14f71427d1e84f3dd0314c0f7b2291e5b200ac8c7c3b925\n      swap2\n      log4\n        /* \"https://github.com/chiru-labs/ERC721A/blob/main/contracts/ERC721A.sol\":41447:41793  {... */\n      pop\n        /* \"https://github.com/chiru-labs/ERC721A/blob/main/contracts/ERC721A.sol\":41333:41793  function _approve(... */\n      pop\n      pop\n      pop\n      jump\t// out\n        /* \"https://github.com/chiru-labs/ERC721A/blob/main/contracts/ERC721A.sol\":14380:16553  function _packedOwnershipOf(uint256 tokenId) private view returns (uint256 packed) {... */\n    tag_156:\n        /* \"https://github.com/chiru-labs/ERC721A/blob/main/contracts/ERC721A.sol\":14528:14554  _packedOwnerships[tokenId] */\n      0x00\n      dup2\n      dup2\n      mstore\n        /* \"https://github.com/chiru-labs/ERC721A/blob/main/contracts/ERC721A.sol\":14528:14545  _packedOwnerships */\n      0x04\n        /* \"https://github.com/chiru-labs/ERC721A/blob/main/contracts/ERC721A.sol\":14528:14554  _packedOwnerships[tokenId] */\n      0x20\n      mstore\n      0x40\n      swap1\n      keccak256\n      sload\n        /* \"https://github.com/chiru-labs/ERC721A/blob/main/contracts/ERC721A.sol\":14847:14853  packed */\n      dup1\n        /* \"https://github.com/chiru-labs/ERC721A/blob/main/contracts/ERC721A.sol\":14857:14858  0 */\n      0x00\n        /* \"https://github.com/chiru-labs/ERC721A/blob/main/contracts/ERC721A.sol\":14847:14858  packed == 0 */\n      sub\n        /* \"https://github.com/chiru-labs/ERC721A/blob/main/contracts/ERC721A.sol\":14843:16113  if (packed == 0) {... */\n      tag_302\n      jumpi\n        /* \"https://github.com/chiru-labs/ERC721A/blob/main/contracts/ERC721A.sol\":14893:14906  _currentIndex */\n      sload(0x00)\n        /* \"https://github.com/chiru-labs/ERC721A/blob/main/contracts/ERC721A.sol\":14882:14889  tokenId */\n      dup3\n        /* \"https://github.com/chiru-labs/ERC721A/blob/main/contracts/ERC721A.sol\":14882:14906  tokenId >= _currentIndex */\n      lt\n        /* \"https://github.com/chiru-labs/ERC721A/blob/main/contracts/ERC721A.sol\":14878:14955  if (tokenId >= _currentIndex) _revert(OwnerQueryForNonexistentToken.selector) */\n      tag_304\n      jumpi\n        /* \"https://github.com/chiru-labs/ERC721A/blob/main/contracts/ERC721A.sol\":14908:14955  _revert(OwnerQueryForNonexistentToken.selector) */\n      tag_304\n      shl(0xe1, 0x6f96cda1)\n        /* \"https://github.com/chiru-labs/ERC721A/blob/main/contracts/ERC721A.sol\":14908:14915  _revert */\n      tag_144\n        /* \"https://github.com/chiru-labs/ERC721A/blob/main/contracts/ERC721A.sol\":14908:14955  _revert(OwnerQueryForNonexistentToken.selector) */\n      jump\t// in\n    tag_304:\n        /* \"https://github.com/chiru-labs/ERC721A/blob/main/contracts/ERC721A.sol\":15502:16099  for (;;) {... */\n    tag_305:\n      pop\n      not(0x00)\n        /* \"https://github.com/chiru-labs/ERC721A/blob/main/contracts/ERC721A.sol\":15596:15605  --tokenId */\n      add\n        /* \"https://github.com/chiru-labs/ERC721A/blob/main/contracts/ERC721A.sol\":15578:15606  _packedOwnerships[--tokenId] */\n      0x00\n      dup2\n      dup2\n      mstore\n        /* \"https://github.com/chiru-labs/ERC721A/blob/main/contracts/ERC721A.sol\":15578:15595  _packedOwnerships */\n      0x04\n        /* \"https://github.com/chiru-labs/ERC721A/blob/main/contracts/ERC721A.sol\":15578:15606  _packedOwnerships[--tokenId] */\n      0x20\n      mstore\n      0x40\n      swap1\n      keccak256\n      sload\n        /* \"https://github.com/chiru-labs/ERC721A/blob/main/contracts/ERC721A.sol\":15650:15675  if (packed == 0) continue */\n      dup1\n      iszero\n        /* \"https://github.com/chiru-labs/ERC721A/blob/main/contracts/ERC721A.sol\":15502:16099  for (;;) {... */\n      tag_305\n        /* \"https://github.com/chiru-labs/ERC721A/blob/main/contracts/ERC721A.sol\":15650:15675  if (packed == 0) continue */\n      jumpi\n      shl(0xe0, 0x01)\n        /* \"https://github.com/chiru-labs/ERC721A/blob/main/contracts/ERC721A.sol\":15701:15707  packed */\n      dup2\n        /* \"https://github.com/chiru-labs/ERC721A/blob/main/contracts/ERC721A.sol\":15701:15725  packed & _BITMASK_BURNED */\n      and\n        /* \"https://github.com/chiru-labs/ERC721A/blob/main/contracts/ERC721A.sol\":15729:15730  0 */\n      0x00\n        /* \"https://github.com/chiru-labs/ERC721A/blob/main/contracts/ERC721A.sol\":15701:15730  packed & _BITMASK_BURNED == 0 */\n      sub\n        /* \"https://github.com/chiru-labs/ERC721A/blob/main/contracts/ERC721A.sol\":15697:15745  if (packed & _BITMASK_BURNED == 0) return packed */\n      tag_309\n      jumpi\n        /* \"https://github.com/chiru-labs/ERC721A/blob/main/contracts/ERC721A.sol\":14380:16553  function _packedOwnershipOf(uint256 tokenId) private view returns (uint256 packed) {... */\n      swap2\n      swap1\n      pop\n      jump\t// out\n        /* \"https://github.com/chiru-labs/ERC721A/blob/main/contracts/ERC721A.sol\":15697:15745  if (packed & _BITMASK_BURNED == 0) return packed */\n    tag_309:\n        /* \"https://github.com/chiru-labs/ERC721A/blob/main/contracts/ERC721A.sol\":16033:16080  _revert(OwnerQueryForNonexistentToken.selector) */\n      tag_310\n      shl(0xe1, 0x6f96cda1)\n        /* \"https://github.com/chiru-labs/ERC721A/blob/main/contracts/ERC721A.sol\":16033:16040  _revert */\n      tag_144\n        /* \"https://github.com/chiru-labs/ERC721A/blob/main/contracts/ERC721A.sol\":16033:16080  _revert(OwnerQueryForNonexistentToken.selector) */\n      jump\t// in\n    tag_310:\n        /* \"https://github.com/chiru-labs/ERC721A/blob/main/contracts/ERC721A.sol\":15502:16099  for (;;) {... */\n      jump(tag_305)\n        /* \"https://github.com/chiru-labs/ERC721A/blob/main/contracts/ERC721A.sol\":14843:16113  if (packed == 0) {... */\n    tag_302:\n      shl(0xe0, 0x01)\n        /* \"https://github.com/chiru-labs/ERC721A/blob/main/contracts/ERC721A.sol\":16435:16441  packed */\n      dup2\n        /* \"https://github.com/chiru-labs/ERC721A/blob/main/contracts/ERC721A.sol\":16435:16459  packed & _BITMASK_BURNED */\n      and\n        /* \"https://github.com/chiru-labs/ERC721A/blob/main/contracts/ERC721A.sol\":16463:16464  0 */\n      0x00\n        /* \"https://github.com/chiru-labs/ERC721A/blob/main/contracts/ERC721A.sol\":16435:16464  packed & _BITMASK_BURNED == 0 */\n      sub\n        /* \"https://github.com/chiru-labs/ERC721A/blob/main/contracts/ERC721A.sol\":16431:16479  if (packed & _BITMASK_BURNED == 0) return packed */\n      tag_311\n      jumpi\n        /* \"https://github.com/chiru-labs/ERC721A/blob/main/contracts/ERC721A.sol\":14380:16553  function _packedOwnershipOf(uint256 tokenId) private view returns (uint256 packed) {... */\n      swap2\n      swap1\n      pop\n      jump\t// out\n        /* \"https://github.com/chiru-labs/ERC721A/blob/main/contracts/ERC721A.sol\":16431:16479  if (packed & _BITMASK_BURNED == 0) return packed */\n    tag_311:\n        /* \"https://github.com/chiru-labs/ERC721A/blob/main/contracts/ERC721A.sol\":16499:16546  _revert(OwnerQueryForNonexistentToken.selector) */\n      tag_277\n      shl(0xe1, 0x6f96cda1)\n        /* \"https://github.com/chiru-labs/ERC721A/blob/main/contracts/ERC721A.sol\":16499:16506  _revert */\n      tag_144\n        /* \"https://github.com/chiru-labs/ERC721A/blob/main/contracts/ERC721A.sol\":16499:16546  _revert(OwnerQueryForNonexistentToken.selector) */\n      jump\t// in\n        /* \"contracts/ContractV/ContractVV1.sol\":6913:7052  function _checkCreatureOwned(uint256 id) private view {... */\n    tag_186:\n        /* \"contracts/ContractV/ContractVV1.sol\":6982:6995  creatures[id] */\n      0x00\n      dup2\n      dup2\n      mstore\n        /* \"contracts/ContractV/ContractVV1.sol\":6982:6991  creatures */\n      0x0a\n        /* \"contracts/ContractV/ContractVV1.sol\":6982:6995  creatures[id] */\n      0x20\n      mstore\n      0x40\n      swap1\n      keccak256\n        /* \"contracts/ContractV/ContractVV1.sol\":6982:7001  creatures[id].owner */\n      0x01\n      add\n      sload\n      sub(shl(0xa0, 0x01), 0x01)\n      and\n        /* \"https://github.com/chiru-labs/ERC721A/blob/main/contracts/ERC721A.sol\":47819:47829  msg.sender */\n      caller\n        /* \"contracts/ContractV/ContractVV1.sol\":6982:7017  creatures[id].owner != _msgSender() */\n      eq\n        /* \"contracts/ContractV/ContractVV1.sol\":6978:7044  if (creatures[id].owner != _msgSender()) revert CreatureNotOwned() */\n      tag_324\n      jumpi\n        /* \"contracts/ContractV/ContractVV1.sol\":7026:7044  CreatureNotOwned() */\n      mload(0x40)\n      0x233de59500000000000000000000000000000000000000000000000000000000\n      dup2\n      mstore\n      0x04\n      add\n      mload(0x40)\n      dup1\n      swap2\n      sub\n      swap1\n      revert\n        /* \"contracts/ContractV/ContractVV1.sol\":6978:7044  if (creatures[id].owner != _msgSender()) revert CreatureNotOwned() */\n    tag_324:\n        /* \"contracts/ContractV/ContractVV1.sol\":6913:7052  function _checkCreatureOwned(uint256 id) private view {... */\n      pop\n      jump\t// out\n        /* \"contracts/ContractV/ContractVV1.sol\":7060:7502  function _updateBattleRecord(uint256 creatureId, bool won) private {... */\n    tag_199:\n        /* \"contracts/ContractV/ContractVV1.sol\":7138:7163  Creature storage creature */\n      0x00\n        /* \"contracts/ContractV/ContractVV1.sol\":7166:7187  creatures[creatureId] */\n      dup3\n      dup2\n      mstore\n        /* \"contracts/ContractV/ContractVV1.sol\":7166:7175  creatures */\n      0x0a\n        /* \"contracts/ContractV/ContractVV1.sol\":7166:7187  creatures[creatureId] */\n      0x20\n      mstore\n      0x40\n      swap1\n      keccak256\n        /* \"contracts/ContractV/ContractVV1.sol\":7250:7271  creature.battleRecord */\n      0x03\n      dup2\n      add\n      sload\n        /* \"contracts/ContractV/ContractVV1.sol\":4518:4537  sub(shl(128, 1), 1) */\n      0xffffffffffffffffffffffffffffffff\n        /* \"contracts/ContractV/ContractVV1.sol\":4482:4538  and(shr(WINS_BITPOS, battleRecord), sub(shl(128, 1), 1)) */\n      dup2\n      and\n      swap1\n        /* \"contracts/ContractV/ContractVV1.sol\":4526:4529  128 */\n      0x80\n        /* \"contracts/ContractV/ContractVV1.sol\":4648:4680  shr(LOSSES_BITPOS, battleRecord) */\n      shr\n        /* \"contracts/ContractV/ContractVV1.sol\":7316:7319  won */\n      dup4\n        /* \"contracts/ContractV/ContractVV1.sol\":7338:7342  true */\n      0x01\n        /* \"contracts/ContractV/ContractVV1.sol\":7333:7367  case true { wins := add(wins, 1) } */\n      dup2\n      eq\n      tag_328\n      jumpi\n        /* \"contracts/ContractV/ContractVV1.sol\":7413:7414  1 */\n      0x01\n        /* \"contracts/ContractV/ContractVV1.sol\":7405:7411  losses */\n      dup3\n        /* \"contracts/ContractV/ContractVV1.sol\":7401:7415  add(losses, 1) */\n      add\n        /* \"contracts/ContractV/ContractVV1.sol\":7391:7415  losses := add(losses, 1) */\n      swap2\n      pop\n        /* \"contracts/ContractV/ContractVV1.sol\":7309:7417  switch won... */\n      jump(tag_327)\n        /* \"contracts/ContractV/ContractVV1.sol\":7333:7367  case true { wins := add(wins, 1) } */\n    tag_328:\n        /* \"contracts/ContractV/ContractVV1.sol\":7363:7364  1 */\n      0x01\n        /* \"contracts/ContractV/ContractVV1.sol\":7357:7361  wins */\n      dup4\n        /* \"contracts/ContractV/ContractVV1.sol\":7353:7365  add(wins, 1) */\n      add\n        /* \"contracts/ContractV/ContractVV1.sol\":7345:7365  wins := add(wins, 1) */\n      swap3\n      pop\n        /* \"contracts/ContractV/ContractVV1.sol\":7309:7417  switch won... */\n    tag_327:\n      pop\n        /* \"contracts/ContractV/ContractVV1.sol\":7464:7494  packBattleRecord(wins, losses) */\n      tag_329\n        /* \"contracts/ContractV/ContractVV1.sol\":7481:7485  wins */\n      dup3\n        /* \"contracts/ContractV/ContractVV1.sol\":7487:7493  losses */\n      dup3\n        /* \"contracts/ContractV/ContractVV1.sol\":4123:4136  LOSSES_BITPOS */\n      0x80\n        /* \"contracts/ContractV/ContractVV1.sol\":4119:4145  shl(LOSSES_BITPOS, losses) */\n      shl\n        /* \"contracts/ContractV/ContractVV1.sol\":4049:4164  or(... */\n      or\n      swap1\n        /* \"contracts/ContractV/ContractVV1.sol\":3798:4182  function packBattleRecord(uint256 wins, uint256 losses) internal pure returns (uint256 battleRecord) {... */\n      jump\n        /* \"contracts/ContractV/ContractVV1.sol\":7464:7494  packBattleRecord(wins, losses) */\n    tag_329:\n        /* \"contracts/ContractV/ContractVV1.sol\":7440:7448  creature */\n      dup4\n        /* \"contracts/ContractV/ContractVV1.sol\":7440:7461  creature.battleRecord */\n      0x03\n      add\n        /* \"contracts/ContractV/ContractVV1.sol\":7440:7494  creature.battleRecord = packBattleRecord(wins, losses) */\n      dup2\n      swap1\n      sstore\n      pop\n        /* \"contracts/ContractV/ContractVV1.sol\":7127:7502  {... */\n      pop\n      pop\n      pop\n        /* \"contracts/ContractV/ContractVV1.sol\":7060:7502  function _updateBattleRecord(uint256 creatureId, bool won) private {... */\n      pop\n      pop\n      jump\t// out\n        /* \"https://github.com/chiru-labs/ERC721A/blob/main/contracts/ERC721A.sol\":36661:36771  function _safeMint(address to, uint256 quantity) internal virtual {... */\n    tag_229:\n        /* \"https://github.com/chiru-labs/ERC721A/blob/main/contracts/ERC721A.sol\":36737:36764  _safeMint(to, quantity, '') */\n      tag_146\n        /* \"https://github.com/chiru-labs/ERC721A/blob/main/contracts/ERC721A.sol\":36747:36749  to */\n      dup3\n        /* \"https://github.com/chiru-labs/ERC721A/blob/main/contracts/ERC721A.sol\":36751:36759  quantity */\n      dup3\n        /* \"https://github.com/chiru-labs/ERC721A/blob/main/contracts/ERC721A.sol\":36737:36764  _safeMint(to, quantity, '') */\n      mload(0x40)\n      dup1\n      0x20\n      add\n      0x40\n      mstore\n      dup1\n      0x00\n      dup2\n      mstore\n      pop\n        /* \"https://github.com/chiru-labs/ERC721A/blob/main/contracts/ERC721A.sol\":36737:36746  _safeMint */\n      tag_335\n        /* \"https://github.com/chiru-labs/ERC721A/blob/main/contracts/ERC721A.sol\":36737:36764  _safeMint(to, quantity, '') */\n      jump\t// in\n        /* \"https://github.com/chiru-labs/ERC721A/blob/main/contracts/ERC721A.sol\":29533:30206  function _checkContractOnERC721Received(... */\n    tag_250:\n        /* \"https://github.com/chiru-labs/ERC721A/blob/main/contracts/ERC721A.sol\":29711:29799  ERC721A__IERC721Receiver(to).onERC721Received(_msgSenderERC721A(), from, tokenId, _data) */\n      mload(0x40)\n      shl(0xe1, 0x0a85bd01)\n      dup2\n      mstore\n        /* \"https://github.com/chiru-labs/ERC721A/blob/main/contracts/ERC721A.sol\":29691:29695  bool */\n      0x00\n      swap1\n      sub(shl(0xa0, 0x01), 0x01)\n        /* \"https://github.com/chiru-labs/ERC721A/blob/main/contracts/ERC721A.sol\":29711:29756  ERC721A__IERC721Receiver(to).onERC721Received */\n      dup6\n      and\n      swap1\n      0x150b7a02\n      swap1\n        /* \"https://github.com/chiru-labs/ERC721A/blob/main/contracts/ERC721A.sol\":29711:29799  ERC721A__IERC721Receiver(to).onERC721Received(_msgSenderERC721A(), from, tokenId, _data) */\n      tag_338\n      swap1\n        /* \"https://github.com/chiru-labs/ERC721A/blob/main/contracts/ERC721A.sol\":47819:47829  msg.sender */\n      caller\n      swap1\n        /* \"https://github.com/chiru-labs/ERC721A/blob/main/contracts/ERC721A.sol\":29778:29782  from */\n      dup10\n      swap1\n        /* \"https://github.com/chiru-labs/ERC721A/blob/main/contracts/ERC721A.sol\":29784:29791  tokenId */\n      dup9\n      swap1\n        /* \"https://github.com/chiru-labs/ERC721A/blob/main/contracts/ERC721A.sol\":29793:29798  _data */\n      dup9\n      swap1\n        /* \"https://github.com/chiru-labs/ERC721A/blob/main/contracts/ERC721A.sol\":29711:29799  ERC721A__IERC721Receiver(to).onERC721Received(_msgSenderERC721A(), from, tokenId, _data) */\n      0x04\n      add\n      tag_339\n      jump\t// in\n    tag_338:\n      0x20\n      mload(0x40)\n      dup1\n      dup4\n      sub\n      dup2\n      0x00\n      dup8\n      gas\n      call\n      swap3\n      pop\n      pop\n      pop\n      dup1\n      iszero\n      tag_340\n      jumpi\n      pop\n      0x40\n      dup1\n      mload\n      0x1f\n      returndatasize\n      swap1\n      dup2\n      add\n      not(0x1f)\n      and\n      dup3\n      add\n      swap1\n      swap3\n      mstore\n      tag_341\n      swap2\n      dup2\n      add\n      swap1\n      tag_342\n      jump\t// in\n    tag_341:\n      0x01\n    tag_340:\n        /* \"https://github.com/chiru-labs/ERC721A/blob/main/contracts/ERC721A.sol\":29707:30200  try ERC721A__IERC721Receiver(to).onERC721Received(_msgSenderERC721A(), from, tokenId, _data) returns (... */\n      tag_343\n      jumpi\n      returndatasize\n      dup1\n      dup1\n      iszero\n      tag_348\n      jumpi\n      mload(0x40)\n      swap2\n      pop\n      and(add(returndatasize, 0x3f), not(0x1f))\n      dup3\n      add\n      0x40\n      mstore\n      returndatasize\n      dup3\n      mstore\n      returndatasize\n      0x00\n      0x20\n      dup5\n      add\n      returndatacopy\n      jump(tag_347)\n    tag_348:\n      0x60\n      swap2\n      pop\n    tag_347:\n      pop\n        /* \"https://github.com/chiru-labs/ERC721A/blob/main/contracts/ERC721A.sol\":29989:29995  reason */\n      dup1\n        /* \"https://github.com/chiru-labs/ERC721A/blob/main/contracts/ERC721A.sol\":29989:30002  reason.length */\n      mload\n        /* \"https://github.com/chiru-labs/ERC721A/blob/main/contracts/ERC721A.sol\":30006:30007  0 */\n      0x00\n        /* \"https://github.com/chiru-labs/ERC721A/blob/main/contracts/ERC721A.sol\":29989:30007  reason.length == 0 */\n      sub\n        /* \"https://github.com/chiru-labs/ERC721A/blob/main/contracts/ERC721A.sol\":29985:30098  if (reason.length == 0) {... */\n      tag_350\n      jumpi\n        /* \"https://github.com/chiru-labs/ERC721A/blob/main/contracts/ERC721A.sol\":30027:30083  _revert(TransferToNonERC721ReceiverImplementer.selector) */\n      tag_350\n      shl(0xe1, 0x68d2bf6b)\n        /* \"https://github.com/chiru-labs/ERC721A/blob/main/contracts/ERC721A.sol\":30027:30034  _revert */\n      tag_144\n        /* \"https://github.com/chiru-labs/ERC721A/blob/main/contracts/ERC721A.sol\":30027:30083  _revert(TransferToNonERC721ReceiverImplementer.selector) */\n      jump\t// in\n    tag_350:\n        /* \"https://github.com/chiru-labs/ERC721A/blob/main/contracts/ERC721A.sol\":30168:30174  reason */\n      dup1\n        /* \"https://github.com/chiru-labs/ERC721A/blob/main/contracts/ERC721A.sol\":30162:30175  mload(reason) */\n      mload\n        /* \"https://github.com/chiru-labs/ERC721A/blob/main/contracts/ERC721A.sol\":30153:30159  reason */\n      dup2\n        /* \"https://github.com/chiru-labs/ERC721A/blob/main/contracts/ERC721A.sol\":30149:30151  32 */\n      0x20\n        /* \"https://github.com/chiru-labs/ERC721A/blob/main/contracts/ERC721A.sol\":30145:30160  add(32, reason) */\n      add\n        /* \"https://github.com/chiru-labs/ERC721A/blob/main/contracts/ERC721A.sol\":30138:30176  revert(add(32, reason), mload(reason)) */\n      revert\n        /* \"https://github.com/chiru-labs/ERC721A/blob/main/contracts/ERC721A.sol\":29707:30200  try ERC721A__IERC721Receiver(to).onERC721Received(_msgSenderERC721A(), from, tokenId, _data) returns (... */\n    tag_343:\n      not(sub(shl(0xe0, 0x01), 0x01))\n        /* \"https://github.com/chiru-labs/ERC721A/blob/main/contracts/ERC721A.sol\":29867:29931  retval == ERC721A__IERC721Receiver(to).onERC721Received.selector */\n      and\n      shl(0xe1, 0x0a85bd01)\n      eq\n      swap1\n      pop\n        /* \"https://github.com/chiru-labs/ERC721A/blob/main/contracts/ERC721A.sol\":29707:30200  try ERC721A__IERC721Receiver(to).onERC721Received(_msgSenderERC721A(), from, tokenId, _data) returns (... */\n    tag_351:\n        /* \"https://github.com/chiru-labs/ERC721A/blob/main/contracts/ERC721A.sol\":29533:30206  function _checkContractOnERC721Received(... */\n      swap5\n      swap4\n      pop\n      pop\n      pop\n      pop\n      jump\t// out\n        /* \"https://github.com/chiru-labs/ERC721A/blob/main/contracts/ERC721A.sol\":47933:49641  function _toString(uint256 value) internal pure virtual returns (string memory str) {... */\n    tag_262:\n        /* \"https://github.com/chiru-labs/ERC721A/blob/main/contracts/ERC721A.sol\":47998:48015  string memory str */\n      0x60\n        /* \"https://github.com/chiru-labs/ERC721A/blob/main/contracts/ERC721A.sol\":48426:48430  0xa0 */\n      0xa0\n        /* \"https://github.com/chiru-labs/ERC721A/blob/main/contracts/ERC721A.sol\":48419:48423  0x40 */\n      0x40\n        /* \"https://github.com/chiru-labs/ERC721A/blob/main/contracts/ERC721A.sol\":48413:48424  mload(0x40) */\n      mload\n        /* \"https://github.com/chiru-labs/ERC721A/blob/main/contracts/ERC721A.sol\":48409:48431  add(mload(0x40), 0xa0) */\n      add\n        /* \"https://github.com/chiru-labs/ERC721A/blob/main/contracts/ERC721A.sol\":48516:48517  m */\n      dup1\n        /* \"https://github.com/chiru-labs/ERC721A/blob/main/contracts/ERC721A.sol\":48510:48514  0x40 */\n      0x40\n        /* \"https://github.com/chiru-labs/ERC721A/blob/main/contracts/ERC721A.sol\":48503:48518  mstore(0x40, m) */\n      mstore\n        /* \"https://github.com/chiru-labs/ERC721A/blob/main/contracts/ERC721A.sol\":48589:48593  0x20 */\n      0x20\n        /* \"https://github.com/chiru-labs/ERC721A/blob/main/contracts/ERC721A.sol\":48586:48587  m */\n      dup2\n        /* \"https://github.com/chiru-labs/ERC721A/blob/main/contracts/ERC721A.sol\":48582:48594  sub(m, 0x20) */\n      sub\n        /* \"https://github.com/chiru-labs/ERC721A/blob/main/contracts/ERC721A.sol\":48575:48594  str := sub(m, 0x20) */\n      swap2\n      pop\n      pop\n        /* \"https://github.com/chiru-labs/ERC721A/blob/main/contracts/ERC721A.sol\":48669:48670  0 */\n      0x00\n        /* \"https://github.com/chiru-labs/ERC721A/blob/main/contracts/ERC721A.sol\":48664:48667  str */\n      dup2\n        /* \"https://github.com/chiru-labs/ERC721A/blob/main/contracts/ERC721A.sol\":48657:48671  mstore(str, 0) */\n      mstore\n        /* \"https://github.com/chiru-labs/ERC721A/blob/main/contracts/ERC721A.sol\":48770:48773  str */\n      dup1\n        /* \"https://github.com/chiru-labs/ERC721A/blob/main/contracts/ERC721A.sol\":49004:49009  value */\n      dup3\n        /* \"https://github.com/chiru-labs/ERC721A/blob/main/contracts/ERC721A.sol\":48986:49405  for { let temp := value } 1 {} {... */\n    tag_354:\n        /* \"https://github.com/chiru-labs/ERC721A/blob/main/contracts/ERC721A.sol\":49051:49052  1 */\n      0x01\n        /* \"https://github.com/chiru-labs/ERC721A/blob/main/contracts/ERC721A.sol\":49046:49049  str */\n      dup4\n        /* \"https://github.com/chiru-labs/ERC721A/blob/main/contracts/ERC721A.sol\":49042:49053  sub(str, 1) */\n      sub\n        /* \"https://github.com/chiru-labs/ERC721A/blob/main/contracts/ERC721A.sol\":49035:49053  str := sub(str, 1) */\n      swap3\n      pop\n        /* \"https://github.com/chiru-labs/ERC721A/blob/main/contracts/ERC721A.sol\":49219:49221  10 */\n      0x0a\n        /* \"https://github.com/chiru-labs/ERC721A/blob/main/contracts/ERC721A.sol\":49213:49217  temp */\n      dup2\n        /* \"https://github.com/chiru-labs/ERC721A/blob/main/contracts/ERC721A.sol\":49209:49222  mod(temp, 10) */\n      mod\n        /* \"https://github.com/chiru-labs/ERC721A/blob/main/contracts/ERC721A.sol\":49205:49207  48 */\n      0x30\n        /* \"https://github.com/chiru-labs/ERC721A/blob/main/contracts/ERC721A.sol\":49201:49223  add(48, mod(temp, 10)) */\n      add\n        /* \"https://github.com/chiru-labs/ERC721A/blob/main/contracts/ERC721A.sol\":49196:49199  str */\n      dup4\n        /* \"https://github.com/chiru-labs/ERC721A/blob/main/contracts/ERC721A.sol\":49188:49224  mstore8(str, add(48, mod(temp, 10))) */\n      mstore8\n        /* \"https://github.com/chiru-labs/ERC721A/blob/main/contracts/ERC721A.sol\":49311:49313  10 */\n      0x0a\n        /* \"https://github.com/chiru-labs/ERC721A/blob/main/contracts/ERC721A.sol\":49301:49314  div(temp, 10) */\n      swap1\n      div\n        /* \"https://github.com/chiru-labs/ERC721A/blob/main/contracts/ERC721A.sol\":49366:49391  if iszero(temp) { break } */\n      dup1\n        /* \"https://github.com/chiru-labs/ERC721A/blob/main/contracts/ERC721A.sol\":48986:49405  for { let temp := value } 1 {} {... */\n      tag_354\n        /* \"https://github.com/chiru-labs/ERC721A/blob/main/contracts/ERC721A.sol\":49366:49391  if iszero(temp) { break } */\n      jumpi\n      pop\n        /* \"https://github.com/chiru-labs/ERC721A/blob/main/contracts/ERC721A.sol\":49433:49446  sub(end, str) */\n      dup2\n      swap1\n      sub\n      not(0x1f)\n        /* \"https://github.com/chiru-labs/ERC721A/blob/main/contracts/ERC721A.sol\":49546:49560  sub(str, 0x20) */\n      swap1\n      swap2\n      add\n        /* \"https://github.com/chiru-labs/ERC721A/blob/main/contracts/ERC721A.sol\":49606:49625  mstore(str, length) */\n      swap1\n      dup2\n      mstore\n        /* \"https://github.com/chiru-labs/ERC721A/blob/main/contracts/ERC721A.sol\":49546:49560  sub(str, 0x20) */\n      swap2\n        /* \"https://github.com/chiru-labs/ERC721A/blob/main/contracts/ERC721A.sol\":47933:49641  function _toString(uint256 value) internal pure virtual returns (string memory str) {... */\n      swap1\n      pop\n      jump\t// out\n        /* \"https://github.com/chiru-labs/ERC721A/blob/main/contracts/ERC721A.sol\":35816:36582  function _safeMint(... */\n    tag_335:\n        /* \"https://github.com/chiru-labs/ERC721A/blob/main/contracts/ERC721A.sol\":35942:35961  _mint(to, quantity) */\n      tag_361\n        /* \"https://github.com/chiru-labs/ERC721A/blob/main/contracts/ERC721A.sol\":35948:35950  to */\n      dup4\n        /* \"https://github.com/chiru-labs/ERC721A/blob/main/contracts/ERC721A.sol\":35952:35960  quantity */\n      dup4\n        /* \"https://github.com/chiru-labs/ERC721A/blob/main/contracts/ERC721A.sol\":35942:35947  _mint */\n      tag_362\n        /* \"https://github.com/chiru-labs/ERC721A/blob/main/contracts/ERC721A.sol\":35942:35961  _mint(to, quantity) */\n      jump\t// in\n    tag_361:\n      sub(shl(0xa0, 0x01), 0x01)\n        /* \"https://github.com/chiru-labs/ERC721A/blob/main/contracts/ERC721A.sol\":36000:36014  to.code.length */\n      dup4\n      and\n      extcodesize\n        /* \"https://github.com/chiru-labs/ERC721A/blob/main/contracts/ERC721A.sol\":36000:36019  to.code.length != 0 */\n      iszero\n        /* \"https://github.com/chiru-labs/ERC721A/blob/main/contracts/ERC721A.sol\":35996:36566  if (to.code.length != 0) {... */\n      tag_206\n      jumpi\n        /* \"https://github.com/chiru-labs/ERC721A/blob/main/contracts/ERC721A.sol\":36039:36050  uint256 end */\n      0x00\n        /* \"https://github.com/chiru-labs/ERC721A/blob/main/contracts/ERC721A.sol\":36053:36066  _currentIndex */\n      sload\n        /* \"https://github.com/chiru-labs/ERC721A/blob/main/contracts/ERC721A.sol\":36100:36114  end - quantity */\n      dup3\n      dup2\n      sub\n        /* \"https://github.com/chiru-labs/ERC721A/blob/main/contracts/ERC721A.sol\":36132:36370  do {... */\n    tag_364:\n        /* \"https://github.com/chiru-labs/ERC721A/blob/main/contracts/ERC721A.sol\":36162:36224  _checkContractOnERC721Received(address(0), to, index++, _data) */\n      tag_367\n        /* \"https://github.com/chiru-labs/ERC721A/blob/main/contracts/ERC721A.sol\":36201:36202  0 */\n      0x00\n        /* \"https://github.com/chiru-labs/ERC721A/blob/main/contracts/ERC721A.sol\":36205:36207  to */\n      dup7\n        /* \"https://github.com/chiru-labs/ERC721A/blob/main/contracts/ERC721A.sol\":36209:36216  index++ */\n      dup4\n      dup1\n      0x01\n      add\n      swap5\n      pop\n        /* \"https://github.com/chiru-labs/ERC721A/blob/main/contracts/ERC721A.sol\":36218:36223  _data */\n      dup7\n        /* \"https://github.com/chiru-labs/ERC721A/blob/main/contracts/ERC721A.sol\":36162:36192  _checkContractOnERC721Received */\n      tag_250\n        /* \"https://github.com/chiru-labs/ERC721A/blob/main/contracts/ERC721A.sol\":36162:36224  _checkContractOnERC721Received(address(0), to, index++, _data) */\n      jump\t// in\n    tag_367:\n        /* \"https://github.com/chiru-labs/ERC721A/blob/main/contracts/ERC721A.sol\":36157:36331  if (!_checkContractOnERC721Received(address(0), to, index++, _data)) {... */\n      tag_369\n      jumpi\n        /* \"https://github.com/chiru-labs/ERC721A/blob/main/contracts/ERC721A.sol\":36252:36308  _revert(TransferToNonERC721ReceiverImplementer.selector) */\n      tag_369\n      shl(0xe1, 0x68d2bf6b)\n        /* \"https://github.com/chiru-labs/ERC721A/blob/main/contracts/ERC721A.sol\":36252:36259  _revert */\n      tag_144\n        /* \"https://github.com/chiru-labs/ERC721A/blob/main/contracts/ERC721A.sol\":36252:36308  _revert(TransferToNonERC721ReceiverImplementer.selector) */\n      jump\t// in\n    tag_369:\n        /* \"https://github.com/chiru-labs/ERC721A/blob/main/contracts/ERC721A.sol\":36365:36368  end */\n      dup2\n        /* \"https://github.com/chiru-labs/ERC721A/blob/main/contracts/ERC721A.sol\":36357:36362  index */\n      dup2\n        /* \"https://github.com/chiru-labs/ERC721A/blob/main/contracts/ERC721A.sol\":36357:36368  index < end */\n      lt\n        /* \"https://github.com/chiru-labs/ERC721A/blob/main/contracts/ERC721A.sol\":36132:36370  do {... */\n      tag_364\n      jumpi\n        /* \"https://github.com/chiru-labs/ERC721A/blob/main/contracts/ERC721A.sol\":36538:36541  end */\n      dup2\n        /* \"https://github.com/chiru-labs/ERC721A/blob/main/contracts/ERC721A.sol\":36521:36534  _currentIndex */\n      sload(0x00)\n        /* \"https://github.com/chiru-labs/ERC721A/blob/main/contracts/ERC721A.sol\":36521:36541  _currentIndex != end */\n      eq\n        /* \"https://github.com/chiru-labs/ERC721A/blob/main/contracts/ERC721A.sol\":36517:36551  if (_currentIndex != end) revert() */\n      tag_370\n      jumpi\n        /* \"https://github.com/chiru-labs/ERC721A/blob/main/contracts/ERC721A.sol\":36543:36551  revert() */\n      0x00\n      dup1\n      revert\n        /* \"https://github.com/chiru-labs/ERC721A/blob/main/contracts/ERC721A.sol\":36517:36551  if (_currentIndex != end) revert() */\n    tag_370:\n        /* \"https://github.com/chiru-labs/ERC721A/blob/main/contracts/ERC721A.sol\":36021:36566  {... */\n      pop\n      pop\n        /* \"https://github.com/chiru-labs/ERC721A/blob/main/contracts/ERC721A.sol\":35816:36582  function _safeMint(... */\n      pop\n      pop\n      pop\n      jump\t// out\n        /* \"https://github.com/chiru-labs/ERC721A/blob/main/contracts/ERC721A.sol\":30652:32995  function _mint(address to, uint256 quantity) internal virtual {... */\n    tag_362:\n        /* \"https://github.com/chiru-labs/ERC721A/blob/main/contracts/ERC721A.sol\":30724:30744  uint256 startTokenId */\n      0x00\n        /* \"https://github.com/chiru-labs/ERC721A/blob/main/contracts/ERC721A.sol\":30747:30760  _currentIndex */\n      dup1\n      sload\n      swap1\n        /* \"https://github.com/chiru-labs/ERC721A/blob/main/contracts/ERC721A.sol\":30774:30787  quantity == 0 */\n      dup3\n      swap1\n      sub\n        /* \"https://github.com/chiru-labs/ERC721A/blob/main/contracts/ERC721A.sol\":30770:30823  if (quantity == 0) _revert(MintZeroQuantity.selector) */\n      tag_373\n      jumpi\n        /* \"https://github.com/chiru-labs/ERC721A/blob/main/contracts/ERC721A.sol\":30789:30823  _revert(MintZeroQuantity.selector) */\n      tag_373\n        /* \"https://github.com/chiru-labs/ERC721A/blob/main/contracts/ERC721A.sol\":30797:30822  MintZeroQuantity.selector */\n      0xb562e8dd00000000000000000000000000000000000000000000000000000000\n        /* \"https://github.com/chiru-labs/ERC721A/blob/main/contracts/ERC721A.sol\":30789:30796  _revert */\n      tag_144\n        /* \"https://github.com/chiru-labs/ERC721A/blob/main/contracts/ERC721A.sol\":30789:30823  _revert(MintZeroQuantity.selector) */\n      jump\t// in\n    tag_373:\n        /* \"https://github.com/chiru-labs/ERC721A/blob/main/contracts/ERC721A.sol\":31323:31354  _packedOwnerships[startTokenId] */\n      0x00\n      dup2\n      dup2\n      mstore\n        /* \"https://github.com/chiru-labs/ERC721A/blob/main/contracts/ERC721A.sol\":31323:31340  _packedOwnerships */\n      0x04\n        /* \"https://github.com/chiru-labs/ERC721A/blob/main/contracts/ERC721A.sol\":31323:31354  _packedOwnerships[startTokenId] */\n      0x20\n      swap1\n      dup2\n      mstore\n      0x40\n      dup1\n      dup4\n      keccak256\n      sub(shl(0xa0, 0x01), 0x01)\n        /* \"https://github.com/chiru-labs/ERC721A/blob/main/contracts/ERC721A.sol\":17320:17348  and(owner, _BITMASK_ADDRESS) */\n      dup8\n      and\n        /* \"https://github.com/chiru-labs/ERC721A/blob/main/contracts/ERC721A.sol\":17492:17503  timestamp() */\n      timestamp\n        /* \"https://github.com/chiru-labs/ERC721A/blob/main/contracts/ERC721A.sol\":17467:17490  _BITPOS_START_TIMESTAMP */\n      0xa0\n        /* \"https://github.com/chiru-labs/ERC721A/blob/main/contracts/ERC721A.sol\":17463:17504  shl(_BITPOS_START_TIMESTAMP, timestamp()) */\n      shl\n        /* \"https://github.com/chiru-labs/ERC721A/blob/main/contracts/ERC721A.sol\":17925:17926  1 */\n      0x01\n        /* \"https://github.com/chiru-labs/ERC721A/blob/main/contracts/ERC721A.sol\":17912:17927  eq(quantity, 1) */\n      dup9\n      eq\n        /* \"https://github.com/chiru-labs/ERC721A/blob/main/contracts/ERC721A.sol\":17886:17910  _BITPOS_NEXT_INITIALIZED */\n      0xe1\n        /* \"https://github.com/chiru-labs/ERC721A/blob/main/contracts/ERC721A.sol\":17882:17928  shl(_BITPOS_NEXT_INITIALIZED, eq(quantity, 1)) */\n      shl\n        /* \"https://github.com/chiru-labs/ERC721A/blob/main/contracts/ERC721A.sol\":17460:17512  or(shl(_BITPOS_START_TIMESTAMP, timestamp()), flags) */\n      or\n        /* \"https://github.com/chiru-labs/ERC721A/blob/main/contracts/ERC721A.sol\":17450:17513  or(owner, or(shl(_BITPOS_START_TIMESTAMP, timestamp()), flags)) */\n      dup2\n      or\n        /* \"https://github.com/chiru-labs/ERC721A/blob/main/contracts/ERC721A.sol\":31323:31493  _packedOwnerships[startTokenId] = _packOwnershipData(... */\n      swap1\n      swap2\n      sstore\n        /* \"https://github.com/chiru-labs/ERC721A/blob/main/contracts/ERC721A.sol\":31704:31726  _packedAddressData[to] */\n      dup1\n      dup5\n      mstore\n        /* \"https://github.com/chiru-labs/ERC721A/blob/main/contracts/ERC721A.sol\":31704:31722  _packedAddressData */\n      0x05\n        /* \"https://github.com/chiru-labs/ERC721A/blob/main/contracts/ERC721A.sol\":31704:31726  _packedAddressData[to] */\n      swap1\n      swap3\n      mstore\n      dup3\n      keccak256\n        /* \"https://github.com/chiru-labs/ERC721A/blob/main/contracts/ERC721A.sol\":31704:31775  _packedAddressData[to] += quantity * ((1 << _BITPOS_NUMBER_MINTED) | 1) */\n      dup1\n      sload\n        /* \"https://github.com/chiru-labs/ERC721A/blob/main/contracts/ERC721A.sol\":31742:31774  (1 << _BITPOS_NUMBER_MINTED) | 1 */\n      0x010000000000000001\n        /* \"https://github.com/chiru-labs/ERC721A/blob/main/contracts/ERC721A.sol\":31730:31775  quantity * ((1 << _BITPOS_NUMBER_MINTED) | 1) */\n      dup7\n      mul\n        /* \"https://github.com/chiru-labs/ERC721A/blob/main/contracts/ERC721A.sol\":31704:31775  _packedAddressData[to] += quantity * ((1 << _BITPOS_NUMBER_MINTED) | 1) */\n      add\n      swap1\n      sstore\n        /* \"https://github.com/chiru-labs/ERC721A/blob/main/contracts/ERC721A.sol\":17320:17348  and(owner, _BITMASK_ADDRESS) */\n      swap1\n        /* \"https://github.com/chiru-labs/ERC721A/blob/main/contracts/ERC721A.sol\":31960:31973  toMasked == 0 */\n      dup2\n      swap1\n      sub\n        /* \"https://github.com/chiru-labs/ERC721A/blob/main/contracts/ERC721A.sol\":31956:32010  if (toMasked == 0) _revert(MintToZeroAddress.selector) */\n      tag_380\n      jumpi\n        /* \"https://github.com/chiru-labs/ERC721A/blob/main/contracts/ERC721A.sol\":31975:32010  _revert(MintToZeroAddress.selector) */\n      tag_380\n        /* \"https://github.com/chiru-labs/ERC721A/blob/main/contracts/ERC721A.sol\":31983:32009  MintToZeroAddress.selector */\n      0x2e07630000000000000000000000000000000000000000000000000000000000\n        /* \"https://github.com/chiru-labs/ERC721A/blob/main/contracts/ERC721A.sol\":31975:31982  _revert */\n      tag_144\n        /* \"https://github.com/chiru-labs/ERC721A/blob/main/contracts/ERC721A.sol\":31975:32010  _revert(MintToZeroAddress.selector) */\n      jump\t// in\n    tag_380:\n        /* \"https://github.com/chiru-labs/ERC721A/blob/main/contracts/ERC721A.sol\":32039:32062  startTokenId + quantity */\n      dup2\n      dup4\n      add\n      dup3\n        /* \"https://github.com/chiru-labs/ERC721A/blob/main/contracts/ERC721A.sol\":32213:32875  do {... */\n    tag_384:\n        /* \"https://github.com/chiru-labs/ERC721A/blob/main/contracts/ERC721A.sol\":32623:32630  tokenId */\n      dup1\n        /* \"https://github.com/chiru-labs/ERC721A/blob/main/contracts/ERC721A.sol\":32580:32588  toMasked */\n      dup4\n        /* \"https://github.com/chiru-labs/ERC721A/blob/main/contracts/ERC721A.sol\":32536:32537  0 */\n      0x00\n        /* \"https://github.com/chiru-labs/ERC721A/blob/main/contracts/ERC721A.sol\":32471:32496  _TRANSFER_EVENT_SIGNATURE */\n      0xddf252ad1be2c89b69c2b068fc378daa952ba7f163c4a11628f55a4df523b3ef\n        /* \"https://github.com/chiru-labs/ERC721A/blob/main/contracts/ERC721A.sol\":32409:32410  0 */\n      0x00\n        /* \"https://github.com/chiru-labs/ERC721A/blob/main/contracts/ERC721A.sol\":32345:32346  0 */\n      dup1\n        /* \"https://github.com/chiru-labs/ERC721A/blob/main/contracts/ERC721A.sol\":32315:32666  log4(... */\n      log4\n        /* \"https://github.com/chiru-labs/ERC721A/blob/main/contracts/ERC721A.sol\":32870:32873  end */\n      dup2\n        /* \"https://github.com/chiru-labs/ERC721A/blob/main/contracts/ERC721A.sol\":32857:32866  ++tokenId */\n      dup2\n      0x01\n      add\n      swap2\n      pop\n      dup2\n        /* \"https://github.com/chiru-labs/ERC721A/blob/main/contracts/ERC721A.sol\":32857:32873  ++tokenId != end */\n      sub\n        /* \"https://github.com/chiru-labs/ERC721A/blob/main/contracts/ERC721A.sol\":32213:32875  do {... */\n      tag_384\n      jumpi\n      pop\n        /* \"https://github.com/chiru-labs/ERC721A/blob/main/contracts/ERC721A.sol\":32889:32902  _currentIndex */\n      0x00\n        /* \"https://github.com/chiru-labs/ERC721A/blob/main/contracts/ERC721A.sol\":32889:32908  _currentIndex = end */\n      sstore\n      pop\n        /* \"https://github.com/chiru-labs/ERC721A/blob/main/contracts/ERC721A.sol\":26334:26521  function safeTransferFrom(... */\n      pop\n      pop\n      pop\n      jump\t// out\n        /* \"#utility.yul\":14:191   */\n    tag_389:\n      not(sub(shl(0xe0, 0x01), 0x01))\n        /* \"#utility.yul\":92:97   */\n      dup2\n        /* \"#utility.yul\":88:166   */\n      and\n        /* \"#utility.yul\":81:86   */\n      dup2\n        /* \"#utility.yul\":78:167   */\n      eq\n        /* \"#utility.yul\":68:185   */\n      tag_324\n      jumpi\n        /* \"#utility.yul\":181:182   */\n      0x00\n        /* \"#utility.yul\":178:179   */\n      dup1\n        /* \"#utility.yul\":171:183   */\n      revert\n        /* \"#utility.yul\":196:441   */\n    tag_32:\n        /* \"#utility.yul\":254:260   */\n      0x00\n        /* \"#utility.yul\":307:309   */\n      0x20\n        /* \"#utility.yul\":295:304   */\n      dup3\n        /* \"#utility.yul\":286:293   */\n      dup5\n        /* \"#utility.yul\":282:305   */\n      sub\n        /* \"#utility.yul\":278:310   */\n      slt\n        /* \"#utility.yul\":275:327   */\n      iszero\n      tag_400\n      jumpi\n        /* \"#utility.yul\":323:324   */\n      0x00\n        /* \"#utility.yul\":320:321   */\n      dup1\n        /* \"#utility.yul\":313:325   */\n      revert\n        /* \"#utility.yul\":275:327   */\n    tag_400:\n        /* \"#utility.yul\":362:371   */\n      dup2\n        /* \"#utility.yul\":349:372   */\n      calldataload\n        /* \"#utility.yul\":381:411   */\n      tag_260\n        /* \"#utility.yul\":405:410   */\n      dup2\n        /* \"#utility.yul\":381:411   */\n      tag_389\n      jump\t// in\n        /* \"#utility.yul\":638:938   */\n    tag_390:\n        /* \"#utility.yul\":691:694   */\n      0x00\n        /* \"#utility.yul\":729:734   */\n      dup2\n        /* \"#utility.yul\":723:735   */\n      mload\n        /* \"#utility.yul\":756:762   */\n      dup1\n        /* \"#utility.yul\":751:754   */\n      dup5\n        /* \"#utility.yul\":744:763   */\n      mstore\n        /* \"#utility.yul\":812:818   */\n      dup1\n        /* \"#utility.yul\":805:809   */\n      0x20\n        /* \"#utility.yul\":798:803   */\n      dup5\n        /* \"#utility.yul\":794:810   */\n      add\n        /* \"#utility.yul\":787:791   */\n      0x20\n        /* \"#utility.yul\":782:785   */\n      dup7\n        /* \"#utility.yul\":778:792   */\n      add\n        /* \"#utility.yul\":772:819   */\n      mcopy\n        /* \"#utility.yul\":864:865   */\n      0x00\n        /* \"#utility.yul\":857:861   */\n      0x20\n        /* \"#utility.yul\":848:854   */\n      dup3\n        /* \"#utility.yul\":843:846   */\n      dup7\n        /* \"#utility.yul\":839:855   */\n      add\n        /* \"#utility.yul\":835:862   */\n      add\n        /* \"#utility.yul\":828:866   */\n      mstore\n        /* \"#utility.yul\":927:931   */\n      0x20\n        /* \"#utility.yul\":920:922   */\n      0x1f\n        /* \"#utility.yul\":916:923   */\n      not\n        /* \"#utility.yul\":911:913   */\n      0x1f\n        /* \"#utility.yul\":903:909   */\n      dup4\n        /* \"#utility.yul\":899:914   */\n      add\n        /* \"#utility.yul\":895:924   */\n      and\n        /* \"#utility.yul\":890:893   */\n      dup6\n        /* \"#utility.yul\":886:925   */\n      add\n        /* \"#utility.yul\":882:932   */\n      add\n        /* \"#utility.yul\":875:932   */\n      swap2\n      pop\n      pop\n        /* \"#utility.yul\":638:938   */\n      swap3\n      swap2\n      pop\n      pop\n      jump\t// out\n        /* \"#utility.yul\":943:1174   */\n    tag_40:\n        /* \"#utility.yul\":1092:1094   */\n      0x20\n        /* \"#utility.yul\":1081:1090   */\n      dup2\n        /* \"#utility.yul\":1074:1095   */\n      mstore\n        /* \"#utility.yul\":1055:1059   */\n      0x00\n        /* \"#utility.yul\":1112:1168   */\n      tag_260\n        /* \"#utility.yul\":1164:1166   */\n      0x20\n        /* \"#utility.yul\":1153:1162   */\n      dup4\n        /* \"#utility.yul\":1149:1167   */\n      add\n        /* \"#utility.yul\":1141:1147   */\n      dup5\n        /* \"#utility.yul\":1112:1168   */\n      tag_390\n      jump\t// in\n        /* \"#utility.yul\":1179:1359   */\n    tag_44:\n        /* \"#utility.yul\":1238:1244   */\n      0x00\n        /* \"#utility.yul\":1291:1293   */\n      0x20\n        /* \"#utility.yul\":1279:1288   */\n      dup3\n        /* \"#utility.yul\":1270:1277   */\n      dup5\n        /* \"#utility.yul\":1266:1289   */\n      sub\n        /* \"#utility.yul\":1262:1294   */\n      slt\n        /* \"#utility.yul\":1259:1311   */\n      iszero\n      tag_407\n      jumpi\n        /* \"#utility.yul\":1307:1308   */\n      0x00\n        /* \"#utility.yul\":1304:1305   */\n      dup1\n        /* \"#utility.yul\":1297:1309   */\n      revert\n        /* \"#utility.yul\":1259:1311   */\n    tag_407:\n      pop\n        /* \"#utility.yul\":1330:1353   */\n      calldataload\n      swap2\n        /* \"#utility.yul\":1179:1359   */\n      swap1\n      pop\n      jump\t// out\n        /* \"#utility.yul\":1595:1791   */\n    tag_391:\n        /* \"#utility.yul\":1663:1683   */\n      dup1\n      calldataload\n      sub(shl(0xa0, 0x01), 0x01)\n        /* \"#utility.yul\":1712:1766   */\n      dup2\n      and\n        /* \"#utility.yul\":1702:1767   */\n      dup2\n      eq\n        /* \"#utility.yul\":1692:1785   */\n      tag_277\n      jumpi\n        /* \"#utility.yul\":1781:1782   */\n      0x00\n        /* \"#utility.yul\":1778:1779   */\n      dup1\n        /* \"#utility.yul\":1771:1783   */\n      revert\n        /* \"#utility.yul\":1796:2050   */\n    tag_50:\n        /* \"#utility.yul\":1864:1870   */\n      0x00\n        /* \"#utility.yul\":1872:1878   */\n      dup1\n        /* \"#utility.yul\":1925:1927   */\n      0x40\n        /* \"#utility.yul\":1913:1922   */\n      dup4\n        /* \"#utility.yul\":1904:1911   */\n      dup6\n        /* \"#utility.yul\":1900:1923   */\n      sub\n        /* \"#utility.yul\":1896:1928   */\n      slt\n        /* \"#utility.yul\":1893:1945   */\n      iszero\n      tag_412\n      jumpi\n        /* \"#utility.yul\":1941:1942   */\n      0x00\n        /* \"#utility.yul\":1938:1939   */\n      dup1\n        /* \"#utility.yul\":1931:1943   */\n      revert\n        /* \"#utility.yul\":1893:1945   */\n    tag_412:\n        /* \"#utility.yul\":1964:1993   */\n      tag_413\n        /* \"#utility.yul\":1983:1992   */\n      dup4\n        /* \"#utility.yul\":1964:1993   */\n      tag_391\n      jump\t// in\n    tag_413:\n        /* \"#utility.yul\":1954:1993   */\n      swap5\n        /* \"#utility.yul\":2040:2042   */\n      0x20\n        /* \"#utility.yul\":2025:2043   */\n      swap4\n      swap1\n      swap4\n      add\n        /* \"#utility.yul\":2012:2044   */\n      calldataload\n      swap4\n      pop\n      pop\n      pop\n        /* \"#utility.yul\":1796:2050   */\n      jump\t// out\n        /* \"#utility.yul\":2237:2565   */\n    tag_59:\n        /* \"#utility.yul\":2314:2320   */\n      0x00\n        /* \"#utility.yul\":2322:2328   */\n      dup1\n        /* \"#utility.yul\":2330:2336   */\n      0x00\n        /* \"#utility.yul\":2383:2385   */\n      0x60\n        /* \"#utility.yul\":2371:2380   */\n      dup5\n        /* \"#utility.yul\":2362:2369   */\n      dup7\n        /* \"#utility.yul\":2358:2381   */\n      sub\n        /* \"#utility.yul\":2354:2386   */\n      slt\n        /* \"#utility.yul\":2351:2403   */\n      iszero\n      tag_416\n      jumpi\n        /* \"#utility.yul\":2399:2400   */\n      0x00\n        /* \"#utility.yul\":2396:2397   */\n      dup1\n        /* \"#utility.yul\":2389:2401   */\n      revert\n        /* \"#utility.yul\":2351:2403   */\n    tag_416:\n        /* \"#utility.yul\":2422:2451   */\n      tag_417\n        /* \"#utility.yul\":2441:2450   */\n      dup5\n        /* \"#utility.yul\":2422:2451   */\n      tag_391\n      jump\t// in\n    tag_417:\n        /* \"#utility.yul\":2412:2451   */\n      swap3\n      pop\n        /* \"#utility.yul\":2470:2508   */\n      tag_418\n        /* \"#utility.yul\":2504:2506   */\n      0x20\n        /* \"#utility.yul\":2493:2502   */\n      dup6\n        /* \"#utility.yul\":2489:2507   */\n      add\n        /* \"#utility.yul\":2470:2508   */\n      tag_391\n      jump\t// in\n    tag_418:\n        /* \"#utility.yul\":2460:2508   */\n      swap2\n      pop\n        /* \"#utility.yul\":2555:2557   */\n      0x40\n        /* \"#utility.yul\":2544:2553   */\n      dup5\n        /* \"#utility.yul\":2540:2558   */\n      add\n        /* \"#utility.yul\":2527:2559   */\n      calldataload\n        /* \"#utility.yul\":2517:2559   */\n      swap1\n      pop\n        /* \"#utility.yul\":2237:2565   */\n      swap3\n      pop\n      swap3\n      pop\n      swap3\n      jump\t// out\n        /* \"#utility.yul\":2570:2818   */\n    tag_64:\n        /* \"#utility.yul\":2638:2644   */\n      0x00\n        /* \"#utility.yul\":2646:2652   */\n      dup1\n        /* \"#utility.yul\":2699:2701   */\n      0x40\n        /* \"#utility.yul\":2687:2696   */\n      dup4\n        /* \"#utility.yul\":2678:2685   */\n      dup6\n        /* \"#utility.yul\":2674:2697   */\n      sub\n        /* \"#utility.yul\":2670:2702   */\n      slt\n        /* \"#utility.yul\":2667:2719   */\n      iszero\n      tag_420\n      jumpi\n        /* \"#utility.yul\":2715:2716   */\n      0x00\n        /* \"#utility.yul\":2712:2713   */\n      dup1\n        /* \"#utility.yul\":2705:2717   */\n      revert\n        /* \"#utility.yul\":2667:2719   */\n    tag_420:\n      pop\n      pop\n        /* \"#utility.yul\":2738:2761   */\n      dup1\n      calldataload\n      swap3\n        /* \"#utility.yul\":2808:2810   */\n      0x20\n        /* \"#utility.yul\":2793:2811   */\n      swap1\n      swap2\n      add\n        /* \"#utility.yul\":2780:2812   */\n      calldataload\n      swap2\n      pop\n        /* \"#utility.yul\":2570:2818   */\n      jump\t// out\n        /* \"#utility.yul\":3219:3405   */\n    tag_90:\n        /* \"#utility.yul\":3278:3284   */\n      0x00\n        /* \"#utility.yul\":3331:3333   */\n      0x20\n        /* \"#utility.yul\":3319:3328   */\n      dup3\n        /* \"#utility.yul\":3310:3317   */\n      dup5\n        /* \"#utility.yul\":3306:3329   */\n      sub\n        /* \"#utility.yul\":3302:3334   */\n      slt\n        /* \"#utility.yul\":3299:3351   */\n      iszero\n      tag_423\n      jumpi\n        /* \"#utility.yul\":3347:3348   */\n      0x00\n        /* \"#utility.yul\":3344:3345   */\n      dup1\n        /* \"#utility.yul\":3337:3349   */\n      revert\n        /* \"#utility.yul\":3299:3351   */\n    tag_423:\n        /* \"#utility.yul\":3370:3399   */\n      tag_260\n        /* \"#utility.yul\":3389:3398   */\n      dup3\n        /* \"#utility.yul\":3370:3399   */\n      tag_391\n      jump\t// in\n        /* \"#utility.yul\":3410:3757   */\n    tag_100:\n        /* \"#utility.yul\":3475:3481   */\n      0x00\n        /* \"#utility.yul\":3483:3489   */\n      dup1\n        /* \"#utility.yul\":3536:3538   */\n      0x40\n        /* \"#utility.yul\":3524:3533   */\n      dup4\n        /* \"#utility.yul\":3515:3522   */\n      dup6\n        /* \"#utility.yul\":3511:3534   */\n      sub\n        /* \"#utility.yul\":3507:3539   */\n      slt\n        /* \"#utility.yul\":3504:3556   */\n      iszero\n      tag_426\n      jumpi\n        /* \"#utility.yul\":3552:3553   */\n      0x00\n        /* \"#utility.yul\":3549:3550   */\n      dup1\n        /* \"#utility.yul\":3542:3554   */\n      revert\n        /* \"#utility.yul\":3504:3556   */\n    tag_426:\n        /* \"#utility.yul\":3575:3604   */\n      tag_427\n        /* \"#utility.yul\":3594:3603   */\n      dup4\n        /* \"#utility.yul\":3575:3604   */\n      tag_391\n      jump\t// in\n    tag_427:\n        /* \"#utility.yul\":3565:3604   */\n      swap2\n      pop\n        /* \"#utility.yul\":3654:3656   */\n      0x20\n        /* \"#utility.yul\":3643:3652   */\n      dup4\n        /* \"#utility.yul\":3639:3657   */\n      add\n        /* \"#utility.yul\":3626:3658   */\n      calldataload\n        /* \"#utility.yul\":3701:3706   */\n      dup1\n        /* \"#utility.yul\":3694:3707   */\n      iszero\n        /* \"#utility.yul\":3687:3708   */\n      iszero\n        /* \"#utility.yul\":3680:3685   */\n      dup2\n        /* \"#utility.yul\":3677:3709   */\n      eq\n        /* \"#utility.yul\":3667:3727   */\n      tag_428\n      jumpi\n        /* \"#utility.yul\":3723:3724   */\n      0x00\n        /* \"#utility.yul\":3720:3721   */\n      dup1\n        /* \"#utility.yul\":3713:3725   */\n      revert\n        /* \"#utility.yul\":3667:3727   */\n    tag_428:\n        /* \"#utility.yul\":3746:3751   */\n      dup1\n        /* \"#utility.yul\":3736:3751   */\n      swap2\n      pop\n      pop\n        /* \"#utility.yul\":3410:3757   */\n      swap3\n      pop\n      swap3\n      swap1\n      pop\n      jump\t// out\n        /* \"#utility.yul\":3762:3946   */\n    tag_392:\n      shl(0xe0, 0x4e487b71)\n        /* \"#utility.yul\":3811:3812   */\n      0x00\n        /* \"#utility.yul\":3804:3892   */\n      mstore\n        /* \"#utility.yul\":3911:3915   */\n      0x41\n        /* \"#utility.yul\":3908:3909   */\n      0x04\n        /* \"#utility.yul\":3901:3916   */\n      mstore\n        /* \"#utility.yul\":3935:3939   */\n      0x24\n        /* \"#utility.yul\":3932:3933   */\n      0x00\n        /* \"#utility.yul\":3925:3940   */\n      revert\n        /* \"#utility.yul\":3951:5089   */\n    tag_104:\n        /* \"#utility.yul\":4046:4052   */\n      0x00\n        /* \"#utility.yul\":4054:4060   */\n      dup1\n        /* \"#utility.yul\":4062:4068   */\n      0x00\n        /* \"#utility.yul\":4070:4076   */\n      dup1\n        /* \"#utility.yul\":4123:4126   */\n      0x80\n        /* \"#utility.yul\":4111:4120   */\n      dup6\n        /* \"#utility.yul\":4102:4109   */\n      dup8\n        /* \"#utility.yul\":4098:4121   */\n      sub\n        /* \"#utility.yul\":4094:4127   */\n      slt\n        /* \"#utility.yul\":4091:4144   */\n      iszero\n      tag_431\n      jumpi\n        /* \"#utility.yul\":4140:4141   */\n      0x00\n        /* \"#utility.yul\":4137:4138   */\n      dup1\n        /* \"#utility.yul\":4130:4142   */\n      revert\n        /* \"#utility.yul\":4091:4144   */\n    tag_431:\n        /* \"#utility.yul\":4163:4192   */\n      tag_432\n        /* \"#utility.yul\":4182:4191   */\n      dup6\n        /* \"#utility.yul\":4163:4192   */\n      tag_391\n      jump\t// in\n    tag_432:\n        /* \"#utility.yul\":4153:4192   */\n      swap4\n      pop\n        /* \"#utility.yul\":4211:4249   */\n      tag_433\n        /* \"#utility.yul\":4245:4247   */\n      0x20\n        /* \"#utility.yul\":4234:4243   */\n      dup7\n        /* \"#utility.yul\":4230:4248   */\n      add\n        /* \"#utility.yul\":4211:4249   */\n      tag_391\n      jump\t// in\n    tag_433:\n        /* \"#utility.yul\":4201:4249   */\n      swap3\n      pop\n        /* \"#utility.yul\":4296:4298   */\n      0x40\n        /* \"#utility.yul\":4285:4294   */\n      dup6\n        /* \"#utility.yul\":4281:4299   */\n      add\n        /* \"#utility.yul\":4268:4300   */\n      calldataload\n        /* \"#utility.yul\":4258:4300   */\n      swap2\n      pop\n        /* \"#utility.yul\":4351:4353   */\n      0x60\n        /* \"#utility.yul\":4340:4349   */\n      dup6\n        /* \"#utility.yul\":4336:4354   */\n      add\n        /* \"#utility.yul\":4323:4355   */\n      calldataload\n        /* \"#utility.yul\":4374:4392   */\n      0xffffffffffffffff\n        /* \"#utility.yul\":4415:4417   */\n      dup1\n        /* \"#utility.yul\":4407:4413   */\n      dup3\n        /* \"#utility.yul\":4404:4418   */\n      gt\n        /* \"#utility.yul\":4401:4435   */\n      iszero\n      tag_434\n      jumpi\n        /* \"#utility.yul\":4431:4432   */\n      0x00\n        /* \"#utility.yul\":4428:4429   */\n      dup1\n        /* \"#utility.yul\":4421:4433   */\n      revert\n        /* \"#utility.yul\":4401:4435   */\n    tag_434:\n        /* \"#utility.yul\":4469:4475   */\n      dup2\n        /* \"#utility.yul\":4458:4467   */\n      dup8\n        /* \"#utility.yul\":4454:4476   */\n      add\n        /* \"#utility.yul\":4444:4476   */\n      swap2\n      pop\n        /* \"#utility.yul\":4514:4521   */\n      dup8\n        /* \"#utility.yul\":4507:4511   */\n      0x1f\n        /* \"#utility.yul\":4503:4505   */\n      dup4\n        /* \"#utility.yul\":4499:4512   */\n      add\n        /* \"#utility.yul\":4495:4522   */\n      slt\n        /* \"#utility.yul\":4485:4540   */\n      tag_435\n      jumpi\n        /* \"#utility.yul\":4536:4537   */\n      0x00\n        /* \"#utility.yul\":4533:4534   */\n      dup1\n        /* \"#utility.yul\":4526:4538   */\n      revert\n        /* \"#utility.yul\":4485:4540   */\n    tag_435:\n        /* \"#utility.yul\":4572:4574   */\n      dup2\n        /* \"#utility.yul\":4559:4575   */\n      calldataload\n        /* \"#utility.yul\":4594:4596   */\n      dup2\n        /* \"#utility.yul\":4590:4592   */\n      dup2\n        /* \"#utility.yul\":4587:4597   */\n      gt\n        /* \"#utility.yul\":4584:4620   */\n      iszero\n      tag_437\n      jumpi\n        /* \"#utility.yul\":4600:4618   */\n      tag_437\n      tag_392\n      jump\t// in\n    tag_437:\n        /* \"#utility.yul\":4675:4677   */\n      0x40\n        /* \"#utility.yul\":4669:4678   */\n      mload\n        /* \"#utility.yul\":4643:4645   */\n      0x1f\n        /* \"#utility.yul\":4729:4742   */\n      dup3\n      add\n      not(0x1f)\n        /* \"#utility.yul\":4725:4747   */\n      swap1\n      dup2\n      and\n        /* \"#utility.yul\":4749:4751   */\n      0x3f\n        /* \"#utility.yul\":4721:4752   */\n      add\n        /* \"#utility.yul\":4717:4757   */\n      and\n        /* \"#utility.yul\":4705:4758   */\n      dup2\n      add\n      swap1\n        /* \"#utility.yul\":4773:4791   */\n      dup4\n      dup3\n      gt\n        /* \"#utility.yul\":4793:4815   */\n      dup2\n      dup4\n      lt\n        /* \"#utility.yul\":4770:4816   */\n      or\n        /* \"#utility.yul\":4767:4839   */\n      iszero\n      tag_439\n      jumpi\n        /* \"#utility.yul\":4819:4837   */\n      tag_439\n      tag_392\n      jump\t// in\n    tag_439:\n        /* \"#utility.yul\":4859:4869   */\n      dup2\n        /* \"#utility.yul\":4855:4857   */\n      0x40\n        /* \"#utility.yul\":4848:4870   */\n      mstore\n        /* \"#utility.yul\":4894:4896   */\n      dup3\n        /* \"#utility.yul\":4886:4892   */\n      dup2\n        /* \"#utility.yul\":4879:4897   */\n      mstore\n        /* \"#utility.yul\":4934:4941   */\n      dup11\n        /* \"#utility.yul\":4929:4931   */\n      0x20\n        /* \"#utility.yul\":4924:4926   */\n      dup5\n        /* \"#utility.yul\":4920:4922   */\n      dup8\n        /* \"#utility.yul\":4916:4927   */\n      add\n        /* \"#utility.yul\":4912:4932   */\n      add\n        /* \"#utility.yul\":4909:4942   */\n      gt\n        /* \"#utility.yul\":4906:4959   */\n      iszero\n      tag_440\n      jumpi\n        /* \"#utility.yul\":4955:4956   */\n      0x00\n        /* \"#utility.yul\":4952:4953   */\n      dup1\n        /* \"#utility.yul\":4945:4957   */\n      revert\n        /* \"#utility.yul\":4906:4959   */\n    tag_440:\n        /* \"#utility.yul\":5011:5013   */\n      dup3\n        /* \"#utility.yul\":5006:5008   */\n      0x20\n        /* \"#utility.yul\":5002:5004   */\n      dup7\n        /* \"#utility.yul\":4998:5009   */\n      add\n        /* \"#utility.yul\":4993:4995   */\n      0x20\n        /* \"#utility.yul\":4985:4991   */\n      dup4\n        /* \"#utility.yul\":4981:4996   */\n      add\n        /* \"#utility.yul\":4968:5014   */\n      calldatacopy\n        /* \"#utility.yul\":5056:5057   */\n      0x00\n        /* \"#utility.yul\":5051:5053   */\n      0x20\n        /* \"#utility.yul\":5046:5048   */\n      dup5\n        /* \"#utility.yul\":5038:5044   */\n      dup4\n        /* \"#utility.yul\":5034:5049   */\n      add\n        /* \"#utility.yul\":5030:5054   */\n      add\n        /* \"#utility.yul\":5023:5058   */\n      mstore\n        /* \"#utility.yul\":5077:5083   */\n      dup1\n        /* \"#utility.yul\":5067:5083   */\n      swap6\n      pop\n      pop\n      pop\n      pop\n      pop\n      pop\n        /* \"#utility.yul\":3951:5089   */\n      swap3\n      swap6\n      swap2\n      swap5\n      pop\n      swap3\n      pop\n      jump\t// out\n        /* \"#utility.yul\":5094:5354   */\n    tag_114:\n        /* \"#utility.yul\":5162:5168   */\n      0x00\n        /* \"#utility.yul\":5170:5176   */\n      dup1\n        /* \"#utility.yul\":5223:5225   */\n      0x40\n        /* \"#utility.yul\":5211:5220   */\n      dup4\n        /* \"#utility.yul\":5202:5209   */\n      dup6\n        /* \"#utility.yul\":5198:5221   */\n      sub\n        /* \"#utility.yul\":5194:5226   */\n      slt\n        /* \"#utility.yul\":5191:5243   */\n      iszero\n      tag_442\n      jumpi\n        /* \"#utility.yul\":5239:5240   */\n      0x00\n        /* \"#utility.yul\":5236:5237   */\n      dup1\n        /* \"#utility.yul\":5229:5241   */\n      revert\n        /* \"#utility.yul\":5191:5243   */\n    tag_442:\n        /* \"#utility.yul\":5262:5291   */\n      tag_443\n        /* \"#utility.yul\":5281:5290   */\n      dup4\n        /* \"#utility.yul\":5262:5291   */\n      tag_391\n      jump\t// in\n    tag_443:\n        /* \"#utility.yul\":5252:5291   */\n      swap2\n      pop\n        /* \"#utility.yul\":5310:5348   */\n      tag_444\n        /* \"#utility.yul\":5344:5346   */\n      0x20\n        /* \"#utility.yul\":5333:5342   */\n      dup5\n        /* \"#utility.yul\":5329:5347   */\n      add\n        /* \"#utility.yul\":5310:5348   */\n      tag_391\n      jump\t// in\n    tag_444:\n        /* \"#utility.yul\":5300:5348   */\n      swap1\n      pop\n        /* \"#utility.yul\":5094:5354   */\n      swap3\n      pop\n      swap3\n      swap1\n      pop\n      jump\t// out\n        /* \"#utility.yul\":6088:6525   */\n    tag_134:\n        /* \"#utility.yul\":6167:6168   */\n      0x01\n        /* \"#utility.yul\":6163:6175   */\n      dup2\n      dup2\n      shr\n      swap1\n        /* \"#utility.yul\":6210:6222   */\n      dup3\n      and\n      dup1\n        /* \"#utility.yul\":6231:6292   */\n      tag_448\n      jumpi\n        /* \"#utility.yul\":6285:6289   */\n      0x7f\n        /* \"#utility.yul\":6277:6283   */\n      dup3\n        /* \"#utility.yul\":6273:6290   */\n      and\n        /* \"#utility.yul\":6263:6290   */\n      swap2\n      pop\n        /* \"#utility.yul\":6231:6292   */\n    tag_448:\n        /* \"#utility.yul\":6338:6340   */\n      0x20\n        /* \"#utility.yul\":6330:6336   */\n      dup3\n        /* \"#utility.yul\":6327:6341   */\n      lt\n        /* \"#utility.yul\":6307:6325   */\n      dup2\n        /* \"#utility.yul\":6304:6342   */\n      sub\n        /* \"#utility.yul\":6301:6519   */\n      tag_449\n      jumpi\n      shl(0xe0, 0x4e487b71)\n        /* \"#utility.yul\":6372:6373   */\n      0x00\n        /* \"#utility.yul\":6365:6453   */\n      mstore\n        /* \"#utility.yul\":6476:6480   */\n      0x22\n        /* \"#utility.yul\":6473:6474   */\n      0x04\n        /* \"#utility.yul\":6466:6481   */\n      mstore\n        /* \"#utility.yul\":6504:6508   */\n      0x24\n        /* \"#utility.yul\":6501:6502   */\n      0x00\n        /* \"#utility.yul\":6494:6509   */\n      revert\n        /* \"#utility.yul\":6301:6519   */\n    tag_449:\n      pop\n        /* \"#utility.yul\":6088:6525   */\n      swap2\n      swap1\n      pop\n      jump\t// out\n        /* \"#utility.yul\":6530:6714   */\n    tag_393:\n      shl(0xe0, 0x4e487b71)\n        /* \"#utility.yul\":6579:6580   */\n      0x00\n        /* \"#utility.yul\":6572:6660   */\n      mstore\n        /* \"#utility.yul\":6679:6683   */\n      0x11\n        /* \"#utility.yul\":6676:6677   */\n      0x04\n        /* \"#utility.yul\":6669:6684   */\n      mstore\n        /* \"#utility.yul\":6703:6707   */\n      0x24\n        /* \"#utility.yul\":6700:6701   */\n      0x00\n        /* \"#utility.yul\":6693:6708   */\n      revert\n        /* \"#utility.yul\":6719:6844   */\n    tag_191:\n        /* \"#utility.yul\":6784:6793   */\n      dup1\n      dup3\n      add\n        /* \"#utility.yul\":6805:6815   */\n      dup1\n      dup3\n      gt\n        /* \"#utility.yul\":6802:6838   */\n      iszero\n      tag_131\n      jumpi\n        /* \"#utility.yul\":6818:6836   */\n      tag_131\n      tag_393\n      jump\t// in\n        /* \"#utility.yul\":7213:7397   */\n    tag_394:\n      shl(0xe0, 0x4e487b71)\n        /* \"#utility.yul\":7262:7263   */\n      0x00\n        /* \"#utility.yul\":7255:7343   */\n      mstore\n        /* \"#utility.yul\":7362:7366   */\n      0x12\n        /* \"#utility.yul\":7359:7360   */\n      0x04\n        /* \"#utility.yul\":7352:7367   */\n      mstore\n        /* \"#utility.yul\":7386:7390   */\n      0x24\n        /* \"#utility.yul\":7383:7384   */\n      0x00\n        /* \"#utility.yul\":7376:7391   */\n      revert\n        /* \"#utility.yul\":7402:7514   */\n    tag_216:\n        /* \"#utility.yul\":7434:7435   */\n      0x00\n        /* \"#utility.yul\":7460:7461   */\n      dup3\n        /* \"#utility.yul\":7450:7485   */\n      tag_458\n      jumpi\n        /* \"#utility.yul\":7465:7483   */\n      tag_458\n      tag_394\n      jump\t// in\n    tag_458:\n      pop\n        /* \"#utility.yul\":7499:7508   */\n      mod\n      swap1\n        /* \"#utility.yul\":7402:7514   */\n      jump\t// out\n        /* \"#utility.yul\":7519:7639   */\n    tag_218:\n        /* \"#utility.yul\":7559:7560   */\n      0x00\n        /* \"#utility.yul\":7585:7586   */\n      dup3\n        /* \"#utility.yul\":7575:7610   */\n      tag_461\n      jumpi\n        /* \"#utility.yul\":7590:7608   */\n      tag_461\n      tag_394\n      jump\t// in\n    tag_461:\n      pop\n        /* \"#utility.yul\":7624:7633   */\n      div\n      swap1\n        /* \"#utility.yul\":7519:7639   */\n      jump\t// out\n        /* \"#utility.yul\":7644:7856   */\n    tag_395:\n        /* \"#utility.yul\":7686:7689   */\n      0x00\n        /* \"#utility.yul\":7724:7729   */\n      dup2\n        /* \"#utility.yul\":7718:7730   */\n      mload\n        /* \"#utility.yul\":7768:7774   */\n      dup1\n        /* \"#utility.yul\":7761:7765   */\n      0x20\n        /* \"#utility.yul\":7754:7759   */\n      dup5\n        /* \"#utility.yul\":7750:7766   */\n      add\n        /* \"#utility.yul\":7745:7748   */\n      dup6\n        /* \"#utility.yul\":7739:7775   */\n      mcopy\n        /* \"#utility.yul\":7830:7831   */\n      0x00\n        /* \"#utility.yul\":7794:7810   */\n      swap4\n      add\n        /* \"#utility.yul\":7819:7832   */\n      swap3\n      dup4\n      mstore\n      pop\n        /* \"#utility.yul\":7794:7810   */\n      swap1\n      swap2\n        /* \"#utility.yul\":7644:7856   */\n      swap1\n      pop\n      jump\t// out\n        /* \"#utility.yul\":7861:8128   */\n    tag_264:\n        /* \"#utility.yul\":8040:8043   */\n      0x00\n        /* \"#utility.yul\":8065:8122   */\n      tag_351\n        /* \"#utility.yul\":8091:8121   */\n      tag_465\n        /* \"#utility.yul\":8117:8120   */\n      dup4\n        /* \"#utility.yul\":8109:8115   */\n      dup7\n        /* \"#utility.yul\":8091:8121   */\n      tag_395\n      jump\t// in\n    tag_465:\n        /* \"#utility.yul\":8083:8089   */\n      dup5\n        /* \"#utility.yul\":8065:8122   */\n      tag_395\n      jump\t// in\n        /* \"#utility.yul\":8133:8269   */\n    tag_281:\n        /* \"#utility.yul\":8172:8175   */\n      0x00\n        /* \"#utility.yul\":8200:8205   */\n      dup2\n        /* \"#utility.yul\":8190:8229   */\n      tag_468\n      jumpi\n        /* \"#utility.yul\":8209:8227   */\n      tag_468\n      tag_393\n      jump\t// in\n    tag_468:\n      pop\n      not(0x00)\n        /* \"#utility.yul\":8245:8263   */\n      add\n      swap1\n        /* \"#utility.yul\":8133:8269   */\n      jump\t// out\n        /* \"#utility.yul\":8274:8797   */\n    tag_339:\n        /* \"#utility.yul\":8468:8472   */\n      0x00\n      sub(shl(0xa0, 0x01), 0x01)\n        /* \"#utility.yul\":8578:8580   */\n      dup1\n        /* \"#utility.yul\":8570:8576   */\n      dup8\n        /* \"#utility.yul\":8566:8581   */\n      and\n        /* \"#utility.yul\":8555:8564   */\n      dup4\n        /* \"#utility.yul\":8548:8582   */\n      mstore\n        /* \"#utility.yul\":8630:8632   */\n      dup1\n        /* \"#utility.yul\":8622:8628   */\n      dup7\n        /* \"#utility.yul\":8618:8633   */\n      and\n        /* \"#utility.yul\":8613:8615   */\n      0x20\n        /* \"#utility.yul\":8602:8611   */\n      dup5\n        /* \"#utility.yul\":8598:8616   */\n      add\n        /* \"#utility.yul\":8591:8634   */\n      mstore\n      pop\n        /* \"#utility.yul\":8670:8676   */\n      dup4\n        /* \"#utility.yul\":8665:8667   */\n      0x40\n        /* \"#utility.yul\":8654:8663   */\n      dup4\n        /* \"#utility.yul\":8650:8668   */\n      add\n        /* \"#utility.yul\":8643:8677   */\n      mstore\n        /* \"#utility.yul\":8713:8716   */\n      0x80\n        /* \"#utility.yul\":8708:8710   */\n      0x60\n        /* \"#utility.yul\":8697:8706   */\n      dup4\n        /* \"#utility.yul\":8693:8711   */\n      add\n        /* \"#utility.yul\":8686:8717   */\n      mstore\n        /* \"#utility.yul\":8734:8791   */\n      tag_470\n        /* \"#utility.yul\":8786:8789   */\n      0x80\n        /* \"#utility.yul\":8775:8784   */\n      dup4\n        /* \"#utility.yul\":8771:8790   */\n      add\n        /* \"#utility.yul\":8763:8769   */\n      dup5\n        /* \"#utility.yul\":8734:8791   */\n      tag_390\n      jump\t// in\n    tag_470:\n        /* \"#utility.yul\":8726:8791   */\n      swap7\n        /* \"#utility.yul\":8274:8797   */\n      swap6\n      pop\n      pop\n      pop\n      pop\n      pop\n      pop\n      jump\t// out\n        /* \"#utility.yul\":8802:9051   */\n    tag_342:\n        /* \"#utility.yul\":8871:8877   */\n      0x00\n        /* \"#utility.yul\":8924:8926   */\n      0x20\n        /* \"#utility.yul\":8912:8921   */\n      dup3\n        /* \"#utility.yul\":8903:8910   */\n      dup5\n        /* \"#utility.yul\":8899:8922   */\n      sub\n        /* \"#utility.yul\":8895:8927   */\n      slt\n        /* \"#utility.yul\":8892:8944   */\n      iszero\n      tag_472\n      jumpi\n        /* \"#utility.yul\":8940:8941   */\n      0x00\n        /* \"#utility.yul\":8937:8938   */\n      dup1\n        /* \"#utility.yul\":8930:8942   */\n      revert\n        /* \"#utility.yul\":8892:8944   */\n    tag_472:\n        /* \"#utility.yul\":8972:8981   */\n      dup2\n        /* \"#utility.yul\":8966:8982   */\n      mload\n        /* \"#utility.yul\":8991:9021   */\n      tag_260\n        /* \"#utility.yul\":9015:9020   */\n      dup2\n        /* \"#utility.yul\":8991:9021   */\n      tag_389\n      jump\t// in\n\n    auxdata: 0xa26469706673582212208e0c8b758f9dae14c894a2d9db75eaa65f8d1b9e5401bcd7afef329286b3d5c964736f6c63430008190033\n}\n",
				"bytecode": {
					"linkReferences": {},
					"object": "608060405234801561000f575f80fd5b5060405180604001604052806008815260200167446967697475726560c01b815250604051806040016040528060038152602001621111d560ea1b815250816002908161005c9190610111565b5060036100698282610111565b50505f80555060016009556101d0565b634e487b7160e01b5f52604160045260245ffd5b600181811c908216806100a157607f821691505b6020821081036100bf57634e487b7160e01b5f52602260045260245ffd5b50919050565b601f82111561010c57805f5260205f20601f840160051c810160208510156100ea5750805b601f840160051c820191505b81811015610109575f81556001016100f6565b50505b505050565b81516001600160401b0381111561012a5761012a610079565b61013e81610138845461008d565b846100c5565b602080601f831160018114610171575f841561015a5750858301515b5f19600386901b1c1916600185901b1785556101c8565b5f85815260208120601f198616915b8281101561019f57888601518255948401946001909101908401610180565b50858210156101bc57878501515f19600388901b60f8161c191681555b505060018460011b0185555b505050505050565b6115cf806101dd5f395ff3fe608060405260043610610157575f3560e01c80634ecbc664116100bb578063b88d4fde11610071578063e985e9c511610057578063e985e9c51461038b578063f052d65a146103d2578063fd499a741461042d575f80fd5b8063b88d4fde14610359578063c87b56dd1461036c575f80fd5b806370a08231116100a157806370a082311461030757806395d89b4114610326578063a22cb4651461033a575f80fd5b80634ecbc664146102d45780636352211e146102e8575f80fd5b806323b872dd116101105780633095fe91116100f65780633095fe911461024f57806342842e0e1461026357806342e29b4e14610276575f80fd5b806323b872dd1461021d5780632a0c522114610230575f80fd5b8063081812fc11610140578063081812fc146101b0578063095ea7b3146101e757806318160ddd146101fc575f80fd5b806301ffc9a71461015b57806306fdde031461018f575b5f80fd5b348015610166575f80fd5b5061017a6101753660046111f5565b610479565b60405190151581526020015b60405180910390f35b34801561019a575f80fd5b506101a3610515565b604051610186919061123e565b3480156101bb575f80fd5b506101cf6101ca366004611250565b6105a5565b6040516001600160a01b039091168152602001610186565b6101fa6101f536600461127d565b6105f7565b005b348015610207575f80fd5b506001545f54035b604051908152602001610186565b6101fa61022b3660046112a5565b610607565b34801561023b575f80fd5b506101fa61024a3660046112de565b6107c9565b34801561025a575f80fd5b5060095461020f565b6101fa6102713660046112a5565b6108fe565b348015610281575f80fd5b506102b4610290366004611250565b67ffffffffffffffff81811692604083901c821692608081901c9092169160c01c90565b604080519485526020850193909352918301526060820152608001610186565b3480156102df575f80fd5b506101fa61091d565b3480156102f3575f80fd5b506101cf610302366004611250565b610aab565b348015610312575f80fd5b5061020f6103213660046112fe565b610ab5565b348015610331575f80fd5b506101a3610b12565b348015610345575f80fd5b506101fa610354366004611317565b610b21565b6101fa610367366004611364565b610b8c565b348015610377575f80fd5b506101a3610386366004611250565b610bcd565b348015610396575f80fd5b5061017a6103a5366004611439565b6001600160a01b039182165f90815260076020908152604080832093909416825291909152205460ff1690565b3480156103dd575f80fd5b506103f16103ec366004611250565b610c6a565b6040516101869190815181526020808301516001600160a01b031690820152604080830151908201526060918201519181019190915260800190565b348015610438575f80fd5b50610464610447366004611250565b6fffffffffffffffffffffffffffffffff81169160809190911c90565b60408051928352602083019190915201610186565b5f7f01ffc9a7000000000000000000000000000000000000000000000000000000006001600160e01b0319831614806104db57507f80ac58cd000000000000000000000000000000000000000000000000000000006001600160e01b03198316145b8061050f57507f5b5e139f000000000000000000000000000000000000000000000000000000006001600160e01b03198316145b92915050565b6060600280546105249061146a565b80601f01602080910402602001604051908101604052809291908181526020018280546105509061146a565b801561059b5780601f106105725761010080835404028352916020019161059b565b820191905f5260205f20905b81548152906001019060200180831161057e57829003601f168201915b5050505050905090565b5f6105af82610ce7565b6105dc576105dc7fcf4700e400000000000000000000000000000000000000000000000000000000610d29565b505f908152600660205260409020546001600160a01b031690565b61060382826001610d31565b5050565b5f61061182610e14565b6001600160a01b039485169490915081168414610651576106517fa114810000000000000000000000000000000000000000000000000000000000610d29565b5f8281526006602052604090208054338082146001600160a01b038816909114176106c9576001600160a01b0386165f90815260076020908152604080832033845290915290205460ff166106c9576106c97f59c896be00000000000000000000000000000000000000000000000000000000610d29565b80156106d3575f82555b6001600160a01b038681165f9081526005602052604080822080545f19019055918716808252919020805460010190554260a01b17600160e11b175f85815260046020526040812091909155600160e11b8416900361075f57600184015f81815260046020526040812054900361075d575f54811461075d575f8181526004602052604090208490555b505b6001600160a01b0385168481887fddf252ad1be2c89b69c2b068fc378daa952ba7f163c4a11628f55a4df523b3ef5f80a4805f036107c0576107c07fea553b3400000000000000000000000000000000000000000000000000000000610d29565b50505050505050565b816107d381610ea3565b5f838152600a602052604080822060029081015485845292829020015467ffffffffffffffff8084169380841c821693608082811c84169460c093841c94808216949382901c8116939282901c16911c808261082f85876114b6565b61083991906114b6565b61084391906114b6565b858761084f8a8c6114b6565b61085991906114b6565b61086391906114b6565b11156108af576108748b6001610ef8565b61087e8a5f610ef8565b6040518a908c907f37fdf7cda6ec1c848e98866fe5e1f781b2b5976a1d79c7770394e65503ce92af905f90a36108f1565b6108b98b5f610ef8565b6108c48a6001610ef8565b6040518a908c907f37fdf7cda6ec1c848e98866fe5e1f781b2b5976a1d79c7770394e65503ce92af905f90a35b5050505050505050505050565b61091883838360405180602001604052805f815250610b8c565b505050565b6040805142602080830191909152448284015233606081811b6bffffffffffffffffffffffff19169084015283516054818503018152607484018086528151919093012060f48401909452600954825260948301529060b4016109ee6109856103e8856114dd565b6103e861099281876114f0565b61099c91906114dd565b6103e86109ac620f4240886114f0565b6109b691906114dd565b6103e86109c7633b9aca00896114f0565b6109d191906114dd565b5f8160c01b8360801b8560401b875f1b1717179050949350505050565b81526020015f90526009545f908152600a6020908152604091829020835181559083015160018201805473ffffffffffffffffffffffffffffffffffffffff19166001600160a01b03909216919091179055908201516002820155606090910151600390910155610a60336001610f58565b600160095401600955610a703390565b6001600160a01b03166009547ffce6b98db3cc5152281e5d3e4c7332adfb0d4b574cc5723dc73792f7624043cc60405160405180910390a350565b5f61050f82610e14565b5f6001600160a01b038216610aed57610aed7f8f4eb60400000000000000000000000000000000000000000000000000000000610d29565b506001600160a01b03165f9081526005602052604090205467ffffffffffffffff1690565b6060600380546105249061146a565b335f8181526007602090815260408083206001600160a01b03871680855290835292819020805460ff191686151590811790915590519081529192917f17307eab39ab6107e8899845ad3d59bd9653f200f220920489ca2b5937696c31910160405180910390a35050565b610b97848484610607565b6001600160a01b0383163b15610bc757610bb384848484610f71565b610bc757610bc76368d2bf6b60e11b610d29565b50505050565b6060610bd882610ce7565b610c0557610c057fa14c4b5000000000000000000000000000000000000000000000000000000000610d29565b5f610c1a60408051602081019091525f815290565b905080515f03610c385760405180602001604052805f815250610c63565b80610c4284611050565b604051602001610c5392919061151a565b6040516020818303038152906040525b9392505050565b610c9a60405180608001604052805f81526020015f6001600160a01b031681526020015f81526020015f81525090565b505f908152600a602090815260409182902082516080810184528154815260018201546001600160a01b031692810192909252600281015492820192909252600390910154606082015290565b5f8054821015610d24575f5b505f8281526004602052604081205490819003610d1a57610d138361152e565b9250610cf3565b600160e01b161590505b919050565b805f5260045ffd5b5f610d3b83610aab565b9050818015610d535750336001600160a01b03821614155b15610dab576001600160a01b0381165f90815260076020908152604080832033845290915290205460ff16610dab57610dab7fcfb3b94200000000000000000000000000000000000000000000000000000000610d29565b5f83815260066020526040808220805473ffffffffffffffffffffffffffffffffffffffff19166001600160a01b0388811691821790925591518693918516917f8c5be1e5ebec7d5bd14f71427d1e84f3dd0314c0f7b2291e5b200ac8c7c3b92591a450505050565b5f81815260046020526040902054805f03610e81575f548210610e4157610e41636f96cda160e11b610d29565b5b505f19015f818152600460205260409020548015610e4257600160e01b81165f03610e6c57919050565b610e7c636f96cda160e11b610d29565b610e42565b600160e01b81165f03610e9357919050565b610d24636f96cda160e11b610d29565b5f818152600a60205260409020600101546001600160a01b03163314610ef5576040517f233de59500000000000000000000000000000000000000000000000000000000815260040160405180910390fd5b50565b5f828152600a6020526040902060038101546fffffffffffffffffffffffffffffffff81169060801c8360018114610f3557600182019150610f3c565b6001830192505b50610f49828260801b1790565b83600301819055505050505050565b610603828260405180602001604052805f815250611093565b604051630a85bd0160e11b81525f906001600160a01b0385169063150b7a0290610fa5903390899088908890600401611543565b6020604051808303815f875af1925050508015610fdf575060408051601f3d908101601f19168201909252610fdc9181019061157e565b60015b611032573d80801561100c576040519150601f19603f3d011682016040523d82523d5f602084013e611011565b606091505b5080515f0361102a5761102a6368d2bf6b60e11b610d29565b805181602001fd5b6001600160e01b031916630a85bd0160e11b1490505b949350505050565b606060a06040510180604052602081039150505f815280825b600183039250600a81066030018353600a9004806110695750819003601f19909101908152919050565b61109d83836110f3565b6001600160a01b0383163b15610918575f548281035b6110c55f868380600101945086610f71565b6110d9576110d96368d2bf6b60e11b610d29565b8181106110b357815f54146110ec575f80fd5b5050505050565b5f805490829003611127576111277fb562e8dd00000000000000000000000000000000000000000000000000000000610d29565b5f8181526004602090815260408083206001600160a01b0387164260a01b6001881460e11b1781179091558084526005909252822080546801000000000000000186020190559081900361119e5761119e7f2e07630000000000000000000000000000000000000000000000000000000000610d29565b818301825b80835f7fddf252ad1be2c89b69c2b068fc378daa952ba7f163c4a11628f55a4df523b3ef5f80a48181600101915081036111a357505f5550505050565b6001600160e01b031981168114610ef5575f80fd5b5f60208284031215611205575f80fd5b8135610c63816111e0565b5f81518084528060208401602086015e5f602082860101526020601f19601f83011685010191505092915050565b602081525f610c636020830184611210565b5f60208284031215611260575f80fd5b5035919050565b80356001600160a01b0381168114610d24575f80fd5b5f806040838503121561128e575f80fd5b61129783611267565b946020939093013593505050565b5f805f606084860312156112b7575f80fd5b6112c084611267565b92506112ce60208501611267565b9150604084013590509250925092565b5f80604083850312156112ef575f80fd5b50508035926020909101359150565b5f6020828403121561130e575f80fd5b610c6382611267565b5f8060408385031215611328575f80fd5b61133183611267565b915060208301358015158114611345575f80fd5b809150509250929050565b634e487b7160e01b5f52604160045260245ffd5b5f805f8060808587031215611377575f80fd5b61138085611267565b935061138e60208601611267565b925060408501359150606085013567ffffffffffffffff808211156113b1575f80fd5b818701915087601f8301126113c4575f80fd5b8135818111156113d6576113d6611350565b604051601f8201601f19908116603f011681019083821181831017156113fe576113fe611350565b816040528281528a6020848701011115611416575f80fd5b826020860160208301375f60208483010152809550505050505092959194509250565b5f806040838503121561144a575f80fd5b61145383611267565b915061146160208401611267565b90509250929050565b600181811c9082168061147e57607f821691505b60208210810361149c57634e487b7160e01b5f52602260045260245ffd5b50919050565b634e487b7160e01b5f52601160045260245ffd5b8082018082111561050f5761050f6114a2565b634e487b7160e01b5f52601260045260245ffd5b5f826114eb576114eb6114c9565b500690565b5f826114fe576114fe6114c9565b500490565b5f81518060208401855e5f93019283525090919050565b5f6110486115288386611503565b84611503565b5f8161153c5761153c6114a2565b505f190190565b5f6001600160a01b038087168352808616602084015250836040830152608060608301526115746080830184611210565b9695505050505050565b5f6020828403121561158e575f80fd5b8151610c63816111e056fea26469706673582212208e0c8b758f9dae14c894a2d9db75eaa65f8d1b9e5401bcd7afef329286b3d5c964736f6c63430008190033",
					"opcodes": "PUSH1 0x80 PUSH1 0x40 MSTORE CALLVALUE DUP1 ISZERO PUSH2 0xF JUMPI PUSH0 DUP1 REVERT JUMPDEST POP PUSH1 0x40 MLOAD DUP1 PUSH1 0x40 ADD PUSH1 0x40 MSTORE DUP1 PUSH1 0x8 DUP2 MSTORE PUSH1 0x20 ADD PUSH8 0x4469676974757265 PUSH1 0xC0 SHL DUP2 MSTORE POP PUSH1 0x40 MLOAD DUP1 PUSH1 0x40 ADD PUSH1 0x40 MSTORE DUP1 PUSH1 0x3 DUP2 MSTORE PUSH1 0x20 ADD PUSH3 0x1111D5 PUSH1 0xEA SHL DUP2 MSTORE POP DUP2 PUSH1 0x2 SWAP1 DUP2 PUSH2 0x5C SWAP2 SWAP1 PUSH2 0x111 JUMP JUMPDEST POP PUSH1 0x3 PUSH2 0x69 DUP3 DUP3 PUSH2 0x111 JUMP JUMPDEST POP POP PUSH0 DUP1 SSTORE POP PUSH1 0x1 PUSH1 0x9 SSTORE PUSH2 0x1D0 JUMP JUMPDEST PUSH4 0x4E487B71 PUSH1 0xE0 SHL PUSH0 MSTORE PUSH1 0x41 PUSH1 0x4 MSTORE PUSH1 0x24 PUSH0 REVERT JUMPDEST PUSH1 0x1 DUP2 DUP2 SHR SWAP1 DUP3 AND DUP1 PUSH2 0xA1 JUMPI PUSH1 0x7F DUP3 AND SWAP2 POP JUMPDEST PUSH1 0x20 DUP3 LT DUP2 SUB PUSH2 0xBF JUMPI PUSH4 0x4E487B71 PUSH1 0xE0 SHL PUSH0 MSTORE PUSH1 0x22 PUSH1 0x4 MSTORE PUSH1 0x24 PUSH0 REVERT JUMPDEST POP SWAP2 SWAP1 POP JUMP JUMPDEST PUSH1 0x1F DUP3 GT ISZERO PUSH2 0x10C JUMPI DUP1 PUSH0 MSTORE PUSH1 0x20 PUSH0 KECCAK256 PUSH1 0x1F DUP5 ADD PUSH1 0x5 SHR DUP2 ADD PUSH1 0x20 DUP6 LT ISZERO PUSH2 0xEA JUMPI POP DUP1 JUMPDEST PUSH1 0x1F DUP5 ADD PUSH1 0x5 SHR DUP3 ADD SWAP2 POP JUMPDEST DUP2 DUP2 LT ISZERO PUSH2 0x109 JUMPI PUSH0 DUP2 SSTORE PUSH1 0x1 ADD PUSH2 0xF6 JUMP JUMPDEST POP POP JUMPDEST POP POP POP JUMP JUMPDEST DUP2 MLOAD PUSH1 0x1 PUSH1 0x1 PUSH1 0x40 SHL SUB DUP2 GT ISZERO PUSH2 0x12A JUMPI PUSH2 0x12A PUSH2 0x79 JUMP JUMPDEST PUSH2 0x13E DUP2 PUSH2 0x138 DUP5 SLOAD PUSH2 0x8D JUMP JUMPDEST DUP5 PUSH2 0xC5 JUMP JUMPDEST PUSH1 0x20 DUP1 PUSH1 0x1F DUP4 GT PUSH1 0x1 DUP2 EQ PUSH2 0x171 JUMPI PUSH0 DUP5 ISZERO PUSH2 0x15A JUMPI POP DUP6 DUP4 ADD MLOAD JUMPDEST PUSH0 NOT PUSH1 0x3 DUP7 SWAP1 SHL SHR NOT AND PUSH1 0x1 DUP6 SWAP1 SHL OR DUP6 SSTORE PUSH2 0x1C8 JUMP JUMPDEST PUSH0 DUP6 DUP2 MSTORE PUSH1 0x20 DUP2 KECCAK256 PUSH1 0x1F NOT DUP7 AND SWAP2 JUMPDEST DUP3 DUP2 LT ISZERO PUSH2 0x19F JUMPI DUP9 DUP7 ADD MLOAD DUP3 SSTORE SWAP5 DUP5 ADD SWAP5 PUSH1 0x1 SWAP1 SWAP2 ADD SWAP1 DUP5 ADD PUSH2 0x180 JUMP JUMPDEST POP DUP6 DUP3 LT ISZERO PUSH2 0x1BC JUMPI DUP8 DUP6 ADD MLOAD PUSH0 NOT PUSH1 0x3 DUP9 SWAP1 SHL PUSH1 0xF8 AND SHR NOT AND DUP2 SSTORE JUMPDEST POP POP PUSH1 0x1 DUP5 PUSH1 0x1 SHL ADD DUP6 SSTORE JUMPDEST POP POP POP POP POP POP JUMP JUMPDEST PUSH2 0x15CF DUP1 PUSH2 0x1DD PUSH0 CODECOPY PUSH0 RETURN INVALID PUSH1 0x80 PUSH1 0x40 MSTORE PUSH1 0x4 CALLDATASIZE LT PUSH2 0x157 JUMPI PUSH0 CALLDATALOAD PUSH1 0xE0 SHR DUP1 PUSH4 0x4ECBC664 GT PUSH2 0xBB JUMPI DUP1 PUSH4 0xB88D4FDE GT PUSH2 0x71 JUMPI DUP1 PUSH4 0xE985E9C5 GT PUSH2 0x57 JUMPI DUP1 PUSH4 0xE985E9C5 EQ PUSH2 0x38B JUMPI DUP1 PUSH4 0xF052D65A EQ PUSH2 0x3D2 JUMPI DUP1 PUSH4 0xFD499A74 EQ PUSH2 0x42D JUMPI PUSH0 DUP1 REVERT JUMPDEST DUP1 PUSH4 0xB88D4FDE EQ PUSH2 0x359 JUMPI DUP1 PUSH4 0xC87B56DD EQ PUSH2 0x36C JUMPI PUSH0 DUP1 REVERT JUMPDEST DUP1 PUSH4 0x70A08231 GT PUSH2 0xA1 JUMPI DUP1 PUSH4 0x70A08231 EQ PUSH2 0x307 JUMPI DUP1 PUSH4 0x95D89B41 EQ PUSH2 0x326 JUMPI DUP1 PUSH4 0xA22CB465 EQ PUSH2 0x33A JUMPI PUSH0 DUP1 REVERT JUMPDEST DUP1 PUSH4 0x4ECBC664 EQ PUSH2 0x2D4 JUMPI DUP1 PUSH4 0x6352211E EQ PUSH2 0x2E8 JUMPI PUSH0 DUP1 REVERT JUMPDEST DUP1 PUSH4 0x23B872DD GT PUSH2 0x110 JUMPI DUP1 PUSH4 0x3095FE91 GT PUSH2 0xF6 JUMPI DUP1 PUSH4 0x3095FE91 EQ PUSH2 0x24F JUMPI DUP1 PUSH4 0x42842E0E EQ PUSH2 0x263 JUMPI DUP1 PUSH4 0x42E29B4E EQ PUSH2 0x276 JUMPI PUSH0 DUP1 REVERT JUMPDEST DUP1 PUSH4 0x23B872DD EQ PUSH2 0x21D JUMPI DUP1 PUSH4 0x2A0C5221 EQ PUSH2 0x230 JUMPI PUSH0 DUP1 REVERT JUMPDEST DUP1 PUSH4 0x81812FC GT PUSH2 0x140 JUMPI DUP1 PUSH4 0x81812FC EQ PUSH2 0x1B0 JUMPI DUP1 PUSH4 0x95EA7B3 EQ PUSH2 0x1E7 JUMPI DUP1 PUSH4 0x18160DDD EQ PUSH2 0x1FC JUMPI PUSH0 DUP1 REVERT JUMPDEST DUP1 PUSH4 0x1FFC9A7 EQ PUSH2 0x15B JUMPI DUP1 PUSH4 0x6FDDE03 EQ PUSH2 0x18F JUMPI JUMPDEST PUSH0 DUP1 REVERT JUMPDEST CALLVALUE DUP1 ISZERO PUSH2 0x166 JUMPI PUSH0 DUP1 REVERT JUMPDEST POP PUSH2 0x17A PUSH2 0x175 CALLDATASIZE PUSH1 0x4 PUSH2 0x11F5 JUMP JUMPDEST PUSH2 0x479 JUMP JUMPDEST PUSH1 0x40 MLOAD SWAP1 ISZERO ISZERO DUP2 MSTORE PUSH1 0x20 ADD JUMPDEST PUSH1 0x40 MLOAD DUP1 SWAP2 SUB SWAP1 RETURN JUMPDEST CALLVALUE DUP1 ISZERO PUSH2 0x19A JUMPI PUSH0 DUP1 REVERT JUMPDEST POP PUSH2 0x1A3 PUSH2 0x515 JUMP JUMPDEST PUSH1 0x40 MLOAD PUSH2 0x186 SWAP2 SWAP1 PUSH2 0x123E JUMP JUMPDEST CALLVALUE DUP1 ISZERO PUSH2 0x1BB JUMPI PUSH0 DUP1 REVERT JUMPDEST POP PUSH2 0x1CF PUSH2 0x1CA CALLDATASIZE PUSH1 0x4 PUSH2 0x1250 JUMP JUMPDEST PUSH2 0x5A5 JUMP JUMPDEST PUSH1 0x40 MLOAD PUSH1 0x1 PUSH1 0x1 PUSH1 0xA0 SHL SUB SWAP1 SWAP2 AND DUP2 MSTORE PUSH1 0x20 ADD PUSH2 0x186 JUMP JUMPDEST PUSH2 0x1FA PUSH2 0x1F5 CALLDATASIZE PUSH1 0x4 PUSH2 0x127D JUMP JUMPDEST PUSH2 0x5F7 JUMP JUMPDEST STOP JUMPDEST CALLVALUE DUP1 ISZERO PUSH2 0x207 JUMPI PUSH0 DUP1 REVERT JUMPDEST POP PUSH1 0x1 SLOAD PUSH0 SLOAD SUB JUMPDEST PUSH1 0x40 MLOAD SWAP1 DUP2 MSTORE PUSH1 0x20 ADD PUSH2 0x186 JUMP JUMPDEST PUSH2 0x1FA PUSH2 0x22B CALLDATASIZE PUSH1 0x4 PUSH2 0x12A5 JUMP JUMPDEST PUSH2 0x607 JUMP JUMPDEST CALLVALUE DUP1 ISZERO PUSH2 0x23B JUMPI PUSH0 DUP1 REVERT JUMPDEST POP PUSH2 0x1FA PUSH2 0x24A CALLDATASIZE PUSH1 0x4 PUSH2 0x12DE JUMP JUMPDEST PUSH2 0x7C9 JUMP JUMPDEST CALLVALUE DUP1 ISZERO PUSH2 0x25A JUMPI PUSH0 DUP1 REVERT JUMPDEST POP PUSH1 0x9 SLOAD PUSH2 0x20F JUMP JUMPDEST PUSH2 0x1FA PUSH2 0x271 CALLDATASIZE PUSH1 0x4 PUSH2 0x12A5 JUMP JUMPDEST PUSH2 0x8FE JUMP JUMPDEST CALLVALUE DUP1 ISZERO PUSH2 0x281 JUMPI PUSH0 DUP1 REVERT JUMPDEST POP PUSH2 0x2B4 PUSH2 0x290 CALLDATASIZE PUSH1 0x4 PUSH2 0x1250 JUMP JUMPDEST PUSH8 0xFFFFFFFFFFFFFFFF DUP2 DUP2 AND SWAP3 PUSH1 0x40 DUP4 SWAP1 SHR DUP3 AND SWAP3 PUSH1 0x80 DUP2 SWAP1 SHR SWAP1 SWAP3 AND SWAP2 PUSH1 0xC0 SHR SWAP1 JUMP JUMPDEST PUSH1 0x40 DUP1 MLOAD SWAP5 DUP6 MSTORE PUSH1 0x20 DUP6 ADD SWAP4 SWAP1 SWAP4 MSTORE SWAP2 DUP4 ADD MSTORE PUSH1 0x60 DUP3 ADD MSTORE PUSH1 0x80 ADD PUSH2 0x186 JUMP JUMPDEST CALLVALUE DUP1 ISZERO PUSH2 0x2DF JUMPI PUSH0 DUP1 REVERT JUMPDEST POP PUSH2 0x1FA PUSH2 0x91D JUMP JUMPDEST CALLVALUE DUP1 ISZERO PUSH2 0x2F3 JUMPI PUSH0 DUP1 REVERT JUMPDEST POP PUSH2 0x1CF PUSH2 0x302 CALLDATASIZE PUSH1 0x4 PUSH2 0x1250 JUMP JUMPDEST PUSH2 0xAAB JUMP JUMPDEST CALLVALUE DUP1 ISZERO PUSH2 0x312 JUMPI PUSH0 DUP1 REVERT JUMPDEST POP PUSH2 0x20F PUSH2 0x321 CALLDATASIZE PUSH1 0x4 PUSH2 0x12FE JUMP JUMPDEST PUSH2 0xAB5 JUMP JUMPDEST CALLVALUE DUP1 ISZERO PUSH2 0x331 JUMPI PUSH0 DUP1 REVERT JUMPDEST POP PUSH2 0x1A3 PUSH2 0xB12 JUMP JUMPDEST CALLVALUE DUP1 ISZERO PUSH2 0x345 JUMPI PUSH0 DUP1 REVERT JUMPDEST POP PUSH2 0x1FA PUSH2 0x354 CALLDATASIZE PUSH1 0x4 PUSH2 0x1317 JUMP JUMPDEST PUSH2 0xB21 JUMP JUMPDEST PUSH2 0x1FA PUSH2 0x367 CALLDATASIZE PUSH1 0x4 PUSH2 0x1364 JUMP JUMPDEST PUSH2 0xB8C JUMP JUMPDEST CALLVALUE DUP1 ISZERO PUSH2 0x377 JUMPI PUSH0 DUP1 REVERT JUMPDEST POP PUSH2 0x1A3 PUSH2 0x386 CALLDATASIZE PUSH1 0x4 PUSH2 0x1250 JUMP JUMPDEST PUSH2 0xBCD JUMP JUMPDEST CALLVALUE DUP1 ISZERO PUSH2 0x396 JUMPI PUSH0 DUP1 REVERT JUMPDEST POP PUSH2 0x17A PUSH2 0x3A5 CALLDATASIZE PUSH1 0x4 PUSH2 0x1439 JUMP JUMPDEST PUSH1 0x1 PUSH1 0x1 PUSH1 0xA0 SHL SUB SWAP2 DUP3 AND PUSH0 SWAP1 DUP2 MSTORE PUSH1 0x7 PUSH1 0x20 SWAP1 DUP2 MSTORE PUSH1 0x40 DUP1 DUP4 KECCAK256 SWAP4 SWAP1 SWAP5 AND DUP3 MSTORE SWAP2 SWAP1 SWAP2 MSTORE KECCAK256 SLOAD PUSH1 0xFF AND SWAP1 JUMP JUMPDEST CALLVALUE DUP1 ISZERO PUSH2 0x3DD JUMPI PUSH0 DUP1 REVERT JUMPDEST POP PUSH2 0x3F1 PUSH2 0x3EC CALLDATASIZE PUSH1 0x4 PUSH2 0x1250 JUMP JUMPDEST PUSH2 0xC6A JUMP JUMPDEST PUSH1 0x40 MLOAD PUSH2 0x186 SWAP2 SWAP1 DUP2 MLOAD DUP2 MSTORE PUSH1 0x20 DUP1 DUP4 ADD MLOAD PUSH1 0x1 PUSH1 0x1 PUSH1 0xA0 SHL SUB AND SWAP1 DUP3 ADD MSTORE PUSH1 0x40 DUP1 DUP4 ADD MLOAD SWAP1 DUP3 ADD MSTORE PUSH1 0x60 SWAP2 DUP3 ADD MLOAD SWAP2 DUP2 ADD SWAP2 SWAP1 SWAP2 MSTORE PUSH1 0x80 ADD SWAP1 JUMP JUMPDEST CALLVALUE DUP1 ISZERO PUSH2 0x438 JUMPI PUSH0 DUP1 REVERT JUMPDEST POP PUSH2 0x464 PUSH2 0x447 CALLDATASIZE PUSH1 0x4 PUSH2 0x1250 JUMP JUMPDEST PUSH16 0xFFFFFFFFFFFFFFFFFFFFFFFFFFFFFFFF DUP2 AND SWAP2 PUSH1 0x80 SWAP2 SWAP1 SWAP2 SHR SWAP1 JUMP JUMPDEST PUSH1 0x40 DUP1 MLOAD SWAP3 DUP4 MSTORE PUSH1 0x20 DUP4 ADD SWAP2 SWAP1 SWAP2 MSTORE ADD PUSH2 0x186 JUMP JUMPDEST PUSH0 PUSH32 0x1FFC9A700000000000000000000000000000000000000000000000000000000 PUSH1 0x1 PUSH1 0x1 PUSH1 0xE0 SHL SUB NOT DUP4 AND EQ DUP1 PUSH2 0x4DB JUMPI POP PUSH32 0x80AC58CD00000000000000000000000000000000000000000000000000000000 PUSH1 0x1 PUSH1 0x1 PUSH1 0xE0 SHL SUB NOT DUP4 AND EQ JUMPDEST DUP1 PUSH2 0x50F JUMPI POP PUSH32 0x5B5E139F00000000000000000000000000000000000000000000000000000000 PUSH1 0x1 PUSH1 0x1 PUSH1 0xE0 SHL SUB NOT DUP4 AND EQ JUMPDEST SWAP3 SWAP2 POP POP JUMP JUMPDEST PUSH1 0x60 PUSH1 0x2 DUP1 SLOAD PUSH2 0x524 SWAP1 PUSH2 0x146A JUMP JUMPDEST DUP1 PUSH1 0x1F ADD PUSH1 0x20 DUP1 SWAP2 DIV MUL PUSH1 0x20 ADD PUSH1 0x40 MLOAD SWAP1 DUP2 ADD PUSH1 0x40 MSTORE DUP1 SWAP3 SWAP2 SWAP1 DUP2 DUP2 MSTORE PUSH1 0x20 ADD DUP3 DUP1 SLOAD PUSH2 0x550 SWAP1 PUSH2 0x146A JUMP JUMPDEST DUP1 ISZERO PUSH2 0x59B JUMPI DUP1 PUSH1 0x1F LT PUSH2 0x572 JUMPI PUSH2 0x100 DUP1 DUP4 SLOAD DIV MUL DUP4 MSTORE SWAP2 PUSH1 0x20 ADD SWAP2 PUSH2 0x59B JUMP JUMPDEST DUP3 ADD SWAP2 SWAP1 PUSH0 MSTORE PUSH1 0x20 PUSH0 KECCAK256 SWAP1 JUMPDEST DUP2 SLOAD DUP2 MSTORE SWAP1 PUSH1 0x1 ADD SWAP1 PUSH1 0x20 ADD DUP1 DUP4 GT PUSH2 0x57E JUMPI DUP3 SWAP1 SUB PUSH1 0x1F AND DUP3 ADD SWAP2 JUMPDEST POP POP POP POP POP SWAP1 POP SWAP1 JUMP JUMPDEST PUSH0 PUSH2 0x5AF DUP3 PUSH2 0xCE7 JUMP JUMPDEST PUSH2 0x5DC JUMPI PUSH2 0x5DC PUSH32 0xCF4700E400000000000000000000000000000000000000000000000000000000 PUSH2 0xD29 JUMP JUMPDEST POP PUSH0 SWAP1 DUP2 MSTORE PUSH1 0x6 PUSH1 0x20 MSTORE PUSH1 0x40 SWAP1 KECCAK256 SLOAD PUSH1 0x1 PUSH1 0x1 PUSH1 0xA0 SHL SUB AND SWAP1 JUMP JUMPDEST PUSH2 0x603 DUP3 DUP3 PUSH1 0x1 PUSH2 0xD31 JUMP JUMPDEST POP POP JUMP JUMPDEST PUSH0 PUSH2 0x611 DUP3 PUSH2 0xE14 JUMP JUMPDEST PUSH1 0x1 PUSH1 0x1 PUSH1 0xA0 SHL SUB SWAP5 DUP6 AND SWAP5 SWAP1 SWAP2 POP DUP2 AND DUP5 EQ PUSH2 0x651 JUMPI PUSH2 0x651 PUSH32 0xA114810000000000000000000000000000000000000000000000000000000000 PUSH2 0xD29 JUMP JUMPDEST PUSH0 DUP3 DUP2 MSTORE PUSH1 0x6 PUSH1 0x20 MSTORE PUSH1 0x40 SWAP1 KECCAK256 DUP1 SLOAD CALLER DUP1 DUP3 EQ PUSH1 0x1 PUSH1 0x1 PUSH1 0xA0 SHL SUB DUP9 AND SWAP1 SWAP2 EQ OR PUSH2 0x6C9 JUMPI PUSH1 0x1 PUSH1 0x1 PUSH1 0xA0 SHL SUB DUP7 AND PUSH0 SWAP1 DUP2 MSTORE PUSH1 0x7 PUSH1 0x20 SWAP1 DUP2 MSTORE PUSH1 0x40 DUP1 DUP4 KECCAK256 CALLER DUP5 MSTORE SWAP1 SWAP2 MSTORE SWAP1 KECCAK256 SLOAD PUSH1 0xFF AND PUSH2 0x6C9 JUMPI PUSH2 0x6C9 PUSH32 0x59C896BE00000000000000000000000000000000000000000000000000000000 PUSH2 0xD29 JUMP JUMPDEST DUP1 ISZERO PUSH2 0x6D3 JUMPI PUSH0 DUP3 SSTORE JUMPDEST PUSH1 0x1 PUSH1 0x1 PUSH1 0xA0 SHL SUB DUP7 DUP2 AND PUSH0 SWAP1 DUP2 MSTORE PUSH1 0x5 PUSH1 0x20 MSTORE PUSH1 0x40 DUP1 DUP3 KECCAK256 DUP1 SLOAD PUSH0 NOT ADD SWAP1 SSTORE SWAP2 DUP8 AND DUP1 DUP3 MSTORE SWAP2 SWAP1 KECCAK256 DUP1 SLOAD PUSH1 0x1 ADD SWAP1 SSTORE TIMESTAMP PUSH1 0xA0 SHL OR PUSH1 0x1 PUSH1 0xE1 SHL OR PUSH0 DUP6 DUP2 MSTORE PUSH1 0x4 PUSH1 0x20 MSTORE PUSH1 0x40 DUP2 KECCAK256 SWAP2 SWAP1 SWAP2 SSTORE PUSH1 0x1 PUSH1 0xE1 SHL DUP5 AND SWAP1 SUB PUSH2 0x75F JUMPI PUSH1 0x1 DUP5 ADD PUSH0 DUP2 DUP2 MSTORE PUSH1 0x4 PUSH1 0x20 MSTORE PUSH1 0x40 DUP2 KECCAK256 SLOAD SWAP1 SUB PUSH2 0x75D JUMPI PUSH0 SLOAD DUP2 EQ PUSH2 0x75D JUMPI PUSH0 DUP2 DUP2 MSTORE PUSH1 0x4 PUSH1 0x20 MSTORE PUSH1 0x40 SWAP1 KECCAK256 DUP5 SWAP1 SSTORE JUMPDEST POP JUMPDEST PUSH1 0x1 PUSH1 0x1 PUSH1 0xA0 SHL SUB DUP6 AND DUP5 DUP2 DUP9 PUSH32 0xDDF252AD1BE2C89B69C2B068FC378DAA952BA7F163C4A11628F55A4DF523B3EF PUSH0 DUP1 LOG4 DUP1 PUSH0 SUB PUSH2 0x7C0 JUMPI PUSH2 0x7C0 PUSH32 0xEA553B3400000000000000000000000000000000000000000000000000000000 PUSH2 0xD29 JUMP JUMPDEST POP POP POP POP POP POP POP JUMP JUMPDEST DUP2 PUSH2 0x7D3 DUP2 PUSH2 0xEA3 JUMP JUMPDEST PUSH0 DUP4 DUP2 MSTORE PUSH1 0xA PUSH1 0x20 MSTORE PUSH1 0x40 DUP1 DUP3 KECCAK256 PUSH1 0x2 SWAP1 DUP2 ADD SLOAD DUP6 DUP5 MSTORE SWAP3 DUP3 SWAP1 KECCAK256 ADD SLOAD PUSH8 0xFFFFFFFFFFFFFFFF DUP1 DUP5 AND SWAP4 DUP1 DUP5 SHR DUP3 AND SWAP4 PUSH1 0x80 DUP3 DUP2 SHR DUP5 AND SWAP5 PUSH1 0xC0 SWAP4 DUP5 SHR SWAP5 DUP1 DUP3 AND SWAP5 SWAP4 DUP3 SWAP1 SHR DUP2 AND SWAP4 SWAP3 DUP3 SWAP1 SHR AND SWAP2 SHR DUP1 DUP3 PUSH2 0x82F DUP6 DUP8 PUSH2 0x14B6 JUMP JUMPDEST PUSH2 0x839 SWAP2 SWAP1 PUSH2 0x14B6 JUMP JUMPDEST PUSH2 0x843 SWAP2 SWAP1 PUSH2 0x14B6 JUMP JUMPDEST DUP6 DUP8 PUSH2 0x84F DUP11 DUP13 PUSH2 0x14B6 JUMP JUMPDEST PUSH2 0x859 SWAP2 SWAP1 PUSH2 0x14B6 JUMP JUMPDEST PUSH2 0x863 SWAP2 SWAP1 PUSH2 0x14B6 JUMP JUMPDEST GT ISZERO PUSH2 0x8AF JUMPI PUSH2 0x874 DUP12 PUSH1 0x1 PUSH2 0xEF8 JUMP JUMPDEST PUSH2 0x87E DUP11 PUSH0 PUSH2 0xEF8 JUMP JUMPDEST PUSH1 0x40 MLOAD DUP11 SWAP1 DUP13 SWAP1 PUSH32 0x37FDF7CDA6EC1C848E98866FE5E1F781B2B5976A1D79C7770394E65503CE92AF SWAP1 PUSH0 SWAP1 LOG3 PUSH2 0x8F1 JUMP JUMPDEST PUSH2 0x8B9 DUP12 PUSH0 PUSH2 0xEF8 JUMP JUMPDEST PUSH2 0x8C4 DUP11 PUSH1 0x1 PUSH2 0xEF8 JUMP JUMPDEST PUSH1 0x40 MLOAD DUP11 SWAP1 DUP13 SWAP1 PUSH32 0x37FDF7CDA6EC1C848E98866FE5E1F781B2B5976A1D79C7770394E65503CE92AF SWAP1 PUSH0 SWAP1 LOG3 JUMPDEST POP POP POP POP POP POP POP POP POP POP POP JUMP JUMPDEST PUSH2 0x918 DUP4 DUP4 DUP4 PUSH1 0x40 MLOAD DUP1 PUSH1 0x20 ADD PUSH1 0x40 MSTORE DUP1 PUSH0 DUP2 MSTORE POP PUSH2 0xB8C JUMP JUMPDEST POP POP POP JUMP JUMPDEST PUSH1 0x40 DUP1 MLOAD TIMESTAMP PUSH1 0x20 DUP1 DUP4 ADD SWAP2 SWAP1 SWAP2 MSTORE PREVRANDAO DUP3 DUP5 ADD MSTORE CALLER PUSH1 0x60 DUP2 DUP2 SHL PUSH12 0xFFFFFFFFFFFFFFFFFFFFFFFF NOT AND SWAP1 DUP5 ADD MSTORE DUP4 MLOAD PUSH1 0x54 DUP2 DUP6 SUB ADD DUP2 MSTORE PUSH1 0x74 DUP5 ADD DUP1 DUP7 MSTORE DUP2 MLOAD SWAP2 SWAP1 SWAP4 ADD KECCAK256 PUSH1 0xF4 DUP5 ADD SWAP1 SWAP5 MSTORE PUSH1 0x9 SLOAD DUP3 MSTORE PUSH1 0x94 DUP4 ADD MSTORE SWAP1 PUSH1 0xB4 ADD PUSH2 0x9EE PUSH2 0x985 PUSH2 0x3E8 DUP6 PUSH2 0x14DD JUMP JUMPDEST PUSH2 0x3E8 PUSH2 0x992 DUP2 DUP8 PUSH2 0x14F0 JUMP JUMPDEST PUSH2 0x99C SWAP2 SWAP1 PUSH2 0x14DD JUMP JUMPDEST PUSH2 0x3E8 PUSH2 0x9AC PUSH3 0xF4240 DUP9 PUSH2 0x14F0 JUMP JUMPDEST PUSH2 0x9B6 SWAP2 SWAP1 PUSH2 0x14DD JUMP JUMPDEST PUSH2 0x3E8 PUSH2 0x9C7 PUSH4 0x3B9ACA00 DUP10 PUSH2 0x14F0 JUMP JUMPDEST PUSH2 0x9D1 SWAP2 SWAP1 PUSH2 0x14DD JUMP JUMPDEST PUSH0 DUP2 PUSH1 0xC0 SHL DUP4 PUSH1 0x80 SHL DUP6 PUSH1 0x40 SHL DUP8 PUSH0 SHL OR OR OR SWAP1 POP SWAP5 SWAP4 POP POP POP POP JUMP JUMPDEST DUP2 MSTORE PUSH1 0x20 ADD PUSH0 SWAP1 MSTORE PUSH1 0x9 SLOAD PUSH0 SWAP1 DUP2 MSTORE PUSH1 0xA PUSH1 0x20 SWAP1 DUP2 MSTORE PUSH1 0x40 SWAP2 DUP3 SWAP1 KECCAK256 DUP4 MLOAD DUP2 SSTORE SWAP1 DUP4 ADD MLOAD PUSH1 0x1 DUP3 ADD DUP1 SLOAD PUSH20 0xFFFFFFFFFFFFFFFFFFFFFFFFFFFFFFFFFFFFFFFF NOT AND PUSH1 0x1 PUSH1 0x1 PUSH1 0xA0 SHL SUB SWAP1 SWAP3 AND SWAP2 SWAP1 SWAP2 OR SWAP1 SSTORE SWAP1 DUP3 ADD MLOAD PUSH1 0x2 DUP3 ADD SSTORE PUSH1 0x60 SWAP1 SWAP2 ADD MLOAD PUSH1 0x3 SWAP1 SWAP2 ADD SSTORE PUSH2 0xA60 CALLER PUSH1 0x1 PUSH2 0xF58 JUMP JUMPDEST PUSH1 0x1 PUSH1 0x9 SLOAD ADD PUSH1 0x9 SSTORE PUSH2 0xA70 CALLER SWAP1 JUMP JUMPDEST PUSH1 0x1 PUSH1 0x1 PUSH1 0xA0 SHL SUB AND PUSH1 0x9 SLOAD PUSH32 0xFCE6B98DB3CC5152281E5D3E4C7332ADFB0D4B574CC5723DC73792F7624043CC PUSH1 0x40 MLOAD PUSH1 0x40 MLOAD DUP1 SWAP2 SUB SWAP1 LOG3 POP JUMP JUMPDEST PUSH0 PUSH2 0x50F DUP3 PUSH2 0xE14 JUMP JUMPDEST PUSH0 PUSH1 0x1 PUSH1 0x1 PUSH1 0xA0 SHL SUB DUP3 AND PUSH2 0xAED JUMPI PUSH2 0xAED PUSH32 0x8F4EB60400000000000000000000000000000000000000000000000000000000 PUSH2 0xD29 JUMP JUMPDEST POP PUSH1 0x1 PUSH1 0x1 PUSH1 0xA0 SHL SUB AND PUSH0 SWAP1 DUP2 MSTORE PUSH1 0x5 PUSH1 0x20 MSTORE PUSH1 0x40 SWAP1 KECCAK256 SLOAD PUSH8 0xFFFFFFFFFFFFFFFF AND SWAP1 JUMP JUMPDEST PUSH1 0x60 PUSH1 0x3 DUP1 SLOAD PUSH2 0x524 SWAP1 PUSH2 0x146A JUMP JUMPDEST CALLER PUSH0 DUP2 DUP2 MSTORE PUSH1 0x7 PUSH1 0x20 SWAP1 DUP2 MSTORE PUSH1 0x40 DUP1 DUP4 KECCAK256 PUSH1 0x1 PUSH1 0x1 PUSH1 0xA0 SHL SUB DUP8 AND DUP1 DUP6 MSTORE SWAP1 DUP4 MSTORE SWAP3 DUP2 SWAP1 KECCAK256 DUP1 SLOAD PUSH1 0xFF NOT AND DUP7 ISZERO ISZERO SWAP1 DUP2 OR SWAP1 SWAP2 SSTORE SWAP1 MLOAD SWAP1 DUP2 MSTORE SWAP2 SWAP3 SWAP2 PUSH32 0x17307EAB39AB6107E8899845AD3D59BD9653F200F220920489CA2B5937696C31 SWAP2 ADD PUSH1 0x40 MLOAD DUP1 SWAP2 SUB SWAP1 LOG3 POP POP JUMP JUMPDEST PUSH2 0xB97 DUP5 DUP5 DUP5 PUSH2 0x607 JUMP JUMPDEST PUSH1 0x1 PUSH1 0x1 PUSH1 0xA0 SHL SUB DUP4 AND EXTCODESIZE ISZERO PUSH2 0xBC7 JUMPI PUSH2 0xBB3 DUP5 DUP5 DUP5 DUP5 PUSH2 0xF71 JUMP JUMPDEST PUSH2 0xBC7 JUMPI PUSH2 0xBC7 PUSH4 0x68D2BF6B PUSH1 0xE1 SHL PUSH2 0xD29 JUMP JUMPDEST POP POP POP POP JUMP JUMPDEST PUSH1 0x60 PUSH2 0xBD8 DUP3 PUSH2 0xCE7 JUMP JUMPDEST PUSH2 0xC05 JUMPI PUSH2 0xC05 PUSH32 0xA14C4B5000000000000000000000000000000000000000000000000000000000 PUSH2 0xD29 JUMP JUMPDEST PUSH0 PUSH2 0xC1A PUSH1 0x40 DUP1 MLOAD PUSH1 0x20 DUP2 ADD SWAP1 SWAP2 MSTORE PUSH0 DUP2 MSTORE SWAP1 JUMP JUMPDEST SWAP1 POP DUP1 MLOAD PUSH0 SUB PUSH2 0xC38 JUMPI PUSH1 0x40 MLOAD DUP1 PUSH1 0x20 ADD PUSH1 0x40 MSTORE DUP1 PUSH0 DUP2 MSTORE POP PUSH2 0xC63 JUMP JUMPDEST DUP1 PUSH2 0xC42 DUP5 PUSH2 0x1050 JUMP JUMPDEST PUSH1 0x40 MLOAD PUSH1 0x20 ADD PUSH2 0xC53 SWAP3 SWAP2 SWAP1 PUSH2 0x151A JUMP JUMPDEST PUSH1 0x40 MLOAD PUSH1 0x20 DUP2 DUP4 SUB SUB DUP2 MSTORE SWAP1 PUSH1 0x40 MSTORE JUMPDEST SWAP4 SWAP3 POP POP POP JUMP JUMPDEST PUSH2 0xC9A PUSH1 0x40 MLOAD DUP1 PUSH1 0x80 ADD PUSH1 0x40 MSTORE DUP1 PUSH0 DUP2 MSTORE PUSH1 0x20 ADD PUSH0 PUSH1 0x1 PUSH1 0x1 PUSH1 0xA0 SHL SUB AND DUP2 MSTORE PUSH1 0x20 ADD PUSH0 DUP2 MSTORE PUSH1 0x20 ADD PUSH0 DUP2 MSTORE POP SWAP1 JUMP JUMPDEST POP PUSH0 SWAP1 DUP2 MSTORE PUSH1 0xA PUSH1 0x20 SWAP1 DUP2 MSTORE PUSH1 0x40 SWAP2 DUP3 SWAP1 KECCAK256 DUP3 MLOAD PUSH1 0x80 DUP2 ADD DUP5 MSTORE DUP2 SLOAD DUP2 MSTORE PUSH1 0x1 DUP3 ADD SLOAD PUSH1 0x1 PUSH1 0x1 PUSH1 0xA0 SHL SUB AND SWAP3 DUP2 ADD SWAP3 SWAP1 SWAP3 MSTORE PUSH1 0x2 DUP2 ADD SLOAD SWAP3 DUP3 ADD SWAP3 SWAP1 SWAP3 MSTORE PUSH1 0x3 SWAP1 SWAP2 ADD SLOAD PUSH1 0x60 DUP3 ADD MSTORE SWAP1 JUMP JUMPDEST PUSH0 DUP1 SLOAD DUP3 LT ISZERO PUSH2 0xD24 JUMPI PUSH0 JUMPDEST POP PUSH0 DUP3 DUP2 MSTORE PUSH1 0x4 PUSH1 0x20 MSTORE PUSH1 0x40 DUP2 KECCAK256 SLOAD SWAP1 DUP2 SWAP1 SUB PUSH2 0xD1A JUMPI PUSH2 0xD13 DUP4 PUSH2 0x152E JUMP JUMPDEST SWAP3 POP PUSH2 0xCF3 JUMP JUMPDEST PUSH1 0x1 PUSH1 0xE0 SHL AND ISZERO SWAP1 POP JUMPDEST SWAP2 SWAP1 POP JUMP JUMPDEST DUP1 PUSH0 MSTORE PUSH1 0x4 PUSH0 REVERT JUMPDEST PUSH0 PUSH2 0xD3B DUP4 PUSH2 0xAAB JUMP JUMPDEST SWAP1 POP DUP2 DUP1 ISZERO PUSH2 0xD53 JUMPI POP CALLER PUSH1 0x1 PUSH1 0x1 PUSH1 0xA0 SHL SUB DUP3 AND EQ ISZERO JUMPDEST ISZERO PUSH2 0xDAB JUMPI PUSH1 0x1 PUSH1 0x1 PUSH1 0xA0 SHL SUB DUP2 AND PUSH0 SWAP1 DUP2 MSTORE PUSH1 0x7 PUSH1 0x20 SWAP1 DUP2 MSTORE PUSH1 0x40 DUP1 DUP4 KECCAK256 CALLER DUP5 MSTORE SWAP1 SWAP2 MSTORE SWAP1 KECCAK256 SLOAD PUSH1 0xFF AND PUSH2 0xDAB JUMPI PUSH2 0xDAB PUSH32 0xCFB3B94200000000000000000000000000000000000000000000000000000000 PUSH2 0xD29 JUMP JUMPDEST PUSH0 DUP4 DUP2 MSTORE PUSH1 0x6 PUSH1 0x20 MSTORE PUSH1 0x40 DUP1 DUP3 KECCAK256 DUP1 SLOAD PUSH20 0xFFFFFFFFFFFFFFFFFFFFFFFFFFFFFFFFFFFFFFFF NOT AND PUSH1 0x1 PUSH1 0x1 PUSH1 0xA0 SHL SUB DUP9 DUP2 AND SWAP2 DUP3 OR SWAP1 SWAP3 SSTORE SWAP2 MLOAD DUP7 SWAP4 SWAP2 DUP6 AND SWAP2 PUSH32 0x8C5BE1E5EBEC7D5BD14F71427D1E84F3DD0314C0F7B2291E5B200AC8C7C3B925 SWAP2 LOG4 POP POP POP POP JUMP JUMPDEST PUSH0 DUP2 DUP2 MSTORE PUSH1 0x4 PUSH1 0x20 MSTORE PUSH1 0x40 SWAP1 KECCAK256 SLOAD DUP1 PUSH0 SUB PUSH2 0xE81 JUMPI PUSH0 SLOAD DUP3 LT PUSH2 0xE41 JUMPI PUSH2 0xE41 PUSH4 0x6F96CDA1 PUSH1 0xE1 SHL PUSH2 0xD29 JUMP JUMPDEST JUMPDEST POP PUSH0 NOT ADD PUSH0 DUP2 DUP2 MSTORE PUSH1 0x4 PUSH1 0x20 MSTORE PUSH1 0x40 SWAP1 KECCAK256 SLOAD DUP1 ISZERO PUSH2 0xE42 JUMPI PUSH1 0x1 PUSH1 0xE0 SHL DUP2 AND PUSH0 SUB PUSH2 0xE6C JUMPI SWAP2 SWAP1 POP JUMP JUMPDEST PUSH2 0xE7C PUSH4 0x6F96CDA1 PUSH1 0xE1 SHL PUSH2 0xD29 JUMP JUMPDEST PUSH2 0xE42 JUMP JUMPDEST PUSH1 0x1 PUSH1 0xE0 SHL DUP2 AND PUSH0 SUB PUSH2 0xE93 JUMPI SWAP2 SWAP1 POP JUMP JUMPDEST PUSH2 0xD24 PUSH4 0x6F96CDA1 PUSH1 0xE1 SHL PUSH2 0xD29 JUMP JUMPDEST PUSH0 DUP2 DUP2 MSTORE PUSH1 0xA PUSH1 0x20 MSTORE PUSH1 0x40 SWAP1 KECCAK256 PUSH1 0x1 ADD SLOAD PUSH1 0x1 PUSH1 0x1 PUSH1 0xA0 SHL SUB AND CALLER EQ PUSH2 0xEF5 JUMPI PUSH1 0x40 MLOAD PUSH32 0x233DE59500000000000000000000000000000000000000000000000000000000 DUP2 MSTORE PUSH1 0x4 ADD PUSH1 0x40 MLOAD DUP1 SWAP2 SUB SWAP1 REVERT JUMPDEST POP JUMP JUMPDEST PUSH0 DUP3 DUP2 MSTORE PUSH1 0xA PUSH1 0x20 MSTORE PUSH1 0x40 SWAP1 KECCAK256 PUSH1 0x3 DUP2 ADD SLOAD PUSH16 0xFFFFFFFFFFFFFFFFFFFFFFFFFFFFFFFF DUP2 AND SWAP1 PUSH1 0x80 SHR DUP4 PUSH1 0x1 DUP2 EQ PUSH2 0xF35 JUMPI PUSH1 0x1 DUP3 ADD SWAP2 POP PUSH2 0xF3C JUMP JUMPDEST PUSH1 0x1 DUP4 ADD SWAP3 POP JUMPDEST POP PUSH2 0xF49 DUP3 DUP3 PUSH1 0x80 SHL OR SWAP1 JUMP JUMPDEST DUP4 PUSH1 0x3 ADD DUP2 SWAP1 SSTORE POP POP POP POP POP POP JUMP JUMPDEST PUSH2 0x603 DUP3 DUP3 PUSH1 0x40 MLOAD DUP1 PUSH1 0x20 ADD PUSH1 0x40 MSTORE DUP1 PUSH0 DUP2 MSTORE POP PUSH2 0x1093 JUMP JUMPDEST PUSH1 0x40 MLOAD PUSH4 0xA85BD01 PUSH1 0xE1 SHL DUP2 MSTORE PUSH0 SWAP1 PUSH1 0x1 PUSH1 0x1 PUSH1 0xA0 SHL SUB DUP6 AND SWAP1 PUSH4 0x150B7A02 SWAP1 PUSH2 0xFA5 SWAP1 CALLER SWAP1 DUP10 SWAP1 DUP9 SWAP1 DUP9 SWAP1 PUSH1 0x4 ADD PUSH2 0x1543 JUMP JUMPDEST PUSH1 0x20 PUSH1 0x40 MLOAD DUP1 DUP4 SUB DUP2 PUSH0 DUP8 GAS CALL SWAP3 POP POP POP DUP1 ISZERO PUSH2 0xFDF JUMPI POP PUSH1 0x40 DUP1 MLOAD PUSH1 0x1F RETURNDATASIZE SWAP1 DUP2 ADD PUSH1 0x1F NOT AND DUP3 ADD SWAP1 SWAP3 MSTORE PUSH2 0xFDC SWAP2 DUP2 ADD SWAP1 PUSH2 0x157E JUMP JUMPDEST PUSH1 0x1 JUMPDEST PUSH2 0x1032 JUMPI RETURNDATASIZE DUP1 DUP1 ISZERO PUSH2 0x100C JUMPI PUSH1 0x40 MLOAD SWAP2 POP PUSH1 0x1F NOT PUSH1 0x3F RETURNDATASIZE ADD AND DUP3 ADD PUSH1 0x40 MSTORE RETURNDATASIZE DUP3 MSTORE RETURNDATASIZE PUSH0 PUSH1 0x20 DUP5 ADD RETURNDATACOPY PUSH2 0x1011 JUMP JUMPDEST PUSH1 0x60 SWAP2 POP JUMPDEST POP DUP1 MLOAD PUSH0 SUB PUSH2 0x102A JUMPI PUSH2 0x102A PUSH4 0x68D2BF6B PUSH1 0xE1 SHL PUSH2 0xD29 JUMP JUMPDEST DUP1 MLOAD DUP2 PUSH1 0x20 ADD REVERT JUMPDEST PUSH1 0x1 PUSH1 0x1 PUSH1 0xE0 SHL SUB NOT AND PUSH4 0xA85BD01 PUSH1 0xE1 SHL EQ SWAP1 POP JUMPDEST SWAP5 SWAP4 POP POP POP POP JUMP JUMPDEST PUSH1 0x60 PUSH1 0xA0 PUSH1 0x40 MLOAD ADD DUP1 PUSH1 0x40 MSTORE PUSH1 0x20 DUP2 SUB SWAP2 POP POP PUSH0 DUP2 MSTORE DUP1 DUP3 JUMPDEST PUSH1 0x1 DUP4 SUB SWAP3 POP PUSH1 0xA DUP2 MOD PUSH1 0x30 ADD DUP4 MSTORE8 PUSH1 0xA SWAP1 DIV DUP1 PUSH2 0x1069 JUMPI POP DUP2 SWAP1 SUB PUSH1 0x1F NOT SWAP1 SWAP2 ADD SWAP1 DUP2 MSTORE SWAP2 SWAP1 POP JUMP JUMPDEST PUSH2 0x109D DUP4 DUP4 PUSH2 0x10F3 JUMP JUMPDEST PUSH1 0x1 PUSH1 0x1 PUSH1 0xA0 SHL SUB DUP4 AND EXTCODESIZE ISZERO PUSH2 0x918 JUMPI PUSH0 SLOAD DUP3 DUP2 SUB JUMPDEST PUSH2 0x10C5 PUSH0 DUP7 DUP4 DUP1 PUSH1 0x1 ADD SWAP5 POP DUP7 PUSH2 0xF71 JUMP JUMPDEST PUSH2 0x10D9 JUMPI PUSH2 0x10D9 PUSH4 0x68D2BF6B PUSH1 0xE1 SHL PUSH2 0xD29 JUMP JUMPDEST DUP2 DUP2 LT PUSH2 0x10B3 JUMPI DUP2 PUSH0 SLOAD EQ PUSH2 0x10EC JUMPI PUSH0 DUP1 REVERT JUMPDEST POP POP POP POP POP JUMP JUMPDEST PUSH0 DUP1 SLOAD SWAP1 DUP3 SWAP1 SUB PUSH2 0x1127 JUMPI PUSH2 0x1127 PUSH32 0xB562E8DD00000000000000000000000000000000000000000000000000000000 PUSH2 0xD29 JUMP JUMPDEST PUSH0 DUP2 DUP2 MSTORE PUSH1 0x4 PUSH1 0x20 SWAP1 DUP2 MSTORE PUSH1 0x40 DUP1 DUP4 KECCAK256 PUSH1 0x1 PUSH1 0x1 PUSH1 0xA0 SHL SUB DUP8 AND TIMESTAMP PUSH1 0xA0 SHL PUSH1 0x1 DUP9 EQ PUSH1 0xE1 SHL OR DUP2 OR SWAP1 SWAP2 SSTORE DUP1 DUP5 MSTORE PUSH1 0x5 SWAP1 SWAP3 MSTORE DUP3 KECCAK256 DUP1 SLOAD PUSH9 0x10000000000000001 DUP7 MUL ADD SWAP1 SSTORE SWAP1 DUP2 SWAP1 SUB PUSH2 0x119E JUMPI PUSH2 0x119E PUSH32 0x2E07630000000000000000000000000000000000000000000000000000000000 PUSH2 0xD29 JUMP JUMPDEST DUP2 DUP4 ADD DUP3 JUMPDEST DUP1 DUP4 PUSH0 PUSH32 0xDDF252AD1BE2C89B69C2B068FC378DAA952BA7F163C4A11628F55A4DF523B3EF PUSH0 DUP1 LOG4 DUP2 DUP2 PUSH1 0x1 ADD SWAP2 POP DUP2 SUB PUSH2 0x11A3 JUMPI POP PUSH0 SSTORE POP POP POP POP JUMP JUMPDEST PUSH1 0x1 PUSH1 0x1 PUSH1 0xE0 SHL SUB NOT DUP2 AND DUP2 EQ PUSH2 0xEF5 JUMPI PUSH0 DUP1 REVERT JUMPDEST PUSH0 PUSH1 0x20 DUP3 DUP5 SUB SLT ISZERO PUSH2 0x1205 JUMPI PUSH0 DUP1 REVERT JUMPDEST DUP2 CALLDATALOAD PUSH2 0xC63 DUP2 PUSH2 0x11E0 JUMP JUMPDEST PUSH0 DUP2 MLOAD DUP1 DUP5 MSTORE DUP1 PUSH1 0x20 DUP5 ADD PUSH1 0x20 DUP7 ADD MCOPY PUSH0 PUSH1 0x20 DUP3 DUP7 ADD ADD MSTORE PUSH1 0x20 PUSH1 0x1F NOT PUSH1 0x1F DUP4 ADD AND DUP6 ADD ADD SWAP2 POP POP SWAP3 SWAP2 POP POP JUMP JUMPDEST PUSH1 0x20 DUP2 MSTORE PUSH0 PUSH2 0xC63 PUSH1 0x20 DUP4 ADD DUP5 PUSH2 0x1210 JUMP JUMPDEST PUSH0 PUSH1 0x20 DUP3 DUP5 SUB SLT ISZERO PUSH2 0x1260 JUMPI PUSH0 DUP1 REVERT JUMPDEST POP CALLDATALOAD SWAP2 SWAP1 POP JUMP JUMPDEST DUP1 CALLDATALOAD PUSH1 0x1 PUSH1 0x1 PUSH1 0xA0 SHL SUB DUP2 AND DUP2 EQ PUSH2 0xD24 JUMPI PUSH0 DUP1 REVERT JUMPDEST PUSH0 DUP1 PUSH1 0x40 DUP4 DUP6 SUB SLT ISZERO PUSH2 0x128E JUMPI PUSH0 DUP1 REVERT JUMPDEST PUSH2 0x1297 DUP4 PUSH2 0x1267 JUMP JUMPDEST SWAP5 PUSH1 0x20 SWAP4 SWAP1 SWAP4 ADD CALLDATALOAD SWAP4 POP POP POP JUMP JUMPDEST PUSH0 DUP1 PUSH0 PUSH1 0x60 DUP5 DUP7 SUB SLT ISZERO PUSH2 0x12B7 JUMPI PUSH0 DUP1 REVERT JUMPDEST PUSH2 0x12C0 DUP5 PUSH2 0x1267 JUMP JUMPDEST SWAP3 POP PUSH2 0x12CE PUSH1 0x20 DUP6 ADD PUSH2 0x1267 JUMP JUMPDEST SWAP2 POP PUSH1 0x40 DUP5 ADD CALLDATALOAD SWAP1 POP SWAP3 POP SWAP3 POP SWAP3 JUMP JUMPDEST PUSH0 DUP1 PUSH1 0x40 DUP4 DUP6 SUB SLT ISZERO PUSH2 0x12EF JUMPI PUSH0 DUP1 REVERT JUMPDEST POP POP DUP1 CALLDATALOAD SWAP3 PUSH1 0x20 SWAP1 SWAP2 ADD CALLDATALOAD SWAP2 POP JUMP JUMPDEST PUSH0 PUSH1 0x20 DUP3 DUP5 SUB SLT ISZERO PUSH2 0x130E JUMPI PUSH0 DUP1 REVERT JUMPDEST PUSH2 0xC63 DUP3 PUSH2 0x1267 JUMP JUMPDEST PUSH0 DUP1 PUSH1 0x40 DUP4 DUP6 SUB SLT ISZERO PUSH2 0x1328 JUMPI PUSH0 DUP1 REVERT JUMPDEST PUSH2 0x1331 DUP4 PUSH2 0x1267 JUMP JUMPDEST SWAP2 POP PUSH1 0x20 DUP4 ADD CALLDATALOAD DUP1 ISZERO ISZERO DUP2 EQ PUSH2 0x1345 JUMPI PUSH0 DUP1 REVERT JUMPDEST DUP1 SWAP2 POP POP SWAP3 POP SWAP3 SWAP1 POP JUMP JUMPDEST PUSH4 0x4E487B71 PUSH1 0xE0 SHL PUSH0 MSTORE PUSH1 0x41 PUSH1 0x4 MSTORE PUSH1 0x24 PUSH0 REVERT JUMPDEST PUSH0 DUP1 PUSH0 DUP1 PUSH1 0x80 DUP6 DUP8 SUB SLT ISZERO PUSH2 0x1377 JUMPI PUSH0 DUP1 REVERT JUMPDEST PUSH2 0x1380 DUP6 PUSH2 0x1267 JUMP JUMPDEST SWAP4 POP PUSH2 0x138E PUSH1 0x20 DUP7 ADD PUSH2 0x1267 JUMP JUMPDEST SWAP3 POP PUSH1 0x40 DUP6 ADD CALLDATALOAD SWAP2 POP PUSH1 0x60 DUP6 ADD CALLDATALOAD PUSH8 0xFFFFFFFFFFFFFFFF DUP1 DUP3 GT ISZERO PUSH2 0x13B1 JUMPI PUSH0 DUP1 REVERT JUMPDEST DUP2 DUP8 ADD SWAP2 POP DUP8 PUSH1 0x1F DUP4 ADD SLT PUSH2 0x13C4 JUMPI PUSH0 DUP1 REVERT JUMPDEST DUP2 CALLDATALOAD DUP2 DUP2 GT ISZERO PUSH2 0x13D6 JUMPI PUSH2 0x13D6 PUSH2 0x1350 JUMP JUMPDEST PUSH1 0x40 MLOAD PUSH1 0x1F DUP3 ADD PUSH1 0x1F NOT SWAP1 DUP2 AND PUSH1 0x3F ADD AND DUP2 ADD SWAP1 DUP4 DUP3 GT DUP2 DUP4 LT OR ISZERO PUSH2 0x13FE JUMPI PUSH2 0x13FE PUSH2 0x1350 JUMP JUMPDEST DUP2 PUSH1 0x40 MSTORE DUP3 DUP2 MSTORE DUP11 PUSH1 0x20 DUP5 DUP8 ADD ADD GT ISZERO PUSH2 0x1416 JUMPI PUSH0 DUP1 REVERT JUMPDEST DUP3 PUSH1 0x20 DUP7 ADD PUSH1 0x20 DUP4 ADD CALLDATACOPY PUSH0 PUSH1 0x20 DUP5 DUP4 ADD ADD MSTORE DUP1 SWAP6 POP POP POP POP POP POP SWAP3 SWAP6 SWAP2 SWAP5 POP SWAP3 POP JUMP JUMPDEST PUSH0 DUP1 PUSH1 0x40 DUP4 DUP6 SUB SLT ISZERO PUSH2 0x144A JUMPI PUSH0 DUP1 REVERT JUMPDEST PUSH2 0x1453 DUP4 PUSH2 0x1267 JUMP JUMPDEST SWAP2 POP PUSH2 0x1461 PUSH1 0x20 DUP5 ADD PUSH2 0x1267 JUMP JUMPDEST SWAP1 POP SWAP3 POP SWAP3 SWAP1 POP JUMP JUMPDEST PUSH1 0x1 DUP2 DUP2 SHR SWAP1 DUP3 AND DUP1 PUSH2 0x147E JUMPI PUSH1 0x7F DUP3 AND SWAP2 POP JUMPDEST PUSH1 0x20 DUP3 LT DUP2 SUB PUSH2 0x149C JUMPI PUSH4 0x4E487B71 PUSH1 0xE0 SHL PUSH0 MSTORE PUSH1 0x22 PUSH1 0x4 MSTORE PUSH1 0x24 PUSH0 REVERT JUMPDEST POP SWAP2 SWAP1 POP JUMP JUMPDEST PUSH4 0x4E487B71 PUSH1 0xE0 SHL PUSH0 MSTORE PUSH1 0x11 PUSH1 0x4 MSTORE PUSH1 0x24 PUSH0 REVERT JUMPDEST DUP1 DUP3 ADD DUP1 DUP3 GT ISZERO PUSH2 0x50F JUMPI PUSH2 0x50F PUSH2 0x14A2 JUMP JUMPDEST PUSH4 0x4E487B71 PUSH1 0xE0 SHL PUSH0 MSTORE PUSH1 0x12 PUSH1 0x4 MSTORE PUSH1 0x24 PUSH0 REVERT JUMPDEST PUSH0 DUP3 PUSH2 0x14EB JUMPI PUSH2 0x14EB PUSH2 0x14C9 JUMP JUMPDEST POP MOD SWAP1 JUMP JUMPDEST PUSH0 DUP3 PUSH2 0x14FE JUMPI PUSH2 0x14FE PUSH2 0x14C9 JUMP JUMPDEST POP DIV SWAP1 JUMP JUMPDEST PUSH0 DUP2 MLOAD DUP1 PUSH1 0x20 DUP5 ADD DUP6 MCOPY PUSH0 SWAP4 ADD SWAP3 DUP4 MSTORE POP SWAP1 SWAP2 SWAP1 POP JUMP JUMPDEST PUSH0 PUSH2 0x1048 PUSH2 0x1528 DUP4 DUP7 PUSH2 0x1503 JUMP JUMPDEST DUP5 PUSH2 0x1503 JUMP JUMPDEST PUSH0 DUP2 PUSH2 0x153C JUMPI PUSH2 0x153C PUSH2 0x14A2 JUMP JUMPDEST POP PUSH0 NOT ADD SWAP1 JUMP JUMPDEST PUSH0 PUSH1 0x1 PUSH1 0x1 PUSH1 0xA0 SHL SUB DUP1 DUP8 AND DUP4 MSTORE DUP1 DUP7 AND PUSH1 0x20 DUP5 ADD MSTORE POP DUP4 PUSH1 0x40 DUP4 ADD MSTORE PUSH1 0x80 PUSH1 0x60 DUP4 ADD MSTORE PUSH2 0x1574 PUSH1 0x80 DUP4 ADD DUP5 PUSH2 0x1210 JUMP JUMPDEST SWAP7 SWAP6 POP POP POP POP POP POP JUMP JUMPDEST PUSH0 PUSH1 0x20 DUP3 DUP5 SUB SLT ISZERO PUSH2 0x158E JUMPI PUSH0 DUP1 REVERT JUMPDEST DUP2 MLOAD PUSH2 0xC63 DUP2 PUSH2 0x11E0 JUMP INVALID LOG2 PUSH5 0x6970667358 0x22 SLT KECCAK256 DUP15 0xC DUP12 PUSH22 0x8F9DAE14C894A2D9DB75EAA65F8D1B9E5401BCD7AFEF ORIGIN SWAP3 DUP7 0xB3 0xD5 0xC9 PUSH5 0x736F6C6343 STOP ADDMOD NOT STOP CALLER "
				},
				"gasEstimates": {
					"creation": {
						"codeDepositCost": "1116600",
						"executionCost": "infinite",
						"totalCost": "infinite"
					},
					"external": {
						"approve(address,uint256)": "infinite",
						"balanceOf(address)": "2636",
						"battle(uint256,uint256)": "infinite",
						"createRandomCreature()": "infinite",
						"getApproved(uint256)": "infinite",
						"getCreature(uint256)": "9221",
						"getNextCreatureId()": "2336",
						"isApprovedForAll(address,address)": "infinite",
						"name()": "infinite",
						"ownerOf(uint256)": "infinite",
						"safeTransferFrom(address,address,uint256)": "infinite",
						"safeTransferFrom(address,address,uint256,bytes)": "infinite",
						"setApprovalForAll(address,bool)": "26671",
						"supportsInterface(bytes4)": "536",
						"symbol()": "infinite",
						"tokenURI(uint256)": "infinite",
						"totalSupply()": "4475",
						"transferFrom(address,address,uint256)": "infinite",
						"unpackBattleRecord(uint256)": "406",
						"unpackGameStats(uint256)": "479"
					},
					"internal": {
						"_checkCreatureOwned(uint256)": "infinite",
						"_updateBattleRecord(uint256,bool)": "24420",
						"packBattleRecord(uint256,uint256)": "infinite",
						"packGameStats(uint256,uint256,uint256,uint256)": "infinite"
					}
				},
				"methodIdentifiers": {
					"approve(address,uint256)": "095ea7b3",
					"balanceOf(address)": "70a08231",
					"battle(uint256,uint256)": "2a0c5221",
					"createRandomCreature()": "4ecbc664",
					"getApproved(uint256)": "081812fc",
					"getCreature(uint256)": "f052d65a",
					"getNextCreatureId()": "3095fe91",
					"isApprovedForAll(address,address)": "e985e9c5",
					"name()": "06fdde03",
					"ownerOf(uint256)": "6352211e",
					"safeTransferFrom(address,address,uint256)": "42842e0e",
					"safeTransferFrom(address,address,uint256,bytes)": "b88d4fde",
					"setApprovalForAll(address,bool)": "a22cb465",
					"supportsInterface(bytes4)": "01ffc9a7",
					"symbol()": "95d89b41",
					"tokenURI(uint256)": "c87b56dd",
					"totalSupply()": "18160ddd",
					"transferFrom(address,address,uint256)": "23b872dd",
					"unpackBattleRecord(uint256)": "fd499a74",
					"unpackGameStats(uint256)": "42e29b4e"
				}
			},
			"storageLayout": {
				"storage": [
					{
						"astId": 485,
						"contract": "contracts/ContractV/ContractVV1.sol:ContractVV1",
						"label": "_currentIndex",
						"offset": 0,
						"slot": "0",
						"type": "t_uint256"
					},
					{
						"astId": 487,
						"contract": "contracts/ContractV/ContractVV1.sol:ContractVV1",
						"label": "_burnCounter",
						"offset": 0,
						"slot": "1",
						"type": "t_uint256"
					},
					{
						"astId": 489,
						"contract": "contracts/ContractV/ContractVV1.sol:ContractVV1",
						"label": "_name",
						"offset": 0,
						"slot": "2",
						"type": "t_string_storage"
					},
					{
						"astId": 491,
						"contract": "contracts/ContractV/ContractVV1.sol:ContractVV1",
						"label": "_symbol",
						"offset": 0,
						"slot": "3",
						"type": "t_string_storage"
					},
					{
						"astId": 495,
						"contract": "contracts/ContractV/ContractVV1.sol:ContractVV1",
						"label": "_packedOwnerships",
						"offset": 0,
						"slot": "4",
						"type": "t_mapping(t_uint256,t_uint256)"
					},
					{
						"astId": 499,
						"contract": "contracts/ContractV/ContractVV1.sol:ContractVV1",
						"label": "_packedAddressData",
						"offset": 0,
						"slot": "5",
						"type": "t_mapping(t_address,t_uint256)"
					},
					{
						"astId": 504,
						"contract": "contracts/ContractV/ContractVV1.sol:ContractVV1",
						"label": "_tokenApprovals",
						"offset": 0,
						"slot": "6",
						"type": "t_mapping(t_uint256,t_struct(TokenApprovalRef)417_storage)"
					},
					{
						"astId": 510,
						"contract": "contracts/ContractV/ContractVV1.sol:ContractVV1",
						"label": "_operatorApprovals",
						"offset": 0,
						"slot": "7",
						"type": "t_mapping(t_address,t_mapping(t_address,t_bool))"
					},
					{
						"astId": 512,
						"contract": "contracts/ContractV/ContractVV1.sol:ContractVV1",
						"label": "_spotMinted",
						"offset": 0,
						"slot": "8",
						"type": "t_uint256"
					},
					{
						"astId": 18,
						"contract": "contracts/ContractV/ContractVV1.sol:ContractVV1",
						"label": "nextCreatureId",
						"offset": 0,
						"slot": "9",
						"type": "t_uint256"
					},
					{
						"astId": 23,
						"contract": "contracts/ContractV/ContractVV1.sol:ContractVV1",
						"label": "creatures",
						"offset": 0,
						"slot": "10",
						"type": "t_mapping(t_uint256,t_struct(Creature)16_storage)"
					}
				],
				"types": {
					"t_address": {
						"encoding": "inplace",
						"label": "address",
						"numberOfBytes": "20"
					},
					"t_bool": {
						"encoding": "inplace",
						"label": "bool",
						"numberOfBytes": "1"
					},
					"t_mapping(t_address,t_bool)": {
						"encoding": "mapping",
						"key": "t_address",
						"label": "mapping(address => bool)",
						"numberOfBytes": "32",
						"value": "t_bool"
					},
					"t_mapping(t_address,t_mapping(t_address,t_bool))": {
						"encoding": "mapping",
						"key": "t_address",
						"label": "mapping(address => mapping(address => bool))",
						"numberOfBytes": "32",
						"value": "t_mapping(t_address,t_bool)"
					},
					"t_mapping(t_address,t_uint256)": {
						"encoding": "mapping",
						"key": "t_address",
						"label": "mapping(address => uint256)",
						"numberOfBytes": "32",
						"value": "t_uint256"
					},
					"t_mapping(t_uint256,t_struct(Creature)16_storage)": {
						"encoding": "mapping",
						"key": "t_uint256",
						"label": "mapping(uint256 => struct ContractVV1.Creature)",
						"numberOfBytes": "32",
						"value": "t_struct(Creature)16_storage"
					},
					"t_mapping(t_uint256,t_struct(TokenApprovalRef)417_storage)": {
						"encoding": "mapping",
						"key": "t_uint256",
						"label": "mapping(uint256 => struct ERC721A.TokenApprovalRef)",
						"numberOfBytes": "32",
						"value": "t_struct(TokenApprovalRef)417_storage"
					},
					"t_mapping(t_uint256,t_uint256)": {
						"encoding": "mapping",
						"key": "t_uint256",
						"label": "mapping(uint256 => uint256)",
						"numberOfBytes": "32",
						"value": "t_uint256"
					},
					"t_string_storage": {
						"encoding": "bytes",
						"label": "string",
						"numberOfBytes": "32"
					},
					"t_struct(Creature)16_storage": {
						"encoding": "inplace",
						"label": "struct ContractVV1.Creature",
						"members": [
							{
								"astId": 9,
								"contract": "contracts/ContractV/ContractVV1.sol:ContractVV1",
								"label": "id",
								"offset": 0,
								"slot": "0",
								"type": "t_uint256"
							},
							{
								"astId": 11,
								"contract": "contracts/ContractV/ContractVV1.sol:ContractVV1",
								"label": "owner",
								"offset": 0,
								"slot": "1",
								"type": "t_address"
							},
							{
								"astId": 13,
								"contract": "contracts/ContractV/ContractVV1.sol:ContractVV1",
								"label": "gameStats",
								"offset": 0,
								"slot": "2",
								"type": "t_uint256"
							},
							{
								"astId": 15,
								"contract": "contracts/ContractV/ContractVV1.sol:ContractVV1",
								"label": "battleRecord",
								"offset": 0,
								"slot": "3",
								"type": "t_uint256"
							}
						],
						"numberOfBytes": "128"
					},
					"t_struct(TokenApprovalRef)417_storage": {
						"encoding": "inplace",
						"label": "struct ERC721A.TokenApprovalRef",
						"members": [
							{
								"astId": 416,
								"contract": "contracts/ContractV/ContractVV1.sol:ContractVV1",
								"label": "value",
								"offset": 0,
								"slot": "0",
								"type": "t_address"
							}
						],
						"numberOfBytes": "32"
					},
					"t_uint256": {
						"encoding": "inplace",
						"label": "uint256",
						"numberOfBytes": "32"
					}
				}
			},
			"userdoc": {
				"errors": {
					"ApprovalCallerNotOwnerNorApproved()": [
						{
							"notice": "The caller must own the token or be an approved operator."
						}
					],
					"ApprovalQueryForNonexistentToken()": [
						{
							"notice": "The token does not exist."
						}
					],
					"BalanceQueryForZeroAddress()": [
						{
							"notice": "Cannot query the balance for the zero address."
						}
					],
					"MintERC2309QuantityExceedsLimit()": [
						{
							"notice": "The `quantity` minted with ERC2309 exceeds the safety limit."
						}
					],
					"MintToZeroAddress()": [
						{
							"notice": "Cannot mint to the zero address."
						}
					],
					"MintZeroQuantity()": [
						{
							"notice": "The quantity of tokens minted must be more than zero."
						}
					],
					"NotCompatibleWithSpotMints()": [
						{
							"notice": "The feature is not compatible with spot mints."
						}
					],
					"OwnerQueryForNonexistentToken()": [
						{
							"notice": "The token does not exist."
						}
					],
					"OwnershipNotInitializedForExtraData()": [
						{
							"notice": "The `extraData` cannot be set on an unintialized ownership slot."
						}
					],
					"SequentialMintExceedsLimit()": [
						{
							"notice": "The `tokenId` of a sequential mint exceeds `_sequentialUpTo()`."
						}
					],
					"SequentialUpToTooSmall()": [
						{
							"notice": "`_sequentialUpTo()` must be greater than `_startTokenId()`."
						}
					],
					"SpotMintTokenIdTooSmall()": [
						{
							"notice": "Spot minting requires a `tokenId` greater than `_sequentialUpTo()`."
						}
					],
					"TokenAlreadyExists()": [
						{
							"notice": "Cannot mint over a token that already exists."
						}
					],
					"TransferCallerNotOwnerNorApproved()": [
						{
							"notice": "The caller must own the token or be an approved operator."
						}
					],
					"TransferFromIncorrectOwner()": [
						{
							"notice": "The token must be owned by `from`."
						}
					],
					"TransferToNonERC721ReceiverImplementer()": [
						{
							"notice": "Cannot safely transfer to a contract that does not implement the ERC721Receiver interface."
						}
					],
					"TransferToZeroAddress()": [
						{
							"notice": "Cannot transfer to the zero address."
						}
					],
					"URIQueryForNonexistentToken()": [
						{
							"notice": "The token does not exist."
						}
					]
				},
				"kind": "user",
				"methods": {},
				"version": 1
			}
		}
	}
}