{
	"data": {
		"bytecode": {
			"linkReferences": {},
			"object": "60a0604052348015600e575f80fd5b506080516101de6100265f395f60d701526101de5ff3fe608060405234801561000f575f80fd5b506004361061003f575f3560e01c80630900f01014610043578063a87d942c14610058578063d09de08a1461006c575b5f80fd5b610056610051366004610130565b610074565b005b5f5460405190815260200160405180910390f35b6100566100a7565b61007c6100bf565b6100a4817fc9f6ead2bbe8230e30f7cb88f9886a9298621e2a962ffe313c3ae99d6865203955565b50565b60015f808282546100b8919061016a565b9091555050565b3373ffffffffffffffffffffffffffffffffffffffff7f0000000000000000000000000000000000000000000000000000000000000000161461012e576040517f7bfa4b9f00000000000000000000000000000000000000000000000000000000815260040160405180910390fd5b565b5f60208284031215610140575f80fd5b813573ffffffffffffffffffffffffffffffffffffffff81168114610163575f80fd5b9392505050565b808201808211156101a2577f4e487b71000000000000000000000000000000000000000000000000000000005f52601160045260245ffd5b9291505056fea2646970667358221220501f31377bd08938c14ee520adef63d2e2383071fdc0d9e39b8799e4fb57a4c464736f6c63430008190033",
			"opcodes": "PUSH1 0xA0 PUSH1 0x40 MSTORE CALLVALUE DUP1 ISZERO PUSH1 0xE JUMPI PUSH0 DUP1 REVERT JUMPDEST POP PUSH1 0x80 MLOAD PUSH2 0x1DE PUSH2 0x26 PUSH0 CODECOPY PUSH0 PUSH1 0xD7 ADD MSTORE PUSH2 0x1DE PUSH0 RETURN INVALID PUSH1 0x80 PUSH1 0x40 MSTORE CALLVALUE DUP1 ISZERO PUSH2 0xF JUMPI PUSH0 DUP1 REVERT JUMPDEST POP PUSH1 0x4 CALLDATASIZE LT PUSH2 0x3F JUMPI PUSH0 CALLDATALOAD PUSH1 0xE0 SHR DUP1 PUSH4 0x900F010 EQ PUSH2 0x43 JUMPI DUP1 PUSH4 0xA87D942C EQ PUSH2 0x58 JUMPI DUP1 PUSH4 0xD09DE08A EQ PUSH2 0x6C JUMPI JUMPDEST PUSH0 DUP1 REVERT JUMPDEST PUSH2 0x56 PUSH2 0x51 CALLDATASIZE PUSH1 0x4 PUSH2 0x130 JUMP JUMPDEST PUSH2 0x74 JUMP JUMPDEST STOP JUMPDEST PUSH0 SLOAD PUSH1 0x40 MLOAD SWAP1 DUP2 MSTORE PUSH1 0x20 ADD PUSH1 0x40 MLOAD DUP1 SWAP2 SUB SWAP1 RETURN JUMPDEST PUSH2 0x56 PUSH2 0xA7 JUMP JUMPDEST PUSH2 0x7C PUSH2 0xBF JUMP JUMPDEST PUSH2 0xA4 DUP2 PUSH32 0xC9F6EAD2BBE8230E30F7CB88F9886A9298621E2A962FFE313C3AE99D68652039 SSTORE JUMP JUMPDEST POP JUMP JUMPDEST PUSH1 0x1 PUSH0 DUP1 DUP3 DUP3 SLOAD PUSH2 0xB8 SWAP2 SWAP1 PUSH2 0x16A JUMP JUMPDEST SWAP1 SWAP2 SSTORE POP POP JUMP JUMPDEST CALLER PUSH20 0xFFFFFFFFFFFFFFFFFFFFFFFFFFFFFFFFFFFFFFFF PUSH32 0x0 AND EQ PUSH2 0x12E JUMPI PUSH1 0x40 MLOAD PUSH32 0x7BFA4B9F00000000000000000000000000000000000000000000000000000000 DUP2 MSTORE PUSH1 0x4 ADD PUSH1 0x40 MLOAD DUP1 SWAP2 SUB SWAP1 REVERT JUMPDEST JUMP JUMPDEST PUSH0 PUSH1 0x20 DUP3 DUP5 SUB SLT ISZERO PUSH2 0x140 JUMPI PUSH0 DUP1 REVERT JUMPDEST DUP2 CALLDATALOAD PUSH20 0xFFFFFFFFFFFFFFFFFFFFFFFFFFFFFFFFFFFFFFFF DUP2 AND DUP2 EQ PUSH2 0x163 JUMPI PUSH0 DUP1 REVERT JUMPDEST SWAP4 SWAP3 POP POP POP JUMP JUMPDEST DUP1 DUP3 ADD DUP1 DUP3 GT ISZERO PUSH2 0x1A2 JUMPI PUSH32 0x4E487B7100000000000000000000000000000000000000000000000000000000 PUSH0 MSTORE PUSH1 0x11 PUSH1 0x4 MSTORE PUSH1 0x24 PUSH0 REVERT JUMPDEST SWAP3 SWAP2 POP POP JUMP INVALID LOG2 PUSH5 0x6970667358 0x22 SLT KECCAK256 POP 0x1F BALANCE CALLDATACOPY PUSH28 0xD08938C14EE520ADEF63D2E2383071FDC0D9E39B8799E4FB57A4C464 PUSH20 0x6F6C634300081900330000000000000000000000 "
		},
		"gasEstimates": {
			"creation": {
				"codeDepositCost": "95600",
				"executionCost": "infinite",
				"totalCost": "infinite"
			},
			"external": {
				"getCount()": "2266",
				"increment()": "24464",
				"upgrade(address)": "infinite"
			},
			"internal": {
				"_checkAdmin()": "infinite",
				"_setImplementation(address)": "infinite"
			}
		},
		"methodIdentifiers": {
			"getCount()": "a87d942c",
			"increment()": "d09de08a",
			"upgrade(address)": "0900f010"
		}
	},
	"abi": [
		{
			"inputs": [],
			"name": "NotAdmin",
			"type": "error"
		},
		{
			"inputs": [],
			"name": "getCount",
			"outputs": [
				{
					"internalType": "uint256",
					"name": "",
					"type": "uint256"
				}
			],
			"stateMutability": "view",
			"type": "function"
		},
		{
			"inputs": [],
			"name": "increment",
			"outputs": [],
			"stateMutability": "nonpayable",
			"type": "function"
		},
		{
			"inputs": [
				{
					"internalType": "address",
					"name": "newImplementation",
					"type": "address"
				}
			],
			"name": "upgrade",
			"outputs": [],
			"stateMutability": "nonpayable",
			"type": "function"
		}
	]
}