{
	"data": {
		"bytecode": {
			"linkReferences": {},
			"object": "60a0604052348015600e575f80fd5b50604051610315380380610315833981016040819052602b91607f565b6001600160a01b038116608052605f827fdf0301707cd2eac22558a676ee6d7958362cf6a2c87f850f5db407cdcc2b4db355565b505060ab565b80516001600160a01b0381168114607a575f80fd5b919050565b5f8060408385031215608f575f80fd5b6096836065565b915060a2602084016065565b90509250929050565b60805161024c6100c95f395f818160f80152610183015261024c5ff3fe608060405260043610610037575f3560e01c80630900f01014610070578063aaf10f421461008f578063f851a440146100e75761003e565b3661003e57005b61006e6100697fdf0301707cd2eac22558a676ee6d7958362cf6a2c87f850f5db407cdcc2b4db35490565b61011a565b005b34801561007b575f80fd5b5061006e61008a3660046101dc565b610138565b34801561009a575f80fd5b507fdf0301707cd2eac22558a676ee6d7958362cf6a2c87f850f5db407cdcc2b4db3545b60405173ffffffffffffffffffffffffffffffffffffffff909116815260200160405180910390f35b3480156100f2575f80fd5b506100be7f000000000000000000000000000000000000000000000000000000000000000081565b365f80375f80365f845af43d5f803e808015610134573d5ff35b3d5ffd5b61014061016b565b610168817fdf0301707cd2eac22558a676ee6d7958362cf6a2c87f850f5db407cdcc2b4db355565b50565b3373ffffffffffffffffffffffffffffffffffffffff7f000000000000000000000000000000000000000000000000000000000000000016146101da576040517f7bfa4b9f00000000000000000000000000000000000000000000000000000000815260040160405180910390fd5b565b5f602082840312156101ec575f80fd5b813573ffffffffffffffffffffffffffffffffffffffff8116811461020f575f80fd5b939250505056fea26469706673582212209ec2029507fa62ee7a616a61a65462f61f1f5a8499513fe58722cd8cb9a54f7364736f6c63430008190033",
			"opcodes": "PUSH1 0xA0 PUSH1 0x40 MSTORE CALLVALUE DUP1 ISZERO PUSH1 0xE JUMPI PUSH0 DUP1 REVERT JUMPDEST POP PUSH1 0x40 MLOAD PUSH2 0x315 CODESIZE SUB DUP1 PUSH2 0x315 DUP4 CODECOPY DUP2 ADD PUSH1 0x40 DUP2 SWAP1 MSTORE PUSH1 0x2B SWAP2 PUSH1 0x7F JUMP JUMPDEST PUSH1 0x1 PUSH1 0x1 PUSH1 0xA0 SHL SUB DUP2 AND PUSH1 0x80 MSTORE PUSH1 0x5F DUP3 PUSH32 0xDF0301707CD2EAC22558A676EE6D7958362CF6A2C87F850F5DB407CDCC2B4DB3 SSTORE JUMP JUMPDEST POP POP PUSH1 0xAB JUMP JUMPDEST DUP1 MLOAD PUSH1 0x1 PUSH1 0x1 PUSH1 0xA0 SHL SUB DUP2 AND DUP2 EQ PUSH1 0x7A JUMPI PUSH0 DUP1 REVERT JUMPDEST SWAP2 SWAP1 POP JUMP JUMPDEST PUSH0 DUP1 PUSH1 0x40 DUP4 DUP6 SUB SLT ISZERO PUSH1 0x8F JUMPI PUSH0 DUP1 REVERT JUMPDEST PUSH1 0x96 DUP4 PUSH1 0x65 JUMP JUMPDEST SWAP2 POP PUSH1 0xA2 PUSH1 0x20 DUP5 ADD PUSH1 0x65 JUMP JUMPDEST SWAP1 POP SWAP3 POP SWAP3 SWAP1 POP JUMP JUMPDEST PUSH1 0x80 MLOAD PUSH2 0x24C PUSH2 0xC9 PUSH0 CODECOPY PUSH0 DUP2 DUP2 PUSH1 0xF8 ADD MSTORE PUSH2 0x183 ADD MSTORE PUSH2 0x24C PUSH0 RETURN INVALID PUSH1 0x80 PUSH1 0x40 MSTORE PUSH1 0x4 CALLDATASIZE LT PUSH2 0x37 JUMPI PUSH0 CALLDATALOAD PUSH1 0xE0 SHR DUP1 PUSH4 0x900F010 EQ PUSH2 0x70 JUMPI DUP1 PUSH4 0xAAF10F42 EQ PUSH2 0x8F JUMPI DUP1 PUSH4 0xF851A440 EQ PUSH2 0xE7 JUMPI PUSH2 0x3E JUMP JUMPDEST CALLDATASIZE PUSH2 0x3E JUMPI STOP JUMPDEST PUSH2 0x6E PUSH2 0x69 PUSH32 0xDF0301707CD2EAC22558A676EE6D7958362CF6A2C87F850F5DB407CDCC2B4DB3 SLOAD SWAP1 JUMP JUMPDEST PUSH2 0x11A JUMP JUMPDEST STOP JUMPDEST CALLVALUE DUP1 ISZERO PUSH2 0x7B JUMPI PUSH0 DUP1 REVERT JUMPDEST POP PUSH2 0x6E PUSH2 0x8A CALLDATASIZE PUSH1 0x4 PUSH2 0x1DC JUMP JUMPDEST PUSH2 0x138 JUMP JUMPDEST CALLVALUE DUP1 ISZERO PUSH2 0x9A JUMPI PUSH0 DUP1 REVERT JUMPDEST POP PUSH32 0xDF0301707CD2EAC22558A676EE6D7958362CF6A2C87F850F5DB407CDCC2B4DB3 SLOAD JUMPDEST PUSH1 0x40 MLOAD PUSH20 0xFFFFFFFFFFFFFFFFFFFFFFFFFFFFFFFFFFFFFFFF SWAP1 SWAP2 AND DUP2 MSTORE PUSH1 0x20 ADD PUSH1 0x40 MLOAD DUP1 SWAP2 SUB SWAP1 RETURN JUMPDEST CALLVALUE DUP1 ISZERO PUSH2 0xF2 JUMPI PUSH0 DUP1 REVERT JUMPDEST POP PUSH2 0xBE PUSH32 0x0 DUP2 JUMP JUMPDEST CALLDATASIZE PUSH0 DUP1 CALLDATACOPY PUSH0 DUP1 CALLDATASIZE PUSH0 DUP5 GAS DELEGATECALL RETURNDATASIZE PUSH0 DUP1 RETURNDATACOPY DUP1 DUP1 ISZERO PUSH2 0x134 JUMPI RETURNDATASIZE PUSH0 RETURN JUMPDEST RETURNDATASIZE PUSH0 REVERT JUMPDEST PUSH2 0x140 PUSH2 0x16B JUMP JUMPDEST PUSH2 0x168 DUP2 PUSH32 0xDF0301707CD2EAC22558A676EE6D7958362CF6A2C87F850F5DB407CDCC2B4DB3 SSTORE JUMP JUMPDEST POP JUMP JUMPDEST CALLER PUSH20 0xFFFFFFFFFFFFFFFFFFFFFFFFFFFFFFFFFFFFFFFF PUSH32 0x0 AND EQ PUSH2 0x1DA JUMPI PUSH1 0x40 MLOAD PUSH32 0x7BFA4B9F00000000000000000000000000000000000000000000000000000000 DUP2 MSTORE PUSH1 0x4 ADD PUSH1 0x40 MLOAD DUP1 SWAP2 SUB SWAP1 REVERT JUMPDEST JUMP JUMPDEST PUSH0 PUSH1 0x20 DUP3 DUP5 SUB SLT ISZERO PUSH2 0x1EC JUMPI PUSH0 DUP1 REVERT JUMPDEST DUP2 CALLDATALOAD PUSH20 0xFFFFFFFFFFFFFFFFFFFFFFFFFFFFFFFFFFFFFFFF DUP2 AND DUP2 EQ PUSH2 0x20F JUMPI PUSH0 DUP1 REVERT JUMPDEST SWAP4 SWAP3 POP POP POP JUMP INVALID LOG2 PUSH5 0x6970667358 0x22 SLT KECCAK256 SWAP15 0xC2 MUL SWAP6 SMOD STATICCALL PUSH3 0xEE7A61 PUSH11 0x61A65462F61F1F5A849951 EXTCODEHASH 0xE5 DUP8 0x22 0xCD DUP13 0xB9 0xA5 0x4F PUSH20 0x64736F6C63430008190033000000000000000000 "
		},
		"gasEstimates": {
			"creation": {
				"codeDepositCost": "117600",
				"executionCost": "infinite",
				"totalCost": "infinite"
			},
			"external": {
				"": "infinite",
				"admin()": "infinite",
				"getImplementation()": "2277",
				"upgrade(address)": "infinite"
			},
			"internal": {
				"_checkAdmin()": "infinite",
				"_delegate(address)": "infinite",
				"_setImplementation(address)": "infinite"
			}
		},
		"methodIdentifiers": {
			"admin()": "f851a440",
			"getImplementation()": "aaf10f42",
			"upgrade(address)": "0900f010"
		}
	},
	"abi": [
		{
			"inputs": [
				{
					"internalType": "address",
					"name": "_logic",
					"type": "address"
				},
				{
					"internalType": "address",
					"name": "_admin",
					"type": "address"
				}
			],
			"stateMutability": "nonpayable",
			"type": "constructor"
		},
		{
			"inputs": [],
			"name": "NotAdmin",
			"type": "error"
		},
		{
			"stateMutability": "payable",
			"type": "fallback"
		},
		{
			"inputs": [],
			"name": "admin",
			"outputs": [
				{
					"internalType": "address",
					"name": "",
					"type": "address"
				}
			],
			"stateMutability": "view",
			"type": "function"
		},
		{
			"inputs": [],
			"name": "getImplementation",
			"outputs": [
				{
					"internalType": "address",
					"name": "impl",
					"type": "address"
				}
			],
			"stateMutability": "view",
			"type": "function"
		},
		{
			"inputs": [
				{
					"internalType": "address",
					"name": "newImplementation",
					"type": "address"
				}
			],
			"name": "upgrade",
			"outputs": [],
			"stateMutability": "nonpayable",
			"type": "function"
		},
		{
			"stateMutability": "payable",
			"type": "receive"
		}
	]
}