{
	"data": {
		"bytecode": {
			"linkReferences": {},
			"object": "6080604052348015600e575f80fd5b5060405161018a38038061018a833981016040819052602b916057565b6052817fc9f6ead2bbe8230e30f7cb88f9886a9298621e2a962ffe313c3ae99d6865203955565b506082565b5f602082840312156066575f80fd5b81516001600160a01b0381168114607b575f80fd5b9392505050565b60fc8061008e5f395ff3fe608060405260043610601e575f3560e01c8063aaf10f42146053576024565b36602457005b6051604d7fc9f6ead2bbe8230e30f7cb88f9886a9298621e2a962ffe313c3ae99d686520395490565b60a9565b005b348015605d575f80fd5b507fc9f6ead2bbe8230e30f7cb88f9886a9298621e2a962ffe313c3ae99d686520395460405173ffffffffffffffffffffffffffffffffffffffff909116815260200160405180910390f35b365f80375f80365f845af43d5f803e80801560c2573d5ff35b3d5ffdfea2646970667358221220d968e351cd924ee807ec71c98cae3ce7cf7cc4871c52a00e29c121b696a8753e64736f6c63430008190033",
			"opcodes": "PUSH1 0x80 PUSH1 0x40 MSTORE CALLVALUE DUP1 ISZERO PUSH1 0xE JUMPI PUSH0 DUP1 REVERT JUMPDEST POP PUSH1 0x40 MLOAD PUSH2 0x18A CODESIZE SUB DUP1 PUSH2 0x18A DUP4 CODECOPY DUP2 ADD PUSH1 0x40 DUP2 SWAP1 MSTORE PUSH1 0x2B SWAP2 PUSH1 0x57 JUMP JUMPDEST PUSH1 0x52 DUP2 PUSH32 0xC9F6EAD2BBE8230E30F7CB88F9886A9298621E2A962FFE313C3AE99D68652039 SSTORE JUMP JUMPDEST POP PUSH1 0x82 JUMP JUMPDEST PUSH0 PUSH1 0x20 DUP3 DUP5 SUB SLT ISZERO PUSH1 0x66 JUMPI PUSH0 DUP1 REVERT JUMPDEST DUP2 MLOAD PUSH1 0x1 PUSH1 0x1 PUSH1 0xA0 SHL SUB DUP2 AND DUP2 EQ PUSH1 0x7B JUMPI PUSH0 DUP1 REVERT JUMPDEST SWAP4 SWAP3 POP POP POP JUMP JUMPDEST PUSH1 0xFC DUP1 PUSH2 0x8E PUSH0 CODECOPY PUSH0 RETURN INVALID PUSH1 0x80 PUSH1 0x40 MSTORE PUSH1 0x4 CALLDATASIZE LT PUSH1 0x1E JUMPI PUSH0 CALLDATALOAD PUSH1 0xE0 SHR DUP1 PUSH4 0xAAF10F42 EQ PUSH1 0x53 JUMPI PUSH1 0x24 JUMP JUMPDEST CALLDATASIZE PUSH1 0x24 JUMPI STOP JUMPDEST PUSH1 0x51 PUSH1 0x4D PUSH32 0xC9F6EAD2BBE8230E30F7CB88F9886A9298621E2A962FFE313C3AE99D68652039 SLOAD SWAP1 JUMP JUMPDEST PUSH1 0xA9 JUMP JUMPDEST STOP JUMPDEST CALLVALUE DUP1 ISZERO PUSH1 0x5D JUMPI PUSH0 DUP1 REVERT JUMPDEST POP PUSH32 0xC9F6EAD2BBE8230E30F7CB88F9886A9298621E2A962FFE313C3AE99D68652039 SLOAD PUSH1 0x40 MLOAD PUSH20 0xFFFFFFFFFFFFFFFFFFFFFFFFFFFFFFFFFFFFFFFF SWAP1 SWAP2 AND DUP2 MSTORE PUSH1 0x20 ADD PUSH1 0x40 MLOAD DUP1 SWAP2 SUB SWAP1 RETURN JUMPDEST CALLDATASIZE PUSH0 DUP1 CALLDATACOPY PUSH0 DUP1 CALLDATASIZE PUSH0 DUP5 GAS DELEGATECALL RETURNDATASIZE PUSH0 DUP1 RETURNDATACOPY DUP1 DUP1 ISZERO PUSH1 0xC2 JUMPI RETURNDATASIZE PUSH0 RETURN JUMPDEST RETURNDATASIZE PUSH0 REVERT INVALID LOG2 PUSH5 0x6970667358 0x22 SLT KECCAK256 0xD9 PUSH9 0xE351CD924EE807EC71 0xC9 DUP13 0xAE EXTCODECOPY 0xE7 0xCF PUSH29 0xC4871C52A00E29C121B696A8753E64736F6C6343000819003300000000 "
		},
		"gasEstimates": {
			"creation": {
				"codeDepositCost": "50400",
				"executionCost": "infinite",
				"totalCost": "infinite"
			},
			"external": {
				"": "infinite",
				"getImplementation()": "2254"
			},
			"internal": {
				"_delegate(address)": "infinite",
				"_setImplementation(address)": "infinite"
			}
		},
		"methodIdentifiers": {
			"getImplementation()": "aaf10f42"
		}
	},
	"abi": [
		{
			"inputs": [
				{
					"internalType": "address",
					"name": "_logic",
					"type": "address"
				}
			],
			"stateMutability": "nonpayable",
			"type": "constructor"
		},
		{
			"stateMutability": "payable",
			"type": "fallback"
		},
		{
			"inputs": [],
			"name": "getImplementation",
			"outputs": [
				{
					"internalType": "address",
					"name": "impl",
					"type": "address"
				}
			],
			"stateMutability": "view",
			"type": "function"
		},
		{
			"stateMutability": "payable",
			"type": "receive"
		}
	]
}