{
	"contracts/ContractJ/ContractJV1.sol": {
		"ContractJV1": {
			"abi": [
				{
					"inputs": [
						{
							"internalType": "uint256",
							"name": "time",
							"type": "uint256"
						}
					],
					"name": "addTimestamp",
					"outputs": [
						{
							"internalType": "uint256",
							"name": "",
							"type": "uint256"
						}
					],
					"stateMutability": "view",
					"type": "function"
				}
			],
			"devdoc": {
				"kind": "dev",
				"methods": {},
				"version": 1
			},
			"evm": {
				"assembly": "    /* \"contracts/ContractJ/ContractJV1.sol\":63:264  contract ContractJV1 {... */\n  mstore(0x40, 0x80)\n  callvalue\n  dup1\n  iszero\n  tag_1\n  jumpi\n  0x00\n  dup1\n  revert\ntag_1:\n  pop\n  dataSize(sub_0)\n  dup1\n  dataOffset(sub_0)\n  0x00\n  codecopy\n  0x00\n  return\nstop\n\nsub_0: assembly {\n        /* \"contracts/ContractJ/ContractJV1.sol\":63:264  contract ContractJV1 {... */\n      mstore(0x40, 0x80)\n      callvalue\n      dup1\n      iszero\n      tag_1\n      jumpi\n      0x00\n      dup1\n      revert\n    tag_1:\n      pop\n      jumpi(tag_2, lt(calldatasize, 0x04))\n      shr(0xe0, calldataload(0x00))\n      dup1\n      0x1bb90003\n      eq\n      tag_3\n      jumpi\n    tag_2:\n      0x00\n      dup1\n      revert\n        /* \"contracts/ContractJ/ContractJV1.sol\":91:261  function addTimestamp(uint256 time) public view returns (uint256) {... */\n    tag_3:\n      tag_4\n      tag_5\n      calldatasize\n      0x04\n      tag_6\n      jump\t// in\n    tag_5:\n      tag_7\n      jump\t// in\n    tag_4:\n      mload(0x40)\n        /* \"#utility.yul\":345:370   */\n      swap1\n      dup2\n      mstore\n        /* \"#utility.yul\":333:335   */\n      0x20\n        /* \"#utility.yul\":318:336   */\n      add\n        /* \"contracts/ContractJ/ContractJV1.sol\":91:261  function addTimestamp(uint256 time) public view returns (uint256) {... */\n      mload(0x40)\n      dup1\n      swap2\n      sub\n      swap1\n      return\n    tag_7:\n        /* \"contracts/ContractJ/ContractJV1.sol\":148:155  uint256 */\n      0x00\n        /* \"contracts/ContractJ/ContractJV1.sol\":195:210  block.timestamp */\n      timestamp\n        /* \"contracts/ContractJ/ContractJV1.sol\":230:253  time + currentTimestamp */\n      tag_11\n        /* \"contracts/ContractJ/ContractJV1.sol\":195:210  block.timestamp */\n      dup2\n        /* \"contracts/ContractJ/ContractJV1.sol\":230:234  time */\n      dup5\n        /* \"contracts/ContractJ/ContractJV1.sol\":230:253  time + currentTimestamp */\n      tag_12\n      jump\t// in\n    tag_11:\n        /* \"contracts/ContractJ/ContractJV1.sol\":223:253  return time + currentTimestamp */\n      swap4\n        /* \"contracts/ContractJ/ContractJV1.sol\":91:261  function addTimestamp(uint256 time) public view returns (uint256) {... */\n      swap3\n      pop\n      pop\n      pop\n      jump\t// out\n        /* \"#utility.yul\":14:194   */\n    tag_6:\n        /* \"#utility.yul\":73:79   */\n      0x00\n        /* \"#utility.yul\":126:128   */\n      0x20\n        /* \"#utility.yul\":114:123   */\n      dup3\n        /* \"#utility.yul\":105:112   */\n      dup5\n        /* \"#utility.yul\":101:124   */\n      sub\n        /* \"#utility.yul\":97:129   */\n      slt\n        /* \"#utility.yul\":94:146   */\n      iszero\n      tag_15\n      jumpi\n        /* \"#utility.yul\":142:143   */\n      0x00\n        /* \"#utility.yul\":139:140   */\n      dup1\n        /* \"#utility.yul\":132:144   */\n      revert\n        /* \"#utility.yul\":94:146   */\n    tag_15:\n      pop\n        /* \"#utility.yul\":165:188   */\n      calldataload\n      swap2\n        /* \"#utility.yul\":14:194   */\n      swap1\n      pop\n      jump\t// out\n        /* \"#utility.yul\":381:660   */\n    tag_12:\n        /* \"#utility.yul\":446:455   */\n      dup1\n      dup3\n      add\n        /* \"#utility.yul\":467:477   */\n      dup1\n      dup3\n      gt\n        /* \"#utility.yul\":464:654   */\n      iszero\n      tag_18\n      jumpi\n        /* \"#utility.yul\":510:587   */\n      0x4e487b7100000000000000000000000000000000000000000000000000000000\n        /* \"#utility.yul\":507:508   */\n      0x00\n        /* \"#utility.yul\":500:588   */\n      mstore\n        /* \"#utility.yul\":611:615   */\n      0x11\n        /* \"#utility.yul\":608:609   */\n      0x04\n        /* \"#utility.yul\":601:616   */\n      mstore\n        /* \"#utility.yul\":639:643   */\n      0x24\n        /* \"#utility.yul\":636:637   */\n      0x00\n        /* \"#utility.yul\":629:644   */\n      revert\n        /* \"#utility.yul\":464:654   */\n    tag_18:\n        /* \"#utility.yul\":381:660   */\n      swap3\n      swap2\n      pop\n      pop\n      jump\t// out\n\n    auxdata: 0xa264697066735822122086b06845bc6c75a00666feb974aafe6bf5247f3d3a711a1b8501ed79409d1d0164736f6c63430008190033\n}\n",
				"bytecode": {
					"linkReferences": {},
					"object": "6080604052348015600e575f80fd5b5060e58061001b5f395ff3fe6080604052348015600e575f80fd5b50600436106026575f3560e01c80631bb9000314602a575b5f80fd5b60396035366004605c565b604b565b60405190815260200160405180910390f35b5f42605581846072565b9392505050565b5f60208284031215606b575f80fd5b5035919050565b8082018082111560a9577f4e487b71000000000000000000000000000000000000000000000000000000005f52601160045260245ffd5b9291505056fea264697066735822122086b06845bc6c75a00666feb974aafe6bf5247f3d3a711a1b8501ed79409d1d0164736f6c63430008190033",
					"opcodes": "PUSH1 0x80 PUSH1 0x40 MSTORE CALLVALUE DUP1 ISZERO PUSH1 0xE JUMPI PUSH0 DUP1 REVERT JUMPDEST POP PUSH1 0xE5 DUP1 PUSH2 0x1B PUSH0 CODECOPY PUSH0 RETURN INVALID PUSH1 0x80 PUSH1 0x40 MSTORE CALLVALUE DUP1 ISZERO PUSH1 0xE JUMPI PUSH0 DUP1 REVERT JUMPDEST POP PUSH1 0x4 CALLDATASIZE LT PUSH1 0x26 JUMPI PUSH0 CALLDATALOAD PUSH1 0xE0 SHR DUP1 PUSH4 0x1BB90003 EQ PUSH1 0x2A JUMPI JUMPDEST PUSH0 DUP1 REVERT JUMPDEST PUSH1 0x39 PUSH1 0x35 CALLDATASIZE PUSH1 0x4 PUSH1 0x5C JUMP JUMPDEST PUSH1 0x4B JUMP JUMPDEST PUSH1 0x40 MLOAD SWAP1 DUP2 MSTORE PUSH1 0x20 ADD PUSH1 0x40 MLOAD DUP1 SWAP2 SUB SWAP1 RETURN JUMPDEST PUSH0 TIMESTAMP PUSH1 0x55 DUP2 DUP5 PUSH1 0x72 JUMP JUMPDEST SWAP4 SWAP3 POP POP POP JUMP JUMPDEST PUSH0 PUSH1 0x20 DUP3 DUP5 SUB SLT ISZERO PUSH1 0x6B JUMPI PUSH0 DUP1 REVERT JUMPDEST POP CALLDATALOAD SWAP2 SWAP1 POP JUMP JUMPDEST DUP1 DUP3 ADD DUP1 DUP3 GT ISZERO PUSH1 0xA9 JUMPI PUSH32 0x4E487B7100000000000000000000000000000000000000000000000000000000 PUSH0 MSTORE PUSH1 0x11 PUSH1 0x4 MSTORE PUSH1 0x24 PUSH0 REVERT JUMPDEST SWAP3 SWAP2 POP POP JUMP INVALID LOG2 PUSH5 0x6970667358 0x22 SLT KECCAK256 DUP7 0xB0 PUSH9 0x45BC6C75A00666FEB9 PUSH21 0xAAFE6BF5247F3D3A711A1B8501ED79409D1D016473 PUSH16 0x6C634300081900330000000000000000 "
				},
				"gasEstimates": {
					"creation": {
						"codeDepositCost": "45800",
						"executionCost": "97",
						"totalCost": "45897"
					},
					"external": {
						"addTimestamp(uint256)": "333"
					}
				},
				"methodIdentifiers": {
					"addTimestamp(uint256)": "1bb90003"
				}
			},
			"storageLayout": {
				"storage": [],
				"types": null
			},
			"userdoc": {
				"kind": "user",
				"methods": {},
				"version": 1
			}
		}
	}
}