{
	"contracts/ContractJ/ContractJV6.sol": {
		"ContractJV6": {
			"abi": [
				{
					"inputs": [],
					"name": "deposit",
					"outputs": [],
					"stateMutability": "payable",
					"type": "function"
				},
				{
					"inputs": [],
					"name": "withdraw",
					"outputs": [],
					"stateMutability": "nonpayable",
					"type": "function"
				}
			],
			"devdoc": {
				"kind": "dev",
				"methods": {},
				"version": 1
			},
			"evm": {
				"assembly": "    /* \"contracts/ContractJ/ContractJV6.sol\":63:484  contract ContractJV6 {... */\n  mstore(0x40, 0x80)\n  callvalue\n  dup1\n  iszero\n  tag_1\n  jumpi\n  0x00\n  dup1\n  revert\ntag_1:\n  pop\n  dataSize(sub_0)\n  dup1\n  dataOffset(sub_0)\n  0x00\n  codecopy\n  0x00\n  return\nstop\n\nsub_0: assembly {\n        /* \"contracts/ContractJ/ContractJV6.sol\":63:484  contract ContractJV6 {... */\n      mstore(0x40, 0x80)\n      jumpi(tag_1, lt(calldatasize, 0x04))\n      shr(0xe0, calldataload(0x00))\n      dup1\n      0x3ccfd60b\n      eq\n      tag_2\n      jumpi\n      dup1\n      0xd0e30db0\n      eq\n      tag_5\n      jumpi\n    tag_1:\n      0x00\n      dup1\n      revert\n        /* \"contracts/ContractJ/ContractJV6.sol\":384:481  function withdraw() public {... */\n    tag_2:\n      callvalue\n      dup1\n      iszero\n      tag_4\n      jumpi\n      0x00\n      dup1\n      revert\n    tag_4:\n      pop\n      tag_5\n      tag_6\n      jump\t// in\n    tag_5:\n      stop\n    tag_6:\n        /* \"contracts/ContractJ/ContractJV6.sol\":422:473  payable(msg.sender).transfer(address(this).balance) */\n      mload(0x40)\n        /* \"contracts/ContractJ/ContractJV6.sol\":430:440  msg.sender */\n      caller\n      swap1\n        /* \"contracts/ContractJ/ContractJV6.sol\":451:472  address(this).balance */\n      selfbalance\n        /* \"contracts/ContractJ/ContractJV6.sol\":422:473  payable(msg.sender).transfer(address(this).balance) */\n      dup1\n      iszero\n      0x08fc\n      mul\n      swap2\n      0x00\n      dup2\n      dup2\n      dup2\n        /* \"contracts/ContractJ/ContractJV6.sol\":451:472  address(this).balance */\n      dup6\n        /* \"contracts/ContractJ/ContractJV6.sol\":430:440  msg.sender */\n      dup9\n        /* \"contracts/ContractJ/ContractJV6.sol\":422:473  payable(msg.sender).transfer(address(this).balance) */\n      dup9\n      call\n      swap4\n      pop\n      pop\n      pop\n      pop\n      iszero\n      dup1\n      iszero\n      tag_11\n      jumpi\n      returndatasize\n      0x00\n      dup1\n      returndatacopy\n      revert(0x00, returndatasize)\n    tag_11:\n      pop\n        /* \"contracts/ContractJ/ContractJV6.sol\":384:481  function withdraw() public {... */\n      jump\t// out\n\n    auxdata: 0xa2646970667358221220f9b22eb0dbab08a74d6ca867b2c8116184787a0de566597ecba30c160ff39c8464736f6c63430008190033\n}\n",
				"bytecode": {
					"linkReferences": {},
					"object": "6080604052348015600e575f80fd5b50609d80601a5f395ff3fe6080604052600436106025575f3560e01c80633ccfd60b146029578063d0e30db014603a575b5f80fd5b3480156033575f80fd5b50603a603c565b005b60405133904780156108fc02915f818181858888f193505050501580156064573d5f803e3d5ffd5b5056fea2646970667358221220f9b22eb0dbab08a74d6ca867b2c8116184787a0de566597ecba30c160ff39c8464736f6c63430008190033",
					"opcodes": "PUSH1 0x80 PUSH1 0x40 MSTORE CALLVALUE DUP1 ISZERO PUSH1 0xE JUMPI PUSH0 DUP1 REVERT JUMPDEST POP PUSH1 0x9D DUP1 PUSH1 0x1A PUSH0 CODECOPY PUSH0 RETURN INVALID PUSH1 0x80 PUSH1 0x40 MSTORE PUSH1 0x4 CALLDATASIZE LT PUSH1 0x25 JUMPI PUSH0 CALLDATALOAD PUSH1 0xE0 SHR DUP1 PUSH4 0x3CCFD60B EQ PUSH1 0x29 JUMPI DUP1 PUSH4 0xD0E30DB0 EQ PUSH1 0x3A JUMPI JUMPDEST PUSH0 DUP1 REVERT JUMPDEST CALLVALUE DUP1 ISZERO PUSH1 0x33 JUMPI PUSH0 DUP1 REVERT JUMPDEST POP PUSH1 0x3A PUSH1 0x3C JUMP JUMPDEST STOP JUMPDEST PUSH1 0x40 MLOAD CALLER SWAP1 SELFBALANCE DUP1 ISZERO PUSH2 0x8FC MUL SWAP2 PUSH0 DUP2 DUP2 DUP2 DUP6 DUP9 DUP9 CALL SWAP4 POP POP POP POP ISZERO DUP1 ISZERO PUSH1 0x64 JUMPI RETURNDATASIZE PUSH0 DUP1 RETURNDATACOPY RETURNDATASIZE PUSH0 REVERT JUMPDEST POP JUMP INVALID LOG2 PUSH5 0x6970667358 0x22 SLT KECCAK256 0xF9 0xB2 0x2E 0xB0 0xDB 0xAB ADDMOD 0xA7 0x4D PUSH13 0xA867B2C8116184787A0DE56659 PUSH31 0xCBA30C160FF39C8464736F6C63430008190033000000000000000000000000 "
				},
				"gasEstimates": {
					"creation": {
						"codeDepositCost": "31400",
						"executionCost": "79",
						"totalCost": "31479"
					},
					"external": {
						"deposit()": "95",
						"withdraw()": "infinite"
					}
				},
				"methodIdentifiers": {
					"deposit()": "d0e30db0",
					"withdraw()": "3ccfd60b"
				}
			},
			"storageLayout": {
				"storage": [],
				"types": null
			},
			"userdoc": {
				"kind": "user",
				"methods": {},
				"version": 1
			}
		}
	}
}