{
	"data": {
		"bytecode": {
			"linkReferences": {},
			"object": "608060405260015f55600180553480156016575f80fd5b5060868060225f395ff3fe6080604052348015600e575f80fd5b50600436106030575f3560e01c8063306a23c71460345780636b4bccb2146049575b5f80fd5b5f545b60405190815260200160405180910390f35b600154603756fea264697066735822122004f7f4e293d9d04a164e0a8601cba5bb5a5864f0b9783dbc4ada4280a75c17b064736f6c63430008190033",
			"opcodes": "PUSH1 0x80 PUSH1 0x40 MSTORE PUSH1 0x1 PUSH0 SSTORE PUSH1 0x1 DUP1 SSTORE CALLVALUE DUP1 ISZERO PUSH1 0x16 JUMPI PUSH0 DUP1 REVERT JUMPDEST POP PUSH1 0x86 DUP1 PUSH1 0x22 PUSH0 CODECOPY PUSH0 RETURN INVALID PUSH1 0x80 PUSH1 0x40 MSTORE CALLVALUE DUP1 ISZERO PUSH1 0xE JUMPI PUSH0 DUP1 REVERT JUMPDEST POP PUSH1 0x4 CALLDATASIZE LT PUSH1 0x30 JUMPI PUSH0 CALLDATALOAD PUSH1 0xE0 SHR DUP1 PUSH4 0x306A23C7 EQ PUSH1 0x34 JUMPI DUP1 PUSH4 0x6B4BCCB2 EQ PUSH1 0x49 JUMPI JUMPDEST PUSH0 DUP1 REVERT JUMPDEST PUSH0 SLOAD JUMPDEST PUSH1 0x40 MLOAD SWAP1 DUP2 MSTORE PUSH1 0x20 ADD PUSH1 0x40 MLOAD DUP1 SWAP2 SUB SWAP1 RETURN JUMPDEST PUSH1 0x1 SLOAD PUSH1 0x37 JUMP INVALID LOG2 PUSH5 0x6970667358 0x22 SLT KECCAK256 DIV 0xF7 DELEGATECALL 0xE2 SWAP4 0xD9 0xD0 BLOBBASEFEE AND 0x4E EXP DUP7 ADD 0xCB 0xA5 0xBB GAS PC PUSH5 0xF0B9783DBC BLOBBASEFEE 0xDA TIMESTAMP DUP1 0xA7 TLOAD OR 0xB0 PUSH5 0x736F6C6343 STOP ADDMOD NOT STOP CALLER "
		},
		"gasEstimates": {
			"creation": {
				"codeDepositCost": "26800",
				"executionCost": "44290",
				"totalCost": "71090"
			},
			"external": {
				"getNum1()": "2245",
				"getNum2()": "2279"
			}
		},
		"methodIdentifiers": {
			"getNum1()": "306a23c7",
			"getNum2()": "6b4bccb2"
		}
	},
	"abi": [
		{
			"inputs": [],
			"name": "getNum1",
			"outputs": [
				{
					"internalType": "uint256",
					"name": "",
					"type": "uint256"
				}
			],
			"stateMutability": "view",
			"type": "function"
		},
		{
			"inputs": [],
			"name": "getNum2",
			"outputs": [
				{
					"internalType": "uint256",
					"name": "",
					"type": "uint256"
				}
			],
			"stateMutability": "view",
			"type": "function"
		}
	]
}