{
	"data": {
		"bytecode": {
			"linkReferences": {},
			"object": "60a060405260016080523480156013575f80fd5b5060805160a460285f395f604b015260a45ff3fe6080604052348015600e575f80fd5b50600436106030575f3560e01c8063306a23c71460345780636b4bccb2146049575b5f80fd5b60015b60405190815260200160405180910390f35b7f0000000000000000000000000000000000000000000000000000000000000000603756fea26469706673582212200c3c346f8d69a3fd4365479fb124b56a5f33f02c1d307251a601b8554357c16364736f6c63430008190033",
			"opcodes": "PUSH1 0xA0 PUSH1 0x40 MSTORE PUSH1 0x1 PUSH1 0x80 MSTORE CALLVALUE DUP1 ISZERO PUSH1 0x13 JUMPI PUSH0 DUP1 REVERT JUMPDEST POP PUSH1 0x80 MLOAD PUSH1 0xA4 PUSH1 0x28 PUSH0 CODECOPY PUSH0 PUSH1 0x4B ADD MSTORE PUSH1 0xA4 PUSH0 RETURN INVALID PUSH1 0x80 PUSH1 0x40 MSTORE CALLVALUE DUP1 ISZERO PUSH1 0xE JUMPI PUSH0 DUP1 REVERT JUMPDEST POP PUSH1 0x4 CALLDATASIZE LT PUSH1 0x30 JUMPI PUSH0 CALLDATALOAD PUSH1 0xE0 SHR DUP1 PUSH4 0x306A23C7 EQ PUSH1 0x34 JUMPI DUP1 PUSH4 0x6B4BCCB2 EQ PUSH1 0x49 JUMPI JUMPDEST PUSH0 DUP1 REVERT JUMPDEST PUSH1 0x1 JUMPDEST PUSH1 0x40 MLOAD SWAP1 DUP2 MSTORE PUSH1 0x20 ADD PUSH1 0x40 MLOAD DUP1 SWAP2 SUB SWAP1 RETURN JUMPDEST PUSH32 0x0 PUSH1 0x37 JUMP INVALID LOG2 PUSH5 0x6970667358 0x22 SLT KECCAK256 0xC EXTCODECOPY CALLVALUE PUSH16 0x8D69A3FD4365479FB124B56A5F33F02C SAR ADDRESS PUSH19 0x51A601B8554357C16364736F6C634300081900 CALLER "
		},
		"gasEstimates": {
			"creation": {
				"codeDepositCost": "32800",
				"executionCost": "infinite",
				"totalCost": "infinite"
			},
			"external": {
				"getNum1()": "146",
				"getNum2()": "infinite"
			}
		},
		"methodIdentifiers": {
			"getNum1()": "306a23c7",
			"getNum2()": "6b4bccb2"
		}
	},
	"abi": [
		{
			"inputs": [],
			"name": "getNum1",
			"outputs": [
				{
					"internalType": "uint256",
					"name": "",
					"type": "uint256"
				}
			],
			"stateMutability": "pure",
			"type": "function"
		},
		{
			"inputs": [],
			"name": "getNum2",
			"outputs": [
				{
					"internalType": "uint256",
					"name": "",
					"type": "uint256"
				}
			],
			"stateMutability": "pure",
			"type": "function"
		}
	]
}