{
	"contracts/ContractD/ContractDV5.sol": {
		"ContractDV5": {
			"abi": [
				{
					"inputs": [],
					"name": "getBool1",
					"outputs": [
						{
							"internalType": "bool",
							"name": "",
							"type": "bool"
						}
					],
					"stateMutability": "view",
					"type": "function"
				},
				{
					"inputs": [],
					"name": "getBool2",
					"outputs": [
						{
							"internalType": "bool",
							"name": "",
							"type": "bool"
						}
					],
					"stateMutability": "view",
					"type": "function"
				},
				{
					"inputs": [],
					"name": "getHash1",
					"outputs": [
						{
							"internalType": "bytes32",
							"name": "",
							"type": "bytes32"
						}
					],
					"stateMutability": "view",
					"type": "function"
				},
				{
					"inputs": [],
					"name": "getHash2",
					"outputs": [
						{
							"internalType": "bytes32",
							"name": "",
							"type": "bytes32"
						}
					],
					"stateMutability": "view",
					"type": "function"
				},
				{
					"inputs": [],
					"name": "getHash3",
					"outputs": [
						{
							"internalType": "bytes4",
							"name": "",
							"type": "bytes4"
						}
					],
					"stateMutability": "view",
					"type": "function"
				},
				{
					"inputs": [],
					"name": "getHash4",
					"outputs": [
						{
							"internalType": "bytes1",
							"name": "",
							"type": "bytes1"
						}
					],
					"stateMutability": "view",
					"type": "function"
				},
				{
					"inputs": [],
					"name": "getHash5",
					"outputs": [
						{
							"internalType": "bytes16",
							"name": "",
							"type": "bytes16"
						}
					],
					"stateMutability": "view",
					"type": "function"
				},
				{
					"inputs": [],
					"name": "getNum1",
					"outputs": [
						{
							"internalType": "uint256",
							"name": "",
							"type": "uint256"
						}
					],
					"stateMutability": "view",
					"type": "function"
				},
				{
					"inputs": [],
					"name": "getNum2",
					"outputs": [
						{
							"internalType": "uint256",
							"name": "",
							"type": "uint256"
						}
					],
					"stateMutability": "view",
					"type": "function"
				},
				{
					"inputs": [],
					"name": "getNum3",
					"outputs": [
						{
							"internalType": "uint256",
							"name": "",
							"type": "uint256"
						}
					],
					"stateMutability": "view",
					"type": "function"
				},
				{
					"inputs": [],
					"name": "getNum4",
					"outputs": [
						{
							"internalType": "uint256",
							"name": "",
							"type": "uint256"
						}
					],
					"stateMutability": "view",
					"type": "function"
				},
				{
					"inputs": [],
					"name": "getNum5",
					"outputs": [
						{
							"internalType": "uint256",
							"name": "",
							"type": "uint256"
						}
					],
					"stateMutability": "view",
					"type": "function"
				},
				{
					"inputs": [],
					"name": "getNum6",
					"outputs": [
						{
							"internalType": "uint256",
							"name": "",
							"type": "uint256"
						}
					],
					"stateMutability": "view",
					"type": "function"
				},
				{
					"inputs": [],
					"name": "getStr1",
					"outputs": [
						{
							"internalType": "string",
							"name": "",
							"type": "string"
						}
					],
					"stateMutability": "view",
					"type": "function"
				},
				{
					"inputs": [],
					"name": "getStr2",
					"outputs": [
						{
							"internalType": "string",
							"name": "",
							"type": "string"
						}
					],
					"stateMutability": "view",
					"type": "function"
				}
			],
			"devdoc": {
				"kind": "dev",
				"methods": {},
				"version": 1
			},
			"evm": {
				"assembly": "    /* \"contracts/ContractD/ContractDV5.sol\":63:1828  contract ContractDV5 {... */\n  mstore(0x40, 0x80)\n  callvalue\n  dup1\n  iszero\n  tag_1\n  jumpi\n  0x00\n  dup1\n  revert\ntag_1:\n  pop\n  dataSize(sub_0)\n  dup1\n  dataOffset(sub_0)\n  0x00\n  codecopy\n  0x00\n  return\nstop\n\nsub_0: assembly {\n        /* \"contracts/ContractD/ContractDV5.sol\":63:1828  contract ContractDV5 {... */\n      mstore(0x40, 0x80)\n      callvalue\n      dup1\n      iszero\n      tag_1\n      jumpi\n      0x00\n      dup1\n      revert\n    tag_1:\n      pop\n      jumpi(tag_2, lt(calldatasize, 0x04))\n      shr(0xe0, calldataload(0x00))\n      dup1\n      0x44ad2fad\n      gt\n      tag_18\n      jumpi\n      dup1\n      0x8a6f5402\n      gt\n      tag_19\n      jumpi\n      dup1\n      0x8a6f5402\n      eq\n      tag_14\n      jumpi\n      dup1\n      0x9620b05d\n      eq\n      tag_15\n      jumpi\n      dup1\n      0xac805759\n      eq\n      tag_16\n      jumpi\n      dup1\n      0xcab84dfe\n      eq\n      tag_17\n      jumpi\n      0x00\n      dup1\n      revert\n    tag_19:\n      dup1\n      0x44ad2fad\n      eq\n      tag_10\n      jumpi\n      dup1\n      0x48378eea\n      eq\n      tag_11\n      jumpi\n      dup1\n      0x6b4bccb2\n      eq\n      tag_12\n      jumpi\n      dup1\n      0x830f6ae7\n      eq\n      tag_13\n      jumpi\n      0x00\n      dup1\n      revert\n    tag_18:\n      dup1\n      0x297b657a\n      gt\n      tag_20\n      jumpi\n      dup1\n      0x297b657a\n      eq\n      tag_6\n      jumpi\n      dup1\n      0x306a23c7\n      eq\n      tag_7\n      jumpi\n      dup1\n      0x33c0f099\n      eq\n      tag_8\n      jumpi\n      dup1\n      0x3b4de541\n      eq\n      tag_9\n      jumpi\n      0x00\n      dup1\n      revert\n    tag_20:\n      dup1\n      0x11c171ba\n      eq\n      tag_3\n      jumpi\n      dup1\n      0x1eaeb926\n      eq\n      tag_4\n      jumpi\n      dup1\n      0x2325a1fd\n      eq\n      tag_5\n      jumpi\n    tag_2:\n      0x00\n      dup1\n      revert\n        /* \"contracts/ContractD/ContractDV5.sol\":1032:1113  function getHash1() public view returns (bytes32) {... */\n    tag_3:\n        /* \"contracts/ContractD/ContractDV5.sol\":1100:1105  hash1 */\n      sload(0x06)\n        /* \"contracts/ContractD/ContractDV5.sol\":1032:1113  function getHash1() public view returns (bytes32) {... */\n    tag_21:\n      mload(0x40)\n        /* \"#utility.yul\":160:185   */\n      swap1\n      dup2\n      mstore\n        /* \"#utility.yul\":148:150   */\n      0x20\n        /* \"#utility.yul\":133:151   */\n      add\n        /* \"contracts/ContractD/ContractDV5.sol\":1032:1113  function getHash1() public view returns (bytes32) {... */\n    tag_23:\n      mload(0x40)\n      dup1\n      swap2\n      sub\n      swap1\n      return\n        /* \"contracts/ContractD/ContractDV5.sol\":1210:1290  function getHash3() public view returns (bytes4) {... */\n    tag_4:\n        /* \"contracts/ContractD/ContractDV5.sol\":1277:1282  hash3 */\n      shl(0xe0, sload(0x08))\n        /* \"contracts/ContractD/ContractDV5.sol\":1210:1290  function getHash3() public view returns (bytes4) {... */\n      mload(0x40)\n        /* \"#utility.yul\":370:436   */\n      0xffffffff00000000000000000000000000000000000000000000000000000000\n        /* \"#utility.yul\":358:437   */\n      swap1\n      swap2\n      and\n        /* \"#utility.yul\":340:438   */\n      dup2\n      mstore\n        /* \"#utility.yul\":328:330   */\n      0x20\n        /* \"#utility.yul\":313:331   */\n      add\n        /* \"contracts/ContractD/ContractDV5.sol\":1210:1290  function getHash3() public view returns (bytes4) {... */\n      tag_23\n        /* \"#utility.yul\":196:444   */\n      jump\n        /* \"contracts/ContractD/ContractDV5.sol\":945:1024  function getNum6() public view returns (uint256) {... */\n    tag_5:\n        /* \"contracts/ContractD/ContractDV5.sol\":1012:1016  num6 */\n      sload(0x05)\n        /* \"contracts/ContractD/ContractDV5.sol\":945:1024  function getNum6() public view returns (uint256) {... */\n      jump(tag_21)\n        /* \"contracts/ContractD/ContractDV5.sol\":1298:1378  function getHash4() public view returns (bytes1) {... */\n    tag_6:\n        /* \"contracts/ContractD/ContractDV5.sol\":1365:1370  hash4 */\n      sload(0x08)\n      0x0100000000\n      swap1\n      div\n      0xf8\n      shl\n        /* \"contracts/ContractD/ContractDV5.sol\":1298:1378  function getHash4() public view returns (bytes1) {... */\n      mload(0x40)\n        /* \"#utility.yul\":805:871   */\n      0xff00000000000000000000000000000000000000000000000000000000000000\n        /* \"#utility.yul\":793:872   */\n      swap1\n      swap2\n      and\n        /* \"#utility.yul\":775:873   */\n      dup2\n      mstore\n        /* \"#utility.yul\":763:765   */\n      0x20\n        /* \"#utility.yul\":748:766   */\n      add\n        /* \"contracts/ContractD/ContractDV5.sol\":1298:1378  function getHash4() public view returns (bytes1) {... */\n      tag_23\n        /* \"#utility.yul\":631:879   */\n      jump\n        /* \"contracts/ContractD/ContractDV5.sol\":510:589  function getNum1() public view returns (uint256) {... */\n    tag_7:\n        /* \"contracts/ContractD/ContractDV5.sol\":550:557  uint256 */\n      0x00\n        /* \"contracts/ContractD/ContractDV5.sol\":577:581  num1 */\n      sload\n        /* \"contracts/ContractD/ContractDV5.sol\":510:589  function getNum1() public view returns (uint256) {... */\n      jump(tag_21)\n        /* \"contracts/ContractD/ContractDV5.sol\":1121:1202  function getHash2() public view returns (bytes32) {... */\n    tag_8:\n        /* \"contracts/ContractD/ContractDV5.sol\":1189:1194  hash2 */\n      sload(0x07)\n        /* \"contracts/ContractD/ContractDV5.sol\":1121:1202  function getHash2() public view returns (bytes32) {... */\n      jump(tag_21)\n        /* \"contracts/ContractD/ContractDV5.sol\":858:937  function getNum5() public view returns (uint256) {... */\n    tag_9:\n        /* \"contracts/ContractD/ContractDV5.sol\":925:929  num5 */\n      sload(0x04)\n        /* \"contracts/ContractD/ContractDV5.sol\":858:937  function getNum5() public view returns (uint256) {... */\n      jump(tag_21)\n        /* \"contracts/ContractD/ContractDV5.sol\":1661:1739  function getBool1() public view returns (bool) {... */\n    tag_10:\n        /* \"contracts/ContractD/ContractDV5.sol\":1726:1731  bool1 */\n      and(0xff, sload(0x0b))\n        /* \"contracts/ContractD/ContractDV5.sol\":1661:1739  function getBool1() public view returns (bool) {... */\n    tag_46:\n      mload(0x40)\n        /* \"#utility.yul\":1049:1063   */\n      swap1\n      iszero\n        /* \"#utility.yul\":1042:1064   */\n      iszero\n        /* \"#utility.yul\":1024:1065   */\n      dup2\n      mstore\n        /* \"#utility.yul\":1012:1014   */\n      0x20\n        /* \"#utility.yul\":997:1015   */\n      add\n        /* \"contracts/ContractD/ContractDV5.sol\":1661:1739  function getBool1() public view returns (bool) {... */\n      tag_23\n        /* \"#utility.yul\":884:1071   */\n      jump\n        /* \"contracts/ContractD/ContractDV5.sol\":1747:1825  function getBool2() public view returns (bool) {... */\n    tag_11:\n        /* \"contracts/ContractD/ContractDV5.sol\":1812:1817  bool2 */\n      sload(0x0b)\n      0x0100\n      swap1\n      div\n      0xff\n      and\n        /* \"contracts/ContractD/ContractDV5.sol\":1747:1825  function getBool2() public view returns (bool) {... */\n      jump(tag_46)\n        /* \"contracts/ContractD/ContractDV5.sol\":597:676  function getNum2() public view returns (uint256) {... */\n    tag_12:\n        /* \"contracts/ContractD/ContractDV5.sol\":664:668  num2 */\n      sload(0x01)\n        /* \"contracts/ContractD/ContractDV5.sol\":597:676  function getNum2() public view returns (uint256) {... */\n      jump(tag_21)\n        /* \"contracts/ContractD/ContractDV5.sol\":684:763  function getNum3() public view returns (uint256) {... */\n    tag_13:\n        /* \"contracts/ContractD/ContractDV5.sol\":751:755  num3 */\n      sload(0x02)\n        /* \"contracts/ContractD/ContractDV5.sol\":684:763  function getNum3() public view returns (uint256) {... */\n      jump(tag_21)\n        /* \"contracts/ContractD/ContractDV5.sol\":771:850  function getNum4() public view returns (uint256) {... */\n    tag_14:\n        /* \"contracts/ContractD/ContractDV5.sol\":838:842  num4 */\n      sload(0x03)\n        /* \"contracts/ContractD/ContractDV5.sol\":771:850  function getNum4() public view returns (uint256) {... */\n      jump(tag_21)\n        /* \"contracts/ContractD/ContractDV5.sol\":1568:1653  function getStr2() public view returns (string memory) {... */\n    tag_15:\n      tag_62\n      tag_63\n      jump\t// in\n    tag_62:\n      mload(0x40)\n      tag_23\n      swap2\n      swap1\n      tag_65\n      jump\t// in\n        /* \"contracts/ContractD/ContractDV5.sol\":1475:1560  function getStr1() public view returns (string memory) {... */\n    tag_16:\n      tag_62\n      tag_67\n      jump\t// in\n        /* \"contracts/ContractD/ContractDV5.sol\":1386:1467  function getHash5() public view returns (bytes16) {... */\n    tag_17:\n        /* \"contracts/ContractD/ContractDV5.sol\":1454:1459  hash5 */\n      sload(0x08)\n      0x010000000000\n      swap1\n      div\n      0x80\n      shl\n        /* \"contracts/ContractD/ContractDV5.sol\":1386:1467  function getHash5() public view returns (bytes16) {... */\n      mload(0x40)\n        /* \"#utility.yul\":1675:1741   */\n      0xffffffffffffffffffffffffffffffff00000000000000000000000000000000\n        /* \"#utility.yul\":1663:1742   */\n      swap1\n      swap2\n      and\n        /* \"#utility.yul\":1645:1743   */\n      dup2\n      mstore\n        /* \"#utility.yul\":1633:1635   */\n      0x20\n        /* \"#utility.yul\":1618:1636   */\n      add\n        /* \"contracts/ContractD/ContractDV5.sol\":1386:1467  function getHash5() public view returns (bytes16) {... */\n      tag_23\n        /* \"#utility.yul\":1499:1749   */\n      jump\n        /* \"contracts/ContractD/ContractDV5.sol\":1568:1653  function getStr2() public view returns (string memory) {... */\n    tag_63:\n        /* \"contracts/ContractD/ContractDV5.sol\":1608:1621  string memory */\n      0x60\n        /* \"contracts/ContractD/ContractDV5.sol\":1641:1645  str2 */\n      0x0a\n        /* \"contracts/ContractD/ContractDV5.sol\":1634:1645  return str2 */\n      dup1\n      sload\n      tag_86\n      swap1\n      tag_87\n      jump\t// in\n    tag_86:\n      dup1\n      0x1f\n      add\n      0x20\n      dup1\n      swap2\n      div\n      mul\n      0x20\n      add\n      mload(0x40)\n      swap1\n      dup2\n      add\n      0x40\n      mstore\n      dup1\n      swap3\n      swap2\n      swap1\n      dup2\n      dup2\n      mstore\n      0x20\n      add\n      dup3\n      dup1\n      sload\n      tag_88\n      swap1\n      tag_87\n      jump\t// in\n    tag_88:\n      dup1\n      iszero\n      tag_89\n      jumpi\n      dup1\n      0x1f\n      lt\n      tag_90\n      jumpi\n      0x0100\n      dup1\n      dup4\n      sload\n      div\n      mul\n      dup4\n      mstore\n      swap2\n      0x20\n      add\n      swap2\n      jump(tag_89)\n    tag_90:\n      dup3\n      add\n      swap2\n      swap1\n      0x00\n      mstore\n      keccak256(0x00, 0x20)\n      swap1\n    tag_91:\n      dup2\n      sload\n      dup2\n      mstore\n      swap1\n      0x01\n      add\n      swap1\n      0x20\n      add\n      dup1\n      dup4\n      gt\n      tag_91\n      jumpi\n      dup3\n      swap1\n      sub\n      0x1f\n      and\n      dup3\n      add\n      swap2\n    tag_89:\n      pop\n      pop\n      pop\n      pop\n      pop\n      swap1\n      pop\n        /* \"contracts/ContractD/ContractDV5.sol\":1568:1653  function getStr2() public view returns (string memory) {... */\n      swap1\n      jump\t// out\n        /* \"contracts/ContractD/ContractDV5.sol\":1475:1560  function getStr1() public view returns (string memory) {... */\n    tag_67:\n        /* \"contracts/ContractD/ContractDV5.sol\":1515:1528  string memory */\n      0x60\n        /* \"contracts/ContractD/ContractDV5.sol\":1548:1552  str1 */\n      0x09\n        /* \"contracts/ContractD/ContractDV5.sol\":1541:1552  return str1 */\n      dup1\n      sload\n      tag_86\n      swap1\n      tag_87\n      jump\t// in\n        /* \"#utility.yul\":1076:1494   */\n    tag_65:\n        /* \"#utility.yul\":1225:1227   */\n      0x20\n        /* \"#utility.yul\":1214:1223   */\n      dup2\n        /* \"#utility.yul\":1207:1228   */\n      mstore\n        /* \"#utility.yul\":1188:1192   */\n      0x00\n        /* \"#utility.yul\":1257:1263   */\n      dup3\n        /* \"#utility.yul\":1251:1264   */\n      mload\n        /* \"#utility.yul\":1300:1306   */\n      dup1\n        /* \"#utility.yul\":1295:1297   */\n      0x20\n        /* \"#utility.yul\":1284:1293   */\n      dup5\n        /* \"#utility.yul\":1280:1298   */\n      add\n        /* \"#utility.yul\":1273:1307   */\n      mstore\n        /* \"#utility.yul\":1359:1365   */\n      dup1\n        /* \"#utility.yul\":1354:1356   */\n      0x20\n        /* \"#utility.yul\":1346:1352   */\n      dup6\n        /* \"#utility.yul\":1342:1357   */\n      add\n        /* \"#utility.yul\":1337:1339   */\n      0x40\n        /* \"#utility.yul\":1326:1335   */\n      dup6\n        /* \"#utility.yul\":1322:1340   */\n      add\n        /* \"#utility.yul\":1316:1366   */\n      mcopy\n        /* \"#utility.yul\":1415:1416   */\n      0x00\n        /* \"#utility.yul\":1410:1412   */\n      0x40\n        /* \"#utility.yul\":1401:1407   */\n      dup3\n        /* \"#utility.yul\":1390:1399   */\n      dup6\n        /* \"#utility.yul\":1386:1408   */\n      add\n        /* \"#utility.yul\":1382:1413   */\n      add\n        /* \"#utility.yul\":1375:1417   */\n      mstore\n        /* \"#utility.yul\":1485:1487   */\n      0x40\n        /* \"#utility.yul\":1478:1480   */\n      0x1f\n        /* \"#utility.yul\":1474:1481   */\n      not\n        /* \"#utility.yul\":1469:1471   */\n      0x1f\n        /* \"#utility.yul\":1461:1467   */\n      dup4\n        /* \"#utility.yul\":1457:1472   */\n      add\n        /* \"#utility.yul\":1453:1482   */\n      and\n        /* \"#utility.yul\":1442:1451   */\n      dup5\n        /* \"#utility.yul\":1438:1483   */\n      add\n        /* \"#utility.yul\":1434:1488   */\n      add\n        /* \"#utility.yul\":1426:1488   */\n      swap2\n      pop\n      pop\n        /* \"#utility.yul\":1076:1494   */\n      swap3\n      swap2\n      pop\n      pop\n      jump\t// out\n        /* \"#utility.yul\":1754:2191   */\n    tag_87:\n        /* \"#utility.yul\":1833:1834   */\n      0x01\n        /* \"#utility.yul\":1829:1841   */\n      dup2\n      dup2\n      shr\n      swap1\n        /* \"#utility.yul\":1876:1888   */\n      dup3\n      and\n      dup1\n        /* \"#utility.yul\":1897:1958   */\n      tag_108\n      jumpi\n        /* \"#utility.yul\":1951:1955   */\n      0x7f\n        /* \"#utility.yul\":1943:1949   */\n      dup3\n        /* \"#utility.yul\":1939:1956   */\n      and\n        /* \"#utility.yul\":1929:1956   */\n      swap2\n      pop\n        /* \"#utility.yul\":1897:1958   */\n    tag_108:\n        /* \"#utility.yul\":2004:2006   */\n      0x20\n        /* \"#utility.yul\":1996:2002   */\n      dup3\n        /* \"#utility.yul\":1993:2007   */\n      lt\n        /* \"#utility.yul\":1973:1991   */\n      dup2\n        /* \"#utility.yul\":1970:2008   */\n      sub\n        /* \"#utility.yul\":1967:2185   */\n      tag_109\n      jumpi\n        /* \"#utility.yul\":2041:2118   */\n      0x4e487b7100000000000000000000000000000000000000000000000000000000\n        /* \"#utility.yul\":2038:2039   */\n      0x00\n        /* \"#utility.yul\":2031:2119   */\n      mstore\n        /* \"#utility.yul\":2142:2146   */\n      0x22\n        /* \"#utility.yul\":2139:2140   */\n      0x04\n        /* \"#utility.yul\":2132:2147   */\n      mstore\n        /* \"#utility.yul\":2170:2174   */\n      0x24\n        /* \"#utility.yul\":2167:2168   */\n      0x00\n        /* \"#utility.yul\":2160:2175   */\n      revert\n        /* \"#utility.yul\":1967:2185   */\n    tag_109:\n      pop\n        /* \"#utility.yul\":1754:2191   */\n      swap2\n      swap1\n      pop\n      jump\t// out\n\n    auxdata: 0xa264697066735822122043e2834997bad31235445dad3e2102a2fbf2e5c552d3bf51de64bb06cad8380064736f6c63430008190033\n}\n",
				"bytecode": {
					"linkReferences": {},
					"object": "6080604052348015600e575f80fd5b506103978061001c5f395ff3fe608060405234801561000f575f80fd5b50600436106100f0575f3560e01c806344ad2fad116100935780638a6f5402116100635780638a6f5402146101d75780639620b05d146101df578063ac805759146101f4578063cab84dfe146101fc575f80fd5b806344ad2fad146101a057806348378eea146101b75780636b4bccb2146101c7578063830f6ae7146101cf575f80fd5b8063297b657a116100ce578063297b657a1461014a578063306a23c71461018957806333c0f099146101905780633b4de54114610198575f80fd5b806311c171ba146100f45780631eaeb9261461010b5780632325a1fd14610142575b5f80fd5b6006545b6040519081526020015b60405180910390f35b60085460e01b6040517fffffffff000000000000000000000000000000000000000000000000000000009091168152602001610102565b6005546100f8565b600854640100000000900460f81b6040517fff000000000000000000000000000000000000000000000000000000000000009091168152602001610102565b5f546100f8565b6007546100f8565b6004546100f8565b600b5460ff165b6040519015158152602001610102565b600b54610100900460ff166101a7565b6001546100f8565b6002546100f8565b6003546100f8565b6101e761023c565b60405161010291906102db565b6101e76102cc565b60085465010000000000900460801b6040517fffffffffffffffffffffffffffffffff000000000000000000000000000000009091168152602001610102565b6060600a805461024b90610310565b80601f016020809104026020016040519081016040528092919081815260200182805461027790610310565b80156102c25780601f10610299576101008083540402835291602001916102c2565b820191905f5260205f20905b8154815290600101906020018083116102a557829003601f168201915b5050505050905090565b60606009805461024b90610310565b602081525f82518060208401528060208501604085015e5f604082850101526040601f19601f83011684010191505092915050565b600181811c9082168061032457607f821691505b60208210810361035b577f4e487b71000000000000000000000000000000000000000000000000000000005f52602260045260245ffd5b5091905056fea264697066735822122043e2834997bad31235445dad3e2102a2fbf2e5c552d3bf51de64bb06cad8380064736f6c63430008190033",
					"opcodes": "PUSH1 0x80 PUSH1 0x40 MSTORE CALLVALUE DUP1 ISZERO PUSH1 0xE JUMPI PUSH0 DUP1 REVERT JUMPDEST POP PUSH2 0x397 DUP1 PUSH2 0x1C PUSH0 CODECOPY PUSH0 RETURN INVALID PUSH1 0x80 PUSH1 0x40 MSTORE CALLVALUE DUP1 ISZERO PUSH2 0xF JUMPI PUSH0 DUP1 REVERT JUMPDEST POP PUSH1 0x4 CALLDATASIZE LT PUSH2 0xF0 JUMPI PUSH0 CALLDATALOAD PUSH1 0xE0 SHR DUP1 PUSH4 0x44AD2FAD GT PUSH2 0x93 JUMPI DUP1 PUSH4 0x8A6F5402 GT PUSH2 0x63 JUMPI DUP1 PUSH4 0x8A6F5402 EQ PUSH2 0x1D7 JUMPI DUP1 PUSH4 0x9620B05D EQ PUSH2 0x1DF JUMPI DUP1 PUSH4 0xAC805759 EQ PUSH2 0x1F4 JUMPI DUP1 PUSH4 0xCAB84DFE EQ PUSH2 0x1FC JUMPI PUSH0 DUP1 REVERT JUMPDEST DUP1 PUSH4 0x44AD2FAD EQ PUSH2 0x1A0 JUMPI DUP1 PUSH4 0x48378EEA EQ PUSH2 0x1B7 JUMPI DUP1 PUSH4 0x6B4BCCB2 EQ PUSH2 0x1C7 JUMPI DUP1 PUSH4 0x830F6AE7 EQ PUSH2 0x1CF JUMPI PUSH0 DUP1 REVERT JUMPDEST DUP1 PUSH4 0x297B657A GT PUSH2 0xCE JUMPI DUP1 PUSH4 0x297B657A EQ PUSH2 0x14A JUMPI DUP1 PUSH4 0x306A23C7 EQ PUSH2 0x189 JUMPI DUP1 PUSH4 0x33C0F099 EQ PUSH2 0x190 JUMPI DUP1 PUSH4 0x3B4DE541 EQ PUSH2 0x198 JUMPI PUSH0 DUP1 REVERT JUMPDEST DUP1 PUSH4 0x11C171BA EQ PUSH2 0xF4 JUMPI DUP1 PUSH4 0x1EAEB926 EQ PUSH2 0x10B JUMPI DUP1 PUSH4 0x2325A1FD EQ PUSH2 0x142 JUMPI JUMPDEST PUSH0 DUP1 REVERT JUMPDEST PUSH1 0x6 SLOAD JUMPDEST PUSH1 0x40 MLOAD SWAP1 DUP2 MSTORE PUSH1 0x20 ADD JUMPDEST PUSH1 0x40 MLOAD DUP1 SWAP2 SUB SWAP1 RETURN JUMPDEST PUSH1 0x8 SLOAD PUSH1 0xE0 SHL PUSH1 0x40 MLOAD PUSH32 0xFFFFFFFF00000000000000000000000000000000000000000000000000000000 SWAP1 SWAP2 AND DUP2 MSTORE PUSH1 0x20 ADD PUSH2 0x102 JUMP JUMPDEST PUSH1 0x5 SLOAD PUSH2 0xF8 JUMP JUMPDEST PUSH1 0x8 SLOAD PUSH5 0x100000000 SWAP1 DIV PUSH1 0xF8 SHL PUSH1 0x40 MLOAD PUSH32 0xFF00000000000000000000000000000000000000000000000000000000000000 SWAP1 SWAP2 AND DUP2 MSTORE PUSH1 0x20 ADD PUSH2 0x102 JUMP JUMPDEST PUSH0 SLOAD PUSH2 0xF8 JUMP JUMPDEST PUSH1 0x7 SLOAD PUSH2 0xF8 JUMP JUMPDEST PUSH1 0x4 SLOAD PUSH2 0xF8 JUMP JUMPDEST PUSH1 0xB SLOAD PUSH1 0xFF AND JUMPDEST PUSH1 0x40 MLOAD SWAP1 ISZERO ISZERO DUP2 MSTORE PUSH1 0x20 ADD PUSH2 0x102 JUMP JUMPDEST PUSH1 0xB SLOAD PUSH2 0x100 SWAP1 DIV PUSH1 0xFF AND PUSH2 0x1A7 JUMP JUMPDEST PUSH1 0x1 SLOAD PUSH2 0xF8 JUMP JUMPDEST PUSH1 0x2 SLOAD PUSH2 0xF8 JUMP JUMPDEST PUSH1 0x3 SLOAD PUSH2 0xF8 JUMP JUMPDEST PUSH2 0x1E7 PUSH2 0x23C JUMP JUMPDEST PUSH1 0x40 MLOAD PUSH2 0x102 SWAP2 SWAP1 PUSH2 0x2DB JUMP JUMPDEST PUSH2 0x1E7 PUSH2 0x2CC JUMP JUMPDEST PUSH1 0x8 SLOAD PUSH6 0x10000000000 SWAP1 DIV PUSH1 0x80 SHL PUSH1 0x40 MLOAD PUSH32 0xFFFFFFFFFFFFFFFFFFFFFFFFFFFFFFFF00000000000000000000000000000000 SWAP1 SWAP2 AND DUP2 MSTORE PUSH1 0x20 ADD PUSH2 0x102 JUMP JUMPDEST PUSH1 0x60 PUSH1 0xA DUP1 SLOAD PUSH2 0x24B SWAP1 PUSH2 0x310 JUMP JUMPDEST DUP1 PUSH1 0x1F ADD PUSH1 0x20 DUP1 SWAP2 DIV MUL PUSH1 0x20 ADD PUSH1 0x40 MLOAD SWAP1 DUP2 ADD PUSH1 0x40 MSTORE DUP1 SWAP3 SWAP2 SWAP1 DUP2 DUP2 MSTORE PUSH1 0x20 ADD DUP3 DUP1 SLOAD PUSH2 0x277 SWAP1 PUSH2 0x310 JUMP JUMPDEST DUP1 ISZERO PUSH2 0x2C2 JUMPI DUP1 PUSH1 0x1F LT PUSH2 0x299 JUMPI PUSH2 0x100 DUP1 DUP4 SLOAD DIV MUL DUP4 MSTORE SWAP2 PUSH1 0x20 ADD SWAP2 PUSH2 0x2C2 JUMP JUMPDEST DUP3 ADD SWAP2 SWAP1 PUSH0 MSTORE PUSH1 0x20 PUSH0 KECCAK256 SWAP1 JUMPDEST DUP2 SLOAD DUP2 MSTORE SWAP1 PUSH1 0x1 ADD SWAP1 PUSH1 0x20 ADD DUP1 DUP4 GT PUSH2 0x2A5 JUMPI DUP3 SWAP1 SUB PUSH1 0x1F AND DUP3 ADD SWAP2 JUMPDEST POP POP POP POP POP SWAP1 POP SWAP1 JUMP JUMPDEST PUSH1 0x60 PUSH1 0x9 DUP1 SLOAD PUSH2 0x24B SWAP1 PUSH2 0x310 JUMP JUMPDEST PUSH1 0x20 DUP2 MSTORE PUSH0 DUP3 MLOAD DUP1 PUSH1 0x20 DUP5 ADD MSTORE DUP1 PUSH1 0x20 DUP6 ADD PUSH1 0x40 DUP6 ADD MCOPY PUSH0 PUSH1 0x40 DUP3 DUP6 ADD ADD MSTORE PUSH1 0x40 PUSH1 0x1F NOT PUSH1 0x1F DUP4 ADD AND DUP5 ADD ADD SWAP2 POP POP SWAP3 SWAP2 POP POP JUMP JUMPDEST PUSH1 0x1 DUP2 DUP2 SHR SWAP1 DUP3 AND DUP1 PUSH2 0x324 JUMPI PUSH1 0x7F DUP3 AND SWAP2 POP JUMPDEST PUSH1 0x20 DUP3 LT DUP2 SUB PUSH2 0x35B JUMPI PUSH32 0x4E487B7100000000000000000000000000000000000000000000000000000000 PUSH0 MSTORE PUSH1 0x22 PUSH1 0x4 MSTORE PUSH1 0x24 PUSH0 REVERT JUMPDEST POP SWAP2 SWAP1 POP JUMP INVALID LOG2 PUSH5 0x6970667358 0x22 SLT KECCAK256 NUMBER 0xE2 DUP4 BLOBHASH SWAP8 0xBA 0xD3 SLT CALLDATALOAD PREVRANDAO TSTORE 0xAD RETURNDATACOPY 0x21 MUL LOG2 0xFB CALLCODE 0xE5 0xC5 MSTORE 0xD3 0xBF MLOAD 0xDE PUSH5 0xBB06CAD838 STOP PUSH5 0x736F6C6343 STOP ADDMOD NOT STOP CALLER "
				},
				"gasEstimates": {
					"creation": {
						"codeDepositCost": "183800",
						"executionCost": "224",
						"totalCost": "184024"
					},
					"external": {
						"getBool1()": "2315",
						"getBool2()": "2359",
						"getHash1()": "2293",
						"getHash2()": "2347",
						"getHash3()": "2340",
						"getHash4()": "2328",
						"getHash5()": "2393",
						"getNum1()": "2324",
						"getNum2()": "2347",
						"getNum3()": "2369",
						"getNum4()": "2302",
						"getNum5()": "2369",
						"getNum6()": "2348",
						"getStr1()": "infinite",
						"getStr2()": "infinite"
					}
				},
				"methodIdentifiers": {
					"getBool1()": "44ad2fad",
					"getBool2()": "48378eea",
					"getHash1()": "11c171ba",
					"getHash2()": "33c0f099",
					"getHash3()": "1eaeb926",
					"getHash4()": "297b657a",
					"getHash5()": "cab84dfe",
					"getNum1()": "306a23c7",
					"getNum2()": "6b4bccb2",
					"getNum3()": "830f6ae7",
					"getNum4()": "8a6f5402",
					"getNum5()": "3b4de541",
					"getNum6()": "2325a1fd",
					"getStr1()": "ac805759",
					"getStr2()": "9620b05d"
				}
			},
			"storageLayout": {
				"storage": [
					{
						"astId": 3,
						"contract": "contracts/ContractD/ContractDV5.sol:ContractDV5",
						"label": "num1",
						"offset": 0,
						"slot": "0",
						"type": "t_uint256"
					},
					{
						"astId": 5,
						"contract": "contracts/ContractD/ContractDV5.sol:ContractDV5",
						"label": "num2",
						"offset": 0,
						"slot": "1",
						"type": "t_uint256"
					},
					{
						"astId": 7,
						"contract": "contracts/ContractD/ContractDV5.sol:ContractDV5",
						"label": "num3",
						"offset": 0,
						"slot": "2",
						"type": "t_uint256"
					},
					{
						"astId": 9,
						"contract": "contracts/ContractD/ContractDV5.sol:ContractDV5",
						"label": "num4",
						"offset": 0,
						"slot": "3",
						"type": "t_uint256"
					},
					{
						"astId": 11,
						"contract": "contracts/ContractD/ContractDV5.sol:ContractDV5",
						"label": "num5",
						"offset": 0,
						"slot": "4",
						"type": "t_uint256"
					},
					{
						"astId": 13,
						"contract": "contracts/ContractD/ContractDV5.sol:ContractDV5",
						"label": "num6",
						"offset": 0,
						"slot": "5",
						"type": "t_uint256"
					},
					{
						"astId": 15,
						"contract": "contracts/ContractD/ContractDV5.sol:ContractDV5",
						"label": "hash1",
						"offset": 0,
						"slot": "6",
						"type": "t_bytes32"
					},
					{
						"astId": 17,
						"contract": "contracts/ContractD/ContractDV5.sol:ContractDV5",
						"label": "hash2",
						"offset": 0,
						"slot": "7",
						"type": "t_bytes32"
					},
					{
						"astId": 19,
						"contract": "contracts/ContractD/ContractDV5.sol:ContractDV5",
						"label": "hash3",
						"offset": 0,
						"slot": "8",
						"type": "t_bytes4"
					},
					{
						"astId": 21,
						"contract": "contracts/ContractD/ContractDV5.sol:ContractDV5",
						"label": "hash4",
						"offset": 4,
						"slot": "8",
						"type": "t_bytes1"
					},
					{
						"astId": 23,
						"contract": "contracts/ContractD/ContractDV5.sol:ContractDV5",
						"label": "hash5",
						"offset": 5,
						"slot": "8",
						"type": "t_bytes16"
					},
					{
						"astId": 25,
						"contract": "contracts/ContractD/ContractDV5.sol:ContractDV5",
						"label": "str1",
						"offset": 0,
						"slot": "9",
						"type": "t_string_storage"
					},
					{
						"astId": 27,
						"contract": "contracts/ContractD/ContractDV5.sol:ContractDV5",
						"label": "str2",
						"offset": 0,
						"slot": "10",
						"type": "t_string_storage"
					},
					{
						"astId": 29,
						"contract": "contracts/ContractD/ContractDV5.sol:ContractDV5",
						"label": "bool1",
						"offset": 0,
						"slot": "11",
						"type": "t_bool"
					},
					{
						"astId": 31,
						"contract": "contracts/ContractD/ContractDV5.sol:ContractDV5",
						"label": "bool2",
						"offset": 1,
						"slot": "11",
						"type": "t_bool"
					}
				],
				"types": {
					"t_bool": {
						"encoding": "inplace",
						"label": "bool",
						"numberOfBytes": "1"
					},
					"t_bytes1": {
						"encoding": "inplace",
						"label": "bytes1",
						"numberOfBytes": "1"
					},
					"t_bytes16": {
						"encoding": "inplace",
						"label": "bytes16",
						"numberOfBytes": "16"
					},
					"t_bytes32": {
						"encoding": "inplace",
						"label": "bytes32",
						"numberOfBytes": "32"
					},
					"t_bytes4": {
						"encoding": "inplace",
						"label": "bytes4",
						"numberOfBytes": "4"
					},
					"t_string_storage": {
						"encoding": "bytes",
						"label": "string",
						"numberOfBytes": "32"
					},
					"t_uint256": {
						"encoding": "inplace",
						"label": "uint256",
						"numberOfBytes": "32"
					}
				}
			},
			"userdoc": {
				"kind": "user",
				"methods": {},
				"version": 1
			}
		}
	}
}