{
	"contracts/ContractD/ContractDV2.sol": {
		"ContractDV3": {
			"abi": [
				{
					"inputs": [],
					"name": "bool1",
					"outputs": [
						{
							"internalType": "bool",
							"name": "",
							"type": "bool"
						}
					],
					"stateMutability": "view",
					"type": "function"
				},
				{
					"inputs": [],
					"name": "bool2",
					"outputs": [
						{
							"internalType": "bool",
							"name": "",
							"type": "bool"
						}
					],
					"stateMutability": "view",
					"type": "function"
				},
				{
					"inputs": [],
					"name": "hash1",
					"outputs": [
						{
							"internalType": "bytes32",
							"name": "",
							"type": "bytes32"
						}
					],
					"stateMutability": "view",
					"type": "function"
				},
				{
					"inputs": [],
					"name": "hash2",
					"outputs": [
						{
							"internalType": "bytes32",
							"name": "",
							"type": "bytes32"
						}
					],
					"stateMutability": "view",
					"type": "function"
				},
				{
					"inputs": [],
					"name": "hash3",
					"outputs": [
						{
							"internalType": "bytes4",
							"name": "",
							"type": "bytes4"
						}
					],
					"stateMutability": "view",
					"type": "function"
				},
				{
					"inputs": [],
					"name": "hash4",
					"outputs": [
						{
							"internalType": "bytes1",
							"name": "",
							"type": "bytes1"
						}
					],
					"stateMutability": "view",
					"type": "function"
				},
				{
					"inputs": [],
					"name": "hash5",
					"outputs": [
						{
							"internalType": "bytes16",
							"name": "",
							"type": "bytes16"
						}
					],
					"stateMutability": "view",
					"type": "function"
				},
				{
					"inputs": [],
					"name": "num1",
					"outputs": [
						{
							"internalType": "uint256",
							"name": "",
							"type": "uint256"
						}
					],
					"stateMutability": "view",
					"type": "function"
				},
				{
					"inputs": [],
					"name": "num2",
					"outputs": [
						{
							"internalType": "uint256",
							"name": "",
							"type": "uint256"
						}
					],
					"stateMutability": "view",
					"type": "function"
				},
				{
					"inputs": [],
					"name": "num3",
					"outputs": [
						{
							"internalType": "uint256",
							"name": "",
							"type": "uint256"
						}
					],
					"stateMutability": "view",
					"type": "function"
				},
				{
					"inputs": [],
					"name": "num4",
					"outputs": [
						{
							"internalType": "uint256",
							"name": "",
							"type": "uint256"
						}
					],
					"stateMutability": "view",
					"type": "function"
				},
				{
					"inputs": [],
					"name": "num5",
					"outputs": [
						{
							"internalType": "uint256",
							"name": "",
							"type": "uint256"
						}
					],
					"stateMutability": "view",
					"type": "function"
				},
				{
					"inputs": [],
					"name": "num6",
					"outputs": [
						{
							"internalType": "uint256",
							"name": "",
							"type": "uint256"
						}
					],
					"stateMutability": "view",
					"type": "function"
				},
				{
					"inputs": [],
					"name": "str1",
					"outputs": [
						{
							"internalType": "string",
							"name": "",
							"type": "string"
						}
					],
					"stateMutability": "view",
					"type": "function"
				},
				{
					"inputs": [],
					"name": "str2",
					"outputs": [
						{
							"internalType": "string",
							"name": "",
							"type": "string"
						}
					],
					"stateMutability": "view",
					"type": "function"
				}
			],
			"devdoc": {
				"kind": "dev",
				"methods": {},
				"version": 1
			},
			"evm": {
				"assembly": "    /* \"contracts/ContractD/ContractDV2.sol\":63:475  contract ContractDV3 {... */\n  mstore(0x40, 0x80)\n  callvalue\n  dup1\n  iszero\n  tag_1\n  jumpi\n  0x00\n  dup1\n  revert\ntag_1:\n  pop\n  dataSize(sub_0)\n  dup1\n  dataOffset(sub_0)\n  0x00\n  codecopy\n  0x00\n  return\nstop\n\nsub_0: assembly {\n        /* \"contracts/ContractD/ContractDV2.sol\":63:475  contract ContractDV3 {... */\n      mstore(0x40, 0x80)\n      callvalue\n      dup1\n      iszero\n      tag_1\n      jumpi\n      0x00\n      dup1\n      revert\n    tag_1:\n      pop\n      jumpi(tag_2, lt(calldatasize, 0x04))\n      shr(0xe0, calldataload(0x00))\n      dup1\n      0x910654d3\n      gt\n      tag_18\n      jumpi\n      dup1\n      0xd4515de5\n      gt\n      tag_19\n      jumpi\n      dup1\n      0xd4515de5\n      eq\n      tag_14\n      jumpi\n      dup1\n      0xe845ce8f\n      eq\n      tag_15\n      jumpi\n      dup1\n      0xec630c70\n      eq\n      tag_16\n      jumpi\n      dup1\n      0xfcdcfa50\n      eq\n      tag_17\n      jumpi\n      0x00\n      dup1\n      revert\n    tag_19:\n      dup1\n      0x910654d3\n      eq\n      tag_10\n      jumpi\n      dup1\n      0xa531f36a\n      eq\n      tag_11\n      jumpi\n      dup1\n      0xba1663ca\n      eq\n      tag_12\n      jumpi\n      dup1\n      0xd118d187\n      eq\n      tag_13\n      jumpi\n      0x00\n      dup1\n      revert\n    tag_18:\n      dup1\n      0x425a1fb6\n      gt\n      tag_20\n      jumpi\n      dup1\n      0x425a1fb6\n      eq\n      tag_6\n      jumpi\n      dup1\n      0x69743312\n      eq\n      tag_7\n      jumpi\n      dup1\n      0x7c75023a\n      eq\n      tag_8\n      jumpi\n      dup1\n      0x8eae5a3c\n      eq\n      tag_9\n      jumpi\n      0x00\n      dup1\n      revert\n    tag_20:\n      dup1\n      0x15d4266c\n      eq\n      tag_3\n      jumpi\n      dup1\n      0x19d730c6\n      eq\n      tag_4\n      jumpi\n      dup1\n      0x3b9eac4b\n      eq\n      tag_5\n      jumpi\n    tag_2:\n      0x00\n      dup1\n      revert\n        /* \"contracts/ContractD/ContractDV2.sol\":117:136  uint256 public num2 */\n    tag_3:\n      tag_21\n      sload(0x01)\n      dup2\n      jump\n    tag_21:\n      mload(0x40)\n        /* \"#utility.yul\":160:185   */\n      swap1\n      dup2\n      mstore\n        /* \"#utility.yul\":148:150   */\n      0x20\n        /* \"#utility.yul\":133:151   */\n      add\n        /* \"contracts/ContractD/ContractDV2.sol\":117:136  uint256 public num2 */\n    tag_23:\n      mload(0x40)\n      dup1\n      swap2\n      sub\n      swap1\n      return\n        /* \"contracts/ContractD/ContractDV2.sol\":353:373  bytes16 public hash5 */\n    tag_4:\n      sload(0x08)\n      tag_25\n      swap1\n      0x010000000000\n      swap1\n      div\n      0x80\n      shl\n      dup2\n      jump\n    tag_25:\n      mload(0x40)\n        /* \"#utility.yul\":372:438   */\n      0xffffffffffffffffffffffffffffffff00000000000000000000000000000000\n        /* \"#utility.yul\":360:439   */\n      swap1\n      swap2\n      and\n        /* \"#utility.yul\":342:440   */\n      dup2\n      mstore\n        /* \"#utility.yul\":330:332   */\n      0x20\n        /* \"#utility.yul\":315:333   */\n      add\n        /* \"contracts/ContractD/ContractDV2.sol\":353:373  bytes16 public hash5 */\n      tag_23\n        /* \"#utility.yul\":196:446   */\n      jump\n        /* \"contracts/ContractD/ContractDV2.sol\":91:110  uint256 public num1 */\n    tag_5:\n      tag_21\n      sload(0x00)\n      dup2\n      jump\n        /* \"contracts/ContractD/ContractDV2.sol\":274:294  bytes32 public hash2 */\n    tag_6:\n      tag_21\n      sload(0x07)\n      dup2\n      jump\n        /* \"contracts/ContractD/ContractDV2.sol\":195:214  uint256 public num5 */\n    tag_7:\n      tag_21\n      sload(0x04)\n      dup2\n      jump\n        /* \"contracts/ContractD/ContractDV2.sol\":169:188  uint256 public num4 */\n    tag_8:\n      tag_21\n      sload(0x03)\n      dup2\n      jump\n        /* \"contracts/ContractD/ContractDV2.sol\":327:346  bytes1 public hash4 */\n    tag_9:\n      sload(0x08)\n      tag_42\n      swap1\n      0x0100000000\n      swap1\n      div\n      0xf8\n      shl\n      dup2\n      jump\n    tag_42:\n      mload(0x40)\n        /* \"#utility.yul\":807:873   */\n      0xff00000000000000000000000000000000000000000000000000000000000000\n        /* \"#utility.yul\":795:874   */\n      swap1\n      swap2\n      and\n        /* \"#utility.yul\":777:875   */\n      dup2\n      mstore\n        /* \"#utility.yul\":765:767   */\n      0x20\n        /* \"#utility.yul\":750:768   */\n      add\n        /* \"contracts/ContractD/ContractDV2.sol\":327:346  bytes1 public hash4 */\n      tag_23\n        /* \"#utility.yul\":633:881   */\n      jump\n        /* \"contracts/ContractD/ContractDV2.sol\":221:240  uint256 public num6 */\n    tag_10:\n      tag_21\n      sload(0x05)\n      dup2\n      jump\n        /* \"contracts/ContractD/ContractDV2.sol\":143:162  uint256 public num3 */\n    tag_11:\n      tag_21\n      sload(0x02)\n      dup2\n      jump\n        /* \"contracts/ContractD/ContractDV2.sol\":247:267  bytes32 public hash1 */\n    tag_12:\n      tag_21\n      sload(0x06)\n      dup2\n      jump\n        /* \"contracts/ContractD/ContractDV2.sol\":380:398  string public str1 */\n    tag_13:\n      tag_55\n      tag_56\n      jump\t// in\n    tag_55:\n      mload(0x40)\n      tag_23\n      swap2\n      swap1\n      tag_58\n      jump\t// in\n        /* \"contracts/ContractD/ContractDV2.sol\":301:320  bytes4 public hash3 */\n    tag_14:\n      sload(0x08)\n      tag_59\n      swap1\n      0xe0\n      shl\n      dup2\n      jump\n    tag_59:\n      mload(0x40)\n        /* \"#utility.yul\":1483:1549   */\n      0xffffffff00000000000000000000000000000000000000000000000000000000\n        /* \"#utility.yul\":1471:1550   */\n      swap1\n      swap2\n      and\n        /* \"#utility.yul\":1453:1551   */\n      dup2\n      mstore\n        /* \"#utility.yul\":1441:1443   */\n      0x20\n        /* \"#utility.yul\":1426:1444   */\n      add\n        /* \"contracts/ContractD/ContractDV2.sol\":301:320  bytes4 public hash3 */\n      tag_23\n        /* \"#utility.yul\":1309:1557   */\n      jump\n        /* \"contracts/ContractD/ContractDV2.sol\":454:471  bool public bool2 */\n    tag_15:\n      sload(0x0b)\n      tag_63\n      swap1\n      0x0100\n      swap1\n      div\n      0xff\n      and\n      dup2\n      jump\n    tag_63:\n      mload(0x40)\n        /* \"#utility.yul\":1727:1741   */\n      swap1\n      iszero\n        /* \"#utility.yul\":1720:1742   */\n      iszero\n        /* \"#utility.yul\":1702:1743   */\n      dup2\n      mstore\n        /* \"#utility.yul\":1690:1692   */\n      0x20\n        /* \"#utility.yul\":1675:1693   */\n      add\n        /* \"contracts/ContractD/ContractDV2.sol\":454:471  bool public bool2 */\n      tag_23\n        /* \"#utility.yul\":1562:1749   */\n      jump\n        /* \"contracts/ContractD/ContractDV2.sol\":430:447  bool public bool1 */\n    tag_16:\n      sload(0x0b)\n      tag_63\n      swap1\n      0xff\n      and\n      dup2\n      jump\n        /* \"contracts/ContractD/ContractDV2.sol\":405:423  string public str2 */\n    tag_17:\n      tag_55\n      tag_71\n      jump\t// in\n        /* \"contracts/ContractD/ContractDV2.sol\":380:398  string public str1 */\n    tag_56:\n      0x09\n      dup1\n      sload\n      tag_73\n      swap1\n      tag_74\n      jump\t// in\n    tag_73:\n      dup1\n      0x1f\n      add\n      0x20\n      dup1\n      swap2\n      div\n      mul\n      0x20\n      add\n      mload(0x40)\n      swap1\n      dup2\n      add\n      0x40\n      mstore\n      dup1\n      swap3\n      swap2\n      swap1\n      dup2\n      dup2\n      mstore\n      0x20\n      add\n      dup3\n      dup1\n      sload\n      tag_75\n      swap1\n      tag_74\n      jump\t// in\n    tag_75:\n      dup1\n      iszero\n      tag_76\n      jumpi\n      dup1\n      0x1f\n      lt\n      tag_77\n      jumpi\n      0x0100\n      dup1\n      dup4\n      sload\n      div\n      mul\n      dup4\n      mstore\n      swap2\n      0x20\n      add\n      swap2\n      jump(tag_76)\n    tag_77:\n      dup3\n      add\n      swap2\n      swap1\n      0x00\n      mstore\n      keccak256(0x00, 0x20)\n      swap1\n    tag_78:\n      dup2\n      sload\n      dup2\n      mstore\n      swap1\n      0x01\n      add\n      swap1\n      0x20\n      add\n      dup1\n      dup4\n      gt\n      tag_78\n      jumpi\n      dup3\n      swap1\n      sub\n      0x1f\n      and\n      dup3\n      add\n      swap2\n    tag_76:\n      pop\n      pop\n      pop\n      pop\n      pop\n      dup2\n      jump\t// out\n        /* \"contracts/ContractD/ContractDV2.sol\":405:423  string public str2 */\n    tag_71:\n      0x0a\n      dup1\n      sload\n      tag_73\n      swap1\n      tag_74\n      jump\t// in\n        /* \"#utility.yul\":886:1304   */\n    tag_58:\n        /* \"#utility.yul\":1035:1037   */\n      0x20\n        /* \"#utility.yul\":1024:1033   */\n      dup2\n        /* \"#utility.yul\":1017:1038   */\n      mstore\n        /* \"#utility.yul\":998:1002   */\n      0x00\n        /* \"#utility.yul\":1067:1073   */\n      dup3\n        /* \"#utility.yul\":1061:1074   */\n      mload\n        /* \"#utility.yul\":1110:1116   */\n      dup1\n        /* \"#utility.yul\":1105:1107   */\n      0x20\n        /* \"#utility.yul\":1094:1103   */\n      dup5\n        /* \"#utility.yul\":1090:1108   */\n      add\n        /* \"#utility.yul\":1083:1117   */\n      mstore\n        /* \"#utility.yul\":1169:1175   */\n      dup1\n        /* \"#utility.yul\":1164:1166   */\n      0x20\n        /* \"#utility.yul\":1156:1162   */\n      dup6\n        /* \"#utility.yul\":1152:1167   */\n      add\n        /* \"#utility.yul\":1147:1149   */\n      0x40\n        /* \"#utility.yul\":1136:1145   */\n      dup6\n        /* \"#utility.yul\":1132:1150   */\n      add\n        /* \"#utility.yul\":1126:1176   */\n      mcopy\n        /* \"#utility.yul\":1225:1226   */\n      0x00\n        /* \"#utility.yul\":1220:1222   */\n      0x40\n        /* \"#utility.yul\":1211:1217   */\n      dup3\n        /* \"#utility.yul\":1200:1209   */\n      dup6\n        /* \"#utility.yul\":1196:1218   */\n      add\n        /* \"#utility.yul\":1192:1223   */\n      add\n        /* \"#utility.yul\":1185:1227   */\n      mstore\n        /* \"#utility.yul\":1295:1297   */\n      0x40\n        /* \"#utility.yul\":1288:1290   */\n      0x1f\n        /* \"#utility.yul\":1284:1291   */\n      not\n        /* \"#utility.yul\":1279:1281   */\n      0x1f\n        /* \"#utility.yul\":1271:1277   */\n      dup4\n        /* \"#utility.yul\":1267:1282   */\n      add\n        /* \"#utility.yul\":1263:1292   */\n      and\n        /* \"#utility.yul\":1252:1261   */\n      dup5\n        /* \"#utility.yul\":1248:1293   */\n      add\n        /* \"#utility.yul\":1244:1298   */\n      add\n        /* \"#utility.yul\":1236:1298   */\n      swap2\n      pop\n      pop\n        /* \"#utility.yul\":886:1304   */\n      swap3\n      swap2\n      pop\n      pop\n      jump\t// out\n        /* \"#utility.yul\":1754:2191   */\n    tag_74:\n        /* \"#utility.yul\":1833:1834   */\n      0x01\n        /* \"#utility.yul\":1829:1841   */\n      dup2\n      dup2\n      shr\n      swap1\n        /* \"#utility.yul\":1876:1888   */\n      dup3\n      and\n      dup1\n        /* \"#utility.yul\":1897:1958   */\n      tag_93\n      jumpi\n        /* \"#utility.yul\":1951:1955   */\n      0x7f\n        /* \"#utility.yul\":1943:1949   */\n      dup3\n        /* \"#utility.yul\":1939:1956   */\n      and\n        /* \"#utility.yul\":1929:1956   */\n      swap2\n      pop\n        /* \"#utility.yul\":1897:1958   */\n    tag_93:\n        /* \"#utility.yul\":2004:2006   */\n      0x20\n        /* \"#utility.yul\":1996:2002   */\n      dup3\n        /* \"#utility.yul\":1993:2007   */\n      lt\n        /* \"#utility.yul\":1973:1991   */\n      dup2\n        /* \"#utility.yul\":1970:2008   */\n      sub\n        /* \"#utility.yul\":1967:2185   */\n      tag_94\n      jumpi\n        /* \"#utility.yul\":2041:2118   */\n      0x4e487b7100000000000000000000000000000000000000000000000000000000\n        /* \"#utility.yul\":2038:2039   */\n      0x00\n        /* \"#utility.yul\":2031:2119   */\n      mstore\n        /* \"#utility.yul\":2142:2146   */\n      0x22\n        /* \"#utility.yul\":2139:2140   */\n      0x04\n        /* \"#utility.yul\":2132:2147   */\n      mstore\n        /* \"#utility.yul\":2170:2174   */\n      0x24\n        /* \"#utility.yul\":2167:2168   */\n      0x00\n        /* \"#utility.yul\":2160:2175   */\n      revert\n        /* \"#utility.yul\":1967:2185   */\n    tag_94:\n      pop\n        /* \"#utility.yul\":1754:2191   */\n      swap2\n      swap1\n      pop\n      jump\t// out\n\n    auxdata: 0xa2646970667358221220a9e5c21fbfad7ddf6fc2345004c6178f3524e32558a86b42a16f17f95a99255164736f6c63430008190033\n}\n",
				"bytecode": {
					"linkReferences": {},
					"object": "6080604052348015600e575f80fd5b506103ba8061001c5f395ff3fe608060405234801561000f575f80fd5b50600436106100f0575f3560e01c8063910654d311610093578063d4515de511610063578063d4515de5146101f0578063e845ce8f1461022e578063ec630c7014610250578063fcdcfa501461025d575f80fd5b8063910654d3146101c0578063a531f36a146101c9578063ba1663ca146101d2578063d118d187146101db575f80fd5b8063425a1fb6116100ce578063425a1fb61461015f57806369743312146101685780637c75023a146101715780638eae5a3c1461017a575f80fd5b806315d4266c146100f457806319d730c6146101105780633b9eac4b14610157575b5f80fd5b6100fd60015481565b6040519081526020015b60405180910390f35b6008546101269065010000000000900460801b81565b6040517fffffffffffffffffffffffffffffffff000000000000000000000000000000009091168152602001610107565b6100fd5f5481565b6100fd60075481565b6100fd60045481565b6100fd60035481565b60085461018f90640100000000900460f81b81565b6040517fff000000000000000000000000000000000000000000000000000000000000009091168152602001610107565b6100fd60055481565b6100fd60025481565b6100fd60065481565b6101e3610265565b60405161010791906102fe565b6008546101fd9060e01b81565b6040517fffffffff000000000000000000000000000000000000000000000000000000009091168152602001610107565b600b5461024090610100900460ff1681565b6040519015158152602001610107565b600b546102409060ff1681565b6101e36102f1565b6009805461027290610333565b80601f016020809104026020016040519081016040528092919081815260200182805461029e90610333565b80156102e95780601f106102c0576101008083540402835291602001916102e9565b820191905f5260205f20905b8154815290600101906020018083116102cc57829003601f168201915b505050505081565b600a805461027290610333565b602081525f82518060208401528060208501604085015e5f604082850101526040601f19601f83011684010191505092915050565b600181811c9082168061034757607f821691505b60208210810361037e577f4e487b71000000000000000000000000000000000000000000000000000000005f52602260045260245ffd5b5091905056fea2646970667358221220a9e5c21fbfad7ddf6fc2345004c6178f3524e32558a86b42a16f17f95a99255164736f6c63430008190033",
					"opcodes": "PUSH1 0x80 PUSH1 0x40 MSTORE CALLVALUE DUP1 ISZERO PUSH1 0xE JUMPI PUSH0 DUP1 REVERT JUMPDEST POP PUSH2 0x3BA DUP1 PUSH2 0x1C PUSH0 CODECOPY PUSH0 RETURN INVALID PUSH1 0x80 PUSH1 0x40 MSTORE CALLVALUE DUP1 ISZERO PUSH2 0xF JUMPI PUSH0 DUP1 REVERT JUMPDEST POP PUSH1 0x4 CALLDATASIZE LT PUSH2 0xF0 JUMPI PUSH0 CALLDATALOAD PUSH1 0xE0 SHR DUP1 PUSH4 0x910654D3 GT PUSH2 0x93 JUMPI DUP1 PUSH4 0xD4515DE5 GT PUSH2 0x63 JUMPI DUP1 PUSH4 0xD4515DE5 EQ PUSH2 0x1F0 JUMPI DUP1 PUSH4 0xE845CE8F EQ PUSH2 0x22E JUMPI DUP1 PUSH4 0xEC630C70 EQ PUSH2 0x250 JUMPI DUP1 PUSH4 0xFCDCFA50 EQ PUSH2 0x25D JUMPI PUSH0 DUP1 REVERT JUMPDEST DUP1 PUSH4 0x910654D3 EQ PUSH2 0x1C0 JUMPI DUP1 PUSH4 0xA531F36A EQ PUSH2 0x1C9 JUMPI DUP1 PUSH4 0xBA1663CA EQ PUSH2 0x1D2 JUMPI DUP1 PUSH4 0xD118D187 EQ PUSH2 0x1DB JUMPI PUSH0 DUP1 REVERT JUMPDEST DUP1 PUSH4 0x425A1FB6 GT PUSH2 0xCE JUMPI DUP1 PUSH4 0x425A1FB6 EQ PUSH2 0x15F JUMPI DUP1 PUSH4 0x69743312 EQ PUSH2 0x168 JUMPI DUP1 PUSH4 0x7C75023A EQ PUSH2 0x171 JUMPI DUP1 PUSH4 0x8EAE5A3C EQ PUSH2 0x17A JUMPI PUSH0 DUP1 REVERT JUMPDEST DUP1 PUSH4 0x15D4266C EQ PUSH2 0xF4 JUMPI DUP1 PUSH4 0x19D730C6 EQ PUSH2 0x110 JUMPI DUP1 PUSH4 0x3B9EAC4B EQ PUSH2 0x157 JUMPI JUMPDEST PUSH0 DUP1 REVERT JUMPDEST PUSH2 0xFD PUSH1 0x1 SLOAD DUP2 JUMP JUMPDEST PUSH1 0x40 MLOAD SWAP1 DUP2 MSTORE PUSH1 0x20 ADD JUMPDEST PUSH1 0x40 MLOAD DUP1 SWAP2 SUB SWAP1 RETURN JUMPDEST PUSH1 0x8 SLOAD PUSH2 0x126 SWAP1 PUSH6 0x10000000000 SWAP1 DIV PUSH1 0x80 SHL DUP2 JUMP JUMPDEST PUSH1 0x40 MLOAD PUSH32 0xFFFFFFFFFFFFFFFFFFFFFFFFFFFFFFFF00000000000000000000000000000000 SWAP1 SWAP2 AND DUP2 MSTORE PUSH1 0x20 ADD PUSH2 0x107 JUMP JUMPDEST PUSH2 0xFD PUSH0 SLOAD DUP2 JUMP JUMPDEST PUSH2 0xFD PUSH1 0x7 SLOAD DUP2 JUMP JUMPDEST PUSH2 0xFD PUSH1 0x4 SLOAD DUP2 JUMP JUMPDEST PUSH2 0xFD PUSH1 0x3 SLOAD DUP2 JUMP JUMPDEST PUSH1 0x8 SLOAD PUSH2 0x18F SWAP1 PUSH5 0x100000000 SWAP1 DIV PUSH1 0xF8 SHL DUP2 JUMP JUMPDEST PUSH1 0x40 MLOAD PUSH32 0xFF00000000000000000000000000000000000000000000000000000000000000 SWAP1 SWAP2 AND DUP2 MSTORE PUSH1 0x20 ADD PUSH2 0x107 JUMP JUMPDEST PUSH2 0xFD PUSH1 0x5 SLOAD DUP2 JUMP JUMPDEST PUSH2 0xFD PUSH1 0x2 SLOAD DUP2 JUMP JUMPDEST PUSH2 0xFD PUSH1 0x6 SLOAD DUP2 JUMP JUMPDEST PUSH2 0x1E3 PUSH2 0x265 JUMP JUMPDEST PUSH1 0x40 MLOAD PUSH2 0x107 SWAP2 SWAP1 PUSH2 0x2FE JUMP JUMPDEST PUSH1 0x8 SLOAD PUSH2 0x1FD SWAP1 PUSH1 0xE0 SHL DUP2 JUMP JUMPDEST PUSH1 0x40 MLOAD PUSH32 0xFFFFFFFF00000000000000000000000000000000000000000000000000000000 SWAP1 SWAP2 AND DUP2 MSTORE PUSH1 0x20 ADD PUSH2 0x107 JUMP JUMPDEST PUSH1 0xB SLOAD PUSH2 0x240 SWAP1 PUSH2 0x100 SWAP1 DIV PUSH1 0xFF AND DUP2 JUMP JUMPDEST PUSH1 0x40 MLOAD SWAP1 ISZERO ISZERO DUP2 MSTORE PUSH1 0x20 ADD PUSH2 0x107 JUMP JUMPDEST PUSH1 0xB SLOAD PUSH2 0x240 SWAP1 PUSH1 0xFF AND DUP2 JUMP JUMPDEST PUSH2 0x1E3 PUSH2 0x2F1 JUMP JUMPDEST PUSH1 0x9 DUP1 SLOAD PUSH2 0x272 SWAP1 PUSH2 0x333 JUMP JUMPDEST DUP1 PUSH1 0x1F ADD PUSH1 0x20 DUP1 SWAP2 DIV MUL PUSH1 0x20 ADD PUSH1 0x40 MLOAD SWAP1 DUP2 ADD PUSH1 0x40 MSTORE DUP1 SWAP3 SWAP2 SWAP1 DUP2 DUP2 MSTORE PUSH1 0x20 ADD DUP3 DUP1 SLOAD PUSH2 0x29E SWAP1 PUSH2 0x333 JUMP JUMPDEST DUP1 ISZERO PUSH2 0x2E9 JUMPI DUP1 PUSH1 0x1F LT PUSH2 0x2C0 JUMPI PUSH2 0x100 DUP1 DUP4 SLOAD DIV MUL DUP4 MSTORE SWAP2 PUSH1 0x20 ADD SWAP2 PUSH2 0x2E9 JUMP JUMPDEST DUP3 ADD SWAP2 SWAP1 PUSH0 MSTORE PUSH1 0x20 PUSH0 KECCAK256 SWAP1 JUMPDEST DUP2 SLOAD DUP2 MSTORE SWAP1 PUSH1 0x1 ADD SWAP1 PUSH1 0x20 ADD DUP1 DUP4 GT PUSH2 0x2CC JUMPI DUP3 SWAP1 SUB PUSH1 0x1F AND DUP3 ADD SWAP2 JUMPDEST POP POP POP POP POP DUP2 JUMP JUMPDEST PUSH1 0xA DUP1 SLOAD PUSH2 0x272 SWAP1 PUSH2 0x333 JUMP JUMPDEST PUSH1 0x20 DUP2 MSTORE PUSH0 DUP3 MLOAD DUP1 PUSH1 0x20 DUP5 ADD MSTORE DUP1 PUSH1 0x20 DUP6 ADD PUSH1 0x40 DUP6 ADD MCOPY PUSH0 PUSH1 0x40 DUP3 DUP6 ADD ADD MSTORE PUSH1 0x40 PUSH1 0x1F NOT PUSH1 0x1F DUP4 ADD AND DUP5 ADD ADD SWAP2 POP POP SWAP3 SWAP2 POP POP JUMP JUMPDEST PUSH1 0x1 DUP2 DUP2 SHR SWAP1 DUP3 AND DUP1 PUSH2 0x347 JUMPI PUSH1 0x7F DUP3 AND SWAP2 POP JUMPDEST PUSH1 0x20 DUP3 LT DUP2 SUB PUSH2 0x37E JUMPI PUSH32 0x4E487B7100000000000000000000000000000000000000000000000000000000 PUSH0 MSTORE PUSH1 0x22 PUSH1 0x4 MSTORE PUSH1 0x24 PUSH0 REVERT JUMPDEST POP SWAP2 SWAP1 POP JUMP INVALID LOG2 PUSH5 0x6970667358 0x22 SLT KECCAK256 0xA9 0xE5 0xC2 0x1F 0xBF 0xAD PUSH30 0xDF6FC2345004C6178F3524E32558A86B42A16F17F95A99255164736F6C63 NUMBER STOP ADDMOD NOT STOP CALLER "
				},
				"gasEstimates": {
					"creation": {
						"codeDepositCost": "190800",
						"executionCost": "230",
						"totalCost": "191030"
					},
					"external": {
						"bool1()": "2375",
						"bool2()": "2364",
						"hash1()": "2350",
						"hash2()": "2306",
						"hash3()": "2334",
						"hash4()": "2412",
						"hash5()": "2369",
						"num1()": "2350",
						"num2()": "2307",
						"num3()": "2328",
						"num4()": "2350",
						"num5()": "2328",
						"num6()": "2306",
						"str1()": "infinite",
						"str2()": "infinite"
					}
				},
				"methodIdentifiers": {
					"bool1()": "ec630c70",
					"bool2()": "e845ce8f",
					"hash1()": "ba1663ca",
					"hash2()": "425a1fb6",
					"hash3()": "d4515de5",
					"hash4()": "8eae5a3c",
					"hash5()": "19d730c6",
					"num1()": "3b9eac4b",
					"num2()": "15d4266c",
					"num3()": "a531f36a",
					"num4()": "7c75023a",
					"num5()": "69743312",
					"num6()": "910654d3",
					"str1()": "d118d187",
					"str2()": "fcdcfa50"
				}
			},
			"storageLayout": {
				"storage": [
					{
						"astId": 3,
						"contract": "contracts/ContractD/ContractDV2.sol:ContractDV3",
						"label": "num1",
						"offset": 0,
						"slot": "0",
						"type": "t_uint256"
					},
					{
						"astId": 5,
						"contract": "contracts/ContractD/ContractDV2.sol:ContractDV3",
						"label": "num2",
						"offset": 0,
						"slot": "1",
						"type": "t_uint256"
					},
					{
						"astId": 7,
						"contract": "contracts/ContractD/ContractDV2.sol:ContractDV3",
						"label": "num3",
						"offset": 0,
						"slot": "2",
						"type": "t_uint256"
					},
					{
						"astId": 9,
						"contract": "contracts/ContractD/ContractDV2.sol:ContractDV3",
						"label": "num4",
						"offset": 0,
						"slot": "3",
						"type": "t_uint256"
					},
					{
						"astId": 11,
						"contract": "contracts/ContractD/ContractDV2.sol:ContractDV3",
						"label": "num5",
						"offset": 0,
						"slot": "4",
						"type": "t_uint256"
					},
					{
						"astId": 13,
						"contract": "contracts/ContractD/ContractDV2.sol:ContractDV3",
						"label": "num6",
						"offset": 0,
						"slot": "5",
						"type": "t_uint256"
					},
					{
						"astId": 15,
						"contract": "contracts/ContractD/ContractDV2.sol:ContractDV3",
						"label": "hash1",
						"offset": 0,
						"slot": "6",
						"type": "t_bytes32"
					},
					{
						"astId": 17,
						"contract": "contracts/ContractD/ContractDV2.sol:ContractDV3",
						"label": "hash2",
						"offset": 0,
						"slot": "7",
						"type": "t_bytes32"
					},
					{
						"astId": 19,
						"contract": "contracts/ContractD/ContractDV2.sol:ContractDV3",
						"label": "hash3",
						"offset": 0,
						"slot": "8",
						"type": "t_bytes4"
					},
					{
						"astId": 21,
						"contract": "contracts/ContractD/ContractDV2.sol:ContractDV3",
						"label": "hash4",
						"offset": 4,
						"slot": "8",
						"type": "t_bytes1"
					},
					{
						"astId": 23,
						"contract": "contracts/ContractD/ContractDV2.sol:ContractDV3",
						"label": "hash5",
						"offset": 5,
						"slot": "8",
						"type": "t_bytes16"
					},
					{
						"astId": 25,
						"contract": "contracts/ContractD/ContractDV2.sol:ContractDV3",
						"label": "str1",
						"offset": 0,
						"slot": "9",
						"type": "t_string_storage"
					},
					{
						"astId": 27,
						"contract": "contracts/ContractD/ContractDV2.sol:ContractDV3",
						"label": "str2",
						"offset": 0,
						"slot": "10",
						"type": "t_string_storage"
					},
					{
						"astId": 29,
						"contract": "contracts/ContractD/ContractDV2.sol:ContractDV3",
						"label": "bool1",
						"offset": 0,
						"slot": "11",
						"type": "t_bool"
					},
					{
						"astId": 31,
						"contract": "contracts/ContractD/ContractDV2.sol:ContractDV3",
						"label": "bool2",
						"offset": 1,
						"slot": "11",
						"type": "t_bool"
					}
				],
				"types": {
					"t_bool": {
						"encoding": "inplace",
						"label": "bool",
						"numberOfBytes": "1"
					},
					"t_bytes1": {
						"encoding": "inplace",
						"label": "bytes1",
						"numberOfBytes": "1"
					},
					"t_bytes16": {
						"encoding": "inplace",
						"label": "bytes16",
						"numberOfBytes": "16"
					},
					"t_bytes32": {
						"encoding": "inplace",
						"label": "bytes32",
						"numberOfBytes": "32"
					},
					"t_bytes4": {
						"encoding": "inplace",
						"label": "bytes4",
						"numberOfBytes": "4"
					},
					"t_string_storage": {
						"encoding": "bytes",
						"label": "string",
						"numberOfBytes": "32"
					},
					"t_uint256": {
						"encoding": "inplace",
						"label": "uint256",
						"numberOfBytes": "32"
					}
				}
			},
			"userdoc": {
				"kind": "user",
				"methods": {},
				"version": 1
			}
		}
	}
}