{
	"data": {
		"bytecode": {
			"linkReferences": {},
			"object": "6080604052348015600e575f80fd5b50610a0b8061001c5f395ff3fe60806040526004361061003e575f3560e01c806302a7350714610042578063147fa6a814610085578063dac177321461009a578063db98532a1461011d575b5f80fd5b34801561004d575f80fd5b5061007061005c3660046107c2565b5f6020819052908152604090205460ff1681565b60405190151581526020015b60405180910390f35b61009861009336600461082e565b61013c565b005b3480156100a5575f80fd5b5061010f6100b43660046108b5565b604080516020808201979097526bffffffffffffffffffffffff19606096871b81168284015260548201959095529290941b90921660748201526088808201929092528251808203909201825260a801909152805191012090565b60405190815260200161007c565b348015610128575f80fd5b506100986101373660046108ff565b610336565b5f6101c2863561014f602088018861095b565b6020808a0135906101669060408b01908b0161095b565b604080516020808201969096526bffffffffffffffffffffffff19606095861b81168284015260548201949094529190931b909116607482015260888082018990528251808303909101815260a8909101909152805191012090565b90506101dc6101d4602087018761095b565b828585610390565b6101f16101ec602087018761095b565b610462565b6101fa816104a7565b6102086020870135346104f2565b610218604086016020870161095b565b6001600160a01b03166342842e0e610233602088018861095b565b60405160e083901b7fffffffff000000000000000000000000000000000000000000000000000000001681526001600160a01b03919091166004820152336024820152883560448201526064015f604051808303815f87803b158015610297575f80fd5b505af11580156102a9573d5f803e3d5ffd5b50505050845f600281106102bf576102bf610947565b6020020160208101906102d2919061095b565b6001600160a01b03166108fc3490811502906040515f60405180830381858888f19350505050158015610307573d5f803e3d5ffd5b5033817f4c72f34d0e2a0b597a25ae9c086c06c4ac48ba071ecc23757ab1668bcd20be505f80a3505050505050565b61034233848484610390565b61034b83610539565b5f838152602081905260408120805460ff19166001179055339084907f13c3e2105d66aef65e187710d248703d9b145a13fc06330bcec2d4481ad0da109080a3505050565b7f19457468657265756d205369676e6564204d6573736167653a0a3332000000005f908152601c849052603c81206103fd9084848080601f0160208091040260200160405190810160405280939291908181526020018383808284375f9201919091525061058492505050565b9050846001600160a01b0316816001600160a01b03161461045b57828282876040517fee42f6a8000000000000000000000000000000000000000000000000000000008152600401610452949392919061097b565b60405180910390fd5b5050505050565b336001600160a01b038216036104a4576040517fb1df0e0600000000000000000000000000000000000000000000000000000000815260040160405180910390fd5b50565b5f8181526020819052604090205460ff16156104a4576040517f2720449200000000000000000000000000000000000000000000000000000000815260048101829052602401610452565b808214610535576040517fb3d779f50000000000000000000000000000000000000000000000000000000081526004810183905260248101829052604401610452565b5050565b5f8181526020819052604090205460ff16156104a4576040517fdef2cec700000000000000000000000000000000000000000000000000000000815260048101829052602401610452565b5f805f8061059286866105ae565b9250925092506105a282826105f7565b50909150505b92915050565b5f805f83516041036105e5576020840151604085015160608601515f1a6105d7888285856106fa565b9550955095505050506105f0565b505081515f91506002905b9250925092565b5f82600381111561060a5761060a6109c1565b03610613575050565b6001826003811115610627576106276109c1565b0361065e576040517ff645eedf00000000000000000000000000000000000000000000000000000000815260040160405180910390fd5b6002826003811115610672576106726109c1565b036106ac576040517ffce698f700000000000000000000000000000000000000000000000000000000815260048101829052602401610452565b60038260038111156106c0576106c06109c1565b03610535576040517fd78bce0c00000000000000000000000000000000000000000000000000000000815260048101829052602401610452565b5f80807f7fffffffffffffffffffffffffffffff5d576e7357a4501ddfe92f46681b20a084111561073357505f915060039050826107b8565b604080515f808252602082018084528a905260ff891692820192909252606081018790526080810186905260019060a0016020604051602081039080840390855afa158015610784573d5f803e3d5ffd5b5050604051601f1901519150506001600160a01b0381166107af57505f9250600191508290506107b8565b92505f91508190505b9450945094915050565b5f602082840312156107d2575f80fd5b5035919050565b80604081018310156105a8575f80fd5b5f8083601f8401126107f9575f80fd5b50813567ffffffffffffffff811115610810575f80fd5b602083019150836020828501011115610827575f80fd5b9250929050565b5f805f805f60c08688031215610842575f80fd5b61084c87876107d9565b945061085b87604088016107d9565b93506080860135925060a086013567ffffffffffffffff81111561087d575f80fd5b610889888289016107e9565b969995985093965092949392505050565b80356001600160a01b03811681146108b0575f80fd5b919050565b5f805f805f60a086880312156108c9575f80fd5b853594506108d96020870161089a565b9350604086013592506108ee6060870161089a565b949793965091946080013592915050565b5f805f60408486031215610911575f80fd5b83359250602084013567ffffffffffffffff81111561092e575f80fd5b61093a868287016107e9565b9497909650939450505050565b634e487b7160e01b5f52603260045260245ffd5b5f6020828403121561096b575f80fd5b6109748261089a565b9392505050565b60608152836060820152838560808301375f60808583018101919091526001600160a01b039384166020830152919092166040830152601f909201601f19160101919050565b634e487b7160e01b5f52602160045260245ffdfea26469706673582212201b3f073c46984d827130f4db05155c7ca901286e92571d1df52d4ff52321c2d164736f6c63430008190033",
			"opcodes": "PUSH1 0x80 PUSH1 0x40 MSTORE CALLVALUE DUP1 ISZERO PUSH1 0xE JUMPI PUSH0 DUP1 REVERT JUMPDEST POP PUSH2 0xA0B DUP1 PUSH2 0x1C PUSH0 CODECOPY PUSH0 RETURN INVALID PUSH1 0x80 PUSH1 0x40 MSTORE PUSH1 0x4 CALLDATASIZE LT PUSH2 0x3E JUMPI PUSH0 CALLDATALOAD PUSH1 0xE0 SHR DUP1 PUSH4 0x2A73507 EQ PUSH2 0x42 JUMPI DUP1 PUSH4 0x147FA6A8 EQ PUSH2 0x85 JUMPI DUP1 PUSH4 0xDAC17732 EQ PUSH2 0x9A JUMPI DUP1 PUSH4 0xDB98532A EQ PUSH2 0x11D JUMPI JUMPDEST PUSH0 DUP1 REVERT JUMPDEST CALLVALUE DUP1 ISZERO PUSH2 0x4D JUMPI PUSH0 DUP1 REVERT JUMPDEST POP PUSH2 0x70 PUSH2 0x5C CALLDATASIZE PUSH1 0x4 PUSH2 0x7C2 JUMP JUMPDEST PUSH0 PUSH1 0x20 DUP2 SWAP1 MSTORE SWAP1 DUP2 MSTORE PUSH1 0x40 SWAP1 KECCAK256 SLOAD PUSH1 0xFF AND DUP2 JUMP JUMPDEST PUSH1 0x40 MLOAD SWAP1 ISZERO ISZERO DUP2 MSTORE PUSH1 0x20 ADD JUMPDEST PUSH1 0x40 MLOAD DUP1 SWAP2 SUB SWAP1 RETURN JUMPDEST PUSH2 0x98 PUSH2 0x93 CALLDATASIZE PUSH1 0x4 PUSH2 0x82E JUMP JUMPDEST PUSH2 0x13C JUMP JUMPDEST STOP JUMPDEST CALLVALUE DUP1 ISZERO PUSH2 0xA5 JUMPI PUSH0 DUP1 REVERT JUMPDEST POP PUSH2 0x10F PUSH2 0xB4 CALLDATASIZE PUSH1 0x4 PUSH2 0x8B5 JUMP JUMPDEST PUSH1 0x40 DUP1 MLOAD PUSH1 0x20 DUP1 DUP3 ADD SWAP8 SWAP1 SWAP8 MSTORE PUSH12 0xFFFFFFFFFFFFFFFFFFFFFFFF NOT PUSH1 0x60 SWAP7 DUP8 SHL DUP2 AND DUP3 DUP5 ADD MSTORE PUSH1 0x54 DUP3 ADD SWAP6 SWAP1 SWAP6 MSTORE SWAP3 SWAP1 SWAP5 SHL SWAP1 SWAP3 AND PUSH1 0x74 DUP3 ADD MSTORE PUSH1 0x88 DUP1 DUP3 ADD SWAP3 SWAP1 SWAP3 MSTORE DUP3 MLOAD DUP1 DUP3 SUB SWAP1 SWAP3 ADD DUP3 MSTORE PUSH1 0xA8 ADD SWAP1 SWAP2 MSTORE DUP1 MLOAD SWAP2 ADD KECCAK256 SWAP1 JUMP JUMPDEST PUSH1 0x40 MLOAD SWAP1 DUP2 MSTORE PUSH1 0x20 ADD PUSH2 0x7C JUMP JUMPDEST CALLVALUE DUP1 ISZERO PUSH2 0x128 JUMPI PUSH0 DUP1 REVERT JUMPDEST POP PUSH2 0x98 PUSH2 0x137 CALLDATASIZE PUSH1 0x4 PUSH2 0x8FF JUMP JUMPDEST PUSH2 0x336 JUMP JUMPDEST PUSH0 PUSH2 0x1C2 DUP7 CALLDATALOAD PUSH2 0x14F PUSH1 0x20 DUP9 ADD DUP9 PUSH2 0x95B JUMP JUMPDEST PUSH1 0x20 DUP1 DUP11 ADD CALLDATALOAD SWAP1 PUSH2 0x166 SWAP1 PUSH1 0x40 DUP12 ADD SWAP1 DUP12 ADD PUSH2 0x95B JUMP JUMPDEST PUSH1 0x40 DUP1 MLOAD PUSH1 0x20 DUP1 DUP3 ADD SWAP7 SWAP1 SWAP7 MSTORE PUSH12 0xFFFFFFFFFFFFFFFFFFFFFFFF NOT PUSH1 0x60 SWAP6 DUP7 SHL DUP2 AND DUP3 DUP5 ADD MSTORE PUSH1 0x54 DUP3 ADD SWAP5 SWAP1 SWAP5 MSTORE SWAP2 SWAP1 SWAP4 SHL SWAP1 SWAP2 AND PUSH1 0x74 DUP3 ADD MSTORE PUSH1 0x88 DUP1 DUP3 ADD DUP10 SWAP1 MSTORE DUP3 MLOAD DUP1 DUP4 SUB SWAP1 SWAP2 ADD DUP2 MSTORE PUSH1 0xA8 SWAP1 SWAP2 ADD SWAP1 SWAP2 MSTORE DUP1 MLOAD SWAP2 ADD KECCAK256 SWAP1 JUMP JUMPDEST SWAP1 POP PUSH2 0x1DC PUSH2 0x1D4 PUSH1 0x20 DUP8 ADD DUP8 PUSH2 0x95B JUMP JUMPDEST DUP3 DUP6 DUP6 PUSH2 0x390 JUMP JUMPDEST PUSH2 0x1F1 PUSH2 0x1EC PUSH1 0x20 DUP8 ADD DUP8 PUSH2 0x95B JUMP JUMPDEST PUSH2 0x462 JUMP JUMPDEST PUSH2 0x1FA DUP2 PUSH2 0x4A7 JUMP JUMPDEST PUSH2 0x208 PUSH1 0x20 DUP8 ADD CALLDATALOAD CALLVALUE PUSH2 0x4F2 JUMP JUMPDEST PUSH2 0x218 PUSH1 0x40 DUP7 ADD PUSH1 0x20 DUP8 ADD PUSH2 0x95B JUMP JUMPDEST PUSH1 0x1 PUSH1 0x1 PUSH1 0xA0 SHL SUB AND PUSH4 0x42842E0E PUSH2 0x233 PUSH1 0x20 DUP9 ADD DUP9 PUSH2 0x95B JUMP JUMPDEST PUSH1 0x40 MLOAD PUSH1 0xE0 DUP4 SWAP1 SHL PUSH32 0xFFFFFFFF00000000000000000000000000000000000000000000000000000000 AND DUP2 MSTORE PUSH1 0x1 PUSH1 0x1 PUSH1 0xA0 SHL SUB SWAP2 SWAP1 SWAP2 AND PUSH1 0x4 DUP3 ADD MSTORE CALLER PUSH1 0x24 DUP3 ADD MSTORE DUP9 CALLDATALOAD PUSH1 0x44 DUP3 ADD MSTORE PUSH1 0x64 ADD PUSH0 PUSH1 0x40 MLOAD DUP1 DUP4 SUB DUP2 PUSH0 DUP8 DUP1 EXTCODESIZE ISZERO DUP1 ISZERO PUSH2 0x297 JUMPI PUSH0 DUP1 REVERT JUMPDEST POP GAS CALL ISZERO DUP1 ISZERO PUSH2 0x2A9 JUMPI RETURNDATASIZE PUSH0 DUP1 RETURNDATACOPY RETURNDATASIZE PUSH0 REVERT JUMPDEST POP POP POP POP DUP5 PUSH0 PUSH1 0x2 DUP2 LT PUSH2 0x2BF JUMPI PUSH2 0x2BF PUSH2 0x947 JUMP JUMPDEST PUSH1 0x20 MUL ADD PUSH1 0x20 DUP2 ADD SWAP1 PUSH2 0x2D2 SWAP2 SWAP1 PUSH2 0x95B JUMP JUMPDEST PUSH1 0x1 PUSH1 0x1 PUSH1 0xA0 SHL SUB AND PUSH2 0x8FC CALLVALUE SWAP1 DUP2 ISZERO MUL SWAP1 PUSH1 0x40 MLOAD PUSH0 PUSH1 0x40 MLOAD DUP1 DUP4 SUB DUP2 DUP6 DUP9 DUP9 CALL SWAP4 POP POP POP POP ISZERO DUP1 ISZERO PUSH2 0x307 JUMPI RETURNDATASIZE PUSH0 DUP1 RETURNDATACOPY RETURNDATASIZE PUSH0 REVERT JUMPDEST POP CALLER DUP2 PUSH32 0x4C72F34D0E2A0B597A25AE9C086C06C4AC48BA071ECC23757AB1668BCD20BE50 PUSH0 DUP1 LOG3 POP POP POP POP POP POP JUMP JUMPDEST PUSH2 0x342 CALLER DUP5 DUP5 DUP5 PUSH2 0x390 JUMP JUMPDEST PUSH2 0x34B DUP4 PUSH2 0x539 JUMP JUMPDEST PUSH0 DUP4 DUP2 MSTORE PUSH1 0x20 DUP2 SWAP1 MSTORE PUSH1 0x40 DUP2 KECCAK256 DUP1 SLOAD PUSH1 0xFF NOT AND PUSH1 0x1 OR SWAP1 SSTORE CALLER SWAP1 DUP5 SWAP1 PUSH32 0x13C3E2105D66AEF65E187710D248703D9B145A13FC06330BCEC2D4481AD0DA10 SWAP1 DUP1 LOG3 POP POP POP JUMP JUMPDEST PUSH32 0x19457468657265756D205369676E6564204D6573736167653A0A333200000000 PUSH0 SWAP1 DUP2 MSTORE PUSH1 0x1C DUP5 SWAP1 MSTORE PUSH1 0x3C DUP2 KECCAK256 PUSH2 0x3FD SWAP1 DUP5 DUP5 DUP1 DUP1 PUSH1 0x1F ADD PUSH1 0x20 DUP1 SWAP2 DIV MUL PUSH1 0x20 ADD PUSH1 0x40 MLOAD SWAP1 DUP2 ADD PUSH1 0x40 MSTORE DUP1 SWAP4 SWAP3 SWAP2 SWAP1 DUP2 DUP2 MSTORE PUSH1 0x20 ADD DUP4 DUP4 DUP1 DUP3 DUP5 CALLDATACOPY PUSH0 SWAP3 ADD SWAP2 SWAP1 SWAP2 MSTORE POP PUSH2 0x584 SWAP3 POP POP POP JUMP JUMPDEST SWAP1 POP DUP5 PUSH1 0x1 PUSH1 0x1 PUSH1 0xA0 SHL SUB AND DUP2 PUSH1 0x1 PUSH1 0x1 PUSH1 0xA0 SHL SUB AND EQ PUSH2 0x45B JUMPI DUP3 DUP3 DUP3 DUP8 PUSH1 0x40 MLOAD PUSH32 0xEE42F6A800000000000000000000000000000000000000000000000000000000 DUP2 MSTORE PUSH1 0x4 ADD PUSH2 0x452 SWAP5 SWAP4 SWAP3 SWAP2 SWAP1 PUSH2 0x97B JUMP JUMPDEST PUSH1 0x40 MLOAD DUP1 SWAP2 SUB SWAP1 REVERT JUMPDEST POP POP POP POP POP JUMP JUMPDEST CALLER PUSH1 0x1 PUSH1 0x1 PUSH1 0xA0 SHL SUB DUP3 AND SUB PUSH2 0x4A4 JUMPI PUSH1 0x40 MLOAD PUSH32 0xB1DF0E0600000000000000000000000000000000000000000000000000000000 DUP2 MSTORE PUSH1 0x4 ADD PUSH1 0x40 MLOAD DUP1 SWAP2 SUB SWAP1 REVERT JUMPDEST POP JUMP JUMPDEST PUSH0 DUP2 DUP2 MSTORE PUSH1 0x20 DUP2 SWAP1 MSTORE PUSH1 0x40 SWAP1 KECCAK256 SLOAD PUSH1 0xFF AND ISZERO PUSH2 0x4A4 JUMPI PUSH1 0x40 MLOAD PUSH32 0x2720449200000000000000000000000000000000000000000000000000000000 DUP2 MSTORE PUSH1 0x4 DUP2 ADD DUP3 SWAP1 MSTORE PUSH1 0x24 ADD PUSH2 0x452 JUMP JUMPDEST DUP1 DUP3 EQ PUSH2 0x535 JUMPI PUSH1 0x40 MLOAD PUSH32 0xB3D779F500000000000000000000000000000000000000000000000000000000 DUP2 MSTORE PUSH1 0x4 DUP2 ADD DUP4 SWAP1 MSTORE PUSH1 0x24 DUP2 ADD DUP3 SWAP1 MSTORE PUSH1 0x44 ADD PUSH2 0x452 JUMP JUMPDEST POP POP JUMP JUMPDEST PUSH0 DUP2 DUP2 MSTORE PUSH1 0x20 DUP2 SWAP1 MSTORE PUSH1 0x40 SWAP1 KECCAK256 SLOAD PUSH1 0xFF AND ISZERO PUSH2 0x4A4 JUMPI PUSH1 0x40 MLOAD PUSH32 0xDEF2CEC700000000000000000000000000000000000000000000000000000000 DUP2 MSTORE PUSH1 0x4 DUP2 ADD DUP3 SWAP1 MSTORE PUSH1 0x24 ADD PUSH2 0x452 JUMP JUMPDEST PUSH0 DUP1 PUSH0 DUP1 PUSH2 0x592 DUP7 DUP7 PUSH2 0x5AE JUMP JUMPDEST SWAP3 POP SWAP3 POP SWAP3 POP PUSH2 0x5A2 DUP3 DUP3 PUSH2 0x5F7 JUMP JUMPDEST POP SWAP1 SWAP2 POP POP JUMPDEST SWAP3 SWAP2 POP POP JUMP JUMPDEST PUSH0 DUP1 PUSH0 DUP4 MLOAD PUSH1 0x41 SUB PUSH2 0x5E5 JUMPI PUSH1 0x20 DUP5 ADD MLOAD PUSH1 0x40 DUP6 ADD MLOAD PUSH1 0x60 DUP7 ADD MLOAD PUSH0 BYTE PUSH2 0x5D7 DUP9 DUP3 DUP6 DUP6 PUSH2 0x6FA JUMP JUMPDEST SWAP6 POP SWAP6 POP SWAP6 POP POP POP POP PUSH2 0x5F0 JUMP JUMPDEST POP POP DUP2 MLOAD PUSH0 SWAP2 POP PUSH1 0x2 SWAP1 JUMPDEST SWAP3 POP SWAP3 POP SWAP3 JUMP JUMPDEST PUSH0 DUP3 PUSH1 0x3 DUP2 GT ISZERO PUSH2 0x60A JUMPI PUSH2 0x60A PUSH2 0x9C1 JUMP JUMPDEST SUB PUSH2 0x613 JUMPI POP POP JUMP JUMPDEST PUSH1 0x1 DUP3 PUSH1 0x3 DUP2 GT ISZERO PUSH2 0x627 JUMPI PUSH2 0x627 PUSH2 0x9C1 JUMP JUMPDEST SUB PUSH2 0x65E JUMPI PUSH1 0x40 MLOAD PUSH32 0xF645EEDF00000000000000000000000000000000000000000000000000000000 DUP2 MSTORE PUSH1 0x4 ADD PUSH1 0x40 MLOAD DUP1 SWAP2 SUB SWAP1 REVERT JUMPDEST PUSH1 0x2 DUP3 PUSH1 0x3 DUP2 GT ISZERO PUSH2 0x672 JUMPI PUSH2 0x672 PUSH2 0x9C1 JUMP JUMPDEST SUB PUSH2 0x6AC JUMPI PUSH1 0x40 MLOAD PUSH32 0xFCE698F700000000000000000000000000000000000000000000000000000000 DUP2 MSTORE PUSH1 0x4 DUP2 ADD DUP3 SWAP1 MSTORE PUSH1 0x24 ADD PUSH2 0x452 JUMP JUMPDEST PUSH1 0x3 DUP3 PUSH1 0x3 DUP2 GT ISZERO PUSH2 0x6C0 JUMPI PUSH2 0x6C0 PUSH2 0x9C1 JUMP JUMPDEST SUB PUSH2 0x535 JUMPI PUSH1 0x40 MLOAD PUSH32 0xD78BCE0C00000000000000000000000000000000000000000000000000000000 DUP2 MSTORE PUSH1 0x4 DUP2 ADD DUP3 SWAP1 MSTORE PUSH1 0x24 ADD PUSH2 0x452 JUMP JUMPDEST PUSH0 DUP1 DUP1 PUSH32 0x7FFFFFFFFFFFFFFFFFFFFFFFFFFFFFFF5D576E7357A4501DDFE92F46681B20A0 DUP5 GT ISZERO PUSH2 0x733 JUMPI POP PUSH0 SWAP2 POP PUSH1 0x3 SWAP1 POP DUP3 PUSH2 0x7B8 JUMP JUMPDEST PUSH1 0x40 DUP1 MLOAD PUSH0 DUP1 DUP3 MSTORE PUSH1 0x20 DUP3 ADD DUP1 DUP5 MSTORE DUP11 SWAP1 MSTORE PUSH1 0xFF DUP10 AND SWAP3 DUP3 ADD SWAP3 SWAP1 SWAP3 MSTORE PUSH1 0x60 DUP2 ADD DUP8 SWAP1 MSTORE PUSH1 0x80 DUP2 ADD DUP7 SWAP1 MSTORE PUSH1 0x1 SWAP1 PUSH1 0xA0 ADD PUSH1 0x20 PUSH1 0x40 MLOAD PUSH1 0x20 DUP2 SUB SWAP1 DUP1 DUP5 SUB SWAP1 DUP6 GAS STATICCALL ISZERO DUP1 ISZERO PUSH2 0x784 JUMPI RETURNDATASIZE PUSH0 DUP1 RETURNDATACOPY RETURNDATASIZE PUSH0 REVERT JUMPDEST POP POP PUSH1 0x40 MLOAD PUSH1 0x1F NOT ADD MLOAD SWAP2 POP POP PUSH1 0x1 PUSH1 0x1 PUSH1 0xA0 SHL SUB DUP2 AND PUSH2 0x7AF JUMPI POP PUSH0 SWAP3 POP PUSH1 0x1 SWAP2 POP DUP3 SWAP1 POP PUSH2 0x7B8 JUMP JUMPDEST SWAP3 POP PUSH0 SWAP2 POP DUP2 SWAP1 POP JUMPDEST SWAP5 POP SWAP5 POP SWAP5 SWAP2 POP POP JUMP JUMPDEST PUSH0 PUSH1 0x20 DUP3 DUP5 SUB SLT ISZERO PUSH2 0x7D2 JUMPI PUSH0 DUP1 REVERT JUMPDEST POP CALLDATALOAD SWAP2 SWAP1 POP JUMP JUMPDEST DUP1 PUSH1 0x40 DUP2 ADD DUP4 LT ISZERO PUSH2 0x5A8 JUMPI PUSH0 DUP1 REVERT JUMPDEST PUSH0 DUP1 DUP4 PUSH1 0x1F DUP5 ADD SLT PUSH2 0x7F9 JUMPI PUSH0 DUP1 REVERT JUMPDEST POP DUP2 CALLDATALOAD PUSH8 0xFFFFFFFFFFFFFFFF DUP2 GT ISZERO PUSH2 0x810 JUMPI PUSH0 DUP1 REVERT JUMPDEST PUSH1 0x20 DUP4 ADD SWAP2 POP DUP4 PUSH1 0x20 DUP3 DUP6 ADD ADD GT ISZERO PUSH2 0x827 JUMPI PUSH0 DUP1 REVERT JUMPDEST SWAP3 POP SWAP3 SWAP1 POP JUMP JUMPDEST PUSH0 DUP1 PUSH0 DUP1 PUSH0 PUSH1 0xC0 DUP7 DUP9 SUB SLT ISZERO PUSH2 0x842 JUMPI PUSH0 DUP1 REVERT JUMPDEST PUSH2 0x84C DUP8 DUP8 PUSH2 0x7D9 JUMP JUMPDEST SWAP5 POP PUSH2 0x85B DUP8 PUSH1 0x40 DUP9 ADD PUSH2 0x7D9 JUMP JUMPDEST SWAP4 POP PUSH1 0x80 DUP7 ADD CALLDATALOAD SWAP3 POP PUSH1 0xA0 DUP7 ADD CALLDATALOAD PUSH8 0xFFFFFFFFFFFFFFFF DUP2 GT ISZERO PUSH2 0x87D JUMPI PUSH0 DUP1 REVERT JUMPDEST PUSH2 0x889 DUP9 DUP3 DUP10 ADD PUSH2 0x7E9 JUMP JUMPDEST SWAP7 SWAP10 SWAP6 SWAP9 POP SWAP4 SWAP7 POP SWAP3 SWAP5 SWAP4 SWAP3 POP POP POP JUMP JUMPDEST DUP1 CALLDATALOAD PUSH1 0x1 PUSH1 0x1 PUSH1 0xA0 SHL SUB DUP2 AND DUP2 EQ PUSH2 0x8B0 JUMPI PUSH0 DUP1 REVERT JUMPDEST SWAP2 SWAP1 POP JUMP JUMPDEST PUSH0 DUP1 PUSH0 DUP1 PUSH0 PUSH1 0xA0 DUP7 DUP9 SUB SLT ISZERO PUSH2 0x8C9 JUMPI PUSH0 DUP1 REVERT JUMPDEST DUP6 CALLDATALOAD SWAP5 POP PUSH2 0x8D9 PUSH1 0x20 DUP8 ADD PUSH2 0x89A JUMP JUMPDEST SWAP4 POP PUSH1 0x40 DUP7 ADD CALLDATALOAD SWAP3 POP PUSH2 0x8EE PUSH1 0x60 DUP8 ADD PUSH2 0x89A JUMP JUMPDEST SWAP5 SWAP8 SWAP4 SWAP7 POP SWAP2 SWAP5 PUSH1 0x80 ADD CALLDATALOAD SWAP3 SWAP2 POP POP JUMP JUMPDEST PUSH0 DUP1 PUSH0 PUSH1 0x40 DUP5 DUP7 SUB SLT ISZERO PUSH2 0x911 JUMPI PUSH0 DUP1 REVERT JUMPDEST DUP4 CALLDATALOAD SWAP3 POP PUSH1 0x20 DUP5 ADD CALLDATALOAD PUSH8 0xFFFFFFFFFFFFFFFF DUP2 GT ISZERO PUSH2 0x92E JUMPI PUSH0 DUP1 REVERT JUMPDEST PUSH2 0x93A DUP7 DUP3 DUP8 ADD PUSH2 0x7E9 JUMP JUMPDEST SWAP5 SWAP8 SWAP1 SWAP7 POP SWAP4 SWAP5 POP POP POP POP JUMP JUMPDEST PUSH4 0x4E487B71 PUSH1 0xE0 SHL PUSH0 MSTORE PUSH1 0x32 PUSH1 0x4 MSTORE PUSH1 0x24 PUSH0 REVERT JUMPDEST PUSH0 PUSH1 0x20 DUP3 DUP5 SUB SLT ISZERO PUSH2 0x96B JUMPI PUSH0 DUP1 REVERT JUMPDEST PUSH2 0x974 DUP3 PUSH2 0x89A JUMP JUMPDEST SWAP4 SWAP3 POP POP POP JUMP JUMPDEST PUSH1 0x60 DUP2 MSTORE DUP4 PUSH1 0x60 DUP3 ADD MSTORE DUP4 DUP6 PUSH1 0x80 DUP4 ADD CALLDATACOPY PUSH0 PUSH1 0x80 DUP6 DUP4 ADD DUP2 ADD SWAP2 SWAP1 SWAP2 MSTORE PUSH1 0x1 PUSH1 0x1 PUSH1 0xA0 SHL SUB SWAP4 DUP5 AND PUSH1 0x20 DUP4 ADD MSTORE SWAP2 SWAP1 SWAP3 AND PUSH1 0x40 DUP4 ADD MSTORE PUSH1 0x1F SWAP1 SWAP3 ADD PUSH1 0x1F NOT AND ADD ADD SWAP2 SWAP1 POP JUMP JUMPDEST PUSH4 0x4E487B71 PUSH1 0xE0 SHL PUSH0 MSTORE PUSH1 0x21 PUSH1 0x4 MSTORE PUSH1 0x24 PUSH0 REVERT INVALID LOG2 PUSH5 0x6970667358 0x22 SLT KECCAK256 SHL EXTCODEHASH SMOD EXTCODECOPY CHAINID SWAP9 0x4D DUP3 PUSH18 0x30F4DB05155C7CA901286E92571D1DF52D4F CREATE2 0x23 0x21 0xC2 0xD1 PUSH5 0x736F6C6343 STOP ADDMOD NOT STOP CALLER "
		},
		"gasEstimates": {
			"creation": {
				"codeDepositCost": "514200",
				"executionCost": "547",
				"totalCost": "514747"
			},
			"external": {
				"buy(uint256[2],address[2],bytes32,bytes)": "infinite",
				"cancelListing(bytes32,bytes)": "infinite",
				"cancelledListings(bytes32)": "2417",
				"getListingHash(uint256,address,uint256,address,bytes32)": "infinite"
			},
			"internal": {
				"_checkUncancelledListing(bytes32)": "infinite",
				"_checkValidAmountToPay(uint256,uint256)": "infinite",
				"_checkValidBuyer(address)": "infinite",
				"_checkValidListing(bytes32)": "infinite",
				"_checkValidSignature(address,bytes32,bytes calldata)": "infinite"
			}
		},
		"methodIdentifiers": {
			"buy(uint256[2],address[2],bytes32,bytes)": "147fa6a8",
			"cancelListing(bytes32,bytes)": "db98532a",
			"cancelledListings(bytes32)": "02a73507",
			"getListingHash(uint256,address,uint256,address,bytes32)": "dac17732"
		}
	},
	"abi": [
		{
			"inputs": [],
			"name": "ECDSAInvalidSignature",
			"type": "error"
		},
		{
			"inputs": [
				{
					"internalType": "uint256",
					"name": "length",
					"type": "uint256"
				}
			],
			"name": "ECDSAInvalidSignatureLength",
			"type": "error"
		},
		{
			"inputs": [
				{
					"internalType": "bytes32",
					"name": "s",
					"type": "bytes32"
				}
			],
			"name": "ECDSAInvalidSignatureS",
			"type": "error"
		},
		{
			"inputs": [
				{
					"internalType": "uint256",
					"name": "price",
					"type": "uint256"
				},
				{
					"internalType": "uint256",
					"name": "amountToPay",
					"type": "uint256"
				}
			],
			"name": "InvalidAmountToPay",
			"type": "error"
		},
		{
			"inputs": [],
			"name": "InvalidBuyer",
			"type": "error"
		},
		{
			"inputs": [
				{
					"internalType": "bytes32",
					"name": "listingHash",
					"type": "bytes32"
				}
			],
			"name": "InvalidListing",
			"type": "error"
		},
		{
			"inputs": [],
			"name": "InvalidSeller",
			"type": "error"
		},
		{
			"inputs": [
				{
					"internalType": "bytes",
					"name": "signature",
					"type": "bytes"
				},
				{
					"internalType": "address",
					"name": "recoveredAddress",
					"type": "address"
				},
				{
					"internalType": "address",
					"name": "expectedAddress",
					"type": "address"
				}
			],
			"name": "InvalidSignature",
			"type": "error"
		},
		{
			"inputs": [
				{
					"internalType": "bytes32",
					"name": "listingHash",
					"type": "bytes32"
				}
			],
			"name": "ListingAlreadyCancelled",
			"type": "error"
		},
		{
			"inputs": [
				{
					"internalType": "uint256[2]",
					"name": "nums",
					"type": "uint256[2]"
				},
				{
					"internalType": "address[2]",
					"name": "addrs",
					"type": "address[2]"
				},
				{
					"internalType": "bytes32",
					"name": "salt",
					"type": "bytes32"
				},
				{
					"internalType": "bytes",
					"name": "signature",
					"type": "bytes"
				}
			],
			"name": "buy",
			"outputs": [],
			"stateMutability": "payable",
			"type": "function"
		},
		{
			"inputs": [
				{
					"internalType": "bytes32",
					"name": "listingHash",
					"type": "bytes32"
				},
				{
					"internalType": "bytes",
					"name": "signature",
					"type": "bytes"
				}
			],
			"name": "cancelListing",
			"outputs": [],
			"stateMutability": "nonpayable",
			"type": "function"
		},
		{
			"inputs": [
				{
					"internalType": "bytes32",
					"name": "",
					"type": "bytes32"
				}
			],
			"name": "cancelledListings",
			"outputs": [
				{
					"internalType": "bool",
					"name": "",
					"type": "bool"
				}
			],
			"stateMutability": "view",
			"type": "function"
		},
		{
			"inputs": [
				{
					"internalType": "uint256",
					"name": "tokenId",
					"type": "uint256"
				},
				{
					"internalType": "address",
					"name": "seller",
					"type": "address"
				},
				{
					"internalType": "uint256",
					"name": "price",
					"type": "uint256"
				},
				{
					"internalType": "address",
					"name": "nftContract",
					"type": "address"
				},
				{
					"internalType": "bytes32",
					"name": "salt",
					"type": "bytes32"
				}
			],
			"name": "getListingHash",
			"outputs": [
				{
					"internalType": "bytes32",
					"name": "",
					"type": "bytes32"
				}
			],
			"stateMutability": "pure",
			"type": "function"
		}
	]
}