{
	"data": {
		"bytecode": {
			"linkReferences": {},
			"object": "6080604052348015600e575f80fd5b5061081d8061001c5f395ff3fe608060405260043610610058575f3560e01c8063aa8de79411610041578063aa8de7941461009c578063c049604a146100bb578063dac17732146100ce575f80fd5b806304f249381461005c5780639299e5521461007d575b5f80fd5b348015610067575f80fd5b5061007b6100763660046106d8565b610155565b005b348015610088575f80fd5b5061007b610097366004610712565b61027a565b3480156100a7575f80fd5b5061007b6100b6366004610729565b6102d7565b61007b6100c9366004610749565b6102f6565b3480156100d9575f80fd5b506101436100e8366004610777565b604080516020808201979097526bffffffffffffffffffffffff19606096871b81168284015260548201959095529290941b90921660748201526088808201929092528251808203909201825260a801909152805191012090565b60405190815260200160405180910390f35b83836101618282610497565b6040805160208082018990526bffffffffffffffffffffffff1933606090811b8216848601526054840188905289901b16607483015260888083018890528351808403909101815260a890920190925280519101205f906040805160a081018252338082526001600160a01b038a811660208085019182528486018e8152606086018c8152608087018e81525f8a8152938490529783209651875490861673ffffffffffffffffffffffffffffffffffffffff1991821617885593516001880180549190961694169390931790935591516002850155516003840155925160049092019190915591925082907f17a154a37f0fb7c7f440e4672a098f6afcc1ba29bc7ab9ce143014be49d7410e9080a350505050505050565b8061028481610565565b5f828152602081905260408120805473ffffffffffffffffffffffffffffffffffffffff199081168255600182018054909116905560028101829055600381018290556004018190553390839080a25050565b816102e181610565565b505f9182526020829052604090912060030155565b5f8281526020818152604091829020825160a08101845281546001600160a01b03908116825260018301541692810192909252600281015492820192909252600382015460608201526004909101546080820152610353836105b7565b61035c83610607565b61036583610658565b805160408083015190517f42842e0e0000000000000000000000000000000000000000000000000000000081526001600160a01b0392831660048201523360248201526044810191909152908316906342842e0e906064015f604051808303815f87803b1580156103d4575f80fd5b505af11580156103e6573d5f803e3d5ffd5b505082516040516001600160a01b0390911692503480156108fc029250905f818181858888f19350505050158015610420573d5f803e3d5ffd5b505f838152602081905260408120805473ffffffffffffffffffffffffffffffffffffffff19908116825560018201805490911690556002810182905560038101829055600401819055339084907f4c72f34d0e2a0b597a25ae9c086c06c4ac48ba071ecc23757ab1668bcd20be509080a3505050565b6040517f6352211e0000000000000000000000000000000000000000000000000000000081526004810183905233906001600160a01b03831690636352211e90602401602060405180830381865afa1580156104f5573d5f803e3d5ffd5b505050506040513d601f19601f8201168201806040525081019061051991906107c5565b6001600160a01b031614610561576040517f4d65ccb8000000000000000000000000000000000000000000000000000000008152600481018390526024015b60405180910390fd5b5050565b5f818152602081905260409020546001600160a01b031633146105b4576040517fbab7ca3500000000000000000000000000000000000000000000000000000000815260040160405180910390fd5b50565b5f818152602081905260409020546001600160a01b03166105b4576040517f45abffa900000000000000000000000000000000000000000000000000000000815260048101829052602401610558565b5f81815260208190526040902054336001600160a01b03909116036105b4576040517fb1df0e0600000000000000000000000000000000000000000000000000000000815260040160405180910390fd5b5f8181526020819052604090206003015434146105b4575f81815260208190526040908190206003015490517f5cd97799000000000000000000000000000000000000000000000000000000008152600481018390526024810191909152346044820152606401610558565b6001600160a01b03811681146105b4575f80fd5b5f805f80608085870312156106eb575f80fd5b8435935060208501356106fd816106c4565b93969395505050506040820135916060013590565b5f60208284031215610722575f80fd5b5035919050565b5f806040838503121561073a575f80fd5b50508035926020909101359150565b5f806040838503121561075a575f80fd5b82359150602083013561076c816106c4565b809150509250929050565b5f805f805f60a0868803121561078b575f80fd5b85359450602086013561079d816106c4565b93506040860135925060608601356107b4816106c4565b949793965091946080013592915050565b5f602082840312156107d5575f80fd5b81516107e0816106c4565b939250505056fea2646970667358221220ab7a2d1d01e1ff4dd97af4b2e532050e06a564f7eeb334120df2b2ac628c323564736f6c63430008190033",
			"opcodes": "PUSH1 0x80 PUSH1 0x40 MSTORE CALLVALUE DUP1 ISZERO PUSH1 0xE JUMPI PUSH0 DUP1 REVERT JUMPDEST POP PUSH2 0x81D DUP1 PUSH2 0x1C PUSH0 CODECOPY PUSH0 RETURN INVALID PUSH1 0x80 PUSH1 0x40 MSTORE PUSH1 0x4 CALLDATASIZE LT PUSH2 0x58 JUMPI PUSH0 CALLDATALOAD PUSH1 0xE0 SHR DUP1 PUSH4 0xAA8DE794 GT PUSH2 0x41 JUMPI DUP1 PUSH4 0xAA8DE794 EQ PUSH2 0x9C JUMPI DUP1 PUSH4 0xC049604A EQ PUSH2 0xBB JUMPI DUP1 PUSH4 0xDAC17732 EQ PUSH2 0xCE JUMPI PUSH0 DUP1 REVERT JUMPDEST DUP1 PUSH4 0x4F24938 EQ PUSH2 0x5C JUMPI DUP1 PUSH4 0x9299E552 EQ PUSH2 0x7D JUMPI JUMPDEST PUSH0 DUP1 REVERT JUMPDEST CALLVALUE DUP1 ISZERO PUSH2 0x67 JUMPI PUSH0 DUP1 REVERT JUMPDEST POP PUSH2 0x7B PUSH2 0x76 CALLDATASIZE PUSH1 0x4 PUSH2 0x6D8 JUMP JUMPDEST PUSH2 0x155 JUMP JUMPDEST STOP JUMPDEST CALLVALUE DUP1 ISZERO PUSH2 0x88 JUMPI PUSH0 DUP1 REVERT JUMPDEST POP PUSH2 0x7B PUSH2 0x97 CALLDATASIZE PUSH1 0x4 PUSH2 0x712 JUMP JUMPDEST PUSH2 0x27A JUMP JUMPDEST CALLVALUE DUP1 ISZERO PUSH2 0xA7 JUMPI PUSH0 DUP1 REVERT JUMPDEST POP PUSH2 0x7B PUSH2 0xB6 CALLDATASIZE PUSH1 0x4 PUSH2 0x729 JUMP JUMPDEST PUSH2 0x2D7 JUMP JUMPDEST PUSH2 0x7B PUSH2 0xC9 CALLDATASIZE PUSH1 0x4 PUSH2 0x749 JUMP JUMPDEST PUSH2 0x2F6 JUMP JUMPDEST CALLVALUE DUP1 ISZERO PUSH2 0xD9 JUMPI PUSH0 DUP1 REVERT JUMPDEST POP PUSH2 0x143 PUSH2 0xE8 CALLDATASIZE PUSH1 0x4 PUSH2 0x777 JUMP JUMPDEST PUSH1 0x40 DUP1 MLOAD PUSH1 0x20 DUP1 DUP3 ADD SWAP8 SWAP1 SWAP8 MSTORE PUSH12 0xFFFFFFFFFFFFFFFFFFFFFFFF NOT PUSH1 0x60 SWAP7 DUP8 SHL DUP2 AND DUP3 DUP5 ADD MSTORE PUSH1 0x54 DUP3 ADD SWAP6 SWAP1 SWAP6 MSTORE SWAP3 SWAP1 SWAP5 SHL SWAP1 SWAP3 AND PUSH1 0x74 DUP3 ADD MSTORE PUSH1 0x88 DUP1 DUP3 ADD SWAP3 SWAP1 SWAP3 MSTORE DUP3 MLOAD DUP1 DUP3 SUB SWAP1 SWAP3 ADD DUP3 MSTORE PUSH1 0xA8 ADD SWAP1 SWAP2 MSTORE DUP1 MLOAD SWAP2 ADD KECCAK256 SWAP1 JUMP JUMPDEST PUSH1 0x40 MLOAD SWAP1 DUP2 MSTORE PUSH1 0x20 ADD PUSH1 0x40 MLOAD DUP1 SWAP2 SUB SWAP1 RETURN JUMPDEST DUP4 DUP4 PUSH2 0x161 DUP3 DUP3 PUSH2 0x497 JUMP JUMPDEST PUSH1 0x40 DUP1 MLOAD PUSH1 0x20 DUP1 DUP3 ADD DUP10 SWAP1 MSTORE PUSH12 0xFFFFFFFFFFFFFFFFFFFFFFFF NOT CALLER PUSH1 0x60 SWAP1 DUP2 SHL DUP3 AND DUP5 DUP7 ADD MSTORE PUSH1 0x54 DUP5 ADD DUP9 SWAP1 MSTORE DUP10 SWAP1 SHL AND PUSH1 0x74 DUP4 ADD MSTORE PUSH1 0x88 DUP1 DUP4 ADD DUP9 SWAP1 MSTORE DUP4 MLOAD DUP1 DUP5 SUB SWAP1 SWAP2 ADD DUP2 MSTORE PUSH1 0xA8 SWAP1 SWAP3 ADD SWAP1 SWAP3 MSTORE DUP1 MLOAD SWAP2 ADD KECCAK256 PUSH0 SWAP1 PUSH1 0x40 DUP1 MLOAD PUSH1 0xA0 DUP2 ADD DUP3 MSTORE CALLER DUP1 DUP3 MSTORE PUSH1 0x1 PUSH1 0x1 PUSH1 0xA0 SHL SUB DUP11 DUP2 AND PUSH1 0x20 DUP1 DUP6 ADD SWAP2 DUP3 MSTORE DUP5 DUP7 ADD DUP15 DUP2 MSTORE PUSH1 0x60 DUP7 ADD DUP13 DUP2 MSTORE PUSH1 0x80 DUP8 ADD DUP15 DUP2 MSTORE PUSH0 DUP11 DUP2 MSTORE SWAP4 DUP5 SWAP1 MSTORE SWAP8 DUP4 KECCAK256 SWAP7 MLOAD DUP8 SLOAD SWAP1 DUP7 AND PUSH20 0xFFFFFFFFFFFFFFFFFFFFFFFFFFFFFFFFFFFFFFFF NOT SWAP2 DUP3 AND OR DUP9 SSTORE SWAP4 MLOAD PUSH1 0x1 DUP9 ADD DUP1 SLOAD SWAP2 SWAP1 SWAP7 AND SWAP5 AND SWAP4 SWAP1 SWAP4 OR SWAP1 SWAP4 SSTORE SWAP2 MLOAD PUSH1 0x2 DUP6 ADD SSTORE MLOAD PUSH1 0x3 DUP5 ADD SSTORE SWAP3 MLOAD PUSH1 0x4 SWAP1 SWAP3 ADD SWAP2 SWAP1 SWAP2 SSTORE SWAP2 SWAP3 POP DUP3 SWAP1 PUSH32 0x17A154A37F0FB7C7F440E4672A098F6AFCC1BA29BC7AB9CE143014BE49D7410E SWAP1 DUP1 LOG3 POP POP POP POP POP POP POP JUMP JUMPDEST DUP1 PUSH2 0x284 DUP2 PUSH2 0x565 JUMP JUMPDEST PUSH0 DUP3 DUP2 MSTORE PUSH1 0x20 DUP2 SWAP1 MSTORE PUSH1 0x40 DUP2 KECCAK256 DUP1 SLOAD PUSH20 0xFFFFFFFFFFFFFFFFFFFFFFFFFFFFFFFFFFFFFFFF NOT SWAP1 DUP2 AND DUP3 SSTORE PUSH1 0x1 DUP3 ADD DUP1 SLOAD SWAP1 SWAP2 AND SWAP1 SSTORE PUSH1 0x2 DUP2 ADD DUP3 SWAP1 SSTORE PUSH1 0x3 DUP2 ADD DUP3 SWAP1 SSTORE PUSH1 0x4 ADD DUP2 SWAP1 SSTORE CALLER SWAP1 DUP4 SWAP1 DUP1 LOG2 POP POP JUMP JUMPDEST DUP2 PUSH2 0x2E1 DUP2 PUSH2 0x565 JUMP JUMPDEST POP PUSH0 SWAP2 DUP3 MSTORE PUSH1 0x20 DUP3 SWAP1 MSTORE PUSH1 0x40 SWAP1 SWAP2 KECCAK256 PUSH1 0x3 ADD SSTORE JUMP JUMPDEST PUSH0 DUP3 DUP2 MSTORE PUSH1 0x20 DUP2 DUP2 MSTORE PUSH1 0x40 SWAP2 DUP3 SWAP1 KECCAK256 DUP3 MLOAD PUSH1 0xA0 DUP2 ADD DUP5 MSTORE DUP2 SLOAD PUSH1 0x1 PUSH1 0x1 PUSH1 0xA0 SHL SUB SWAP1 DUP2 AND DUP3 MSTORE PUSH1 0x1 DUP4 ADD SLOAD AND SWAP3 DUP2 ADD SWAP3 SWAP1 SWAP3 MSTORE PUSH1 0x2 DUP2 ADD SLOAD SWAP3 DUP3 ADD SWAP3 SWAP1 SWAP3 MSTORE PUSH1 0x3 DUP3 ADD SLOAD PUSH1 0x60 DUP3 ADD MSTORE PUSH1 0x4 SWAP1 SWAP2 ADD SLOAD PUSH1 0x80 DUP3 ADD MSTORE PUSH2 0x353 DUP4 PUSH2 0x5B7 JUMP JUMPDEST PUSH2 0x35C DUP4 PUSH2 0x607 JUMP JUMPDEST PUSH2 0x365 DUP4 PUSH2 0x658 JUMP JUMPDEST DUP1 MLOAD PUSH1 0x40 DUP1 DUP4 ADD MLOAD SWAP1 MLOAD PUSH32 0x42842E0E00000000000000000000000000000000000000000000000000000000 DUP2 MSTORE PUSH1 0x1 PUSH1 0x1 PUSH1 0xA0 SHL SUB SWAP3 DUP4 AND PUSH1 0x4 DUP3 ADD MSTORE CALLER PUSH1 0x24 DUP3 ADD MSTORE PUSH1 0x44 DUP2 ADD SWAP2 SWAP1 SWAP2 MSTORE SWAP1 DUP4 AND SWAP1 PUSH4 0x42842E0E SWAP1 PUSH1 0x64 ADD PUSH0 PUSH1 0x40 MLOAD DUP1 DUP4 SUB DUP2 PUSH0 DUP8 DUP1 EXTCODESIZE ISZERO DUP1 ISZERO PUSH2 0x3D4 JUMPI PUSH0 DUP1 REVERT JUMPDEST POP GAS CALL ISZERO DUP1 ISZERO PUSH2 0x3E6 JUMPI RETURNDATASIZE PUSH0 DUP1 RETURNDATACOPY RETURNDATASIZE PUSH0 REVERT JUMPDEST POP POP DUP3 MLOAD PUSH1 0x40 MLOAD PUSH1 0x1 PUSH1 0x1 PUSH1 0xA0 SHL SUB SWAP1 SWAP2 AND SWAP3 POP CALLVALUE DUP1 ISZERO PUSH2 0x8FC MUL SWAP3 POP SWAP1 PUSH0 DUP2 DUP2 DUP2 DUP6 DUP9 DUP9 CALL SWAP4 POP POP POP POP ISZERO DUP1 ISZERO PUSH2 0x420 JUMPI RETURNDATASIZE PUSH0 DUP1 RETURNDATACOPY RETURNDATASIZE PUSH0 REVERT JUMPDEST POP PUSH0 DUP4 DUP2 MSTORE PUSH1 0x20 DUP2 SWAP1 MSTORE PUSH1 0x40 DUP2 KECCAK256 DUP1 SLOAD PUSH20 0xFFFFFFFFFFFFFFFFFFFFFFFFFFFFFFFFFFFFFFFF NOT SWAP1 DUP2 AND DUP3 SSTORE PUSH1 0x1 DUP3 ADD DUP1 SLOAD SWAP1 SWAP2 AND SWAP1 SSTORE PUSH1 0x2 DUP2 ADD DUP3 SWAP1 SSTORE PUSH1 0x3 DUP2 ADD DUP3 SWAP1 SSTORE PUSH1 0x4 ADD DUP2 SWAP1 SSTORE CALLER SWAP1 DUP5 SWAP1 PUSH32 0x4C72F34D0E2A0B597A25AE9C086C06C4AC48BA071ECC23757AB1668BCD20BE50 SWAP1 DUP1 LOG3 POP POP POP JUMP JUMPDEST PUSH1 0x40 MLOAD PUSH32 0x6352211E00000000000000000000000000000000000000000000000000000000 DUP2 MSTORE PUSH1 0x4 DUP2 ADD DUP4 SWAP1 MSTORE CALLER SWAP1 PUSH1 0x1 PUSH1 0x1 PUSH1 0xA0 SHL SUB DUP4 AND SWAP1 PUSH4 0x6352211E SWAP1 PUSH1 0x24 ADD PUSH1 0x20 PUSH1 0x40 MLOAD DUP1 DUP4 SUB DUP2 DUP7 GAS STATICCALL ISZERO DUP1 ISZERO PUSH2 0x4F5 JUMPI RETURNDATASIZE PUSH0 DUP1 RETURNDATACOPY RETURNDATASIZE PUSH0 REVERT JUMPDEST POP POP POP POP PUSH1 0x40 MLOAD RETURNDATASIZE PUSH1 0x1F NOT PUSH1 0x1F DUP3 ADD AND DUP3 ADD DUP1 PUSH1 0x40 MSTORE POP DUP2 ADD SWAP1 PUSH2 0x519 SWAP2 SWAP1 PUSH2 0x7C5 JUMP JUMPDEST PUSH1 0x1 PUSH1 0x1 PUSH1 0xA0 SHL SUB AND EQ PUSH2 0x561 JUMPI PUSH1 0x40 MLOAD PUSH32 0x4D65CCB800000000000000000000000000000000000000000000000000000000 DUP2 MSTORE PUSH1 0x4 DUP2 ADD DUP4 SWAP1 MSTORE PUSH1 0x24 ADD JUMPDEST PUSH1 0x40 MLOAD DUP1 SWAP2 SUB SWAP1 REVERT JUMPDEST POP POP JUMP JUMPDEST PUSH0 DUP2 DUP2 MSTORE PUSH1 0x20 DUP2 SWAP1 MSTORE PUSH1 0x40 SWAP1 KECCAK256 SLOAD PUSH1 0x1 PUSH1 0x1 PUSH1 0xA0 SHL SUB AND CALLER EQ PUSH2 0x5B4 JUMPI PUSH1 0x40 MLOAD PUSH32 0xBAB7CA3500000000000000000000000000000000000000000000000000000000 DUP2 MSTORE PUSH1 0x4 ADD PUSH1 0x40 MLOAD DUP1 SWAP2 SUB SWAP1 REVERT JUMPDEST POP JUMP JUMPDEST PUSH0 DUP2 DUP2 MSTORE PUSH1 0x20 DUP2 SWAP1 MSTORE PUSH1 0x40 SWAP1 KECCAK256 SLOAD PUSH1 0x1 PUSH1 0x1 PUSH1 0xA0 SHL SUB AND PUSH2 0x5B4 JUMPI PUSH1 0x40 MLOAD PUSH32 0x45ABFFA900000000000000000000000000000000000000000000000000000000 DUP2 MSTORE PUSH1 0x4 DUP2 ADD DUP3 SWAP1 MSTORE PUSH1 0x24 ADD PUSH2 0x558 JUMP JUMPDEST PUSH0 DUP2 DUP2 MSTORE PUSH1 0x20 DUP2 SWAP1 MSTORE PUSH1 0x40 SWAP1 KECCAK256 SLOAD CALLER PUSH1 0x1 PUSH1 0x1 PUSH1 0xA0 SHL SUB SWAP1 SWAP2 AND SUB PUSH2 0x5B4 JUMPI PUSH1 0x40 MLOAD PUSH32 0xB1DF0E0600000000000000000000000000000000000000000000000000000000 DUP2 MSTORE PUSH1 0x4 ADD PUSH1 0x40 MLOAD DUP1 SWAP2 SUB SWAP1 REVERT JUMPDEST PUSH0 DUP2 DUP2 MSTORE PUSH1 0x20 DUP2 SWAP1 MSTORE PUSH1 0x40 SWAP1 KECCAK256 PUSH1 0x3 ADD SLOAD CALLVALUE EQ PUSH2 0x5B4 JUMPI PUSH0 DUP2 DUP2 MSTORE PUSH1 0x20 DUP2 SWAP1 MSTORE PUSH1 0x40 SWAP1 DUP2 SWAP1 KECCAK256 PUSH1 0x3 ADD SLOAD SWAP1 MLOAD PUSH32 0x5CD9779900000000000000000000000000000000000000000000000000000000 DUP2 MSTORE PUSH1 0x4 DUP2 ADD DUP4 SWAP1 MSTORE PUSH1 0x24 DUP2 ADD SWAP2 SWAP1 SWAP2 MSTORE CALLVALUE PUSH1 0x44 DUP3 ADD MSTORE PUSH1 0x64 ADD PUSH2 0x558 JUMP JUMPDEST PUSH1 0x1 PUSH1 0x1 PUSH1 0xA0 SHL SUB DUP2 AND DUP2 EQ PUSH2 0x5B4 JUMPI PUSH0 DUP1 REVERT JUMPDEST PUSH0 DUP1 PUSH0 DUP1 PUSH1 0x80 DUP6 DUP8 SUB SLT ISZERO PUSH2 0x6EB JUMPI PUSH0 DUP1 REVERT JUMPDEST DUP5 CALLDATALOAD SWAP4 POP PUSH1 0x20 DUP6 ADD CALLDATALOAD PUSH2 0x6FD DUP2 PUSH2 0x6C4 JUMP JUMPDEST SWAP4 SWAP7 SWAP4 SWAP6 POP POP POP POP PUSH1 0x40 DUP3 ADD CALLDATALOAD SWAP2 PUSH1 0x60 ADD CALLDATALOAD SWAP1 JUMP JUMPDEST PUSH0 PUSH1 0x20 DUP3 DUP5 SUB SLT ISZERO PUSH2 0x722 JUMPI PUSH0 DUP1 REVERT JUMPDEST POP CALLDATALOAD SWAP2 SWAP1 POP JUMP JUMPDEST PUSH0 DUP1 PUSH1 0x40 DUP4 DUP6 SUB SLT ISZERO PUSH2 0x73A JUMPI PUSH0 DUP1 REVERT JUMPDEST POP POP DUP1 CALLDATALOAD SWAP3 PUSH1 0x20 SWAP1 SWAP2 ADD CALLDATALOAD SWAP2 POP JUMP JUMPDEST PUSH0 DUP1 PUSH1 0x40 DUP4 DUP6 SUB SLT ISZERO PUSH2 0x75A JUMPI PUSH0 DUP1 REVERT JUMPDEST DUP3 CALLDATALOAD SWAP2 POP PUSH1 0x20 DUP4 ADD CALLDATALOAD PUSH2 0x76C DUP2 PUSH2 0x6C4 JUMP JUMPDEST DUP1 SWAP2 POP POP SWAP3 POP SWAP3 SWAP1 POP JUMP JUMPDEST PUSH0 DUP1 PUSH0 DUP1 PUSH0 PUSH1 0xA0 DUP7 DUP9 SUB SLT ISZERO PUSH2 0x78B JUMPI PUSH0 DUP1 REVERT JUMPDEST DUP6 CALLDATALOAD SWAP5 POP PUSH1 0x20 DUP7 ADD CALLDATALOAD PUSH2 0x79D DUP2 PUSH2 0x6C4 JUMP JUMPDEST SWAP4 POP PUSH1 0x40 DUP7 ADD CALLDATALOAD SWAP3 POP PUSH1 0x60 DUP7 ADD CALLDATALOAD PUSH2 0x7B4 DUP2 PUSH2 0x6C4 JUMP JUMPDEST SWAP5 SWAP8 SWAP4 SWAP7 POP SWAP2 SWAP5 PUSH1 0x80 ADD CALLDATALOAD SWAP3 SWAP2 POP POP JUMP JUMPDEST PUSH0 PUSH1 0x20 DUP3 DUP5 SUB SLT ISZERO PUSH2 0x7D5 JUMPI PUSH0 DUP1 REVERT JUMPDEST DUP2 MLOAD PUSH2 0x7E0 DUP2 PUSH2 0x6C4 JUMP JUMPDEST SWAP4 SWAP3 POP POP POP JUMP INVALID LOG2 PUSH5 0x6970667358 0x22 SLT KECCAK256 0xAB PUSH27 0x2D1D01E1FF4DD97AF4B2E532050E06A564F7EEB334120DF2B2AC62 DUP13 ORIGIN CALLDATALOAD PUSH5 0x736F6C6343 STOP ADDMOD NOT STOP CALLER "
		},
		"gasEstimates": {
			"creation": {
				"codeDepositCost": "415400",
				"executionCost": "447",
				"totalCost": "415847"
			},
			"external": {
				"buy(bytes32,address)": "infinite",
				"cancelListing(bytes32)": "67183",
				"changeListingPrice(bytes32,uint256)": "24664",
				"createListing(uint256,address,bytes32,uint256)": "infinite",
				"getListingHash(uint256,address,uint256,address,bytes32)": "infinite"
			},
			"internal": {
				"_checkIfSeller(bytes32)": "infinite",
				"_checkNFTOwned(uint256,address)": "infinite",
				"_checkValidAmountToPay(bytes32)": "infinite",
				"_checkValidBuyer(bytes32)": "infinite",
				"_checkValidListing(bytes32)": "infinite"
			}
		},
		"methodIdentifiers": {
			"buy(bytes32,address)": "c049604a",
			"cancelListing(bytes32)": "9299e552",
			"changeListingPrice(bytes32,uint256)": "aa8de794",
			"createListing(uint256,address,bytes32,uint256)": "04f24938",
			"getListingHash(uint256,address,uint256,address,bytes32)": "dac17732"
		}
	},
	"abi": [
		{
			"inputs": [
				{
					"internalType": "bytes32",
					"name": "listingHash",
					"type": "bytes32"
				},
				{
					"internalType": "uint256",
					"name": "price",
					"type": "uint256"
				},
				{
					"internalType": "uint256",
					"name": "amountToPay",
					"type": "uint256"
				}
			],
			"name": "InvalidAmountToPay",
			"type": "error"
		},
		{
			"inputs": [],
			"name": "InvalidBuyer",
			"type": "error"
		},
		{
			"inputs": [
				{
					"internalType": "bytes32",
					"name": "listingHash",
					"type": "bytes32"
				}
			],
			"name": "InvalidListing",
			"type": "error"
		},
		{
			"inputs": [],
			"name": "InvalidSeller",
			"type": "error"
		},
		{
			"inputs": [
				{
					"internalType": "bytes32",
					"name": "listingHash",
					"type": "bytes32"
				}
			],
			"name": "ListingAlreadyCancelled",
			"type": "error"
		},
		{
			"inputs": [
				{
					"internalType": "bytes32",
					"name": "listingHash",
					"type": "bytes32"
				}
			],
			"name": "ListingNotFound",
			"type": "error"
		},
		{
			"inputs": [
				{
					"internalType": "uint256",
					"name": "tokenId",
					"type": "uint256"
				}
			],
			"name": "NotOwner",
			"type": "error"
		},
		{
			"inputs": [
				{
					"internalType": "bytes32",
					"name": "listingHash",
					"type": "bytes32"
				},
				{
					"internalType": "address",
					"name": "nftContract",
					"type": "address"
				}
			],
			"name": "buy",
			"outputs": [],
			"stateMutability": "payable",
			"type": "function"
		},
		{
			"inputs": [
				{
					"internalType": "bytes32",
					"name": "listingHash",
					"type": "bytes32"
				}
			],
			"name": "cancelListing",
			"outputs": [],
			"stateMutability": "nonpayable",
			"type": "function"
		},
		{
			"inputs": [
				{
					"internalType": "bytes32",
					"name": "listingHash",
					"type": "bytes32"
				},
				{
					"internalType": "uint256",
					"name": "price",
					"type": "uint256"
				}
			],
			"name": "changeListingPrice",
			"outputs": [],
			"stateMutability": "nonpayable",
			"type": "function"
		},
		{
			"inputs": [
				{
					"internalType": "uint256",
					"name": "tokenId",
					"type": "uint256"
				},
				{
					"internalType": "address",
					"name": "nftContract",
					"type": "address"
				},
				{
					"internalType": "bytes32",
					"name": "salt",
					"type": "bytes32"
				},
				{
					"internalType": "uint256",
					"name": "price",
					"type": "uint256"
				}
			],
			"name": "createListing",
			"outputs": [],
			"stateMutability": "nonpayable",
			"type": "function"
		},
		{
			"inputs": [
				{
					"internalType": "uint256",
					"name": "tokenId",
					"type": "uint256"
				},
				{
					"internalType": "address",
					"name": "seller",
					"type": "address"
				},
				{
					"internalType": "uint256",
					"name": "price",
					"type": "uint256"
				},
				{
					"internalType": "address",
					"name": "nftContract",
					"type": "address"
				},
				{
					"internalType": "bytes32",
					"name": "salt",
					"type": "bytes32"
				}
			],
			"name": "getListingHash",
			"outputs": [
				{
					"internalType": "bytes32",
					"name": "",
					"type": "bytes32"
				}
			],
			"stateMutability": "pure",
			"type": "function"
		}
	]
}