{
	"data": {
		"bytecode": {
			"linkReferences": {},
			"object": "6080604052348015600e575f80fd5b5060fb8061001b5f395ff3fe6080604052348015600e575f80fd5b50600436106030575f3560e01c806306661abd146034578063e5071b8e14604d575b5f80fd5b603b5f5481565b60405190815260200160405180910390f35b60536055565b005b5f805b6014811015607157606881836088565b91506001016058565b50805f80828254608091906088565b909155505050565b8082018082111560bf577f4e487b71000000000000000000000000000000000000000000000000000000005f52601160045260245ffd5b9291505056fea26469706673582212206fd0c11e2f9c82a73c23cd666e8036d7385a97ac31f64c93b8ee508f4ded012c64736f6c63430008190033",
			"opcodes": "PUSH1 0x80 PUSH1 0x40 MSTORE CALLVALUE DUP1 ISZERO PUSH1 0xE JUMPI PUSH0 DUP1 REVERT JUMPDEST POP PUSH1 0xFB DUP1 PUSH2 0x1B PUSH0 CODECOPY PUSH0 RETURN INVALID PUSH1 0x80 PUSH1 0x40 MSTORE CALLVALUE DUP1 ISZERO PUSH1 0xE JUMPI PUSH0 DUP1 REVERT JUMPDEST POP PUSH1 0x4 CALLDATASIZE LT PUSH1 0x30 JUMPI PUSH0 CALLDATALOAD PUSH1 0xE0 SHR DUP1 PUSH4 0x6661ABD EQ PUSH1 0x34 JUMPI DUP1 PUSH4 0xE5071B8E EQ PUSH1 0x4D JUMPI JUMPDEST PUSH0 DUP1 REVERT JUMPDEST PUSH1 0x3B PUSH0 SLOAD DUP2 JUMP JUMPDEST PUSH1 0x40 MLOAD SWAP1 DUP2 MSTORE PUSH1 0x20 ADD PUSH1 0x40 MLOAD DUP1 SWAP2 SUB SWAP1 RETURN JUMPDEST PUSH1 0x53 PUSH1 0x55 JUMP JUMPDEST STOP JUMPDEST PUSH0 DUP1 JUMPDEST PUSH1 0x14 DUP2 LT ISZERO PUSH1 0x71 JUMPI PUSH1 0x68 DUP2 DUP4 PUSH1 0x88 JUMP JUMPDEST SWAP2 POP PUSH1 0x1 ADD PUSH1 0x58 JUMP JUMPDEST POP DUP1 PUSH0 DUP1 DUP3 DUP3 SLOAD PUSH1 0x80 SWAP2 SWAP1 PUSH1 0x88 JUMP JUMPDEST SWAP1 SWAP2 SSTORE POP POP POP JUMP JUMPDEST DUP1 DUP3 ADD DUP1 DUP3 GT ISZERO PUSH1 0xBF JUMPI PUSH32 0x4E487B7100000000000000000000000000000000000000000000000000000000 PUSH0 MSTORE PUSH1 0x11 PUSH1 0x4 MSTORE PUSH1 0x24 PUSH0 REVERT JUMPDEST SWAP3 SWAP2 POP POP JUMP INVALID LOG2 PUSH5 0x6970667358 0x22 SLT KECCAK256 PUSH16 0xD0C11E2F9C82A73C23CD666E8036D738 GAS SWAP8 0xAC BALANCE 0xF6 0x4C SWAP4 0xB8 0xEE POP DUP16 0x4D 0xED ADD 0x2C PUSH5 0x736F6C6343 STOP ADDMOD NOT STOP CALLER "
		},
		"gasEstimates": {
			"creation": {
				"codeDepositCost": "50200",
				"executionCost": "97",
				"totalCost": "50297"
			},
			"external": {
				"count()": "2259",
				"incrementCount()": "infinite"
			}
		},
		"methodIdentifiers": {
			"count()": "06661abd",
			"incrementCount()": "e5071b8e"
		}
	},
	"abi": [
		{
			"inputs": [],
			"name": "count",
			"outputs": [
				{
					"internalType": "uint256",
					"name": "",
					"type": "uint256"
				}
			],
			"stateMutability": "view",
			"type": "function"
		},
		{
			"inputs": [],
			"name": "incrementCount",
			"outputs": [],
			"stateMutability": "nonpayable",
			"type": "function"
		}
	]
}