{
	"contracts/ContractS/ContractSV2.sol": {
		"ContractSV2": {
			"abi": [
				{
					"inputs": [],
					"stateMutability": "nonpayable",
					"type": "constructor"
				},
				{
					"inputs": [],
					"name": "ApprovalCallerNotOwnerNorApproved",
					"type": "error"
				},
				{
					"inputs": [],
					"name": "ApprovalQueryForNonexistentToken",
					"type": "error"
				},
				{
					"inputs": [],
					"name": "BalanceQueryForZeroAddress",
					"type": "error"
				},
				{
					"inputs": [],
					"name": "MintERC2309QuantityExceedsLimit",
					"type": "error"
				},
				{
					"inputs": [],
					"name": "MintToZeroAddress",
					"type": "error"
				},
				{
					"inputs": [],
					"name": "MintZeroQuantity",
					"type": "error"
				},
				{
					"inputs": [],
					"name": "NotCompatibleWithSpotMints",
					"type": "error"
				},
				{
					"inputs": [],
					"name": "OwnerQueryForNonexistentToken",
					"type": "error"
				},
				{
					"inputs": [],
					"name": "OwnershipNotInitializedForExtraData",
					"type": "error"
				},
				{
					"inputs": [],
					"name": "SequentialMintExceedsLimit",
					"type": "error"
				},
				{
					"inputs": [],
					"name": "SequentialUpToTooSmall",
					"type": "error"
				},
				{
					"inputs": [],
					"name": "SpotMintTokenIdTooSmall",
					"type": "error"
				},
				{
					"inputs": [],
					"name": "TokenAlreadyExists",
					"type": "error"
				},
				{
					"inputs": [],
					"name": "TransferCallerNotOwnerNorApproved",
					"type": "error"
				},
				{
					"inputs": [],
					"name": "TransferFromIncorrectOwner",
					"type": "error"
				},
				{
					"inputs": [],
					"name": "TransferToNonERC721ReceiverImplementer",
					"type": "error"
				},
				{
					"inputs": [],
					"name": "TransferToZeroAddress",
					"type": "error"
				},
				{
					"inputs": [],
					"name": "URIQueryForNonexistentToken",
					"type": "error"
				},
				{
					"anonymous": false,
					"inputs": [
						{
							"indexed": true,
							"internalType": "address",
							"name": "owner",
							"type": "address"
						},
						{
							"indexed": true,
							"internalType": "address",
							"name": "approved",
							"type": "address"
						},
						{
							"indexed": true,
							"internalType": "uint256",
							"name": "tokenId",
							"type": "uint256"
						}
					],
					"name": "Approval",
					"type": "event"
				},
				{
					"anonymous": false,
					"inputs": [
						{
							"indexed": true,
							"internalType": "address",
							"name": "owner",
							"type": "address"
						},
						{
							"indexed": true,
							"internalType": "address",
							"name": "operator",
							"type": "address"
						},
						{
							"indexed": false,
							"internalType": "bool",
							"name": "approved",
							"type": "bool"
						}
					],
					"name": "ApprovalForAll",
					"type": "event"
				},
				{
					"anonymous": false,
					"inputs": [
						{
							"indexed": true,
							"internalType": "uint256",
							"name": "fromTokenId",
							"type": "uint256"
						},
						{
							"indexed": false,
							"internalType": "uint256",
							"name": "toTokenId",
							"type": "uint256"
						},
						{
							"indexed": true,
							"internalType": "address",
							"name": "from",
							"type": "address"
						},
						{
							"indexed": true,
							"internalType": "address",
							"name": "to",
							"type": "address"
						}
					],
					"name": "ConsecutiveTransfer",
					"type": "event"
				},
				{
					"anonymous": false,
					"inputs": [
						{
							"indexed": true,
							"internalType": "address",
							"name": "from",
							"type": "address"
						},
						{
							"indexed": true,
							"internalType": "address",
							"name": "to",
							"type": "address"
						},
						{
							"indexed": true,
							"internalType": "uint256",
							"name": "tokenId",
							"type": "uint256"
						}
					],
					"name": "Transfer",
					"type": "event"
				},
				{
					"inputs": [
						{
							"internalType": "address",
							"name": "to",
							"type": "address"
						},
						{
							"internalType": "uint256",
							"name": "tokenId",
							"type": "uint256"
						}
					],
					"name": "approve",
					"outputs": [],
					"stateMutability": "payable",
					"type": "function"
				},
				{
					"inputs": [
						{
							"internalType": "address",
							"name": "owner",
							"type": "address"
						}
					],
					"name": "balanceOf",
					"outputs": [
						{
							"internalType": "uint256",
							"name": "",
							"type": "uint256"
						}
					],
					"stateMutability": "view",
					"type": "function"
				},
				{
					"inputs": [
						{
							"internalType": "address",
							"name": "to",
							"type": "address"
						},
						{
							"internalType": "uint256",
							"name": "quantity",
							"type": "uint256"
						}
					],
					"name": "batchMint",
					"outputs": [],
					"stateMutability": "nonpayable",
					"type": "function"
				},
				{
					"inputs": [
						{
							"internalType": "uint256",
							"name": "tokenId",
							"type": "uint256"
						}
					],
					"name": "getApproved",
					"outputs": [
						{
							"internalType": "address",
							"name": "",
							"type": "address"
						}
					],
					"stateMutability": "view",
					"type": "function"
				},
				{
					"inputs": [
						{
							"internalType": "address",
							"name": "owner",
							"type": "address"
						},
						{
							"internalType": "address",
							"name": "operator",
							"type": "address"
						}
					],
					"name": "isApprovedForAll",
					"outputs": [
						{
							"internalType": "bool",
							"name": "",
							"type": "bool"
						}
					],
					"stateMutability": "view",
					"type": "function"
				},
				{
					"inputs": [],
					"name": "name",
					"outputs": [
						{
							"internalType": "string",
							"name": "",
							"type": "string"
						}
					],
					"stateMutability": "view",
					"type": "function"
				},
				{
					"inputs": [
						{
							"internalType": "uint256",
							"name": "tokenId",
							"type": "uint256"
						}
					],
					"name": "ownerOf",
					"outputs": [
						{
							"internalType": "address",
							"name": "",
							"type": "address"
						}
					],
					"stateMutability": "view",
					"type": "function"
				},
				{
					"inputs": [
						{
							"internalType": "address",
							"name": "from",
							"type": "address"
						},
						{
							"internalType": "address",
							"name": "to",
							"type": "address"
						},
						{
							"internalType": "uint256",
							"name": "tokenId",
							"type": "uint256"
						}
					],
					"name": "safeTransferFrom",
					"outputs": [],
					"stateMutability": "payable",
					"type": "function"
				},
				{
					"inputs": [
						{
							"internalType": "address",
							"name": "from",
							"type": "address"
						},
						{
							"internalType": "address",
							"name": "to",
							"type": "address"
						},
						{
							"internalType": "uint256",
							"name": "tokenId",
							"type": "uint256"
						},
						{
							"internalType": "bytes",
							"name": "_data",
							"type": "bytes"
						}
					],
					"name": "safeTransferFrom",
					"outputs": [],
					"stateMutability": "payable",
					"type": "function"
				},
				{
					"inputs": [
						{
							"internalType": "address",
							"name": "operator",
							"type": "address"
						},
						{
							"internalType": "bool",
							"name": "approved",
							"type": "bool"
						}
					],
					"name": "setApprovalForAll",
					"outputs": [],
					"stateMutability": "nonpayable",
					"type": "function"
				},
				{
					"inputs": [
						{
							"internalType": "bytes4",
							"name": "interfaceId",
							"type": "bytes4"
						}
					],
					"name": "supportsInterface",
					"outputs": [
						{
							"internalType": "bool",
							"name": "",
							"type": "bool"
						}
					],
					"stateMutability": "view",
					"type": "function"
				},
				{
					"inputs": [],
					"name": "symbol",
					"outputs": [
						{
							"internalType": "string",
							"name": "",
							"type": "string"
						}
					],
					"stateMutability": "view",
					"type": "function"
				},
				{
					"inputs": [
						{
							"internalType": "uint256",
							"name": "tokenId",
							"type": "uint256"
						}
					],
					"name": "tokenURI",
					"outputs": [
						{
							"internalType": "string",
							"name": "",
							"type": "string"
						}
					],
					"stateMutability": "view",
					"type": "function"
				},
				{
					"inputs": [],
					"name": "totalSupply",
					"outputs": [
						{
							"internalType": "uint256",
							"name": "result",
							"type": "uint256"
						}
					],
					"stateMutability": "view",
					"type": "function"
				},
				{
					"inputs": [
						{
							"internalType": "address",
							"name": "from",
							"type": "address"
						},
						{
							"internalType": "address",
							"name": "to",
							"type": "address"
						},
						{
							"internalType": "uint256",
							"name": "tokenId",
							"type": "uint256"
						}
					],
					"name": "transferFrom",
					"outputs": [],
					"stateMutability": "payable",
					"type": "function"
				}
			],
			"devdoc": {
				"events": {
					"Approval(address,address,uint256)": {
						"details": "Emitted when `owner` enables `approved` to manage the `tokenId` token."
					},
					"ApprovalForAll(address,address,bool)": {
						"details": "Emitted when `owner` enables or disables (`approved`) `operator` to manage all of its assets."
					},
					"ConsecutiveTransfer(uint256,uint256,address,address)": {
						"details": "Emitted when tokens in `fromTokenId` to `toTokenId` (inclusive) is transferred from `from` to `to`, as defined in the [ERC2309](https://eips.ethereum.org/EIPS/eip-2309) standard. See {_mintERC2309} for more details."
					},
					"Transfer(address,address,uint256)": {
						"details": "Emitted when `tokenId` token is transferred from `from` to `to`."
					}
				},
				"kind": "dev",
				"methods": {
					"approve(address,uint256)": {
						"details": "Gives permission to `to` to transfer `tokenId` token to another account. See {ERC721A-_approve}. Requirements: - The caller must own the token or be an approved operator."
					},
					"balanceOf(address)": {
						"details": "Returns the number of tokens in `owner`'s account."
					},
					"getApproved(uint256)": {
						"details": "Returns the account approved for `tokenId` token. Requirements: - `tokenId` must exist."
					},
					"isApprovedForAll(address,address)": {
						"details": "Returns if the `operator` is allowed to manage all of the assets of `owner`. See {setApprovalForAll}."
					},
					"name()": {
						"details": "Returns the token collection name."
					},
					"ownerOf(uint256)": {
						"details": "Returns the owner of the `tokenId` token. Requirements: - `tokenId` must exist."
					},
					"safeTransferFrom(address,address,uint256)": {
						"details": "Equivalent to `safeTransferFrom(from, to, tokenId, '')`."
					},
					"safeTransferFrom(address,address,uint256,bytes)": {
						"details": "Safely transfers `tokenId` token from `from` to `to`. Requirements: - `from` cannot be the zero address. - `to` cannot be the zero address. - `tokenId` token must exist and be owned by `from`. - If the caller is not `from`, it must be approved to move this token by either {approve} or {setApprovalForAll}. - If `to` refers to a smart contract, it must implement {IERC721Receiver-onERC721Received}, which is called upon a safe transfer. Emits a {Transfer} event."
					},
					"setApprovalForAll(address,bool)": {
						"details": "Approve or remove `operator` as an operator for the caller. Operators can call {transferFrom} or {safeTransferFrom} for any token owned by the caller. Requirements: - The `operator` cannot be the caller. Emits an {ApprovalForAll} event."
					},
					"supportsInterface(bytes4)": {
						"details": "Returns true if this contract implements the interface defined by `interfaceId`. See the corresponding [EIP section](https://eips.ethereum.org/EIPS/eip-165#how-interfaces-are-identified) to learn more about how these ids are created. This function call must use less than 30000 gas."
					},
					"symbol()": {
						"details": "Returns the token collection symbol."
					},
					"tokenURI(uint256)": {
						"details": "Returns the Uniform Resource Identifier (URI) for `tokenId` token."
					},
					"totalSupply()": {
						"details": "Returns the total number of tokens in existence. Burned tokens will reduce the count. To get the total number of tokens minted, please see {_totalMinted}."
					},
					"transferFrom(address,address,uint256)": {
						"details": "Transfers `tokenId` from `from` to `to`. Requirements: - `from` cannot be the zero address. - `to` cannot be the zero address. - `tokenId` token must be owned by `from`. - If the caller is not `from`, it must be approved to move this token by either {approve} or {setApprovalForAll}. Emits a {Transfer} event."
					}
				},
				"version": 1
			},
			"evm": {
				"assembly": "    /* \"contracts/ContractS/ContractSV2.sol\":106:299  contract ContractSV2 is ERC721A {... */\n  mstore(0x40, 0x80)\n    /* \"contracts/ContractS/ContractSV2.sol\":145:190  constructor() ERC721A(\"Test Token\", \"TTK\") {} */\n  callvalue\n  dup1\n  iszero\n  tag_1\n  jumpi\n  0x00\n  dup1\n  revert\ntag_1:\n  pop\n    /* \"erc721a/contracts/ERC721A.sol\":5261:5507  constructor(string memory name_, string memory symbol_) {... */\n  mload(0x40)\n  dup1\n  0x40\n  add\n  0x40\n  mstore\n  dup1\n  0x0a\n  dup2\n  mstore\n  0x20\n  add\n  shl(0xb1, 0x2a32b9ba102a37b5b2b7)\n  dup2\n  mstore\n  pop\n  mload(0x40)\n  dup1\n  0x40\n  add\n  0x40\n  mstore\n  dup1\n  0x03\n  dup2\n  mstore\n  0x20\n  add\n  shl(0xe8, 0x54544b)\n  dup2\n  mstore\n  pop\n    /* \"erc721a/contracts/ERC721A.sol\":5335:5340  name_ */\n  dup2\n    /* \"erc721a/contracts/ERC721A.sol\":5327:5332  _name */\n  0x02\n    /* \"erc721a/contracts/ERC721A.sol\":5327:5340  _name = name_ */\n  swap1\n  dup2\n  tag_5\n  swap2\n  swap1\n  tag_6\n  jump\t// in\ntag_5:\n  pop\n    /* \"erc721a/contracts/ERC721A.sol\":5350:5357  _symbol */\n  0x03\n    /* \"erc721a/contracts/ERC721A.sol\":5350:5367  _symbol = symbol_ */\n  tag_7\n    /* \"erc721a/contracts/ERC721A.sol\":5360:5367  symbol_ */\n  dup3\n    /* \"erc721a/contracts/ERC721A.sol\":5350:5357  _symbol */\n  dup3\n    /* \"erc721a/contracts/ERC721A.sol\":5350:5367  _symbol = symbol_ */\n  tag_6\n  jump\t// in\ntag_7:\n  pop\n  pop\n    /* \"erc721a/contracts/ERC721A.sol\":6022:6029  uint256 */\n  0x00\n    /* \"erc721a/contracts/ERC721A.sol\":5377:5408  _currentIndex = _startTokenId() */\n  dup1\n  sstore\n  pop\n    /* \"contracts/ContractS/ContractSV2.sol\":106:299  contract ContractSV2 is ERC721A {... */\n  jump(tag_26)\n    /* \"#utility.yul\":14:141   */\ntag_21:\n    /* \"#utility.yul\":75:85   */\n  0x4e487b71\n    /* \"#utility.yul\":70:73   */\n  0xe0\n    /* \"#utility.yul\":66:86   */\n  shl\n    /* \"#utility.yul\":63:64   */\n  0x00\n    /* \"#utility.yul\":56:87   */\n  mstore\n    /* \"#utility.yul\":106:110   */\n  0x41\n    /* \"#utility.yul\":103:104   */\n  0x04\n    /* \"#utility.yul\":96:111   */\n  mstore\n    /* \"#utility.yul\":130:134   */\n  0x24\n    /* \"#utility.yul\":127:128   */\n  0x00\n    /* \"#utility.yul\":120:135   */\n  revert\n    /* \"#utility.yul\":146:526   */\ntag_22:\n    /* \"#utility.yul\":225:226   */\n  0x01\n    /* \"#utility.yul\":221:233   */\n  dup2\n  dup2\n  shr\n  swap1\n    /* \"#utility.yul\":268:280   */\n  dup3\n  and\n  dup1\n    /* \"#utility.yul\":289:350   */\n  tag_29\n  jumpi\n    /* \"#utility.yul\":343:347   */\n  0x7f\n    /* \"#utility.yul\":335:341   */\n  dup3\n    /* \"#utility.yul\":331:348   */\n  and\n    /* \"#utility.yul\":321:348   */\n  swap2\n  pop\n    /* \"#utility.yul\":289:350   */\ntag_29:\n    /* \"#utility.yul\":396:398   */\n  0x20\n    /* \"#utility.yul\":388:394   */\n  dup3\n    /* \"#utility.yul\":385:399   */\n  lt\n    /* \"#utility.yul\":365:383   */\n  dup2\n    /* \"#utility.yul\":362:400   */\n  sub\n    /* \"#utility.yul\":359:520   */\n  tag_30\n  jumpi\n    /* \"#utility.yul\":442:452   */\n  0x4e487b71\n    /* \"#utility.yul\":437:440   */\n  0xe0\n    /* \"#utility.yul\":433:453   */\n  shl\n    /* \"#utility.yul\":430:431   */\n  0x00\n    /* \"#utility.yul\":423:454   */\n  mstore\n    /* \"#utility.yul\":477:481   */\n  0x22\n    /* \"#utility.yul\":474:475   */\n  0x04\n    /* \"#utility.yul\":467:482   */\n  mstore\n    /* \"#utility.yul\":505:509   */\n  0x24\n    /* \"#utility.yul\":502:503   */\n  0x00\n    /* \"#utility.yul\":495:510   */\n  revert\n    /* \"#utility.yul\":359:520   */\ntag_30:\n  pop\n    /* \"#utility.yul\":146:526   */\n  swap2\n  swap1\n  pop\n  jump\t// out\n    /* \"#utility.yul\":657:1175   */\ntag_24:\n    /* \"#utility.yul\":759:761   */\n  0x1f\n    /* \"#utility.yul\":754:757   */\n  dup3\n    /* \"#utility.yul\":751:762   */\n  gt\n    /* \"#utility.yul\":748:1169   */\n  iszero\n  tag_33\n  jumpi\n    /* \"#utility.yul\":795:800   */\n  dup1\n    /* \"#utility.yul\":792:793   */\n  0x00\n    /* \"#utility.yul\":785:801   */\n  mstore\n    /* \"#utility.yul\":839:843   */\n  0x20\n    /* \"#utility.yul\":836:837   */\n  0x00\n    /* \"#utility.yul\":826:844   */\n  keccak256\n    /* \"#utility.yul\":909:911   */\n  0x1f\n    /* \"#utility.yul\":897:907   */\n  dup5\n    /* \"#utility.yul\":893:912   */\n  add\n    /* \"#utility.yul\":890:891   */\n  0x05\n    /* \"#utility.yul\":886:913   */\n  shr\n    /* \"#utility.yul\":880:884   */\n  dup2\n    /* \"#utility.yul\":876:914   */\n  add\n    /* \"#utility.yul\":945:949   */\n  0x20\n    /* \"#utility.yul\":933:943   */\n  dup6\n    /* \"#utility.yul\":930:950   */\n  lt\n    /* \"#utility.yul\":927:974   */\n  iszero\n  tag_34\n  jumpi\n  pop\n    /* \"#utility.yul\":968:972   */\n  dup1\n    /* \"#utility.yul\":927:974   */\ntag_34:\n    /* \"#utility.yul\":1023:1025   */\n  0x1f\n    /* \"#utility.yul\":1018:1021   */\n  dup5\n    /* \"#utility.yul\":1014:1026   */\n  add\n    /* \"#utility.yul\":1011:1012   */\n  0x05\n    /* \"#utility.yul\":1007:1027   */\n  shr\n    /* \"#utility.yul\":1001:1005   */\n  dup3\n    /* \"#utility.yul\":997:1028   */\n  add\n    /* \"#utility.yul\":987:1028   */\n  swap2\n  pop\n    /* \"#utility.yul\":1078:1159   */\ntag_35:\n    /* \"#utility.yul\":1096:1098   */\n  dup2\n    /* \"#utility.yul\":1089:1094   */\n  dup2\n    /* \"#utility.yul\":1086:1099   */\n  lt\n    /* \"#utility.yul\":1078:1159   */\n  iszero\n  tag_37\n  jumpi\n    /* \"#utility.yul\":1155:1156   */\n  0x00\n    /* \"#utility.yul\":1141:1157   */\n  dup2\n  sstore\n    /* \"#utility.yul\":1122:1123   */\n  0x01\n    /* \"#utility.yul\":1111:1124   */\n  add\n    /* \"#utility.yul\":1078:1159   */\n  jump(tag_35)\ntag_37:\n    /* \"#utility.yul\":1082:1085   */\n  pop\n  pop\n    /* \"#utility.yul\":748:1169   */\ntag_33:\n    /* \"#utility.yul\":657:1175   */\n  pop\n  pop\n  pop\n  jump\t// out\n    /* \"#utility.yul\":1351:2696   */\ntag_6:\n    /* \"#utility.yul\":1471:1481   */\n  dup2\n  mload\n  sub(shl(0x40, 0x01), 0x01)\n    /* \"#utility.yul\":1493:1523   */\n  dup2\n  gt\n    /* \"#utility.yul\":1490:1546   */\n  iszero\n  tag_41\n  jumpi\n    /* \"#utility.yul\":1526:1544   */\n  tag_41\n  tag_21\n  jump\t// in\ntag_41:\n    /* \"#utility.yul\":1555:1652   */\n  tag_42\n    /* \"#utility.yul\":1645:1651   */\n  dup2\n    /* \"#utility.yul\":1605:1643   */\n  tag_43\n    /* \"#utility.yul\":1637:1641   */\n  dup5\n    /* \"#utility.yul\":1631:1642   */\n  sload\n    /* \"#utility.yul\":1605:1643   */\n  tag_22\n  jump\t// in\ntag_43:\n    /* \"#utility.yul\":1599:1603   */\n  dup5\n    /* \"#utility.yul\":1555:1652   */\n  tag_24\n  jump\t// in\ntag_42:\n    /* \"#utility.yul\":1707:1711   */\n  0x20\n  dup1\n    /* \"#utility.yul\":1764:1766   */\n  0x1f\n    /* \"#utility.yul\":1753:1767   */\n  dup4\n  gt\n    /* \"#utility.yul\":1781:1782   */\n  0x01\n    /* \"#utility.yul\":1776:2439   */\n  dup2\n  eq\n  tag_45\n  jumpi\n    /* \"#utility.yul\":2483:2484   */\n  0x00\n    /* \"#utility.yul\":2500:2506   */\n  dup5\n    /* \"#utility.yul\":2497:2586   */\n  iszero\n  tag_46\n  jumpi\n  pop\n    /* \"#utility.yul\":2552:2571   */\n  dup6\n  dup4\n  add\n    /* \"#utility.yul\":2546:2572   */\n  mload\n    /* \"#utility.yul\":2497:2586   */\ntag_46:\n  not(0x00)\n    /* \"#utility.yul\":1308:1309   */\n  0x03\n    /* \"#utility.yul\":1304:1315   */\n  dup7\n  swap1\n  shl\n    /* \"#utility.yul\":1300:1324   */\n  shr\n    /* \"#utility.yul\":1296:1325   */\n  not\n    /* \"#utility.yul\":1286:1326   */\n  and\n    /* \"#utility.yul\":1332:1333   */\n  0x01\n    /* \"#utility.yul\":1328:1339   */\n  dup6\n  swap1\n  shl\n    /* \"#utility.yul\":1283:1340   */\n  or\n    /* \"#utility.yul\":2599:2680   */\n  dup6\n  sstore\n    /* \"#utility.yul\":1746:2690   */\n  jump(tag_44)\n    /* \"#utility.yul\":1776:2439   */\ntag_45:\n    /* \"#utility.yul\":604:605   */\n  0x00\n    /* \"#utility.yul\":597:611   */\n  dup6\n  dup2\n  mstore\n    /* \"#utility.yul\":641:645   */\n  0x20\n    /* \"#utility.yul\":628:646   */\n  dup2\n  keccak256\n  not(0x1f)\n    /* \"#utility.yul\":1812:1832   */\n  dup7\n  and\n  swap2\n    /* \"#utility.yul\":1930:2166   */\ntag_49:\n    /* \"#utility.yul\":1944:1951   */\n  dup3\n    /* \"#utility.yul\":1941:1942   */\n  dup2\n    /* \"#utility.yul\":1938:1952   */\n  lt\n    /* \"#utility.yul\":1930:2166   */\n  iszero\n  tag_51\n  jumpi\n    /* \"#utility.yul\":2033:2052   */\n  dup9\n  dup7\n  add\n    /* \"#utility.yul\":2027:2053   */\n  mload\n    /* \"#utility.yul\":2012:2054   */\n  dup3\n  sstore\n    /* \"#utility.yul\":2125:2152   */\n  swap5\n  dup5\n  add\n  swap5\n    /* \"#utility.yul\":2093:2094   */\n  0x01\n    /* \"#utility.yul\":2081:2095   */\n  swap1\n  swap2\n  add\n  swap1\n    /* \"#utility.yul\":1960:1979   */\n  dup5\n  add\n    /* \"#utility.yul\":1930:2166   */\n  jump(tag_49)\ntag_51:\n    /* \"#utility.yul\":1934:1937   */\n  pop\n    /* \"#utility.yul\":2194:2200   */\n  dup6\n    /* \"#utility.yul\":2185:2192   */\n  dup3\n    /* \"#utility.yul\":2182:2201   */\n  lt\n    /* \"#utility.yul\":2179:2380   */\n  iszero\n  tag_52\n  jumpi\n    /* \"#utility.yul\":2255:2274   */\n  dup8\n  dup6\n  add\n    /* \"#utility.yul\":2249:2275   */\n  mload\n  not(0x00)\n    /* \"#utility.yul\":2338:2339   */\n  0x03\n    /* \"#utility.yul\":2334:2348   */\n  dup9\n  swap1\n  shl\n    /* \"#utility.yul\":2350:2353   */\n  0xf8\n    /* \"#utility.yul\":2330:2354   */\n  and\n    /* \"#utility.yul\":2326:2363   */\n  shr\n    /* \"#utility.yul\":2322:2364   */\n  not\n    /* \"#utility.yul\":2307:2365   */\n  and\n    /* \"#utility.yul\":2292:2366   */\n  dup2\n  sstore\n    /* \"#utility.yul\":2179:2380   */\ntag_52:\n  pop\n  pop\n    /* \"#utility.yul\":2426:2427   */\n  0x01\n    /* \"#utility.yul\":2417:2423   */\n  dup5\n    /* \"#utility.yul\":2414:2415   */\n  0x01\n    /* \"#utility.yul\":2410:2424   */\n  shl\n    /* \"#utility.yul\":2406:2428   */\n  add\n    /* \"#utility.yul\":2400:2404   */\n  dup6\n    /* \"#utility.yul\":2393:2429   */\n  sstore\n    /* \"#utility.yul\":1746:2690   */\ntag_44:\n  pop\n  pop\n  pop\n  pop\n    /* \"#utility.yul\":1351:2696   */\n  pop\n  pop\n  jump\t// out\ntag_26:\n    /* \"contracts/ContractS/ContractSV2.sol\":106:299  contract ContractSV2 is ERC721A {... */\n  dataSize(sub_0)\n  dup1\n  dataOffset(sub_0)\n  0x00\n  codecopy\n  0x00\n  return\nstop\n\nsub_0: assembly {\n        /* \"contracts/ContractS/ContractSV2.sol\":106:299  contract ContractSV2 is ERC721A {... */\n      mstore(0x40, 0x80)\n      jumpi(tag_1, lt(calldatasize, 0x04))\n      shr(0xe0, calldataload(0x00))\n      dup1\n      0x43508b05\n      gt\n      tag_17\n      jumpi\n      dup1\n      0xa22cb465\n      gt\n      tag_18\n      jumpi\n      dup1\n      0xa22cb465\n      eq\n      tag_13\n      jumpi\n      dup1\n      0xb88d4fde\n      eq\n      tag_14\n      jumpi\n      dup1\n      0xc87b56dd\n      eq\n      tag_15\n      jumpi\n      dup1\n      0xe985e9c5\n      eq\n      tag_16\n      jumpi\n      0x00\n      dup1\n      revert\n    tag_18:\n      dup1\n      0x43508b05\n      eq\n      tag_9\n      jumpi\n      dup1\n      0x6352211e\n      eq\n      tag_10\n      jumpi\n      dup1\n      0x70a08231\n      eq\n      tag_11\n      jumpi\n      dup1\n      0x95d89b41\n      eq\n      tag_12\n      jumpi\n      0x00\n      dup1\n      revert\n    tag_17:\n      dup1\n      0x095ea7b3\n      gt\n      tag_19\n      jumpi\n      dup1\n      0x095ea7b3\n      eq\n      tag_5\n      jumpi\n      dup1\n      0x18160ddd\n      eq\n      tag_6\n      jumpi\n      dup1\n      0x23b872dd\n      eq\n      tag_7\n      jumpi\n      dup1\n      0x42842e0e\n      eq\n      tag_8\n      jumpi\n      0x00\n      dup1\n      revert\n    tag_19:\n      dup1\n      0x01ffc9a7\n      eq\n      tag_2\n      jumpi\n      dup1\n      0x06fdde03\n      eq\n      tag_3\n      jumpi\n      dup1\n      0x081812fc\n      eq\n      tag_4\n      jumpi\n    tag_1:\n      0x00\n      dup1\n      revert\n        /* \"erc721a/contracts/ERC721A.sol\":10689:11319  function supportsInterface(bytes4 interfaceId) public view virtual override returns (bool) {... */\n    tag_2:\n      callvalue\n      dup1\n      iszero\n      tag_20\n      jumpi\n      0x00\n      dup1\n      revert\n    tag_20:\n      pop\n      tag_21\n      tag_22\n      calldatasize\n      0x04\n      tag_23\n      jump\t// in\n    tag_22:\n      tag_24\n      jump\t// in\n    tag_21:\n      mload(0x40)\n        /* \"#utility.yul\":611:625   */\n      swap1\n      iszero\n        /* \"#utility.yul\":604:626   */\n      iszero\n        /* \"#utility.yul\":586:627   */\n      dup2\n      mstore\n        /* \"#utility.yul\":574:576   */\n      0x20\n        /* \"#utility.yul\":559:577   */\n      add\n        /* \"erc721a/contracts/ERC721A.sol\":10689:11319  function supportsInterface(bytes4 interfaceId) public view virtual override returns (bool) {... */\n    tag_25:\n      mload(0x40)\n      dup1\n      swap2\n      sub\n      swap1\n      return\n        /* \"erc721a/contracts/ERC721A.sol\":11573:11671  function name() public view virtual override returns (string memory) {... */\n    tag_3:\n      callvalue\n      dup1\n      iszero\n      tag_27\n      jumpi\n      0x00\n      dup1\n      revert\n    tag_27:\n      pop\n      tag_28\n      tag_29\n      jump\t// in\n    tag_28:\n      mload(0x40)\n      tag_25\n      swap2\n      swap1\n      tag_31\n      jump\t// in\n        /* \"erc721a/contracts/ERC721A.sol\":18636:18859  function getApproved(uint256 tokenId) public view virtual override returns (address) {... */\n    tag_4:\n      callvalue\n      dup1\n      iszero\n      tag_32\n      jumpi\n      0x00\n      dup1\n      revert\n    tag_32:\n      pop\n      tag_33\n      tag_34\n      calldatasize\n      0x04\n      tag_35\n      jump\t// in\n    tag_34:\n      tag_36\n      jump\t// in\n    tag_33:\n      mload(0x40)\n      sub(shl(0xa0, 0x01), 0x01)\n        /* \"#utility.yul\":1528:1583   */\n      swap1\n      swap2\n      and\n        /* \"#utility.yul\":1510:1584   */\n      dup2\n      mstore\n        /* \"#utility.yul\":1498:1500   */\n      0x20\n        /* \"#utility.yul\":1483:1501   */\n      add\n        /* \"erc721a/contracts/ERC721A.sol\":18636:18859  function getApproved(uint256 tokenId) public view virtual override returns (address) {... */\n      tag_25\n        /* \"#utility.yul\":1364:1590   */\n      jump\n        /* \"erc721a/contracts/ERC721A.sol\":18364:18486  function approve(address to, uint256 tokenId) public payable virtual override {... */\n    tag_5:\n      tag_39\n      tag_40\n      calldatasize\n      0x04\n      tag_41\n      jump\t// in\n    tag_40:\n      tag_42\n      jump\t// in\n    tag_39:\n      stop\n        /* \"erc721a/contracts/ERC721A.sol\":6890:7454  function totalSupply() public view virtual override returns (uint256 result) {... */\n    tag_6:\n      callvalue\n      dup1\n      iszero\n      tag_43\n      jumpi\n      0x00\n      dup1\n      revert\n    tag_43:\n      pop\n        /* \"erc721a/contracts/ERC721A.sol\":7328:7340  _burnCounter */\n      sload(0x01)\n        /* \"erc721a/contracts/ERC721A.sol\":6951:6965  uint256 result */\n      0x00\n        /* \"erc721a/contracts/ERC721A.sol\":7312:7325  _currentIndex */\n      sload\n        /* \"erc721a/contracts/ERC721A.sol\":7312:7340  _currentIndex - _burnCounter */\n      sub\n        /* \"erc721a/contracts/ERC721A.sol\":6890:7454  function totalSupply() public view virtual override returns (uint256 result) {... */\n    tag_44:\n      mload(0x40)\n        /* \"#utility.yul\":2201:2226   */\n      swap1\n      dup2\n      mstore\n        /* \"#utility.yul\":2189:2191   */\n      0x20\n        /* \"#utility.yul\":2174:2192   */\n      add\n        /* \"erc721a/contracts/ERC721A.sol\":6890:7454  function totalSupply() public view virtual override returns (uint256 result) {... */\n      tag_25\n        /* \"#utility.yul\":2055:2232   */\n      jump\n        /* \"erc721a/contracts/ERC721A.sol\":22796:26243  function transferFrom(... */\n    tag_7:\n      tag_39\n      tag_49\n      calldatasize\n      0x04\n      tag_50\n      jump\t// in\n    tag_49:\n      tag_51\n      jump\t// in\n        /* \"erc721a/contracts/ERC721A.sol\":26334:26521  function safeTransferFrom(... */\n    tag_8:\n      tag_39\n      tag_53\n      calldatasize\n      0x04\n      tag_50\n      jump\t// in\n    tag_53:\n      tag_54\n      jump\t// in\n        /* \"contracts/ContractS/ContractSV2.sol\":198:296  function batchMint(address to, uint256 quantity) public {... */\n    tag_9:\n      callvalue\n      dup1\n      iszero\n      tag_55\n      jumpi\n      0x00\n      dup1\n      revert\n    tag_55:\n      pop\n      tag_39\n      tag_57\n      calldatasize\n      0x04\n      tag_41\n      jump\t// in\n    tag_57:\n      tag_58\n      jump\t// in\n        /* \"erc721a/contracts/ERC721A.sol\":12934:13084  function ownerOf(uint256 tokenId) public view virtual override returns (address) {... */\n    tag_10:\n      callvalue\n      dup1\n      iszero\n      tag_59\n      jumpi\n      0x00\n      dup1\n      revert\n    tag_59:\n      pop\n      tag_33\n      tag_61\n      calldatasize\n      0x04\n      tag_35\n      jump\t// in\n    tag_61:\n      tag_62\n      jump\t// in\n        /* \"erc721a/contracts/ERC721A.sol\":8570:8809  function balanceOf(address owner) public view virtual override returns (uint256) {... */\n    tag_11:\n      callvalue\n      dup1\n      iszero\n      tag_64\n      jumpi\n      0x00\n      dup1\n      revert\n    tag_64:\n      pop\n      tag_44\n      tag_66\n      calldatasize\n      0x04\n      tag_67\n      jump\t// in\n    tag_66:\n      tag_68\n      jump\t// in\n        /* \"erc721a/contracts/ERC721A.sol\":11742:11844  function symbol() public view virtual override returns (string memory) {... */\n    tag_12:\n      callvalue\n      dup1\n      iszero\n      tag_70\n      jumpi\n      0x00\n      dup1\n      revert\n    tag_70:\n      pop\n      tag_28\n      tag_72\n      jump\t// in\n        /* \"erc721a/contracts/ERC721A.sol\":19186:19417  function setApprovalForAll(address operator, bool approved) public virtual override {... */\n    tag_13:\n      callvalue\n      dup1\n      iszero\n      tag_74\n      jumpi\n      0x00\n      dup1\n      revert\n    tag_74:\n      pop\n      tag_39\n      tag_76\n      calldatasize\n      0x04\n      tag_77\n      jump\t// in\n    tag_76:\n      tag_78\n      jump\t// in\n        /* \"erc721a/contracts/ERC721A.sol\":27102:27507  function safeTransferFrom(... */\n    tag_14:\n      tag_39\n      tag_80\n      calldatasize\n      0x04\n      tag_81\n      jump\t// in\n    tag_80:\n      tag_82\n      jump\t// in\n        /* \"erc721a/contracts/ERC721A.sol\":11945:12267  function tokenURI(uint256 tokenId) public view virtual override returns (string memory) {... */\n    tag_15:\n      callvalue\n      dup1\n      iszero\n      tag_83\n      jumpi\n      0x00\n      dup1\n      revert\n    tag_83:\n      pop\n      tag_28\n      tag_85\n      calldatasize\n      0x04\n      tag_35\n      jump\t// in\n    tag_85:\n      tag_86\n      jump\t// in\n        /* \"erc721a/contracts/ERC721A.sol\":19567:19729  function isApprovedForAll(address owner, address operator) public view virtual override returns (bool) {... */\n    tag_16:\n      callvalue\n      dup1\n      iszero\n      tag_88\n      jumpi\n      0x00\n      dup1\n      revert\n    tag_88:\n      pop\n      tag_21\n      tag_90\n      calldatasize\n      0x04\n      tag_91\n      jump\t// in\n    tag_90:\n      sub(shl(0xa0, 0x01), 0x01)\n        /* \"erc721a/contracts/ERC721A.sol\":19687:19712  _operatorApprovals[owner] */\n      swap2\n      dup3\n      and\n        /* \"erc721a/contracts/ERC721A.sol\":19664:19668  bool */\n      0x00\n        /* \"erc721a/contracts/ERC721A.sol\":19687:19712  _operatorApprovals[owner] */\n      swap1\n      dup2\n      mstore\n        /* \"erc721a/contracts/ERC721A.sol\":19687:19705  _operatorApprovals */\n      0x07\n        /* \"erc721a/contracts/ERC721A.sol\":19687:19712  _operatorApprovals[owner] */\n      0x20\n      swap1\n      dup2\n      mstore\n      0x40\n      dup1\n      dup4\n      keccak256\n        /* \"erc721a/contracts/ERC721A.sol\":19687:19722  _operatorApprovals[owner][operator] */\n      swap4\n      swap1\n      swap5\n      and\n      dup3\n      mstore\n      swap2\n      swap1\n      swap2\n      mstore\n      keccak256\n      sload\n      0xff\n      and\n      swap1\n        /* \"erc721a/contracts/ERC721A.sol\":19567:19729  function isApprovedForAll(address owner, address operator) public view virtual override returns (bool) {... */\n      jump\n        /* \"erc721a/contracts/ERC721A.sol\":10689:11319  function supportsInterface(bytes4 interfaceId) public view virtual override returns (bool) {... */\n    tag_24:\n        /* \"erc721a/contracts/ERC721A.sol\":10774:10778  bool */\n      0x00\n        /* \"erc721a/contracts/ERC721A.sol\":11092:11117  interfaceId == 0x01ffc9a7 */\n      0x01ffc9a700000000000000000000000000000000000000000000000000000000\n      not(sub(shl(0xe0, 0x01), 0x01))\n      dup4\n      and\n      eq\n      dup1\n        /* \"erc721a/contracts/ERC721A.sol\":11092:11193  interfaceId == 0x01ffc9a7 || // ERC165 interface ID for ERC165.... */\n      tag_95\n      jumpi\n      pop\n        /* \"erc721a/contracts/ERC721A.sol\":11168:11193  interfaceId == 0x80ac58cd */\n      0x80ac58cd00000000000000000000000000000000000000000000000000000000\n      not(sub(shl(0xe0, 0x01), 0x01))\n      dup4\n      and\n      eq\n        /* \"erc721a/contracts/ERC721A.sol\":11092:11193  interfaceId == 0x01ffc9a7 || // ERC165 interface ID for ERC165.... */\n    tag_95:\n        /* \"erc721a/contracts/ERC721A.sol\":11092:11269  interfaceId == 0x01ffc9a7 || // ERC165 interface ID for ERC165.... */\n      dup1\n      tag_96\n      jumpi\n      pop\n        /* \"erc721a/contracts/ERC721A.sol\":11244:11269  interfaceId == 0x5b5e139f */\n      0x5b5e139f00000000000000000000000000000000000000000000000000000000\n      not(sub(shl(0xe0, 0x01), 0x01))\n      dup4\n      and\n      eq\n        /* \"erc721a/contracts/ERC721A.sol\":11092:11269  interfaceId == 0x01ffc9a7 || // ERC165 interface ID for ERC165.... */\n    tag_96:\n        /* \"erc721a/contracts/ERC721A.sol\":11073:11269  return... */\n      swap3\n        /* \"erc721a/contracts/ERC721A.sol\":10689:11319  function supportsInterface(bytes4 interfaceId) public view virtual override returns (bool) {... */\n      swap2\n      pop\n      pop\n      jump\t// out\n        /* \"erc721a/contracts/ERC721A.sol\":11573:11671  function name() public view virtual override returns (string memory) {... */\n    tag_29:\n        /* \"erc721a/contracts/ERC721A.sol\":11627:11640  string memory */\n      0x60\n        /* \"erc721a/contracts/ERC721A.sol\":11659:11664  _name */\n      0x02\n        /* \"erc721a/contracts/ERC721A.sol\":11652:11664  return _name */\n      dup1\n      sload\n      tag_98\n      swap1\n      tag_99\n      jump\t// in\n    tag_98:\n      dup1\n      0x1f\n      add\n      0x20\n      dup1\n      swap2\n      div\n      mul\n      0x20\n      add\n      mload(0x40)\n      swap1\n      dup2\n      add\n      0x40\n      mstore\n      dup1\n      swap3\n      swap2\n      swap1\n      dup2\n      dup2\n      mstore\n      0x20\n      add\n      dup3\n      dup1\n      sload\n      tag_100\n      swap1\n      tag_99\n      jump\t// in\n    tag_100:\n      dup1\n      iszero\n      tag_101\n      jumpi\n      dup1\n      0x1f\n      lt\n      tag_102\n      jumpi\n      0x0100\n      dup1\n      dup4\n      sload\n      div\n      mul\n      dup4\n      mstore\n      swap2\n      0x20\n      add\n      swap2\n      jump(tag_101)\n    tag_102:\n      dup3\n      add\n      swap2\n      swap1\n      0x00\n      mstore\n      keccak256(0x00, 0x20)\n      swap1\n    tag_103:\n      dup2\n      sload\n      dup2\n      mstore\n      swap1\n      0x01\n      add\n      swap1\n      0x20\n      add\n      dup1\n      dup4\n      gt\n      tag_103\n      jumpi\n      dup3\n      swap1\n      sub\n      0x1f\n      and\n      dup3\n      add\n      swap2\n    tag_101:\n      pop\n      pop\n      pop\n      pop\n      pop\n      swap1\n      pop\n        /* \"erc721a/contracts/ERC721A.sol\":11573:11671  function name() public view virtual override returns (string memory) {... */\n      swap1\n      jump\t// out\n        /* \"erc721a/contracts/ERC721A.sol\":18636:18859  function getApproved(uint256 tokenId) public view virtual override returns (address) {... */\n    tag_36:\n        /* \"erc721a/contracts/ERC721A.sol\":18712:18719  address */\n      0x00\n        /* \"erc721a/contracts/ERC721A.sol\":18736:18752  _exists(tokenId) */\n      tag_105\n        /* \"erc721a/contracts/ERC721A.sol\":18744:18751  tokenId */\n      dup3\n        /* \"erc721a/contracts/ERC721A.sol\":18736:18743  _exists */\n      tag_106\n        /* \"erc721a/contracts/ERC721A.sol\":18736:18752  _exists(tokenId) */\n      jump\t// in\n    tag_105:\n        /* \"erc721a/contracts/ERC721A.sol\":18731:18804  if (!_exists(tokenId)) _revert(ApprovalQueryForNonexistentToken.selector) */\n      tag_108\n      jumpi\n        /* \"erc721a/contracts/ERC721A.sol\":18754:18804  _revert(ApprovalQueryForNonexistentToken.selector) */\n      tag_108\n        /* \"erc721a/contracts/ERC721A.sol\":18762:18803  ApprovalQueryForNonexistentToken.selector */\n      0xcf4700e400000000000000000000000000000000000000000000000000000000\n        /* \"erc721a/contracts/ERC721A.sol\":18754:18761  _revert */\n      tag_109\n        /* \"erc721a/contracts/ERC721A.sol\":18754:18804  _revert(ApprovalQueryForNonexistentToken.selector) */\n      jump\t// in\n    tag_108:\n      pop\n        /* \"erc721a/contracts/ERC721A.sol\":18822:18846  _tokenApprovals[tokenId] */\n      0x00\n      swap1\n      dup2\n      mstore\n        /* \"erc721a/contracts/ERC721A.sol\":18822:18837  _tokenApprovals */\n      0x06\n        /* \"erc721a/contracts/ERC721A.sol\":18822:18846  _tokenApprovals[tokenId] */\n      0x20\n      mstore\n      0x40\n      swap1\n      keccak256\n        /* \"erc721a/contracts/ERC721A.sol\":18822:18852  _tokenApprovals[tokenId].value */\n      sload\n      sub(shl(0xa0, 0x01), 0x01)\n      and\n      swap1\n        /* \"erc721a/contracts/ERC721A.sol\":18636:18859  function getApproved(uint256 tokenId) public view virtual override returns (address) {... */\n      jump\t// out\n        /* \"erc721a/contracts/ERC721A.sol\":18364:18486  function approve(address to, uint256 tokenId) public payable virtual override {... */\n    tag_42:\n        /* \"erc721a/contracts/ERC721A.sol\":18452:18479  _approve(to, tokenId, true) */\n      tag_111\n        /* \"erc721a/contracts/ERC721A.sol\":18461:18463  to */\n      dup3\n        /* \"erc721a/contracts/ERC721A.sol\":18465:18472  tokenId */\n      dup3\n        /* \"erc721a/contracts/ERC721A.sol\":18474:18478  true */\n      0x01\n        /* \"erc721a/contracts/ERC721A.sol\":18452:18460  _approve */\n      tag_112\n        /* \"erc721a/contracts/ERC721A.sol\":18452:18479  _approve(to, tokenId, true) */\n      jump\t// in\n    tag_111:\n        /* \"erc721a/contracts/ERC721A.sol\":18364:18486  function approve(address to, uint256 tokenId) public payable virtual override {... */\n      pop\n      pop\n      jump\t// out\n        /* \"erc721a/contracts/ERC721A.sol\":22796:26243  function transferFrom(... */\n    tag_51:\n        /* \"erc721a/contracts/ERC721A.sol\":22933:22960  uint256 prevOwnershipPacked */\n      0x00\n        /* \"erc721a/contracts/ERC721A.sol\":22963:22990  _packedOwnershipOf(tokenId) */\n      tag_120\n        /* \"erc721a/contracts/ERC721A.sol\":22982:22989  tokenId */\n      dup3\n        /* \"erc721a/contracts/ERC721A.sol\":22963:22981  _packedOwnershipOf */\n      tag_121\n        /* \"erc721a/contracts/ERC721A.sol\":22963:22990  _packedOwnershipOf(tokenId) */\n      jump\t// in\n    tag_120:\n      sub(shl(0xa0, 0x01), 0x01)\n        /* \"erc721a/contracts/ERC721A.sol\":23115:23137  uint256(uint160(from)) */\n      swap5\n      dup6\n      and\n      swap5\n        /* \"erc721a/contracts/ERC721A.sol\":22933:22990  uint256 prevOwnershipPacked = _packedOwnershipOf(tokenId) */\n      swap1\n      swap2\n      pop\n        /* \"erc721a/contracts/ERC721A.sol\":23173:23218  address(uint160(prevOwnershipPacked)) != from */\n      dup2\n      and\n      dup5\n      eq\n        /* \"erc721a/contracts/ERC721A.sol\":23169:23264  if (address(uint160(prevOwnershipPacked)) != from) _revert(TransferFromIncorrectOwner.selector) */\n      tag_123\n      jumpi\n        /* \"erc721a/contracts/ERC721A.sol\":23220:23264  _revert(TransferFromIncorrectOwner.selector) */\n      tag_123\n        /* \"erc721a/contracts/ERC721A.sol\":23228:23263  TransferFromIncorrectOwner.selector */\n      0xa114810000000000000000000000000000000000000000000000000000000000\n        /* \"erc721a/contracts/ERC721A.sol\":23220:23227  _revert */\n      tag_109\n        /* \"erc721a/contracts/ERC721A.sol\":23220:23264  _revert(TransferFromIncorrectOwner.selector) */\n      jump\t// in\n    tag_123:\n        /* \"erc721a/contracts/ERC721A.sol\":23276:23303  uint256 approvedAddressSlot */\n      0x00\n        /* \"erc721a/contracts/ERC721A.sol\":21929:21953  _tokenApprovals[tokenId] */\n      dup3\n      dup2\n      mstore\n        /* \"erc721a/contracts/ERC721A.sol\":21929:21944  _tokenApprovals */\n      0x06\n        /* \"erc721a/contracts/ERC721A.sol\":21929:21953  _tokenApprovals[tokenId] */\n      0x20\n      mstore\n      0x40\n      swap1\n      keccak256\n        /* \"erc721a/contracts/ERC721A.sol\":22153:22179  sload(approvedAddressSlot) */\n      dup1\n      sload\n        /* \"erc721a/contracts/ERC721A.sol\":47819:47829  msg.sender */\n      caller\n        /* \"erc721a/contracts/ERC721A.sol\":21566:21596  eq(msgSender, approvedAddress) */\n      dup1\n      dup3\n      eq\n      sub(shl(0xa0, 0x01), 0x01)\n        /* \"erc721a/contracts/ERC721A.sol\":21263:21291  and(owner, _BITMASK_ADDRESS) */\n      dup9\n      and\n        /* \"erc721a/contracts/ERC721A.sol\":21544:21564  eq(msgSender, owner) */\n      swap1\n      swap2\n      eq\n        /* \"erc721a/contracts/ERC721A.sol\":21541:21597  or(eq(msgSender, owner), eq(msgSender, approvedAddress)) */\n      or\n        /* \"erc721a/contracts/ERC721A.sol\":23459:23647  if (!_isSenderApprovedOrOwner(approvedAddress, from, _msgSenderERC721A()))... */\n      tag_134\n      jumpi\n        /* \"erc721a/contracts/ERC721A.sol\":23551:23594  isApprovedForAll(from, _msgSenderERC721A()) */\n      tag_131\n        /* \"erc721a/contracts/ERC721A.sol\":23568:23572  from */\n      dup7\n        /* \"erc721a/contracts/ERC721A.sol\":47819:47829  msg.sender */\n      caller\n        /* \"erc721a/contracts/ERC721A.sol\":19567:19729  function isApprovedForAll(address owner, address operator) public view virtual override returns (bool) {... */\n      tag_90\n      jump\t// in\n        /* \"erc721a/contracts/ERC721A.sol\":23551:23594  isApprovedForAll(from, _msgSenderERC721A()) */\n    tag_131:\n        /* \"erc721a/contracts/ERC721A.sol\":23546:23647  if (!isApprovedForAll(from, _msgSenderERC721A())) _revert(TransferCallerNotOwnerNorApproved.selector) */\n      tag_134\n      jumpi\n        /* \"erc721a/contracts/ERC721A.sol\":23596:23647  _revert(TransferCallerNotOwnerNorApproved.selector) */\n      tag_134\n        /* \"erc721a/contracts/ERC721A.sol\":23604:23646  TransferCallerNotOwnerNorApproved.selector */\n      0x59c896be00000000000000000000000000000000000000000000000000000000\n        /* \"erc721a/contracts/ERC721A.sol\":23596:23603  _revert */\n      tag_109\n        /* \"erc721a/contracts/ERC721A.sol\":23596:23647  _revert(TransferCallerNotOwnerNorApproved.selector) */\n      jump\t// in\n    tag_134:\n        /* \"erc721a/contracts/ERC721A.sol\":23790:23805  approvedAddress */\n      dup1\n        /* \"erc721a/contracts/ERC721A.sol\":23787:23944  if approvedAddress {... */\n      iszero\n      tag_137\n      jumpi\n        /* \"erc721a/contracts/ERC721A.sol\":23928:23929  0 */\n      0x00\n        /* \"erc721a/contracts/ERC721A.sol\":23907:23926  approvedAddressSlot */\n      dup3\n        /* \"erc721a/contracts/ERC721A.sol\":23900:23930  sstore(approvedAddressSlot, 0) */\n      sstore\n        /* \"erc721a/contracts/ERC721A.sol\":23787:23944  if approvedAddress {... */\n    tag_137:\n      sub(shl(0xa0, 0x01), 0x01)\n        /* \"erc721a/contracts/ERC721A.sol\":24316:24340  _packedAddressData[from] */\n      dup7\n      dup2\n      and\n      0x00\n      swap1\n      dup2\n      mstore\n        /* \"erc721a/contracts/ERC721A.sol\":24316:24334  _packedAddressData */\n      0x05\n        /* \"erc721a/contracts/ERC721A.sol\":24316:24340  _packedAddressData[from] */\n      0x20\n      mstore\n      0x40\n      dup1\n      dup3\n      keccak256\n        /* \"erc721a/contracts/ERC721A.sol\":24314:24340  --_packedAddressData[from] */\n      dup1\n      sload\n      not(0x00)\n      add\n      swap1\n      sstore\n        /* \"erc721a/contracts/ERC721A.sol\":24384:24406  _packedAddressData[to] */\n      swap2\n      dup8\n      and\n      dup1\n      dup3\n      mstore\n      swap2\n      swap1\n      keccak256\n        /* \"erc721a/contracts/ERC721A.sol\":24382:24406  ++_packedAddressData[to] */\n      dup1\n      sload\n      0x01\n      add\n      swap1\n      sstore\n        /* \"erc721a/contracts/ERC721A.sol\":17492:17503  timestamp() */\n      timestamp\n        /* \"erc721a/contracts/ERC721A.sol\":17467:17490  _BITPOS_START_TIMESTAMP */\n      0xa0\n        /* \"erc721a/contracts/ERC721A.sol\":17463:17504  shl(_BITPOS_START_TIMESTAMP, timestamp()) */\n      shl\n        /* \"erc721a/contracts/ERC721A.sol\":17450:17513  or(owner, or(shl(_BITPOS_START_TIMESTAMP, timestamp()), flags)) */\n      or\n      shl(0xe1, 0x01)\n      or\n        /* \"erc721a/contracts/ERC721A.sol\":24670:24696  _packedOwnerships[tokenId] */\n      0x00\n      dup6\n      dup2\n      mstore\n        /* \"erc721a/contracts/ERC721A.sol\":24670:24687  _packedOwnerships */\n      0x04\n        /* \"erc721a/contracts/ERC721A.sol\":24670:24696  _packedOwnerships[tokenId] */\n      0x20\n      mstore\n      0x40\n      dup2\n      keccak256\n        /* \"erc721a/contracts/ERC721A.sol\":24670:24842  _packedOwnerships[tokenId] = _packOwnershipData(... */\n      swap2\n      swap1\n      swap2\n      sstore\n      shl(0xe1, 0x01)\n        /* \"erc721a/contracts/ERC721A.sol\":24959:25006  prevOwnershipPacked & _BITMASK_NEXT_INITIALIZED */\n      dup5\n      and\n        /* \"erc721a/contracts/ERC721A.sol\":24959:25011  prevOwnershipPacked & _BITMASK_NEXT_INITIALIZED == 0 */\n      swap1\n      sub\n        /* \"erc721a/contracts/ERC721A.sol\":24955:25572  if (prevOwnershipPacked & _BITMASK_NEXT_INITIALIZED == 0) {... */\n      tag_142\n      jumpi\n        /* \"erc721a/contracts/ERC721A.sol\":25063:25064  1 */\n      0x01\n        /* \"erc721a/contracts/ERC721A.sol\":25053:25064  tokenId + 1 */\n      dup5\n      add\n        /* \"erc721a/contracts/ERC721A.sol\":25031:25050  uint256 nextTokenId */\n      0x00\n        /* \"erc721a/contracts/ERC721A.sol\":25184:25214  _packedOwnerships[nextTokenId] */\n      dup2\n      dup2\n      mstore\n        /* \"erc721a/contracts/ERC721A.sol\":25184:25201  _packedOwnerships */\n      0x04\n        /* \"erc721a/contracts/ERC721A.sol\":25184:25214  _packedOwnerships[nextTokenId] */\n      0x20\n      mstore\n      0x40\n      dup2\n      keccak256\n      sload\n        /* \"erc721a/contracts/ERC721A.sol\":25184:25219  _packedOwnerships[nextTokenId] == 0 */\n      swap1\n      sub\n        /* \"erc721a/contracts/ERC721A.sol\":25180:25558  if (_packedOwnerships[nextTokenId] == 0) {... */\n      tag_144\n      jumpi\n        /* \"erc721a/contracts/ERC721A.sol\":25320:25333  _currentIndex */\n      sload(0x00)\n        /* \"erc721a/contracts/ERC721A.sol\":25305:25316  nextTokenId */\n      dup2\n        /* \"erc721a/contracts/ERC721A.sol\":25305:25333  nextTokenId != _currentIndex */\n      eq\n        /* \"erc721a/contracts/ERC721A.sol\":25301:25540  if (nextTokenId != _currentIndex) {... */\n      tag_144\n      jumpi\n        /* \"erc721a/contracts/ERC721A.sol\":25465:25495  _packedOwnerships[nextTokenId] */\n      0x00\n      dup2\n      dup2\n      mstore\n        /* \"erc721a/contracts/ERC721A.sol\":25465:25482  _packedOwnerships */\n      0x04\n        /* \"erc721a/contracts/ERC721A.sol\":25465:25495  _packedOwnerships[nextTokenId] */\n      0x20\n      mstore\n      0x40\n      swap1\n      keccak256\n        /* \"erc721a/contracts/ERC721A.sol\":25465:25517  _packedOwnerships[nextTokenId] = prevOwnershipPacked */\n      dup5\n      swap1\n      sstore\n        /* \"erc721a/contracts/ERC721A.sol\":25301:25540  if (nextTokenId != _currentIndex) {... */\n    tag_144:\n        /* \"erc721a/contracts/ERC721A.sol\":25013:25572  {... */\n      pop\n        /* \"erc721a/contracts/ERC721A.sol\":24955:25572  if (prevOwnershipPacked & _BITMASK_NEXT_INITIALIZED == 0) {... */\n    tag_142:\n      sub(shl(0xa0, 0x01), 0x01)\n        /* \"erc721a/contracts/ERC721A.sol\":25700:25720  uint256(uint160(to)) */\n      dup6\n      and\n        /* \"erc721a/contracts/ERC721A.sol\":26071:26078  tokenId */\n      dup5\n        /* \"erc721a/contracts/ERC721A.sol\":25700:25720  uint256(uint160(to)) */\n      dup2\n        /* \"erc721a/contracts/ERC721A.sol\":26003:26007  from */\n      dup9\n        /* \"erc721a/contracts/ERC721A.sol\":25946:25971  _TRANSFER_EVENT_SIGNATURE */\n      0xddf252ad1be2c89b69c2b068fc378daa952ba7f163c4a11628f55a4df523b3ef\n        /* \"erc721a/contracts/ERC721A.sol\":25681:25697  uint256 toMasked */\n      0x00\n      dup1\n        /* \"erc721a/contracts/ERC721A.sol\":25814:26106  log4(... */\n      log4\n        /* \"erc721a/contracts/ERC721A.sol\":26129:26137  toMasked */\n      dup1\n        /* \"erc721a/contracts/ERC721A.sol\":26141:26142  0 */\n      0x00\n        /* \"erc721a/contracts/ERC721A.sol\":26129:26142  toMasked == 0 */\n      sub\n        /* \"erc721a/contracts/ERC721A.sol\":26125:26183  if (toMasked == 0) _revert(TransferToZeroAddress.selector) */\n      tag_146\n      jumpi\n        /* \"erc721a/contracts/ERC721A.sol\":26144:26183  _revert(TransferToZeroAddress.selector) */\n      tag_146\n        /* \"erc721a/contracts/ERC721A.sol\":26152:26182  TransferToZeroAddress.selector */\n      0xea553b3400000000000000000000000000000000000000000000000000000000\n        /* \"erc721a/contracts/ERC721A.sol\":26144:26151  _revert */\n      tag_109\n        /* \"erc721a/contracts/ERC721A.sol\":26144:26183  _revert(TransferToZeroAddress.selector) */\n      jump\t// in\n    tag_146:\n        /* \"erc721a/contracts/ERC721A.sol\":22923:26243  {... */\n      pop\n      pop\n      pop\n      pop\n        /* \"erc721a/contracts/ERC721A.sol\":22796:26243  function transferFrom(... */\n      pop\n      pop\n      pop\n      jump\t// out\n        /* \"erc721a/contracts/ERC721A.sol\":26334:26521  function safeTransferFrom(... */\n    tag_54:\n        /* \"erc721a/contracts/ERC721A.sol\":26475:26514  safeTransferFrom(from, to, tokenId, '') */\n      tag_150\n        /* \"erc721a/contracts/ERC721A.sol\":26492:26496  from */\n      dup4\n        /* \"erc721a/contracts/ERC721A.sol\":26498:26500  to */\n      dup4\n        /* \"erc721a/contracts/ERC721A.sol\":26502:26509  tokenId */\n      dup4\n        /* \"erc721a/contracts/ERC721A.sol\":26475:26514  safeTransferFrom(from, to, tokenId, '') */\n      mload(0x40)\n      dup1\n      0x20\n      add\n      0x40\n      mstore\n      dup1\n      0x00\n      dup2\n      mstore\n      pop\n        /* \"erc721a/contracts/ERC721A.sol\":26475:26491  safeTransferFrom */\n      tag_82\n        /* \"erc721a/contracts/ERC721A.sol\":26475:26514  safeTransferFrom(from, to, tokenId, '') */\n      jump\t// in\n    tag_150:\n        /* \"erc721a/contracts/ERC721A.sol\":26334:26521  function safeTransferFrom(... */\n      pop\n      pop\n      pop\n      jump\t// out\n        /* \"contracts/ContractS/ContractSV2.sol\":198:296  function batchMint(address to, uint256 quantity) public {... */\n    tag_58:\n        /* \"contracts/ContractS/ContractSV2.sol\":265:288  _safeMint(to, quantity) */\n      tag_111\n        /* \"contracts/ContractS/ContractSV2.sol\":275:277  to */\n      dup3\n        /* \"contracts/ContractS/ContractSV2.sol\":279:287  quantity */\n      dup3\n        /* \"contracts/ContractS/ContractSV2.sol\":265:274  _safeMint */\n      tag_153\n        /* \"contracts/ContractS/ContractSV2.sol\":265:288  _safeMint(to, quantity) */\n      jump\t// in\n        /* \"erc721a/contracts/ERC721A.sol\":12934:13084  function ownerOf(uint256 tokenId) public view virtual override returns (address) {... */\n    tag_62:\n        /* \"erc721a/contracts/ERC721A.sol\":13006:13013  address */\n      0x00\n        /* \"erc721a/contracts/ERC721A.sol\":13048:13075  _packedOwnershipOf(tokenId) */\n      tag_96\n        /* \"erc721a/contracts/ERC721A.sol\":13067:13074  tokenId */\n      dup3\n        /* \"erc721a/contracts/ERC721A.sol\":13048:13066  _packedOwnershipOf */\n      tag_121\n        /* \"erc721a/contracts/ERC721A.sol\":13048:13075  _packedOwnershipOf(tokenId) */\n      jump\t// in\n        /* \"erc721a/contracts/ERC721A.sol\":8570:8809  function balanceOf(address owner) public view virtual override returns (uint256) {... */\n    tag_68:\n        /* \"erc721a/contracts/ERC721A.sol\":8642:8649  uint256 */\n      0x00\n      sub(shl(0xa0, 0x01), 0x01)\n        /* \"erc721a/contracts/ERC721A.sol\":8665:8684  owner == address(0) */\n      dup3\n      and\n        /* \"erc721a/contracts/ERC721A.sol\":8661:8730  if (owner == address(0)) _revert(BalanceQueryForZeroAddress.selector) */\n      tag_158\n      jumpi\n        /* \"erc721a/contracts/ERC721A.sol\":8686:8730  _revert(BalanceQueryForZeroAddress.selector) */\n      tag_158\n        /* \"erc721a/contracts/ERC721A.sol\":8694:8729  BalanceQueryForZeroAddress.selector */\n      0x8f4eb60400000000000000000000000000000000000000000000000000000000\n        /* \"erc721a/contracts/ERC721A.sol\":8686:8693  _revert */\n      tag_109\n        /* \"erc721a/contracts/ERC721A.sol\":8686:8730  _revert(BalanceQueryForZeroAddress.selector) */\n      jump\t// in\n    tag_158:\n      pop\n      sub(shl(0xa0, 0x01), 0x01)\n        /* \"erc721a/contracts/ERC721A.sol\":8747:8772  _packedAddressData[owner] */\n      and\n      0x00\n      swap1\n      dup2\n      mstore\n        /* \"erc721a/contracts/ERC721A.sol\":8747:8765  _packedAddressData */\n      0x05\n        /* \"erc721a/contracts/ERC721A.sol\":8747:8772  _packedAddressData[owner] */\n      0x20\n      mstore\n      0x40\n      swap1\n      keccak256\n      sload\n        /* \"erc721a/contracts/ERC721A.sol\":1518:1531  (1 << 64) - 1 */\n      0xffffffffffffffff\n        /* \"erc721a/contracts/ERC721A.sol\":8747:8802  _packedAddressData[owner] & _BITMASK_ADDRESS_DATA_ENTRY */\n      and\n      swap1\n        /* \"erc721a/contracts/ERC721A.sol\":8570:8809  function balanceOf(address owner) public view virtual override returns (uint256) {... */\n      jump\t// out\n        /* \"erc721a/contracts/ERC721A.sol\":11742:11844  function symbol() public view virtual override returns (string memory) {... */\n    tag_72:\n        /* \"erc721a/contracts/ERC721A.sol\":11798:11811  string memory */\n      0x60\n        /* \"erc721a/contracts/ERC721A.sol\":11830:11837  _symbol */\n      0x03\n        /* \"erc721a/contracts/ERC721A.sol\":11823:11837  return _symbol */\n      dup1\n      sload\n      tag_98\n      swap1\n      tag_99\n      jump\t// in\n        /* \"erc721a/contracts/ERC721A.sol\":19186:19417  function setApprovalForAll(address operator, bool approved) public virtual override {... */\n    tag_78:\n        /* \"erc721a/contracts/ERC721A.sol\":47819:47829  msg.sender */\n      caller\n        /* \"erc721a/contracts/ERC721A.sol\":19280:19319  _operatorApprovals[_msgSenderERC721A()] */\n      0x00\n      dup2\n      dup2\n      mstore\n        /* \"erc721a/contracts/ERC721A.sol\":19280:19298  _operatorApprovals */\n      0x07\n        /* \"erc721a/contracts/ERC721A.sol\":19280:19319  _operatorApprovals[_msgSenderERC721A()] */\n      0x20\n      swap1\n      dup2\n      mstore\n      0x40\n      dup1\n      dup4\n      keccak256\n      sub(shl(0xa0, 0x01), 0x01)\n        /* \"erc721a/contracts/ERC721A.sol\":19280:19329  _operatorApprovals[_msgSenderERC721A()][operator] */\n      dup8\n      and\n      dup1\n      dup6\n      mstore\n      swap1\n      dup4\n      mstore\n      swap3\n      dup2\n      swap1\n      keccak256\n        /* \"erc721a/contracts/ERC721A.sol\":19280:19340  _operatorApprovals[_msgSenderERC721A()][operator] = approved */\n      dup1\n      sload\n      not(0xff)\n      and\n      dup7\n      iszero\n      iszero\n      swap1\n      dup2\n      or\n      swap1\n      swap2\n      sstore\n        /* \"erc721a/contracts/ERC721A.sol\":19355:19410  ApprovalForAll(_msgSenderERC721A(), operator, approved) */\n      swap1\n      mload\n        /* \"#utility.yul\":586:627   */\n      swap1\n      dup2\n      mstore\n        /* \"erc721a/contracts/ERC721A.sol\":19280:19329  _operatorApprovals[_msgSenderERC721A()][operator] */\n      swap2\n      swap3\n        /* \"erc721a/contracts/ERC721A.sol\":47819:47829  msg.sender */\n      swap2\n        /* \"erc721a/contracts/ERC721A.sol\":19355:19410  ApprovalForAll(_msgSenderERC721A(), operator, approved) */\n      0x17307eab39ab6107e8899845ad3d59bd9653f200f220920489ca2b5937696c31\n      swap2\n        /* \"#utility.yul\":559:577   */\n      add\n        /* \"erc721a/contracts/ERC721A.sol\":19355:19410  ApprovalForAll(_msgSenderERC721A(), operator, approved) */\n      mload(0x40)\n      dup1\n      swap2\n      sub\n      swap1\n      log3\n        /* \"erc721a/contracts/ERC721A.sol\":19186:19417  function setApprovalForAll(address operator, bool approved) public virtual override {... */\n      pop\n      pop\n      jump\t// out\n        /* \"erc721a/contracts/ERC721A.sol\":27102:27507  function safeTransferFrom(... */\n    tag_82:\n        /* \"erc721a/contracts/ERC721A.sol\":27271:27302  transferFrom(from, to, tokenId) */\n      tag_170\n        /* \"erc721a/contracts/ERC721A.sol\":27284:27288  from */\n      dup5\n        /* \"erc721a/contracts/ERC721A.sol\":27290:27292  to */\n      dup5\n        /* \"erc721a/contracts/ERC721A.sol\":27294:27301  tokenId */\n      dup5\n        /* \"erc721a/contracts/ERC721A.sol\":27271:27283  transferFrom */\n      tag_51\n        /* \"erc721a/contracts/ERC721A.sol\":27271:27302  transferFrom(from, to, tokenId) */\n      jump\t// in\n    tag_170:\n      sub(shl(0xa0, 0x01), 0x01)\n        /* \"erc721a/contracts/ERC721A.sol\":27316:27330  to.code.length */\n      dup4\n      and\n      extcodesize\n        /* \"erc721a/contracts/ERC721A.sol\":27316:27335  to.code.length != 0 */\n      iszero\n        /* \"erc721a/contracts/ERC721A.sol\":27312:27501  if (to.code.length != 0)... */\n      tag_175\n      jumpi\n        /* \"erc721a/contracts/ERC721A.sol\":27354:27410  _checkContractOnERC721Received(from, to, tokenId, _data) */\n      tag_172\n        /* \"erc721a/contracts/ERC721A.sol\":27385:27389  from */\n      dup5\n        /* \"erc721a/contracts/ERC721A.sol\":27391:27393  to */\n      dup5\n        /* \"erc721a/contracts/ERC721A.sol\":27395:27402  tokenId */\n      dup5\n        /* \"erc721a/contracts/ERC721A.sol\":27404:27409  _data */\n      dup5\n        /* \"erc721a/contracts/ERC721A.sol\":27354:27384  _checkContractOnERC721Received */\n      tag_173\n        /* \"erc721a/contracts/ERC721A.sol\":27354:27410  _checkContractOnERC721Received(from, to, tokenId, _data) */\n      jump\t// in\n    tag_172:\n        /* \"erc721a/contracts/ERC721A.sol\":27349:27501  if (!_checkContractOnERC721Received(from, to, tokenId, _data)) {... */\n      tag_175\n      jumpi\n        /* \"erc721a/contracts/ERC721A.sol\":27430:27486  _revert(TransferToNonERC721ReceiverImplementer.selector) */\n      tag_175\n      shl(0xe1, 0x68d2bf6b)\n        /* \"erc721a/contracts/ERC721A.sol\":27430:27437  _revert */\n      tag_109\n        /* \"erc721a/contracts/ERC721A.sol\":27430:27486  _revert(TransferToNonERC721ReceiverImplementer.selector) */\n      jump\t// in\n    tag_175:\n        /* \"erc721a/contracts/ERC721A.sol\":27102:27507  function safeTransferFrom(... */\n      pop\n      pop\n      pop\n      pop\n      jump\t// out\n        /* \"erc721a/contracts/ERC721A.sol\":11945:12267  function tokenURI(uint256 tokenId) public view virtual override returns (string memory) {... */\n    tag_86:\n        /* \"erc721a/contracts/ERC721A.sol\":12018:12031  string memory */\n      0x60\n        /* \"erc721a/contracts/ERC721A.sol\":12048:12064  _exists(tokenId) */\n      tag_177\n        /* \"erc721a/contracts/ERC721A.sol\":12056:12063  tokenId */\n      dup3\n        /* \"erc721a/contracts/ERC721A.sol\":12048:12055  _exists */\n      tag_106\n        /* \"erc721a/contracts/ERC721A.sol\":12048:12064  _exists(tokenId) */\n      jump\t// in\n    tag_177:\n        /* \"erc721a/contracts/ERC721A.sol\":12043:12111  if (!_exists(tokenId)) _revert(URIQueryForNonexistentToken.selector) */\n      tag_179\n      jumpi\n        /* \"erc721a/contracts/ERC721A.sol\":12066:12111  _revert(URIQueryForNonexistentToken.selector) */\n      tag_179\n        /* \"erc721a/contracts/ERC721A.sol\":12074:12110  URIQueryForNonexistentToken.selector */\n      0xa14c4b5000000000000000000000000000000000000000000000000000000000\n        /* \"erc721a/contracts/ERC721A.sol\":12066:12073  _revert */\n      tag_109\n        /* \"erc721a/contracts/ERC721A.sol\":12066:12111  _revert(URIQueryForNonexistentToken.selector) */\n      jump\t// in\n    tag_179:\n        /* \"erc721a/contracts/ERC721A.sol\":12122:12143  string memory baseURI */\n      0x00\n        /* \"erc721a/contracts/ERC721A.sol\":12146:12156  _baseURI() */\n      tag_180\n        /* \"erc721a/contracts/ERC721A.sol\":12588:12597  return '' */\n      0x40\n      dup1\n      mload\n      0x20\n      dup2\n      add\n      swap1\n      swap2\n      mstore\n      0x00\n      dup2\n      mstore\n      swap1\n        /* \"erc721a/contracts/ERC721A.sol\":12512:12604  function _baseURI() internal view virtual returns (string memory) {... */\n      jump\n        /* \"erc721a/contracts/ERC721A.sol\":12146:12156  _baseURI() */\n    tag_180:\n        /* \"erc721a/contracts/ERC721A.sol\":12122:12156  string memory baseURI = _baseURI() */\n      swap1\n      pop\n        /* \"erc721a/contracts/ERC721A.sol\":12179:12186  baseURI */\n      dup1\n        /* \"erc721a/contracts/ERC721A.sol\":12173:12194  bytes(baseURI).length */\n      mload\n        /* \"erc721a/contracts/ERC721A.sol\":12198:12199  0 */\n      0x00\n        /* \"erc721a/contracts/ERC721A.sol\":12173:12199  bytes(baseURI).length != 0 */\n      sub\n        /* \"erc721a/contracts/ERC721A.sol\":12173:12260  bytes(baseURI).length != 0 ? string(abi.encodePacked(baseURI, _toString(tokenId))) : '' */\n      tag_182\n      jumpi\n      mload(0x40)\n      dup1\n      0x20\n      add\n      0x40\n      mstore\n      dup1\n      0x00\n      dup2\n      mstore\n      pop\n      jump(tag_183)\n    tag_182:\n        /* \"erc721a/contracts/ERC721A.sol\":12226:12233  baseURI */\n      dup1\n        /* \"erc721a/contracts/ERC721A.sol\":12235:12253  _toString(tokenId) */\n      tag_184\n        /* \"erc721a/contracts/ERC721A.sol\":12245:12252  tokenId */\n      dup5\n        /* \"erc721a/contracts/ERC721A.sol\":12235:12244  _toString */\n      tag_185\n        /* \"erc721a/contracts/ERC721A.sol\":12235:12253  _toString(tokenId) */\n      jump\t// in\n    tag_184:\n        /* \"erc721a/contracts/ERC721A.sol\":12209:12254  abi.encodePacked(baseURI, _toString(tokenId)) */\n      add(0x20, mload(0x40))\n      tag_186\n      swap3\n      swap2\n      swap1\n      tag_187\n      jump\t// in\n    tag_186:\n      mload(0x40)\n      0x20\n      dup2\n      dup4\n      sub\n      sub\n      dup2\n      mstore\n      swap1\n      0x40\n      mstore\n        /* \"erc721a/contracts/ERC721A.sol\":12173:12260  bytes(baseURI).length != 0 ? string(abi.encodePacked(baseURI, _toString(tokenId))) : '' */\n    tag_183:\n        /* \"erc721a/contracts/ERC721A.sol\":12166:12260  return bytes(baseURI).length != 0 ? string(abi.encodePacked(baseURI, _toString(tokenId))) : '' */\n      swap4\n        /* \"erc721a/contracts/ERC721A.sol\":11945:12267  function tokenURI(uint256 tokenId) public view virtual override returns (string memory) {... */\n      swap3\n      pop\n      pop\n      pop\n      jump\t// out\n        /* \"erc721a/contracts/ERC721A.sol\":19978:20443  function _exists(uint256 tokenId) internal view virtual returns (bool result) {... */\n    tag_106:\n        /* \"erc721a/contracts/ERC721A.sol\":20043:20054  bool result */\n      0x00\n        /* \"erc721a/contracts/ERC721A.sol\":20231:20244  _currentIndex */\n      dup1\n      sload\n        /* \"erc721a/contracts/ERC721A.sol\":20221:20228  tokenId */\n      dup3\n        /* \"erc721a/contracts/ERC721A.sol\":20221:20244  tokenId < _currentIndex */\n      lt\n        /* \"erc721a/contracts/ERC721A.sol\":20217:20427  if (tokenId < _currentIndex) {... */\n      iszero\n      tag_196\n      jumpi\n        /* \"erc721a/contracts/ERC721A.sol\":20264:20278  uint256 packed */\n      0x00\n        /* \"erc721a/contracts/ERC721A.sol\":20296:20356  while ((packed = _packedOwnerships[tokenId]) == 0) --tokenId */\n    tag_197:\n      pop\n        /* \"erc721a/contracts/ERC721A.sol\":20313:20339  _packedOwnerships[tokenId] */\n      0x00\n      dup3\n      dup2\n      mstore\n        /* \"erc721a/contracts/ERC721A.sol\":20313:20330  _packedOwnerships */\n      0x04\n        /* \"erc721a/contracts/ERC721A.sol\":20313:20339  _packedOwnerships[tokenId] */\n      0x20\n      mstore\n      0x40\n      dup2\n      keccak256\n      sload\n      swap1\n        /* \"erc721a/contracts/ERC721A.sol\":20303:20345  (packed = _packedOwnerships[tokenId]) == 0 */\n      dup2\n      swap1\n      sub\n        /* \"erc721a/contracts/ERC721A.sol\":20296:20356  while ((packed = _packedOwnerships[tokenId]) == 0) --tokenId */\n      tag_198\n      jumpi\n        /* \"erc721a/contracts/ERC721A.sol\":20347:20356  --tokenId */\n      tag_199\n      dup4\n      tag_200\n      jump\t// in\n    tag_199:\n      swap3\n      pop\n        /* \"erc721a/contracts/ERC721A.sol\":20296:20356  while ((packed = _packedOwnerships[tokenId]) == 0) --tokenId */\n      jump(tag_197)\n    tag_198:\n      shl(0xe0, 0x01)\n        /* \"erc721a/contracts/ERC721A.sol\":20383:20407  packed & _BITMASK_BURNED */\n      and\n        /* \"erc721a/contracts/ERC721A.sol\":20383:20412  packed & _BITMASK_BURNED == 0 */\n      iszero\n      swap1\n      pop\n        /* \"erc721a/contracts/ERC721A.sol\":20217:20427  if (tokenId < _currentIndex) {... */\n    tag_196:\n        /* \"erc721a/contracts/ERC721A.sol\":19978:20443  function _exists(uint256 tokenId) internal view virtual returns (bool result) {... */\n      swap2\n      swap1\n      pop\n      jump\t// out\n        /* \"erc721a/contracts/ERC721A.sol\":49703:49863  function _revert(bytes4 errorSelector) internal pure {... */\n    tag_109:\n        /* \"erc721a/contracts/ERC721A.sol\":49802:49815  errorSelector */\n      dup1\n        /* \"erc721a/contracts/ERC721A.sol\":49796:49800  0x00 */\n      0x00\n        /* \"erc721a/contracts/ERC721A.sol\":49789:49816  mstore(0x00, errorSelector) */\n      mstore\n        /* \"erc721a/contracts/ERC721A.sol\":49842:49846  0x04 */\n      0x04\n        /* \"erc721a/contracts/ERC721A.sol\":49836:49840  0x00 */\n      0x00\n        /* \"erc721a/contracts/ERC721A.sol\":49829:49847  revert(0x00, 0x04) */\n      revert\n        /* \"erc721a/contracts/ERC721A.sol\":41333:41793  function _approve(... */\n    tag_112:\n        /* \"erc721a/contracts/ERC721A.sol\":41457:41470  address owner */\n      0x00\n        /* \"erc721a/contracts/ERC721A.sol\":41473:41489  ownerOf(tokenId) */\n      tag_203\n        /* \"erc721a/contracts/ERC721A.sol\":41481:41488  tokenId */\n      dup4\n        /* \"erc721a/contracts/ERC721A.sol\":41473:41480  ownerOf */\n      tag_62\n        /* \"erc721a/contracts/ERC721A.sol\":41473:41489  ownerOf(tokenId) */\n      jump\t// in\n    tag_203:\n        /* \"erc721a/contracts/ERC721A.sol\":41457:41489  address owner = ownerOf(tokenId) */\n      swap1\n      pop\n        /* \"erc721a/contracts/ERC721A.sol\":41504:41517  approvalCheck */\n      dup2\n        /* \"erc721a/contracts/ERC721A.sol\":41504:41549  approvalCheck && _msgSenderERC721A() != owner */\n      dup1\n      iszero\n      tag_204\n      jumpi\n      pop\n        /* \"erc721a/contracts/ERC721A.sol\":47819:47829  msg.sender */\n      caller\n      sub(shl(0xa0, 0x01), 0x01)\n        /* \"erc721a/contracts/ERC721A.sol\":41521:41549  _msgSenderERC721A() != owner */\n      dup3\n      and\n      eq\n      iszero\n        /* \"erc721a/contracts/ERC721A.sol\":41504:41549  approvalCheck && _msgSenderERC721A() != owner */\n    tag_204:\n        /* \"erc721a/contracts/ERC721A.sol\":41500:41698  if (approvalCheck && _msgSenderERC721A() != owner)... */\n      iszero\n      tag_210\n      jumpi\n        /* \"erc721a/contracts/ERC721A.sol\":41568:41612  isApprovedForAll(owner, _msgSenderERC721A()) */\n      tag_207\n        /* \"erc721a/contracts/ERC721A.sol\":41585:41590  owner */\n      dup2\n        /* \"erc721a/contracts/ERC721A.sol\":47819:47829  msg.sender */\n      caller\n        /* \"erc721a/contracts/ERC721A.sol\":19567:19729  function isApprovedForAll(address owner, address operator) public view virtual override returns (bool) {... */\n      tag_90\n      jump\t// in\n        /* \"erc721a/contracts/ERC721A.sol\":41568:41612  isApprovedForAll(owner, _msgSenderERC721A()) */\n    tag_207:\n        /* \"erc721a/contracts/ERC721A.sol\":41563:41698  if (!isApprovedForAll(owner, _msgSenderERC721A())) {... */\n      tag_210\n      jumpi\n        /* \"erc721a/contracts/ERC721A.sol\":41632:41683  _revert(ApprovalCallerNotOwnerNorApproved.selector) */\n      tag_210\n        /* \"erc721a/contracts/ERC721A.sol\":41640:41682  ApprovalCallerNotOwnerNorApproved.selector */\n      0xcfb3b94200000000000000000000000000000000000000000000000000000000\n        /* \"erc721a/contracts/ERC721A.sol\":41632:41639  _revert */\n      tag_109\n        /* \"erc721a/contracts/ERC721A.sol\":41632:41683  _revert(ApprovalCallerNotOwnerNorApproved.selector) */\n      jump\t// in\n    tag_210:\n        /* \"erc721a/contracts/ERC721A.sol\":41708:41732  _tokenApprovals[tokenId] */\n      0x00\n      dup4\n      dup2\n      mstore\n        /* \"erc721a/contracts/ERC721A.sol\":41708:41723  _tokenApprovals */\n      0x06\n        /* \"erc721a/contracts/ERC721A.sol\":41708:41732  _tokenApprovals[tokenId] */\n      0x20\n      mstore\n      0x40\n      dup1\n      dup3\n      keccak256\n        /* \"erc721a/contracts/ERC721A.sol\":41708:41743  _tokenApprovals[tokenId].value = to */\n      dup1\n      sload\n      0xffffffffffffffffffffffff0000000000000000000000000000000000000000\n      and\n      sub(shl(0xa0, 0x01), 0x01)\n      dup9\n      dup2\n      and\n      swap2\n      dup3\n      or\n      swap1\n      swap3\n      sstore\n        /* \"erc721a/contracts/ERC721A.sol\":41758:41786  Approval(owner, to, tokenId) */\n      swap2\n      mload\n        /* \"erc721a/contracts/ERC721A.sol\":41708:41732  _tokenApprovals[tokenId] */\n      dup7\n      swap4\n        /* \"erc721a/contracts/ERC721A.sol\":41758:41786  Approval(owner, to, tokenId) */\n      swap2\n      dup6\n      and\n      swap2\n      0x8c5be1e5ebec7d5bd14f71427d1e84f3dd0314c0f7b2291e5b200ac8c7c3b925\n      swap2\n      log4\n        /* \"erc721a/contracts/ERC721A.sol\":41447:41793  {... */\n      pop\n        /* \"erc721a/contracts/ERC721A.sol\":41333:41793  function _approve(... */\n      pop\n      pop\n      pop\n      jump\t// out\n        /* \"erc721a/contracts/ERC721A.sol\":14380:16553  function _packedOwnershipOf(uint256 tokenId) private view returns (uint256 packed) {... */\n    tag_121:\n        /* \"erc721a/contracts/ERC721A.sol\":14528:14554  _packedOwnerships[tokenId] */\n      0x00\n      dup2\n      dup2\n      mstore\n        /* \"erc721a/contracts/ERC721A.sol\":14528:14545  _packedOwnerships */\n      0x04\n        /* \"erc721a/contracts/ERC721A.sol\":14528:14554  _packedOwnerships[tokenId] */\n      0x20\n      mstore\n      0x40\n      swap1\n      keccak256\n      sload\n        /* \"erc721a/contracts/ERC721A.sol\":14847:14853  packed */\n      dup1\n        /* \"erc721a/contracts/ERC721A.sol\":14857:14858  0 */\n      0x00\n        /* \"erc721a/contracts/ERC721A.sol\":14847:14858  packed == 0 */\n      sub\n        /* \"erc721a/contracts/ERC721A.sol\":14843:16113  if (packed == 0) {... */\n      tag_221\n      jumpi\n        /* \"erc721a/contracts/ERC721A.sol\":14893:14906  _currentIndex */\n      sload(0x00)\n        /* \"erc721a/contracts/ERC721A.sol\":14882:14889  tokenId */\n      dup3\n        /* \"erc721a/contracts/ERC721A.sol\":14882:14906  tokenId >= _currentIndex */\n      lt\n        /* \"erc721a/contracts/ERC721A.sol\":14878:14955  if (tokenId >= _currentIndex) _revert(OwnerQueryForNonexistentToken.selector) */\n      tag_223\n      jumpi\n        /* \"erc721a/contracts/ERC721A.sol\":14908:14955  _revert(OwnerQueryForNonexistentToken.selector) */\n      tag_223\n      shl(0xe1, 0x6f96cda1)\n        /* \"erc721a/contracts/ERC721A.sol\":14908:14915  _revert */\n      tag_109\n        /* \"erc721a/contracts/ERC721A.sol\":14908:14955  _revert(OwnerQueryForNonexistentToken.selector) */\n      jump\t// in\n    tag_223:\n        /* \"erc721a/contracts/ERC721A.sol\":15502:16099  for (;;) {... */\n    tag_224:\n      pop\n      not(0x00)\n        /* \"erc721a/contracts/ERC721A.sol\":15596:15605  --tokenId */\n      add\n        /* \"erc721a/contracts/ERC721A.sol\":15578:15606  _packedOwnerships[--tokenId] */\n      0x00\n      dup2\n      dup2\n      mstore\n        /* \"erc721a/contracts/ERC721A.sol\":15578:15595  _packedOwnerships */\n      0x04\n        /* \"erc721a/contracts/ERC721A.sol\":15578:15606  _packedOwnerships[--tokenId] */\n      0x20\n      mstore\n      0x40\n      swap1\n      keccak256\n      sload\n        /* \"erc721a/contracts/ERC721A.sol\":15650:15675  if (packed == 0) continue */\n      dup1\n      iszero\n        /* \"erc721a/contracts/ERC721A.sol\":15502:16099  for (;;) {... */\n      tag_224\n        /* \"erc721a/contracts/ERC721A.sol\":15650:15675  if (packed == 0) continue */\n      jumpi\n      shl(0xe0, 0x01)\n        /* \"erc721a/contracts/ERC721A.sol\":15701:15707  packed */\n      dup2\n        /* \"erc721a/contracts/ERC721A.sol\":15701:15725  packed & _BITMASK_BURNED */\n      and\n        /* \"erc721a/contracts/ERC721A.sol\":15729:15730  0 */\n      0x00\n        /* \"erc721a/contracts/ERC721A.sol\":15701:15730  packed & _BITMASK_BURNED == 0 */\n      sub\n        /* \"erc721a/contracts/ERC721A.sol\":15697:15745  if (packed & _BITMASK_BURNED == 0) return packed */\n      tag_228\n      jumpi\n        /* \"erc721a/contracts/ERC721A.sol\":14380:16553  function _packedOwnershipOf(uint256 tokenId) private view returns (uint256 packed) {... */\n      swap2\n      swap1\n      pop\n      jump\t// out\n        /* \"erc721a/contracts/ERC721A.sol\":15697:15745  if (packed & _BITMASK_BURNED == 0) return packed */\n    tag_228:\n        /* \"erc721a/contracts/ERC721A.sol\":16033:16080  _revert(OwnerQueryForNonexistentToken.selector) */\n      tag_229\n      shl(0xe1, 0x6f96cda1)\n        /* \"erc721a/contracts/ERC721A.sol\":16033:16040  _revert */\n      tag_109\n        /* \"erc721a/contracts/ERC721A.sol\":16033:16080  _revert(OwnerQueryForNonexistentToken.selector) */\n      jump\t// in\n    tag_229:\n        /* \"erc721a/contracts/ERC721A.sol\":15502:16099  for (;;) {... */\n      jump(tag_224)\n        /* \"erc721a/contracts/ERC721A.sol\":14843:16113  if (packed == 0) {... */\n    tag_221:\n      shl(0xe0, 0x01)\n        /* \"erc721a/contracts/ERC721A.sol\":16435:16441  packed */\n      dup2\n        /* \"erc721a/contracts/ERC721A.sol\":16435:16459  packed & _BITMASK_BURNED */\n      and\n        /* \"erc721a/contracts/ERC721A.sol\":16463:16464  0 */\n      0x00\n        /* \"erc721a/contracts/ERC721A.sol\":16435:16464  packed & _BITMASK_BURNED == 0 */\n      sub\n        /* \"erc721a/contracts/ERC721A.sol\":16431:16479  if (packed & _BITMASK_BURNED == 0) return packed */\n      tag_230\n      jumpi\n        /* \"erc721a/contracts/ERC721A.sol\":14380:16553  function _packedOwnershipOf(uint256 tokenId) private view returns (uint256 packed) {... */\n      swap2\n      swap1\n      pop\n      jump\t// out\n        /* \"erc721a/contracts/ERC721A.sol\":16431:16479  if (packed & _BITMASK_BURNED == 0) return packed */\n    tag_230:\n        /* \"erc721a/contracts/ERC721A.sol\":16499:16546  _revert(OwnerQueryForNonexistentToken.selector) */\n      tag_196\n      shl(0xe1, 0x6f96cda1)\n        /* \"erc721a/contracts/ERC721A.sol\":16499:16506  _revert */\n      tag_109\n        /* \"erc721a/contracts/ERC721A.sol\":16499:16546  _revert(OwnerQueryForNonexistentToken.selector) */\n      jump\t// in\n        /* \"erc721a/contracts/ERC721A.sol\":36661:36771  function _safeMint(address to, uint256 quantity) internal virtual {... */\n    tag_153:\n        /* \"erc721a/contracts/ERC721A.sol\":36737:36764  _safeMint(to, quantity, '') */\n      tag_111\n        /* \"erc721a/contracts/ERC721A.sol\":36747:36749  to */\n      dup3\n        /* \"erc721a/contracts/ERC721A.sol\":36751:36759  quantity */\n      dup3\n        /* \"erc721a/contracts/ERC721A.sol\":36737:36764  _safeMint(to, quantity, '') */\n      mload(0x40)\n      dup1\n      0x20\n      add\n      0x40\n      mstore\n      dup1\n      0x00\n      dup2\n      mstore\n      pop\n        /* \"erc721a/contracts/ERC721A.sol\":36737:36746  _safeMint */\n      tag_243\n        /* \"erc721a/contracts/ERC721A.sol\":36737:36764  _safeMint(to, quantity, '') */\n      jump\t// in\n        /* \"erc721a/contracts/ERC721A.sol\":29533:30206  function _checkContractOnERC721Received(... */\n    tag_173:\n        /* \"erc721a/contracts/ERC721A.sol\":29711:29799  ERC721A__IERC721Receiver(to).onERC721Received(_msgSenderERC721A(), from, tokenId, _data) */\n      mload(0x40)\n      shl(0xe1, 0x0a85bd01)\n      dup2\n      mstore\n        /* \"erc721a/contracts/ERC721A.sol\":29691:29695  bool */\n      0x00\n      swap1\n      sub(shl(0xa0, 0x01), 0x01)\n        /* \"erc721a/contracts/ERC721A.sol\":29711:29756  ERC721A__IERC721Receiver(to).onERC721Received */\n      dup6\n      and\n      swap1\n      0x150b7a02\n      swap1\n        /* \"erc721a/contracts/ERC721A.sol\":29711:29799  ERC721A__IERC721Receiver(to).onERC721Received(_msgSenderERC721A(), from, tokenId, _data) */\n      tag_246\n      swap1\n        /* \"erc721a/contracts/ERC721A.sol\":47819:47829  msg.sender */\n      caller\n      swap1\n        /* \"erc721a/contracts/ERC721A.sol\":29778:29782  from */\n      dup10\n      swap1\n        /* \"erc721a/contracts/ERC721A.sol\":29784:29791  tokenId */\n      dup9\n      swap1\n        /* \"erc721a/contracts/ERC721A.sol\":29793:29798  _data */\n      dup9\n      swap1\n        /* \"erc721a/contracts/ERC721A.sol\":29711:29799  ERC721A__IERC721Receiver(to).onERC721Received(_msgSenderERC721A(), from, tokenId, _data) */\n      0x04\n      add\n      tag_247\n      jump\t// in\n    tag_246:\n      0x20\n      mload(0x40)\n      dup1\n      dup4\n      sub\n      dup2\n      0x00\n      dup8\n      gas\n      call\n      swap3\n      pop\n      pop\n      pop\n      dup1\n      iszero\n      tag_248\n      jumpi\n      pop\n      0x40\n      dup1\n      mload\n      0x1f\n      returndatasize\n      swap1\n      dup2\n      add\n      not(0x1f)\n      and\n      dup3\n      add\n      swap1\n      swap3\n      mstore\n      tag_249\n      swap2\n      dup2\n      add\n      swap1\n      tag_250\n      jump\t// in\n    tag_249:\n      0x01\n    tag_248:\n        /* \"erc721a/contracts/ERC721A.sol\":29707:30200  try ERC721A__IERC721Receiver(to).onERC721Received(_msgSenderERC721A(), from, tokenId, _data) returns (... */\n      tag_251\n      jumpi\n      returndatasize\n      dup1\n      dup1\n      iszero\n      tag_256\n      jumpi\n      mload(0x40)\n      swap2\n      pop\n      and(add(returndatasize, 0x3f), not(0x1f))\n      dup3\n      add\n      0x40\n      mstore\n      returndatasize\n      dup3\n      mstore\n      returndatasize\n      0x00\n      0x20\n      dup5\n      add\n      returndatacopy\n      jump(tag_255)\n    tag_256:\n      0x60\n      swap2\n      pop\n    tag_255:\n      pop\n        /* \"erc721a/contracts/ERC721A.sol\":29989:29995  reason */\n      dup1\n        /* \"erc721a/contracts/ERC721A.sol\":29989:30002  reason.length */\n      mload\n        /* \"erc721a/contracts/ERC721A.sol\":30006:30007  0 */\n      0x00\n        /* \"erc721a/contracts/ERC721A.sol\":29989:30007  reason.length == 0 */\n      sub\n        /* \"erc721a/contracts/ERC721A.sol\":29985:30098  if (reason.length == 0) {... */\n      tag_258\n      jumpi\n        /* \"erc721a/contracts/ERC721A.sol\":30027:30083  _revert(TransferToNonERC721ReceiverImplementer.selector) */\n      tag_258\n      shl(0xe1, 0x68d2bf6b)\n        /* \"erc721a/contracts/ERC721A.sol\":30027:30034  _revert */\n      tag_109\n        /* \"erc721a/contracts/ERC721A.sol\":30027:30083  _revert(TransferToNonERC721ReceiverImplementer.selector) */\n      jump\t// in\n    tag_258:\n        /* \"erc721a/contracts/ERC721A.sol\":30168:30174  reason */\n      dup1\n        /* \"erc721a/contracts/ERC721A.sol\":30162:30175  mload(reason) */\n      mload\n        /* \"erc721a/contracts/ERC721A.sol\":30153:30159  reason */\n      dup2\n        /* \"erc721a/contracts/ERC721A.sol\":30149:30151  32 */\n      0x20\n        /* \"erc721a/contracts/ERC721A.sol\":30145:30160  add(32, reason) */\n      add\n        /* \"erc721a/contracts/ERC721A.sol\":30138:30176  revert(add(32, reason), mload(reason)) */\n      revert\n        /* \"erc721a/contracts/ERC721A.sol\":29707:30200  try ERC721A__IERC721Receiver(to).onERC721Received(_msgSenderERC721A(), from, tokenId, _data) returns (... */\n    tag_251:\n      not(sub(shl(0xe0, 0x01), 0x01))\n        /* \"erc721a/contracts/ERC721A.sol\":29867:29931  retval == ERC721A__IERC721Receiver(to).onERC721Received.selector */\n      and\n      shl(0xe1, 0x0a85bd01)\n      eq\n      swap1\n      pop\n        /* \"erc721a/contracts/ERC721A.sol\":29707:30200  try ERC721A__IERC721Receiver(to).onERC721Received(_msgSenderERC721A(), from, tokenId, _data) returns (... */\n    tag_259:\n        /* \"erc721a/contracts/ERC721A.sol\":29533:30206  function _checkContractOnERC721Received(... */\n      swap5\n      swap4\n      pop\n      pop\n      pop\n      pop\n      jump\t// out\n        /* \"erc721a/contracts/ERC721A.sol\":47933:49641  function _toString(uint256 value) internal pure virtual returns (string memory str) {... */\n    tag_185:\n        /* \"erc721a/contracts/ERC721A.sol\":47998:48015  string memory str */\n      0x60\n        /* \"erc721a/contracts/ERC721A.sol\":48426:48430  0xa0 */\n      0xa0\n        /* \"erc721a/contracts/ERC721A.sol\":48419:48423  0x40 */\n      0x40\n        /* \"erc721a/contracts/ERC721A.sol\":48413:48424  mload(0x40) */\n      mload\n        /* \"erc721a/contracts/ERC721A.sol\":48409:48431  add(mload(0x40), 0xa0) */\n      add\n        /* \"erc721a/contracts/ERC721A.sol\":48516:48517  m */\n      dup1\n        /* \"erc721a/contracts/ERC721A.sol\":48510:48514  0x40 */\n      0x40\n        /* \"erc721a/contracts/ERC721A.sol\":48503:48518  mstore(0x40, m) */\n      mstore\n        /* \"erc721a/contracts/ERC721A.sol\":48589:48593  0x20 */\n      0x20\n        /* \"erc721a/contracts/ERC721A.sol\":48586:48587  m */\n      dup2\n        /* \"erc721a/contracts/ERC721A.sol\":48582:48594  sub(m, 0x20) */\n      sub\n        /* \"erc721a/contracts/ERC721A.sol\":48575:48594  str := sub(m, 0x20) */\n      swap2\n      pop\n      pop\n        /* \"erc721a/contracts/ERC721A.sol\":48669:48670  0 */\n      0x00\n        /* \"erc721a/contracts/ERC721A.sol\":48664:48667  str */\n      dup2\n        /* \"erc721a/contracts/ERC721A.sol\":48657:48671  mstore(str, 0) */\n      mstore\n        /* \"erc721a/contracts/ERC721A.sol\":48770:48773  str */\n      dup1\n        /* \"erc721a/contracts/ERC721A.sol\":49004:49009  value */\n      dup3\n        /* \"erc721a/contracts/ERC721A.sol\":48986:49405  for { let temp := value } 1 {} {... */\n    tag_262:\n        /* \"erc721a/contracts/ERC721A.sol\":49051:49052  1 */\n      0x01\n        /* \"erc721a/contracts/ERC721A.sol\":49046:49049  str */\n      dup4\n        /* \"erc721a/contracts/ERC721A.sol\":49042:49053  sub(str, 1) */\n      sub\n        /* \"erc721a/contracts/ERC721A.sol\":49035:49053  str := sub(str, 1) */\n      swap3\n      pop\n        /* \"erc721a/contracts/ERC721A.sol\":49219:49221  10 */\n      0x0a\n        /* \"erc721a/contracts/ERC721A.sol\":49213:49217  temp */\n      dup2\n        /* \"erc721a/contracts/ERC721A.sol\":49209:49222  mod(temp, 10) */\n      mod\n        /* \"erc721a/contracts/ERC721A.sol\":49205:49207  48 */\n      0x30\n        /* \"erc721a/contracts/ERC721A.sol\":49201:49223  add(48, mod(temp, 10)) */\n      add\n        /* \"erc721a/contracts/ERC721A.sol\":49196:49199  str */\n      dup4\n        /* \"erc721a/contracts/ERC721A.sol\":49188:49224  mstore8(str, add(48, mod(temp, 10))) */\n      mstore8\n        /* \"erc721a/contracts/ERC721A.sol\":49311:49313  10 */\n      0x0a\n        /* \"erc721a/contracts/ERC721A.sol\":49301:49314  div(temp, 10) */\n      swap1\n      div\n        /* \"erc721a/contracts/ERC721A.sol\":49366:49391  if iszero(temp) { break } */\n      dup1\n        /* \"erc721a/contracts/ERC721A.sol\":48986:49405  for { let temp := value } 1 {} {... */\n      tag_262\n        /* \"erc721a/contracts/ERC721A.sol\":49366:49391  if iszero(temp) { break } */\n      jumpi\n      pop\n        /* \"erc721a/contracts/ERC721A.sol\":49433:49446  sub(end, str) */\n      dup2\n      swap1\n      sub\n      not(0x1f)\n        /* \"erc721a/contracts/ERC721A.sol\":49546:49560  sub(str, 0x20) */\n      swap1\n      swap2\n      add\n        /* \"erc721a/contracts/ERC721A.sol\":49606:49625  mstore(str, length) */\n      swap1\n      dup2\n      mstore\n        /* \"erc721a/contracts/ERC721A.sol\":49546:49560  sub(str, 0x20) */\n      swap2\n        /* \"erc721a/contracts/ERC721A.sol\":47933:49641  function _toString(uint256 value) internal pure virtual returns (string memory str) {... */\n      swap1\n      pop\n      jump\t// out\n        /* \"erc721a/contracts/ERC721A.sol\":35816:36582  function _safeMint(... */\n    tag_243:\n        /* \"erc721a/contracts/ERC721A.sol\":35942:35961  _mint(to, quantity) */\n      tag_269\n        /* \"erc721a/contracts/ERC721A.sol\":35948:35950  to */\n      dup4\n        /* \"erc721a/contracts/ERC721A.sol\":35952:35960  quantity */\n      dup4\n        /* \"erc721a/contracts/ERC721A.sol\":35942:35947  _mint */\n      tag_270\n        /* \"erc721a/contracts/ERC721A.sol\":35942:35961  _mint(to, quantity) */\n      jump\t// in\n    tag_269:\n      sub(shl(0xa0, 0x01), 0x01)\n        /* \"erc721a/contracts/ERC721A.sol\":36000:36014  to.code.length */\n      dup4\n      and\n      extcodesize\n        /* \"erc721a/contracts/ERC721A.sol\":36000:36019  to.code.length != 0 */\n      iszero\n        /* \"erc721a/contracts/ERC721A.sol\":35996:36566  if (to.code.length != 0) {... */\n      tag_150\n      jumpi\n        /* \"erc721a/contracts/ERC721A.sol\":36039:36050  uint256 end */\n      0x00\n        /* \"erc721a/contracts/ERC721A.sol\":36053:36066  _currentIndex */\n      sload\n        /* \"erc721a/contracts/ERC721A.sol\":36100:36114  end - quantity */\n      dup3\n      dup2\n      sub\n        /* \"erc721a/contracts/ERC721A.sol\":36132:36370  do {... */\n    tag_272:\n        /* \"erc721a/contracts/ERC721A.sol\":36162:36224  _checkContractOnERC721Received(address(0), to, index++, _data) */\n      tag_275\n        /* \"erc721a/contracts/ERC721A.sol\":36201:36202  0 */\n      0x00\n        /* \"erc721a/contracts/ERC721A.sol\":36205:36207  to */\n      dup7\n        /* \"erc721a/contracts/ERC721A.sol\":36209:36216  index++ */\n      dup4\n      dup1\n      0x01\n      add\n      swap5\n      pop\n        /* \"erc721a/contracts/ERC721A.sol\":36218:36223  _data */\n      dup7\n        /* \"erc721a/contracts/ERC721A.sol\":36162:36192  _checkContractOnERC721Received */\n      tag_173\n        /* \"erc721a/contracts/ERC721A.sol\":36162:36224  _checkContractOnERC721Received(address(0), to, index++, _data) */\n      jump\t// in\n    tag_275:\n        /* \"erc721a/contracts/ERC721A.sol\":36157:36331  if (!_checkContractOnERC721Received(address(0), to, index++, _data)) {... */\n      tag_277\n      jumpi\n        /* \"erc721a/contracts/ERC721A.sol\":36252:36308  _revert(TransferToNonERC721ReceiverImplementer.selector) */\n      tag_277\n      shl(0xe1, 0x68d2bf6b)\n        /* \"erc721a/contracts/ERC721A.sol\":36252:36259  _revert */\n      tag_109\n        /* \"erc721a/contracts/ERC721A.sol\":36252:36308  _revert(TransferToNonERC721ReceiverImplementer.selector) */\n      jump\t// in\n    tag_277:\n        /* \"erc721a/contracts/ERC721A.sol\":36365:36368  end */\n      dup2\n        /* \"erc721a/contracts/ERC721A.sol\":36357:36362  index */\n      dup2\n        /* \"erc721a/contracts/ERC721A.sol\":36357:36368  index < end */\n      lt\n        /* \"erc721a/contracts/ERC721A.sol\":36132:36370  do {... */\n      tag_272\n      jumpi\n        /* \"erc721a/contracts/ERC721A.sol\":36538:36541  end */\n      dup2\n        /* \"erc721a/contracts/ERC721A.sol\":36521:36534  _currentIndex */\n      sload(0x00)\n        /* \"erc721a/contracts/ERC721A.sol\":36521:36541  _currentIndex != end */\n      eq\n        /* \"erc721a/contracts/ERC721A.sol\":36517:36551  if (_currentIndex != end) revert() */\n      tag_278\n      jumpi\n        /* \"erc721a/contracts/ERC721A.sol\":36543:36551  revert() */\n      0x00\n      dup1\n      revert\n        /* \"erc721a/contracts/ERC721A.sol\":36517:36551  if (_currentIndex != end) revert() */\n    tag_278:\n        /* \"erc721a/contracts/ERC721A.sol\":36021:36566  {... */\n      pop\n      pop\n        /* \"erc721a/contracts/ERC721A.sol\":35816:36582  function _safeMint(... */\n      pop\n      pop\n      pop\n      jump\t// out\n        /* \"erc721a/contracts/ERC721A.sol\":30652:32995  function _mint(address to, uint256 quantity) internal virtual {... */\n    tag_270:\n        /* \"erc721a/contracts/ERC721A.sol\":30724:30744  uint256 startTokenId */\n      0x00\n        /* \"erc721a/contracts/ERC721A.sol\":30747:30760  _currentIndex */\n      dup1\n      sload\n      swap1\n        /* \"erc721a/contracts/ERC721A.sol\":30774:30787  quantity == 0 */\n      dup3\n      swap1\n      sub\n        /* \"erc721a/contracts/ERC721A.sol\":30770:30823  if (quantity == 0) _revert(MintZeroQuantity.selector) */\n      tag_281\n      jumpi\n        /* \"erc721a/contracts/ERC721A.sol\":30789:30823  _revert(MintZeroQuantity.selector) */\n      tag_281\n        /* \"erc721a/contracts/ERC721A.sol\":30797:30822  MintZeroQuantity.selector */\n      0xb562e8dd00000000000000000000000000000000000000000000000000000000\n        /* \"erc721a/contracts/ERC721A.sol\":30789:30796  _revert */\n      tag_109\n        /* \"erc721a/contracts/ERC721A.sol\":30789:30823  _revert(MintZeroQuantity.selector) */\n      jump\t// in\n    tag_281:\n        /* \"erc721a/contracts/ERC721A.sol\":31323:31354  _packedOwnerships[startTokenId] */\n      0x00\n      dup2\n      dup2\n      mstore\n        /* \"erc721a/contracts/ERC721A.sol\":31323:31340  _packedOwnerships */\n      0x04\n        /* \"erc721a/contracts/ERC721A.sol\":31323:31354  _packedOwnerships[startTokenId] */\n      0x20\n      swap1\n      dup2\n      mstore\n      0x40\n      dup1\n      dup4\n      keccak256\n      sub(shl(0xa0, 0x01), 0x01)\n        /* \"erc721a/contracts/ERC721A.sol\":17320:17348  and(owner, _BITMASK_ADDRESS) */\n      dup8\n      and\n        /* \"erc721a/contracts/ERC721A.sol\":17492:17503  timestamp() */\n      timestamp\n        /* \"erc721a/contracts/ERC721A.sol\":17467:17490  _BITPOS_START_TIMESTAMP */\n      0xa0\n        /* \"erc721a/contracts/ERC721A.sol\":17463:17504  shl(_BITPOS_START_TIMESTAMP, timestamp()) */\n      shl\n        /* \"erc721a/contracts/ERC721A.sol\":17925:17926  1 */\n      0x01\n        /* \"erc721a/contracts/ERC721A.sol\":17912:17927  eq(quantity, 1) */\n      dup9\n      eq\n        /* \"erc721a/contracts/ERC721A.sol\":17886:17910  _BITPOS_NEXT_INITIALIZED */\n      0xe1\n        /* \"erc721a/contracts/ERC721A.sol\":17882:17928  shl(_BITPOS_NEXT_INITIALIZED, eq(quantity, 1)) */\n      shl\n        /* \"erc721a/contracts/ERC721A.sol\":17460:17512  or(shl(_BITPOS_START_TIMESTAMP, timestamp()), flags) */\n      or\n        /* \"erc721a/contracts/ERC721A.sol\":17450:17513  or(owner, or(shl(_BITPOS_START_TIMESTAMP, timestamp()), flags)) */\n      dup2\n      or\n        /* \"erc721a/contracts/ERC721A.sol\":31323:31493  _packedOwnerships[startTokenId] = _packOwnershipData(... */\n      swap1\n      swap2\n      sstore\n        /* \"erc721a/contracts/ERC721A.sol\":31704:31726  _packedAddressData[to] */\n      dup1\n      dup5\n      mstore\n        /* \"erc721a/contracts/ERC721A.sol\":31704:31722  _packedAddressData */\n      0x05\n        /* \"erc721a/contracts/ERC721A.sol\":31704:31726  _packedAddressData[to] */\n      swap1\n      swap3\n      mstore\n      dup3\n      keccak256\n        /* \"erc721a/contracts/ERC721A.sol\":31704:31775  _packedAddressData[to] += quantity * ((1 << _BITPOS_NUMBER_MINTED) | 1) */\n      dup1\n      sload\n        /* \"erc721a/contracts/ERC721A.sol\":31742:31774  (1 << _BITPOS_NUMBER_MINTED) | 1 */\n      0x010000000000000001\n        /* \"erc721a/contracts/ERC721A.sol\":31730:31775  quantity * ((1 << _BITPOS_NUMBER_MINTED) | 1) */\n      dup7\n      mul\n        /* \"erc721a/contracts/ERC721A.sol\":31704:31775  _packedAddressData[to] += quantity * ((1 << _BITPOS_NUMBER_MINTED) | 1) */\n      add\n      swap1\n      sstore\n        /* \"erc721a/contracts/ERC721A.sol\":17320:17348  and(owner, _BITMASK_ADDRESS) */\n      swap1\n        /* \"erc721a/contracts/ERC721A.sol\":31960:31973  toMasked == 0 */\n      dup2\n      swap1\n      sub\n        /* \"erc721a/contracts/ERC721A.sol\":31956:32010  if (toMasked == 0) _revert(MintToZeroAddress.selector) */\n      tag_288\n      jumpi\n        /* \"erc721a/contracts/ERC721A.sol\":31975:32010  _revert(MintToZeroAddress.selector) */\n      tag_288\n        /* \"erc721a/contracts/ERC721A.sol\":31983:32009  MintToZeroAddress.selector */\n      0x2e07630000000000000000000000000000000000000000000000000000000000\n        /* \"erc721a/contracts/ERC721A.sol\":31975:31982  _revert */\n      tag_109\n        /* \"erc721a/contracts/ERC721A.sol\":31975:32010  _revert(MintToZeroAddress.selector) */\n      jump\t// in\n    tag_288:\n        /* \"erc721a/contracts/ERC721A.sol\":32039:32062  startTokenId + quantity */\n      dup2\n      dup4\n      add\n      dup3\n        /* \"erc721a/contracts/ERC721A.sol\":32213:32875  do {... */\n    tag_292:\n        /* \"erc721a/contracts/ERC721A.sol\":32623:32630  tokenId */\n      dup1\n        /* \"erc721a/contracts/ERC721A.sol\":32580:32588  toMasked */\n      dup4\n        /* \"erc721a/contracts/ERC721A.sol\":32536:32537  0 */\n      0x00\n        /* \"erc721a/contracts/ERC721A.sol\":32471:32496  _TRANSFER_EVENT_SIGNATURE */\n      0xddf252ad1be2c89b69c2b068fc378daa952ba7f163c4a11628f55a4df523b3ef\n        /* \"erc721a/contracts/ERC721A.sol\":32409:32410  0 */\n      0x00\n        /* \"erc721a/contracts/ERC721A.sol\":32345:32346  0 */\n      dup1\n        /* \"erc721a/contracts/ERC721A.sol\":32315:32666  log4(... */\n      log4\n        /* \"erc721a/contracts/ERC721A.sol\":32870:32873  end */\n      dup2\n        /* \"erc721a/contracts/ERC721A.sol\":32857:32866  ++tokenId */\n      dup2\n      0x01\n      add\n      swap2\n      pop\n      dup2\n        /* \"erc721a/contracts/ERC721A.sol\":32857:32873  ++tokenId != end */\n      sub\n        /* \"erc721a/contracts/ERC721A.sol\":32213:32875  do {... */\n      tag_292\n      jumpi\n      pop\n        /* \"erc721a/contracts/ERC721A.sol\":32889:32902  _currentIndex */\n      0x00\n        /* \"erc721a/contracts/ERC721A.sol\":32889:32908  _currentIndex = end */\n      sstore\n      pop\n        /* \"erc721a/contracts/ERC721A.sol\":26334:26521  function safeTransferFrom(... */\n      pop\n      pop\n      pop\n      jump\t// out\n        /* \"#utility.yul\":14:191   */\n    tag_297:\n      not(sub(shl(0xe0, 0x01), 0x01))\n        /* \"#utility.yul\":92:97   */\n      dup2\n        /* \"#utility.yul\":88:166   */\n      and\n        /* \"#utility.yul\":81:86   */\n      dup2\n        /* \"#utility.yul\":78:167   */\n      eq\n        /* \"#utility.yul\":68:185   */\n      tag_304\n      jumpi\n        /* \"#utility.yul\":181:182   */\n      0x00\n        /* \"#utility.yul\":178:179   */\n      dup1\n        /* \"#utility.yul\":171:183   */\n      revert\n        /* \"#utility.yul\":68:185   */\n    tag_304:\n        /* \"#utility.yul\":14:191   */\n      pop\n      jump\t// out\n        /* \"#utility.yul\":196:441   */\n    tag_23:\n        /* \"#utility.yul\":254:260   */\n      0x00\n        /* \"#utility.yul\":307:309   */\n      0x20\n        /* \"#utility.yul\":295:304   */\n      dup3\n        /* \"#utility.yul\":286:293   */\n      dup5\n        /* \"#utility.yul\":282:305   */\n      sub\n        /* \"#utility.yul\":278:310   */\n      slt\n        /* \"#utility.yul\":275:327   */\n      iszero\n      tag_306\n      jumpi\n        /* \"#utility.yul\":323:324   */\n      0x00\n        /* \"#utility.yul\":320:321   */\n      dup1\n        /* \"#utility.yul\":313:325   */\n      revert\n        /* \"#utility.yul\":275:327   */\n    tag_306:\n        /* \"#utility.yul\":362:371   */\n      dup2\n        /* \"#utility.yul\":349:372   */\n      calldataload\n        /* \"#utility.yul\":381:411   */\n      tag_183\n        /* \"#utility.yul\":405:410   */\n      dup2\n        /* \"#utility.yul\":381:411   */\n      tag_297\n      jump\t// in\n        /* \"#utility.yul\":638:938   */\n    tag_298:\n        /* \"#utility.yul\":691:694   */\n      0x00\n        /* \"#utility.yul\":729:734   */\n      dup2\n        /* \"#utility.yul\":723:735   */\n      mload\n        /* \"#utility.yul\":756:762   */\n      dup1\n        /* \"#utility.yul\":751:754   */\n      dup5\n        /* \"#utility.yul\":744:763   */\n      mstore\n        /* \"#utility.yul\":812:818   */\n      dup1\n        /* \"#utility.yul\":805:809   */\n      0x20\n        /* \"#utility.yul\":798:803   */\n      dup5\n        /* \"#utility.yul\":794:810   */\n      add\n        /* \"#utility.yul\":787:791   */\n      0x20\n        /* \"#utility.yul\":782:785   */\n      dup7\n        /* \"#utility.yul\":778:792   */\n      add\n        /* \"#utility.yul\":772:819   */\n      mcopy\n        /* \"#utility.yul\":864:865   */\n      0x00\n        /* \"#utility.yul\":857:861   */\n      0x20\n        /* \"#utility.yul\":848:854   */\n      dup3\n        /* \"#utility.yul\":843:846   */\n      dup7\n        /* \"#utility.yul\":839:855   */\n      add\n        /* \"#utility.yul\":835:862   */\n      add\n        /* \"#utility.yul\":828:866   */\n      mstore\n        /* \"#utility.yul\":927:931   */\n      0x20\n        /* \"#utility.yul\":920:922   */\n      0x1f\n        /* \"#utility.yul\":916:923   */\n      not\n        /* \"#utility.yul\":911:913   */\n      0x1f\n        /* \"#utility.yul\":903:909   */\n      dup4\n        /* \"#utility.yul\":899:914   */\n      add\n        /* \"#utility.yul\":895:924   */\n      and\n        /* \"#utility.yul\":890:893   */\n      dup6\n        /* \"#utility.yul\":886:925   */\n      add\n        /* \"#utility.yul\":882:932   */\n      add\n        /* \"#utility.yul\":875:932   */\n      swap2\n      pop\n      pop\n        /* \"#utility.yul\":638:938   */\n      swap3\n      swap2\n      pop\n      pop\n      jump\t// out\n        /* \"#utility.yul\":943:1174   */\n    tag_31:\n        /* \"#utility.yul\":1092:1094   */\n      0x20\n        /* \"#utility.yul\":1081:1090   */\n      dup2\n        /* \"#utility.yul\":1074:1095   */\n      mstore\n        /* \"#utility.yul\":1055:1059   */\n      0x00\n        /* \"#utility.yul\":1112:1168   */\n      tag_183\n        /* \"#utility.yul\":1164:1166   */\n      0x20\n        /* \"#utility.yul\":1153:1162   */\n      dup4\n        /* \"#utility.yul\":1149:1167   */\n      add\n        /* \"#utility.yul\":1141:1147   */\n      dup5\n        /* \"#utility.yul\":1112:1168   */\n      tag_298\n      jump\t// in\n        /* \"#utility.yul\":1179:1359   */\n    tag_35:\n        /* \"#utility.yul\":1238:1244   */\n      0x00\n        /* \"#utility.yul\":1291:1293   */\n      0x20\n        /* \"#utility.yul\":1279:1288   */\n      dup3\n        /* \"#utility.yul\":1270:1277   */\n      dup5\n        /* \"#utility.yul\":1266:1289   */\n      sub\n        /* \"#utility.yul\":1262:1294   */\n      slt\n        /* \"#utility.yul\":1259:1311   */\n      iszero\n      tag_313\n      jumpi\n        /* \"#utility.yul\":1307:1308   */\n      0x00\n        /* \"#utility.yul\":1304:1305   */\n      dup1\n        /* \"#utility.yul\":1297:1309   */\n      revert\n        /* \"#utility.yul\":1259:1311   */\n    tag_313:\n      pop\n        /* \"#utility.yul\":1330:1353   */\n      calldataload\n      swap2\n        /* \"#utility.yul\":1179:1359   */\n      swap1\n      pop\n      jump\t// out\n        /* \"#utility.yul\":1595:1791   */\n    tag_299:\n        /* \"#utility.yul\":1663:1683   */\n      dup1\n      calldataload\n      sub(shl(0xa0, 0x01), 0x01)\n        /* \"#utility.yul\":1712:1766   */\n      dup2\n      and\n        /* \"#utility.yul\":1702:1767   */\n      dup2\n      eq\n        /* \"#utility.yul\":1692:1785   */\n      tag_196\n      jumpi\n        /* \"#utility.yul\":1781:1782   */\n      0x00\n        /* \"#utility.yul\":1778:1779   */\n      dup1\n        /* \"#utility.yul\":1771:1783   */\n      revert\n        /* \"#utility.yul\":1796:2050   */\n    tag_41:\n        /* \"#utility.yul\":1864:1870   */\n      0x00\n        /* \"#utility.yul\":1872:1878   */\n      dup1\n        /* \"#utility.yul\":1925:1927   */\n      0x40\n        /* \"#utility.yul\":1913:1922   */\n      dup4\n        /* \"#utility.yul\":1904:1911   */\n      dup6\n        /* \"#utility.yul\":1900:1923   */\n      sub\n        /* \"#utility.yul\":1896:1928   */\n      slt\n        /* \"#utility.yul\":1893:1945   */\n      iszero\n      tag_318\n      jumpi\n        /* \"#utility.yul\":1941:1942   */\n      0x00\n        /* \"#utility.yul\":1938:1939   */\n      dup1\n        /* \"#utility.yul\":1931:1943   */\n      revert\n        /* \"#utility.yul\":1893:1945   */\n    tag_318:\n        /* \"#utility.yul\":1964:1993   */\n      tag_319\n        /* \"#utility.yul\":1983:1992   */\n      dup4\n        /* \"#utility.yul\":1964:1993   */\n      tag_299\n      jump\t// in\n    tag_319:\n        /* \"#utility.yul\":1954:1993   */\n      swap5\n        /* \"#utility.yul\":2040:2042   */\n      0x20\n        /* \"#utility.yul\":2025:2043   */\n      swap4\n      swap1\n      swap4\n      add\n        /* \"#utility.yul\":2012:2044   */\n      calldataload\n      swap4\n      pop\n      pop\n      pop\n        /* \"#utility.yul\":1796:2050   */\n      jump\t// out\n        /* \"#utility.yul\":2237:2565   */\n    tag_50:\n        /* \"#utility.yul\":2314:2320   */\n      0x00\n        /* \"#utility.yul\":2322:2328   */\n      dup1\n        /* \"#utility.yul\":2330:2336   */\n      0x00\n        /* \"#utility.yul\":2383:2385   */\n      0x60\n        /* \"#utility.yul\":2371:2380   */\n      dup5\n        /* \"#utility.yul\":2362:2369   */\n      dup7\n        /* \"#utility.yul\":2358:2381   */\n      sub\n        /* \"#utility.yul\":2354:2386   */\n      slt\n        /* \"#utility.yul\":2351:2403   */\n      iszero\n      tag_322\n      jumpi\n        /* \"#utility.yul\":2399:2400   */\n      0x00\n        /* \"#utility.yul\":2396:2397   */\n      dup1\n        /* \"#utility.yul\":2389:2401   */\n      revert\n        /* \"#utility.yul\":2351:2403   */\n    tag_322:\n        /* \"#utility.yul\":2422:2451   */\n      tag_323\n        /* \"#utility.yul\":2441:2450   */\n      dup5\n        /* \"#utility.yul\":2422:2451   */\n      tag_299\n      jump\t// in\n    tag_323:\n        /* \"#utility.yul\":2412:2451   */\n      swap3\n      pop\n        /* \"#utility.yul\":2470:2508   */\n      tag_324\n        /* \"#utility.yul\":2504:2506   */\n      0x20\n        /* \"#utility.yul\":2493:2502   */\n      dup6\n        /* \"#utility.yul\":2489:2507   */\n      add\n        /* \"#utility.yul\":2470:2508   */\n      tag_299\n      jump\t// in\n    tag_324:\n        /* \"#utility.yul\":2460:2508   */\n      swap2\n      pop\n        /* \"#utility.yul\":2555:2557   */\n      0x40\n        /* \"#utility.yul\":2544:2553   */\n      dup5\n        /* \"#utility.yul\":2540:2558   */\n      add\n        /* \"#utility.yul\":2527:2559   */\n      calldataload\n        /* \"#utility.yul\":2517:2559   */\n      swap1\n      pop\n        /* \"#utility.yul\":2237:2565   */\n      swap3\n      pop\n      swap3\n      pop\n      swap3\n      jump\t// out\n        /* \"#utility.yul\":2570:2756   */\n    tag_67:\n        /* \"#utility.yul\":2629:2635   */\n      0x00\n        /* \"#utility.yul\":2682:2684   */\n      0x20\n        /* \"#utility.yul\":2670:2679   */\n      dup3\n        /* \"#utility.yul\":2661:2668   */\n      dup5\n        /* \"#utility.yul\":2657:2680   */\n      sub\n        /* \"#utility.yul\":2653:2685   */\n      slt\n        /* \"#utility.yul\":2650:2702   */\n      iszero\n      tag_326\n      jumpi\n        /* \"#utility.yul\":2698:2699   */\n      0x00\n        /* \"#utility.yul\":2695:2696   */\n      dup1\n        /* \"#utility.yul\":2688:2700   */\n      revert\n        /* \"#utility.yul\":2650:2702   */\n    tag_326:\n        /* \"#utility.yul\":2721:2750   */\n      tag_183\n        /* \"#utility.yul\":2740:2749   */\n      dup3\n        /* \"#utility.yul\":2721:2750   */\n      tag_299\n      jump\t// in\n        /* \"#utility.yul\":2761:3108   */\n    tag_77:\n        /* \"#utility.yul\":2826:2832   */\n      0x00\n        /* \"#utility.yul\":2834:2840   */\n      dup1\n        /* \"#utility.yul\":2887:2889   */\n      0x40\n        /* \"#utility.yul\":2875:2884   */\n      dup4\n        /* \"#utility.yul\":2866:2873   */\n      dup6\n        /* \"#utility.yul\":2862:2885   */\n      sub\n        /* \"#utility.yul\":2858:2890   */\n      slt\n        /* \"#utility.yul\":2855:2907   */\n      iszero\n      tag_329\n      jumpi\n        /* \"#utility.yul\":2903:2904   */\n      0x00\n        /* \"#utility.yul\":2900:2901   */\n      dup1\n        /* \"#utility.yul\":2893:2905   */\n      revert\n        /* \"#utility.yul\":2855:2907   */\n    tag_329:\n        /* \"#utility.yul\":2926:2955   */\n      tag_330\n        /* \"#utility.yul\":2945:2954   */\n      dup4\n        /* \"#utility.yul\":2926:2955   */\n      tag_299\n      jump\t// in\n    tag_330:\n        /* \"#utility.yul\":2916:2955   */\n      swap2\n      pop\n        /* \"#utility.yul\":3005:3007   */\n      0x20\n        /* \"#utility.yul\":2994:3003   */\n      dup4\n        /* \"#utility.yul\":2990:3008   */\n      add\n        /* \"#utility.yul\":2977:3009   */\n      calldataload\n        /* \"#utility.yul\":3052:3057   */\n      dup1\n        /* \"#utility.yul\":3045:3058   */\n      iszero\n        /* \"#utility.yul\":3038:3059   */\n      iszero\n        /* \"#utility.yul\":3031:3036   */\n      dup2\n        /* \"#utility.yul\":3028:3060   */\n      eq\n        /* \"#utility.yul\":3018:3078   */\n      tag_331\n      jumpi\n        /* \"#utility.yul\":3074:3075   */\n      0x00\n        /* \"#utility.yul\":3071:3072   */\n      dup1\n        /* \"#utility.yul\":3064:3076   */\n      revert\n        /* \"#utility.yul\":3018:3078   */\n    tag_331:\n        /* \"#utility.yul\":3097:3102   */\n      dup1\n        /* \"#utility.yul\":3087:3102   */\n      swap2\n      pop\n      pop\n        /* \"#utility.yul\":2761:3108   */\n      swap3\n      pop\n      swap3\n      swap1\n      pop\n      jump\t// out\n        /* \"#utility.yul\":3113:3297   */\n    tag_300:\n      shl(0xe0, 0x4e487b71)\n        /* \"#utility.yul\":3162:3163   */\n      0x00\n        /* \"#utility.yul\":3155:3243   */\n      mstore\n        /* \"#utility.yul\":3262:3266   */\n      0x41\n        /* \"#utility.yul\":3259:3260   */\n      0x04\n        /* \"#utility.yul\":3252:3267   */\n      mstore\n        /* \"#utility.yul\":3286:3290   */\n      0x24\n        /* \"#utility.yul\":3283:3284   */\n      0x00\n        /* \"#utility.yul\":3276:3291   */\n      revert\n        /* \"#utility.yul\":3302:4440   */\n    tag_81:\n        /* \"#utility.yul\":3397:3403   */\n      0x00\n        /* \"#utility.yul\":3405:3411   */\n      dup1\n        /* \"#utility.yul\":3413:3419   */\n      0x00\n        /* \"#utility.yul\":3421:3427   */\n      dup1\n        /* \"#utility.yul\":3474:3477   */\n      0x80\n        /* \"#utility.yul\":3462:3471   */\n      dup6\n        /* \"#utility.yul\":3453:3460   */\n      dup8\n        /* \"#utility.yul\":3449:3472   */\n      sub\n        /* \"#utility.yul\":3445:3478   */\n      slt\n        /* \"#utility.yul\":3442:3495   */\n      iszero\n      tag_334\n      jumpi\n        /* \"#utility.yul\":3491:3492   */\n      0x00\n        /* \"#utility.yul\":3488:3489   */\n      dup1\n        /* \"#utility.yul\":3481:3493   */\n      revert\n        /* \"#utility.yul\":3442:3495   */\n    tag_334:\n        /* \"#utility.yul\":3514:3543   */\n      tag_335\n        /* \"#utility.yul\":3533:3542   */\n      dup6\n        /* \"#utility.yul\":3514:3543   */\n      tag_299\n      jump\t// in\n    tag_335:\n        /* \"#utility.yul\":3504:3543   */\n      swap4\n      pop\n        /* \"#utility.yul\":3562:3600   */\n      tag_336\n        /* \"#utility.yul\":3596:3598   */\n      0x20\n        /* \"#utility.yul\":3585:3594   */\n      dup7\n        /* \"#utility.yul\":3581:3599   */\n      add\n        /* \"#utility.yul\":3562:3600   */\n      tag_299\n      jump\t// in\n    tag_336:\n        /* \"#utility.yul\":3552:3600   */\n      swap3\n      pop\n        /* \"#utility.yul\":3647:3649   */\n      0x40\n        /* \"#utility.yul\":3636:3645   */\n      dup6\n        /* \"#utility.yul\":3632:3650   */\n      add\n        /* \"#utility.yul\":3619:3651   */\n      calldataload\n        /* \"#utility.yul\":3609:3651   */\n      swap2\n      pop\n        /* \"#utility.yul\":3702:3704   */\n      0x60\n        /* \"#utility.yul\":3691:3700   */\n      dup6\n        /* \"#utility.yul\":3687:3705   */\n      add\n        /* \"#utility.yul\":3674:3706   */\n      calldataload\n        /* \"#utility.yul\":3725:3743   */\n      0xffffffffffffffff\n        /* \"#utility.yul\":3766:3768   */\n      dup1\n        /* \"#utility.yul\":3758:3764   */\n      dup3\n        /* \"#utility.yul\":3755:3769   */\n      gt\n        /* \"#utility.yul\":3752:3786   */\n      iszero\n      tag_337\n      jumpi\n        /* \"#utility.yul\":3782:3783   */\n      0x00\n        /* \"#utility.yul\":3779:3780   */\n      dup1\n        /* \"#utility.yul\":3772:3784   */\n      revert\n        /* \"#utility.yul\":3752:3786   */\n    tag_337:\n        /* \"#utility.yul\":3820:3826   */\n      dup2\n        /* \"#utility.yul\":3809:3818   */\n      dup8\n        /* \"#utility.yul\":3805:3827   */\n      add\n        /* \"#utility.yul\":3795:3827   */\n      swap2\n      pop\n        /* \"#utility.yul\":3865:3872   */\n      dup8\n        /* \"#utility.yul\":3858:3862   */\n      0x1f\n        /* \"#utility.yul\":3854:3856   */\n      dup4\n        /* \"#utility.yul\":3850:3863   */\n      add\n        /* \"#utility.yul\":3846:3873   */\n      slt\n        /* \"#utility.yul\":3836:3891   */\n      tag_338\n      jumpi\n        /* \"#utility.yul\":3887:3888   */\n      0x00\n        /* \"#utility.yul\":3884:3885   */\n      dup1\n        /* \"#utility.yul\":3877:3889   */\n      revert\n        /* \"#utility.yul\":3836:3891   */\n    tag_338:\n        /* \"#utility.yul\":3923:3925   */\n      dup2\n        /* \"#utility.yul\":3910:3926   */\n      calldataload\n        /* \"#utility.yul\":3945:3947   */\n      dup2\n        /* \"#utility.yul\":3941:3943   */\n      dup2\n        /* \"#utility.yul\":3938:3948   */\n      gt\n        /* \"#utility.yul\":3935:3971   */\n      iszero\n      tag_340\n      jumpi\n        /* \"#utility.yul\":3951:3969   */\n      tag_340\n      tag_300\n      jump\t// in\n    tag_340:\n        /* \"#utility.yul\":4026:4028   */\n      0x40\n        /* \"#utility.yul\":4020:4029   */\n      mload\n        /* \"#utility.yul\":3994:3996   */\n      0x1f\n        /* \"#utility.yul\":4080:4093   */\n      dup3\n      add\n      not(0x1f)\n        /* \"#utility.yul\":4076:4098   */\n      swap1\n      dup2\n      and\n        /* \"#utility.yul\":4100:4102   */\n      0x3f\n        /* \"#utility.yul\":4072:4103   */\n      add\n        /* \"#utility.yul\":4068:4108   */\n      and\n        /* \"#utility.yul\":4056:4109   */\n      dup2\n      add\n      swap1\n        /* \"#utility.yul\":4124:4142   */\n      dup4\n      dup3\n      gt\n        /* \"#utility.yul\":4144:4166   */\n      dup2\n      dup4\n      lt\n        /* \"#utility.yul\":4121:4167   */\n      or\n        /* \"#utility.yul\":4118:4190   */\n      iszero\n      tag_342\n      jumpi\n        /* \"#utility.yul\":4170:4188   */\n      tag_342\n      tag_300\n      jump\t// in\n    tag_342:\n        /* \"#utility.yul\":4210:4220   */\n      dup2\n        /* \"#utility.yul\":4206:4208   */\n      0x40\n        /* \"#utility.yul\":4199:4221   */\n      mstore\n        /* \"#utility.yul\":4245:4247   */\n      dup3\n        /* \"#utility.yul\":4237:4243   */\n      dup2\n        /* \"#utility.yul\":4230:4248   */\n      mstore\n        /* \"#utility.yul\":4285:4292   */\n      dup11\n        /* \"#utility.yul\":4280:4282   */\n      0x20\n        /* \"#utility.yul\":4275:4277   */\n      dup5\n        /* \"#utility.yul\":4271:4273   */\n      dup8\n        /* \"#utility.yul\":4267:4278   */\n      add\n        /* \"#utility.yul\":4263:4283   */\n      add\n        /* \"#utility.yul\":4260:4293   */\n      gt\n        /* \"#utility.yul\":4257:4310   */\n      iszero\n      tag_343\n      jumpi\n        /* \"#utility.yul\":4306:4307   */\n      0x00\n        /* \"#utility.yul\":4303:4304   */\n      dup1\n        /* \"#utility.yul\":4296:4308   */\n      revert\n        /* \"#utility.yul\":4257:4310   */\n    tag_343:\n        /* \"#utility.yul\":4362:4364   */\n      dup3\n        /* \"#utility.yul\":4357:4359   */\n      0x20\n        /* \"#utility.yul\":4353:4355   */\n      dup7\n        /* \"#utility.yul\":4349:4360   */\n      add\n        /* \"#utility.yul\":4344:4346   */\n      0x20\n        /* \"#utility.yul\":4336:4342   */\n      dup4\n        /* \"#utility.yul\":4332:4347   */\n      add\n        /* \"#utility.yul\":4319:4365   */\n      calldatacopy\n        /* \"#utility.yul\":4407:4408   */\n      0x00\n        /* \"#utility.yul\":4402:4404   */\n      0x20\n        /* \"#utility.yul\":4397:4399   */\n      dup5\n        /* \"#utility.yul\":4389:4395   */\n      dup4\n        /* \"#utility.yul\":4385:4400   */\n      add\n        /* \"#utility.yul\":4381:4405   */\n      add\n        /* \"#utility.yul\":4374:4409   */\n      mstore\n        /* \"#utility.yul\":4428:4434   */\n      dup1\n        /* \"#utility.yul\":4418:4434   */\n      swap6\n      pop\n      pop\n      pop\n      pop\n      pop\n      pop\n        /* \"#utility.yul\":3302:4440   */\n      swap3\n      swap6\n      swap2\n      swap5\n      pop\n      swap3\n      pop\n      jump\t// out\n        /* \"#utility.yul\":4445:4705   */\n    tag_91:\n        /* \"#utility.yul\":4513:4519   */\n      0x00\n        /* \"#utility.yul\":4521:4527   */\n      dup1\n        /* \"#utility.yul\":4574:4576   */\n      0x40\n        /* \"#utility.yul\":4562:4571   */\n      dup4\n        /* \"#utility.yul\":4553:4560   */\n      dup6\n        /* \"#utility.yul\":4549:4572   */\n      sub\n        /* \"#utility.yul\":4545:4577   */\n      slt\n        /* \"#utility.yul\":4542:4594   */\n      iszero\n      tag_345\n      jumpi\n        /* \"#utility.yul\":4590:4591   */\n      0x00\n        /* \"#utility.yul\":4587:4588   */\n      dup1\n        /* \"#utility.yul\":4580:4592   */\n      revert\n        /* \"#utility.yul\":4542:4594   */\n    tag_345:\n        /* \"#utility.yul\":4613:4642   */\n      tag_346\n        /* \"#utility.yul\":4632:4641   */\n      dup4\n        /* \"#utility.yul\":4613:4642   */\n      tag_299\n      jump\t// in\n    tag_346:\n        /* \"#utility.yul\":4603:4642   */\n      swap2\n      pop\n        /* \"#utility.yul\":4661:4699   */\n      tag_347\n        /* \"#utility.yul\":4695:4697   */\n      0x20\n        /* \"#utility.yul\":4684:4693   */\n      dup5\n        /* \"#utility.yul\":4680:4698   */\n      add\n        /* \"#utility.yul\":4661:4699   */\n      tag_299\n      jump\t// in\n    tag_347:\n        /* \"#utility.yul\":4651:4699   */\n      swap1\n      pop\n        /* \"#utility.yul\":4445:4705   */\n      swap3\n      pop\n      swap3\n      swap1\n      pop\n      jump\t// out\n        /* \"#utility.yul\":4710:5147   */\n    tag_99:\n        /* \"#utility.yul\":4789:4790   */\n      0x01\n        /* \"#utility.yul\":4785:4797   */\n      dup2\n      dup2\n      shr\n      swap1\n        /* \"#utility.yul\":4832:4844   */\n      dup3\n      and\n      dup1\n        /* \"#utility.yul\":4853:4914   */\n      tag_349\n      jumpi\n        /* \"#utility.yul\":4907:4911   */\n      0x7f\n        /* \"#utility.yul\":4899:4905   */\n      dup3\n        /* \"#utility.yul\":4895:4912   */\n      and\n        /* \"#utility.yul\":4885:4912   */\n      swap2\n      pop\n        /* \"#utility.yul\":4853:4914   */\n    tag_349:\n        /* \"#utility.yul\":4960:4962   */\n      0x20\n        /* \"#utility.yul\":4952:4958   */\n      dup3\n        /* \"#utility.yul\":4949:4963   */\n      lt\n        /* \"#utility.yul\":4929:4947   */\n      dup2\n        /* \"#utility.yul\":4926:4964   */\n      sub\n        /* \"#utility.yul\":4923:5141   */\n      tag_350\n      jumpi\n      shl(0xe0, 0x4e487b71)\n        /* \"#utility.yul\":4994:4995   */\n      0x00\n        /* \"#utility.yul\":4987:5075   */\n      mstore\n        /* \"#utility.yul\":5098:5102   */\n      0x22\n        /* \"#utility.yul\":5095:5096   */\n      0x04\n        /* \"#utility.yul\":5088:5103   */\n      mstore\n        /* \"#utility.yul\":5126:5130   */\n      0x24\n        /* \"#utility.yul\":5123:5124   */\n      0x00\n        /* \"#utility.yul\":5116:5131   */\n      revert\n        /* \"#utility.yul\":4923:5141   */\n    tag_350:\n      pop\n        /* \"#utility.yul\":4710:5147   */\n      swap2\n      swap1\n      pop\n      jump\t// out\n        /* \"#utility.yul\":5152:5364   */\n    tag_301:\n        /* \"#utility.yul\":5194:5197   */\n      0x00\n        /* \"#utility.yul\":5232:5237   */\n      dup2\n        /* \"#utility.yul\":5226:5238   */\n      mload\n        /* \"#utility.yul\":5276:5282   */\n      dup1\n        /* \"#utility.yul\":5269:5273   */\n      0x20\n        /* \"#utility.yul\":5262:5267   */\n      dup5\n        /* \"#utility.yul\":5258:5274   */\n      add\n        /* \"#utility.yul\":5253:5256   */\n      dup6\n        /* \"#utility.yul\":5247:5283   */\n      mcopy\n        /* \"#utility.yul\":5338:5339   */\n      0x00\n        /* \"#utility.yul\":5302:5318   */\n      swap4\n      add\n        /* \"#utility.yul\":5327:5340   */\n      swap3\n      dup4\n      mstore\n      pop\n        /* \"#utility.yul\":5302:5318   */\n      swap1\n      swap2\n        /* \"#utility.yul\":5152:5364   */\n      swap1\n      pop\n      jump\t// out\n        /* \"#utility.yul\":5369:5636   */\n    tag_187:\n        /* \"#utility.yul\":5548:5551   */\n      0x00\n        /* \"#utility.yul\":5573:5630   */\n      tag_259\n        /* \"#utility.yul\":5599:5629   */\n      tag_354\n        /* \"#utility.yul\":5625:5628   */\n      dup4\n        /* \"#utility.yul\":5617:5623   */\n      dup7\n        /* \"#utility.yul\":5599:5629   */\n      tag_301\n      jump\t// in\n    tag_354:\n        /* \"#utility.yul\":5591:5597   */\n      dup5\n        /* \"#utility.yul\":5573:5630   */\n      tag_301\n      jump\t// in\n        /* \"#utility.yul\":5641:5931   */\n    tag_200:\n        /* \"#utility.yul\":5680:5683   */\n      0x00\n        /* \"#utility.yul\":5708:5713   */\n      dup2\n        /* \"#utility.yul\":5698:5891   */\n      tag_356\n      jumpi\n      shl(0xe0, 0x4e487b71)\n        /* \"#utility.yul\":5744:5745   */\n      0x00\n        /* \"#utility.yul\":5737:5825   */\n      mstore\n        /* \"#utility.yul\":5848:5852   */\n      0x11\n        /* \"#utility.yul\":5845:5846   */\n      0x04\n        /* \"#utility.yul\":5838:5853   */\n      mstore\n        /* \"#utility.yul\":5876:5880   */\n      0x24\n        /* \"#utility.yul\":5873:5874   */\n      0x00\n        /* \"#utility.yul\":5866:5881   */\n      revert\n        /* \"#utility.yul\":5698:5891   */\n    tag_356:\n      pop\n      not(0x00)\n        /* \"#utility.yul\":5907:5925   */\n      add\n      swap1\n        /* \"#utility.yul\":5641:5931   */\n      jump\t// out\n        /* \"#utility.yul\":5936:6459   */\n    tag_247:\n        /* \"#utility.yul\":6130:6134   */\n      0x00\n      sub(shl(0xa0, 0x01), 0x01)\n        /* \"#utility.yul\":6240:6242   */\n      dup1\n        /* \"#utility.yul\":6232:6238   */\n      dup8\n        /* \"#utility.yul\":6228:6243   */\n      and\n        /* \"#utility.yul\":6217:6226   */\n      dup4\n        /* \"#utility.yul\":6210:6244   */\n      mstore\n        /* \"#utility.yul\":6292:6294   */\n      dup1\n        /* \"#utility.yul\":6284:6290   */\n      dup7\n        /* \"#utility.yul\":6280:6295   */\n      and\n        /* \"#utility.yul\":6275:6277   */\n      0x20\n        /* \"#utility.yul\":6264:6273   */\n      dup5\n        /* \"#utility.yul\":6260:6278   */\n      add\n        /* \"#utility.yul\":6253:6296   */\n      mstore\n      pop\n        /* \"#utility.yul\":6332:6338   */\n      dup4\n        /* \"#utility.yul\":6327:6329   */\n      0x40\n        /* \"#utility.yul\":6316:6325   */\n      dup4\n        /* \"#utility.yul\":6312:6330   */\n      add\n        /* \"#utility.yul\":6305:6339   */\n      mstore\n        /* \"#utility.yul\":6375:6378   */\n      0x80\n        /* \"#utility.yul\":6370:6372   */\n      0x60\n        /* \"#utility.yul\":6359:6368   */\n      dup4\n        /* \"#utility.yul\":6355:6373   */\n      add\n        /* \"#utility.yul\":6348:6379   */\n      mstore\n        /* \"#utility.yul\":6396:6453   */\n      tag_358\n        /* \"#utility.yul\":6448:6451   */\n      0x80\n        /* \"#utility.yul\":6437:6446   */\n      dup4\n        /* \"#utility.yul\":6433:6452   */\n      add\n        /* \"#utility.yul\":6425:6431   */\n      dup5\n        /* \"#utility.yul\":6396:6453   */\n      tag_298\n      jump\t// in\n    tag_358:\n        /* \"#utility.yul\":6388:6453   */\n      swap7\n        /* \"#utility.yul\":5936:6459   */\n      swap6\n      pop\n      pop\n      pop\n      pop\n      pop\n      pop\n      jump\t// out\n        /* \"#utility.yul\":6464:6713   */\n    tag_250:\n        /* \"#utility.yul\":6533:6539   */\n      0x00\n        /* \"#utility.yul\":6586:6588   */\n      0x20\n        /* \"#utility.yul\":6574:6583   */\n      dup3\n        /* \"#utility.yul\":6565:6572   */\n      dup5\n        /* \"#utility.yul\":6561:6584   */\n      sub\n        /* \"#utility.yul\":6557:6589   */\n      slt\n        /* \"#utility.yul\":6554:6606   */\n      iszero\n      tag_360\n      jumpi\n        /* \"#utility.yul\":6602:6603   */\n      0x00\n        /* \"#utility.yul\":6599:6600   */\n      dup1\n        /* \"#utility.yul\":6592:6604   */\n      revert\n        /* \"#utility.yul\":6554:6606   */\n    tag_360:\n        /* \"#utility.yul\":6634:6643   */\n      dup2\n        /* \"#utility.yul\":6628:6644   */\n      mload\n        /* \"#utility.yul\":6653:6683   */\n      tag_183\n        /* \"#utility.yul\":6677:6682   */\n      dup2\n        /* \"#utility.yul\":6653:6683   */\n      tag_297\n      jump\t// in\n\n    auxdata: 0xa26469706673582212205e45cc7e60e8c636b56b7c0ab3773444be087f40d245f50164a87ead88cbb0ea64736f6c63430008190033\n}\n",
				"bytecode": {
					"linkReferences": {},
					"object": "608060405234801561000f575f80fd5b506040518060400160405280600a8152602001692a32b9ba102a37b5b2b760b11b8152506040518060400160405280600381526020016254544b60e81b815250816002908161005e919061010e565b50600361006b828261010e565b50505f8055506101cd565b634e487b7160e01b5f52604160045260245ffd5b600181811c9082168061009e57607f821691505b6020821081036100bc57634e487b7160e01b5f52602260045260245ffd5b50919050565b601f82111561010957805f5260205f20601f840160051c810160208510156100e75750805b601f840160051c820191505b81811015610106575f81556001016100f3565b50505b505050565b81516001600160401b0381111561012757610127610076565b61013b81610135845461008a565b846100c2565b602080601f83116001811461016e575f84156101575750858301515b5f19600386901b1c1916600185901b1785556101c5565b5f85815260208120601f198616915b8281101561019c5788860151825594840194600190910190840161017d565b50858210156101b957878501515f19600388901b60f8161c191681555b505060018460011b0185555b505050505050565b610fa5806101da5f395ff3fe6080604052600436106100e4575f3560e01c806343508b0511610087578063a22cb46511610057578063a22cb46514610241578063b88d4fde14610260578063c87b56dd14610273578063e985e9c514610292575f80fd5b806343508b05146101d05780636352211e146101ef57806370a082311461020e57806395d89b411461022d575f80fd5b8063095ea7b3116100c2578063095ea7b31461017457806318160ddd1461018957806323b872dd146101aa57806342842e0e146101bd575f80fd5b806301ffc9a7146100e857806306fdde031461011c578063081812fc1461013d575b5f80fd5b3480156100f3575f80fd5b50610107610102366004610c40565b6102d9565b60405190151581526020015b60405180910390f35b348015610127575f80fd5b50610130610375565b6040516101139190610c89565b348015610148575f80fd5b5061015c610157366004610c9b565b610405565b6040516001600160a01b039091168152602001610113565b610187610182366004610cc8565b610457565b005b348015610194575f80fd5b506001545f54035b604051908152602001610113565b6101876101b8366004610cf0565b610467565b6101876101cb366004610cf0565b61060d565b3480156101db575f80fd5b506101876101ea366004610cc8565b61062c565b3480156101fa575f80fd5b5061015c610209366004610c9b565b610636565b348015610219575f80fd5b5061019c610228366004610d29565b610640565b348015610238575f80fd5b5061013061069d565b34801561024c575f80fd5b5061018761025b366004610d42565b6106ac565b61018761026e366004610d8f565b610717565b34801561027e575f80fd5b5061013061028d366004610c9b565b610758565b34801561029d575f80fd5b506101076102ac366004610e64565b6001600160a01b039182165f90815260076020908152604080832093909416825291909152205460ff1690565b5f7f01ffc9a7000000000000000000000000000000000000000000000000000000006001600160e01b03198316148061033b57507f80ac58cd000000000000000000000000000000000000000000000000000000006001600160e01b03198316145b8061036f57507f5b5e139f000000000000000000000000000000000000000000000000000000006001600160e01b03198316145b92915050565b60606002805461038490610e95565b80601f01602080910402602001604051908101604052809291908181526020018280546103b090610e95565b80156103fb5780601f106103d2576101008083540402835291602001916103fb565b820191905f5260205f20905b8154815290600101906020018083116103de57829003601f168201915b5050505050905090565b5f61040f826107f5565b61043c5761043c7fcf4700e400000000000000000000000000000000000000000000000000000000610837565b505f908152600660205260409020546001600160a01b031690565b6104638282600161083f565b5050565b5f61047182610911565b6001600160a01b0394851694909150811684146104b1576104b17fa114810000000000000000000000000000000000000000000000000000000000610837565b5f8281526006602052604090208054338082146001600160a01b0388169091141761050d576104e086336102ac565b61050d5761050d7f59c896be00000000000000000000000000000000000000000000000000000000610837565b8015610517575f82555b6001600160a01b038681165f9081526005602052604080822080545f19019055918716808252919020805460010190554260a01b17600160e11b175f85815260046020526040812091909155600160e11b841690036105a357600184015f8181526004602052604081205490036105a1575f5481146105a1575f8181526004602052604090208490555b505b6001600160a01b0385168481887fddf252ad1be2c89b69c2b068fc378daa952ba7f163c4a11628f55a4df523b3ef5f80a4805f03610604576106047fea553b3400000000000000000000000000000000000000000000000000000000610837565b50505050505050565b61062783838360405180602001604052805f815250610717565b505050565b61046382826109a0565b5f61036f82610911565b5f6001600160a01b038216610678576106787f8f4eb60400000000000000000000000000000000000000000000000000000000610837565b506001600160a01b03165f9081526005602052604090205467ffffffffffffffff1690565b60606003805461038490610e95565b335f8181526007602090815260408083206001600160a01b03871680855290835292819020805460ff191686151590811790915590519081529192917f17307eab39ab6107e8899845ad3d59bd9653f200f220920489ca2b5937696c31910160405180910390a35050565b610722848484610467565b6001600160a01b0383163b156107525761073e848484846109b9565b610752576107526368d2bf6b60e11b610837565b50505050565b6060610763826107f5565b610790576107907fa14c4b5000000000000000000000000000000000000000000000000000000000610837565b5f6107a560408051602081019091525f815290565b905080515f036107c35760405180602001604052805f8152506107ee565b806107cd84610a98565b6040516020016107de929190610ee4565b6040516020818303038152906040525b9392505050565b5f8054821015610832575f5b505f82815260046020526040812054908190036108285761082183610ef8565b9250610801565b600160e01b161590505b919050565b805f5260045ffd5b5f61084983610636565b90508180156108615750336001600160a01b03821614155b1561089d5761087081336102ac565b61089d5761089d7fcfb3b94200000000000000000000000000000000000000000000000000000000610837565b5f8381526006602052604080822080547fffffffffffffffffffffffff0000000000000000000000000000000000000000166001600160a01b0388811691821790925591518693918516917f8c5be1e5ebec7d5bd14f71427d1e84f3dd0314c0f7b2291e5b200ac8c7c3b92591a450505050565b5f81815260046020526040902054805f0361097e575f54821061093e5761093e636f96cda160e11b610837565b5b505f19015f81815260046020526040902054801561093f57600160e01b81165f0361096957919050565b610979636f96cda160e11b610837565b61093f565b600160e01b81165f0361099057919050565b610832636f96cda160e11b610837565b610463828260405180602001604052805f815250610adb565b604051630a85bd0160e11b81525f906001600160a01b0385169063150b7a02906109ed903390899088908890600401610f19565b6020604051808303815f875af1925050508015610a27575060408051601f3d908101601f19168201909252610a2491810190610f54565b60015b610a7a573d808015610a54576040519150601f19603f3d011682016040523d82523d5f602084013e610a59565b606091505b5080515f03610a7257610a726368d2bf6b60e11b610837565b805181602001fd5b6001600160e01b031916630a85bd0160e11b1490505b949350505050565b606060a06040510180604052602081039150505f815280825b600183039250600a81066030018353600a900480610ab15750819003601f19909101908152919050565b610ae58383610b3b565b6001600160a01b0383163b15610627575f548281035b610b0d5f8683806001019450866109b9565b610b2157610b216368d2bf6b60e11b610837565b818110610afb57815f5414610b34575f80fd5b5050505050565b5f805490829003610b6f57610b6f7fb562e8dd00000000000000000000000000000000000000000000000000000000610837565b5f8181526004602090815260408083206001600160a01b0387164260a01b6001881460e11b17811790915580845260059092528220805468010000000000000001860201905590819003610be657610be67f2e07630000000000000000000000000000000000000000000000000000000000610837565b818301825b80835f7fddf252ad1be2c89b69c2b068fc378daa952ba7f163c4a11628f55a4df523b3ef5f80a4818160010191508103610beb57505f5550505050565b6001600160e01b031981168114610c3d575f80fd5b50565b5f60208284031215610c50575f80fd5b81356107ee81610c28565b5f81518084528060208401602086015e5f602082860101526020601f19601f83011685010191505092915050565b602081525f6107ee6020830184610c5b565b5f60208284031215610cab575f80fd5b5035919050565b80356001600160a01b0381168114610832575f80fd5b5f8060408385031215610cd9575f80fd5b610ce283610cb2565b946020939093013593505050565b5f805f60608486031215610d02575f80fd5b610d0b84610cb2565b9250610d1960208501610cb2565b9150604084013590509250925092565b5f60208284031215610d39575f80fd5b6107ee82610cb2565b5f8060408385031215610d53575f80fd5b610d5c83610cb2565b915060208301358015158114610d70575f80fd5b809150509250929050565b634e487b7160e01b5f52604160045260245ffd5b5f805f8060808587031215610da2575f80fd5b610dab85610cb2565b9350610db960208601610cb2565b925060408501359150606085013567ffffffffffffffff80821115610ddc575f80fd5b818701915087601f830112610def575f80fd5b813581811115610e0157610e01610d7b565b604051601f8201601f19908116603f01168101908382118183101715610e2957610e29610d7b565b816040528281528a6020848701011115610e41575f80fd5b826020860160208301375f60208483010152809550505050505092959194509250565b5f8060408385031215610e75575f80fd5b610e7e83610cb2565b9150610e8c60208401610cb2565b90509250929050565b600181811c90821680610ea957607f821691505b602082108103610ec757634e487b7160e01b5f52602260045260245ffd5b50919050565b5f81518060208401855e5f93019283525090919050565b5f610a90610ef28386610ecd565b84610ecd565b5f81610f1257634e487b7160e01b5f52601160045260245ffd5b505f190190565b5f6001600160a01b03808716835280861660208401525083604083015260806060830152610f4a6080830184610c5b565b9695505050505050565b5f60208284031215610f64575f80fd5b81516107ee81610c2856fea26469706673582212205e45cc7e60e8c636b56b7c0ab3773444be087f40d245f50164a87ead88cbb0ea64736f6c63430008190033",
					"opcodes": "PUSH1 0x80 PUSH1 0x40 MSTORE CALLVALUE DUP1 ISZERO PUSH2 0xF JUMPI PUSH0 DUP1 REVERT JUMPDEST POP PUSH1 0x40 MLOAD DUP1 PUSH1 0x40 ADD PUSH1 0x40 MSTORE DUP1 PUSH1 0xA DUP2 MSTORE PUSH1 0x20 ADD PUSH10 0x2A32B9BA102A37B5B2B7 PUSH1 0xB1 SHL DUP2 MSTORE POP PUSH1 0x40 MLOAD DUP1 PUSH1 0x40 ADD PUSH1 0x40 MSTORE DUP1 PUSH1 0x3 DUP2 MSTORE PUSH1 0x20 ADD PUSH3 0x54544B PUSH1 0xE8 SHL DUP2 MSTORE POP DUP2 PUSH1 0x2 SWAP1 DUP2 PUSH2 0x5E SWAP2 SWAP1 PUSH2 0x10E JUMP JUMPDEST POP PUSH1 0x3 PUSH2 0x6B DUP3 DUP3 PUSH2 0x10E JUMP JUMPDEST POP POP PUSH0 DUP1 SSTORE POP PUSH2 0x1CD JUMP JUMPDEST PUSH4 0x4E487B71 PUSH1 0xE0 SHL PUSH0 MSTORE PUSH1 0x41 PUSH1 0x4 MSTORE PUSH1 0x24 PUSH0 REVERT JUMPDEST PUSH1 0x1 DUP2 DUP2 SHR SWAP1 DUP3 AND DUP1 PUSH2 0x9E JUMPI PUSH1 0x7F DUP3 AND SWAP2 POP JUMPDEST PUSH1 0x20 DUP3 LT DUP2 SUB PUSH2 0xBC JUMPI PUSH4 0x4E487B71 PUSH1 0xE0 SHL PUSH0 MSTORE PUSH1 0x22 PUSH1 0x4 MSTORE PUSH1 0x24 PUSH0 REVERT JUMPDEST POP SWAP2 SWAP1 POP JUMP JUMPDEST PUSH1 0x1F DUP3 GT ISZERO PUSH2 0x109 JUMPI DUP1 PUSH0 MSTORE PUSH1 0x20 PUSH0 KECCAK256 PUSH1 0x1F DUP5 ADD PUSH1 0x5 SHR DUP2 ADD PUSH1 0x20 DUP6 LT ISZERO PUSH2 0xE7 JUMPI POP DUP1 JUMPDEST PUSH1 0x1F DUP5 ADD PUSH1 0x5 SHR DUP3 ADD SWAP2 POP JUMPDEST DUP2 DUP2 LT ISZERO PUSH2 0x106 JUMPI PUSH0 DUP2 SSTORE PUSH1 0x1 ADD PUSH2 0xF3 JUMP JUMPDEST POP POP JUMPDEST POP POP POP JUMP JUMPDEST DUP2 MLOAD PUSH1 0x1 PUSH1 0x1 PUSH1 0x40 SHL SUB DUP2 GT ISZERO PUSH2 0x127 JUMPI PUSH2 0x127 PUSH2 0x76 JUMP JUMPDEST PUSH2 0x13B DUP2 PUSH2 0x135 DUP5 SLOAD PUSH2 0x8A JUMP JUMPDEST DUP5 PUSH2 0xC2 JUMP JUMPDEST PUSH1 0x20 DUP1 PUSH1 0x1F DUP4 GT PUSH1 0x1 DUP2 EQ PUSH2 0x16E JUMPI PUSH0 DUP5 ISZERO PUSH2 0x157 JUMPI POP DUP6 DUP4 ADD MLOAD JUMPDEST PUSH0 NOT PUSH1 0x3 DUP7 SWAP1 SHL SHR NOT AND PUSH1 0x1 DUP6 SWAP1 SHL OR DUP6 SSTORE PUSH2 0x1C5 JUMP JUMPDEST PUSH0 DUP6 DUP2 MSTORE PUSH1 0x20 DUP2 KECCAK256 PUSH1 0x1F NOT DUP7 AND SWAP2 JUMPDEST DUP3 DUP2 LT ISZERO PUSH2 0x19C JUMPI DUP9 DUP7 ADD MLOAD DUP3 SSTORE SWAP5 DUP5 ADD SWAP5 PUSH1 0x1 SWAP1 SWAP2 ADD SWAP1 DUP5 ADD PUSH2 0x17D JUMP JUMPDEST POP DUP6 DUP3 LT ISZERO PUSH2 0x1B9 JUMPI DUP8 DUP6 ADD MLOAD PUSH0 NOT PUSH1 0x3 DUP9 SWAP1 SHL PUSH1 0xF8 AND SHR NOT AND DUP2 SSTORE JUMPDEST POP POP PUSH1 0x1 DUP5 PUSH1 0x1 SHL ADD DUP6 SSTORE JUMPDEST POP POP POP POP POP POP JUMP JUMPDEST PUSH2 0xFA5 DUP1 PUSH2 0x1DA PUSH0 CODECOPY PUSH0 RETURN INVALID PUSH1 0x80 PUSH1 0x40 MSTORE PUSH1 0x4 CALLDATASIZE LT PUSH2 0xE4 JUMPI PUSH0 CALLDATALOAD PUSH1 0xE0 SHR DUP1 PUSH4 0x43508B05 GT PUSH2 0x87 JUMPI DUP1 PUSH4 0xA22CB465 GT PUSH2 0x57 JUMPI DUP1 PUSH4 0xA22CB465 EQ PUSH2 0x241 JUMPI DUP1 PUSH4 0xB88D4FDE EQ PUSH2 0x260 JUMPI DUP1 PUSH4 0xC87B56DD EQ PUSH2 0x273 JUMPI DUP1 PUSH4 0xE985E9C5 EQ PUSH2 0x292 JUMPI PUSH0 DUP1 REVERT JUMPDEST DUP1 PUSH4 0x43508B05 EQ PUSH2 0x1D0 JUMPI DUP1 PUSH4 0x6352211E EQ PUSH2 0x1EF JUMPI DUP1 PUSH4 0x70A08231 EQ PUSH2 0x20E JUMPI DUP1 PUSH4 0x95D89B41 EQ PUSH2 0x22D JUMPI PUSH0 DUP1 REVERT JUMPDEST DUP1 PUSH4 0x95EA7B3 GT PUSH2 0xC2 JUMPI DUP1 PUSH4 0x95EA7B3 EQ PUSH2 0x174 JUMPI DUP1 PUSH4 0x18160DDD EQ PUSH2 0x189 JUMPI DUP1 PUSH4 0x23B872DD EQ PUSH2 0x1AA JUMPI DUP1 PUSH4 0x42842E0E EQ PUSH2 0x1BD JUMPI PUSH0 DUP1 REVERT JUMPDEST DUP1 PUSH4 0x1FFC9A7 EQ PUSH2 0xE8 JUMPI DUP1 PUSH4 0x6FDDE03 EQ PUSH2 0x11C JUMPI DUP1 PUSH4 0x81812FC EQ PUSH2 0x13D JUMPI JUMPDEST PUSH0 DUP1 REVERT JUMPDEST CALLVALUE DUP1 ISZERO PUSH2 0xF3 JUMPI PUSH0 DUP1 REVERT JUMPDEST POP PUSH2 0x107 PUSH2 0x102 CALLDATASIZE PUSH1 0x4 PUSH2 0xC40 JUMP JUMPDEST PUSH2 0x2D9 JUMP JUMPDEST PUSH1 0x40 MLOAD SWAP1 ISZERO ISZERO DUP2 MSTORE PUSH1 0x20 ADD JUMPDEST PUSH1 0x40 MLOAD DUP1 SWAP2 SUB SWAP1 RETURN JUMPDEST CALLVALUE DUP1 ISZERO PUSH2 0x127 JUMPI PUSH0 DUP1 REVERT JUMPDEST POP PUSH2 0x130 PUSH2 0x375 JUMP JUMPDEST PUSH1 0x40 MLOAD PUSH2 0x113 SWAP2 SWAP1 PUSH2 0xC89 JUMP JUMPDEST CALLVALUE DUP1 ISZERO PUSH2 0x148 JUMPI PUSH0 DUP1 REVERT JUMPDEST POP PUSH2 0x15C PUSH2 0x157 CALLDATASIZE PUSH1 0x4 PUSH2 0xC9B JUMP JUMPDEST PUSH2 0x405 JUMP JUMPDEST PUSH1 0x40 MLOAD PUSH1 0x1 PUSH1 0x1 PUSH1 0xA0 SHL SUB SWAP1 SWAP2 AND DUP2 MSTORE PUSH1 0x20 ADD PUSH2 0x113 JUMP JUMPDEST PUSH2 0x187 PUSH2 0x182 CALLDATASIZE PUSH1 0x4 PUSH2 0xCC8 JUMP JUMPDEST PUSH2 0x457 JUMP JUMPDEST STOP JUMPDEST CALLVALUE DUP1 ISZERO PUSH2 0x194 JUMPI PUSH0 DUP1 REVERT JUMPDEST POP PUSH1 0x1 SLOAD PUSH0 SLOAD SUB JUMPDEST PUSH1 0x40 MLOAD SWAP1 DUP2 MSTORE PUSH1 0x20 ADD PUSH2 0x113 JUMP JUMPDEST PUSH2 0x187 PUSH2 0x1B8 CALLDATASIZE PUSH1 0x4 PUSH2 0xCF0 JUMP JUMPDEST PUSH2 0x467 JUMP JUMPDEST PUSH2 0x187 PUSH2 0x1CB CALLDATASIZE PUSH1 0x4 PUSH2 0xCF0 JUMP JUMPDEST PUSH2 0x60D JUMP JUMPDEST CALLVALUE DUP1 ISZERO PUSH2 0x1DB JUMPI PUSH0 DUP1 REVERT JUMPDEST POP PUSH2 0x187 PUSH2 0x1EA CALLDATASIZE PUSH1 0x4 PUSH2 0xCC8 JUMP JUMPDEST PUSH2 0x62C JUMP JUMPDEST CALLVALUE DUP1 ISZERO PUSH2 0x1FA JUMPI PUSH0 DUP1 REVERT JUMPDEST POP PUSH2 0x15C PUSH2 0x209 CALLDATASIZE PUSH1 0x4 PUSH2 0xC9B JUMP JUMPDEST PUSH2 0x636 JUMP JUMPDEST CALLVALUE DUP1 ISZERO PUSH2 0x219 JUMPI PUSH0 DUP1 REVERT JUMPDEST POP PUSH2 0x19C PUSH2 0x228 CALLDATASIZE PUSH1 0x4 PUSH2 0xD29 JUMP JUMPDEST PUSH2 0x640 JUMP JUMPDEST CALLVALUE DUP1 ISZERO PUSH2 0x238 JUMPI PUSH0 DUP1 REVERT JUMPDEST POP PUSH2 0x130 PUSH2 0x69D JUMP JUMPDEST CALLVALUE DUP1 ISZERO PUSH2 0x24C JUMPI PUSH0 DUP1 REVERT JUMPDEST POP PUSH2 0x187 PUSH2 0x25B CALLDATASIZE PUSH1 0x4 PUSH2 0xD42 JUMP JUMPDEST PUSH2 0x6AC JUMP JUMPDEST PUSH2 0x187 PUSH2 0x26E CALLDATASIZE PUSH1 0x4 PUSH2 0xD8F JUMP JUMPDEST PUSH2 0x717 JUMP JUMPDEST CALLVALUE DUP1 ISZERO PUSH2 0x27E JUMPI PUSH0 DUP1 REVERT JUMPDEST POP PUSH2 0x130 PUSH2 0x28D CALLDATASIZE PUSH1 0x4 PUSH2 0xC9B JUMP JUMPDEST PUSH2 0x758 JUMP JUMPDEST CALLVALUE DUP1 ISZERO PUSH2 0x29D JUMPI PUSH0 DUP1 REVERT JUMPDEST POP PUSH2 0x107 PUSH2 0x2AC CALLDATASIZE PUSH1 0x4 PUSH2 0xE64 JUMP JUMPDEST PUSH1 0x1 PUSH1 0x1 PUSH1 0xA0 SHL SUB SWAP2 DUP3 AND PUSH0 SWAP1 DUP2 MSTORE PUSH1 0x7 PUSH1 0x20 SWAP1 DUP2 MSTORE PUSH1 0x40 DUP1 DUP4 KECCAK256 SWAP4 SWAP1 SWAP5 AND DUP3 MSTORE SWAP2 SWAP1 SWAP2 MSTORE KECCAK256 SLOAD PUSH1 0xFF AND SWAP1 JUMP JUMPDEST PUSH0 PUSH32 0x1FFC9A700000000000000000000000000000000000000000000000000000000 PUSH1 0x1 PUSH1 0x1 PUSH1 0xE0 SHL SUB NOT DUP4 AND EQ DUP1 PUSH2 0x33B JUMPI POP PUSH32 0x80AC58CD00000000000000000000000000000000000000000000000000000000 PUSH1 0x1 PUSH1 0x1 PUSH1 0xE0 SHL SUB NOT DUP4 AND EQ JUMPDEST DUP1 PUSH2 0x36F JUMPI POP PUSH32 0x5B5E139F00000000000000000000000000000000000000000000000000000000 PUSH1 0x1 PUSH1 0x1 PUSH1 0xE0 SHL SUB NOT DUP4 AND EQ JUMPDEST SWAP3 SWAP2 POP POP JUMP JUMPDEST PUSH1 0x60 PUSH1 0x2 DUP1 SLOAD PUSH2 0x384 SWAP1 PUSH2 0xE95 JUMP JUMPDEST DUP1 PUSH1 0x1F ADD PUSH1 0x20 DUP1 SWAP2 DIV MUL PUSH1 0x20 ADD PUSH1 0x40 MLOAD SWAP1 DUP2 ADD PUSH1 0x40 MSTORE DUP1 SWAP3 SWAP2 SWAP1 DUP2 DUP2 MSTORE PUSH1 0x20 ADD DUP3 DUP1 SLOAD PUSH2 0x3B0 SWAP1 PUSH2 0xE95 JUMP JUMPDEST DUP1 ISZERO PUSH2 0x3FB JUMPI DUP1 PUSH1 0x1F LT PUSH2 0x3D2 JUMPI PUSH2 0x100 DUP1 DUP4 SLOAD DIV MUL DUP4 MSTORE SWAP2 PUSH1 0x20 ADD SWAP2 PUSH2 0x3FB JUMP JUMPDEST DUP3 ADD SWAP2 SWAP1 PUSH0 MSTORE PUSH1 0x20 PUSH0 KECCAK256 SWAP1 JUMPDEST DUP2 SLOAD DUP2 MSTORE SWAP1 PUSH1 0x1 ADD SWAP1 PUSH1 0x20 ADD DUP1 DUP4 GT PUSH2 0x3DE JUMPI DUP3 SWAP1 SUB PUSH1 0x1F AND DUP3 ADD SWAP2 JUMPDEST POP POP POP POP POP SWAP1 POP SWAP1 JUMP JUMPDEST PUSH0 PUSH2 0x40F DUP3 PUSH2 0x7F5 JUMP JUMPDEST PUSH2 0x43C JUMPI PUSH2 0x43C PUSH32 0xCF4700E400000000000000000000000000000000000000000000000000000000 PUSH2 0x837 JUMP JUMPDEST POP PUSH0 SWAP1 DUP2 MSTORE PUSH1 0x6 PUSH1 0x20 MSTORE PUSH1 0x40 SWAP1 KECCAK256 SLOAD PUSH1 0x1 PUSH1 0x1 PUSH1 0xA0 SHL SUB AND SWAP1 JUMP JUMPDEST PUSH2 0x463 DUP3 DUP3 PUSH1 0x1 PUSH2 0x83F JUMP JUMPDEST POP POP JUMP JUMPDEST PUSH0 PUSH2 0x471 DUP3 PUSH2 0x911 JUMP JUMPDEST PUSH1 0x1 PUSH1 0x1 PUSH1 0xA0 SHL SUB SWAP5 DUP6 AND SWAP5 SWAP1 SWAP2 POP DUP2 AND DUP5 EQ PUSH2 0x4B1 JUMPI PUSH2 0x4B1 PUSH32 0xA114810000000000000000000000000000000000000000000000000000000000 PUSH2 0x837 JUMP JUMPDEST PUSH0 DUP3 DUP2 MSTORE PUSH1 0x6 PUSH1 0x20 MSTORE PUSH1 0x40 SWAP1 KECCAK256 DUP1 SLOAD CALLER DUP1 DUP3 EQ PUSH1 0x1 PUSH1 0x1 PUSH1 0xA0 SHL SUB DUP9 AND SWAP1 SWAP2 EQ OR PUSH2 0x50D JUMPI PUSH2 0x4E0 DUP7 CALLER PUSH2 0x2AC JUMP JUMPDEST PUSH2 0x50D JUMPI PUSH2 0x50D PUSH32 0x59C896BE00000000000000000000000000000000000000000000000000000000 PUSH2 0x837 JUMP JUMPDEST DUP1 ISZERO PUSH2 0x517 JUMPI PUSH0 DUP3 SSTORE JUMPDEST PUSH1 0x1 PUSH1 0x1 PUSH1 0xA0 SHL SUB DUP7 DUP2 AND PUSH0 SWAP1 DUP2 MSTORE PUSH1 0x5 PUSH1 0x20 MSTORE PUSH1 0x40 DUP1 DUP3 KECCAK256 DUP1 SLOAD PUSH0 NOT ADD SWAP1 SSTORE SWAP2 DUP8 AND DUP1 DUP3 MSTORE SWAP2 SWAP1 KECCAK256 DUP1 SLOAD PUSH1 0x1 ADD SWAP1 SSTORE TIMESTAMP PUSH1 0xA0 SHL OR PUSH1 0x1 PUSH1 0xE1 SHL OR PUSH0 DUP6 DUP2 MSTORE PUSH1 0x4 PUSH1 0x20 MSTORE PUSH1 0x40 DUP2 KECCAK256 SWAP2 SWAP1 SWAP2 SSTORE PUSH1 0x1 PUSH1 0xE1 SHL DUP5 AND SWAP1 SUB PUSH2 0x5A3 JUMPI PUSH1 0x1 DUP5 ADD PUSH0 DUP2 DUP2 MSTORE PUSH1 0x4 PUSH1 0x20 MSTORE PUSH1 0x40 DUP2 KECCAK256 SLOAD SWAP1 SUB PUSH2 0x5A1 JUMPI PUSH0 SLOAD DUP2 EQ PUSH2 0x5A1 JUMPI PUSH0 DUP2 DUP2 MSTORE PUSH1 0x4 PUSH1 0x20 MSTORE PUSH1 0x40 SWAP1 KECCAK256 DUP5 SWAP1 SSTORE JUMPDEST POP JUMPDEST PUSH1 0x1 PUSH1 0x1 PUSH1 0xA0 SHL SUB DUP6 AND DUP5 DUP2 DUP9 PUSH32 0xDDF252AD1BE2C89B69C2B068FC378DAA952BA7F163C4A11628F55A4DF523B3EF PUSH0 DUP1 LOG4 DUP1 PUSH0 SUB PUSH2 0x604 JUMPI PUSH2 0x604 PUSH32 0xEA553B3400000000000000000000000000000000000000000000000000000000 PUSH2 0x837 JUMP JUMPDEST POP POP POP POP POP POP POP JUMP JUMPDEST PUSH2 0x627 DUP4 DUP4 DUP4 PUSH1 0x40 MLOAD DUP1 PUSH1 0x20 ADD PUSH1 0x40 MSTORE DUP1 PUSH0 DUP2 MSTORE POP PUSH2 0x717 JUMP JUMPDEST POP POP POP JUMP JUMPDEST PUSH2 0x463 DUP3 DUP3 PUSH2 0x9A0 JUMP JUMPDEST PUSH0 PUSH2 0x36F DUP3 PUSH2 0x911 JUMP JUMPDEST PUSH0 PUSH1 0x1 PUSH1 0x1 PUSH1 0xA0 SHL SUB DUP3 AND PUSH2 0x678 JUMPI PUSH2 0x678 PUSH32 0x8F4EB60400000000000000000000000000000000000000000000000000000000 PUSH2 0x837 JUMP JUMPDEST POP PUSH1 0x1 PUSH1 0x1 PUSH1 0xA0 SHL SUB AND PUSH0 SWAP1 DUP2 MSTORE PUSH1 0x5 PUSH1 0x20 MSTORE PUSH1 0x40 SWAP1 KECCAK256 SLOAD PUSH8 0xFFFFFFFFFFFFFFFF AND SWAP1 JUMP JUMPDEST PUSH1 0x60 PUSH1 0x3 DUP1 SLOAD PUSH2 0x384 SWAP1 PUSH2 0xE95 JUMP JUMPDEST CALLER PUSH0 DUP2 DUP2 MSTORE PUSH1 0x7 PUSH1 0x20 SWAP1 DUP2 MSTORE PUSH1 0x40 DUP1 DUP4 KECCAK256 PUSH1 0x1 PUSH1 0x1 PUSH1 0xA0 SHL SUB DUP8 AND DUP1 DUP6 MSTORE SWAP1 DUP4 MSTORE SWAP3 DUP2 SWAP1 KECCAK256 DUP1 SLOAD PUSH1 0xFF NOT AND DUP7 ISZERO ISZERO SWAP1 DUP2 OR SWAP1 SWAP2 SSTORE SWAP1 MLOAD SWAP1 DUP2 MSTORE SWAP2 SWAP3 SWAP2 PUSH32 0x17307EAB39AB6107E8899845AD3D59BD9653F200F220920489CA2B5937696C31 SWAP2 ADD PUSH1 0x40 MLOAD DUP1 SWAP2 SUB SWAP1 LOG3 POP POP JUMP JUMPDEST PUSH2 0x722 DUP5 DUP5 DUP5 PUSH2 0x467 JUMP JUMPDEST PUSH1 0x1 PUSH1 0x1 PUSH1 0xA0 SHL SUB DUP4 AND EXTCODESIZE ISZERO PUSH2 0x752 JUMPI PUSH2 0x73E DUP5 DUP5 DUP5 DUP5 PUSH2 0x9B9 JUMP JUMPDEST PUSH2 0x752 JUMPI PUSH2 0x752 PUSH4 0x68D2BF6B PUSH1 0xE1 SHL PUSH2 0x837 JUMP JUMPDEST POP POP POP POP JUMP JUMPDEST PUSH1 0x60 PUSH2 0x763 DUP3 PUSH2 0x7F5 JUMP JUMPDEST PUSH2 0x790 JUMPI PUSH2 0x790 PUSH32 0xA14C4B5000000000000000000000000000000000000000000000000000000000 PUSH2 0x837 JUMP JUMPDEST PUSH0 PUSH2 0x7A5 PUSH1 0x40 DUP1 MLOAD PUSH1 0x20 DUP2 ADD SWAP1 SWAP2 MSTORE PUSH0 DUP2 MSTORE SWAP1 JUMP JUMPDEST SWAP1 POP DUP1 MLOAD PUSH0 SUB PUSH2 0x7C3 JUMPI PUSH1 0x40 MLOAD DUP1 PUSH1 0x20 ADD PUSH1 0x40 MSTORE DUP1 PUSH0 DUP2 MSTORE POP PUSH2 0x7EE JUMP JUMPDEST DUP1 PUSH2 0x7CD DUP5 PUSH2 0xA98 JUMP JUMPDEST PUSH1 0x40 MLOAD PUSH1 0x20 ADD PUSH2 0x7DE SWAP3 SWAP2 SWAP1 PUSH2 0xEE4 JUMP JUMPDEST PUSH1 0x40 MLOAD PUSH1 0x20 DUP2 DUP4 SUB SUB DUP2 MSTORE SWAP1 PUSH1 0x40 MSTORE JUMPDEST SWAP4 SWAP3 POP POP POP JUMP JUMPDEST PUSH0 DUP1 SLOAD DUP3 LT ISZERO PUSH2 0x832 JUMPI PUSH0 JUMPDEST POP PUSH0 DUP3 DUP2 MSTORE PUSH1 0x4 PUSH1 0x20 MSTORE PUSH1 0x40 DUP2 KECCAK256 SLOAD SWAP1 DUP2 SWAP1 SUB PUSH2 0x828 JUMPI PUSH2 0x821 DUP4 PUSH2 0xEF8 JUMP JUMPDEST SWAP3 POP PUSH2 0x801 JUMP JUMPDEST PUSH1 0x1 PUSH1 0xE0 SHL AND ISZERO SWAP1 POP JUMPDEST SWAP2 SWAP1 POP JUMP JUMPDEST DUP1 PUSH0 MSTORE PUSH1 0x4 PUSH0 REVERT JUMPDEST PUSH0 PUSH2 0x849 DUP4 PUSH2 0x636 JUMP JUMPDEST SWAP1 POP DUP2 DUP1 ISZERO PUSH2 0x861 JUMPI POP CALLER PUSH1 0x1 PUSH1 0x1 PUSH1 0xA0 SHL SUB DUP3 AND EQ ISZERO JUMPDEST ISZERO PUSH2 0x89D JUMPI PUSH2 0x870 DUP2 CALLER PUSH2 0x2AC JUMP JUMPDEST PUSH2 0x89D JUMPI PUSH2 0x89D PUSH32 0xCFB3B94200000000000000000000000000000000000000000000000000000000 PUSH2 0x837 JUMP JUMPDEST PUSH0 DUP4 DUP2 MSTORE PUSH1 0x6 PUSH1 0x20 MSTORE PUSH1 0x40 DUP1 DUP3 KECCAK256 DUP1 SLOAD PUSH32 0xFFFFFFFFFFFFFFFFFFFFFFFF0000000000000000000000000000000000000000 AND PUSH1 0x1 PUSH1 0x1 PUSH1 0xA0 SHL SUB DUP9 DUP2 AND SWAP2 DUP3 OR SWAP1 SWAP3 SSTORE SWAP2 MLOAD DUP7 SWAP4 SWAP2 DUP6 AND SWAP2 PUSH32 0x8C5BE1E5EBEC7D5BD14F71427D1E84F3DD0314C0F7B2291E5B200AC8C7C3B925 SWAP2 LOG4 POP POP POP POP JUMP JUMPDEST PUSH0 DUP2 DUP2 MSTORE PUSH1 0x4 PUSH1 0x20 MSTORE PUSH1 0x40 SWAP1 KECCAK256 SLOAD DUP1 PUSH0 SUB PUSH2 0x97E JUMPI PUSH0 SLOAD DUP3 LT PUSH2 0x93E JUMPI PUSH2 0x93E PUSH4 0x6F96CDA1 PUSH1 0xE1 SHL PUSH2 0x837 JUMP JUMPDEST JUMPDEST POP PUSH0 NOT ADD PUSH0 DUP2 DUP2 MSTORE PUSH1 0x4 PUSH1 0x20 MSTORE PUSH1 0x40 SWAP1 KECCAK256 SLOAD DUP1 ISZERO PUSH2 0x93F JUMPI PUSH1 0x1 PUSH1 0xE0 SHL DUP2 AND PUSH0 SUB PUSH2 0x969 JUMPI SWAP2 SWAP1 POP JUMP JUMPDEST PUSH2 0x979 PUSH4 0x6F96CDA1 PUSH1 0xE1 SHL PUSH2 0x837 JUMP JUMPDEST PUSH2 0x93F JUMP JUMPDEST PUSH1 0x1 PUSH1 0xE0 SHL DUP2 AND PUSH0 SUB PUSH2 0x990 JUMPI SWAP2 SWAP1 POP JUMP JUMPDEST PUSH2 0x832 PUSH4 0x6F96CDA1 PUSH1 0xE1 SHL PUSH2 0x837 JUMP JUMPDEST PUSH2 0x463 DUP3 DUP3 PUSH1 0x40 MLOAD DUP1 PUSH1 0x20 ADD PUSH1 0x40 MSTORE DUP1 PUSH0 DUP2 MSTORE POP PUSH2 0xADB JUMP JUMPDEST PUSH1 0x40 MLOAD PUSH4 0xA85BD01 PUSH1 0xE1 SHL DUP2 MSTORE PUSH0 SWAP1 PUSH1 0x1 PUSH1 0x1 PUSH1 0xA0 SHL SUB DUP6 AND SWAP1 PUSH4 0x150B7A02 SWAP1 PUSH2 0x9ED SWAP1 CALLER SWAP1 DUP10 SWAP1 DUP9 SWAP1 DUP9 SWAP1 PUSH1 0x4 ADD PUSH2 0xF19 JUMP JUMPDEST PUSH1 0x20 PUSH1 0x40 MLOAD DUP1 DUP4 SUB DUP2 PUSH0 DUP8 GAS CALL SWAP3 POP POP POP DUP1 ISZERO PUSH2 0xA27 JUMPI POP PUSH1 0x40 DUP1 MLOAD PUSH1 0x1F RETURNDATASIZE SWAP1 DUP2 ADD PUSH1 0x1F NOT AND DUP3 ADD SWAP1 SWAP3 MSTORE PUSH2 0xA24 SWAP2 DUP2 ADD SWAP1 PUSH2 0xF54 JUMP JUMPDEST PUSH1 0x1 JUMPDEST PUSH2 0xA7A JUMPI RETURNDATASIZE DUP1 DUP1 ISZERO PUSH2 0xA54 JUMPI PUSH1 0x40 MLOAD SWAP2 POP PUSH1 0x1F NOT PUSH1 0x3F RETURNDATASIZE ADD AND DUP3 ADD PUSH1 0x40 MSTORE RETURNDATASIZE DUP3 MSTORE RETURNDATASIZE PUSH0 PUSH1 0x20 DUP5 ADD RETURNDATACOPY PUSH2 0xA59 JUMP JUMPDEST PUSH1 0x60 SWAP2 POP JUMPDEST POP DUP1 MLOAD PUSH0 SUB PUSH2 0xA72 JUMPI PUSH2 0xA72 PUSH4 0x68D2BF6B PUSH1 0xE1 SHL PUSH2 0x837 JUMP JUMPDEST DUP1 MLOAD DUP2 PUSH1 0x20 ADD REVERT JUMPDEST PUSH1 0x1 PUSH1 0x1 PUSH1 0xE0 SHL SUB NOT AND PUSH4 0xA85BD01 PUSH1 0xE1 SHL EQ SWAP1 POP JUMPDEST SWAP5 SWAP4 POP POP POP POP JUMP JUMPDEST PUSH1 0x60 PUSH1 0xA0 PUSH1 0x40 MLOAD ADD DUP1 PUSH1 0x40 MSTORE PUSH1 0x20 DUP2 SUB SWAP2 POP POP PUSH0 DUP2 MSTORE DUP1 DUP3 JUMPDEST PUSH1 0x1 DUP4 SUB SWAP3 POP PUSH1 0xA DUP2 MOD PUSH1 0x30 ADD DUP4 MSTORE8 PUSH1 0xA SWAP1 DIV DUP1 PUSH2 0xAB1 JUMPI POP DUP2 SWAP1 SUB PUSH1 0x1F NOT SWAP1 SWAP2 ADD SWAP1 DUP2 MSTORE SWAP2 SWAP1 POP JUMP JUMPDEST PUSH2 0xAE5 DUP4 DUP4 PUSH2 0xB3B JUMP JUMPDEST PUSH1 0x1 PUSH1 0x1 PUSH1 0xA0 SHL SUB DUP4 AND EXTCODESIZE ISZERO PUSH2 0x627 JUMPI PUSH0 SLOAD DUP3 DUP2 SUB JUMPDEST PUSH2 0xB0D PUSH0 DUP7 DUP4 DUP1 PUSH1 0x1 ADD SWAP5 POP DUP7 PUSH2 0x9B9 JUMP JUMPDEST PUSH2 0xB21 JUMPI PUSH2 0xB21 PUSH4 0x68D2BF6B PUSH1 0xE1 SHL PUSH2 0x837 JUMP JUMPDEST DUP2 DUP2 LT PUSH2 0xAFB JUMPI DUP2 PUSH0 SLOAD EQ PUSH2 0xB34 JUMPI PUSH0 DUP1 REVERT JUMPDEST POP POP POP POP POP JUMP JUMPDEST PUSH0 DUP1 SLOAD SWAP1 DUP3 SWAP1 SUB PUSH2 0xB6F JUMPI PUSH2 0xB6F PUSH32 0xB562E8DD00000000000000000000000000000000000000000000000000000000 PUSH2 0x837 JUMP JUMPDEST PUSH0 DUP2 DUP2 MSTORE PUSH1 0x4 PUSH1 0x20 SWAP1 DUP2 MSTORE PUSH1 0x40 DUP1 DUP4 KECCAK256 PUSH1 0x1 PUSH1 0x1 PUSH1 0xA0 SHL SUB DUP8 AND TIMESTAMP PUSH1 0xA0 SHL PUSH1 0x1 DUP9 EQ PUSH1 0xE1 SHL OR DUP2 OR SWAP1 SWAP2 SSTORE DUP1 DUP5 MSTORE PUSH1 0x5 SWAP1 SWAP3 MSTORE DUP3 KECCAK256 DUP1 SLOAD PUSH9 0x10000000000000001 DUP7 MUL ADD SWAP1 SSTORE SWAP1 DUP2 SWAP1 SUB PUSH2 0xBE6 JUMPI PUSH2 0xBE6 PUSH32 0x2E07630000000000000000000000000000000000000000000000000000000000 PUSH2 0x837 JUMP JUMPDEST DUP2 DUP4 ADD DUP3 JUMPDEST DUP1 DUP4 PUSH0 PUSH32 0xDDF252AD1BE2C89B69C2B068FC378DAA952BA7F163C4A11628F55A4DF523B3EF PUSH0 DUP1 LOG4 DUP2 DUP2 PUSH1 0x1 ADD SWAP2 POP DUP2 SUB PUSH2 0xBEB JUMPI POP PUSH0 SSTORE POP POP POP POP JUMP JUMPDEST PUSH1 0x1 PUSH1 0x1 PUSH1 0xE0 SHL SUB NOT DUP2 AND DUP2 EQ PUSH2 0xC3D JUMPI PUSH0 DUP1 REVERT JUMPDEST POP JUMP JUMPDEST PUSH0 PUSH1 0x20 DUP3 DUP5 SUB SLT ISZERO PUSH2 0xC50 JUMPI PUSH0 DUP1 REVERT JUMPDEST DUP2 CALLDATALOAD PUSH2 0x7EE DUP2 PUSH2 0xC28 JUMP JUMPDEST PUSH0 DUP2 MLOAD DUP1 DUP5 MSTORE DUP1 PUSH1 0x20 DUP5 ADD PUSH1 0x20 DUP7 ADD MCOPY PUSH0 PUSH1 0x20 DUP3 DUP7 ADD ADD MSTORE PUSH1 0x20 PUSH1 0x1F NOT PUSH1 0x1F DUP4 ADD AND DUP6 ADD ADD SWAP2 POP POP SWAP3 SWAP2 POP POP JUMP JUMPDEST PUSH1 0x20 DUP2 MSTORE PUSH0 PUSH2 0x7EE PUSH1 0x20 DUP4 ADD DUP5 PUSH2 0xC5B JUMP JUMPDEST PUSH0 PUSH1 0x20 DUP3 DUP5 SUB SLT ISZERO PUSH2 0xCAB JUMPI PUSH0 DUP1 REVERT JUMPDEST POP CALLDATALOAD SWAP2 SWAP1 POP JUMP JUMPDEST DUP1 CALLDATALOAD PUSH1 0x1 PUSH1 0x1 PUSH1 0xA0 SHL SUB DUP2 AND DUP2 EQ PUSH2 0x832 JUMPI PUSH0 DUP1 REVERT JUMPDEST PUSH0 DUP1 PUSH1 0x40 DUP4 DUP6 SUB SLT ISZERO PUSH2 0xCD9 JUMPI PUSH0 DUP1 REVERT JUMPDEST PUSH2 0xCE2 DUP4 PUSH2 0xCB2 JUMP JUMPDEST SWAP5 PUSH1 0x20 SWAP4 SWAP1 SWAP4 ADD CALLDATALOAD SWAP4 POP POP POP JUMP JUMPDEST PUSH0 DUP1 PUSH0 PUSH1 0x60 DUP5 DUP7 SUB SLT ISZERO PUSH2 0xD02 JUMPI PUSH0 DUP1 REVERT JUMPDEST PUSH2 0xD0B DUP5 PUSH2 0xCB2 JUMP JUMPDEST SWAP3 POP PUSH2 0xD19 PUSH1 0x20 DUP6 ADD PUSH2 0xCB2 JUMP JUMPDEST SWAP2 POP PUSH1 0x40 DUP5 ADD CALLDATALOAD SWAP1 POP SWAP3 POP SWAP3 POP SWAP3 JUMP JUMPDEST PUSH0 PUSH1 0x20 DUP3 DUP5 SUB SLT ISZERO PUSH2 0xD39 JUMPI PUSH0 DUP1 REVERT JUMPDEST PUSH2 0x7EE DUP3 PUSH2 0xCB2 JUMP JUMPDEST PUSH0 DUP1 PUSH1 0x40 DUP4 DUP6 SUB SLT ISZERO PUSH2 0xD53 JUMPI PUSH0 DUP1 REVERT JUMPDEST PUSH2 0xD5C DUP4 PUSH2 0xCB2 JUMP JUMPDEST SWAP2 POP PUSH1 0x20 DUP4 ADD CALLDATALOAD DUP1 ISZERO ISZERO DUP2 EQ PUSH2 0xD70 JUMPI PUSH0 DUP1 REVERT JUMPDEST DUP1 SWAP2 POP POP SWAP3 POP SWAP3 SWAP1 POP JUMP JUMPDEST PUSH4 0x4E487B71 PUSH1 0xE0 SHL PUSH0 MSTORE PUSH1 0x41 PUSH1 0x4 MSTORE PUSH1 0x24 PUSH0 REVERT JUMPDEST PUSH0 DUP1 PUSH0 DUP1 PUSH1 0x80 DUP6 DUP8 SUB SLT ISZERO PUSH2 0xDA2 JUMPI PUSH0 DUP1 REVERT JUMPDEST PUSH2 0xDAB DUP6 PUSH2 0xCB2 JUMP JUMPDEST SWAP4 POP PUSH2 0xDB9 PUSH1 0x20 DUP7 ADD PUSH2 0xCB2 JUMP JUMPDEST SWAP3 POP PUSH1 0x40 DUP6 ADD CALLDATALOAD SWAP2 POP PUSH1 0x60 DUP6 ADD CALLDATALOAD PUSH8 0xFFFFFFFFFFFFFFFF DUP1 DUP3 GT ISZERO PUSH2 0xDDC JUMPI PUSH0 DUP1 REVERT JUMPDEST DUP2 DUP8 ADD SWAP2 POP DUP8 PUSH1 0x1F DUP4 ADD SLT PUSH2 0xDEF JUMPI PUSH0 DUP1 REVERT JUMPDEST DUP2 CALLDATALOAD DUP2 DUP2 GT ISZERO PUSH2 0xE01 JUMPI PUSH2 0xE01 PUSH2 0xD7B JUMP JUMPDEST PUSH1 0x40 MLOAD PUSH1 0x1F DUP3 ADD PUSH1 0x1F NOT SWAP1 DUP2 AND PUSH1 0x3F ADD AND DUP2 ADD SWAP1 DUP4 DUP3 GT DUP2 DUP4 LT OR ISZERO PUSH2 0xE29 JUMPI PUSH2 0xE29 PUSH2 0xD7B JUMP JUMPDEST DUP2 PUSH1 0x40 MSTORE DUP3 DUP2 MSTORE DUP11 PUSH1 0x20 DUP5 DUP8 ADD ADD GT ISZERO PUSH2 0xE41 JUMPI PUSH0 DUP1 REVERT JUMPDEST DUP3 PUSH1 0x20 DUP7 ADD PUSH1 0x20 DUP4 ADD CALLDATACOPY PUSH0 PUSH1 0x20 DUP5 DUP4 ADD ADD MSTORE DUP1 SWAP6 POP POP POP POP POP POP SWAP3 SWAP6 SWAP2 SWAP5 POP SWAP3 POP JUMP JUMPDEST PUSH0 DUP1 PUSH1 0x40 DUP4 DUP6 SUB SLT ISZERO PUSH2 0xE75 JUMPI PUSH0 DUP1 REVERT JUMPDEST PUSH2 0xE7E DUP4 PUSH2 0xCB2 JUMP JUMPDEST SWAP2 POP PUSH2 0xE8C PUSH1 0x20 DUP5 ADD PUSH2 0xCB2 JUMP JUMPDEST SWAP1 POP SWAP3 POP SWAP3 SWAP1 POP JUMP JUMPDEST PUSH1 0x1 DUP2 DUP2 SHR SWAP1 DUP3 AND DUP1 PUSH2 0xEA9 JUMPI PUSH1 0x7F DUP3 AND SWAP2 POP JUMPDEST PUSH1 0x20 DUP3 LT DUP2 SUB PUSH2 0xEC7 JUMPI PUSH4 0x4E487B71 PUSH1 0xE0 SHL PUSH0 MSTORE PUSH1 0x22 PUSH1 0x4 MSTORE PUSH1 0x24 PUSH0 REVERT JUMPDEST POP SWAP2 SWAP1 POP JUMP JUMPDEST PUSH0 DUP2 MLOAD DUP1 PUSH1 0x20 DUP5 ADD DUP6 MCOPY PUSH0 SWAP4 ADD SWAP3 DUP4 MSTORE POP SWAP1 SWAP2 SWAP1 POP JUMP JUMPDEST PUSH0 PUSH2 0xA90 PUSH2 0xEF2 DUP4 DUP7 PUSH2 0xECD JUMP JUMPDEST DUP5 PUSH2 0xECD JUMP JUMPDEST PUSH0 DUP2 PUSH2 0xF12 JUMPI PUSH4 0x4E487B71 PUSH1 0xE0 SHL PUSH0 MSTORE PUSH1 0x11 PUSH1 0x4 MSTORE PUSH1 0x24 PUSH0 REVERT JUMPDEST POP PUSH0 NOT ADD SWAP1 JUMP JUMPDEST PUSH0 PUSH1 0x1 PUSH1 0x1 PUSH1 0xA0 SHL SUB DUP1 DUP8 AND DUP4 MSTORE DUP1 DUP7 AND PUSH1 0x20 DUP5 ADD MSTORE POP DUP4 PUSH1 0x40 DUP4 ADD MSTORE PUSH1 0x80 PUSH1 0x60 DUP4 ADD MSTORE PUSH2 0xF4A PUSH1 0x80 DUP4 ADD DUP5 PUSH2 0xC5B JUMP JUMPDEST SWAP7 SWAP6 POP POP POP POP POP POP JUMP JUMPDEST PUSH0 PUSH1 0x20 DUP3 DUP5 SUB SLT ISZERO PUSH2 0xF64 JUMPI PUSH0 DUP1 REVERT JUMPDEST DUP2 MLOAD PUSH2 0x7EE DUP2 PUSH2 0xC28 JUMP INVALID LOG2 PUSH5 0x6970667358 0x22 SLT KECCAK256 MCOPY GASLIMIT 0xCC PUSH31 0x60E8C636B56B7C0AB3773444BE087F40D245F50164A87EAD88CBB0EA64736F PUSH13 0x63430008190033000000000000 "
				},
				"gasEstimates": {
					"creation": {
						"codeDepositCost": "801000",
						"executionCost": "infinite",
						"totalCost": "infinite"
					},
					"external": {
						"approve(address,uint256)": "infinite",
						"balanceOf(address)": "2658",
						"batchMint(address,uint256)": "infinite",
						"getApproved(uint256)": "infinite",
						"isApprovedForAll(address,address)": "infinite",
						"name()": "infinite",
						"ownerOf(uint256)": "infinite",
						"safeTransferFrom(address,address,uint256)": "infinite",
						"safeTransferFrom(address,address,uint256,bytes)": "infinite",
						"setApprovalForAll(address,bool)": "26604",
						"supportsInterface(bytes4)": "513",
						"symbol()": "infinite",
						"tokenURI(uint256)": "infinite",
						"totalSupply()": "4430",
						"transferFrom(address,address,uint256)": "infinite"
					}
				},
				"methodIdentifiers": {
					"approve(address,uint256)": "095ea7b3",
					"balanceOf(address)": "70a08231",
					"batchMint(address,uint256)": "43508b05",
					"getApproved(uint256)": "081812fc",
					"isApprovedForAll(address,address)": "e985e9c5",
					"name()": "06fdde03",
					"ownerOf(uint256)": "6352211e",
					"safeTransferFrom(address,address,uint256)": "42842e0e",
					"safeTransferFrom(address,address,uint256,bytes)": "b88d4fde",
					"setApprovalForAll(address,bool)": "a22cb465",
					"supportsInterface(bytes4)": "01ffc9a7",
					"symbol()": "95d89b41",
					"tokenURI(uint256)": "c87b56dd",
					"totalSupply()": "18160ddd",
					"transferFrom(address,address,uint256)": "23b872dd"
				}
			},
			"storageLayout": {
				"storage": [
					{
						"astId": 118,
						"contract": "contracts/ContractS/ContractSV2.sol:ContractSV2",
						"label": "_currentIndex",
						"offset": 0,
						"slot": "0",
						"type": "t_uint256"
					},
					{
						"astId": 120,
						"contract": "contracts/ContractS/ContractSV2.sol:ContractSV2",
						"label": "_burnCounter",
						"offset": 0,
						"slot": "1",
						"type": "t_uint256"
					},
					{
						"astId": 122,
						"contract": "contracts/ContractS/ContractSV2.sol:ContractSV2",
						"label": "_name",
						"offset": 0,
						"slot": "2",
						"type": "t_string_storage"
					},
					{
						"astId": 124,
						"contract": "contracts/ContractS/ContractSV2.sol:ContractSV2",
						"label": "_symbol",
						"offset": 0,
						"slot": "3",
						"type": "t_string_storage"
					},
					{
						"astId": 128,
						"contract": "contracts/ContractS/ContractSV2.sol:ContractSV2",
						"label": "_packedOwnerships",
						"offset": 0,
						"slot": "4",
						"type": "t_mapping(t_uint256,t_uint256)"
					},
					{
						"astId": 132,
						"contract": "contracts/ContractS/ContractSV2.sol:ContractSV2",
						"label": "_packedAddressData",
						"offset": 0,
						"slot": "5",
						"type": "t_mapping(t_address,t_uint256)"
					},
					{
						"astId": 137,
						"contract": "contracts/ContractS/ContractSV2.sol:ContractSV2",
						"label": "_tokenApprovals",
						"offset": 0,
						"slot": "6",
						"type": "t_mapping(t_uint256,t_struct(TokenApprovalRef)50_storage)"
					},
					{
						"astId": 143,
						"contract": "contracts/ContractS/ContractSV2.sol:ContractSV2",
						"label": "_operatorApprovals",
						"offset": 0,
						"slot": "7",
						"type": "t_mapping(t_address,t_mapping(t_address,t_bool))"
					},
					{
						"astId": 145,
						"contract": "contracts/ContractS/ContractSV2.sol:ContractSV2",
						"label": "_spotMinted",
						"offset": 0,
						"slot": "8",
						"type": "t_uint256"
					}
				],
				"types": {
					"t_address": {
						"encoding": "inplace",
						"label": "address",
						"numberOfBytes": "20"
					},
					"t_bool": {
						"encoding": "inplace",
						"label": "bool",
						"numberOfBytes": "1"
					},
					"t_mapping(t_address,t_bool)": {
						"encoding": "mapping",
						"key": "t_address",
						"label": "mapping(address => bool)",
						"numberOfBytes": "32",
						"value": "t_bool"
					},
					"t_mapping(t_address,t_mapping(t_address,t_bool))": {
						"encoding": "mapping",
						"key": "t_address",
						"label": "mapping(address => mapping(address => bool))",
						"numberOfBytes": "32",
						"value": "t_mapping(t_address,t_bool)"
					},
					"t_mapping(t_address,t_uint256)": {
						"encoding": "mapping",
						"key": "t_address",
						"label": "mapping(address => uint256)",
						"numberOfBytes": "32",
						"value": "t_uint256"
					},
					"t_mapping(t_uint256,t_struct(TokenApprovalRef)50_storage)": {
						"encoding": "mapping",
						"key": "t_uint256",
						"label": "mapping(uint256 => struct ERC721A.TokenApprovalRef)",
						"numberOfBytes": "32",
						"value": "t_struct(TokenApprovalRef)50_storage"
					},
					"t_mapping(t_uint256,t_uint256)": {
						"encoding": "mapping",
						"key": "t_uint256",
						"label": "mapping(uint256 => uint256)",
						"numberOfBytes": "32",
						"value": "t_uint256"
					},
					"t_string_storage": {
						"encoding": "bytes",
						"label": "string",
						"numberOfBytes": "32"
					},
					"t_struct(TokenApprovalRef)50_storage": {
						"encoding": "inplace",
						"label": "struct ERC721A.TokenApprovalRef",
						"members": [
							{
								"astId": 49,
								"contract": "contracts/ContractS/ContractSV2.sol:ContractSV2",
								"label": "value",
								"offset": 0,
								"slot": "0",
								"type": "t_address"
							}
						],
						"numberOfBytes": "32"
					},
					"t_uint256": {
						"encoding": "inplace",
						"label": "uint256",
						"numberOfBytes": "32"
					}
				}
			},
			"userdoc": {
				"errors": {
					"ApprovalCallerNotOwnerNorApproved()": [
						{
							"notice": "The caller must own the token or be an approved operator."
						}
					],
					"ApprovalQueryForNonexistentToken()": [
						{
							"notice": "The token does not exist."
						}
					],
					"BalanceQueryForZeroAddress()": [
						{
							"notice": "Cannot query the balance for the zero address."
						}
					],
					"MintERC2309QuantityExceedsLimit()": [
						{
							"notice": "The `quantity` minted with ERC2309 exceeds the safety limit."
						}
					],
					"MintToZeroAddress()": [
						{
							"notice": "Cannot mint to the zero address."
						}
					],
					"MintZeroQuantity()": [
						{
							"notice": "The quantity of tokens minted must be more than zero."
						}
					],
					"NotCompatibleWithSpotMints()": [
						{
							"notice": "The feature is not compatible with spot mints."
						}
					],
					"OwnerQueryForNonexistentToken()": [
						{
							"notice": "The token does not exist."
						}
					],
					"OwnershipNotInitializedForExtraData()": [
						{
							"notice": "The `extraData` cannot be set on an unintialized ownership slot."
						}
					],
					"SequentialMintExceedsLimit()": [
						{
							"notice": "The `tokenId` of a sequential mint exceeds `_sequentialUpTo()`."
						}
					],
					"SequentialUpToTooSmall()": [
						{
							"notice": "`_sequentialUpTo()` must be greater than `_startTokenId()`."
						}
					],
					"SpotMintTokenIdTooSmall()": [
						{
							"notice": "Spot minting requires a `tokenId` greater than `_sequentialUpTo()`."
						}
					],
					"TokenAlreadyExists()": [
						{
							"notice": "Cannot mint over a token that already exists."
						}
					],
					"TransferCallerNotOwnerNorApproved()": [
						{
							"notice": "The caller must own the token or be an approved operator."
						}
					],
					"TransferFromIncorrectOwner()": [
						{
							"notice": "The token must be owned by `from`."
						}
					],
					"TransferToNonERC721ReceiverImplementer()": [
						{
							"notice": "Cannot safely transfer to a contract that does not implement the ERC721Receiver interface."
						}
					],
					"TransferToZeroAddress()": [
						{
							"notice": "Cannot transfer to the zero address."
						}
					],
					"URIQueryForNonexistentToken()": [
						{
							"notice": "The token does not exist."
						}
					]
				},
				"kind": "user",
				"methods": {},
				"version": 1
			}
		}
	}
}