{
	"contracts/ContractS/ContractSV3.sol": {
		"ContractSV3": {
			"abi": [
				{
					"inputs": [],
					"stateMutability": "nonpayable",
					"type": "constructor"
				},
				{
					"inputs": [
						{
							"internalType": "address",
							"name": "sender",
							"type": "address"
						},
						{
							"internalType": "uint256",
							"name": "balance",
							"type": "uint256"
						},
						{
							"internalType": "uint256",
							"name": "needed",
							"type": "uint256"
						},
						{
							"internalType": "uint256",
							"name": "tokenId",
							"type": "uint256"
						}
					],
					"name": "ERC1155InsufficientBalance",
					"type": "error"
				},
				{
					"inputs": [
						{
							"internalType": "address",
							"name": "approver",
							"type": "address"
						}
					],
					"name": "ERC1155InvalidApprover",
					"type": "error"
				},
				{
					"inputs": [
						{
							"internalType": "uint256",
							"name": "idsLength",
							"type": "uint256"
						},
						{
							"internalType": "uint256",
							"name": "valuesLength",
							"type": "uint256"
						}
					],
					"name": "ERC1155InvalidArrayLength",
					"type": "error"
				},
				{
					"inputs": [
						{
							"internalType": "address",
							"name": "operator",
							"type": "address"
						}
					],
					"name": "ERC1155InvalidOperator",
					"type": "error"
				},
				{
					"inputs": [
						{
							"internalType": "address",
							"name": "receiver",
							"type": "address"
						}
					],
					"name": "ERC1155InvalidReceiver",
					"type": "error"
				},
				{
					"inputs": [
						{
							"internalType": "address",
							"name": "sender",
							"type": "address"
						}
					],
					"name": "ERC1155InvalidSender",
					"type": "error"
				},
				{
					"inputs": [
						{
							"internalType": "address",
							"name": "operator",
							"type": "address"
						},
						{
							"internalType": "address",
							"name": "owner",
							"type": "address"
						}
					],
					"name": "ERC1155MissingApprovalForAll",
					"type": "error"
				},
				{
					"inputs": [],
					"name": "InvalidQuantity",
					"type": "error"
				},
				{
					"anonymous": false,
					"inputs": [
						{
							"indexed": true,
							"internalType": "address",
							"name": "account",
							"type": "address"
						},
						{
							"indexed": true,
							"internalType": "address",
							"name": "operator",
							"type": "address"
						},
						{
							"indexed": false,
							"internalType": "bool",
							"name": "approved",
							"type": "bool"
						}
					],
					"name": "ApprovalForAll",
					"type": "event"
				},
				{
					"anonymous": false,
					"inputs": [
						{
							"indexed": true,
							"internalType": "address",
							"name": "operator",
							"type": "address"
						},
						{
							"indexed": true,
							"internalType": "address",
							"name": "from",
							"type": "address"
						},
						{
							"indexed": true,
							"internalType": "address",
							"name": "to",
							"type": "address"
						},
						{
							"indexed": false,
							"internalType": "uint256[]",
							"name": "ids",
							"type": "uint256[]"
						},
						{
							"indexed": false,
							"internalType": "uint256[]",
							"name": "values",
							"type": "uint256[]"
						}
					],
					"name": "TransferBatch",
					"type": "event"
				},
				{
					"anonymous": false,
					"inputs": [
						{
							"indexed": true,
							"internalType": "address",
							"name": "operator",
							"type": "address"
						},
						{
							"indexed": true,
							"internalType": "address",
							"name": "from",
							"type": "address"
						},
						{
							"indexed": true,
							"internalType": "address",
							"name": "to",
							"type": "address"
						},
						{
							"indexed": false,
							"internalType": "uint256",
							"name": "id",
							"type": "uint256"
						},
						{
							"indexed": false,
							"internalType": "uint256",
							"name": "value",
							"type": "uint256"
						}
					],
					"name": "TransferSingle",
					"type": "event"
				},
				{
					"anonymous": false,
					"inputs": [
						{
							"indexed": false,
							"internalType": "string",
							"name": "value",
							"type": "string"
						},
						{
							"indexed": true,
							"internalType": "uint256",
							"name": "id",
							"type": "uint256"
						}
					],
					"name": "URI",
					"type": "event"
				},
				{
					"inputs": [
						{
							"internalType": "address",
							"name": "account",
							"type": "address"
						},
						{
							"internalType": "uint256",
							"name": "id",
							"type": "uint256"
						}
					],
					"name": "balanceOf",
					"outputs": [
						{
							"internalType": "uint256",
							"name": "",
							"type": "uint256"
						}
					],
					"stateMutability": "view",
					"type": "function"
				},
				{
					"inputs": [
						{
							"internalType": "address[]",
							"name": "accounts",
							"type": "address[]"
						},
						{
							"internalType": "uint256[]",
							"name": "ids",
							"type": "uint256[]"
						}
					],
					"name": "balanceOfBatch",
					"outputs": [
						{
							"internalType": "uint256[]",
							"name": "",
							"type": "uint256[]"
						}
					],
					"stateMutability": "view",
					"type": "function"
				},
				{
					"inputs": [
						{
							"internalType": "address",
							"name": "to",
							"type": "address"
						},
						{
							"internalType": "uint256",
							"name": "quantity",
							"type": "uint256"
						}
					],
					"name": "batchMint",
					"outputs": [],
					"stateMutability": "nonpayable",
					"type": "function"
				},
				{
					"inputs": [
						{
							"internalType": "address",
							"name": "account",
							"type": "address"
						},
						{
							"internalType": "address",
							"name": "operator",
							"type": "address"
						}
					],
					"name": "isApprovedForAll",
					"outputs": [
						{
							"internalType": "bool",
							"name": "",
							"type": "bool"
						}
					],
					"stateMutability": "view",
					"type": "function"
				},
				{
					"inputs": [
						{
							"internalType": "address",
							"name": "from",
							"type": "address"
						},
						{
							"internalType": "address",
							"name": "to",
							"type": "address"
						},
						{
							"internalType": "uint256[]",
							"name": "ids",
							"type": "uint256[]"
						},
						{
							"internalType": "uint256[]",
							"name": "values",
							"type": "uint256[]"
						},
						{
							"internalType": "bytes",
							"name": "data",
							"type": "bytes"
						}
					],
					"name": "safeBatchTransferFrom",
					"outputs": [],
					"stateMutability": "nonpayable",
					"type": "function"
				},
				{
					"inputs": [
						{
							"internalType": "address",
							"name": "from",
							"type": "address"
						},
						{
							"internalType": "address",
							"name": "to",
							"type": "address"
						},
						{
							"internalType": "uint256",
							"name": "id",
							"type": "uint256"
						},
						{
							"internalType": "uint256",
							"name": "value",
							"type": "uint256"
						},
						{
							"internalType": "bytes",
							"name": "data",
							"type": "bytes"
						}
					],
					"name": "safeTransferFrom",
					"outputs": [],
					"stateMutability": "nonpayable",
					"type": "function"
				},
				{
					"inputs": [
						{
							"internalType": "address",
							"name": "operator",
							"type": "address"
						},
						{
							"internalType": "bool",
							"name": "approved",
							"type": "bool"
						}
					],
					"name": "setApprovalForAll",
					"outputs": [],
					"stateMutability": "nonpayable",
					"type": "function"
				},
				{
					"inputs": [
						{
							"internalType": "bytes4",
							"name": "interfaceId",
							"type": "bytes4"
						}
					],
					"name": "supportsInterface",
					"outputs": [
						{
							"internalType": "bool",
							"name": "",
							"type": "bool"
						}
					],
					"stateMutability": "view",
					"type": "function"
				},
				{
					"inputs": [
						{
							"internalType": "uint256",
							"name": "",
							"type": "uint256"
						}
					],
					"name": "uri",
					"outputs": [
						{
							"internalType": "string",
							"name": "",
							"type": "string"
						}
					],
					"stateMutability": "view",
					"type": "function"
				}
			],
			"devdoc": {
				"errors": {
					"ERC1155InsufficientBalance(address,uint256,uint256,uint256)": [
						{
							"details": "Indicates an error related to the current `balance` of a `sender`. Used in transfers.",
							"params": {
								"balance": "Current balance for the interacting account.",
								"needed": "Minimum amount required to perform a transfer.",
								"sender": "Address whose tokens are being transferred.",
								"tokenId": "Identifier number of a token."
							}
						}
					],
					"ERC1155InvalidApprover(address)": [
						{
							"details": "Indicates a failure with the `approver` of a token to be approved. Used in approvals.",
							"params": {
								"approver": "Address initiating an approval operation."
							}
						}
					],
					"ERC1155InvalidArrayLength(uint256,uint256)": [
						{
							"details": "Indicates an array length mismatch between ids and values in a safeBatchTransferFrom operation. Used in batch transfers.",
							"params": {
								"idsLength": "Length of the array of token identifiers",
								"valuesLength": "Length of the array of token amounts"
							}
						}
					],
					"ERC1155InvalidOperator(address)": [
						{
							"details": "Indicates a failure with the `operator` to be approved. Used in approvals.",
							"params": {
								"operator": "Address that may be allowed to operate on tokens without being their owner."
							}
						}
					],
					"ERC1155InvalidReceiver(address)": [
						{
							"details": "Indicates a failure with the token `receiver`. Used in transfers.",
							"params": {
								"receiver": "Address to which tokens are being transferred."
							}
						}
					],
					"ERC1155InvalidSender(address)": [
						{
							"details": "Indicates a failure with the token `sender`. Used in transfers.",
							"params": {
								"sender": "Address whose tokens are being transferred."
							}
						}
					],
					"ERC1155MissingApprovalForAll(address,address)": [
						{
							"details": "Indicates a failure with the `operator`’s approval. Used in transfers.",
							"params": {
								"operator": "Address that may be allowed to operate on tokens without being their owner.",
								"owner": "Address of the current owner of a token."
							}
						}
					]
				},
				"events": {
					"ApprovalForAll(address,address,bool)": {
						"details": "Emitted when `account` grants or revokes permission to `operator` to transfer their tokens, according to `approved`."
					},
					"TransferBatch(address,address,address,uint256[],uint256[])": {
						"details": "Equivalent to multiple {TransferSingle} events, where `operator`, `from` and `to` are the same for all transfers."
					},
					"TransferSingle(address,address,address,uint256,uint256)": {
						"details": "Emitted when `value` amount of tokens of type `id` are transferred from `from` to `to` by `operator`."
					},
					"URI(string,uint256)": {
						"details": "Emitted when the URI for token type `id` changes to `value`, if it is a non-programmatic URI. If an {URI} event was emitted for `id`, the standard https://eips.ethereum.org/EIPS/eip-1155#metadata-extensions[guarantees] that `value` will equal the value returned by {IERC1155MetadataURI-uri}."
					}
				},
				"kind": "dev",
				"methods": {
					"balanceOf(address,uint256)": {
						"details": "See {IERC1155-balanceOf}."
					},
					"balanceOfBatch(address[],uint256[])": {
						"details": "See {IERC1155-balanceOfBatch}. Requirements: - `accounts` and `ids` must have the same length."
					},
					"isApprovedForAll(address,address)": {
						"details": "See {IERC1155-isApprovedForAll}."
					},
					"safeBatchTransferFrom(address,address,uint256[],uint256[],bytes)": {
						"details": "See {IERC1155-safeBatchTransferFrom}."
					},
					"safeTransferFrom(address,address,uint256,uint256,bytes)": {
						"details": "See {IERC1155-safeTransferFrom}."
					},
					"setApprovalForAll(address,bool)": {
						"details": "See {IERC1155-setApprovalForAll}."
					},
					"supportsInterface(bytes4)": {
						"details": "See {IERC165-supportsInterface}."
					},
					"uri(uint256)": {
						"details": "See {IERC1155MetadataURI-uri}. This implementation returns the same URI for *all* token types. It relies on the token type ID substitution mechanism https://eips.ethereum.org/EIPS/eip-1155#metadata[defined in the EIP]. Clients calling this function must replace the `\\{id\\}` substring with the actual token type ID."
					}
				},
				"version": 1
			},
			"evm": {
				"assembly": "    /* \"contracts/ContractS/ContractSV3.sol\":126:1733  contract ContractSV3 is ERC1155 {... */\n  mstore(0x40, 0x80)\n    /* \"contracts/ContractS/ContractSV3.sol\":350:408  constructor() ERC1155(\"https://api.test.com/{id}.json\") {} */\n  callvalue\n  dup1\n  iszero\n  tag_1\n  jumpi\n  0x00\n  dup1\n  revert\ntag_1:\n  pop\n    /* \"@openzeppelin/contracts/token/ERC1155/ERC1155.sol\":1251:1313  constructor(string memory uri_) {... */\n  0x40\n  dup1\n  mload\n  dup1\n  dup3\n  add\n  swap1\n  swap2\n  mstore\n  0x1e\n  dup2\n  mstore\n  0x68747470733a2f2f6170692e746573742e636f6d2f7b69647d2e6a736f6e0000\n  0x20\n  dup3\n  add\n  mstore\n    /* \"@openzeppelin/contracts/token/ERC1155/ERC1155.sol\":1293:1306  _setURI(uri_) */\n  tag_5\n    /* \"@openzeppelin/contracts/token/ERC1155/ERC1155.sol\":1251:1313  constructor(string memory uri_) {... */\n  dup2\n    /* \"@openzeppelin/contracts/token/ERC1155/ERC1155.sol\":1293:1300  _setURI */\n  tag_6\n    /* \"@openzeppelin/contracts/token/ERC1155/ERC1155.sol\":1293:1306  _setURI(uri_) */\n  jump\t// in\ntag_5:\n    /* \"@openzeppelin/contracts/token/ERC1155/ERC1155.sol\":1251:1313  constructor(string memory uri_) {... */\n  pop\n    /* \"contracts/ContractS/ContractSV3.sol\":126:1733  contract ContractSV3 is ERC1155 {... */\n  jump(tag_17)\n    /* \"@openzeppelin/contracts/token/ERC1155/ERC1155.sol\":10282:10368  function _setURI(string memory newuri) internal virtual {... */\ntag_6:\n    /* \"@openzeppelin/contracts/token/ERC1155/ERC1155.sol\":10348:10352  _uri */\n  0x02\n    /* \"@openzeppelin/contracts/token/ERC1155/ERC1155.sol\":10348:10361  _uri = newuri */\n  tag_10\n    /* \"@openzeppelin/contracts/token/ERC1155/ERC1155.sol\":10355:10361  newuri */\n  dup3\n    /* \"@openzeppelin/contracts/token/ERC1155/ERC1155.sol\":10348:10352  _uri */\n  dup3\n    /* \"@openzeppelin/contracts/token/ERC1155/ERC1155.sol\":10348:10361  _uri = newuri */\n  tag_11\n  jump\t// in\ntag_10:\n  pop\n    /* \"@openzeppelin/contracts/token/ERC1155/ERC1155.sol\":10282:10368  function _setURI(string memory newuri) internal virtual {... */\n  pop\n  jump\t// out\n    /* \"#utility.yul\":14:141   */\ntag_12:\n    /* \"#utility.yul\":75:85   */\n  0x4e487b71\n    /* \"#utility.yul\":70:73   */\n  0xe0\n    /* \"#utility.yul\":66:86   */\n  shl\n    /* \"#utility.yul\":63:64   */\n  0x00\n    /* \"#utility.yul\":56:87   */\n  mstore\n    /* \"#utility.yul\":106:110   */\n  0x41\n    /* \"#utility.yul\":103:104   */\n  0x04\n    /* \"#utility.yul\":96:111   */\n  mstore\n    /* \"#utility.yul\":130:134   */\n  0x24\n    /* \"#utility.yul\":127:128   */\n  0x00\n    /* \"#utility.yul\":120:135   */\n  revert\n    /* \"#utility.yul\":146:526   */\ntag_13:\n    /* \"#utility.yul\":225:226   */\n  0x01\n    /* \"#utility.yul\":221:233   */\n  dup2\n  dup2\n  shr\n  swap1\n    /* \"#utility.yul\":268:280   */\n  dup3\n  and\n  dup1\n    /* \"#utility.yul\":289:350   */\n  tag_20\n  jumpi\n    /* \"#utility.yul\":343:347   */\n  0x7f\n    /* \"#utility.yul\":335:341   */\n  dup3\n    /* \"#utility.yul\":331:348   */\n  and\n    /* \"#utility.yul\":321:348   */\n  swap2\n  pop\n    /* \"#utility.yul\":289:350   */\ntag_20:\n    /* \"#utility.yul\":396:398   */\n  0x20\n    /* \"#utility.yul\":388:394   */\n  dup3\n    /* \"#utility.yul\":385:399   */\n  lt\n    /* \"#utility.yul\":365:383   */\n  dup2\n    /* \"#utility.yul\":362:400   */\n  sub\n    /* \"#utility.yul\":359:520   */\n  tag_21\n  jumpi\n    /* \"#utility.yul\":442:452   */\n  0x4e487b71\n    /* \"#utility.yul\":437:440   */\n  0xe0\n    /* \"#utility.yul\":433:453   */\n  shl\n    /* \"#utility.yul\":430:431   */\n  0x00\n    /* \"#utility.yul\":423:454   */\n  mstore\n    /* \"#utility.yul\":477:481   */\n  0x22\n    /* \"#utility.yul\":474:475   */\n  0x04\n    /* \"#utility.yul\":467:482   */\n  mstore\n    /* \"#utility.yul\":505:509   */\n  0x24\n    /* \"#utility.yul\":502:503   */\n  0x00\n    /* \"#utility.yul\":495:510   */\n  revert\n    /* \"#utility.yul\":359:520   */\ntag_21:\n  pop\n    /* \"#utility.yul\":146:526   */\n  swap2\n  swap1\n  pop\n  jump\t// out\n    /* \"#utility.yul\":657:1175   */\ntag_15:\n    /* \"#utility.yul\":759:761   */\n  0x1f\n    /* \"#utility.yul\":754:757   */\n  dup3\n    /* \"#utility.yul\":751:762   */\n  gt\n    /* \"#utility.yul\":748:1169   */\n  iszero\n  tag_24\n  jumpi\n    /* \"#utility.yul\":795:800   */\n  dup1\n    /* \"#utility.yul\":792:793   */\n  0x00\n    /* \"#utility.yul\":785:801   */\n  mstore\n    /* \"#utility.yul\":839:843   */\n  0x20\n    /* \"#utility.yul\":836:837   */\n  0x00\n    /* \"#utility.yul\":826:844   */\n  keccak256\n    /* \"#utility.yul\":909:911   */\n  0x1f\n    /* \"#utility.yul\":897:907   */\n  dup5\n    /* \"#utility.yul\":893:912   */\n  add\n    /* \"#utility.yul\":890:891   */\n  0x05\n    /* \"#utility.yul\":886:913   */\n  shr\n    /* \"#utility.yul\":880:884   */\n  dup2\n    /* \"#utility.yul\":876:914   */\n  add\n    /* \"#utility.yul\":945:949   */\n  0x20\n    /* \"#utility.yul\":933:943   */\n  dup6\n    /* \"#utility.yul\":930:950   */\n  lt\n    /* \"#utility.yul\":927:974   */\n  iszero\n  tag_25\n  jumpi\n  pop\n    /* \"#utility.yul\":968:972   */\n  dup1\n    /* \"#utility.yul\":927:974   */\ntag_25:\n    /* \"#utility.yul\":1023:1025   */\n  0x1f\n    /* \"#utility.yul\":1018:1021   */\n  dup5\n    /* \"#utility.yul\":1014:1026   */\n  add\n    /* \"#utility.yul\":1011:1012   */\n  0x05\n    /* \"#utility.yul\":1007:1027   */\n  shr\n    /* \"#utility.yul\":1001:1005   */\n  dup3\n    /* \"#utility.yul\":997:1028   */\n  add\n    /* \"#utility.yul\":987:1028   */\n  swap2\n  pop\n    /* \"#utility.yul\":1078:1159   */\ntag_26:\n    /* \"#utility.yul\":1096:1098   */\n  dup2\n    /* \"#utility.yul\":1089:1094   */\n  dup2\n    /* \"#utility.yul\":1086:1099   */\n  lt\n    /* \"#utility.yul\":1078:1159   */\n  iszero\n  tag_28\n  jumpi\n    /* \"#utility.yul\":1155:1156   */\n  0x00\n    /* \"#utility.yul\":1141:1157   */\n  dup2\n  sstore\n    /* \"#utility.yul\":1122:1123   */\n  0x01\n    /* \"#utility.yul\":1111:1124   */\n  add\n    /* \"#utility.yul\":1078:1159   */\n  jump(tag_26)\ntag_28:\n    /* \"#utility.yul\":1082:1085   */\n  pop\n  pop\n    /* \"#utility.yul\":748:1169   */\ntag_24:\n    /* \"#utility.yul\":657:1175   */\n  pop\n  pop\n  pop\n  jump\t// out\n    /* \"#utility.yul\":1351:2696   */\ntag_11:\n    /* \"#utility.yul\":1471:1481   */\n  dup2\n  mload\n  sub(shl(0x40, 0x01), 0x01)\n    /* \"#utility.yul\":1493:1523   */\n  dup2\n  gt\n    /* \"#utility.yul\":1490:1546   */\n  iszero\n  tag_32\n  jumpi\n    /* \"#utility.yul\":1526:1544   */\n  tag_32\n  tag_12\n  jump\t// in\ntag_32:\n    /* \"#utility.yul\":1555:1652   */\n  tag_33\n    /* \"#utility.yul\":1645:1651   */\n  dup2\n    /* \"#utility.yul\":1605:1643   */\n  tag_34\n    /* \"#utility.yul\":1637:1641   */\n  dup5\n    /* \"#utility.yul\":1631:1642   */\n  sload\n    /* \"#utility.yul\":1605:1643   */\n  tag_13\n  jump\t// in\ntag_34:\n    /* \"#utility.yul\":1599:1603   */\n  dup5\n    /* \"#utility.yul\":1555:1652   */\n  tag_15\n  jump\t// in\ntag_33:\n    /* \"#utility.yul\":1707:1711   */\n  0x20\n  dup1\n    /* \"#utility.yul\":1764:1766   */\n  0x1f\n    /* \"#utility.yul\":1753:1767   */\n  dup4\n  gt\n    /* \"#utility.yul\":1781:1782   */\n  0x01\n    /* \"#utility.yul\":1776:2439   */\n  dup2\n  eq\n  tag_36\n  jumpi\n    /* \"#utility.yul\":2483:2484   */\n  0x00\n    /* \"#utility.yul\":2500:2506   */\n  dup5\n    /* \"#utility.yul\":2497:2586   */\n  iszero\n  tag_37\n  jumpi\n  pop\n    /* \"#utility.yul\":2552:2571   */\n  dup6\n  dup4\n  add\n    /* \"#utility.yul\":2546:2572   */\n  mload\n    /* \"#utility.yul\":2497:2586   */\ntag_37:\n  not(0x00)\n    /* \"#utility.yul\":1308:1309   */\n  0x03\n    /* \"#utility.yul\":1304:1315   */\n  dup7\n  swap1\n  shl\n    /* \"#utility.yul\":1300:1324   */\n  shr\n    /* \"#utility.yul\":1296:1325   */\n  not\n    /* \"#utility.yul\":1286:1326   */\n  and\n    /* \"#utility.yul\":1332:1333   */\n  0x01\n    /* \"#utility.yul\":1328:1339   */\n  dup6\n  swap1\n  shl\n    /* \"#utility.yul\":1283:1340   */\n  or\n    /* \"#utility.yul\":2599:2680   */\n  dup6\n  sstore\n    /* \"#utility.yul\":1746:2690   */\n  jump(tag_35)\n    /* \"#utility.yul\":1776:2439   */\ntag_36:\n    /* \"#utility.yul\":604:605   */\n  0x00\n    /* \"#utility.yul\":597:611   */\n  dup6\n  dup2\n  mstore\n    /* \"#utility.yul\":641:645   */\n  0x20\n    /* \"#utility.yul\":628:646   */\n  dup2\n  keccak256\n  not(0x1f)\n    /* \"#utility.yul\":1812:1832   */\n  dup7\n  and\n  swap2\n    /* \"#utility.yul\":1930:2166   */\ntag_40:\n    /* \"#utility.yul\":1944:1951   */\n  dup3\n    /* \"#utility.yul\":1941:1942   */\n  dup2\n    /* \"#utility.yul\":1938:1952   */\n  lt\n    /* \"#utility.yul\":1930:2166   */\n  iszero\n  tag_42\n  jumpi\n    /* \"#utility.yul\":2033:2052   */\n  dup9\n  dup7\n  add\n    /* \"#utility.yul\":2027:2053   */\n  mload\n    /* \"#utility.yul\":2012:2054   */\n  dup3\n  sstore\n    /* \"#utility.yul\":2125:2152   */\n  swap5\n  dup5\n  add\n  swap5\n    /* \"#utility.yul\":2093:2094   */\n  0x01\n    /* \"#utility.yul\":2081:2095   */\n  swap1\n  swap2\n  add\n  swap1\n    /* \"#utility.yul\":1960:1979   */\n  dup5\n  add\n    /* \"#utility.yul\":1930:2166   */\n  jump(tag_40)\ntag_42:\n    /* \"#utility.yul\":1934:1937   */\n  pop\n    /* \"#utility.yul\":2194:2200   */\n  dup6\n    /* \"#utility.yul\":2185:2192   */\n  dup3\n    /* \"#utility.yul\":2182:2201   */\n  lt\n    /* \"#utility.yul\":2179:2380   */\n  iszero\n  tag_43\n  jumpi\n    /* \"#utility.yul\":2255:2274   */\n  dup8\n  dup6\n  add\n    /* \"#utility.yul\":2249:2275   */\n  mload\n  not(0x00)\n    /* \"#utility.yul\":2338:2339   */\n  0x03\n    /* \"#utility.yul\":2334:2348   */\n  dup9\n  swap1\n  shl\n    /* \"#utility.yul\":2350:2353   */\n  0xf8\n    /* \"#utility.yul\":2330:2354   */\n  and\n    /* \"#utility.yul\":2326:2363   */\n  shr\n    /* \"#utility.yul\":2322:2364   */\n  not\n    /* \"#utility.yul\":2307:2365   */\n  and\n    /* \"#utility.yul\":2292:2366   */\n  dup2\n  sstore\n    /* \"#utility.yul\":2179:2380   */\ntag_43:\n  pop\n  pop\n    /* \"#utility.yul\":2426:2427   */\n  0x01\n    /* \"#utility.yul\":2417:2423   */\n  dup5\n    /* \"#utility.yul\":2414:2415   */\n  0x01\n    /* \"#utility.yul\":2410:2424   */\n  shl\n    /* \"#utility.yul\":2406:2428   */\n  add\n    /* \"#utility.yul\":2400:2404   */\n  dup6\n    /* \"#utility.yul\":2393:2429   */\n  sstore\n    /* \"#utility.yul\":1746:2690   */\ntag_35:\n  pop\n  pop\n  pop\n  pop\n    /* \"#utility.yul\":1351:2696   */\n  pop\n  pop\n  jump\t// out\ntag_17:\n    /* \"contracts/ContractS/ContractSV3.sol\":126:1733  contract ContractSV3 is ERC1155 {... */\n  dataSize(sub_0)\n  dup1\n  dataOffset(sub_0)\n  0x00\n  codecopy\n  0x00\n  return\nstop\n\nsub_0: assembly {\n        /* \"contracts/ContractS/ContractSV3.sol\":126:1733  contract ContractSV3 is ERC1155 {... */\n      mstore(0x40, 0x80)\n      callvalue\n      dup1\n      iszero\n      tag_1\n      jumpi\n      0x00\n      dup1\n      revert\n    tag_1:\n      pop\n      jumpi(tag_2, lt(calldatasize, 0x04))\n      shr(0xe0, calldataload(0x00))\n      dup1\n      0x43508b05\n      gt\n      tag_12\n      jumpi\n      dup1\n      0xa22cb465\n      gt\n      tag_13\n      jumpi\n      dup1\n      0xa22cb465\n      eq\n      tag_9\n      jumpi\n      dup1\n      0xe985e9c5\n      eq\n      tag_10\n      jumpi\n      dup1\n      0xf242432a\n      eq\n      tag_11\n      jumpi\n      0x00\n      dup1\n      revert\n    tag_13:\n      dup1\n      0x43508b05\n      eq\n      tag_7\n      jumpi\n      dup1\n      0x4e1273f4\n      eq\n      tag_8\n      jumpi\n      0x00\n      dup1\n      revert\n    tag_12:\n      dup1\n      0xfdd58e\n      eq\n      tag_3\n      jumpi\n      dup1\n      0x01ffc9a7\n      eq\n      tag_4\n      jumpi\n      dup1\n      0x0e89341c\n      eq\n      tag_5\n      jumpi\n      dup1\n      0x2eb2c2d6\n      eq\n      tag_6\n      jumpi\n    tag_2:\n      0x00\n      dup1\n      revert\n        /* \"@openzeppelin/contracts/token/ERC1155/ERC1155.sol\":2247:2379  function balanceOf(address account, uint256 id) public view virtual returns (uint256) {... */\n    tag_3:\n      tag_14\n      tag_15\n      calldatasize\n      0x04\n      tag_16\n      jump\t// in\n    tag_15:\n      tag_17\n      jump\t// in\n    tag_14:\n      mload(0x40)\n        /* \"#utility.yul\":620:645   */\n      swap1\n      dup2\n      mstore\n        /* \"#utility.yul\":608:610   */\n      0x20\n        /* \"#utility.yul\":593:611   */\n      add\n        /* \"@openzeppelin/contracts/token/ERC1155/ERC1155.sol\":2247:2379  function balanceOf(address account, uint256 id) public view virtual returns (uint256) {... */\n    tag_18:\n      mload(0x40)\n      dup1\n      swap2\n      sub\n      swap1\n      return\n        /* \"@openzeppelin/contracts/token/ERC1155/ERC1155.sol\":1380:1685  function supportsInterface(bytes4 interfaceId) public view virtual override(ERC165, IERC165) returns (bool) {... */\n    tag_4:\n      tag_20\n      tag_21\n      calldatasize\n      0x04\n      tag_22\n      jump\t// in\n    tag_21:\n      tag_23\n      jump\t// in\n    tag_20:\n      mload(0x40)\n        /* \"#utility.yul\":1253:1267   */\n      swap1\n      iszero\n        /* \"#utility.yul\":1246:1268   */\n      iszero\n        /* \"#utility.yul\":1228:1269   */\n      dup2\n      mstore\n        /* \"#utility.yul\":1216:1218   */\n      0x20\n        /* \"#utility.yul\":1201:1219   */\n      add\n        /* \"@openzeppelin/contracts/token/ERC1155/ERC1155.sol\":1380:1685  function supportsInterface(bytes4 interfaceId) public view virtual override(ERC165, IERC165) returns (bool) {... */\n      tag_18\n        /* \"#utility.yul\":1088:1275   */\n      jump\n        /* \"@openzeppelin/contracts/token/ERC1155/ERC1155.sol\":2084:2187  function uri(uint256 /* id */) public view virtual returns (string memory) {... */\n    tag_5:\n      tag_26\n      tag_27\n      calldatasize\n      0x04\n      tag_28\n      jump\t// in\n    tag_27:\n      tag_29\n      jump\t// in\n    tag_26:\n      mload(0x40)\n      tag_18\n      swap2\n      swap1\n      tag_31\n      jump\t// in\n        /* \"@openzeppelin/contracts/token/ERC1155/ERC1155.sol\":4014:4443  function safeBatchTransferFrom(... */\n    tag_6:\n      tag_32\n      tag_33\n      calldatasize\n      0x04\n      tag_34\n      jump\t// in\n    tag_33:\n      tag_35\n      jump\t// in\n    tag_32:\n      stop\n        /* \"contracts/ContractS/ContractSV3.sol\":416:1730  function batchMint(address to, uint256 quantity) public {... */\n    tag_7:\n      tag_32\n      tag_37\n      calldatasize\n      0x04\n      tag_16\n      jump\t// in\n    tag_37:\n      tag_38\n      jump\t// in\n        /* \"@openzeppelin/contracts/token/ERC1155/ERC1155.sol\":2536:3088  function balanceOfBatch(... */\n    tag_8:\n      tag_39\n      tag_40\n      calldatasize\n      0x04\n      tag_41\n      jump\t// in\n    tag_40:\n      tag_42\n      jump\t// in\n    tag_39:\n      mload(0x40)\n      tag_18\n      swap2\n      swap1\n      tag_44\n      jump\t// in\n        /* \"@openzeppelin/contracts/token/ERC1155/ERC1155.sol\":3156:3300  function setApprovalForAll(address operator, bool approved) public virtual {... */\n    tag_9:\n      tag_32\n      tag_46\n      calldatasize\n      0x04\n      tag_47\n      jump\t// in\n    tag_46:\n      tag_48\n      jump\t// in\n        /* \"@openzeppelin/contracts/token/ERC1155/ERC1155.sol\":3367:3524  function isApprovedForAll(address account, address operator) public view virtual returns (bool) {... */\n    tag_10:\n      tag_20\n      tag_50\n      calldatasize\n      0x04\n      tag_51\n      jump\t// in\n    tag_50:\n      sub(shl(0xa0, 0x01), 0x01)\n        /* \"@openzeppelin/contracts/token/ERC1155/ERC1155.sol\":3480:3507  _operatorApprovals[account] */\n      swap2\n      dup3\n      and\n        /* \"@openzeppelin/contracts/token/ERC1155/ERC1155.sol\":3457:3461  bool */\n      0x00\n        /* \"@openzeppelin/contracts/token/ERC1155/ERC1155.sol\":3480:3507  _operatorApprovals[account] */\n      swap1\n      dup2\n      mstore\n        /* \"@openzeppelin/contracts/token/ERC1155/ERC1155.sol\":3480:3498  _operatorApprovals */\n      0x01\n        /* \"@openzeppelin/contracts/token/ERC1155/ERC1155.sol\":3480:3507  _operatorApprovals[account] */\n      0x20\n      swap1\n      dup2\n      mstore\n      0x40\n      dup1\n      dup4\n      keccak256\n        /* \"@openzeppelin/contracts/token/ERC1155/ERC1155.sol\":3480:3517  _operatorApprovals[account][operator] */\n      swap4\n      swap1\n      swap5\n      and\n      dup3\n      mstore\n      swap2\n      swap1\n      swap2\n      mstore\n      keccak256\n      sload\n      0xff\n      and\n      swap1\n        /* \"@openzeppelin/contracts/token/ERC1155/ERC1155.sol\":3367:3524  function isApprovedForAll(address account, address operator) public view virtual returns (bool) {... */\n      jump\n        /* \"@openzeppelin/contracts/token/ERC1155/ERC1155.sol\":3591:3942  function safeTransferFrom(address from, address to, uint256 id, uint256 value, bytes memory data) public virtual {... */\n    tag_11:\n      tag_32\n      tag_55\n      calldatasize\n      0x04\n      tag_56\n      jump\t// in\n    tag_55:\n      tag_57\n      jump\t// in\n        /* \"@openzeppelin/contracts/token/ERC1155/ERC1155.sol\":2247:2379  function balanceOf(address account, uint256 id) public view virtual returns (uint256) {... */\n    tag_17:\n        /* \"@openzeppelin/contracts/token/ERC1155/ERC1155.sol\":2324:2331  uint256 */\n      0x00\n        /* \"@openzeppelin/contracts/token/ERC1155/ERC1155.sol\":2350:2363  _balances[id] */\n      dup2\n      dup2\n      mstore\n      0x20\n      dup2\n      dup2\n      mstore\n      0x40\n      dup1\n      dup4\n      keccak256\n      sub(shl(0xa0, 0x01), 0x01)\n        /* \"@openzeppelin/contracts/token/ERC1155/ERC1155.sol\":2350:2372  _balances[id][account] */\n      dup7\n      and\n      dup5\n      mstore\n      swap1\n      swap2\n      mstore\n      swap1\n      keccak256\n      sload\n        /* \"@openzeppelin/contracts/token/ERC1155/ERC1155.sol\":2247:2379  function balanceOf(address account, uint256 id) public view virtual returns (uint256) {... */\n    tag_58:\n      swap3\n      swap2\n      pop\n      pop\n      jump\t// out\n        /* \"@openzeppelin/contracts/token/ERC1155/ERC1155.sol\":1380:1685  function supportsInterface(bytes4 interfaceId) public view virtual override(ERC165, IERC165) returns (bool) {... */\n    tag_23:\n        /* \"@openzeppelin/contracts/token/ERC1155/ERC1155.sol\":1482:1486  bool */\n      0x00\n      not(sub(shl(0xe0, 0x01), 0x01))\n        /* \"@openzeppelin/contracts/token/ERC1155/ERC1155.sol\":1517:1558  interfaceId == type(IERC1155).interfaceId */\n      dup3\n      and\n        /* \"@openzeppelin/contracts/token/ERC1155/ERC1155.sol\":1532:1558  type(IERC1155).interfaceId */\n      0xd9b67a2600000000000000000000000000000000000000000000000000000000\n        /* \"@openzeppelin/contracts/token/ERC1155/ERC1155.sol\":1517:1558  interfaceId == type(IERC1155).interfaceId */\n      eq\n      dup1\n        /* \"@openzeppelin/contracts/token/ERC1155/ERC1155.sol\":1517:1626  interfaceId == type(IERC1155).interfaceId ||... */\n      tag_60\n      jumpi\n      pop\n      not(sub(shl(0xe0, 0x01), 0x01))\n        /* \"@openzeppelin/contracts/token/ERC1155/ERC1155.sol\":1574:1626  interfaceId == type(IERC1155MetadataURI).interfaceId */\n      dup3\n      and\n        /* \"@openzeppelin/contracts/token/ERC1155/ERC1155.sol\":1589:1626  type(IERC1155MetadataURI).interfaceId */\n      0x0e89341c00000000000000000000000000000000000000000000000000000000\n        /* \"@openzeppelin/contracts/token/ERC1155/ERC1155.sol\":1574:1626  interfaceId == type(IERC1155MetadataURI).interfaceId */\n      eq\n        /* \"@openzeppelin/contracts/token/ERC1155/ERC1155.sol\":1517:1626  interfaceId == type(IERC1155).interfaceId ||... */\n    tag_60:\n        /* \"@openzeppelin/contracts/token/ERC1155/ERC1155.sol\":1517:1678  interfaceId == type(IERC1155).interfaceId ||... */\n      dup1\n      tag_58\n      jumpi\n      pop\n        /* \"@openzeppelin/contracts/utils/introspection/ERC165.sol\":876:901  type(IERC165).interfaceId */\n      0x01ffc9a700000000000000000000000000000000000000000000000000000000\n      not(sub(shl(0xe0, 0x01), 0x01))\n        /* \"@openzeppelin/contracts/utils/introspection/ERC165.sol\":861:901  interfaceId == type(IERC165).interfaceId */\n      dup4\n      and\n      eq\n        /* \"@openzeppelin/contracts/token/ERC1155/ERC1155.sol\":1642:1678  super.supportsInterface(interfaceId) */\n      tag_58\n        /* \"@openzeppelin/contracts/utils/introspection/ERC165.sol\":762:908  function supportsInterface(bytes4 interfaceId) public view virtual returns (bool) {... */\n      jump\n        /* \"@openzeppelin/contracts/token/ERC1155/ERC1155.sol\":2084:2187  function uri(uint256 /* id */) public view virtual returns (string memory) {... */\n    tag_29:\n        /* \"@openzeppelin/contracts/token/ERC1155/ERC1155.sol\":2144:2157  string memory */\n      0x60\n        /* \"@openzeppelin/contracts/token/ERC1155/ERC1155.sol\":2176:2180  _uri */\n      0x02\n        /* \"@openzeppelin/contracts/token/ERC1155/ERC1155.sol\":2169:2180  return _uri */\n      dup1\n      sload\n      tag_65\n      swap1\n      tag_66\n      jump\t// in\n    tag_65:\n      dup1\n      0x1f\n      add\n      0x20\n      dup1\n      swap2\n      div\n      mul\n      0x20\n      add\n      mload(0x40)\n      swap1\n      dup2\n      add\n      0x40\n      mstore\n      dup1\n      swap3\n      swap2\n      swap1\n      dup2\n      dup2\n      mstore\n      0x20\n      add\n      dup3\n      dup1\n      sload\n      tag_67\n      swap1\n      tag_66\n      jump\t// in\n    tag_67:\n      dup1\n      iszero\n      tag_68\n      jumpi\n      dup1\n      0x1f\n      lt\n      tag_69\n      jumpi\n      0x0100\n      dup1\n      dup4\n      sload\n      div\n      mul\n      dup4\n      mstore\n      swap2\n      0x20\n      add\n      swap2\n      jump(tag_68)\n    tag_69:\n      dup3\n      add\n      swap2\n      swap1\n      0x00\n      mstore\n      keccak256(0x00, 0x20)\n      swap1\n    tag_70:\n      dup2\n      sload\n      dup2\n      mstore\n      swap1\n      0x01\n      add\n      swap1\n      0x20\n      add\n      dup1\n      dup4\n      gt\n      tag_70\n      jumpi\n      dup3\n      swap1\n      sub\n      0x1f\n      and\n      dup3\n      add\n      swap2\n    tag_68:\n      pop\n      pop\n      pop\n      pop\n      pop\n      swap1\n      pop\n        /* \"@openzeppelin/contracts/token/ERC1155/ERC1155.sol\":2084:2187  function uri(uint256 /* id */) public view virtual returns (string memory) {... */\n      swap2\n      swap1\n      pop\n      jump\t// out\n        /* \"@openzeppelin/contracts/token/ERC1155/ERC1155.sol\":4014:4443  function safeBatchTransferFrom(... */\n    tag_35:\n        /* \"@openzeppelin/contracts/utils/Context.sol\":735:745  msg.sender */\n      caller\n      sub(shl(0xa0, 0x01), 0x01)\n        /* \"@openzeppelin/contracts/token/ERC1155/ERC1155.sol\":4251:4265  from != sender */\n      dup7\n      and\n      dup2\n      eq\n      dup1\n      iszero\n      swap1\n        /* \"@openzeppelin/contracts/token/ERC1155/ERC1155.sol\":4251:4300  from != sender && !isApprovedForAll(from, sender) */\n      tag_74\n      jumpi\n      pop\n      sub(shl(0xa0, 0x01), 0x01)\n        /* \"@openzeppelin/contracts/token/ERC1155/ERC1155.sol\":3480:3507  _operatorApprovals[account] */\n      dup1\n      dup8\n      and\n        /* \"@openzeppelin/contracts/token/ERC1155/ERC1155.sol\":3457:3461  bool */\n      0x00\n        /* \"@openzeppelin/contracts/token/ERC1155/ERC1155.sol\":3480:3507  _operatorApprovals[account] */\n      swap1\n      dup2\n      mstore\n        /* \"@openzeppelin/contracts/token/ERC1155/ERC1155.sol\":3480:3498  _operatorApprovals */\n      0x01\n        /* \"@openzeppelin/contracts/token/ERC1155/ERC1155.sol\":3480:3507  _operatorApprovals[account] */\n      0x20\n      swap1\n      dup2\n      mstore\n      0x40\n      dup1\n      dup4\n      keccak256\n        /* \"@openzeppelin/contracts/token/ERC1155/ERC1155.sol\":3480:3517  _operatorApprovals[account][operator] */\n      swap4\n      dup6\n      and\n      dup4\n      mstore\n      swap3\n      swap1\n      mstore\n      keccak256\n      sload\n      0xff\n      and\n        /* \"@openzeppelin/contracts/token/ERC1155/ERC1155.sol\":4269:4300  !isApprovedForAll(from, sender) */\n      iszero\n        /* \"@openzeppelin/contracts/token/ERC1155/ERC1155.sol\":4251:4300  from != sender && !isApprovedForAll(from, sender) */\n    tag_74:\n        /* \"@openzeppelin/contracts/token/ERC1155/ERC1155.sol\":4247:4376  if (from != sender && !isApprovedForAll(from, sender)) {... */\n      iszero\n      tag_76\n      jumpi\n        /* \"@openzeppelin/contracts/token/ERC1155/ERC1155.sol\":4323:4365  ERC1155MissingApprovalForAll(sender, from) */\n      mload(0x40)\n      shl(0xe1, 0x711bec91)\n      dup2\n      mstore\n      sub(shl(0xa0, 0x01), 0x01)\n        /* \"#utility.yul\":8581:8596   */\n      dup1\n      dup4\n      and\n        /* \"@openzeppelin/contracts/token/ERC1155/ERC1155.sol\":4323:4365  ERC1155MissingApprovalForAll(sender, from) */\n      0x04\n      dup4\n      add\n        /* \"#utility.yul\":8563:8597   */\n      mstore\n        /* \"#utility.yul\":8633:8648   */\n      dup8\n      and\n        /* \"#utility.yul\":8613:8631   */\n      0x24\n      dup3\n      add\n        /* \"#utility.yul\":8606:8649   */\n      mstore\n        /* \"#utility.yul\":8475:8493   */\n      0x44\n      add\n        /* \"@openzeppelin/contracts/token/ERC1155/ERC1155.sol\":4323:4365  ERC1155MissingApprovalForAll(sender, from) */\n    tag_77:\n      mload(0x40)\n      dup1\n      swap2\n      sub\n      swap1\n      revert\n        /* \"@openzeppelin/contracts/token/ERC1155/ERC1155.sol\":4247:4376  if (from != sender && !isApprovedForAll(from, sender)) {... */\n    tag_76:\n        /* \"@openzeppelin/contracts/token/ERC1155/ERC1155.sol\":4385:4436  _safeBatchTransferFrom(from, to, ids, values, data) */\n      tag_79\n        /* \"@openzeppelin/contracts/token/ERC1155/ERC1155.sol\":4408:4412  from */\n      dup7\n        /* \"@openzeppelin/contracts/token/ERC1155/ERC1155.sol\":4414:4416  to */\n      dup7\n        /* \"@openzeppelin/contracts/token/ERC1155/ERC1155.sol\":4418:4421  ids */\n      dup7\n        /* \"@openzeppelin/contracts/token/ERC1155/ERC1155.sol\":4423:4429  values */\n      dup7\n        /* \"@openzeppelin/contracts/token/ERC1155/ERC1155.sol\":4431:4435  data */\n      dup7\n        /* \"@openzeppelin/contracts/token/ERC1155/ERC1155.sol\":4385:4407  _safeBatchTransferFrom */\n      tag_80\n        /* \"@openzeppelin/contracts/token/ERC1155/ERC1155.sol\":4385:4436  _safeBatchTransferFrom(from, to, ids, values, data) */\n      jump\t// in\n    tag_79:\n        /* \"@openzeppelin/contracts/token/ERC1155/ERC1155.sol\":4198:4443  {... */\n      pop\n        /* \"@openzeppelin/contracts/token/ERC1155/ERC1155.sol\":4014:4443  function safeBatchTransferFrom(... */\n      pop\n      pop\n      pop\n      pop\n      pop\n      jump\t// out\n        /* \"contracts/ContractS/ContractSV3.sol\":416:1730  function batchMint(address to, uint256 quantity) public {... */\n    tag_38:\n        /* \"contracts/ContractS/ContractSV3.sol\":487:495  quantity */\n      dup1\n        /* \"contracts/ContractS/ContractSV3.sol\":499:500  0 */\n      0x00\n        /* \"contracts/ContractS/ContractSV3.sol\":487:500  quantity == 0 */\n      sub\n        /* \"contracts/ContractS/ContractSV3.sol\":483:526  if (quantity == 0) revert InvalidQuantity() */\n      tag_82\n      jumpi\n        /* \"contracts/ContractS/ContractSV3.sol\":509:526  InvalidQuantity() */\n      mload(0x40)\n      0x524f409b00000000000000000000000000000000000000000000000000000000\n      dup2\n      mstore\n      0x04\n      add\n      mload(0x40)\n      dup1\n      swap2\n      sub\n      swap1\n      revert\n        /* \"contracts/ContractS/ContractSV3.sol\":483:526  if (quantity == 0) revert InvalidQuantity() */\n    tag_82:\n        /* \"contracts/ContractS/ContractSV3.sol\":539:559  uint256[] memory ids */\n      0x00\n        /* \"contracts/ContractS/ContractSV3.sol\":576:584  quantity */\n      dup2\n        /* \"contracts/ContractS/ContractSV3.sol\":562:585  new uint256[](quantity) */\n      0xffffffffffffffff\n      dup2\n      gt\n      iszero\n      tag_84\n      jumpi\n      tag_84\n      tag_85\n      jump\t// in\n    tag_84:\n      mload(0x40)\n      swap1\n      dup1\n      dup3\n      mstore\n      dup1\n      0x20\n      mul\n      0x20\n      add\n      dup3\n      add\n      0x40\n      mstore\n      dup1\n      iszero\n      tag_86\n      jumpi\n      dup2\n      0x20\n      add\n      0x20\n      dup3\n      mul\n      dup1\n      calldatasize\n      dup4\n      calldatacopy\n      add\n      swap1\n      pop\n    tag_86:\n      pop\n        /* \"contracts/ContractS/ContractSV3.sol\":539:585  uint256[] memory ids = new uint256[](quantity) */\n      swap1\n      pop\n        /* \"contracts/ContractS/ContractSV3.sol\":596:620  uint256[] memory amounts */\n      0x00\n        /* \"contracts/ContractS/ContractSV3.sol\":637:645  quantity */\n      dup3\n        /* \"contracts/ContractS/ContractSV3.sol\":623:646  new uint256[](quantity) */\n      0xffffffffffffffff\n      dup2\n      gt\n      iszero\n      tag_88\n      jumpi\n      tag_88\n      tag_85\n      jump\t// in\n    tag_88:\n      mload(0x40)\n      swap1\n      dup1\n      dup3\n      mstore\n      dup1\n      0x20\n      mul\n      0x20\n      add\n      dup3\n      add\n      0x40\n      mstore\n      dup1\n      iszero\n      tag_89\n      jumpi\n      dup2\n      0x20\n      add\n      0x20\n      dup3\n      mul\n      dup1\n      calldatasize\n      dup4\n      calldatacopy\n      add\n      swap1\n      pop\n    tag_89:\n      pop\n        /* \"contracts/ContractS/ContractSV3.sol\":709:721  _nextTokenId */\n      sload(0x03)\n        /* \"contracts/ContractS/ContractSV3.sol\":596:646  uint256[] memory amounts = new uint256[](quantity) */\n      swap1\n      swap2\n      pop\n        /* \"contracts/ContractS/ContractSV3.sol\":757:782  currentTokenId + quantity */\n      dup4\n      dup2\n      add\n        /* \"contracts/ContractS/ContractSV3.sol\":904:906  32 */\n      0x20\n        /* \"contracts/ContractS/ContractSV3.sol\":895:907  add(ids, 32) */\n      dup5\n      dup2\n      add\n      swap1\n        /* \"contracts/ContractS/ContractSV3.sol\":1001:1017  add(amounts, 32) */\n      dup5\n      add\n        /* \"contracts/ContractS/ContractSV3.sol\":709:721  _nextTokenId */\n      dup4\n        /* \"contracts/ContractS/ContractSV3.sol\":1037:1560  for { let i := currentTokenId } lt(i, endTokenId) { i := add(i, 1) } {... */\n    tag_90:\n        /* \"contracts/ContractS/ContractSV3.sol\":1075:1085  endTokenId */\n      dup4\n        /* \"contracts/ContractS/ContractSV3.sol\":1072:1073  i */\n      dup2\n        /* \"contracts/ContractS/ContractSV3.sol\":1069:1086  lt(i, endTokenId) */\n      lt\n        /* \"contracts/ContractS/ContractSV3.sol\":1037:1560  for { let i := currentTokenId } lt(i, endTokenId) { i := add(i, 1) } {... */\n      iszero\n      tag_92\n      jumpi\n        /* \"contracts/ContractS/ContractSV3.sol\":1183:1200  mstore(idsPtr, i) */\n      dup1\n      dup4\n      mstore\n        /* \"contracts/ContractS/ContractSV3.sol\":1309:1310  1 */\n      0x01\n        /* \"contracts/ContractS/ContractSV3.sol\":1290:1311  mstore(amountsPtr, 1) */\n      dup1\n      dup4\n      mstore\n        /* \"contracts/ContractS/ContractSV3.sol\":1417:1419  32 */\n      0x20\n        /* \"contracts/ContractS/ContractSV3.sol\":1405:1420  add(idsPtr, 32) */\n      swap4\n      dup5\n      add\n      swap4\n        /* \"contracts/ContractS/ContractSV3.sol\":1522:1541  add(amountsPtr, 32) */\n      swap1\n      swap3\n      add\n      swap2\n        /* \"contracts/ContractS/ContractSV3.sol\":1094:1103  add(i, 1) */\n      add\n        /* \"contracts/ContractS/ContractSV3.sol\":1037:1560  for { let i := currentTokenId } lt(i, endTokenId) { i := add(i, 1) } {... */\n      jump(tag_90)\n    tag_92:\n      pop\n      pop\n      pop\n        /* \"contracts/ContractS/ContractSV3.sol\":1591:1603  _nextTokenId */\n      0x03\n        /* \"contracts/ContractS/ContractSV3.sol\":1591:1616  _nextTokenId = endTokenId */\n      sstore\n      pop\n        /* \"contracts/ContractS/ContractSV3.sol\":1690:1722  _mintBatch(to, ids, amounts, \"\") */\n      0x40\n      dup1\n      mload\n      0x20\n      dup2\n      add\n      swap1\n      swap2\n      mstore\n      0x00\n      dup2\n      mstore\n      tag_93\n      swap1\n        /* \"contracts/ContractS/ContractSV3.sol\":1701:1703  to */\n      dup6\n      swap1\n        /* \"contracts/ContractS/ContractSV3.sol\":1705:1708  ids */\n      dup5\n      swap1\n        /* \"contracts/ContractS/ContractSV3.sol\":1710:1717  amounts */\n      dup5\n      swap1\n        /* \"contracts/ContractS/ContractSV3.sol\":1690:1700  _mintBatch */\n      tag_94\n        /* \"contracts/ContractS/ContractSV3.sol\":1690:1722  _mintBatch(to, ids, amounts, \"\") */\n      jump\t// in\n    tag_93:\n        /* \"contracts/ContractS/ContractSV3.sol\":472:1730  {... */\n      pop\n      pop\n        /* \"contracts/ContractS/ContractSV3.sol\":416:1730  function batchMint(address to, uint256 quantity) public {... */\n      pop\n      pop\n      jump\t// out\n        /* \"@openzeppelin/contracts/token/ERC1155/ERC1155.sol\":2536:3088  function balanceOfBatch(... */\n    tag_42:\n        /* \"@openzeppelin/contracts/token/ERC1155/ERC1155.sol\":2660:2676  uint256[] memory */\n      0x60\n        /* \"@openzeppelin/contracts/token/ERC1155/ERC1155.sol\":2711:2714  ids */\n      dup2\n        /* \"@openzeppelin/contracts/token/ERC1155/ERC1155.sol\":2711:2721  ids.length */\n      mload\n        /* \"@openzeppelin/contracts/token/ERC1155/ERC1155.sol\":2692:2700  accounts */\n      dup4\n        /* \"@openzeppelin/contracts/token/ERC1155/ERC1155.sol\":2692:2707  accounts.length */\n      mload\n        /* \"@openzeppelin/contracts/token/ERC1155/ERC1155.sol\":2692:2721  accounts.length != ids.length */\n      eq\n        /* \"@openzeppelin/contracts/token/ERC1155/ERC1155.sol\":2688:2809  if (accounts.length != ids.length) {... */\n      tag_96\n      jumpi\n        /* \"@openzeppelin/contracts/token/ERC1155/ERC1155.sol\":2770:2780  ids.length */\n      dup2\n      mload\n        /* \"@openzeppelin/contracts/token/ERC1155/ERC1155.sol\":2782:2797  accounts.length */\n      dup4\n      mload\n        /* \"@openzeppelin/contracts/token/ERC1155/ERC1155.sol\":2744:2798  ERC1155InvalidArrayLength(ids.length, accounts.length) */\n      mload(0x40)\n      shl(0xe0, 0x5b059991)\n      dup2\n      mstore\n      0x04\n      dup2\n      add\n        /* \"#utility.yul\":8834:8859   */\n      swap3\n      swap1\n      swap3\n      mstore\n        /* \"#utility.yul\":8875:8893   */\n      0x24\n      dup3\n      add\n        /* \"#utility.yul\":8868:8902   */\n      mstore\n        /* \"#utility.yul\":8807:8825   */\n      0x44\n      add\n        /* \"@openzeppelin/contracts/token/ERC1155/ERC1155.sol\":2744:2798  ERC1155InvalidArrayLength(ids.length, accounts.length) */\n      tag_77\n        /* \"#utility.yul\":8660:8908   */\n      jump\n        /* \"@openzeppelin/contracts/token/ERC1155/ERC1155.sol\":2688:2809  if (accounts.length != ids.length) {... */\n    tag_96:\n        /* \"@openzeppelin/contracts/token/ERC1155/ERC1155.sol\":2819:2849  uint256[] memory batchBalances */\n      0x00\n        /* \"@openzeppelin/contracts/token/ERC1155/ERC1155.sol\":2866:2874  accounts */\n      dup4\n        /* \"@openzeppelin/contracts/token/ERC1155/ERC1155.sol\":2866:2881  accounts.length */\n      mload\n        /* \"@openzeppelin/contracts/token/ERC1155/ERC1155.sol\":2852:2882  new uint256[](accounts.length) */\n      0xffffffffffffffff\n      dup2\n      gt\n      iszero\n      tag_100\n      jumpi\n      tag_100\n      tag_85\n      jump\t// in\n    tag_100:\n      mload(0x40)\n      swap1\n      dup1\n      dup3\n      mstore\n      dup1\n      0x20\n      mul\n      0x20\n      add\n      dup3\n      add\n      0x40\n      mstore\n      dup1\n      iszero\n      tag_101\n      jumpi\n      dup2\n      0x20\n      add\n      0x20\n      dup3\n      mul\n      dup1\n      calldatasize\n      dup4\n      calldatacopy\n      add\n      swap1\n      pop\n    tag_101:\n      pop\n        /* \"@openzeppelin/contracts/token/ERC1155/ERC1155.sol\":2819:2882  uint256[] memory batchBalances = new uint256[](accounts.length) */\n      swap1\n      pop\n        /* \"@openzeppelin/contracts/token/ERC1155/ERC1155.sol\":2898:2907  uint256 i */\n      0x00\n        /* \"@openzeppelin/contracts/token/ERC1155/ERC1155.sol\":2893:3051  for (uint256 i = 0; i < accounts.length; ++i) {... */\n    tag_102:\n        /* \"@openzeppelin/contracts/token/ERC1155/ERC1155.sol\":2917:2925  accounts */\n      dup5\n        /* \"@openzeppelin/contracts/token/ERC1155/ERC1155.sol\":2917:2932  accounts.length */\n      mload\n        /* \"@openzeppelin/contracts/token/ERC1155/ERC1155.sol\":2913:2914  i */\n      dup2\n        /* \"@openzeppelin/contracts/token/ERC1155/ERC1155.sol\":2913:2932  i < accounts.length */\n      lt\n        /* \"@openzeppelin/contracts/token/ERC1155/ERC1155.sol\":2893:3051  for (uint256 i = 0; i < accounts.length; ++i) {... */\n      iszero\n      tag_103\n      jumpi\n        /* \"@openzeppelin/contracts/utils/Arrays.sol\":4777:4781  0x20 */\n      0x20\n        /* \"@openzeppelin/contracts/utils/Arrays.sol\":4768:4782  mul(pos, 0x20) */\n      dup1\n      dup3\n      mul\n        /* \"@openzeppelin/contracts/utils/Arrays.sol\":4748:4783  add(add(arr, 0x20), mul(pos, 0x20)) */\n      dup7\n      add\n      add\n        /* \"@openzeppelin/contracts/utils/Arrays.sol\":4742:4784  mload(add(add(arr, 0x20), mul(pos, 0x20))) */\n      mload\n        /* \"@openzeppelin/contracts/token/ERC1155/ERC1155.sol\":2972:3040  balanceOf(accounts.unsafeMemoryAccess(i), ids.unsafeMemoryAccess(i)) */\n      tag_105\n      swap1\n        /* \"@openzeppelin/contracts/utils/Arrays.sol\":4777:4781  0x20 */\n      0x20\n        /* \"@openzeppelin/contracts/utils/Arrays.sol\":4768:4782  mul(pos, 0x20) */\n      dup1\n      dup5\n      mul\n        /* \"@openzeppelin/contracts/utils/Arrays.sol\":4748:4783  add(add(arr, 0x20), mul(pos, 0x20)) */\n      dup8\n      add\n      add\n        /* \"@openzeppelin/contracts/utils/Arrays.sol\":4742:4784  mload(add(add(arr, 0x20), mul(pos, 0x20))) */\n      mload\n        /* \"@openzeppelin/contracts/token/ERC1155/ERC1155.sol\":2247:2379  function balanceOf(address account, uint256 id) public view virtual returns (uint256) {... */\n      tag_17\n      jump\t// in\n        /* \"@openzeppelin/contracts/token/ERC1155/ERC1155.sol\":2972:3040  balanceOf(accounts.unsafeMemoryAccess(i), ids.unsafeMemoryAccess(i)) */\n    tag_105:\n        /* \"@openzeppelin/contracts/token/ERC1155/ERC1155.sol\":2953:2966  batchBalances */\n      dup3\n        /* \"@openzeppelin/contracts/token/ERC1155/ERC1155.sol\":2967:2968  i */\n      dup3\n        /* \"@openzeppelin/contracts/token/ERC1155/ERC1155.sol\":2953:2969  batchBalances[i] */\n      dup2\n      mload\n      dup2\n      lt\n      tag_111\n      jumpi\n      tag_111\n      tag_112\n      jump\t// in\n    tag_111:\n      0x20\n      swap1\n      dup2\n      mul\n      swap2\n      swap1\n      swap2\n      add\n      add\n        /* \"@openzeppelin/contracts/token/ERC1155/ERC1155.sol\":2953:3040  batchBalances[i] = balanceOf(accounts.unsafeMemoryAccess(i), ids.unsafeMemoryAccess(i)) */\n      mstore\n        /* \"@openzeppelin/contracts/token/ERC1155/ERC1155.sol\":2934:2937  ++i */\n      0x01\n      add\n        /* \"@openzeppelin/contracts/token/ERC1155/ERC1155.sol\":2893:3051  for (uint256 i = 0; i < accounts.length; ++i) {... */\n      jump(tag_102)\n    tag_103:\n      pop\n        /* \"@openzeppelin/contracts/token/ERC1155/ERC1155.sol\":3068:3081  batchBalances */\n      swap4\n        /* \"@openzeppelin/contracts/token/ERC1155/ERC1155.sol\":2536:3088  function balanceOfBatch(... */\n      swap3\n      pop\n      pop\n      pop\n      jump\t// out\n        /* \"@openzeppelin/contracts/token/ERC1155/ERC1155.sol\":3156:3300  function setApprovalForAll(address operator, bool approved) public virtual {... */\n    tag_48:\n        /* \"@openzeppelin/contracts/token/ERC1155/ERC1155.sol\":3241:3293  _setApprovalForAll(_msgSender(), operator, approved) */\n      tag_114\n        /* \"@openzeppelin/contracts/utils/Context.sol\":735:745  msg.sender */\n      caller\n        /* \"@openzeppelin/contracts/token/ERC1155/ERC1155.sol\":3274:3282  operator */\n      dup4\n        /* \"@openzeppelin/contracts/token/ERC1155/ERC1155.sol\":3284:3292  approved */\n      dup4\n        /* \"@openzeppelin/contracts/token/ERC1155/ERC1155.sol\":3241:3259  _setApprovalForAll */\n      tag_116\n        /* \"@openzeppelin/contracts/token/ERC1155/ERC1155.sol\":3241:3293  _setApprovalForAll(_msgSender(), operator, approved) */\n      jump\t// in\n    tag_114:\n        /* \"@openzeppelin/contracts/token/ERC1155/ERC1155.sol\":3156:3300  function setApprovalForAll(address operator, bool approved) public virtual {... */\n      pop\n      pop\n      jump\t// out\n        /* \"@openzeppelin/contracts/token/ERC1155/ERC1155.sol\":3591:3942  function safeTransferFrom(address from, address to, uint256 id, uint256 value, bytes memory data) public virtual {... */\n    tag_57:\n        /* \"@openzeppelin/contracts/utils/Context.sol\":735:745  msg.sender */\n      caller\n      sub(shl(0xa0, 0x01), 0x01)\n        /* \"@openzeppelin/contracts/token/ERC1155/ERC1155.sol\":3757:3771  from != sender */\n      dup7\n      and\n      dup2\n      eq\n      dup1\n      iszero\n      swap1\n        /* \"@openzeppelin/contracts/token/ERC1155/ERC1155.sol\":3757:3806  from != sender && !isApprovedForAll(from, sender) */\n      tag_120\n      jumpi\n      pop\n      sub(shl(0xa0, 0x01), 0x01)\n        /* \"@openzeppelin/contracts/token/ERC1155/ERC1155.sol\":3480:3507  _operatorApprovals[account] */\n      dup1\n      dup8\n      and\n        /* \"@openzeppelin/contracts/token/ERC1155/ERC1155.sol\":3457:3461  bool */\n      0x00\n        /* \"@openzeppelin/contracts/token/ERC1155/ERC1155.sol\":3480:3507  _operatorApprovals[account] */\n      swap1\n      dup2\n      mstore\n        /* \"@openzeppelin/contracts/token/ERC1155/ERC1155.sol\":3480:3498  _operatorApprovals */\n      0x01\n        /* \"@openzeppelin/contracts/token/ERC1155/ERC1155.sol\":3480:3507  _operatorApprovals[account] */\n      0x20\n      swap1\n      dup2\n      mstore\n      0x40\n      dup1\n      dup4\n      keccak256\n        /* \"@openzeppelin/contracts/token/ERC1155/ERC1155.sol\":3480:3517  _operatorApprovals[account][operator] */\n      swap4\n      dup6\n      and\n      dup4\n      mstore\n      swap3\n      swap1\n      mstore\n      keccak256\n      sload\n      0xff\n      and\n        /* \"@openzeppelin/contracts/token/ERC1155/ERC1155.sol\":3775:3806  !isApprovedForAll(from, sender) */\n      iszero\n        /* \"@openzeppelin/contracts/token/ERC1155/ERC1155.sol\":3757:3806  from != sender && !isApprovedForAll(from, sender) */\n    tag_120:\n        /* \"@openzeppelin/contracts/token/ERC1155/ERC1155.sol\":3753:3882  if (from != sender && !isApprovedForAll(from, sender)) {... */\n      iszero\n      tag_122\n      jumpi\n        /* \"@openzeppelin/contracts/token/ERC1155/ERC1155.sol\":3829:3871  ERC1155MissingApprovalForAll(sender, from) */\n      mload(0x40)\n      shl(0xe1, 0x711bec91)\n      dup2\n      mstore\n      sub(shl(0xa0, 0x01), 0x01)\n        /* \"#utility.yul\":8581:8596   */\n      dup1\n      dup4\n      and\n        /* \"@openzeppelin/contracts/token/ERC1155/ERC1155.sol\":3829:3871  ERC1155MissingApprovalForAll(sender, from) */\n      0x04\n      dup4\n      add\n        /* \"#utility.yul\":8563:8597   */\n      mstore\n        /* \"#utility.yul\":8633:8648   */\n      dup8\n      and\n        /* \"#utility.yul\":8613:8631   */\n      0x24\n      dup3\n      add\n        /* \"#utility.yul\":8606:8649   */\n      mstore\n        /* \"#utility.yul\":8475:8493   */\n      0x44\n      add\n        /* \"@openzeppelin/contracts/token/ERC1155/ERC1155.sol\":3829:3871  ERC1155MissingApprovalForAll(sender, from) */\n      tag_77\n        /* \"#utility.yul\":8328:8655   */\n      jump\n        /* \"@openzeppelin/contracts/token/ERC1155/ERC1155.sol\":3753:3882  if (from != sender && !isApprovedForAll(from, sender)) {... */\n    tag_122:\n        /* \"@openzeppelin/contracts/token/ERC1155/ERC1155.sol\":3891:3935  _safeTransferFrom(from, to, id, value, data) */\n      tag_79\n        /* \"@openzeppelin/contracts/token/ERC1155/ERC1155.sol\":3909:3913  from */\n      dup7\n        /* \"@openzeppelin/contracts/token/ERC1155/ERC1155.sol\":3915:3917  to */\n      dup7\n        /* \"@openzeppelin/contracts/token/ERC1155/ERC1155.sol\":3919:3921  id */\n      dup7\n        /* \"@openzeppelin/contracts/token/ERC1155/ERC1155.sol\":3923:3928  value */\n      dup7\n        /* \"@openzeppelin/contracts/token/ERC1155/ERC1155.sol\":3930:3934  data */\n      dup7\n        /* \"@openzeppelin/contracts/token/ERC1155/ERC1155.sol\":3891:3908  _safeTransferFrom */\n      tag_125\n        /* \"@openzeppelin/contracts/token/ERC1155/ERC1155.sol\":3891:3935  _safeTransferFrom(from, to, id, value, data) */\n      jump\t// in\n        /* \"@openzeppelin/contracts/token/ERC1155/ERC1155.sol\":9015:9460  function _safeBatchTransferFrom(... */\n    tag_80:\n      sub(shl(0xa0, 0x01), 0x01)\n        /* \"@openzeppelin/contracts/token/ERC1155/ERC1155.sol\":9208:9224  to == address(0) */\n      dup5\n      and\n        /* \"@openzeppelin/contracts/token/ERC1155/ERC1155.sol\":9204:9292  if (to == address(0)) {... */\n      tag_129\n      jumpi\n        /* \"@openzeppelin/contracts/token/ERC1155/ERC1155.sol\":9247:9281  ERC1155InvalidReceiver(address(0)) */\n      mload(0x40)\n      shl(0xe1, 0x2bfa23e7)\n      dup2\n      mstore\n        /* \"@openzeppelin/contracts/token/ERC1155/ERC1155.sol\":9278:9279  0 */\n      0x00\n        /* \"@openzeppelin/contracts/token/ERC1155/ERC1155.sol\":9247:9281  ERC1155InvalidReceiver(address(0)) */\n      0x04\n      dup3\n      add\n        /* \"#utility.yul\":9248:9322   */\n      mstore\n        /* \"#utility.yul\":9221:9239   */\n      0x24\n      add\n        /* \"@openzeppelin/contracts/token/ERC1155/ERC1155.sol\":9247:9281  ERC1155InvalidReceiver(address(0)) */\n      tag_77\n        /* \"#utility.yul\":9102:9328   */\n      jump\n        /* \"@openzeppelin/contracts/token/ERC1155/ERC1155.sol\":9204:9292  if (to == address(0)) {... */\n    tag_129:\n      sub(shl(0xa0, 0x01), 0x01)\n        /* \"@openzeppelin/contracts/token/ERC1155/ERC1155.sol\":9305:9323  from == address(0) */\n      dup6\n      and\n        /* \"@openzeppelin/contracts/token/ERC1155/ERC1155.sol\":9301:9389  if (from == address(0)) {... */\n      tag_132\n      jumpi\n        /* \"@openzeppelin/contracts/token/ERC1155/ERC1155.sol\":9346:9378  ERC1155InvalidSender(address(0)) */\n      mload(0x40)\n      shl(0xe2, 0x6a0d45)\n      dup2\n      mstore\n        /* \"@openzeppelin/contracts/token/ERC1155/ERC1155.sol\":9375:9376  0 */\n      0x00\n        /* \"@openzeppelin/contracts/token/ERC1155/ERC1155.sol\":9346:9378  ERC1155InvalidSender(address(0)) */\n      0x04\n      dup3\n      add\n        /* \"#utility.yul\":9248:9322   */\n      mstore\n        /* \"#utility.yul\":9221:9239   */\n      0x24\n      add\n        /* \"@openzeppelin/contracts/token/ERC1155/ERC1155.sol\":9346:9378  ERC1155InvalidSender(address(0)) */\n      tag_77\n        /* \"#utility.yul\":9102:9328   */\n      jump\n        /* \"@openzeppelin/contracts/token/ERC1155/ERC1155.sol\":9301:9389  if (from == address(0)) {... */\n    tag_132:\n        /* \"@openzeppelin/contracts/token/ERC1155/ERC1155.sol\":9398:9453  _updateWithAcceptanceCheck(from, to, ids, values, data) */\n      tag_134\n        /* \"@openzeppelin/contracts/token/ERC1155/ERC1155.sol\":9425:9429  from */\n      dup6\n        /* \"@openzeppelin/contracts/token/ERC1155/ERC1155.sol\":9431:9433  to */\n      dup6\n        /* \"@openzeppelin/contracts/token/ERC1155/ERC1155.sol\":9435:9438  ids */\n      dup6\n        /* \"@openzeppelin/contracts/token/ERC1155/ERC1155.sol\":9440:9446  values */\n      dup6\n        /* \"@openzeppelin/contracts/token/ERC1155/ERC1155.sol\":9448:9452  data */\n      dup6\n        /* \"@openzeppelin/contracts/token/ERC1155/ERC1155.sol\":9398:9424  _updateWithAcceptanceCheck */\n      tag_135\n        /* \"@openzeppelin/contracts/token/ERC1155/ERC1155.sol\":9398:9453  _updateWithAcceptanceCheck(from, to, ids, values, data) */\n      jump\t// in\n    tag_134:\n        /* \"@openzeppelin/contracts/token/ERC1155/ERC1155.sol\":9015:9460  function _safeBatchTransferFrom(... */\n      pop\n      pop\n      pop\n      pop\n      pop\n      jump\t// out\n        /* \"@openzeppelin/contracts/token/ERC1155/ERC1155.sol\":11523:11805  function _mintBatch(address to, uint256[] memory ids, uint256[] memory values, bytes memory data) internal {... */\n    tag_94:\n      sub(shl(0xa0, 0x01), 0x01)\n        /* \"@openzeppelin/contracts/token/ERC1155/ERC1155.sol\":11644:11660  to == address(0) */\n      dup5\n      and\n        /* \"@openzeppelin/contracts/token/ERC1155/ERC1155.sol\":11640:11728  if (to == address(0)) {... */\n      tag_137\n      jumpi\n        /* \"@openzeppelin/contracts/token/ERC1155/ERC1155.sol\":11683:11717  ERC1155InvalidReceiver(address(0)) */\n      mload(0x40)\n      shl(0xe1, 0x2bfa23e7)\n      dup2\n      mstore\n        /* \"@openzeppelin/contracts/token/ERC1155/ERC1155.sol\":11714:11715  0 */\n      0x00\n        /* \"@openzeppelin/contracts/token/ERC1155/ERC1155.sol\":11683:11717  ERC1155InvalidReceiver(address(0)) */\n      0x04\n      dup3\n      add\n        /* \"#utility.yul\":9248:9322   */\n      mstore\n        /* \"#utility.yul\":9221:9239   */\n      0x24\n      add\n        /* \"@openzeppelin/contracts/token/ERC1155/ERC1155.sol\":11683:11717  ERC1155InvalidReceiver(address(0)) */\n      tag_77\n        /* \"#utility.yul\":9102:9328   */\n      jump\n        /* \"@openzeppelin/contracts/token/ERC1155/ERC1155.sol\":11640:11728  if (to == address(0)) {... */\n    tag_137:\n        /* \"@openzeppelin/contracts/token/ERC1155/ERC1155.sol\":11737:11798  _updateWithAcceptanceCheck(address(0), to, ids, values, data) */\n      tag_93\n        /* \"@openzeppelin/contracts/token/ERC1155/ERC1155.sol\":11772:11773  0 */\n      0x00\n        /* \"@openzeppelin/contracts/token/ERC1155/ERC1155.sol\":11776:11778  to */\n      dup6\n        /* \"@openzeppelin/contracts/token/ERC1155/ERC1155.sol\":11780:11783  ids */\n      dup6\n        /* \"@openzeppelin/contracts/token/ERC1155/ERC1155.sol\":11785:11791  values */\n      dup6\n        /* \"@openzeppelin/contracts/token/ERC1155/ERC1155.sol\":11793:11797  data */\n      dup6\n        /* \"@openzeppelin/contracts/token/ERC1155/ERC1155.sol\":11737:11763  _updateWithAcceptanceCheck */\n      tag_135\n        /* \"@openzeppelin/contracts/token/ERC1155/ERC1155.sol\":11737:11798  _updateWithAcceptanceCheck(address(0), to, ids, values, data) */\n      jump\t// in\n        /* \"@openzeppelin/contracts/token/ERC1155/ERC1155.sol\":13268:13583  function _setApprovalForAll(address owner, address operator, bool approved) internal virtual {... */\n    tag_116:\n      sub(shl(0xa0, 0x01), 0x01)\n        /* \"@openzeppelin/contracts/token/ERC1155/ERC1155.sol\":13375:13397  operator == address(0) */\n      dup3\n      and\n        /* \"@openzeppelin/contracts/token/ERC1155/ERC1155.sol\":13371:13465  if (operator == address(0)) {... */\n      tag_143\n      jumpi\n        /* \"@openzeppelin/contracts/token/ERC1155/ERC1155.sol\":13420:13454  ERC1155InvalidOperator(address(0)) */\n      mload(0x40)\n      0xced3e10000000000000000000000000000000000000000000000000000000000\n      dup2\n      mstore\n        /* \"@openzeppelin/contracts/token/ERC1155/ERC1155.sol\":13451:13452  0 */\n      0x00\n        /* \"@openzeppelin/contracts/token/ERC1155/ERC1155.sol\":13420:13454  ERC1155InvalidOperator(address(0)) */\n      0x04\n      dup3\n      add\n        /* \"#utility.yul\":9248:9322   */\n      mstore\n        /* \"#utility.yul\":9221:9239   */\n      0x24\n      add\n        /* \"@openzeppelin/contracts/token/ERC1155/ERC1155.sol\":13420:13454  ERC1155InvalidOperator(address(0)) */\n      tag_77\n        /* \"#utility.yul\":9102:9328   */\n      jump\n        /* \"@openzeppelin/contracts/token/ERC1155/ERC1155.sol\":13371:13465  if (operator == address(0)) {... */\n    tag_143:\n      sub(shl(0xa0, 0x01), 0x01)\n        /* \"@openzeppelin/contracts/token/ERC1155/ERC1155.sol\":13474:13499  _operatorApprovals[owner] */\n      dup4\n      dup2\n      and\n      0x00\n      dup2\n      dup2\n      mstore\n        /* \"@openzeppelin/contracts/token/ERC1155/ERC1155.sol\":13474:13492  _operatorApprovals */\n      0x01\n        /* \"@openzeppelin/contracts/token/ERC1155/ERC1155.sol\":13474:13499  _operatorApprovals[owner] */\n      0x20\n      swap1\n      dup2\n      mstore\n      0x40\n      dup1\n      dup4\n      keccak256\n        /* \"@openzeppelin/contracts/token/ERC1155/ERC1155.sol\":13474:13509  _operatorApprovals[owner][operator] */\n      swap5\n      dup8\n      and\n      dup1\n      dup5\n      mstore\n      swap5\n      dup3\n      mstore\n      swap2\n      dup3\n      swap1\n      keccak256\n        /* \"@openzeppelin/contracts/token/ERC1155/ERC1155.sol\":13474:13520  _operatorApprovals[owner][operator] = approved */\n      dup1\n      sload\n      not(0xff)\n      and\n      dup7\n      iszero\n      iszero\n      swap1\n      dup2\n      or\n      swap1\n      swap2\n      sstore\n        /* \"@openzeppelin/contracts/token/ERC1155/ERC1155.sol\":13535:13576  ApprovalForAll(owner, operator, approved) */\n      swap2\n      mload\n        /* \"#utility.yul\":1228:1269   */\n      swap2\n      dup3\n      mstore\n        /* \"@openzeppelin/contracts/token/ERC1155/ERC1155.sol\":13535:13576  ApprovalForAll(owner, operator, approved) */\n      0x17307eab39ab6107e8899845ad3d59bd9653f200f220920489ca2b5937696c31\n      swap2\n        /* \"#utility.yul\":1201:1219   */\n      add\n        /* \"@openzeppelin/contracts/token/ERC1155/ERC1155.sol\":13535:13576  ApprovalForAll(owner, operator, approved) */\n      mload(0x40)\n      dup1\n      swap2\n      sub\n      swap1\n      log3\n        /* \"@openzeppelin/contracts/token/ERC1155/ERC1155.sol\":13268:13583  function _setApprovalForAll(address owner, address operator, bool approved) internal virtual {... */\n      pop\n      pop\n      pop\n      jump\t// out\n        /* \"@openzeppelin/contracts/token/ERC1155/ERC1155.sol\":8151:8614  function _safeTransferFrom(address from, address to, uint256 id, uint256 value, bytes memory data) internal {... */\n    tag_125:\n      sub(shl(0xa0, 0x01), 0x01)\n        /* \"@openzeppelin/contracts/token/ERC1155/ERC1155.sol\":8273:8289  to == address(0) */\n      dup5\n      and\n        /* \"@openzeppelin/contracts/token/ERC1155/ERC1155.sol\":8269:8357  if (to == address(0)) {... */\n      tag_147\n      jumpi\n        /* \"@openzeppelin/contracts/token/ERC1155/ERC1155.sol\":8312:8346  ERC1155InvalidReceiver(address(0)) */\n      mload(0x40)\n      shl(0xe1, 0x2bfa23e7)\n      dup2\n      mstore\n        /* \"@openzeppelin/contracts/token/ERC1155/ERC1155.sol\":8343:8344  0 */\n      0x00\n        /* \"@openzeppelin/contracts/token/ERC1155/ERC1155.sol\":8312:8346  ERC1155InvalidReceiver(address(0)) */\n      0x04\n      dup3\n      add\n        /* \"#utility.yul\":9248:9322   */\n      mstore\n        /* \"#utility.yul\":9221:9239   */\n      0x24\n      add\n        /* \"@openzeppelin/contracts/token/ERC1155/ERC1155.sol\":8312:8346  ERC1155InvalidReceiver(address(0)) */\n      tag_77\n        /* \"#utility.yul\":9102:9328   */\n      jump\n        /* \"@openzeppelin/contracts/token/ERC1155/ERC1155.sol\":8269:8357  if (to == address(0)) {... */\n    tag_147:\n      sub(shl(0xa0, 0x01), 0x01)\n        /* \"@openzeppelin/contracts/token/ERC1155/ERC1155.sol\":8370:8388  from == address(0) */\n      dup6\n      and\n        /* \"@openzeppelin/contracts/token/ERC1155/ERC1155.sol\":8366:8454  if (from == address(0)) {... */\n      tag_149\n      jumpi\n        /* \"@openzeppelin/contracts/token/ERC1155/ERC1155.sol\":8411:8443  ERC1155InvalidSender(address(0)) */\n      mload(0x40)\n      shl(0xe2, 0x6a0d45)\n      dup2\n      mstore\n        /* \"@openzeppelin/contracts/token/ERC1155/ERC1155.sol\":8440:8441  0 */\n      0x00\n        /* \"@openzeppelin/contracts/token/ERC1155/ERC1155.sol\":8411:8443  ERC1155InvalidSender(address(0)) */\n      0x04\n      dup3\n      add\n        /* \"#utility.yul\":9248:9322   */\n      mstore\n        /* \"#utility.yul\":9221:9239   */\n      0x24\n      add\n        /* \"@openzeppelin/contracts/token/ERC1155/ERC1155.sol\":8411:8443  ERC1155InvalidSender(address(0)) */\n      tag_77\n        /* \"#utility.yul\":9102:9328   */\n      jump\n        /* \"@openzeppelin/contracts/token/ERC1155/ERC1155.sol\":8366:8454  if (from == address(0)) {... */\n    tag_149:\n        /* \"@openzeppelin/contracts/token/ERC1155/ERC1155.sol\":16374:16378  0x40 */\n      0x40\n        /* \"@openzeppelin/contracts/token/ERC1155/ERC1155.sol\":16368:16379  mload(0x40) */\n      dup1\n      mload\n        /* \"@openzeppelin/contracts/token/ERC1155/ERC1155.sol\":16444:16445  1 */\n      0x01\n        /* \"@openzeppelin/contracts/token/ERC1155/ERC1155.sol\":16429:16446  mstore(array1, 1) */\n      dup1\n      dup3\n      mstore\n        /* \"@openzeppelin/contracts/token/ERC1155/ERC1155.sol\":16575:16579  0x20 */\n      0x20\n        /* \"@openzeppelin/contracts/token/ERC1155/ERC1155.sol\":16563:16580  add(array1, 0x20) */\n      dup3\n      add\n        /* \"@openzeppelin/contracts/token/ERC1155/ERC1155.sol\":16556:16591  mstore(add(array1, 0x20), element1) */\n      dup7\n      swap1\n      mstore\n        /* \"@openzeppelin/contracts/token/ERC1155/ERC1155.sol\":16692:16709  add(array1, 0x40) */\n      dup2\n      dup4\n      add\n        /* \"@openzeppelin/contracts/token/ERC1155/ERC1155.sol\":16722:16739  mstore(array2, 1) */\n      swap1\n      dup2\n      mstore\n        /* \"@openzeppelin/contracts/token/ERC1155/ERC1155.sol\":16188:16211  uint256[] memory array1 */\n      0x60\n        /* \"@openzeppelin/contracts/token/ERC1155/ERC1155.sol\":16759:16776  add(array2, 0x20) */\n      dup3\n      add\n        /* \"@openzeppelin/contracts/token/ERC1155/ERC1155.sol\":16752:16787  mstore(add(array2, 0x20), element2) */\n      dup6\n      swap1\n      mstore\n        /* \"@openzeppelin/contracts/token/ERC1155/ERC1155.sol\":16895:16912  add(array2, 0x40) */\n      0x80\n      dup3\n      add\n        /* \"@openzeppelin/contracts/token/ERC1155/ERC1155.sol\":16882:16913  mstore(0x40, add(array2, 0x40)) */\n      swap1\n      swap3\n      mstore\n        /* \"@openzeppelin/contracts/token/ERC1155/ERC1155.sol\":16368:16379  mload(0x40) */\n      swap1\n        /* \"@openzeppelin/contracts/token/ERC1155/ERC1155.sol\":8552:8607  _updateWithAcceptanceCheck(from, to, ids, values, data) */\n      tag_153\n        /* \"@openzeppelin/contracts/token/ERC1155/ERC1155.sol\":8579:8583  from */\n      dup8\n        /* \"@openzeppelin/contracts/token/ERC1155/ERC1155.sol\":8585:8587  to */\n      dup8\n        /* \"@openzeppelin/contracts/token/ERC1155/ERC1155.sol\":16368:16379  mload(0x40) */\n      dup5\n        /* \"@openzeppelin/contracts/token/ERC1155/ERC1155.sol\":16692:16709  add(array1, 0x40) */\n      dup5\n        /* \"@openzeppelin/contracts/token/ERC1155/ERC1155.sol\":8602:8606  data */\n      dup8\n        /* \"@openzeppelin/contracts/token/ERC1155/ERC1155.sol\":8552:8578  _updateWithAcceptanceCheck */\n      tag_135\n        /* \"@openzeppelin/contracts/token/ERC1155/ERC1155.sol\":8552:8607  _updateWithAcceptanceCheck(from, to, ids, values, data) */\n      jump\t// in\n    tag_153:\n        /* \"@openzeppelin/contracts/token/ERC1155/ERC1155.sol\":8259:8614  {... */\n      pop\n      pop\n        /* \"@openzeppelin/contracts/token/ERC1155/ERC1155.sol\":8151:8614  function _safeTransferFrom(address from, address to, uint256 id, uint256 value, bytes memory data) internal {... */\n      pop\n      pop\n      pop\n      pop\n      pop\n      jump\t// out\n        /* \"@openzeppelin/contracts/token/ERC1155/ERC1155.sol\":7004:7694  function _updateWithAcceptanceCheck(... */\n    tag_135:\n        /* \"@openzeppelin/contracts/token/ERC1155/ERC1155.sol\":7205:7235  _update(from, to, ids, values) */\n      tag_155\n        /* \"@openzeppelin/contracts/token/ERC1155/ERC1155.sol\":7213:7217  from */\n      dup6\n        /* \"@openzeppelin/contracts/token/ERC1155/ERC1155.sol\":7219:7221  to */\n      dup6\n        /* \"@openzeppelin/contracts/token/ERC1155/ERC1155.sol\":7223:7226  ids */\n      dup6\n        /* \"@openzeppelin/contracts/token/ERC1155/ERC1155.sol\":7228:7234  values */\n      dup6\n        /* \"@openzeppelin/contracts/token/ERC1155/ERC1155.sol\":7205:7212  _update */\n      tag_156\n        /* \"@openzeppelin/contracts/token/ERC1155/ERC1155.sol\":7205:7235  _update(from, to, ids, values) */\n      jump\t// in\n    tag_155:\n      sub(shl(0xa0, 0x01), 0x01)\n        /* \"@openzeppelin/contracts/token/ERC1155/ERC1155.sol\":7249:7265  to != address(0) */\n      dup5\n      and\n      iszero\n        /* \"@openzeppelin/contracts/token/ERC1155/ERC1155.sol\":7245:7688  if (to != address(0)) {... */\n      tag_134\n      jumpi\n        /* \"@openzeppelin/contracts/token/ERC1155/ERC1155.sol\":7330:7340  ids.length */\n      dup3\n      mload\n        /* \"@openzeppelin/contracts/utils/Context.sol\":735:745  msg.sender */\n      caller\n      swap1\n        /* \"@openzeppelin/contracts/token/ERC1155/ERC1155.sol\":7344:7345  1 */\n      0x01\n        /* \"@openzeppelin/contracts/token/ERC1155/ERC1155.sol\":7330:7345  ids.length == 1 */\n      sub\n        /* \"@openzeppelin/contracts/token/ERC1155/ERC1155.sol\":7326:7678  if (ids.length == 1) {... */\n      tag_159\n      jumpi\n        /* \"@openzeppelin/contracts/utils/Arrays.sol\":4777:4781  0x20 */\n      0x20\n        /* \"@openzeppelin/contracts/utils/Arrays.sol\":4748:4783  add(add(arr, 0x20), mul(pos, 0x20)) */\n      dup5\n      dup2\n      add\n        /* \"@openzeppelin/contracts/utils/Arrays.sol\":4742:4784  mload(add(add(arr, 0x20), mul(pos, 0x20))) */\n      mload\n        /* \"@openzeppelin/contracts/utils/Arrays.sol\":4748:4783  add(add(arr, 0x20), mul(pos, 0x20)) */\n      swap1\n      dup5\n      add\n        /* \"@openzeppelin/contracts/utils/Arrays.sol\":4742:4784  mload(add(add(arr, 0x20), mul(pos, 0x20))) */\n      mload\n        /* \"@openzeppelin/contracts/token/ERC1155/ERC1155.sol\":7483:7550  _doSafeTransferAcceptanceCheck(operator, from, to, id, value, data) */\n      tag_162\n        /* \"@openzeppelin/contracts/token/ERC1155/ERC1155.sol\":7514:7522  operator */\n      dup4\n        /* \"@openzeppelin/contracts/token/ERC1155/ERC1155.sol\":7524:7528  from */\n      dup10\n        /* \"@openzeppelin/contracts/token/ERC1155/ERC1155.sol\":7530:7532  to */\n      dup10\n        /* \"@openzeppelin/contracts/utils/Arrays.sol\":4742:4784  mload(add(add(arr, 0x20), mul(pos, 0x20))) */\n      dup6\n      dup6\n        /* \"@openzeppelin/contracts/token/ERC1155/ERC1155.sol\":7545:7549  data */\n      dup10\n        /* \"@openzeppelin/contracts/token/ERC1155/ERC1155.sol\":7483:7513  _doSafeTransferAcceptanceCheck */\n      tag_163\n        /* \"@openzeppelin/contracts/token/ERC1155/ERC1155.sol\":7483:7550  _doSafeTransferAcceptanceCheck(operator, from, to, id, value, data) */\n      jump\t// in\n    tag_162:\n        /* \"@openzeppelin/contracts/token/ERC1155/ERC1155.sol\":7347:7565  {... */\n      pop\n      pop\n        /* \"@openzeppelin/contracts/token/ERC1155/ERC1155.sol\":7326:7678  if (ids.length == 1) {... */\n      jump(tag_79)\n    tag_159:\n        /* \"@openzeppelin/contracts/token/ERC1155/ERC1155.sol\":7589:7663  _doSafeBatchTransferAcceptanceCheck(operator, from, to, ids, values, data) */\n      tag_79\n        /* \"@openzeppelin/contracts/token/ERC1155/ERC1155.sol\":7625:7633  operator */\n      dup2\n        /* \"@openzeppelin/contracts/token/ERC1155/ERC1155.sol\":7635:7639  from */\n      dup8\n        /* \"@openzeppelin/contracts/token/ERC1155/ERC1155.sol\":7641:7643  to */\n      dup8\n        /* \"@openzeppelin/contracts/token/ERC1155/ERC1155.sol\":7645:7648  ids */\n      dup8\n        /* \"@openzeppelin/contracts/token/ERC1155/ERC1155.sol\":7650:7656  values */\n      dup8\n        /* \"@openzeppelin/contracts/token/ERC1155/ERC1155.sol\":7658:7662  data */\n      dup8\n        /* \"@openzeppelin/contracts/token/ERC1155/ERC1155.sol\":7589:7624  _doSafeBatchTransferAcceptanceCheck */\n      tag_166\n        /* \"@openzeppelin/contracts/token/ERC1155/ERC1155.sol\":7589:7663  _doSafeBatchTransferAcceptanceCheck(operator, from, to, ids, values, data) */\n      jump\t// in\n        /* \"@openzeppelin/contracts/token/ERC1155/ERC1155.sol\":5144:6425  function _update(address from, address to, uint256[] memory ids, uint256[] memory values) internal virtual {... */\n    tag_156:\n        /* \"@openzeppelin/contracts/token/ERC1155/ERC1155.sol\":5279:5285  values */\n      dup1\n        /* \"@openzeppelin/contracts/token/ERC1155/ERC1155.sol\":5279:5292  values.length */\n      mload\n        /* \"@openzeppelin/contracts/token/ERC1155/ERC1155.sol\":5265:5268  ids */\n      dup3\n        /* \"@openzeppelin/contracts/token/ERC1155/ERC1155.sol\":5265:5275  ids.length */\n      mload\n        /* \"@openzeppelin/contracts/token/ERC1155/ERC1155.sol\":5265:5292  ids.length != values.length */\n      eq\n        /* \"@openzeppelin/contracts/token/ERC1155/ERC1155.sol\":5261:5378  if (ids.length != values.length) {... */\n      tag_169\n      jumpi\n        /* \"@openzeppelin/contracts/token/ERC1155/ERC1155.sol\":5341:5351  ids.length */\n      dup2\n      mload\n        /* \"@openzeppelin/contracts/token/ERC1155/ERC1155.sol\":5353:5366  values.length */\n      dup2\n      mload\n        /* \"@openzeppelin/contracts/token/ERC1155/ERC1155.sol\":5315:5367  ERC1155InvalidArrayLength(ids.length, values.length) */\n      mload(0x40)\n      shl(0xe0, 0x5b059991)\n      dup2\n      mstore\n      0x04\n      dup2\n      add\n        /* \"#utility.yul\":8834:8859   */\n      swap3\n      swap1\n      swap3\n      mstore\n        /* \"#utility.yul\":8875:8893   */\n      0x24\n      dup3\n      add\n        /* \"#utility.yul\":8868:8902   */\n      mstore\n        /* \"#utility.yul\":8807:8825   */\n      0x44\n      add\n        /* \"@openzeppelin/contracts/token/ERC1155/ERC1155.sol\":5315:5367  ERC1155InvalidArrayLength(ids.length, values.length) */\n      tag_77\n        /* \"#utility.yul\":8660:8908   */\n      jump\n        /* \"@openzeppelin/contracts/token/ERC1155/ERC1155.sol\":5261:5378  if (ids.length != values.length) {... */\n    tag_169:\n        /* \"@openzeppelin/contracts/utils/Context.sol\":735:745  msg.sender */\n      caller\n        /* \"@openzeppelin/contracts/token/ERC1155/ERC1155.sol\":5388:5404  address operator */\n      0x00\n        /* \"@openzeppelin/contracts/token/ERC1155/ERC1155.sol\":5430:6121  for (uint256 i = 0; i < ids.length; ++i) {... */\n    tag_172:\n        /* \"@openzeppelin/contracts/token/ERC1155/ERC1155.sol\":5454:5457  ids */\n      dup4\n        /* \"@openzeppelin/contracts/token/ERC1155/ERC1155.sol\":5454:5464  ids.length */\n      mload\n        /* \"@openzeppelin/contracts/token/ERC1155/ERC1155.sol\":5450:5451  i */\n      dup2\n        /* \"@openzeppelin/contracts/token/ERC1155/ERC1155.sol\":5450:5464  i < ids.length */\n      lt\n        /* \"@openzeppelin/contracts/token/ERC1155/ERC1155.sol\":5430:6121  for (uint256 i = 0; i < ids.length; ++i) {... */\n      iszero\n      tag_173\n      jumpi\n        /* \"@openzeppelin/contracts/utils/Arrays.sol\":4777:4781  0x20 */\n      0x20\n        /* \"@openzeppelin/contracts/utils/Arrays.sol\":4768:4782  mul(pos, 0x20) */\n      dup2\n      dup2\n      mul\n        /* \"@openzeppelin/contracts/utils/Arrays.sol\":4748:4783  add(add(arr, 0x20), mul(pos, 0x20)) */\n      dup6\n      dup2\n      add\n      dup3\n      add\n        /* \"@openzeppelin/contracts/utils/Arrays.sol\":4742:4784  mload(add(add(arr, 0x20), mul(pos, 0x20))) */\n      mload\n        /* \"@openzeppelin/contracts/utils/Arrays.sol\":4748:4783  add(add(arr, 0x20), mul(pos, 0x20)) */\n      swap1\n      dup6\n      add\n      swap1\n      swap2\n      add\n        /* \"@openzeppelin/contracts/utils/Arrays.sol\":4742:4784  mload(add(add(arr, 0x20), mul(pos, 0x20))) */\n      mload\n      sub(shl(0xa0, 0x01), 0x01)\n        /* \"@openzeppelin/contracts/token/ERC1155/ERC1155.sol\":5600:5618  from != address(0) */\n      dup9\n      and\n      iszero\n        /* \"@openzeppelin/contracts/token/ERC1155/ERC1155.sol\":5596:6016  if (from != address(0)) {... */\n      tag_177\n      jumpi\n        /* \"@openzeppelin/contracts/token/ERC1155/ERC1155.sol\":5638:5657  uint256 fromBalance */\n      0x00\n        /* \"@openzeppelin/contracts/token/ERC1155/ERC1155.sol\":5660:5673  _balances[id] */\n      dup3\n      dup2\n      mstore\n      0x20\n      dup2\n      dup2\n      mstore\n      0x40\n      dup1\n      dup4\n      keccak256\n      sub(shl(0xa0, 0x01), 0x01)\n        /* \"@openzeppelin/contracts/token/ERC1155/ERC1155.sol\":5660:5679  _balances[id][from] */\n      dup13\n      and\n      dup5\n      mstore\n      swap1\n      swap2\n      mstore\n      swap1\n      keccak256\n      sload\n        /* \"@openzeppelin/contracts/token/ERC1155/ERC1155.sol\":5701:5720  fromBalance < value */\n      dup2\n      dup2\n      lt\n        /* \"@openzeppelin/contracts/token/ERC1155/ERC1155.sol\":5697:5826  if (fromBalance < value) {... */\n      iszero\n      tag_178\n      jumpi\n        /* \"@openzeppelin/contracts/token/ERC1155/ERC1155.sol\":5751:5807  ERC1155InsufficientBalance(from, fromBalance, value, id) */\n      mload(0x40)\n      0x03dee4c500000000000000000000000000000000000000000000000000000000\n      dup2\n      mstore\n      sub(shl(0xa0, 0x01), 0x01)\n        /* \"#utility.yul\":9582:9637   */\n      dup11\n      and\n        /* \"@openzeppelin/contracts/token/ERC1155/ERC1155.sol\":5751:5807  ERC1155InsufficientBalance(from, fromBalance, value, id) */\n      0x04\n      dup3\n      add\n        /* \"#utility.yul\":9564:9638   */\n      mstore\n        /* \"#utility.yul\":9654:9672   */\n      0x24\n      dup2\n      add\n        /* \"#utility.yul\":9647:9681   */\n      dup3\n      swap1\n      mstore\n        /* \"#utility.yul\":9697:9715   */\n      0x44\n      dup2\n      add\n        /* \"#utility.yul\":9690:9724   */\n      dup4\n      swap1\n      mstore\n        /* \"#utility.yul\":9740:9758   */\n      0x64\n      dup2\n      add\n        /* \"#utility.yul\":9733:9767   */\n      dup5\n      swap1\n      mstore\n        /* \"#utility.yul\":9536:9555   */\n      0x84\n      add\n        /* \"@openzeppelin/contracts/token/ERC1155/ERC1155.sol\":5751:5807  ERC1155InsufficientBalance(from, fromBalance, value, id) */\n      tag_77\n        /* \"#utility.yul\":9333:9773   */\n      jump\n        /* \"@openzeppelin/contracts/token/ERC1155/ERC1155.sol\":5697:5826  if (fromBalance < value) {... */\n    tag_178:\n        /* \"@openzeppelin/contracts/token/ERC1155/ERC1155.sol\":5942:5951  _balances */\n      0x00\n        /* \"@openzeppelin/contracts/token/ERC1155/ERC1155.sol\":5942:5955  _balances[id] */\n      dup4\n      dup2\n      mstore\n      0x20\n      dup2\n      dup2\n      mstore\n      0x40\n      dup1\n      dup4\n      keccak256\n      sub(shl(0xa0, 0x01), 0x01)\n        /* \"@openzeppelin/contracts/token/ERC1155/ERC1155.sol\":5942:5961  _balances[id][from] */\n      dup14\n      and\n      dup5\n      mstore\n      swap1\n      swap2\n      mstore\n      swap1\n      keccak256\n        /* \"@openzeppelin/contracts/token/ERC1155/ERC1155.sol\":5964:5983  fromBalance - value */\n      swap1\n      dup3\n      swap1\n      sub\n        /* \"@openzeppelin/contracts/token/ERC1155/ERC1155.sol\":5942:5983  _balances[id][from] = fromBalance - value */\n      swap1\n      sstore\n        /* \"@openzeppelin/contracts/token/ERC1155/ERC1155.sol\":5596:6016  if (from != address(0)) {... */\n    tag_177:\n      sub(shl(0xa0, 0x01), 0x01)\n        /* \"@openzeppelin/contracts/token/ERC1155/ERC1155.sol\":6034:6050  to != address(0) */\n      dup8\n      and\n      iszero\n        /* \"@openzeppelin/contracts/token/ERC1155/ERC1155.sol\":6030:6111  if (to != address(0)) {... */\n      tag_181\n      jumpi\n        /* \"@openzeppelin/contracts/token/ERC1155/ERC1155.sol\":6070:6079  _balances */\n      0x00\n        /* \"@openzeppelin/contracts/token/ERC1155/ERC1155.sol\":6070:6083  _balances[id] */\n      dup3\n      dup2\n      mstore\n      0x20\n      dup2\n      dup2\n      mstore\n      0x40\n      dup1\n      dup4\n      keccak256\n      sub(shl(0xa0, 0x01), 0x01)\n        /* \"@openzeppelin/contracts/token/ERC1155/ERC1155.sol\":6070:6087  _balances[id][to] */\n      dup12\n      and\n      dup5\n      mstore\n      swap1\n      swap2\n      mstore\n      dup2\n      keccak256\n        /* \"@openzeppelin/contracts/token/ERC1155/ERC1155.sol\":6070:6096  _balances[id][to] += value */\n      dup1\n      sload\n        /* \"@openzeppelin/contracts/token/ERC1155/ERC1155.sol\":6091:6096  value */\n      dup4\n      swap3\n        /* \"@openzeppelin/contracts/token/ERC1155/ERC1155.sol\":6070:6079  _balances */\n      swap1\n        /* \"@openzeppelin/contracts/token/ERC1155/ERC1155.sol\":6070:6096  _balances[id][to] += value */\n      tag_182\n      swap1\n        /* \"@openzeppelin/contracts/token/ERC1155/ERC1155.sol\":6091:6096  value */\n      dup5\n      swap1\n        /* \"@openzeppelin/contracts/token/ERC1155/ERC1155.sol\":6070:6096  _balances[id][to] += value */\n      tag_183\n      jump\t// in\n    tag_182:\n      swap1\n      swap2\n      sstore\n      pop\n      pop\n        /* \"@openzeppelin/contracts/token/ERC1155/ERC1155.sol\":6030:6111  if (to != address(0)) {... */\n    tag_181:\n      pop\n      pop\n        /* \"@openzeppelin/contracts/token/ERC1155/ERC1155.sol\":5466:5469  ++i */\n      0x01\n      add\n        /* \"@openzeppelin/contracts/token/ERC1155/ERC1155.sol\":5430:6121  for (uint256 i = 0; i < ids.length; ++i) {... */\n      jump(tag_172)\n    tag_173:\n      pop\n        /* \"@openzeppelin/contracts/token/ERC1155/ERC1155.sol\":6135:6138  ids */\n      dup3\n        /* \"@openzeppelin/contracts/token/ERC1155/ERC1155.sol\":6135:6145  ids.length */\n      mload\n        /* \"@openzeppelin/contracts/token/ERC1155/ERC1155.sol\":6149:6150  1 */\n      0x01\n        /* \"@openzeppelin/contracts/token/ERC1155/ERC1155.sol\":6135:6150  ids.length == 1 */\n      sub\n        /* \"@openzeppelin/contracts/token/ERC1155/ERC1155.sol\":6131:6419  if (ids.length == 1) {... */\n      tag_184\n      jumpi\n        /* \"@openzeppelin/contracts/utils/Arrays.sol\":4777:4781  0x20 */\n      0x20\n        /* \"@openzeppelin/contracts/utils/Arrays.sol\":4748:4783  add(add(arr, 0x20), mul(pos, 0x20)) */\n      dup4\n      add\n        /* \"@openzeppelin/contracts/utils/Arrays.sol\":4742:4784  mload(add(add(arr, 0x20), mul(pos, 0x20))) */\n      mload\n        /* \"@openzeppelin/contracts/token/ERC1155/ERC1155.sol\":6166:6176  uint256 id */\n      0x00\n      swap1\n        /* \"@openzeppelin/contracts/utils/Arrays.sol\":4777:4781  0x20 */\n      0x20\n        /* \"@openzeppelin/contracts/utils/Arrays.sol\":4748:4783  add(add(arr, 0x20), mul(pos, 0x20)) */\n      dup5\n      add\n        /* \"@openzeppelin/contracts/utils/Arrays.sol\":4742:4784  mload(add(add(arr, 0x20), mul(pos, 0x20))) */\n      mload\n        /* \"@openzeppelin/contracts/token/ERC1155/ERC1155.sol\":6166:6204  uint256 id = ids.unsafeMemoryAccess(0) */\n      swap1\n      swap2\n      pop\n        /* \"@openzeppelin/contracts/token/ERC1155/ERC1155.sol\":6312:6314  to */\n      dup6\n      sub(shl(0xa0, 0x01), 0x01)\n        /* \"@openzeppelin/contracts/token/ERC1155/ERC1155.sol\":6281:6326  TransferSingle(operator, from, to, id, value) */\n      and\n        /* \"@openzeppelin/contracts/token/ERC1155/ERC1155.sol\":6306:6310  from */\n      dup8\n      sub(shl(0xa0, 0x01), 0x01)\n        /* \"@openzeppelin/contracts/token/ERC1155/ERC1155.sol\":6281:6326  TransferSingle(operator, from, to, id, value) */\n      and\n        /* \"@openzeppelin/contracts/token/ERC1155/ERC1155.sol\":6296:6304  operator */\n      dup5\n      sub(shl(0xa0, 0x01), 0x01)\n        /* \"@openzeppelin/contracts/token/ERC1155/ERC1155.sol\":6281:6326  TransferSingle(operator, from, to, id, value) */\n      and\n      0xc3d58168c5ae7397731d063d5bbf3d657854427343f4c083240f7aacaa2d0f62\n        /* \"@openzeppelin/contracts/token/ERC1155/ERC1155.sol\":6316:6318  id */\n      dup6\n        /* \"@openzeppelin/contracts/token/ERC1155/ERC1155.sol\":6320:6325  value */\n      dup6\n        /* \"@openzeppelin/contracts/token/ERC1155/ERC1155.sol\":6281:6326  TransferSingle(operator, from, to, id, value) */\n      mload(0x40)\n      tag_187\n      swap3\n      swap2\n      swap1\n        /* \"#utility.yul\":8834:8859   */\n      swap2\n      dup3\n      mstore\n        /* \"#utility.yul\":8890:8892   */\n      0x20\n        /* \"#utility.yul\":8875:8893   */\n      dup3\n      add\n        /* \"#utility.yul\":8868:8902   */\n      mstore\n        /* \"#utility.yul\":8822:8824   */\n      0x40\n        /* \"#utility.yul\":8807:8825   */\n      add\n      swap1\n        /* \"#utility.yul\":8660:8908   */\n      jump\n        /* \"@openzeppelin/contracts/token/ERC1155/ERC1155.sol\":6281:6326  TransferSingle(operator, from, to, id, value) */\n    tag_187:\n      mload(0x40)\n      dup1\n      swap2\n      sub\n      swap1\n      log4\n        /* \"@openzeppelin/contracts/token/ERC1155/ERC1155.sol\":6152:6337  {... */\n      pop\n      pop\n        /* \"@openzeppelin/contracts/token/ERC1155/ERC1155.sol\":6131:6419  if (ids.length == 1) {... */\n      jump(tag_134)\n    tag_184:\n        /* \"@openzeppelin/contracts/token/ERC1155/ERC1155.sol\":6392:6394  to */\n      dup4\n      sub(shl(0xa0, 0x01), 0x01)\n        /* \"@openzeppelin/contracts/token/ERC1155/ERC1155.sol\":6362:6408  TransferBatch(operator, from, to, ids, values) */\n      and\n        /* \"@openzeppelin/contracts/token/ERC1155/ERC1155.sol\":6386:6390  from */\n      dup6\n      sub(shl(0xa0, 0x01), 0x01)\n        /* \"@openzeppelin/contracts/token/ERC1155/ERC1155.sol\":6362:6408  TransferBatch(operator, from, to, ids, values) */\n      and\n        /* \"@openzeppelin/contracts/token/ERC1155/ERC1155.sol\":6376:6384  operator */\n      dup3\n      sub(shl(0xa0, 0x01), 0x01)\n        /* \"@openzeppelin/contracts/token/ERC1155/ERC1155.sol\":6362:6408  TransferBatch(operator, from, to, ids, values) */\n      and\n      0x4a39dc06d4c0dbc64b70af90fd698a233a518aa5d07e595d983b8c0526c8f7fb\n        /* \"@openzeppelin/contracts/token/ERC1155/ERC1155.sol\":6396:6399  ids */\n      dup7\n        /* \"@openzeppelin/contracts/token/ERC1155/ERC1155.sol\":6401:6407  values */\n      dup7\n        /* \"@openzeppelin/contracts/token/ERC1155/ERC1155.sol\":6362:6408  TransferBatch(operator, from, to, ids, values) */\n      mload(0x40)\n      tag_189\n      swap3\n      swap2\n      swap1\n      tag_190\n      jump\t// in\n    tag_189:\n      mload(0x40)\n      dup1\n      swap2\n      sub\n      swap1\n      log4\n        /* \"@openzeppelin/contracts/token/ERC1155/ERC1155.sol\":5251:6425  {... */\n      pop\n        /* \"@openzeppelin/contracts/token/ERC1155/ERC1155.sol\":5144:6425  function _update(address from, address to, uint256[] memory ids, uint256[] memory values) internal virtual {... */\n      pop\n      pop\n      pop\n      pop\n      jump\t// out\n        /* \"@openzeppelin/contracts/token/ERC1155/ERC1155.sol\":13761:14735  function _doSafeTransferAcceptanceCheck(... */\n    tag_163:\n      sub(shl(0xa0, 0x01), 0x01)\n        /* \"@openzeppelin/contracts/token/ERC1155/ERC1155.sol\":13967:13981  to.code.length */\n      dup5\n      and\n      extcodesize\n        /* \"@openzeppelin/contracts/token/ERC1155/ERC1155.sol\":13967:13985  to.code.length > 0 */\n      iszero\n        /* \"@openzeppelin/contracts/token/ERC1155/ERC1155.sol\":13963:14729  if (to.code.length > 0) {... */\n      tag_79\n      jumpi\n        /* \"@openzeppelin/contracts/token/ERC1155/ERC1155.sol\":14005:14076  IERC1155Receiver(to).onERC1155Received(operator, from, id, value, data) */\n      mload(0x40)\n      shl(0xe0, 0xf23a6e61)\n      dup2\n      mstore\n      sub(shl(0xa0, 0x01), 0x01)\n        /* \"@openzeppelin/contracts/token/ERC1155/ERC1155.sol\":14005:14043  IERC1155Receiver(to).onERC1155Received */\n      dup6\n      and\n      swap1\n      0xf23a6e61\n      swap1\n        /* \"@openzeppelin/contracts/token/ERC1155/ERC1155.sol\":14005:14076  IERC1155Receiver(to).onERC1155Received(operator, from, id, value, data) */\n      tag_193\n      swap1\n        /* \"@openzeppelin/contracts/token/ERC1155/ERC1155.sol\":14044:14052  operator */\n      dup10\n      swap1\n        /* \"@openzeppelin/contracts/token/ERC1155/ERC1155.sol\":14054:14058  from */\n      dup10\n      swap1\n        /* \"@openzeppelin/contracts/token/ERC1155/ERC1155.sol\":14060:14062  id */\n      dup9\n      swap1\n        /* \"@openzeppelin/contracts/token/ERC1155/ERC1155.sol\":14064:14069  value */\n      dup9\n      swap1\n        /* \"@openzeppelin/contracts/token/ERC1155/ERC1155.sol\":14071:14075  data */\n      dup9\n      swap1\n        /* \"@openzeppelin/contracts/token/ERC1155/ERC1155.sol\":14005:14076  IERC1155Receiver(to).onERC1155Received(operator, from, id, value, data) */\n      0x04\n      add\n      tag_194\n      jump\t// in\n    tag_193:\n      0x20\n      mload(0x40)\n      dup1\n      dup4\n      sub\n      dup2\n      0x00\n      dup8\n      gas\n      call\n      swap3\n      pop\n      pop\n      pop\n      dup1\n      iszero\n      tag_195\n      jumpi\n      pop\n      0x40\n      dup1\n      mload\n      0x1f\n      returndatasize\n      swap1\n      dup2\n      add\n      not(0x1f)\n      and\n      dup3\n      add\n      swap1\n      swap3\n      mstore\n      tag_196\n      swap2\n      dup2\n      add\n      swap1\n      tag_197\n      jump\t// in\n    tag_196:\n      0x01\n    tag_195:\n        /* \"@openzeppelin/contracts/token/ERC1155/ERC1155.sol\":14001:14719  try IERC1155Receiver(to).onERC1155Received(operator, from, id, value, data) returns (bytes4 response) {... */\n      tag_198\n      jumpi\n      returndatasize\n      dup1\n      dup1\n      iszero\n      tag_203\n      jumpi\n      mload(0x40)\n      swap2\n      pop\n      and(add(returndatasize, 0x3f), not(0x1f))\n      dup3\n      add\n      0x40\n      mstore\n      returndatasize\n      dup3\n      mstore\n      returndatasize\n      0x00\n      0x20\n      dup5\n      add\n      returndatacopy\n      jump(tag_202)\n    tag_203:\n      0x60\n      swap2\n      pop\n    tag_202:\n      pop\n        /* \"@openzeppelin/contracts/token/ERC1155/ERC1155.sol\":14360:14366  reason */\n      dup1\n        /* \"@openzeppelin/contracts/token/ERC1155/ERC1155.sol\":14360:14373  reason.length */\n      mload\n        /* \"@openzeppelin/contracts/token/ERC1155/ERC1155.sol\":14377:14378  0 */\n      0x00\n        /* \"@openzeppelin/contracts/token/ERC1155/ERC1155.sol\":14360:14378  reason.length == 0 */\n      sub\n        /* \"@openzeppelin/contracts/token/ERC1155/ERC1155.sol\":14356:14705  if (reason.length == 0) {... */\n      tag_204\n      jumpi\n        /* \"@openzeppelin/contracts/token/ERC1155/ERC1155.sol\":14464:14490  ERC1155InvalidReceiver(to) */\n      mload(0x40)\n      shl(0xe1, 0x2bfa23e7)\n      dup2\n      mstore\n      sub(shl(0xa0, 0x01), 0x01)\n        /* \"#utility.yul\":9266:9321   */\n      dup7\n      and\n        /* \"@openzeppelin/contracts/token/ERC1155/ERC1155.sol\":14464:14490  ERC1155InvalidReceiver(to) */\n      0x04\n      dup3\n      add\n        /* \"#utility.yul\":9248:9322   */\n      mstore\n        /* \"#utility.yul\":9221:9239   */\n      0x24\n      add\n        /* \"@openzeppelin/contracts/token/ERC1155/ERC1155.sol\":14464:14490  ERC1155InvalidReceiver(to) */\n      tag_77\n        /* \"#utility.yul\":9102:9328   */\n      jump\n        /* \"@openzeppelin/contracts/token/ERC1155/ERC1155.sol\":14356:14705  if (reason.length == 0) {... */\n    tag_204:\n        /* \"@openzeppelin/contracts/token/ERC1155/ERC1155.sol\":14657:14663  reason */\n      dup1\n        /* \"@openzeppelin/contracts/token/ERC1155/ERC1155.sol\":14651:14664  mload(reason) */\n      mload\n        /* \"@openzeppelin/contracts/token/ERC1155/ERC1155.sol\":14642:14648  reason */\n      dup2\n        /* \"@openzeppelin/contracts/token/ERC1155/ERC1155.sol\":14638:14640  32 */\n      0x20\n        /* \"@openzeppelin/contracts/token/ERC1155/ERC1155.sol\":14634:14649  add(32, reason) */\n      add\n        /* \"@openzeppelin/contracts/token/ERC1155/ERC1155.sol\":14627:14665  revert(add(32, reason), mload(reason)) */\n      revert\n        /* \"@openzeppelin/contracts/token/ERC1155/ERC1155.sol\":14001:14719  try IERC1155Receiver(to).onERC1155Received(operator, from, id, value, data) returns (bytes4 response) {... */\n    tag_198:\n      not(sub(shl(0xe0, 0x01), 0x01))\n        /* \"@openzeppelin/contracts/token/ERC1155/ERC1155.sol\":14125:14180  response != IERC1155Receiver.onERC1155Received.selector */\n      dup2\n      and\n      shl(0xe0, 0xf23a6e61)\n      eq\n        /* \"@openzeppelin/contracts/token/ERC1155/ERC1155.sol\":14121:14295  if (response != IERC1155Receiver.onERC1155Received.selector) {... */\n      tag_153\n      jumpi\n        /* \"@openzeppelin/contracts/token/ERC1155/ERC1155.sol\":14250:14276  ERC1155InvalidReceiver(to) */\n      mload(0x40)\n      shl(0xe1, 0x2bfa23e7)\n      dup2\n      mstore\n      sub(shl(0xa0, 0x01), 0x01)\n        /* \"#utility.yul\":9266:9321   */\n      dup7\n      and\n        /* \"@openzeppelin/contracts/token/ERC1155/ERC1155.sol\":14250:14276  ERC1155InvalidReceiver(to) */\n      0x04\n      dup3\n      add\n        /* \"#utility.yul\":9248:9322   */\n      mstore\n        /* \"#utility.yul\":9221:9239   */\n      0x24\n      add\n        /* \"@openzeppelin/contracts/token/ERC1155/ERC1155.sol\":14250:14276  ERC1155InvalidReceiver(to) */\n      tag_77\n        /* \"#utility.yul\":9102:9328   */\n      jump\n        /* \"@openzeppelin/contracts/token/ERC1155/ERC1155.sol\":14923:15964  function _doSafeBatchTransferAcceptanceCheck(... */\n    tag_166:\n      sub(shl(0xa0, 0x01), 0x01)\n        /* \"@openzeppelin/contracts/token/ERC1155/ERC1155.sol\":15154:15168  to.code.length */\n      dup5\n      and\n      extcodesize\n        /* \"@openzeppelin/contracts/token/ERC1155/ERC1155.sol\":15154:15172  to.code.length > 0 */\n      iszero\n        /* \"@openzeppelin/contracts/token/ERC1155/ERC1155.sol\":15150:15958  if (to.code.length > 0) {... */\n      tag_79\n      jumpi\n        /* \"@openzeppelin/contracts/token/ERC1155/ERC1155.sol\":15192:15270  IERC1155Receiver(to).onERC1155BatchReceived(operator, from, ids, values, data) */\n      mload(0x40)\n      shl(0xe0, 0xbc197c81)\n      dup2\n      mstore\n      sub(shl(0xa0, 0x01), 0x01)\n        /* \"@openzeppelin/contracts/token/ERC1155/ERC1155.sol\":15192:15235  IERC1155Receiver(to).onERC1155BatchReceived */\n      dup6\n      and\n      swap1\n      0xbc197c81\n      swap1\n        /* \"@openzeppelin/contracts/token/ERC1155/ERC1155.sol\":15192:15270  IERC1155Receiver(to).onERC1155BatchReceived(operator, from, ids, values, data) */\n      tag_212\n      swap1\n        /* \"@openzeppelin/contracts/token/ERC1155/ERC1155.sol\":15236:15244  operator */\n      dup10\n      swap1\n        /* \"@openzeppelin/contracts/token/ERC1155/ERC1155.sol\":15246:15250  from */\n      dup10\n      swap1\n        /* \"@openzeppelin/contracts/token/ERC1155/ERC1155.sol\":15252:15255  ids */\n      dup9\n      swap1\n        /* \"@openzeppelin/contracts/token/ERC1155/ERC1155.sol\":15257:15263  values */\n      dup9\n      swap1\n        /* \"@openzeppelin/contracts/token/ERC1155/ERC1155.sol\":15265:15269  data */\n      dup9\n      swap1\n        /* \"@openzeppelin/contracts/token/ERC1155/ERC1155.sol\":15192:15270  IERC1155Receiver(to).onERC1155BatchReceived(operator, from, ids, values, data) */\n      0x04\n      add\n      tag_213\n      jump\t// in\n    tag_212:\n      0x20\n      mload(0x40)\n      dup1\n      dup4\n      sub\n      dup2\n      0x00\n      dup8\n      gas\n      call\n      swap3\n      pop\n      pop\n      pop\n      dup1\n      iszero\n      tag_214\n      jumpi\n      pop\n      0x40\n      dup1\n      mload\n      0x1f\n      returndatasize\n      swap1\n      dup2\n      add\n      not(0x1f)\n      and\n      dup3\n      add\n      swap1\n      swap3\n      mstore\n      tag_215\n      swap2\n      dup2\n      add\n      swap1\n      tag_197\n      jump\t// in\n    tag_215:\n      0x01\n    tag_214:\n        /* \"@openzeppelin/contracts/token/ERC1155/ERC1155.sol\":15188:15948  try IERC1155Receiver(to).onERC1155BatchReceived(operator, from, ids, values, data) returns (... */\n      tag_216\n      jumpi\n      returndatasize\n      dup1\n      dup1\n      iszero\n      tag_203\n      jumpi\n      mload(0x40)\n      swap2\n      pop\n      and(add(returndatasize, 0x3f), not(0x1f))\n      dup3\n      add\n      0x40\n      mstore\n      returndatasize\n      dup3\n      mstore\n      returndatasize\n      0x00\n      0x20\n      dup5\n      add\n      returndatacopy\n      jump(tag_202)\n    tag_216:\n      not(sub(shl(0xe0, 0x01), 0x01))\n        /* \"@openzeppelin/contracts/token/ERC1155/ERC1155.sol\":15349:15409  response != IERC1155Receiver.onERC1155BatchReceived.selector */\n      dup2\n      and\n      shl(0xe0, 0xbc197c81)\n      eq\n        /* \"@openzeppelin/contracts/token/ERC1155/ERC1155.sol\":15345:15524  if (response != IERC1155Receiver.onERC1155BatchReceived.selector) {... */\n      tag_153\n      jumpi\n        /* \"@openzeppelin/contracts/token/ERC1155/ERC1155.sol\":15479:15505  ERC1155InvalidReceiver(to) */\n      mload(0x40)\n      shl(0xe1, 0x2bfa23e7)\n      dup2\n      mstore\n      sub(shl(0xa0, 0x01), 0x01)\n        /* \"#utility.yul\":9266:9321   */\n      dup7\n      and\n        /* \"@openzeppelin/contracts/token/ERC1155/ERC1155.sol\":15479:15505  ERC1155InvalidReceiver(to) */\n      0x04\n      dup3\n      add\n        /* \"#utility.yul\":9248:9322   */\n      mstore\n        /* \"#utility.yul\":9221:9239   */\n      0x24\n      add\n        /* \"@openzeppelin/contracts/token/ERC1155/ERC1155.sol\":15479:15505  ERC1155InvalidReceiver(to) */\n      tag_77\n        /* \"#utility.yul\":9102:9328   */\n      jump\n        /* \"#utility.yul\":14:210   */\n    tag_228:\n        /* \"#utility.yul\":82:102   */\n      dup1\n      calldataload\n      sub(shl(0xa0, 0x01), 0x01)\n        /* \"#utility.yul\":131:185   */\n      dup2\n      and\n        /* \"#utility.yul\":121:186   */\n      dup2\n      eq\n        /* \"#utility.yul\":111:204   */\n      tag_238\n      jumpi\n        /* \"#utility.yul\":200:201   */\n      0x00\n        /* \"#utility.yul\":197:198   */\n      dup1\n        /* \"#utility.yul\":190:202   */\n      revert\n        /* \"#utility.yul\":111:204   */\n    tag_238:\n        /* \"#utility.yul\":14:210   */\n      swap2\n      swap1\n      pop\n      jump\t// out\n        /* \"#utility.yul\":215:469   */\n    tag_16:\n        /* \"#utility.yul\":283:289   */\n      0x00\n        /* \"#utility.yul\":291:297   */\n      dup1\n        /* \"#utility.yul\":344:346   */\n      0x40\n        /* \"#utility.yul\":332:341   */\n      dup4\n        /* \"#utility.yul\":323:330   */\n      dup6\n        /* \"#utility.yul\":319:342   */\n      sub\n        /* \"#utility.yul\":315:347   */\n      slt\n        /* \"#utility.yul\":312:364   */\n      iszero\n      tag_240\n      jumpi\n        /* \"#utility.yul\":360:361   */\n      0x00\n        /* \"#utility.yul\":357:358   */\n      dup1\n        /* \"#utility.yul\":350:362   */\n      revert\n        /* \"#utility.yul\":312:364   */\n    tag_240:\n        /* \"#utility.yul\":383:412   */\n      tag_241\n        /* \"#utility.yul\":402:411   */\n      dup4\n        /* \"#utility.yul\":383:412   */\n      tag_228\n      jump\t// in\n    tag_241:\n        /* \"#utility.yul\":373:412   */\n      swap5\n        /* \"#utility.yul\":459:461   */\n      0x20\n        /* \"#utility.yul\":444:462   */\n      swap4\n      swap1\n      swap4\n      add\n        /* \"#utility.yul\":431:463   */\n      calldataload\n      swap4\n      pop\n      pop\n      pop\n        /* \"#utility.yul\":215:469   */\n      jump\t// out\n        /* \"#utility.yul\":656:833   */\n    tag_229:\n      not(sub(shl(0xe0, 0x01), 0x01))\n        /* \"#utility.yul\":734:739   */\n      dup2\n        /* \"#utility.yul\":730:808   */\n      and\n        /* \"#utility.yul\":723:728   */\n      dup2\n        /* \"#utility.yul\":720:809   */\n      eq\n        /* \"#utility.yul\":710:827   */\n      tag_244\n      jumpi\n        /* \"#utility.yul\":823:824   */\n      0x00\n        /* \"#utility.yul\":820:821   */\n      dup1\n        /* \"#utility.yul\":813:825   */\n      revert\n        /* \"#utility.yul\":710:827   */\n    tag_244:\n        /* \"#utility.yul\":656:833   */\n      pop\n      jump\t// out\n        /* \"#utility.yul\":838:1083   */\n    tag_22:\n        /* \"#utility.yul\":896:902   */\n      0x00\n        /* \"#utility.yul\":949:951   */\n      0x20\n        /* \"#utility.yul\":937:946   */\n      dup3\n        /* \"#utility.yul\":928:935   */\n      dup5\n        /* \"#utility.yul\":924:947   */\n      sub\n        /* \"#utility.yul\":920:952   */\n      slt\n        /* \"#utility.yul\":917:969   */\n      iszero\n      tag_246\n      jumpi\n        /* \"#utility.yul\":965:966   */\n      0x00\n        /* \"#utility.yul\":962:963   */\n      dup1\n        /* \"#utility.yul\":955:967   */\n      revert\n        /* \"#utility.yul\":917:969   */\n    tag_246:\n        /* \"#utility.yul\":1004:1013   */\n      dup2\n        /* \"#utility.yul\":991:1014   */\n      calldataload\n        /* \"#utility.yul\":1023:1053   */\n      tag_247\n        /* \"#utility.yul\":1047:1052   */\n      dup2\n        /* \"#utility.yul\":1023:1053   */\n      tag_229\n      jump\t// in\n    tag_247:\n        /* \"#utility.yul\":1072:1077   */\n      swap4\n        /* \"#utility.yul\":838:1083   */\n      swap3\n      pop\n      pop\n      pop\n      jump\t// out\n        /* \"#utility.yul\":1280:1460   */\n    tag_28:\n        /* \"#utility.yul\":1339:1345   */\n      0x00\n        /* \"#utility.yul\":1392:1394   */\n      0x20\n        /* \"#utility.yul\":1380:1389   */\n      dup3\n        /* \"#utility.yul\":1371:1378   */\n      dup5\n        /* \"#utility.yul\":1367:1390   */\n      sub\n        /* \"#utility.yul\":1363:1395   */\n      slt\n        /* \"#utility.yul\":1360:1412   */\n      iszero\n      tag_250\n      jumpi\n        /* \"#utility.yul\":1408:1409   */\n      0x00\n        /* \"#utility.yul\":1405:1406   */\n      dup1\n        /* \"#utility.yul\":1398:1410   */\n      revert\n        /* \"#utility.yul\":1360:1412   */\n    tag_250:\n      pop\n        /* \"#utility.yul\":1431:1454   */\n      calldataload\n      swap2\n        /* \"#utility.yul\":1280:1460   */\n      swap1\n      pop\n      jump\t// out\n        /* \"#utility.yul\":1465:1754   */\n    tag_230:\n        /* \"#utility.yul\":1507:1510   */\n      0x00\n        /* \"#utility.yul\":1545:1550   */\n      dup2\n        /* \"#utility.yul\":1539:1551   */\n      mload\n        /* \"#utility.yul\":1572:1578   */\n      dup1\n        /* \"#utility.yul\":1567:1570   */\n      dup5\n        /* \"#utility.yul\":1560:1579   */\n      mstore\n        /* \"#utility.yul\":1628:1634   */\n      dup1\n        /* \"#utility.yul\":1621:1625   */\n      0x20\n        /* \"#utility.yul\":1614:1619   */\n      dup5\n        /* \"#utility.yul\":1610:1626   */\n      add\n        /* \"#utility.yul\":1603:1607   */\n      0x20\n        /* \"#utility.yul\":1598:1601   */\n      dup7\n        /* \"#utility.yul\":1594:1608   */\n      add\n        /* \"#utility.yul\":1588:1635   */\n      mcopy\n        /* \"#utility.yul\":1680:1681   */\n      0x00\n        /* \"#utility.yul\":1673:1677   */\n      0x20\n        /* \"#utility.yul\":1664:1670   */\n      dup3\n        /* \"#utility.yul\":1659:1662   */\n      dup7\n        /* \"#utility.yul\":1655:1671   */\n      add\n        /* \"#utility.yul\":1651:1678   */\n      add\n        /* \"#utility.yul\":1644:1682   */\n      mstore\n        /* \"#utility.yul\":1743:1747   */\n      0x20\n        /* \"#utility.yul\":1736:1738   */\n      0x1f\n        /* \"#utility.yul\":1732:1739   */\n      not\n        /* \"#utility.yul\":1727:1729   */\n      0x1f\n        /* \"#utility.yul\":1719:1725   */\n      dup4\n        /* \"#utility.yul\":1715:1730   */\n      add\n        /* \"#utility.yul\":1711:1740   */\n      and\n        /* \"#utility.yul\":1706:1709   */\n      dup6\n        /* \"#utility.yul\":1702:1741   */\n      add\n        /* \"#utility.yul\":1698:1748   */\n      add\n        /* \"#utility.yul\":1691:1748   */\n      swap2\n      pop\n      pop\n        /* \"#utility.yul\":1465:1754   */\n      swap3\n      swap2\n      pop\n      pop\n      jump\t// out\n        /* \"#utility.yul\":1759:1979   */\n    tag_31:\n        /* \"#utility.yul\":1908:1910   */\n      0x20\n        /* \"#utility.yul\":1897:1906   */\n      dup2\n        /* \"#utility.yul\":1890:1911   */\n      mstore\n        /* \"#utility.yul\":1871:1875   */\n      0x00\n        /* \"#utility.yul\":1928:1973   */\n      tag_247\n        /* \"#utility.yul\":1969:1971   */\n      0x20\n        /* \"#utility.yul\":1958:1967   */\n      dup4\n        /* \"#utility.yul\":1954:1972   */\n      add\n        /* \"#utility.yul\":1946:1952   */\n      dup5\n        /* \"#utility.yul\":1928:1973   */\n      tag_230\n      jump\t// in\n        /* \"#utility.yul\":1984:2168   */\n    tag_85:\n      shl(0xe0, 0x4e487b71)\n        /* \"#utility.yul\":2033:2034   */\n      0x00\n        /* \"#utility.yul\":2026:2114   */\n      mstore\n        /* \"#utility.yul\":2133:2137   */\n      0x41\n        /* \"#utility.yul\":2130:2131   */\n      0x04\n        /* \"#utility.yul\":2123:2138   */\n      mstore\n        /* \"#utility.yul\":2157:2161   */\n      0x24\n        /* \"#utility.yul\":2154:2155   */\n      0x00\n        /* \"#utility.yul\":2147:2162   */\n      revert\n        /* \"#utility.yul\":2173:2448   */\n    tag_231:\n        /* \"#utility.yul\":2244:2246   */\n      0x40\n        /* \"#utility.yul\":2238:2247   */\n      mload\n        /* \"#utility.yul\":2309:2311   */\n      0x1f\n        /* \"#utility.yul\":2290:2303   */\n      dup3\n      add\n      not(0x1f)\n        /* \"#utility.yul\":2286:2313   */\n      and\n        /* \"#utility.yul\":2274:2314   */\n      dup2\n      add\n        /* \"#utility.yul\":2344:2362   */\n      0xffffffffffffffff\n        /* \"#utility.yul\":2329:2363   */\n      dup2\n      gt\n        /* \"#utility.yul\":2365:2387   */\n      dup3\n      dup3\n      lt\n        /* \"#utility.yul\":2326:2388   */\n      or\n        /* \"#utility.yul\":2323:2411   */\n      iszero\n      tag_257\n      jumpi\n        /* \"#utility.yul\":2391:2409   */\n      tag_257\n      tag_85\n      jump\t// in\n    tag_257:\n        /* \"#utility.yul\":2427:2429   */\n      0x40\n        /* \"#utility.yul\":2420:2442   */\n      mstore\n        /* \"#utility.yul\":2173:2448   */\n      swap2\n      swap1\n      pop\n      jump\t// out\n        /* \"#utility.yul\":2453:2636   */\n    tag_232:\n        /* \"#utility.yul\":2513:2517   */\n      0x00\n        /* \"#utility.yul\":2546:2564   */\n      0xffffffffffffffff\n        /* \"#utility.yul\":2538:2544   */\n      dup3\n        /* \"#utility.yul\":2535:2565   */\n      gt\n        /* \"#utility.yul\":2532:2588   */\n      iszero\n      tag_260\n      jumpi\n        /* \"#utility.yul\":2568:2586   */\n      tag_260\n      tag_85\n      jump\t// in\n    tag_260:\n      pop\n        /* \"#utility.yul\":2613:2614   */\n      0x05\n        /* \"#utility.yul\":2609:2623   */\n      shl\n        /* \"#utility.yul\":2625:2629   */\n      0x20\n        /* \"#utility.yul\":2605:2630   */\n      add\n      swap1\n        /* \"#utility.yul\":2453:2636   */\n      jump\t// out\n        /* \"#utility.yul\":2641:3309   */\n    tag_233:\n        /* \"#utility.yul\":2695:2700   */\n      0x00\n        /* \"#utility.yul\":2748:2751   */\n      dup3\n        /* \"#utility.yul\":2741:2745   */\n      0x1f\n        /* \"#utility.yul\":2733:2739   */\n      dup4\n        /* \"#utility.yul\":2729:2746   */\n      add\n        /* \"#utility.yul\":2725:2752   */\n      slt\n        /* \"#utility.yul\":2715:2770   */\n      tag_262\n      jumpi\n        /* \"#utility.yul\":2766:2767   */\n      0x00\n        /* \"#utility.yul\":2763:2764   */\n      dup1\n        /* \"#utility.yul\":2756:2768   */\n      revert\n        /* \"#utility.yul\":2715:2770   */\n    tag_262:\n        /* \"#utility.yul\":2802:2808   */\n      dup2\n        /* \"#utility.yul\":2789:2809   */\n      calldataload\n        /* \"#utility.yul\":2828:2832   */\n      0x20\n        /* \"#utility.yul\":2852:2912   */\n      tag_263\n        /* \"#utility.yul\":2868:2911   */\n      tag_264\n        /* \"#utility.yul\":2908:2910   */\n      dup4\n        /* \"#utility.yul\":2868:2911   */\n      tag_232\n      jump\t// in\n    tag_264:\n        /* \"#utility.yul\":2852:2912   */\n      tag_231\n      jump\t// in\n    tag_263:\n        /* \"#utility.yul\":2934:2937   */\n      dup1\n        /* \"#utility.yul\":2958:2960   */\n      dup4\n        /* \"#utility.yul\":2953:2956   */\n      dup3\n        /* \"#utility.yul\":2946:2961   */\n      mstore\n        /* \"#utility.yul\":2986:2990   */\n      0x20\n        /* \"#utility.yul\":2981:2984   */\n      dup3\n        /* \"#utility.yul\":2977:2991   */\n      add\n        /* \"#utility.yul\":2970:2991   */\n      swap2\n      pop\n        /* \"#utility.yul\":3043:3047   */\n      0x20\n        /* \"#utility.yul\":3037:3039   */\n      dup5\n        /* \"#utility.yul\":3034:3035   */\n      0x05\n        /* \"#utility.yul\":3030:3040   */\n      shl\n        /* \"#utility.yul\":3022:3028   */\n      dup8\n        /* \"#utility.yul\":3018:3041   */\n      add\n        /* \"#utility.yul\":3014:3048   */\n      add\n        /* \"#utility.yul\":3000:3048   */\n      swap4\n      pop\n        /* \"#utility.yul\":3071:3074   */\n      dup7\n        /* \"#utility.yul\":3063:3069   */\n      dup5\n        /* \"#utility.yul\":3060:3075   */\n      gt\n        /* \"#utility.yul\":3057:3092   */\n      iszero\n      tag_265\n      jumpi\n        /* \"#utility.yul\":3088:3089   */\n      0x00\n        /* \"#utility.yul\":3085:3086   */\n      dup1\n        /* \"#utility.yul\":3078:3090   */\n      revert\n        /* \"#utility.yul\":3057:3092   */\n    tag_265:\n        /* \"#utility.yul\":3124:3128   */\n      0x20\n        /* \"#utility.yul\":3116:3122   */\n      dup7\n        /* \"#utility.yul\":3112:3129   */\n      add\n        /* \"#utility.yul\":3138:3280   */\n    tag_266:\n        /* \"#utility.yul\":3154:3160   */\n      dup5\n        /* \"#utility.yul\":3149:3152   */\n      dup2\n        /* \"#utility.yul\":3146:3161   */\n      lt\n        /* \"#utility.yul\":3138:3280   */\n      iszero\n      tag_268\n      jumpi\n        /* \"#utility.yul\":3220:3237   */\n      dup1\n      calldataload\n        /* \"#utility.yul\":3208:3238   */\n      dup4\n      mstore\n        /* \"#utility.yul\":3258:3270   */\n      swap2\n      dup4\n      add\n      swap2\n        /* \"#utility.yul\":3171:3183   */\n      dup4\n      add\n        /* \"#utility.yul\":3138:3280   */\n      jump(tag_266)\n    tag_268:\n      pop\n        /* \"#utility.yul\":3298:3303   */\n      swap7\n        /* \"#utility.yul\":2641:3309   */\n      swap6\n      pop\n      pop\n      pop\n      pop\n      pop\n      pop\n      jump\t// out\n        /* \"#utility.yul\":3314:3844   */\n    tag_234:\n        /* \"#utility.yul\":3356:3361   */\n      0x00\n        /* \"#utility.yul\":3409:3412   */\n      dup3\n        /* \"#utility.yul\":3402:3406   */\n      0x1f\n        /* \"#utility.yul\":3394:3400   */\n      dup4\n        /* \"#utility.yul\":3390:3407   */\n      add\n        /* \"#utility.yul\":3386:3413   */\n      slt\n        /* \"#utility.yul\":3376:3431   */\n      tag_270\n      jumpi\n        /* \"#utility.yul\":3427:3428   */\n      0x00\n        /* \"#utility.yul\":3424:3425   */\n      dup1\n        /* \"#utility.yul\":3417:3429   */\n      revert\n        /* \"#utility.yul\":3376:3431   */\n    tag_270:\n        /* \"#utility.yul\":3463:3469   */\n      dup2\n        /* \"#utility.yul\":3450:3470   */\n      calldataload\n        /* \"#utility.yul\":3489:3507   */\n      0xffffffffffffffff\n        /* \"#utility.yul\":3485:3487   */\n      dup2\n        /* \"#utility.yul\":3482:3508   */\n      gt\n        /* \"#utility.yul\":3479:3531   */\n      iszero\n      tag_272\n      jumpi\n        /* \"#utility.yul\":3511:3529   */\n      tag_272\n      tag_85\n      jump\t// in\n    tag_272:\n        /* \"#utility.yul\":3555:3610   */\n      tag_273\n        /* \"#utility.yul\":3598:3600   */\n      0x1f\n        /* \"#utility.yul\":3579:3592   */\n      dup3\n      add\n      not(0x1f)\n        /* \"#utility.yul\":3575:3602   */\n      and\n        /* \"#utility.yul\":3604:3608   */\n      0x20\n        /* \"#utility.yul\":3571:3609   */\n      add\n        /* \"#utility.yul\":3555:3610   */\n      tag_231\n      jump\t// in\n    tag_273:\n        /* \"#utility.yul\":3635:3637   */\n      dup2\n        /* \"#utility.yul\":3626:3633   */\n      dup2\n        /* \"#utility.yul\":3619:3638   */\n      mstore\n        /* \"#utility.yul\":3681:3684   */\n      dup5\n        /* \"#utility.yul\":3674:3678   */\n      0x20\n        /* \"#utility.yul\":3669:3671   */\n      dup4\n        /* \"#utility.yul\":3661:3667   */\n      dup7\n        /* \"#utility.yul\":3657:3672   */\n      add\n        /* \"#utility.yul\":3653:3679   */\n      add\n        /* \"#utility.yul\":3650:3685   */\n      gt\n        /* \"#utility.yul\":3647:3702   */\n      iszero\n      tag_274\n      jumpi\n        /* \"#utility.yul\":3698:3699   */\n      0x00\n        /* \"#utility.yul\":3695:3696   */\n      dup1\n        /* \"#utility.yul\":3688:3700   */\n      revert\n        /* \"#utility.yul\":3647:3702   */\n    tag_274:\n        /* \"#utility.yul\":3763:3765   */\n      dup2\n        /* \"#utility.yul\":3756:3760   */\n      0x20\n        /* \"#utility.yul\":3748:3754   */\n      dup6\n        /* \"#utility.yul\":3744:3761   */\n      add\n        /* \"#utility.yul\":3737:3741   */\n      0x20\n        /* \"#utility.yul\":3728:3735   */\n      dup4\n        /* \"#utility.yul\":3724:3742   */\n      add\n        /* \"#utility.yul\":3711:3766   */\n      calldatacopy\n        /* \"#utility.yul\":3811:3812   */\n      0x00\n        /* \"#utility.yul\":3786:3802   */\n      swap2\n      dup2\n      add\n        /* \"#utility.yul\":3804:3808   */\n      0x20\n        /* \"#utility.yul\":3782:3809   */\n      add\n        /* \"#utility.yul\":3775:3813   */\n      swap2\n      swap1\n      swap2\n      mstore\n        /* \"#utility.yul\":3790:3797   */\n      swap4\n        /* \"#utility.yul\":3314:3844   */\n      swap3\n      pop\n      pop\n      pop\n      jump\t// out\n        /* \"#utility.yul\":3849:4792   */\n    tag_34:\n        /* \"#utility.yul\":4003:4009   */\n      0x00\n        /* \"#utility.yul\":4011:4017   */\n      dup1\n        /* \"#utility.yul\":4019:4025   */\n      0x00\n        /* \"#utility.yul\":4027:4033   */\n      dup1\n        /* \"#utility.yul\":4035:4041   */\n      0x00\n        /* \"#utility.yul\":4088:4091   */\n      0xa0\n        /* \"#utility.yul\":4076:4085   */\n      dup7\n        /* \"#utility.yul\":4067:4074   */\n      dup9\n        /* \"#utility.yul\":4063:4086   */\n      sub\n        /* \"#utility.yul\":4059:4092   */\n      slt\n        /* \"#utility.yul\":4056:4109   */\n      iszero\n      tag_276\n      jumpi\n        /* \"#utility.yul\":4105:4106   */\n      0x00\n        /* \"#utility.yul\":4102:4103   */\n      dup1\n        /* \"#utility.yul\":4095:4107   */\n      revert\n        /* \"#utility.yul\":4056:4109   */\n    tag_276:\n        /* \"#utility.yul\":4128:4157   */\n      tag_277\n        /* \"#utility.yul\":4147:4156   */\n      dup7\n        /* \"#utility.yul\":4128:4157   */\n      tag_228\n      jump\t// in\n    tag_277:\n        /* \"#utility.yul\":4118:4157   */\n      swap5\n      pop\n        /* \"#utility.yul\":4176:4214   */\n      tag_278\n        /* \"#utility.yul\":4210:4212   */\n      0x20\n        /* \"#utility.yul\":4199:4208   */\n      dup8\n        /* \"#utility.yul\":4195:4213   */\n      add\n        /* \"#utility.yul\":4176:4214   */\n      tag_228\n      jump\t// in\n    tag_278:\n        /* \"#utility.yul\":4166:4214   */\n      swap4\n      pop\n        /* \"#utility.yul\":4265:4267   */\n      0x40\n        /* \"#utility.yul\":4254:4263   */\n      dup7\n        /* \"#utility.yul\":4250:4268   */\n      add\n        /* \"#utility.yul\":4237:4269   */\n      calldataload\n        /* \"#utility.yul\":4288:4306   */\n      0xffffffffffffffff\n        /* \"#utility.yul\":4329:4331   */\n      dup1\n        /* \"#utility.yul\":4321:4327   */\n      dup3\n        /* \"#utility.yul\":4318:4332   */\n      gt\n        /* \"#utility.yul\":4315:4349   */\n      iszero\n      tag_279\n      jumpi\n        /* \"#utility.yul\":4345:4346   */\n      0x00\n        /* \"#utility.yul\":4342:4343   */\n      dup1\n        /* \"#utility.yul\":4335:4347   */\n      revert\n        /* \"#utility.yul\":4315:4349   */\n    tag_279:\n        /* \"#utility.yul\":4368:4429   */\n      tag_280\n        /* \"#utility.yul\":4421:4428   */\n      dup10\n        /* \"#utility.yul\":4412:4418   */\n      dup4\n        /* \"#utility.yul\":4401:4410   */\n      dup11\n        /* \"#utility.yul\":4397:4419   */\n      add\n        /* \"#utility.yul\":4368:4429   */\n      tag_233\n      jump\t// in\n    tag_280:\n        /* \"#utility.yul\":4358:4429   */\n      swap5\n      pop\n        /* \"#utility.yul\":4482:4484   */\n      0x60\n        /* \"#utility.yul\":4471:4480   */\n      dup9\n        /* \"#utility.yul\":4467:4485   */\n      add\n        /* \"#utility.yul\":4454:4486   */\n      calldataload\n        /* \"#utility.yul\":4438:4486   */\n      swap2\n      pop\n        /* \"#utility.yul\":4511:4513   */\n      dup1\n        /* \"#utility.yul\":4501:4509   */\n      dup3\n        /* \"#utility.yul\":4498:4514   */\n      gt\n        /* \"#utility.yul\":4495:4531   */\n      iszero\n      tag_281\n      jumpi\n        /* \"#utility.yul\":4527:4528   */\n      0x00\n        /* \"#utility.yul\":4524:4525   */\n      dup1\n        /* \"#utility.yul\":4517:4529   */\n      revert\n        /* \"#utility.yul\":4495:4531   */\n    tag_281:\n        /* \"#utility.yul\":4550:4613   */\n      tag_282\n        /* \"#utility.yul\":4605:4612   */\n      dup10\n        /* \"#utility.yul\":4594:4602   */\n      dup4\n        /* \"#utility.yul\":4583:4592   */\n      dup11\n        /* \"#utility.yul\":4579:4603   */\n      add\n        /* \"#utility.yul\":4550:4613   */\n      tag_233\n      jump\t// in\n    tag_282:\n        /* \"#utility.yul\":4540:4613   */\n      swap4\n      pop\n        /* \"#utility.yul\":4666:4669   */\n      0x80\n        /* \"#utility.yul\":4655:4664   */\n      dup9\n        /* \"#utility.yul\":4651:4670   */\n      add\n        /* \"#utility.yul\":4638:4671   */\n      calldataload\n        /* \"#utility.yul\":4622:4671   */\n      swap2\n      pop\n        /* \"#utility.yul\":4696:4698   */\n      dup1\n        /* \"#utility.yul\":4686:4694   */\n      dup3\n        /* \"#utility.yul\":4683:4699   */\n      gt\n        /* \"#utility.yul\":4680:4716   */\n      iszero\n      tag_283\n      jumpi\n        /* \"#utility.yul\":4712:4713   */\n      0x00\n        /* \"#utility.yul\":4709:4710   */\n      dup1\n        /* \"#utility.yul\":4702:4714   */\n      revert\n        /* \"#utility.yul\":4680:4716   */\n    tag_283:\n      pop\n        /* \"#utility.yul\":4735:4786   */\n      tag_284\n        /* \"#utility.yul\":4778:4785   */\n      dup9\n        /* \"#utility.yul\":4767:4775   */\n      dup3\n        /* \"#utility.yul\":4756:4765   */\n      dup10\n        /* \"#utility.yul\":4752:4776   */\n      add\n        /* \"#utility.yul\":4735:4786   */\n      tag_234\n      jump\t// in\n    tag_284:\n        /* \"#utility.yul\":4725:4786   */\n      swap2\n      pop\n      pop\n        /* \"#utility.yul\":3849:4792   */\n      swap3\n      swap6\n      pop\n      swap3\n      swap6\n      swap1\n      swap4\n      pop\n      jump\t// out\n        /* \"#utility.yul\":4797:5943   */\n    tag_41:\n        /* \"#utility.yul\":4915:4921   */\n      0x00\n        /* \"#utility.yul\":4923:4929   */\n      dup1\n        /* \"#utility.yul\":4976:4978   */\n      0x40\n        /* \"#utility.yul\":4964:4973   */\n      dup4\n        /* \"#utility.yul\":4955:4962   */\n      dup6\n        /* \"#utility.yul\":4951:4974   */\n      sub\n        /* \"#utility.yul\":4947:4979   */\n      slt\n        /* \"#utility.yul\":4944:4996   */\n      iszero\n      tag_286\n      jumpi\n        /* \"#utility.yul\":4992:4993   */\n      0x00\n        /* \"#utility.yul\":4989:4990   */\n      dup1\n        /* \"#utility.yul\":4982:4994   */\n      revert\n        /* \"#utility.yul\":4944:4996   */\n    tag_286:\n        /* \"#utility.yul\":5032:5041   */\n      dup3\n        /* \"#utility.yul\":5019:5042   */\n      calldataload\n        /* \"#utility.yul\":5061:5079   */\n      0xffffffffffffffff\n        /* \"#utility.yul\":5102:5104   */\n      dup1\n        /* \"#utility.yul\":5094:5100   */\n      dup3\n        /* \"#utility.yul\":5091:5105   */\n      gt\n        /* \"#utility.yul\":5088:5122   */\n      iszero\n      tag_287\n      jumpi\n        /* \"#utility.yul\":5118:5119   */\n      0x00\n        /* \"#utility.yul\":5115:5116   */\n      dup1\n        /* \"#utility.yul\":5108:5120   */\n      revert\n        /* \"#utility.yul\":5088:5122   */\n    tag_287:\n        /* \"#utility.yul\":5156:5162   */\n      dup2\n        /* \"#utility.yul\":5145:5154   */\n      dup6\n        /* \"#utility.yul\":5141:5163   */\n      add\n        /* \"#utility.yul\":5131:5163   */\n      swap2\n      pop\n        /* \"#utility.yul\":5201:5208   */\n      dup6\n        /* \"#utility.yul\":5194:5198   */\n      0x1f\n        /* \"#utility.yul\":5190:5192   */\n      dup4\n        /* \"#utility.yul\":5186:5199   */\n      add\n        /* \"#utility.yul\":5182:5209   */\n      slt\n        /* \"#utility.yul\":5172:5227   */\n      tag_288\n      jumpi\n        /* \"#utility.yul\":5223:5224   */\n      0x00\n        /* \"#utility.yul\":5220:5221   */\n      dup1\n        /* \"#utility.yul\":5213:5225   */\n      revert\n        /* \"#utility.yul\":5172:5227   */\n    tag_288:\n        /* \"#utility.yul\":5259:5261   */\n      dup2\n        /* \"#utility.yul\":5246:5262   */\n      calldataload\n        /* \"#utility.yul\":5281:5285   */\n      0x20\n        /* \"#utility.yul\":5305:5365   */\n      tag_289\n        /* \"#utility.yul\":5321:5364   */\n      tag_264\n        /* \"#utility.yul\":5361:5363   */\n      dup4\n        /* \"#utility.yul\":5321:5364   */\n      tag_232\n      jump\t// in\n        /* \"#utility.yul\":5305:5365   */\n    tag_289:\n        /* \"#utility.yul\":5399:5414   */\n      dup3\n      dup2\n      mstore\n        /* \"#utility.yul\":5481:5482   */\n      0x05\n        /* \"#utility.yul\":5477:5487   */\n      swap3\n      swap1\n      swap3\n      shl\n        /* \"#utility.yul\":5469:5488   */\n      dup5\n      add\n        /* \"#utility.yul\":5465:5493   */\n      dup2\n      add\n      swap2\n        /* \"#utility.yul\":5430:5442   */\n      dup2\n      dup2\n      add\n      swap1\n        /* \"#utility.yul\":5505:5524   */\n      dup10\n      dup5\n      gt\n        /* \"#utility.yul\":5502:5541   */\n      iszero\n      tag_291\n      jumpi\n        /* \"#utility.yul\":5537:5538   */\n      0x00\n        /* \"#utility.yul\":5534:5535   */\n      dup1\n        /* \"#utility.yul\":5527:5539   */\n      revert\n        /* \"#utility.yul\":5502:5541   */\n    tag_291:\n        /* \"#utility.yul\":5561:5572   */\n      swap5\n      dup3\n      add\n      swap5\n        /* \"#utility.yul\":5581:5729   */\n    tag_292:\n        /* \"#utility.yul\":5597:5603   */\n      dup4\n        /* \"#utility.yul\":5592:5595   */\n      dup7\n        /* \"#utility.yul\":5589:5604   */\n      lt\n        /* \"#utility.yul\":5581:5729   */\n      iszero\n      tag_294\n      jumpi\n        /* \"#utility.yul\":5663:5686   */\n      tag_295\n        /* \"#utility.yul\":5682:5685   */\n      dup7\n        /* \"#utility.yul\":5663:5686   */\n      tag_228\n      jump\t// in\n    tag_295:\n        /* \"#utility.yul\":5651:5687   */\n      dup3\n      mstore\n        /* \"#utility.yul\":5614:5626   */\n      swap5\n      dup3\n      add\n      swap5\n        /* \"#utility.yul\":5707:5719   */\n      swap1\n      dup3\n      add\n      swap1\n        /* \"#utility.yul\":5581:5729   */\n      jump(tag_292)\n    tag_294:\n        /* \"#utility.yul\":5748:5753   */\n      swap7\n      pop\n      pop\n        /* \"#utility.yul\":5791:5809   */\n      dup7\n      add\n        /* \"#utility.yul\":5778:5810   */\n      calldataload\n      swap3\n      pop\n      pop\n        /* \"#utility.yul\":5822:5838   */\n      dup1\n      dup3\n      gt\n        /* \"#utility.yul\":5819:5855   */\n      iszero\n      tag_296\n      jumpi\n        /* \"#utility.yul\":5851:5852   */\n      0x00\n        /* \"#utility.yul\":5848:5849   */\n      dup1\n        /* \"#utility.yul\":5841:5853   */\n      revert\n        /* \"#utility.yul\":5819:5855   */\n    tag_296:\n      pop\n        /* \"#utility.yul\":5874:5937   */\n      tag_297\n        /* \"#utility.yul\":5929:5936   */\n      dup6\n        /* \"#utility.yul\":5918:5926   */\n      dup3\n        /* \"#utility.yul\":5907:5916   */\n      dup7\n        /* \"#utility.yul\":5903:5927   */\n      add\n        /* \"#utility.yul\":5874:5937   */\n      tag_233\n      jump\t// in\n    tag_297:\n        /* \"#utility.yul\":5864:5937   */\n      swap2\n      pop\n      pop\n        /* \"#utility.yul\":4797:5943   */\n      swap3\n      pop\n      swap3\n      swap1\n      pop\n      jump\t// out\n        /* \"#utility.yul\":5948:6387   */\n    tag_235:\n        /* \"#utility.yul\":6001:6004   */\n      0x00\n        /* \"#utility.yul\":6039:6044   */\n      dup2\n        /* \"#utility.yul\":6033:6045   */\n      mload\n        /* \"#utility.yul\":6066:6072   */\n      dup1\n        /* \"#utility.yul\":6061:6064   */\n      dup5\n        /* \"#utility.yul\":6054:6073   */\n      mstore\n        /* \"#utility.yul\":6092:6096   */\n      0x20\n        /* \"#utility.yul\":6121:6125   */\n      dup1\n        /* \"#utility.yul\":6116:6119   */\n      dup6\n        /* \"#utility.yul\":6112:6126   */\n      add\n        /* \"#utility.yul\":6105:6126   */\n      swap5\n      pop\n        /* \"#utility.yul\":6160:6164   */\n      0x20\n        /* \"#utility.yul\":6153:6158   */\n      dup5\n        /* \"#utility.yul\":6149:6165   */\n      add\n        /* \"#utility.yul\":6183:6184   */\n      0x00\n        /* \"#utility.yul\":6193:6362   */\n    tag_299:\n        /* \"#utility.yul\":6207:6213   */\n      dup4\n        /* \"#utility.yul\":6204:6205   */\n      dup2\n        /* \"#utility.yul\":6201:6214   */\n      lt\n        /* \"#utility.yul\":6193:6362   */\n      iszero\n      tag_301\n      jumpi\n        /* \"#utility.yul\":6268:6281   */\n      dup2\n      mload\n        /* \"#utility.yul\":6256:6282   */\n      dup8\n      mstore\n        /* \"#utility.yul\":6302:6314   */\n      swap6\n      dup3\n      add\n      swap6\n        /* \"#utility.yul\":6337:6352   */\n      swap1\n      dup3\n      add\n      swap1\n        /* \"#utility.yul\":6229:6230   */\n      0x01\n        /* \"#utility.yul\":6222:6231   */\n      add\n        /* \"#utility.yul\":6193:6362   */\n      jump(tag_299)\n    tag_301:\n      pop\n        /* \"#utility.yul\":6378:6381   */\n      swap5\n      swap6\n        /* \"#utility.yul\":5948:6387   */\n      swap5\n      pop\n      pop\n      pop\n      pop\n      pop\n      jump\t// out\n        /* \"#utility.yul\":6392:6653   */\n    tag_44:\n        /* \"#utility.yul\":6571:6573   */\n      0x20\n        /* \"#utility.yul\":6560:6569   */\n      dup2\n        /* \"#utility.yul\":6553:6574   */\n      mstore\n        /* \"#utility.yul\":6534:6538   */\n      0x00\n        /* \"#utility.yul\":6591:6647   */\n      tag_247\n        /* \"#utility.yul\":6643:6645   */\n      0x20\n        /* \"#utility.yul\":6632:6641   */\n      dup4\n        /* \"#utility.yul\":6628:6646   */\n      add\n        /* \"#utility.yul\":6620:6626   */\n      dup5\n        /* \"#utility.yul\":6591:6647   */\n      tag_235\n      jump\t// in\n        /* \"#utility.yul\":6658:7005   */\n    tag_47:\n        /* \"#utility.yul\":6723:6729   */\n      0x00\n        /* \"#utility.yul\":6731:6737   */\n      dup1\n        /* \"#utility.yul\":6784:6786   */\n      0x40\n        /* \"#utility.yul\":6772:6781   */\n      dup4\n        /* \"#utility.yul\":6763:6770   */\n      dup6\n        /* \"#utility.yul\":6759:6782   */\n      sub\n        /* \"#utility.yul\":6755:6787   */\n      slt\n        /* \"#utility.yul\":6752:6804   */\n      iszero\n      tag_305\n      jumpi\n        /* \"#utility.yul\":6800:6801   */\n      0x00\n        /* \"#utility.yul\":6797:6798   */\n      dup1\n        /* \"#utility.yul\":6790:6802   */\n      revert\n        /* \"#utility.yul\":6752:6804   */\n    tag_305:\n        /* \"#utility.yul\":6823:6852   */\n      tag_306\n        /* \"#utility.yul\":6842:6851   */\n      dup4\n        /* \"#utility.yul\":6823:6852   */\n      tag_228\n      jump\t// in\n    tag_306:\n        /* \"#utility.yul\":6813:6852   */\n      swap2\n      pop\n        /* \"#utility.yul\":6902:6904   */\n      0x20\n        /* \"#utility.yul\":6891:6900   */\n      dup4\n        /* \"#utility.yul\":6887:6905   */\n      add\n        /* \"#utility.yul\":6874:6906   */\n      calldataload\n        /* \"#utility.yul\":6949:6954   */\n      dup1\n        /* \"#utility.yul\":6942:6955   */\n      iszero\n        /* \"#utility.yul\":6935:6956   */\n      iszero\n        /* \"#utility.yul\":6928:6933   */\n      dup2\n        /* \"#utility.yul\":6925:6957   */\n      eq\n        /* \"#utility.yul\":6915:6975   */\n      tag_307\n      jumpi\n        /* \"#utility.yul\":6971:6972   */\n      0x00\n        /* \"#utility.yul\":6968:6969   */\n      dup1\n        /* \"#utility.yul\":6961:6973   */\n      revert\n        /* \"#utility.yul\":6915:6975   */\n    tag_307:\n        /* \"#utility.yul\":6994:6999   */\n      dup1\n        /* \"#utility.yul\":6984:6999   */\n      swap2\n      pop\n      pop\n        /* \"#utility.yul\":6658:7005   */\n      swap3\n      pop\n      swap3\n      swap1\n      pop\n      jump\t// out\n        /* \"#utility.yul\":7010:7270   */\n    tag_51:\n        /* \"#utility.yul\":7078:7084   */\n      0x00\n        /* \"#utility.yul\":7086:7092   */\n      dup1\n        /* \"#utility.yul\":7139:7141   */\n      0x40\n        /* \"#utility.yul\":7127:7136   */\n      dup4\n        /* \"#utility.yul\":7118:7125   */\n      dup6\n        /* \"#utility.yul\":7114:7137   */\n      sub\n        /* \"#utility.yul\":7110:7142   */\n      slt\n        /* \"#utility.yul\":7107:7159   */\n      iszero\n      tag_309\n      jumpi\n        /* \"#utility.yul\":7155:7156   */\n      0x00\n        /* \"#utility.yul\":7152:7153   */\n      dup1\n        /* \"#utility.yul\":7145:7157   */\n      revert\n        /* \"#utility.yul\":7107:7159   */\n    tag_309:\n        /* \"#utility.yul\":7178:7207   */\n      tag_310\n        /* \"#utility.yul\":7197:7206   */\n      dup4\n        /* \"#utility.yul\":7178:7207   */\n      tag_228\n      jump\t// in\n    tag_310:\n        /* \"#utility.yul\":7168:7207   */\n      swap2\n      pop\n        /* \"#utility.yul\":7226:7264   */\n      tag_311\n        /* \"#utility.yul\":7260:7262   */\n      0x20\n        /* \"#utility.yul\":7249:7258   */\n      dup5\n        /* \"#utility.yul\":7245:7263   */\n      add\n        /* \"#utility.yul\":7226:7264   */\n      tag_228\n      jump\t// in\n    tag_311:\n        /* \"#utility.yul\":7216:7264   */\n      swap1\n      pop\n        /* \"#utility.yul\":7010:7270   */\n      swap3\n      pop\n      swap3\n      swap1\n      pop\n      jump\t// out\n        /* \"#utility.yul\":7275:7881   */\n    tag_56:\n        /* \"#utility.yul\":7379:7385   */\n      0x00\n        /* \"#utility.yul\":7387:7393   */\n      dup1\n        /* \"#utility.yul\":7395:7401   */\n      0x00\n        /* \"#utility.yul\":7403:7409   */\n      dup1\n        /* \"#utility.yul\":7411:7417   */\n      0x00\n        /* \"#utility.yul\":7464:7467   */\n      0xa0\n        /* \"#utility.yul\":7452:7461   */\n      dup7\n        /* \"#utility.yul\":7443:7450   */\n      dup9\n        /* \"#utility.yul\":7439:7462   */\n      sub\n        /* \"#utility.yul\":7435:7468   */\n      slt\n        /* \"#utility.yul\":7432:7485   */\n      iszero\n      tag_313\n      jumpi\n        /* \"#utility.yul\":7481:7482   */\n      0x00\n        /* \"#utility.yul\":7478:7479   */\n      dup1\n        /* \"#utility.yul\":7471:7483   */\n      revert\n        /* \"#utility.yul\":7432:7485   */\n    tag_313:\n        /* \"#utility.yul\":7504:7533   */\n      tag_314\n        /* \"#utility.yul\":7523:7532   */\n      dup7\n        /* \"#utility.yul\":7504:7533   */\n      tag_228\n      jump\t// in\n    tag_314:\n        /* \"#utility.yul\":7494:7533   */\n      swap5\n      pop\n        /* \"#utility.yul\":7552:7590   */\n      tag_315\n        /* \"#utility.yul\":7586:7588   */\n      0x20\n        /* \"#utility.yul\":7575:7584   */\n      dup8\n        /* \"#utility.yul\":7571:7589   */\n      add\n        /* \"#utility.yul\":7552:7590   */\n      tag_228\n      jump\t// in\n    tag_315:\n        /* \"#utility.yul\":7542:7590   */\n      swap4\n      pop\n        /* \"#utility.yul\":7637:7639   */\n      0x40\n        /* \"#utility.yul\":7626:7635   */\n      dup7\n        /* \"#utility.yul\":7622:7640   */\n      add\n        /* \"#utility.yul\":7609:7641   */\n      calldataload\n        /* \"#utility.yul\":7599:7641   */\n      swap3\n      pop\n        /* \"#utility.yul\":7688:7690   */\n      0x60\n        /* \"#utility.yul\":7677:7686   */\n      dup7\n        /* \"#utility.yul\":7673:7691   */\n      add\n        /* \"#utility.yul\":7660:7692   */\n      calldataload\n        /* \"#utility.yul\":7650:7692   */\n      swap2\n      pop\n        /* \"#utility.yul\":7743:7746   */\n      0x80\n        /* \"#utility.yul\":7732:7741   */\n      dup7\n        /* \"#utility.yul\":7728:7747   */\n      add\n        /* \"#utility.yul\":7715:7748   */\n      calldataload\n        /* \"#utility.yul\":7771:7789   */\n      0xffffffffffffffff\n        /* \"#utility.yul\":7763:7769   */\n      dup2\n        /* \"#utility.yul\":7760:7790   */\n      gt\n        /* \"#utility.yul\":7757:7807   */\n      iszero\n      tag_316\n      jumpi\n        /* \"#utility.yul\":7803:7804   */\n      0x00\n        /* \"#utility.yul\":7800:7801   */\n      dup1\n        /* \"#utility.yul\":7793:7805   */\n      revert\n        /* \"#utility.yul\":7757:7807   */\n    tag_316:\n        /* \"#utility.yul\":7826:7875   */\n      tag_284\n        /* \"#utility.yul\":7867:7874   */\n      dup9\n        /* \"#utility.yul\":7858:7864   */\n      dup3\n        /* \"#utility.yul\":7847:7856   */\n      dup10\n        /* \"#utility.yul\":7843:7865   */\n      add\n        /* \"#utility.yul\":7826:7875   */\n      tag_234\n      jump\t// in\n        /* \"#utility.yul\":7886:8323   */\n    tag_66:\n        /* \"#utility.yul\":7965:7966   */\n      0x01\n        /* \"#utility.yul\":7961:7973   */\n      dup2\n      dup2\n      shr\n      swap1\n        /* \"#utility.yul\":8008:8020   */\n      dup3\n      and\n      dup1\n        /* \"#utility.yul\":8029:8090   */\n      tag_319\n      jumpi\n        /* \"#utility.yul\":8083:8087   */\n      0x7f\n        /* \"#utility.yul\":8075:8081   */\n      dup3\n        /* \"#utility.yul\":8071:8088   */\n      and\n        /* \"#utility.yul\":8061:8088   */\n      swap2\n      pop\n        /* \"#utility.yul\":8029:8090   */\n    tag_319:\n        /* \"#utility.yul\":8136:8138   */\n      0x20\n        /* \"#utility.yul\":8128:8134   */\n      dup3\n        /* \"#utility.yul\":8125:8139   */\n      lt\n        /* \"#utility.yul\":8105:8123   */\n      dup2\n        /* \"#utility.yul\":8102:8140   */\n      sub\n        /* \"#utility.yul\":8099:8317   */\n      tag_320\n      jumpi\n      shl(0xe0, 0x4e487b71)\n        /* \"#utility.yul\":8170:8171   */\n      0x00\n        /* \"#utility.yul\":8163:8251   */\n      mstore\n        /* \"#utility.yul\":8274:8278   */\n      0x22\n        /* \"#utility.yul\":8271:8272   */\n      0x04\n        /* \"#utility.yul\":8264:8279   */\n      mstore\n        /* \"#utility.yul\":8302:8306   */\n      0x24\n        /* \"#utility.yul\":8299:8300   */\n      0x00\n        /* \"#utility.yul\":8292:8307   */\n      revert\n        /* \"#utility.yul\":8099:8317   */\n    tag_320:\n      pop\n        /* \"#utility.yul\":7886:8323   */\n      swap2\n      swap1\n      pop\n      jump\t// out\n        /* \"#utility.yul\":8913:9097   */\n    tag_112:\n      shl(0xe0, 0x4e487b71)\n        /* \"#utility.yul\":8962:8963   */\n      0x00\n        /* \"#utility.yul\":8955:9043   */\n      mstore\n        /* \"#utility.yul\":9062:9066   */\n      0x32\n        /* \"#utility.yul\":9059:9060   */\n      0x04\n        /* \"#utility.yul\":9052:9067   */\n      mstore\n        /* \"#utility.yul\":9086:9090   */\n      0x24\n        /* \"#utility.yul\":9083:9084   */\n      0x00\n        /* \"#utility.yul\":9076:9091   */\n      revert\n        /* \"#utility.yul\":9778:10057   */\n    tag_183:\n        /* \"#utility.yul\":9843:9852   */\n      dup1\n      dup3\n      add\n        /* \"#utility.yul\":9864:9874   */\n      dup1\n      dup3\n      gt\n        /* \"#utility.yul\":9861:10051   */\n      iszero\n      tag_58\n      jumpi\n      shl(0xe0, 0x4e487b71)\n        /* \"#utility.yul\":9904:9905   */\n      0x00\n        /* \"#utility.yul\":9897:9985   */\n      mstore\n        /* \"#utility.yul\":10008:10012   */\n      0x11\n        /* \"#utility.yul\":10005:10006   */\n      0x04\n        /* \"#utility.yul\":9998:10013   */\n      mstore\n        /* \"#utility.yul\":10036:10040   */\n      0x24\n        /* \"#utility.yul\":10033:10034   */\n      0x00\n        /* \"#utility.yul\":10026:10041   */\n      revert\n        /* \"#utility.yul\":10062:10527   */\n    tag_190:\n        /* \"#utility.yul\":10319:10321   */\n      0x40\n        /* \"#utility.yul\":10308:10317   */\n      dup2\n        /* \"#utility.yul\":10301:10322   */\n      mstore\n        /* \"#utility.yul\":10282:10286   */\n      0x00\n        /* \"#utility.yul\":10345:10401   */\n      tag_329\n        /* \"#utility.yul\":10397:10399   */\n      0x40\n        /* \"#utility.yul\":10386:10395   */\n      dup4\n        /* \"#utility.yul\":10382:10400   */\n      add\n        /* \"#utility.yul\":10374:10380   */\n      dup6\n        /* \"#utility.yul\":10345:10401   */\n      tag_235\n      jump\t// in\n    tag_329:\n        /* \"#utility.yul\":10449:10458   */\n      dup3\n        /* \"#utility.yul\":10441:10447   */\n      dup2\n        /* \"#utility.yul\":10437:10459   */\n      sub\n        /* \"#utility.yul\":10432:10434   */\n      0x20\n        /* \"#utility.yul\":10421:10430   */\n      dup5\n        /* \"#utility.yul\":10417:10435   */\n      add\n        /* \"#utility.yul\":10410:10460   */\n      mstore\n        /* \"#utility.yul\":10477:10521   */\n      tag_330\n        /* \"#utility.yul\":10514:10520   */\n      dup2\n        /* \"#utility.yul\":10506:10512   */\n      dup6\n        /* \"#utility.yul\":10477:10521   */\n      tag_235\n      jump\t// in\n    tag_330:\n        /* \"#utility.yul\":10469:10521   */\n      swap6\n        /* \"#utility.yul\":10062:10527   */\n      swap5\n      pop\n      pop\n      pop\n      pop\n      pop\n      jump\t// out\n        /* \"#utility.yul\":10532:11116   */\n    tag_194:\n        /* \"#utility.yul\":10754:10758   */\n      0x00\n      sub(shl(0xa0, 0x01), 0x01)\n        /* \"#utility.yul\":10864:10866   */\n      dup1\n        /* \"#utility.yul\":10856:10862   */\n      dup9\n        /* \"#utility.yul\":10852:10867   */\n      and\n        /* \"#utility.yul\":10841:10850   */\n      dup4\n        /* \"#utility.yul\":10834:10868   */\n      mstore\n        /* \"#utility.yul\":10916:10918   */\n      dup1\n        /* \"#utility.yul\":10908:10914   */\n      dup8\n        /* \"#utility.yul\":10904:10919   */\n      and\n        /* \"#utility.yul\":10899:10901   */\n      0x20\n        /* \"#utility.yul\":10888:10897   */\n      dup5\n        /* \"#utility.yul\":10884:10902   */\n      add\n        /* \"#utility.yul\":10877:10920   */\n      mstore\n      pop\n        /* \"#utility.yul\":10956:10962   */\n      dup5\n        /* \"#utility.yul\":10951:10953   */\n      0x40\n        /* \"#utility.yul\":10940:10949   */\n      dup4\n        /* \"#utility.yul\":10936:10954   */\n      add\n        /* \"#utility.yul\":10929:10963   */\n      mstore\n        /* \"#utility.yul\":10999:11005   */\n      dup4\n        /* \"#utility.yul\":10994:10996   */\n      0x60\n        /* \"#utility.yul\":10983:10992   */\n      dup4\n        /* \"#utility.yul\":10979:10997   */\n      add\n        /* \"#utility.yul\":10972:11006   */\n      mstore\n        /* \"#utility.yul\":11043:11046   */\n      0xa0\n        /* \"#utility.yul\":11037:11040   */\n      0x80\n        /* \"#utility.yul\":11026:11035   */\n      dup4\n        /* \"#utility.yul\":11022:11041   */\n      add\n        /* \"#utility.yul\":11015:11047   */\n      mstore\n        /* \"#utility.yul\":11064:11110   */\n      tag_332\n        /* \"#utility.yul\":11105:11108   */\n      0xa0\n        /* \"#utility.yul\":11094:11103   */\n      dup4\n        /* \"#utility.yul\":11090:11109   */\n      add\n        /* \"#utility.yul\":11082:11088   */\n      dup5\n        /* \"#utility.yul\":11064:11110   */\n      tag_230\n      jump\t// in\n    tag_332:\n        /* \"#utility.yul\":11056:11110   */\n      swap8\n        /* \"#utility.yul\":10532:11116   */\n      swap7\n      pop\n      pop\n      pop\n      pop\n      pop\n      pop\n      pop\n      jump\t// out\n        /* \"#utility.yul\":11121:11370   */\n    tag_197:\n        /* \"#utility.yul\":11190:11196   */\n      0x00\n        /* \"#utility.yul\":11243:11245   */\n      0x20\n        /* \"#utility.yul\":11231:11240   */\n      dup3\n        /* \"#utility.yul\":11222:11229   */\n      dup5\n        /* \"#utility.yul\":11218:11241   */\n      sub\n        /* \"#utility.yul\":11214:11246   */\n      slt\n        /* \"#utility.yul\":11211:11263   */\n      iszero\n      tag_334\n      jumpi\n        /* \"#utility.yul\":11259:11260   */\n      0x00\n        /* \"#utility.yul\":11256:11257   */\n      dup1\n        /* \"#utility.yul\":11249:11261   */\n      revert\n        /* \"#utility.yul\":11211:11263   */\n    tag_334:\n        /* \"#utility.yul\":11291:11300   */\n      dup2\n        /* \"#utility.yul\":11285:11301   */\n      mload\n        /* \"#utility.yul\":11310:11340   */\n      tag_247\n        /* \"#utility.yul\":11334:11339   */\n      dup2\n        /* \"#utility.yul\":11310:11340   */\n      tag_229\n      jump\t// in\n        /* \"#utility.yul\":11375:12225   */\n    tag_213:\n        /* \"#utility.yul\":11697:11701   */\n      0x00\n      sub(shl(0xa0, 0x01), 0x01)\n        /* \"#utility.yul\":11807:11809   */\n      dup1\n        /* \"#utility.yul\":11799:11805   */\n      dup9\n        /* \"#utility.yul\":11795:11810   */\n      and\n        /* \"#utility.yul\":11784:11793   */\n      dup4\n        /* \"#utility.yul\":11777:11811   */\n      mstore\n        /* \"#utility.yul\":11859:11861   */\n      dup1\n        /* \"#utility.yul\":11851:11857   */\n      dup8\n        /* \"#utility.yul\":11847:11862   */\n      and\n        /* \"#utility.yul\":11842:11844   */\n      0x20\n        /* \"#utility.yul\":11831:11840   */\n      dup5\n        /* \"#utility.yul\":11827:11845   */\n      add\n        /* \"#utility.yul\":11820:11863   */\n      mstore\n      pop\n        /* \"#utility.yul\":11899:11902   */\n      0xa0\n        /* \"#utility.yul\":11894:11896   */\n      0x40\n        /* \"#utility.yul\":11883:11892   */\n      dup4\n        /* \"#utility.yul\":11879:11897   */\n      add\n        /* \"#utility.yul\":11872:11903   */\n      mstore\n        /* \"#utility.yul\":11926:11983   */\n      tag_337\n        /* \"#utility.yul\":11978:11981   */\n      0xa0\n        /* \"#utility.yul\":11967:11976   */\n      dup4\n        /* \"#utility.yul\":11963:11982   */\n      add\n        /* \"#utility.yul\":11955:11961   */\n      dup7\n        /* \"#utility.yul\":11926:11983   */\n      tag_235\n      jump\t// in\n    tag_337:\n        /* \"#utility.yul\":12031:12040   */\n      dup3\n        /* \"#utility.yul\":12023:12029   */\n      dup2\n        /* \"#utility.yul\":12019:12041   */\n      sub\n        /* \"#utility.yul\":12014:12016   */\n      0x60\n        /* \"#utility.yul\":12003:12012   */\n      dup5\n        /* \"#utility.yul\":11999:12017   */\n      add\n        /* \"#utility.yul\":11992:12042   */\n      mstore\n        /* \"#utility.yul\":12065:12109   */\n      tag_338\n        /* \"#utility.yul\":12102:12108   */\n      dup2\n        /* \"#utility.yul\":12094:12100   */\n      dup7\n        /* \"#utility.yul\":12065:12109   */\n      tag_235\n      jump\t// in\n    tag_338:\n        /* \"#utility.yul\":12051:12109   */\n      swap1\n      pop\n        /* \"#utility.yul\":12158:12167   */\n      dup3\n        /* \"#utility.yul\":12150:12156   */\n      dup2\n        /* \"#utility.yul\":12146:12168   */\n      sub\n        /* \"#utility.yul\":12140:12143   */\n      0x80\n        /* \"#utility.yul\":12129:12138   */\n      dup5\n        /* \"#utility.yul\":12125:12144   */\n      add\n        /* \"#utility.yul\":12118:12169   */\n      mstore\n        /* \"#utility.yul\":12186:12219   */\n      tag_339\n        /* \"#utility.yul\":12212:12218   */\n      dup2\n        /* \"#utility.yul\":12204:12210   */\n      dup6\n        /* \"#utility.yul\":12186:12219   */\n      tag_230\n      jump\t// in\n    tag_339:\n        /* \"#utility.yul\":12178:12219   */\n      swap9\n        /* \"#utility.yul\":11375:12225   */\n      swap8\n      pop\n      pop\n      pop\n      pop\n      pop\n      pop\n      pop\n      pop\n      jump\t// out\n\n    auxdata: 0xa26469706673582212202a231b0b4c6d13f1de215835c0382c9665cc1d966dc6711f10205f9e2f87298b64736f6c63430008190033\n}\n",
				"bytecode": {
					"linkReferences": {},
					"object": "608060405234801561000f575f80fd5b5060408051808201909152601e81527f68747470733a2f2f6170692e746573742e636f6d2f7b69647d2e6a736f6e0000602082015261004d81610053565b506101ba565b600261005f82826100fb565b5050565b634e487b7160e01b5f52604160045260245ffd5b600181811c9082168061008b57607f821691505b6020821081036100a957634e487b7160e01b5f52602260045260245ffd5b50919050565b601f8211156100f657805f5260205f20601f840160051c810160208510156100d45750805b601f840160051c820191505b818110156100f3575f81556001016100e0565b50505b505050565b81516001600160401b0381111561011457610114610063565b610128816101228454610077565b846100af565b602080601f83116001811461015b575f84156101445750858301515b5f19600386901b1c1916600185901b1785556101b2565b5f85815260208120601f198616915b828110156101895788860151825594840194600190910190840161016a565b50858210156101a657878501515f19600388901b60f8161c191681555b505060018460011b0185555b505050505050565b61126f806101c75f395ff3fe608060405234801561000f575f80fd5b506004361061009e575f3560e01c806343508b0511610072578063a22cb46511610058578063a22cb46514610153578063e985e9c514610166578063f242432a146101a1575f80fd5b806343508b05146101205780634e1273f414610133575f80fd5b8062fdd58e146100a257806301ffc9a7146100c85780630e89341c146100eb5780632eb2c2d61461010b575b5f80fd5b6100b56100b0366004610c7b565b6101b4565b6040519081526020015b60405180910390f35b6100db6100d6366004610cbb565b6101db565b60405190151581526020016100bf565b6100fe6100f9366004610cdd565b610275565b6040516100bf9190610d22565b61011e610119366004610e74565b610307565b005b61011e61012e366004610c7b565b610391565b610146610141366004610f17565b6104b1565b6040516100bf919061100b565b61011e61016136600461101d565b61057c565b6100db610174366004611056565b6001600160a01b039182165f90815260016020908152604080832093909416825291909152205460ff1690565b61011e6101af366004611087565b61058b565b5f818152602081815260408083206001600160a01b03861684529091529020545b92915050565b5f6001600160e01b031982167fd9b67a2600000000000000000000000000000000000000000000000000000000148061023d57506001600160e01b031982167f0e89341c00000000000000000000000000000000000000000000000000000000145b806101d557507f01ffc9a7000000000000000000000000000000000000000000000000000000006001600160e01b03198316146101d5565b606060028054610284906110e7565b80601f01602080910402602001604051908101604052809291908181526020018280546102b0906110e7565b80156102fb5780601f106102d2576101008083540402835291602001916102fb565b820191905f5260205f20905b8154815290600101906020018083116102de57829003601f168201915b50505050509050919050565b336001600160a01b038616811480159061034657506001600160a01b038087165f9081526001602090815260408083209385168352929052205460ff16155b1561037c5760405163711bec9160e11b81526001600160a01b038083166004830152871660248201526044015b60405180910390fd5b6103898686868686610608565b505050505050565b805f036103ca576040517f524f409b00000000000000000000000000000000000000000000000000000000815260040160405180910390fd5b5f8167ffffffffffffffff8111156103e4576103e4610d34565b60405190808252806020026020018201604052801561040d578160200160208202803683370190505b5090505f8267ffffffffffffffff81111561042a5761042a610d34565b604051908082528060200260200182016040528015610453578160200160208202803683370190505b506003549091508381016020848101908401835b838110156104875780835260018083526020938401939092019101610467565b5050506003555060408051602081019091525f81526104ab9085908490849061066d565b50505050565b606081518351146104e25781518351604051635b05999160e01b815260048101929092526024820152604401610373565b5f835167ffffffffffffffff8111156104fd576104fd610d34565b604051908082528060200260200182016040528015610526578160200160208202803683370190505b5090505f5b84518110156105745760208082028601015161054f906020808402870101516101b4565b8282815181106105615761056161111f565b602090810291909101015260010161052b565b509392505050565b6105873383836106a3565b5050565b336001600160a01b03861681148015906105ca57506001600160a01b038087165f9081526001602090815260408083209385168352929052205460ff16155b156105fb5760405163711bec9160e11b81526001600160a01b03808316600483015287166024820152604401610373565b6103898686868686610751565b6001600160a01b03841661063157604051632bfa23e760e11b81525f6004820152602401610373565b6001600160a01b03851661065957604051626a0d4560e21b81525f6004820152602401610373565b61066685858585856107dd565b5050505050565b6001600160a01b03841661069657604051632bfa23e760e11b81525f6004820152602401610373565b6104ab5f858585856107dd565b6001600160a01b0382166106e5576040517fced3e1000000000000000000000000000000000000000000000000000000000081525f6004820152602401610373565b6001600160a01b038381165f81815260016020908152604080832094871680845294825291829020805460ff191686151590811790915591519182527f17307eab39ab6107e8899845ad3d59bd9653f200f220920489ca2b5937696c31910160405180910390a3505050565b6001600160a01b03841661077a57604051632bfa23e760e11b81525f6004820152602401610373565b6001600160a01b0385166107a257604051626a0d4560e21b81525f6004820152602401610373565b604080516001808252602082018690528183019081526060820185905260808201909252906107d487878484876107dd565b50505050505050565b6107e985858585610830565b6001600160a01b038416156106665782513390600103610822576020848101519084015161081b838989858589610a58565b5050610389565b610389818787878787610b79565b805182511461085f5781518151604051635b05999160e01b815260048101929092526024820152604401610373565b335f5b835181101561097a576020818102858101820151908501909101516001600160a01b0388161561092c575f828152602081815260408083206001600160a01b038c16845290915290205481811015610906576040517f03dee4c50000000000000000000000000000000000000000000000000000000081526001600160a01b038a166004820152602481018290526044810183905260648101849052608401610373565b5f838152602081815260408083206001600160a01b038d16845290915290209082900390555b6001600160a01b03871615610970575f828152602081815260408083206001600160a01b038b1684529091528120805483929061096a908490611133565b90915550505b5050600101610862565b5082516001036109fa5760208301515f906020840151909150856001600160a01b0316876001600160a01b0316846001600160a01b03167fc3d58168c5ae7397731d063d5bbf3d657854427343f4c083240f7aacaa2d0f6285856040516109eb929190918252602082015260400190565b60405180910390a45050610666565b836001600160a01b0316856001600160a01b0316826001600160a01b03167f4a39dc06d4c0dbc64b70af90fd698a233a518aa5d07e595d983b8c0526c8f7fb8686604051610a49929190611152565b60405180910390a45050505050565b6001600160a01b0384163b156103895760405163f23a6e6160e01b81526001600160a01b0385169063f23a6e6190610a9c908990899088908890889060040161117f565b6020604051808303815f875af1925050508015610ad6575060408051601f3d908101601f19168201909252610ad3918101906111c1565b60015b610b3d573d808015610b03576040519150601f19603f3d011682016040523d82523d5f602084013e610b08565b606091505b5080515f03610b3557604051632bfa23e760e11b81526001600160a01b0386166004820152602401610373565b805181602001fd5b6001600160e01b0319811663f23a6e6160e01b146107d457604051632bfa23e760e11b81526001600160a01b0386166004820152602401610373565b6001600160a01b0384163b156103895760405163bc197c8160e01b81526001600160a01b0385169063bc197c8190610bbd90899089908890889088906004016111dc565b6020604051808303815f875af1925050508015610bf7575060408051601f3d908101601f19168201909252610bf4918101906111c1565b60015b610c24573d808015610b03576040519150601f19603f3d011682016040523d82523d5f602084013e610b08565b6001600160e01b0319811663bc197c8160e01b146107d457604051632bfa23e760e11b81526001600160a01b0386166004820152602401610373565b80356001600160a01b0381168114610c76575f80fd5b919050565b5f8060408385031215610c8c575f80fd5b610c9583610c60565b946020939093013593505050565b6001600160e01b031981168114610cb8575f80fd5b50565b5f60208284031215610ccb575f80fd5b8135610cd681610ca3565b9392505050565b5f60208284031215610ced575f80fd5b5035919050565b5f81518084528060208401602086015e5f602082860101526020601f19601f83011685010191505092915050565b602081525f610cd66020830184610cf4565b634e487b7160e01b5f52604160045260245ffd5b604051601f8201601f1916810167ffffffffffffffff81118282101715610d7157610d71610d34565b604052919050565b5f67ffffffffffffffff821115610d9257610d92610d34565b5060051b60200190565b5f82601f830112610dab575f80fd5b81356020610dc0610dbb83610d79565b610d48565b8083825260208201915060208460051b870101935086841115610de1575f80fd5b602086015b84811015610dfd5780358352918301918301610de6565b509695505050505050565b5f82601f830112610e17575f80fd5b813567ffffffffffffffff811115610e3157610e31610d34565b610e44601f8201601f1916602001610d48565b818152846020838601011115610e58575f80fd5b816020850160208301375f918101602001919091529392505050565b5f805f805f60a08688031215610e88575f80fd5b610e9186610c60565b9450610e9f60208701610c60565b9350604086013567ffffffffffffffff80821115610ebb575f80fd5b610ec789838a01610d9c565b94506060880135915080821115610edc575f80fd5b610ee889838a01610d9c565b93506080880135915080821115610efd575f80fd5b50610f0a88828901610e08565b9150509295509295909350565b5f8060408385031215610f28575f80fd5b823567ffffffffffffffff80821115610f3f575f80fd5b818501915085601f830112610f52575f80fd5b81356020610f62610dbb83610d79565b82815260059290921b84018101918181019089841115610f80575f80fd5b948201945b83861015610fa557610f9686610c60565b82529482019490820190610f85565b96505086013592505080821115610fba575f80fd5b50610fc785828601610d9c565b9150509250929050565b5f815180845260208085019450602084015f5b8381101561100057815187529582019590820190600101610fe4565b509495945050505050565b602081525f610cd66020830184610fd1565b5f806040838503121561102e575f80fd5b61103783610c60565b91506020830135801515811461104b575f80fd5b809150509250929050565b5f8060408385031215611067575f80fd5b61107083610c60565b915061107e60208401610c60565b90509250929050565b5f805f805f60a0868803121561109b575f80fd5b6110a486610c60565b94506110b260208701610c60565b93506040860135925060608601359150608086013567ffffffffffffffff8111156110db575f80fd5b610f0a88828901610e08565b600181811c908216806110fb57607f821691505b60208210810361111957634e487b7160e01b5f52602260045260245ffd5b50919050565b634e487b7160e01b5f52603260045260245ffd5b808201808211156101d557634e487b7160e01b5f52601160045260245ffd5b604081525f6111646040830185610fd1565b82810360208401526111768185610fd1565b95945050505050565b5f6001600160a01b03808816835280871660208401525084604083015283606083015260a060808301526111b660a0830184610cf4565b979650505050505050565b5f602082840312156111d1575f80fd5b8151610cd681610ca3565b5f6001600160a01b03808816835280871660208401525060a0604083015261120760a0830186610fd1565b82810360608401526112198186610fd1565b9050828103608084015261122d8185610cf4565b9897505050505050505056fea26469706673582212202a231b0b4c6d13f1de215835c0382c9665cc1d966dc6711f10205f9e2f87298b64736f6c63430008190033",
					"opcodes": "PUSH1 0x80 PUSH1 0x40 MSTORE CALLVALUE DUP1 ISZERO PUSH2 0xF JUMPI PUSH0 DUP1 REVERT JUMPDEST POP PUSH1 0x40 DUP1 MLOAD DUP1 DUP3 ADD SWAP1 SWAP2 MSTORE PUSH1 0x1E DUP2 MSTORE PUSH32 0x68747470733A2F2F6170692E746573742E636F6D2F7B69647D2E6A736F6E0000 PUSH1 0x20 DUP3 ADD MSTORE PUSH2 0x4D DUP2 PUSH2 0x53 JUMP JUMPDEST POP PUSH2 0x1BA JUMP JUMPDEST PUSH1 0x2 PUSH2 0x5F DUP3 DUP3 PUSH2 0xFB JUMP JUMPDEST POP POP JUMP JUMPDEST PUSH4 0x4E487B71 PUSH1 0xE0 SHL PUSH0 MSTORE PUSH1 0x41 PUSH1 0x4 MSTORE PUSH1 0x24 PUSH0 REVERT JUMPDEST PUSH1 0x1 DUP2 DUP2 SHR SWAP1 DUP3 AND DUP1 PUSH2 0x8B JUMPI PUSH1 0x7F DUP3 AND SWAP2 POP JUMPDEST PUSH1 0x20 DUP3 LT DUP2 SUB PUSH2 0xA9 JUMPI PUSH4 0x4E487B71 PUSH1 0xE0 SHL PUSH0 MSTORE PUSH1 0x22 PUSH1 0x4 MSTORE PUSH1 0x24 PUSH0 REVERT JUMPDEST POP SWAP2 SWAP1 POP JUMP JUMPDEST PUSH1 0x1F DUP3 GT ISZERO PUSH2 0xF6 JUMPI DUP1 PUSH0 MSTORE PUSH1 0x20 PUSH0 KECCAK256 PUSH1 0x1F DUP5 ADD PUSH1 0x5 SHR DUP2 ADD PUSH1 0x20 DUP6 LT ISZERO PUSH2 0xD4 JUMPI POP DUP1 JUMPDEST PUSH1 0x1F DUP5 ADD PUSH1 0x5 SHR DUP3 ADD SWAP2 POP JUMPDEST DUP2 DUP2 LT ISZERO PUSH2 0xF3 JUMPI PUSH0 DUP2 SSTORE PUSH1 0x1 ADD PUSH2 0xE0 JUMP JUMPDEST POP POP JUMPDEST POP POP POP JUMP JUMPDEST DUP2 MLOAD PUSH1 0x1 PUSH1 0x1 PUSH1 0x40 SHL SUB DUP2 GT ISZERO PUSH2 0x114 JUMPI PUSH2 0x114 PUSH2 0x63 JUMP JUMPDEST PUSH2 0x128 DUP2 PUSH2 0x122 DUP5 SLOAD PUSH2 0x77 JUMP JUMPDEST DUP5 PUSH2 0xAF JUMP JUMPDEST PUSH1 0x20 DUP1 PUSH1 0x1F DUP4 GT PUSH1 0x1 DUP2 EQ PUSH2 0x15B JUMPI PUSH0 DUP5 ISZERO PUSH2 0x144 JUMPI POP DUP6 DUP4 ADD MLOAD JUMPDEST PUSH0 NOT PUSH1 0x3 DUP7 SWAP1 SHL SHR NOT AND PUSH1 0x1 DUP6 SWAP1 SHL OR DUP6 SSTORE PUSH2 0x1B2 JUMP JUMPDEST PUSH0 DUP6 DUP2 MSTORE PUSH1 0x20 DUP2 KECCAK256 PUSH1 0x1F NOT DUP7 AND SWAP2 JUMPDEST DUP3 DUP2 LT ISZERO PUSH2 0x189 JUMPI DUP9 DUP7 ADD MLOAD DUP3 SSTORE SWAP5 DUP5 ADD SWAP5 PUSH1 0x1 SWAP1 SWAP2 ADD SWAP1 DUP5 ADD PUSH2 0x16A JUMP JUMPDEST POP DUP6 DUP3 LT ISZERO PUSH2 0x1A6 JUMPI DUP8 DUP6 ADD MLOAD PUSH0 NOT PUSH1 0x3 DUP9 SWAP1 SHL PUSH1 0xF8 AND SHR NOT AND DUP2 SSTORE JUMPDEST POP POP PUSH1 0x1 DUP5 PUSH1 0x1 SHL ADD DUP6 SSTORE JUMPDEST POP POP POP POP POP POP JUMP JUMPDEST PUSH2 0x126F DUP1 PUSH2 0x1C7 PUSH0 CODECOPY PUSH0 RETURN INVALID PUSH1 0x80 PUSH1 0x40 MSTORE CALLVALUE DUP1 ISZERO PUSH2 0xF JUMPI PUSH0 DUP1 REVERT JUMPDEST POP PUSH1 0x4 CALLDATASIZE LT PUSH2 0x9E JUMPI PUSH0 CALLDATALOAD PUSH1 0xE0 SHR DUP1 PUSH4 0x43508B05 GT PUSH2 0x72 JUMPI DUP1 PUSH4 0xA22CB465 GT PUSH2 0x58 JUMPI DUP1 PUSH4 0xA22CB465 EQ PUSH2 0x153 JUMPI DUP1 PUSH4 0xE985E9C5 EQ PUSH2 0x166 JUMPI DUP1 PUSH4 0xF242432A EQ PUSH2 0x1A1 JUMPI PUSH0 DUP1 REVERT JUMPDEST DUP1 PUSH4 0x43508B05 EQ PUSH2 0x120 JUMPI DUP1 PUSH4 0x4E1273F4 EQ PUSH2 0x133 JUMPI PUSH0 DUP1 REVERT JUMPDEST DUP1 PUSH3 0xFDD58E EQ PUSH2 0xA2 JUMPI DUP1 PUSH4 0x1FFC9A7 EQ PUSH2 0xC8 JUMPI DUP1 PUSH4 0xE89341C EQ PUSH2 0xEB JUMPI DUP1 PUSH4 0x2EB2C2D6 EQ PUSH2 0x10B JUMPI JUMPDEST PUSH0 DUP1 REVERT JUMPDEST PUSH2 0xB5 PUSH2 0xB0 CALLDATASIZE PUSH1 0x4 PUSH2 0xC7B JUMP JUMPDEST PUSH2 0x1B4 JUMP JUMPDEST PUSH1 0x40 MLOAD SWAP1 DUP2 MSTORE PUSH1 0x20 ADD JUMPDEST PUSH1 0x40 MLOAD DUP1 SWAP2 SUB SWAP1 RETURN JUMPDEST PUSH2 0xDB PUSH2 0xD6 CALLDATASIZE PUSH1 0x4 PUSH2 0xCBB JUMP JUMPDEST PUSH2 0x1DB JUMP JUMPDEST PUSH1 0x40 MLOAD SWAP1 ISZERO ISZERO DUP2 MSTORE PUSH1 0x20 ADD PUSH2 0xBF JUMP JUMPDEST PUSH2 0xFE PUSH2 0xF9 CALLDATASIZE PUSH1 0x4 PUSH2 0xCDD JUMP JUMPDEST PUSH2 0x275 JUMP JUMPDEST PUSH1 0x40 MLOAD PUSH2 0xBF SWAP2 SWAP1 PUSH2 0xD22 JUMP JUMPDEST PUSH2 0x11E PUSH2 0x119 CALLDATASIZE PUSH1 0x4 PUSH2 0xE74 JUMP JUMPDEST PUSH2 0x307 JUMP JUMPDEST STOP JUMPDEST PUSH2 0x11E PUSH2 0x12E CALLDATASIZE PUSH1 0x4 PUSH2 0xC7B JUMP JUMPDEST PUSH2 0x391 JUMP JUMPDEST PUSH2 0x146 PUSH2 0x141 CALLDATASIZE PUSH1 0x4 PUSH2 0xF17 JUMP JUMPDEST PUSH2 0x4B1 JUMP JUMPDEST PUSH1 0x40 MLOAD PUSH2 0xBF SWAP2 SWAP1 PUSH2 0x100B JUMP JUMPDEST PUSH2 0x11E PUSH2 0x161 CALLDATASIZE PUSH1 0x4 PUSH2 0x101D JUMP JUMPDEST PUSH2 0x57C JUMP JUMPDEST PUSH2 0xDB PUSH2 0x174 CALLDATASIZE PUSH1 0x4 PUSH2 0x1056 JUMP JUMPDEST PUSH1 0x1 PUSH1 0x1 PUSH1 0xA0 SHL SUB SWAP2 DUP3 AND PUSH0 SWAP1 DUP2 MSTORE PUSH1 0x1 PUSH1 0x20 SWAP1 DUP2 MSTORE PUSH1 0x40 DUP1 DUP4 KECCAK256 SWAP4 SWAP1 SWAP5 AND DUP3 MSTORE SWAP2 SWAP1 SWAP2 MSTORE KECCAK256 SLOAD PUSH1 0xFF AND SWAP1 JUMP JUMPDEST PUSH2 0x11E PUSH2 0x1AF CALLDATASIZE PUSH1 0x4 PUSH2 0x1087 JUMP JUMPDEST PUSH2 0x58B JUMP JUMPDEST PUSH0 DUP2 DUP2 MSTORE PUSH1 0x20 DUP2 DUP2 MSTORE PUSH1 0x40 DUP1 DUP4 KECCAK256 PUSH1 0x1 PUSH1 0x1 PUSH1 0xA0 SHL SUB DUP7 AND DUP5 MSTORE SWAP1 SWAP2 MSTORE SWAP1 KECCAK256 SLOAD JUMPDEST SWAP3 SWAP2 POP POP JUMP JUMPDEST PUSH0 PUSH1 0x1 PUSH1 0x1 PUSH1 0xE0 SHL SUB NOT DUP3 AND PUSH32 0xD9B67A2600000000000000000000000000000000000000000000000000000000 EQ DUP1 PUSH2 0x23D JUMPI POP PUSH1 0x1 PUSH1 0x1 PUSH1 0xE0 SHL SUB NOT DUP3 AND PUSH32 0xE89341C00000000000000000000000000000000000000000000000000000000 EQ JUMPDEST DUP1 PUSH2 0x1D5 JUMPI POP PUSH32 0x1FFC9A700000000000000000000000000000000000000000000000000000000 PUSH1 0x1 PUSH1 0x1 PUSH1 0xE0 SHL SUB NOT DUP4 AND EQ PUSH2 0x1D5 JUMP JUMPDEST PUSH1 0x60 PUSH1 0x2 DUP1 SLOAD PUSH2 0x284 SWAP1 PUSH2 0x10E7 JUMP JUMPDEST DUP1 PUSH1 0x1F ADD PUSH1 0x20 DUP1 SWAP2 DIV MUL PUSH1 0x20 ADD PUSH1 0x40 MLOAD SWAP1 DUP2 ADD PUSH1 0x40 MSTORE DUP1 SWAP3 SWAP2 SWAP1 DUP2 DUP2 MSTORE PUSH1 0x20 ADD DUP3 DUP1 SLOAD PUSH2 0x2B0 SWAP1 PUSH2 0x10E7 JUMP JUMPDEST DUP1 ISZERO PUSH2 0x2FB JUMPI DUP1 PUSH1 0x1F LT PUSH2 0x2D2 JUMPI PUSH2 0x100 DUP1 DUP4 SLOAD DIV MUL DUP4 MSTORE SWAP2 PUSH1 0x20 ADD SWAP2 PUSH2 0x2FB JUMP JUMPDEST DUP3 ADD SWAP2 SWAP1 PUSH0 MSTORE PUSH1 0x20 PUSH0 KECCAK256 SWAP1 JUMPDEST DUP2 SLOAD DUP2 MSTORE SWAP1 PUSH1 0x1 ADD SWAP1 PUSH1 0x20 ADD DUP1 DUP4 GT PUSH2 0x2DE JUMPI DUP3 SWAP1 SUB PUSH1 0x1F AND DUP3 ADD SWAP2 JUMPDEST POP POP POP POP POP SWAP1 POP SWAP2 SWAP1 POP JUMP JUMPDEST CALLER PUSH1 0x1 PUSH1 0x1 PUSH1 0xA0 SHL SUB DUP7 AND DUP2 EQ DUP1 ISZERO SWAP1 PUSH2 0x346 JUMPI POP PUSH1 0x1 PUSH1 0x1 PUSH1 0xA0 SHL SUB DUP1 DUP8 AND PUSH0 SWAP1 DUP2 MSTORE PUSH1 0x1 PUSH1 0x20 SWAP1 DUP2 MSTORE PUSH1 0x40 DUP1 DUP4 KECCAK256 SWAP4 DUP6 AND DUP4 MSTORE SWAP3 SWAP1 MSTORE KECCAK256 SLOAD PUSH1 0xFF AND ISZERO JUMPDEST ISZERO PUSH2 0x37C JUMPI PUSH1 0x40 MLOAD PUSH4 0x711BEC91 PUSH1 0xE1 SHL DUP2 MSTORE PUSH1 0x1 PUSH1 0x1 PUSH1 0xA0 SHL SUB DUP1 DUP4 AND PUSH1 0x4 DUP4 ADD MSTORE DUP8 AND PUSH1 0x24 DUP3 ADD MSTORE PUSH1 0x44 ADD JUMPDEST PUSH1 0x40 MLOAD DUP1 SWAP2 SUB SWAP1 REVERT JUMPDEST PUSH2 0x389 DUP7 DUP7 DUP7 DUP7 DUP7 PUSH2 0x608 JUMP JUMPDEST POP POP POP POP POP POP JUMP JUMPDEST DUP1 PUSH0 SUB PUSH2 0x3CA JUMPI PUSH1 0x40 MLOAD PUSH32 0x524F409B00000000000000000000000000000000000000000000000000000000 DUP2 MSTORE PUSH1 0x4 ADD PUSH1 0x40 MLOAD DUP1 SWAP2 SUB SWAP1 REVERT JUMPDEST PUSH0 DUP2 PUSH8 0xFFFFFFFFFFFFFFFF DUP2 GT ISZERO PUSH2 0x3E4 JUMPI PUSH2 0x3E4 PUSH2 0xD34 JUMP JUMPDEST PUSH1 0x40 MLOAD SWAP1 DUP1 DUP3 MSTORE DUP1 PUSH1 0x20 MUL PUSH1 0x20 ADD DUP3 ADD PUSH1 0x40 MSTORE DUP1 ISZERO PUSH2 0x40D JUMPI DUP2 PUSH1 0x20 ADD PUSH1 0x20 DUP3 MUL DUP1 CALLDATASIZE DUP4 CALLDATACOPY ADD SWAP1 POP JUMPDEST POP SWAP1 POP PUSH0 DUP3 PUSH8 0xFFFFFFFFFFFFFFFF DUP2 GT ISZERO PUSH2 0x42A JUMPI PUSH2 0x42A PUSH2 0xD34 JUMP JUMPDEST PUSH1 0x40 MLOAD SWAP1 DUP1 DUP3 MSTORE DUP1 PUSH1 0x20 MUL PUSH1 0x20 ADD DUP3 ADD PUSH1 0x40 MSTORE DUP1 ISZERO PUSH2 0x453 JUMPI DUP2 PUSH1 0x20 ADD PUSH1 0x20 DUP3 MUL DUP1 CALLDATASIZE DUP4 CALLDATACOPY ADD SWAP1 POP JUMPDEST POP PUSH1 0x3 SLOAD SWAP1 SWAP2 POP DUP4 DUP2 ADD PUSH1 0x20 DUP5 DUP2 ADD SWAP1 DUP5 ADD DUP4 JUMPDEST DUP4 DUP2 LT ISZERO PUSH2 0x487 JUMPI DUP1 DUP4 MSTORE PUSH1 0x1 DUP1 DUP4 MSTORE PUSH1 0x20 SWAP4 DUP5 ADD SWAP4 SWAP1 SWAP3 ADD SWAP2 ADD PUSH2 0x467 JUMP JUMPDEST POP POP POP PUSH1 0x3 SSTORE POP PUSH1 0x40 DUP1 MLOAD PUSH1 0x20 DUP2 ADD SWAP1 SWAP2 MSTORE PUSH0 DUP2 MSTORE PUSH2 0x4AB SWAP1 DUP6 SWAP1 DUP5 SWAP1 DUP5 SWAP1 PUSH2 0x66D JUMP JUMPDEST POP POP POP POP JUMP JUMPDEST PUSH1 0x60 DUP2 MLOAD DUP4 MLOAD EQ PUSH2 0x4E2 JUMPI DUP2 MLOAD DUP4 MLOAD PUSH1 0x40 MLOAD PUSH4 0x5B059991 PUSH1 0xE0 SHL DUP2 MSTORE PUSH1 0x4 DUP2 ADD SWAP3 SWAP1 SWAP3 MSTORE PUSH1 0x24 DUP3 ADD MSTORE PUSH1 0x44 ADD PUSH2 0x373 JUMP JUMPDEST PUSH0 DUP4 MLOAD PUSH8 0xFFFFFFFFFFFFFFFF DUP2 GT ISZERO PUSH2 0x4FD JUMPI PUSH2 0x4FD PUSH2 0xD34 JUMP JUMPDEST PUSH1 0x40 MLOAD SWAP1 DUP1 DUP3 MSTORE DUP1 PUSH1 0x20 MUL PUSH1 0x20 ADD DUP3 ADD PUSH1 0x40 MSTORE DUP1 ISZERO PUSH2 0x526 JUMPI DUP2 PUSH1 0x20 ADD PUSH1 0x20 DUP3 MUL DUP1 CALLDATASIZE DUP4 CALLDATACOPY ADD SWAP1 POP JUMPDEST POP SWAP1 POP PUSH0 JUMPDEST DUP5 MLOAD DUP2 LT ISZERO PUSH2 0x574 JUMPI PUSH1 0x20 DUP1 DUP3 MUL DUP7 ADD ADD MLOAD PUSH2 0x54F SWAP1 PUSH1 0x20 DUP1 DUP5 MUL DUP8 ADD ADD MLOAD PUSH2 0x1B4 JUMP JUMPDEST DUP3 DUP3 DUP2 MLOAD DUP2 LT PUSH2 0x561 JUMPI PUSH2 0x561 PUSH2 0x111F JUMP JUMPDEST PUSH1 0x20 SWAP1 DUP2 MUL SWAP2 SWAP1 SWAP2 ADD ADD MSTORE PUSH1 0x1 ADD PUSH2 0x52B JUMP JUMPDEST POP SWAP4 SWAP3 POP POP POP JUMP JUMPDEST PUSH2 0x587 CALLER DUP4 DUP4 PUSH2 0x6A3 JUMP JUMPDEST POP POP JUMP JUMPDEST CALLER PUSH1 0x1 PUSH1 0x1 PUSH1 0xA0 SHL SUB DUP7 AND DUP2 EQ DUP1 ISZERO SWAP1 PUSH2 0x5CA JUMPI POP PUSH1 0x1 PUSH1 0x1 PUSH1 0xA0 SHL SUB DUP1 DUP8 AND PUSH0 SWAP1 DUP2 MSTORE PUSH1 0x1 PUSH1 0x20 SWAP1 DUP2 MSTORE PUSH1 0x40 DUP1 DUP4 KECCAK256 SWAP4 DUP6 AND DUP4 MSTORE SWAP3 SWAP1 MSTORE KECCAK256 SLOAD PUSH1 0xFF AND ISZERO JUMPDEST ISZERO PUSH2 0x5FB JUMPI PUSH1 0x40 MLOAD PUSH4 0x711BEC91 PUSH1 0xE1 SHL DUP2 MSTORE PUSH1 0x1 PUSH1 0x1 PUSH1 0xA0 SHL SUB DUP1 DUP4 AND PUSH1 0x4 DUP4 ADD MSTORE DUP8 AND PUSH1 0x24 DUP3 ADD MSTORE PUSH1 0x44 ADD PUSH2 0x373 JUMP JUMPDEST PUSH2 0x389 DUP7 DUP7 DUP7 DUP7 DUP7 PUSH2 0x751 JUMP JUMPDEST PUSH1 0x1 PUSH1 0x1 PUSH1 0xA0 SHL SUB DUP5 AND PUSH2 0x631 JUMPI PUSH1 0x40 MLOAD PUSH4 0x2BFA23E7 PUSH1 0xE1 SHL DUP2 MSTORE PUSH0 PUSH1 0x4 DUP3 ADD MSTORE PUSH1 0x24 ADD PUSH2 0x373 JUMP JUMPDEST PUSH1 0x1 PUSH1 0x1 PUSH1 0xA0 SHL SUB DUP6 AND PUSH2 0x659 JUMPI PUSH1 0x40 MLOAD PUSH3 0x6A0D45 PUSH1 0xE2 SHL DUP2 MSTORE PUSH0 PUSH1 0x4 DUP3 ADD MSTORE PUSH1 0x24 ADD PUSH2 0x373 JUMP JUMPDEST PUSH2 0x666 DUP6 DUP6 DUP6 DUP6 DUP6 PUSH2 0x7DD JUMP JUMPDEST POP POP POP POP POP JUMP JUMPDEST PUSH1 0x1 PUSH1 0x1 PUSH1 0xA0 SHL SUB DUP5 AND PUSH2 0x696 JUMPI PUSH1 0x40 MLOAD PUSH4 0x2BFA23E7 PUSH1 0xE1 SHL DUP2 MSTORE PUSH0 PUSH1 0x4 DUP3 ADD MSTORE PUSH1 0x24 ADD PUSH2 0x373 JUMP JUMPDEST PUSH2 0x4AB PUSH0 DUP6 DUP6 DUP6 DUP6 PUSH2 0x7DD JUMP JUMPDEST PUSH1 0x1 PUSH1 0x1 PUSH1 0xA0 SHL SUB DUP3 AND PUSH2 0x6E5 JUMPI PUSH1 0x40 MLOAD PUSH32 0xCED3E10000000000000000000000000000000000000000000000000000000000 DUP2 MSTORE PUSH0 PUSH1 0x4 DUP3 ADD MSTORE PUSH1 0x24 ADD PUSH2 0x373 JUMP JUMPDEST PUSH1 0x1 PUSH1 0x1 PUSH1 0xA0 SHL SUB DUP4 DUP2 AND PUSH0 DUP2 DUP2 MSTORE PUSH1 0x1 PUSH1 0x20 SWAP1 DUP2 MSTORE PUSH1 0x40 DUP1 DUP4 KECCAK256 SWAP5 DUP8 AND DUP1 DUP5 MSTORE SWAP5 DUP3 MSTORE SWAP2 DUP3 SWAP1 KECCAK256 DUP1 SLOAD PUSH1 0xFF NOT AND DUP7 ISZERO ISZERO SWAP1 DUP2 OR SWAP1 SWAP2 SSTORE SWAP2 MLOAD SWAP2 DUP3 MSTORE PUSH32 0x17307EAB39AB6107E8899845AD3D59BD9653F200F220920489CA2B5937696C31 SWAP2 ADD PUSH1 0x40 MLOAD DUP1 SWAP2 SUB SWAP1 LOG3 POP POP POP JUMP JUMPDEST PUSH1 0x1 PUSH1 0x1 PUSH1 0xA0 SHL SUB DUP5 AND PUSH2 0x77A JUMPI PUSH1 0x40 MLOAD PUSH4 0x2BFA23E7 PUSH1 0xE1 SHL DUP2 MSTORE PUSH0 PUSH1 0x4 DUP3 ADD MSTORE PUSH1 0x24 ADD PUSH2 0x373 JUMP JUMPDEST PUSH1 0x1 PUSH1 0x1 PUSH1 0xA0 SHL SUB DUP6 AND PUSH2 0x7A2 JUMPI PUSH1 0x40 MLOAD PUSH3 0x6A0D45 PUSH1 0xE2 SHL DUP2 MSTORE PUSH0 PUSH1 0x4 DUP3 ADD MSTORE PUSH1 0x24 ADD PUSH2 0x373 JUMP JUMPDEST PUSH1 0x40 DUP1 MLOAD PUSH1 0x1 DUP1 DUP3 MSTORE PUSH1 0x20 DUP3 ADD DUP7 SWAP1 MSTORE DUP2 DUP4 ADD SWAP1 DUP2 MSTORE PUSH1 0x60 DUP3 ADD DUP6 SWAP1 MSTORE PUSH1 0x80 DUP3 ADD SWAP1 SWAP3 MSTORE SWAP1 PUSH2 0x7D4 DUP8 DUP8 DUP5 DUP5 DUP8 PUSH2 0x7DD JUMP JUMPDEST POP POP POP POP POP POP POP JUMP JUMPDEST PUSH2 0x7E9 DUP6 DUP6 DUP6 DUP6 PUSH2 0x830 JUMP JUMPDEST PUSH1 0x1 PUSH1 0x1 PUSH1 0xA0 SHL SUB DUP5 AND ISZERO PUSH2 0x666 JUMPI DUP3 MLOAD CALLER SWAP1 PUSH1 0x1 SUB PUSH2 0x822 JUMPI PUSH1 0x20 DUP5 DUP2 ADD MLOAD SWAP1 DUP5 ADD MLOAD PUSH2 0x81B DUP4 DUP10 DUP10 DUP6 DUP6 DUP10 PUSH2 0xA58 JUMP JUMPDEST POP POP PUSH2 0x389 JUMP JUMPDEST PUSH2 0x389 DUP2 DUP8 DUP8 DUP8 DUP8 DUP8 PUSH2 0xB79 JUMP JUMPDEST DUP1 MLOAD DUP3 MLOAD EQ PUSH2 0x85F JUMPI DUP2 MLOAD DUP2 MLOAD PUSH1 0x40 MLOAD PUSH4 0x5B059991 PUSH1 0xE0 SHL DUP2 MSTORE PUSH1 0x4 DUP2 ADD SWAP3 SWAP1 SWAP3 MSTORE PUSH1 0x24 DUP3 ADD MSTORE PUSH1 0x44 ADD PUSH2 0x373 JUMP JUMPDEST CALLER PUSH0 JUMPDEST DUP4 MLOAD DUP2 LT ISZERO PUSH2 0x97A JUMPI PUSH1 0x20 DUP2 DUP2 MUL DUP6 DUP2 ADD DUP3 ADD MLOAD SWAP1 DUP6 ADD SWAP1 SWAP2 ADD MLOAD PUSH1 0x1 PUSH1 0x1 PUSH1 0xA0 SHL SUB DUP9 AND ISZERO PUSH2 0x92C JUMPI PUSH0 DUP3 DUP2 MSTORE PUSH1 0x20 DUP2 DUP2 MSTORE PUSH1 0x40 DUP1 DUP4 KECCAK256 PUSH1 0x1 PUSH1 0x1 PUSH1 0xA0 SHL SUB DUP13 AND DUP5 MSTORE SWAP1 SWAP2 MSTORE SWAP1 KECCAK256 SLOAD DUP2 DUP2 LT ISZERO PUSH2 0x906 JUMPI PUSH1 0x40 MLOAD PUSH32 0x3DEE4C500000000000000000000000000000000000000000000000000000000 DUP2 MSTORE PUSH1 0x1 PUSH1 0x1 PUSH1 0xA0 SHL SUB DUP11 AND PUSH1 0x4 DUP3 ADD MSTORE PUSH1 0x24 DUP2 ADD DUP3 SWAP1 MSTORE PUSH1 0x44 DUP2 ADD DUP4 SWAP1 MSTORE PUSH1 0x64 DUP2 ADD DUP5 SWAP1 MSTORE PUSH1 0x84 ADD PUSH2 0x373 JUMP JUMPDEST PUSH0 DUP4 DUP2 MSTORE PUSH1 0x20 DUP2 DUP2 MSTORE PUSH1 0x40 DUP1 DUP4 KECCAK256 PUSH1 0x1 PUSH1 0x1 PUSH1 0xA0 SHL SUB DUP14 AND DUP5 MSTORE SWAP1 SWAP2 MSTORE SWAP1 KECCAK256 SWAP1 DUP3 SWAP1 SUB SWAP1 SSTORE JUMPDEST PUSH1 0x1 PUSH1 0x1 PUSH1 0xA0 SHL SUB DUP8 AND ISZERO PUSH2 0x970 JUMPI PUSH0 DUP3 DUP2 MSTORE PUSH1 0x20 DUP2 DUP2 MSTORE PUSH1 0x40 DUP1 DUP4 KECCAK256 PUSH1 0x1 PUSH1 0x1 PUSH1 0xA0 SHL SUB DUP12 AND DUP5 MSTORE SWAP1 SWAP2 MSTORE DUP2 KECCAK256 DUP1 SLOAD DUP4 SWAP3 SWAP1 PUSH2 0x96A SWAP1 DUP5 SWAP1 PUSH2 0x1133 JUMP JUMPDEST SWAP1 SWAP2 SSTORE POP POP JUMPDEST POP POP PUSH1 0x1 ADD PUSH2 0x862 JUMP JUMPDEST POP DUP3 MLOAD PUSH1 0x1 SUB PUSH2 0x9FA JUMPI PUSH1 0x20 DUP4 ADD MLOAD PUSH0 SWAP1 PUSH1 0x20 DUP5 ADD MLOAD SWAP1 SWAP2 POP DUP6 PUSH1 0x1 PUSH1 0x1 PUSH1 0xA0 SHL SUB AND DUP8 PUSH1 0x1 PUSH1 0x1 PUSH1 0xA0 SHL SUB AND DUP5 PUSH1 0x1 PUSH1 0x1 PUSH1 0xA0 SHL SUB AND PUSH32 0xC3D58168C5AE7397731D063D5BBF3D657854427343F4C083240F7AACAA2D0F62 DUP6 DUP6 PUSH1 0x40 MLOAD PUSH2 0x9EB SWAP3 SWAP2 SWAP1 SWAP2 DUP3 MSTORE PUSH1 0x20 DUP3 ADD MSTORE PUSH1 0x40 ADD SWAP1 JUMP JUMPDEST PUSH1 0x40 MLOAD DUP1 SWAP2 SUB SWAP1 LOG4 POP POP PUSH2 0x666 JUMP JUMPDEST DUP4 PUSH1 0x1 PUSH1 0x1 PUSH1 0xA0 SHL SUB AND DUP6 PUSH1 0x1 PUSH1 0x1 PUSH1 0xA0 SHL SUB AND DUP3 PUSH1 0x1 PUSH1 0x1 PUSH1 0xA0 SHL SUB AND PUSH32 0x4A39DC06D4C0DBC64B70AF90FD698A233A518AA5D07E595D983B8C0526C8F7FB DUP7 DUP7 PUSH1 0x40 MLOAD PUSH2 0xA49 SWAP3 SWAP2 SWAP1 PUSH2 0x1152 JUMP JUMPDEST PUSH1 0x40 MLOAD DUP1 SWAP2 SUB SWAP1 LOG4 POP POP POP POP POP JUMP JUMPDEST PUSH1 0x1 PUSH1 0x1 PUSH1 0xA0 SHL SUB DUP5 AND EXTCODESIZE ISZERO PUSH2 0x389 JUMPI PUSH1 0x40 MLOAD PUSH4 0xF23A6E61 PUSH1 0xE0 SHL DUP2 MSTORE PUSH1 0x1 PUSH1 0x1 PUSH1 0xA0 SHL SUB DUP6 AND SWAP1 PUSH4 0xF23A6E61 SWAP1 PUSH2 0xA9C SWAP1 DUP10 SWAP1 DUP10 SWAP1 DUP9 SWAP1 DUP9 SWAP1 DUP9 SWAP1 PUSH1 0x4 ADD PUSH2 0x117F JUMP JUMPDEST PUSH1 0x20 PUSH1 0x40 MLOAD DUP1 DUP4 SUB DUP2 PUSH0 DUP8 GAS CALL SWAP3 POP POP POP DUP1 ISZERO PUSH2 0xAD6 JUMPI POP PUSH1 0x40 DUP1 MLOAD PUSH1 0x1F RETURNDATASIZE SWAP1 DUP2 ADD PUSH1 0x1F NOT AND DUP3 ADD SWAP1 SWAP3 MSTORE PUSH2 0xAD3 SWAP2 DUP2 ADD SWAP1 PUSH2 0x11C1 JUMP JUMPDEST PUSH1 0x1 JUMPDEST PUSH2 0xB3D JUMPI RETURNDATASIZE DUP1 DUP1 ISZERO PUSH2 0xB03 JUMPI PUSH1 0x40 MLOAD SWAP2 POP PUSH1 0x1F NOT PUSH1 0x3F RETURNDATASIZE ADD AND DUP3 ADD PUSH1 0x40 MSTORE RETURNDATASIZE DUP3 MSTORE RETURNDATASIZE PUSH0 PUSH1 0x20 DUP5 ADD RETURNDATACOPY PUSH2 0xB08 JUMP JUMPDEST PUSH1 0x60 SWAP2 POP JUMPDEST POP DUP1 MLOAD PUSH0 SUB PUSH2 0xB35 JUMPI PUSH1 0x40 MLOAD PUSH4 0x2BFA23E7 PUSH1 0xE1 SHL DUP2 MSTORE PUSH1 0x1 PUSH1 0x1 PUSH1 0xA0 SHL SUB DUP7 AND PUSH1 0x4 DUP3 ADD MSTORE PUSH1 0x24 ADD PUSH2 0x373 JUMP JUMPDEST DUP1 MLOAD DUP2 PUSH1 0x20 ADD REVERT JUMPDEST PUSH1 0x1 PUSH1 0x1 PUSH1 0xE0 SHL SUB NOT DUP2 AND PUSH4 0xF23A6E61 PUSH1 0xE0 SHL EQ PUSH2 0x7D4 JUMPI PUSH1 0x40 MLOAD PUSH4 0x2BFA23E7 PUSH1 0xE1 SHL DUP2 MSTORE PUSH1 0x1 PUSH1 0x1 PUSH1 0xA0 SHL SUB DUP7 AND PUSH1 0x4 DUP3 ADD MSTORE PUSH1 0x24 ADD PUSH2 0x373 JUMP JUMPDEST PUSH1 0x1 PUSH1 0x1 PUSH1 0xA0 SHL SUB DUP5 AND EXTCODESIZE ISZERO PUSH2 0x389 JUMPI PUSH1 0x40 MLOAD PUSH4 0xBC197C81 PUSH1 0xE0 SHL DUP2 MSTORE PUSH1 0x1 PUSH1 0x1 PUSH1 0xA0 SHL SUB DUP6 AND SWAP1 PUSH4 0xBC197C81 SWAP1 PUSH2 0xBBD SWAP1 DUP10 SWAP1 DUP10 SWAP1 DUP9 SWAP1 DUP9 SWAP1 DUP9 SWAP1 PUSH1 0x4 ADD PUSH2 0x11DC JUMP JUMPDEST PUSH1 0x20 PUSH1 0x40 MLOAD DUP1 DUP4 SUB DUP2 PUSH0 DUP8 GAS CALL SWAP3 POP POP POP DUP1 ISZERO PUSH2 0xBF7 JUMPI POP PUSH1 0x40 DUP1 MLOAD PUSH1 0x1F RETURNDATASIZE SWAP1 DUP2 ADD PUSH1 0x1F NOT AND DUP3 ADD SWAP1 SWAP3 MSTORE PUSH2 0xBF4 SWAP2 DUP2 ADD SWAP1 PUSH2 0x11C1 JUMP JUMPDEST PUSH1 0x1 JUMPDEST PUSH2 0xC24 JUMPI RETURNDATASIZE DUP1 DUP1 ISZERO PUSH2 0xB03 JUMPI PUSH1 0x40 MLOAD SWAP2 POP PUSH1 0x1F NOT PUSH1 0x3F RETURNDATASIZE ADD AND DUP3 ADD PUSH1 0x40 MSTORE RETURNDATASIZE DUP3 MSTORE RETURNDATASIZE PUSH0 PUSH1 0x20 DUP5 ADD RETURNDATACOPY PUSH2 0xB08 JUMP JUMPDEST PUSH1 0x1 PUSH1 0x1 PUSH1 0xE0 SHL SUB NOT DUP2 AND PUSH4 0xBC197C81 PUSH1 0xE0 SHL EQ PUSH2 0x7D4 JUMPI PUSH1 0x40 MLOAD PUSH4 0x2BFA23E7 PUSH1 0xE1 SHL DUP2 MSTORE PUSH1 0x1 PUSH1 0x1 PUSH1 0xA0 SHL SUB DUP7 AND PUSH1 0x4 DUP3 ADD MSTORE PUSH1 0x24 ADD PUSH2 0x373 JUMP JUMPDEST DUP1 CALLDATALOAD PUSH1 0x1 PUSH1 0x1 PUSH1 0xA0 SHL SUB DUP2 AND DUP2 EQ PUSH2 0xC76 JUMPI PUSH0 DUP1 REVERT JUMPDEST SWAP2 SWAP1 POP JUMP JUMPDEST PUSH0 DUP1 PUSH1 0x40 DUP4 DUP6 SUB SLT ISZERO PUSH2 0xC8C JUMPI PUSH0 DUP1 REVERT JUMPDEST PUSH2 0xC95 DUP4 PUSH2 0xC60 JUMP JUMPDEST SWAP5 PUSH1 0x20 SWAP4 SWAP1 SWAP4 ADD CALLDATALOAD SWAP4 POP POP POP JUMP JUMPDEST PUSH1 0x1 PUSH1 0x1 PUSH1 0xE0 SHL SUB NOT DUP2 AND DUP2 EQ PUSH2 0xCB8 JUMPI PUSH0 DUP1 REVERT JUMPDEST POP JUMP JUMPDEST PUSH0 PUSH1 0x20 DUP3 DUP5 SUB SLT ISZERO PUSH2 0xCCB JUMPI PUSH0 DUP1 REVERT JUMPDEST DUP2 CALLDATALOAD PUSH2 0xCD6 DUP2 PUSH2 0xCA3 JUMP JUMPDEST SWAP4 SWAP3 POP POP POP JUMP JUMPDEST PUSH0 PUSH1 0x20 DUP3 DUP5 SUB SLT ISZERO PUSH2 0xCED JUMPI PUSH0 DUP1 REVERT JUMPDEST POP CALLDATALOAD SWAP2 SWAP1 POP JUMP JUMPDEST PUSH0 DUP2 MLOAD DUP1 DUP5 MSTORE DUP1 PUSH1 0x20 DUP5 ADD PUSH1 0x20 DUP7 ADD MCOPY PUSH0 PUSH1 0x20 DUP3 DUP7 ADD ADD MSTORE PUSH1 0x20 PUSH1 0x1F NOT PUSH1 0x1F DUP4 ADD AND DUP6 ADD ADD SWAP2 POP POP SWAP3 SWAP2 POP POP JUMP JUMPDEST PUSH1 0x20 DUP2 MSTORE PUSH0 PUSH2 0xCD6 PUSH1 0x20 DUP4 ADD DUP5 PUSH2 0xCF4 JUMP JUMPDEST PUSH4 0x4E487B71 PUSH1 0xE0 SHL PUSH0 MSTORE PUSH1 0x41 PUSH1 0x4 MSTORE PUSH1 0x24 PUSH0 REVERT JUMPDEST PUSH1 0x40 MLOAD PUSH1 0x1F DUP3 ADD PUSH1 0x1F NOT AND DUP2 ADD PUSH8 0xFFFFFFFFFFFFFFFF DUP2 GT DUP3 DUP3 LT OR ISZERO PUSH2 0xD71 JUMPI PUSH2 0xD71 PUSH2 0xD34 JUMP JUMPDEST PUSH1 0x40 MSTORE SWAP2 SWAP1 POP JUMP JUMPDEST PUSH0 PUSH8 0xFFFFFFFFFFFFFFFF DUP3 GT ISZERO PUSH2 0xD92 JUMPI PUSH2 0xD92 PUSH2 0xD34 JUMP JUMPDEST POP PUSH1 0x5 SHL PUSH1 0x20 ADD SWAP1 JUMP JUMPDEST PUSH0 DUP3 PUSH1 0x1F DUP4 ADD SLT PUSH2 0xDAB JUMPI PUSH0 DUP1 REVERT JUMPDEST DUP2 CALLDATALOAD PUSH1 0x20 PUSH2 0xDC0 PUSH2 0xDBB DUP4 PUSH2 0xD79 JUMP JUMPDEST PUSH2 0xD48 JUMP JUMPDEST DUP1 DUP4 DUP3 MSTORE PUSH1 0x20 DUP3 ADD SWAP2 POP PUSH1 0x20 DUP5 PUSH1 0x5 SHL DUP8 ADD ADD SWAP4 POP DUP7 DUP5 GT ISZERO PUSH2 0xDE1 JUMPI PUSH0 DUP1 REVERT JUMPDEST PUSH1 0x20 DUP7 ADD JUMPDEST DUP5 DUP2 LT ISZERO PUSH2 0xDFD JUMPI DUP1 CALLDATALOAD DUP4 MSTORE SWAP2 DUP4 ADD SWAP2 DUP4 ADD PUSH2 0xDE6 JUMP JUMPDEST POP SWAP7 SWAP6 POP POP POP POP POP POP JUMP JUMPDEST PUSH0 DUP3 PUSH1 0x1F DUP4 ADD SLT PUSH2 0xE17 JUMPI PUSH0 DUP1 REVERT JUMPDEST DUP2 CALLDATALOAD PUSH8 0xFFFFFFFFFFFFFFFF DUP2 GT ISZERO PUSH2 0xE31 JUMPI PUSH2 0xE31 PUSH2 0xD34 JUMP JUMPDEST PUSH2 0xE44 PUSH1 0x1F DUP3 ADD PUSH1 0x1F NOT AND PUSH1 0x20 ADD PUSH2 0xD48 JUMP JUMPDEST DUP2 DUP2 MSTORE DUP5 PUSH1 0x20 DUP4 DUP7 ADD ADD GT ISZERO PUSH2 0xE58 JUMPI PUSH0 DUP1 REVERT JUMPDEST DUP2 PUSH1 0x20 DUP6 ADD PUSH1 0x20 DUP4 ADD CALLDATACOPY PUSH0 SWAP2 DUP2 ADD PUSH1 0x20 ADD SWAP2 SWAP1 SWAP2 MSTORE SWAP4 SWAP3 POP POP POP JUMP JUMPDEST PUSH0 DUP1 PUSH0 DUP1 PUSH0 PUSH1 0xA0 DUP7 DUP9 SUB SLT ISZERO PUSH2 0xE88 JUMPI PUSH0 DUP1 REVERT JUMPDEST PUSH2 0xE91 DUP7 PUSH2 0xC60 JUMP JUMPDEST SWAP5 POP PUSH2 0xE9F PUSH1 0x20 DUP8 ADD PUSH2 0xC60 JUMP JUMPDEST SWAP4 POP PUSH1 0x40 DUP7 ADD CALLDATALOAD PUSH8 0xFFFFFFFFFFFFFFFF DUP1 DUP3 GT ISZERO PUSH2 0xEBB JUMPI PUSH0 DUP1 REVERT JUMPDEST PUSH2 0xEC7 DUP10 DUP4 DUP11 ADD PUSH2 0xD9C JUMP JUMPDEST SWAP5 POP PUSH1 0x60 DUP9 ADD CALLDATALOAD SWAP2 POP DUP1 DUP3 GT ISZERO PUSH2 0xEDC JUMPI PUSH0 DUP1 REVERT JUMPDEST PUSH2 0xEE8 DUP10 DUP4 DUP11 ADD PUSH2 0xD9C JUMP JUMPDEST SWAP4 POP PUSH1 0x80 DUP9 ADD CALLDATALOAD SWAP2 POP DUP1 DUP3 GT ISZERO PUSH2 0xEFD JUMPI PUSH0 DUP1 REVERT JUMPDEST POP PUSH2 0xF0A DUP9 DUP3 DUP10 ADD PUSH2 0xE08 JUMP JUMPDEST SWAP2 POP POP SWAP3 SWAP6 POP SWAP3 SWAP6 SWAP1 SWAP4 POP JUMP JUMPDEST PUSH0 DUP1 PUSH1 0x40 DUP4 DUP6 SUB SLT ISZERO PUSH2 0xF28 JUMPI PUSH0 DUP1 REVERT JUMPDEST DUP3 CALLDATALOAD PUSH8 0xFFFFFFFFFFFFFFFF DUP1 DUP3 GT ISZERO PUSH2 0xF3F JUMPI PUSH0 DUP1 REVERT JUMPDEST DUP2 DUP6 ADD SWAP2 POP DUP6 PUSH1 0x1F DUP4 ADD SLT PUSH2 0xF52 JUMPI PUSH0 DUP1 REVERT JUMPDEST DUP2 CALLDATALOAD PUSH1 0x20 PUSH2 0xF62 PUSH2 0xDBB DUP4 PUSH2 0xD79 JUMP JUMPDEST DUP3 DUP2 MSTORE PUSH1 0x5 SWAP3 SWAP1 SWAP3 SHL DUP5 ADD DUP2 ADD SWAP2 DUP2 DUP2 ADD SWAP1 DUP10 DUP5 GT ISZERO PUSH2 0xF80 JUMPI PUSH0 DUP1 REVERT JUMPDEST SWAP5 DUP3 ADD SWAP5 JUMPDEST DUP4 DUP7 LT ISZERO PUSH2 0xFA5 JUMPI PUSH2 0xF96 DUP7 PUSH2 0xC60 JUMP JUMPDEST DUP3 MSTORE SWAP5 DUP3 ADD SWAP5 SWAP1 DUP3 ADD SWAP1 PUSH2 0xF85 JUMP JUMPDEST SWAP7 POP POP DUP7 ADD CALLDATALOAD SWAP3 POP POP DUP1 DUP3 GT ISZERO PUSH2 0xFBA JUMPI PUSH0 DUP1 REVERT JUMPDEST POP PUSH2 0xFC7 DUP6 DUP3 DUP7 ADD PUSH2 0xD9C JUMP JUMPDEST SWAP2 POP POP SWAP3 POP SWAP3 SWAP1 POP JUMP JUMPDEST PUSH0 DUP2 MLOAD DUP1 DUP5 MSTORE PUSH1 0x20 DUP1 DUP6 ADD SWAP5 POP PUSH1 0x20 DUP5 ADD PUSH0 JUMPDEST DUP4 DUP2 LT ISZERO PUSH2 0x1000 JUMPI DUP2 MLOAD DUP8 MSTORE SWAP6 DUP3 ADD SWAP6 SWAP1 DUP3 ADD SWAP1 PUSH1 0x1 ADD PUSH2 0xFE4 JUMP JUMPDEST POP SWAP5 SWAP6 SWAP5 POP POP POP POP POP JUMP JUMPDEST PUSH1 0x20 DUP2 MSTORE PUSH0 PUSH2 0xCD6 PUSH1 0x20 DUP4 ADD DUP5 PUSH2 0xFD1 JUMP JUMPDEST PUSH0 DUP1 PUSH1 0x40 DUP4 DUP6 SUB SLT ISZERO PUSH2 0x102E JUMPI PUSH0 DUP1 REVERT JUMPDEST PUSH2 0x1037 DUP4 PUSH2 0xC60 JUMP JUMPDEST SWAP2 POP PUSH1 0x20 DUP4 ADD CALLDATALOAD DUP1 ISZERO ISZERO DUP2 EQ PUSH2 0x104B JUMPI PUSH0 DUP1 REVERT JUMPDEST DUP1 SWAP2 POP POP SWAP3 POP SWAP3 SWAP1 POP JUMP JUMPDEST PUSH0 DUP1 PUSH1 0x40 DUP4 DUP6 SUB SLT ISZERO PUSH2 0x1067 JUMPI PUSH0 DUP1 REVERT JUMPDEST PUSH2 0x1070 DUP4 PUSH2 0xC60 JUMP JUMPDEST SWAP2 POP PUSH2 0x107E PUSH1 0x20 DUP5 ADD PUSH2 0xC60 JUMP JUMPDEST SWAP1 POP SWAP3 POP SWAP3 SWAP1 POP JUMP JUMPDEST PUSH0 DUP1 PUSH0 DUP1 PUSH0 PUSH1 0xA0 DUP7 DUP9 SUB SLT ISZERO PUSH2 0x109B JUMPI PUSH0 DUP1 REVERT JUMPDEST PUSH2 0x10A4 DUP7 PUSH2 0xC60 JUMP JUMPDEST SWAP5 POP PUSH2 0x10B2 PUSH1 0x20 DUP8 ADD PUSH2 0xC60 JUMP JUMPDEST SWAP4 POP PUSH1 0x40 DUP7 ADD CALLDATALOAD SWAP3 POP PUSH1 0x60 DUP7 ADD CALLDATALOAD SWAP2 POP PUSH1 0x80 DUP7 ADD CALLDATALOAD PUSH8 0xFFFFFFFFFFFFFFFF DUP2 GT ISZERO PUSH2 0x10DB JUMPI PUSH0 DUP1 REVERT JUMPDEST PUSH2 0xF0A DUP9 DUP3 DUP10 ADD PUSH2 0xE08 JUMP JUMPDEST PUSH1 0x1 DUP2 DUP2 SHR SWAP1 DUP3 AND DUP1 PUSH2 0x10FB JUMPI PUSH1 0x7F DUP3 AND SWAP2 POP JUMPDEST PUSH1 0x20 DUP3 LT DUP2 SUB PUSH2 0x1119 JUMPI PUSH4 0x4E487B71 PUSH1 0xE0 SHL PUSH0 MSTORE PUSH1 0x22 PUSH1 0x4 MSTORE PUSH1 0x24 PUSH0 REVERT JUMPDEST POP SWAP2 SWAP1 POP JUMP JUMPDEST PUSH4 0x4E487B71 PUSH1 0xE0 SHL PUSH0 MSTORE PUSH1 0x32 PUSH1 0x4 MSTORE PUSH1 0x24 PUSH0 REVERT JUMPDEST DUP1 DUP3 ADD DUP1 DUP3 GT ISZERO PUSH2 0x1D5 JUMPI PUSH4 0x4E487B71 PUSH1 0xE0 SHL PUSH0 MSTORE PUSH1 0x11 PUSH1 0x4 MSTORE PUSH1 0x24 PUSH0 REVERT JUMPDEST PUSH1 0x40 DUP2 MSTORE PUSH0 PUSH2 0x1164 PUSH1 0x40 DUP4 ADD DUP6 PUSH2 0xFD1 JUMP JUMPDEST DUP3 DUP2 SUB PUSH1 0x20 DUP5 ADD MSTORE PUSH2 0x1176 DUP2 DUP6 PUSH2 0xFD1 JUMP JUMPDEST SWAP6 SWAP5 POP POP POP POP POP JUMP JUMPDEST PUSH0 PUSH1 0x1 PUSH1 0x1 PUSH1 0xA0 SHL SUB DUP1 DUP9 AND DUP4 MSTORE DUP1 DUP8 AND PUSH1 0x20 DUP5 ADD MSTORE POP DUP5 PUSH1 0x40 DUP4 ADD MSTORE DUP4 PUSH1 0x60 DUP4 ADD MSTORE PUSH1 0xA0 PUSH1 0x80 DUP4 ADD MSTORE PUSH2 0x11B6 PUSH1 0xA0 DUP4 ADD DUP5 PUSH2 0xCF4 JUMP JUMPDEST SWAP8 SWAP7 POP POP POP POP POP POP POP JUMP JUMPDEST PUSH0 PUSH1 0x20 DUP3 DUP5 SUB SLT ISZERO PUSH2 0x11D1 JUMPI PUSH0 DUP1 REVERT JUMPDEST DUP2 MLOAD PUSH2 0xCD6 DUP2 PUSH2 0xCA3 JUMP JUMPDEST PUSH0 PUSH1 0x1 PUSH1 0x1 PUSH1 0xA0 SHL SUB DUP1 DUP9 AND DUP4 MSTORE DUP1 DUP8 AND PUSH1 0x20 DUP5 ADD MSTORE POP PUSH1 0xA0 PUSH1 0x40 DUP4 ADD MSTORE PUSH2 0x1207 PUSH1 0xA0 DUP4 ADD DUP7 PUSH2 0xFD1 JUMP JUMPDEST DUP3 DUP2 SUB PUSH1 0x60 DUP5 ADD MSTORE PUSH2 0x1219 DUP2 DUP7 PUSH2 0xFD1 JUMP JUMPDEST SWAP1 POP DUP3 DUP2 SUB PUSH1 0x80 DUP5 ADD MSTORE PUSH2 0x122D DUP2 DUP6 PUSH2 0xCF4 JUMP JUMPDEST SWAP9 SWAP8 POP POP POP POP POP POP POP POP JUMP INVALID LOG2 PUSH5 0x6970667358 0x22 SLT KECCAK256 0x2A 0x23 SHL SIGNEXTEND 0x4C PUSH14 0x13F1DE215835C0382C9665CC1D96 PUSH14 0xC6711F10205F9E2F87298B64736F PUSH13 0x63430008190033000000000000 "
				},
				"gasEstimates": {
					"creation": {
						"codeDepositCost": "943800",
						"executionCost": "infinite",
						"totalCost": "infinite"
					},
					"external": {
						"balanceOf(address,uint256)": "2634",
						"balanceOfBatch(address[],uint256[])": "infinite",
						"batchMint(address,uint256)": "infinite",
						"isApprovedForAll(address,address)": "infinite",
						"safeBatchTransferFrom(address,address,uint256[],uint256[],bytes)": "infinite",
						"safeTransferFrom(address,address,uint256,uint256,bytes)": "infinite",
						"setApprovalForAll(address,bool)": "26678",
						"supportsInterface(bytes4)": "534",
						"uri(uint256)": "infinite"
					}
				},
				"methodIdentifiers": {
					"balanceOf(address,uint256)": "00fdd58e",
					"balanceOfBatch(address[],uint256[])": "4e1273f4",
					"batchMint(address,uint256)": "43508b05",
					"isApprovedForAll(address,address)": "e985e9c5",
					"safeBatchTransferFrom(address,address,uint256[],uint256[],bytes)": "2eb2c2d6",
					"safeTransferFrom(address,address,uint256,uint256,bytes)": "f242432a",
					"setApprovalForAll(address,bool)": "a22cb465",
					"supportsInterface(bytes4)": "01ffc9a7",
					"uri(uint256)": "0e89341c"
				}
			},
			"storageLayout": {
				"storage": [
					{
						"astId": 178,
						"contract": "contracts/ContractS/ContractSV3.sol:ContractSV3",
						"label": "_balances",
						"offset": 0,
						"slot": "0",
						"type": "t_mapping(t_uint256,t_mapping(t_address,t_uint256))"
					},
					{
						"astId": 184,
						"contract": "contracts/ContractS/ContractSV3.sol:ContractSV3",
						"label": "_operatorApprovals",
						"offset": 0,
						"slot": "1",
						"type": "t_mapping(t_address,t_mapping(t_address,t_bool))"
					},
					{
						"astId": 186,
						"contract": "contracts/ContractS/ContractSV3.sol:ContractSV3",
						"label": "_uri",
						"offset": 0,
						"slot": "2",
						"type": "t_string_storage"
					},
					{
						"astId": 2790,
						"contract": "contracts/ContractS/ContractSV3.sol:ContractSV3",
						"label": "_nextTokenId",
						"offset": 0,
						"slot": "3",
						"type": "t_uint256"
					}
				],
				"types": {
					"t_address": {
						"encoding": "inplace",
						"label": "address",
						"numberOfBytes": "20"
					},
					"t_bool": {
						"encoding": "inplace",
						"label": "bool",
						"numberOfBytes": "1"
					},
					"t_mapping(t_address,t_bool)": {
						"encoding": "mapping",
						"key": "t_address",
						"label": "mapping(address => bool)",
						"numberOfBytes": "32",
						"value": "t_bool"
					},
					"t_mapping(t_address,t_mapping(t_address,t_bool))": {
						"encoding": "mapping",
						"key": "t_address",
						"label": "mapping(address => mapping(address => bool))",
						"numberOfBytes": "32",
						"value": "t_mapping(t_address,t_bool)"
					},
					"t_mapping(t_address,t_uint256)": {
						"encoding": "mapping",
						"key": "t_address",
						"label": "mapping(address => uint256)",
						"numberOfBytes": "32",
						"value": "t_uint256"
					},
					"t_mapping(t_uint256,t_mapping(t_address,t_uint256))": {
						"encoding": "mapping",
						"key": "t_uint256",
						"label": "mapping(uint256 => mapping(address => uint256))",
						"numberOfBytes": "32",
						"value": "t_mapping(t_address,t_uint256)"
					},
					"t_string_storage": {
						"encoding": "bytes",
						"label": "string",
						"numberOfBytes": "32"
					},
					"t_uint256": {
						"encoding": "inplace",
						"label": "uint256",
						"numberOfBytes": "32"
					}
				}
			},
			"userdoc": {
				"kind": "user",
				"methods": {},
				"version": 1
			}
		}
	}
}