{
	"contracts/ContractB/ContractBV2.sol": {
		"ContractBV2": {
			"abi": [
				{
					"inputs": [],
					"name": "readNumber",
					"outputs": [
						{
							"internalType": "uint88",
							"name": "",
							"type": "uint88"
						}
					],
					"stateMutability": "view",
					"type": "function"
				}
			],
			"devdoc": {
				"kind": "dev",
				"methods": {},
				"version": 1
			},
			"evm": {
				"assembly": "    /* \"contracts/ContractB/ContractBV2.sol\":63:201  contract ContractBV2 {... */\n  mstore(0x40, 0x80)\n  callvalue\n  dup1\n  iszero\n  tag_1\n  jumpi\n  0x00\n  dup1\n  revert\ntag_1:\n  pop\n  dataSize(sub_0)\n  dup1\n  dataOffset(sub_0)\n  0x00\n  codecopy\n  0x00\n  return\nstop\n\nsub_0: assembly {\n        /* \"contracts/ContractB/ContractBV2.sol\":63:201  contract ContractBV2 {... */\n      mstore(0x40, 0x80)\n      callvalue\n      dup1\n      iszero\n      tag_1\n      jumpi\n      0x00\n      dup1\n      revert\n    tag_1:\n      pop\n      jumpi(tag_2, lt(calldatasize, 0x04))\n      shr(0xe0, calldataload(0x00))\n      dup1\n      0xb63d343f\n      eq\n      tag_3\n      jumpi\n    tag_2:\n      0x00\n      dup1\n      revert\n        /* \"contracts/ContractB/ContractBV2.sol\":118:198  function readNumber() public view returns (uint88) {... */\n    tag_3:\n        /* \"contracts/ContractB/ContractBV2.sol\":161:167  uint88 */\n      0x00\n        /* \"contracts/ContractB/ContractBV2.sol\":187:190  num */\n      sload\n        /* \"contracts/ContractB/ContractBV2.sol\":118:198  function readNumber() public view returns (uint88) {... */\n      0x40\n      dup1\n      mload\n        /* \"contracts/ContractB/ContractBV2.sol\":187:190  num */\n      0xff\n      swap1\n      swap3\n      and\n        /* \"#utility.yul\":158:214   */\n      dup3\n      mstore\n        /* \"contracts/ContractB/ContractBV2.sol\":118:198  function readNumber() public view returns (uint88) {... */\n      mload\n      swap1\n      dup2\n      swap1\n      sub\n        /* \"#utility.yul\":146:148   */\n      0x20\n        /* \"contracts/ContractB/ContractBV2.sol\":118:198  function readNumber() public view returns (uint88) {... */\n      add\n      swap1\n      return\n\n    auxdata: 0xa2646970667358221220d7b7844ae9a0b52322593b2854dfe49c728fa8f4cee0539a58205b4d9de05d9e64736f6c63430008190033\n}\n",
				"bytecode": {
					"linkReferences": {},
					"object": "6080604052348015600e575f80fd5b50607880601a5f395ff3fe6080604052348015600e575f80fd5b50600436106026575f3560e01c8063b63d343f14602a575b5f80fd5b5f546040805160ff9092168252519081900360200190f3fea2646970667358221220d7b7844ae9a0b52322593b2854dfe49c728fa8f4cee0539a58205b4d9de05d9e64736f6c63430008190033",
					"opcodes": "PUSH1 0x80 PUSH1 0x40 MSTORE CALLVALUE DUP1 ISZERO PUSH1 0xE JUMPI PUSH0 DUP1 REVERT JUMPDEST POP PUSH1 0x78 DUP1 PUSH1 0x1A PUSH0 CODECOPY PUSH0 RETURN INVALID PUSH1 0x80 PUSH1 0x40 MSTORE CALLVALUE DUP1 ISZERO PUSH1 0xE JUMPI PUSH0 DUP1 REVERT JUMPDEST POP PUSH1 0x4 CALLDATASIZE LT PUSH1 0x26 JUMPI PUSH0 CALLDATALOAD PUSH1 0xE0 SHR DUP1 PUSH4 0xB63D343F EQ PUSH1 0x2A JUMPI JUMPDEST PUSH0 DUP1 REVERT JUMPDEST PUSH0 SLOAD PUSH1 0x40 DUP1 MLOAD PUSH1 0xFF SWAP1 SWAP3 AND DUP3 MSTORE MLOAD SWAP1 DUP2 SWAP1 SUB PUSH1 0x20 ADD SWAP1 RETURN INVALID LOG2 PUSH5 0x6970667358 0x22 SLT KECCAK256 0xD7 0xB7 DUP5 BLOBBASEFEE 0xE9 LOG0 0xB5 0x23 0x22 MSIZE EXTCODESIZE 0x28 SLOAD 0xDF 0xE4 SWAP13 PUSH19 0x8FA8F4CEE0539A58205B4D9DE05D9E64736F6C PUSH4 0x43000819 STOP CALLER "
				},
				"gasEstimates": {
					"creation": {
						"codeDepositCost": "24000",
						"executionCost": "73",
						"totalCost": "24073"
					},
					"external": {
						"readNumber()": "2256"
					}
				},
				"methodIdentifiers": {
					"readNumber()": "b63d343f"
				}
			},
			"storageLayout": {
				"storage": [
					{
						"astId": 3,
						"contract": "contracts/ContractB/ContractBV2.sol:ContractBV2",
						"label": "num",
						"offset": 0,
						"slot": "0",
						"type": "t_uint8"
					}
				],
				"types": {
					"t_uint8": {
						"encoding": "inplace",
						"label": "uint8",
						"numberOfBytes": "1"
					}
				}
			},
			"userdoc": {
				"kind": "user",
				"methods": {},
				"version": 1
			}
		}
	}
}