{
	"contracts/ContractW/ContractWV3.sol": {
		"ContractWV3": {
			"abi": [
				{
					"inputs": [
						{
							"internalType": "bytes32",
							"name": "listingHash",
							"type": "bytes32"
						},
						{
							"internalType": "uint256",
							"name": "price",
							"type": "uint256"
						},
						{
							"internalType": "uint256",
							"name": "amountToPay",
							"type": "uint256"
						}
					],
					"name": "InvalidAmountToPay",
					"type": "error"
				},
				{
					"inputs": [],
					"name": "InvalidBuyer",
					"type": "error"
				},
				{
					"inputs": [
						{
							"internalType": "bytes32",
							"name": "listingHash",
							"type": "bytes32"
						}
					],
					"name": "InvalidListing",
					"type": "error"
				},
				{
					"inputs": [],
					"name": "InvalidSeller",
					"type": "error"
				},
				{
					"inputs": [
						{
							"internalType": "bytes32",
							"name": "listingHash",
							"type": "bytes32"
						}
					],
					"name": "ListingAlreadyCancelled",
					"type": "error"
				},
				{
					"inputs": [
						{
							"internalType": "bytes32",
							"name": "listingHash",
							"type": "bytes32"
						}
					],
					"name": "ListingNotFound",
					"type": "error"
				},
				{
					"inputs": [
						{
							"internalType": "uint256",
							"name": "tokenId",
							"type": "uint256"
						}
					],
					"name": "NotOwner",
					"type": "error"
				},
				{
					"inputs": [
						{
							"internalType": "bytes32",
							"name": "listingHash",
							"type": "bytes32"
						},
						{
							"internalType": "address",
							"name": "nftContract",
							"type": "address"
						}
					],
					"name": "buy",
					"outputs": [],
					"stateMutability": "payable",
					"type": "function"
				},
				{
					"inputs": [
						{
							"internalType": "bytes32",
							"name": "listingHash",
							"type": "bytes32"
						}
					],
					"name": "cancelListing",
					"outputs": [],
					"stateMutability": "nonpayable",
					"type": "function"
				},
				{
					"inputs": [
						{
							"internalType": "bytes32",
							"name": "listingHash",
							"type": "bytes32"
						},
						{
							"internalType": "uint256",
							"name": "price",
							"type": "uint256"
						}
					],
					"name": "changeListingPrice",
					"outputs": [],
					"stateMutability": "nonpayable",
					"type": "function"
				},
				{
					"inputs": [
						{
							"internalType": "uint256",
							"name": "tokenId",
							"type": "uint256"
						},
						{
							"internalType": "address",
							"name": "nftContract",
							"type": "address"
						},
						{
							"internalType": "bytes32",
							"name": "salt",
							"type": "bytes32"
						},
						{
							"internalType": "uint256",
							"name": "price",
							"type": "uint256"
						}
					],
					"name": "createListing",
					"outputs": [],
					"stateMutability": "nonpayable",
					"type": "function"
				},
				{
					"inputs": [
						{
							"internalType": "uint256",
							"name": "tokenId",
							"type": "uint256"
						},
						{
							"internalType": "address",
							"name": "seller",
							"type": "address"
						},
						{
							"internalType": "uint256",
							"name": "price",
							"type": "uint256"
						},
						{
							"internalType": "address",
							"name": "nftContract",
							"type": "address"
						},
						{
							"internalType": "bytes32",
							"name": "salt",
							"type": "bytes32"
						}
					],
					"name": "getListingHash",
					"outputs": [
						{
							"internalType": "bytes32",
							"name": "",
							"type": "bytes32"
						}
					],
					"stateMutability": "pure",
					"type": "function"
				}
			],
			"devdoc": {
				"kind": "dev",
				"methods": {},
				"version": 1
			},
			"evm": {
				"assembly": "    /* \"contracts/ContractW/ContractWV3.sol\":231:5026  contract ContractWV3 {... */\n  mstore(0x40, 0x80)\n  callvalue\n  dup1\n  iszero\n  tag_1\n  jumpi\n  0x00\n  dup1\n  revert\ntag_1:\n  pop\n  dataSize(sub_0)\n  dup1\n  dataOffset(sub_0)\n  0x00\n  codecopy\n  0x00\n  return\nstop\n\nsub_0: assembly {\n        /* \"contracts/ContractW/ContractWV3.sol\":231:5026  contract ContractWV3 {... */\n      mstore(0x40, 0x80)\n      jumpi(tag_1, lt(calldatasize, 0x04))\n      shr(0xe0, calldataload(0x00))\n      dup1\n      0xaa8de794\n      gt\n      tag_7\n      jumpi\n      dup1\n      0xaa8de794\n      eq\n      tag_4\n      jumpi\n      dup1\n      0xc049604a\n      eq\n      tag_5\n      jumpi\n      dup1\n      0xdac17732\n      eq\n      tag_6\n      jumpi\n      0x00\n      dup1\n      revert\n    tag_7:\n      dup1\n      0x04f24938\n      eq\n      tag_2\n      jumpi\n      dup1\n      0x9299e552\n      eq\n      tag_3\n      jumpi\n    tag_1:\n      0x00\n      dup1\n      revert\n        /* \"contracts/ContractW/ContractWV3.sol\":1672:2374  function createListing(... */\n    tag_2:\n      callvalue\n      dup1\n      iszero\n      tag_8\n      jumpi\n      0x00\n      dup1\n      revert\n    tag_8:\n      pop\n      tag_9\n      tag_10\n      calldatasize\n      0x04\n      tag_11\n      jump\t// in\n    tag_10:\n      tag_12\n      jump\t// in\n    tag_9:\n      stop\n        /* \"contracts/ContractW/ContractWV3.sol\":2584:2871  function cancelListing(bytes32 listingHash) external onlySeller(listingHash) {... */\n    tag_3:\n      callvalue\n      dup1\n      iszero\n      tag_13\n      jumpi\n      0x00\n      dup1\n      revert\n    tag_13:\n      pop\n      tag_9\n      tag_15\n      calldatasize\n      0x04\n      tag_16\n      jump\t// in\n    tag_15:\n      tag_17\n      jump\t// in\n        /* \"contracts/ContractW/ContractWV3.sol\":2879:3030  function changeListingPrice(bytes32 listingHash, uint256 price) external onlySeller(listingHash) {... */\n    tag_4:\n      callvalue\n      dup1\n      iszero\n      tag_18\n      jumpi\n      0x00\n      dup1\n      revert\n    tag_18:\n      pop\n      tag_9\n      tag_20\n      calldatasize\n      0x04\n      tag_21\n      jump\t// in\n    tag_20:\n      tag_22\n      jump\t// in\n        /* \"contracts/ContractW/ContractWV3.sol\":3038:3722  function buy(bytes32 listingHash, address nftContract) external payable {... */\n    tag_5:\n      tag_9\n      tag_24\n      calldatasize\n      0x04\n      tag_25\n      jump\t// in\n    tag_24:\n      tag_26\n      jump\t// in\n        /* \"contracts/ContractW/ContractWV3.sol\":3730:4139  function getListingHash(... */\n    tag_6:\n      callvalue\n      dup1\n      iszero\n      tag_27\n      jumpi\n      0x00\n      dup1\n      revert\n    tag_27:\n      pop\n      tag_28\n      tag_29\n      calldatasize\n      0x04\n      tag_30\n      jump\t// in\n    tag_29:\n        /* \"contracts/ContractW/ContractWV3.sol\":3961:4120  abi.encodePacked(... */\n      0x40\n      dup1\n      mload\n      0x20\n      dup1\n      dup3\n      add\n        /* \"#utility.yul\":2813:2832   */\n      swap8\n      swap1\n      swap8\n      mstore\n      not(0xffffffffffffffffffffffff)\n        /* \"#utility.yul\":2920:2922   */\n      0x60\n        /* \"#utility.yul\":2916:2931   */\n      swap7\n      dup8\n      shl\n        /* \"#utility.yul\":2912:2936   */\n      dup2\n      and\n        /* \"#utility.yul\":2898:2910   */\n      dup3\n      dup5\n      add\n        /* \"#utility.yul\":2891:2937   */\n      mstore\n        /* \"#utility.yul\":2953:2965   */\n      0x54\n      dup3\n      add\n        /* \"#utility.yul\":2946:2974   */\n      swap6\n      swap1\n      swap6\n      mstore\n        /* \"#utility.yul\":3008:3023   */\n      swap3\n      swap1\n      swap5\n      shl\n        /* \"#utility.yul\":3004:3028   */\n      swap1\n      swap3\n      and\n        /* \"#utility.yul\":2990:3002   */\n      0x74\n      dup3\n      add\n        /* \"#utility.yul\":2983:3029   */\n      mstore\n        /* \"#utility.yul\":3045:3058   */\n      0x88\n      dup1\n      dup3\n      add\n        /* \"#utility.yul\":3038:3067   */\n      swap3\n      swap1\n      swap3\n      mstore\n        /* \"contracts/ContractW/ContractWV3.sol\":3961:4120  abi.encodePacked(... */\n      dup3\n      mload\n      dup1\n      dup3\n      sub\n      swap1\n      swap3\n      add\n      dup3\n      mstore\n        /* \"#utility.yul\":3083:3096   */\n      0xa8\n      add\n        /* \"contracts/ContractW/ContractWV3.sol\":3961:4120  abi.encodePacked(... */\n      swap1\n      swap2\n      mstore\n        /* \"contracts/ContractW/ContractWV3.sol\":3937:4131  keccak256(... */\n      dup1\n      mload\n      swap2\n      add\n      keccak256\n      swap1\n        /* \"contracts/ContractW/ContractWV3.sol\":3730:4139  function getListingHash(... */\n      jump\n    tag_28:\n      mload(0x40)\n        /* \"#utility.yul\":2133:2158   */\n      swap1\n      dup2\n      mstore\n        /* \"#utility.yul\":2121:2123   */\n      0x20\n        /* \"#utility.yul\":2106:2124   */\n      add\n        /* \"contracts/ContractW/ContractWV3.sol\":3730:4139  function getListingHash(... */\n      mload(0x40)\n      dup1\n      swap2\n      sub\n      swap1\n      return\n        /* \"contracts/ContractW/ContractWV3.sol\":1672:2374  function createListing(... */\n    tag_12:\n        /* \"contracts/ContractW/ContractWV3.sol\":1824:1831  tokenId */\n      dup4\n        /* \"contracts/ContractW/ContractWV3.sol\":1833:1844  nftContract */\n      dup4\n        /* \"contracts/ContractW/ContractWV3.sol\":1497:1533  _checkNFTOwned(tokenId, nftContract) */\n      tag_35\n        /* \"contracts/ContractW/ContractWV3.sol\":1512:1519  tokenId */\n      dup3\n        /* \"contracts/ContractW/ContractWV3.sol\":1521:1532  nftContract */\n      dup3\n        /* \"contracts/ContractW/ContractWV3.sol\":1497:1511  _checkNFTOwned */\n      tag_36\n        /* \"contracts/ContractW/ContractWV3.sol\":1497:1533  _checkNFTOwned(tokenId, nftContract) */\n      jump\t// in\n    tag_35:\n        /* \"contracts/ContractW/ContractWV3.sol\":3961:4120  abi.encodePacked(... */\n      0x40\n      dup1\n      mload\n      0x20\n      dup1\n      dup3\n      add\n        /* \"#utility.yul\":2813:2832   */\n      dup10\n      swap1\n      mstore\n      not(0xffffffffffffffffffffffff)\n        /* \"contracts/ContractW/ContractWV3.sol\":1903:1913  msg.sender */\n      caller\n        /* \"#utility.yul\":2920:2922   */\n      0x60\n        /* \"#utility.yul\":2916:2931   */\n      swap1\n      dup2\n      shl\n        /* \"#utility.yul\":2912:2936   */\n      dup3\n      and\n        /* \"#utility.yul\":2898:2910   */\n      dup5\n      dup7\n      add\n        /* \"#utility.yul\":2891:2937   */\n      mstore\n        /* \"#utility.yul\":2953:2965   */\n      0x54\n      dup5\n      add\n        /* \"#utility.yul\":2946:2974   */\n      dup9\n      swap1\n      mstore\n        /* \"#utility.yul\":3008:3023   */\n      dup10\n      swap1\n      shl\n        /* \"#utility.yul\":3004:3028   */\n      and\n        /* \"#utility.yul\":2990:3002   */\n      0x74\n      dup4\n      add\n        /* \"#utility.yul\":2983:3029   */\n      mstore\n        /* \"#utility.yul\":3045:3058   */\n      0x88\n      dup1\n      dup4\n      add\n        /* \"#utility.yul\":3038:3067   */\n      dup9\n      swap1\n      mstore\n        /* \"contracts/ContractW/ContractWV3.sol\":3961:4120  abi.encodePacked(... */\n      dup4\n      mload\n      dup1\n      dup5\n      sub\n      swap1\n      swap2\n      add\n      dup2\n      mstore\n        /* \"#utility.yul\":3083:3096   */\n      0xa8\n      swap1\n      swap3\n      add\n        /* \"contracts/ContractW/ContractWV3.sol\":3961:4120  abi.encodePacked(... */\n      swap1\n      swap3\n      mstore\n        /* \"contracts/ContractW/ContractWV3.sol\":3937:4131  keccak256(... */\n      dup1\n      mload\n      swap2\n      add\n      keccak256\n        /* \"contracts/ContractW/ContractWV3.sol\":1857:1876  bytes32 listingHash */\n      0x00\n      swap1\n        /* \"contracts/ContractW/ContractWV3.sol\":1977:2152  Listing({... */\n      0x40\n      dup1\n      mload\n      0xa0\n      dup2\n      add\n      dup3\n      mstore\n        /* \"contracts/ContractW/ContractWV3.sol\":2008:2018  msg.sender */\n      caller\n        /* \"contracts/ContractW/ContractWV3.sol\":1977:2152  Listing({... */\n      dup1\n      dup3\n      mstore\n      sub(shl(0xa0, 0x01), 0x01)\n      dup11\n      dup2\n      and\n      0x20\n      dup1\n      dup6\n      add\n      swap2\n      dup3\n      mstore\n      dup5\n      dup7\n      add\n      dup15\n      dup2\n      mstore\n      0x60\n      dup7\n      add\n      dup13\n      dup2\n      mstore\n      0x80\n      dup8\n      add\n      dup15\n      dup2\n      mstore\n      0x00\n        /* \"contracts/ContractW/ContractWV3.sol\":1953:1974  listings[listingHash] */\n      dup11\n      dup2\n      mstore\n      swap4\n      dup5\n      swap1\n      mstore\n      swap8\n      dup4\n      keccak256\n        /* \"contracts/ContractW/ContractWV3.sol\":1953:2152  listings[listingHash] = Listing({... */\n      swap7\n      mload\n      dup8\n      sload\n      swap1\n      dup7\n      and\n      not(0xffffffffffffffffffffffffffffffffffffffff)\n      swap2\n      dup3\n      and\n      or\n      dup9\n      sstore\n      swap4\n      mload\n      0x01\n      dup9\n      add\n      dup1\n      sload\n      swap2\n      swap1\n      swap7\n      and\n      swap5\n      and\n      swap4\n      swap1\n      swap4\n      or\n      swap1\n      swap4\n      sstore\n      swap2\n      mload\n      0x02\n      dup6\n      add\n      sstore\n      mload\n      0x03\n      dup5\n      add\n      sstore\n      swap3\n      mload\n      0x04\n      swap1\n      swap3\n      add\n      swap2\n      swap1\n      swap2\n      sstore\n        /* \"contracts/ContractW/ContractWV3.sol\":1857:1940  bytes32 listingHash = getListingHash(tokenId, msg.sender, price, nftContract, salt) */\n      swap2\n      swap3\n      pop\n      dup3\n      swap1\n        /* \"contracts/ContractW/ContractWV3.sol\":2252:2284  _LISTING_CREATED_EVENT_SIGNATURE */\n      0x17a154a37f0fb7c7f440e4672a098f6afcc1ba29bc7ab9ce143014be49d7410e\n      swap1\n      dup1\n        /* \"contracts/ContractW/ContractWV3.sol\":2189:2356  log3(... */\n      log3\n        /* \"contracts/ContractW/ContractWV3.sol\":2174:2367  {... */\n      pop\n        /* \"contracts/ContractW/ContractWV3.sol\":1672:2374  function createListing(... */\n      pop\n      pop\n      pop\n      pop\n      pop\n      pop\n      jump\t// out\n        /* \"contracts/ContractW/ContractWV3.sol\":2584:2871  function cancelListing(bytes32 listingHash) external onlySeller(listingHash) {... */\n    tag_17:\n        /* \"contracts/ContractW/ContractWV3.sol\":2648:2659  listingHash */\n      dup1\n        /* \"contracts/ContractW/ContractWV3.sol\":1615:1642  _checkIfSeller(listingHash) */\n      tag_40\n        /* \"contracts/ContractW/ContractWV3.sol\":1630:1641  listingHash */\n      dup2\n        /* \"contracts/ContractW/ContractWV3.sol\":1615:1629  _checkIfSeller */\n      tag_41\n        /* \"contracts/ContractW/ContractWV3.sol\":1615:1642  _checkIfSeller(listingHash) */\n      jump\t// in\n    tag_40:\n        /* \"contracts/ContractW/ContractWV3.sol\":2679:2687  listings */\n      0x00\n        /* \"contracts/ContractW/ContractWV3.sol\":2679:2700  listings[listingHash] */\n      dup3\n      dup2\n      mstore\n      0x20\n      dup2\n      swap1\n      mstore\n      0x40\n      dup2\n      keccak256\n        /* \"contracts/ContractW/ContractWV3.sol\":2672:2700  delete listings[listingHash] */\n      dup1\n      sload\n      not(0xffffffffffffffffffffffffffffffffffffffff)\n      swap1\n      dup2\n      and\n      dup3\n      sstore\n      0x01\n      dup3\n      add\n      dup1\n      sload\n      swap1\n      swap2\n      and\n      swap1\n      sstore\n      0x02\n      dup2\n      add\n      dup3\n      swap1\n      sstore\n      0x03\n      dup2\n      add\n      dup3\n      swap1\n      sstore\n      0x04\n      add\n      dup2\n      swap1\n      sstore\n        /* \"contracts/ContractW/ContractWV3.sol\":2830:2838  caller() */\n      caller\n      swap1\n        /* \"contracts/ContractW/ContractWV3.sol\":2688:2699  listingHash */\n      dup4\n      swap1\n        /* \"contracts/ContractW/ContractWV3.sol\":2679:2687  listings */\n      dup1\n        /* \"contracts/ContractW/ContractWV3.sol\":2737:2853  log2(... */\n      log2\n        /* \"contracts/ContractW/ContractWV3.sol\":2584:2871  function cancelListing(bytes32 listingHash) external onlySeller(listingHash) {... */\n      pop\n      pop\n      jump\t// out\n        /* \"contracts/ContractW/ContractWV3.sol\":2879:3030  function changeListingPrice(bytes32 listingHash, uint256 price) external onlySeller(listingHash) {... */\n    tag_22:\n        /* \"contracts/ContractW/ContractWV3.sol\":2963:2974  listingHash */\n      dup2\n        /* \"contracts/ContractW/ContractWV3.sol\":1615:1642  _checkIfSeller(listingHash) */\n      tag_44\n        /* \"contracts/ContractW/ContractWV3.sol\":1630:1641  listingHash */\n      dup2\n        /* \"contracts/ContractW/ContractWV3.sol\":1615:1629  _checkIfSeller */\n      tag_41\n        /* \"contracts/ContractW/ContractWV3.sol\":1615:1642  _checkIfSeller(listingHash) */\n      jump\t// in\n    tag_44:\n      pop\n        /* \"contracts/ContractW/ContractWV3.sol\":2987:2995  listings */\n      0x00\n        /* \"contracts/ContractW/ContractWV3.sol\":2987:3008  listings[listingHash] */\n      swap2\n      dup3\n      mstore\n      0x20\n      dup3\n      swap1\n      mstore\n      0x40\n      swap1\n      swap2\n      keccak256\n        /* \"contracts/ContractW/ContractWV3.sol\":2987:3014  listings[listingHash].price */\n      0x03\n      add\n        /* \"contracts/ContractW/ContractWV3.sol\":2987:3022  listings[listingHash].price = price */\n      sstore\n        /* \"contracts/ContractW/ContractWV3.sol\":2879:3030  function changeListingPrice(bytes32 listingHash, uint256 price) external onlySeller(listingHash) {... */\n      jump\t// out\n        /* \"contracts/ContractW/ContractWV3.sol\":3038:3722  function buy(bytes32 listingHash, address nftContract) external payable {... */\n    tag_26:\n        /* \"contracts/ContractW/ContractWV3.sol\":3121:3143  Listing memory listing */\n      0x00\n        /* \"contracts/ContractW/ContractWV3.sol\":3146:3167  listings[listingHash] */\n      dup3\n      dup2\n      mstore\n      0x20\n      dup2\n      dup2\n      mstore\n      0x40\n      swap2\n      dup3\n      swap1\n      keccak256\n        /* \"contracts/ContractW/ContractWV3.sol\":3121:3167  Listing memory listing = listings[listingHash] */\n      dup3\n      mload\n      0xa0\n      dup2\n      add\n      dup5\n      mstore\n      dup2\n      sload\n      sub(shl(0xa0, 0x01), 0x01)\n      swap1\n      dup2\n      and\n      dup3\n      mstore\n      0x01\n      dup4\n      add\n      sload\n      and\n      swap3\n      dup2\n      add\n      swap3\n      swap1\n      swap3\n      mstore\n      0x02\n      dup2\n      add\n      sload\n      swap3\n      dup3\n      add\n      swap3\n      swap1\n      swap3\n      mstore\n      0x03\n      dup3\n      add\n      sload\n      0x60\n      dup3\n      add\n      mstore\n      0x04\n      swap1\n      swap2\n      add\n      sload\n      0x80\n      dup3\n      add\n      mstore\n        /* \"contracts/ContractW/ContractWV3.sol\":3180:3211  _checkValidListing(listingHash) */\n      tag_47\n        /* \"contracts/ContractW/ContractWV3.sol\":3155:3166  listingHash */\n      dup4\n        /* \"contracts/ContractW/ContractWV3.sol\":3180:3198  _checkValidListing */\n      tag_48\n        /* \"contracts/ContractW/ContractWV3.sol\":3180:3211  _checkValidListing(listingHash) */\n      jump\t// in\n    tag_47:\n        /* \"contracts/ContractW/ContractWV3.sol\":3222:3251  _checkValidBuyer(listingHash) */\n      tag_49\n        /* \"contracts/ContractW/ContractWV3.sol\":3239:3250  listingHash */\n      dup4\n        /* \"contracts/ContractW/ContractWV3.sol\":3222:3238  _checkValidBuyer */\n      tag_50\n        /* \"contracts/ContractW/ContractWV3.sol\":3222:3251  _checkValidBuyer(listingHash) */\n      jump\t// in\n    tag_49:\n        /* \"contracts/ContractW/ContractWV3.sol\":3262:3297  _checkValidAmountToPay(listingHash) */\n      tag_51\n        /* \"contracts/ContractW/ContractWV3.sol\":3285:3296  listingHash */\n      dup4\n        /* \"contracts/ContractW/ContractWV3.sol\":3262:3284  _checkValidAmountToPay */\n      tag_52\n        /* \"contracts/ContractW/ContractWV3.sol\":3262:3297  _checkValidAmountToPay(listingHash) */\n      jump\t// in\n    tag_51:\n        /* \"contracts/ContractW/ContractWV3.sol\":3349:3363  listing.seller */\n      dup1\n      mload\n        /* \"contracts/ContractW/ContractWV3.sol\":3377:3392  listing.tokenId */\n      0x40\n      dup1\n      dup4\n      add\n      mload\n        /* \"contracts/ContractW/ContractWV3.sol\":3310:3393  IERC721A(nftContract).safeTransferFrom(listing.seller, msg.sender, listing.tokenId) */\n      swap1\n      mload\n      0x42842e0e00000000000000000000000000000000000000000000000000000000\n      dup2\n      mstore\n      sub(shl(0xa0, 0x01), 0x01)\n        /* \"#utility.yul\":2450:2465   */\n      swap3\n      dup4\n      and\n        /* \"contracts/ContractW/ContractWV3.sol\":3310:3393  IERC721A(nftContract).safeTransferFrom(listing.seller, msg.sender, listing.tokenId) */\n      0x04\n      dup3\n      add\n        /* \"#utility.yul\":2432:2466   */\n      mstore\n        /* \"contracts/ContractW/ContractWV3.sol\":3365:3375  msg.sender */\n      caller\n        /* \"#utility.yul\":2482:2500   */\n      0x24\n      dup3\n      add\n        /* \"#utility.yul\":2475:2518   */\n      mstore\n        /* \"#utility.yul\":2534:2552   */\n      0x44\n      dup2\n      add\n        /* \"#utility.yul\":2527:2561   */\n      swap2\n      swap1\n      swap2\n      mstore\n        /* \"contracts/ContractW/ContractWV3.sol\":3310:3348  IERC721A(nftContract).safeTransferFrom */\n      swap1\n      dup4\n      and\n      swap1\n      0x42842e0e\n      swap1\n        /* \"#utility.yul\":2344:2362   */\n      0x64\n      add\n        /* \"contracts/ContractW/ContractWV3.sol\":3310:3393  IERC721A(nftContract).safeTransferFrom(listing.seller, msg.sender, listing.tokenId) */\n      0x00\n      mload(0x40)\n      dup1\n      dup4\n      sub\n      dup2\n      0x00\n      dup8\n      dup1\n      extcodesize\n      iszero\n      dup1\n      iszero\n      tag_55\n      jumpi\n      0x00\n      dup1\n      revert\n    tag_55:\n      pop\n      gas\n      call\n      iszero\n      dup1\n      iszero\n      tag_57\n      jumpi\n      returndatasize\n      0x00\n      dup1\n      returndatacopy\n      revert(0x00, returndatasize)\n    tag_57:\n      pop\n      pop\n        /* \"contracts/ContractW/ContractWV3.sol\":3414:3428  listing.seller */\n      dup3\n      mload\n        /* \"contracts/ContractW/ContractWV3.sol\":3406:3449  payable(listing.seller).transfer(msg.value) */\n      mload(0x40)\n      sub(shl(0xa0, 0x01), 0x01)\n        /* \"contracts/ContractW/ContractWV3.sol\":3406:3438  payable(listing.seller).transfer */\n      swap1\n      swap2\n      and\n      swap3\n      pop\n        /* \"contracts/ContractW/ContractWV3.sol\":3439:3448  msg.value */\n      callvalue\n        /* \"contracts/ContractW/ContractWV3.sol\":3406:3449  payable(listing.seller).transfer(msg.value) */\n      dup1\n      iszero\n      0x08fc\n      mul\n      swap3\n      pop\n        /* \"contracts/ContractW/ContractWV3.sol\":3439:3448  msg.value */\n      swap1\n        /* \"contracts/ContractW/ContractWV3.sol\":3414:3428  listing.seller */\n      0x00\n        /* \"contracts/ContractW/ContractWV3.sol\":3406:3449  payable(listing.seller).transfer(msg.value) */\n      dup2\n        /* \"contracts/ContractW/ContractWV3.sol\":3414:3428  listing.seller */\n      dup2\n        /* \"contracts/ContractW/ContractWV3.sol\":3406:3449  payable(listing.seller).transfer(msg.value) */\n      dup2\n        /* \"contracts/ContractW/ContractWV3.sol\":3439:3448  msg.value */\n      dup6\n        /* \"contracts/ContractW/ContractWV3.sol\":3406:3438  payable(listing.seller).transfer */\n      dup9\n        /* \"contracts/ContractW/ContractWV3.sol\":3406:3449  payable(listing.seller).transfer(msg.value) */\n      dup9\n      call\n      swap4\n      pop\n      pop\n      pop\n      pop\n      iszero\n      dup1\n      iszero\n      tag_59\n      jumpi\n      returndatasize\n      0x00\n      dup1\n      returndatacopy\n      revert(0x00, returndatasize)\n    tag_59:\n      pop\n        /* \"contracts/ContractW/ContractWV3.sol\":3469:3477  listings */\n      0x00\n        /* \"contracts/ContractW/ContractWV3.sol\":3469:3490  listings[listingHash] */\n      dup4\n      dup2\n      mstore\n      0x20\n      dup2\n      swap1\n      mstore\n      0x40\n      dup2\n      keccak256\n        /* \"contracts/ContractW/ContractWV3.sol\":3462:3490  delete listings[listingHash] */\n      dup1\n      sload\n      not(0xffffffffffffffffffffffffffffffffffffffff)\n      swap1\n      dup2\n      and\n      dup3\n      sstore\n      0x01\n      dup3\n      add\n      dup1\n      sload\n      swap1\n      swap2\n      and\n      swap1\n      sstore\n      0x02\n      dup2\n      add\n      dup3\n      swap1\n      sstore\n      0x03\n      dup2\n      add\n      dup3\n      swap1\n      sstore\n      0x04\n      add\n      dup2\n      swap1\n      sstore\n        /* \"contracts/ContractW/ContractWV3.sol\":3681:3689  caller() */\n      caller\n      swap1\n        /* \"contracts/ContractW/ContractWV3.sol\":3478:3489  listingHash */\n      dup5\n      swap1\n        /* \"contracts/ContractW/ContractWV3.sol\":3598:3632  _LISTING_PURCHASED_EVENT_SIGNATURE */\n      0x4c72f34d0e2a0b597a25ae9c086c06c4ac48ba071ecc23757ab1668bcd20be50\n      swap1\n        /* \"contracts/ContractW/ContractWV3.sol\":3469:3477  listings */\n      dup1\n        /* \"contracts/ContractW/ContractWV3.sol\":3535:3704  log3(... */\n      log3\n        /* \"contracts/ContractW/ContractWV3.sol\":3520:3715  {... */\n      pop\n        /* \"contracts/ContractW/ContractWV3.sol\":3038:3722  function buy(bytes32 listingHash, address nftContract) external payable {... */\n      pop\n      pop\n      jump\t// out\n        /* \"contracts/ContractW/ContractWV3.sol\":4147:4323  function _checkNFTOwned(uint256 tokenId, address nftContract) private view {... */\n    tag_36:\n        /* \"contracts/ContractW/ContractWV3.sol\":4237:4275  IERC721A(nftContract).ownerOf(tokenId) */\n      mload(0x40)\n      0x6352211e00000000000000000000000000000000000000000000000000000000\n      dup2\n      mstore\n      0x04\n      dup2\n      add\n        /* \"#utility.yul\":2133:2158   */\n      dup4\n      swap1\n      mstore\n        /* \"contracts/ContractW/ContractWV3.sol\":4279:4289  msg.sender */\n      caller\n      swap1\n      sub(shl(0xa0, 0x01), 0x01)\n        /* \"contracts/ContractW/ContractWV3.sol\":4237:4266  IERC721A(nftContract).ownerOf */\n      dup4\n      and\n      swap1\n      0x6352211e\n      swap1\n        /* \"#utility.yul\":2106:2124   */\n      0x24\n      add\n        /* \"contracts/ContractW/ContractWV3.sol\":4237:4275  IERC721A(nftContract).ownerOf(tokenId) */\n      0x20\n      mload(0x40)\n      dup1\n      dup4\n      sub\n      dup2\n      dup7\n      gas\n      staticcall\n      iszero\n      dup1\n      iszero\n      tag_67\n      jumpi\n      returndatasize\n      0x00\n      dup1\n      returndatacopy\n      revert(0x00, returndatasize)\n    tag_67:\n      pop\n      pop\n      pop\n      pop\n      mload(0x40)\n      returndatasize\n      not(0x1f)\n      0x1f\n      dup3\n      add\n      and\n      dup3\n      add\n      dup1\n      0x40\n      mstore\n      pop\n      dup2\n      add\n      swap1\n      tag_68\n      swap2\n      swap1\n      tag_69\n      jump\t// in\n    tag_68:\n      sub(shl(0xa0, 0x01), 0x01)\n        /* \"contracts/ContractW/ContractWV3.sol\":4237:4289  IERC721A(nftContract).ownerOf(tokenId) != msg.sender */\n      and\n      eq\n        /* \"contracts/ContractW/ContractWV3.sol\":4233:4315  if (IERC721A(nftContract).ownerOf(tokenId) != msg.sender) revert NotOwner(tokenId) */\n      tag_70\n      jumpi\n        /* \"contracts/ContractW/ContractWV3.sol\":4298:4315  NotOwner(tokenId) */\n      mload(0x40)\n      0x4d65ccb800000000000000000000000000000000000000000000000000000000\n      dup2\n      mstore\n      0x04\n      dup2\n      add\n        /* \"#utility.yul\":2133:2158   */\n      dup4\n      swap1\n      mstore\n        /* \"#utility.yul\":2106:2124   */\n      0x24\n      add\n        /* \"contracts/ContractW/ContractWV3.sol\":4298:4315  NotOwner(tokenId) */\n    tag_71:\n      mload(0x40)\n      dup1\n      swap2\n      sub\n      swap1\n      revert\n        /* \"contracts/ContractW/ContractWV3.sol\":4233:4315  if (IERC721A(nftContract).ownerOf(tokenId) != msg.sender) revert NotOwner(tokenId) */\n    tag_70:\n        /* \"contracts/ContractW/ContractWV3.sol\":4147:4323  function _checkNFTOwned(uint256 tokenId, address nftContract) private view {... */\n      pop\n      pop\n      jump\t// out\n        /* \"contracts/ContractW/ContractWV3.sol\":4331:4478  function _checkIfSeller(bytes32 listingHash) private view {... */\n    tag_41:\n        /* \"contracts/ContractW/ContractWV3.sol\":4404:4412  listings */\n      0x00\n        /* \"contracts/ContractW/ContractWV3.sol\":4404:4425  listings[listingHash] */\n      dup2\n      dup2\n      mstore\n      0x20\n      dup2\n      swap1\n      mstore\n      0x40\n      swap1\n      keccak256\n        /* \"contracts/ContractW/ContractWV3.sol\":4404:4432  listings[listingHash].seller */\n      sload\n      sub(shl(0xa0, 0x01), 0x01)\n      and\n        /* \"contracts/ContractW/ContractWV3.sol\":4436:4446  msg.sender */\n      caller\n        /* \"contracts/ContractW/ContractWV3.sol\":4404:4446  listings[listingHash].seller != msg.sender */\n      eq\n        /* \"contracts/ContractW/ContractWV3.sol\":4400:4470  if (listings[listingHash].seller != msg.sender) revert InvalidSeller() */\n      tag_73\n      jumpi\n        /* \"contracts/ContractW/ContractWV3.sol\":4455:4470  InvalidSeller() */\n      mload(0x40)\n      0xbab7ca3500000000000000000000000000000000000000000000000000000000\n      dup2\n      mstore\n      0x04\n      add\n      mload(0x40)\n      dup1\n      swap2\n      sub\n      swap1\n      revert\n        /* \"contracts/ContractW/ContractWV3.sol\":4400:4470  if (listings[listingHash].seller != msg.sender) revert InvalidSeller() */\n    tag_73:\n        /* \"contracts/ContractW/ContractWV3.sol\":4331:4478  function _checkIfSeller(bytes32 listingHash) private view {... */\n      pop\n      jump\t// out\n        /* \"contracts/ContractW/ContractWV3.sol\":4486:4650  function _checkValidListing(bytes32 listingHash) private view {... */\n    tag_48:\n        /* \"contracts/ContractW/ContractWV3.sol\":4603:4604  0 */\n      0x00\n        /* \"contracts/ContractW/ContractWV3.sol\":4563:4584  listings[listingHash] */\n      dup2\n      dup2\n      mstore\n      0x20\n      dup2\n      swap1\n      mstore\n      0x40\n      swap1\n      keccak256\n        /* \"contracts/ContractW/ContractWV3.sol\":4563:4591  listings[listingHash].seller */\n      sload\n      sub(shl(0xa0, 0x01), 0x01)\n      and\n        /* \"contracts/ContractW/ContractWV3.sol\":4559:4642  if (listings[listingHash].seller == address(0)) revert ListingNotFound(listingHash) */\n      tag_73\n      jumpi\n        /* \"contracts/ContractW/ContractWV3.sol\":4614:4642  ListingNotFound(listingHash) */\n      mload(0x40)\n      0x45abffa900000000000000000000000000000000000000000000000000000000\n      dup2\n      mstore\n      0x04\n      dup2\n      add\n        /* \"#utility.yul\":2133:2158   */\n      dup3\n      swap1\n      mstore\n        /* \"#utility.yul\":2106:2124   */\n      0x24\n      add\n        /* \"contracts/ContractW/ContractWV3.sol\":4614:4642  ListingNotFound(listingHash) */\n      tag_71\n        /* \"#utility.yul\":1987:2164   */\n      jump\n        /* \"contracts/ContractW/ContractWV3.sol\":4658:4806  function _checkValidBuyer(bytes32 listingHash) private view {... */\n    tag_50:\n        /* \"contracts/ContractW/ContractWV3.sol\":4733:4741  listings */\n      0x00\n        /* \"contracts/ContractW/ContractWV3.sol\":4733:4754  listings[listingHash] */\n      dup2\n      dup2\n      mstore\n      0x20\n      dup2\n      swap1\n      mstore\n      0x40\n      swap1\n      keccak256\n        /* \"contracts/ContractW/ContractWV3.sol\":4733:4761  listings[listingHash].seller */\n      sload\n        /* \"contracts/ContractW/ContractWV3.sol\":4765:4775  msg.sender */\n      caller\n      sub(shl(0xa0, 0x01), 0x01)\n        /* \"contracts/ContractW/ContractWV3.sol\":4733:4761  listings[listingHash].seller */\n      swap1\n      swap2\n      and\n        /* \"contracts/ContractW/ContractWV3.sol\":4733:4775  listings[listingHash].seller == msg.sender */\n      sub\n        /* \"contracts/ContractW/ContractWV3.sol\":4729:4798  if (listings[listingHash].seller == msg.sender) revert InvalidBuyer() */\n      tag_73\n      jumpi\n        /* \"contracts/ContractW/ContractWV3.sol\":4784:4798  InvalidBuyer() */\n      mload(0x40)\n      0xb1df0e0600000000000000000000000000000000000000000000000000000000\n      dup2\n      mstore\n      0x04\n      add\n      mload(0x40)\n      dup1\n      swap2\n      sub\n      swap1\n      revert\n        /* \"contracts/ContractW/ContractWV3.sol\":4814:5023  function _checkValidAmountToPay(bytes32 listingHash) private view {... */\n    tag_52:\n        /* \"contracts/ContractW/ContractWV3.sol\":4908:4916  listings */\n      0x00\n        /* \"contracts/ContractW/ContractWV3.sol\":4908:4929  listings[listingHash] */\n      dup2\n      dup2\n      mstore\n      0x20\n      dup2\n      swap1\n      mstore\n      0x40\n      swap1\n      keccak256\n        /* \"contracts/ContractW/ContractWV3.sol\":4908:4935  listings[listingHash].price */\n      0x03\n      add\n      sload\n        /* \"contracts/ContractW/ContractWV3.sol\":4895:4904  msg.value */\n      callvalue\n        /* \"contracts/ContractW/ContractWV3.sol\":4895:4935  msg.value != listings[listingHash].price */\n      eq\n        /* \"contracts/ContractW/ContractWV3.sol\":4891:5015  if (msg.value != listings[listingHash].price) revert InvalidAmountToPay(listingHash, listings[listingHash].price, msg.value) */\n      tag_73\n      jumpi\n        /* \"contracts/ContractW/ContractWV3.sol\":4976:4984  listings */\n      0x00\n        /* \"contracts/ContractW/ContractWV3.sol\":4976:4997  listings[listingHash] */\n      dup2\n      dup2\n      mstore\n      0x20\n      dup2\n      swap1\n      mstore\n      0x40\n      swap1\n      dup2\n      swap1\n      keccak256\n        /* \"contracts/ContractW/ContractWV3.sol\":4976:5003  listings[listingHash].price */\n      0x03\n      add\n      sload\n        /* \"contracts/ContractW/ContractWV3.sol\":4944:5015  InvalidAmountToPay(listingHash, listings[listingHash].price, msg.value) */\n      swap1\n      mload\n      0x5cd9779900000000000000000000000000000000000000000000000000000000\n      dup2\n      mstore\n      0x04\n      dup2\n      add\n        /* \"#utility.yul\":3747:3772   */\n      dup4\n      swap1\n      mstore\n        /* \"#utility.yul\":3788:3806   */\n      0x24\n      dup2\n      add\n        /* \"#utility.yul\":3781:3815   */\n      swap2\n      swap1\n      swap2\n      mstore\n        /* \"contracts/ContractW/ContractWV3.sol\":5005:5014  msg.value */\n      callvalue\n        /* \"#utility.yul\":3831:3849   */\n      0x44\n      dup3\n      add\n        /* \"#utility.yul\":3824:3858   */\n      mstore\n        /* \"#utility.yul\":3720:3738   */\n      0x64\n      add\n        /* \"contracts/ContractW/ContractWV3.sol\":4944:5015  InvalidAmountToPay(listingHash, listings[listingHash].price, msg.value) */\n      tag_71\n        /* \"#utility.yul\":3545:3864   */\n      jump\n        /* \"#utility.yul\":14:168   */\n    tag_83:\n      sub(shl(0xa0, 0x01), 0x01)\n        /* \"#utility.yul\":93:98   */\n      dup2\n        /* \"#utility.yul\":89:143   */\n      and\n        /* \"#utility.yul\":82:87   */\n      dup2\n        /* \"#utility.yul\":79:144   */\n      eq\n        /* \"#utility.yul\":69:162   */\n      tag_73\n      jumpi\n        /* \"#utility.yul\":158:159   */\n      0x00\n        /* \"#utility.yul\":155:156   */\n      dup1\n        /* \"#utility.yul\":148:160   */\n      revert\n        /* \"#utility.yul\":173:625   */\n    tag_11:\n        /* \"#utility.yul\":259:265   */\n      0x00\n        /* \"#utility.yul\":267:273   */\n      dup1\n        /* \"#utility.yul\":275:281   */\n      0x00\n        /* \"#utility.yul\":283:289   */\n      dup1\n        /* \"#utility.yul\":336:339   */\n      0x80\n        /* \"#utility.yul\":324:333   */\n      dup6\n        /* \"#utility.yul\":315:322   */\n      dup8\n        /* \"#utility.yul\":311:334   */\n      sub\n        /* \"#utility.yul\":307:340   */\n      slt\n        /* \"#utility.yul\":304:357   */\n      iszero\n      tag_88\n      jumpi\n        /* \"#utility.yul\":353:354   */\n      0x00\n        /* \"#utility.yul\":350:351   */\n      dup1\n        /* \"#utility.yul\":343:355   */\n      revert\n        /* \"#utility.yul\":304:357   */\n    tag_88:\n        /* \"#utility.yul\":389:398   */\n      dup5\n        /* \"#utility.yul\":376:399   */\n      calldataload\n        /* \"#utility.yul\":366:399   */\n      swap4\n      pop\n        /* \"#utility.yul\":449:451   */\n      0x20\n        /* \"#utility.yul\":438:447   */\n      dup6\n        /* \"#utility.yul\":434:452   */\n      add\n        /* \"#utility.yul\":421:453   */\n      calldataload\n        /* \"#utility.yul\":462:493   */\n      tag_89\n        /* \"#utility.yul\":487:492   */\n      dup2\n        /* \"#utility.yul\":462:493   */\n      tag_83\n      jump\t// in\n    tag_89:\n        /* \"#utility.yul\":173:625   */\n      swap4\n      swap7\n        /* \"#utility.yul\":512:517   */\n      swap4\n      swap6\n      pop\n      pop\n      pop\n      pop\n        /* \"#utility.yul\":564:566   */\n      0x40\n        /* \"#utility.yul\":549:567   */\n      dup3\n      add\n        /* \"#utility.yul\":536:568   */\n      calldataload\n      swap2\n        /* \"#utility.yul\":615:617   */\n      0x60\n        /* \"#utility.yul\":600:618   */\n      add\n        /* \"#utility.yul\":587:619   */\n      calldataload\n      swap1\n        /* \"#utility.yul\":173:625   */\n      jump\t// out\n        /* \"#utility.yul\":630:810   */\n    tag_16:\n        /* \"#utility.yul\":689:695   */\n      0x00\n        /* \"#utility.yul\":742:744   */\n      0x20\n        /* \"#utility.yul\":730:739   */\n      dup3\n        /* \"#utility.yul\":721:728   */\n      dup5\n        /* \"#utility.yul\":717:740   */\n      sub\n        /* \"#utility.yul\":713:745   */\n      slt\n        /* \"#utility.yul\":710:762   */\n      iszero\n      tag_91\n      jumpi\n        /* \"#utility.yul\":758:759   */\n      0x00\n        /* \"#utility.yul\":755:756   */\n      dup1\n        /* \"#utility.yul\":748:760   */\n      revert\n        /* \"#utility.yul\":710:762   */\n    tag_91:\n      pop\n        /* \"#utility.yul\":781:804   */\n      calldataload\n      swap2\n        /* \"#utility.yul\":630:810   */\n      swap1\n      pop\n      jump\t// out\n        /* \"#utility.yul\":815:1063   */\n    tag_21:\n        /* \"#utility.yul\":883:889   */\n      0x00\n        /* \"#utility.yul\":891:897   */\n      dup1\n        /* \"#utility.yul\":944:946   */\n      0x40\n        /* \"#utility.yul\":932:941   */\n      dup4\n        /* \"#utility.yul\":923:930   */\n      dup6\n        /* \"#utility.yul\":919:942   */\n      sub\n        /* \"#utility.yul\":915:947   */\n      slt\n        /* \"#utility.yul\":912:964   */\n      iszero\n      tag_93\n      jumpi\n        /* \"#utility.yul\":960:961   */\n      0x00\n        /* \"#utility.yul\":957:958   */\n      dup1\n        /* \"#utility.yul\":950:962   */\n      revert\n        /* \"#utility.yul\":912:964   */\n    tag_93:\n      pop\n      pop\n        /* \"#utility.yul\":983:1006   */\n      dup1\n      calldataload\n      swap3\n        /* \"#utility.yul\":1053:1055   */\n      0x20\n        /* \"#utility.yul\":1038:1056   */\n      swap1\n      swap2\n      add\n        /* \"#utility.yul\":1025:1057   */\n      calldataload\n      swap2\n      pop\n        /* \"#utility.yul\":815:1063   */\n      jump\t// out\n        /* \"#utility.yul\":1068:1383   */\n    tag_25:\n        /* \"#utility.yul\":1136:1142   */\n      0x00\n        /* \"#utility.yul\":1144:1150   */\n      dup1\n        /* \"#utility.yul\":1197:1199   */\n      0x40\n        /* \"#utility.yul\":1185:1194   */\n      dup4\n        /* \"#utility.yul\":1176:1183   */\n      dup6\n        /* \"#utility.yul\":1172:1195   */\n      sub\n        /* \"#utility.yul\":1168:1200   */\n      slt\n        /* \"#utility.yul\":1165:1217   */\n      iszero\n      tag_95\n      jumpi\n        /* \"#utility.yul\":1213:1214   */\n      0x00\n        /* \"#utility.yul\":1210:1211   */\n      dup1\n        /* \"#utility.yul\":1203:1215   */\n      revert\n        /* \"#utility.yul\":1165:1217   */\n    tag_95:\n        /* \"#utility.yul\":1249:1258   */\n      dup3\n        /* \"#utility.yul\":1236:1259   */\n      calldataload\n        /* \"#utility.yul\":1226:1259   */\n      swap2\n      pop\n        /* \"#utility.yul\":1309:1311   */\n      0x20\n        /* \"#utility.yul\":1298:1307   */\n      dup4\n        /* \"#utility.yul\":1294:1312   */\n      add\n        /* \"#utility.yul\":1281:1313   */\n      calldataload\n        /* \"#utility.yul\":1322:1353   */\n      tag_96\n        /* \"#utility.yul\":1347:1352   */\n      dup2\n        /* \"#utility.yul\":1322:1353   */\n      tag_83\n      jump\t// in\n    tag_96:\n        /* \"#utility.yul\":1372:1377   */\n      dup1\n        /* \"#utility.yul\":1362:1377   */\n      swap2\n      pop\n      pop\n        /* \"#utility.yul\":1068:1383   */\n      swap3\n      pop\n      swap3\n      swap1\n      pop\n      jump\t// out\n        /* \"#utility.yul\":1388:1982   */\n    tag_30:\n        /* \"#utility.yul\":1483:1489   */\n      0x00\n        /* \"#utility.yul\":1491:1497   */\n      dup1\n        /* \"#utility.yul\":1499:1505   */\n      0x00\n        /* \"#utility.yul\":1507:1513   */\n      dup1\n        /* \"#utility.yul\":1515:1521   */\n      0x00\n        /* \"#utility.yul\":1568:1571   */\n      0xa0\n        /* \"#utility.yul\":1556:1565   */\n      dup7\n        /* \"#utility.yul\":1547:1554   */\n      dup9\n        /* \"#utility.yul\":1543:1566   */\n      sub\n        /* \"#utility.yul\":1539:1572   */\n      slt\n        /* \"#utility.yul\":1536:1589   */\n      iszero\n      tag_98\n      jumpi\n        /* \"#utility.yul\":1585:1586   */\n      0x00\n        /* \"#utility.yul\":1582:1583   */\n      dup1\n        /* \"#utility.yul\":1575:1587   */\n      revert\n        /* \"#utility.yul\":1536:1589   */\n    tag_98:\n        /* \"#utility.yul\":1621:1630   */\n      dup6\n        /* \"#utility.yul\":1608:1631   */\n      calldataload\n        /* \"#utility.yul\":1598:1631   */\n      swap5\n      pop\n        /* \"#utility.yul\":1681:1683   */\n      0x20\n        /* \"#utility.yul\":1670:1679   */\n      dup7\n        /* \"#utility.yul\":1666:1684   */\n      add\n        /* \"#utility.yul\":1653:1685   */\n      calldataload\n        /* \"#utility.yul\":1694:1725   */\n      tag_99\n        /* \"#utility.yul\":1719:1724   */\n      dup2\n        /* \"#utility.yul\":1694:1725   */\n      tag_83\n      jump\t// in\n    tag_99:\n        /* \"#utility.yul\":1744:1749   */\n      swap4\n      pop\n        /* \"#utility.yul\":1796:1798   */\n      0x40\n        /* \"#utility.yul\":1781:1799   */\n      dup7\n      add\n        /* \"#utility.yul\":1768:1800   */\n      calldataload\n      swap3\n      pop\n        /* \"#utility.yul\":1852:1854   */\n      0x60\n        /* \"#utility.yul\":1837:1855   */\n      dup7\n      add\n        /* \"#utility.yul\":1824:1856   */\n      calldataload\n        /* \"#utility.yul\":1865:1898   */\n      tag_100\n        /* \"#utility.yul\":1824:1856   */\n      dup2\n        /* \"#utility.yul\":1865:1898   */\n      tag_83\n      jump\t// in\n    tag_100:\n        /* \"#utility.yul\":1388:1982   */\n      swap5\n      swap8\n      swap4\n      swap7\n      pop\n      swap2\n      swap5\n        /* \"#utility.yul\":1971:1974   */\n      0x80\n        /* \"#utility.yul\":1956:1975   */\n      add\n        /* \"#utility.yul\":1943:1976   */\n      calldataload\n      swap3\n        /* \"#utility.yul\":1388:1982   */\n      swap2\n      pop\n      pop\n      jump\t// out\n        /* \"#utility.yul\":3289:3540   */\n    tag_69:\n        /* \"#utility.yul\":3359:3365   */\n      0x00\n        /* \"#utility.yul\":3412:3414   */\n      0x20\n        /* \"#utility.yul\":3400:3409   */\n      dup3\n        /* \"#utility.yul\":3391:3398   */\n      dup5\n        /* \"#utility.yul\":3387:3410   */\n      sub\n        /* \"#utility.yul\":3383:3415   */\n      slt\n        /* \"#utility.yul\":3380:3432   */\n      iszero\n      tag_106\n      jumpi\n        /* \"#utility.yul\":3428:3429   */\n      0x00\n        /* \"#utility.yul\":3425:3426   */\n      dup1\n        /* \"#utility.yul\":3418:3430   */\n      revert\n        /* \"#utility.yul\":3380:3432   */\n    tag_106:\n        /* \"#utility.yul\":3460:3469   */\n      dup2\n        /* \"#utility.yul\":3454:3470   */\n      mload\n        /* \"#utility.yul\":3479:3510   */\n      tag_107\n        /* \"#utility.yul\":3504:3509   */\n      dup2\n        /* \"#utility.yul\":3479:3510   */\n      tag_83\n      jump\t// in\n    tag_107:\n        /* \"#utility.yul\":3529:3534   */\n      swap4\n        /* \"#utility.yul\":3289:3540   */\n      swap3\n      pop\n      pop\n      pop\n      jump\t// out\n\n    auxdata: 0xa2646970667358221220ab7a2d1d01e1ff4dd97af4b2e532050e06a564f7eeb334120df2b2ac628c323564736f6c63430008190033\n}\n",
				"bytecode": {
					"linkReferences": {},
					"object": "6080604052348015600e575f80fd5b5061081d8061001c5f395ff3fe608060405260043610610058575f3560e01c8063aa8de79411610041578063aa8de7941461009c578063c049604a146100bb578063dac17732146100ce575f80fd5b806304f249381461005c5780639299e5521461007d575b5f80fd5b348015610067575f80fd5b5061007b6100763660046106d8565b610155565b005b348015610088575f80fd5b5061007b610097366004610712565b61027a565b3480156100a7575f80fd5b5061007b6100b6366004610729565b6102d7565b61007b6100c9366004610749565b6102f6565b3480156100d9575f80fd5b506101436100e8366004610777565b604080516020808201979097526bffffffffffffffffffffffff19606096871b81168284015260548201959095529290941b90921660748201526088808201929092528251808203909201825260a801909152805191012090565b60405190815260200160405180910390f35b83836101618282610497565b6040805160208082018990526bffffffffffffffffffffffff1933606090811b8216848601526054840188905289901b16607483015260888083018890528351808403909101815260a890920190925280519101205f906040805160a081018252338082526001600160a01b038a811660208085019182528486018e8152606086018c8152608087018e81525f8a8152938490529783209651875490861673ffffffffffffffffffffffffffffffffffffffff1991821617885593516001880180549190961694169390931790935591516002850155516003840155925160049092019190915591925082907f17a154a37f0fb7c7f440e4672a098f6afcc1ba29bc7ab9ce143014be49d7410e9080a350505050505050565b8061028481610565565b5f828152602081905260408120805473ffffffffffffffffffffffffffffffffffffffff199081168255600182018054909116905560028101829055600381018290556004018190553390839080a25050565b816102e181610565565b505f9182526020829052604090912060030155565b5f8281526020818152604091829020825160a08101845281546001600160a01b03908116825260018301541692810192909252600281015492820192909252600382015460608201526004909101546080820152610353836105b7565b61035c83610607565b61036583610658565b805160408083015190517f42842e0e0000000000000000000000000000000000000000000000000000000081526001600160a01b0392831660048201523360248201526044810191909152908316906342842e0e906064015f604051808303815f87803b1580156103d4575f80fd5b505af11580156103e6573d5f803e3d5ffd5b505082516040516001600160a01b0390911692503480156108fc029250905f818181858888f19350505050158015610420573d5f803e3d5ffd5b505f838152602081905260408120805473ffffffffffffffffffffffffffffffffffffffff19908116825560018201805490911690556002810182905560038101829055600401819055339084907f4c72f34d0e2a0b597a25ae9c086c06c4ac48ba071ecc23757ab1668bcd20be509080a3505050565b6040517f6352211e0000000000000000000000000000000000000000000000000000000081526004810183905233906001600160a01b03831690636352211e90602401602060405180830381865afa1580156104f5573d5f803e3d5ffd5b505050506040513d601f19601f8201168201806040525081019061051991906107c5565b6001600160a01b031614610561576040517f4d65ccb8000000000000000000000000000000000000000000000000000000008152600481018390526024015b60405180910390fd5b5050565b5f818152602081905260409020546001600160a01b031633146105b4576040517fbab7ca3500000000000000000000000000000000000000000000000000000000815260040160405180910390fd5b50565b5f818152602081905260409020546001600160a01b03166105b4576040517f45abffa900000000000000000000000000000000000000000000000000000000815260048101829052602401610558565b5f81815260208190526040902054336001600160a01b03909116036105b4576040517fb1df0e0600000000000000000000000000000000000000000000000000000000815260040160405180910390fd5b5f8181526020819052604090206003015434146105b4575f81815260208190526040908190206003015490517f5cd97799000000000000000000000000000000000000000000000000000000008152600481018390526024810191909152346044820152606401610558565b6001600160a01b03811681146105b4575f80fd5b5f805f80608085870312156106eb575f80fd5b8435935060208501356106fd816106c4565b93969395505050506040820135916060013590565b5f60208284031215610722575f80fd5b5035919050565b5f806040838503121561073a575f80fd5b50508035926020909101359150565b5f806040838503121561075a575f80fd5b82359150602083013561076c816106c4565b809150509250929050565b5f805f805f60a0868803121561078b575f80fd5b85359450602086013561079d816106c4565b93506040860135925060608601356107b4816106c4565b949793965091946080013592915050565b5f602082840312156107d5575f80fd5b81516107e0816106c4565b939250505056fea2646970667358221220ab7a2d1d01e1ff4dd97af4b2e532050e06a564f7eeb334120df2b2ac628c323564736f6c63430008190033",
					"opcodes": "PUSH1 0x80 PUSH1 0x40 MSTORE CALLVALUE DUP1 ISZERO PUSH1 0xE JUMPI PUSH0 DUP1 REVERT JUMPDEST POP PUSH2 0x81D DUP1 PUSH2 0x1C PUSH0 CODECOPY PUSH0 RETURN INVALID PUSH1 0x80 PUSH1 0x40 MSTORE PUSH1 0x4 CALLDATASIZE LT PUSH2 0x58 JUMPI PUSH0 CALLDATALOAD PUSH1 0xE0 SHR DUP1 PUSH4 0xAA8DE794 GT PUSH2 0x41 JUMPI DUP1 PUSH4 0xAA8DE794 EQ PUSH2 0x9C JUMPI DUP1 PUSH4 0xC049604A EQ PUSH2 0xBB JUMPI DUP1 PUSH4 0xDAC17732 EQ PUSH2 0xCE JUMPI PUSH0 DUP1 REVERT JUMPDEST DUP1 PUSH4 0x4F24938 EQ PUSH2 0x5C JUMPI DUP1 PUSH4 0x9299E552 EQ PUSH2 0x7D JUMPI JUMPDEST PUSH0 DUP1 REVERT JUMPDEST CALLVALUE DUP1 ISZERO PUSH2 0x67 JUMPI PUSH0 DUP1 REVERT JUMPDEST POP PUSH2 0x7B PUSH2 0x76 CALLDATASIZE PUSH1 0x4 PUSH2 0x6D8 JUMP JUMPDEST PUSH2 0x155 JUMP JUMPDEST STOP JUMPDEST CALLVALUE DUP1 ISZERO PUSH2 0x88 JUMPI PUSH0 DUP1 REVERT JUMPDEST POP PUSH2 0x7B PUSH2 0x97 CALLDATASIZE PUSH1 0x4 PUSH2 0x712 JUMP JUMPDEST PUSH2 0x27A JUMP JUMPDEST CALLVALUE DUP1 ISZERO PUSH2 0xA7 JUMPI PUSH0 DUP1 REVERT JUMPDEST POP PUSH2 0x7B PUSH2 0xB6 CALLDATASIZE PUSH1 0x4 PUSH2 0x729 JUMP JUMPDEST PUSH2 0x2D7 JUMP JUMPDEST PUSH2 0x7B PUSH2 0xC9 CALLDATASIZE PUSH1 0x4 PUSH2 0x749 JUMP JUMPDEST PUSH2 0x2F6 JUMP JUMPDEST CALLVALUE DUP1 ISZERO PUSH2 0xD9 JUMPI PUSH0 DUP1 REVERT JUMPDEST POP PUSH2 0x143 PUSH2 0xE8 CALLDATASIZE PUSH1 0x4 PUSH2 0x777 JUMP JUMPDEST PUSH1 0x40 DUP1 MLOAD PUSH1 0x20 DUP1 DUP3 ADD SWAP8 SWAP1 SWAP8 MSTORE PUSH12 0xFFFFFFFFFFFFFFFFFFFFFFFF NOT PUSH1 0x60 SWAP7 DUP8 SHL DUP2 AND DUP3 DUP5 ADD MSTORE PUSH1 0x54 DUP3 ADD SWAP6 SWAP1 SWAP6 MSTORE SWAP3 SWAP1 SWAP5 SHL SWAP1 SWAP3 AND PUSH1 0x74 DUP3 ADD MSTORE PUSH1 0x88 DUP1 DUP3 ADD SWAP3 SWAP1 SWAP3 MSTORE DUP3 MLOAD DUP1 DUP3 SUB SWAP1 SWAP3 ADD DUP3 MSTORE PUSH1 0xA8 ADD SWAP1 SWAP2 MSTORE DUP1 MLOAD SWAP2 ADD KECCAK256 SWAP1 JUMP JUMPDEST PUSH1 0x40 MLOAD SWAP1 DUP2 MSTORE PUSH1 0x20 ADD PUSH1 0x40 MLOAD DUP1 SWAP2 SUB SWAP1 RETURN JUMPDEST DUP4 DUP4 PUSH2 0x161 DUP3 DUP3 PUSH2 0x497 JUMP JUMPDEST PUSH1 0x40 DUP1 MLOAD PUSH1 0x20 DUP1 DUP3 ADD DUP10 SWAP1 MSTORE PUSH12 0xFFFFFFFFFFFFFFFFFFFFFFFF NOT CALLER PUSH1 0x60 SWAP1 DUP2 SHL DUP3 AND DUP5 DUP7 ADD MSTORE PUSH1 0x54 DUP5 ADD DUP9 SWAP1 MSTORE DUP10 SWAP1 SHL AND PUSH1 0x74 DUP4 ADD MSTORE PUSH1 0x88 DUP1 DUP4 ADD DUP9 SWAP1 MSTORE DUP4 MLOAD DUP1 DUP5 SUB SWAP1 SWAP2 ADD DUP2 MSTORE PUSH1 0xA8 SWAP1 SWAP3 ADD SWAP1 SWAP3 MSTORE DUP1 MLOAD SWAP2 ADD KECCAK256 PUSH0 SWAP1 PUSH1 0x40 DUP1 MLOAD PUSH1 0xA0 DUP2 ADD DUP3 MSTORE CALLER DUP1 DUP3 MSTORE PUSH1 0x1 PUSH1 0x1 PUSH1 0xA0 SHL SUB DUP11 DUP2 AND PUSH1 0x20 DUP1 DUP6 ADD SWAP2 DUP3 MSTORE DUP5 DUP7 ADD DUP15 DUP2 MSTORE PUSH1 0x60 DUP7 ADD DUP13 DUP2 MSTORE PUSH1 0x80 DUP8 ADD DUP15 DUP2 MSTORE PUSH0 DUP11 DUP2 MSTORE SWAP4 DUP5 SWAP1 MSTORE SWAP8 DUP4 KECCAK256 SWAP7 MLOAD DUP8 SLOAD SWAP1 DUP7 AND PUSH20 0xFFFFFFFFFFFFFFFFFFFFFFFFFFFFFFFFFFFFFFFF NOT SWAP2 DUP3 AND OR DUP9 SSTORE SWAP4 MLOAD PUSH1 0x1 DUP9 ADD DUP1 SLOAD SWAP2 SWAP1 SWAP7 AND SWAP5 AND SWAP4 SWAP1 SWAP4 OR SWAP1 SWAP4 SSTORE SWAP2 MLOAD PUSH1 0x2 DUP6 ADD SSTORE MLOAD PUSH1 0x3 DUP5 ADD SSTORE SWAP3 MLOAD PUSH1 0x4 SWAP1 SWAP3 ADD SWAP2 SWAP1 SWAP2 SSTORE SWAP2 SWAP3 POP DUP3 SWAP1 PUSH32 0x17A154A37F0FB7C7F440E4672A098F6AFCC1BA29BC7AB9CE143014BE49D7410E SWAP1 DUP1 LOG3 POP POP POP POP POP POP POP JUMP JUMPDEST DUP1 PUSH2 0x284 DUP2 PUSH2 0x565 JUMP JUMPDEST PUSH0 DUP3 DUP2 MSTORE PUSH1 0x20 DUP2 SWAP1 MSTORE PUSH1 0x40 DUP2 KECCAK256 DUP1 SLOAD PUSH20 0xFFFFFFFFFFFFFFFFFFFFFFFFFFFFFFFFFFFFFFFF NOT SWAP1 DUP2 AND DUP3 SSTORE PUSH1 0x1 DUP3 ADD DUP1 SLOAD SWAP1 SWAP2 AND SWAP1 SSTORE PUSH1 0x2 DUP2 ADD DUP3 SWAP1 SSTORE PUSH1 0x3 DUP2 ADD DUP3 SWAP1 SSTORE PUSH1 0x4 ADD DUP2 SWAP1 SSTORE CALLER SWAP1 DUP4 SWAP1 DUP1 LOG2 POP POP JUMP JUMPDEST DUP2 PUSH2 0x2E1 DUP2 PUSH2 0x565 JUMP JUMPDEST POP PUSH0 SWAP2 DUP3 MSTORE PUSH1 0x20 DUP3 SWAP1 MSTORE PUSH1 0x40 SWAP1 SWAP2 KECCAK256 PUSH1 0x3 ADD SSTORE JUMP JUMPDEST PUSH0 DUP3 DUP2 MSTORE PUSH1 0x20 DUP2 DUP2 MSTORE PUSH1 0x40 SWAP2 DUP3 SWAP1 KECCAK256 DUP3 MLOAD PUSH1 0xA0 DUP2 ADD DUP5 MSTORE DUP2 SLOAD PUSH1 0x1 PUSH1 0x1 PUSH1 0xA0 SHL SUB SWAP1 DUP2 AND DUP3 MSTORE PUSH1 0x1 DUP4 ADD SLOAD AND SWAP3 DUP2 ADD SWAP3 SWAP1 SWAP3 MSTORE PUSH1 0x2 DUP2 ADD SLOAD SWAP3 DUP3 ADD SWAP3 SWAP1 SWAP3 MSTORE PUSH1 0x3 DUP3 ADD SLOAD PUSH1 0x60 DUP3 ADD MSTORE PUSH1 0x4 SWAP1 SWAP2 ADD SLOAD PUSH1 0x80 DUP3 ADD MSTORE PUSH2 0x353 DUP4 PUSH2 0x5B7 JUMP JUMPDEST PUSH2 0x35C DUP4 PUSH2 0x607 JUMP JUMPDEST PUSH2 0x365 DUP4 PUSH2 0x658 JUMP JUMPDEST DUP1 MLOAD PUSH1 0x40 DUP1 DUP4 ADD MLOAD SWAP1 MLOAD PUSH32 0x42842E0E00000000000000000000000000000000000000000000000000000000 DUP2 MSTORE PUSH1 0x1 PUSH1 0x1 PUSH1 0xA0 SHL SUB SWAP3 DUP4 AND PUSH1 0x4 DUP3 ADD MSTORE CALLER PUSH1 0x24 DUP3 ADD MSTORE PUSH1 0x44 DUP2 ADD SWAP2 SWAP1 SWAP2 MSTORE SWAP1 DUP4 AND SWAP1 PUSH4 0x42842E0E SWAP1 PUSH1 0x64 ADD PUSH0 PUSH1 0x40 MLOAD DUP1 DUP4 SUB DUP2 PUSH0 DUP8 DUP1 EXTCODESIZE ISZERO DUP1 ISZERO PUSH2 0x3D4 JUMPI PUSH0 DUP1 REVERT JUMPDEST POP GAS CALL ISZERO DUP1 ISZERO PUSH2 0x3E6 JUMPI RETURNDATASIZE PUSH0 DUP1 RETURNDATACOPY RETURNDATASIZE PUSH0 REVERT JUMPDEST POP POP DUP3 MLOAD PUSH1 0x40 MLOAD PUSH1 0x1 PUSH1 0x1 PUSH1 0xA0 SHL SUB SWAP1 SWAP2 AND SWAP3 POP CALLVALUE DUP1 ISZERO PUSH2 0x8FC MUL SWAP3 POP SWAP1 PUSH0 DUP2 DUP2 DUP2 DUP6 DUP9 DUP9 CALL SWAP4 POP POP POP POP ISZERO DUP1 ISZERO PUSH2 0x420 JUMPI RETURNDATASIZE PUSH0 DUP1 RETURNDATACOPY RETURNDATASIZE PUSH0 REVERT JUMPDEST POP PUSH0 DUP4 DUP2 MSTORE PUSH1 0x20 DUP2 SWAP1 MSTORE PUSH1 0x40 DUP2 KECCAK256 DUP1 SLOAD PUSH20 0xFFFFFFFFFFFFFFFFFFFFFFFFFFFFFFFFFFFFFFFF NOT SWAP1 DUP2 AND DUP3 SSTORE PUSH1 0x1 DUP3 ADD DUP1 SLOAD SWAP1 SWAP2 AND SWAP1 SSTORE PUSH1 0x2 DUP2 ADD DUP3 SWAP1 SSTORE PUSH1 0x3 DUP2 ADD DUP3 SWAP1 SSTORE PUSH1 0x4 ADD DUP2 SWAP1 SSTORE CALLER SWAP1 DUP5 SWAP1 PUSH32 0x4C72F34D0E2A0B597A25AE9C086C06C4AC48BA071ECC23757AB1668BCD20BE50 SWAP1 DUP1 LOG3 POP POP POP JUMP JUMPDEST PUSH1 0x40 MLOAD PUSH32 0x6352211E00000000000000000000000000000000000000000000000000000000 DUP2 MSTORE PUSH1 0x4 DUP2 ADD DUP4 SWAP1 MSTORE CALLER SWAP1 PUSH1 0x1 PUSH1 0x1 PUSH1 0xA0 SHL SUB DUP4 AND SWAP1 PUSH4 0x6352211E SWAP1 PUSH1 0x24 ADD PUSH1 0x20 PUSH1 0x40 MLOAD DUP1 DUP4 SUB DUP2 DUP7 GAS STATICCALL ISZERO DUP1 ISZERO PUSH2 0x4F5 JUMPI RETURNDATASIZE PUSH0 DUP1 RETURNDATACOPY RETURNDATASIZE PUSH0 REVERT JUMPDEST POP POP POP POP PUSH1 0x40 MLOAD RETURNDATASIZE PUSH1 0x1F NOT PUSH1 0x1F DUP3 ADD AND DUP3 ADD DUP1 PUSH1 0x40 MSTORE POP DUP2 ADD SWAP1 PUSH2 0x519 SWAP2 SWAP1 PUSH2 0x7C5 JUMP JUMPDEST PUSH1 0x1 PUSH1 0x1 PUSH1 0xA0 SHL SUB AND EQ PUSH2 0x561 JUMPI PUSH1 0x40 MLOAD PUSH32 0x4D65CCB800000000000000000000000000000000000000000000000000000000 DUP2 MSTORE PUSH1 0x4 DUP2 ADD DUP4 SWAP1 MSTORE PUSH1 0x24 ADD JUMPDEST PUSH1 0x40 MLOAD DUP1 SWAP2 SUB SWAP1 REVERT JUMPDEST POP POP JUMP JUMPDEST PUSH0 DUP2 DUP2 MSTORE PUSH1 0x20 DUP2 SWAP1 MSTORE PUSH1 0x40 SWAP1 KECCAK256 SLOAD PUSH1 0x1 PUSH1 0x1 PUSH1 0xA0 SHL SUB AND CALLER EQ PUSH2 0x5B4 JUMPI PUSH1 0x40 MLOAD PUSH32 0xBAB7CA3500000000000000000000000000000000000000000000000000000000 DUP2 MSTORE PUSH1 0x4 ADD PUSH1 0x40 MLOAD DUP1 SWAP2 SUB SWAP1 REVERT JUMPDEST POP JUMP JUMPDEST PUSH0 DUP2 DUP2 MSTORE PUSH1 0x20 DUP2 SWAP1 MSTORE PUSH1 0x40 SWAP1 KECCAK256 SLOAD PUSH1 0x1 PUSH1 0x1 PUSH1 0xA0 SHL SUB AND PUSH2 0x5B4 JUMPI PUSH1 0x40 MLOAD PUSH32 0x45ABFFA900000000000000000000000000000000000000000000000000000000 DUP2 MSTORE PUSH1 0x4 DUP2 ADD DUP3 SWAP1 MSTORE PUSH1 0x24 ADD PUSH2 0x558 JUMP JUMPDEST PUSH0 DUP2 DUP2 MSTORE PUSH1 0x20 DUP2 SWAP1 MSTORE PUSH1 0x40 SWAP1 KECCAK256 SLOAD CALLER PUSH1 0x1 PUSH1 0x1 PUSH1 0xA0 SHL SUB SWAP1 SWAP2 AND SUB PUSH2 0x5B4 JUMPI PUSH1 0x40 MLOAD PUSH32 0xB1DF0E0600000000000000000000000000000000000000000000000000000000 DUP2 MSTORE PUSH1 0x4 ADD PUSH1 0x40 MLOAD DUP1 SWAP2 SUB SWAP1 REVERT JUMPDEST PUSH0 DUP2 DUP2 MSTORE PUSH1 0x20 DUP2 SWAP1 MSTORE PUSH1 0x40 SWAP1 KECCAK256 PUSH1 0x3 ADD SLOAD CALLVALUE EQ PUSH2 0x5B4 JUMPI PUSH0 DUP2 DUP2 MSTORE PUSH1 0x20 DUP2 SWAP1 MSTORE PUSH1 0x40 SWAP1 DUP2 SWAP1 KECCAK256 PUSH1 0x3 ADD SLOAD SWAP1 MLOAD PUSH32 0x5CD9779900000000000000000000000000000000000000000000000000000000 DUP2 MSTORE PUSH1 0x4 DUP2 ADD DUP4 SWAP1 MSTORE PUSH1 0x24 DUP2 ADD SWAP2 SWAP1 SWAP2 MSTORE CALLVALUE PUSH1 0x44 DUP3 ADD MSTORE PUSH1 0x64 ADD PUSH2 0x558 JUMP JUMPDEST PUSH1 0x1 PUSH1 0x1 PUSH1 0xA0 SHL SUB DUP2 AND DUP2 EQ PUSH2 0x5B4 JUMPI PUSH0 DUP1 REVERT JUMPDEST PUSH0 DUP1 PUSH0 DUP1 PUSH1 0x80 DUP6 DUP8 SUB SLT ISZERO PUSH2 0x6EB JUMPI PUSH0 DUP1 REVERT JUMPDEST DUP5 CALLDATALOAD SWAP4 POP PUSH1 0x20 DUP6 ADD CALLDATALOAD PUSH2 0x6FD DUP2 PUSH2 0x6C4 JUMP JUMPDEST SWAP4 SWAP7 SWAP4 SWAP6 POP POP POP POP PUSH1 0x40 DUP3 ADD CALLDATALOAD SWAP2 PUSH1 0x60 ADD CALLDATALOAD SWAP1 JUMP JUMPDEST PUSH0 PUSH1 0x20 DUP3 DUP5 SUB SLT ISZERO PUSH2 0x722 JUMPI PUSH0 DUP1 REVERT JUMPDEST POP CALLDATALOAD SWAP2 SWAP1 POP JUMP JUMPDEST PUSH0 DUP1 PUSH1 0x40 DUP4 DUP6 SUB SLT ISZERO PUSH2 0x73A JUMPI PUSH0 DUP1 REVERT JUMPDEST POP POP DUP1 CALLDATALOAD SWAP3 PUSH1 0x20 SWAP1 SWAP2 ADD CALLDATALOAD SWAP2 POP JUMP JUMPDEST PUSH0 DUP1 PUSH1 0x40 DUP4 DUP6 SUB SLT ISZERO PUSH2 0x75A JUMPI PUSH0 DUP1 REVERT JUMPDEST DUP3 CALLDATALOAD SWAP2 POP PUSH1 0x20 DUP4 ADD CALLDATALOAD PUSH2 0x76C DUP2 PUSH2 0x6C4 JUMP JUMPDEST DUP1 SWAP2 POP POP SWAP3 POP SWAP3 SWAP1 POP JUMP JUMPDEST PUSH0 DUP1 PUSH0 DUP1 PUSH0 PUSH1 0xA0 DUP7 DUP9 SUB SLT ISZERO PUSH2 0x78B JUMPI PUSH0 DUP1 REVERT JUMPDEST DUP6 CALLDATALOAD SWAP5 POP PUSH1 0x20 DUP7 ADD CALLDATALOAD PUSH2 0x79D DUP2 PUSH2 0x6C4 JUMP JUMPDEST SWAP4 POP PUSH1 0x40 DUP7 ADD CALLDATALOAD SWAP3 POP PUSH1 0x60 DUP7 ADD CALLDATALOAD PUSH2 0x7B4 DUP2 PUSH2 0x6C4 JUMP JUMPDEST SWAP5 SWAP8 SWAP4 SWAP7 POP SWAP2 SWAP5 PUSH1 0x80 ADD CALLDATALOAD SWAP3 SWAP2 POP POP JUMP JUMPDEST PUSH0 PUSH1 0x20 DUP3 DUP5 SUB SLT ISZERO PUSH2 0x7D5 JUMPI PUSH0 DUP1 REVERT JUMPDEST DUP2 MLOAD PUSH2 0x7E0 DUP2 PUSH2 0x6C4 JUMP JUMPDEST SWAP4 SWAP3 POP POP POP JUMP INVALID LOG2 PUSH5 0x6970667358 0x22 SLT KECCAK256 0xAB PUSH27 0x2D1D01E1FF4DD97AF4B2E532050E06A564F7EEB334120DF2B2AC62 DUP13 ORIGIN CALLDATALOAD PUSH5 0x736F6C6343 STOP ADDMOD NOT STOP CALLER "
				},
				"gasEstimates": {
					"creation": {
						"codeDepositCost": "415400",
						"executionCost": "447",
						"totalCost": "415847"
					},
					"external": {
						"buy(bytes32,address)": "infinite",
						"cancelListing(bytes32)": "67183",
						"changeListingPrice(bytes32,uint256)": "24664",
						"createListing(uint256,address,bytes32,uint256)": "infinite",
						"getListingHash(uint256,address,uint256,address,bytes32)": "infinite"
					},
					"internal": {
						"_checkIfSeller(bytes32)": "infinite",
						"_checkNFTOwned(uint256,address)": "infinite",
						"_checkValidAmountToPay(bytes32)": "infinite",
						"_checkValidBuyer(bytes32)": "infinite",
						"_checkValidListing(bytes32)": "infinite"
					}
				},
				"methodIdentifiers": {
					"buy(bytes32,address)": "c049604a",
					"cancelListing(bytes32)": "9299e552",
					"changeListingPrice(bytes32,uint256)": "aa8de794",
					"createListing(uint256,address,bytes32,uint256)": "04f24938",
					"getListingHash(uint256,address,uint256,address,bytes32)": "dac17732"
				}
			},
			"storageLayout": {
				"storage": [
					{
						"astId": 27,
						"contract": "contracts/ContractW/ContractWV3.sol:ContractWV3",
						"label": "listings",
						"offset": 0,
						"slot": "0",
						"type": "t_mapping(t_bytes32,t_struct(Listing)13_storage)"
					}
				],
				"types": {
					"t_address": {
						"encoding": "inplace",
						"label": "address",
						"numberOfBytes": "20"
					},
					"t_bytes32": {
						"encoding": "inplace",
						"label": "bytes32",
						"numberOfBytes": "32"
					},
					"t_mapping(t_bytes32,t_struct(Listing)13_storage)": {
						"encoding": "mapping",
						"key": "t_bytes32",
						"label": "mapping(bytes32 => struct ContractWV3.Listing)",
						"numberOfBytes": "32",
						"value": "t_struct(Listing)13_storage"
					},
					"t_struct(Listing)13_storage": {
						"encoding": "inplace",
						"label": "struct ContractWV3.Listing",
						"members": [
							{
								"astId": 4,
								"contract": "contracts/ContractW/ContractWV3.sol:ContractWV3",
								"label": "seller",
								"offset": 0,
								"slot": "0",
								"type": "t_address"
							},
							{
								"astId": 6,
								"contract": "contracts/ContractW/ContractWV3.sol:ContractWV3",
								"label": "nftContract",
								"offset": 0,
								"slot": "1",
								"type": "t_address"
							},
							{
								"astId": 8,
								"contract": "contracts/ContractW/ContractWV3.sol:ContractWV3",
								"label": "tokenId",
								"offset": 0,
								"slot": "2",
								"type": "t_uint256"
							},
							{
								"astId": 10,
								"contract": "contracts/ContractW/ContractWV3.sol:ContractWV3",
								"label": "price",
								"offset": 0,
								"slot": "3",
								"type": "t_uint256"
							},
							{
								"astId": 12,
								"contract": "contracts/ContractW/ContractWV3.sol:ContractWV3",
								"label": "salt",
								"offset": 0,
								"slot": "4",
								"type": "t_bytes32"
							}
						],
						"numberOfBytes": "160"
					},
					"t_uint256": {
						"encoding": "inplace",
						"label": "uint256",
						"numberOfBytes": "32"
					}
				}
			},
			"userdoc": {
				"kind": "user",
				"methods": {},
				"version": 1
			}
		}
	}
}