{
	"contracts/ContractW/ContractWV2.sol": {
		"ContractWV2": {
			"abi": [
				{
					"inputs": [],
					"name": "ECDSAInvalidSignature",
					"type": "error"
				},
				{
					"inputs": [
						{
							"internalType": "uint256",
							"name": "length",
							"type": "uint256"
						}
					],
					"name": "ECDSAInvalidSignatureLength",
					"type": "error"
				},
				{
					"inputs": [
						{
							"internalType": "bytes32",
							"name": "s",
							"type": "bytes32"
						}
					],
					"name": "ECDSAInvalidSignatureS",
					"type": "error"
				},
				{
					"inputs": [
						{
							"internalType": "uint256",
							"name": "price",
							"type": "uint256"
						},
						{
							"internalType": "uint256",
							"name": "amountToPay",
							"type": "uint256"
						}
					],
					"name": "InvalidAmountToPay",
					"type": "error"
				},
				{
					"inputs": [],
					"name": "InvalidBuyer",
					"type": "error"
				},
				{
					"inputs": [
						{
							"internalType": "bytes32",
							"name": "listingHash",
							"type": "bytes32"
						}
					],
					"name": "InvalidListing",
					"type": "error"
				},
				{
					"inputs": [],
					"name": "InvalidSeller",
					"type": "error"
				},
				{
					"inputs": [
						{
							"internalType": "bytes",
							"name": "signature",
							"type": "bytes"
						},
						{
							"internalType": "address",
							"name": "recoveredAddress",
							"type": "address"
						},
						{
							"internalType": "address",
							"name": "expectedAddress",
							"type": "address"
						}
					],
					"name": "InvalidSignature",
					"type": "error"
				},
				{
					"inputs": [
						{
							"internalType": "bytes32",
							"name": "listingHash",
							"type": "bytes32"
						}
					],
					"name": "ListingAlreadyCancelled",
					"type": "error"
				},
				{
					"inputs": [
						{
							"internalType": "uint256[2]",
							"name": "nums",
							"type": "uint256[2]"
						},
						{
							"internalType": "address[2]",
							"name": "addrs",
							"type": "address[2]"
						},
						{
							"internalType": "bytes32",
							"name": "salt",
							"type": "bytes32"
						},
						{
							"internalType": "bytes",
							"name": "signature",
							"type": "bytes"
						}
					],
					"name": "buy",
					"outputs": [],
					"stateMutability": "payable",
					"type": "function"
				},
				{
					"inputs": [
						{
							"internalType": "bytes32",
							"name": "listingHash",
							"type": "bytes32"
						},
						{
							"internalType": "bytes",
							"name": "signature",
							"type": "bytes"
						}
					],
					"name": "cancelListing",
					"outputs": [],
					"stateMutability": "nonpayable",
					"type": "function"
				},
				{
					"inputs": [
						{
							"internalType": "bytes32",
							"name": "",
							"type": "bytes32"
						}
					],
					"name": "cancelledListings",
					"outputs": [
						{
							"internalType": "bool",
							"name": "",
							"type": "bool"
						}
					],
					"stateMutability": "view",
					"type": "function"
				},
				{
					"inputs": [
						{
							"internalType": "uint256",
							"name": "tokenId",
							"type": "uint256"
						},
						{
							"internalType": "address",
							"name": "seller",
							"type": "address"
						},
						{
							"internalType": "uint256",
							"name": "price",
							"type": "uint256"
						},
						{
							"internalType": "address",
							"name": "nftContract",
							"type": "address"
						},
						{
							"internalType": "bytes32",
							"name": "salt",
							"type": "bytes32"
						}
					],
					"name": "getListingHash",
					"outputs": [
						{
							"internalType": "bytes32",
							"name": "",
							"type": "bytes32"
						}
					],
					"stateMutability": "pure",
					"type": "function"
				}
			],
			"devdoc": {
				"errors": {
					"ECDSAInvalidSignature()": [
						{
							"details": "The signature derives the `address(0)`."
						}
					],
					"ECDSAInvalidSignatureLength(uint256)": [
						{
							"details": "The signature has an invalid length."
						}
					],
					"ECDSAInvalidSignatureS(bytes32)": [
						{
							"details": "The signature has an S value that is in the upper half order."
						}
					]
				},
				"kind": "dev",
				"methods": {},
				"version": 1
			},
			"evm": {
				"assembly": "    /* \"contracts/ContractW/ContractWV2.sol\":476:4765  contract ContractWV2 {... */\n  mstore(0x40, 0x80)\n  callvalue\n  dup1\n  iszero\n  tag_1\n  jumpi\n  0x00\n  dup1\n  revert\ntag_1:\n  pop\n  dataSize(sub_0)\n  dup1\n  dataOffset(sub_0)\n  0x00\n  codecopy\n  0x00\n  return\nstop\n\nsub_0: assembly {\n        /* \"contracts/ContractW/ContractWV2.sol\":476:4765  contract ContractWV2 {... */\n      mstore(0x40, 0x80)\n      jumpi(tag_1, lt(calldatasize, 0x04))\n      shr(0xe0, calldataload(0x00))\n      dup1\n      0x02a73507\n      eq\n      tag_2\n      jumpi\n      dup1\n      0x147fa6a8\n      eq\n      tag_3\n      jumpi\n      dup1\n      0xdac17732\n      eq\n      tag_4\n      jumpi\n      dup1\n      0xdb98532a\n      eq\n      tag_5\n      jumpi\n    tag_1:\n      0x00\n      dup1\n      revert\n        /* \"contracts/ContractW/ContractWV2.sol\":1264:1314  mapping (bytes32 => bool) public cancelledListings */\n    tag_2:\n      callvalue\n      dup1\n      iszero\n      tag_6\n      jumpi\n      0x00\n      dup1\n      revert\n    tag_6:\n      pop\n      tag_7\n      tag_8\n      calldatasize\n      0x04\n      tag_9\n      jump\t// in\n    tag_8:\n      0x00\n      0x20\n      dup2\n      swap1\n      mstore\n      swap1\n      dup2\n      mstore\n      0x40\n      swap1\n      keccak256\n      sload\n      0xff\n      and\n      dup2\n      jump\n    tag_7:\n      mload(0x40)\n        /* \"#utility.yul\":364:378   */\n      swap1\n      iszero\n        /* \"#utility.yul\":357:379   */\n      iszero\n        /* \"#utility.yul\":339:380   */\n      dup2\n      mstore\n        /* \"#utility.yul\":327:329   */\n      0x20\n        /* \"#utility.yul\":312:330   */\n      add\n        /* \"contracts/ContractW/ContractWV2.sol\":1264:1314  mapping (bytes32 => bool) public cancelledListings */\n    tag_11:\n      mload(0x40)\n      dup1\n      swap2\n      sub\n      swap1\n      return\n        /* \"contracts/ContractW/ContractWV2.sol\":1649:2637  function buy(... */\n    tag_3:\n      tag_13\n      tag_14\n      calldatasize\n      0x04\n      tag_15\n      jump\t// in\n    tag_14:\n      tag_16\n      jump\t// in\n    tag_13:\n      stop\n        /* \"contracts/ContractW/ContractWV2.sol\":3266:3675  function getListingHash(... */\n    tag_4:\n      callvalue\n      dup1\n      iszero\n      tag_17\n      jumpi\n      0x00\n      dup1\n      revert\n    tag_17:\n      pop\n      tag_18\n      tag_19\n      calldatasize\n      0x04\n      tag_20\n      jump\t// in\n    tag_19:\n        /* \"contracts/ContractW/ContractWV2.sol\":3497:3656  abi.encodePacked(... */\n      0x40\n      dup1\n      mload\n      0x20\n      dup1\n      dup3\n      add\n        /* \"#utility.yul\":3998:4017   */\n      swap8\n      swap1\n      swap8\n      mstore\n      not(0xffffffffffffffffffffffff)\n        /* \"#utility.yul\":4105:4107   */\n      0x60\n        /* \"#utility.yul\":4101:4116   */\n      swap7\n      dup8\n      shl\n        /* \"#utility.yul\":4097:4121   */\n      dup2\n      and\n        /* \"#utility.yul\":4083:4095   */\n      dup3\n      dup5\n      add\n        /* \"#utility.yul\":4076:4122   */\n      mstore\n        /* \"#utility.yul\":4138:4150   */\n      0x54\n      dup3\n      add\n        /* \"#utility.yul\":4131:4159   */\n      swap6\n      swap1\n      swap6\n      mstore\n        /* \"#utility.yul\":4193:4208   */\n      swap3\n      swap1\n      swap5\n      shl\n        /* \"#utility.yul\":4189:4213   */\n      swap1\n      swap3\n      and\n        /* \"#utility.yul\":4175:4187   */\n      0x74\n      dup3\n      add\n        /* \"#utility.yul\":4168:4214   */\n      mstore\n        /* \"#utility.yul\":4230:4243   */\n      0x88\n      dup1\n      dup3\n      add\n        /* \"#utility.yul\":4223:4252   */\n      swap3\n      swap1\n      swap3\n      mstore\n        /* \"contracts/ContractW/ContractWV2.sol\":3497:3656  abi.encodePacked(... */\n      dup3\n      mload\n      dup1\n      dup3\n      sub\n      swap1\n      swap3\n      add\n      dup3\n      mstore\n        /* \"#utility.yul\":4268:4281   */\n      0xa8\n      add\n        /* \"contracts/ContractW/ContractWV2.sol\":3497:3656  abi.encodePacked(... */\n      swap1\n      swap2\n      mstore\n        /* \"contracts/ContractW/ContractWV2.sol\":3473:3667  keccak256(... */\n      dup1\n      mload\n      swap2\n      add\n      keccak256\n      swap1\n        /* \"contracts/ContractW/ContractWV2.sol\":3266:3675  function getListingHash(... */\n      jump\n    tag_18:\n      mload(0x40)\n        /* \"#utility.yul\":2456:2481   */\n      swap1\n      dup2\n      mstore\n        /* \"#utility.yul\":2444:2446   */\n      0x20\n        /* \"#utility.yul\":2429:2447   */\n      add\n        /* \"contracts/ContractW/ContractWV2.sol\":3266:3675  function getListingHash(... */\n      tag_11\n        /* \"#utility.yul\":2310:2487   */\n      jump\n        /* \"contracts/ContractW/ContractWV2.sol\":2730:3258  function cancelListing(... */\n    tag_5:\n      callvalue\n      dup1\n      iszero\n      tag_24\n      jumpi\n      0x00\n      dup1\n      revert\n    tag_24:\n      pop\n      tag_13\n      tag_26\n      calldatasize\n      0x04\n      tag_27\n      jump\t// in\n    tag_26:\n      tag_28\n      jump\t// in\n        /* \"contracts/ContractW/ContractWV2.sol\":1649:2637  function buy(... */\n    tag_16:\n        /* \"contracts/ContractW/ContractWV2.sol\":1970:1989  bytes32 listingHash */\n      0x00\n        /* \"contracts/ContractW/ContractWV2.sol\":1992:2050  getListingHash(nums[0], addrs[0], nums[1], addrs[1], salt) */\n      tag_30\n        /* \"contracts/ContractW/ContractWV2.sol\":2007:2014  nums[0] */\n      dup7\n      calldataload\n        /* \"contracts/ContractW/ContractWV2.sol\":2016:2024  addrs[0] */\n      tag_36\n        /* \"contracts/ContractW/ContractWV2.sol\":2007:2014  nums[0] */\n      0x20\n        /* \"contracts/ContractW/ContractWV2.sol\":2016:2024  addrs[0] */\n      dup9\n      add\n        /* \"contracts/ContractW/ContractWV2.sol\":2016:2021  addrs */\n      dup9\n        /* \"contracts/ContractW/ContractWV2.sol\":2016:2024  addrs[0] */\n      tag_37\n      jump\t// in\n    tag_36:\n        /* \"contracts/ContractW/ContractWV2.sol\":2026:2033  nums[1] */\n      0x20\n      dup1\n      dup11\n      add\n      calldataload\n      swap1\n        /* \"contracts/ContractW/ContractWV2.sol\":2035:2043  addrs[1] */\n      tag_42\n      swap1\n      0x40\n      dup12\n      add\n      swap1\n      dup12\n      add\n      tag_37\n      jump\t// in\n    tag_42:\n        /* \"contracts/ContractW/ContractWV2.sol\":3497:3656  abi.encodePacked(... */\n      0x40\n      dup1\n      mload\n      0x20\n      dup1\n      dup3\n      add\n        /* \"#utility.yul\":3998:4017   */\n      swap7\n      swap1\n      swap7\n      mstore\n      not(0xffffffffffffffffffffffff)\n        /* \"#utility.yul\":4105:4107   */\n      0x60\n        /* \"#utility.yul\":4101:4116   */\n      swap6\n      dup7\n      shl\n        /* \"#utility.yul\":4097:4121   */\n      dup2\n      and\n        /* \"#utility.yul\":4083:4095   */\n      dup3\n      dup5\n      add\n        /* \"#utility.yul\":4076:4122   */\n      mstore\n        /* \"#utility.yul\":4138:4150   */\n      0x54\n      dup3\n      add\n        /* \"#utility.yul\":4131:4159   */\n      swap5\n      swap1\n      swap5\n      mstore\n        /* \"#utility.yul\":4193:4208   */\n      swap2\n      swap1\n      swap4\n      shl\n        /* \"#utility.yul\":4189:4213   */\n      swap1\n      swap2\n      and\n        /* \"#utility.yul\":4175:4187   */\n      0x74\n      dup3\n      add\n        /* \"#utility.yul\":4168:4214   */\n      mstore\n        /* \"#utility.yul\":4230:4243   */\n      0x88\n      dup1\n      dup3\n      add\n        /* \"#utility.yul\":4223:4252   */\n      dup10\n      swap1\n      mstore\n        /* \"contracts/ContractW/ContractWV2.sol\":3497:3656  abi.encodePacked(... */\n      dup3\n      mload\n      dup1\n      dup4\n      sub\n      swap1\n      swap2\n      add\n      dup2\n      mstore\n        /* \"#utility.yul\":4268:4281   */\n      0xa8\n      swap1\n      swap2\n      add\n        /* \"contracts/ContractW/ContractWV2.sol\":3497:3656  abi.encodePacked(... */\n      swap1\n      swap2\n      mstore\n        /* \"contracts/ContractW/ContractWV2.sol\":3473:3667  keccak256(... */\n      dup1\n      mload\n      swap2\n      add\n      keccak256\n      swap1\n        /* \"contracts/ContractW/ContractWV2.sol\":3266:3675  function getListingHash(... */\n      jump\n        /* \"contracts/ContractW/ContractWV2.sol\":1992:2050  getListingHash(nums[0], addrs[0], nums[1], addrs[1], salt) */\n    tag_30:\n        /* \"contracts/ContractW/ContractWV2.sol\":1970:2050  bytes32 listingHash = getListingHash(nums[0], addrs[0], nums[1], addrs[1], salt) */\n      swap1\n      pop\n        /* \"contracts/ContractW/ContractWV2.sol\":2071:2125  _checkValidSignature(addrs[0], listingHash, signature) */\n      tag_43\n        /* \"contracts/ContractW/ContractWV2.sol\":2092:2100  addrs[0] */\n      tag_46\n      0x20\n      dup8\n      add\n        /* \"contracts/ContractW/ContractWV2.sol\":2092:2097  addrs */\n      dup8\n        /* \"contracts/ContractW/ContractWV2.sol\":2092:2100  addrs[0] */\n      tag_37\n      jump\t// in\n    tag_46:\n        /* \"contracts/ContractW/ContractWV2.sol\":2102:2113  listingHash */\n      dup3\n        /* \"contracts/ContractW/ContractWV2.sol\":2115:2124  signature */\n      dup6\n      dup6\n        /* \"contracts/ContractW/ContractWV2.sol\":2071:2091  _checkValidSignature */\n      tag_47\n        /* \"contracts/ContractW/ContractWV2.sol\":2071:2125  _checkValidSignature(addrs[0], listingHash, signature) */\n      jump\t// in\n    tag_43:\n        /* \"contracts/ContractW/ContractWV2.sol\":2136:2162  _checkValidBuyer(addrs[0]) */\n      tag_48\n        /* \"contracts/ContractW/ContractWV2.sol\":2153:2161  addrs[0] */\n      tag_51\n      0x20\n      dup8\n      add\n        /* \"contracts/ContractW/ContractWV2.sol\":2153:2158  addrs */\n      dup8\n        /* \"contracts/ContractW/ContractWV2.sol\":2153:2161  addrs[0] */\n      tag_37\n      jump\t// in\n    tag_51:\n        /* \"contracts/ContractW/ContractWV2.sol\":2136:2152  _checkValidBuyer */\n      tag_52\n        /* \"contracts/ContractW/ContractWV2.sol\":2136:2162  _checkValidBuyer(addrs[0]) */\n      jump\t// in\n    tag_48:\n        /* \"contracts/ContractW/ContractWV2.sol\":2173:2228  _checkValidListing(... */\n      tag_53\n        /* \"contracts/ContractW/ContractWV2.sol\":2206:2217  listingHash */\n      dup2\n        /* \"contracts/ContractW/ContractWV2.sol\":2173:2191  _checkValidListing */\n      tag_54\n        /* \"contracts/ContractW/ContractWV2.sol\":2173:2228  _checkValidListing(... */\n      jump\t// in\n    tag_53:\n        /* \"contracts/ContractW/ContractWV2.sol\":2239:2281  _checkValidAmountToPay(nums[1], msg.value) */\n      tag_55\n        /* \"contracts/ContractW/ContractWV2.sol\":2262:2269  nums[1] */\n      0x20\n      dup8\n      add\n      calldataload\n        /* \"contracts/ContractW/ContractWV2.sol\":2271:2280  msg.value */\n      callvalue\n        /* \"contracts/ContractW/ContractWV2.sol\":2239:2261  _checkValidAmountToPay */\n      tag_58\n        /* \"contracts/ContractW/ContractWV2.sol\":2239:2281  _checkValidAmountToPay(nums[1], msg.value) */\n      jump\t// in\n    tag_55:\n        /* \"contracts/ContractW/ContractWV2.sol\":2303:2311  addrs[1] */\n      tag_61\n      0x40\n      dup7\n      add\n      0x20\n      dup8\n      add\n      tag_37\n      jump\t// in\n    tag_61:\n      sub(shl(0xa0, 0x01), 0x01)\n        /* \"contracts/ContractW/ContractWV2.sol\":2294:2329  IERC721A(addrs[1]).safeTransferFrom */\n      and\n      0x42842e0e\n        /* \"contracts/ContractW/ContractWV2.sol\":2330:2338  addrs[0] */\n      tag_64\n      0x20\n      dup9\n      add\n        /* \"contracts/ContractW/ContractWV2.sol\":2330:2335  addrs */\n      dup9\n        /* \"contracts/ContractW/ContractWV2.sol\":2330:2338  addrs[0] */\n      tag_37\n      jump\t// in\n    tag_64:\n        /* \"contracts/ContractW/ContractWV2.sol\":2294:2360  IERC721A(addrs[1]).safeTransferFrom(addrs[0], msg.sender, nums[0]) */\n      mload(0x40)\n      0xe0\n      dup4\n      swap1\n      shl\n      0xffffffff00000000000000000000000000000000000000000000000000000000\n      and\n      dup2\n      mstore\n      sub(shl(0xa0, 0x01), 0x01)\n        /* \"#utility.yul\":3635:3650   */\n      swap2\n      swap1\n      swap2\n      and\n        /* \"contracts/ContractW/ContractWV2.sol\":2294:2360  IERC721A(addrs[1]).safeTransferFrom(addrs[0], msg.sender, nums[0]) */\n      0x04\n      dup3\n      add\n        /* \"#utility.yul\":3617:3651   */\n      mstore\n        /* \"contracts/ContractW/ContractWV2.sol\":2340:2350  msg.sender */\n      caller\n        /* \"#utility.yul\":3667:3685   */\n      0x24\n      dup3\n      add\n        /* \"#utility.yul\":3660:3703   */\n      mstore\n        /* \"contracts/ContractW/ContractWV2.sol\":2352:2359  nums[0] */\n      dup9\n      calldataload\n        /* \"#utility.yul\":3719:3737   */\n      0x44\n      dup3\n      add\n        /* \"#utility.yul\":3712:3746   */\n      mstore\n        /* \"#utility.yul\":3529:3547   */\n      0x64\n      add\n        /* \"contracts/ContractW/ContractWV2.sol\":2294:2360  IERC721A(addrs[1]).safeTransferFrom(addrs[0], msg.sender, nums[0]) */\n      0x00\n      mload(0x40)\n      dup1\n      dup4\n      sub\n      dup2\n      0x00\n      dup8\n      dup1\n      extcodesize\n      iszero\n      dup1\n      iszero\n      tag_69\n      jumpi\n      0x00\n      dup1\n      revert\n    tag_69:\n      pop\n      gas\n      call\n      iszero\n      dup1\n      iszero\n      tag_71\n      jumpi\n      returndatasize\n      0x00\n      dup1\n      returndatacopy\n      revert(0x00, returndatasize)\n    tag_71:\n      pop\n      pop\n      pop\n      pop\n        /* \"contracts/ContractW/ContractWV2.sol\":2381:2386  addrs */\n      dup5\n        /* \"contracts/ContractW/ContractWV2.sol\":2387:2388  0 */\n      0x00\n        /* \"contracts/ContractW/ContractWV2.sol\":2381:2389  addrs[0] */\n      0x02\n      dup2\n      lt\n      tag_73\n      jumpi\n      tag_73\n      tag_33\n      jump\t// in\n    tag_73:\n      0x20\n      mul\n      add\n      0x20\n      dup2\n      add\n      swap1\n      tag_74\n      swap2\n      swap1\n      tag_37\n      jump\t// in\n    tag_74:\n      sub(shl(0xa0, 0x01), 0x01)\n        /* \"contracts/ContractW/ContractWV2.sol\":2373:2399  payable(addrs[0]).transfer */\n      and\n        /* \"contracts/ContractW/ContractWV2.sol\":2373:2410  payable(addrs[0]).transfer(msg.value) */\n      0x08fc\n        /* \"contracts/ContractW/ContractWV2.sol\":2400:2409  msg.value */\n      callvalue\n        /* \"contracts/ContractW/ContractWV2.sol\":2373:2410  payable(addrs[0]).transfer(msg.value) */\n      swap1\n      dup2\n      iszero\n      mul\n      swap1\n      mload(0x40)\n      0x00\n      mload(0x40)\n      dup1\n      dup4\n      sub\n      dup2\n      dup6\n      dup9\n      dup9\n      call\n      swap4\n      pop\n      pop\n      pop\n      pop\n      iszero\n      dup1\n      iszero\n      tag_76\n      jumpi\n      returndatasize\n      0x00\n      dup1\n      returndatacopy\n      revert(0x00, returndatasize)\n    tag_76:\n      pop\n        /* \"contracts/ContractW/ContractWV2.sol\":2596:2604  caller() */\n      caller\n        /* \"contracts/ContractW/ContractWV2.sol\":2565:2576  listingHash */\n      dup2\n        /* \"contracts/ContractW/ContractWV2.sol\":2512:2546  _LISTING_PURCHASED_EVENT_SIGNATURE */\n      0x4c72f34d0e2a0b597a25ae9c086c06c4ac48ba071ecc23757ab1668bcd20be50\n        /* \"contracts/ContractW/ContractWV2.sol\":2491:2492  0 */\n      0x00\n        /* \"contracts/ContractW/ContractWV2.sol\":2470:2471  0 */\n      dup1\n        /* \"contracts/ContractW/ContractWV2.sol\":2447:2619  log3(... */\n      log3\n        /* \"contracts/ContractW/ContractWV2.sol\":2432:2630  {... */\n      pop\n        /* \"contracts/ContractW/ContractWV2.sol\":1649:2637  function buy(... */\n      pop\n      pop\n      pop\n      pop\n      pop\n      jump\t// out\n        /* \"contracts/ContractW/ContractWV2.sol\":2730:3258  function cancelListing(... */\n    tag_28:\n        /* \"contracts/ContractW/ContractWV2.sol\":2880:2936  _checkValidSignature(msg.sender, listingHash, signature) */\n      tag_81\n        /* \"contracts/ContractW/ContractWV2.sol\":2901:2911  msg.sender */\n      caller\n        /* \"contracts/ContractW/ContractWV2.sol\":2913:2924  listingHash */\n      dup5\n        /* \"contracts/ContractW/ContractWV2.sol\":2926:2935  signature */\n      dup5\n      dup5\n        /* \"contracts/ContractW/ContractWV2.sol\":2880:2900  _checkValidSignature */\n      tag_47\n        /* \"contracts/ContractW/ContractWV2.sol\":2880:2936  _checkValidSignature(msg.sender, listingHash, signature) */\n      jump\t// in\n    tag_81:\n        /* \"contracts/ContractW/ContractWV2.sol\":2947:2984  _checkUncancelledListing(listingHash) */\n      tag_82\n        /* \"contracts/ContractW/ContractWV2.sol\":2972:2983  listingHash */\n      dup4\n        /* \"contracts/ContractW/ContractWV2.sol\":2947:2971  _checkUncancelledListing */\n      tag_83\n        /* \"contracts/ContractW/ContractWV2.sol\":2947:2984  _checkUncancelledListing(listingHash) */\n      jump\t// in\n    tag_82:\n        /* \"contracts/ContractW/ContractWV2.sol\":2997:3014  cancelledListings */\n      0x00\n        /* \"contracts/ContractW/ContractWV2.sol\":2997:3027  cancelledListings[listingHash] */\n      dup4\n      dup2\n      mstore\n      0x20\n      dup2\n      swap1\n      mstore\n      0x40\n      dup2\n      keccak256\n        /* \"contracts/ContractW/ContractWV2.sol\":2997:3034  cancelledListings[listingHash] = true */\n      dup1\n      sload\n      not(0xff)\n      and\n        /* \"contracts/ContractW/ContractWV2.sol\":3030:3034  true */\n      0x01\n        /* \"contracts/ContractW/ContractWV2.sol\":2997:3034  cancelledListings[listingHash] = true */\n      or\n      swap1\n      sstore\n        /* \"contracts/ContractW/ContractWV2.sol\":3217:3225  caller() */\n      caller\n      swap1\n        /* \"contracts/ContractW/ContractWV2.sol\":3015:3026  listingHash */\n      dup5\n      swap1\n        /* \"contracts/ContractW/ContractWV2.sol\":3134:3168  _LISTING_CANCELLED_EVENT_SIGNATURE */\n      0x13c3e2105d66aef65e187710d248703d9b145a13fc06330bcec2d4481ad0da10\n      swap1\n        /* \"contracts/ContractW/ContractWV2.sol\":2997:3014  cancelledListings */\n      dup1\n        /* \"contracts/ContractW/ContractWV2.sol\":3071:3240  log3(... */\n      log3\n        /* \"contracts/ContractW/ContractWV2.sol\":2730:3258  function cancelListing(... */\n      pop\n      pop\n      pop\n      jump\t// out\n        /* \"contracts/ContractW/ContractWV2.sol\":3683:4121  function _checkValidSignature(... */\n    tag_47:\n        /* \"https://github.com/OpenZeppelin/openzeppelin-contracts/blob/master/contracts/utils/cryptography/MessageHashUtils.sol\":1403:1437  \"\\x19Ethereum Signed Message:\\n32\" */\n      0x19457468657265756d205369676e6564204d6573736167653a0a333200000000\n        /* \"contracts/ContractW/ContractWV2.sol\":3834:3858  address recoveredAddress */\n      0x00\n        /* \"https://github.com/OpenZeppelin/openzeppelin-contracts/blob/master/contracts/utils/cryptography/MessageHashUtils.sol\":1390:1438  mstore(0x00, \"\\x19Ethereum Signed Message:\\n32\") */\n      swap1\n      dup2\n      mstore\n        /* \"https://github.com/OpenZeppelin/openzeppelin-contracts/blob/master/contracts/utils/cryptography/MessageHashUtils.sol\":1499:1503  0x1c */\n      0x1c\n        /* \"https://github.com/OpenZeppelin/openzeppelin-contracts/blob/master/contracts/utils/cryptography/MessageHashUtils.sol\":1492:1517  mstore(0x1c, messageHash) */\n      dup5\n      swap1\n      mstore\n        /* \"https://github.com/OpenZeppelin/openzeppelin-contracts/blob/master/contracts/utils/cryptography/MessageHashUtils.sol\":1597:1601  0x3c */\n      0x3c\n        /* \"https://github.com/OpenZeppelin/openzeppelin-contracts/blob/master/contracts/utils/cryptography/MessageHashUtils.sol\":1581:1602  keccak256(0x00, 0x3c) */\n      dup2\n      keccak256\n        /* \"contracts/ContractW/ContractWV2.sol\":3861:4008  ECDSA.recover(... */\n      tag_85\n      swap1\n        /* \"contracts/ContractW/ContractWV2.sol\":3988:3997  signature */\n      dup5\n      dup5\n        /* \"contracts/ContractW/ContractWV2.sol\":3861:4008  ECDSA.recover(... */\n      dup1\n      dup1\n      0x1f\n      add\n      0x20\n      dup1\n      swap2\n      div\n      mul\n      0x20\n      add\n      mload(0x40)\n      swap1\n      dup2\n      add\n      0x40\n      mstore\n      dup1\n      swap4\n      swap3\n      swap2\n      swap1\n      dup2\n      dup2\n      mstore\n      0x20\n      add\n      dup4\n      dup4\n      dup1\n      dup3\n      dup5\n      calldatacopy\n      0x00\n      swap3\n      add\n      swap2\n      swap1\n      swap2\n      mstore\n      pop\n        /* \"contracts/ContractW/ContractWV2.sol\":3861:3874  ECDSA.recover */\n      tag_88\n      swap3\n      pop\n      pop\n      pop\n        /* \"contracts/ContractW/ContractWV2.sol\":3861:4008  ECDSA.recover(... */\n      jump\t// in\n    tag_85:\n        /* \"contracts/ContractW/ContractWV2.sol\":3834:4008  address recoveredAddress = ECDSA.recover(... */\n      swap1\n      pop\n        /* \"contracts/ContractW/ContractWV2.sol\":4045:4051  seller */\n      dup5\n      sub(shl(0xa0, 0x01), 0x01)\n        /* \"contracts/ContractW/ContractWV2.sol\":4025:4051  recoveredAddress != seller */\n      and\n        /* \"contracts/ContractW/ContractWV2.sol\":4025:4041  recoveredAddress */\n      dup2\n      sub(shl(0xa0, 0x01), 0x01)\n        /* \"contracts/ContractW/ContractWV2.sol\":4025:4051  recoveredAddress != seller */\n      and\n      eq\n        /* \"contracts/ContractW/ContractWV2.sol\":4021:4113  if (recoveredAddress != seller) revert InvalidSignature(signature, recoveredAddress, seller) */\n      tag_89\n      jumpi\n        /* \"contracts/ContractW/ContractWV2.sol\":4077:4086  signature */\n      dup3\n      dup3\n        /* \"contracts/ContractW/ContractWV2.sol\":4088:4104  recoveredAddress */\n      dup3\n        /* \"contracts/ContractW/ContractWV2.sol\":4106:4112  seller */\n      dup8\n        /* \"contracts/ContractW/ContractWV2.sol\":4060:4113  InvalidSignature(signature, recoveredAddress, seller) */\n      mload(0x40)\n      0xee42f6a800000000000000000000000000000000000000000000000000000000\n      dup2\n      mstore\n      0x04\n      add\n      tag_90\n      swap5\n      swap4\n      swap3\n      swap2\n      swap1\n      tag_91\n      jump\t// in\n    tag_90:\n      mload(0x40)\n      dup1\n      swap2\n      sub\n      swap1\n      revert\n        /* \"contracts/ContractW/ContractWV2.sol\":4021:4113  if (recoveredAddress != seller) revert InvalidSignature(signature, recoveredAddress, seller) */\n    tag_89:\n        /* \"contracts/ContractW/ContractWV2.sol\":3823:4121  {... */\n      pop\n        /* \"contracts/ContractW/ContractWV2.sol\":3683:4121  function _checkValidSignature(... */\n      pop\n      pop\n      pop\n      pop\n      jump\t// out\n        /* \"contracts/ContractW/ContractWV2.sol\":4129:4250  function _checkValidBuyer(address seller) private view {... */\n    tag_52:\n        /* \"contracts/ContractW/ContractWV2.sol\":4209:4219  msg.sender */\n      caller\n      sub(shl(0xa0, 0x01), 0x01)\n        /* \"contracts/ContractW/ContractWV2.sol\":4199:4219  seller == msg.sender */\n      dup3\n      and\n      sub\n        /* \"contracts/ContractW/ContractWV2.sol\":4195:4242  if (seller == msg.sender) revert InvalidBuyer() */\n      tag_93\n      jumpi\n        /* \"contracts/ContractW/ContractWV2.sol\":4228:4242  InvalidBuyer() */\n      mload(0x40)\n      0xb1df0e0600000000000000000000000000000000000000000000000000000000\n      dup2\n      mstore\n      0x04\n      add\n      mload(0x40)\n      dup1\n      swap2\n      sub\n      swap1\n      revert\n        /* \"contracts/ContractW/ContractWV2.sol\":4195:4242  if (seller == msg.sender) revert InvalidBuyer() */\n    tag_93:\n        /* \"contracts/ContractW/ContractWV2.sol\":4129:4250  function _checkValidBuyer(address seller) private view {... */\n      pop\n      jump\t// out\n        /* \"contracts/ContractW/ContractWV2.sol\":4258:4409  function _checkValidListing(bytes32 listingHash) private view {... */\n    tag_54:\n        /* \"contracts/ContractW/ContractWV2.sol\":4335:4352  cancelledListings */\n      0x00\n        /* \"contracts/ContractW/ContractWV2.sol\":4335:4365  cancelledListings[listingHash] */\n      dup2\n      dup2\n      mstore\n      0x20\n      dup2\n      swap1\n      mstore\n      0x40\n      swap1\n      keccak256\n      sload\n      0xff\n      and\n        /* \"contracts/ContractW/ContractWV2.sol\":4331:4401  if (cancelledListings[listingHash]) revert InvalidListing(listingHash) */\n      iszero\n      tag_93\n      jumpi\n        /* \"contracts/ContractW/ContractWV2.sol\":4374:4401  InvalidListing(listingHash) */\n      mload(0x40)\n      0x2720449200000000000000000000000000000000000000000000000000000000\n      dup2\n      mstore\n      0x04\n      dup2\n      add\n        /* \"#utility.yul\":2456:2481   */\n      dup3\n      swap1\n      mstore\n        /* \"#utility.yul\":2429:2447   */\n      0x24\n      add\n        /* \"contracts/ContractW/ContractWV2.sol\":4374:4401  InvalidListing(listingHash) */\n      tag_90\n        /* \"#utility.yul\":2310:2487   */\n      jump\n        /* \"contracts/ContractW/ContractWV2.sol\":4417:4588  function _checkValidAmountToPay(uint256 price, uint256 amountToPay) private pure {... */\n    tag_58:\n        /* \"contracts/ContractW/ContractWV2.sol\":4522:4533  amountToPay */\n      dup1\n        /* \"contracts/ContractW/ContractWV2.sol\":4513:4518  price */\n      dup3\n        /* \"contracts/ContractW/ContractWV2.sol\":4513:4533  price != amountToPay */\n      eq\n        /* \"contracts/ContractW/ContractWV2.sol\":4509:4580  if (price != amountToPay) revert InvalidAmountToPay(price, amountToPay) */\n      tag_98\n      jumpi\n        /* \"contracts/ContractW/ContractWV2.sol\":4542:4580  InvalidAmountToPay(price, amountToPay) */\n      mload(0x40)\n      0xb3d779f500000000000000000000000000000000000000000000000000000000\n      dup2\n      mstore\n      0x04\n      dup2\n      add\n        /* \"#utility.yul\":5085:5110   */\n      dup4\n      swap1\n      mstore\n        /* \"#utility.yul\":5126:5144   */\n      0x24\n      dup2\n      add\n        /* \"#utility.yul\":5119:5153   */\n      dup3\n      swap1\n      mstore\n        /* \"#utility.yul\":5058:5076   */\n      0x44\n      add\n        /* \"contracts/ContractW/ContractWV2.sol\":4542:4580  InvalidAmountToPay(price, amountToPay) */\n      tag_90\n        /* \"#utility.yul\":4911:5159   */\n      jump\n        /* \"contracts/ContractW/ContractWV2.sol\":4509:4580  if (price != amountToPay) revert InvalidAmountToPay(price, amountToPay) */\n    tag_98:\n        /* \"contracts/ContractW/ContractWV2.sol\":4417:4588  function _checkValidAmountToPay(uint256 price, uint256 amountToPay) private pure {... */\n      pop\n      pop\n      jump\t// out\n        /* \"contracts/ContractW/ContractWV2.sol\":4596:4762  function _checkUncancelledListing(bytes32 listingHash) private view {... */\n    tag_83:\n        /* \"contracts/ContractW/ContractWV2.sol\":4679:4696  cancelledListings */\n      0x00\n        /* \"contracts/ContractW/ContractWV2.sol\":4679:4709  cancelledListings[listingHash] */\n      dup2\n      dup2\n      mstore\n      0x20\n      dup2\n      swap1\n      mstore\n      0x40\n      swap1\n      keccak256\n      sload\n      0xff\n      and\n        /* \"contracts/ContractW/ContractWV2.sol\":4675:4754  if (cancelledListings[listingHash]) revert ListingAlreadyCancelled(listingHash) */\n      iszero\n      tag_93\n      jumpi\n        /* \"contracts/ContractW/ContractWV2.sol\":4718:4754  ListingAlreadyCancelled(listingHash) */\n      mload(0x40)\n      0xdef2cec700000000000000000000000000000000000000000000000000000000\n      dup2\n      mstore\n      0x04\n      dup2\n      add\n        /* \"#utility.yul\":2456:2481   */\n      dup3\n      swap1\n      mstore\n        /* \"#utility.yul\":2429:2447   */\n      0x24\n      add\n        /* \"contracts/ContractW/ContractWV2.sol\":4718:4754  ListingAlreadyCancelled(listingHash) */\n      tag_90\n        /* \"#utility.yul\":2310:2487   */\n      jump\n        /* \"https://github.com/OpenZeppelin/openzeppelin-contracts/blob/master/contracts/utils/cryptography/ECDSA.sol\":3702:3957  function recover(bytes32 hash, bytes memory signature) internal pure returns (address) {... */\n    tag_88:\n        /* \"https://github.com/OpenZeppelin/openzeppelin-contracts/blob/master/contracts/utils/cryptography/ECDSA.sol\":3780:3787  address */\n      0x00\n        /* \"https://github.com/OpenZeppelin/openzeppelin-contracts/blob/master/contracts/utils/cryptography/ECDSA.sol\":3800:3817  address recovered */\n      dup1\n        /* \"https://github.com/OpenZeppelin/openzeppelin-contracts/blob/master/contracts/utils/cryptography/ECDSA.sol\":3819:3837  RecoverError error */\n      0x00\n        /* \"https://github.com/OpenZeppelin/openzeppelin-contracts/blob/master/contracts/utils/cryptography/ECDSA.sol\":3839:3855  bytes32 errorArg */\n      dup1\n        /* \"https://github.com/OpenZeppelin/openzeppelin-contracts/blob/master/contracts/utils/cryptography/ECDSA.sol\":3859:3886  tryRecover(hash, signature) */\n      tag_106\n        /* \"https://github.com/OpenZeppelin/openzeppelin-contracts/blob/master/contracts/utils/cryptography/ECDSA.sol\":3870:3874  hash */\n      dup7\n        /* \"https://github.com/OpenZeppelin/openzeppelin-contracts/blob/master/contracts/utils/cryptography/ECDSA.sol\":3876:3885  signature */\n      dup7\n        /* \"https://github.com/OpenZeppelin/openzeppelin-contracts/blob/master/contracts/utils/cryptography/ECDSA.sol\":3859:3869  tryRecover */\n      tag_107\n        /* \"https://github.com/OpenZeppelin/openzeppelin-contracts/blob/master/contracts/utils/cryptography/ECDSA.sol\":3859:3886  tryRecover(hash, signature) */\n      jump\t// in\n    tag_106:\n        /* \"https://github.com/OpenZeppelin/openzeppelin-contracts/blob/master/contracts/utils/cryptography/ECDSA.sol\":3799:3886  (address recovered, RecoverError error, bytes32 errorArg) = tryRecover(hash, signature) */\n      swap3\n      pop\n      swap3\n      pop\n      swap3\n      pop\n        /* \"https://github.com/OpenZeppelin/openzeppelin-contracts/blob/master/contracts/utils/cryptography/ECDSA.sol\":3896:3924  _throwError(error, errorArg) */\n      tag_108\n        /* \"https://github.com/OpenZeppelin/openzeppelin-contracts/blob/master/contracts/utils/cryptography/ECDSA.sol\":3908:3913  error */\n      dup3\n        /* \"https://github.com/OpenZeppelin/openzeppelin-contracts/blob/master/contracts/utils/cryptography/ECDSA.sol\":3915:3923  errorArg */\n      dup3\n        /* \"https://github.com/OpenZeppelin/openzeppelin-contracts/blob/master/contracts/utils/cryptography/ECDSA.sol\":3896:3907  _throwError */\n      tag_109\n        /* \"https://github.com/OpenZeppelin/openzeppelin-contracts/blob/master/contracts/utils/cryptography/ECDSA.sol\":3896:3924  _throwError(error, errorArg) */\n      jump\t// in\n    tag_108:\n      pop\n        /* \"https://github.com/OpenZeppelin/openzeppelin-contracts/blob/master/contracts/utils/cryptography/ECDSA.sol\":3941:3950  recovered */\n      swap1\n      swap2\n      pop\n      pop\n        /* \"https://github.com/OpenZeppelin/openzeppelin-contracts/blob/master/contracts/utils/cryptography/ECDSA.sol\":3702:3957  function recover(bytes32 hash, bytes memory signature) internal pure returns (address) {... */\n    tag_105:\n      swap3\n      swap2\n      pop\n      pop\n      jump\t// out\n        /* \"https://github.com/OpenZeppelin/openzeppelin-contracts/blob/master/contracts/utils/cryptography/ECDSA.sol\":2129:2895  function tryRecover(bytes32 hash, bytes memory signature) internal pure returns (address, RecoverError, bytes32) {... */\n    tag_107:\n        /* \"https://github.com/OpenZeppelin/openzeppelin-contracts/blob/master/contracts/utils/cryptography/ECDSA.sol\":2210:2217  address */\n      0x00\n        /* \"https://github.com/OpenZeppelin/openzeppelin-contracts/blob/master/contracts/utils/cryptography/ECDSA.sol\":2219:2231  RecoverError */\n      dup1\n        /* \"https://github.com/OpenZeppelin/openzeppelin-contracts/blob/master/contracts/utils/cryptography/ECDSA.sol\":2233:2240  bytes32 */\n      0x00\n        /* \"https://github.com/OpenZeppelin/openzeppelin-contracts/blob/master/contracts/utils/cryptography/ECDSA.sol\":2256:2265  signature */\n      dup4\n        /* \"https://github.com/OpenZeppelin/openzeppelin-contracts/blob/master/contracts/utils/cryptography/ECDSA.sol\":2256:2272  signature.length */\n      mload\n        /* \"https://github.com/OpenZeppelin/openzeppelin-contracts/blob/master/contracts/utils/cryptography/ECDSA.sol\":2276:2278  65 */\n      0x41\n        /* \"https://github.com/OpenZeppelin/openzeppelin-contracts/blob/master/contracts/utils/cryptography/ECDSA.sol\":2256:2278  signature.length == 65 */\n      sub\n        /* \"https://github.com/OpenZeppelin/openzeppelin-contracts/blob/master/contracts/utils/cryptography/ECDSA.sol\":2252:2889  if (signature.length == 65) {... */\n      tag_111\n      jumpi\n        /* \"https://github.com/OpenZeppelin/openzeppelin-contracts/blob/master/contracts/utils/cryptography/ECDSA.sol\":2592:2596  0x20 */\n      0x20\n        /* \"https://github.com/OpenZeppelin/openzeppelin-contracts/blob/master/contracts/utils/cryptography/ECDSA.sol\":2577:2597  add(signature, 0x20) */\n      dup5\n      add\n        /* \"https://github.com/OpenZeppelin/openzeppelin-contracts/blob/master/contracts/utils/cryptography/ECDSA.sol\":2571:2598  mload(add(signature, 0x20)) */\n      mload\n        /* \"https://github.com/OpenZeppelin/openzeppelin-contracts/blob/master/contracts/utils/cryptography/ECDSA.sol\":2641:2645  0x40 */\n      0x40\n        /* \"https://github.com/OpenZeppelin/openzeppelin-contracts/blob/master/contracts/utils/cryptography/ECDSA.sol\":2626:2646  add(signature, 0x40) */\n      dup6\n      add\n        /* \"https://github.com/OpenZeppelin/openzeppelin-contracts/blob/master/contracts/utils/cryptography/ECDSA.sol\":2620:2647  mload(add(signature, 0x40)) */\n      mload\n        /* \"https://github.com/OpenZeppelin/openzeppelin-contracts/blob/master/contracts/utils/cryptography/ECDSA.sol\":2698:2702  0x60 */\n      0x60\n        /* \"https://github.com/OpenZeppelin/openzeppelin-contracts/blob/master/contracts/utils/cryptography/ECDSA.sol\":2683:2703  add(signature, 0x60) */\n      dup7\n      add\n        /* \"https://github.com/OpenZeppelin/openzeppelin-contracts/blob/master/contracts/utils/cryptography/ECDSA.sol\":2677:2704  mload(add(signature, 0x60)) */\n      mload\n        /* \"https://github.com/OpenZeppelin/openzeppelin-contracts/blob/master/contracts/utils/cryptography/ECDSA.sol\":2294:2303  bytes32 r */\n      0x00\n        /* \"https://github.com/OpenZeppelin/openzeppelin-contracts/blob/master/contracts/utils/cryptography/ECDSA.sol\":2669:2705  byte(0, mload(add(signature, 0x60))) */\n      byte\n        /* \"https://github.com/OpenZeppelin/openzeppelin-contracts/blob/master/contracts/utils/cryptography/ECDSA.sol\":2739:2764  tryRecover(hash, v, r, s) */\n      tag_112\n        /* \"https://github.com/OpenZeppelin/openzeppelin-contracts/blob/master/contracts/utils/cryptography/ECDSA.sol\":2750:2754  hash */\n      dup9\n        /* \"https://github.com/OpenZeppelin/openzeppelin-contracts/blob/master/contracts/utils/cryptography/ECDSA.sol\":2669:2705  byte(0, mload(add(signature, 0x60))) */\n      dup3\n        /* \"https://github.com/OpenZeppelin/openzeppelin-contracts/blob/master/contracts/utils/cryptography/ECDSA.sol\":2571:2598  mload(add(signature, 0x20)) */\n      dup6\n        /* \"https://github.com/OpenZeppelin/openzeppelin-contracts/blob/master/contracts/utils/cryptography/ECDSA.sol\":2620:2647  mload(add(signature, 0x40)) */\n      dup6\n        /* \"https://github.com/OpenZeppelin/openzeppelin-contracts/blob/master/contracts/utils/cryptography/ECDSA.sol\":2739:2749  tryRecover */\n      tag_113\n        /* \"https://github.com/OpenZeppelin/openzeppelin-contracts/blob/master/contracts/utils/cryptography/ECDSA.sol\":2739:2764  tryRecover(hash, v, r, s) */\n      jump\t// in\n    tag_112:\n        /* \"https://github.com/OpenZeppelin/openzeppelin-contracts/blob/master/contracts/utils/cryptography/ECDSA.sol\":2732:2764  return tryRecover(hash, v, r, s) */\n      swap6\n      pop\n      swap6\n      pop\n      swap6\n      pop\n      pop\n      pop\n      pop\n      jump(tag_114)\n        /* \"https://github.com/OpenZeppelin/openzeppelin-contracts/blob/master/contracts/utils/cryptography/ECDSA.sol\":2252:2889  if (signature.length == 65) {... */\n    tag_111:\n      pop\n      pop\n        /* \"https://github.com/OpenZeppelin/openzeppelin-contracts/blob/master/contracts/utils/cryptography/ECDSA.sol\":2860:2876  signature.length */\n      dup2\n      mload\n        /* \"https://github.com/OpenZeppelin/openzeppelin-contracts/blob/master/contracts/utils/cryptography/ECDSA.sol\":2811:2812  0 */\n      0x00\n      swap2\n      pop\n        /* \"https://github.com/OpenZeppelin/openzeppelin-contracts/blob/master/contracts/utils/cryptography/ECDSA.sol\":2815:2850  RecoverError.InvalidSignatureLength */\n      0x02\n      swap1\n        /* \"https://github.com/OpenZeppelin/openzeppelin-contracts/blob/master/contracts/utils/cryptography/ECDSA.sol\":2252:2889  if (signature.length == 65) {... */\n    tag_114:\n        /* \"https://github.com/OpenZeppelin/openzeppelin-contracts/blob/master/contracts/utils/cryptography/ECDSA.sol\":2129:2895  function tryRecover(bytes32 hash, bytes memory signature) internal pure returns (address, RecoverError, bytes32) {... */\n      swap3\n      pop\n      swap3\n      pop\n      swap3\n      jump\t// out\n        /* \"https://github.com/OpenZeppelin/openzeppelin-contracts/blob/master/contracts/utils/cryptography/ECDSA.sol\":7196:7728  function _throwError(RecoverError error, bytes32 errorArg) private pure {... */\n    tag_109:\n        /* \"https://github.com/OpenZeppelin/openzeppelin-contracts/blob/master/contracts/utils/cryptography/ECDSA.sol\":7291:7311  RecoverError.NoError */\n      0x00\n        /* \"https://github.com/OpenZeppelin/openzeppelin-contracts/blob/master/contracts/utils/cryptography/ECDSA.sol\":7282:7287  error */\n      dup3\n        /* \"https://github.com/OpenZeppelin/openzeppelin-contracts/blob/master/contracts/utils/cryptography/ECDSA.sol\":7282:7311  error == RecoverError.NoError */\n      0x03\n      dup2\n      gt\n      iszero\n      tag_120\n      jumpi\n      tag_120\n      tag_118\n      jump\t// in\n    tag_120:\n      sub\n        /* \"https://github.com/OpenZeppelin/openzeppelin-contracts/blob/master/contracts/utils/cryptography/ECDSA.sol\":7278:7722  if (error == RecoverError.NoError) {... */\n      tag_121\n      jumpi\n        /* \"https://github.com/OpenZeppelin/openzeppelin-contracts/blob/master/contracts/utils/cryptography/ECDSA.sol\":7196:7728  function _throwError(RecoverError error, bytes32 errorArg) private pure {... */\n      pop\n      pop\n      jump\t// out\n        /* \"https://github.com/OpenZeppelin/openzeppelin-contracts/blob/master/contracts/utils/cryptography/ECDSA.sol\":7278:7722  if (error == RecoverError.NoError) {... */\n    tag_121:\n        /* \"https://github.com/OpenZeppelin/openzeppelin-contracts/blob/master/contracts/utils/cryptography/ECDSA.sol\":7387:7416  RecoverError.InvalidSignature */\n      0x01\n        /* \"https://github.com/OpenZeppelin/openzeppelin-contracts/blob/master/contracts/utils/cryptography/ECDSA.sol\":7378:7383  error */\n      dup3\n        /* \"https://github.com/OpenZeppelin/openzeppelin-contracts/blob/master/contracts/utils/cryptography/ECDSA.sol\":7378:7416  error == RecoverError.InvalidSignature */\n      0x03\n      dup2\n      gt\n      iszero\n      tag_126\n      jumpi\n      tag_126\n      tag_118\n      jump\t// in\n    tag_126:\n      sub\n        /* \"https://github.com/OpenZeppelin/openzeppelin-contracts/blob/master/contracts/utils/cryptography/ECDSA.sol\":7374:7722  if (error == RecoverError.InvalidSignature) {... */\n      tag_127\n      jumpi\n        /* \"https://github.com/OpenZeppelin/openzeppelin-contracts/blob/master/contracts/utils/cryptography/ECDSA.sol\":7439:7462  ECDSAInvalidSignature() */\n      mload(0x40)\n      0xf645eedf00000000000000000000000000000000000000000000000000000000\n      dup2\n      mstore\n      0x04\n      add\n      mload(0x40)\n      dup1\n      swap2\n      sub\n      swap1\n      revert\n        /* \"https://github.com/OpenZeppelin/openzeppelin-contracts/blob/master/contracts/utils/cryptography/ECDSA.sol\":7374:7722  if (error == RecoverError.InvalidSignature) {... */\n    tag_127:\n        /* \"https://github.com/OpenZeppelin/openzeppelin-contracts/blob/master/contracts/utils/cryptography/ECDSA.sol\":7492:7527  RecoverError.InvalidSignatureLength */\n      0x02\n        /* \"https://github.com/OpenZeppelin/openzeppelin-contracts/blob/master/contracts/utils/cryptography/ECDSA.sol\":7483:7488  error */\n      dup3\n        /* \"https://github.com/OpenZeppelin/openzeppelin-contracts/blob/master/contracts/utils/cryptography/ECDSA.sol\":7483:7527  error == RecoverError.InvalidSignatureLength */\n      0x03\n      dup2\n      gt\n      iszero\n      tag_132\n      jumpi\n      tag_132\n      tag_118\n      jump\t// in\n    tag_132:\n      sub\n        /* \"https://github.com/OpenZeppelin/openzeppelin-contracts/blob/master/contracts/utils/cryptography/ECDSA.sol\":7479:7722  if (error == RecoverError.InvalidSignatureLength) {... */\n      tag_133\n      jumpi\n        /* \"https://github.com/OpenZeppelin/openzeppelin-contracts/blob/master/contracts/utils/cryptography/ECDSA.sol\":7550:7596  ECDSAInvalidSignatureLength(uint256(errorArg)) */\n      mload(0x40)\n      0xfce698f700000000000000000000000000000000000000000000000000000000\n      dup2\n      mstore\n      0x04\n      dup2\n      add\n        /* \"#utility.yul\":2456:2481   */\n      dup3\n      swap1\n      mstore\n        /* \"#utility.yul\":2429:2447   */\n      0x24\n      add\n        /* \"https://github.com/OpenZeppelin/openzeppelin-contracts/blob/master/contracts/utils/cryptography/ECDSA.sol\":7550:7596  ECDSAInvalidSignatureLength(uint256(errorArg)) */\n      tag_90\n        /* \"#utility.yul\":2310:2487   */\n      jump\n        /* \"https://github.com/OpenZeppelin/openzeppelin-contracts/blob/master/contracts/utils/cryptography/ECDSA.sol\":7479:7722  if (error == RecoverError.InvalidSignatureLength) {... */\n    tag_133:\n        /* \"https://github.com/OpenZeppelin/openzeppelin-contracts/blob/master/contracts/utils/cryptography/ECDSA.sol\":7626:7656  RecoverError.InvalidSignatureS */\n      0x03\n        /* \"https://github.com/OpenZeppelin/openzeppelin-contracts/blob/master/contracts/utils/cryptography/ECDSA.sol\":7617:7622  error */\n      dup3\n        /* \"https://github.com/OpenZeppelin/openzeppelin-contracts/blob/master/contracts/utils/cryptography/ECDSA.sol\":7617:7656  error == RecoverError.InvalidSignatureS */\n      0x03\n      dup2\n      gt\n      iszero\n      tag_140\n      jumpi\n      tag_140\n      tag_118\n      jump\t// in\n    tag_140:\n      sub\n        /* \"https://github.com/OpenZeppelin/openzeppelin-contracts/blob/master/contracts/utils/cryptography/ECDSA.sol\":7613:7722  if (error == RecoverError.InvalidSignatureS) {... */\n      tag_98\n      jumpi\n        /* \"https://github.com/OpenZeppelin/openzeppelin-contracts/blob/master/contracts/utils/cryptography/ECDSA.sol\":7679:7711  ECDSAInvalidSignatureS(errorArg) */\n      mload(0x40)\n      0xd78bce0c00000000000000000000000000000000000000000000000000000000\n      dup2\n      mstore\n      0x04\n      dup2\n      add\n        /* \"#utility.yul\":2456:2481   */\n      dup3\n      swap1\n      mstore\n        /* \"#utility.yul\":2429:2447   */\n      0x24\n      add\n        /* \"https://github.com/OpenZeppelin/openzeppelin-contracts/blob/master/contracts/utils/cryptography/ECDSA.sol\":7679:7711  ECDSAInvalidSignatureS(errorArg) */\n      tag_90\n        /* \"#utility.yul\":2310:2487   */\n      jump\n        /* \"https://github.com/OpenZeppelin/openzeppelin-contracts/blob/master/contracts/utils/cryptography/ECDSA.sol\":5140:6670  function tryRecover(... */\n    tag_113:\n        /* \"https://github.com/OpenZeppelin/openzeppelin-contracts/blob/master/contracts/utils/cryptography/ECDSA.sol\":5266:5273  address */\n      0x00\n      dup1\n      dup1\n        /* \"https://github.com/OpenZeppelin/openzeppelin-contracts/blob/master/contracts/utils/cryptography/ECDSA.sol\":6199:6265  0x7FFFFFFFFFFFFFFFFFFFFFFFFFFFFFFF5D576E7357A4501DDFE92F46681B20A0 */\n      0x7fffffffffffffffffffffffffffffff5d576e7357a4501ddfe92f46681b20a0\n        /* \"https://github.com/OpenZeppelin/openzeppelin-contracts/blob/master/contracts/utils/cryptography/ECDSA.sol\":6186:6265  uint256(s) > 0x7FFFFFFFFFFFFFFFFFFFFFFFFFFFFFFF5D576E7357A4501DDFE92F46681B20A0 */\n      dup5\n      gt\n        /* \"https://github.com/OpenZeppelin/openzeppelin-contracts/blob/master/contracts/utils/cryptography/ECDSA.sol\":6182:6346  if (uint256(s) > 0x7FFFFFFFFFFFFFFFFFFFFFFFFFFFFFFF5D576E7357A4501DDFE92F46681B20A0) {... */\n      iszero\n      tag_144\n      jumpi\n      pop\n        /* \"https://github.com/OpenZeppelin/openzeppelin-contracts/blob/master/contracts/utils/cryptography/ECDSA.sol\":6297:6298  0 */\n      0x00\n      swap2\n      pop\n        /* \"https://github.com/OpenZeppelin/openzeppelin-contracts/blob/master/contracts/utils/cryptography/ECDSA.sol\":6301:6331  RecoverError.InvalidSignatureS */\n      0x03\n      swap1\n      pop\n        /* \"https://github.com/OpenZeppelin/openzeppelin-contracts/blob/master/contracts/utils/cryptography/ECDSA.sol\":6333:6334  s */\n      dup3\n        /* \"https://github.com/OpenZeppelin/openzeppelin-contracts/blob/master/contracts/utils/cryptography/ECDSA.sol\":6281:6335  return (address(0), RecoverError.InvalidSignatureS, s) */\n      jump(tag_143)\n        /* \"https://github.com/OpenZeppelin/openzeppelin-contracts/blob/master/contracts/utils/cryptography/ECDSA.sol\":6182:6346  if (uint256(s) > 0x7FFFFFFFFFFFFFFFFFFFFFFFFFFFFFFF5D576E7357A4501DDFE92F46681B20A0) {... */\n    tag_144:\n        /* \"https://github.com/OpenZeppelin/openzeppelin-contracts/blob/master/contracts/utils/cryptography/ECDSA.sol\":6457:6481  ecrecover(hash, v, r, s) */\n      0x40\n      dup1\n      mload\n        /* \"https://github.com/OpenZeppelin/openzeppelin-contracts/blob/master/contracts/utils/cryptography/ECDSA.sol\":6440:6454  address signer */\n      0x00\n        /* \"https://github.com/OpenZeppelin/openzeppelin-contracts/blob/master/contracts/utils/cryptography/ECDSA.sol\":6457:6481  ecrecover(hash, v, r, s) */\n      dup1\n      dup3\n      mstore\n      0x20\n      dup3\n      add\n      dup1\n      dup5\n      mstore\n        /* \"#utility.yul\":5762:5787   */\n      dup11\n      swap1\n      mstore\n        /* \"#utility.yul\":5835:5839   */\n      0xff\n        /* \"#utility.yul\":5823:5840   */\n      dup10\n      and\n        /* \"#utility.yul\":5803:5821   */\n      swap3\n      dup3\n      add\n        /* \"#utility.yul\":5796:5841   */\n      swap3\n      swap1\n      swap3\n      mstore\n        /* \"#utility.yul\":5857:5875   */\n      0x60\n      dup2\n      add\n        /* \"#utility.yul\":5850:5884   */\n      dup8\n      swap1\n      mstore\n        /* \"#utility.yul\":5900:5918   */\n      0x80\n      dup2\n      add\n        /* \"#utility.yul\":5893:5927   */\n      dup7\n      swap1\n      mstore\n        /* \"https://github.com/OpenZeppelin/openzeppelin-contracts/blob/master/contracts/utils/cryptography/ECDSA.sol\":6457:6481  ecrecover(hash, v, r, s) */\n      0x01\n      swap1\n        /* \"#utility.yul\":5734:5753   */\n      0xa0\n      add\n        /* \"https://github.com/OpenZeppelin/openzeppelin-contracts/blob/master/contracts/utils/cryptography/ECDSA.sol\":6457:6481  ecrecover(hash, v, r, s) */\n      0x20\n      mload(0x40)\n      0x20\n      dup2\n      sub\n      swap1\n      dup1\n      dup5\n      sub\n      swap1\n      dup6\n      gas\n      staticcall\n      iszero\n      dup1\n      iszero\n      tag_148\n      jumpi\n      returndatasize\n      0x00\n      dup1\n      returndatacopy\n      revert(0x00, returndatasize)\n    tag_148:\n      pop\n      pop\n      mload(add(not(0x1f), mload(0x40)))\n      swap2\n      pop\n      pop\n      sub(shl(0xa0, 0x01), 0x01)\n        /* \"https://github.com/OpenZeppelin/openzeppelin-contracts/blob/master/contracts/utils/cryptography/ECDSA.sol\":6495:6515  signer == address(0) */\n      dup2\n      and\n        /* \"https://github.com/OpenZeppelin/openzeppelin-contracts/blob/master/contracts/utils/cryptography/ECDSA.sol\":6491:6604  if (signer == address(0)) {... */\n      tag_149\n      jumpi\n      pop\n        /* \"https://github.com/OpenZeppelin/openzeppelin-contracts/blob/master/contracts/utils/cryptography/ECDSA.sol\":6547:6548  0 */\n      0x00\n      swap3\n      pop\n        /* \"https://github.com/OpenZeppelin/openzeppelin-contracts/blob/master/contracts/utils/cryptography/ECDSA.sol\":6551:6580  RecoverError.InvalidSignature */\n      0x01\n      swap2\n      pop\n        /* \"https://github.com/OpenZeppelin/openzeppelin-contracts/blob/master/contracts/utils/cryptography/ECDSA.sol\":6547:6548  0 */\n      dup3\n      swap1\n      pop\n        /* \"https://github.com/OpenZeppelin/openzeppelin-contracts/blob/master/contracts/utils/cryptography/ECDSA.sol\":6531:6593  return (address(0), RecoverError.InvalidSignature, bytes32(0)) */\n      jump(tag_143)\n        /* \"https://github.com/OpenZeppelin/openzeppelin-contracts/blob/master/contracts/utils/cryptography/ECDSA.sol\":6491:6604  if (signer == address(0)) {... */\n    tag_149:\n        /* \"https://github.com/OpenZeppelin/openzeppelin-contracts/blob/master/contracts/utils/cryptography/ECDSA.sol\":6622:6628  signer */\n      swap3\n      pop\n        /* \"https://github.com/OpenZeppelin/openzeppelin-contracts/blob/master/contracts/utils/cryptography/ECDSA.sol\":6630:6650  RecoverError.NoError */\n      0x00\n      swap2\n      pop\n      dup2\n      swap1\n      pop\n        /* \"https://github.com/OpenZeppelin/openzeppelin-contracts/blob/master/contracts/utils/cryptography/ECDSA.sol\":5140:6670  function tryRecover(... */\n    tag_143:\n      swap5\n      pop\n      swap5\n      pop\n      swap5\n      swap2\n      pop\n      pop\n      jump\t// out\n        /* \"#utility.yul\":14:194   */\n    tag_9:\n        /* \"#utility.yul\":73:79   */\n      0x00\n        /* \"#utility.yul\":126:128   */\n      0x20\n        /* \"#utility.yul\":114:123   */\n      dup3\n        /* \"#utility.yul\":105:112   */\n      dup5\n        /* \"#utility.yul\":101:124   */\n      sub\n        /* \"#utility.yul\":97:129   */\n      slt\n        /* \"#utility.yul\":94:146   */\n      iszero\n      tag_155\n      jumpi\n        /* \"#utility.yul\":142:143   */\n      0x00\n        /* \"#utility.yul\":139:140   */\n      dup1\n        /* \"#utility.yul\":132:144   */\n      revert\n        /* \"#utility.yul\":94:146   */\n    tag_155:\n      pop\n        /* \"#utility.yul\":165:188   */\n      calldataload\n      swap2\n        /* \"#utility.yul\":14:194   */\n      swap1\n      pop\n      jump\t// out\n        /* \"#utility.yul\":391:550   */\n    tag_150:\n        /* \"#utility.yul\":485:491   */\n      dup1\n        /* \"#utility.yul\":518:520   */\n      0x40\n        /* \"#utility.yul\":506:521   */\n      dup2\n      add\n        /* \"#utility.yul\":503:527   */\n      dup4\n      lt\n        /* \"#utility.yul\":500:544   */\n      iszero\n      tag_105\n      jumpi\n        /* \"#utility.yul\":540:541   */\n      0x00\n        /* \"#utility.yul\":537:538   */\n      dup1\n        /* \"#utility.yul\":530:542   */\n      revert\n        /* \"#utility.yul\":555:902   */\n    tag_151:\n        /* \"#utility.yul\":606:614   */\n      0x00\n        /* \"#utility.yul\":616:622   */\n      dup1\n        /* \"#utility.yul\":670:673   */\n      dup4\n        /* \"#utility.yul\":663:667   */\n      0x1f\n        /* \"#utility.yul\":655:661   */\n      dup5\n        /* \"#utility.yul\":651:668   */\n      add\n        /* \"#utility.yul\":647:674   */\n      slt\n        /* \"#utility.yul\":637:692   */\n      tag_160\n      jumpi\n        /* \"#utility.yul\":688:689   */\n      0x00\n        /* \"#utility.yul\":685:686   */\n      dup1\n        /* \"#utility.yul\":678:690   */\n      revert\n        /* \"#utility.yul\":637:692   */\n    tag_160:\n      pop\n        /* \"#utility.yul\":711:731   */\n      dup2\n      calldataload\n        /* \"#utility.yul\":754:772   */\n      0xffffffffffffffff\n        /* \"#utility.yul\":743:773   */\n      dup2\n      gt\n        /* \"#utility.yul\":740:790   */\n      iszero\n      tag_161\n      jumpi\n        /* \"#utility.yul\":786:787   */\n      0x00\n        /* \"#utility.yul\":783:784   */\n      dup1\n        /* \"#utility.yul\":776:788   */\n      revert\n        /* \"#utility.yul\":740:790   */\n    tag_161:\n        /* \"#utility.yul\":823:827   */\n      0x20\n        /* \"#utility.yul\":815:821   */\n      dup4\n        /* \"#utility.yul\":811:828   */\n      add\n        /* \"#utility.yul\":799:828   */\n      swap2\n      pop\n        /* \"#utility.yul\":875:878   */\n      dup4\n        /* \"#utility.yul\":868:872   */\n      0x20\n        /* \"#utility.yul\":859:865   */\n      dup3\n        /* \"#utility.yul\":851:857   */\n      dup6\n        /* \"#utility.yul\":847:866   */\n      add\n        /* \"#utility.yul\":843:873   */\n      add\n        /* \"#utility.yul\":840:879   */\n      gt\n        /* \"#utility.yul\":837:896   */\n      iszero\n      tag_162\n      jumpi\n        /* \"#utility.yul\":892:893   */\n      0x00\n        /* \"#utility.yul\":889:890   */\n      dup1\n        /* \"#utility.yul\":882:894   */\n      revert\n        /* \"#utility.yul\":837:896   */\n    tag_162:\n        /* \"#utility.yul\":555:902   */\n      swap3\n      pop\n      swap3\n      swap1\n      pop\n      jump\t// out\n        /* \"#utility.yul\":907:1633   */\n    tag_15:\n        /* \"#utility.yul\":1054:1060   */\n      0x00\n        /* \"#utility.yul\":1062:1068   */\n      dup1\n        /* \"#utility.yul\":1070:1076   */\n      0x00\n        /* \"#utility.yul\":1078:1084   */\n      dup1\n        /* \"#utility.yul\":1086:1092   */\n      0x00\n        /* \"#utility.yul\":1139:1142   */\n      0xc0\n        /* \"#utility.yul\":1127:1136   */\n      dup7\n        /* \"#utility.yul\":1118:1125   */\n      dup9\n        /* \"#utility.yul\":1114:1137   */\n      sub\n        /* \"#utility.yul\":1110:1143   */\n      slt\n        /* \"#utility.yul\":1107:1160   */\n      iszero\n      tag_164\n      jumpi\n        /* \"#utility.yul\":1156:1157   */\n      0x00\n        /* \"#utility.yul\":1153:1154   */\n      dup1\n        /* \"#utility.yul\":1146:1158   */\n      revert\n        /* \"#utility.yul\":1107:1160   */\n    tag_164:\n        /* \"#utility.yul\":1179:1232   */\n      tag_165\n        /* \"#utility.yul\":1224:1231   */\n      dup8\n        /* \"#utility.yul\":1213:1222   */\n      dup8\n        /* \"#utility.yul\":1179:1232   */\n      tag_150\n      jump\t// in\n    tag_165:\n        /* \"#utility.yul\":1169:1232   */\n      swap5\n      pop\n        /* \"#utility.yul\":1251:1313   */\n      tag_166\n        /* \"#utility.yul\":1305:1312   */\n      dup8\n        /* \"#utility.yul\":1300:1302   */\n      0x40\n        /* \"#utility.yul\":1289:1298   */\n      dup9\n        /* \"#utility.yul\":1285:1303   */\n      add\n        /* \"#utility.yul\":1251:1313   */\n      tag_150\n      jump\t// in\n    tag_166:\n        /* \"#utility.yul\":1241:1313   */\n      swap4\n      pop\n        /* \"#utility.yul\":1360:1363   */\n      0x80\n        /* \"#utility.yul\":1349:1358   */\n      dup7\n        /* \"#utility.yul\":1345:1364   */\n      add\n        /* \"#utility.yul\":1332:1365   */\n      calldataload\n        /* \"#utility.yul\":1322:1365   */\n      swap3\n      pop\n        /* \"#utility.yul\":1416:1419   */\n      0xa0\n        /* \"#utility.yul\":1405:1414   */\n      dup7\n        /* \"#utility.yul\":1401:1420   */\n      add\n        /* \"#utility.yul\":1388:1421   */\n      calldataload\n        /* \"#utility.yul\":1444:1462   */\n      0xffffffffffffffff\n        /* \"#utility.yul\":1436:1442   */\n      dup2\n        /* \"#utility.yul\":1433:1463   */\n      gt\n        /* \"#utility.yul\":1430:1480   */\n      iszero\n      tag_167\n      jumpi\n        /* \"#utility.yul\":1476:1477   */\n      0x00\n        /* \"#utility.yul\":1473:1474   */\n      dup1\n        /* \"#utility.yul\":1466:1478   */\n      revert\n        /* \"#utility.yul\":1430:1480   */\n    tag_167:\n        /* \"#utility.yul\":1515:1573   */\n      tag_168\n        /* \"#utility.yul\":1565:1572   */\n      dup9\n        /* \"#utility.yul\":1556:1562   */\n      dup3\n        /* \"#utility.yul\":1545:1554   */\n      dup10\n        /* \"#utility.yul\":1541:1563   */\n      add\n        /* \"#utility.yul\":1515:1573   */\n      tag_151\n      jump\t// in\n    tag_168:\n        /* \"#utility.yul\":907:1633   */\n      swap7\n      swap10\n      swap6\n      swap9\n      pop\n      swap4\n      swap7\n      pop\n        /* \"#utility.yul\":1592:1600   */\n      swap3\n      swap5\n        /* \"#utility.yul\":1489:1573   */\n      swap4\n        /* \"#utility.yul\":907:1633   */\n      swap3\n      pop\n      pop\n      pop\n      jump\t// out\n        /* \"#utility.yul\":1638:1834   */\n    tag_152:\n        /* \"#utility.yul\":1706:1726   */\n      dup1\n      calldataload\n      sub(shl(0xa0, 0x01), 0x01)\n        /* \"#utility.yul\":1755:1809   */\n      dup2\n      and\n        /* \"#utility.yul\":1745:1810   */\n      dup2\n      eq\n        /* \"#utility.yul\":1735:1828   */\n      tag_170\n      jumpi\n        /* \"#utility.yul\":1824:1825   */\n      0x00\n        /* \"#utility.yul\":1821:1822   */\n      dup1\n        /* \"#utility.yul\":1814:1826   */\n      revert\n        /* \"#utility.yul\":1735:1828   */\n    tag_170:\n        /* \"#utility.yul\":1638:1834   */\n      swap2\n      swap1\n      pop\n      jump\t// out\n        /* \"#utility.yul\":1839:2305   */\n    tag_20:\n        /* \"#utility.yul\":1934:1940   */\n      0x00\n        /* \"#utility.yul\":1942:1948   */\n      dup1\n        /* \"#utility.yul\":1950:1956   */\n      0x00\n        /* \"#utility.yul\":1958:1964   */\n      dup1\n        /* \"#utility.yul\":1966:1972   */\n      0x00\n        /* \"#utility.yul\":2019:2022   */\n      0xa0\n        /* \"#utility.yul\":2007:2016   */\n      dup7\n        /* \"#utility.yul\":1998:2005   */\n      dup9\n        /* \"#utility.yul\":1994:2017   */\n      sub\n        /* \"#utility.yul\":1990:2023   */\n      slt\n        /* \"#utility.yul\":1987:2040   */\n      iszero\n      tag_172\n      jumpi\n        /* \"#utility.yul\":2036:2037   */\n      0x00\n        /* \"#utility.yul\":2033:2034   */\n      dup1\n        /* \"#utility.yul\":2026:2038   */\n      revert\n        /* \"#utility.yul\":1987:2040   */\n    tag_172:\n        /* \"#utility.yul\":2072:2081   */\n      dup6\n        /* \"#utility.yul\":2059:2082   */\n      calldataload\n        /* \"#utility.yul\":2049:2082   */\n      swap5\n      pop\n        /* \"#utility.yul\":2101:2139   */\n      tag_173\n        /* \"#utility.yul\":2135:2137   */\n      0x20\n        /* \"#utility.yul\":2124:2133   */\n      dup8\n        /* \"#utility.yul\":2120:2138   */\n      add\n        /* \"#utility.yul\":2101:2139   */\n      tag_152\n      jump\t// in\n    tag_173:\n        /* \"#utility.yul\":2091:2139   */\n      swap4\n      pop\n        /* \"#utility.yul\":2186:2188   */\n      0x40\n        /* \"#utility.yul\":2175:2184   */\n      dup7\n        /* \"#utility.yul\":2171:2189   */\n      add\n        /* \"#utility.yul\":2158:2190   */\n      calldataload\n        /* \"#utility.yul\":2148:2190   */\n      swap3\n      pop\n        /* \"#utility.yul\":2209:2247   */\n      tag_174\n        /* \"#utility.yul\":2243:2245   */\n      0x60\n        /* \"#utility.yul\":2232:2241   */\n      dup8\n        /* \"#utility.yul\":2228:2246   */\n      add\n        /* \"#utility.yul\":2209:2247   */\n      tag_152\n      jump\t// in\n    tag_174:\n        /* \"#utility.yul\":1839:2305   */\n      swap5\n      swap8\n      swap4\n      swap7\n      pop\n      swap2\n      swap5\n        /* \"#utility.yul\":2294:2297   */\n      0x80\n        /* \"#utility.yul\":2279:2298   */\n      add\n        /* \"#utility.yul\":2266:2299   */\n      calldataload\n      swap3\n        /* \"#utility.yul\":1839:2305   */\n      swap2\n      pop\n      pop\n      jump\t// out\n        /* \"#utility.yul\":2492:2969   */\n    tag_27:\n        /* \"#utility.yul\":2571:2577   */\n      0x00\n        /* \"#utility.yul\":2579:2585   */\n      dup1\n        /* \"#utility.yul\":2587:2593   */\n      0x00\n        /* \"#utility.yul\":2640:2642   */\n      0x40\n        /* \"#utility.yul\":2628:2637   */\n      dup5\n        /* \"#utility.yul\":2619:2626   */\n      dup7\n        /* \"#utility.yul\":2615:2638   */\n      sub\n        /* \"#utility.yul\":2611:2643   */\n      slt\n        /* \"#utility.yul\":2608:2660   */\n      iszero\n      tag_177\n      jumpi\n        /* \"#utility.yul\":2656:2657   */\n      0x00\n        /* \"#utility.yul\":2653:2654   */\n      dup1\n        /* \"#utility.yul\":2646:2658   */\n      revert\n        /* \"#utility.yul\":2608:2660   */\n    tag_177:\n        /* \"#utility.yul\":2692:2701   */\n      dup4\n        /* \"#utility.yul\":2679:2702   */\n      calldataload\n        /* \"#utility.yul\":2669:2702   */\n      swap3\n      pop\n        /* \"#utility.yul\":2753:2755   */\n      0x20\n        /* \"#utility.yul\":2742:2751   */\n      dup5\n        /* \"#utility.yul\":2738:2756   */\n      add\n        /* \"#utility.yul\":2725:2757   */\n      calldataload\n        /* \"#utility.yul\":2780:2798   */\n      0xffffffffffffffff\n        /* \"#utility.yul\":2772:2778   */\n      dup2\n        /* \"#utility.yul\":2769:2799   */\n      gt\n        /* \"#utility.yul\":2766:2816   */\n      iszero\n      tag_178\n      jumpi\n        /* \"#utility.yul\":2812:2813   */\n      0x00\n        /* \"#utility.yul\":2809:2810   */\n      dup1\n        /* \"#utility.yul\":2802:2814   */\n      revert\n        /* \"#utility.yul\":2766:2816   */\n    tag_178:\n        /* \"#utility.yul\":2851:2909   */\n      tag_179\n        /* \"#utility.yul\":2901:2908   */\n      dup7\n        /* \"#utility.yul\":2892:2898   */\n      dup3\n        /* \"#utility.yul\":2881:2890   */\n      dup8\n        /* \"#utility.yul\":2877:2899   */\n      add\n        /* \"#utility.yul\":2851:2909   */\n      tag_151\n      jump\t// in\n    tag_179:\n        /* \"#utility.yul\":2492:2969   */\n      swap5\n      swap8\n        /* \"#utility.yul\":2928:2936   */\n      swap1\n      swap7\n      pop\n        /* \"#utility.yul\":2825:2909   */\n      swap4\n      swap5\n      pop\n      pop\n      pop\n      pop\n        /* \"#utility.yul\":2492:2969   */\n      jump\t// out\n        /* \"#utility.yul\":2974:3158   */\n    tag_33:\n      shl(0xe0, 0x4e487b71)\n        /* \"#utility.yul\":3023:3024   */\n      0x00\n        /* \"#utility.yul\":3016:3104   */\n      mstore\n        /* \"#utility.yul\":3123:3127   */\n      0x32\n        /* \"#utility.yul\":3120:3121   */\n      0x04\n        /* \"#utility.yul\":3113:3128   */\n      mstore\n        /* \"#utility.yul\":3147:3151   */\n      0x24\n        /* \"#utility.yul\":3144:3145   */\n      0x00\n        /* \"#utility.yul\":3137:3152   */\n      revert\n        /* \"#utility.yul\":3163:3349   */\n    tag_37:\n        /* \"#utility.yul\":3222:3228   */\n      0x00\n        /* \"#utility.yul\":3275:3277   */\n      0x20\n        /* \"#utility.yul\":3263:3272   */\n      dup3\n        /* \"#utility.yul\":3254:3261   */\n      dup5\n        /* \"#utility.yul\":3250:3273   */\n      sub\n        /* \"#utility.yul\":3246:3278   */\n      slt\n        /* \"#utility.yul\":3243:3295   */\n      iszero\n      tag_182\n      jumpi\n        /* \"#utility.yul\":3291:3292   */\n      0x00\n        /* \"#utility.yul\":3288:3289   */\n      dup1\n        /* \"#utility.yul\":3281:3293   */\n      revert\n        /* \"#utility.yul\":3243:3295   */\n    tag_182:\n        /* \"#utility.yul\":3314:3343   */\n      tag_183\n        /* \"#utility.yul\":3333:3342   */\n      dup3\n        /* \"#utility.yul\":3314:3343   */\n      tag_152\n      jump\t// in\n    tag_183:\n        /* \"#utility.yul\":3304:3343   */\n      swap4\n        /* \"#utility.yul\":3163:3349   */\n      swap3\n      pop\n      pop\n      pop\n      jump\t// out\n        /* \"#utility.yul\":4292:4906   */\n    tag_91:\n        /* \"#utility.yul\":4505:4507   */\n      0x60\n        /* \"#utility.yul\":4494:4503   */\n      dup2\n        /* \"#utility.yul\":4487:4508   */\n      mstore\n        /* \"#utility.yul\":4544:4550   */\n      dup4\n        /* \"#utility.yul\":4539:4541   */\n      0x60\n        /* \"#utility.yul\":4528:4537   */\n      dup3\n        /* \"#utility.yul\":4524:4542   */\n      add\n        /* \"#utility.yul\":4517:4551   */\n      mstore\n        /* \"#utility.yul\":4602:4608   */\n      dup4\n        /* \"#utility.yul\":4594:4600   */\n      dup6\n        /* \"#utility.yul\":4588:4591   */\n      0x80\n        /* \"#utility.yul\":4577:4586   */\n      dup4\n        /* \"#utility.yul\":4573:4592   */\n      add\n        /* \"#utility.yul\":4560:4609   */\n      calldatacopy\n        /* \"#utility.yul\":4659:4660   */\n      0x00\n        /* \"#utility.yul\":4653:4656   */\n      0x80\n        /* \"#utility.yul\":4629:4651   */\n      dup6\n      dup4\n      add\n        /* \"#utility.yul\":4625:4657   */\n      dup2\n      add\n        /* \"#utility.yul\":4618:4661   */\n      swap2\n      swap1\n      swap2\n      mstore\n      sub(shl(0xa0, 0x01), 0x01)\n        /* \"#utility.yul\":4832:4847   */\n      swap4\n      dup5\n      and\n        /* \"#utility.yul\":4825:4829   */\n      0x20\n        /* \"#utility.yul\":4810:4830   */\n      dup4\n      add\n        /* \"#utility.yul\":4803:4848   */\n      mstore\n        /* \"#utility.yul\":4884:4899   */\n      swap2\n      swap1\n      swap3\n      and\n        /* \"#utility.yul\":4879:4881   */\n      0x40\n        /* \"#utility.yul\":4864:4882   */\n      dup4\n      add\n        /* \"#utility.yul\":4857:4900   */\n      mstore\n        /* \"#utility.yul\":4722:4724   */\n      0x1f\n        /* \"#utility.yul\":4701:4716   */\n      swap1\n      swap3\n      add\n      not(0x1f)\n        /* \"#utility.yul\":4697:4726   */\n      and\n        /* \"#utility.yul\":4682:4727   */\n      add\n        /* \"#utility.yul\":4678:4733   */\n      add\n      swap2\n      swap1\n      pop\n        /* \"#utility.yul\":4292:4906   */\n      jump\t// out\n        /* \"#utility.yul\":5164:5348   */\n    tag_118:\n      shl(0xe0, 0x4e487b71)\n        /* \"#utility.yul\":5213:5214   */\n      0x00\n        /* \"#utility.yul\":5206:5294   */\n      mstore\n        /* \"#utility.yul\":5313:5317   */\n      0x21\n        /* \"#utility.yul\":5310:5311   */\n      0x04\n        /* \"#utility.yul\":5303:5318   */\n      mstore\n        /* \"#utility.yul\":5337:5341   */\n      0x24\n        /* \"#utility.yul\":5334:5335   */\n      0x00\n        /* \"#utility.yul\":5327:5342   */\n      revert\n\n    auxdata: 0xa26469706673582212201b3f073c46984d827130f4db05155c7ca901286e92571d1df52d4ff52321c2d164736f6c63430008190033\n}\n",
				"bytecode": {
					"linkReferences": {},
					"object": "6080604052348015600e575f80fd5b50610a0b8061001c5f395ff3fe60806040526004361061003e575f3560e01c806302a7350714610042578063147fa6a814610085578063dac177321461009a578063db98532a1461011d575b5f80fd5b34801561004d575f80fd5b5061007061005c3660046107c2565b5f6020819052908152604090205460ff1681565b60405190151581526020015b60405180910390f35b61009861009336600461082e565b61013c565b005b3480156100a5575f80fd5b5061010f6100b43660046108b5565b604080516020808201979097526bffffffffffffffffffffffff19606096871b81168284015260548201959095529290941b90921660748201526088808201929092528251808203909201825260a801909152805191012090565b60405190815260200161007c565b348015610128575f80fd5b506100986101373660046108ff565b610336565b5f6101c2863561014f602088018861095b565b6020808a0135906101669060408b01908b0161095b565b604080516020808201969096526bffffffffffffffffffffffff19606095861b81168284015260548201949094529190931b909116607482015260888082018990528251808303909101815260a8909101909152805191012090565b90506101dc6101d4602087018761095b565b828585610390565b6101f16101ec602087018761095b565b610462565b6101fa816104a7565b6102086020870135346104f2565b610218604086016020870161095b565b6001600160a01b03166342842e0e610233602088018861095b565b60405160e083901b7fffffffff000000000000000000000000000000000000000000000000000000001681526001600160a01b03919091166004820152336024820152883560448201526064015f604051808303815f87803b158015610297575f80fd5b505af11580156102a9573d5f803e3d5ffd5b50505050845f600281106102bf576102bf610947565b6020020160208101906102d2919061095b565b6001600160a01b03166108fc3490811502906040515f60405180830381858888f19350505050158015610307573d5f803e3d5ffd5b5033817f4c72f34d0e2a0b597a25ae9c086c06c4ac48ba071ecc23757ab1668bcd20be505f80a3505050505050565b61034233848484610390565b61034b83610539565b5f838152602081905260408120805460ff19166001179055339084907f13c3e2105d66aef65e187710d248703d9b145a13fc06330bcec2d4481ad0da109080a3505050565b7f19457468657265756d205369676e6564204d6573736167653a0a3332000000005f908152601c849052603c81206103fd9084848080601f0160208091040260200160405190810160405280939291908181526020018383808284375f9201919091525061058492505050565b9050846001600160a01b0316816001600160a01b03161461045b57828282876040517fee42f6a8000000000000000000000000000000000000000000000000000000008152600401610452949392919061097b565b60405180910390fd5b5050505050565b336001600160a01b038216036104a4576040517fb1df0e0600000000000000000000000000000000000000000000000000000000815260040160405180910390fd5b50565b5f8181526020819052604090205460ff16156104a4576040517f2720449200000000000000000000000000000000000000000000000000000000815260048101829052602401610452565b808214610535576040517fb3d779f50000000000000000000000000000000000000000000000000000000081526004810183905260248101829052604401610452565b5050565b5f8181526020819052604090205460ff16156104a4576040517fdef2cec700000000000000000000000000000000000000000000000000000000815260048101829052602401610452565b5f805f8061059286866105ae565b9250925092506105a282826105f7565b50909150505b92915050565b5f805f83516041036105e5576020840151604085015160608601515f1a6105d7888285856106fa565b9550955095505050506105f0565b505081515f91506002905b9250925092565b5f82600381111561060a5761060a6109c1565b03610613575050565b6001826003811115610627576106276109c1565b0361065e576040517ff645eedf00000000000000000000000000000000000000000000000000000000815260040160405180910390fd5b6002826003811115610672576106726109c1565b036106ac576040517ffce698f700000000000000000000000000000000000000000000000000000000815260048101829052602401610452565b60038260038111156106c0576106c06109c1565b03610535576040517fd78bce0c00000000000000000000000000000000000000000000000000000000815260048101829052602401610452565b5f80807f7fffffffffffffffffffffffffffffff5d576e7357a4501ddfe92f46681b20a084111561073357505f915060039050826107b8565b604080515f808252602082018084528a905260ff891692820192909252606081018790526080810186905260019060a0016020604051602081039080840390855afa158015610784573d5f803e3d5ffd5b5050604051601f1901519150506001600160a01b0381166107af57505f9250600191508290506107b8565b92505f91508190505b9450945094915050565b5f602082840312156107d2575f80fd5b5035919050565b80604081018310156105a8575f80fd5b5f8083601f8401126107f9575f80fd5b50813567ffffffffffffffff811115610810575f80fd5b602083019150836020828501011115610827575f80fd5b9250929050565b5f805f805f60c08688031215610842575f80fd5b61084c87876107d9565b945061085b87604088016107d9565b93506080860135925060a086013567ffffffffffffffff81111561087d575f80fd5b610889888289016107e9565b969995985093965092949392505050565b80356001600160a01b03811681146108b0575f80fd5b919050565b5f805f805f60a086880312156108c9575f80fd5b853594506108d96020870161089a565b9350604086013592506108ee6060870161089a565b949793965091946080013592915050565b5f805f60408486031215610911575f80fd5b83359250602084013567ffffffffffffffff81111561092e575f80fd5b61093a868287016107e9565b9497909650939450505050565b634e487b7160e01b5f52603260045260245ffd5b5f6020828403121561096b575f80fd5b6109748261089a565b9392505050565b60608152836060820152838560808301375f60808583018101919091526001600160a01b039384166020830152919092166040830152601f909201601f19160101919050565b634e487b7160e01b5f52602160045260245ffdfea26469706673582212201b3f073c46984d827130f4db05155c7ca901286e92571d1df52d4ff52321c2d164736f6c63430008190033",
					"opcodes": "PUSH1 0x80 PUSH1 0x40 MSTORE CALLVALUE DUP1 ISZERO PUSH1 0xE JUMPI PUSH0 DUP1 REVERT JUMPDEST POP PUSH2 0xA0B DUP1 PUSH2 0x1C PUSH0 CODECOPY PUSH0 RETURN INVALID PUSH1 0x80 PUSH1 0x40 MSTORE PUSH1 0x4 CALLDATASIZE LT PUSH2 0x3E JUMPI PUSH0 CALLDATALOAD PUSH1 0xE0 SHR DUP1 PUSH4 0x2A73507 EQ PUSH2 0x42 JUMPI DUP1 PUSH4 0x147FA6A8 EQ PUSH2 0x85 JUMPI DUP1 PUSH4 0xDAC17732 EQ PUSH2 0x9A JUMPI DUP1 PUSH4 0xDB98532A EQ PUSH2 0x11D JUMPI JUMPDEST PUSH0 DUP1 REVERT JUMPDEST CALLVALUE DUP1 ISZERO PUSH2 0x4D JUMPI PUSH0 DUP1 REVERT JUMPDEST POP PUSH2 0x70 PUSH2 0x5C CALLDATASIZE PUSH1 0x4 PUSH2 0x7C2 JUMP JUMPDEST PUSH0 PUSH1 0x20 DUP2 SWAP1 MSTORE SWAP1 DUP2 MSTORE PUSH1 0x40 SWAP1 KECCAK256 SLOAD PUSH1 0xFF AND DUP2 JUMP JUMPDEST PUSH1 0x40 MLOAD SWAP1 ISZERO ISZERO DUP2 MSTORE PUSH1 0x20 ADD JUMPDEST PUSH1 0x40 MLOAD DUP1 SWAP2 SUB SWAP1 RETURN JUMPDEST PUSH2 0x98 PUSH2 0x93 CALLDATASIZE PUSH1 0x4 PUSH2 0x82E JUMP JUMPDEST PUSH2 0x13C JUMP JUMPDEST STOP JUMPDEST CALLVALUE DUP1 ISZERO PUSH2 0xA5 JUMPI PUSH0 DUP1 REVERT JUMPDEST POP PUSH2 0x10F PUSH2 0xB4 CALLDATASIZE PUSH1 0x4 PUSH2 0x8B5 JUMP JUMPDEST PUSH1 0x40 DUP1 MLOAD PUSH1 0x20 DUP1 DUP3 ADD SWAP8 SWAP1 SWAP8 MSTORE PUSH12 0xFFFFFFFFFFFFFFFFFFFFFFFF NOT PUSH1 0x60 SWAP7 DUP8 SHL DUP2 AND DUP3 DUP5 ADD MSTORE PUSH1 0x54 DUP3 ADD SWAP6 SWAP1 SWAP6 MSTORE SWAP3 SWAP1 SWAP5 SHL SWAP1 SWAP3 AND PUSH1 0x74 DUP3 ADD MSTORE PUSH1 0x88 DUP1 DUP3 ADD SWAP3 SWAP1 SWAP3 MSTORE DUP3 MLOAD DUP1 DUP3 SUB SWAP1 SWAP3 ADD DUP3 MSTORE PUSH1 0xA8 ADD SWAP1 SWAP2 MSTORE DUP1 MLOAD SWAP2 ADD KECCAK256 SWAP1 JUMP JUMPDEST PUSH1 0x40 MLOAD SWAP1 DUP2 MSTORE PUSH1 0x20 ADD PUSH2 0x7C JUMP JUMPDEST CALLVALUE DUP1 ISZERO PUSH2 0x128 JUMPI PUSH0 DUP1 REVERT JUMPDEST POP PUSH2 0x98 PUSH2 0x137 CALLDATASIZE PUSH1 0x4 PUSH2 0x8FF JUMP JUMPDEST PUSH2 0x336 JUMP JUMPDEST PUSH0 PUSH2 0x1C2 DUP7 CALLDATALOAD PUSH2 0x14F PUSH1 0x20 DUP9 ADD DUP9 PUSH2 0x95B JUMP JUMPDEST PUSH1 0x20 DUP1 DUP11 ADD CALLDATALOAD SWAP1 PUSH2 0x166 SWAP1 PUSH1 0x40 DUP12 ADD SWAP1 DUP12 ADD PUSH2 0x95B JUMP JUMPDEST PUSH1 0x40 DUP1 MLOAD PUSH1 0x20 DUP1 DUP3 ADD SWAP7 SWAP1 SWAP7 MSTORE PUSH12 0xFFFFFFFFFFFFFFFFFFFFFFFF NOT PUSH1 0x60 SWAP6 DUP7 SHL DUP2 AND DUP3 DUP5 ADD MSTORE PUSH1 0x54 DUP3 ADD SWAP5 SWAP1 SWAP5 MSTORE SWAP2 SWAP1 SWAP4 SHL SWAP1 SWAP2 AND PUSH1 0x74 DUP3 ADD MSTORE PUSH1 0x88 DUP1 DUP3 ADD DUP10 SWAP1 MSTORE DUP3 MLOAD DUP1 DUP4 SUB SWAP1 SWAP2 ADD DUP2 MSTORE PUSH1 0xA8 SWAP1 SWAP2 ADD SWAP1 SWAP2 MSTORE DUP1 MLOAD SWAP2 ADD KECCAK256 SWAP1 JUMP JUMPDEST SWAP1 POP PUSH2 0x1DC PUSH2 0x1D4 PUSH1 0x20 DUP8 ADD DUP8 PUSH2 0x95B JUMP JUMPDEST DUP3 DUP6 DUP6 PUSH2 0x390 JUMP JUMPDEST PUSH2 0x1F1 PUSH2 0x1EC PUSH1 0x20 DUP8 ADD DUP8 PUSH2 0x95B JUMP JUMPDEST PUSH2 0x462 JUMP JUMPDEST PUSH2 0x1FA DUP2 PUSH2 0x4A7 JUMP JUMPDEST PUSH2 0x208 PUSH1 0x20 DUP8 ADD CALLDATALOAD CALLVALUE PUSH2 0x4F2 JUMP JUMPDEST PUSH2 0x218 PUSH1 0x40 DUP7 ADD PUSH1 0x20 DUP8 ADD PUSH2 0x95B JUMP JUMPDEST PUSH1 0x1 PUSH1 0x1 PUSH1 0xA0 SHL SUB AND PUSH4 0x42842E0E PUSH2 0x233 PUSH1 0x20 DUP9 ADD DUP9 PUSH2 0x95B JUMP JUMPDEST PUSH1 0x40 MLOAD PUSH1 0xE0 DUP4 SWAP1 SHL PUSH32 0xFFFFFFFF00000000000000000000000000000000000000000000000000000000 AND DUP2 MSTORE PUSH1 0x1 PUSH1 0x1 PUSH1 0xA0 SHL SUB SWAP2 SWAP1 SWAP2 AND PUSH1 0x4 DUP3 ADD MSTORE CALLER PUSH1 0x24 DUP3 ADD MSTORE DUP9 CALLDATALOAD PUSH1 0x44 DUP3 ADD MSTORE PUSH1 0x64 ADD PUSH0 PUSH1 0x40 MLOAD DUP1 DUP4 SUB DUP2 PUSH0 DUP8 DUP1 EXTCODESIZE ISZERO DUP1 ISZERO PUSH2 0x297 JUMPI PUSH0 DUP1 REVERT JUMPDEST POP GAS CALL ISZERO DUP1 ISZERO PUSH2 0x2A9 JUMPI RETURNDATASIZE PUSH0 DUP1 RETURNDATACOPY RETURNDATASIZE PUSH0 REVERT JUMPDEST POP POP POP POP DUP5 PUSH0 PUSH1 0x2 DUP2 LT PUSH2 0x2BF JUMPI PUSH2 0x2BF PUSH2 0x947 JUMP JUMPDEST PUSH1 0x20 MUL ADD PUSH1 0x20 DUP2 ADD SWAP1 PUSH2 0x2D2 SWAP2 SWAP1 PUSH2 0x95B JUMP JUMPDEST PUSH1 0x1 PUSH1 0x1 PUSH1 0xA0 SHL SUB AND PUSH2 0x8FC CALLVALUE SWAP1 DUP2 ISZERO MUL SWAP1 PUSH1 0x40 MLOAD PUSH0 PUSH1 0x40 MLOAD DUP1 DUP4 SUB DUP2 DUP6 DUP9 DUP9 CALL SWAP4 POP POP POP POP ISZERO DUP1 ISZERO PUSH2 0x307 JUMPI RETURNDATASIZE PUSH0 DUP1 RETURNDATACOPY RETURNDATASIZE PUSH0 REVERT JUMPDEST POP CALLER DUP2 PUSH32 0x4C72F34D0E2A0B597A25AE9C086C06C4AC48BA071ECC23757AB1668BCD20BE50 PUSH0 DUP1 LOG3 POP POP POP POP POP POP JUMP JUMPDEST PUSH2 0x342 CALLER DUP5 DUP5 DUP5 PUSH2 0x390 JUMP JUMPDEST PUSH2 0x34B DUP4 PUSH2 0x539 JUMP JUMPDEST PUSH0 DUP4 DUP2 MSTORE PUSH1 0x20 DUP2 SWAP1 MSTORE PUSH1 0x40 DUP2 KECCAK256 DUP1 SLOAD PUSH1 0xFF NOT AND PUSH1 0x1 OR SWAP1 SSTORE CALLER SWAP1 DUP5 SWAP1 PUSH32 0x13C3E2105D66AEF65E187710D248703D9B145A13FC06330BCEC2D4481AD0DA10 SWAP1 DUP1 LOG3 POP POP POP JUMP JUMPDEST PUSH32 0x19457468657265756D205369676E6564204D6573736167653A0A333200000000 PUSH0 SWAP1 DUP2 MSTORE PUSH1 0x1C DUP5 SWAP1 MSTORE PUSH1 0x3C DUP2 KECCAK256 PUSH2 0x3FD SWAP1 DUP5 DUP5 DUP1 DUP1 PUSH1 0x1F ADD PUSH1 0x20 DUP1 SWAP2 DIV MUL PUSH1 0x20 ADD PUSH1 0x40 MLOAD SWAP1 DUP2 ADD PUSH1 0x40 MSTORE DUP1 SWAP4 SWAP3 SWAP2 SWAP1 DUP2 DUP2 MSTORE PUSH1 0x20 ADD DUP4 DUP4 DUP1 DUP3 DUP5 CALLDATACOPY PUSH0 SWAP3 ADD SWAP2 SWAP1 SWAP2 MSTORE POP PUSH2 0x584 SWAP3 POP POP POP JUMP JUMPDEST SWAP1 POP DUP5 PUSH1 0x1 PUSH1 0x1 PUSH1 0xA0 SHL SUB AND DUP2 PUSH1 0x1 PUSH1 0x1 PUSH1 0xA0 SHL SUB AND EQ PUSH2 0x45B JUMPI DUP3 DUP3 DUP3 DUP8 PUSH1 0x40 MLOAD PUSH32 0xEE42F6A800000000000000000000000000000000000000000000000000000000 DUP2 MSTORE PUSH1 0x4 ADD PUSH2 0x452 SWAP5 SWAP4 SWAP3 SWAP2 SWAP1 PUSH2 0x97B JUMP JUMPDEST PUSH1 0x40 MLOAD DUP1 SWAP2 SUB SWAP1 REVERT JUMPDEST POP POP POP POP POP JUMP JUMPDEST CALLER PUSH1 0x1 PUSH1 0x1 PUSH1 0xA0 SHL SUB DUP3 AND SUB PUSH2 0x4A4 JUMPI PUSH1 0x40 MLOAD PUSH32 0xB1DF0E0600000000000000000000000000000000000000000000000000000000 DUP2 MSTORE PUSH1 0x4 ADD PUSH1 0x40 MLOAD DUP1 SWAP2 SUB SWAP1 REVERT JUMPDEST POP JUMP JUMPDEST PUSH0 DUP2 DUP2 MSTORE PUSH1 0x20 DUP2 SWAP1 MSTORE PUSH1 0x40 SWAP1 KECCAK256 SLOAD PUSH1 0xFF AND ISZERO PUSH2 0x4A4 JUMPI PUSH1 0x40 MLOAD PUSH32 0x2720449200000000000000000000000000000000000000000000000000000000 DUP2 MSTORE PUSH1 0x4 DUP2 ADD DUP3 SWAP1 MSTORE PUSH1 0x24 ADD PUSH2 0x452 JUMP JUMPDEST DUP1 DUP3 EQ PUSH2 0x535 JUMPI PUSH1 0x40 MLOAD PUSH32 0xB3D779F500000000000000000000000000000000000000000000000000000000 DUP2 MSTORE PUSH1 0x4 DUP2 ADD DUP4 SWAP1 MSTORE PUSH1 0x24 DUP2 ADD DUP3 SWAP1 MSTORE PUSH1 0x44 ADD PUSH2 0x452 JUMP JUMPDEST POP POP JUMP JUMPDEST PUSH0 DUP2 DUP2 MSTORE PUSH1 0x20 DUP2 SWAP1 MSTORE PUSH1 0x40 SWAP1 KECCAK256 SLOAD PUSH1 0xFF AND ISZERO PUSH2 0x4A4 JUMPI PUSH1 0x40 MLOAD PUSH32 0xDEF2CEC700000000000000000000000000000000000000000000000000000000 DUP2 MSTORE PUSH1 0x4 DUP2 ADD DUP3 SWAP1 MSTORE PUSH1 0x24 ADD PUSH2 0x452 JUMP JUMPDEST PUSH0 DUP1 PUSH0 DUP1 PUSH2 0x592 DUP7 DUP7 PUSH2 0x5AE JUMP JUMPDEST SWAP3 POP SWAP3 POP SWAP3 POP PUSH2 0x5A2 DUP3 DUP3 PUSH2 0x5F7 JUMP JUMPDEST POP SWAP1 SWAP2 POP POP JUMPDEST SWAP3 SWAP2 POP POP JUMP JUMPDEST PUSH0 DUP1 PUSH0 DUP4 MLOAD PUSH1 0x41 SUB PUSH2 0x5E5 JUMPI PUSH1 0x20 DUP5 ADD MLOAD PUSH1 0x40 DUP6 ADD MLOAD PUSH1 0x60 DUP7 ADD MLOAD PUSH0 BYTE PUSH2 0x5D7 DUP9 DUP3 DUP6 DUP6 PUSH2 0x6FA JUMP JUMPDEST SWAP6 POP SWAP6 POP SWAP6 POP POP POP POP PUSH2 0x5F0 JUMP JUMPDEST POP POP DUP2 MLOAD PUSH0 SWAP2 POP PUSH1 0x2 SWAP1 JUMPDEST SWAP3 POP SWAP3 POP SWAP3 JUMP JUMPDEST PUSH0 DUP3 PUSH1 0x3 DUP2 GT ISZERO PUSH2 0x60A JUMPI PUSH2 0x60A PUSH2 0x9C1 JUMP JUMPDEST SUB PUSH2 0x613 JUMPI POP POP JUMP JUMPDEST PUSH1 0x1 DUP3 PUSH1 0x3 DUP2 GT ISZERO PUSH2 0x627 JUMPI PUSH2 0x627 PUSH2 0x9C1 JUMP JUMPDEST SUB PUSH2 0x65E JUMPI PUSH1 0x40 MLOAD PUSH32 0xF645EEDF00000000000000000000000000000000000000000000000000000000 DUP2 MSTORE PUSH1 0x4 ADD PUSH1 0x40 MLOAD DUP1 SWAP2 SUB SWAP1 REVERT JUMPDEST PUSH1 0x2 DUP3 PUSH1 0x3 DUP2 GT ISZERO PUSH2 0x672 JUMPI PUSH2 0x672 PUSH2 0x9C1 JUMP JUMPDEST SUB PUSH2 0x6AC JUMPI PUSH1 0x40 MLOAD PUSH32 0xFCE698F700000000000000000000000000000000000000000000000000000000 DUP2 MSTORE PUSH1 0x4 DUP2 ADD DUP3 SWAP1 MSTORE PUSH1 0x24 ADD PUSH2 0x452 JUMP JUMPDEST PUSH1 0x3 DUP3 PUSH1 0x3 DUP2 GT ISZERO PUSH2 0x6C0 JUMPI PUSH2 0x6C0 PUSH2 0x9C1 JUMP JUMPDEST SUB PUSH2 0x535 JUMPI PUSH1 0x40 MLOAD PUSH32 0xD78BCE0C00000000000000000000000000000000000000000000000000000000 DUP2 MSTORE PUSH1 0x4 DUP2 ADD DUP3 SWAP1 MSTORE PUSH1 0x24 ADD PUSH2 0x452 JUMP JUMPDEST PUSH0 DUP1 DUP1 PUSH32 0x7FFFFFFFFFFFFFFFFFFFFFFFFFFFFFFF5D576E7357A4501DDFE92F46681B20A0 DUP5 GT ISZERO PUSH2 0x733 JUMPI POP PUSH0 SWAP2 POP PUSH1 0x3 SWAP1 POP DUP3 PUSH2 0x7B8 JUMP JUMPDEST PUSH1 0x40 DUP1 MLOAD PUSH0 DUP1 DUP3 MSTORE PUSH1 0x20 DUP3 ADD DUP1 DUP5 MSTORE DUP11 SWAP1 MSTORE PUSH1 0xFF DUP10 AND SWAP3 DUP3 ADD SWAP3 SWAP1 SWAP3 MSTORE PUSH1 0x60 DUP2 ADD DUP8 SWAP1 MSTORE PUSH1 0x80 DUP2 ADD DUP7 SWAP1 MSTORE PUSH1 0x1 SWAP1 PUSH1 0xA0 ADD PUSH1 0x20 PUSH1 0x40 MLOAD PUSH1 0x20 DUP2 SUB SWAP1 DUP1 DUP5 SUB SWAP1 DUP6 GAS STATICCALL ISZERO DUP1 ISZERO PUSH2 0x784 JUMPI RETURNDATASIZE PUSH0 DUP1 RETURNDATACOPY RETURNDATASIZE PUSH0 REVERT JUMPDEST POP POP PUSH1 0x40 MLOAD PUSH1 0x1F NOT ADD MLOAD SWAP2 POP POP PUSH1 0x1 PUSH1 0x1 PUSH1 0xA0 SHL SUB DUP2 AND PUSH2 0x7AF JUMPI POP PUSH0 SWAP3 POP PUSH1 0x1 SWAP2 POP DUP3 SWAP1 POP PUSH2 0x7B8 JUMP JUMPDEST SWAP3 POP PUSH0 SWAP2 POP DUP2 SWAP1 POP JUMPDEST SWAP5 POP SWAP5 POP SWAP5 SWAP2 POP POP JUMP JUMPDEST PUSH0 PUSH1 0x20 DUP3 DUP5 SUB SLT ISZERO PUSH2 0x7D2 JUMPI PUSH0 DUP1 REVERT JUMPDEST POP CALLDATALOAD SWAP2 SWAP1 POP JUMP JUMPDEST DUP1 PUSH1 0x40 DUP2 ADD DUP4 LT ISZERO PUSH2 0x5A8 JUMPI PUSH0 DUP1 REVERT JUMPDEST PUSH0 DUP1 DUP4 PUSH1 0x1F DUP5 ADD SLT PUSH2 0x7F9 JUMPI PUSH0 DUP1 REVERT JUMPDEST POP DUP2 CALLDATALOAD PUSH8 0xFFFFFFFFFFFFFFFF DUP2 GT ISZERO PUSH2 0x810 JUMPI PUSH0 DUP1 REVERT JUMPDEST PUSH1 0x20 DUP4 ADD SWAP2 POP DUP4 PUSH1 0x20 DUP3 DUP6 ADD ADD GT ISZERO PUSH2 0x827 JUMPI PUSH0 DUP1 REVERT JUMPDEST SWAP3 POP SWAP3 SWAP1 POP JUMP JUMPDEST PUSH0 DUP1 PUSH0 DUP1 PUSH0 PUSH1 0xC0 DUP7 DUP9 SUB SLT ISZERO PUSH2 0x842 JUMPI PUSH0 DUP1 REVERT JUMPDEST PUSH2 0x84C DUP8 DUP8 PUSH2 0x7D9 JUMP JUMPDEST SWAP5 POP PUSH2 0x85B DUP8 PUSH1 0x40 DUP9 ADD PUSH2 0x7D9 JUMP JUMPDEST SWAP4 POP PUSH1 0x80 DUP7 ADD CALLDATALOAD SWAP3 POP PUSH1 0xA0 DUP7 ADD CALLDATALOAD PUSH8 0xFFFFFFFFFFFFFFFF DUP2 GT ISZERO PUSH2 0x87D JUMPI PUSH0 DUP1 REVERT JUMPDEST PUSH2 0x889 DUP9 DUP3 DUP10 ADD PUSH2 0x7E9 JUMP JUMPDEST SWAP7 SWAP10 SWAP6 SWAP9 POP SWAP4 SWAP7 POP SWAP3 SWAP5 SWAP4 SWAP3 POP POP POP JUMP JUMPDEST DUP1 CALLDATALOAD PUSH1 0x1 PUSH1 0x1 PUSH1 0xA0 SHL SUB DUP2 AND DUP2 EQ PUSH2 0x8B0 JUMPI PUSH0 DUP1 REVERT JUMPDEST SWAP2 SWAP1 POP JUMP JUMPDEST PUSH0 DUP1 PUSH0 DUP1 PUSH0 PUSH1 0xA0 DUP7 DUP9 SUB SLT ISZERO PUSH2 0x8C9 JUMPI PUSH0 DUP1 REVERT JUMPDEST DUP6 CALLDATALOAD SWAP5 POP PUSH2 0x8D9 PUSH1 0x20 DUP8 ADD PUSH2 0x89A JUMP JUMPDEST SWAP4 POP PUSH1 0x40 DUP7 ADD CALLDATALOAD SWAP3 POP PUSH2 0x8EE PUSH1 0x60 DUP8 ADD PUSH2 0x89A JUMP JUMPDEST SWAP5 SWAP8 SWAP4 SWAP7 POP SWAP2 SWAP5 PUSH1 0x80 ADD CALLDATALOAD SWAP3 SWAP2 POP POP JUMP JUMPDEST PUSH0 DUP1 PUSH0 PUSH1 0x40 DUP5 DUP7 SUB SLT ISZERO PUSH2 0x911 JUMPI PUSH0 DUP1 REVERT JUMPDEST DUP4 CALLDATALOAD SWAP3 POP PUSH1 0x20 DUP5 ADD CALLDATALOAD PUSH8 0xFFFFFFFFFFFFFFFF DUP2 GT ISZERO PUSH2 0x92E JUMPI PUSH0 DUP1 REVERT JUMPDEST PUSH2 0x93A DUP7 DUP3 DUP8 ADD PUSH2 0x7E9 JUMP JUMPDEST SWAP5 SWAP8 SWAP1 SWAP7 POP SWAP4 SWAP5 POP POP POP POP JUMP JUMPDEST PUSH4 0x4E487B71 PUSH1 0xE0 SHL PUSH0 MSTORE PUSH1 0x32 PUSH1 0x4 MSTORE PUSH1 0x24 PUSH0 REVERT JUMPDEST PUSH0 PUSH1 0x20 DUP3 DUP5 SUB SLT ISZERO PUSH2 0x96B JUMPI PUSH0 DUP1 REVERT JUMPDEST PUSH2 0x974 DUP3 PUSH2 0x89A JUMP JUMPDEST SWAP4 SWAP3 POP POP POP JUMP JUMPDEST PUSH1 0x60 DUP2 MSTORE DUP4 PUSH1 0x60 DUP3 ADD MSTORE DUP4 DUP6 PUSH1 0x80 DUP4 ADD CALLDATACOPY PUSH0 PUSH1 0x80 DUP6 DUP4 ADD DUP2 ADD SWAP2 SWAP1 SWAP2 MSTORE PUSH1 0x1 PUSH1 0x1 PUSH1 0xA0 SHL SUB SWAP4 DUP5 AND PUSH1 0x20 DUP4 ADD MSTORE SWAP2 SWAP1 SWAP3 AND PUSH1 0x40 DUP4 ADD MSTORE PUSH1 0x1F SWAP1 SWAP3 ADD PUSH1 0x1F NOT AND ADD ADD SWAP2 SWAP1 POP JUMP JUMPDEST PUSH4 0x4E487B71 PUSH1 0xE0 SHL PUSH0 MSTORE PUSH1 0x21 PUSH1 0x4 MSTORE PUSH1 0x24 PUSH0 REVERT INVALID LOG2 PUSH5 0x6970667358 0x22 SLT KECCAK256 SHL EXTCODEHASH SMOD EXTCODECOPY CHAINID SWAP9 0x4D DUP3 PUSH18 0x30F4DB05155C7CA901286E92571D1DF52D4F CREATE2 0x23 0x21 0xC2 0xD1 PUSH5 0x736F6C6343 STOP ADDMOD NOT STOP CALLER "
				},
				"gasEstimates": {
					"creation": {
						"codeDepositCost": "514200",
						"executionCost": "547",
						"totalCost": "514747"
					},
					"external": {
						"buy(uint256[2],address[2],bytes32,bytes)": "infinite",
						"cancelListing(bytes32,bytes)": "infinite",
						"cancelledListings(bytes32)": "2417",
						"getListingHash(uint256,address,uint256,address,bytes32)": "infinite"
					},
					"internal": {
						"_checkUncancelledListing(bytes32)": "infinite",
						"_checkValidAmountToPay(uint256,uint256)": "infinite",
						"_checkValidBuyer(address)": "infinite",
						"_checkValidListing(bytes32)": "infinite",
						"_checkValidSignature(address,bytes32,bytes calldata)": "infinite"
					}
				},
				"methodIdentifiers": {
					"buy(uint256[2],address[2],bytes32,bytes)": "147fa6a8",
					"cancelListing(bytes32,bytes)": "db98532a",
					"cancelledListings(bytes32)": "02a73507",
					"getListingHash(uint256,address,uint256,address,bytes32)": "dac17732"
				}
			},
			"storageLayout": {
				"storage": [
					{
						"astId": 29,
						"contract": "contracts/ContractW/ContractWV2.sol:ContractWV2",
						"label": "cancelledListings",
						"offset": 0,
						"slot": "0",
						"type": "t_mapping(t_bytes32,t_bool)"
					}
				],
				"types": {
					"t_bool": {
						"encoding": "inplace",
						"label": "bool",
						"numberOfBytes": "1"
					},
					"t_bytes32": {
						"encoding": "inplace",
						"label": "bytes32",
						"numberOfBytes": "32"
					},
					"t_mapping(t_bytes32,t_bool)": {
						"encoding": "mapping",
						"key": "t_bytes32",
						"label": "mapping(bytes32 => bool)",
						"numberOfBytes": "32",
						"value": "t_bool"
					}
				}
			},
			"userdoc": {
				"kind": "user",
				"methods": {},
				"version": 1
			}
		}
	}
}