{
	"contracts/ContractW/ContractWV1.sol": {
		"ContractWV1": {
			"abi": [
				{
					"inputs": [
						{
							"internalType": "address payable",
							"name": "_participantA",
							"type": "address"
						},
						{
							"internalType": "address payable",
							"name": "_participantB",
							"type": "address"
						}
					],
					"stateMutability": "nonpayable",
					"type": "constructor"
				},
				{
					"inputs": [],
					"name": "ECDSAInvalidSignature",
					"type": "error"
				},
				{
					"inputs": [
						{
							"internalType": "uint256",
							"name": "length",
							"type": "uint256"
						}
					],
					"name": "ECDSAInvalidSignatureLength",
					"type": "error"
				},
				{
					"inputs": [
						{
							"internalType": "bytes32",
							"name": "s",
							"type": "bytes32"
						}
					],
					"name": "ECDSAInvalidSignatureS",
					"type": "error"
				},
				{
					"inputs": [],
					"name": "InsufficientBalance",
					"type": "error"
				},
				{
					"inputs": [
						{
							"internalType": "bytes",
							"name": "signature",
							"type": "bytes"
						},
						{
							"internalType": "address",
							"name": "recoveredAddress",
							"type": "address"
						},
						{
							"internalType": "address",
							"name": "expectedAddress",
							"type": "address"
						}
					],
					"name": "InvalidSignature",
					"type": "error"
				},
				{
					"inputs": [
						{
							"internalType": "address",
							"name": "addr",
							"type": "address"
						}
					],
					"name": "NotParticipant",
					"type": "error"
				},
				{
					"inputs": [],
					"name": "deposit",
					"outputs": [],
					"stateMutability": "payable",
					"type": "function"
				},
				{
					"inputs": [
						{
							"internalType": "address",
							"name": "participant",
							"type": "address"
						}
					],
					"name": "getBalance",
					"outputs": [
						{
							"internalType": "uint256",
							"name": "",
							"type": "uint256"
						}
					],
					"stateMutability": "view",
					"type": "function"
				},
				{
					"inputs": [
						{
							"internalType": "address",
							"name": "participant",
							"type": "address"
						},
						{
							"internalType": "uint256",
							"name": "amount",
							"type": "uint256"
						},
						{
							"internalType": "bytes32",
							"name": "salt",
							"type": "bytes32"
						}
					],
					"name": "getTransactionHash",
					"outputs": [
						{
							"internalType": "bytes32",
							"name": "",
							"type": "bytes32"
						}
					],
					"stateMutability": "pure",
					"type": "function"
				},
				{
					"inputs": [],
					"name": "participantA",
					"outputs": [
						{
							"internalType": "address payable",
							"name": "",
							"type": "address"
						}
					],
					"stateMutability": "view",
					"type": "function"
				},
				{
					"inputs": [],
					"name": "participantB",
					"outputs": [
						{
							"internalType": "address payable",
							"name": "",
							"type": "address"
						}
					],
					"stateMutability": "view",
					"type": "function"
				},
				{
					"inputs": [
						{
							"internalType": "uint256[2]",
							"name": "amounts",
							"type": "uint256[2]"
						},
						{
							"internalType": "bytes32[2]",
							"name": "salts",
							"type": "bytes32[2]"
						},
						{
							"internalType": "bytes[2]",
							"name": "signatures",
							"type": "bytes[2]"
						}
					],
					"name": "settleChannel",
					"outputs": [],
					"stateMutability": "nonpayable",
					"type": "function"
				}
			],
			"devdoc": {
				"errors": {
					"ECDSAInvalidSignature()": [
						{
							"details": "The signature derives the `address(0)`."
						}
					],
					"ECDSAInvalidSignatureLength(uint256)": [
						{
							"details": "The signature has an invalid length."
						}
					],
					"ECDSAInvalidSignatureS(bytes32)": [
						{
							"details": "The signature has an S value that is in the upper half order."
						}
					]
				},
				"kind": "dev",
				"methods": {},
				"version": 1
			},
			"evm": {
				"assembly": "    /* \"contracts/ContractW/ContractWV1.sol\":362:3668  contract ContractWV1 {... */\n  mstore(0x40, 0x80)\n    /* \"contracts/ContractW/ContractWV1.sol\":603:763  constructor(address payable _participantA, address payable _participantB) {... */\n  callvalue\n  dup1\n  iszero\n  tag_1\n  jumpi\n  0x00\n  dup1\n  revert\ntag_1:\n  pop\n  mload(0x40)\n  sub(codesize, bytecodeSize)\n  dup1\n  bytecodeSize\n  dup4\n  codecopy\n  dup2\n  add\n  0x40\n  dup2\n  swap1\n  mstore\n  tag_2\n  swap2\n  tag_3\n  jump\t// in\ntag_2:\n    /* \"contracts/ContractW/ContractWV1.sol\":688:700  participantA */\n  0x00\n    /* \"contracts/ContractW/ContractWV1.sol\":688:716  participantA = _participantA */\n  dup1\n  sload\n  sub(shl(0xa0, 0x01), 0x01)\n  swap4\n  dup5\n  and\n  not(sub(shl(0xa0, 0x01), 0x01))\n  swap2\n  dup3\n  and\n  or\n  swap1\n  swap2\n  sstore\n  0x01\n    /* \"contracts/ContractW/ContractWV1.sol\":727:755  participantB = _participantB */\n  dup1\n  sload\n  swap3\n  swap1\n  swap4\n  and\n  swap2\n  and\n  or\n  swap1\n  sstore\n    /* \"contracts/ContractW/ContractWV1.sol\":362:3668  contract ContractWV1 {... */\n  jump(tag_8)\n    /* \"#utility.yul\":14:199   */\ntag_7:\n    /* \"#utility.yul\":101:114   */\n  dup1\n  mload\n  sub(shl(0xa0, 0x01), 0x01)\n    /* \"#utility.yul\":143:174   */\n  dup2\n  and\n    /* \"#utility.yul\":133:175   */\n  dup2\n  eq\n    /* \"#utility.yul\":123:193   */\n  tag_10\n  jumpi\n    /* \"#utility.yul\":189:190   */\n  0x00\n    /* \"#utility.yul\":186:187   */\n  dup1\n    /* \"#utility.yul\":179:191   */\n  revert\n    /* \"#utility.yul\":123:193   */\ntag_10:\n    /* \"#utility.yul\":14:199   */\n  swap2\n  swap1\n  pop\n  jump\t// out\n    /* \"#utility.yul\":204:529   */\ntag_3:\n    /* \"#utility.yul\":299:305   */\n  0x00\n    /* \"#utility.yul\":307:313   */\n  dup1\n    /* \"#utility.yul\":360:362   */\n  0x40\n    /* \"#utility.yul\":348:357   */\n  dup4\n    /* \"#utility.yul\":339:346   */\n  dup6\n    /* \"#utility.yul\":335:358   */\n  sub\n    /* \"#utility.yul\":331:363   */\n  slt\n    /* \"#utility.yul\":328:380   */\n  iszero\n  tag_12\n  jumpi\n    /* \"#utility.yul\":376:377   */\n  0x00\n    /* \"#utility.yul\":373:374   */\n  dup1\n    /* \"#utility.yul\":366:378   */\n  revert\n    /* \"#utility.yul\":328:380   */\ntag_12:\n    /* \"#utility.yul\":399:447   */\n  tag_13\n    /* \"#utility.yul\":437:446   */\n  dup4\n    /* \"#utility.yul\":399:447   */\n  tag_7\n  jump\t// in\ntag_13:\n    /* \"#utility.yul\":389:447   */\n  swap2\n  pop\n    /* \"#utility.yul\":466:523   */\n  tag_14\n    /* \"#utility.yul\":519:521   */\n  0x20\n    /* \"#utility.yul\":508:517   */\n  dup5\n    /* \"#utility.yul\":504:522   */\n  add\n    /* \"#utility.yul\":466:523   */\n  tag_7\n  jump\t// in\ntag_14:\n    /* \"#utility.yul\":456:523   */\n  swap1\n  pop\n    /* \"#utility.yul\":204:529   */\n  swap3\n  pop\n  swap3\n  swap1\n  pop\n  jump\t// out\ntag_8:\n    /* \"contracts/ContractW/ContractWV1.sol\":362:3668  contract ContractWV1 {... */\n  dataSize(sub_0)\n  dup1\n  dataOffset(sub_0)\n  0x00\n  codecopy\n  0x00\n  return\nstop\n\nsub_0: assembly {\n        /* \"contracts/ContractW/ContractWV1.sol\":362:3668  contract ContractWV1 {... */\n      mstore(0x40, 0x80)\n      jumpi(tag_1, lt(calldatasize, 0x04))\n      shr(0xe0, calldataload(0x00))\n      dup1\n      0xf34eef64\n      gt\n      tag_8\n      jumpi\n      dup1\n      0xf34eef64\n      eq\n      tag_5\n      jumpi\n      dup1\n      0xf8b2cb4f\n      eq\n      tag_6\n      jumpi\n      dup1\n      0xff925fe5\n      eq\n      tag_7\n      jumpi\n      0x00\n      dup1\n      revert\n    tag_8:\n      dup1\n      0xac21b6f4\n      eq\n      tag_2\n      jumpi\n      dup1\n      0xd0e30db0\n      eq\n      tag_3\n      jumpi\n      dup1\n      0xe95c38e2\n      eq\n      tag_4\n      jumpi\n    tag_1:\n      0x00\n      dup1\n      revert\n        /* \"contracts/ContractW/ContractWV1.sol\":463:498  address payable public participantA */\n    tag_2:\n      callvalue\n      dup1\n      iszero\n      tag_9\n      jumpi\n      0x00\n      dup1\n      revert\n    tag_9:\n      pop\n      sload(0x00)\n      tag_10\n      swap1\n      sub(shl(0xa0, 0x01), 0x01)\n      and\n      dup2\n      jump\n    tag_10:\n      mload(0x40)\n      sub(shl(0xa0, 0x01), 0x01)\n        /* \"#utility.yul\":194:249   */\n      swap1\n      swap2\n      and\n        /* \"#utility.yul\":176:250   */\n      dup2\n      mstore\n        /* \"#utility.yul\":164:166   */\n      0x20\n        /* \"#utility.yul\":149:167   */\n      add\n        /* \"contracts/ContractW/ContractWV1.sol\":463:498  address payable public participantA */\n    tag_12:\n      mload(0x40)\n      dup1\n      swap2\n      sub\n      swap1\n      return\n        /* \"contracts/ContractW/ContractWV1.sol\":949:1077  function deposit() external payable {... */\n    tag_3:\n      tag_14\n      tag_15\n      jump\t// in\n    tag_14:\n      stop\n        /* \"contracts/ContractW/ContractWV1.sol\":2073:2386  function getTransactionHash(... */\n    tag_4:\n      callvalue\n      dup1\n      iszero\n      tag_16\n      jumpi\n      0x00\n      dup1\n      revert\n    tag_16:\n      pop\n      tag_17\n      tag_18\n      calldatasize\n      0x04\n      tag_19\n      jump\t// in\n    tag_18:\n        /* \"contracts/ContractW/ContractWV1.sol\":2258:2367  abi.encodePacked(... */\n      mload(0x40)\n      not(0xffffffffffffffffffffffff)\n        /* \"#utility.yul\":2614:2616   */\n      0x60\n        /* \"#utility.yul\":2610:2625   */\n      dup6\n      swap1\n      shl\n        /* \"#utility.yul\":2606:2659   */\n      and\n        /* \"contracts/ContractW/ContractWV1.sol\":2258:2367  abi.encodePacked(... */\n      0x20\n      dup3\n      add\n        /* \"#utility.yul\":2594:2660   */\n      mstore\n        /* \"#utility.yul\":2676:2688   */\n      0x34\n      dup2\n      add\n        /* \"#utility.yul\":2669:2697   */\n      dup4\n      swap1\n      mstore\n        /* \"#utility.yul\":2713:2725   */\n      0x54\n      dup2\n      add\n        /* \"#utility.yul\":2706:2734   */\n      dup3\n      swap1\n      mstore\n        /* \"contracts/ContractW/ContractWV1.sol\":2207:2214  bytes32 */\n      0x00\n      swap1\n        /* \"#utility.yul\":2750:2762   */\n      0x74\n      add\n        /* \"contracts/ContractW/ContractWV1.sol\":2258:2367  abi.encodePacked(... */\n      mload(0x40)\n      0x20\n      dup2\n      dup4\n      sub\n      sub\n      dup2\n      mstore\n      swap1\n      0x40\n      mstore\n        /* \"contracts/ContractW/ContractWV1.sol\":2234:2378  keccak256(... */\n      dup1\n      mload\n      swap1\n      0x20\n      add\n      keccak256\n        /* \"contracts/ContractW/ContractWV1.sol\":2227:2378  return keccak256(... */\n      swap1\n      pop\n        /* \"contracts/ContractW/ContractWV1.sol\":2073:2386  function getTransactionHash(... */\n      swap4\n      swap3\n      pop\n      pop\n      pop\n      jump\n    tag_17:\n      mload(0x40)\n        /* \"#utility.yul\":935:960   */\n      swap1\n      dup2\n      mstore\n        /* \"#utility.yul\":923:925   */\n      0x20\n        /* \"#utility.yul\":908:926   */\n      add\n        /* \"contracts/ContractW/ContractWV1.sol\":2073:2386  function getTransactionHash(... */\n      tag_12\n        /* \"#utility.yul\":789:966   */\n      jump\n        /* \"contracts/ContractW/ContractWV1.sol\":1211:2065  function settleChannel(... */\n    tag_5:\n      callvalue\n      dup1\n      iszero\n      tag_23\n      jumpi\n      0x00\n      dup1\n      revert\n    tag_23:\n      pop\n      tag_14\n      tag_25\n      calldatasize\n      0x04\n      tag_26\n      jump\t// in\n    tag_25:\n      tag_27\n      jump\t// in\n        /* \"contracts/ContractW/ContractWV1.sol\":1085:1203  function getBalance(address participant) public view returns (uint256) {... */\n    tag_6:\n      callvalue\n      dup1\n      iszero\n      tag_28\n      jumpi\n      0x00\n      dup1\n      revert\n    tag_28:\n      pop\n      tag_17\n      tag_30\n      calldatasize\n      0x04\n      tag_31\n      jump\t// in\n    tag_30:\n      sub(shl(0xa0, 0x01), 0x01)\n        /* \"contracts/ContractW/ContractWV1.sol\":1174:1195  balances[participant] */\n      and\n        /* \"contracts/ContractW/ContractWV1.sol\":1147:1154  uint256 */\n      0x00\n        /* \"contracts/ContractW/ContractWV1.sol\":1174:1195  balances[participant] */\n      swap1\n      dup2\n      mstore\n        /* \"contracts/ContractW/ContractWV1.sol\":1174:1182  balances */\n      0x02\n        /* \"contracts/ContractW/ContractWV1.sol\":1174:1195  balances[participant] */\n      0x20\n      mstore\n      0x40\n      swap1\n      keccak256\n      sload\n      swap1\n        /* \"contracts/ContractW/ContractWV1.sol\":1085:1203  function getBalance(address participant) public view returns (uint256) {... */\n      jump\n        /* \"contracts/ContractW/ContractWV1.sol\":505:540  address payable public participantB */\n    tag_7:\n      callvalue\n      dup1\n      iszero\n      tag_35\n      jumpi\n      0x00\n      dup1\n      revert\n    tag_35:\n      pop\n      sload(0x01)\n      tag_10\n      swap1\n      sub(shl(0xa0, 0x01), 0x01)\n      and\n      dup2\n      jump\n        /* \"contracts/ContractW/ContractWV1.sol\":949:1077  function deposit() external payable {... */\n    tag_15:\n        /* \"contracts/ContractW/ContractWV1.sol\":996:1025  _checkParticipant(msg.sender) */\n      tag_40\n        /* \"contracts/ContractW/ContractWV1.sol\":1014:1024  msg.sender */\n      caller\n        /* \"contracts/ContractW/ContractWV1.sol\":996:1013  _checkParticipant */\n      tag_41\n        /* \"contracts/ContractW/ContractWV1.sol\":996:1025  _checkParticipant(msg.sender) */\n      jump\t// in\n    tag_40:\n        /* \"contracts/ContractW/ContractWV1.sol\":1045:1055  msg.sender */\n      caller\n        /* \"contracts/ContractW/ContractWV1.sol\":1036:1056  balances[msg.sender] */\n      0x00\n      swap1\n      dup2\n      mstore\n        /* \"contracts/ContractW/ContractWV1.sol\":1036:1044  balances */\n      0x02\n        /* \"contracts/ContractW/ContractWV1.sol\":1036:1056  balances[msg.sender] */\n      0x20\n      mstore\n      0x40\n      dup2\n      keccak256\n        /* \"contracts/ContractW/ContractWV1.sol\":1036:1069  balances[msg.sender] += msg.value */\n      dup1\n      sload\n        /* \"contracts/ContractW/ContractWV1.sol\":1060:1069  msg.value */\n      callvalue\n      swap3\n        /* \"contracts/ContractW/ContractWV1.sol\":1036:1056  balances[msg.sender] */\n      swap1\n        /* \"contracts/ContractW/ContractWV1.sol\":1036:1069  balances[msg.sender] += msg.value */\n      tag_42\n      swap1\n        /* \"contracts/ContractW/ContractWV1.sol\":1060:1069  msg.value */\n      dup5\n      swap1\n        /* \"contracts/ContractW/ContractWV1.sol\":1036:1069  balances[msg.sender] += msg.value */\n      tag_43\n      jump\t// in\n    tag_42:\n      swap1\n      swap2\n      sstore\n      pop\n      pop\n        /* \"contracts/ContractW/ContractWV1.sol\":949:1077  function deposit() external payable {... */\n      jump\t// out\n        /* \"contracts/ContractW/ContractWV1.sol\":1211:2065  function settleChannel(... */\n    tag_27:\n        /* \"contracts/ContractW/ContractWV1.sol\":1516:1559  _checkEnoughBalance(amounts[0], amounts[1]) */\n      tag_48\n        /* \"contracts/ContractW/ContractWV1.sol\":1536:1546  amounts[0] */\n      dup4\n      calldataload\n      0x20\n        /* \"contracts/ContractW/ContractWV1.sol\":1548:1558  amounts[1] */\n      dup6\n      add\n      calldataload\n        /* \"contracts/ContractW/ContractWV1.sol\":1516:1535  _checkEnoughBalance */\n      tag_54\n        /* \"contracts/ContractW/ContractWV1.sol\":1516:1559  _checkEnoughBalance(amounts[0], amounts[1]) */\n      jump\t// in\n    tag_48:\n        /* \"contracts/ContractW/ContractWV1.sol\":1570:1605  _verify(amounts, salts, signatures) */\n      tag_55\n        /* \"contracts/ContractW/ContractWV1.sol\":1578:1585  amounts */\n      dup4\n        /* \"contracts/ContractW/ContractWV1.sol\":1587:1592  salts */\n      dup4\n        /* \"contracts/ContractW/ContractWV1.sol\":1594:1604  signatures */\n      dup4\n        /* \"contracts/ContractW/ContractWV1.sol\":1570:1577  _verify */\n      tag_56\n        /* \"contracts/ContractW/ContractWV1.sol\":1570:1605  _verify(amounts, salts, signatures) */\n      jump\t// in\n    tag_55:\n        /* \"contracts/ContractW/ContractWV1.sol\":1903:1904  0 */\n      0x00\n        /* \"contracts/ContractW/ContractWV1.sol\":1878:1890  participantA */\n      dup1\n      sload\n      sub(shl(0xa0, 0x01), 0x01)\n      swap1\n      dup2\n      and\n        /* \"contracts/ContractW/ContractWV1.sol\":1869:1891  balances[participantA] */\n      dup3\n      mstore\n        /* \"contracts/ContractW/ContractWV1.sol\":1869:1877  balances */\n      0x02\n        /* \"contracts/ContractW/ContractWV1.sol\":1895:1905  amounts[0] */\n      0x20\n        /* \"contracts/ContractW/ContractWV1.sol\":1869:1891  balances[participantA] */\n      swap1\n      dup2\n      mstore\n      0x40\n      dup1\n      dup5\n      keccak256\n        /* \"contracts/ContractW/ContractWV1.sol\":1869:1905  balances[participantA] -= amounts[0] */\n      dup1\n      sload\n        /* \"contracts/ContractW/ContractWV1.sol\":1895:1905  amounts[0] */\n      dup9\n      calldataload\n        /* \"contracts/ContractW/ContractWV1.sol\":1869:1905  balances[participantA] -= amounts[0] */\n      swap1\n      dup2\n      swap1\n      sub\n      swap1\n      swap2\n      sstore\n      0x01\n        /* \"contracts/ContractW/ContractWV1.sol\":1929:1941  participantB */\n      sload\n      dup5\n      and\n        /* \"contracts/ContractW/ContractWV1.sol\":1920:1942  balances[participantB] */\n      dup6\n      mstore\n      dup2\n      dup6\n      keccak256\n        /* \"contracts/ContractW/ContractWV1.sol\":1920:1956  balances[participantB] -= amounts[1] */\n      dup1\n      sload\n        /* \"contracts/ContractW/ContractWV1.sol\":1946:1956  amounts[1] */\n      swap4\n      dup10\n      add\n      calldataload\n        /* \"contracts/ContractW/ContractWV1.sol\":1920:1956  balances[participantB] -= amounts[1] */\n      swap1\n      swap4\n      sub\n      swap1\n      swap3\n      sstore\n        /* \"contracts/ContractW/ContractWV1.sol\":1980:1992  participantA */\n      dup4\n      sload\n        /* \"contracts/ContractW/ContractWV1.sol\":1980:2013  participantA.transfer(amounts[0]) */\n      swap1\n      mload\n        /* \"contracts/ContractW/ContractWV1.sol\":1980:1992  participantA */\n      swap3\n      and\n      swap3\n        /* \"contracts/ContractW/ContractWV1.sol\":1980:2013  participantA.transfer(amounts[0]) */\n      dup2\n      iszero\n      0x08fc\n      mul\n      swap3\n      swap1\n      dup2\n        /* \"contracts/ContractW/ContractWV1.sol\":1903:1904  0 */\n      dup2\n        /* \"contracts/ContractW/ContractWV1.sol\":1980:2013  participantA.transfer(amounts[0]) */\n      dup2\n        /* \"contracts/ContractW/ContractWV1.sol\":1895:1905  amounts[0] */\n      dup6\n        /* \"contracts/ContractW/ContractWV1.sol\":1980:1992  participantA */\n      dup9\n        /* \"contracts/ContractW/ContractWV1.sol\":1980:2013  participantA.transfer(amounts[0]) */\n      dup9\n      call\n      swap4\n      pop\n      pop\n      pop\n      pop\n      iszero\n      dup1\n      iszero\n      tag_64\n      jumpi\n      returndatasize\n      0x00\n      dup1\n      returndatacopy\n      revert(0x00, returndatasize)\n    tag_64:\n      pop\n        /* \"contracts/ContractW/ContractWV1.sol\":2024:2036  participantB */\n      sload(0x01)\n        /* \"contracts/ContractW/ContractWV1.sol\":2024:2057  participantB.transfer(amounts[1]) */\n      mload(0x40)\n      sub(shl(0xa0, 0x01), 0x01)\n        /* \"contracts/ContractW/ContractWV1.sol\":2024:2036  participantB */\n      swap1\n      swap2\n      and\n      swap1\n        /* \"contracts/ContractW/ContractWV1.sol\":2046:2056  amounts[1] */\n      0x20\n      dup6\n      add\n      calldataload\n        /* \"contracts/ContractW/ContractWV1.sol\":2024:2057  participantB.transfer(amounts[1]) */\n      dup1\n      iszero\n      0x08fc\n      mul\n      swap2\n      0x00\n      dup2\n      dup2\n      dup2\n        /* \"contracts/ContractW/ContractWV1.sol\":2046:2056  amounts[1] */\n      dup6\n        /* \"contracts/ContractW/ContractWV1.sol\":2024:2036  participantB */\n      dup9\n        /* \"contracts/ContractW/ContractWV1.sol\":2024:2057  participantB.transfer(amounts[1]) */\n      dup9\n      call\n      swap4\n      pop\n      pop\n      pop\n      pop\n      iszero\n      dup1\n      iszero\n      tag_68\n      jumpi\n      returndatasize\n      0x00\n      dup1\n      returndatacopy\n      revert(0x00, returndatasize)\n    tag_68:\n      pop\n        /* \"contracts/ContractW/ContractWV1.sol\":1211:2065  function settleChannel(... */\n      pop\n      pop\n      pop\n      jump\t// out\n        /* \"contracts/ContractW/ContractWV1.sol\":3310:3460  function _checkParticipant(address addr) private view {... */\n    tag_41:\n        /* \"contracts/ContractW/ContractWV1.sol\":3387:3399  participantA */\n      sload(0x00)\n      sub(shl(0xa0, 0x01), 0x01)\n        /* \"contracts/ContractW/ContractWV1.sol\":3379:3399  addr != participantA */\n      dup3\n      dup2\n      and\n        /* \"contracts/ContractW/ContractWV1.sol\":3387:3399  participantA */\n      swap2\n      and\n        /* \"contracts/ContractW/ContractWV1.sol\":3379:3399  addr != participantA */\n      eq\n      dup1\n      iszero\n      swap1\n        /* \"contracts/ContractW/ContractWV1.sol\":3379:3423  addr != participantA && addr != participantB */\n      tag_71\n      jumpi\n      pop\n        /* \"contracts/ContractW/ContractWV1.sol\":3411:3423  participantB */\n      sload(0x01)\n      sub(shl(0xa0, 0x01), 0x01)\n        /* \"contracts/ContractW/ContractWV1.sol\":3403:3423  addr != participantB */\n      dup3\n      dup2\n      and\n        /* \"contracts/ContractW/ContractWV1.sol\":3411:3423  participantB */\n      swap2\n      and\n        /* \"contracts/ContractW/ContractWV1.sol\":3403:3423  addr != participantB */\n      eq\n      iszero\n        /* \"contracts/ContractW/ContractWV1.sol\":3379:3423  addr != participantA && addr != participantB */\n    tag_71:\n        /* \"contracts/ContractW/ContractWV1.sol\":3375:3452  if (addr != participantA && addr != participantB) revert NotParticipant(addr) */\n      iszero\n      tag_72\n      jumpi\n        /* \"contracts/ContractW/ContractWV1.sol\":3432:3452  NotParticipant(addr) */\n      mload(0x40)\n      0x7e65d0e500000000000000000000000000000000000000000000000000000000\n      dup2\n      mstore\n      sub(shl(0xa0, 0x01), 0x01)\n        /* \"#utility.yul\":194:249   */\n      dup3\n      and\n        /* \"contracts/ContractW/ContractWV1.sol\":3432:3452  NotParticipant(addr) */\n      0x04\n      dup3\n      add\n        /* \"#utility.yul\":176:250   */\n      mstore\n        /* \"#utility.yul\":149:167   */\n      0x24\n      add\n        /* \"contracts/ContractW/ContractWV1.sol\":3432:3452  NotParticipant(addr) */\n    tag_73:\n      mload(0x40)\n      dup1\n      swap2\n      sub\n      swap1\n      revert\n        /* \"contracts/ContractW/ContractWV1.sol\":3375:3452  if (addr != participantA && addr != participantB) revert NotParticipant(addr) */\n    tag_72:\n        /* \"contracts/ContractW/ContractWV1.sol\":3310:3460  function _checkParticipant(address addr) private view {... */\n      pop\n      jump\t// out\n        /* \"contracts/ContractW/ContractWV1.sol\":3469:3665  function _checkEnoughBalance(uint256 amountA, uint256 amountB) private view {... */\n    tag_54:\n        /* \"contracts/ContractW/ContractWV1.sol\":3614:3626  participantB */\n      sload(0x01)\n      sub(shl(0xa0, 0x01), 0x01)\n      swap1\n      dup2\n      and\n        /* \"contracts/ContractW/ContractWV1.sol\":3605:3627  balances[participantB] */\n      0x00\n      swap1\n      dup2\n      mstore\n        /* \"contracts/ContractW/ContractWV1.sol\":3605:3613  balances */\n      0x02\n        /* \"contracts/ContractW/ContractWV1.sol\":3605:3627  balances[participantB] */\n      0x20\n      mstore\n      0x40\n      dup1\n      dup3\n      keccak256\n      sload\n        /* \"contracts/ContractW/ContractWV1.sol\":3589:3601  participantA */\n      dup3\n      sload\n      swap1\n      swap4\n      and\n        /* \"contracts/ContractW/ContractWV1.sol\":3580:3602  balances[participantA] */\n      dup3\n      mstore\n      swap1\n      keccak256\n      sload\n        /* \"contracts/ContractW/ContractWV1.sol\":3580:3627  balances[participantA] + balances[participantB] */\n      tag_76\n      swap2\n        /* \"contracts/ContractW/ContractWV1.sol\":3605:3627  balances[participantB] */\n      swap1\n        /* \"contracts/ContractW/ContractWV1.sol\":3580:3627  balances[participantA] + balances[participantB] */\n      tag_43\n      jump\t// in\n    tag_76:\n        /* \"contracts/ContractW/ContractWV1.sol\":3560:3577  amountA + amountB */\n      tag_77\n        /* \"contracts/ContractW/ContractWV1.sol\":3570:3577  amountB */\n      dup3\n        /* \"contracts/ContractW/ContractWV1.sol\":3560:3567  amountA */\n      dup5\n        /* \"contracts/ContractW/ContractWV1.sol\":3560:3577  amountA + amountB */\n      tag_43\n      jump\t// in\n    tag_77:\n        /* \"contracts/ContractW/ContractWV1.sol\":3560:3627  amountA + amountB > balances[participantA] + balances[participantB] */\n      gt\n        /* \"contracts/ContractW/ContractWV1.sol\":3556:3657  if (amountA + amountB > balances[participantA] + balances[participantB]) revert InsufficientBalance() */\n      iszero\n      tag_78\n      jumpi\n        /* \"contracts/ContractW/ContractWV1.sol\":3636:3657  InsufficientBalance() */\n      mload(0x40)\n      0xf4d678b800000000000000000000000000000000000000000000000000000000\n      dup2\n      mstore\n      0x04\n      add\n      mload(0x40)\n      dup1\n      swap2\n      sub\n      swap1\n      revert\n        /* \"contracts/ContractW/ContractWV1.sol\":3556:3657  if (amountA + amountB > balances[participantA] + balances[participantB]) revert InsufficientBalance() */\n    tag_78:\n        /* \"contracts/ContractW/ContractWV1.sol\":3469:3665  function _checkEnoughBalance(uint256 amountA, uint256 amountB) private view {... */\n      pop\n      pop\n      jump\t// out\n        /* \"contracts/ContractW/ContractWV1.sol\":2394:3302  function _verify(... */\n    tag_56:\n        /* \"contracts/ContractW/ContractWV1.sol\":2555:2580  address recoveredAddressA */\n      0x00\n        /* \"contracts/ContractW/ContractWV1.sol\":2696:2708  participantA */\n      dup1\n      sload\n        /* \"contracts/ContractW/ContractWV1.sol\":2583:2797  ECDSA.recover(... */\n      tag_80\n      swap1\n        /* \"contracts/ContractW/ContractWV1.sol\":2615:2750  MessageHashUtils.toEthSignedMessageHash(... */\n      tag_81\n      swap1\n        /* \"contracts/ContractW/ContractWV1.sol\":2677:2731  getTransactionHash(participantA, amounts[0], salts[0]) */\n      tag_82\n      swap1\n      sub(shl(0xa0, 0x01), 0x01)\n        /* \"contracts/ContractW/ContractWV1.sol\":2696:2708  participantA */\n      and\n        /* \"contracts/ContractW/ContractWV1.sol\":2710:2720  amounts[0] */\n      dup8\n      calldataload\n        /* \"contracts/ContractW/ContractWV1.sol\":2722:2727  salts */\n      dup8\n        /* \"contracts/ContractW/ContractWV1.sol\":2555:2580  address recoveredAddressA */\n      dup7\n        /* \"contracts/ContractW/ContractWV1.sol\":2722:2730  salts[0] */\n    tag_86:\n      0x20\n      mul\n      add\n      calldataload\n        /* \"contracts/ContractW/ContractWV1.sol\":2258:2367  abi.encodePacked(... */\n      mload(0x40)\n      not(0xffffffffffffffffffffffff)\n        /* \"#utility.yul\":2614:2616   */\n      0x60\n        /* \"#utility.yul\":2610:2625   */\n      dup6\n      swap1\n      shl\n        /* \"#utility.yul\":2606:2659   */\n      and\n        /* \"contracts/ContractW/ContractWV1.sol\":2258:2367  abi.encodePacked(... */\n      0x20\n      dup3\n      add\n        /* \"#utility.yul\":2594:2660   */\n      mstore\n        /* \"#utility.yul\":2676:2688   */\n      0x34\n      dup2\n      add\n        /* \"#utility.yul\":2669:2697   */\n      dup4\n      swap1\n      mstore\n        /* \"#utility.yul\":2713:2725   */\n      0x54\n      dup2\n      add\n        /* \"#utility.yul\":2706:2734   */\n      dup3\n      swap1\n      mstore\n        /* \"contracts/ContractW/ContractWV1.sol\":2207:2214  bytes32 */\n      0x00\n      swap1\n        /* \"#utility.yul\":2750:2762   */\n      0x74\n      add\n        /* \"contracts/ContractW/ContractWV1.sol\":2258:2367  abi.encodePacked(... */\n      mload(0x40)\n      0x20\n      dup2\n      dup4\n      sub\n      sub\n      dup2\n      mstore\n      swap1\n      0x40\n      mstore\n        /* \"contracts/ContractW/ContractWV1.sol\":2234:2378  keccak256(... */\n      dup1\n      mload\n      swap1\n      0x20\n      add\n      keccak256\n        /* \"contracts/ContractW/ContractWV1.sol\":2227:2378  return keccak256(... */\n      swap1\n      pop\n        /* \"contracts/ContractW/ContractWV1.sol\":2073:2386  function getTransactionHash(... */\n      swap4\n      swap3\n      pop\n      pop\n      pop\n      jump\n        /* \"contracts/ContractW/ContractWV1.sol\":2677:2731  getTransactionHash(participantA, amounts[0], salts[0]) */\n    tag_82:\n        /* \"https://github.com/OpenZeppelin/openzeppelin-contracts/blob/master/contracts/utils/cryptography/MessageHashUtils.sol\":1403:1437  \"\\x19Ethereum Signed Message:\\n32\" */\n      0x19457468657265756d205369676e6564204d6573736167653a0a333200000000\n        /* \"https://github.com/OpenZeppelin/openzeppelin-contracts/blob/master/contracts/utils/cryptography/MessageHashUtils.sol\":1298:1312  bytes32 digest */\n      0x00\n        /* \"https://github.com/OpenZeppelin/openzeppelin-contracts/blob/master/contracts/utils/cryptography/MessageHashUtils.sol\":1390:1438  mstore(0x00, \"\\x19Ethereum Signed Message:\\n32\") */\n      swap1\n      dup2\n      mstore\n        /* \"https://github.com/OpenZeppelin/openzeppelin-contracts/blob/master/contracts/utils/cryptography/MessageHashUtils.sol\":1499:1503  0x1c */\n      0x1c\n        /* \"https://github.com/OpenZeppelin/openzeppelin-contracts/blob/master/contracts/utils/cryptography/MessageHashUtils.sol\":1492:1517  mstore(0x1c, messageHash) */\n      swap2\n      swap1\n      swap2\n      mstore\n        /* \"https://github.com/OpenZeppelin/openzeppelin-contracts/blob/master/contracts/utils/cryptography/MessageHashUtils.sol\":1597:1601  0x3c */\n      0x3c\n        /* \"https://github.com/OpenZeppelin/openzeppelin-contracts/blob/master/contracts/utils/cryptography/MessageHashUtils.sol\":1581:1602  keccak256(0x00, 0x3c) */\n      swap1\n      keccak256\n      swap1\n        /* \"https://github.com/OpenZeppelin/openzeppelin-contracts/blob/master/contracts/utils/cryptography/MessageHashUtils.sol\":1222:1682  function toEthSignedMessageHash(bytes32 messageHash) internal pure returns (bytes32 digest) {... */\n      jump\n        /* \"contracts/ContractW/ContractWV1.sol\":2615:2750  MessageHashUtils.toEthSignedMessageHash(... */\n    tag_81:\n        /* \"contracts/ContractW/ContractWV1.sol\":2769:2779  signatures */\n      dup4\n        /* \"contracts/ContractW/ContractWV1.sol\":2780:2781  0 */\n      0x00\n        /* \"contracts/ContractW/ContractWV1.sol\":2769:2782  signatures[0] */\n    tag_89:\n      0x20\n      mul\n      dup2\n      add\n      swap1\n      tag_90\n      swap2\n      swap1\n      tag_91\n      jump\t// in\n    tag_90:\n        /* \"contracts/ContractW/ContractWV1.sol\":2583:2797  ECDSA.recover(... */\n      dup1\n      dup1\n      0x1f\n      add\n      0x20\n      dup1\n      swap2\n      div\n      mul\n      0x20\n      add\n      mload(0x40)\n      swap1\n      dup2\n      add\n      0x40\n      mstore\n      dup1\n      swap4\n      swap3\n      swap2\n      swap1\n      dup2\n      dup2\n      mstore\n      0x20\n      add\n      dup4\n      dup4\n      dup1\n      dup3\n      dup5\n      calldatacopy\n      0x00\n      swap3\n      add\n      swap2\n      swap1\n      swap2\n      mstore\n      pop\n        /* \"contracts/ContractW/ContractWV1.sol\":2583:2596  ECDSA.recover */\n      tag_92\n      swap3\n      pop\n      pop\n      pop\n        /* \"contracts/ContractW/ContractWV1.sol\":2583:2797  ECDSA.recover(... */\n      jump\t// in\n    tag_80:\n        /* \"contracts/ContractW/ContractWV1.sol\":2843:2855  participantA */\n      sload(0x00)\n        /* \"contracts/ContractW/ContractWV1.sol\":2555:2797  address recoveredAddressA = ECDSA.recover(... */\n      swap1\n      swap2\n      pop\n      sub(shl(0xa0, 0x01), 0x01)\n        /* \"contracts/ContractW/ContractWV1.sol\":2822:2855  recoveredAddressA != participantA */\n      dup1\n      dup4\n      and\n        /* \"contracts/ContractW/ContractWV1.sol\":2843:2855  participantA */\n      swap2\n      and\n        /* \"contracts/ContractW/ContractWV1.sol\":2822:2855  recoveredAddressA != participantA */\n      eq\n        /* \"contracts/ContractW/ContractWV1.sol\":2818:2928  if (recoveredAddressA != participantA) revert InvalidSignature(signatures[0], recoveredAddressA, participantA) */\n      tag_93\n      jumpi\n        /* \"contracts/ContractW/ContractWV1.sol\":2881:2894  signatures[0] */\n      tag_96\n        /* \"contracts/ContractW/ContractWV1.sol\":2881:2891  signatures */\n      dup3\n      dup1\n        /* \"contracts/ContractW/ContractWV1.sol\":2881:2894  signatures[0] */\n      tag_91\n      jump\t// in\n    tag_96:\n        /* \"contracts/ContractW/ContractWV1.sol\":2915:2927  participantA */\n      sload(0x00)\n        /* \"contracts/ContractW/ContractWV1.sol\":2864:2928  InvalidSignature(signatures[0], recoveredAddressA, participantA) */\n      mload(0x40)\n      shl(0xe3, 0x1dc85ed5)\n      dup2\n      mstore\n      tag_73\n      swap4\n      swap3\n      swap2\n        /* \"contracts/ContractW/ContractWV1.sol\":2896:2913  recoveredAddressA */\n      dup6\n      swap2\n      sub(shl(0xa0, 0x01), 0x01)\n        /* \"contracts/ContractW/ContractWV1.sol\":2915:2927  participantA */\n      swap1\n      swap2\n      and\n      swap1\n        /* \"contracts/ContractW/ContractWV1.sol\":2864:2928  InvalidSignature(signatures[0], recoveredAddressA, participantA) */\n      0x04\n      add\n      tag_98\n      jump\t// in\n        /* \"contracts/ContractW/ContractWV1.sol\":2818:2928  if (recoveredAddressA != participantA) revert InvalidSignature(signatures[0], recoveredAddressA, participantA) */\n    tag_93:\n        /* \"contracts/ContractW/ContractWV1.sol\":3082:3094  participantB */\n      0x01\n      dup1\n      sload\n        /* \"contracts/ContractW/ContractWV1.sol\":2949:2974  address recoveredAddressB */\n      0x00\n      swap2\n        /* \"contracts/ContractW/ContractWV1.sol\":2977:3171  ECDSA.recover(... */\n      tag_99\n      swap2\n        /* \"contracts/ContractW/ContractWV1.sol\":3005:3132  MessageHashUtils.toEthSignedMessageHash(... */\n      tag_100\n      swap2\n        /* \"contracts/ContractW/ContractWV1.sol\":3063:3117  getTransactionHash(participantB, amounts[1], salts[1]) */\n      tag_82\n      swap2\n      sub(shl(0xa0, 0x01), 0x01)\n        /* \"contracts/ContractW/ContractWV1.sol\":3082:3094  participantB */\n      and\n      swap1\n        /* \"contracts/ContractW/ContractWV1.sol\":3096:3106  amounts[1] */\n      0x20\n      dup11\n      add\n      calldataload\n      swap1\n        /* \"contracts/ContractW/ContractWV1.sol\":3108:3113  salts */\n      dup10\n      swap1\n        /* \"contracts/ContractW/ContractWV1.sol\":3108:3116  salts[1] */\n      jump(tag_86)\n        /* \"contracts/ContractW/ContractWV1.sol\":3005:3132  MessageHashUtils.toEthSignedMessageHash(... */\n    tag_100:\n        /* \"contracts/ContractW/ContractWV1.sol\":3147:3157  signatures */\n      dup5\n        /* \"contracts/ContractW/ContractWV1.sol\":3158:3159  1 */\n      0x01\n        /* \"contracts/ContractW/ContractWV1.sol\":3147:3160  signatures[1] */\n      jump(tag_89)\n        /* \"contracts/ContractW/ContractWV1.sol\":2977:3171  ECDSA.recover(... */\n    tag_99:\n        /* \"contracts/ContractW/ContractWV1.sol\":3209:3221  participantB */\n      sload(0x01)\n        /* \"contracts/ContractW/ContractWV1.sol\":2949:3171  address recoveredAddressB = ECDSA.recover(... */\n      swap1\n      swap2\n      pop\n      sub(shl(0xa0, 0x01), 0x01)\n        /* \"contracts/ContractW/ContractWV1.sol\":3188:3221  recoveredAddressB != participantB */\n      dup1\n      dup4\n      and\n        /* \"contracts/ContractW/ContractWV1.sol\":3209:3221  participantB */\n      swap2\n      and\n        /* \"contracts/ContractW/ContractWV1.sol\":3188:3221  recoveredAddressB != participantB */\n      eq\n        /* \"contracts/ContractW/ContractWV1.sol\":3184:3294  if (recoveredAddressB != participantB) revert InvalidSignature(signatures[1], recoveredAddressB, participantB) */\n      tag_109\n      jumpi\n        /* \"contracts/ContractW/ContractWV1.sol\":3247:3260  signatures[1] */\n      tag_112\n      0x20\n      dup5\n      add\n        /* \"contracts/ContractW/ContractWV1.sol\":3247:3257  signatures */\n      dup5\n        /* \"contracts/ContractW/ContractWV1.sol\":3247:3260  signatures[1] */\n      tag_91\n      jump\t// in\n    tag_112:\n        /* \"contracts/ContractW/ContractWV1.sol\":3281:3293  participantB */\n      sload(0x01)\n        /* \"contracts/ContractW/ContractWV1.sol\":3230:3294  InvalidSignature(signatures[1], recoveredAddressB, participantB) */\n      mload(0x40)\n      shl(0xe3, 0x1dc85ed5)\n      dup2\n      mstore\n      tag_73\n      swap4\n      swap3\n      swap2\n        /* \"contracts/ContractW/ContractWV1.sol\":3262:3279  recoveredAddressB */\n      dup6\n      swap2\n      sub(shl(0xa0, 0x01), 0x01)\n        /* \"contracts/ContractW/ContractWV1.sol\":3281:3293  participantB */\n      swap1\n      swap2\n      and\n      swap1\n        /* \"contracts/ContractW/ContractWV1.sol\":3230:3294  InvalidSignature(signatures[1], recoveredAddressB, participantB) */\n      0x04\n      add\n      tag_98\n      jump\t// in\n        /* \"contracts/ContractW/ContractWV1.sol\":3184:3294  if (recoveredAddressB != participantB) revert InvalidSignature(signatures[1], recoveredAddressB, participantB) */\n    tag_109:\n        /* \"contracts/ContractW/ContractWV1.sol\":2544:3302  {... */\n      pop\n      pop\n        /* \"contracts/ContractW/ContractWV1.sol\":2394:3302  function _verify(... */\n      pop\n      pop\n      pop\n      jump\t// out\n        /* \"https://github.com/OpenZeppelin/openzeppelin-contracts/blob/master/contracts/utils/cryptography/ECDSA.sol\":3702:3957  function recover(bytes32 hash, bytes memory signature) internal pure returns (address) {... */\n    tag_92:\n        /* \"https://github.com/OpenZeppelin/openzeppelin-contracts/blob/master/contracts/utils/cryptography/ECDSA.sol\":3780:3787  address */\n      0x00\n        /* \"https://github.com/OpenZeppelin/openzeppelin-contracts/blob/master/contracts/utils/cryptography/ECDSA.sol\":3800:3817  address recovered */\n      dup1\n        /* \"https://github.com/OpenZeppelin/openzeppelin-contracts/blob/master/contracts/utils/cryptography/ECDSA.sol\":3819:3837  RecoverError error */\n      0x00\n        /* \"https://github.com/OpenZeppelin/openzeppelin-contracts/blob/master/contracts/utils/cryptography/ECDSA.sol\":3839:3855  bytes32 errorArg */\n      dup1\n        /* \"https://github.com/OpenZeppelin/openzeppelin-contracts/blob/master/contracts/utils/cryptography/ECDSA.sol\":3859:3886  tryRecover(hash, signature) */\n      tag_116\n        /* \"https://github.com/OpenZeppelin/openzeppelin-contracts/blob/master/contracts/utils/cryptography/ECDSA.sol\":3870:3874  hash */\n      dup7\n        /* \"https://github.com/OpenZeppelin/openzeppelin-contracts/blob/master/contracts/utils/cryptography/ECDSA.sol\":3876:3885  signature */\n      dup7\n        /* \"https://github.com/OpenZeppelin/openzeppelin-contracts/blob/master/contracts/utils/cryptography/ECDSA.sol\":3859:3869  tryRecover */\n      tag_117\n        /* \"https://github.com/OpenZeppelin/openzeppelin-contracts/blob/master/contracts/utils/cryptography/ECDSA.sol\":3859:3886  tryRecover(hash, signature) */\n      jump\t// in\n    tag_116:\n        /* \"https://github.com/OpenZeppelin/openzeppelin-contracts/blob/master/contracts/utils/cryptography/ECDSA.sol\":3799:3886  (address recovered, RecoverError error, bytes32 errorArg) = tryRecover(hash, signature) */\n      swap3\n      pop\n      swap3\n      pop\n      swap3\n      pop\n        /* \"https://github.com/OpenZeppelin/openzeppelin-contracts/blob/master/contracts/utils/cryptography/ECDSA.sol\":3896:3924  _throwError(error, errorArg) */\n      tag_118\n        /* \"https://github.com/OpenZeppelin/openzeppelin-contracts/blob/master/contracts/utils/cryptography/ECDSA.sol\":3908:3913  error */\n      dup3\n        /* \"https://github.com/OpenZeppelin/openzeppelin-contracts/blob/master/contracts/utils/cryptography/ECDSA.sol\":3915:3923  errorArg */\n      dup3\n        /* \"https://github.com/OpenZeppelin/openzeppelin-contracts/blob/master/contracts/utils/cryptography/ECDSA.sol\":3896:3907  _throwError */\n      tag_119\n        /* \"https://github.com/OpenZeppelin/openzeppelin-contracts/blob/master/contracts/utils/cryptography/ECDSA.sol\":3896:3924  _throwError(error, errorArg) */\n      jump\t// in\n    tag_118:\n      pop\n        /* \"https://github.com/OpenZeppelin/openzeppelin-contracts/blob/master/contracts/utils/cryptography/ECDSA.sol\":3941:3950  recovered */\n      swap1\n      swap2\n      pop\n      pop\n        /* \"https://github.com/OpenZeppelin/openzeppelin-contracts/blob/master/contracts/utils/cryptography/ECDSA.sol\":3702:3957  function recover(bytes32 hash, bytes memory signature) internal pure returns (address) {... */\n    tag_115:\n      swap3\n      swap2\n      pop\n      pop\n      jump\t// out\n        /* \"https://github.com/OpenZeppelin/openzeppelin-contracts/blob/master/contracts/utils/cryptography/ECDSA.sol\":2129:2895  function tryRecover(bytes32 hash, bytes memory signature) internal pure returns (address, RecoverError, bytes32) {... */\n    tag_117:\n        /* \"https://github.com/OpenZeppelin/openzeppelin-contracts/blob/master/contracts/utils/cryptography/ECDSA.sol\":2210:2217  address */\n      0x00\n        /* \"https://github.com/OpenZeppelin/openzeppelin-contracts/blob/master/contracts/utils/cryptography/ECDSA.sol\":2219:2231  RecoverError */\n      dup1\n        /* \"https://github.com/OpenZeppelin/openzeppelin-contracts/blob/master/contracts/utils/cryptography/ECDSA.sol\":2233:2240  bytes32 */\n      0x00\n        /* \"https://github.com/OpenZeppelin/openzeppelin-contracts/blob/master/contracts/utils/cryptography/ECDSA.sol\":2256:2265  signature */\n      dup4\n        /* \"https://github.com/OpenZeppelin/openzeppelin-contracts/blob/master/contracts/utils/cryptography/ECDSA.sol\":2256:2272  signature.length */\n      mload\n        /* \"https://github.com/OpenZeppelin/openzeppelin-contracts/blob/master/contracts/utils/cryptography/ECDSA.sol\":2276:2278  65 */\n      0x41\n        /* \"https://github.com/OpenZeppelin/openzeppelin-contracts/blob/master/contracts/utils/cryptography/ECDSA.sol\":2256:2278  signature.length == 65 */\n      sub\n        /* \"https://github.com/OpenZeppelin/openzeppelin-contracts/blob/master/contracts/utils/cryptography/ECDSA.sol\":2252:2889  if (signature.length == 65) {... */\n      tag_121\n      jumpi\n        /* \"https://github.com/OpenZeppelin/openzeppelin-contracts/blob/master/contracts/utils/cryptography/ECDSA.sol\":2592:2596  0x20 */\n      0x20\n        /* \"https://github.com/OpenZeppelin/openzeppelin-contracts/blob/master/contracts/utils/cryptography/ECDSA.sol\":2577:2597  add(signature, 0x20) */\n      dup5\n      add\n        /* \"https://github.com/OpenZeppelin/openzeppelin-contracts/blob/master/contracts/utils/cryptography/ECDSA.sol\":2571:2598  mload(add(signature, 0x20)) */\n      mload\n        /* \"https://github.com/OpenZeppelin/openzeppelin-contracts/blob/master/contracts/utils/cryptography/ECDSA.sol\":2641:2645  0x40 */\n      0x40\n        /* \"https://github.com/OpenZeppelin/openzeppelin-contracts/blob/master/contracts/utils/cryptography/ECDSA.sol\":2626:2646  add(signature, 0x40) */\n      dup6\n      add\n        /* \"https://github.com/OpenZeppelin/openzeppelin-contracts/blob/master/contracts/utils/cryptography/ECDSA.sol\":2620:2647  mload(add(signature, 0x40)) */\n      mload\n        /* \"https://github.com/OpenZeppelin/openzeppelin-contracts/blob/master/contracts/utils/cryptography/ECDSA.sol\":2698:2702  0x60 */\n      0x60\n        /* \"https://github.com/OpenZeppelin/openzeppelin-contracts/blob/master/contracts/utils/cryptography/ECDSA.sol\":2683:2703  add(signature, 0x60) */\n      dup7\n      add\n        /* \"https://github.com/OpenZeppelin/openzeppelin-contracts/blob/master/contracts/utils/cryptography/ECDSA.sol\":2677:2704  mload(add(signature, 0x60)) */\n      mload\n        /* \"https://github.com/OpenZeppelin/openzeppelin-contracts/blob/master/contracts/utils/cryptography/ECDSA.sol\":2294:2303  bytes32 r */\n      0x00\n        /* \"https://github.com/OpenZeppelin/openzeppelin-contracts/blob/master/contracts/utils/cryptography/ECDSA.sol\":2669:2705  byte(0, mload(add(signature, 0x60))) */\n      byte\n        /* \"https://github.com/OpenZeppelin/openzeppelin-contracts/blob/master/contracts/utils/cryptography/ECDSA.sol\":2739:2764  tryRecover(hash, v, r, s) */\n      tag_122\n        /* \"https://github.com/OpenZeppelin/openzeppelin-contracts/blob/master/contracts/utils/cryptography/ECDSA.sol\":2750:2754  hash */\n      dup9\n        /* \"https://github.com/OpenZeppelin/openzeppelin-contracts/blob/master/contracts/utils/cryptography/ECDSA.sol\":2669:2705  byte(0, mload(add(signature, 0x60))) */\n      dup3\n        /* \"https://github.com/OpenZeppelin/openzeppelin-contracts/blob/master/contracts/utils/cryptography/ECDSA.sol\":2571:2598  mload(add(signature, 0x20)) */\n      dup6\n        /* \"https://github.com/OpenZeppelin/openzeppelin-contracts/blob/master/contracts/utils/cryptography/ECDSA.sol\":2620:2647  mload(add(signature, 0x40)) */\n      dup6\n        /* \"https://github.com/OpenZeppelin/openzeppelin-contracts/blob/master/contracts/utils/cryptography/ECDSA.sol\":2739:2749  tryRecover */\n      tag_123\n        /* \"https://github.com/OpenZeppelin/openzeppelin-contracts/blob/master/contracts/utils/cryptography/ECDSA.sol\":2739:2764  tryRecover(hash, v, r, s) */\n      jump\t// in\n    tag_122:\n        /* \"https://github.com/OpenZeppelin/openzeppelin-contracts/blob/master/contracts/utils/cryptography/ECDSA.sol\":2732:2764  return tryRecover(hash, v, r, s) */\n      swap6\n      pop\n      swap6\n      pop\n      swap6\n      pop\n      pop\n      pop\n      pop\n      jump(tag_124)\n        /* \"https://github.com/OpenZeppelin/openzeppelin-contracts/blob/master/contracts/utils/cryptography/ECDSA.sol\":2252:2889  if (signature.length == 65) {... */\n    tag_121:\n      pop\n      pop\n        /* \"https://github.com/OpenZeppelin/openzeppelin-contracts/blob/master/contracts/utils/cryptography/ECDSA.sol\":2860:2876  signature.length */\n      dup2\n      mload\n        /* \"https://github.com/OpenZeppelin/openzeppelin-contracts/blob/master/contracts/utils/cryptography/ECDSA.sol\":2811:2812  0 */\n      0x00\n      swap2\n      pop\n        /* \"https://github.com/OpenZeppelin/openzeppelin-contracts/blob/master/contracts/utils/cryptography/ECDSA.sol\":2815:2850  RecoverError.InvalidSignatureLength */\n      0x02\n      swap1\n        /* \"https://github.com/OpenZeppelin/openzeppelin-contracts/blob/master/contracts/utils/cryptography/ECDSA.sol\":2252:2889  if (signature.length == 65) {... */\n    tag_124:\n        /* \"https://github.com/OpenZeppelin/openzeppelin-contracts/blob/master/contracts/utils/cryptography/ECDSA.sol\":2129:2895  function tryRecover(bytes32 hash, bytes memory signature) internal pure returns (address, RecoverError, bytes32) {... */\n      swap3\n      pop\n      swap3\n      pop\n      swap3\n      jump\t// out\n        /* \"https://github.com/OpenZeppelin/openzeppelin-contracts/blob/master/contracts/utils/cryptography/ECDSA.sol\":7196:7728  function _throwError(RecoverError error, bytes32 errorArg) private pure {... */\n    tag_119:\n        /* \"https://github.com/OpenZeppelin/openzeppelin-contracts/blob/master/contracts/utils/cryptography/ECDSA.sol\":7291:7311  RecoverError.NoError */\n      0x00\n        /* \"https://github.com/OpenZeppelin/openzeppelin-contracts/blob/master/contracts/utils/cryptography/ECDSA.sol\":7282:7287  error */\n      dup3\n        /* \"https://github.com/OpenZeppelin/openzeppelin-contracts/blob/master/contracts/utils/cryptography/ECDSA.sol\":7282:7311  error == RecoverError.NoError */\n      0x03\n      dup2\n      gt\n      iszero\n      tag_130\n      jumpi\n      tag_130\n      tag_128\n      jump\t// in\n    tag_130:\n      sub\n        /* \"https://github.com/OpenZeppelin/openzeppelin-contracts/blob/master/contracts/utils/cryptography/ECDSA.sol\":7278:7722  if (error == RecoverError.NoError) {... */\n      tag_131\n      jumpi\n        /* \"https://github.com/OpenZeppelin/openzeppelin-contracts/blob/master/contracts/utils/cryptography/ECDSA.sol\":7196:7728  function _throwError(RecoverError error, bytes32 errorArg) private pure {... */\n      pop\n      pop\n      jump\t// out\n        /* \"https://github.com/OpenZeppelin/openzeppelin-contracts/blob/master/contracts/utils/cryptography/ECDSA.sol\":7278:7722  if (error == RecoverError.NoError) {... */\n    tag_131:\n        /* \"https://github.com/OpenZeppelin/openzeppelin-contracts/blob/master/contracts/utils/cryptography/ECDSA.sol\":7387:7416  RecoverError.InvalidSignature */\n      0x01\n        /* \"https://github.com/OpenZeppelin/openzeppelin-contracts/blob/master/contracts/utils/cryptography/ECDSA.sol\":7378:7383  error */\n      dup3\n        /* \"https://github.com/OpenZeppelin/openzeppelin-contracts/blob/master/contracts/utils/cryptography/ECDSA.sol\":7378:7416  error == RecoverError.InvalidSignature */\n      0x03\n      dup2\n      gt\n      iszero\n      tag_136\n      jumpi\n      tag_136\n      tag_128\n      jump\t// in\n    tag_136:\n      sub\n        /* \"https://github.com/OpenZeppelin/openzeppelin-contracts/blob/master/contracts/utils/cryptography/ECDSA.sol\":7374:7722  if (error == RecoverError.InvalidSignature) {... */\n      tag_137\n      jumpi\n        /* \"https://github.com/OpenZeppelin/openzeppelin-contracts/blob/master/contracts/utils/cryptography/ECDSA.sol\":7439:7462  ECDSAInvalidSignature() */\n      mload(0x40)\n      0xf645eedf00000000000000000000000000000000000000000000000000000000\n      dup2\n      mstore\n      0x04\n      add\n      mload(0x40)\n      dup1\n      swap2\n      sub\n      swap1\n      revert\n        /* \"https://github.com/OpenZeppelin/openzeppelin-contracts/blob/master/contracts/utils/cryptography/ECDSA.sol\":7374:7722  if (error == RecoverError.InvalidSignature) {... */\n    tag_137:\n        /* \"https://github.com/OpenZeppelin/openzeppelin-contracts/blob/master/contracts/utils/cryptography/ECDSA.sol\":7492:7527  RecoverError.InvalidSignatureLength */\n      0x02\n        /* \"https://github.com/OpenZeppelin/openzeppelin-contracts/blob/master/contracts/utils/cryptography/ECDSA.sol\":7483:7488  error */\n      dup3\n        /* \"https://github.com/OpenZeppelin/openzeppelin-contracts/blob/master/contracts/utils/cryptography/ECDSA.sol\":7483:7527  error == RecoverError.InvalidSignatureLength */\n      0x03\n      dup2\n      gt\n      iszero\n      tag_142\n      jumpi\n      tag_142\n      tag_128\n      jump\t// in\n    tag_142:\n      sub\n        /* \"https://github.com/OpenZeppelin/openzeppelin-contracts/blob/master/contracts/utils/cryptography/ECDSA.sol\":7479:7722  if (error == RecoverError.InvalidSignatureLength) {... */\n      tag_143\n      jumpi\n        /* \"https://github.com/OpenZeppelin/openzeppelin-contracts/blob/master/contracts/utils/cryptography/ECDSA.sol\":7550:7596  ECDSAInvalidSignatureLength(uint256(errorArg)) */\n      mload(0x40)\n      0xfce698f700000000000000000000000000000000000000000000000000000000\n      dup2\n      mstore\n      0x04\n      dup2\n      add\n        /* \"#utility.yul\":935:960   */\n      dup3\n      swap1\n      mstore\n        /* \"#utility.yul\":908:926   */\n      0x24\n      add\n        /* \"https://github.com/OpenZeppelin/openzeppelin-contracts/blob/master/contracts/utils/cryptography/ECDSA.sol\":7550:7596  ECDSAInvalidSignatureLength(uint256(errorArg)) */\n      tag_73\n        /* \"#utility.yul\":789:966   */\n      jump\n        /* \"https://github.com/OpenZeppelin/openzeppelin-contracts/blob/master/contracts/utils/cryptography/ECDSA.sol\":7479:7722  if (error == RecoverError.InvalidSignatureLength) {... */\n    tag_143:\n        /* \"https://github.com/OpenZeppelin/openzeppelin-contracts/blob/master/contracts/utils/cryptography/ECDSA.sol\":7626:7656  RecoverError.InvalidSignatureS */\n      0x03\n        /* \"https://github.com/OpenZeppelin/openzeppelin-contracts/blob/master/contracts/utils/cryptography/ECDSA.sol\":7617:7622  error */\n      dup3\n        /* \"https://github.com/OpenZeppelin/openzeppelin-contracts/blob/master/contracts/utils/cryptography/ECDSA.sol\":7617:7656  error == RecoverError.InvalidSignatureS */\n      0x03\n      dup2\n      gt\n      iszero\n      tag_149\n      jumpi\n      tag_149\n      tag_128\n      jump\t// in\n    tag_149:\n      sub\n        /* \"https://github.com/OpenZeppelin/openzeppelin-contracts/blob/master/contracts/utils/cryptography/ECDSA.sol\":7613:7722  if (error == RecoverError.InvalidSignatureS) {... */\n      tag_78\n      jumpi\n        /* \"https://github.com/OpenZeppelin/openzeppelin-contracts/blob/master/contracts/utils/cryptography/ECDSA.sol\":7679:7711  ECDSAInvalidSignatureS(errorArg) */\n      mload(0x40)\n      0xd78bce0c00000000000000000000000000000000000000000000000000000000\n      dup2\n      mstore\n      0x04\n      dup2\n      add\n        /* \"#utility.yul\":935:960   */\n      dup3\n      swap1\n      mstore\n        /* \"#utility.yul\":908:926   */\n      0x24\n      add\n        /* \"https://github.com/OpenZeppelin/openzeppelin-contracts/blob/master/contracts/utils/cryptography/ECDSA.sol\":7679:7711  ECDSAInvalidSignatureS(errorArg) */\n      tag_73\n        /* \"#utility.yul\":789:966   */\n      jump\n        /* \"https://github.com/OpenZeppelin/openzeppelin-contracts/blob/master/contracts/utils/cryptography/ECDSA.sol\":5140:6670  function tryRecover(... */\n    tag_123:\n        /* \"https://github.com/OpenZeppelin/openzeppelin-contracts/blob/master/contracts/utils/cryptography/ECDSA.sol\":5266:5273  address */\n      0x00\n      dup1\n      dup1\n        /* \"https://github.com/OpenZeppelin/openzeppelin-contracts/blob/master/contracts/utils/cryptography/ECDSA.sol\":6199:6265  0x7FFFFFFFFFFFFFFFFFFFFFFFFFFFFFFF5D576E7357A4501DDFE92F46681B20A0 */\n      0x7fffffffffffffffffffffffffffffff5d576e7357a4501ddfe92f46681b20a0\n        /* \"https://github.com/OpenZeppelin/openzeppelin-contracts/blob/master/contracts/utils/cryptography/ECDSA.sol\":6186:6265  uint256(s) > 0x7FFFFFFFFFFFFFFFFFFFFFFFFFFFFFFF5D576E7357A4501DDFE92F46681B20A0 */\n      dup5\n      gt\n        /* \"https://github.com/OpenZeppelin/openzeppelin-contracts/blob/master/contracts/utils/cryptography/ECDSA.sol\":6182:6346  if (uint256(s) > 0x7FFFFFFFFFFFFFFFFFFFFFFFFFFFFFFF5D576E7357A4501DDFE92F46681B20A0) {... */\n      iszero\n      tag_153\n      jumpi\n      pop\n        /* \"https://github.com/OpenZeppelin/openzeppelin-contracts/blob/master/contracts/utils/cryptography/ECDSA.sol\":6297:6298  0 */\n      0x00\n      swap2\n      pop\n        /* \"https://github.com/OpenZeppelin/openzeppelin-contracts/blob/master/contracts/utils/cryptography/ECDSA.sol\":6301:6331  RecoverError.InvalidSignatureS */\n      0x03\n      swap1\n      pop\n        /* \"https://github.com/OpenZeppelin/openzeppelin-contracts/blob/master/contracts/utils/cryptography/ECDSA.sol\":6333:6334  s */\n      dup3\n        /* \"https://github.com/OpenZeppelin/openzeppelin-contracts/blob/master/contracts/utils/cryptography/ECDSA.sol\":6281:6335  return (address(0), RecoverError.InvalidSignatureS, s) */\n      jump(tag_152)\n        /* \"https://github.com/OpenZeppelin/openzeppelin-contracts/blob/master/contracts/utils/cryptography/ECDSA.sol\":6182:6346  if (uint256(s) > 0x7FFFFFFFFFFFFFFFFFFFFFFFFFFFFFFF5D576E7357A4501DDFE92F46681B20A0) {... */\n    tag_153:\n        /* \"https://github.com/OpenZeppelin/openzeppelin-contracts/blob/master/contracts/utils/cryptography/ECDSA.sol\":6457:6481  ecrecover(hash, v, r, s) */\n      0x40\n      dup1\n      mload\n        /* \"https://github.com/OpenZeppelin/openzeppelin-contracts/blob/master/contracts/utils/cryptography/ECDSA.sol\":6440:6454  address signer */\n      0x00\n        /* \"https://github.com/OpenZeppelin/openzeppelin-contracts/blob/master/contracts/utils/cryptography/ECDSA.sol\":6457:6481  ecrecover(hash, v, r, s) */\n      dup1\n      dup3\n      mstore\n      0x20\n      dup3\n      add\n      dup1\n      dup5\n      mstore\n        /* \"#utility.yul\":4762:4787   */\n      dup11\n      swap1\n      mstore\n        /* \"#utility.yul\":4835:4839   */\n      0xff\n        /* \"#utility.yul\":4823:4840   */\n      dup10\n      and\n        /* \"#utility.yul\":4803:4821   */\n      swap3\n      dup3\n      add\n        /* \"#utility.yul\":4796:4841   */\n      swap3\n      swap1\n      swap3\n      mstore\n        /* \"#utility.yul\":4857:4875   */\n      0x60\n      dup2\n      add\n        /* \"#utility.yul\":4850:4884   */\n      dup8\n      swap1\n      mstore\n        /* \"#utility.yul\":4900:4918   */\n      0x80\n      dup2\n      add\n        /* \"#utility.yul\":4893:4927   */\n      dup7\n      swap1\n      mstore\n        /* \"https://github.com/OpenZeppelin/openzeppelin-contracts/blob/master/contracts/utils/cryptography/ECDSA.sol\":6457:6481  ecrecover(hash, v, r, s) */\n      0x01\n      swap1\n        /* \"#utility.yul\":4734:4753   */\n      0xa0\n      add\n        /* \"https://github.com/OpenZeppelin/openzeppelin-contracts/blob/master/contracts/utils/cryptography/ECDSA.sol\":6457:6481  ecrecover(hash, v, r, s) */\n      0x20\n      mload(0x40)\n      0x20\n      dup2\n      sub\n      swap1\n      dup1\n      dup5\n      sub\n      swap1\n      dup6\n      gas\n      staticcall\n      iszero\n      dup1\n      iszero\n      tag_157\n      jumpi\n      returndatasize\n      0x00\n      dup1\n      returndatacopy\n      revert(0x00, returndatasize)\n    tag_157:\n      pop\n      pop\n      mload(add(not(0x1f), mload(0x40)))\n      swap2\n      pop\n      pop\n      sub(shl(0xa0, 0x01), 0x01)\n        /* \"https://github.com/OpenZeppelin/openzeppelin-contracts/blob/master/contracts/utils/cryptography/ECDSA.sol\":6495:6515  signer == address(0) */\n      dup2\n      and\n        /* \"https://github.com/OpenZeppelin/openzeppelin-contracts/blob/master/contracts/utils/cryptography/ECDSA.sol\":6491:6604  if (signer == address(0)) {... */\n      tag_158\n      jumpi\n      pop\n        /* \"https://github.com/OpenZeppelin/openzeppelin-contracts/blob/master/contracts/utils/cryptography/ECDSA.sol\":6547:6548  0 */\n      0x00\n      swap3\n      pop\n        /* \"https://github.com/OpenZeppelin/openzeppelin-contracts/blob/master/contracts/utils/cryptography/ECDSA.sol\":6551:6580  RecoverError.InvalidSignature */\n      0x01\n      swap2\n      pop\n        /* \"https://github.com/OpenZeppelin/openzeppelin-contracts/blob/master/contracts/utils/cryptography/ECDSA.sol\":6547:6548  0 */\n      dup3\n      swap1\n      pop\n        /* \"https://github.com/OpenZeppelin/openzeppelin-contracts/blob/master/contracts/utils/cryptography/ECDSA.sol\":6531:6593  return (address(0), RecoverError.InvalidSignature, bytes32(0)) */\n      jump(tag_152)\n        /* \"https://github.com/OpenZeppelin/openzeppelin-contracts/blob/master/contracts/utils/cryptography/ECDSA.sol\":6491:6604  if (signer == address(0)) {... */\n    tag_158:\n        /* \"https://github.com/OpenZeppelin/openzeppelin-contracts/blob/master/contracts/utils/cryptography/ECDSA.sol\":6622:6628  signer */\n      swap3\n      pop\n        /* \"https://github.com/OpenZeppelin/openzeppelin-contracts/blob/master/contracts/utils/cryptography/ECDSA.sol\":6630:6650  RecoverError.NoError */\n      0x00\n      swap2\n      pop\n      dup2\n      swap1\n      pop\n        /* \"https://github.com/OpenZeppelin/openzeppelin-contracts/blob/master/contracts/utils/cryptography/ECDSA.sol\":5140:6670  function tryRecover(... */\n    tag_152:\n      swap5\n      pop\n      swap5\n      pop\n      swap5\n      swap2\n      pop\n      pop\n      jump\t// out\n        /* \"#utility.yul\":261:457   */\n    tag_159:\n        /* \"#utility.yul\":329:349   */\n      dup1\n      calldataload\n      sub(shl(0xa0, 0x01), 0x01)\n        /* \"#utility.yul\":378:432   */\n      dup2\n      and\n        /* \"#utility.yul\":368:433   */\n      dup2\n      eq\n        /* \"#utility.yul\":358:451   */\n      tag_164\n      jumpi\n        /* \"#utility.yul\":447:448   */\n      0x00\n        /* \"#utility.yul\":444:445   */\n      dup1\n        /* \"#utility.yul\":437:449   */\n      revert\n        /* \"#utility.yul\":358:451   */\n    tag_164:\n        /* \"#utility.yul\":261:457   */\n      swap2\n      swap1\n      pop\n      jump\t// out\n        /* \"#utility.yul\":462:784   */\n    tag_19:\n        /* \"#utility.yul\":539:545   */\n      0x00\n        /* \"#utility.yul\":547:553   */\n      dup1\n        /* \"#utility.yul\":555:561   */\n      0x00\n        /* \"#utility.yul\":608:610   */\n      0x60\n        /* \"#utility.yul\":596:605   */\n      dup5\n        /* \"#utility.yul\":587:594   */\n      dup7\n        /* \"#utility.yul\":583:606   */\n      sub\n        /* \"#utility.yul\":579:611   */\n      slt\n        /* \"#utility.yul\":576:628   */\n      iszero\n      tag_166\n      jumpi\n        /* \"#utility.yul\":624:625   */\n      0x00\n        /* \"#utility.yul\":621:622   */\n      dup1\n        /* \"#utility.yul\":614:626   */\n      revert\n        /* \"#utility.yul\":576:628   */\n    tag_166:\n        /* \"#utility.yul\":647:676   */\n      tag_167\n        /* \"#utility.yul\":666:675   */\n      dup5\n        /* \"#utility.yul\":647:676   */\n      tag_159\n      jump\t// in\n    tag_167:\n        /* \"#utility.yul\":637:676   */\n      swap6\n        /* \"#utility.yul\":723:725   */\n      0x20\n        /* \"#utility.yul\":708:726   */\n      dup6\n      add\n        /* \"#utility.yul\":695:727   */\n      calldataload\n      swap6\n      pop\n        /* \"#utility.yul\":774:776   */\n      0x40\n        /* \"#utility.yul\":759:777   */\n      swap1\n      swap5\n      add\n        /* \"#utility.yul\":746:778   */\n      calldataload\n      swap4\n        /* \"#utility.yul\":462:784   */\n      swap3\n      pop\n      pop\n      pop\n      jump\t// out\n        /* \"#utility.yul\":971:1130   */\n    tag_160:\n        /* \"#utility.yul\":1065:1071   */\n      dup1\n        /* \"#utility.yul\":1098:1100   */\n      0x40\n        /* \"#utility.yul\":1086:1101   */\n      dup2\n      add\n        /* \"#utility.yul\":1083:1107   */\n      dup4\n      lt\n        /* \"#utility.yul\":1080:1124   */\n      iszero\n      tag_115\n      jumpi\n        /* \"#utility.yul\":1120:1121   */\n      0x00\n        /* \"#utility.yul\":1117:1118   */\n      dup1\n        /* \"#utility.yul\":1110:1122   */\n      revert\n        /* \"#utility.yul\":1135:1747   */\n    tag_26:\n        /* \"#utility.yul\":1298:1304   */\n      0x00\n        /* \"#utility.yul\":1306:1312   */\n      dup1\n        /* \"#utility.yul\":1314:1320   */\n      0x00\n        /* \"#utility.yul\":1367:1370   */\n      0xa0\n        /* \"#utility.yul\":1355:1364   */\n      dup5\n        /* \"#utility.yul\":1346:1353   */\n      dup7\n        /* \"#utility.yul\":1342:1365   */\n      sub\n        /* \"#utility.yul\":1338:1371   */\n      slt\n        /* \"#utility.yul\":1335:1388   */\n      iszero\n      tag_172\n      jumpi\n        /* \"#utility.yul\":1384:1385   */\n      0x00\n        /* \"#utility.yul\":1381:1382   */\n      dup1\n        /* \"#utility.yul\":1374:1386   */\n      revert\n        /* \"#utility.yul\":1335:1388   */\n    tag_172:\n        /* \"#utility.yul\":1407:1460   */\n      tag_173\n        /* \"#utility.yul\":1452:1459   */\n      dup6\n        /* \"#utility.yul\":1441:1450   */\n      dup6\n        /* \"#utility.yul\":1407:1460   */\n      tag_160\n      jump\t// in\n    tag_173:\n        /* \"#utility.yul\":1397:1460   */\n      swap3\n      pop\n        /* \"#utility.yul\":1479:1541   */\n      tag_174\n        /* \"#utility.yul\":1533:1540   */\n      dup6\n        /* \"#utility.yul\":1528:1530   */\n      0x40\n        /* \"#utility.yul\":1517:1526   */\n      dup7\n        /* \"#utility.yul\":1513:1531   */\n      add\n        /* \"#utility.yul\":1479:1541   */\n      tag_160\n      jump\t// in\n    tag_174:\n        /* \"#utility.yul\":1469:1541   */\n      swap2\n      pop\n        /* \"#utility.yul\":1592:1595   */\n      0x80\n        /* \"#utility.yul\":1581:1590   */\n      dup5\n        /* \"#utility.yul\":1577:1596   */\n      add\n        /* \"#utility.yul\":1564:1597   */\n      calldataload\n        /* \"#utility.yul\":1620:1638   */\n      0xffffffffffffffff\n        /* \"#utility.yul\":1612:1618   */\n      dup2\n        /* \"#utility.yul\":1609:1639   */\n      gt\n        /* \"#utility.yul\":1606:1656   */\n      iszero\n      tag_175\n      jumpi\n        /* \"#utility.yul\":1652:1653   */\n      0x00\n        /* \"#utility.yul\":1649:1650   */\n      dup1\n        /* \"#utility.yul\":1642:1654   */\n      revert\n        /* \"#utility.yul\":1606:1656   */\n    tag_175:\n        /* \"#utility.yul\":1675:1741   */\n      tag_176\n        /* \"#utility.yul\":1733:1740   */\n      dup7\n        /* \"#utility.yul\":1724:1730   */\n      dup3\n        /* \"#utility.yul\":1713:1722   */\n      dup8\n        /* \"#utility.yul\":1709:1731   */\n      add\n        /* \"#utility.yul\":1675:1741   */\n      tag_160\n      jump\t// in\n    tag_176:\n        /* \"#utility.yul\":1665:1741   */\n      swap2\n      pop\n      pop\n        /* \"#utility.yul\":1135:1747   */\n      swap3\n      pop\n      swap3\n      pop\n      swap3\n      jump\t// out\n        /* \"#utility.yul\":1752:1938   */\n    tag_31:\n        /* \"#utility.yul\":1811:1817   */\n      0x00\n        /* \"#utility.yul\":1864:1866   */\n      0x20\n        /* \"#utility.yul\":1852:1861   */\n      dup3\n        /* \"#utility.yul\":1843:1850   */\n      dup5\n        /* \"#utility.yul\":1839:1862   */\n      sub\n        /* \"#utility.yul\":1835:1867   */\n      slt\n        /* \"#utility.yul\":1832:1884   */\n      iszero\n      tag_178\n      jumpi\n        /* \"#utility.yul\":1880:1881   */\n      0x00\n        /* \"#utility.yul\":1877:1878   */\n      dup1\n        /* \"#utility.yul\":1870:1882   */\n      revert\n        /* \"#utility.yul\":1832:1884   */\n    tag_178:\n        /* \"#utility.yul\":1903:1932   */\n      tag_179\n        /* \"#utility.yul\":1922:1931   */\n      dup3\n        /* \"#utility.yul\":1903:1932   */\n      tag_159\n      jump\t// in\n    tag_179:\n        /* \"#utility.yul\":1893:1932   */\n      swap4\n        /* \"#utility.yul\":1752:1938   */\n      swap3\n      pop\n      pop\n      pop\n      jump\t// out\n        /* \"#utility.yul\":2125:2404   */\n    tag_43:\n        /* \"#utility.yul\":2190:2199   */\n      dup1\n      dup3\n      add\n        /* \"#utility.yul\":2211:2221   */\n      dup1\n      dup3\n      gt\n        /* \"#utility.yul\":2208:2398   */\n      iszero\n      tag_115\n      jumpi\n      shl(0xe0, 0x4e487b71)\n        /* \"#utility.yul\":2251:2252   */\n      0x00\n        /* \"#utility.yul\":2244:2332   */\n      mstore\n        /* \"#utility.yul\":2355:2359   */\n      0x11\n        /* \"#utility.yul\":2352:2353   */\n      0x04\n        /* \"#utility.yul\":2345:2360   */\n      mstore\n        /* \"#utility.yul\":2383:2387   */\n      0x24\n        /* \"#utility.yul\":2380:2381   */\n      0x00\n        /* \"#utility.yul\":2373:2388   */\n      revert\n        /* \"#utility.yul\":3193:3714   */\n    tag_91:\n        /* \"#utility.yul\":3270:3274   */\n      0x00\n        /* \"#utility.yul\":3276:3282   */\n      dup1\n        /* \"#utility.yul\":3336:3347   */\n      dup4\n        /* \"#utility.yul\":3323:3348   */\n      calldataload\n        /* \"#utility.yul\":3430:3432   */\n      0x1e\n        /* \"#utility.yul\":3426:3433   */\n      not\n        /* \"#utility.yul\":3415:3423   */\n      dup5\n        /* \"#utility.yul\":3399:3413   */\n      calldatasize\n        /* \"#utility.yul\":3395:3424   */\n      sub\n        /* \"#utility.yul\":3391:3434   */\n      add\n        /* \"#utility.yul\":3371:3389   */\n      dup2\n        /* \"#utility.yul\":3367:3435   */\n      slt\n        /* \"#utility.yul\":3357:3453   */\n      tag_187\n      jumpi\n        /* \"#utility.yul\":3449:3450   */\n      0x00\n        /* \"#utility.yul\":3446:3447   */\n      dup1\n        /* \"#utility.yul\":3439:3451   */\n      revert\n        /* \"#utility.yul\":3357:3453   */\n    tag_187:\n        /* \"#utility.yul\":3476:3509   */\n      dup4\n      add\n        /* \"#utility.yul\":3528:3548   */\n      dup1\n      calldataload\n      swap2\n      pop\n        /* \"#utility.yul\":3571:3589   */\n      0xffffffffffffffff\n        /* \"#utility.yul\":3560:3590   */\n      dup3\n      gt\n        /* \"#utility.yul\":3557:3607   */\n      iszero\n      tag_188\n      jumpi\n        /* \"#utility.yul\":3603:3604   */\n      0x00\n        /* \"#utility.yul\":3600:3601   */\n      dup1\n        /* \"#utility.yul\":3593:3605   */\n      revert\n        /* \"#utility.yul\":3557:3607   */\n    tag_188:\n        /* \"#utility.yul\":3636:3640   */\n      0x20\n        /* \"#utility.yul\":3624:3641   */\n      add\n      swap2\n      pop\n        /* \"#utility.yul\":3667:3681   */\n      calldatasize\n        /* \"#utility.yul\":3663:3690   */\n      dup2\n      swap1\n      sub\n        /* \"#utility.yul\":3653:3691   */\n      dup3\n      sgt\n        /* \"#utility.yul\":3650:3708   */\n      iszero\n      tag_189\n      jumpi\n        /* \"#utility.yul\":3704:3705   */\n      0x00\n        /* \"#utility.yul\":3701:3702   */\n      dup1\n        /* \"#utility.yul\":3694:3706   */\n      revert\n        /* \"#utility.yul\":3650:3708   */\n    tag_189:\n        /* \"#utility.yul\":3193:3714   */\n      swap3\n      pop\n      swap3\n      swap1\n      pop\n      jump\t// out\n        /* \"#utility.yul\":3719:4341   */\n    tag_98:\n        /* \"#utility.yul\":3940:3942   */\n      0x60\n        /* \"#utility.yul\":3929:3938   */\n      dup2\n        /* \"#utility.yul\":3922:3943   */\n      mstore\n        /* \"#utility.yul\":3979:3985   */\n      dup4\n        /* \"#utility.yul\":3974:3976   */\n      0x60\n        /* \"#utility.yul\":3963:3972   */\n      dup3\n        /* \"#utility.yul\":3959:3977   */\n      add\n        /* \"#utility.yul\":3952:3986   */\n      mstore\n        /* \"#utility.yul\":4037:4043   */\n      dup4\n        /* \"#utility.yul\":4029:4035   */\n      dup6\n        /* \"#utility.yul\":4023:4026   */\n      0x80\n        /* \"#utility.yul\":4012:4021   */\n      dup4\n        /* \"#utility.yul\":4008:4027   */\n      add\n        /* \"#utility.yul\":3995:4044   */\n      calldatacopy\n        /* \"#utility.yul\":4094:4095   */\n      0x00\n        /* \"#utility.yul\":4088:4091   */\n      0x80\n        /* \"#utility.yul\":4064:4086   */\n      dup6\n      dup4\n      add\n        /* \"#utility.yul\":4060:4092   */\n      dup2\n      add\n        /* \"#utility.yul\":4053:4096   */\n      swap2\n      swap1\n      swap2\n      mstore\n      sub(shl(0xa0, 0x01), 0x01)\n        /* \"#utility.yul\":4267:4282   */\n      swap4\n      dup5\n      and\n        /* \"#utility.yul\":4260:4264   */\n      0x20\n        /* \"#utility.yul\":4245:4265   */\n      dup4\n      add\n        /* \"#utility.yul\":4238:4283   */\n      mstore\n        /* \"#utility.yul\":4319:4334   */\n      swap2\n      swap1\n      swap3\n      and\n        /* \"#utility.yul\":4314:4316   */\n      0x40\n        /* \"#utility.yul\":4299:4317   */\n      dup4\n      add\n        /* \"#utility.yul\":4292:4335   */\n      mstore\n        /* \"#utility.yul\":4157:4159   */\n      0x1f\n        /* \"#utility.yul\":4136:4151   */\n      swap1\n      swap3\n      add\n      not(0x1f)\n        /* \"#utility.yul\":4132:4161   */\n      and\n        /* \"#utility.yul\":4117:4162   */\n      add\n        /* \"#utility.yul\":4113:4168   */\n      add\n      swap2\n      swap1\n      pop\n        /* \"#utility.yul\":3719:4341   */\n      jump\t// out\n        /* \"#utility.yul\":4346:4530   */\n    tag_128:\n      shl(0xe0, 0x4e487b71)\n        /* \"#utility.yul\":4395:4396   */\n      0x00\n        /* \"#utility.yul\":4388:4476   */\n      mstore\n        /* \"#utility.yul\":4495:4499   */\n      0x21\n        /* \"#utility.yul\":4492:4493   */\n      0x04\n        /* \"#utility.yul\":4485:4500   */\n      mstore\n        /* \"#utility.yul\":4519:4523   */\n      0x24\n        /* \"#utility.yul\":4516:4517   */\n      0x00\n        /* \"#utility.yul\":4509:4524   */\n      revert\n\n    auxdata: 0xa264697066735822122012cc09f84c02141f33a4cbfeefcb8a4ff522c1e4d404f7a1724c820230ce4a9664736f6c63430008190033\n}\n",
				"bytecode": {
					"linkReferences": {},
					"object": "6080604052348015600e575f80fd5b506040516109ee3803806109ee833981016040819052602b916074565b5f80546001600160a01b039384166001600160a01b0319918216179091556001805492909316911617905560a0565b80516001600160a01b0381168114606f575f80fd5b919050565b5f80604083850312156084575f80fd5b608b83605a565b9150609760208401605a565b90509250929050565b610941806100ad5f395ff3fe608060405260043610610063575f3560e01c8063f34eef6411610041578063f34eef6414610122578063f8b2cb4f14610141578063ff925fe514610175575f80fd5b8063ac21b6f414610067578063d0e30db0146100a2578063e95c38e2146100ac575b5f80fd5b348015610072575f80fd5b505f54610085906001600160a01b031681565b6040516001600160a01b0390911681526020015b60405180910390f35b6100aa610194565b005b3480156100b7575f80fd5b506101146100c636600461078c565b6040516bffffffffffffffffffffffff19606085901b16602082015260348101839052605481018290525f906074016040516020818303038152906040528051906020012090509392505050565b604051908152602001610099565b34801561012d575f80fd5b506100aa61013c3660046107cc565b6101c2565b34801561014c575f80fd5b5061011461015b366004610828565b6001600160a01b03165f9081526002602052604090205490565b348015610180575f80fd5b50600154610085906001600160a01b031681565b61019d33610284565b335f90815260026020526040812080543492906101bb908490610848565b9091555050565b6101d1833560208501356102f9565b6101dc838383610370565b5f80546001600160a01b0390811682526002602090815260408084208054883590819003909155600154841685528185208054938901359093039092558354905192169281156108fc029290818181858888f19350505050158015610243573d5f803e3d5ffd5b506001546040516001600160a01b0390911690602085013580156108fc02915f818181858888f1935050505015801561027e573d5f803e3d5ffd5b50505050565b5f546001600160a01b038281169116148015906102af57506001546001600160a01b03828116911614155b156102f6576040517f7e65d0e50000000000000000000000000000000000000000000000000000000081526001600160a01b03821660048201526024015b60405180910390fd5b50565b6001546001600160a01b039081165f90815260026020526040808220548254909316825290205461032a9190610848565b6103348284610848565b111561036c576040517ff4d678b800000000000000000000000000000000000000000000000000000000815260040160405180910390fd5b5050565b5f805461045e90610412906103e0906001600160a01b0316873587865b60200201356040516bffffffffffffffffffffffff19606085901b16602082015260348101839052605481018290525f906074016040516020818303038152906040528051906020012090509392505050565b7f19457468657265756d205369676e6564204d6573736167653a0a3332000000005f908152601c91909152603c902090565b835f5b6020028101906104259190610867565b8080601f0160208091040260200160405190810160405280939291908181526020018383808284375f9201919091525061053392505050565b5f549091506001600160a01b038083169116146104aa5761047f8280610867565b5f54604051631dc85ed560e31b81526102ed93929185916001600160a01b03909116906004016108b1565b600180545f916104db916104d3916103e0916001600160a01b03169060208a013590899061038d565b846001610415565b6001549091506001600160a01b0380831691161461052c576105006020840184610867565b600154604051631dc85ed560e31b81526102ed93929185916001600160a01b03909116906004016108b1565b5050505050565b5f805f80610541868661055d565b92509250925061055182826105a6565b50909150505b92915050565b5f805f8351604103610594576020840151604085015160608601515f1a610586888285856106a9565b95509550955050505061059f565b505081515f91506002905b9250925092565b5f8260038111156105b9576105b96108f7565b036105c2575050565b60018260038111156105d6576105d66108f7565b0361060d576040517ff645eedf00000000000000000000000000000000000000000000000000000000815260040160405180910390fd5b6002826003811115610621576106216108f7565b0361065b576040517ffce698f7000000000000000000000000000000000000000000000000000000008152600481018290526024016102ed565b600382600381111561066f5761066f6108f7565b0361036c576040517fd78bce0c000000000000000000000000000000000000000000000000000000008152600481018290526024016102ed565b5f80807f7fffffffffffffffffffffffffffffff5d576e7357a4501ddfe92f46681b20a08411156106e257505f91506003905082610767565b604080515f808252602082018084528a905260ff891692820192909252606081018790526080810186905260019060a0016020604051602081039080840390855afa158015610733573d5f803e3d5ffd5b5050604051601f1901519150506001600160a01b03811661075e57505f925060019150829050610767565b92505f91508190505b9450945094915050565b80356001600160a01b0381168114610787575f80fd5b919050565b5f805f6060848603121561079e575f80fd5b6107a784610771565b95602085013595506040909401359392505050565b8060408101831015610557575f80fd5b5f805f60a084860312156107de575f80fd5b6107e885856107bc565b92506107f785604086016107bc565b9150608084013567ffffffffffffffff811115610812575f80fd5b61081e868287016107bc565b9150509250925092565b5f60208284031215610838575f80fd5b61084182610771565b9392505050565b8082018082111561055757634e487b7160e01b5f52601160045260245ffd5b5f808335601e1984360301811261087c575f80fd5b83018035915067ffffffffffffffff821115610896575f80fd5b6020019150368190038213156108aa575f80fd5b9250929050565b60608152836060820152838560808301375f60808583018101919091526001600160a01b039384166020830152919092166040830152601f909201601f19160101919050565b634e487b7160e01b5f52602160045260245ffdfea264697066735822122012cc09f84c02141f33a4cbfeefcb8a4ff522c1e4d404f7a1724c820230ce4a9664736f6c63430008190033",
					"opcodes": "PUSH1 0x80 PUSH1 0x40 MSTORE CALLVALUE DUP1 ISZERO PUSH1 0xE JUMPI PUSH0 DUP1 REVERT JUMPDEST POP PUSH1 0x40 MLOAD PUSH2 0x9EE CODESIZE SUB DUP1 PUSH2 0x9EE DUP4 CODECOPY DUP2 ADD PUSH1 0x40 DUP2 SWAP1 MSTORE PUSH1 0x2B SWAP2 PUSH1 0x74 JUMP JUMPDEST PUSH0 DUP1 SLOAD PUSH1 0x1 PUSH1 0x1 PUSH1 0xA0 SHL SUB SWAP4 DUP5 AND PUSH1 0x1 PUSH1 0x1 PUSH1 0xA0 SHL SUB NOT SWAP2 DUP3 AND OR SWAP1 SWAP2 SSTORE PUSH1 0x1 DUP1 SLOAD SWAP3 SWAP1 SWAP4 AND SWAP2 AND OR SWAP1 SSTORE PUSH1 0xA0 JUMP JUMPDEST DUP1 MLOAD PUSH1 0x1 PUSH1 0x1 PUSH1 0xA0 SHL SUB DUP2 AND DUP2 EQ PUSH1 0x6F JUMPI PUSH0 DUP1 REVERT JUMPDEST SWAP2 SWAP1 POP JUMP JUMPDEST PUSH0 DUP1 PUSH1 0x40 DUP4 DUP6 SUB SLT ISZERO PUSH1 0x84 JUMPI PUSH0 DUP1 REVERT JUMPDEST PUSH1 0x8B DUP4 PUSH1 0x5A JUMP JUMPDEST SWAP2 POP PUSH1 0x97 PUSH1 0x20 DUP5 ADD PUSH1 0x5A JUMP JUMPDEST SWAP1 POP SWAP3 POP SWAP3 SWAP1 POP JUMP JUMPDEST PUSH2 0x941 DUP1 PUSH2 0xAD PUSH0 CODECOPY PUSH0 RETURN INVALID PUSH1 0x80 PUSH1 0x40 MSTORE PUSH1 0x4 CALLDATASIZE LT PUSH2 0x63 JUMPI PUSH0 CALLDATALOAD PUSH1 0xE0 SHR DUP1 PUSH4 0xF34EEF64 GT PUSH2 0x41 JUMPI DUP1 PUSH4 0xF34EEF64 EQ PUSH2 0x122 JUMPI DUP1 PUSH4 0xF8B2CB4F EQ PUSH2 0x141 JUMPI DUP1 PUSH4 0xFF925FE5 EQ PUSH2 0x175 JUMPI PUSH0 DUP1 REVERT JUMPDEST DUP1 PUSH4 0xAC21B6F4 EQ PUSH2 0x67 JUMPI DUP1 PUSH4 0xD0E30DB0 EQ PUSH2 0xA2 JUMPI DUP1 PUSH4 0xE95C38E2 EQ PUSH2 0xAC JUMPI JUMPDEST PUSH0 DUP1 REVERT JUMPDEST CALLVALUE DUP1 ISZERO PUSH2 0x72 JUMPI PUSH0 DUP1 REVERT JUMPDEST POP PUSH0 SLOAD PUSH2 0x85 SWAP1 PUSH1 0x1 PUSH1 0x1 PUSH1 0xA0 SHL SUB AND DUP2 JUMP JUMPDEST PUSH1 0x40 MLOAD PUSH1 0x1 PUSH1 0x1 PUSH1 0xA0 SHL SUB SWAP1 SWAP2 AND DUP2 MSTORE PUSH1 0x20 ADD JUMPDEST PUSH1 0x40 MLOAD DUP1 SWAP2 SUB SWAP1 RETURN JUMPDEST PUSH2 0xAA PUSH2 0x194 JUMP JUMPDEST STOP JUMPDEST CALLVALUE DUP1 ISZERO PUSH2 0xB7 JUMPI PUSH0 DUP1 REVERT JUMPDEST POP PUSH2 0x114 PUSH2 0xC6 CALLDATASIZE PUSH1 0x4 PUSH2 0x78C JUMP JUMPDEST PUSH1 0x40 MLOAD PUSH12 0xFFFFFFFFFFFFFFFFFFFFFFFF NOT PUSH1 0x60 DUP6 SWAP1 SHL AND PUSH1 0x20 DUP3 ADD MSTORE PUSH1 0x34 DUP2 ADD DUP4 SWAP1 MSTORE PUSH1 0x54 DUP2 ADD DUP3 SWAP1 MSTORE PUSH0 SWAP1 PUSH1 0x74 ADD PUSH1 0x40 MLOAD PUSH1 0x20 DUP2 DUP4 SUB SUB DUP2 MSTORE SWAP1 PUSH1 0x40 MSTORE DUP1 MLOAD SWAP1 PUSH1 0x20 ADD KECCAK256 SWAP1 POP SWAP4 SWAP3 POP POP POP JUMP JUMPDEST PUSH1 0x40 MLOAD SWAP1 DUP2 MSTORE PUSH1 0x20 ADD PUSH2 0x99 JUMP JUMPDEST CALLVALUE DUP1 ISZERO PUSH2 0x12D JUMPI PUSH0 DUP1 REVERT JUMPDEST POP PUSH2 0xAA PUSH2 0x13C CALLDATASIZE PUSH1 0x4 PUSH2 0x7CC JUMP JUMPDEST PUSH2 0x1C2 JUMP JUMPDEST CALLVALUE DUP1 ISZERO PUSH2 0x14C JUMPI PUSH0 DUP1 REVERT JUMPDEST POP PUSH2 0x114 PUSH2 0x15B CALLDATASIZE PUSH1 0x4 PUSH2 0x828 JUMP JUMPDEST PUSH1 0x1 PUSH1 0x1 PUSH1 0xA0 SHL SUB AND PUSH0 SWAP1 DUP2 MSTORE PUSH1 0x2 PUSH1 0x20 MSTORE PUSH1 0x40 SWAP1 KECCAK256 SLOAD SWAP1 JUMP JUMPDEST CALLVALUE DUP1 ISZERO PUSH2 0x180 JUMPI PUSH0 DUP1 REVERT JUMPDEST POP PUSH1 0x1 SLOAD PUSH2 0x85 SWAP1 PUSH1 0x1 PUSH1 0x1 PUSH1 0xA0 SHL SUB AND DUP2 JUMP JUMPDEST PUSH2 0x19D CALLER PUSH2 0x284 JUMP JUMPDEST CALLER PUSH0 SWAP1 DUP2 MSTORE PUSH1 0x2 PUSH1 0x20 MSTORE PUSH1 0x40 DUP2 KECCAK256 DUP1 SLOAD CALLVALUE SWAP3 SWAP1 PUSH2 0x1BB SWAP1 DUP5 SWAP1 PUSH2 0x848 JUMP JUMPDEST SWAP1 SWAP2 SSTORE POP POP JUMP JUMPDEST PUSH2 0x1D1 DUP4 CALLDATALOAD PUSH1 0x20 DUP6 ADD CALLDATALOAD PUSH2 0x2F9 JUMP JUMPDEST PUSH2 0x1DC DUP4 DUP4 DUP4 PUSH2 0x370 JUMP JUMPDEST PUSH0 DUP1 SLOAD PUSH1 0x1 PUSH1 0x1 PUSH1 0xA0 SHL SUB SWAP1 DUP2 AND DUP3 MSTORE PUSH1 0x2 PUSH1 0x20 SWAP1 DUP2 MSTORE PUSH1 0x40 DUP1 DUP5 KECCAK256 DUP1 SLOAD DUP9 CALLDATALOAD SWAP1 DUP2 SWAP1 SUB SWAP1 SWAP2 SSTORE PUSH1 0x1 SLOAD DUP5 AND DUP6 MSTORE DUP2 DUP6 KECCAK256 DUP1 SLOAD SWAP4 DUP10 ADD CALLDATALOAD SWAP1 SWAP4 SUB SWAP1 SWAP3 SSTORE DUP4 SLOAD SWAP1 MLOAD SWAP3 AND SWAP3 DUP2 ISZERO PUSH2 0x8FC MUL SWAP3 SWAP1 DUP2 DUP2 DUP2 DUP6 DUP9 DUP9 CALL SWAP4 POP POP POP POP ISZERO DUP1 ISZERO PUSH2 0x243 JUMPI RETURNDATASIZE PUSH0 DUP1 RETURNDATACOPY RETURNDATASIZE PUSH0 REVERT JUMPDEST POP PUSH1 0x1 SLOAD PUSH1 0x40 MLOAD PUSH1 0x1 PUSH1 0x1 PUSH1 0xA0 SHL SUB SWAP1 SWAP2 AND SWAP1 PUSH1 0x20 DUP6 ADD CALLDATALOAD DUP1 ISZERO PUSH2 0x8FC MUL SWAP2 PUSH0 DUP2 DUP2 DUP2 DUP6 DUP9 DUP9 CALL SWAP4 POP POP POP POP ISZERO DUP1 ISZERO PUSH2 0x27E JUMPI RETURNDATASIZE PUSH0 DUP1 RETURNDATACOPY RETURNDATASIZE PUSH0 REVERT JUMPDEST POP POP POP POP JUMP JUMPDEST PUSH0 SLOAD PUSH1 0x1 PUSH1 0x1 PUSH1 0xA0 SHL SUB DUP3 DUP2 AND SWAP2 AND EQ DUP1 ISZERO SWAP1 PUSH2 0x2AF JUMPI POP PUSH1 0x1 SLOAD PUSH1 0x1 PUSH1 0x1 PUSH1 0xA0 SHL SUB DUP3 DUP2 AND SWAP2 AND EQ ISZERO JUMPDEST ISZERO PUSH2 0x2F6 JUMPI PUSH1 0x40 MLOAD PUSH32 0x7E65D0E500000000000000000000000000000000000000000000000000000000 DUP2 MSTORE PUSH1 0x1 PUSH1 0x1 PUSH1 0xA0 SHL SUB DUP3 AND PUSH1 0x4 DUP3 ADD MSTORE PUSH1 0x24 ADD JUMPDEST PUSH1 0x40 MLOAD DUP1 SWAP2 SUB SWAP1 REVERT JUMPDEST POP JUMP JUMPDEST PUSH1 0x1 SLOAD PUSH1 0x1 PUSH1 0x1 PUSH1 0xA0 SHL SUB SWAP1 DUP2 AND PUSH0 SWAP1 DUP2 MSTORE PUSH1 0x2 PUSH1 0x20 MSTORE PUSH1 0x40 DUP1 DUP3 KECCAK256 SLOAD DUP3 SLOAD SWAP1 SWAP4 AND DUP3 MSTORE SWAP1 KECCAK256 SLOAD PUSH2 0x32A SWAP2 SWAP1 PUSH2 0x848 JUMP JUMPDEST PUSH2 0x334 DUP3 DUP5 PUSH2 0x848 JUMP JUMPDEST GT ISZERO PUSH2 0x36C JUMPI PUSH1 0x40 MLOAD PUSH32 0xF4D678B800000000000000000000000000000000000000000000000000000000 DUP2 MSTORE PUSH1 0x4 ADD PUSH1 0x40 MLOAD DUP1 SWAP2 SUB SWAP1 REVERT JUMPDEST POP POP JUMP JUMPDEST PUSH0 DUP1 SLOAD PUSH2 0x45E SWAP1 PUSH2 0x412 SWAP1 PUSH2 0x3E0 SWAP1 PUSH1 0x1 PUSH1 0x1 PUSH1 0xA0 SHL SUB AND DUP8 CALLDATALOAD DUP8 DUP7 JUMPDEST PUSH1 0x20 MUL ADD CALLDATALOAD PUSH1 0x40 MLOAD PUSH12 0xFFFFFFFFFFFFFFFFFFFFFFFF NOT PUSH1 0x60 DUP6 SWAP1 SHL AND PUSH1 0x20 DUP3 ADD MSTORE PUSH1 0x34 DUP2 ADD DUP4 SWAP1 MSTORE PUSH1 0x54 DUP2 ADD DUP3 SWAP1 MSTORE PUSH0 SWAP1 PUSH1 0x74 ADD PUSH1 0x40 MLOAD PUSH1 0x20 DUP2 DUP4 SUB SUB DUP2 MSTORE SWAP1 PUSH1 0x40 MSTORE DUP1 MLOAD SWAP1 PUSH1 0x20 ADD KECCAK256 SWAP1 POP SWAP4 SWAP3 POP POP POP JUMP JUMPDEST PUSH32 0x19457468657265756D205369676E6564204D6573736167653A0A333200000000 PUSH0 SWAP1 DUP2 MSTORE PUSH1 0x1C SWAP2 SWAP1 SWAP2 MSTORE PUSH1 0x3C SWAP1 KECCAK256 SWAP1 JUMP JUMPDEST DUP4 PUSH0 JUMPDEST PUSH1 0x20 MUL DUP2 ADD SWAP1 PUSH2 0x425 SWAP2 SWAP1 PUSH2 0x867 JUMP JUMPDEST DUP1 DUP1 PUSH1 0x1F ADD PUSH1 0x20 DUP1 SWAP2 DIV MUL PUSH1 0x20 ADD PUSH1 0x40 MLOAD SWAP1 DUP2 ADD PUSH1 0x40 MSTORE DUP1 SWAP4 SWAP3 SWAP2 SWAP1 DUP2 DUP2 MSTORE PUSH1 0x20 ADD DUP4 DUP4 DUP1 DUP3 DUP5 CALLDATACOPY PUSH0 SWAP3 ADD SWAP2 SWAP1 SWAP2 MSTORE POP PUSH2 0x533 SWAP3 POP POP POP JUMP JUMPDEST PUSH0 SLOAD SWAP1 SWAP2 POP PUSH1 0x1 PUSH1 0x1 PUSH1 0xA0 SHL SUB DUP1 DUP4 AND SWAP2 AND EQ PUSH2 0x4AA JUMPI PUSH2 0x47F DUP3 DUP1 PUSH2 0x867 JUMP JUMPDEST PUSH0 SLOAD PUSH1 0x40 MLOAD PUSH4 0x1DC85ED5 PUSH1 0xE3 SHL DUP2 MSTORE PUSH2 0x2ED SWAP4 SWAP3 SWAP2 DUP6 SWAP2 PUSH1 0x1 PUSH1 0x1 PUSH1 0xA0 SHL SUB SWAP1 SWAP2 AND SWAP1 PUSH1 0x4 ADD PUSH2 0x8B1 JUMP JUMPDEST PUSH1 0x1 DUP1 SLOAD PUSH0 SWAP2 PUSH2 0x4DB SWAP2 PUSH2 0x4D3 SWAP2 PUSH2 0x3E0 SWAP2 PUSH1 0x1 PUSH1 0x1 PUSH1 0xA0 SHL SUB AND SWAP1 PUSH1 0x20 DUP11 ADD CALLDATALOAD SWAP1 DUP10 SWAP1 PUSH2 0x38D JUMP JUMPDEST DUP5 PUSH1 0x1 PUSH2 0x415 JUMP JUMPDEST PUSH1 0x1 SLOAD SWAP1 SWAP2 POP PUSH1 0x1 PUSH1 0x1 PUSH1 0xA0 SHL SUB DUP1 DUP4 AND SWAP2 AND EQ PUSH2 0x52C JUMPI PUSH2 0x500 PUSH1 0x20 DUP5 ADD DUP5 PUSH2 0x867 JUMP JUMPDEST PUSH1 0x1 SLOAD PUSH1 0x40 MLOAD PUSH4 0x1DC85ED5 PUSH1 0xE3 SHL DUP2 MSTORE PUSH2 0x2ED SWAP4 SWAP3 SWAP2 DUP6 SWAP2 PUSH1 0x1 PUSH1 0x1 PUSH1 0xA0 SHL SUB SWAP1 SWAP2 AND SWAP1 PUSH1 0x4 ADD PUSH2 0x8B1 JUMP JUMPDEST POP POP POP POP POP JUMP JUMPDEST PUSH0 DUP1 PUSH0 DUP1 PUSH2 0x541 DUP7 DUP7 PUSH2 0x55D JUMP JUMPDEST SWAP3 POP SWAP3 POP SWAP3 POP PUSH2 0x551 DUP3 DUP3 PUSH2 0x5A6 JUMP JUMPDEST POP SWAP1 SWAP2 POP POP JUMPDEST SWAP3 SWAP2 POP POP JUMP JUMPDEST PUSH0 DUP1 PUSH0 DUP4 MLOAD PUSH1 0x41 SUB PUSH2 0x594 JUMPI PUSH1 0x20 DUP5 ADD MLOAD PUSH1 0x40 DUP6 ADD MLOAD PUSH1 0x60 DUP7 ADD MLOAD PUSH0 BYTE PUSH2 0x586 DUP9 DUP3 DUP6 DUP6 PUSH2 0x6A9 JUMP JUMPDEST SWAP6 POP SWAP6 POP SWAP6 POP POP POP POP PUSH2 0x59F JUMP JUMPDEST POP POP DUP2 MLOAD PUSH0 SWAP2 POP PUSH1 0x2 SWAP1 JUMPDEST SWAP3 POP SWAP3 POP SWAP3 JUMP JUMPDEST PUSH0 DUP3 PUSH1 0x3 DUP2 GT ISZERO PUSH2 0x5B9 JUMPI PUSH2 0x5B9 PUSH2 0x8F7 JUMP JUMPDEST SUB PUSH2 0x5C2 JUMPI POP POP JUMP JUMPDEST PUSH1 0x1 DUP3 PUSH1 0x3 DUP2 GT ISZERO PUSH2 0x5D6 JUMPI PUSH2 0x5D6 PUSH2 0x8F7 JUMP JUMPDEST SUB PUSH2 0x60D JUMPI PUSH1 0x40 MLOAD PUSH32 0xF645EEDF00000000000000000000000000000000000000000000000000000000 DUP2 MSTORE PUSH1 0x4 ADD PUSH1 0x40 MLOAD DUP1 SWAP2 SUB SWAP1 REVERT JUMPDEST PUSH1 0x2 DUP3 PUSH1 0x3 DUP2 GT ISZERO PUSH2 0x621 JUMPI PUSH2 0x621 PUSH2 0x8F7 JUMP JUMPDEST SUB PUSH2 0x65B JUMPI PUSH1 0x40 MLOAD PUSH32 0xFCE698F700000000000000000000000000000000000000000000000000000000 DUP2 MSTORE PUSH1 0x4 DUP2 ADD DUP3 SWAP1 MSTORE PUSH1 0x24 ADD PUSH2 0x2ED JUMP JUMPDEST PUSH1 0x3 DUP3 PUSH1 0x3 DUP2 GT ISZERO PUSH2 0x66F JUMPI PUSH2 0x66F PUSH2 0x8F7 JUMP JUMPDEST SUB PUSH2 0x36C JUMPI PUSH1 0x40 MLOAD PUSH32 0xD78BCE0C00000000000000000000000000000000000000000000000000000000 DUP2 MSTORE PUSH1 0x4 DUP2 ADD DUP3 SWAP1 MSTORE PUSH1 0x24 ADD PUSH2 0x2ED JUMP JUMPDEST PUSH0 DUP1 DUP1 PUSH32 0x7FFFFFFFFFFFFFFFFFFFFFFFFFFFFFFF5D576E7357A4501DDFE92F46681B20A0 DUP5 GT ISZERO PUSH2 0x6E2 JUMPI POP PUSH0 SWAP2 POP PUSH1 0x3 SWAP1 POP DUP3 PUSH2 0x767 JUMP JUMPDEST PUSH1 0x40 DUP1 MLOAD PUSH0 DUP1 DUP3 MSTORE PUSH1 0x20 DUP3 ADD DUP1 DUP5 MSTORE DUP11 SWAP1 MSTORE PUSH1 0xFF DUP10 AND SWAP3 DUP3 ADD SWAP3 SWAP1 SWAP3 MSTORE PUSH1 0x60 DUP2 ADD DUP8 SWAP1 MSTORE PUSH1 0x80 DUP2 ADD DUP7 SWAP1 MSTORE PUSH1 0x1 SWAP1 PUSH1 0xA0 ADD PUSH1 0x20 PUSH1 0x40 MLOAD PUSH1 0x20 DUP2 SUB SWAP1 DUP1 DUP5 SUB SWAP1 DUP6 GAS STATICCALL ISZERO DUP1 ISZERO PUSH2 0x733 JUMPI RETURNDATASIZE PUSH0 DUP1 RETURNDATACOPY RETURNDATASIZE PUSH0 REVERT JUMPDEST POP POP PUSH1 0x40 MLOAD PUSH1 0x1F NOT ADD MLOAD SWAP2 POP POP PUSH1 0x1 PUSH1 0x1 PUSH1 0xA0 SHL SUB DUP2 AND PUSH2 0x75E JUMPI POP PUSH0 SWAP3 POP PUSH1 0x1 SWAP2 POP DUP3 SWAP1 POP PUSH2 0x767 JUMP JUMPDEST SWAP3 POP PUSH0 SWAP2 POP DUP2 SWAP1 POP JUMPDEST SWAP5 POP SWAP5 POP SWAP5 SWAP2 POP POP JUMP JUMPDEST DUP1 CALLDATALOAD PUSH1 0x1 PUSH1 0x1 PUSH1 0xA0 SHL SUB DUP2 AND DUP2 EQ PUSH2 0x787 JUMPI PUSH0 DUP1 REVERT JUMPDEST SWAP2 SWAP1 POP JUMP JUMPDEST PUSH0 DUP1 PUSH0 PUSH1 0x60 DUP5 DUP7 SUB SLT ISZERO PUSH2 0x79E JUMPI PUSH0 DUP1 REVERT JUMPDEST PUSH2 0x7A7 DUP5 PUSH2 0x771 JUMP JUMPDEST SWAP6 PUSH1 0x20 DUP6 ADD CALLDATALOAD SWAP6 POP PUSH1 0x40 SWAP1 SWAP5 ADD CALLDATALOAD SWAP4 SWAP3 POP POP POP JUMP JUMPDEST DUP1 PUSH1 0x40 DUP2 ADD DUP4 LT ISZERO PUSH2 0x557 JUMPI PUSH0 DUP1 REVERT JUMPDEST PUSH0 DUP1 PUSH0 PUSH1 0xA0 DUP5 DUP7 SUB SLT ISZERO PUSH2 0x7DE JUMPI PUSH0 DUP1 REVERT JUMPDEST PUSH2 0x7E8 DUP6 DUP6 PUSH2 0x7BC JUMP JUMPDEST SWAP3 POP PUSH2 0x7F7 DUP6 PUSH1 0x40 DUP7 ADD PUSH2 0x7BC JUMP JUMPDEST SWAP2 POP PUSH1 0x80 DUP5 ADD CALLDATALOAD PUSH8 0xFFFFFFFFFFFFFFFF DUP2 GT ISZERO PUSH2 0x812 JUMPI PUSH0 DUP1 REVERT JUMPDEST PUSH2 0x81E DUP7 DUP3 DUP8 ADD PUSH2 0x7BC JUMP JUMPDEST SWAP2 POP POP SWAP3 POP SWAP3 POP SWAP3 JUMP JUMPDEST PUSH0 PUSH1 0x20 DUP3 DUP5 SUB SLT ISZERO PUSH2 0x838 JUMPI PUSH0 DUP1 REVERT JUMPDEST PUSH2 0x841 DUP3 PUSH2 0x771 JUMP JUMPDEST SWAP4 SWAP3 POP POP POP JUMP JUMPDEST DUP1 DUP3 ADD DUP1 DUP3 GT ISZERO PUSH2 0x557 JUMPI PUSH4 0x4E487B71 PUSH1 0xE0 SHL PUSH0 MSTORE PUSH1 0x11 PUSH1 0x4 MSTORE PUSH1 0x24 PUSH0 REVERT JUMPDEST PUSH0 DUP1 DUP4 CALLDATALOAD PUSH1 0x1E NOT DUP5 CALLDATASIZE SUB ADD DUP2 SLT PUSH2 0x87C JUMPI PUSH0 DUP1 REVERT JUMPDEST DUP4 ADD DUP1 CALLDATALOAD SWAP2 POP PUSH8 0xFFFFFFFFFFFFFFFF DUP3 GT ISZERO PUSH2 0x896 JUMPI PUSH0 DUP1 REVERT JUMPDEST PUSH1 0x20 ADD SWAP2 POP CALLDATASIZE DUP2 SWAP1 SUB DUP3 SGT ISZERO PUSH2 0x8AA JUMPI PUSH0 DUP1 REVERT JUMPDEST SWAP3 POP SWAP3 SWAP1 POP JUMP JUMPDEST PUSH1 0x60 DUP2 MSTORE DUP4 PUSH1 0x60 DUP3 ADD MSTORE DUP4 DUP6 PUSH1 0x80 DUP4 ADD CALLDATACOPY PUSH0 PUSH1 0x80 DUP6 DUP4 ADD DUP2 ADD SWAP2 SWAP1 SWAP2 MSTORE PUSH1 0x1 PUSH1 0x1 PUSH1 0xA0 SHL SUB SWAP4 DUP5 AND PUSH1 0x20 DUP4 ADD MSTORE SWAP2 SWAP1 SWAP3 AND PUSH1 0x40 DUP4 ADD MSTORE PUSH1 0x1F SWAP1 SWAP3 ADD PUSH1 0x1F NOT AND ADD ADD SWAP2 SWAP1 POP JUMP JUMPDEST PUSH4 0x4E487B71 PUSH1 0xE0 SHL PUSH0 MSTORE PUSH1 0x21 PUSH1 0x4 MSTORE PUSH1 0x24 PUSH0 REVERT INVALID LOG2 PUSH5 0x6970667358 0x22 SLT KECCAK256 SLT 0xCC MULMOD 0xF8 0x4C MUL EQ 0x1F CALLER LOG4 0xCB INVALID 0xEF 0xCB DUP11 0x4F CREATE2 0x22 0xC1 0xE4 0xD4 DIV 0xF7 LOG1 PUSH19 0x4C820230CE4A9664736F6C6343000819003300 "
				},
				"gasEstimates": {
					"creation": {
						"codeDepositCost": "473800",
						"executionCost": "infinite",
						"totalCost": "infinite"
					},
					"external": {
						"deposit()": "28855",
						"getBalance(address)": "2556",
						"getTransactionHash(address,uint256,bytes32)": "644",
						"participantA()": "2325",
						"participantB()": "2369",
						"settleChannel(uint256[2],bytes32[2],bytes[2])": "infinite"
					},
					"internal": {
						"_checkEnoughBalance(uint256,uint256)": "infinite",
						"_checkParticipant(address)": "infinite",
						"_verify(uint256[2] calldata,bytes32[2] calldata,bytes calldata[2] calldata)": "infinite"
					}
				},
				"methodIdentifiers": {
					"deposit()": "d0e30db0",
					"getBalance(address)": "f8b2cb4f",
					"getTransactionHash(address,uint256,bytes32)": "e95c38e2",
					"participantA()": "ac21b6f4",
					"participantB()": "ff925fe5",
					"settleChannel(uint256[2],bytes32[2],bytes[2])": "f34eef64"
				}
			},
			"storageLayout": {
				"storage": [
					{
						"astId": 11,
						"contract": "contracts/ContractW/ContractWV1.sol:ContractWV1",
						"label": "participantA",
						"offset": 0,
						"slot": "0",
						"type": "t_address_payable"
					},
					{
						"astId": 13,
						"contract": "contracts/ContractW/ContractWV1.sol:ContractWV1",
						"label": "participantB",
						"offset": 0,
						"slot": "1",
						"type": "t_address_payable"
					},
					{
						"astId": 17,
						"contract": "contracts/ContractW/ContractWV1.sol:ContractWV1",
						"label": "balances",
						"offset": 0,
						"slot": "2",
						"type": "t_mapping(t_address,t_uint256)"
					}
				],
				"types": {
					"t_address": {
						"encoding": "inplace",
						"label": "address",
						"numberOfBytes": "20"
					},
					"t_address_payable": {
						"encoding": "inplace",
						"label": "address payable",
						"numberOfBytes": "20"
					},
					"t_mapping(t_address,t_uint256)": {
						"encoding": "mapping",
						"key": "t_address",
						"label": "mapping(address => uint256)",
						"numberOfBytes": "32",
						"value": "t_uint256"
					},
					"t_uint256": {
						"encoding": "inplace",
						"label": "uint256",
						"numberOfBytes": "32"
					}
				}
			},
			"userdoc": {
				"kind": "user",
				"methods": {},
				"version": 1
			}
		}
	}
}