{
	"data": {
		"bytecode": {
			"linkReferences": {},
			"object": "6080604052348015600e575f80fd5b506106238061001c5f395ff3fe608060405234801561000f575f80fd5b50600436106101e7575f3560e01c80638a054ac211610109578063c3da42b81161009e578063e5aa3d581161006e578063e5aa3d5814610586578063ece866b91461059e578063fd3ab282146105b9578063ffae15ba146105d9575f80fd5b8063c3da42b814610511578063c5d7802e14610523578063c6a898c51461054c578063e2179b8e14610570575f80fd5b8063a56dfe4a116100d9578063a56dfe4a1461049f578063b4f40c61146104c7578063b582ec5f146104e1578063b8c9d365146104fa575f80fd5b80638a054ac21461041c57806392d0d1531461042f5780639ae8886a146104525780639debb68114610471575f80fd5b806350cd4df21161017f5780636c8ae38c1161014f5780636c8ae38c1461038a5780637c2efcba146103ab5780638466c3e6146103d057806386b714e2146103fa575f80fd5b806350cd4df2146102f557806354b7c39b146103135780635a2ee0191461033f5780635e813a8b1461035b575f80fd5b806326121ff0116101ba57806326121ff0146102855780632e52d6061461029a5780633e1430af146102b75780634df7e3d0146102e4575f80fd5b80630c55699c146101eb5780630dbe671f146102285780631fe5d6e314610234578063205c9cc71461025f575b5f80fd5b5f546102129077010000000000000000000000000000000000000000000000900460ff1681565b60405160ff909116815260200160405180910390f35b5f546102129060ff1681565b5f54610212907b01000000000000000000000000000000000000000000000000000000900460ff1681565b5f5461021290760100000000000000000000000000000000000000000000900460ff1681565b5f546102129065010000000000900460ff1681565b5f54610212906d0100000000000000000000000000900460ff1681565b5f54610212907d010000000000000000000000000000000000000000000000000000000000900460ff1681565b5f5461021290610100900460ff1681565b5f54610212906e010000000000000000000000000000900460ff1681565b5f54610212907c0100000000000000000000000000000000000000000000000000000000900460ff1681565b5f54610212906c01000000000000000000000000900460ff1681565b5f54610212907f0100000000000000000000000000000000000000000000000000000000000000900460ff1681565b5f546102129071010000000000000000000000000000000000900460ff1681565b5f54610212907501000000000000000000000000000000000000000000900460ff1681565b5f54610212907a010000000000000000000000000000000000000000000000000000900460ff1681565b5f54610212907201000000000000000000000000000000000000900460ff1681565b5f54610212906301000000900460ff1681565b5f5461021290730100000000000000000000000000000000000000900460ff1681565b5f54610212906f01000000000000000000000000000000900460ff1681565b5f54610212907e01000000000000000000000000000000000000000000000000000000000000900460ff1681565b5f54610212907801000000000000000000000000000000000000000000000000900460ff1681565b5f54610212906a0100000000000000000000900460ff1681565b5f54610212906901000000000000000000900460ff1681565b5f5461021290670100000000000000900460ff1681565b5f546102129062010000900460ff1681565b5f5461021290790100000000000000000000000000000000000000000000000000900460ff1681565b5f546102129074010000000000000000000000000000000000000000900460ff1681565b5f54610212906601000000000000900460ff1681565b5f546102129068010000000000000000900460ff1681565b5f54610212906b010000000000000000000000900460ff1681565b5f5461021290700100000000000000000000000000000000900460ff1681565b5f5461021290640100000000900460ff168156fea264697066735822122009f267b301411afa43f318b9ad4ee15764d8846bac352fc21413193e4bf93b1464736f6c63430008190033",
			"opcodes": "PUSH1 0x80 PUSH1 0x40 MSTORE CALLVALUE DUP1 ISZERO PUSH1 0xE JUMPI PUSH0 DUP1 REVERT JUMPDEST POP PUSH2 0x623 DUP1 PUSH2 0x1C PUSH0 CODECOPY PUSH0 RETURN INVALID PUSH1 0x80 PUSH1 0x40 MSTORE CALLVALUE DUP1 ISZERO PUSH2 0xF JUMPI PUSH0 DUP1 REVERT JUMPDEST POP PUSH1 0x4 CALLDATASIZE LT PUSH2 0x1E7 JUMPI PUSH0 CALLDATALOAD PUSH1 0xE0 SHR DUP1 PUSH4 0x8A054AC2 GT PUSH2 0x109 JUMPI DUP1 PUSH4 0xC3DA42B8 GT PUSH2 0x9E JUMPI DUP1 PUSH4 0xE5AA3D58 GT PUSH2 0x6E JUMPI DUP1 PUSH4 0xE5AA3D58 EQ PUSH2 0x586 JUMPI DUP1 PUSH4 0xECE866B9 EQ PUSH2 0x59E JUMPI DUP1 PUSH4 0xFD3AB282 EQ PUSH2 0x5B9 JUMPI DUP1 PUSH4 0xFFAE15BA EQ PUSH2 0x5D9 JUMPI PUSH0 DUP1 REVERT JUMPDEST DUP1 PUSH4 0xC3DA42B8 EQ PUSH2 0x511 JUMPI DUP1 PUSH4 0xC5D7802E EQ PUSH2 0x523 JUMPI DUP1 PUSH4 0xC6A898C5 EQ PUSH2 0x54C JUMPI DUP1 PUSH4 0xE2179B8E EQ PUSH2 0x570 JUMPI PUSH0 DUP1 REVERT JUMPDEST DUP1 PUSH4 0xA56DFE4A GT PUSH2 0xD9 JUMPI DUP1 PUSH4 0xA56DFE4A EQ PUSH2 0x49F JUMPI DUP1 PUSH4 0xB4F40C61 EQ PUSH2 0x4C7 JUMPI DUP1 PUSH4 0xB582EC5F EQ PUSH2 0x4E1 JUMPI DUP1 PUSH4 0xB8C9D365 EQ PUSH2 0x4FA JUMPI PUSH0 DUP1 REVERT JUMPDEST DUP1 PUSH4 0x8A054AC2 EQ PUSH2 0x41C JUMPI DUP1 PUSH4 0x92D0D153 EQ PUSH2 0x42F JUMPI DUP1 PUSH4 0x9AE8886A EQ PUSH2 0x452 JUMPI DUP1 PUSH4 0x9DEBB681 EQ PUSH2 0x471 JUMPI PUSH0 DUP1 REVERT JUMPDEST DUP1 PUSH4 0x50CD4DF2 GT PUSH2 0x17F JUMPI DUP1 PUSH4 0x6C8AE38C GT PUSH2 0x14F JUMPI DUP1 PUSH4 0x6C8AE38C EQ PUSH2 0x38A JUMPI DUP1 PUSH4 0x7C2EFCBA EQ PUSH2 0x3AB JUMPI DUP1 PUSH4 0x8466C3E6 EQ PUSH2 0x3D0 JUMPI DUP1 PUSH4 0x86B714E2 EQ PUSH2 0x3FA JUMPI PUSH0 DUP1 REVERT JUMPDEST DUP1 PUSH4 0x50CD4DF2 EQ PUSH2 0x2F5 JUMPI DUP1 PUSH4 0x54B7C39B EQ PUSH2 0x313 JUMPI DUP1 PUSH4 0x5A2EE019 EQ PUSH2 0x33F JUMPI DUP1 PUSH4 0x5E813A8B EQ PUSH2 0x35B JUMPI PUSH0 DUP1 REVERT JUMPDEST DUP1 PUSH4 0x26121FF0 GT PUSH2 0x1BA JUMPI DUP1 PUSH4 0x26121FF0 EQ PUSH2 0x285 JUMPI DUP1 PUSH4 0x2E52D606 EQ PUSH2 0x29A JUMPI DUP1 PUSH4 0x3E1430AF EQ PUSH2 0x2B7 JUMPI DUP1 PUSH4 0x4DF7E3D0 EQ PUSH2 0x2E4 JUMPI PUSH0 DUP1 REVERT JUMPDEST DUP1 PUSH4 0xC55699C EQ PUSH2 0x1EB JUMPI DUP1 PUSH4 0xDBE671F EQ PUSH2 0x228 JUMPI DUP1 PUSH4 0x1FE5D6E3 EQ PUSH2 0x234 JUMPI DUP1 PUSH4 0x205C9CC7 EQ PUSH2 0x25F JUMPI JUMPDEST PUSH0 DUP1 REVERT JUMPDEST PUSH0 SLOAD PUSH2 0x212 SWAP1 PUSH24 0x10000000000000000000000000000000000000000000000 SWAP1 DIV PUSH1 0xFF AND DUP2 JUMP JUMPDEST PUSH1 0x40 MLOAD PUSH1 0xFF SWAP1 SWAP2 AND DUP2 MSTORE PUSH1 0x20 ADD PUSH1 0x40 MLOAD DUP1 SWAP2 SUB SWAP1 RETURN JUMPDEST PUSH0 SLOAD PUSH2 0x212 SWAP1 PUSH1 0xFF AND DUP2 JUMP JUMPDEST PUSH0 SLOAD PUSH2 0x212 SWAP1 PUSH28 0x1000000000000000000000000000000000000000000000000000000 SWAP1 DIV PUSH1 0xFF AND DUP2 JUMP JUMPDEST PUSH0 SLOAD PUSH2 0x212 SWAP1 PUSH23 0x100000000000000000000000000000000000000000000 SWAP1 DIV PUSH1 0xFF AND DUP2 JUMP JUMPDEST PUSH0 SLOAD PUSH2 0x212 SWAP1 PUSH6 0x10000000000 SWAP1 DIV PUSH1 0xFF AND DUP2 JUMP JUMPDEST PUSH0 SLOAD PUSH2 0x212 SWAP1 PUSH14 0x100000000000000000000000000 SWAP1 DIV PUSH1 0xFF AND DUP2 JUMP JUMPDEST PUSH0 SLOAD PUSH2 0x212 SWAP1 PUSH30 0x10000000000000000000000000000000000000000000000000000000000 SWAP1 DIV PUSH1 0xFF AND DUP2 JUMP JUMPDEST PUSH0 SLOAD PUSH2 0x212 SWAP1 PUSH2 0x100 SWAP1 DIV PUSH1 0xFF AND DUP2 JUMP JUMPDEST PUSH0 SLOAD PUSH2 0x212 SWAP1 PUSH15 0x10000000000000000000000000000 SWAP1 DIV PUSH1 0xFF AND DUP2 JUMP JUMPDEST PUSH0 SLOAD PUSH2 0x212 SWAP1 PUSH29 0x100000000000000000000000000000000000000000000000000000000 SWAP1 DIV PUSH1 0xFF AND DUP2 JUMP JUMPDEST PUSH0 SLOAD PUSH2 0x212 SWAP1 PUSH13 0x1000000000000000000000000 SWAP1 DIV PUSH1 0xFF AND DUP2 JUMP JUMPDEST PUSH0 SLOAD PUSH2 0x212 SWAP1 PUSH32 0x100000000000000000000000000000000000000000000000000000000000000 SWAP1 DIV PUSH1 0xFF AND DUP2 JUMP JUMPDEST PUSH0 SLOAD PUSH2 0x212 SWAP1 PUSH18 0x10000000000000000000000000000000000 SWAP1 DIV PUSH1 0xFF AND DUP2 JUMP JUMPDEST PUSH0 SLOAD PUSH2 0x212 SWAP1 PUSH22 0x1000000000000000000000000000000000000000000 SWAP1 DIV PUSH1 0xFF AND DUP2 JUMP JUMPDEST PUSH0 SLOAD PUSH2 0x212 SWAP1 PUSH27 0x10000000000000000000000000000000000000000000000000000 SWAP1 DIV PUSH1 0xFF AND DUP2 JUMP JUMPDEST PUSH0 SLOAD PUSH2 0x212 SWAP1 PUSH19 0x1000000000000000000000000000000000000 SWAP1 DIV PUSH1 0xFF AND DUP2 JUMP JUMPDEST PUSH0 SLOAD PUSH2 0x212 SWAP1 PUSH4 0x1000000 SWAP1 DIV PUSH1 0xFF AND DUP2 JUMP JUMPDEST PUSH0 SLOAD PUSH2 0x212 SWAP1 PUSH20 0x100000000000000000000000000000000000000 SWAP1 DIV PUSH1 0xFF AND DUP2 JUMP JUMPDEST PUSH0 SLOAD PUSH2 0x212 SWAP1 PUSH16 0x1000000000000000000000000000000 SWAP1 DIV PUSH1 0xFF AND DUP2 JUMP JUMPDEST PUSH0 SLOAD PUSH2 0x212 SWAP1 PUSH31 0x1000000000000000000000000000000000000000000000000000000000000 SWAP1 DIV PUSH1 0xFF AND DUP2 JUMP JUMPDEST PUSH0 SLOAD PUSH2 0x212 SWAP1 PUSH25 0x1000000000000000000000000000000000000000000000000 SWAP1 DIV PUSH1 0xFF AND DUP2 JUMP JUMPDEST PUSH0 SLOAD PUSH2 0x212 SWAP1 PUSH11 0x100000000000000000000 SWAP1 DIV PUSH1 0xFF AND DUP2 JUMP JUMPDEST PUSH0 SLOAD PUSH2 0x212 SWAP1 PUSH10 0x1000000000000000000 SWAP1 DIV PUSH1 0xFF AND DUP2 JUMP JUMPDEST PUSH0 SLOAD PUSH2 0x212 SWAP1 PUSH8 0x100000000000000 SWAP1 DIV PUSH1 0xFF AND DUP2 JUMP JUMPDEST PUSH0 SLOAD PUSH2 0x212 SWAP1 PUSH3 0x10000 SWAP1 DIV PUSH1 0xFF AND DUP2 JUMP JUMPDEST PUSH0 SLOAD PUSH2 0x212 SWAP1 PUSH26 0x100000000000000000000000000000000000000000000000000 SWAP1 DIV PUSH1 0xFF AND DUP2 JUMP JUMPDEST PUSH0 SLOAD PUSH2 0x212 SWAP1 PUSH21 0x10000000000000000000000000000000000000000 SWAP1 DIV PUSH1 0xFF AND DUP2 JUMP JUMPDEST PUSH0 SLOAD PUSH2 0x212 SWAP1 PUSH7 0x1000000000000 SWAP1 DIV PUSH1 0xFF AND DUP2 JUMP JUMPDEST PUSH0 SLOAD PUSH2 0x212 SWAP1 PUSH9 0x10000000000000000 SWAP1 DIV PUSH1 0xFF AND DUP2 JUMP JUMPDEST PUSH0 SLOAD PUSH2 0x212 SWAP1 PUSH12 0x10000000000000000000000 SWAP1 DIV PUSH1 0xFF AND DUP2 JUMP JUMPDEST PUSH0 SLOAD PUSH2 0x212 SWAP1 PUSH17 0x100000000000000000000000000000000 SWAP1 DIV PUSH1 0xFF AND DUP2 JUMP JUMPDEST PUSH0 SLOAD PUSH2 0x212 SWAP1 PUSH5 0x100000000 SWAP1 DIV PUSH1 0xFF AND DUP2 JUMP INVALID LOG2 PUSH5 0x6970667358 0x22 SLT KECCAK256 MULMOD CALLCODE PUSH8 0xB301411AFA43F318 0xB9 0xAD 0x4E 0xE1 JUMPI PUSH5 0xD8846BAC35 0x2F 0xC2 EQ SGT NOT RETURNDATACOPY 0x4B 0xF9 EXTCODESIZE EQ PUSH5 0x736F6C6343 STOP ADDMOD NOT STOP CALLER "
		},
		"gasEstimates": {
			"creation": {
				"codeDepositCost": "314200",
				"executionCost": "353",
				"totalCost": "314553"
			},
			"external": {
				"a()": "2368",
				"aa()": "2399",
				"ab()": "2401",
				"ac()": "2378",
				"ad()": "2400",
				"ae()": "2422",
				"af()": "2422",
				"b()": "2422",
				"c()": "2355",
				"d()": "2356",
				"e()": "2420",
				"f()": "2356",
				"g()": "2421",
				"h()": "2421",
				"i()": "2354",
				"j()": "2399",
				"k()": "2377",
				"l()": "2376",
				"m()": "2400",
				"n()": "2378",
				"o()": "2356",
				"p()": "2400",
				"q()": "2398",
				"r()": "2355",
				"s()": "2421",
				"t()": "2378",
				"u()": "2399",
				"v()": "2377",
				"w()": "2423",
				"x()": "2357",
				"y()": "2355",
				"z()": "2377"
			}
		},
		"methodIdentifiers": {
			"a()": "0dbe671f",
			"aa()": "8466c3e6",
			"ab()": "1fe5d6e3",
			"ac()": "54b7c39b",
			"ad()": "3e1430af",
			"ae()": "9debb681",
			"af()": "5e813a8b",
			"b()": "4df7e3d0",
			"c()": "c3da42b8",
			"d()": "8a054ac2",
			"e()": "ffae15ba",
			"f()": "26121ff0",
			"g()": "e2179b8e",
			"h()": "b8c9d365",
			"i()": "e5aa3d58",
			"j()": "b582ec5f",
			"k()": "b4f40c61",
			"l()": "ece866b9",
			"m()": "5a2ee019",
			"n()": "2e52d606",
			"o()": "50cd4df2",
			"p()": "9ae8886a",
			"q()": "fd3ab282",
			"r()": "6c8ae38c",
			"s()": "86b714e2",
			"t()": "92d0d153",
			"u()": "c6a898c5",
			"v()": "7c2efcba",
			"w()": "205c9cc7",
			"x()": "0c55699c",
			"y()": "a56dfe4a",
			"z()": "c5d7802e"
		}
	},
	"abi": [
		{
			"inputs": [],
			"name": "a",
			"outputs": [
				{
					"internalType": "uint8",
					"name": "",
					"type": "uint8"
				}
			],
			"stateMutability": "view",
			"type": "function"
		},
		{
			"inputs": [],
			"name": "aa",
			"outputs": [
				{
					"internalType": "uint8",
					"name": "",
					"type": "uint8"
				}
			],
			"stateMutability": "view",
			"type": "function"
		},
		{
			"inputs": [],
			"name": "ab",
			"outputs": [
				{
					"internalType": "uint8",
					"name": "",
					"type": "uint8"
				}
			],
			"stateMutability": "view",
			"type": "function"
		},
		{
			"inputs": [],
			"name": "ac",
			"outputs": [
				{
					"internalType": "uint8",
					"name": "",
					"type": "uint8"
				}
			],
			"stateMutability": "view",
			"type": "function"
		},
		{
			"inputs": [],
			"name": "ad",
			"outputs": [
				{
					"internalType": "uint8",
					"name": "",
					"type": "uint8"
				}
			],
			"stateMutability": "view",
			"type": "function"
		},
		{
			"inputs": [],
			"name": "ae",
			"outputs": [
				{
					"internalType": "uint8",
					"name": "",
					"type": "uint8"
				}
			],
			"stateMutability": "view",
			"type": "function"
		},
		{
			"inputs": [],
			"name": "af",
			"outputs": [
				{
					"internalType": "uint8",
					"name": "",
					"type": "uint8"
				}
			],
			"stateMutability": "view",
			"type": "function"
		},
		{
			"inputs": [],
			"name": "b",
			"outputs": [
				{
					"internalType": "uint8",
					"name": "",
					"type": "uint8"
				}
			],
			"stateMutability": "view",
			"type": "function"
		},
		{
			"inputs": [],
			"name": "c",
			"outputs": [
				{
					"internalType": "uint8",
					"name": "",
					"type": "uint8"
				}
			],
			"stateMutability": "view",
			"type": "function"
		},
		{
			"inputs": [],
			"name": "d",
			"outputs": [
				{
					"internalType": "uint8",
					"name": "",
					"type": "uint8"
				}
			],
			"stateMutability": "view",
			"type": "function"
		},
		{
			"inputs": [],
			"name": "e",
			"outputs": [
				{
					"internalType": "uint8",
					"name": "",
					"type": "uint8"
				}
			],
			"stateMutability": "view",
			"type": "function"
		},
		{
			"inputs": [],
			"name": "f",
			"outputs": [
				{
					"internalType": "uint8",
					"name": "",
					"type": "uint8"
				}
			],
			"stateMutability": "view",
			"type": "function"
		},
		{
			"inputs": [],
			"name": "g",
			"outputs": [
				{
					"internalType": "uint8",
					"name": "",
					"type": "uint8"
				}
			],
			"stateMutability": "view",
			"type": "function"
		},
		{
			"inputs": [],
			"name": "h",
			"outputs": [
				{
					"internalType": "uint8",
					"name": "",
					"type": "uint8"
				}
			],
			"stateMutability": "view",
			"type": "function"
		},
		{
			"inputs": [],
			"name": "i",
			"outputs": [
				{
					"internalType": "uint8",
					"name": "",
					"type": "uint8"
				}
			],
			"stateMutability": "view",
			"type": "function"
		},
		{
			"inputs": [],
			"name": "j",
			"outputs": [
				{
					"internalType": "uint8",
					"name": "",
					"type": "uint8"
				}
			],
			"stateMutability": "view",
			"type": "function"
		},
		{
			"inputs": [],
			"name": "k",
			"outputs": [
				{
					"internalType": "uint8",
					"name": "",
					"type": "uint8"
				}
			],
			"stateMutability": "view",
			"type": "function"
		},
		{
			"inputs": [],
			"name": "l",
			"outputs": [
				{
					"internalType": "uint8",
					"name": "",
					"type": "uint8"
				}
			],
			"stateMutability": "view",
			"type": "function"
		},
		{
			"inputs": [],
			"name": "m",
			"outputs": [
				{
					"internalType": "uint8",
					"name": "",
					"type": "uint8"
				}
			],
			"stateMutability": "view",
			"type": "function"
		},
		{
			"inputs": [],
			"name": "n",
			"outputs": [
				{
					"internalType": "uint8",
					"name": "",
					"type": "uint8"
				}
			],
			"stateMutability": "view",
			"type": "function"
		},
		{
			"inputs": [],
			"name": "o",
			"outputs": [
				{
					"internalType": "uint8",
					"name": "",
					"type": "uint8"
				}
			],
			"stateMutability": "view",
			"type": "function"
		},
		{
			"inputs": [],
			"name": "p",
			"outputs": [
				{
					"internalType": "uint8",
					"name": "",
					"type": "uint8"
				}
			],
			"stateMutability": "view",
			"type": "function"
		},
		{
			"inputs": [],
			"name": "q",
			"outputs": [
				{
					"internalType": "uint8",
					"name": "",
					"type": "uint8"
				}
			],
			"stateMutability": "view",
			"type": "function"
		},
		{
			"inputs": [],
			"name": "r",
			"outputs": [
				{
					"internalType": "uint8",
					"name": "",
					"type": "uint8"
				}
			],
			"stateMutability": "view",
			"type": "function"
		},
		{
			"inputs": [],
			"name": "s",
			"outputs": [
				{
					"internalType": "uint8",
					"name": "",
					"type": "uint8"
				}
			],
			"stateMutability": "view",
			"type": "function"
		},
		{
			"inputs": [],
			"name": "t",
			"outputs": [
				{
					"internalType": "uint8",
					"name": "",
					"type": "uint8"
				}
			],
			"stateMutability": "view",
			"type": "function"
		},
		{
			"inputs": [],
			"name": "u",
			"outputs": [
				{
					"internalType": "uint8",
					"name": "",
					"type": "uint8"
				}
			],
			"stateMutability": "view",
			"type": "function"
		},
		{
			"inputs": [],
			"name": "v",
			"outputs": [
				{
					"internalType": "uint8",
					"name": "",
					"type": "uint8"
				}
			],
			"stateMutability": "view",
			"type": "function"
		},
		{
			"inputs": [],
			"name": "w",
			"outputs": [
				{
					"internalType": "uint8",
					"name": "",
					"type": "uint8"
				}
			],
			"stateMutability": "view",
			"type": "function"
		},
		{
			"inputs": [],
			"name": "x",
			"outputs": [
				{
					"internalType": "uint8",
					"name": "",
					"type": "uint8"
				}
			],
			"stateMutability": "view",
			"type": "function"
		},
		{
			"inputs": [],
			"name": "y",
			"outputs": [
				{
					"internalType": "uint8",
					"name": "",
					"type": "uint8"
				}
			],
			"stateMutability": "view",
			"type": "function"
		},
		{
			"inputs": [],
			"name": "z",
			"outputs": [
				{
					"internalType": "uint8",
					"name": "",
					"type": "uint8"
				}
			],
			"stateMutability": "view",
			"type": "function"
		}
	]
}