{
	"data": {
		"bytecode": {
			"linkReferences": {},
			"object": "6080604052348015600e575f80fd5b506103008061001c5f395ff3fe608060405234801561000f575f80fd5b5060043610610034575f3560e01c806319eb4a9014610038578063811b5170146100d7575b5f80fd5b5f546040805160ff8084168252610100840416602082015262010000830461ffff9081168284015264010000000084041660608201526601000000000000830463ffffffff1660808201526a0100000000000000000000830467ffffffffffffffff1660a082015272010000000000000000000000000000000000009092046dffffffffffffffffffffffffffff1660c0830152519081900360e00190f35b6101f36100e536600461021b565b5f80546dffffffffffffffffffffffffffff90921672010000000000000000000000000000000000000271ffffffffffffffffffffffffffffffffffff67ffffffffffffffff9094166a0100000000000000000000027fffffffffffffffffffffffffffff0000000000000000ffffffffffffffffffff63ffffffff909616660100000000000002959095167fffffffffffffffffffffffffffff000000000000000000000000ffffffffffff61ffff9788166401000000000265ffff00000000199990981662010000029890981665ffffffff00001960ff9a8b166101000261ffff199096169b909a169a909a179390931797909716979097179390931793909316919091171716179055565b005b803560ff81168114610205575f80fd5b919050565b803561ffff81168114610205575f80fd5b5f805f805f805f60e0888a031215610231575f80fd5b61023a886101f5565b9650610248602089016101f5565b95506102566040890161020a565b94506102646060890161020a565b9350608088013563ffffffff8116811461027c575f80fd5b925060a088013567ffffffffffffffff81168114610298575f80fd5b915060c08801356dffffffffffffffffffffffffffff811681146102ba575f80fd5b809150509295989194975092955056fea2646970667358221220d8c512fb87d02eef6a8b5e71da45f70a90441f3b86dcb921f928fa8ce76c447e64736f6c63430008190033",
			"opcodes": "PUSH1 0x80 PUSH1 0x40 MSTORE CALLVALUE DUP1 ISZERO PUSH1 0xE JUMPI PUSH0 DUP1 REVERT JUMPDEST POP PUSH2 0x300 DUP1 PUSH2 0x1C PUSH0 CODECOPY PUSH0 RETURN INVALID PUSH1 0x80 PUSH1 0x40 MSTORE CALLVALUE DUP1 ISZERO PUSH2 0xF JUMPI PUSH0 DUP1 REVERT JUMPDEST POP PUSH1 0x4 CALLDATASIZE LT PUSH2 0x34 JUMPI PUSH0 CALLDATALOAD PUSH1 0xE0 SHR DUP1 PUSH4 0x19EB4A90 EQ PUSH2 0x38 JUMPI DUP1 PUSH4 0x811B5170 EQ PUSH2 0xD7 JUMPI JUMPDEST PUSH0 DUP1 REVERT JUMPDEST PUSH0 SLOAD PUSH1 0x40 DUP1 MLOAD PUSH1 0xFF DUP1 DUP5 AND DUP3 MSTORE PUSH2 0x100 DUP5 DIV AND PUSH1 0x20 DUP3 ADD MSTORE PUSH3 0x10000 DUP4 DIV PUSH2 0xFFFF SWAP1 DUP2 AND DUP3 DUP5 ADD MSTORE PUSH5 0x100000000 DUP5 DIV AND PUSH1 0x60 DUP3 ADD MSTORE PUSH7 0x1000000000000 DUP4 DIV PUSH4 0xFFFFFFFF AND PUSH1 0x80 DUP3 ADD MSTORE PUSH11 0x100000000000000000000 DUP4 DIV PUSH8 0xFFFFFFFFFFFFFFFF AND PUSH1 0xA0 DUP3 ADD MSTORE PUSH19 0x1000000000000000000000000000000000000 SWAP1 SWAP3 DIV PUSH14 0xFFFFFFFFFFFFFFFFFFFFFFFFFFFF AND PUSH1 0xC0 DUP4 ADD MSTORE MLOAD SWAP1 DUP2 SWAP1 SUB PUSH1 0xE0 ADD SWAP1 RETURN JUMPDEST PUSH2 0x1F3 PUSH2 0xE5 CALLDATASIZE PUSH1 0x4 PUSH2 0x21B JUMP JUMPDEST PUSH0 DUP1 SLOAD PUSH14 0xFFFFFFFFFFFFFFFFFFFFFFFFFFFF SWAP1 SWAP3 AND PUSH19 0x1000000000000000000000000000000000000 MUL PUSH18 0xFFFFFFFFFFFFFFFFFFFFFFFFFFFFFFFFFFFF PUSH8 0xFFFFFFFFFFFFFFFF SWAP1 SWAP5 AND PUSH11 0x100000000000000000000 MUL PUSH32 0xFFFFFFFFFFFFFFFFFFFFFFFFFFFF0000000000000000FFFFFFFFFFFFFFFFFFFF PUSH4 0xFFFFFFFF SWAP1 SWAP7 AND PUSH7 0x1000000000000 MUL SWAP6 SWAP1 SWAP6 AND PUSH32 0xFFFFFFFFFFFFFFFFFFFFFFFFFFFF000000000000000000000000FFFFFFFFFFFF PUSH2 0xFFFF SWAP8 DUP9 AND PUSH5 0x100000000 MUL PUSH6 0xFFFF00000000 NOT SWAP10 SWAP1 SWAP9 AND PUSH3 0x10000 MUL SWAP9 SWAP1 SWAP9 AND PUSH6 0xFFFFFFFF0000 NOT PUSH1 0xFF SWAP11 DUP12 AND PUSH2 0x100 MUL PUSH2 0xFFFF NOT SWAP1 SWAP7 AND SWAP12 SWAP1 SWAP11 AND SWAP11 SWAP1 SWAP11 OR SWAP4 SWAP1 SWAP4 OR SWAP8 SWAP1 SWAP8 AND SWAP8 SWAP1 SWAP8 OR SWAP4 SWAP1 SWAP4 OR SWAP4 SWAP1 SWAP4 AND SWAP2 SWAP1 SWAP2 OR OR AND OR SWAP1 SSTORE JUMP JUMPDEST STOP JUMPDEST DUP1 CALLDATALOAD PUSH1 0xFF DUP2 AND DUP2 EQ PUSH2 0x205 JUMPI PUSH0 DUP1 REVERT JUMPDEST SWAP2 SWAP1 POP JUMP JUMPDEST DUP1 CALLDATALOAD PUSH2 0xFFFF DUP2 AND DUP2 EQ PUSH2 0x205 JUMPI PUSH0 DUP1 REVERT JUMPDEST PUSH0 DUP1 PUSH0 DUP1 PUSH0 DUP1 PUSH0 PUSH1 0xE0 DUP9 DUP11 SUB SLT ISZERO PUSH2 0x231 JUMPI PUSH0 DUP1 REVERT JUMPDEST PUSH2 0x23A DUP9 PUSH2 0x1F5 JUMP JUMPDEST SWAP7 POP PUSH2 0x248 PUSH1 0x20 DUP10 ADD PUSH2 0x1F5 JUMP JUMPDEST SWAP6 POP PUSH2 0x256 PUSH1 0x40 DUP10 ADD PUSH2 0x20A JUMP JUMPDEST SWAP5 POP PUSH2 0x264 PUSH1 0x60 DUP10 ADD PUSH2 0x20A JUMP JUMPDEST SWAP4 POP PUSH1 0x80 DUP9 ADD CALLDATALOAD PUSH4 0xFFFFFFFF DUP2 AND DUP2 EQ PUSH2 0x27C JUMPI PUSH0 DUP1 REVERT JUMPDEST SWAP3 POP PUSH1 0xA0 DUP9 ADD CALLDATALOAD PUSH8 0xFFFFFFFFFFFFFFFF DUP2 AND DUP2 EQ PUSH2 0x298 JUMPI PUSH0 DUP1 REVERT JUMPDEST SWAP2 POP PUSH1 0xC0 DUP9 ADD CALLDATALOAD PUSH14 0xFFFFFFFFFFFFFFFFFFFFFFFFFFFF DUP2 AND DUP2 EQ PUSH2 0x2BA JUMPI PUSH0 DUP1 REVERT JUMPDEST DUP1 SWAP2 POP POP SWAP3 SWAP6 SWAP9 SWAP2 SWAP5 SWAP8 POP SWAP3 SWAP6 POP JUMP INVALID LOG2 PUSH5 0x6970667358 0x22 SLT KECCAK256 0xD8 0xC5 SLT 0xFB DUP8 0xD0 0x2E 0xEF PUSH11 0x8B5E71DA45F70A90441F3B DUP7 0xDC 0xB9 0x21 0xF9 0x28 STATICCALL DUP13 0xE7 PUSH13 0x447E64736F6C63430008190033 "
		},
		"gasEstimates": {
			"creation": {
				"codeDepositCost": "153600",
				"executionCost": "194",
				"totalCost": "153794"
			},
			"external": {
				"getValues()": "2451",
				"setValues(uint8,uint8,uint16,uint16,uint32,uint64,uint112)": "infinite"
			}
		},
		"methodIdentifiers": {
			"getValues()": "19eb4a90",
			"setValues(uint8,uint8,uint16,uint16,uint32,uint64,uint112)": "811b5170"
		}
	},
	"abi": [
		{
			"inputs": [],
			"name": "getValues",
			"outputs": [
				{
					"internalType": "uint8",
					"name": "",
					"type": "uint8"
				},
				{
					"internalType": "uint8",
					"name": "",
					"type": "uint8"
				},
				{
					"internalType": "uint16",
					"name": "",
					"type": "uint16"
				},
				{
					"internalType": "uint16",
					"name": "",
					"type": "uint16"
				},
				{
					"internalType": "uint32",
					"name": "",
					"type": "uint32"
				},
				{
					"internalType": "uint64",
					"name": "",
					"type": "uint64"
				},
				{
					"internalType": "uint112",
					"name": "",
					"type": "uint112"
				}
			],
			"stateMutability": "view",
			"type": "function"
		},
		{
			"inputs": [
				{
					"internalType": "uint8",
					"name": "_a",
					"type": "uint8"
				},
				{
					"internalType": "uint8",
					"name": "_b",
					"type": "uint8"
				},
				{
					"internalType": "uint16",
					"name": "_c",
					"type": "uint16"
				},
				{
					"internalType": "uint16",
					"name": "_d",
					"type": "uint16"
				},
				{
					"internalType": "uint32",
					"name": "_e",
					"type": "uint32"
				},
				{
					"internalType": "uint64",
					"name": "_f",
					"type": "uint64"
				},
				{
					"internalType": "uint112",
					"name": "_g",
					"type": "uint112"
				}
			],
			"name": "setValues",
			"outputs": [],
			"stateMutability": "nonpayable",
			"type": "function"
		}
	]
}