{
	"data": {
		"bytecode": {
			"linkReferences": {},
			"object": "60806040525f805460ff19166001179055348015601a575f80fd5b50607f8060265f395ff3fe6080604052348015600e575f80fd5b50600436106026575f3560e01c80632316afea14602a575b5f80fd5b5f5460359060ff1681565b604051901515815260200160405180910390f3fea2646970667358221220d3a4d58a8d7ae9b13655a4f0ef996f09a75c6b18e4da9af33105b31d36a8587764736f6c63430008190033",
			"opcodes": "PUSH1 0x80 PUSH1 0x40 MSTORE PUSH0 DUP1 SLOAD PUSH1 0xFF NOT AND PUSH1 0x1 OR SWAP1 SSTORE CALLVALUE DUP1 ISZERO PUSH1 0x1A JUMPI PUSH0 DUP1 REVERT JUMPDEST POP PUSH1 0x7F DUP1 PUSH1 0x26 PUSH0 CODECOPY PUSH0 RETURN INVALID PUSH1 0x80 PUSH1 0x40 MSTORE CALLVALUE DUP1 ISZERO PUSH1 0xE JUMPI PUSH0 DUP1 REVERT JUMPDEST POP PUSH1 0x4 CALLDATASIZE LT PUSH1 0x26 JUMPI PUSH0 CALLDATALOAD PUSH1 0xE0 SHR DUP1 PUSH4 0x2316AFEA EQ PUSH1 0x2A JUMPI JUMPDEST PUSH0 DUP1 REVERT JUMPDEST PUSH0 SLOAD PUSH1 0x35 SWAP1 PUSH1 0xFF AND DUP2 JUMP JUMPDEST PUSH1 0x40 MLOAD SWAP1 ISZERO ISZERO DUP2 MSTORE PUSH1 0x20 ADD PUSH1 0x40 MLOAD DUP1 SWAP2 SUB SWAP1 RETURN INVALID LOG2 PUSH5 0x6970667358 0x22 SLT KECCAK256 0xD3 LOG4 0xD5 DUP11 DUP14 PUSH27 0xE9B13655A4F0EF996F09A75C6B18E4DA9AF33105B31D36A8587764 PUSH20 0x6F6C634300081900330000000000000000000000 "
		},
		"gasEstimates": {
			"creation": {
				"codeDepositCost": "25400",
				"executionCost": "24296",
				"totalCost": "49696"
			},
			"external": {
				"boolVal()": "2274"
			}
		},
		"methodIdentifiers": {
			"boolVal()": "2316afea"
		}
	},
	"abi": [
		{
			"inputs": [],
			"name": "boolVal",
			"outputs": [
				{
					"internalType": "bool",
					"name": "",
					"type": "bool"
				}
			],
			"stateMutability": "view",
			"type": "function"
		}
	]
}