{
	"data": {
		"bytecode": {
			"linkReferences": {},
			"object": "60806040525f80553480156011575f80fd5b50607480601d5f395ff3fe6080604052348015600e575f80fd5b50600436106026575f3560e01c806367e0badb14602a575b5f80fd5b5f5460405190815260200160405180910390f3fea26469706673582212201908583903847a48139626c1d62a2a14087b2b4fefb0305695df19f4050515ce64736f6c63430008190033",
			"opcodes": "PUSH1 0x80 PUSH1 0x40 MSTORE PUSH0 DUP1 SSTORE CALLVALUE DUP1 ISZERO PUSH1 0x11 JUMPI PUSH0 DUP1 REVERT JUMPDEST POP PUSH1 0x74 DUP1 PUSH1 0x1D PUSH0 CODECOPY PUSH0 RETURN INVALID PUSH1 0x80 PUSH1 0x40 MSTORE CALLVALUE DUP1 ISZERO PUSH1 0xE JUMPI PUSH0 DUP1 REVERT JUMPDEST POP PUSH1 0x4 CALLDATASIZE LT PUSH1 0x26 JUMPI PUSH0 CALLDATALOAD PUSH1 0xE0 SHR DUP1 PUSH4 0x67E0BADB EQ PUSH1 0x2A JUMPI JUMPDEST PUSH0 DUP1 REVERT JUMPDEST PUSH0 SLOAD PUSH1 0x40 MLOAD SWAP1 DUP2 MSTORE PUSH1 0x20 ADD PUSH1 0x40 MLOAD DUP1 SWAP2 SUB SWAP1 RETURN INVALID LOG2 PUSH5 0x6970667358 0x22 SLT KECCAK256 NOT ADDMOD PC CODECOPY SUB DUP5 PUSH27 0x48139626C1D62A2A14087B2B4FEFB0305695DF19F4050515CE6473 PUSH16 0x6C634300081900330000000000000000 "
		},
		"gasEstimates": {
			"creation": {
				"codeDepositCost": "23200",
				"executionCost": "5078",
				"totalCost": "28278"
			},
			"external": {
				"getNum()": "2244"
			}
		},
		"methodIdentifiers": {
			"getNum()": "67e0badb"
		}
	},
	"abi": [
		{
			"inputs": [],
			"name": "getNum",
			"outputs": [
				{
					"internalType": "uint256",
					"name": "",
					"type": "uint256"
				}
			],
			"stateMutability": "view",
			"type": "function"
		}
	]
}