{
	"contracts/ContractC/ContractCV5.sol": {
		"ContractCV5": {
			"abi": [
				{
					"inputs": [],
					"name": "getValues",
					"outputs": [
						{
							"internalType": "uint8",
							"name": "",
							"type": "uint8"
						},
						{
							"internalType": "uint8",
							"name": "",
							"type": "uint8"
						},
						{
							"internalType": "uint16",
							"name": "",
							"type": "uint16"
						},
						{
							"internalType": "uint16",
							"name": "",
							"type": "uint16"
						},
						{
							"internalType": "uint32",
							"name": "",
							"type": "uint32"
						},
						{
							"internalType": "uint64",
							"name": "",
							"type": "uint64"
						},
						{
							"internalType": "uint112",
							"name": "",
							"type": "uint112"
						}
					],
					"stateMutability": "view",
					"type": "function"
				},
				{
					"inputs": [
						{
							"internalType": "uint8",
							"name": "val",
							"type": "uint8"
						}
					],
					"name": "setA",
					"outputs": [],
					"stateMutability": "nonpayable",
					"type": "function"
				},
				{
					"inputs": [
						{
							"internalType": "uint8",
							"name": "val",
							"type": "uint8"
						}
					],
					"name": "setB",
					"outputs": [],
					"stateMutability": "nonpayable",
					"type": "function"
				},
				{
					"inputs": [
						{
							"internalType": "uint16",
							"name": "val",
							"type": "uint16"
						}
					],
					"name": "setC",
					"outputs": [],
					"stateMutability": "nonpayable",
					"type": "function"
				},
				{
					"inputs": [
						{
							"internalType": "uint16",
							"name": "val",
							"type": "uint16"
						}
					],
					"name": "setD",
					"outputs": [],
					"stateMutability": "nonpayable",
					"type": "function"
				},
				{
					"inputs": [
						{
							"internalType": "uint32",
							"name": "val",
							"type": "uint32"
						}
					],
					"name": "setE",
					"outputs": [],
					"stateMutability": "nonpayable",
					"type": "function"
				},
				{
					"inputs": [
						{
							"internalType": "uint64",
							"name": "val",
							"type": "uint64"
						}
					],
					"name": "setF",
					"outputs": [],
					"stateMutability": "nonpayable",
					"type": "function"
				},
				{
					"inputs": [
						{
							"internalType": "uint112",
							"name": "val",
							"type": "uint112"
						}
					],
					"name": "setG",
					"outputs": [],
					"stateMutability": "nonpayable",
					"type": "function"
				}
			],
			"devdoc": {
				"kind": "dev",
				"methods": {},
				"version": 1
			},
			"evm": {
				"assembly": "    /* \"contracts/ContractC/ContractCV5.sol\":63:952  contract ContractCV5 {... */\n  mstore(0x40, 0x80)\n  callvalue\n  dup1\n  iszero\n  tag_1\n  jumpi\n  0x00\n  dup1\n  revert\ntag_1:\n  pop\n  dataSize(sub_0)\n  dup1\n  dataOffset(sub_0)\n  0x00\n  codecopy\n  0x00\n  return\nstop\n\nsub_0: assembly {\n        /* \"contracts/ContractC/ContractCV5.sol\":63:952  contract ContractCV5 {... */\n      mstore(0x40, 0x80)\n      callvalue\n      dup1\n      iszero\n      tag_1\n      jumpi\n      0x00\n      dup1\n      revert\n    tag_1:\n      pop\n      jumpi(tag_2, lt(calldatasize, 0x04))\n      shr(0xe0, calldataload(0x00))\n      dup1\n      0x8c659031\n      gt\n      tag_11\n      jumpi\n      dup1\n      0x8c659031\n      eq\n      tag_7\n      jumpi\n      dup1\n      0x9ad09c83\n      eq\n      tag_8\n      jumpi\n      dup1\n      0xa35ca28d\n      eq\n      tag_9\n      jumpi\n      dup1\n      0xc04a87d1\n      eq\n      tag_10\n      jumpi\n      0x00\n      dup1\n      revert\n    tag_11:\n      dup1\n      0x16abdf7d\n      eq\n      tag_3\n      jumpi\n      dup1\n      0x19eb4a90\n      eq\n      tag_4\n      jumpi\n      dup1\n      0x26ccace9\n      eq\n      tag_5\n      jumpi\n      dup1\n      0x6074e99e\n      eq\n      tag_6\n      jumpi\n    tag_2:\n      0x00\n      dup1\n      revert\n        /* \"contracts/ContractC/ContractCV5.sol\":319:377  function setB(uint8 val) public {... */\n    tag_3:\n      tag_12\n      tag_13\n      calldatasize\n      0x04\n      tag_14\n      jump\t// in\n    tag_13:\n        /* \"contracts/ContractC/ContractCV5.sol\":362:363  b */\n      0x00\n        /* \"contracts/ContractC/ContractCV5.sol\":362:369  b = val */\n      dup1\n      sload\n      0xff\n      swap1\n      swap3\n      and\n      0x0100\n      mul\n      not(0xff00)\n      swap1\n      swap3\n      and\n      swap2\n      swap1\n      swap2\n      or\n      swap1\n      sstore\n        /* \"contracts/ContractC/ContractCV5.sol\":319:377  function setB(uint8 val) public {... */\n      jump\n    tag_12:\n      stop\n        /* \"contracts/ContractC/ContractCV5.sol\":805:949  function getValues() public view returns (uint8, uint8, uint16, uint16, uint32, uint64, uint112) {... */\n    tag_4:\n        /* \"contracts/ContractC/ContractCV5.sol\":847:852  uint8 */\n      0x00\n        /* \"contracts/ContractC/ContractCV5.sol\":921:922  a */\n      sload\n        /* \"contracts/ContractC/ContractCV5.sol\":805:949  function getValues() public view returns (uint8, uint8, uint16, uint16, uint32, uint64, uint112) {... */\n      0x40\n      dup1\n      mload\n        /* \"contracts/ContractC/ContractCV5.sol\":921:922  a */\n      0xff\n      dup1\n      dup5\n      and\n        /* \"#utility.yul\":587:623   */\n      dup3\n      mstore\n        /* \"contracts/ContractC/ContractCV5.sol\":921:922  a */\n      0x0100\n        /* \"contracts/ContractC/ContractCV5.sol\":924:925  b */\n      dup5\n      div\n      and\n        /* \"#utility.yul\":654:656   */\n      0x20\n        /* \"#utility.yul\":639:657   */\n      dup3\n      add\n        /* \"#utility.yul\":632:677   */\n      mstore\n        /* \"contracts/ContractC/ContractCV5.sol\":927:928  c */\n      0x010000\n      dup4\n      div\n      0xffff\n      swap1\n      dup2\n      and\n        /* \"#utility.yul\":718:736   */\n      dup3\n      dup5\n      add\n        /* \"#utility.yul\":711:754   */\n      mstore\n        /* \"contracts/ContractC/ContractCV5.sol\":930:931  d */\n      0x0100000000\n      dup5\n      div\n      and\n        /* \"#utility.yul\":785:787   */\n      0x60\n        /* \"#utility.yul\":770:788   */\n      dup3\n      add\n        /* \"#utility.yul\":763:806   */\n      mstore\n        /* \"contracts/ContractC/ContractCV5.sol\":933:934  e */\n      0x01000000000000\n      dup4\n      div\n      0xffffffff\n      and\n        /* \"#utility.yul\":837:840   */\n      0x80\n        /* \"#utility.yul\":822:841   */\n      dup3\n      add\n        /* \"#utility.yul\":815:867   */\n      mstore\n        /* \"contracts/ContractC/ContractCV5.sol\":936:937  f */\n      0x0100000000000000000000\n      dup4\n      div\n      0xffffffffffffffff\n      and\n        /* \"#utility.yul\":898:901   */\n      0xa0\n        /* \"#utility.yul\":883:902   */\n      dup3\n      add\n        /* \"#utility.yul\":876:936   */\n      mstore\n        /* \"contracts/ContractC/ContractCV5.sol\":939:940  g */\n      0x01000000000000000000000000000000000000\n      swap1\n      swap3\n      div\n      0xffffffffffffffffffffffffffff\n      and\n        /* \"#utility.yul\":967:970   */\n      0xc0\n        /* \"#utility.yul\":952:971   */\n      dup4\n      add\n        /* \"#utility.yul\":945:1017   */\n      mstore\n        /* \"contracts/ContractC/ContractCV5.sol\":805:949  function getValues() public view returns (uint8, uint8, uint16, uint16, uint32, uint64, uint112) {... */\n      mload\n      swap1\n      dup2\n      swap1\n      sub\n        /* \"#utility.yul\":574:577   */\n      0xe0\n        /* \"contracts/ContractC/ContractCV5.sol\":805:949  function getValues() public view returns (uint8, uint8, uint16, uint16, uint32, uint64, uint112) {... */\n      add\n      swap1\n      return\n        /* \"contracts/ContractC/ContractCV5.sol\":586:645  function setF(uint64 val) public {... */\n    tag_5:\n      tag_12\n      tag_21\n      calldatasize\n      0x04\n      tag_22\n      jump\t// in\n    tag_21:\n        /* \"contracts/ContractC/ContractCV5.sol\":630:631  f */\n      0x00\n        /* \"contracts/ContractC/ContractCV5.sol\":630:637  f = val */\n      dup1\n      sload\n      0xffffffffffffffff\n      swap1\n      swap3\n      and\n      0x0100000000000000000000\n      mul\n      0xffffffffffffffffffffffffffff0000000000000000ffffffffffffffffffff\n      swap1\n      swap3\n      and\n      swap2\n      swap1\n      swap2\n      or\n      swap1\n      sstore\n        /* \"contracts/ContractC/ContractCV5.sol\":586:645  function setF(uint64 val) public {... */\n      jump\n        /* \"contracts/ContractC/ContractCV5.sol\":519:578  function setE(uint32 val) public {... */\n    tag_6:\n      tag_12\n      tag_25\n      calldatasize\n      0x04\n      tag_26\n      jump\t// in\n    tag_25:\n        /* \"contracts/ContractC/ContractCV5.sol\":563:564  e */\n      0x00\n        /* \"contracts/ContractC/ContractCV5.sol\":563:570  e = val */\n      dup1\n      sload\n      0xffffffff\n      swap1\n      swap3\n      and\n      0x01000000000000\n      mul\n      not(0xffffffff000000000000)\n      swap1\n      swap3\n      and\n      swap2\n      swap1\n      swap2\n      or\n      swap1\n      sstore\n        /* \"contracts/ContractC/ContractCV5.sol\":519:578  function setE(uint32 val) public {... */\n      jump\n        /* \"contracts/ContractC/ContractCV5.sol\":452:511  function setD(uint16 val) public {... */\n    tag_7:\n      tag_12\n      tag_29\n      calldatasize\n      0x04\n      tag_30\n      jump\t// in\n    tag_29:\n        /* \"contracts/ContractC/ContractCV5.sol\":496:497  d */\n      0x00\n        /* \"contracts/ContractC/ContractCV5.sol\":496:503  d = val */\n      dup1\n      sload\n      0xffff\n      swap1\n      swap3\n      and\n      0x0100000000\n      mul\n      not(0xffff00000000)\n      swap1\n      swap3\n      and\n      swap2\n      swap1\n      swap2\n      or\n      swap1\n      sstore\n        /* \"contracts/ContractC/ContractCV5.sol\":452:511  function setD(uint16 val) public {... */\n      jump\n        /* \"contracts/ContractC/ContractCV5.sol\":653:713  function setG(uint112 val) public {... */\n    tag_8:\n      tag_12\n      tag_33\n      calldatasize\n      0x04\n      tag_34\n      jump\t// in\n    tag_33:\n        /* \"contracts/ContractC/ContractCV5.sol\":698:699  g */\n      0x00\n        /* \"contracts/ContractC/ContractCV5.sol\":698:705  g = val */\n      dup1\n      sload\n      0xffffffffffffffffffffffffffff\n      swap1\n      swap3\n      and\n      0x01000000000000000000000000000000000000\n      mul\n      0xffffffffffffffffffffffffffffffffffff\n      swap1\n      swap3\n      and\n      swap2\n      swap1\n      swap2\n      or\n      swap1\n      sstore\n        /* \"contracts/ContractC/ContractCV5.sol\":653:713  function setG(uint112 val) public {... */\n      jump\n        /* \"contracts/ContractC/ContractCV5.sol\":385:444  function setC(uint16 val) public {... */\n    tag_9:\n      tag_12\n      tag_37\n      calldatasize\n      0x04\n      tag_30\n      jump\t// in\n    tag_37:\n        /* \"contracts/ContractC/ContractCV5.sol\":429:430  c */\n      0x00\n        /* \"contracts/ContractC/ContractCV5.sol\":429:436  c = val */\n      dup1\n      sload\n      0xffff\n      swap1\n      swap3\n      and\n      0x010000\n      mul\n      not(0xffff0000)\n      swap1\n      swap3\n      and\n      swap2\n      swap1\n      swap2\n      or\n      swap1\n      sstore\n        /* \"contracts/ContractC/ContractCV5.sol\":385:444  function setC(uint16 val) public {... */\n      jump\n        /* \"contracts/ContractC/ContractCV5.sol\":253:311  function setA(uint8 val) public {... */\n    tag_10:\n      tag_12\n      tag_40\n      calldatasize\n      0x04\n      tag_14\n      jump\t// in\n    tag_40:\n        /* \"contracts/ContractC/ContractCV5.sol\":296:297  a */\n      0x00\n        /* \"contracts/ContractC/ContractCV5.sol\":296:303  a = val */\n      dup1\n      sload\n      not(0xff)\n      and\n      0xff\n      swap3\n      swap1\n      swap3\n      and\n      swap2\n      swap1\n      swap2\n      or\n      swap1\n      sstore\n        /* \"contracts/ContractC/ContractCV5.sol\":253:311  function setA(uint8 val) public {... */\n      jump\n        /* \"#utility.yul\":14:283   */\n    tag_14:\n        /* \"#utility.yul\":71:77   */\n      0x00\n        /* \"#utility.yul\":124:126   */\n      0x20\n        /* \"#utility.yul\":112:121   */\n      dup3\n        /* \"#utility.yul\":103:110   */\n      dup5\n        /* \"#utility.yul\":99:122   */\n      sub\n        /* \"#utility.yul\":95:127   */\n      slt\n        /* \"#utility.yul\":92:144   */\n      iszero\n      tag_52\n      jumpi\n        /* \"#utility.yul\":140:141   */\n      0x00\n        /* \"#utility.yul\":137:138   */\n      dup1\n        /* \"#utility.yul\":130:142   */\n      revert\n        /* \"#utility.yul\":92:144   */\n    tag_52:\n        /* \"#utility.yul\":179:188   */\n      dup2\n        /* \"#utility.yul\":166:189   */\n      calldataload\n        /* \"#utility.yul\":229:233   */\n      0xff\n        /* \"#utility.yul\":222:227   */\n      dup2\n        /* \"#utility.yul\":218:234   */\n      and\n        /* \"#utility.yul\":211:216   */\n      dup2\n        /* \"#utility.yul\":208:235   */\n      eq\n        /* \"#utility.yul\":198:253   */\n      tag_53\n      jumpi\n        /* \"#utility.yul\":249:250   */\n      0x00\n        /* \"#utility.yul\":246:247   */\n      dup1\n        /* \"#utility.yul\":239:251   */\n      revert\n        /* \"#utility.yul\":198:253   */\n    tag_53:\n        /* \"#utility.yul\":272:277   */\n      swap4\n        /* \"#utility.yul\":14:283   */\n      swap3\n      pop\n      pop\n      pop\n      jump\t// out\n        /* \"#utility.yul\":1028:1312   */\n    tag_22:\n        /* \"#utility.yul\":1086:1092   */\n      0x00\n        /* \"#utility.yul\":1139:1141   */\n      0x20\n        /* \"#utility.yul\":1127:1136   */\n      dup3\n        /* \"#utility.yul\":1118:1125   */\n      dup5\n        /* \"#utility.yul\":1114:1137   */\n      sub\n        /* \"#utility.yul\":1110:1142   */\n      slt\n        /* \"#utility.yul\":1107:1159   */\n      iszero\n      tag_56\n      jumpi\n        /* \"#utility.yul\":1155:1156   */\n      0x00\n        /* \"#utility.yul\":1152:1153   */\n      dup1\n        /* \"#utility.yul\":1145:1157   */\n      revert\n        /* \"#utility.yul\":1107:1159   */\n    tag_56:\n        /* \"#utility.yul\":1194:1203   */\n      dup2\n        /* \"#utility.yul\":1181:1204   */\n      calldataload\n        /* \"#utility.yul\":1244:1262   */\n      0xffffffffffffffff\n        /* \"#utility.yul\":1237:1242   */\n      dup2\n        /* \"#utility.yul\":1233:1263   */\n      and\n        /* \"#utility.yul\":1226:1231   */\n      dup2\n        /* \"#utility.yul\":1223:1264   */\n      eq\n        /* \"#utility.yul\":1213:1282   */\n      tag_53\n      jumpi\n        /* \"#utility.yul\":1278:1279   */\n      0x00\n        /* \"#utility.yul\":1275:1276   */\n      dup1\n        /* \"#utility.yul\":1268:1280   */\n      revert\n        /* \"#utility.yul\":1317:1593   */\n    tag_26:\n        /* \"#utility.yul\":1375:1381   */\n      0x00\n        /* \"#utility.yul\":1428:1430   */\n      0x20\n        /* \"#utility.yul\":1416:1425   */\n      dup3\n        /* \"#utility.yul\":1407:1414   */\n      dup5\n        /* \"#utility.yul\":1403:1426   */\n      sub\n        /* \"#utility.yul\":1399:1431   */\n      slt\n        /* \"#utility.yul\":1396:1448   */\n      iszero\n      tag_59\n      jumpi\n        /* \"#utility.yul\":1444:1445   */\n      0x00\n        /* \"#utility.yul\":1441:1442   */\n      dup1\n        /* \"#utility.yul\":1434:1446   */\n      revert\n        /* \"#utility.yul\":1396:1448   */\n    tag_59:\n        /* \"#utility.yul\":1483:1492   */\n      dup2\n        /* \"#utility.yul\":1470:1493   */\n      calldataload\n        /* \"#utility.yul\":1533:1543   */\n      0xffffffff\n        /* \"#utility.yul\":1526:1531   */\n      dup2\n        /* \"#utility.yul\":1522:1544   */\n      and\n        /* \"#utility.yul\":1515:1520   */\n      dup2\n        /* \"#utility.yul\":1512:1545   */\n      eq\n        /* \"#utility.yul\":1502:1563   */\n      tag_53\n      jumpi\n        /* \"#utility.yul\":1559:1560   */\n      0x00\n        /* \"#utility.yul\":1556:1557   */\n      dup1\n        /* \"#utility.yul\":1549:1561   */\n      revert\n        /* \"#utility.yul\":1598:1870   */\n    tag_30:\n        /* \"#utility.yul\":1656:1662   */\n      0x00\n        /* \"#utility.yul\":1709:1711   */\n      0x20\n        /* \"#utility.yul\":1697:1706   */\n      dup3\n        /* \"#utility.yul\":1688:1695   */\n      dup5\n        /* \"#utility.yul\":1684:1707   */\n      sub\n        /* \"#utility.yul\":1680:1712   */\n      slt\n        /* \"#utility.yul\":1677:1729   */\n      iszero\n      tag_62\n      jumpi\n        /* \"#utility.yul\":1725:1726   */\n      0x00\n        /* \"#utility.yul\":1722:1723   */\n      dup1\n        /* \"#utility.yul\":1715:1727   */\n      revert\n        /* \"#utility.yul\":1677:1729   */\n    tag_62:\n        /* \"#utility.yul\":1764:1773   */\n      dup2\n        /* \"#utility.yul\":1751:1774   */\n      calldataload\n        /* \"#utility.yul\":1814:1820   */\n      0xffff\n        /* \"#utility.yul\":1807:1812   */\n      dup2\n        /* \"#utility.yul\":1803:1821   */\n      and\n        /* \"#utility.yul\":1796:1801   */\n      dup2\n        /* \"#utility.yul\":1793:1822   */\n      eq\n        /* \"#utility.yul\":1783:1840   */\n      tag_53\n      jumpi\n        /* \"#utility.yul\":1836:1837   */\n      0x00\n        /* \"#utility.yul\":1833:1834   */\n      dup1\n        /* \"#utility.yul\":1826:1838   */\n      revert\n        /* \"#utility.yul\":1875:2172   */\n    tag_34:\n        /* \"#utility.yul\":1934:1940   */\n      0x00\n        /* \"#utility.yul\":1987:1989   */\n      0x20\n        /* \"#utility.yul\":1975:1984   */\n      dup3\n        /* \"#utility.yul\":1966:1973   */\n      dup5\n        /* \"#utility.yul\":1962:1985   */\n      sub\n        /* \"#utility.yul\":1958:1990   */\n      slt\n        /* \"#utility.yul\":1955:2007   */\n      iszero\n      tag_65\n      jumpi\n        /* \"#utility.yul\":2003:2004   */\n      0x00\n        /* \"#utility.yul\":2000:2001   */\n      dup1\n        /* \"#utility.yul\":1993:2005   */\n      revert\n        /* \"#utility.yul\":1955:2007   */\n    tag_65:\n        /* \"#utility.yul\":2042:2051   */\n      dup2\n        /* \"#utility.yul\":2029:2052   */\n      calldataload\n        /* \"#utility.yul\":2092:2122   */\n      0xffffffffffffffffffffffffffff\n        /* \"#utility.yul\":2085:2090   */\n      dup2\n        /* \"#utility.yul\":2081:2123   */\n      and\n        /* \"#utility.yul\":2074:2079   */\n      dup2\n        /* \"#utility.yul\":2071:2124   */\n      eq\n        /* \"#utility.yul\":2061:2142   */\n      tag_53\n      jumpi\n        /* \"#utility.yul\":2138:2139   */\n      0x00\n        /* \"#utility.yul\":2135:2136   */\n      dup1\n        /* \"#utility.yul\":2128:2140   */\n      revert\n\n    auxdata: 0xa26469706673582212201d36307bd9cd54d9fe2bb642636c776157d5c49b44ab57552fec9ed71d5ca54e64736f6c63430008190033\n}\n",
				"bytecode": {
					"linkReferences": {},
					"object": "6080604052348015600e575f80fd5b506103ae8061001c5f395ff3fe608060405234801561000f575f80fd5b5060043610610085575f3560e01c80638c659031116100585780638c659031146101e25780639ad09c8314610213578063a35ca28d14610269578063c04a87d114610296575f80fd5b806316abdf7d1461008957806319eb4a90146100b457806326ccace9146101535780636074e99e146101a9575b5f80fd5b6100b26100973660046102b9565b5f805460ff9092166101000261ff0019909216919091179055565b005b5f546040805160ff8084168252610100840416602082015262010000830461ffff9081168284015264010000000084041660608201526601000000000000830463ffffffff1660808201526a0100000000000000000000830467ffffffffffffffff1660a082015272010000000000000000000000000000000000009092046dffffffffffffffffffffffffffff1660c0830152519081900360e00190f35b6100b26101613660046102e0565b5f805467ffffffffffffffff9092166a0100000000000000000000027fffffffffffffffffffffffffffff0000000000000000ffffffffffffffffffff909216919091179055565b6100b26101b7366004610307565b5f805463ffffffff90921666010000000000000269ffffffff00000000000019909216919091179055565b6100b26101f036600461032a565b5f805461ffff9092166401000000000265ffff0000000019909216919091179055565b6100b261022136600461034b565b5f80546dffffffffffffffffffffffffffff90921672010000000000000000000000000000000000000271ffffffffffffffffffffffffffffffffffff909216919091179055565b6100b261027736600461032a565b5f805461ffff909216620100000263ffff000019909216919091179055565b6100b26102a43660046102b9565b5f805460ff191660ff92909216919091179055565b5f602082840312156102c9575f80fd5b813560ff811681146102d9575f80fd5b9392505050565b5f602082840312156102f0575f80fd5b813567ffffffffffffffff811681146102d9575f80fd5b5f60208284031215610317575f80fd5b813563ffffffff811681146102d9575f80fd5b5f6020828403121561033a575f80fd5b813561ffff811681146102d9575f80fd5b5f6020828403121561035b575f80fd5b81356dffffffffffffffffffffffffffff811681146102d9575f80fdfea26469706673582212201d36307bd9cd54d9fe2bb642636c776157d5c49b44ab57552fec9ed71d5ca54e64736f6c63430008190033",
					"opcodes": "PUSH1 0x80 PUSH1 0x40 MSTORE CALLVALUE DUP1 ISZERO PUSH1 0xE JUMPI PUSH0 DUP1 REVERT JUMPDEST POP PUSH2 0x3AE DUP1 PUSH2 0x1C PUSH0 CODECOPY PUSH0 RETURN INVALID PUSH1 0x80 PUSH1 0x40 MSTORE CALLVALUE DUP1 ISZERO PUSH2 0xF JUMPI PUSH0 DUP1 REVERT JUMPDEST POP PUSH1 0x4 CALLDATASIZE LT PUSH2 0x85 JUMPI PUSH0 CALLDATALOAD PUSH1 0xE0 SHR DUP1 PUSH4 0x8C659031 GT PUSH2 0x58 JUMPI DUP1 PUSH4 0x8C659031 EQ PUSH2 0x1E2 JUMPI DUP1 PUSH4 0x9AD09C83 EQ PUSH2 0x213 JUMPI DUP1 PUSH4 0xA35CA28D EQ PUSH2 0x269 JUMPI DUP1 PUSH4 0xC04A87D1 EQ PUSH2 0x296 JUMPI PUSH0 DUP1 REVERT JUMPDEST DUP1 PUSH4 0x16ABDF7D EQ PUSH2 0x89 JUMPI DUP1 PUSH4 0x19EB4A90 EQ PUSH2 0xB4 JUMPI DUP1 PUSH4 0x26CCACE9 EQ PUSH2 0x153 JUMPI DUP1 PUSH4 0x6074E99E EQ PUSH2 0x1A9 JUMPI JUMPDEST PUSH0 DUP1 REVERT JUMPDEST PUSH2 0xB2 PUSH2 0x97 CALLDATASIZE PUSH1 0x4 PUSH2 0x2B9 JUMP JUMPDEST PUSH0 DUP1 SLOAD PUSH1 0xFF SWAP1 SWAP3 AND PUSH2 0x100 MUL PUSH2 0xFF00 NOT SWAP1 SWAP3 AND SWAP2 SWAP1 SWAP2 OR SWAP1 SSTORE JUMP JUMPDEST STOP JUMPDEST PUSH0 SLOAD PUSH1 0x40 DUP1 MLOAD PUSH1 0xFF DUP1 DUP5 AND DUP3 MSTORE PUSH2 0x100 DUP5 DIV AND PUSH1 0x20 DUP3 ADD MSTORE PUSH3 0x10000 DUP4 DIV PUSH2 0xFFFF SWAP1 DUP2 AND DUP3 DUP5 ADD MSTORE PUSH5 0x100000000 DUP5 DIV AND PUSH1 0x60 DUP3 ADD MSTORE PUSH7 0x1000000000000 DUP4 DIV PUSH4 0xFFFFFFFF AND PUSH1 0x80 DUP3 ADD MSTORE PUSH11 0x100000000000000000000 DUP4 DIV PUSH8 0xFFFFFFFFFFFFFFFF AND PUSH1 0xA0 DUP3 ADD MSTORE PUSH19 0x1000000000000000000000000000000000000 SWAP1 SWAP3 DIV PUSH14 0xFFFFFFFFFFFFFFFFFFFFFFFFFFFF AND PUSH1 0xC0 DUP4 ADD MSTORE MLOAD SWAP1 DUP2 SWAP1 SUB PUSH1 0xE0 ADD SWAP1 RETURN JUMPDEST PUSH2 0xB2 PUSH2 0x161 CALLDATASIZE PUSH1 0x4 PUSH2 0x2E0 JUMP JUMPDEST PUSH0 DUP1 SLOAD PUSH8 0xFFFFFFFFFFFFFFFF SWAP1 SWAP3 AND PUSH11 0x100000000000000000000 MUL PUSH32 0xFFFFFFFFFFFFFFFFFFFFFFFFFFFF0000000000000000FFFFFFFFFFFFFFFFFFFF SWAP1 SWAP3 AND SWAP2 SWAP1 SWAP2 OR SWAP1 SSTORE JUMP JUMPDEST PUSH2 0xB2 PUSH2 0x1B7 CALLDATASIZE PUSH1 0x4 PUSH2 0x307 JUMP JUMPDEST PUSH0 DUP1 SLOAD PUSH4 0xFFFFFFFF SWAP1 SWAP3 AND PUSH7 0x1000000000000 MUL PUSH10 0xFFFFFFFF000000000000 NOT SWAP1 SWAP3 AND SWAP2 SWAP1 SWAP2 OR SWAP1 SSTORE JUMP JUMPDEST PUSH2 0xB2 PUSH2 0x1F0 CALLDATASIZE PUSH1 0x4 PUSH2 0x32A JUMP JUMPDEST PUSH0 DUP1 SLOAD PUSH2 0xFFFF SWAP1 SWAP3 AND PUSH5 0x100000000 MUL PUSH6 0xFFFF00000000 NOT SWAP1 SWAP3 AND SWAP2 SWAP1 SWAP2 OR SWAP1 SSTORE JUMP JUMPDEST PUSH2 0xB2 PUSH2 0x221 CALLDATASIZE PUSH1 0x4 PUSH2 0x34B JUMP JUMPDEST PUSH0 DUP1 SLOAD PUSH14 0xFFFFFFFFFFFFFFFFFFFFFFFFFFFF SWAP1 SWAP3 AND PUSH19 0x1000000000000000000000000000000000000 MUL PUSH18 0xFFFFFFFFFFFFFFFFFFFFFFFFFFFFFFFFFFFF SWAP1 SWAP3 AND SWAP2 SWAP1 SWAP2 OR SWAP1 SSTORE JUMP JUMPDEST PUSH2 0xB2 PUSH2 0x277 CALLDATASIZE PUSH1 0x4 PUSH2 0x32A JUMP JUMPDEST PUSH0 DUP1 SLOAD PUSH2 0xFFFF SWAP1 SWAP3 AND PUSH3 0x10000 MUL PUSH4 0xFFFF0000 NOT SWAP1 SWAP3 AND SWAP2 SWAP1 SWAP2 OR SWAP1 SSTORE JUMP JUMPDEST PUSH2 0xB2 PUSH2 0x2A4 CALLDATASIZE PUSH1 0x4 PUSH2 0x2B9 JUMP JUMPDEST PUSH0 DUP1 SLOAD PUSH1 0xFF NOT AND PUSH1 0xFF SWAP3 SWAP1 SWAP3 AND SWAP2 SWAP1 SWAP2 OR SWAP1 SSTORE JUMP JUMPDEST PUSH0 PUSH1 0x20 DUP3 DUP5 SUB SLT ISZERO PUSH2 0x2C9 JUMPI PUSH0 DUP1 REVERT JUMPDEST DUP2 CALLDATALOAD PUSH1 0xFF DUP2 AND DUP2 EQ PUSH2 0x2D9 JUMPI PUSH0 DUP1 REVERT JUMPDEST SWAP4 SWAP3 POP POP POP JUMP JUMPDEST PUSH0 PUSH1 0x20 DUP3 DUP5 SUB SLT ISZERO PUSH2 0x2F0 JUMPI PUSH0 DUP1 REVERT JUMPDEST DUP2 CALLDATALOAD PUSH8 0xFFFFFFFFFFFFFFFF DUP2 AND DUP2 EQ PUSH2 0x2D9 JUMPI PUSH0 DUP1 REVERT JUMPDEST PUSH0 PUSH1 0x20 DUP3 DUP5 SUB SLT ISZERO PUSH2 0x317 JUMPI PUSH0 DUP1 REVERT JUMPDEST DUP2 CALLDATALOAD PUSH4 0xFFFFFFFF DUP2 AND DUP2 EQ PUSH2 0x2D9 JUMPI PUSH0 DUP1 REVERT JUMPDEST PUSH0 PUSH1 0x20 DUP3 DUP5 SUB SLT ISZERO PUSH2 0x33A JUMPI PUSH0 DUP1 REVERT JUMPDEST DUP2 CALLDATALOAD PUSH2 0xFFFF DUP2 AND DUP2 EQ PUSH2 0x2D9 JUMPI PUSH0 DUP1 REVERT JUMPDEST PUSH0 PUSH1 0x20 DUP3 DUP5 SUB SLT ISZERO PUSH2 0x35B JUMPI PUSH0 DUP1 REVERT JUMPDEST DUP2 CALLDATALOAD PUSH14 0xFFFFFFFFFFFFFFFFFFFFFFFFFFFF DUP2 AND DUP2 EQ PUSH2 0x2D9 JUMPI PUSH0 DUP1 REVERT INVALID LOG2 PUSH5 0x6970667358 0x22 SLT KECCAK256 SAR CALLDATASIZE ADDRESS PUSH28 0xD9CD54D9FE2BB642636C776157D5C49B44AB57552FEC9ED71D5CA54E PUSH5 0x736F6C6343 STOP ADDMOD NOT STOP CALLER "
				},
				"gasEstimates": {
					"creation": {
						"codeDepositCost": "188400",
						"executionCost": "230",
						"totalCost": "188630"
					},
					"external": {
						"getValues()": "2496",
						"setA(uint8)": "24551",
						"setB(uint8)": "24497",
						"setC(uint16)": "24540",
						"setD(uint16)": "24496",
						"setE(uint32)": "24563",
						"setF(uint64)": "24538",
						"setG(uint112)": "24515"
					}
				},
				"methodIdentifiers": {
					"getValues()": "19eb4a90",
					"setA(uint8)": "c04a87d1",
					"setB(uint8)": "16abdf7d",
					"setC(uint16)": "a35ca28d",
					"setD(uint16)": "8c659031",
					"setE(uint32)": "6074e99e",
					"setF(uint64)": "26ccace9",
					"setG(uint112)": "9ad09c83"
				}
			},
			"storageLayout": {
				"storage": [
					{
						"astId": 3,
						"contract": "contracts/ContractC/ContractCV5.sol:ContractCV5",
						"label": "a",
						"offset": 0,
						"slot": "0",
						"type": "t_uint8"
					},
					{
						"astId": 5,
						"contract": "contracts/ContractC/ContractCV5.sol:ContractCV5",
						"label": "b",
						"offset": 1,
						"slot": "0",
						"type": "t_uint8"
					},
					{
						"astId": 7,
						"contract": "contracts/ContractC/ContractCV5.sol:ContractCV5",
						"label": "c",
						"offset": 2,
						"slot": "0",
						"type": "t_uint16"
					},
					{
						"astId": 9,
						"contract": "contracts/ContractC/ContractCV5.sol:ContractCV5",
						"label": "d",
						"offset": 4,
						"slot": "0",
						"type": "t_uint16"
					},
					{
						"astId": 11,
						"contract": "contracts/ContractC/ContractCV5.sol:ContractCV5",
						"label": "e",
						"offset": 6,
						"slot": "0",
						"type": "t_uint32"
					},
					{
						"astId": 13,
						"contract": "contracts/ContractC/ContractCV5.sol:ContractCV5",
						"label": "f",
						"offset": 10,
						"slot": "0",
						"type": "t_uint64"
					},
					{
						"astId": 15,
						"contract": "contracts/ContractC/ContractCV5.sol:ContractCV5",
						"label": "g",
						"offset": 18,
						"slot": "0",
						"type": "t_uint112"
					}
				],
				"types": {
					"t_uint112": {
						"encoding": "inplace",
						"label": "uint112",
						"numberOfBytes": "14"
					},
					"t_uint16": {
						"encoding": "inplace",
						"label": "uint16",
						"numberOfBytes": "2"
					},
					"t_uint32": {
						"encoding": "inplace",
						"label": "uint32",
						"numberOfBytes": "4"
					},
					"t_uint64": {
						"encoding": "inplace",
						"label": "uint64",
						"numberOfBytes": "8"
					},
					"t_uint8": {
						"encoding": "inplace",
						"label": "uint8",
						"numberOfBytes": "1"
					}
				}
			},
			"userdoc": {
				"kind": "user",
				"methods": {},
				"version": 1
			}
		}
	}
}