{
	"contracts/ContractC/ContractCV1.sol": {
		"ContractCV1": {
			"abi": [
				{
					"inputs": [],
					"name": "a",
					"outputs": [
						{
							"internalType": "uint8",
							"name": "",
							"type": "uint8"
						}
					],
					"stateMutability": "view",
					"type": "function"
				},
				{
					"inputs": [],
					"name": "b",
					"outputs": [
						{
							"internalType": "uint8",
							"name": "",
							"type": "uint8"
						}
					],
					"stateMutability": "view",
					"type": "function"
				},
				{
					"inputs": [],
					"name": "c",
					"outputs": [
						{
							"internalType": "uint8",
							"name": "",
							"type": "uint8"
						}
					],
					"stateMutability": "view",
					"type": "function"
				},
				{
					"inputs": [],
					"name": "d",
					"outputs": [
						{
							"internalType": "uint8",
							"name": "",
							"type": "uint8"
						}
					],
					"stateMutability": "view",
					"type": "function"
				}
			],
			"devdoc": {
				"kind": "dev",
				"methods": {},
				"version": 1
			},
			"evm": {
				"assembly": "    /* \"contracts/ContractC/ContractCV1.sol\":63:172  contract ContractCV1 {... */\n  mstore(0x40, 0x80)\n  callvalue\n  dup1\n  iszero\n  tag_1\n  jumpi\n  0x00\n  dup1\n  revert\ntag_1:\n  pop\n  dataSize(sub_0)\n  dup1\n  dataOffset(sub_0)\n  0x00\n  codecopy\n  0x00\n  return\nstop\n\nsub_0: assembly {\n        /* \"contracts/ContractC/ContractCV1.sol\":63:172  contract ContractCV1 {... */\n      mstore(0x40, 0x80)\n      callvalue\n      dup1\n      iszero\n      tag_1\n      jumpi\n      0x00\n      dup1\n      revert\n    tag_1:\n      pop\n      jumpi(tag_2, lt(calldatasize, 0x04))\n      shr(0xe0, calldataload(0x00))\n      dup1\n      0x0dbe671f\n      eq\n      tag_3\n      jumpi\n      dup1\n      0x4df7e3d0\n      eq\n      tag_4\n      jumpi\n      dup1\n      0x8a054ac2\n      eq\n      tag_5\n      jumpi\n      dup1\n      0xc3da42b8\n      eq\n      tag_6\n      jumpi\n    tag_2:\n      0x00\n      dup1\n      revert\n        /* \"contracts/ContractC/ContractCV1.sol\":91:105  uint8 public a */\n    tag_3:\n      sload(0x00)\n      tag_7\n      swap1\n      0xff\n      and\n      dup2\n      jump\n    tag_7:\n      mload(0x40)\n        /* \"#utility.yul\":186:190   */\n      0xff\n        /* \"#utility.yul\":174:191   */\n      swap1\n      swap2\n      and\n        /* \"#utility.yul\":156:192   */\n      dup2\n      mstore\n        /* \"#utility.yul\":144:146   */\n      0x20\n        /* \"#utility.yul\":129:147   */\n      add\n        /* \"contracts/ContractC/ContractCV1.sol\":91:105  uint8 public a */\n      mload(0x40)\n      dup1\n      swap2\n      sub\n      swap1\n      return\n        /* \"contracts/ContractC/ContractCV1.sol\":112:126  uint8 public b */\n    tag_4:\n      sload(0x00)\n      tag_7\n      swap1\n      0x0100\n      swap1\n      div\n      0xff\n      and\n      dup2\n      jump\n        /* \"contracts/ContractC/ContractCV1.sol\":154:168  uint8 public d */\n    tag_5:\n      sload(0x00)\n      tag_7\n      swap1\n      0x01000000\n      swap1\n      div\n      0xff\n      and\n      dup2\n      jump\n        /* \"contracts/ContractC/ContractCV1.sol\":133:147  uint8 public c */\n    tag_6:\n      sload(0x00)\n      tag_7\n      swap1\n      0x010000\n      swap1\n      div\n      0xff\n      and\n      dup2\n      jump\n\n    auxdata: 0xa2646970667358221220f20accaa0783fb955c4e4528b99ef80b9bf028b9a2e31dcc4958d86682e699a564736f6c63430008190033\n}\n",
				"bytecode": {
					"linkReferences": {},
					"object": "6080604052348015600e575f80fd5b5060d280601a5f395ff3fe6080604052348015600e575f80fd5b50600436106044575f3560e01c80630dbe671f1460485780634df7e3d01460695780638a054ac2146079578063c3da42b814608b575b5f80fd5b5f5460539060ff1681565b60405160ff909116815260200160405180910390f35b5f54605390610100900460ff1681565b5f546053906301000000900460ff1681565b5f5460539062010000900460ff168156fea2646970667358221220f20accaa0783fb955c4e4528b99ef80b9bf028b9a2e31dcc4958d86682e699a564736f6c63430008190033",
					"opcodes": "PUSH1 0x80 PUSH1 0x40 MSTORE CALLVALUE DUP1 ISZERO PUSH1 0xE JUMPI PUSH0 DUP1 REVERT JUMPDEST POP PUSH1 0xD2 DUP1 PUSH1 0x1A PUSH0 CODECOPY PUSH0 RETURN INVALID PUSH1 0x80 PUSH1 0x40 MSTORE CALLVALUE DUP1 ISZERO PUSH1 0xE JUMPI PUSH0 DUP1 REVERT JUMPDEST POP PUSH1 0x4 CALLDATASIZE LT PUSH1 0x44 JUMPI PUSH0 CALLDATALOAD PUSH1 0xE0 SHR DUP1 PUSH4 0xDBE671F EQ PUSH1 0x48 JUMPI DUP1 PUSH4 0x4DF7E3D0 EQ PUSH1 0x69 JUMPI DUP1 PUSH4 0x8A054AC2 EQ PUSH1 0x79 JUMPI DUP1 PUSH4 0xC3DA42B8 EQ PUSH1 0x8B JUMPI JUMPDEST PUSH0 DUP1 REVERT JUMPDEST PUSH0 SLOAD PUSH1 0x53 SWAP1 PUSH1 0xFF AND DUP2 JUMP JUMPDEST PUSH1 0x40 MLOAD PUSH1 0xFF SWAP1 SWAP2 AND DUP2 MSTORE PUSH1 0x20 ADD PUSH1 0x40 MLOAD DUP1 SWAP2 SUB SWAP1 RETURN JUMPDEST PUSH0 SLOAD PUSH1 0x53 SWAP1 PUSH2 0x100 SWAP1 DIV PUSH1 0xFF AND DUP2 JUMP JUMPDEST PUSH0 SLOAD PUSH1 0x53 SWAP1 PUSH4 0x1000000 SWAP1 DIV PUSH1 0xFF AND DUP2 JUMP JUMPDEST PUSH0 SLOAD PUSH1 0x53 SWAP1 PUSH3 0x10000 SWAP1 DIV PUSH1 0xFF AND DUP2 JUMP INVALID LOG2 PUSH5 0x6970667358 0x22 SLT KECCAK256 CALLCODE EXP 0xCC 0xAA SMOD DUP4 0xFB SWAP6 TLOAD 0x4E GASLIMIT 0x28 0xB9 SWAP15 0xF8 SIGNEXTEND SWAP12 CREATE 0x28 0xB9 LOG2 0xE3 SAR 0xCC BLOBHASH PC 0xD8 PUSH7 0x82E699A564736F PUSH13 0x63430008190033000000000000 "
				},
				"gasEstimates": {
					"creation": {
						"codeDepositCost": "42000",
						"executionCost": "91",
						"totalCost": "42091"
					},
					"external": {
						"a()": "2277",
						"b()": "2310",
						"c()": "2354",
						"d()": "2332"
					}
				},
				"methodIdentifiers": {
					"a()": "0dbe671f",
					"b()": "4df7e3d0",
					"c()": "c3da42b8",
					"d()": "8a054ac2"
				}
			},
			"storageLayout": {
				"storage": [
					{
						"astId": 3,
						"contract": "contracts/ContractC/ContractCV1.sol:ContractCV1",
						"label": "a",
						"offset": 0,
						"slot": "0",
						"type": "t_uint8"
					},
					{
						"astId": 5,
						"contract": "contracts/ContractC/ContractCV1.sol:ContractCV1",
						"label": "b",
						"offset": 1,
						"slot": "0",
						"type": "t_uint8"
					},
					{
						"astId": 7,
						"contract": "contracts/ContractC/ContractCV1.sol:ContractCV1",
						"label": "c",
						"offset": 2,
						"slot": "0",
						"type": "t_uint8"
					},
					{
						"astId": 9,
						"contract": "contracts/ContractC/ContractCV1.sol:ContractCV1",
						"label": "d",
						"offset": 3,
						"slot": "0",
						"type": "t_uint8"
					}
				],
				"types": {
					"t_uint8": {
						"encoding": "inplace",
						"label": "uint8",
						"numberOfBytes": "1"
					}
				}
			},
			"userdoc": {
				"kind": "user",
				"methods": {},
				"version": 1
			}
		}
	}
}