{
	"contracts/ContractH/ContractHV2.sol": {
		"ContractHV2": {
			"abi": [
				{
					"inputs": [],
					"name": "num1",
					"outputs": [
						{
							"internalType": "uint128",
							"name": "",
							"type": "uint128"
						}
					],
					"stateMutability": "view",
					"type": "function"
				},
				{
					"inputs": [],
					"name": "num2",
					"outputs": [
						{
							"internalType": "uint256",
							"name": "",
							"type": "uint256"
						}
					],
					"stateMutability": "view",
					"type": "function"
				},
				{
					"inputs": [],
					"name": "num3",
					"outputs": [
						{
							"internalType": "uint128",
							"name": "",
							"type": "uint128"
						}
					],
					"stateMutability": "view",
					"type": "function"
				}
			],
			"devdoc": {
				"kind": "dev",
				"methods": {},
				"version": 1
			},
			"evm": {
				"assembly": "    /* \"contracts/ContractH/ContractHV2.sol\":63:166  contract ContractHV2 {... */\n  mstore(0x40, 0x80)\n  callvalue\n  dup1\n  iszero\n  tag_1\n  jumpi\n  0x00\n  dup1\n  revert\ntag_1:\n  pop\n  dataSize(sub_0)\n  dup1\n  dataOffset(sub_0)\n  0x00\n  codecopy\n  0x00\n  return\nstop\n\nsub_0: assembly {\n        /* \"contracts/ContractH/ContractHV2.sol\":63:166  contract ContractHV2 {... */\n      mstore(0x40, 0x80)\n      callvalue\n      dup1\n      iszero\n      tag_1\n      jumpi\n      0x00\n      dup1\n      revert\n    tag_1:\n      pop\n      jumpi(tag_2, lt(calldatasize, 0x04))\n      shr(0xe0, calldataload(0x00))\n      dup1\n      0x15d4266c\n      eq\n      tag_3\n      jumpi\n      dup1\n      0x3b9eac4b\n      eq\n      tag_4\n      jumpi\n      dup1\n      0xa531f36a\n      eq\n      tag_5\n      jumpi\n    tag_2:\n      0x00\n      dup1\n      revert\n        /* \"contracts/ContractH/ContractHV2.sol\":143:162  uint256 public num2 */\n    tag_3:\n      tag_6\n      sload(0x01)\n      dup2\n      jump\n    tag_6:\n      mload(0x40)\n        /* \"#utility.yul\":160:185   */\n      swap1\n      dup2\n      mstore\n        /* \"#utility.yul\":148:150   */\n      0x20\n        /* \"#utility.yul\":133:151   */\n      add\n        /* \"contracts/ContractH/ContractHV2.sol\":143:162  uint256 public num2 */\n    tag_8:\n      mload(0x40)\n      dup1\n      swap2\n      sub\n      swap1\n      return\n        /* \"contracts/ContractH/ContractHV2.sol\":91:110  uint128 public num1 */\n    tag_4:\n      sload(0x00)\n      tag_10\n      swap1\n      sub(shl(0x80, 0x01), 0x01)\n      and\n      dup2\n      jump\n    tag_10:\n      mload(0x40)\n      sub(shl(0x80, 0x01), 0x01)\n        /* \"#utility.yul\":360:407   */\n      swap1\n      swap2\n      and\n        /* \"#utility.yul\":342:408   */\n      dup2\n      mstore\n        /* \"#utility.yul\":330:332   */\n      0x20\n        /* \"#utility.yul\":315:333   */\n      add\n        /* \"contracts/ContractH/ContractHV2.sol\":91:110  uint128 public num1 */\n      tag_8\n        /* \"#utility.yul\":196:414   */\n      jump\n        /* \"contracts/ContractH/ContractHV2.sol\":117:136  uint128 public num3 */\n    tag_5:\n      sload(0x00)\n      tag_10\n      swap1\n      shl(0x80, 0x01)\n      swap1\n      div\n      sub(shl(0x80, 0x01), 0x01)\n      and\n      dup2\n      jump\n\n    auxdata: 0xa264697066735822122029ea85362a7114727cf6d5b7b6e2a1ece6df74afe82384f3983c3361507952a564736f6c63430008190033\n}\n",
				"bytecode": {
					"linkReferences": {},
					"object": "6080604052348015600e575f80fd5b5060cf80601a5f395ff3fe6080604052348015600e575f80fd5b5060043610603a575f3560e01c806315d4266c14603e5780633b9eac4b146059578063a531f36a146081575b5f80fd5b604660015481565b6040519081526020015b60405180910390f35b5f54606a906001600160801b031681565b6040516001600160801b0390911681526020016050565b5f54606a90600160801b90046001600160801b03168156fea264697066735822122029ea85362a7114727cf6d5b7b6e2a1ece6df74afe82384f3983c3361507952a564736f6c63430008190033",
					"opcodes": "PUSH1 0x80 PUSH1 0x40 MSTORE CALLVALUE DUP1 ISZERO PUSH1 0xE JUMPI PUSH0 DUP1 REVERT JUMPDEST POP PUSH1 0xCF DUP1 PUSH1 0x1A PUSH0 CODECOPY PUSH0 RETURN INVALID PUSH1 0x80 PUSH1 0x40 MSTORE CALLVALUE DUP1 ISZERO PUSH1 0xE JUMPI PUSH0 DUP1 REVERT JUMPDEST POP PUSH1 0x4 CALLDATASIZE LT PUSH1 0x3A JUMPI PUSH0 CALLDATALOAD PUSH1 0xE0 SHR DUP1 PUSH4 0x15D4266C EQ PUSH1 0x3E JUMPI DUP1 PUSH4 0x3B9EAC4B EQ PUSH1 0x59 JUMPI DUP1 PUSH4 0xA531F36A EQ PUSH1 0x81 JUMPI JUMPDEST PUSH0 DUP1 REVERT JUMPDEST PUSH1 0x46 PUSH1 0x1 SLOAD DUP2 JUMP JUMPDEST PUSH1 0x40 MLOAD SWAP1 DUP2 MSTORE PUSH1 0x20 ADD JUMPDEST PUSH1 0x40 MLOAD DUP1 SWAP2 SUB SWAP1 RETURN JUMPDEST PUSH0 SLOAD PUSH1 0x6A SWAP1 PUSH1 0x1 PUSH1 0x1 PUSH1 0x80 SHL SUB AND DUP2 JUMP JUMPDEST PUSH1 0x40 MLOAD PUSH1 0x1 PUSH1 0x1 PUSH1 0x80 SHL SUB SWAP1 SWAP2 AND DUP2 MSTORE PUSH1 0x20 ADD PUSH1 0x50 JUMP JUMPDEST PUSH0 SLOAD PUSH1 0x6A SWAP1 PUSH1 0x1 PUSH1 0x80 SHL SWAP1 DIV PUSH1 0x1 PUSH1 0x1 PUSH1 0x80 SHL SUB AND DUP2 JUMP INVALID LOG2 PUSH5 0x6970667358 0x22 SLT KECCAK256 0x29 0xEA DUP6 CALLDATASIZE 0x2A PUSH18 0x14727CF6D5B7B6E2A1ECE6DF74AFE82384F3 SWAP9 EXTCODECOPY CALLER PUSH2 0x5079 MSTORE 0xA5 PUSH5 0x736F6C6343 STOP ADDMOD NOT STOP CALLER "
				},
				"gasEstimates": {
					"creation": {
						"codeDepositCost": "41400",
						"executionCost": "91",
						"totalCost": "41491"
					},
					"external": {
						"num1()": "2335",
						"num2()": "2261",
						"num3()": "2374"
					}
				},
				"methodIdentifiers": {
					"num1()": "3b9eac4b",
					"num2()": "15d4266c",
					"num3()": "a531f36a"
				}
			},
			"storageLayout": {
				"storage": [
					{
						"astId": 3,
						"contract": "contracts/ContractH/ContractHV2.sol:ContractHV2",
						"label": "num1",
						"offset": 0,
						"slot": "0",
						"type": "t_uint128"
					},
					{
						"astId": 5,
						"contract": "contracts/ContractH/ContractHV2.sol:ContractHV2",
						"label": "num3",
						"offset": 16,
						"slot": "0",
						"type": "t_uint128"
					},
					{
						"astId": 7,
						"contract": "contracts/ContractH/ContractHV2.sol:ContractHV2",
						"label": "num2",
						"offset": 0,
						"slot": "1",
						"type": "t_uint256"
					}
				],
				"types": {
					"t_uint128": {
						"encoding": "inplace",
						"label": "uint128",
						"numberOfBytes": "16"
					},
					"t_uint256": {
						"encoding": "inplace",
						"label": "uint256",
						"numberOfBytes": "32"
					}
				}
			},
			"userdoc": {
				"kind": "user",
				"methods": {},
				"version": 1
			}
		}
	}
}