{
	"data": {
		"bytecode": {
			"linkReferences": {},
			"object": "6080604052348015600e575f80fd5b506102038061001c5f395ff3fe608060405234801561000f575f80fd5b5060043610610034575f3560e01c80639201de5514610038578063cfb5192814610061575b5f80fd5b61004b6100463660046100e0565b610082565b60405161005891906100f7565b60405180910390f35b61007461006f36600461012c565b6100ad565b604051908152602001610058565b60608160405160200161009791815260200190565b6040516020818303038152906040529050919050565b5f82826040516020016100c1929190610198565b6040516020818303038152906040526100d9906101a7565b9392505050565b5f602082840312156100f0575f80fd5b5035919050565b602081525f82518060208401528060208501604085015e5f604082850101526040601f19601f83011684010191505092915050565b5f806020838503121561013d575f80fd5b823567ffffffffffffffff80821115610154575f80fd5b818501915085601f830112610167575f80fd5b813581811115610175575f80fd5b866020828501011115610186575f80fd5b60209290920196919550909350505050565b818382375f9101908152919050565b805160208083015191908110156101c7575f198160200360031b1b821691505b5091905056fea26469706673582212204c27c9e0267922636857ed6b2ee1e39acc9b221947277d12929676ef07d67c3564736f6c63430008190033",
			"opcodes": "PUSH1 0x80 PUSH1 0x40 MSTORE CALLVALUE DUP1 ISZERO PUSH1 0xE JUMPI PUSH0 DUP1 REVERT JUMPDEST POP PUSH2 0x203 DUP1 PUSH2 0x1C PUSH0 CODECOPY PUSH0 RETURN INVALID PUSH1 0x80 PUSH1 0x40 MSTORE CALLVALUE DUP1 ISZERO PUSH2 0xF JUMPI PUSH0 DUP1 REVERT JUMPDEST POP PUSH1 0x4 CALLDATASIZE LT PUSH2 0x34 JUMPI PUSH0 CALLDATALOAD PUSH1 0xE0 SHR DUP1 PUSH4 0x9201DE55 EQ PUSH2 0x38 JUMPI DUP1 PUSH4 0xCFB51928 EQ PUSH2 0x61 JUMPI JUMPDEST PUSH0 DUP1 REVERT JUMPDEST PUSH2 0x4B PUSH2 0x46 CALLDATASIZE PUSH1 0x4 PUSH2 0xE0 JUMP JUMPDEST PUSH2 0x82 JUMP JUMPDEST PUSH1 0x40 MLOAD PUSH2 0x58 SWAP2 SWAP1 PUSH2 0xF7 JUMP JUMPDEST PUSH1 0x40 MLOAD DUP1 SWAP2 SUB SWAP1 RETURN JUMPDEST PUSH2 0x74 PUSH2 0x6F CALLDATASIZE PUSH1 0x4 PUSH2 0x12C JUMP JUMPDEST PUSH2 0xAD JUMP JUMPDEST PUSH1 0x40 MLOAD SWAP1 DUP2 MSTORE PUSH1 0x20 ADD PUSH2 0x58 JUMP JUMPDEST PUSH1 0x60 DUP2 PUSH1 0x40 MLOAD PUSH1 0x20 ADD PUSH2 0x97 SWAP2 DUP2 MSTORE PUSH1 0x20 ADD SWAP1 JUMP JUMPDEST PUSH1 0x40 MLOAD PUSH1 0x20 DUP2 DUP4 SUB SUB DUP2 MSTORE SWAP1 PUSH1 0x40 MSTORE SWAP1 POP SWAP2 SWAP1 POP JUMP JUMPDEST PUSH0 DUP3 DUP3 PUSH1 0x40 MLOAD PUSH1 0x20 ADD PUSH2 0xC1 SWAP3 SWAP2 SWAP1 PUSH2 0x198 JUMP JUMPDEST PUSH1 0x40 MLOAD PUSH1 0x20 DUP2 DUP4 SUB SUB DUP2 MSTORE SWAP1 PUSH1 0x40 MSTORE PUSH2 0xD9 SWAP1 PUSH2 0x1A7 JUMP JUMPDEST SWAP4 SWAP3 POP POP POP JUMP JUMPDEST PUSH0 PUSH1 0x20 DUP3 DUP5 SUB SLT ISZERO PUSH2 0xF0 JUMPI PUSH0 DUP1 REVERT JUMPDEST POP CALLDATALOAD SWAP2 SWAP1 POP JUMP JUMPDEST PUSH1 0x20 DUP2 MSTORE PUSH0 DUP3 MLOAD DUP1 PUSH1 0x20 DUP5 ADD MSTORE DUP1 PUSH1 0x20 DUP6 ADD PUSH1 0x40 DUP6 ADD MCOPY PUSH0 PUSH1 0x40 DUP3 DUP6 ADD ADD MSTORE PUSH1 0x40 PUSH1 0x1F NOT PUSH1 0x1F DUP4 ADD AND DUP5 ADD ADD SWAP2 POP POP SWAP3 SWAP2 POP POP JUMP JUMPDEST PUSH0 DUP1 PUSH1 0x20 DUP4 DUP6 SUB SLT ISZERO PUSH2 0x13D JUMPI PUSH0 DUP1 REVERT JUMPDEST DUP3 CALLDATALOAD PUSH8 0xFFFFFFFFFFFFFFFF DUP1 DUP3 GT ISZERO PUSH2 0x154 JUMPI PUSH0 DUP1 REVERT JUMPDEST DUP2 DUP6 ADD SWAP2 POP DUP6 PUSH1 0x1F DUP4 ADD SLT PUSH2 0x167 JUMPI PUSH0 DUP1 REVERT JUMPDEST DUP2 CALLDATALOAD DUP2 DUP2 GT ISZERO PUSH2 0x175 JUMPI PUSH0 DUP1 REVERT JUMPDEST DUP7 PUSH1 0x20 DUP3 DUP6 ADD ADD GT ISZERO PUSH2 0x186 JUMPI PUSH0 DUP1 REVERT JUMPDEST PUSH1 0x20 SWAP3 SWAP1 SWAP3 ADD SWAP7 SWAP2 SWAP6 POP SWAP1 SWAP4 POP POP POP POP JUMP JUMPDEST DUP2 DUP4 DUP3 CALLDATACOPY PUSH0 SWAP2 ADD SWAP1 DUP2 MSTORE SWAP2 SWAP1 POP JUMP JUMPDEST DUP1 MLOAD PUSH1 0x20 DUP1 DUP4 ADD MLOAD SWAP2 SWAP1 DUP2 LT ISZERO PUSH2 0x1C7 JUMPI PUSH0 NOT DUP2 PUSH1 0x20 SUB PUSH1 0x3 SHL SHL DUP3 AND SWAP2 POP JUMPDEST POP SWAP2 SWAP1 POP JUMP INVALID LOG2 PUSH5 0x6970667358 0x22 SLT KECCAK256 0x4C 0x27 0xC9 0xE0 0x26 PUSH26 0x22636857ED6B2EE1E39ACC9B221947277D12929676EF07D67C35 PUSH5 0x736F6C6343 STOP ADDMOD NOT STOP CALLER "
		},
		"gasEstimates": {
			"creation": {
				"codeDepositCost": "103000",
				"executionCost": "151",
				"totalCost": "103151"
			},
			"external": {
				"bytes32ToString(bytes32)": "infinite",
				"stringToBytes32(string)": "infinite"
			}
		},
		"methodIdentifiers": {
			"bytes32ToString(bytes32)": "9201de55",
			"stringToBytes32(string)": "cfb51928"
		}
	},
	"abi": [
		{
			"inputs": [
				{
					"internalType": "bytes32",
					"name": "str",
					"type": "bytes32"
				}
			],
			"name": "bytes32ToString",
			"outputs": [
				{
					"internalType": "string",
					"name": "",
					"type": "string"
				}
			],
			"stateMutability": "pure",
			"type": "function"
		},
		{
			"inputs": [
				{
					"internalType": "string",
					"name": "str",
					"type": "string"
				}
			],
			"name": "stringToBytes32",
			"outputs": [
				{
					"internalType": "bytes32",
					"name": "",
					"type": "bytes32"
				}
			],
			"stateMutability": "pure",
			"type": "function"
		}
	]
}