{
	"data": {
		"bytecode": {
			"linkReferences": {},
			"object": "6080604052348015600e575f80fd5b506101e58061001c5f395ff3fe608060405234801561000f575f80fd5b506004361061006f575f3560e01c80635ccf08b81161004d5780635ccf08b8146100b5578063e30443bc146100bd578063f8b2cb4f146100f3575f80fd5b8063209652551461007357806332ba65aa1461008857806355241077146100a3575b5f80fd5b5f545b60405190815260200160405180910390f35b6100a1610096366004610150565b5f6001808301205550565b005b6100a16100b1366004610170565b5f55565b6100a15f8055565b6100a16100cb366004610187565b73ffffffffffffffffffffffffffffffffffffffff9091165f90815260016020526040902055565b610076610101366004610150565b73ffffffffffffffffffffffffffffffffffffffff165f9081526001602052604090205490565b803573ffffffffffffffffffffffffffffffffffffffff8116811461014b575f80fd5b919050565b5f60208284031215610160575f80fd5b61016982610128565b9392505050565b5f60208284031215610180575f80fd5b5035919050565b5f8060408385031215610198575f80fd5b6101a183610128565b94602093909301359350505056fea2646970667358221220e1e8702f9c3a7cd6123bde507108ce731d8f8f6c6da2ba327d7f59d61a5ce53f64736f6c63430008190033",
			"opcodes": "PUSH1 0x80 PUSH1 0x40 MSTORE CALLVALUE DUP1 ISZERO PUSH1 0xE JUMPI PUSH0 DUP1 REVERT JUMPDEST POP PUSH2 0x1E5 DUP1 PUSH2 0x1C PUSH0 CODECOPY PUSH0 RETURN INVALID PUSH1 0x80 PUSH1 0x40 MSTORE CALLVALUE DUP1 ISZERO PUSH2 0xF JUMPI PUSH0 DUP1 REVERT JUMPDEST POP PUSH1 0x4 CALLDATASIZE LT PUSH2 0x6F JUMPI PUSH0 CALLDATALOAD PUSH1 0xE0 SHR DUP1 PUSH4 0x5CCF08B8 GT PUSH2 0x4D JUMPI DUP1 PUSH4 0x5CCF08B8 EQ PUSH2 0xB5 JUMPI DUP1 PUSH4 0xE30443BC EQ PUSH2 0xBD JUMPI DUP1 PUSH4 0xF8B2CB4F EQ PUSH2 0xF3 JUMPI PUSH0 DUP1 REVERT JUMPDEST DUP1 PUSH4 0x20965255 EQ PUSH2 0x73 JUMPI DUP1 PUSH4 0x32BA65AA EQ PUSH2 0x88 JUMPI DUP1 PUSH4 0x55241077 EQ PUSH2 0xA3 JUMPI JUMPDEST PUSH0 DUP1 REVERT JUMPDEST PUSH0 SLOAD JUMPDEST PUSH1 0x40 MLOAD SWAP1 DUP2 MSTORE PUSH1 0x20 ADD PUSH1 0x40 MLOAD DUP1 SWAP2 SUB SWAP1 RETURN JUMPDEST PUSH2 0xA1 PUSH2 0x96 CALLDATASIZE PUSH1 0x4 PUSH2 0x150 JUMP JUMPDEST PUSH0 PUSH1 0x1 DUP1 DUP4 ADD KECCAK256 SSTORE POP JUMP JUMPDEST STOP JUMPDEST PUSH2 0xA1 PUSH2 0xB1 CALLDATASIZE PUSH1 0x4 PUSH2 0x170 JUMP JUMPDEST PUSH0 SSTORE JUMP JUMPDEST PUSH2 0xA1 PUSH0 DUP1 SSTORE JUMP JUMPDEST PUSH2 0xA1 PUSH2 0xCB CALLDATASIZE PUSH1 0x4 PUSH2 0x187 JUMP JUMPDEST PUSH20 0xFFFFFFFFFFFFFFFFFFFFFFFFFFFFFFFFFFFFFFFF SWAP1 SWAP2 AND PUSH0 SWAP1 DUP2 MSTORE PUSH1 0x1 PUSH1 0x20 MSTORE PUSH1 0x40 SWAP1 KECCAK256 SSTORE JUMP JUMPDEST PUSH2 0x76 PUSH2 0x101 CALLDATASIZE PUSH1 0x4 PUSH2 0x150 JUMP JUMPDEST PUSH20 0xFFFFFFFFFFFFFFFFFFFFFFFFFFFFFFFFFFFFFFFF AND PUSH0 SWAP1 DUP2 MSTORE PUSH1 0x1 PUSH1 0x20 MSTORE PUSH1 0x40 SWAP1 KECCAK256 SLOAD SWAP1 JUMP JUMPDEST DUP1 CALLDATALOAD PUSH20 0xFFFFFFFFFFFFFFFFFFFFFFFFFFFFFFFFFFFFFFFF DUP2 AND DUP2 EQ PUSH2 0x14B JUMPI PUSH0 DUP1 REVERT JUMPDEST SWAP2 SWAP1 POP JUMP JUMPDEST PUSH0 PUSH1 0x20 DUP3 DUP5 SUB SLT ISZERO PUSH2 0x160 JUMPI PUSH0 DUP1 REVERT JUMPDEST PUSH2 0x169 DUP3 PUSH2 0x128 JUMP JUMPDEST SWAP4 SWAP3 POP POP POP JUMP JUMPDEST PUSH0 PUSH1 0x20 DUP3 DUP5 SUB SLT ISZERO PUSH2 0x180 JUMPI PUSH0 DUP1 REVERT JUMPDEST POP CALLDATALOAD SWAP2 SWAP1 POP JUMP JUMPDEST PUSH0 DUP1 PUSH1 0x40 DUP4 DUP6 SUB SLT ISZERO PUSH2 0x198 JUMPI PUSH0 DUP1 REVERT JUMPDEST PUSH2 0x1A1 DUP4 PUSH2 0x128 JUMP JUMPDEST SWAP5 PUSH1 0x20 SWAP4 SWAP1 SWAP4 ADD CALLDATALOAD SWAP4 POP POP POP JUMP INVALID LOG2 PUSH5 0x6970667358 0x22 SLT KECCAK256 0xE1 0xE8 PUSH17 0x2F9C3A7CD6123BDE507108CE731D8F8F6C PUSH14 0xA2BA327D7F59D61A5CE53F64736F PUSH13 0x63430008190033000000000000 "
		},
		"gasEstimates": {
			"creation": {
				"codeDepositCost": "97000",
				"executionCost": "145",
				"totalCost": "97145"
			},
			"external": {
				"clearBalance(address)": "infinite",
				"clearValue()": "5136",
				"getBalance(address)": "2542",
				"getValue()": "2268",
				"setBalance(address,uint256)": "22499",
				"setValue(uint256)": "22354"
			}
		},
		"methodIdentifiers": {
			"clearBalance(address)": "32ba65aa",
			"clearValue()": "5ccf08b8",
			"getBalance(address)": "f8b2cb4f",
			"getValue()": "20965255",
			"setBalance(address,uint256)": "e30443bc",
			"setValue(uint256)": "55241077"
		}
	},
	"abi": [
		{
			"inputs": [
				{
					"internalType": "address",
					"name": "addr",
					"type": "address"
				}
			],
			"name": "clearBalance",
			"outputs": [],
			"stateMutability": "nonpayable",
			"type": "function"
		},
		{
			"inputs": [],
			"name": "clearValue",
			"outputs": [],
			"stateMutability": "nonpayable",
			"type": "function"
		},
		{
			"inputs": [
				{
					"internalType": "address",
					"name": "addr",
					"type": "address"
				}
			],
			"name": "getBalance",
			"outputs": [
				{
					"internalType": "uint256",
					"name": "",
					"type": "uint256"
				}
			],
			"stateMutability": "view",
			"type": "function"
		},
		{
			"inputs": [],
			"name": "getValue",
			"outputs": [
				{
					"internalType": "uint256",
					"name": "",
					"type": "uint256"
				}
			],
			"stateMutability": "view",
			"type": "function"
		},
		{
			"inputs": [
				{
					"internalType": "address",
					"name": "addr",
					"type": "address"
				},
				{
					"internalType": "uint256",
					"name": "balance",
					"type": "uint256"
				}
			],
			"name": "setBalance",
			"outputs": [],
			"stateMutability": "nonpayable",
			"type": "function"
		},
		{
			"inputs": [
				{
					"internalType": "uint256",
					"name": "_value",
					"type": "uint256"
				}
			],
			"name": "setValue",
			"outputs": [],
			"stateMutability": "nonpayable",
			"type": "function"
		}
	]
}