{
	"data": {
		"bytecode": {
			"linkReferences": {},
			"object": "608060405234801561000f575f80fd5b506040518060400160405280600a8152602001692a32b9ba102a37b5b2b760b11b8152506040518060400160405280600381526020016254544b60e81b815250816002908161005e919061010e565b50600361006b828261010e565b50505f8055506101cd565b634e487b7160e01b5f52604160045260245ffd5b600181811c9082168061009e57607f821691505b6020821081036100bc57634e487b7160e01b5f52602260045260245ffd5b50919050565b601f82111561010957805f5260205f20601f840160051c810160208510156100e75750805b601f840160051c820191505b81811015610106575f81556001016100f3565b50505b505050565b81516001600160401b0381111561012757610127610076565b61013b81610135845461008a565b846100c2565b602080601f83116001811461016e575f84156101575750858301515b5f19600386901b1c1916600185901b1785556101c5565b5f85815260208120601f198616915b8281101561019c5788860151825594840194600190910190840161017d565b50858210156101b957878501515f19600388901b60f8161c191681555b505060018460011b0185555b505050505050565b610fa5806101da5f395ff3fe6080604052600436106100e4575f3560e01c806343508b0511610087578063a22cb46511610057578063a22cb46514610241578063b88d4fde14610260578063c87b56dd14610273578063e985e9c514610292575f80fd5b806343508b05146101d05780636352211e146101ef57806370a082311461020e57806395d89b411461022d575f80fd5b8063095ea7b3116100c2578063095ea7b31461017457806318160ddd1461018957806323b872dd146101aa57806342842e0e146101bd575f80fd5b806301ffc9a7146100e857806306fdde031461011c578063081812fc1461013d575b5f80fd5b3480156100f3575f80fd5b50610107610102366004610c40565b6102d9565b60405190151581526020015b60405180910390f35b348015610127575f80fd5b50610130610375565b6040516101139190610c89565b348015610148575f80fd5b5061015c610157366004610c9b565b610405565b6040516001600160a01b039091168152602001610113565b610187610182366004610cc8565b610457565b005b348015610194575f80fd5b506001545f54035b604051908152602001610113565b6101876101b8366004610cf0565b610467565b6101876101cb366004610cf0565b61060d565b3480156101db575f80fd5b506101876101ea366004610cc8565b61062c565b3480156101fa575f80fd5b5061015c610209366004610c9b565b610636565b348015610219575f80fd5b5061019c610228366004610d29565b610640565b348015610238575f80fd5b5061013061069d565b34801561024c575f80fd5b5061018761025b366004610d42565b6106ac565b61018761026e366004610d8f565b610717565b34801561027e575f80fd5b5061013061028d366004610c9b565b610758565b34801561029d575f80fd5b506101076102ac366004610e64565b6001600160a01b039182165f90815260076020908152604080832093909416825291909152205460ff1690565b5f7f01ffc9a7000000000000000000000000000000000000000000000000000000006001600160e01b03198316148061033b57507f80ac58cd000000000000000000000000000000000000000000000000000000006001600160e01b03198316145b8061036f57507f5b5e139f000000000000000000000000000000000000000000000000000000006001600160e01b03198316145b92915050565b60606002805461038490610e95565b80601f01602080910402602001604051908101604052809291908181526020018280546103b090610e95565b80156103fb5780601f106103d2576101008083540402835291602001916103fb565b820191905f5260205f20905b8154815290600101906020018083116103de57829003601f168201915b5050505050905090565b5f61040f826107f5565b61043c5761043c7fcf4700e400000000000000000000000000000000000000000000000000000000610837565b505f908152600660205260409020546001600160a01b031690565b6104638282600161083f565b5050565b5f61047182610911565b6001600160a01b0394851694909150811684146104b1576104b17fa114810000000000000000000000000000000000000000000000000000000000610837565b5f8281526006602052604090208054338082146001600160a01b0388169091141761050d576104e086336102ac565b61050d5761050d7f59c896be00000000000000000000000000000000000000000000000000000000610837565b8015610517575f82555b6001600160a01b038681165f9081526005602052604080822080545f19019055918716808252919020805460010190554260a01b17600160e11b175f85815260046020526040812091909155600160e11b841690036105a357600184015f8181526004602052604081205490036105a1575f5481146105a1575f8181526004602052604090208490555b505b6001600160a01b0385168481887fddf252ad1be2c89b69c2b068fc378daa952ba7f163c4a11628f55a4df523b3ef5f80a4805f03610604576106047fea553b3400000000000000000000000000000000000000000000000000000000610837565b50505050505050565b61062783838360405180602001604052805f815250610717565b505050565b61046382826109a0565b5f61036f82610911565b5f6001600160a01b038216610678576106787f8f4eb60400000000000000000000000000000000000000000000000000000000610837565b506001600160a01b03165f9081526005602052604090205467ffffffffffffffff1690565b60606003805461038490610e95565b335f8181526007602090815260408083206001600160a01b03871680855290835292819020805460ff191686151590811790915590519081529192917f17307eab39ab6107e8899845ad3d59bd9653f200f220920489ca2b5937696c31910160405180910390a35050565b610722848484610467565b6001600160a01b0383163b156107525761073e848484846109b9565b610752576107526368d2bf6b60e11b610837565b50505050565b6060610763826107f5565b610790576107907fa14c4b5000000000000000000000000000000000000000000000000000000000610837565b5f6107a560408051602081019091525f815290565b905080515f036107c35760405180602001604052805f8152506107ee565b806107cd84610a98565b6040516020016107de929190610ee4565b6040516020818303038152906040525b9392505050565b5f8054821015610832575f5b505f82815260046020526040812054908190036108285761082183610ef8565b9250610801565b600160e01b161590505b919050565b805f5260045ffd5b5f61084983610636565b90508180156108615750336001600160a01b03821614155b1561089d5761087081336102ac565b61089d5761089d7fcfb3b94200000000000000000000000000000000000000000000000000000000610837565b5f8381526006602052604080822080547fffffffffffffffffffffffff0000000000000000000000000000000000000000166001600160a01b0388811691821790925591518693918516917f8c5be1e5ebec7d5bd14f71427d1e84f3dd0314c0f7b2291e5b200ac8c7c3b92591a450505050565b5f81815260046020526040902054805f0361097e575f54821061093e5761093e636f96cda160e11b610837565b5b505f19015f81815260046020526040902054801561093f57600160e01b81165f0361096957919050565b610979636f96cda160e11b610837565b61093f565b600160e01b81165f0361099057919050565b610832636f96cda160e11b610837565b610463828260405180602001604052805f815250610adb565b604051630a85bd0160e11b81525f906001600160a01b0385169063150b7a02906109ed903390899088908890600401610f19565b6020604051808303815f875af1925050508015610a27575060408051601f3d908101601f19168201909252610a2491810190610f54565b60015b610a7a573d808015610a54576040519150601f19603f3d011682016040523d82523d5f602084013e610a59565b606091505b5080515f03610a7257610a726368d2bf6b60e11b610837565b805181602001fd5b6001600160e01b031916630a85bd0160e11b1490505b949350505050565b606060a06040510180604052602081039150505f815280825b600183039250600a81066030018353600a900480610ab15750819003601f19909101908152919050565b610ae58383610b3b565b6001600160a01b0383163b15610627575f548281035b610b0d5f8683806001019450866109b9565b610b2157610b216368d2bf6b60e11b610837565b818110610afb57815f5414610b34575f80fd5b5050505050565b5f805490829003610b6f57610b6f7fb562e8dd00000000000000000000000000000000000000000000000000000000610837565b5f8181526004602090815260408083206001600160a01b0387164260a01b6001881460e11b17811790915580845260059092528220805468010000000000000001860201905590819003610be657610be67f2e07630000000000000000000000000000000000000000000000000000000000610837565b818301825b80835f7fddf252ad1be2c89b69c2b068fc378daa952ba7f163c4a11628f55a4df523b3ef5f80a4818160010191508103610beb57505f5550505050565b6001600160e01b031981168114610c3d575f80fd5b50565b5f60208284031215610c50575f80fd5b81356107ee81610c28565b5f81518084528060208401602086015e5f602082860101526020601f19601f83011685010191505092915050565b602081525f6107ee6020830184610c5b565b5f60208284031215610cab575f80fd5b5035919050565b80356001600160a01b0381168114610832575f80fd5b5f8060408385031215610cd9575f80fd5b610ce283610cb2565b946020939093013593505050565b5f805f60608486031215610d02575f80fd5b610d0b84610cb2565b9250610d1960208501610cb2565b9150604084013590509250925092565b5f60208284031215610d39575f80fd5b6107ee82610cb2565b5f8060408385031215610d53575f80fd5b610d5c83610cb2565b915060208301358015158114610d70575f80fd5b809150509250929050565b634e487b7160e01b5f52604160045260245ffd5b5f805f8060808587031215610da2575f80fd5b610dab85610cb2565b9350610db960208601610cb2565b925060408501359150606085013567ffffffffffffffff80821115610ddc575f80fd5b818701915087601f830112610def575f80fd5b813581811115610e0157610e01610d7b565b604051601f8201601f19908116603f01168101908382118183101715610e2957610e29610d7b565b816040528281528a6020848701011115610e41575f80fd5b826020860160208301375f60208483010152809550505050505092959194509250565b5f8060408385031215610e75575f80fd5b610e7e83610cb2565b9150610e8c60208401610cb2565b90509250929050565b600181811c90821680610ea957607f821691505b602082108103610ec757634e487b7160e01b5f52602260045260245ffd5b50919050565b5f81518060208401855e5f93019283525090919050565b5f610a90610ef28386610ecd565b84610ecd565b5f81610f1257634e487b7160e01b5f52601160045260245ffd5b505f190190565b5f6001600160a01b03808716835280861660208401525083604083015260806060830152610f4a6080830184610c5b565b9695505050505050565b5f60208284031215610f64575f80fd5b81516107ee81610c2856fea26469706673582212205e45cc7e60e8c636b56b7c0ab3773444be087f40d245f50164a87ead88cbb0ea64736f6c63430008190033",
			"opcodes": "PUSH1 0x80 PUSH1 0x40 MSTORE CALLVALUE DUP1 ISZERO PUSH2 0xF JUMPI PUSH0 DUP1 REVERT JUMPDEST POP PUSH1 0x40 MLOAD DUP1 PUSH1 0x40 ADD PUSH1 0x40 MSTORE DUP1 PUSH1 0xA DUP2 MSTORE PUSH1 0x20 ADD PUSH10 0x2A32B9BA102A37B5B2B7 PUSH1 0xB1 SHL DUP2 MSTORE POP PUSH1 0x40 MLOAD DUP1 PUSH1 0x40 ADD PUSH1 0x40 MSTORE DUP1 PUSH1 0x3 DUP2 MSTORE PUSH1 0x20 ADD PUSH3 0x54544B PUSH1 0xE8 SHL DUP2 MSTORE POP DUP2 PUSH1 0x2 SWAP1 DUP2 PUSH2 0x5E SWAP2 SWAP1 PUSH2 0x10E JUMP JUMPDEST POP PUSH1 0x3 PUSH2 0x6B DUP3 DUP3 PUSH2 0x10E JUMP JUMPDEST POP POP PUSH0 DUP1 SSTORE POP PUSH2 0x1CD JUMP JUMPDEST PUSH4 0x4E487B71 PUSH1 0xE0 SHL PUSH0 MSTORE PUSH1 0x41 PUSH1 0x4 MSTORE PUSH1 0x24 PUSH0 REVERT JUMPDEST PUSH1 0x1 DUP2 DUP2 SHR SWAP1 DUP3 AND DUP1 PUSH2 0x9E JUMPI PUSH1 0x7F DUP3 AND SWAP2 POP JUMPDEST PUSH1 0x20 DUP3 LT DUP2 SUB PUSH2 0xBC JUMPI PUSH4 0x4E487B71 PUSH1 0xE0 SHL PUSH0 MSTORE PUSH1 0x22 PUSH1 0x4 MSTORE PUSH1 0x24 PUSH0 REVERT JUMPDEST POP SWAP2 SWAP1 POP JUMP JUMPDEST PUSH1 0x1F DUP3 GT ISZERO PUSH2 0x109 JUMPI DUP1 PUSH0 MSTORE PUSH1 0x20 PUSH0 KECCAK256 PUSH1 0x1F DUP5 ADD PUSH1 0x5 SHR DUP2 ADD PUSH1 0x20 DUP6 LT ISZERO PUSH2 0xE7 JUMPI POP DUP1 JUMPDEST PUSH1 0x1F DUP5 ADD PUSH1 0x5 SHR DUP3 ADD SWAP2 POP JUMPDEST DUP2 DUP2 LT ISZERO PUSH2 0x106 JUMPI PUSH0 DUP2 SSTORE PUSH1 0x1 ADD PUSH2 0xF3 JUMP JUMPDEST POP POP JUMPDEST POP POP POP JUMP JUMPDEST DUP2 MLOAD PUSH1 0x1 PUSH1 0x1 PUSH1 0x40 SHL SUB DUP2 GT ISZERO PUSH2 0x127 JUMPI PUSH2 0x127 PUSH2 0x76 JUMP JUMPDEST PUSH2 0x13B DUP2 PUSH2 0x135 DUP5 SLOAD PUSH2 0x8A JUMP JUMPDEST DUP5 PUSH2 0xC2 JUMP JUMPDEST PUSH1 0x20 DUP1 PUSH1 0x1F DUP4 GT PUSH1 0x1 DUP2 EQ PUSH2 0x16E JUMPI PUSH0 DUP5 ISZERO PUSH2 0x157 JUMPI POP DUP6 DUP4 ADD MLOAD JUMPDEST PUSH0 NOT PUSH1 0x3 DUP7 SWAP1 SHL SHR NOT AND PUSH1 0x1 DUP6 SWAP1 SHL OR DUP6 SSTORE PUSH2 0x1C5 JUMP JUMPDEST PUSH0 DUP6 DUP2 MSTORE PUSH1 0x20 DUP2 KECCAK256 PUSH1 0x1F NOT DUP7 AND SWAP2 JUMPDEST DUP3 DUP2 LT ISZERO PUSH2 0x19C JUMPI DUP9 DUP7 ADD MLOAD DUP3 SSTORE SWAP5 DUP5 ADD SWAP5 PUSH1 0x1 SWAP1 SWAP2 ADD SWAP1 DUP5 ADD PUSH2 0x17D JUMP JUMPDEST POP DUP6 DUP3 LT ISZERO PUSH2 0x1B9 JUMPI DUP8 DUP6 ADD MLOAD PUSH0 NOT PUSH1 0x3 DUP9 SWAP1 SHL PUSH1 0xF8 AND SHR NOT AND DUP2 SSTORE JUMPDEST POP POP PUSH1 0x1 DUP5 PUSH1 0x1 SHL ADD DUP6 SSTORE JUMPDEST POP POP POP POP POP POP JUMP JUMPDEST PUSH2 0xFA5 DUP1 PUSH2 0x1DA PUSH0 CODECOPY PUSH0 RETURN INVALID PUSH1 0x80 PUSH1 0x40 MSTORE PUSH1 0x4 CALLDATASIZE LT PUSH2 0xE4 JUMPI PUSH0 CALLDATALOAD PUSH1 0xE0 SHR DUP1 PUSH4 0x43508B05 GT PUSH2 0x87 JUMPI DUP1 PUSH4 0xA22CB465 GT PUSH2 0x57 JUMPI DUP1 PUSH4 0xA22CB465 EQ PUSH2 0x241 JUMPI DUP1 PUSH4 0xB88D4FDE EQ PUSH2 0x260 JUMPI DUP1 PUSH4 0xC87B56DD EQ PUSH2 0x273 JUMPI DUP1 PUSH4 0xE985E9C5 EQ PUSH2 0x292 JUMPI PUSH0 DUP1 REVERT JUMPDEST DUP1 PUSH4 0x43508B05 EQ PUSH2 0x1D0 JUMPI DUP1 PUSH4 0x6352211E EQ PUSH2 0x1EF JUMPI DUP1 PUSH4 0x70A08231 EQ PUSH2 0x20E JUMPI DUP1 PUSH4 0x95D89B41 EQ PUSH2 0x22D JUMPI PUSH0 DUP1 REVERT JUMPDEST DUP1 PUSH4 0x95EA7B3 GT PUSH2 0xC2 JUMPI DUP1 PUSH4 0x95EA7B3 EQ PUSH2 0x174 JUMPI DUP1 PUSH4 0x18160DDD EQ PUSH2 0x189 JUMPI DUP1 PUSH4 0x23B872DD EQ PUSH2 0x1AA JUMPI DUP1 PUSH4 0x42842E0E EQ PUSH2 0x1BD JUMPI PUSH0 DUP1 REVERT JUMPDEST DUP1 PUSH4 0x1FFC9A7 EQ PUSH2 0xE8 JUMPI DUP1 PUSH4 0x6FDDE03 EQ PUSH2 0x11C JUMPI DUP1 PUSH4 0x81812FC EQ PUSH2 0x13D JUMPI JUMPDEST PUSH0 DUP1 REVERT JUMPDEST CALLVALUE DUP1 ISZERO PUSH2 0xF3 JUMPI PUSH0 DUP1 REVERT JUMPDEST POP PUSH2 0x107 PUSH2 0x102 CALLDATASIZE PUSH1 0x4 PUSH2 0xC40 JUMP JUMPDEST PUSH2 0x2D9 JUMP JUMPDEST PUSH1 0x40 MLOAD SWAP1 ISZERO ISZERO DUP2 MSTORE PUSH1 0x20 ADD JUMPDEST PUSH1 0x40 MLOAD DUP1 SWAP2 SUB SWAP1 RETURN JUMPDEST CALLVALUE DUP1 ISZERO PUSH2 0x127 JUMPI PUSH0 DUP1 REVERT JUMPDEST POP PUSH2 0x130 PUSH2 0x375 JUMP JUMPDEST PUSH1 0x40 MLOAD PUSH2 0x113 SWAP2 SWAP1 PUSH2 0xC89 JUMP JUMPDEST CALLVALUE DUP1 ISZERO PUSH2 0x148 JUMPI PUSH0 DUP1 REVERT JUMPDEST POP PUSH2 0x15C PUSH2 0x157 CALLDATASIZE PUSH1 0x4 PUSH2 0xC9B JUMP JUMPDEST PUSH2 0x405 JUMP JUMPDEST PUSH1 0x40 MLOAD PUSH1 0x1 PUSH1 0x1 PUSH1 0xA0 SHL SUB SWAP1 SWAP2 AND DUP2 MSTORE PUSH1 0x20 ADD PUSH2 0x113 JUMP JUMPDEST PUSH2 0x187 PUSH2 0x182 CALLDATASIZE PUSH1 0x4 PUSH2 0xCC8 JUMP JUMPDEST PUSH2 0x457 JUMP JUMPDEST STOP JUMPDEST CALLVALUE DUP1 ISZERO PUSH2 0x194 JUMPI PUSH0 DUP1 REVERT JUMPDEST POP PUSH1 0x1 SLOAD PUSH0 SLOAD SUB JUMPDEST PUSH1 0x40 MLOAD SWAP1 DUP2 MSTORE PUSH1 0x20 ADD PUSH2 0x113 JUMP JUMPDEST PUSH2 0x187 PUSH2 0x1B8 CALLDATASIZE PUSH1 0x4 PUSH2 0xCF0 JUMP JUMPDEST PUSH2 0x467 JUMP JUMPDEST PUSH2 0x187 PUSH2 0x1CB CALLDATASIZE PUSH1 0x4 PUSH2 0xCF0 JUMP JUMPDEST PUSH2 0x60D JUMP JUMPDEST CALLVALUE DUP1 ISZERO PUSH2 0x1DB JUMPI PUSH0 DUP1 REVERT JUMPDEST POP PUSH2 0x187 PUSH2 0x1EA CALLDATASIZE PUSH1 0x4 PUSH2 0xCC8 JUMP JUMPDEST PUSH2 0x62C JUMP JUMPDEST CALLVALUE DUP1 ISZERO PUSH2 0x1FA JUMPI PUSH0 DUP1 REVERT JUMPDEST POP PUSH2 0x15C PUSH2 0x209 CALLDATASIZE PUSH1 0x4 PUSH2 0xC9B JUMP JUMPDEST PUSH2 0x636 JUMP JUMPDEST CALLVALUE DUP1 ISZERO PUSH2 0x219 JUMPI PUSH0 DUP1 REVERT JUMPDEST POP PUSH2 0x19C PUSH2 0x228 CALLDATASIZE PUSH1 0x4 PUSH2 0xD29 JUMP JUMPDEST PUSH2 0x640 JUMP JUMPDEST CALLVALUE DUP1 ISZERO PUSH2 0x238 JUMPI PUSH0 DUP1 REVERT JUMPDEST POP PUSH2 0x130 PUSH2 0x69D JUMP JUMPDEST CALLVALUE DUP1 ISZERO PUSH2 0x24C JUMPI PUSH0 DUP1 REVERT JUMPDEST POP PUSH2 0x187 PUSH2 0x25B CALLDATASIZE PUSH1 0x4 PUSH2 0xD42 JUMP JUMPDEST PUSH2 0x6AC JUMP JUMPDEST PUSH2 0x187 PUSH2 0x26E CALLDATASIZE PUSH1 0x4 PUSH2 0xD8F JUMP JUMPDEST PUSH2 0x717 JUMP JUMPDEST CALLVALUE DUP1 ISZERO PUSH2 0x27E JUMPI PUSH0 DUP1 REVERT JUMPDEST POP PUSH2 0x130 PUSH2 0x28D CALLDATASIZE PUSH1 0x4 PUSH2 0xC9B JUMP JUMPDEST PUSH2 0x758 JUMP JUMPDEST CALLVALUE DUP1 ISZERO PUSH2 0x29D JUMPI PUSH0 DUP1 REVERT JUMPDEST POP PUSH2 0x107 PUSH2 0x2AC CALLDATASIZE PUSH1 0x4 PUSH2 0xE64 JUMP JUMPDEST PUSH1 0x1 PUSH1 0x1 PUSH1 0xA0 SHL SUB SWAP2 DUP3 AND PUSH0 SWAP1 DUP2 MSTORE PUSH1 0x7 PUSH1 0x20 SWAP1 DUP2 MSTORE PUSH1 0x40 DUP1 DUP4 KECCAK256 SWAP4 SWAP1 SWAP5 AND DUP3 MSTORE SWAP2 SWAP1 SWAP2 MSTORE KECCAK256 SLOAD PUSH1 0xFF AND SWAP1 JUMP JUMPDEST PUSH0 PUSH32 0x1FFC9A700000000000000000000000000000000000000000000000000000000 PUSH1 0x1 PUSH1 0x1 PUSH1 0xE0 SHL SUB NOT DUP4 AND EQ DUP1 PUSH2 0x33B JUMPI POP PUSH32 0x80AC58CD00000000000000000000000000000000000000000000000000000000 PUSH1 0x1 PUSH1 0x1 PUSH1 0xE0 SHL SUB NOT DUP4 AND EQ JUMPDEST DUP1 PUSH2 0x36F JUMPI POP PUSH32 0x5B5E139F00000000000000000000000000000000000000000000000000000000 PUSH1 0x1 PUSH1 0x1 PUSH1 0xE0 SHL SUB NOT DUP4 AND EQ JUMPDEST SWAP3 SWAP2 POP POP JUMP JUMPDEST PUSH1 0x60 PUSH1 0x2 DUP1 SLOAD PUSH2 0x384 SWAP1 PUSH2 0xE95 JUMP JUMPDEST DUP1 PUSH1 0x1F ADD PUSH1 0x20 DUP1 SWAP2 DIV MUL PUSH1 0x20 ADD PUSH1 0x40 MLOAD SWAP1 DUP2 ADD PUSH1 0x40 MSTORE DUP1 SWAP3 SWAP2 SWAP1 DUP2 DUP2 MSTORE PUSH1 0x20 ADD DUP3 DUP1 SLOAD PUSH2 0x3B0 SWAP1 PUSH2 0xE95 JUMP JUMPDEST DUP1 ISZERO PUSH2 0x3FB JUMPI DUP1 PUSH1 0x1F LT PUSH2 0x3D2 JUMPI PUSH2 0x100 DUP1 DUP4 SLOAD DIV MUL DUP4 MSTORE SWAP2 PUSH1 0x20 ADD SWAP2 PUSH2 0x3FB JUMP JUMPDEST DUP3 ADD SWAP2 SWAP1 PUSH0 MSTORE PUSH1 0x20 PUSH0 KECCAK256 SWAP1 JUMPDEST DUP2 SLOAD DUP2 MSTORE SWAP1 PUSH1 0x1 ADD SWAP1 PUSH1 0x20 ADD DUP1 DUP4 GT PUSH2 0x3DE JUMPI DUP3 SWAP1 SUB PUSH1 0x1F AND DUP3 ADD SWAP2 JUMPDEST POP POP POP POP POP SWAP1 POP SWAP1 JUMP JUMPDEST PUSH0 PUSH2 0x40F DUP3 PUSH2 0x7F5 JUMP JUMPDEST PUSH2 0x43C JUMPI PUSH2 0x43C PUSH32 0xCF4700E400000000000000000000000000000000000000000000000000000000 PUSH2 0x837 JUMP JUMPDEST POP PUSH0 SWAP1 DUP2 MSTORE PUSH1 0x6 PUSH1 0x20 MSTORE PUSH1 0x40 SWAP1 KECCAK256 SLOAD PUSH1 0x1 PUSH1 0x1 PUSH1 0xA0 SHL SUB AND SWAP1 JUMP JUMPDEST PUSH2 0x463 DUP3 DUP3 PUSH1 0x1 PUSH2 0x83F JUMP JUMPDEST POP POP JUMP JUMPDEST PUSH0 PUSH2 0x471 DUP3 PUSH2 0x911 JUMP JUMPDEST PUSH1 0x1 PUSH1 0x1 PUSH1 0xA0 SHL SUB SWAP5 DUP6 AND SWAP5 SWAP1 SWAP2 POP DUP2 AND DUP5 EQ PUSH2 0x4B1 JUMPI PUSH2 0x4B1 PUSH32 0xA114810000000000000000000000000000000000000000000000000000000000 PUSH2 0x837 JUMP JUMPDEST PUSH0 DUP3 DUP2 MSTORE PUSH1 0x6 PUSH1 0x20 MSTORE PUSH1 0x40 SWAP1 KECCAK256 DUP1 SLOAD CALLER DUP1 DUP3 EQ PUSH1 0x1 PUSH1 0x1 PUSH1 0xA0 SHL SUB DUP9 AND SWAP1 SWAP2 EQ OR PUSH2 0x50D JUMPI PUSH2 0x4E0 DUP7 CALLER PUSH2 0x2AC JUMP JUMPDEST PUSH2 0x50D JUMPI PUSH2 0x50D PUSH32 0x59C896BE00000000000000000000000000000000000000000000000000000000 PUSH2 0x837 JUMP JUMPDEST DUP1 ISZERO PUSH2 0x517 JUMPI PUSH0 DUP3 SSTORE JUMPDEST PUSH1 0x1 PUSH1 0x1 PUSH1 0xA0 SHL SUB DUP7 DUP2 AND PUSH0 SWAP1 DUP2 MSTORE PUSH1 0x5 PUSH1 0x20 MSTORE PUSH1 0x40 DUP1 DUP3 KECCAK256 DUP1 SLOAD PUSH0 NOT ADD SWAP1 SSTORE SWAP2 DUP8 AND DUP1 DUP3 MSTORE SWAP2 SWAP1 KECCAK256 DUP1 SLOAD PUSH1 0x1 ADD SWAP1 SSTORE TIMESTAMP PUSH1 0xA0 SHL OR PUSH1 0x1 PUSH1 0xE1 SHL OR PUSH0 DUP6 DUP2 MSTORE PUSH1 0x4 PUSH1 0x20 MSTORE PUSH1 0x40 DUP2 KECCAK256 SWAP2 SWAP1 SWAP2 SSTORE PUSH1 0x1 PUSH1 0xE1 SHL DUP5 AND SWAP1 SUB PUSH2 0x5A3 JUMPI PUSH1 0x1 DUP5 ADD PUSH0 DUP2 DUP2 MSTORE PUSH1 0x4 PUSH1 0x20 MSTORE PUSH1 0x40 DUP2 KECCAK256 SLOAD SWAP1 SUB PUSH2 0x5A1 JUMPI PUSH0 SLOAD DUP2 EQ PUSH2 0x5A1 JUMPI PUSH0 DUP2 DUP2 MSTORE PUSH1 0x4 PUSH1 0x20 MSTORE PUSH1 0x40 SWAP1 KECCAK256 DUP5 SWAP1 SSTORE JUMPDEST POP JUMPDEST PUSH1 0x1 PUSH1 0x1 PUSH1 0xA0 SHL SUB DUP6 AND DUP5 DUP2 DUP9 PUSH32 0xDDF252AD1BE2C89B69C2B068FC378DAA952BA7F163C4A11628F55A4DF523B3EF PUSH0 DUP1 LOG4 DUP1 PUSH0 SUB PUSH2 0x604 JUMPI PUSH2 0x604 PUSH32 0xEA553B3400000000000000000000000000000000000000000000000000000000 PUSH2 0x837 JUMP JUMPDEST POP POP POP POP POP POP POP JUMP JUMPDEST PUSH2 0x627 DUP4 DUP4 DUP4 PUSH1 0x40 MLOAD DUP1 PUSH1 0x20 ADD PUSH1 0x40 MSTORE DUP1 PUSH0 DUP2 MSTORE POP PUSH2 0x717 JUMP JUMPDEST POP POP POP JUMP JUMPDEST PUSH2 0x463 DUP3 DUP3 PUSH2 0x9A0 JUMP JUMPDEST PUSH0 PUSH2 0x36F DUP3 PUSH2 0x911 JUMP JUMPDEST PUSH0 PUSH1 0x1 PUSH1 0x1 PUSH1 0xA0 SHL SUB DUP3 AND PUSH2 0x678 JUMPI PUSH2 0x678 PUSH32 0x8F4EB60400000000000000000000000000000000000000000000000000000000 PUSH2 0x837 JUMP JUMPDEST POP PUSH1 0x1 PUSH1 0x1 PUSH1 0xA0 SHL SUB AND PUSH0 SWAP1 DUP2 MSTORE PUSH1 0x5 PUSH1 0x20 MSTORE PUSH1 0x40 SWAP1 KECCAK256 SLOAD PUSH8 0xFFFFFFFFFFFFFFFF AND SWAP1 JUMP JUMPDEST PUSH1 0x60 PUSH1 0x3 DUP1 SLOAD PUSH2 0x384 SWAP1 PUSH2 0xE95 JUMP JUMPDEST CALLER PUSH0 DUP2 DUP2 MSTORE PUSH1 0x7 PUSH1 0x20 SWAP1 DUP2 MSTORE PUSH1 0x40 DUP1 DUP4 KECCAK256 PUSH1 0x1 PUSH1 0x1 PUSH1 0xA0 SHL SUB DUP8 AND DUP1 DUP6 MSTORE SWAP1 DUP4 MSTORE SWAP3 DUP2 SWAP1 KECCAK256 DUP1 SLOAD PUSH1 0xFF NOT AND DUP7 ISZERO ISZERO SWAP1 DUP2 OR SWAP1 SWAP2 SSTORE SWAP1 MLOAD SWAP1 DUP2 MSTORE SWAP2 SWAP3 SWAP2 PUSH32 0x17307EAB39AB6107E8899845AD3D59BD9653F200F220920489CA2B5937696C31 SWAP2 ADD PUSH1 0x40 MLOAD DUP1 SWAP2 SUB SWAP1 LOG3 POP POP JUMP JUMPDEST PUSH2 0x722 DUP5 DUP5 DUP5 PUSH2 0x467 JUMP JUMPDEST PUSH1 0x1 PUSH1 0x1 PUSH1 0xA0 SHL SUB DUP4 AND EXTCODESIZE ISZERO PUSH2 0x752 JUMPI PUSH2 0x73E DUP5 DUP5 DUP5 DUP5 PUSH2 0x9B9 JUMP JUMPDEST PUSH2 0x752 JUMPI PUSH2 0x752 PUSH4 0x68D2BF6B PUSH1 0xE1 SHL PUSH2 0x837 JUMP JUMPDEST POP POP POP POP JUMP JUMPDEST PUSH1 0x60 PUSH2 0x763 DUP3 PUSH2 0x7F5 JUMP JUMPDEST PUSH2 0x790 JUMPI PUSH2 0x790 PUSH32 0xA14C4B5000000000000000000000000000000000000000000000000000000000 PUSH2 0x837 JUMP JUMPDEST PUSH0 PUSH2 0x7A5 PUSH1 0x40 DUP1 MLOAD PUSH1 0x20 DUP2 ADD SWAP1 SWAP2 MSTORE PUSH0 DUP2 MSTORE SWAP1 JUMP JUMPDEST SWAP1 POP DUP1 MLOAD PUSH0 SUB PUSH2 0x7C3 JUMPI PUSH1 0x40 MLOAD DUP1 PUSH1 0x20 ADD PUSH1 0x40 MSTORE DUP1 PUSH0 DUP2 MSTORE POP PUSH2 0x7EE JUMP JUMPDEST DUP1 PUSH2 0x7CD DUP5 PUSH2 0xA98 JUMP JUMPDEST PUSH1 0x40 MLOAD PUSH1 0x20 ADD PUSH2 0x7DE SWAP3 SWAP2 SWAP1 PUSH2 0xEE4 JUMP JUMPDEST PUSH1 0x40 MLOAD PUSH1 0x20 DUP2 DUP4 SUB SUB DUP2 MSTORE SWAP1 PUSH1 0x40 MSTORE JUMPDEST SWAP4 SWAP3 POP POP POP JUMP JUMPDEST PUSH0 DUP1 SLOAD DUP3 LT ISZERO PUSH2 0x832 JUMPI PUSH0 JUMPDEST POP PUSH0 DUP3 DUP2 MSTORE PUSH1 0x4 PUSH1 0x20 MSTORE PUSH1 0x40 DUP2 KECCAK256 SLOAD SWAP1 DUP2 SWAP1 SUB PUSH2 0x828 JUMPI PUSH2 0x821 DUP4 PUSH2 0xEF8 JUMP JUMPDEST SWAP3 POP PUSH2 0x801 JUMP JUMPDEST PUSH1 0x1 PUSH1 0xE0 SHL AND ISZERO SWAP1 POP JUMPDEST SWAP2 SWAP1 POP JUMP JUMPDEST DUP1 PUSH0 MSTORE PUSH1 0x4 PUSH0 REVERT JUMPDEST PUSH0 PUSH2 0x849 DUP4 PUSH2 0x636 JUMP JUMPDEST SWAP1 POP DUP2 DUP1 ISZERO PUSH2 0x861 JUMPI POP CALLER PUSH1 0x1 PUSH1 0x1 PUSH1 0xA0 SHL SUB DUP3 AND EQ ISZERO JUMPDEST ISZERO PUSH2 0x89D JUMPI PUSH2 0x870 DUP2 CALLER PUSH2 0x2AC JUMP JUMPDEST PUSH2 0x89D JUMPI PUSH2 0x89D PUSH32 0xCFB3B94200000000000000000000000000000000000000000000000000000000 PUSH2 0x837 JUMP JUMPDEST PUSH0 DUP4 DUP2 MSTORE PUSH1 0x6 PUSH1 0x20 MSTORE PUSH1 0x40 DUP1 DUP3 KECCAK256 DUP1 SLOAD PUSH32 0xFFFFFFFFFFFFFFFFFFFFFFFF0000000000000000000000000000000000000000 AND PUSH1 0x1 PUSH1 0x1 PUSH1 0xA0 SHL SUB DUP9 DUP2 AND SWAP2 DUP3 OR SWAP1 SWAP3 SSTORE SWAP2 MLOAD DUP7 SWAP4 SWAP2 DUP6 AND SWAP2 PUSH32 0x8C5BE1E5EBEC7D5BD14F71427D1E84F3DD0314C0F7B2291E5B200AC8C7C3B925 SWAP2 LOG4 POP POP POP POP JUMP JUMPDEST PUSH0 DUP2 DUP2 MSTORE PUSH1 0x4 PUSH1 0x20 MSTORE PUSH1 0x40 SWAP1 KECCAK256 SLOAD DUP1 PUSH0 SUB PUSH2 0x97E JUMPI PUSH0 SLOAD DUP3 LT PUSH2 0x93E JUMPI PUSH2 0x93E PUSH4 0x6F96CDA1 PUSH1 0xE1 SHL PUSH2 0x837 JUMP JUMPDEST JUMPDEST POP PUSH0 NOT ADD PUSH0 DUP2 DUP2 MSTORE PUSH1 0x4 PUSH1 0x20 MSTORE PUSH1 0x40 SWAP1 KECCAK256 SLOAD DUP1 ISZERO PUSH2 0x93F JUMPI PUSH1 0x1 PUSH1 0xE0 SHL DUP2 AND PUSH0 SUB PUSH2 0x969 JUMPI SWAP2 SWAP1 POP JUMP JUMPDEST PUSH2 0x979 PUSH4 0x6F96CDA1 PUSH1 0xE1 SHL PUSH2 0x837 JUMP JUMPDEST PUSH2 0x93F JUMP JUMPDEST PUSH1 0x1 PUSH1 0xE0 SHL DUP2 AND PUSH0 SUB PUSH2 0x990 JUMPI SWAP2 SWAP1 POP JUMP JUMPDEST PUSH2 0x832 PUSH4 0x6F96CDA1 PUSH1 0xE1 SHL PUSH2 0x837 JUMP JUMPDEST PUSH2 0x463 DUP3 DUP3 PUSH1 0x40 MLOAD DUP1 PUSH1 0x20 ADD PUSH1 0x40 MSTORE DUP1 PUSH0 DUP2 MSTORE POP PUSH2 0xADB JUMP JUMPDEST PUSH1 0x40 MLOAD PUSH4 0xA85BD01 PUSH1 0xE1 SHL DUP2 MSTORE PUSH0 SWAP1 PUSH1 0x1 PUSH1 0x1 PUSH1 0xA0 SHL SUB DUP6 AND SWAP1 PUSH4 0x150B7A02 SWAP1 PUSH2 0x9ED SWAP1 CALLER SWAP1 DUP10 SWAP1 DUP9 SWAP1 DUP9 SWAP1 PUSH1 0x4 ADD PUSH2 0xF19 JUMP JUMPDEST PUSH1 0x20 PUSH1 0x40 MLOAD DUP1 DUP4 SUB DUP2 PUSH0 DUP8 GAS CALL SWAP3 POP POP POP DUP1 ISZERO PUSH2 0xA27 JUMPI POP PUSH1 0x40 DUP1 MLOAD PUSH1 0x1F RETURNDATASIZE SWAP1 DUP2 ADD PUSH1 0x1F NOT AND DUP3 ADD SWAP1 SWAP3 MSTORE PUSH2 0xA24 SWAP2 DUP2 ADD SWAP1 PUSH2 0xF54 JUMP JUMPDEST PUSH1 0x1 JUMPDEST PUSH2 0xA7A JUMPI RETURNDATASIZE DUP1 DUP1 ISZERO PUSH2 0xA54 JUMPI PUSH1 0x40 MLOAD SWAP2 POP PUSH1 0x1F NOT PUSH1 0x3F RETURNDATASIZE ADD AND DUP3 ADD PUSH1 0x40 MSTORE RETURNDATASIZE DUP3 MSTORE RETURNDATASIZE PUSH0 PUSH1 0x20 DUP5 ADD RETURNDATACOPY PUSH2 0xA59 JUMP JUMPDEST PUSH1 0x60 SWAP2 POP JUMPDEST POP DUP1 MLOAD PUSH0 SUB PUSH2 0xA72 JUMPI PUSH2 0xA72 PUSH4 0x68D2BF6B PUSH1 0xE1 SHL PUSH2 0x837 JUMP JUMPDEST DUP1 MLOAD DUP2 PUSH1 0x20 ADD REVERT JUMPDEST PUSH1 0x1 PUSH1 0x1 PUSH1 0xE0 SHL SUB NOT AND PUSH4 0xA85BD01 PUSH1 0xE1 SHL EQ SWAP1 POP JUMPDEST SWAP5 SWAP4 POP POP POP POP JUMP JUMPDEST PUSH1 0x60 PUSH1 0xA0 PUSH1 0x40 MLOAD ADD DUP1 PUSH1 0x40 MSTORE PUSH1 0x20 DUP2 SUB SWAP2 POP POP PUSH0 DUP2 MSTORE DUP1 DUP3 JUMPDEST PUSH1 0x1 DUP4 SUB SWAP3 POP PUSH1 0xA DUP2 MOD PUSH1 0x30 ADD DUP4 MSTORE8 PUSH1 0xA SWAP1 DIV DUP1 PUSH2 0xAB1 JUMPI POP DUP2 SWAP1 SUB PUSH1 0x1F NOT SWAP1 SWAP2 ADD SWAP1 DUP2 MSTORE SWAP2 SWAP1 POP JUMP JUMPDEST PUSH2 0xAE5 DUP4 DUP4 PUSH2 0xB3B JUMP JUMPDEST PUSH1 0x1 PUSH1 0x1 PUSH1 0xA0 SHL SUB DUP4 AND EXTCODESIZE ISZERO PUSH2 0x627 JUMPI PUSH0 SLOAD DUP3 DUP2 SUB JUMPDEST PUSH2 0xB0D PUSH0 DUP7 DUP4 DUP1 PUSH1 0x1 ADD SWAP5 POP DUP7 PUSH2 0x9B9 JUMP JUMPDEST PUSH2 0xB21 JUMPI PUSH2 0xB21 PUSH4 0x68D2BF6B PUSH1 0xE1 SHL PUSH2 0x837 JUMP JUMPDEST DUP2 DUP2 LT PUSH2 0xAFB JUMPI DUP2 PUSH0 SLOAD EQ PUSH2 0xB34 JUMPI PUSH0 DUP1 REVERT JUMPDEST POP POP POP POP POP JUMP JUMPDEST PUSH0 DUP1 SLOAD SWAP1 DUP3 SWAP1 SUB PUSH2 0xB6F JUMPI PUSH2 0xB6F PUSH32 0xB562E8DD00000000000000000000000000000000000000000000000000000000 PUSH2 0x837 JUMP JUMPDEST PUSH0 DUP2 DUP2 MSTORE PUSH1 0x4 PUSH1 0x20 SWAP1 DUP2 MSTORE PUSH1 0x40 DUP1 DUP4 KECCAK256 PUSH1 0x1 PUSH1 0x1 PUSH1 0xA0 SHL SUB DUP8 AND TIMESTAMP PUSH1 0xA0 SHL PUSH1 0x1 DUP9 EQ PUSH1 0xE1 SHL OR DUP2 OR SWAP1 SWAP2 SSTORE DUP1 DUP5 MSTORE PUSH1 0x5 SWAP1 SWAP3 MSTORE DUP3 KECCAK256 DUP1 SLOAD PUSH9 0x10000000000000001 DUP7 MUL ADD SWAP1 SSTORE SWAP1 DUP2 SWAP1 SUB PUSH2 0xBE6 JUMPI PUSH2 0xBE6 PUSH32 0x2E07630000000000000000000000000000000000000000000000000000000000 PUSH2 0x837 JUMP JUMPDEST DUP2 DUP4 ADD DUP3 JUMPDEST DUP1 DUP4 PUSH0 PUSH32 0xDDF252AD1BE2C89B69C2B068FC378DAA952BA7F163C4A11628F55A4DF523B3EF PUSH0 DUP1 LOG4 DUP2 DUP2 PUSH1 0x1 ADD SWAP2 POP DUP2 SUB PUSH2 0xBEB JUMPI POP PUSH0 SSTORE POP POP POP POP JUMP JUMPDEST PUSH1 0x1 PUSH1 0x1 PUSH1 0xE0 SHL SUB NOT DUP2 AND DUP2 EQ PUSH2 0xC3D JUMPI PUSH0 DUP1 REVERT JUMPDEST POP JUMP JUMPDEST PUSH0 PUSH1 0x20 DUP3 DUP5 SUB SLT ISZERO PUSH2 0xC50 JUMPI PUSH0 DUP1 REVERT JUMPDEST DUP2 CALLDATALOAD PUSH2 0x7EE DUP2 PUSH2 0xC28 JUMP JUMPDEST PUSH0 DUP2 MLOAD DUP1 DUP5 MSTORE DUP1 PUSH1 0x20 DUP5 ADD PUSH1 0x20 DUP7 ADD MCOPY PUSH0 PUSH1 0x20 DUP3 DUP7 ADD ADD MSTORE PUSH1 0x20 PUSH1 0x1F NOT PUSH1 0x1F DUP4 ADD AND DUP6 ADD ADD SWAP2 POP POP SWAP3 SWAP2 POP POP JUMP JUMPDEST PUSH1 0x20 DUP2 MSTORE PUSH0 PUSH2 0x7EE PUSH1 0x20 DUP4 ADD DUP5 PUSH2 0xC5B JUMP JUMPDEST PUSH0 PUSH1 0x20 DUP3 DUP5 SUB SLT ISZERO PUSH2 0xCAB JUMPI PUSH0 DUP1 REVERT JUMPDEST POP CALLDATALOAD SWAP2 SWAP1 POP JUMP JUMPDEST DUP1 CALLDATALOAD PUSH1 0x1 PUSH1 0x1 PUSH1 0xA0 SHL SUB DUP2 AND DUP2 EQ PUSH2 0x832 JUMPI PUSH0 DUP1 REVERT JUMPDEST PUSH0 DUP1 PUSH1 0x40 DUP4 DUP6 SUB SLT ISZERO PUSH2 0xCD9 JUMPI PUSH0 DUP1 REVERT JUMPDEST PUSH2 0xCE2 DUP4 PUSH2 0xCB2 JUMP JUMPDEST SWAP5 PUSH1 0x20 SWAP4 SWAP1 SWAP4 ADD CALLDATALOAD SWAP4 POP POP POP JUMP JUMPDEST PUSH0 DUP1 PUSH0 PUSH1 0x60 DUP5 DUP7 SUB SLT ISZERO PUSH2 0xD02 JUMPI PUSH0 DUP1 REVERT JUMPDEST PUSH2 0xD0B DUP5 PUSH2 0xCB2 JUMP JUMPDEST SWAP3 POP PUSH2 0xD19 PUSH1 0x20 DUP6 ADD PUSH2 0xCB2 JUMP JUMPDEST SWAP2 POP PUSH1 0x40 DUP5 ADD CALLDATALOAD SWAP1 POP SWAP3 POP SWAP3 POP SWAP3 JUMP JUMPDEST PUSH0 PUSH1 0x20 DUP3 DUP5 SUB SLT ISZERO PUSH2 0xD39 JUMPI PUSH0 DUP1 REVERT JUMPDEST PUSH2 0x7EE DUP3 PUSH2 0xCB2 JUMP JUMPDEST PUSH0 DUP1 PUSH1 0x40 DUP4 DUP6 SUB SLT ISZERO PUSH2 0xD53 JUMPI PUSH0 DUP1 REVERT JUMPDEST PUSH2 0xD5C DUP4 PUSH2 0xCB2 JUMP JUMPDEST SWAP2 POP PUSH1 0x20 DUP4 ADD CALLDATALOAD DUP1 ISZERO ISZERO DUP2 EQ PUSH2 0xD70 JUMPI PUSH0 DUP1 REVERT JUMPDEST DUP1 SWAP2 POP POP SWAP3 POP SWAP3 SWAP1 POP JUMP JUMPDEST PUSH4 0x4E487B71 PUSH1 0xE0 SHL PUSH0 MSTORE PUSH1 0x41 PUSH1 0x4 MSTORE PUSH1 0x24 PUSH0 REVERT JUMPDEST PUSH0 DUP1 PUSH0 DUP1 PUSH1 0x80 DUP6 DUP8 SUB SLT ISZERO PUSH2 0xDA2 JUMPI PUSH0 DUP1 REVERT JUMPDEST PUSH2 0xDAB DUP6 PUSH2 0xCB2 JUMP JUMPDEST SWAP4 POP PUSH2 0xDB9 PUSH1 0x20 DUP7 ADD PUSH2 0xCB2 JUMP JUMPDEST SWAP3 POP PUSH1 0x40 DUP6 ADD CALLDATALOAD SWAP2 POP PUSH1 0x60 DUP6 ADD CALLDATALOAD PUSH8 0xFFFFFFFFFFFFFFFF DUP1 DUP3 GT ISZERO PUSH2 0xDDC JUMPI PUSH0 DUP1 REVERT JUMPDEST DUP2 DUP8 ADD SWAP2 POP DUP8 PUSH1 0x1F DUP4 ADD SLT PUSH2 0xDEF JUMPI PUSH0 DUP1 REVERT JUMPDEST DUP2 CALLDATALOAD DUP2 DUP2 GT ISZERO PUSH2 0xE01 JUMPI PUSH2 0xE01 PUSH2 0xD7B JUMP JUMPDEST PUSH1 0x40 MLOAD PUSH1 0x1F DUP3 ADD PUSH1 0x1F NOT SWAP1 DUP2 AND PUSH1 0x3F ADD AND DUP2 ADD SWAP1 DUP4 DUP3 GT DUP2 DUP4 LT OR ISZERO PUSH2 0xE29 JUMPI PUSH2 0xE29 PUSH2 0xD7B JUMP JUMPDEST DUP2 PUSH1 0x40 MSTORE DUP3 DUP2 MSTORE DUP11 PUSH1 0x20 DUP5 DUP8 ADD ADD GT ISZERO PUSH2 0xE41 JUMPI PUSH0 DUP1 REVERT JUMPDEST DUP3 PUSH1 0x20 DUP7 ADD PUSH1 0x20 DUP4 ADD CALLDATACOPY PUSH0 PUSH1 0x20 DUP5 DUP4 ADD ADD MSTORE DUP1 SWAP6 POP POP POP POP POP POP SWAP3 SWAP6 SWAP2 SWAP5 POP SWAP3 POP JUMP JUMPDEST PUSH0 DUP1 PUSH1 0x40 DUP4 DUP6 SUB SLT ISZERO PUSH2 0xE75 JUMPI PUSH0 DUP1 REVERT JUMPDEST PUSH2 0xE7E DUP4 PUSH2 0xCB2 JUMP JUMPDEST SWAP2 POP PUSH2 0xE8C PUSH1 0x20 DUP5 ADD PUSH2 0xCB2 JUMP JUMPDEST SWAP1 POP SWAP3 POP SWAP3 SWAP1 POP JUMP JUMPDEST PUSH1 0x1 DUP2 DUP2 SHR SWAP1 DUP3 AND DUP1 PUSH2 0xEA9 JUMPI PUSH1 0x7F DUP3 AND SWAP2 POP JUMPDEST PUSH1 0x20 DUP3 LT DUP2 SUB PUSH2 0xEC7 JUMPI PUSH4 0x4E487B71 PUSH1 0xE0 SHL PUSH0 MSTORE PUSH1 0x22 PUSH1 0x4 MSTORE PUSH1 0x24 PUSH0 REVERT JUMPDEST POP SWAP2 SWAP1 POP JUMP JUMPDEST PUSH0 DUP2 MLOAD DUP1 PUSH1 0x20 DUP5 ADD DUP6 MCOPY PUSH0 SWAP4 ADD SWAP3 DUP4 MSTORE POP SWAP1 SWAP2 SWAP1 POP JUMP JUMPDEST PUSH0 PUSH2 0xA90 PUSH2 0xEF2 DUP4 DUP7 PUSH2 0xECD JUMP JUMPDEST DUP5 PUSH2 0xECD JUMP JUMPDEST PUSH0 DUP2 PUSH2 0xF12 JUMPI PUSH4 0x4E487B71 PUSH1 0xE0 SHL PUSH0 MSTORE PUSH1 0x11 PUSH1 0x4 MSTORE PUSH1 0x24 PUSH0 REVERT JUMPDEST POP PUSH0 NOT ADD SWAP1 JUMP JUMPDEST PUSH0 PUSH1 0x1 PUSH1 0x1 PUSH1 0xA0 SHL SUB DUP1 DUP8 AND DUP4 MSTORE DUP1 DUP7 AND PUSH1 0x20 DUP5 ADD MSTORE POP DUP4 PUSH1 0x40 DUP4 ADD MSTORE PUSH1 0x80 PUSH1 0x60 DUP4 ADD MSTORE PUSH2 0xF4A PUSH1 0x80 DUP4 ADD DUP5 PUSH2 0xC5B JUMP JUMPDEST SWAP7 SWAP6 POP POP POP POP POP POP JUMP JUMPDEST PUSH0 PUSH1 0x20 DUP3 DUP5 SUB SLT ISZERO PUSH2 0xF64 JUMPI PUSH0 DUP1 REVERT JUMPDEST DUP2 MLOAD PUSH2 0x7EE DUP2 PUSH2 0xC28 JUMP INVALID LOG2 PUSH5 0x6970667358 0x22 SLT KECCAK256 MCOPY GASLIMIT 0xCC PUSH31 0x60E8C636B56B7C0AB3773444BE087F40D245F50164A87EAD88CBB0EA64736F PUSH13 0x63430008190033000000000000 "
		},
		"gasEstimates": {
			"creation": {
				"codeDepositCost": "801000",
				"executionCost": "infinite",
				"totalCost": "infinite"
			},
			"external": {
				"approve(address,uint256)": "infinite",
				"balanceOf(address)": "2658",
				"batchMint(address,uint256)": "infinite",
				"getApproved(uint256)": "infinite",
				"isApprovedForAll(address,address)": "infinite",
				"name()": "infinite",
				"ownerOf(uint256)": "infinite",
				"safeTransferFrom(address,address,uint256)": "infinite",
				"safeTransferFrom(address,address,uint256,bytes)": "infinite",
				"setApprovalForAll(address,bool)": "26604",
				"supportsInterface(bytes4)": "513",
				"symbol()": "infinite",
				"tokenURI(uint256)": "infinite",
				"totalSupply()": "4430",
				"transferFrom(address,address,uint256)": "infinite"
			}
		},
		"methodIdentifiers": {
			"approve(address,uint256)": "095ea7b3",
			"balanceOf(address)": "70a08231",
			"batchMint(address,uint256)": "43508b05",
			"getApproved(uint256)": "081812fc",
			"isApprovedForAll(address,address)": "e985e9c5",
			"name()": "06fdde03",
			"ownerOf(uint256)": "6352211e",
			"safeTransferFrom(address,address,uint256)": "42842e0e",
			"safeTransferFrom(address,address,uint256,bytes)": "b88d4fde",
			"setApprovalForAll(address,bool)": "a22cb465",
			"supportsInterface(bytes4)": "01ffc9a7",
			"symbol()": "95d89b41",
			"tokenURI(uint256)": "c87b56dd",
			"totalSupply()": "18160ddd",
			"transferFrom(address,address,uint256)": "23b872dd"
		}
	},
	"abi": [
		{
			"inputs": [],
			"stateMutability": "nonpayable",
			"type": "constructor"
		},
		{
			"inputs": [],
			"name": "ApprovalCallerNotOwnerNorApproved",
			"type": "error"
		},
		{
			"inputs": [],
			"name": "ApprovalQueryForNonexistentToken",
			"type": "error"
		},
		{
			"inputs": [],
			"name": "BalanceQueryForZeroAddress",
			"type": "error"
		},
		{
			"inputs": [],
			"name": "MintERC2309QuantityExceedsLimit",
			"type": "error"
		},
		{
			"inputs": [],
			"name": "MintToZeroAddress",
			"type": "error"
		},
		{
			"inputs": [],
			"name": "MintZeroQuantity",
			"type": "error"
		},
		{
			"inputs": [],
			"name": "NotCompatibleWithSpotMints",
			"type": "error"
		},
		{
			"inputs": [],
			"name": "OwnerQueryForNonexistentToken",
			"type": "error"
		},
		{
			"inputs": [],
			"name": "OwnershipNotInitializedForExtraData",
			"type": "error"
		},
		{
			"inputs": [],
			"name": "SequentialMintExceedsLimit",
			"type": "error"
		},
		{
			"inputs": [],
			"name": "SequentialUpToTooSmall",
			"type": "error"
		},
		{
			"inputs": [],
			"name": "SpotMintTokenIdTooSmall",
			"type": "error"
		},
		{
			"inputs": [],
			"name": "TokenAlreadyExists",
			"type": "error"
		},
		{
			"inputs": [],
			"name": "TransferCallerNotOwnerNorApproved",
			"type": "error"
		},
		{
			"inputs": [],
			"name": "TransferFromIncorrectOwner",
			"type": "error"
		},
		{
			"inputs": [],
			"name": "TransferToNonERC721ReceiverImplementer",
			"type": "error"
		},
		{
			"inputs": [],
			"name": "TransferToZeroAddress",
			"type": "error"
		},
		{
			"inputs": [],
			"name": "URIQueryForNonexistentToken",
			"type": "error"
		},
		{
			"anonymous": false,
			"inputs": [
				{
					"indexed": true,
					"internalType": "address",
					"name": "owner",
					"type": "address"
				},
				{
					"indexed": true,
					"internalType": "address",
					"name": "approved",
					"type": "address"
				},
				{
					"indexed": true,
					"internalType": "uint256",
					"name": "tokenId",
					"type": "uint256"
				}
			],
			"name": "Approval",
			"type": "event"
		},
		{
			"anonymous": false,
			"inputs": [
				{
					"indexed": true,
					"internalType": "address",
					"name": "owner",
					"type": "address"
				},
				{
					"indexed": true,
					"internalType": "address",
					"name": "operator",
					"type": "address"
				},
				{
					"indexed": false,
					"internalType": "bool",
					"name": "approved",
					"type": "bool"
				}
			],
			"name": "ApprovalForAll",
			"type": "event"
		},
		{
			"anonymous": false,
			"inputs": [
				{
					"indexed": true,
					"internalType": "uint256",
					"name": "fromTokenId",
					"type": "uint256"
				},
				{
					"indexed": false,
					"internalType": "uint256",
					"name": "toTokenId",
					"type": "uint256"
				},
				{
					"indexed": true,
					"internalType": "address",
					"name": "from",
					"type": "address"
				},
				{
					"indexed": true,
					"internalType": "address",
					"name": "to",
					"type": "address"
				}
			],
			"name": "ConsecutiveTransfer",
			"type": "event"
		},
		{
			"anonymous": false,
			"inputs": [
				{
					"indexed": true,
					"internalType": "address",
					"name": "from",
					"type": "address"
				},
				{
					"indexed": true,
					"internalType": "address",
					"name": "to",
					"type": "address"
				},
				{
					"indexed": true,
					"internalType": "uint256",
					"name": "tokenId",
					"type": "uint256"
				}
			],
			"name": "Transfer",
			"type": "event"
		},
		{
			"inputs": [
				{
					"internalType": "address",
					"name": "to",
					"type": "address"
				},
				{
					"internalType": "uint256",
					"name": "tokenId",
					"type": "uint256"
				}
			],
			"name": "approve",
			"outputs": [],
			"stateMutability": "payable",
			"type": "function"
		},
		{
			"inputs": [
				{
					"internalType": "address",
					"name": "owner",
					"type": "address"
				}
			],
			"name": "balanceOf",
			"outputs": [
				{
					"internalType": "uint256",
					"name": "",
					"type": "uint256"
				}
			],
			"stateMutability": "view",
			"type": "function"
		},
		{
			"inputs": [
				{
					"internalType": "address",
					"name": "to",
					"type": "address"
				},
				{
					"internalType": "uint256",
					"name": "quantity",
					"type": "uint256"
				}
			],
			"name": "batchMint",
			"outputs": [],
			"stateMutability": "nonpayable",
			"type": "function"
		},
		{
			"inputs": [
				{
					"internalType": "uint256",
					"name": "tokenId",
					"type": "uint256"
				}
			],
			"name": "getApproved",
			"outputs": [
				{
					"internalType": "address",
					"name": "",
					"type": "address"
				}
			],
			"stateMutability": "view",
			"type": "function"
		},
		{
			"inputs": [
				{
					"internalType": "address",
					"name": "owner",
					"type": "address"
				},
				{
					"internalType": "address",
					"name": "operator",
					"type": "address"
				}
			],
			"name": "isApprovedForAll",
			"outputs": [
				{
					"internalType": "bool",
					"name": "",
					"type": "bool"
				}
			],
			"stateMutability": "view",
			"type": "function"
		},
		{
			"inputs": [],
			"name": "name",
			"outputs": [
				{
					"internalType": "string",
					"name": "",
					"type": "string"
				}
			],
			"stateMutability": "view",
			"type": "function"
		},
		{
			"inputs": [
				{
					"internalType": "uint256",
					"name": "tokenId",
					"type": "uint256"
				}
			],
			"name": "ownerOf",
			"outputs": [
				{
					"internalType": "address",
					"name": "",
					"type": "address"
				}
			],
			"stateMutability": "view",
			"type": "function"
		},
		{
			"inputs": [
				{
					"internalType": "address",
					"name": "from",
					"type": "address"
				},
				{
					"internalType": "address",
					"name": "to",
					"type": "address"
				},
				{
					"internalType": "uint256",
					"name": "tokenId",
					"type": "uint256"
				}
			],
			"name": "safeTransferFrom",
			"outputs": [],
			"stateMutability": "payable",
			"type": "function"
		},
		{
			"inputs": [
				{
					"internalType": "address",
					"name": "from",
					"type": "address"
				},
				{
					"internalType": "address",
					"name": "to",
					"type": "address"
				},
				{
					"internalType": "uint256",
					"name": "tokenId",
					"type": "uint256"
				},
				{
					"internalType": "bytes",
					"name": "_data",
					"type": "bytes"
				}
			],
			"name": "safeTransferFrom",
			"outputs": [],
			"stateMutability": "payable",
			"type": "function"
		},
		{
			"inputs": [
				{
					"internalType": "address",
					"name": "operator",
					"type": "address"
				},
				{
					"internalType": "bool",
					"name": "approved",
					"type": "bool"
				}
			],
			"name": "setApprovalForAll",
			"outputs": [],
			"stateMutability": "nonpayable",
			"type": "function"
		},
		{
			"inputs": [
				{
					"internalType": "bytes4",
					"name": "interfaceId",
					"type": "bytes4"
				}
			],
			"name": "supportsInterface",
			"outputs": [
				{
					"internalType": "bool",
					"name": "",
					"type": "bool"
				}
			],
			"stateMutability": "view",
			"type": "function"
		},
		{
			"inputs": [],
			"name": "symbol",
			"outputs": [
				{
					"internalType": "string",
					"name": "",
					"type": "string"
				}
			],
			"stateMutability": "view",
			"type": "function"
		},
		{
			"inputs": [
				{
					"internalType": "uint256",
					"name": "tokenId",
					"type": "uint256"
				}
			],
			"name": "tokenURI",
			"outputs": [
				{
					"internalType": "string",
					"name": "",
					"type": "string"
				}
			],
			"stateMutability": "view",
			"type": "function"
		},
		{
			"inputs": [],
			"name": "totalSupply",
			"outputs": [
				{
					"internalType": "uint256",
					"name": "result",
					"type": "uint256"
				}
			],
			"stateMutability": "view",
			"type": "function"
		},
		{
			"inputs": [
				{
					"internalType": "address",
					"name": "from",
					"type": "address"
				},
				{
					"internalType": "address",
					"name": "to",
					"type": "address"
				},
				{
					"internalType": "uint256",
					"name": "tokenId",
					"type": "uint256"
				}
			],
			"name": "transferFrom",
			"outputs": [],
			"stateMutability": "payable",
			"type": "function"
		}
	]
}