{
	"contracts/ContractT/SimplifiedDiamondProxy.sol": {
		"SimplifiedDiamondProxy": {
			"abi": [
				{
					"inputs": [],
					"stateMutability": "nonpayable",
					"type": "constructor"
				},
				{
					"inputs": [],
					"name": "InvalidFunction",
					"type": "error"
				},
				{
					"inputs": [],
					"name": "Unauthorized",
					"type": "error"
				},
				{
					"stateMutability": "payable",
					"type": "fallback"
				},
				{
					"inputs": [],
					"name": "admin",
					"outputs": [
						{
							"internalType": "address",
							"name": "",
							"type": "address"
						}
					],
					"stateMutability": "view",
					"type": "function"
				},
				{
					"inputs": [
						{
							"internalType": "bytes4",
							"name": "",
							"type": "bytes4"
						}
					],
					"name": "facets",
					"outputs": [
						{
							"internalType": "address",
							"name": "",
							"type": "address"
						}
					],
					"stateMutability": "view",
					"type": "function"
				},
				{
					"inputs": [
						{
							"internalType": "bytes4",
							"name": "_selector",
							"type": "bytes4"
						},
						{
							"internalType": "address",
							"name": "_newFacetAddress",
							"type": "address"
						}
					],
					"name": "updateFacet",
					"outputs": [],
					"stateMutability": "nonpayable",
					"type": "function"
				},
				{
					"stateMutability": "payable",
					"type": "receive"
				}
			],
			"devdoc": {
				"kind": "dev",
				"methods": {},
				"version": 1
			},
			"evm": {
				"assembly": "    /* \"contracts/ContractT/SimplifiedDiamondProxy.sol\":136:1363  contract SimplifiedDiamondProxy {... */\n  mstore(0x40, 0xa0)\n    /* \"contracts/ContractT/SimplifiedDiamondProxy.sol\":374:425  constructor() {... */\n  callvalue\n  dup1\n  iszero\n  tag_1\n  jumpi\n  0x00\n  dup1\n  revert\ntag_1:\n  pop\n    /* \"contracts/ContractT/SimplifiedDiamondProxy.sol\":407:417  msg.sender */\n  caller\n    /* \"contracts/ContractT/SimplifiedDiamondProxy.sol\":399:417  admin = msg.sender */\n  0x80\n  mstore\n    /* \"contracts/ContractT/SimplifiedDiamondProxy.sol\":136:1363  contract SimplifiedDiamondProxy {... */\n  mload(0x80)\n  codecopy(0x00, dataOffset(sub_0), dataSize(sub_0))\n  0x00\n  assignImmutable(\"0x2a80e1ef1d7842f27f2e6be0972bb708b9a135c38860dbe73c27c3486c34f4de\")\n  return(0x00, dataSize(sub_0))\nstop\n\nsub_0: assembly {\n        /* \"contracts/ContractT/SimplifiedDiamondProxy.sol\":136:1363  contract SimplifiedDiamondProxy {... */\n      mstore(0x40, 0x80)\n      jumpi(tag_1, lt(calldatasize, 0x04))\n      shr(0xe0, calldataload(0x00))\n      dup1\n      0x0a68c59f\n      eq\n      tag_3\n      jumpi\n      dup1\n      0x8376284c\n      eq\n      tag_4\n      jumpi\n      dup1\n      0xf851a440\n      eq\n      tag_5\n      jumpi\n      jump(tag_2)\n    tag_1:\n      jumpi(tag_2, calldatasize)\n      stop\n    tag_2:\n        /* \"contracts/ContractT/SimplifiedDiamondProxy.sol\":557:579  address implementation */\n      0x00\n        /* \"contracts/ContractT/SimplifiedDiamondProxy.sol\":589:596  msg.sig */\n      dup1\n      calldataload\n      0xffffffff00000000000000000000000000000000000000000000000000000000\n      and\n        /* \"contracts/ContractT/SimplifiedDiamondProxy.sol\":582:597  facets[msg.sig] */\n      dup2\n      mstore\n      0x20\n      dup2\n      swap1\n      mstore\n      0x40\n      swap1\n      keccak256\n      sload\n      sub(shl(0xa0, 0x01), 0x01)\n      and\n      dup1\n        /* \"contracts/ContractT/SimplifiedDiamondProxy.sol\":608:666  if (implementation == address(0)) revert InvalidFunction() */\n      tag_10\n      jumpi\n        /* \"contracts/ContractT/SimplifiedDiamondProxy.sol\":649:666  InvalidFunction() */\n      mload(0x40)\n      0xdb2079c300000000000000000000000000000000000000000000000000000000\n      dup2\n      mstore\n      0x04\n      add\n      mload(0x40)\n      dup1\n      swap2\n      sub\n      swap1\n      revert\n        /* \"contracts/ContractT/SimplifiedDiamondProxy.sol\":608:666  if (implementation == address(0)) revert InvalidFunction() */\n    tag_10:\n        /* \"contracts/ContractT/SimplifiedDiamondProxy.sol\":722:736  calldatasize() */\n      calldatasize\n        /* \"contracts/ContractT/SimplifiedDiamondProxy.sol\":719:720  0 */\n      0x00\n        /* \"contracts/ContractT/SimplifiedDiamondProxy.sol\":716:717  0 */\n      dup1\n        /* \"contracts/ContractT/SimplifiedDiamondProxy.sol\":703:737  calldatacopy(0, 0, calldatasize()) */\n      calldatacopy\n        /* \"contracts/ContractT/SimplifiedDiamondProxy.sol\":823:824  0 */\n      0x00\n        /* \"contracts/ContractT/SimplifiedDiamondProxy.sol\":820:821  0 */\n      dup1\n        /* \"contracts/ContractT/SimplifiedDiamondProxy.sol\":804:818  calldatasize() */\n      calldatasize\n        /* \"contracts/ContractT/SimplifiedDiamondProxy.sol\":801:802  0 */\n      0x00\n        /* \"contracts/ContractT/SimplifiedDiamondProxy.sol\":785:799  implementation */\n      dup5\n        /* \"contracts/ContractT/SimplifiedDiamondProxy.sol\":778:783  gas() */\n      gas\n        /* \"contracts/ContractT/SimplifiedDiamondProxy.sol\":765:825  delegatecall(gas(), implementation, 0, calldatasize(), 0, 0) */\n      delegatecall\n        /* \"contracts/ContractT/SimplifiedDiamondProxy.sol\":860:876  returndatasize() */\n      returndatasize\n        /* \"contracts/ContractT/SimplifiedDiamondProxy.sol\":857:858  0 */\n      0x00\n        /* \"contracts/ContractT/SimplifiedDiamondProxy.sol\":854:855  0 */\n      dup1\n        /* \"contracts/ContractT/SimplifiedDiamondProxy.sol\":839:877  returndatacopy(0, 0, returndatasize()) */\n      returndatacopy\n        /* \"contracts/ContractT/SimplifiedDiamondProxy.sol\":898:904  result */\n      dup1\n        /* \"contracts/ContractT/SimplifiedDiamondProxy.sol\":918:956  case 0 { revert(0, returndatasize()) } */\n      dup1\n      iszero\n      tag_12\n      jumpi\n        /* \"contracts/ContractT/SimplifiedDiamondProxy.sol\":990:1006  returndatasize() */\n      returndatasize\n        /* \"contracts/ContractT/SimplifiedDiamondProxy.sol\":987:988  0 */\n      0x00\n        /* \"contracts/ContractT/SimplifiedDiamondProxy.sol\":980:1007  return(0, returndatasize()) */\n      return\n        /* \"contracts/ContractT/SimplifiedDiamondProxy.sol\":918:956  case 0 { revert(0, returndatasize()) } */\n    tag_12:\n        /* \"contracts/ContractT/SimplifiedDiamondProxy.sol\":937:953  returndatasize() */\n      returndatasize\n        /* \"contracts/ContractT/SimplifiedDiamondProxy.sol\":934:935  0 */\n      0x00\n        /* \"contracts/ContractT/SimplifiedDiamondProxy.sol\":927:954  revert(0, returndatasize()) */\n      revert\n        /* \"contracts/ContractT/SimplifiedDiamondProxy.sol\":891:1009  switch result... */\n    tag_11:\n      stop\n        /* \"contracts/ContractT/SimplifiedDiamondProxy.sol\":1072:1214  function updateFacet(bytes4 _selector, address _newFacetAddress) public onlyAuthorized {... */\n    tag_3:\n      callvalue\n      dup1\n      iszero\n      tag_13\n      jumpi\n      0x00\n      dup1\n      revert\n    tag_13:\n      pop\n      tag_11\n      tag_15\n      calldatasize\n      0x04\n      tag_16\n      jump\t// in\n    tag_15:\n      tag_17\n      jump\t// in\n        /* \"contracts/ContractT/SimplifiedDiamondProxy.sol\":266:306  mapping(bytes4 => address) public facets */\n    tag_4:\n      callvalue\n      dup1\n      iszero\n      tag_18\n      jumpi\n      0x00\n      dup1\n      revert\n    tag_18:\n      pop\n      tag_19\n      tag_20\n      calldatasize\n      0x04\n      tag_21\n      jump\t// in\n    tag_20:\n      0x00\n      0x20\n      dup2\n      swap1\n      mstore\n      swap1\n      dup2\n      mstore\n      0x40\n      swap1\n      keccak256\n      sload\n      sub(shl(0xa0, 0x01), 0x01)\n      and\n      dup2\n      jump\n    tag_19:\n      mload(0x40)\n      sub(shl(0xa0, 0x01), 0x01)\n        /* \"#utility.yul\":977:1032   */\n      swap1\n      swap2\n      and\n        /* \"#utility.yul\":959:1033   */\n      dup2\n      mstore\n        /* \"#utility.yul\":947:949   */\n      0x20\n        /* \"#utility.yul\":932:950   */\n      add\n        /* \"contracts/ContractT/SimplifiedDiamondProxy.sol\":266:306  mapping(bytes4 => address) public facets */\n      mload(0x40)\n      dup1\n      swap2\n      sub\n      swap1\n      return\n        /* \"contracts/ContractT/SimplifiedDiamondProxy.sol\":175:205  address public immutable admin */\n    tag_5:\n      callvalue\n      dup1\n      iszero\n      tag_25\n      jumpi\n      0x00\n      dup1\n      revert\n    tag_25:\n      pop\n      tag_19\n      immutable(\"0x2a80e1ef1d7842f27f2e6be0972bb708b9a135c38860dbe73c27c3486c34f4de\")\n      dup2\n      jump\n        /* \"contracts/ContractT/SimplifiedDiamondProxy.sol\":1072:1214  function updateFacet(bytes4 _selector, address _newFacetAddress) public onlyAuthorized {... */\n    tag_17:\n        /* \"contracts/ContractT/SimplifiedDiamondProxy.sol\":470:488  _checkAuthorized() */\n      tag_30\n        /* \"contracts/ContractT/SimplifiedDiamondProxy.sol\":470:486  _checkAuthorized */\n      tag_31\n        /* \"contracts/ContractT/SimplifiedDiamondProxy.sol\":470:488  _checkAuthorized() */\n      jump\t// in\n    tag_30:\n        /* \"contracts/ContractT/SimplifiedDiamondProxy.sol\":1170:1187  facets[_selector] */\n      0xffffffff00000000000000000000000000000000000000000000000000000000\n      swap2\n      swap1\n      swap2\n      and\n        /* \"contracts/ContractT/SimplifiedDiamondProxy.sol\":1170:1176  facets */\n      0x00\n        /* \"contracts/ContractT/SimplifiedDiamondProxy.sol\":1170:1187  facets[_selector] */\n      swap1\n      dup2\n      mstore\n      0x20\n      dup2\n      swap1\n      mstore\n      0x40\n      swap1\n      keccak256\n        /* \"contracts/ContractT/SimplifiedDiamondProxy.sol\":1170:1206  facets[_selector] = _newFacetAddress */\n      dup1\n      sload\n      0xffffffffffffffffffffffff0000000000000000000000000000000000000000\n      and\n      sub(shl(0xa0, 0x01), 0x01)\n      swap1\n      swap3\n      and\n      swap2\n      swap1\n      swap2\n      or\n      swap1\n      sstore\n        /* \"contracts/ContractT/SimplifiedDiamondProxy.sol\":1072:1214  function updateFacet(bytes4 _selector, address _newFacetAddress) public onlyAuthorized {... */\n      jump\t// out\n        /* \"contracts/ContractT/SimplifiedDiamondProxy.sol\":1222:1360  function _checkAuthorized() internal view {... */\n    tag_31:\n        /* \"contracts/ContractT/SimplifiedDiamondProxy.sol\":1279:1289  msg.sender */\n      caller\n      sub(shl(0xa0, 0x01), 0x01)\n        /* \"contracts/ContractT/SimplifiedDiamondProxy.sol\":1293:1298  admin */\n      immutable(\"0x2a80e1ef1d7842f27f2e6be0972bb708b9a135c38860dbe73c27c3486c34f4de\")\n        /* \"contracts/ContractT/SimplifiedDiamondProxy.sol\":1279:1298  msg.sender != admin */\n      and\n      eq\n      dup1\n      iszero\n      swap1\n        /* \"contracts/ContractT/SimplifiedDiamondProxy.sol\":1279:1329  msg.sender != admin && msg.sender != address(this) */\n      tag_34\n      jumpi\n      pop\n        /* \"contracts/ContractT/SimplifiedDiamondProxy.sol\":1302:1312  msg.sender */\n      caller\n        /* \"contracts/ContractT/SimplifiedDiamondProxy.sol\":1324:1328  this */\n      address\n        /* \"contracts/ContractT/SimplifiedDiamondProxy.sol\":1302:1329  msg.sender != address(this) */\n      eq\n      iszero\n        /* \"contracts/ContractT/SimplifiedDiamondProxy.sol\":1279:1329  msg.sender != admin && msg.sender != address(this) */\n    tag_34:\n        /* \"contracts/ContractT/SimplifiedDiamondProxy.sol\":1275:1352  if (msg.sender != admin && msg.sender != address(this)) revert Unauthorized() */\n      iszero\n      tag_35\n      jumpi\n        /* \"contracts/ContractT/SimplifiedDiamondProxy.sol\":1338:1352  Unauthorized() */\n      mload(0x40)\n      0x82b4290000000000000000000000000000000000000000000000000000000000\n      dup2\n      mstore\n      0x04\n      add\n      mload(0x40)\n      dup1\n      swap2\n      sub\n      swap1\n      revert\n        /* \"contracts/ContractT/SimplifiedDiamondProxy.sol\":1275:1352  if (msg.sender != admin && msg.sender != address(this)) revert Unauthorized() */\n    tag_35:\n        /* \"contracts/ContractT/SimplifiedDiamondProxy.sol\":1222:1360  function _checkAuthorized() internal view {... */\n      jump\t// out\n        /* \"#utility.yul\":14:233   */\n    tag_36:\n        /* \"#utility.yul\":81:101   */\n      dup1\n      calldataload\n        /* \"#utility.yul\":141:207   */\n      0xffffffff00000000000000000000000000000000000000000000000000000000\n        /* \"#utility.yul\":130:208   */\n      dup2\n      and\n        /* \"#utility.yul\":120:209   */\n      dup2\n      eq\n        /* \"#utility.yul\":110:227   */\n      tag_39\n      jumpi\n        /* \"#utility.yul\":223:224   */\n      0x00\n        /* \"#utility.yul\":220:221   */\n      dup1\n        /* \"#utility.yul\":213:225   */\n      revert\n        /* \"#utility.yul\":110:227   */\n    tag_39:\n        /* \"#utility.yul\":14:233   */\n      swap2\n      swap1\n      pop\n      jump\t// out\n        /* \"#utility.yul\":238:619   */\n    tag_16:\n        /* \"#utility.yul\":305:311   */\n      0x00\n        /* \"#utility.yul\":313:319   */\n      dup1\n        /* \"#utility.yul\":366:368   */\n      0x40\n        /* \"#utility.yul\":354:363   */\n      dup4\n        /* \"#utility.yul\":345:352   */\n      dup6\n        /* \"#utility.yul\":341:364   */\n      sub\n        /* \"#utility.yul\":337:369   */\n      slt\n        /* \"#utility.yul\":334:386   */\n      iszero\n      tag_41\n      jumpi\n        /* \"#utility.yul\":382:383   */\n      0x00\n        /* \"#utility.yul\":379:380   */\n      dup1\n        /* \"#utility.yul\":372:384   */\n      revert\n        /* \"#utility.yul\":334:386   */\n    tag_41:\n        /* \"#utility.yul\":405:433   */\n      tag_42\n        /* \"#utility.yul\":423:432   */\n      dup4\n        /* \"#utility.yul\":405:433   */\n      tag_36\n      jump\t// in\n    tag_42:\n        /* \"#utility.yul\":395:433   */\n      swap2\n      pop\n        /* \"#utility.yul\":483:485   */\n      0x20\n        /* \"#utility.yul\":472:481   */\n      dup4\n        /* \"#utility.yul\":468:486   */\n      add\n        /* \"#utility.yul\":455:487   */\n      calldataload\n      sub(shl(0xa0, 0x01), 0x01)\n        /* \"#utility.yul\":520:525   */\n      dup2\n        /* \"#utility.yul\":516:570   */\n      and\n        /* \"#utility.yul\":509:514   */\n      dup2\n        /* \"#utility.yul\":506:571   */\n      eq\n        /* \"#utility.yul\":496:589   */\n      tag_43\n      jumpi\n        /* \"#utility.yul\":585:586   */\n      0x00\n        /* \"#utility.yul\":582:583   */\n      dup1\n        /* \"#utility.yul\":575:587   */\n      revert\n        /* \"#utility.yul\":496:589   */\n    tag_43:\n        /* \"#utility.yul\":608:613   */\n      dup1\n        /* \"#utility.yul\":598:613   */\n      swap2\n      pop\n      pop\n        /* \"#utility.yul\":238:619   */\n      swap3\n      pop\n      swap3\n      swap1\n      pop\n      jump\t// out\n        /* \"#utility.yul\":624:808   */\n    tag_21:\n        /* \"#utility.yul\":682:688   */\n      0x00\n        /* \"#utility.yul\":735:737   */\n      0x20\n        /* \"#utility.yul\":723:732   */\n      dup3\n        /* \"#utility.yul\":714:721   */\n      dup5\n        /* \"#utility.yul\":710:733   */\n      sub\n        /* \"#utility.yul\":706:738   */\n      slt\n        /* \"#utility.yul\":703:755   */\n      iszero\n      tag_45\n      jumpi\n        /* \"#utility.yul\":751:752   */\n      0x00\n        /* \"#utility.yul\":748:749   */\n      dup1\n        /* \"#utility.yul\":741:753   */\n      revert\n        /* \"#utility.yul\":703:755   */\n    tag_45:\n        /* \"#utility.yul\":774:802   */\n      tag_46\n        /* \"#utility.yul\":792:801   */\n      dup3\n        /* \"#utility.yul\":774:802   */\n      tag_36\n      jump\t// in\n    tag_46:\n        /* \"#utility.yul\":764:802   */\n      swap4\n        /* \"#utility.yul\":624:808   */\n      swap3\n      pop\n      pop\n      pop\n      jump\t// out\n\n    auxdata: 0xa2646970667358221220e8e9576c6c6e847c8e4e613ca9bf179c737ffb21d978a147d55b572b825c495364736f6c63430008190033\n}\n",
				"bytecode": {
					"linkReferences": {},
					"object": "60a0604052348015600e575f80fd5b503360805260805161031e6100325f395f818161014f01526101ed015261031e5ff3fe608060405260043610610037575f3560e01c80630a68c59f146100cf5780638376284c146100ee578063f851a4401461013e5761003e565b3661003e57005b5f80357fffffffff00000000000000000000000000000000000000000000000000000000168152602081905260409020546001600160a01b0316806100af576040517fdb2079c300000000000000000000000000000000000000000000000000000000815260040160405180910390fd5b365f80375f80365f845af43d5f803e8080156100c9573d5ff35b3d5ffd5b005b3480156100da575f80fd5b506100cd6100e9366004610288565b610171565b3480156100f9575f80fd5b506101226101083660046102c8565b5f602081905290815260409020546001600160a01b031681565b6040516001600160a01b03909116815260200160405180910390f35b348015610149575f80fd5b506101227f000000000000000000000000000000000000000000000000000000000000000081565b6101796101e2565b7fffffffff00000000000000000000000000000000000000000000000000000000919091165f90815260208190526040902080547fffffffffffffffffffffffff0000000000000000000000000000000000000000166001600160a01b03909216919091179055565b336001600160a01b037f0000000000000000000000000000000000000000000000000000000000000000161480159061021b5750333014155b15610252576040517f82b4290000000000000000000000000000000000000000000000000000000000815260040160405180910390fd5b565b80357fffffffff0000000000000000000000000000000000000000000000000000000081168114610283575f80fd5b919050565b5f8060408385031215610299575f80fd5b6102a283610254565b915060208301356001600160a01b03811681146102bd575f80fd5b809150509250929050565b5f602082840312156102d8575f80fd5b6102e182610254565b939250505056fea2646970667358221220e8e9576c6c6e847c8e4e613ca9bf179c737ffb21d978a147d55b572b825c495364736f6c63430008190033",
					"opcodes": "PUSH1 0xA0 PUSH1 0x40 MSTORE CALLVALUE DUP1 ISZERO PUSH1 0xE JUMPI PUSH0 DUP1 REVERT JUMPDEST POP CALLER PUSH1 0x80 MSTORE PUSH1 0x80 MLOAD PUSH2 0x31E PUSH2 0x32 PUSH0 CODECOPY PUSH0 DUP2 DUP2 PUSH2 0x14F ADD MSTORE PUSH2 0x1ED ADD MSTORE PUSH2 0x31E PUSH0 RETURN INVALID PUSH1 0x80 PUSH1 0x40 MSTORE PUSH1 0x4 CALLDATASIZE LT PUSH2 0x37 JUMPI PUSH0 CALLDATALOAD PUSH1 0xE0 SHR DUP1 PUSH4 0xA68C59F EQ PUSH2 0xCF JUMPI DUP1 PUSH4 0x8376284C EQ PUSH2 0xEE JUMPI DUP1 PUSH4 0xF851A440 EQ PUSH2 0x13E JUMPI PUSH2 0x3E JUMP JUMPDEST CALLDATASIZE PUSH2 0x3E JUMPI STOP JUMPDEST PUSH0 DUP1 CALLDATALOAD PUSH32 0xFFFFFFFF00000000000000000000000000000000000000000000000000000000 AND DUP2 MSTORE PUSH1 0x20 DUP2 SWAP1 MSTORE PUSH1 0x40 SWAP1 KECCAK256 SLOAD PUSH1 0x1 PUSH1 0x1 PUSH1 0xA0 SHL SUB AND DUP1 PUSH2 0xAF JUMPI PUSH1 0x40 MLOAD PUSH32 0xDB2079C300000000000000000000000000000000000000000000000000000000 DUP2 MSTORE PUSH1 0x4 ADD PUSH1 0x40 MLOAD DUP1 SWAP2 SUB SWAP1 REVERT JUMPDEST CALLDATASIZE PUSH0 DUP1 CALLDATACOPY PUSH0 DUP1 CALLDATASIZE PUSH0 DUP5 GAS DELEGATECALL RETURNDATASIZE PUSH0 DUP1 RETURNDATACOPY DUP1 DUP1 ISZERO PUSH2 0xC9 JUMPI RETURNDATASIZE PUSH0 RETURN JUMPDEST RETURNDATASIZE PUSH0 REVERT JUMPDEST STOP JUMPDEST CALLVALUE DUP1 ISZERO PUSH2 0xDA JUMPI PUSH0 DUP1 REVERT JUMPDEST POP PUSH2 0xCD PUSH2 0xE9 CALLDATASIZE PUSH1 0x4 PUSH2 0x288 JUMP JUMPDEST PUSH2 0x171 JUMP JUMPDEST CALLVALUE DUP1 ISZERO PUSH2 0xF9 JUMPI PUSH0 DUP1 REVERT JUMPDEST POP PUSH2 0x122 PUSH2 0x108 CALLDATASIZE PUSH1 0x4 PUSH2 0x2C8 JUMP JUMPDEST PUSH0 PUSH1 0x20 DUP2 SWAP1 MSTORE SWAP1 DUP2 MSTORE PUSH1 0x40 SWAP1 KECCAK256 SLOAD PUSH1 0x1 PUSH1 0x1 PUSH1 0xA0 SHL SUB AND DUP2 JUMP JUMPDEST PUSH1 0x40 MLOAD PUSH1 0x1 PUSH1 0x1 PUSH1 0xA0 SHL SUB SWAP1 SWAP2 AND DUP2 MSTORE PUSH1 0x20 ADD PUSH1 0x40 MLOAD DUP1 SWAP2 SUB SWAP1 RETURN JUMPDEST CALLVALUE DUP1 ISZERO PUSH2 0x149 JUMPI PUSH0 DUP1 REVERT JUMPDEST POP PUSH2 0x122 PUSH32 0x0 DUP2 JUMP JUMPDEST PUSH2 0x179 PUSH2 0x1E2 JUMP JUMPDEST PUSH32 0xFFFFFFFF00000000000000000000000000000000000000000000000000000000 SWAP2 SWAP1 SWAP2 AND PUSH0 SWAP1 DUP2 MSTORE PUSH1 0x20 DUP2 SWAP1 MSTORE PUSH1 0x40 SWAP1 KECCAK256 DUP1 SLOAD PUSH32 0xFFFFFFFFFFFFFFFFFFFFFFFF0000000000000000000000000000000000000000 AND PUSH1 0x1 PUSH1 0x1 PUSH1 0xA0 SHL SUB SWAP1 SWAP3 AND SWAP2 SWAP1 SWAP2 OR SWAP1 SSTORE JUMP JUMPDEST CALLER PUSH1 0x1 PUSH1 0x1 PUSH1 0xA0 SHL SUB PUSH32 0x0 AND EQ DUP1 ISZERO SWAP1 PUSH2 0x21B JUMPI POP CALLER ADDRESS EQ ISZERO JUMPDEST ISZERO PUSH2 0x252 JUMPI PUSH1 0x40 MLOAD PUSH32 0x82B4290000000000000000000000000000000000000000000000000000000000 DUP2 MSTORE PUSH1 0x4 ADD PUSH1 0x40 MLOAD DUP1 SWAP2 SUB SWAP1 REVERT JUMPDEST JUMP JUMPDEST DUP1 CALLDATALOAD PUSH32 0xFFFFFFFF00000000000000000000000000000000000000000000000000000000 DUP2 AND DUP2 EQ PUSH2 0x283 JUMPI PUSH0 DUP1 REVERT JUMPDEST SWAP2 SWAP1 POP JUMP JUMPDEST PUSH0 DUP1 PUSH1 0x40 DUP4 DUP6 SUB SLT ISZERO PUSH2 0x299 JUMPI PUSH0 DUP1 REVERT JUMPDEST PUSH2 0x2A2 DUP4 PUSH2 0x254 JUMP JUMPDEST SWAP2 POP PUSH1 0x20 DUP4 ADD CALLDATALOAD PUSH1 0x1 PUSH1 0x1 PUSH1 0xA0 SHL SUB DUP2 AND DUP2 EQ PUSH2 0x2BD JUMPI PUSH0 DUP1 REVERT JUMPDEST DUP1 SWAP2 POP POP SWAP3 POP SWAP3 SWAP1 POP JUMP JUMPDEST PUSH0 PUSH1 0x20 DUP3 DUP5 SUB SLT ISZERO PUSH2 0x2D8 JUMPI PUSH0 DUP1 REVERT JUMPDEST PUSH2 0x2E1 DUP3 PUSH2 0x254 JUMP JUMPDEST SWAP4 SWAP3 POP POP POP JUMP INVALID LOG2 PUSH5 0x6970667358 0x22 SLT KECCAK256 0xE8 0xE9 JUMPI PUSH13 0x6C6E847C8E4E613CA9BF179C73 PUSH32 0xFB21D978A147D55B572B825C495364736F6C6343000819003300000000000000 "
				},
				"gasEstimates": {
					"creation": {
						"codeDepositCost": "159600",
						"executionCost": "infinite",
						"totalCost": "infinite"
					},
					"external": {
						"": "infinite",
						"admin()": "infinite",
						"facets(bytes4)": "2534",
						"updateFacet(bytes4,address)": "infinite"
					},
					"internal": {
						"_checkAuthorized()": "infinite"
					}
				},
				"methodIdentifiers": {
					"admin()": "f851a440",
					"facets(bytes4)": "8376284c",
					"updateFacet(bytes4,address)": "0a68c59f"
				}
			},
			"storageLayout": {
				"storage": [
					{
						"astId": 7,
						"contract": "contracts/ContractT/SimplifiedDiamondProxy.sol:SimplifiedDiamondProxy",
						"label": "facets",
						"offset": 0,
						"slot": "0",
						"type": "t_mapping(t_bytes4,t_address)"
					}
				],
				"types": {
					"t_address": {
						"encoding": "inplace",
						"label": "address",
						"numberOfBytes": "20"
					},
					"t_bytes4": {
						"encoding": "inplace",
						"label": "bytes4",
						"numberOfBytes": "4"
					},
					"t_mapping(t_bytes4,t_address)": {
						"encoding": "mapping",
						"key": "t_bytes4",
						"label": "mapping(bytes4 => address)",
						"numberOfBytes": "32",
						"value": "t_address"
					}
				}
			},
			"userdoc": {
				"kind": "user",
				"methods": {},
				"version": 1
			}
		}
	}
}