{
	"contracts/ContractT/DiamondProxy.sol": {
		"DiamondProxy": {
			"abi": [
				{
					"inputs": [],
					"stateMutability": "nonpayable",
					"type": "constructor"
				},
				{
					"inputs": [],
					"name": "InvalidFunction",
					"type": "error"
				},
				{
					"inputs": [],
					"name": "Unauthorized",
					"type": "error"
				},
				{
					"stateMutability": "payable",
					"type": "fallback"
				},
				{
					"inputs": [],
					"name": "admin",
					"outputs": [
						{
							"internalType": "address",
							"name": "",
							"type": "address"
						}
					],
					"stateMutability": "view",
					"type": "function"
				},
				{
					"inputs": [
						{
							"internalType": "bytes4",
							"name": "",
							"type": "bytes4"
						}
					],
					"name": "facets",
					"outputs": [
						{
							"internalType": "address",
							"name": "",
							"type": "address"
						}
					],
					"stateMutability": "view",
					"type": "function"
				},
				{
					"inputs": [],
					"name": "getDiamondCutFacet",
					"outputs": [
						{
							"internalType": "address",
							"name": "_diamondCutFacet",
							"type": "address"
						}
					],
					"stateMutability": "view",
					"type": "function"
				},
				{
					"inputs": [
						{
							"internalType": "address",
							"name": "_diamondCutFacet",
							"type": "address"
						}
					],
					"name": "setDiamondCutFacet",
					"outputs": [],
					"stateMutability": "nonpayable",
					"type": "function"
				},
				{
					"inputs": [
						{
							"internalType": "bytes4",
							"name": "_selector",
							"type": "bytes4"
						},
						{
							"internalType": "address",
							"name": "_newFacetAddress",
							"type": "address"
						}
					],
					"name": "updateFacet",
					"outputs": [],
					"stateMutability": "nonpayable",
					"type": "function"
				},
				{
					"stateMutability": "payable",
					"type": "receive"
				}
			],
			"devdoc": {
				"kind": "dev",
				"methods": {},
				"version": 1
			},
			"evm": {
				"assembly": "    /* \"contracts/ContractT/DiamondProxy.sol\":62:1978  contract DiamondProxy {... */\n  mstore(0x40, 0xa0)\n    /* \"contracts/ContractT/DiamondProxy.sol\":565:657  constructor() {... */\n  callvalue\n  dup1\n  iszero\n  tag_1\n  jumpi\n  0x00\n  dup1\n  revert\ntag_1:\n  pop\n    /* \"contracts/ContractT/DiamondProxy.sol\":598:608  msg.sender */\n  caller\n    /* \"contracts/ContractT/DiamondProxy.sol\":590:608  admin = msg.sender */\n  0x80\n  mstore\n    /* \"contracts/ContractT/DiamondProxy.sol\":619:649  setDiamondCutFacet(address(0)) */\n  tag_4\n    /* \"contracts/ContractT/DiamondProxy.sol\":646:647  0 */\n  0x00\n    /* \"contracts/ContractT/DiamondProxy.sol\":619:637  setDiamondCutFacet */\n  tag_5\n    /* \"contracts/ContractT/DiamondProxy.sol\":619:649  setDiamondCutFacet(address(0)) */\n  jump\t// in\ntag_4:\n    /* \"contracts/ContractT/DiamondProxy.sol\":62:1978  contract DiamondProxy {... */\n  jump(tag_6)\n    /* \"contracts/ContractT/DiamondProxy.sol\":902:1080  function setDiamondCutFacet(address _diamondCutFacet) public onlyAuthorized {... */\ntag_5:\n    /* \"contracts/ContractT/DiamondProxy.sol\":702:720  _checkAuthorized() */\n  tag_8\n    /* \"contracts/ContractT/DiamondProxy.sol\":702:718  _checkAuthorized */\n  tag_9\n    /* \"contracts/ContractT/DiamondProxy.sol\":702:720  _checkAuthorized() */\n  jump\t// in\ntag_8:\n  0x00\n  dup1\n  mload\n  0x20\n  data_8cb4ceb7e9592a3d69792fd5f14e8fa30b2a77c73ed692960228897fa1abf1c2\n  dup4\n  codecopy\n  dup2\n  mload\n  swap2\n  mstore\n    /* \"contracts/ContractT/DiamondProxy.sol\":1013:1062  sstore(_DIAMOND_CUT_FACET_SLOT, _diamondCutFacet) */\n  sstore\n    /* \"contracts/ContractT/DiamondProxy.sol\":902:1080  function setDiamondCutFacet(address _diamondCutFacet) public onlyAuthorized {... */\n  jump\t// out\n    /* \"contracts/ContractT/DiamondProxy.sol\":1830:1975  function _checkAuthorized() internal view {... */\ntag_9:\n    /* \"contracts/ContractT/DiamondProxy.sol\":1901:1906  admin */\n  mload(0x80)\n  sub(shl(0xa0, 0x01), 0x01)\n    /* \"contracts/ContractT/DiamondProxy.sol\":1887:1906  msg.sender != admin */\n  and\n    /* \"contracts/ContractT/DiamondProxy.sol\":1887:1897  msg.sender */\n  caller\n  sub(shl(0xa0, 0x01), 0x01)\n    /* \"contracts/ContractT/DiamondProxy.sol\":1887:1906  msg.sender != admin */\n  and\n  eq\n  iszero\n    /* \"contracts/ContractT/DiamondProxy.sol\":1887:1944  msg.sender != admin && msg.sender != getDiamondCutFacet() */\n  dup1\n  iszero\n  tag_12\n  jumpi\n  pop\n  0x00\n  dup1\n  mload\n  0x20\n  data_8cb4ceb7e9592a3d69792fd5f14e8fa30b2a77c73ed692960228897fa1abf1c2\n  dup4\n  codecopy\n  dup2\n  mload\n  swap2\n  mstore\n    /* \"contracts/ContractT/DiamondProxy.sol\":1220:1250  sload(_DIAMOND_CUT_FACET_SLOT) */\n  sload\n  sub(shl(0xa0, 0x01), 0x01)\n    /* \"contracts/ContractT/DiamondProxy.sol\":1910:1944  msg.sender != getDiamondCutFacet() */\n  and\n    /* \"contracts/ContractT/DiamondProxy.sol\":1910:1920  msg.sender */\n  caller\n  sub(shl(0xa0, 0x01), 0x01)\n    /* \"contracts/ContractT/DiamondProxy.sol\":1910:1944  msg.sender != getDiamondCutFacet() */\n  and\n  eq\n  iszero\n    /* \"contracts/ContractT/DiamondProxy.sol\":1887:1944  msg.sender != admin && msg.sender != getDiamondCutFacet() */\ntag_12:\n    /* \"contracts/ContractT/DiamondProxy.sol\":1883:1967  if (msg.sender != admin && msg.sender != getDiamondCutFacet()) revert Unauthorized() */\n  iszero\n  tag_15\n  jumpi\n    /* \"contracts/ContractT/DiamondProxy.sol\":1953:1967  Unauthorized() */\n  mload(0x40)\n  shl(0xe8, 0x82b429)\n  dup2\n  mstore\n  0x04\n  add\n  mload(0x40)\n  dup1\n  swap2\n  sub\n  swap1\n  revert\n    /* \"contracts/ContractT/DiamondProxy.sol\":1883:1967  if (msg.sender != admin && msg.sender != getDiamondCutFacet()) revert Unauthorized() */\ntag_15:\n    /* \"contracts/ContractT/DiamondProxy.sol\":1830:1975  function _checkAuthorized() internal view {... */\n  jump\t// out\n    /* \"contracts/ContractT/DiamondProxy.sol\":62:1978  contract DiamondProxy {... */\ntag_6:\n  mload(0x80)\n  codecopy(0x00, dataOffset(sub_0), dataSize(sub_0))\n  0x00\n  assignImmutable(\"0x2a80e1ef1d7842f27f2e6be0972bb708b9a135c38860dbe73c27c3486c34f4de\")\n  return(0x00, dataSize(sub_0))\nstop\ndata_8cb4ceb7e9592a3d69792fd5f14e8fa30b2a77c73ed692960228897fa1abf1c2 93caa8b49eae9c3c8dcf926991d37c523a5f666b25234b239367f1842c633b24\n\nsub_0: assembly {\n        /* \"contracts/ContractT/DiamondProxy.sol\":62:1978  contract DiamondProxy {... */\n      mstore(0x40, 0x80)\n      jumpi(tag_1, lt(calldatasize, 0x04))\n      shr(0xe0, calldataload(0x00))\n      dup1\n      0x8376284c\n      gt\n      tag_8\n      jumpi\n      dup1\n      0x8376284c\n      eq\n      tag_5\n      jumpi\n      dup1\n      0xc27bddba\n      eq\n      tag_6\n      jumpi\n      dup1\n      0xf851a440\n      eq\n      tag_7\n      jumpi\n      jump(tag_2)\n    tag_8:\n      dup1\n      0x0a68c59f\n      eq\n      tag_3\n      jumpi\n      dup1\n      0x545323ff\n      eq\n      tag_4\n      jumpi\n      jump(tag_2)\n    tag_1:\n      jumpi(tag_2, calldatasize)\n      stop\n    tag_2:\n        /* \"contracts/ContractT/DiamondProxy.sol\":1315:1337  address implementation */\n      0x00\n        /* \"contracts/ContractT/DiamondProxy.sol\":1347:1354  msg.sig */\n      dup1\n      calldataload\n      0xffffffff00000000000000000000000000000000000000000000000000000000\n      and\n        /* \"contracts/ContractT/DiamondProxy.sol\":1340:1355  facets[msg.sig] */\n      dup2\n      mstore\n      0x20\n      dup2\n      swap1\n      mstore\n      0x40\n      swap1\n      keccak256\n      sload\n      sub(shl(0xa0, 0x01), 0x01)\n      and\n      dup1\n        /* \"contracts/ContractT/DiamondProxy.sol\":1366:1424  if (implementation == address(0)) revert InvalidFunction() */\n      tag_13\n      jumpi\n        /* \"contracts/ContractT/DiamondProxy.sol\":1407:1424  InvalidFunction() */\n      mload(0x40)\n      0xdb2079c300000000000000000000000000000000000000000000000000000000\n      dup2\n      mstore\n      0x04\n      add\n      mload(0x40)\n      dup1\n      swap2\n      sub\n      swap1\n      revert\n        /* \"contracts/ContractT/DiamondProxy.sol\":1366:1424  if (implementation == address(0)) revert InvalidFunction() */\n    tag_13:\n        /* \"contracts/ContractT/DiamondProxy.sol\":1480:1494  calldatasize() */\n      calldatasize\n        /* \"contracts/ContractT/DiamondProxy.sol\":1477:1478  0 */\n      0x00\n        /* \"contracts/ContractT/DiamondProxy.sol\":1474:1475  0 */\n      dup1\n        /* \"contracts/ContractT/DiamondProxy.sol\":1461:1495  calldatacopy(0, 0, calldatasize()) */\n      calldatacopy\n        /* \"contracts/ContractT/DiamondProxy.sol\":1581:1582  0 */\n      0x00\n        /* \"contracts/ContractT/DiamondProxy.sol\":1578:1579  0 */\n      dup1\n        /* \"contracts/ContractT/DiamondProxy.sol\":1562:1576  calldatasize() */\n      calldatasize\n        /* \"contracts/ContractT/DiamondProxy.sol\":1559:1560  0 */\n      0x00\n        /* \"contracts/ContractT/DiamondProxy.sol\":1543:1557  implementation */\n      dup5\n        /* \"contracts/ContractT/DiamondProxy.sol\":1536:1541  gas() */\n      gas\n        /* \"contracts/ContractT/DiamondProxy.sol\":1523:1583  delegatecall(gas(), implementation, 0, calldatasize(), 0, 0) */\n      delegatecall\n        /* \"contracts/ContractT/DiamondProxy.sol\":1618:1634  returndatasize() */\n      returndatasize\n        /* \"contracts/ContractT/DiamondProxy.sol\":1615:1616  0 */\n      0x00\n        /* \"contracts/ContractT/DiamondProxy.sol\":1612:1613  0 */\n      dup1\n        /* \"contracts/ContractT/DiamondProxy.sol\":1597:1635  returndatacopy(0, 0, returndatasize()) */\n      returndatacopy\n        /* \"contracts/ContractT/DiamondProxy.sol\":1656:1662  result */\n      dup1\n        /* \"contracts/ContractT/DiamondProxy.sol\":1676:1714  case 0 { revert(0, returndatasize()) } */\n      dup1\n      iszero\n      tag_15\n      jumpi\n        /* \"contracts/ContractT/DiamondProxy.sol\":1748:1764  returndatasize() */\n      returndatasize\n        /* \"contracts/ContractT/DiamondProxy.sol\":1745:1746  0 */\n      0x00\n        /* \"contracts/ContractT/DiamondProxy.sol\":1738:1765  return(0, returndatasize()) */\n      return\n        /* \"contracts/ContractT/DiamondProxy.sol\":1676:1714  case 0 { revert(0, returndatasize()) } */\n    tag_15:\n        /* \"contracts/ContractT/DiamondProxy.sol\":1695:1711  returndatasize() */\n      returndatasize\n        /* \"contracts/ContractT/DiamondProxy.sol\":1692:1693  0 */\n      0x00\n        /* \"contracts/ContractT/DiamondProxy.sol\":1685:1712  revert(0, returndatasize()) */\n      revert\n        /* \"contracts/ContractT/DiamondProxy.sol\":1649:1767  switch result... */\n    tag_14:\n      stop\n        /* \"contracts/ContractT/DiamondProxy.sol\":750:894  function updateFacet(bytes4 _selector, address _newFacetAddress) external onlyAuthorized {... */\n    tag_3:\n      callvalue\n      dup1\n      iszero\n      tag_16\n      jumpi\n      0x00\n      dup1\n      revert\n    tag_16:\n      pop\n      tag_14\n      tag_18\n      calldatasize\n      0x04\n      tag_19\n      jump\t// in\n    tag_18:\n      tag_20\n      jump\t// in\n        /* \"contracts/ContractT/DiamondProxy.sol\":902:1080  function setDiamondCutFacet(address _diamondCutFacet) public onlyAuthorized {... */\n    tag_4:\n      callvalue\n      dup1\n      iszero\n      tag_21\n      jumpi\n      0x00\n      dup1\n      revert\n    tag_21:\n      pop\n      tag_14\n      tag_23\n      calldatasize\n      0x04\n      tag_24\n      jump\t// in\n    tag_23:\n      tag_25\n      jump\t// in\n        /* \"contracts/ContractT/DiamondProxy.sol\":457:497  mapping(bytes4 => address) public facets */\n    tag_5:\n      callvalue\n      dup1\n      iszero\n      tag_26\n      jumpi\n      0x00\n      dup1\n      revert\n    tag_26:\n      pop\n      tag_27\n      tag_28\n      calldatasize\n      0x04\n      tag_29\n      jump\t// in\n    tag_28:\n      0x00\n      0x20\n      dup2\n      swap1\n      mstore\n      swap1\n      dup2\n      mstore\n      0x40\n      swap1\n      keccak256\n      sload\n      sub(shl(0xa0, 0x01), 0x01)\n      and\n      dup2\n      jump\n    tag_27:\n      mload(0x40)\n      sub(shl(0xa0, 0x01), 0x01)\n        /* \"#utility.yul\":1246:1301   */\n      swap1\n      swap2\n      and\n        /* \"#utility.yul\":1228:1302   */\n      dup2\n      mstore\n        /* \"#utility.yul\":1216:1218   */\n      0x20\n        /* \"#utility.yul\":1201:1219   */\n      add\n        /* \"contracts/ContractT/DiamondProxy.sol\":457:497  mapping(bytes4 => address) public facets */\n      mload(0x40)\n      dup1\n      swap2\n      sub\n      swap1\n      return\n        /* \"contracts/ContractT/DiamondProxy.sol\":1088:1268  function getDiamondCutFacet() public view returns (address _diamondCutFacet) {... */\n    tag_6:\n      callvalue\n      dup1\n      iszero\n      tag_33\n      jumpi\n      0x00\n      dup1\n      revert\n    tag_33:\n      pop\n        /* \"contracts/ContractT/DiamondProxy.sol\":1226:1249  _DIAMOND_CUT_FACET_SLOT */\n      0x93caa8b49eae9c3c8dcf926991d37c523a5f666b25234b239367f1842c633b24\n        /* \"contracts/ContractT/DiamondProxy.sol\":1220:1250  sload(_DIAMOND_CUT_FACET_SLOT) */\n      sload\n        /* \"contracts/ContractT/DiamondProxy.sol\":1088:1268  function getDiamondCutFacet() public view returns (address _diamondCutFacet) {... */\n      jump(tag_27)\n        /* \"contracts/ContractT/DiamondProxy.sol\":91:121  address public immutable admin */\n    tag_7:\n      callvalue\n      dup1\n      iszero\n      tag_37\n      jumpi\n      0x00\n      dup1\n      revert\n    tag_37:\n      pop\n      tag_27\n      immutable(\"0x2a80e1ef1d7842f27f2e6be0972bb708b9a135c38860dbe73c27c3486c34f4de\")\n      dup2\n      jump\n        /* \"contracts/ContractT/DiamondProxy.sol\":750:894  function updateFacet(bytes4 _selector, address _newFacetAddress) external onlyAuthorized {... */\n    tag_20:\n        /* \"contracts/ContractT/DiamondProxy.sol\":702:720  _checkAuthorized() */\n      tag_42\n        /* \"contracts/ContractT/DiamondProxy.sol\":702:718  _checkAuthorized */\n      tag_43\n        /* \"contracts/ContractT/DiamondProxy.sol\":702:720  _checkAuthorized() */\n      jump\t// in\n    tag_42:\n        /* \"contracts/ContractT/DiamondProxy.sol\":850:867  facets[_selector] */\n      0xffffffff00000000000000000000000000000000000000000000000000000000\n      swap2\n      swap1\n      swap2\n      and\n        /* \"contracts/ContractT/DiamondProxy.sol\":850:856  facets */\n      0x00\n        /* \"contracts/ContractT/DiamondProxy.sol\":850:867  facets[_selector] */\n      swap1\n      dup2\n      mstore\n      0x20\n      dup2\n      swap1\n      mstore\n      0x40\n      swap1\n      keccak256\n        /* \"contracts/ContractT/DiamondProxy.sol\":850:886  facets[_selector] = _newFacetAddress */\n      dup1\n      sload\n      0xffffffffffffffffffffffff0000000000000000000000000000000000000000\n      and\n      sub(shl(0xa0, 0x01), 0x01)\n      swap1\n      swap3\n      and\n      swap2\n      swap1\n      swap2\n      or\n      swap1\n      sstore\n        /* \"contracts/ContractT/DiamondProxy.sol\":750:894  function updateFacet(bytes4 _selector, address _newFacetAddress) external onlyAuthorized {... */\n      jump\t// out\n        /* \"contracts/ContractT/DiamondProxy.sol\":902:1080  function setDiamondCutFacet(address _diamondCutFacet) public onlyAuthorized {... */\n    tag_25:\n        /* \"contracts/ContractT/DiamondProxy.sol\":702:720  _checkAuthorized() */\n      tag_46\n        /* \"contracts/ContractT/DiamondProxy.sol\":702:718  _checkAuthorized */\n      tag_43\n        /* \"contracts/ContractT/DiamondProxy.sol\":702:720  _checkAuthorized() */\n      jump\t// in\n    tag_46:\n        /* \"contracts/ContractT/DiamondProxy.sol\":1020:1043  _DIAMOND_CUT_FACET_SLOT */\n      0x93caa8b49eae9c3c8dcf926991d37c523a5f666b25234b239367f1842c633b24\n        /* \"contracts/ContractT/DiamondProxy.sol\":1013:1062  sstore(_DIAMOND_CUT_FACET_SLOT, _diamondCutFacet) */\n      sstore\n        /* \"contracts/ContractT/DiamondProxy.sol\":902:1080  function setDiamondCutFacet(address _diamondCutFacet) public onlyAuthorized {... */\n      jump\t// out\n        /* \"contracts/ContractT/DiamondProxy.sol\":1830:1975  function _checkAuthorized() internal view {... */\n    tag_43:\n        /* \"contracts/ContractT/DiamondProxy.sol\":1887:1897  msg.sender */\n      caller\n      sub(shl(0xa0, 0x01), 0x01)\n        /* \"contracts/ContractT/DiamondProxy.sol\":1901:1906  admin */\n      immutable(\"0x2a80e1ef1d7842f27f2e6be0972bb708b9a135c38860dbe73c27c3486c34f4de\")\n        /* \"contracts/ContractT/DiamondProxy.sol\":1887:1906  msg.sender != admin */\n      and\n      eq\n      dup1\n      iszero\n      swap1\n        /* \"contracts/ContractT/DiamondProxy.sol\":1887:1944  msg.sender != admin && msg.sender != getDiamondCutFacet() */\n      tag_50\n      jumpi\n      pop\n        /* \"contracts/ContractT/DiamondProxy.sol\":1226:1249  _DIAMOND_CUT_FACET_SLOT */\n      0x93caa8b49eae9c3c8dcf926991d37c523a5f666b25234b239367f1842c633b24\n        /* \"contracts/ContractT/DiamondProxy.sol\":1220:1250  sload(_DIAMOND_CUT_FACET_SLOT) */\n      sload\n      sub(shl(0xa0, 0x01), 0x01)\n        /* \"contracts/ContractT/DiamondProxy.sol\":1910:1944  msg.sender != getDiamondCutFacet() */\n      and\n        /* \"contracts/ContractT/DiamondProxy.sol\":1910:1920  msg.sender */\n      caller\n      sub(shl(0xa0, 0x01), 0x01)\n        /* \"contracts/ContractT/DiamondProxy.sol\":1910:1944  msg.sender != getDiamondCutFacet() */\n      and\n      eq\n      iszero\n        /* \"contracts/ContractT/DiamondProxy.sol\":1887:1944  msg.sender != admin && msg.sender != getDiamondCutFacet() */\n    tag_50:\n        /* \"contracts/ContractT/DiamondProxy.sol\":1883:1967  if (msg.sender != admin && msg.sender != getDiamondCutFacet()) revert Unauthorized() */\n      iszero\n      tag_52\n      jumpi\n        /* \"contracts/ContractT/DiamondProxy.sol\":1953:1967  Unauthorized() */\n      mload(0x40)\n      0x82b4290000000000000000000000000000000000000000000000000000000000\n      dup2\n      mstore\n      0x04\n      add\n      mload(0x40)\n      dup1\n      swap2\n      sub\n      swap1\n      revert\n        /* \"contracts/ContractT/DiamondProxy.sol\":1883:1967  if (msg.sender != admin && msg.sender != getDiamondCutFacet()) revert Unauthorized() */\n    tag_52:\n        /* \"contracts/ContractT/DiamondProxy.sol\":1830:1975  function _checkAuthorized() internal view {... */\n      jump\t// out\n        /* \"#utility.yul\":14:233   */\n    tag_53:\n        /* \"#utility.yul\":81:101   */\n      dup1\n      calldataload\n        /* \"#utility.yul\":141:207   */\n      0xffffffff00000000000000000000000000000000000000000000000000000000\n        /* \"#utility.yul\":130:208   */\n      dup2\n      and\n        /* \"#utility.yul\":120:209   */\n      dup2\n      eq\n        /* \"#utility.yul\":110:227   */\n      tag_57\n      jumpi\n        /* \"#utility.yul\":223:224   */\n      0x00\n        /* \"#utility.yul\":220:221   */\n      dup1\n        /* \"#utility.yul\":213:225   */\n      revert\n        /* \"#utility.yul\":110:227   */\n    tag_57:\n        /* \"#utility.yul\":14:233   */\n      swap2\n      swap1\n      pop\n      jump\t// out\n        /* \"#utility.yul\":238:434   */\n    tag_54:\n        /* \"#utility.yul\":306:326   */\n      dup1\n      calldataload\n      sub(shl(0xa0, 0x01), 0x01)\n        /* \"#utility.yul\":355:409   */\n      dup2\n      and\n        /* \"#utility.yul\":345:410   */\n      dup2\n      eq\n        /* \"#utility.yul\":335:428   */\n      tag_57\n      jumpi\n        /* \"#utility.yul\":424:425   */\n      0x00\n        /* \"#utility.yul\":421:422   */\n      dup1\n        /* \"#utility.yul\":414:426   */\n      revert\n        /* \"#utility.yul\":439:697   */\n    tag_19:\n        /* \"#utility.yul\":506:512   */\n      0x00\n        /* \"#utility.yul\":514:520   */\n      dup1\n        /* \"#utility.yul\":567:569   */\n      0x40\n        /* \"#utility.yul\":555:564   */\n      dup4\n        /* \"#utility.yul\":546:553   */\n      dup6\n        /* \"#utility.yul\":542:565   */\n      sub\n        /* \"#utility.yul\":538:570   */\n      slt\n        /* \"#utility.yul\":535:587   */\n      iszero\n      tag_61\n      jumpi\n        /* \"#utility.yul\":583:584   */\n      0x00\n        /* \"#utility.yul\":580:581   */\n      dup1\n        /* \"#utility.yul\":573:585   */\n      revert\n        /* \"#utility.yul\":535:587   */\n    tag_61:\n        /* \"#utility.yul\":606:634   */\n      tag_62\n        /* \"#utility.yul\":624:633   */\n      dup4\n        /* \"#utility.yul\":606:634   */\n      tag_53\n      jump\t// in\n    tag_62:\n        /* \"#utility.yul\":596:634   */\n      swap2\n      pop\n        /* \"#utility.yul\":653:691   */\n      tag_63\n        /* \"#utility.yul\":687:689   */\n      0x20\n        /* \"#utility.yul\":676:685   */\n      dup5\n        /* \"#utility.yul\":672:690   */\n      add\n        /* \"#utility.yul\":653:691   */\n      tag_54\n      jump\t// in\n    tag_63:\n        /* \"#utility.yul\":643:691   */\n      swap1\n      pop\n        /* \"#utility.yul\":439:697   */\n      swap3\n      pop\n      swap3\n      swap1\n      pop\n      jump\t// out\n        /* \"#utility.yul\":702:888   */\n    tag_24:\n        /* \"#utility.yul\":761:767   */\n      0x00\n        /* \"#utility.yul\":814:816   */\n      0x20\n        /* \"#utility.yul\":802:811   */\n      dup3\n        /* \"#utility.yul\":793:800   */\n      dup5\n        /* \"#utility.yul\":789:812   */\n      sub\n        /* \"#utility.yul\":785:817   */\n      slt\n        /* \"#utility.yul\":782:834   */\n      iszero\n      tag_65\n      jumpi\n        /* \"#utility.yul\":830:831   */\n      0x00\n        /* \"#utility.yul\":827:828   */\n      dup1\n        /* \"#utility.yul\":820:832   */\n      revert\n        /* \"#utility.yul\":782:834   */\n    tag_65:\n        /* \"#utility.yul\":853:882   */\n      tag_66\n        /* \"#utility.yul\":872:881   */\n      dup3\n        /* \"#utility.yul\":853:882   */\n      tag_54\n      jump\t// in\n    tag_66:\n        /* \"#utility.yul\":843:882   */\n      swap4\n        /* \"#utility.yul\":702:888   */\n      swap3\n      pop\n      pop\n      pop\n      jump\t// out\n        /* \"#utility.yul\":893:1077   */\n    tag_29:\n        /* \"#utility.yul\":951:957   */\n      0x00\n        /* \"#utility.yul\":1004:1006   */\n      0x20\n        /* \"#utility.yul\":992:1001   */\n      dup3\n        /* \"#utility.yul\":983:990   */\n      dup5\n        /* \"#utility.yul\":979:1002   */\n      sub\n        /* \"#utility.yul\":975:1007   */\n      slt\n        /* \"#utility.yul\":972:1024   */\n      iszero\n      tag_68\n      jumpi\n        /* \"#utility.yul\":1020:1021   */\n      0x00\n        /* \"#utility.yul\":1017:1018   */\n      dup1\n        /* \"#utility.yul\":1010:1022   */\n      revert\n        /* \"#utility.yul\":972:1024   */\n    tag_68:\n        /* \"#utility.yul\":1043:1071   */\n      tag_66\n        /* \"#utility.yul\":1061:1070   */\n      dup3\n        /* \"#utility.yul\":1043:1071   */\n      tag_53\n      jump\t// in\n\n    auxdata: 0xa2646970667358221220c043b5eaeb9a3976b2c551dd25a85a11059761c0d9f0da17b025e2d3c5f6c53c64736f6c63430008190033\n}\n",
				"bytecode": {
					"linkReferences": {},
					"object": "60a0604052348015600e575f80fd5b5033608052601a5f601e565b6096565b60246035565b5f805160206104ca83398151915255565b6080516001600160a01b0316336001600160a01b031614158015607857505f805160206104ca833981519152546001600160a01b0316336001600160a01b031614155b156094576040516282b42960e81b815260040160405180910390fd5b565b6080516104156100b55f395f81816101c7015261029101526104155ff3fe60806040526004361061005d575f3560e01c80638376284c116100425780638376284c14610133578063c27bddba14610183578063f851a440146101b657610064565b80630a68c59f146100f5578063545323ff1461011457610064565b3661006457005b5f80357fffffffff00000000000000000000000000000000000000000000000000000000168152602081905260409020546001600160a01b0316806100d5576040517fdb2079c300000000000000000000000000000000000000000000000000000000815260040160405180910390fd5b365f80375f80365f845af43d5f803e8080156100ef573d5ff35b3d5ffd5b005b348015610100575f80fd5b506100f361010f366004610375565b6101e9565b34801561011f575f80fd5b506100f361012e3660046103a6565b61025a565b34801561013e575f80fd5b5061016761014d3660046103c6565b5f602081905290815260409020546001600160a01b031681565b6040516001600160a01b03909116815260200160405180910390f35b34801561018e575f80fd5b507f93caa8b49eae9c3c8dcf926991d37c523a5f666b25234b239367f1842c633b2454610167565b3480156101c1575f80fd5b506101677f000000000000000000000000000000000000000000000000000000000000000081565b6101f1610286565b7fffffffff00000000000000000000000000000000000000000000000000000000919091165f90815260208190526040902080547fffffffffffffffffffffffff0000000000000000000000000000000000000000166001600160a01b03909216919091179055565b610262610286565b7f93caa8b49eae9c3c8dcf926991d37c523a5f666b25234b239367f1842c633b2455565b336001600160a01b037f000000000000000000000000000000000000000000000000000000000000000016148015906102f257507f93caa8b49eae9c3c8dcf926991d37c523a5f666b25234b239367f1842c633b24546001600160a01b0316336001600160a01b031614155b15610329576040517f82b4290000000000000000000000000000000000000000000000000000000000815260040160405180910390fd5b565b80357fffffffff000000000000000000000000000000000000000000000000000000008116811461035a575f80fd5b919050565b80356001600160a01b038116811461035a575f80fd5b5f8060408385031215610386575f80fd5b61038f8361032b565b915061039d6020840161035f565b90509250929050565b5f602082840312156103b6575f80fd5b6103bf8261035f565b9392505050565b5f602082840312156103d6575f80fd5b6103bf8261032b56fea2646970667358221220c043b5eaeb9a3976b2c551dd25a85a11059761c0d9f0da17b025e2d3c5f6c53c64736f6c6343000819003393caa8b49eae9c3c8dcf926991d37c523a5f666b25234b239367f1842c633b24",
					"opcodes": "PUSH1 0xA0 PUSH1 0x40 MSTORE CALLVALUE DUP1 ISZERO PUSH1 0xE JUMPI PUSH0 DUP1 REVERT JUMPDEST POP CALLER PUSH1 0x80 MSTORE PUSH1 0x1A PUSH0 PUSH1 0x1E JUMP JUMPDEST PUSH1 0x96 JUMP JUMPDEST PUSH1 0x24 PUSH1 0x35 JUMP JUMPDEST PUSH0 DUP1 MLOAD PUSH1 0x20 PUSH2 0x4CA DUP4 CODECOPY DUP2 MLOAD SWAP2 MSTORE SSTORE JUMP JUMPDEST PUSH1 0x80 MLOAD PUSH1 0x1 PUSH1 0x1 PUSH1 0xA0 SHL SUB AND CALLER PUSH1 0x1 PUSH1 0x1 PUSH1 0xA0 SHL SUB AND EQ ISZERO DUP1 ISZERO PUSH1 0x78 JUMPI POP PUSH0 DUP1 MLOAD PUSH1 0x20 PUSH2 0x4CA DUP4 CODECOPY DUP2 MLOAD SWAP2 MSTORE SLOAD PUSH1 0x1 PUSH1 0x1 PUSH1 0xA0 SHL SUB AND CALLER PUSH1 0x1 PUSH1 0x1 PUSH1 0xA0 SHL SUB AND EQ ISZERO JUMPDEST ISZERO PUSH1 0x94 JUMPI PUSH1 0x40 MLOAD PUSH3 0x82B429 PUSH1 0xE8 SHL DUP2 MSTORE PUSH1 0x4 ADD PUSH1 0x40 MLOAD DUP1 SWAP2 SUB SWAP1 REVERT JUMPDEST JUMP JUMPDEST PUSH1 0x80 MLOAD PUSH2 0x415 PUSH2 0xB5 PUSH0 CODECOPY PUSH0 DUP2 DUP2 PUSH2 0x1C7 ADD MSTORE PUSH2 0x291 ADD MSTORE PUSH2 0x415 PUSH0 RETURN INVALID PUSH1 0x80 PUSH1 0x40 MSTORE PUSH1 0x4 CALLDATASIZE LT PUSH2 0x5D JUMPI PUSH0 CALLDATALOAD PUSH1 0xE0 SHR DUP1 PUSH4 0x8376284C GT PUSH2 0x42 JUMPI DUP1 PUSH4 0x8376284C EQ PUSH2 0x133 JUMPI DUP1 PUSH4 0xC27BDDBA EQ PUSH2 0x183 JUMPI DUP1 PUSH4 0xF851A440 EQ PUSH2 0x1B6 JUMPI PUSH2 0x64 JUMP JUMPDEST DUP1 PUSH4 0xA68C59F EQ PUSH2 0xF5 JUMPI DUP1 PUSH4 0x545323FF EQ PUSH2 0x114 JUMPI PUSH2 0x64 JUMP JUMPDEST CALLDATASIZE PUSH2 0x64 JUMPI STOP JUMPDEST PUSH0 DUP1 CALLDATALOAD PUSH32 0xFFFFFFFF00000000000000000000000000000000000000000000000000000000 AND DUP2 MSTORE PUSH1 0x20 DUP2 SWAP1 MSTORE PUSH1 0x40 SWAP1 KECCAK256 SLOAD PUSH1 0x1 PUSH1 0x1 PUSH1 0xA0 SHL SUB AND DUP1 PUSH2 0xD5 JUMPI PUSH1 0x40 MLOAD PUSH32 0xDB2079C300000000000000000000000000000000000000000000000000000000 DUP2 MSTORE PUSH1 0x4 ADD PUSH1 0x40 MLOAD DUP1 SWAP2 SUB SWAP1 REVERT JUMPDEST CALLDATASIZE PUSH0 DUP1 CALLDATACOPY PUSH0 DUP1 CALLDATASIZE PUSH0 DUP5 GAS DELEGATECALL RETURNDATASIZE PUSH0 DUP1 RETURNDATACOPY DUP1 DUP1 ISZERO PUSH2 0xEF JUMPI RETURNDATASIZE PUSH0 RETURN JUMPDEST RETURNDATASIZE PUSH0 REVERT JUMPDEST STOP JUMPDEST CALLVALUE DUP1 ISZERO PUSH2 0x100 JUMPI PUSH0 DUP1 REVERT JUMPDEST POP PUSH2 0xF3 PUSH2 0x10F CALLDATASIZE PUSH1 0x4 PUSH2 0x375 JUMP JUMPDEST PUSH2 0x1E9 JUMP JUMPDEST CALLVALUE DUP1 ISZERO PUSH2 0x11F JUMPI PUSH0 DUP1 REVERT JUMPDEST POP PUSH2 0xF3 PUSH2 0x12E CALLDATASIZE PUSH1 0x4 PUSH2 0x3A6 JUMP JUMPDEST PUSH2 0x25A JUMP JUMPDEST CALLVALUE DUP1 ISZERO PUSH2 0x13E JUMPI PUSH0 DUP1 REVERT JUMPDEST POP PUSH2 0x167 PUSH2 0x14D CALLDATASIZE PUSH1 0x4 PUSH2 0x3C6 JUMP JUMPDEST PUSH0 PUSH1 0x20 DUP2 SWAP1 MSTORE SWAP1 DUP2 MSTORE PUSH1 0x40 SWAP1 KECCAK256 SLOAD PUSH1 0x1 PUSH1 0x1 PUSH1 0xA0 SHL SUB AND DUP2 JUMP JUMPDEST PUSH1 0x40 MLOAD PUSH1 0x1 PUSH1 0x1 PUSH1 0xA0 SHL SUB SWAP1 SWAP2 AND DUP2 MSTORE PUSH1 0x20 ADD PUSH1 0x40 MLOAD DUP1 SWAP2 SUB SWAP1 RETURN JUMPDEST CALLVALUE DUP1 ISZERO PUSH2 0x18E JUMPI PUSH0 DUP1 REVERT JUMPDEST POP PUSH32 0x93CAA8B49EAE9C3C8DCF926991D37C523A5F666B25234B239367F1842C633B24 SLOAD PUSH2 0x167 JUMP JUMPDEST CALLVALUE DUP1 ISZERO PUSH2 0x1C1 JUMPI PUSH0 DUP1 REVERT JUMPDEST POP PUSH2 0x167 PUSH32 0x0 DUP2 JUMP JUMPDEST PUSH2 0x1F1 PUSH2 0x286 JUMP JUMPDEST PUSH32 0xFFFFFFFF00000000000000000000000000000000000000000000000000000000 SWAP2 SWAP1 SWAP2 AND PUSH0 SWAP1 DUP2 MSTORE PUSH1 0x20 DUP2 SWAP1 MSTORE PUSH1 0x40 SWAP1 KECCAK256 DUP1 SLOAD PUSH32 0xFFFFFFFFFFFFFFFFFFFFFFFF0000000000000000000000000000000000000000 AND PUSH1 0x1 PUSH1 0x1 PUSH1 0xA0 SHL SUB SWAP1 SWAP3 AND SWAP2 SWAP1 SWAP2 OR SWAP1 SSTORE JUMP JUMPDEST PUSH2 0x262 PUSH2 0x286 JUMP JUMPDEST PUSH32 0x93CAA8B49EAE9C3C8DCF926991D37C523A5F666B25234B239367F1842C633B24 SSTORE JUMP JUMPDEST CALLER PUSH1 0x1 PUSH1 0x1 PUSH1 0xA0 SHL SUB PUSH32 0x0 AND EQ DUP1 ISZERO SWAP1 PUSH2 0x2F2 JUMPI POP PUSH32 0x93CAA8B49EAE9C3C8DCF926991D37C523A5F666B25234B239367F1842C633B24 SLOAD PUSH1 0x1 PUSH1 0x1 PUSH1 0xA0 SHL SUB AND CALLER PUSH1 0x1 PUSH1 0x1 PUSH1 0xA0 SHL SUB AND EQ ISZERO JUMPDEST ISZERO PUSH2 0x329 JUMPI PUSH1 0x40 MLOAD PUSH32 0x82B4290000000000000000000000000000000000000000000000000000000000 DUP2 MSTORE PUSH1 0x4 ADD PUSH1 0x40 MLOAD DUP1 SWAP2 SUB SWAP1 REVERT JUMPDEST JUMP JUMPDEST DUP1 CALLDATALOAD PUSH32 0xFFFFFFFF00000000000000000000000000000000000000000000000000000000 DUP2 AND DUP2 EQ PUSH2 0x35A JUMPI PUSH0 DUP1 REVERT JUMPDEST SWAP2 SWAP1 POP JUMP JUMPDEST DUP1 CALLDATALOAD PUSH1 0x1 PUSH1 0x1 PUSH1 0xA0 SHL SUB DUP2 AND DUP2 EQ PUSH2 0x35A JUMPI PUSH0 DUP1 REVERT JUMPDEST PUSH0 DUP1 PUSH1 0x40 DUP4 DUP6 SUB SLT ISZERO PUSH2 0x386 JUMPI PUSH0 DUP1 REVERT JUMPDEST PUSH2 0x38F DUP4 PUSH2 0x32B JUMP JUMPDEST SWAP2 POP PUSH2 0x39D PUSH1 0x20 DUP5 ADD PUSH2 0x35F JUMP JUMPDEST SWAP1 POP SWAP3 POP SWAP3 SWAP1 POP JUMP JUMPDEST PUSH0 PUSH1 0x20 DUP3 DUP5 SUB SLT ISZERO PUSH2 0x3B6 JUMPI PUSH0 DUP1 REVERT JUMPDEST PUSH2 0x3BF DUP3 PUSH2 0x35F JUMP JUMPDEST SWAP4 SWAP3 POP POP POP JUMP JUMPDEST PUSH0 PUSH1 0x20 DUP3 DUP5 SUB SLT ISZERO PUSH2 0x3D6 JUMPI PUSH0 DUP1 REVERT JUMPDEST PUSH2 0x3BF DUP3 PUSH2 0x32B JUMP INVALID LOG2 PUSH5 0x6970667358 0x22 SLT KECCAK256 0xC0 NUMBER 0xB5 0xEA 0xEB SWAP11 CODECOPY PUSH23 0xB2C551DD25A85A11059761C0D9F0DA17B025E2D3C5F6C5 EXTCODECOPY PUSH5 0x736F6C6343 STOP ADDMOD NOT STOP CALLER SWAP4 0xCA 0xA8 0xB4 SWAP15 0xAE SWAP13 EXTCODECOPY DUP14 0xCF SWAP3 PUSH10 0x91D37C523A5F666B2523 0x4B 0x23 SWAP4 PUSH8 0xF1842C633B240000 "
				},
				"gasEstimates": {
					"creation": {
						"codeDepositCost": "209000",
						"executionCost": "infinite",
						"totalCost": "infinite"
					},
					"external": {
						"": "infinite",
						"admin()": "infinite",
						"facets(bytes4)": "2534",
						"getDiamondCutFacet()": "2322",
						"setDiamondCutFacet(address)": "infinite",
						"updateFacet(bytes4,address)": "infinite"
					},
					"internal": {
						"_checkAuthorized()": "infinite"
					}
				},
				"methodIdentifiers": {
					"admin()": "f851a440",
					"facets(bytes4)": "8376284c",
					"getDiamondCutFacet()": "c27bddba",
					"setDiamondCutFacet(address)": "545323ff",
					"updateFacet(bytes4,address)": "0a68c59f"
				}
			},
			"storageLayout": {
				"storage": [
					{
						"astId": 10,
						"contract": "contracts/ContractT/DiamondProxy.sol:DiamondProxy",
						"label": "facets",
						"offset": 0,
						"slot": "0",
						"type": "t_mapping(t_bytes4,t_address)"
					}
				],
				"types": {
					"t_address": {
						"encoding": "inplace",
						"label": "address",
						"numberOfBytes": "20"
					},
					"t_bytes4": {
						"encoding": "inplace",
						"label": "bytes4",
						"numberOfBytes": "4"
					},
					"t_mapping(t_bytes4,t_address)": {
						"encoding": "mapping",
						"key": "t_bytes4",
						"label": "mapping(bytes4 => address)",
						"numberOfBytes": "32",
						"value": "t_address"
					}
				}
			},
			"userdoc": {
				"kind": "user",
				"methods": {},
				"version": 1
			}
		}
	}
}