{
	"contracts/ContractT/ContractTV3.sol": {
		"ContractTV3": {
			"abi": [
				{
					"inputs": [],
					"stateMutability": "nonpayable",
					"type": "constructor"
				},
				{
					"inputs": [],
					"name": "NotAdmin",
					"type": "error"
				},
				{
					"inputs": [],
					"name": "getCount",
					"outputs": [
						{
							"internalType": "uint256",
							"name": "",
							"type": "uint256"
						}
					],
					"stateMutability": "view",
					"type": "function"
				},
				{
					"inputs": [],
					"name": "increment",
					"outputs": [],
					"stateMutability": "nonpayable",
					"type": "function"
				},
				{
					"inputs": [
						{
							"internalType": "address",
							"name": "newImplementation",
							"type": "address"
						}
					],
					"name": "upgrade",
					"outputs": [],
					"stateMutability": "nonpayable",
					"type": "function"
				}
			],
			"devdoc": {
				"kind": "dev",
				"methods": {},
				"version": 1
			},
			"evm": {
				"assembly": "    /* \"contracts/ContractT/ContractTV3.sol\":63:1153  contract ContractTV3 {... */\n  mstore(0x40, 0xa0)\n    /* \"contracts/ContractT/ContractTV3.sol\":297:348  constructor() {... */\n  callvalue\n  dup1\n  iszero\n  tag_1\n  jumpi\n  0x00\n  dup1\n  revert\ntag_1:\n  pop\n    /* \"contracts/ContractT/ContractTV3.sol\":330:340  msg.sender */\n  caller\n    /* \"contracts/ContractT/ContractTV3.sol\":322:340  admin = msg.sender */\n  0x80\n  mstore\n    /* \"contracts/ContractT/ContractTV3.sol\":63:1153  contract ContractTV3 {... */\n  mload(0x80)\n  codecopy(0x00, dataOffset(sub_0), dataSize(sub_0))\n  0x00\n  assignImmutable(\"0x2a80e1ef1d7842f27f2e6be0972bb708b9a135c38860dbe73c27c3486c34f4de\")\n  return(0x00, dataSize(sub_0))\nstop\n\nsub_0: assembly {\n        /* \"contracts/ContractT/ContractTV3.sol\":63:1153  contract ContractTV3 {... */\n      mstore(0x40, 0x80)\n      callvalue\n      dup1\n      iszero\n      tag_1\n      jumpi\n      0x00\n      dup1\n      revert\n    tag_1:\n      pop\n      jumpi(tag_2, lt(calldatasize, 0x04))\n      shr(0xe0, calldataload(0x00))\n      dup1\n      0x0900f010\n      eq\n      tag_3\n      jumpi\n      dup1\n      0xa87d942c\n      eq\n      tag_4\n      jumpi\n      dup1\n      0xd09de08a\n      eq\n      tag_5\n      jumpi\n    tag_2:\n      0x00\n      dup1\n      revert\n        /* \"contracts/ContractT/ContractTV3.sol\":429:546  function upgrade(address newImplementation) public onlyAdmin {... */\n    tag_3:\n      tag_6\n      tag_7\n      calldatasize\n      0x04\n      tag_8\n      jump\t// in\n    tag_7:\n      tag_9\n      jump\t// in\n    tag_6:\n      stop\n        /* \"contracts/ContractT/ContractTV3.sol\":619:700  function getCount() public view returns (uint256) {... */\n    tag_4:\n        /* \"contracts/ContractT/ContractTV3.sol\":660:667  uint256 */\n      0x00\n        /* \"contracts/ContractT/ContractTV3.sol\":687:692  count */\n      sload\n        /* \"contracts/ContractT/ContractTV3.sol\":619:700  function getCount() public view returns (uint256) {... */\n      mload(0x40)\n        /* \"#utility.yul\":474:499   */\n      swap1\n      dup2\n      mstore\n        /* \"#utility.yul\":462:464   */\n      0x20\n        /* \"#utility.yul\":447:465   */\n      add\n        /* \"contracts/ContractT/ContractTV3.sol\":619:700  function getCount() public view returns (uint256) {... */\n      mload(0x40)\n      dup1\n      swap2\n      sub\n      swap1\n      return\n        /* \"contracts/ContractT/ContractTV3.sol\":554:611  function increment() public {... */\n    tag_5:\n      tag_6\n      tag_15\n      jump\t// in\n        /* \"contracts/ContractT/ContractTV3.sol\":429:546  function upgrade(address newImplementation) public onlyAdmin {... */\n    tag_9:\n        /* \"contracts/ContractT/ContractTV3.sol\":388:401  _checkAdmin() */\n      tag_17\n        /* \"contracts/ContractT/ContractTV3.sol\":388:399  _checkAdmin */\n      tag_18\n        /* \"contracts/ContractT/ContractTV3.sol\":388:401  _checkAdmin() */\n      jump\t// in\n    tag_17:\n        /* \"contracts/ContractT/ContractTV3.sol\":501:538  _setImplementation(newImplementation) */\n      tag_20\n        /* \"contracts/ContractT/ContractTV3.sol\":520:537  newImplementation */\n      dup2\n        /* \"contracts/ContractT/ContractTV3.sol\":910:976  0xc9f6ead2bbe8230e30f7cb88f9886a9298621e2a962ffe313c3ae99d68652039 */\n      0xc9f6ead2bbe8230e30f7cb88f9886a9298621e2a962ffe313c3ae99d68652039\n        /* \"contracts/ContractT/ContractTV3.sol\":807:1027  sstore(... */\n      sstore\n        /* \"contracts/ContractT/ContractTV3.sol\":708:1045  function _setImplementation(address newImplementation) internal {... */\n      jump\n        /* \"contracts/ContractT/ContractTV3.sol\":501:538  _setImplementation(newImplementation) */\n    tag_20:\n        /* \"contracts/ContractT/ContractTV3.sol\":429:546  function upgrade(address newImplementation) public onlyAdmin {... */\n      pop\n      jump\t// out\n        /* \"contracts/ContractT/ContractTV3.sol\":554:611  function increment() public {... */\n    tag_15:\n        /* \"contracts/ContractT/ContractTV3.sol\":602:603  1 */\n      0x01\n        /* \"contracts/ContractT/ContractTV3.sol\":593:598  count */\n      0x00\n      dup1\n        /* \"contracts/ContractT/ContractTV3.sol\":593:603  count += 1 */\n      dup3\n      dup3\n      sload\n      tag_24\n      swap2\n      swap1\n      tag_25\n      jump\t// in\n    tag_24:\n      swap1\n      swap2\n      sstore\n      pop\n      pop\n        /* \"contracts/ContractT/ContractTV3.sol\":554:611  function increment() public {... */\n      jump\t// out\n        /* \"contracts/ContractT/ContractTV3.sol\":1053:1150  function _checkAdmin() private view {... */\n    tag_18:\n        /* \"contracts/ContractT/ContractTV3.sol\":1104:1114  msg.sender */\n      caller\n        /* \"contracts/ContractT/ContractTV3.sol\":1104:1123  msg.sender != admin */\n      0xffffffffffffffffffffffffffffffffffffffff\n        /* \"contracts/ContractT/ContractTV3.sol\":1118:1123  admin */\n      immutable(\"0x2a80e1ef1d7842f27f2e6be0972bb708b9a135c38860dbe73c27c3486c34f4de\")\n        /* \"contracts/ContractT/ContractTV3.sol\":1104:1123  msg.sender != admin */\n      and\n      eq\n        /* \"contracts/ContractT/ContractTV3.sol\":1100:1142  if (msg.sender != admin) revert NotAdmin() */\n      tag_27\n      jumpi\n        /* \"contracts/ContractT/ContractTV3.sol\":1132:1142  NotAdmin() */\n      mload(0x40)\n      0x7bfa4b9f00000000000000000000000000000000000000000000000000000000\n      dup2\n      mstore\n      0x04\n      add\n      mload(0x40)\n      dup1\n      swap2\n      sub\n      swap1\n      revert\n        /* \"contracts/ContractT/ContractTV3.sol\":1100:1142  if (msg.sender != admin) revert NotAdmin() */\n    tag_27:\n        /* \"contracts/ContractT/ContractTV3.sol\":1053:1150  function _checkAdmin() private view {... */\n      jump\t// out\n        /* \"#utility.yul\":14:323   */\n    tag_8:\n        /* \"#utility.yul\":73:79   */\n      0x00\n        /* \"#utility.yul\":126:128   */\n      0x20\n        /* \"#utility.yul\":114:123   */\n      dup3\n        /* \"#utility.yul\":105:112   */\n      dup5\n        /* \"#utility.yul\":101:124   */\n      sub\n        /* \"#utility.yul\":97:129   */\n      slt\n        /* \"#utility.yul\":94:146   */\n      iszero\n      tag_31\n      jumpi\n        /* \"#utility.yul\":142:143   */\n      0x00\n        /* \"#utility.yul\":139:140   */\n      dup1\n        /* \"#utility.yul\":132:144   */\n      revert\n        /* \"#utility.yul\":94:146   */\n    tag_31:\n        /* \"#utility.yul\":181:190   */\n      dup2\n        /* \"#utility.yul\":168:191   */\n      calldataload\n        /* \"#utility.yul\":231:273   */\n      0xffffffffffffffffffffffffffffffffffffffff\n        /* \"#utility.yul\":224:229   */\n      dup2\n        /* \"#utility.yul\":220:274   */\n      and\n        /* \"#utility.yul\":213:218   */\n      dup2\n        /* \"#utility.yul\":210:275   */\n      eq\n        /* \"#utility.yul\":200:293   */\n      tag_32\n      jumpi\n        /* \"#utility.yul\":289:290   */\n      0x00\n        /* \"#utility.yul\":286:287   */\n      dup1\n        /* \"#utility.yul\":279:291   */\n      revert\n        /* \"#utility.yul\":200:293   */\n    tag_32:\n        /* \"#utility.yul\":312:317   */\n      swap4\n        /* \"#utility.yul\":14:323   */\n      swap3\n      pop\n      pop\n      pop\n      jump\t// out\n        /* \"#utility.yul\":510:789   */\n    tag_25:\n        /* \"#utility.yul\":575:584   */\n      dup1\n      dup3\n      add\n        /* \"#utility.yul\":596:606   */\n      dup1\n      dup3\n      gt\n        /* \"#utility.yul\":593:783   */\n      iszero\n      tag_35\n      jumpi\n        /* \"#utility.yul\":639:716   */\n      0x4e487b7100000000000000000000000000000000000000000000000000000000\n        /* \"#utility.yul\":636:637   */\n      0x00\n        /* \"#utility.yul\":629:717   */\n      mstore\n        /* \"#utility.yul\":740:744   */\n      0x11\n        /* \"#utility.yul\":737:738   */\n      0x04\n        /* \"#utility.yul\":730:745   */\n      mstore\n        /* \"#utility.yul\":768:772   */\n      0x24\n        /* \"#utility.yul\":765:766   */\n      0x00\n        /* \"#utility.yul\":758:773   */\n      revert\n        /* \"#utility.yul\":593:783   */\n    tag_35:\n        /* \"#utility.yul\":510:789   */\n      swap3\n      swap2\n      pop\n      pop\n      jump\t// out\n\n    auxdata: 0xa2646970667358221220444f27afd8a7bde41dc7bfd53e48c8cd6681dcc0544e6dc3ade6fb5b49f7761664736f6c63430008190033\n}\n",
				"bytecode": {
					"linkReferences": {},
					"object": "60a0604052348015600e575f80fd5b50336080526080516101de61002a5f395f60d701526101de5ff3fe608060405234801561000f575f80fd5b506004361061003f575f3560e01c80630900f01014610043578063a87d942c14610058578063d09de08a1461006c575b5f80fd5b610056610051366004610130565b610074565b005b5f5460405190815260200160405180910390f35b6100566100a7565b61007c6100bf565b6100a4817fc9f6ead2bbe8230e30f7cb88f9886a9298621e2a962ffe313c3ae99d6865203955565b50565b60015f808282546100b8919061016a565b9091555050565b3373ffffffffffffffffffffffffffffffffffffffff7f0000000000000000000000000000000000000000000000000000000000000000161461012e576040517f7bfa4b9f00000000000000000000000000000000000000000000000000000000815260040160405180910390fd5b565b5f60208284031215610140575f80fd5b813573ffffffffffffffffffffffffffffffffffffffff81168114610163575f80fd5b9392505050565b808201808211156101a2577f4e487b71000000000000000000000000000000000000000000000000000000005f52601160045260245ffd5b9291505056fea2646970667358221220444f27afd8a7bde41dc7bfd53e48c8cd6681dcc0544e6dc3ade6fb5b49f7761664736f6c63430008190033",
					"opcodes": "PUSH1 0xA0 PUSH1 0x40 MSTORE CALLVALUE DUP1 ISZERO PUSH1 0xE JUMPI PUSH0 DUP1 REVERT JUMPDEST POP CALLER PUSH1 0x80 MSTORE PUSH1 0x80 MLOAD PUSH2 0x1DE PUSH2 0x2A PUSH0 CODECOPY PUSH0 PUSH1 0xD7 ADD MSTORE PUSH2 0x1DE PUSH0 RETURN INVALID PUSH1 0x80 PUSH1 0x40 MSTORE CALLVALUE DUP1 ISZERO PUSH2 0xF JUMPI PUSH0 DUP1 REVERT JUMPDEST POP PUSH1 0x4 CALLDATASIZE LT PUSH2 0x3F JUMPI PUSH0 CALLDATALOAD PUSH1 0xE0 SHR DUP1 PUSH4 0x900F010 EQ PUSH2 0x43 JUMPI DUP1 PUSH4 0xA87D942C EQ PUSH2 0x58 JUMPI DUP1 PUSH4 0xD09DE08A EQ PUSH2 0x6C JUMPI JUMPDEST PUSH0 DUP1 REVERT JUMPDEST PUSH2 0x56 PUSH2 0x51 CALLDATASIZE PUSH1 0x4 PUSH2 0x130 JUMP JUMPDEST PUSH2 0x74 JUMP JUMPDEST STOP JUMPDEST PUSH0 SLOAD PUSH1 0x40 MLOAD SWAP1 DUP2 MSTORE PUSH1 0x20 ADD PUSH1 0x40 MLOAD DUP1 SWAP2 SUB SWAP1 RETURN JUMPDEST PUSH2 0x56 PUSH2 0xA7 JUMP JUMPDEST PUSH2 0x7C PUSH2 0xBF JUMP JUMPDEST PUSH2 0xA4 DUP2 PUSH32 0xC9F6EAD2BBE8230E30F7CB88F9886A9298621E2A962FFE313C3AE99D68652039 SSTORE JUMP JUMPDEST POP JUMP JUMPDEST PUSH1 0x1 PUSH0 DUP1 DUP3 DUP3 SLOAD PUSH2 0xB8 SWAP2 SWAP1 PUSH2 0x16A JUMP JUMPDEST SWAP1 SWAP2 SSTORE POP POP JUMP JUMPDEST CALLER PUSH20 0xFFFFFFFFFFFFFFFFFFFFFFFFFFFFFFFFFFFFFFFF PUSH32 0x0 AND EQ PUSH2 0x12E JUMPI PUSH1 0x40 MLOAD PUSH32 0x7BFA4B9F00000000000000000000000000000000000000000000000000000000 DUP2 MSTORE PUSH1 0x4 ADD PUSH1 0x40 MLOAD DUP1 SWAP2 SUB SWAP1 REVERT JUMPDEST JUMP JUMPDEST PUSH0 PUSH1 0x20 DUP3 DUP5 SUB SLT ISZERO PUSH2 0x140 JUMPI PUSH0 DUP1 REVERT JUMPDEST DUP2 CALLDATALOAD PUSH20 0xFFFFFFFFFFFFFFFFFFFFFFFFFFFFFFFFFFFFFFFF DUP2 AND DUP2 EQ PUSH2 0x163 JUMPI PUSH0 DUP1 REVERT JUMPDEST SWAP4 SWAP3 POP POP POP JUMP JUMPDEST DUP1 DUP3 ADD DUP1 DUP3 GT ISZERO PUSH2 0x1A2 JUMPI PUSH32 0x4E487B7100000000000000000000000000000000000000000000000000000000 PUSH0 MSTORE PUSH1 0x11 PUSH1 0x4 MSTORE PUSH1 0x24 PUSH0 REVERT JUMPDEST SWAP3 SWAP2 POP POP JUMP INVALID LOG2 PUSH5 0x6970667358 0x22 SLT KECCAK256 PREVRANDAO 0x4F 0x27 0xAF 0xD8 0xA7 0xBD 0xE4 SAR 0xC7 0xBF 0xD5 RETURNDATACOPY BASEFEE 0xC8 0xCD PUSH7 0x81DCC0544E6DC3 0xAD 0xE6 0xFB JUMPDEST BLOBHASH 0xF7 PUSH23 0x1664736F6C634300081900330000000000000000000000 "
				},
				"gasEstimates": {
					"creation": {
						"codeDepositCost": "95600",
						"executionCost": "infinite",
						"totalCost": "infinite"
					},
					"external": {
						"getCount()": "2266",
						"increment()": "24464",
						"upgrade(address)": "infinite"
					},
					"internal": {
						"_checkAdmin()": "infinite",
						"_setImplementation(address)": "infinite"
					}
				},
				"methodIdentifiers": {
					"getCount()": "a87d942c",
					"increment()": "d09de08a",
					"upgrade(address)": "0900f010"
				}
			},
			"storageLayout": {
				"storage": [
					{
						"astId": 5,
						"contract": "contracts/ContractT/ContractTV3.sol:ContractTV3",
						"label": "count",
						"offset": 0,
						"slot": "0",
						"type": "t_uint256"
					}
				],
				"types": {
					"t_uint256": {
						"encoding": "inplace",
						"label": "uint256",
						"numberOfBytes": "32"
					}
				}
			},
			"userdoc": {
				"kind": "user",
				"methods": {},
				"version": 1
			}
		}
	}
}