{
	"contracts/ContractT/ContractTV5.sol": {
		"ContractTV5": {
			"abi": [
				{
					"inputs": [],
					"name": "getCount",
					"outputs": [
						{
							"internalType": "uint256",
							"name": "",
							"type": "uint256"
						}
					],
					"stateMutability": "view",
					"type": "function"
				},
				{
					"inputs": [],
					"name": "increment",
					"outputs": [],
					"stateMutability": "nonpayable",
					"type": "function"
				}
			],
			"devdoc": {
				"kind": "dev",
				"methods": {},
				"version": 1
			},
			"evm": {
				"assembly": "    /* \"contracts/ContractT/ContractTV5.sol\":63:270  contract ContractTV5 {... */\n  mstore(0x40, 0x80)\n  callvalue\n  dup1\n  iszero\n  tag_1\n  jumpi\n  0x00\n  dup1\n  revert\ntag_1:\n  pop\n  dataSize(sub_0)\n  dup1\n  dataOffset(sub_0)\n  0x00\n  codecopy\n  0x00\n  return\nstop\n\nsub_0: assembly {\n        /* \"contracts/ContractT/ContractTV5.sol\":63:270  contract ContractTV5 {... */\n      mstore(0x40, 0x80)\n      callvalue\n      dup1\n      iszero\n      tag_1\n      jumpi\n      0x00\n      dup1\n      revert\n    tag_1:\n      pop\n      jumpi(tag_2, lt(calldatasize, 0x04))\n      shr(0xe0, calldataload(0x00))\n      dup1\n      0xa87d942c\n      eq\n      tag_3\n      jumpi\n      dup1\n      0xd09de08a\n      eq\n      tag_4\n      jumpi\n    tag_2:\n      0x00\n      dup1\n      revert\n        /* \"contracts/ContractT/ContractTV5.sol\":186:267  function getCount() public view returns (uint256) {... */\n    tag_3:\n        /* \"contracts/ContractT/ContractTV5.sol\":227:234  uint256 */\n      0x00\n        /* \"contracts/ContractT/ContractTV5.sol\":254:259  count */\n      sload\n        /* \"contracts/ContractT/ContractTV5.sol\":186:267  function getCount() public view returns (uint256) {... */\n      mload(0x40)\n        /* \"#utility.yul\":160:185   */\n      swap1\n      dup2\n      mstore\n        /* \"#utility.yul\":148:150   */\n      0x20\n        /* \"#utility.yul\":133:151   */\n      add\n        /* \"contracts/ContractT/ContractTV5.sol\":186:267  function getCount() public view returns (uint256) {... */\n      mload(0x40)\n      dup1\n      swap2\n      sub\n      swap1\n      return\n        /* \"contracts/ContractT/ContractTV5.sol\":121:178  function increment() public {... */\n    tag_4:\n      tag_9\n      tag_10\n      jump\t// in\n    tag_9:\n      stop\n    tag_10:\n        /* \"contracts/ContractT/ContractTV5.sol\":169:170  1 */\n      0x01\n        /* \"contracts/ContractT/ContractTV5.sol\":160:165  count */\n      0x00\n      dup1\n        /* \"contracts/ContractT/ContractTV5.sol\":160:170  count += 1 */\n      dup3\n      dup3\n      sload\n      tag_13\n      swap2\n      swap1\n      tag_14\n      jump\t// in\n    tag_13:\n      swap1\n      swap2\n      sstore\n      pop\n      pop\n        /* \"contracts/ContractT/ContractTV5.sol\":121:178  function increment() public {... */\n      jump\t// out\n        /* \"#utility.yul\":196:475   */\n    tag_14:\n        /* \"#utility.yul\":261:270   */\n      dup1\n      dup3\n      add\n        /* \"#utility.yul\":282:292   */\n      dup1\n      dup3\n      gt\n        /* \"#utility.yul\":279:469   */\n      iszero\n      tag_18\n      jumpi\n        /* \"#utility.yul\":325:402   */\n      0x4e487b7100000000000000000000000000000000000000000000000000000000\n        /* \"#utility.yul\":322:323   */\n      0x00\n        /* \"#utility.yul\":315:403   */\n      mstore\n        /* \"#utility.yul\":426:430   */\n      0x11\n        /* \"#utility.yul\":423:424   */\n      0x04\n        /* \"#utility.yul\":416:431   */\n      mstore\n        /* \"#utility.yul\":454:458   */\n      0x24\n        /* \"#utility.yul\":451:452   */\n      0x00\n        /* \"#utility.yul\":444:459   */\n      revert\n        /* \"#utility.yul\":279:469   */\n    tag_18:\n        /* \"#utility.yul\":196:475   */\n      swap3\n      swap2\n      pop\n      pop\n      jump\t// out\n\n    auxdata: 0xa2646970667358221220b953e0d56d1e95ddffbe6442f840d4fd39737808d7ea760822681df25356242164736f6c63430008190033\n}\n",
				"bytecode": {
					"linkReferences": {},
					"object": "6080604052348015600e575f80fd5b5060d980601a5f395ff3fe6080604052348015600e575f80fd5b50600436106030575f3560e01c8063a87d942c146034578063d09de08a146048575b5f80fd5b5f5460405190815260200160405180910390f35b604e6050565b005b60015f80828254605f91906066565b9091555050565b80820180821115609d577f4e487b71000000000000000000000000000000000000000000000000000000005f52601160045260245ffd5b9291505056fea2646970667358221220b953e0d56d1e95ddffbe6442f840d4fd39737808d7ea760822681df25356242164736f6c63430008190033",
					"opcodes": "PUSH1 0x80 PUSH1 0x40 MSTORE CALLVALUE DUP1 ISZERO PUSH1 0xE JUMPI PUSH0 DUP1 REVERT JUMPDEST POP PUSH1 0xD9 DUP1 PUSH1 0x1A PUSH0 CODECOPY PUSH0 RETURN INVALID PUSH1 0x80 PUSH1 0x40 MSTORE CALLVALUE DUP1 ISZERO PUSH1 0xE JUMPI PUSH0 DUP1 REVERT JUMPDEST POP PUSH1 0x4 CALLDATASIZE LT PUSH1 0x30 JUMPI PUSH0 CALLDATALOAD PUSH1 0xE0 SHR DUP1 PUSH4 0xA87D942C EQ PUSH1 0x34 JUMPI DUP1 PUSH4 0xD09DE08A EQ PUSH1 0x48 JUMPI JUMPDEST PUSH0 DUP1 REVERT JUMPDEST PUSH0 SLOAD PUSH1 0x40 MLOAD SWAP1 DUP2 MSTORE PUSH1 0x20 ADD PUSH1 0x40 MLOAD DUP1 SWAP2 SUB SWAP1 RETURN JUMPDEST PUSH1 0x4E PUSH1 0x50 JUMP JUMPDEST STOP JUMPDEST PUSH1 0x1 PUSH0 DUP1 DUP3 DUP3 SLOAD PUSH1 0x5F SWAP2 SWAP1 PUSH1 0x66 JUMP JUMPDEST SWAP1 SWAP2 SSTORE POP POP JUMP JUMPDEST DUP1 DUP3 ADD DUP1 DUP3 GT ISZERO PUSH1 0x9D JUMPI PUSH32 0x4E487B7100000000000000000000000000000000000000000000000000000000 PUSH0 MSTORE PUSH1 0x11 PUSH1 0x4 MSTORE PUSH1 0x24 PUSH0 REVERT JUMPDEST SWAP3 SWAP2 POP POP JUMP INVALID LOG2 PUSH5 0x6970667358 0x22 SLT KECCAK256 0xB9 MSTORE8 0xE0 0xD5 PUSH14 0x1E95DDFFBE6442F840D4FD397378 ADDMOD 0xD7 0xEA PUSH23 0x822681DF25356242164736F6C63430008190033000000 "
				},
				"gasEstimates": {
					"creation": {
						"codeDepositCost": "43400",
						"executionCost": "91",
						"totalCost": "43491"
					},
					"external": {
						"getCount()": "2244",
						"increment()": "24442"
					}
				},
				"methodIdentifiers": {
					"getCount()": "a87d942c",
					"increment()": "d09de08a"
				}
			},
			"storageLayout": {
				"storage": [
					{
						"astId": 3,
						"contract": "contracts/ContractT/ContractTV5.sol:ContractTV5",
						"label": "count",
						"offset": 0,
						"slot": "0",
						"type": "t_uint256"
					}
				],
				"types": {
					"t_uint256": {
						"encoding": "inplace",
						"label": "uint256",
						"numberOfBytes": "32"
					}
				}
			},
			"userdoc": {
				"kind": "user",
				"methods": {},
				"version": 1
			}
		}
	}
}