{
	"data": {
		"bytecode": {
			"linkReferences": {},
			"object": "6080604052348015600e575f80fd5b5061021c8061001c5f395ff3fe608060405234801561000f575f80fd5b506004361061003f575f3560e01c80638006f9b614610043578063e1ec3c6814610098578063ed7010c9146100f1575b5f80fd5b6100966100513660046101a0565b604080516080810182528581526020808201958652818301948552606082019384525f9687528690529420935184559151600184015551600283015551600390910155565b005b6100cc6100a63660046101cf565b5f6020819052908152604090208054600182015460028301546003909301549192909184565b6040805194855260208501939093529183015260608201526080015b60405180910390f35b6100f9610107565b6040519081526020016100e8565b5f80805b606481101561019a575f8181526020819052604090206001015415610192575f81815260208190526040812060010154905b5f83815260208190526040902060030154811015610178575f838152602081905260409020600201546064908302049091019060010161013d565b505f82815260208190526040902060010154900391909101905b60010161010b565b50919050565b5f805f80608085870312156101b3575f80fd5b5050823594602084013594506040840135936060013592509050565b5f602082840312156101df575f80fd5b503591905056fea264697066735822122083576e55e36793a6810ca53b7105bad70b16bd77077b146a8f4eee96027c80a164736f6c63430008190033",
			"opcodes": "PUSH1 0x80 PUSH1 0x40 MSTORE CALLVALUE DUP1 ISZERO PUSH1 0xE JUMPI PUSH0 DUP1 REVERT JUMPDEST POP PUSH2 0x21C DUP1 PUSH2 0x1C PUSH0 CODECOPY PUSH0 RETURN INVALID PUSH1 0x80 PUSH1 0x40 MSTORE CALLVALUE DUP1 ISZERO PUSH2 0xF JUMPI PUSH0 DUP1 REVERT JUMPDEST POP PUSH1 0x4 CALLDATASIZE LT PUSH2 0x3F JUMPI PUSH0 CALLDATALOAD PUSH1 0xE0 SHR DUP1 PUSH4 0x8006F9B6 EQ PUSH2 0x43 JUMPI DUP1 PUSH4 0xE1EC3C68 EQ PUSH2 0x98 JUMPI DUP1 PUSH4 0xED7010C9 EQ PUSH2 0xF1 JUMPI JUMPDEST PUSH0 DUP1 REVERT JUMPDEST PUSH2 0x96 PUSH2 0x51 CALLDATASIZE PUSH1 0x4 PUSH2 0x1A0 JUMP JUMPDEST PUSH1 0x40 DUP1 MLOAD PUSH1 0x80 DUP2 ADD DUP3 MSTORE DUP6 DUP2 MSTORE PUSH1 0x20 DUP1 DUP3 ADD SWAP6 DUP7 MSTORE DUP2 DUP4 ADD SWAP5 DUP6 MSTORE PUSH1 0x60 DUP3 ADD SWAP4 DUP5 MSTORE PUSH0 SWAP7 DUP8 MSTORE DUP7 SWAP1 MSTORE SWAP5 KECCAK256 SWAP4 MLOAD DUP5 SSTORE SWAP2 MLOAD PUSH1 0x1 DUP5 ADD SSTORE MLOAD PUSH1 0x2 DUP4 ADD SSTORE MLOAD PUSH1 0x3 SWAP1 SWAP2 ADD SSTORE JUMP JUMPDEST STOP JUMPDEST PUSH2 0xCC PUSH2 0xA6 CALLDATASIZE PUSH1 0x4 PUSH2 0x1CF JUMP JUMPDEST PUSH0 PUSH1 0x20 DUP2 SWAP1 MSTORE SWAP1 DUP2 MSTORE PUSH1 0x40 SWAP1 KECCAK256 DUP1 SLOAD PUSH1 0x1 DUP3 ADD SLOAD PUSH1 0x2 DUP4 ADD SLOAD PUSH1 0x3 SWAP1 SWAP4 ADD SLOAD SWAP2 SWAP3 SWAP1 SWAP2 DUP5 JUMP JUMPDEST PUSH1 0x40 DUP1 MLOAD SWAP5 DUP6 MSTORE PUSH1 0x20 DUP6 ADD SWAP4 SWAP1 SWAP4 MSTORE SWAP2 DUP4 ADD MSTORE PUSH1 0x60 DUP3 ADD MSTORE PUSH1 0x80 ADD JUMPDEST PUSH1 0x40 MLOAD DUP1 SWAP2 SUB SWAP1 RETURN JUMPDEST PUSH2 0xF9 PUSH2 0x107 JUMP JUMPDEST PUSH1 0x40 MLOAD SWAP1 DUP2 MSTORE PUSH1 0x20 ADD PUSH2 0xE8 JUMP JUMPDEST PUSH0 DUP1 DUP1 JUMPDEST PUSH1 0x64 DUP2 LT ISZERO PUSH2 0x19A JUMPI PUSH0 DUP2 DUP2 MSTORE PUSH1 0x20 DUP2 SWAP1 MSTORE PUSH1 0x40 SWAP1 KECCAK256 PUSH1 0x1 ADD SLOAD ISZERO PUSH2 0x192 JUMPI PUSH0 DUP2 DUP2 MSTORE PUSH1 0x20 DUP2 SWAP1 MSTORE PUSH1 0x40 DUP2 KECCAK256 PUSH1 0x1 ADD SLOAD SWAP1 JUMPDEST PUSH0 DUP4 DUP2 MSTORE PUSH1 0x20 DUP2 SWAP1 MSTORE PUSH1 0x40 SWAP1 KECCAK256 PUSH1 0x3 ADD SLOAD DUP2 LT ISZERO PUSH2 0x178 JUMPI PUSH0 DUP4 DUP2 MSTORE PUSH1 0x20 DUP2 SWAP1 MSTORE PUSH1 0x40 SWAP1 KECCAK256 PUSH1 0x2 ADD SLOAD PUSH1 0x64 SWAP1 DUP4 MUL DIV SWAP1 SWAP2 ADD SWAP1 PUSH1 0x1 ADD PUSH2 0x13D JUMP JUMPDEST POP PUSH0 DUP3 DUP2 MSTORE PUSH1 0x20 DUP2 SWAP1 MSTORE PUSH1 0x40 SWAP1 KECCAK256 PUSH1 0x1 ADD SLOAD SWAP1 SUB SWAP2 SWAP1 SWAP2 ADD SWAP1 JUMPDEST PUSH1 0x1 ADD PUSH2 0x10B JUMP JUMPDEST POP SWAP2 SWAP1 POP JUMP JUMPDEST PUSH0 DUP1 PUSH0 DUP1 PUSH1 0x80 DUP6 DUP8 SUB SLT ISZERO PUSH2 0x1B3 JUMPI PUSH0 DUP1 REVERT JUMPDEST POP POP DUP3 CALLDATALOAD SWAP5 PUSH1 0x20 DUP5 ADD CALLDATALOAD SWAP5 POP PUSH1 0x40 DUP5 ADD CALLDATALOAD SWAP4 PUSH1 0x60 ADD CALLDATALOAD SWAP3 POP SWAP1 POP JUMP JUMPDEST PUSH0 PUSH1 0x20 DUP3 DUP5 SUB SLT ISZERO PUSH2 0x1DF JUMPI PUSH0 DUP1 REVERT JUMPDEST POP CALLDATALOAD SWAP2 SWAP1 POP JUMP INVALID LOG2 PUSH5 0x6970667358 0x22 SLT KECCAK256 DUP4 JUMPI PUSH15 0x55E36793A6810CA53B7105BAD70B16 0xBD PUSH24 0x77B146A8F4EEE96027C80A164736F6C6343000819003300 "
		},
		"gasEstimates": {
			"creation": {
				"codeDepositCost": "108000",
				"executionCost": "151",
				"totalCost": "108151"
			},
			"external": {
				"calculateTotalInterest()": "infinite",
				"loans(uint256)": "8829",
				"setLoan(uint256,uint256,uint256,uint256)": "88865"
			}
		},
		"methodIdentifiers": {
			"calculateTotalInterest()": "ed7010c9",
			"loans(uint256)": "e1ec3c68",
			"setLoan(uint256,uint256,uint256,uint256)": "8006f9b6"
		}
	},
	"abi": [
		{
			"inputs": [],
			"name": "calculateTotalInterest",
			"outputs": [
				{
					"internalType": "uint256",
					"name": "totalInterest",
					"type": "uint256"
				}
			],
			"stateMutability": "view",
			"type": "function"
		},
		{
			"inputs": [
				{
					"internalType": "uint256",
					"name": "",
					"type": "uint256"
				}
			],
			"name": "loans",
			"outputs": [
				{
					"internalType": "uint256",
					"name": "id",
					"type": "uint256"
				},
				{
					"internalType": "uint256",
					"name": "principal",
					"type": "uint256"
				},
				{
					"internalType": "uint256",
					"name": "rate",
					"type": "uint256"
				},
				{
					"internalType": "uint256",
					"name": "time",
					"type": "uint256"
				}
			],
			"stateMutability": "view",
			"type": "function"
		},
		{
			"inputs": [
				{
					"internalType": "uint256",
					"name": "id",
					"type": "uint256"
				},
				{
					"internalType": "uint256",
					"name": "principal",
					"type": "uint256"
				},
				{
					"internalType": "uint256",
					"name": "rate",
					"type": "uint256"
				},
				{
					"internalType": "uint256",
					"name": "time",
					"type": "uint256"
				}
			],
			"name": "setLoan",
			"outputs": [],
			"stateMutability": "nonpayable",
			"type": "function"
		}
	]
}