{
	"data": {
		"bytecode": {
			"linkReferences": {},
			"object": "6080604052348015600e575f80fd5b506102bb8061001c5f395ff3fe608060405234801561000f575f80fd5b506004361061003f575f3560e01c80638006f9b614610043578063e1ec3c6814610098578063ed7010c9146100f1575b5f80fd5b6100966100513660046101c9565b604080516080810182528581526020808201958652818301948552606082019384525f9687528690529420935184559151600184015551600283015551600390910155565b005b6100cc6100a63660046101f8565b5f6020819052908152604090208054600182015460028301546003909301549192909184565b6040805194855260208501939093529183015260608201526080015b60405180910390f35b6100f9610107565b6040519081526020016100e8565b5f80805b60648110156101c3575f81815260208190526040902060010154156101bb575f81815260208190526040812060010154905b5f83815260208190526040902060030154811015610191575f838152602081905260409020600201546064906101739084610223565b61017d9190610240565b610187908361025f565b915060010161013d565b505f828152602081905260409020600101546101ad9082610272565b6101b7908461025f565b9250505b60010161010b565b50919050565b5f805f80608085870312156101dc575f80fd5b5050823594602084013594506040840135936060013592509050565b5f60208284031215610208575f80fd5b5035919050565b634e487b7160e01b5f52601160045260245ffd5b808202811582820484141761023a5761023a61020f565b92915050565b5f8261025a57634e487b7160e01b5f52601260045260245ffd5b500490565b8082018082111561023a5761023a61020f565b8181038181111561023a5761023a61020f56fea264697066735822122047b4479cde6f7e538fd71105abb77be5cd399a2f7ae995969ee5cba6db4b925a64736f6c63430008190033",
			"opcodes": "PUSH1 0x80 PUSH1 0x40 MSTORE CALLVALUE DUP1 ISZERO PUSH1 0xE JUMPI PUSH0 DUP1 REVERT JUMPDEST POP PUSH2 0x2BB DUP1 PUSH2 0x1C PUSH0 CODECOPY PUSH0 RETURN INVALID PUSH1 0x80 PUSH1 0x40 MSTORE CALLVALUE DUP1 ISZERO PUSH2 0xF JUMPI PUSH0 DUP1 REVERT JUMPDEST POP PUSH1 0x4 CALLDATASIZE LT PUSH2 0x3F JUMPI PUSH0 CALLDATALOAD PUSH1 0xE0 SHR DUP1 PUSH4 0x8006F9B6 EQ PUSH2 0x43 JUMPI DUP1 PUSH4 0xE1EC3C68 EQ PUSH2 0x98 JUMPI DUP1 PUSH4 0xED7010C9 EQ PUSH2 0xF1 JUMPI JUMPDEST PUSH0 DUP1 REVERT JUMPDEST PUSH2 0x96 PUSH2 0x51 CALLDATASIZE PUSH1 0x4 PUSH2 0x1C9 JUMP JUMPDEST PUSH1 0x40 DUP1 MLOAD PUSH1 0x80 DUP2 ADD DUP3 MSTORE DUP6 DUP2 MSTORE PUSH1 0x20 DUP1 DUP3 ADD SWAP6 DUP7 MSTORE DUP2 DUP4 ADD SWAP5 DUP6 MSTORE PUSH1 0x60 DUP3 ADD SWAP4 DUP5 MSTORE PUSH0 SWAP7 DUP8 MSTORE DUP7 SWAP1 MSTORE SWAP5 KECCAK256 SWAP4 MLOAD DUP5 SSTORE SWAP2 MLOAD PUSH1 0x1 DUP5 ADD SSTORE MLOAD PUSH1 0x2 DUP4 ADD SSTORE MLOAD PUSH1 0x3 SWAP1 SWAP2 ADD SSTORE JUMP JUMPDEST STOP JUMPDEST PUSH2 0xCC PUSH2 0xA6 CALLDATASIZE PUSH1 0x4 PUSH2 0x1F8 JUMP JUMPDEST PUSH0 PUSH1 0x20 DUP2 SWAP1 MSTORE SWAP1 DUP2 MSTORE PUSH1 0x40 SWAP1 KECCAK256 DUP1 SLOAD PUSH1 0x1 DUP3 ADD SLOAD PUSH1 0x2 DUP4 ADD SLOAD PUSH1 0x3 SWAP1 SWAP4 ADD SLOAD SWAP2 SWAP3 SWAP1 SWAP2 DUP5 JUMP JUMPDEST PUSH1 0x40 DUP1 MLOAD SWAP5 DUP6 MSTORE PUSH1 0x20 DUP6 ADD SWAP4 SWAP1 SWAP4 MSTORE SWAP2 DUP4 ADD MSTORE PUSH1 0x60 DUP3 ADD MSTORE PUSH1 0x80 ADD JUMPDEST PUSH1 0x40 MLOAD DUP1 SWAP2 SUB SWAP1 RETURN JUMPDEST PUSH2 0xF9 PUSH2 0x107 JUMP JUMPDEST PUSH1 0x40 MLOAD SWAP1 DUP2 MSTORE PUSH1 0x20 ADD PUSH2 0xE8 JUMP JUMPDEST PUSH0 DUP1 DUP1 JUMPDEST PUSH1 0x64 DUP2 LT ISZERO PUSH2 0x1C3 JUMPI PUSH0 DUP2 DUP2 MSTORE PUSH1 0x20 DUP2 SWAP1 MSTORE PUSH1 0x40 SWAP1 KECCAK256 PUSH1 0x1 ADD SLOAD ISZERO PUSH2 0x1BB JUMPI PUSH0 DUP2 DUP2 MSTORE PUSH1 0x20 DUP2 SWAP1 MSTORE PUSH1 0x40 DUP2 KECCAK256 PUSH1 0x1 ADD SLOAD SWAP1 JUMPDEST PUSH0 DUP4 DUP2 MSTORE PUSH1 0x20 DUP2 SWAP1 MSTORE PUSH1 0x40 SWAP1 KECCAK256 PUSH1 0x3 ADD SLOAD DUP2 LT ISZERO PUSH2 0x191 JUMPI PUSH0 DUP4 DUP2 MSTORE PUSH1 0x20 DUP2 SWAP1 MSTORE PUSH1 0x40 SWAP1 KECCAK256 PUSH1 0x2 ADD SLOAD PUSH1 0x64 SWAP1 PUSH2 0x173 SWAP1 DUP5 PUSH2 0x223 JUMP JUMPDEST PUSH2 0x17D SWAP2 SWAP1 PUSH2 0x240 JUMP JUMPDEST PUSH2 0x187 SWAP1 DUP4 PUSH2 0x25F JUMP JUMPDEST SWAP2 POP PUSH1 0x1 ADD PUSH2 0x13D JUMP JUMPDEST POP PUSH0 DUP3 DUP2 MSTORE PUSH1 0x20 DUP2 SWAP1 MSTORE PUSH1 0x40 SWAP1 KECCAK256 PUSH1 0x1 ADD SLOAD PUSH2 0x1AD SWAP1 DUP3 PUSH2 0x272 JUMP JUMPDEST PUSH2 0x1B7 SWAP1 DUP5 PUSH2 0x25F JUMP JUMPDEST SWAP3 POP POP JUMPDEST PUSH1 0x1 ADD PUSH2 0x10B JUMP JUMPDEST POP SWAP2 SWAP1 POP JUMP JUMPDEST PUSH0 DUP1 PUSH0 DUP1 PUSH1 0x80 DUP6 DUP8 SUB SLT ISZERO PUSH2 0x1DC JUMPI PUSH0 DUP1 REVERT JUMPDEST POP POP DUP3 CALLDATALOAD SWAP5 PUSH1 0x20 DUP5 ADD CALLDATALOAD SWAP5 POP PUSH1 0x40 DUP5 ADD CALLDATALOAD SWAP4 PUSH1 0x60 ADD CALLDATALOAD SWAP3 POP SWAP1 POP JUMP JUMPDEST PUSH0 PUSH1 0x20 DUP3 DUP5 SUB SLT ISZERO PUSH2 0x208 JUMPI PUSH0 DUP1 REVERT JUMPDEST POP CALLDATALOAD SWAP2 SWAP1 POP JUMP JUMPDEST PUSH4 0x4E487B71 PUSH1 0xE0 SHL PUSH0 MSTORE PUSH1 0x11 PUSH1 0x4 MSTORE PUSH1 0x24 PUSH0 REVERT JUMPDEST DUP1 DUP3 MUL DUP2 ISZERO DUP3 DUP3 DIV DUP5 EQ OR PUSH2 0x23A JUMPI PUSH2 0x23A PUSH2 0x20F JUMP JUMPDEST SWAP3 SWAP2 POP POP JUMP JUMPDEST PUSH0 DUP3 PUSH2 0x25A JUMPI PUSH4 0x4E487B71 PUSH1 0xE0 SHL PUSH0 MSTORE PUSH1 0x12 PUSH1 0x4 MSTORE PUSH1 0x24 PUSH0 REVERT JUMPDEST POP DIV SWAP1 JUMP JUMPDEST DUP1 DUP3 ADD DUP1 DUP3 GT ISZERO PUSH2 0x23A JUMPI PUSH2 0x23A PUSH2 0x20F JUMP JUMPDEST DUP2 DUP2 SUB DUP2 DUP2 GT ISZERO PUSH2 0x23A JUMPI PUSH2 0x23A PUSH2 0x20F JUMP INVALID LOG2 PUSH5 0x6970667358 0x22 SLT KECCAK256 SELFBALANCE 0xB4 SELFBALANCE SWAP13 0xDE PUSH16 0x7E538FD71105ABB77BE5CD399A2F7AE9 SWAP6 SWAP7 SWAP15 0xE5 0xCB 0xA6 0xDB 0x4B SWAP3 GAS PUSH5 0x736F6C6343 STOP ADDMOD NOT STOP CALLER "
		},
		"gasEstimates": {
			"creation": {
				"codeDepositCost": "139800",
				"executionCost": "181",
				"totalCost": "139981"
			},
			"external": {
				"calculateTotalInterest()": "infinite",
				"loans(uint256)": "8829",
				"setLoan(uint256,uint256,uint256,uint256)": "88865"
			}
		},
		"methodIdentifiers": {
			"calculateTotalInterest()": "ed7010c9",
			"loans(uint256)": "e1ec3c68",
			"setLoan(uint256,uint256,uint256,uint256)": "8006f9b6"
		}
	},
	"abi": [
		{
			"inputs": [],
			"name": "calculateTotalInterest",
			"outputs": [
				{
					"internalType": "uint256",
					"name": "totalInterest",
					"type": "uint256"
				}
			],
			"stateMutability": "view",
			"type": "function"
		},
		{
			"inputs": [
				{
					"internalType": "uint256",
					"name": "",
					"type": "uint256"
				}
			],
			"name": "loans",
			"outputs": [
				{
					"internalType": "uint256",
					"name": "id",
					"type": "uint256"
				},
				{
					"internalType": "uint256",
					"name": "principal",
					"type": "uint256"
				},
				{
					"internalType": "uint256",
					"name": "rate",
					"type": "uint256"
				},
				{
					"internalType": "uint256",
					"name": "time",
					"type": "uint256"
				}
			],
			"stateMutability": "view",
			"type": "function"
		},
		{
			"inputs": [
				{
					"internalType": "uint256",
					"name": "id",
					"type": "uint256"
				},
				{
					"internalType": "uint256",
					"name": "principal",
					"type": "uint256"
				},
				{
					"internalType": "uint256",
					"name": "rate",
					"type": "uint256"
				},
				{
					"internalType": "uint256",
					"name": "time",
					"type": "uint256"
				}
			],
			"name": "setLoan",
			"outputs": [],
			"stateMutability": "nonpayable",
			"type": "function"
		}
	]
}