{
	"contracts/ContractQ/ContractQV2.sol": {
		"ContractQV2": {
			"abi": [
				{
					"inputs": [
						{
							"internalType": "address",
							"name": "addr",
							"type": "address"
						}
					],
					"name": "clearBalance",
					"outputs": [],
					"stateMutability": "nonpayable",
					"type": "function"
				},
				{
					"inputs": [],
					"name": "clearValue",
					"outputs": [],
					"stateMutability": "nonpayable",
					"type": "function"
				},
				{
					"inputs": [
						{
							"internalType": "address",
							"name": "addr",
							"type": "address"
						}
					],
					"name": "getBalance",
					"outputs": [
						{
							"internalType": "uint256",
							"name": "",
							"type": "uint256"
						}
					],
					"stateMutability": "view",
					"type": "function"
				},
				{
					"inputs": [],
					"name": "getValue",
					"outputs": [
						{
							"internalType": "uint256",
							"name": "",
							"type": "uint256"
						}
					],
					"stateMutability": "view",
					"type": "function"
				},
				{
					"inputs": [
						{
							"internalType": "address",
							"name": "addr",
							"type": "address"
						},
						{
							"internalType": "uint256",
							"name": "balance",
							"type": "uint256"
						}
					],
					"name": "setBalance",
					"outputs": [],
					"stateMutability": "nonpayable",
					"type": "function"
				},
				{
					"inputs": [
						{
							"internalType": "uint256",
							"name": "_value",
							"type": "uint256"
						}
					],
					"name": "setValue",
					"outputs": [],
					"stateMutability": "nonpayable",
					"type": "function"
				}
			],
			"devdoc": {
				"kind": "dev",
				"methods": {},
				"version": 1
			},
			"evm": {
				"assembly": "    /* \"contracts/ContractQ/ContractQV2.sol\":63:1686  contract ContractQV2 {... */\n  mstore(0x40, 0x80)\n  callvalue\n  dup1\n  iszero\n  tag_1\n  jumpi\n  0x00\n  dup1\n  revert\ntag_1:\n  pop\n  dataSize(sub_0)\n  dup1\n  dataOffset(sub_0)\n  0x00\n  codecopy\n  0x00\n  return\nstop\n\nsub_0: assembly {\n        /* \"contracts/ContractQ/ContractQV2.sol\":63:1686  contract ContractQV2 {... */\n      mstore(0x40, 0x80)\n      callvalue\n      dup1\n      iszero\n      tag_1\n      jumpi\n      0x00\n      dup1\n      revert\n    tag_1:\n      pop\n      jumpi(tag_2, lt(calldatasize, 0x04))\n      shr(0xe0, calldataload(0x00))\n      dup1\n      0x5ccf08b8\n      gt\n      tag_9\n      jumpi\n      dup1\n      0x5ccf08b8\n      eq\n      tag_6\n      jumpi\n      dup1\n      0xe30443bc\n      eq\n      tag_7\n      jumpi\n      dup1\n      0xf8b2cb4f\n      eq\n      tag_8\n      jumpi\n      0x00\n      dup1\n      revert\n    tag_9:\n      dup1\n      0x20965255\n      eq\n      tag_3\n      jumpi\n      dup1\n      0x32ba65aa\n      eq\n      tag_4\n      jumpi\n      dup1\n      0x55241077\n      eq\n      tag_5\n      jumpi\n    tag_2:\n      0x00\n      dup1\n      revert\n        /* \"contracts/ContractQ/ContractQV2.sol\":173:254  function getValue() public view returns (uint256) {... */\n    tag_3:\n        /* \"contracts/ContractQ/ContractQV2.sol\":214:221  uint256 */\n      0x00\n        /* \"contracts/ContractQ/ContractQV2.sol\":241:246  value */\n      sload\n        /* \"contracts/ContractQ/ContractQV2.sol\":173:254  function getValue() public view returns (uint256) {... */\n    tag_10:\n      mload(0x40)\n        /* \"#utility.yul\":160:185   */\n      swap1\n      dup2\n      mstore\n        /* \"#utility.yul\":148:150   */\n      0x20\n        /* \"#utility.yul\":133:151   */\n      add\n        /* \"contracts/ContractQ/ContractQV2.sol\":173:254  function getValue() public view returns (uint256) {... */\n      mload(0x40)\n      dup1\n      swap2\n      sub\n      swap1\n      return\n        /* \"contracts/ContractQ/ContractQV2.sol\":822:1683  function clearBalance(address addr) public {... */\n    tag_4:\n      tag_14\n      tag_15\n      calldatasize\n      0x04\n      tag_16\n      jump\t// in\n    tag_15:\n        /* \"contracts/ContractQ/ContractQV2.sol\":978:981  0x0 */\n      0x00\n        /* \"contracts/ContractQ/ContractQV2.sol\":971:988  mstore(0x0, addr) */\n      swap1\n      dup2\n      mstore\n        /* \"contracts/ContractQ/ContractQV2.sol\":1140:1153  balances.slot */\n      0x01\n        /* \"contracts/ContractQ/ContractQV2.sol\":1134:1138  0x20 */\n      0x20\n        /* \"contracts/ContractQ/ContractQV2.sol\":1127:1154  mstore(0x20, balances.slot) */\n      mstore\n        /* \"contracts/ContractQ/ContractQV2.sol\":1656:1660  0x40 */\n      0x40\n        /* \"contracts/ContractQ/ContractQV2.sol\":1643:1661  keccak256(0, 0x40) */\n      dup2\n      keccak256\n        /* \"contracts/ContractQ/ContractQV2.sol\":1636:1665  sstore(keccak256(0, 0x40), 0) */\n      sstore\n        /* \"contracts/ContractQ/ContractQV2.sol\":822:1683  function clearBalance(address addr) public {... */\n      jump\n    tag_14:\n      stop\n        /* \"contracts/ContractQ/ContractQV2.sol\":374:448  function setValue(uint256 _value) public {... */\n    tag_5:\n      tag_14\n      tag_19\n      calldatasize\n      0x04\n      tag_20\n      jump\t// in\n    tag_19:\n        /* \"contracts/ContractQ/ContractQV2.sol\":426:431  value */\n      0x00\n        /* \"contracts/ContractQ/ContractQV2.sol\":426:440  value = _value */\n      sstore\n        /* \"contracts/ContractQ/ContractQV2.sol\":374:448  function setValue(uint256 _value) public {... */\n      jump\n        /* \"contracts/ContractQ/ContractQV2.sol\":626:729  function clearValue() public {... */\n    tag_6:\n      tag_14\n        /* \"contracts/ContractQ/ContractQV2.sol\":709:710  0 */\n      0x00\n        /* \"contracts/ContractQ/ContractQV2.sol\":697:707  value.slot */\n      dup1\n        /* \"contracts/ContractQ/ContractQV2.sol\":690:711  sstore(value.slot, 0) */\n      sstore\n        /* \"contracts/ContractQ/ContractQV2.sol\":626:729  function clearValue() public {... */\n      jump\n        /* \"contracts/ContractQ/ContractQV2.sol\":456:557  function setBalance(address addr, uint256 balance) public {... */\n    tag_7:\n      tag_14\n      tag_25\n      calldatasize\n      0x04\n      tag_26\n      jump\t// in\n    tag_25:\n        /* \"contracts/ContractQ/ContractQV2.sol\":525:539  balances[addr] */\n      0xffffffffffffffffffffffffffffffffffffffff\n      swap1\n      swap2\n      and\n      0x00\n      swap1\n      dup2\n      mstore\n        /* \"contracts/ContractQ/ContractQV2.sol\":525:533  balances */\n      0x01\n        /* \"contracts/ContractQ/ContractQV2.sol\":525:539  balances[addr] */\n      0x20\n      mstore\n      0x40\n      swap1\n      keccak256\n        /* \"contracts/ContractQ/ContractQV2.sol\":525:549  balances[addr] = balance */\n      sstore\n        /* \"contracts/ContractQ/ContractQV2.sol\":456:557  function setBalance(address addr, uint256 balance) public {... */\n      jump\n        /* \"contracts/ContractQ/ContractQV2.sol\":262:366  function getBalance(address addr) public view returns (uint256) {... */\n    tag_8:\n      tag_10\n      tag_29\n      calldatasize\n      0x04\n      tag_16\n      jump\t// in\n    tag_29:\n        /* \"contracts/ContractQ/ContractQV2.sol\":344:358  balances[addr] */\n      0xffffffffffffffffffffffffffffffffffffffff\n      and\n        /* \"contracts/ContractQ/ContractQV2.sol\":317:324  uint256 */\n      0x00\n        /* \"contracts/ContractQ/ContractQV2.sol\":344:358  balances[addr] */\n      swap1\n      dup2\n      mstore\n        /* \"contracts/ContractQ/ContractQV2.sol\":344:352  balances */\n      0x01\n        /* \"contracts/ContractQ/ContractQV2.sol\":344:358  balances[addr] */\n      0x20\n      mstore\n      0x40\n      swap1\n      keccak256\n      sload\n      swap1\n        /* \"contracts/ContractQ/ContractQV2.sol\":262:366  function getBalance(address addr) public view returns (uint256) {... */\n      jump\n        /* \"#utility.yul\":196:392   */\n    tag_38:\n        /* \"#utility.yul\":264:284   */\n      dup1\n      calldataload\n        /* \"#utility.yul\":324:366   */\n      0xffffffffffffffffffffffffffffffffffffffff\n        /* \"#utility.yul\":313:367   */\n      dup2\n      and\n        /* \"#utility.yul\":303:368   */\n      dup2\n      eq\n        /* \"#utility.yul\":293:386   */\n      tag_42\n      jumpi\n        /* \"#utility.yul\":382:383   */\n      0x00\n        /* \"#utility.yul\":379:380   */\n      dup1\n        /* \"#utility.yul\":372:384   */\n      revert\n        /* \"#utility.yul\":293:386   */\n    tag_42:\n        /* \"#utility.yul\":196:392   */\n      swap2\n      swap1\n      pop\n      jump\t// out\n        /* \"#utility.yul\":397:583   */\n    tag_16:\n        /* \"#utility.yul\":456:462   */\n      0x00\n        /* \"#utility.yul\":509:511   */\n      0x20\n        /* \"#utility.yul\":497:506   */\n      dup3\n        /* \"#utility.yul\":488:495   */\n      dup5\n        /* \"#utility.yul\":484:507   */\n      sub\n        /* \"#utility.yul\":480:512   */\n      slt\n        /* \"#utility.yul\":477:529   */\n      iszero\n      tag_44\n      jumpi\n        /* \"#utility.yul\":525:526   */\n      0x00\n        /* \"#utility.yul\":522:523   */\n      dup1\n        /* \"#utility.yul\":515:527   */\n      revert\n        /* \"#utility.yul\":477:529   */\n    tag_44:\n        /* \"#utility.yul\":548:577   */\n      tag_45\n        /* \"#utility.yul\":567:576   */\n      dup3\n        /* \"#utility.yul\":548:577   */\n      tag_38\n      jump\t// in\n    tag_45:\n        /* \"#utility.yul\":538:577   */\n      swap4\n        /* \"#utility.yul\":397:583   */\n      swap3\n      pop\n      pop\n      pop\n      jump\t// out\n        /* \"#utility.yul\":588:768   */\n    tag_20:\n        /* \"#utility.yul\":647:653   */\n      0x00\n        /* \"#utility.yul\":700:702   */\n      0x20\n        /* \"#utility.yul\":688:697   */\n      dup3\n        /* \"#utility.yul\":679:686   */\n      dup5\n        /* \"#utility.yul\":675:698   */\n      sub\n        /* \"#utility.yul\":671:703   */\n      slt\n        /* \"#utility.yul\":668:720   */\n      iszero\n      tag_47\n      jumpi\n        /* \"#utility.yul\":716:717   */\n      0x00\n        /* \"#utility.yul\":713:714   */\n      dup1\n        /* \"#utility.yul\":706:718   */\n      revert\n        /* \"#utility.yul\":668:720   */\n    tag_47:\n      pop\n        /* \"#utility.yul\":739:762   */\n      calldataload\n      swap2\n        /* \"#utility.yul\":588:768   */\n      swap1\n      pop\n      jump\t// out\n        /* \"#utility.yul\":773:1027   */\n    tag_26:\n        /* \"#utility.yul\":841:847   */\n      0x00\n        /* \"#utility.yul\":849:855   */\n      dup1\n        /* \"#utility.yul\":902:904   */\n      0x40\n        /* \"#utility.yul\":890:899   */\n      dup4\n        /* \"#utility.yul\":881:888   */\n      dup6\n        /* \"#utility.yul\":877:900   */\n      sub\n        /* \"#utility.yul\":873:905   */\n      slt\n        /* \"#utility.yul\":870:922   */\n      iszero\n      tag_49\n      jumpi\n        /* \"#utility.yul\":918:919   */\n      0x00\n        /* \"#utility.yul\":915:916   */\n      dup1\n        /* \"#utility.yul\":908:920   */\n      revert\n        /* \"#utility.yul\":870:922   */\n    tag_49:\n        /* \"#utility.yul\":941:970   */\n      tag_50\n        /* \"#utility.yul\":960:969   */\n      dup4\n        /* \"#utility.yul\":941:970   */\n      tag_38\n      jump\t// in\n    tag_50:\n        /* \"#utility.yul\":931:970   */\n      swap5\n        /* \"#utility.yul\":1017:1019   */\n      0x20\n        /* \"#utility.yul\":1002:1020   */\n      swap4\n      swap1\n      swap4\n      add\n        /* \"#utility.yul\":989:1021   */\n      calldataload\n      swap4\n      pop\n      pop\n      pop\n        /* \"#utility.yul\":773:1027   */\n      jump\t// out\n\n    auxdata: 0xa26469706673582212206f0d34b90d12030bf8ab19b14b2afb264d695022543361109940e55eb7ffde9664736f6c63430008190033\n}\n",
				"bytecode": {
					"linkReferences": {},
					"object": "6080604052348015600e575f80fd5b506101ea8061001c5f395ff3fe608060405234801561000f575f80fd5b506004361061006f575f3560e01c80635ccf08b81161004d5780635ccf08b8146100ba578063e30443bc146100c2578063f8b2cb4f146100f8575f80fd5b8063209652551461007357806332ba65aa1461008857806355241077146100a8575b5f80fd5b5f545b60405190815260200160405180910390f35b6100a6610096366004610155565b5f90815260016020526040812055565b005b6100a66100b6366004610175565b5f55565b6100a65f8055565b6100a66100d036600461018c565b73ffffffffffffffffffffffffffffffffffffffff9091165f90815260016020526040902055565b610076610106366004610155565b73ffffffffffffffffffffffffffffffffffffffff165f9081526001602052604090205490565b803573ffffffffffffffffffffffffffffffffffffffff81168114610150575f80fd5b919050565b5f60208284031215610165575f80fd5b61016e8261012d565b9392505050565b5f60208284031215610185575f80fd5b5035919050565b5f806040838503121561019d575f80fd5b6101a68361012d565b94602093909301359350505056fea26469706673582212206f0d34b90d12030bf8ab19b14b2afb264d695022543361109940e55eb7ffde9664736f6c63430008190033",
					"opcodes": "PUSH1 0x80 PUSH1 0x40 MSTORE CALLVALUE DUP1 ISZERO PUSH1 0xE JUMPI PUSH0 DUP1 REVERT JUMPDEST POP PUSH2 0x1EA DUP1 PUSH2 0x1C PUSH0 CODECOPY PUSH0 RETURN INVALID PUSH1 0x80 PUSH1 0x40 MSTORE CALLVALUE DUP1 ISZERO PUSH2 0xF JUMPI PUSH0 DUP1 REVERT JUMPDEST POP PUSH1 0x4 CALLDATASIZE LT PUSH2 0x6F JUMPI PUSH0 CALLDATALOAD PUSH1 0xE0 SHR DUP1 PUSH4 0x5CCF08B8 GT PUSH2 0x4D JUMPI DUP1 PUSH4 0x5CCF08B8 EQ PUSH2 0xBA JUMPI DUP1 PUSH4 0xE30443BC EQ PUSH2 0xC2 JUMPI DUP1 PUSH4 0xF8B2CB4F EQ PUSH2 0xF8 JUMPI PUSH0 DUP1 REVERT JUMPDEST DUP1 PUSH4 0x20965255 EQ PUSH2 0x73 JUMPI DUP1 PUSH4 0x32BA65AA EQ PUSH2 0x88 JUMPI DUP1 PUSH4 0x55241077 EQ PUSH2 0xA8 JUMPI JUMPDEST PUSH0 DUP1 REVERT JUMPDEST PUSH0 SLOAD JUMPDEST PUSH1 0x40 MLOAD SWAP1 DUP2 MSTORE PUSH1 0x20 ADD PUSH1 0x40 MLOAD DUP1 SWAP2 SUB SWAP1 RETURN JUMPDEST PUSH2 0xA6 PUSH2 0x96 CALLDATASIZE PUSH1 0x4 PUSH2 0x155 JUMP JUMPDEST PUSH0 SWAP1 DUP2 MSTORE PUSH1 0x1 PUSH1 0x20 MSTORE PUSH1 0x40 DUP2 KECCAK256 SSTORE JUMP JUMPDEST STOP JUMPDEST PUSH2 0xA6 PUSH2 0xB6 CALLDATASIZE PUSH1 0x4 PUSH2 0x175 JUMP JUMPDEST PUSH0 SSTORE JUMP JUMPDEST PUSH2 0xA6 PUSH0 DUP1 SSTORE JUMP JUMPDEST PUSH2 0xA6 PUSH2 0xD0 CALLDATASIZE PUSH1 0x4 PUSH2 0x18C JUMP JUMPDEST PUSH20 0xFFFFFFFFFFFFFFFFFFFFFFFFFFFFFFFFFFFFFFFF SWAP1 SWAP2 AND PUSH0 SWAP1 DUP2 MSTORE PUSH1 0x1 PUSH1 0x20 MSTORE PUSH1 0x40 SWAP1 KECCAK256 SSTORE JUMP JUMPDEST PUSH2 0x76 PUSH2 0x106 CALLDATASIZE PUSH1 0x4 PUSH2 0x155 JUMP JUMPDEST PUSH20 0xFFFFFFFFFFFFFFFFFFFFFFFFFFFFFFFFFFFFFFFF AND PUSH0 SWAP1 DUP2 MSTORE PUSH1 0x1 PUSH1 0x20 MSTORE PUSH1 0x40 SWAP1 KECCAK256 SLOAD SWAP1 JUMP JUMPDEST DUP1 CALLDATALOAD PUSH20 0xFFFFFFFFFFFFFFFFFFFFFFFFFFFFFFFFFFFFFFFF DUP2 AND DUP2 EQ PUSH2 0x150 JUMPI PUSH0 DUP1 REVERT JUMPDEST SWAP2 SWAP1 POP JUMP JUMPDEST PUSH0 PUSH1 0x20 DUP3 DUP5 SUB SLT ISZERO PUSH2 0x165 JUMPI PUSH0 DUP1 REVERT JUMPDEST PUSH2 0x16E DUP3 PUSH2 0x12D JUMP JUMPDEST SWAP4 SWAP3 POP POP POP JUMP JUMPDEST PUSH0 PUSH1 0x20 DUP3 DUP5 SUB SLT ISZERO PUSH2 0x185 JUMPI PUSH0 DUP1 REVERT JUMPDEST POP CALLDATALOAD SWAP2 SWAP1 POP JUMP JUMPDEST PUSH0 DUP1 PUSH1 0x40 DUP4 DUP6 SUB SLT ISZERO PUSH2 0x19D JUMPI PUSH0 DUP1 REVERT JUMPDEST PUSH2 0x1A6 DUP4 PUSH2 0x12D JUMP JUMPDEST SWAP5 PUSH1 0x20 SWAP4 SWAP1 SWAP4 ADD CALLDATALOAD SWAP4 POP POP POP JUMP INVALID LOG2 PUSH5 0x6970667358 0x22 SLT KECCAK256 PUSH16 0xD34B90D12030BF8AB19B14B2AFB264D PUSH10 0x5022543361109940E55E 0xB7 SELFDESTRUCT 0xDE SWAP7 PUSH5 0x736F6C6343 STOP ADDMOD NOT STOP CALLER "
				},
				"gasEstimates": {
					"creation": {
						"codeDepositCost": "98000",
						"executionCost": "145",
						"totalCost": "98145"
					},
					"external": {
						"clearBalance(address)": "5367",
						"clearValue()": "5136",
						"getBalance(address)": "2542",
						"getValue()": "2268",
						"setBalance(address,uint256)": "22499",
						"setValue(uint256)": "22354"
					}
				},
				"methodIdentifiers": {
					"clearBalance(address)": "32ba65aa",
					"clearValue()": "5ccf08b8",
					"getBalance(address)": "f8b2cb4f",
					"getValue()": "20965255",
					"setBalance(address,uint256)": "e30443bc",
					"setValue(uint256)": "55241077"
				}
			},
			"storageLayout": {
				"storage": [
					{
						"astId": 3,
						"contract": "contracts/ContractQ/ContractQV2.sol:ContractQV2",
						"label": "value",
						"offset": 0,
						"slot": "0",
						"type": "t_uint256"
					},
					{
						"astId": 7,
						"contract": "contracts/ContractQ/ContractQV2.sol:ContractQV2",
						"label": "balances",
						"offset": 0,
						"slot": "1",
						"type": "t_mapping(t_address,t_uint256)"
					}
				],
				"types": {
					"t_address": {
						"encoding": "inplace",
						"label": "address",
						"numberOfBytes": "20"
					},
					"t_mapping(t_address,t_uint256)": {
						"encoding": "mapping",
						"key": "t_address",
						"label": "mapping(address => uint256)",
						"numberOfBytes": "32",
						"value": "t_uint256"
					},
					"t_uint256": {
						"encoding": "inplace",
						"label": "uint256",
						"numberOfBytes": "32"
					}
				}
			},
			"userdoc": {
				"kind": "user",
				"methods": {},
				"version": 1
			}
		}
	}
}