{
	"contracts/ContractF/ContractFV7.sol": {
		"ContractFV7": {
			"abi": [
				{
					"inputs": [],
					"name": "boolVal",
					"outputs": [
						{
							"internalType": "bool",
							"name": "",
							"type": "bool"
						}
					],
					"stateMutability": "view",
					"type": "function"
				}
			],
			"devdoc": {
				"kind": "dev",
				"methods": {},
				"version": 1
			},
			"evm": {
				"assembly": "    /* \"contracts/ContractF/ContractFV7.sol\":63:114  contract ContractFV7 {... */\n  mstore(0x40, 0x80)\n  callvalue\n  dup1\n  iszero\n  tag_1\n  jumpi\n  0x00\n  dup1\n  revert\ntag_1:\n  pop\n  dataSize(sub_0)\n  dup1\n  dataOffset(sub_0)\n  0x00\n  codecopy\n  0x00\n  return\nstop\n\nsub_0: assembly {\n        /* \"contracts/ContractF/ContractFV7.sol\":63:114  contract ContractFV7 {... */\n      mstore(0x40, 0x80)\n      callvalue\n      dup1\n      iszero\n      tag_1\n      jumpi\n      0x00\n      dup1\n      revert\n    tag_1:\n      pop\n      jumpi(tag_2, lt(calldatasize, 0x04))\n      shr(0xe0, calldataload(0x00))\n      dup1\n      0x2316afea\n      eq\n      tag_3\n      jumpi\n    tag_2:\n      0x00\n      dup1\n      revert\n        /* \"contracts/ContractF/ContractFV7.sol\":91:110  bool public boolVal */\n    tag_3:\n      sload(0x00)\n      tag_4\n      swap1\n      0xff\n      and\n      dup2\n      jump\n    tag_4:\n      mload(0x40)\n        /* \"#utility.yul\":179:193   */\n      swap1\n      iszero\n        /* \"#utility.yul\":172:194   */\n      iszero\n        /* \"#utility.yul\":154:195   */\n      dup2\n      mstore\n        /* \"#utility.yul\":142:144   */\n      0x20\n        /* \"#utility.yul\":127:145   */\n      add\n        /* \"contracts/ContractF/ContractFV7.sol\":91:110  bool public boolVal */\n      mload(0x40)\n      dup1\n      swap2\n      sub\n      swap1\n      return\n\n    auxdata: 0xa264697066735822122050d6e620047798684644aae524bda0dc68f3f3f7c6e5d90fc581f94f0c44775664736f6c63430008190033\n}\n",
				"bytecode": {
					"linkReferences": {},
					"object": "6080604052348015600e575f80fd5b50607f80601a5f395ff3fe6080604052348015600e575f80fd5b50600436106026575f3560e01c80632316afea14602a575b5f80fd5b5f5460359060ff1681565b604051901515815260200160405180910390f3fea264697066735822122050d6e620047798684644aae524bda0dc68f3f3f7c6e5d90fc581f94f0c44775664736f6c63430008190033",
					"opcodes": "PUSH1 0x80 PUSH1 0x40 MSTORE CALLVALUE DUP1 ISZERO PUSH1 0xE JUMPI PUSH0 DUP1 REVERT JUMPDEST POP PUSH1 0x7F DUP1 PUSH1 0x1A PUSH0 CODECOPY PUSH0 RETURN INVALID PUSH1 0x80 PUSH1 0x40 MSTORE CALLVALUE DUP1 ISZERO PUSH1 0xE JUMPI PUSH0 DUP1 REVERT JUMPDEST POP PUSH1 0x4 CALLDATASIZE LT PUSH1 0x26 JUMPI PUSH0 CALLDATALOAD PUSH1 0xE0 SHR DUP1 PUSH4 0x2316AFEA EQ PUSH1 0x2A JUMPI JUMPDEST PUSH0 DUP1 REVERT JUMPDEST PUSH0 SLOAD PUSH1 0x35 SWAP1 PUSH1 0xFF AND DUP2 JUMP JUMPDEST PUSH1 0x40 MLOAD SWAP1 ISZERO ISZERO DUP2 MSTORE PUSH1 0x20 ADD PUSH1 0x40 MLOAD DUP1 SWAP2 SUB SWAP1 RETURN INVALID LOG2 PUSH5 0x6970667358 0x22 SLT KECCAK256 POP 0xD6 0xE6 KECCAK256 DIV PUSH24 0x98684644AAE524BDA0DC68F3F3F7C6E5D90FC581F94F0C44 PUSH24 0x5664736F6C63430008190033000000000000000000000000 "
				},
				"gasEstimates": {
					"creation": {
						"codeDepositCost": "25400",
						"executionCost": "73",
						"totalCost": "25473"
					},
					"external": {
						"boolVal()": "2274"
					}
				},
				"methodIdentifiers": {
					"boolVal()": "2316afea"
				}
			},
			"storageLayout": {
				"storage": [
					{
						"astId": 3,
						"contract": "contracts/ContractF/ContractFV7.sol:ContractFV7",
						"label": "boolVal",
						"offset": 0,
						"slot": "0",
						"type": "t_bool"
					}
				],
				"types": {
					"t_bool": {
						"encoding": "inplace",
						"label": "bool",
						"numberOfBytes": "1"
					}
				}
			},
			"userdoc": {
				"kind": "user",
				"methods": {},
				"version": 1
			}
		}
	}
}