{
	"contracts/ContractE/ContractEV1.sol": {
		"ContractEV1": {
			"abi": [
				{
					"inputs": [],
					"name": "num",
					"outputs": [
						{
							"internalType": "uint256",
							"name": "",
							"type": "uint256"
						}
					],
					"stateMutability": "view",
					"type": "function"
				}
			],
			"devdoc": {
				"kind": "dev",
				"methods": {},
				"version": 1
			},
			"evm": {
				"assembly": "    /* \"contracts/ContractE/ContractEV1.sol\":63:126  contract ContractEV1 {... */\n  mstore(0x40, 0x80)\n  callvalue\n  dup1\n  iszero\n  tag_1\n  jumpi\n  0x00\n  dup1\n  revert\ntag_1:\n  pop\n  dataSize(sub_0)\n  dup1\n  dataOffset(sub_0)\n  0x00\n  codecopy\n  0x00\n  return\nstop\n\nsub_0: assembly {\n        /* \"contracts/ContractE/ContractEV1.sol\":63:126  contract ContractEV1 {... */\n      mstore(0x40, 0x80)\n      callvalue\n      dup1\n      iszero\n      tag_1\n      jumpi\n      0x00\n      dup1\n      revert\n    tag_1:\n      pop\n      jumpi(tag_2, lt(calldatasize, 0x04))\n      shr(0xe0, calldataload(0x00))\n      dup1\n      0x4e70b1dc\n      eq\n      tag_3\n      jumpi\n    tag_2:\n      0x00\n      dup1\n      revert\n        /* \"contracts/ContractE/ContractEV1.sol\":91:122  uint256 public constant num = 1 */\n    tag_3:\n      tag_4\n        /* \"contracts/ContractE/ContractEV1.sol\":121:122  1 */\n      0x01\n        /* \"contracts/ContractE/ContractEV1.sol\":91:122  uint256 public constant num = 1 */\n      dup2\n      jump\n    tag_4:\n      mload(0x40)\n        /* \"#utility.yul\":160:185   */\n      swap1\n      dup2\n      mstore\n        /* \"#utility.yul\":148:150   */\n      0x20\n        /* \"#utility.yul\":133:151   */\n      add\n        /* \"contracts/ContractE/ContractEV1.sol\":91:122  uint256 public constant num = 1 */\n      mload(0x40)\n      dup1\n      swap2\n      sub\n      swap1\n      return\n\n    auxdata: 0xa26469706673582212206134ba09ef96c9607f81bc07068bac305db52d252b9a869f3bae2e4fa2b38a1664736f6c63430008190033\n}\n",
				"bytecode": {
					"linkReferences": {},
					"object": "6080604052348015600e575f80fd5b50607980601a5f395ff3fe6080604052348015600e575f80fd5b50600436106026575f3560e01c80634e70b1dc14602a575b5f80fd5b6031600181565b60405190815260200160405180910390f3fea26469706673582212206134ba09ef96c9607f81bc07068bac305db52d252b9a869f3bae2e4fa2b38a1664736f6c63430008190033",
					"opcodes": "PUSH1 0x80 PUSH1 0x40 MSTORE CALLVALUE DUP1 ISZERO PUSH1 0xE JUMPI PUSH0 DUP1 REVERT JUMPDEST POP PUSH1 0x79 DUP1 PUSH1 0x1A PUSH0 CODECOPY PUSH0 RETURN INVALID PUSH1 0x80 PUSH1 0x40 MSTORE CALLVALUE DUP1 ISZERO PUSH1 0xE JUMPI PUSH0 DUP1 REVERT JUMPDEST POP PUSH1 0x4 CALLDATASIZE LT PUSH1 0x26 JUMPI PUSH0 CALLDATALOAD PUSH1 0xE0 SHR DUP1 PUSH4 0x4E70B1DC EQ PUSH1 0x2A JUMPI JUMPDEST PUSH0 DUP1 REVERT JUMPDEST PUSH1 0x31 PUSH1 0x1 DUP2 JUMP JUMPDEST PUSH1 0x40 MLOAD SWAP1 DUP2 MSTORE PUSH1 0x20 ADD PUSH1 0x40 MLOAD DUP1 SWAP2 SUB SWAP1 RETURN INVALID LOG2 PUSH5 0x6970667358 0x22 SLT KECCAK256 PUSH2 0x34BA MULMOD 0xEF SWAP7 0xC9 PUSH1 0x7F DUP2 0xBC SMOD MOD DUP12 0xAC ADDRESS TSTORE 0xB5 0x2D 0x25 0x2B SWAP11 DUP7 SWAP16 EXTCODESIZE 0xAE 0x2E 0x4F LOG2 0xB3 DUP11 AND PUSH5 0x736F6C6343 STOP ADDMOD NOT STOP CALLER "
				},
				"gasEstimates": {
					"creation": {
						"codeDepositCost": "24200",
						"executionCost": "73",
						"totalCost": "24273"
					},
					"external": {
						"num()": "160"
					}
				},
				"methodIdentifiers": {
					"num()": "4e70b1dc"
				}
			},
			"storageLayout": {
				"storage": [],
				"types": null
			},
			"userdoc": {
				"kind": "user",
				"methods": {},
				"version": 1
			}
		}
	}
}