{
	"contracts/ContractG/ContractGV5.sol": {
		"ContractGV5": {
			"abi": [
				{
					"inputs": [
						{
							"internalType": "uint256",
							"name": "",
							"type": "uint256"
						}
					],
					"name": "arr",
					"outputs": [
						{
							"internalType": "uint256",
							"name": "",
							"type": "uint256"
						}
					],
					"stateMutability": "view",
					"type": "function"
				}
			],
			"devdoc": {
				"kind": "dev",
				"methods": {},
				"version": 1
			},
			"evm": {
				"assembly": "    /* \"contracts/ContractG/ContractGV5.sol\":63:121  contract ContractGV5 {... */\n  mstore(0x40, 0x80)\n  callvalue\n  dup1\n  iszero\n  tag_1\n  jumpi\n  0x00\n  dup1\n  revert\ntag_1:\n  pop\n  dataSize(sub_0)\n  dup1\n  dataOffset(sub_0)\n  0x00\n  codecopy\n  0x00\n  return\nstop\n\nsub_0: assembly {\n        /* \"contracts/ContractG/ContractGV5.sol\":63:121  contract ContractGV5 {... */\n      mstore(0x40, 0x80)\n      callvalue\n      dup1\n      iszero\n      tag_1\n      jumpi\n      0x00\n      dup1\n      revert\n    tag_1:\n      pop\n      jumpi(tag_2, lt(calldatasize, 0x04))\n      shr(0xe0, calldataload(0x00))\n      dup1\n      0x71e5ee5f\n      eq\n      tag_3\n      jumpi\n    tag_2:\n      0x00\n      dup1\n      revert\n        /* \"contracts/ContractG/ContractGV5.sol\":91:117  uint256[500000] public arr */\n    tag_3:\n      tag_4\n      tag_5\n      calldatasize\n      0x04\n      tag_6\n      jump\t// in\n    tag_5:\n      tag_7\n      jump\t// in\n    tag_4:\n      mload(0x40)\n        /* \"#utility.yul\":345:370   */\n      swap1\n      dup2\n      mstore\n        /* \"#utility.yul\":333:335   */\n      0x20\n        /* \"#utility.yul\":318:336   */\n      add\n        /* \"contracts/ContractG/ContractGV5.sol\":91:117  uint256[500000] public arr */\n      mload(0x40)\n      dup1\n      swap2\n      sub\n      swap1\n      return\n    tag_7:\n      0x00\n      dup2\n      0x07a120\n      dup2\n      lt\n      tag_10\n      jumpi\n      0x00\n      dup1\n      revert\n    tag_10:\n      add\n      sload\n      swap1\n      pop\n      dup2\n      jump\t// out\n        /* \"#utility.yul\":14:194   */\n    tag_6:\n        /* \"#utility.yul\":73:79   */\n      0x00\n        /* \"#utility.yul\":126:128   */\n      0x20\n        /* \"#utility.yul\":114:123   */\n      dup3\n        /* \"#utility.yul\":105:112   */\n      dup5\n        /* \"#utility.yul\":101:124   */\n      sub\n        /* \"#utility.yul\":97:129   */\n      slt\n        /* \"#utility.yul\":94:146   */\n      iszero\n      tag_14\n      jumpi\n        /* \"#utility.yul\":142:143   */\n      0x00\n        /* \"#utility.yul\":139:140   */\n      dup1\n        /* \"#utility.yul\":132:144   */\n      revert\n        /* \"#utility.yul\":94:146   */\n    tag_14:\n      pop\n        /* \"#utility.yul\":165:188   */\n      calldataload\n      swap2\n        /* \"#utility.yul\":14:194   */\n      swap1\n      pop\n      jump\t// out\n\n    auxdata: 0xa2646970667358221220b615dcbe3b6536e96f9ede4eed86a1ff4485c36574ee6c6357ddc3af40809ea364736f6c63430008190033\n}\n",
				"bytecode": {
					"linkReferences": {},
					"object": "6080604052348015600e575f80fd5b5060ad80601a5f395ff3fe6080604052348015600e575f80fd5b50600436106026575f3560e01c806371e5ee5f14602a575b5f80fd5b603960353660046061565b604b565b60405190815260200160405180910390f35b5f816207a1208110605a575f80fd5b0154905081565b5f602082840312156070575f80fd5b503591905056fea2646970667358221220b615dcbe3b6536e96f9ede4eed86a1ff4485c36574ee6c6357ddc3af40809ea364736f6c63430008190033",
					"opcodes": "PUSH1 0x80 PUSH1 0x40 MSTORE CALLVALUE DUP1 ISZERO PUSH1 0xE JUMPI PUSH0 DUP1 REVERT JUMPDEST POP PUSH1 0xAD DUP1 PUSH1 0x1A PUSH0 CODECOPY PUSH0 RETURN INVALID PUSH1 0x80 PUSH1 0x40 MSTORE CALLVALUE DUP1 ISZERO PUSH1 0xE JUMPI PUSH0 DUP1 REVERT JUMPDEST POP PUSH1 0x4 CALLDATASIZE LT PUSH1 0x26 JUMPI PUSH0 CALLDATALOAD PUSH1 0xE0 SHR DUP1 PUSH4 0x71E5EE5F EQ PUSH1 0x2A JUMPI JUMPDEST PUSH0 DUP1 REVERT JUMPDEST PUSH1 0x39 PUSH1 0x35 CALLDATASIZE PUSH1 0x4 PUSH1 0x61 JUMP JUMPDEST PUSH1 0x4B JUMP JUMPDEST PUSH1 0x40 MLOAD SWAP1 DUP2 MSTORE PUSH1 0x20 ADD PUSH1 0x40 MLOAD DUP1 SWAP2 SUB SWAP1 RETURN JUMPDEST PUSH0 DUP2 PUSH3 0x7A120 DUP2 LT PUSH1 0x5A JUMPI PUSH0 DUP1 REVERT JUMPDEST ADD SLOAD SWAP1 POP DUP2 JUMP JUMPDEST PUSH0 PUSH1 0x20 DUP3 DUP5 SUB SLT ISZERO PUSH1 0x70 JUMPI PUSH0 DUP1 REVERT JUMPDEST POP CALLDATALOAD SWAP2 SWAP1 POP JUMP INVALID LOG2 PUSH5 0x6970667358 0x22 SLT KECCAK256 0xB6 ISZERO 0xDC 0xBE EXTCODESIZE PUSH6 0x36E96F9EDE4E 0xED DUP7 LOG1 SELFDESTRUCT PREVRANDAO DUP6 0xC3 PUSH6 0x74EE6C6357DD 0xC3 0xAF BLOCKHASH DUP1 SWAP15 LOG3 PUSH5 0x736F6C6343 STOP ADDMOD NOT STOP CALLER "
				},
				"gasEstimates": {
					"creation": {
						"codeDepositCost": "34600",
						"executionCost": "85",
						"totalCost": "34685"
					},
					"external": {
						"arr(uint256)": "2381"
					}
				},
				"methodIdentifiers": {
					"arr(uint256)": "71e5ee5f"
				}
			},
			"storageLayout": {
				"storage": [
					{
						"astId": 5,
						"contract": "contracts/ContractG/ContractGV5.sol:ContractGV5",
						"label": "arr",
						"offset": 0,
						"slot": "0",
						"type": "t_array(t_uint256)500000_storage"
					}
				],
				"types": {
					"t_array(t_uint256)500000_storage": {
						"base": "t_uint256",
						"encoding": "inplace",
						"label": "uint256[500000]",
						"numberOfBytes": "16000000"
					},
					"t_uint256": {
						"encoding": "inplace",
						"label": "uint256",
						"numberOfBytes": "32"
					}
				}
			},
			"userdoc": {
				"kind": "user",
				"methods": {},
				"version": 1
			}
		}
	}
}