{
	"contracts/ContractN/ContractNV5.sol": {
		"ContractNV5": {
			"abi": [
				{
					"inputs": [],
					"name": "InvalidDescription",
					"type": "error"
				},
				{
					"inputs": [],
					"name": "InvalidName",
					"type": "error"
				},
				{
					"inputs": [
						{
							"internalType": "uint256",
							"name": "id",
							"type": "uint256"
						}
					],
					"name": "ItemAlreadyExists",
					"type": "error"
				},
				{
					"inputs": [
						{
							"internalType": "uint256",
							"name": "id",
							"type": "uint256"
						}
					],
					"name": "ItemDoesNotExist",
					"type": "error"
				},
				{
					"inputs": [
						{
							"components": [
								{
									"internalType": "uint256",
									"name": "id",
									"type": "uint256"
								},
								{
									"internalType": "bytes32",
									"name": "name",
									"type": "bytes32"
								},
								{
									"internalType": "bytes32",
									"name": "description",
									"type": "bytes32"
								}
							],
							"internalType": "struct ContractNV5.Item[]",
							"name": "_items",
							"type": "tuple[]"
						}
					],
					"name": "addItems",
					"outputs": [],
					"stateMutability": "nonpayable",
					"type": "function"
				},
				{
					"inputs": [
						{
							"internalType": "uint256",
							"name": "id",
							"type": "uint256"
						}
					],
					"name": "getItem",
					"outputs": [
						{
							"components": [
								{
									"internalType": "uint256",
									"name": "id",
									"type": "uint256"
								},
								{
									"internalType": "bytes32",
									"name": "name",
									"type": "bytes32"
								},
								{
									"internalType": "bytes32",
									"name": "description",
									"type": "bytes32"
								}
							],
							"internalType": "struct ContractNV5.Item",
							"name": "",
							"type": "tuple"
						}
					],
					"stateMutability": "view",
					"type": "function"
				},
				{
					"inputs": [
						{
							"internalType": "uint256",
							"name": "",
							"type": "uint256"
						}
					],
					"name": "items",
					"outputs": [
						{
							"internalType": "uint256",
							"name": "id",
							"type": "uint256"
						},
						{
							"internalType": "bytes32",
							"name": "name",
							"type": "bytes32"
						},
						{
							"internalType": "bytes32",
							"name": "description",
							"type": "bytes32"
						}
					],
					"stateMutability": "view",
					"type": "function"
				},
				{
					"inputs": [
						{
							"internalType": "uint256[]",
							"name": "ids",
							"type": "uint256[]"
						},
						{
							"internalType": "bytes32[]",
							"name": "descriptions",
							"type": "bytes32[]"
						}
					],
					"name": "updateDescriptions",
					"outputs": [],
					"stateMutability": "nonpayable",
					"type": "function"
				}
			],
			"devdoc": {
				"kind": "dev",
				"methods": {},
				"version": 1
			},
			"evm": {
				"assembly": "    /* \"contracts/ContractN/ContractNV5.sol\":63:2377  contract ContractNV5 {... */\n  mstore(0x40, 0x80)\n  callvalue\n  dup1\n  iszero\n  tag_1\n  jumpi\n  0x00\n  dup1\n  revert\ntag_1:\n  pop\n  dataSize(sub_0)\n  dup1\n  dataOffset(sub_0)\n  0x00\n  codecopy\n  0x00\n  return\nstop\n\nsub_0: assembly {\n        /* \"contracts/ContractN/ContractNV5.sol\":63:2377  contract ContractNV5 {... */\n      mstore(0x40, 0x80)\n      callvalue\n      dup1\n      iszero\n      tag_1\n      jumpi\n      0x00\n      dup1\n      revert\n    tag_1:\n      pop\n      jumpi(tag_2, lt(calldatasize, 0x04))\n      shr(0xe0, calldataload(0x00))\n      dup1\n      0x3129e773\n      eq\n      tag_3\n      jumpi\n      dup1\n      0x8353cc5a\n      eq\n      tag_4\n      jumpi\n      dup1\n      0xb0be77c5\n      eq\n      tag_5\n      jumpi\n      dup1\n      0xbfb231d2\n      eq\n      tag_6\n      jumpi\n    tag_2:\n      0x00\n      dup1\n      revert\n        /* \"contracts/ContractN/ContractNV5.sol\":1174:1272  function getItem(uint256 id) public view returns (Item memory) {... */\n    tag_3:\n      tag_7\n      tag_8\n      calldatasize\n      0x04\n      tag_9\n      jump\t// in\n    tag_8:\n      0x40\n      dup1\n      mload\n      0x60\n      dup1\n      dup3\n      add\n      dup4\n      mstore\n      0x00\n      dup1\n      dup4\n      mstore\n      0x20\n      dup1\n      dup5\n      add\n      dup3\n      swap1\n      mstore\n      swap3\n      dup5\n      add\n      dup2\n      swap1\n      mstore\n        /* \"contracts/ContractN/ContractNV5.sol\":1255:1264  items[id] */\n      swap4\n      dup5\n      mstore\n      dup4\n      dup3\n      mstore\n      swap3\n      dup3\n      swap1\n      keccak256\n        /* \"contracts/ContractN/ContractNV5.sol\":1248:1264  return items[id] */\n      dup3\n      mload\n      swap4\n      dup5\n      add\n      dup4\n      mstore\n      dup1\n      sload\n      dup5\n      mstore\n      0x01\n      dup2\n      add\n      sload\n      swap2\n      dup5\n      add\n      swap2\n      swap1\n      swap2\n      mstore\n      0x02\n      add\n      sload\n      swap1\n      dup3\n      add\n      mstore\n      swap1\n        /* \"contracts/ContractN/ContractNV5.sol\":1174:1272  function getItem(uint256 id) public view returns (Item memory) {... */\n      jump\n    tag_7:\n      0x40\n      dup1\n      mload\n        /* \"#utility.yul\":401:414   */\n      dup3\n      mload\n        /* \"#utility.yul\":383:415   */\n      dup2\n      mstore\n        /* \"#utility.yul\":471:475   */\n      0x20\n        /* \"#utility.yul\":459:476   */\n      dup1\n      dup5\n      add\n        /* \"#utility.yul\":453:477   */\n      mload\n        /* \"#utility.yul\":431:451   */\n      swap1\n      dup3\n      add\n        /* \"#utility.yul\":424:478   */\n      mstore\n        /* \"#utility.yul\":522:539   */\n      swap2\n      dup2\n      add\n        /* \"#utility.yul\":516:540   */\n      mload\n        /* \"#utility.yul\":494:514   */\n      swap1\n      dup3\n      add\n        /* \"#utility.yul\":487:541   */\n      mstore\n        /* \"#utility.yul\":371:373   */\n      0x60\n        /* \"#utility.yul\":356:374   */\n      add\n        /* \"contracts/ContractN/ContractNV5.sol\":1174:1272  function getItem(uint256 id) public view returns (Item memory) {... */\n    tag_11:\n      mload(0x40)\n      dup1\n      swap2\n      sub\n      swap1\n      return\n        /* \"contracts/ContractN/ContractNV5.sol\":946:1166  function updateDescriptions(uint256[] calldata ids, bytes32[] calldata descriptions) public {... */\n    tag_4:\n      tag_13\n      tag_14\n      calldatasize\n      0x04\n      tag_15\n      jump\t// in\n    tag_14:\n      tag_16\n      jump\t// in\n    tag_13:\n      stop\n        /* \"contracts/ContractN/ContractNV5.sol\":783:938  function addItems(Item[] calldata _items) public {... */\n    tag_5:\n      tag_13\n      tag_18\n      calldatasize\n      0x04\n      tag_19\n      jump\t// in\n    tag_18:\n      tag_20\n      jump\t// in\n        /* \"contracts/ContractN/ContractNV5.sol\":193:231  mapping (uint256 => Item) public items */\n    tag_6:\n      tag_21\n      tag_22\n      calldatasize\n      0x04\n      tag_9\n      jump\t// in\n    tag_22:\n      0x00\n      0x20\n      dup2\n      swap1\n      mstore\n      swap1\n      dup2\n      mstore\n      0x40\n      swap1\n      keccak256\n      dup1\n      sload\n      0x01\n      dup3\n      add\n      sload\n      0x02\n      swap1\n      swap3\n      add\n      sload\n      swap1\n      swap2\n      swap1\n      dup4\n      jump\n    tag_21:\n      0x40\n      dup1\n      mload\n        /* \"#utility.yul\":2548:2573   */\n      swap4\n      dup5\n      mstore\n        /* \"#utility.yul\":2604:2606   */\n      0x20\n        /* \"#utility.yul\":2589:2607   */\n      dup5\n      add\n        /* \"#utility.yul\":2582:2616   */\n      swap3\n      swap1\n      swap3\n      mstore\n        /* \"#utility.yul\":2632:2650   */\n      swap1\n      dup3\n      add\n        /* \"#utility.yul\":2625:2659   */\n      mstore\n        /* \"#utility.yul\":2536:2538   */\n      0x60\n        /* \"#utility.yul\":2521:2539   */\n      add\n        /* \"contracts/ContractN/ContractNV5.sol\":193:231  mapping (uint256 => Item) public items */\n      tag_11\n        /* \"#utility.yul\":2346:2665   */\n      jump\n        /* \"contracts/ContractN/ContractNV5.sol\":946:1166  function updateDescriptions(uint256[] calldata ids, bytes32[] calldata descriptions) public {... */\n    tag_16:\n        /* \"contracts/ContractN/ContractNV5.sol\":1054:1063  uint256 i */\n      0x00\n        /* \"contracts/ContractN/ContractNV5.sol\":1049:1159  for (uint256 i = 0; i < ids.length; i++) {... */\n    tag_30:\n        /* \"contracts/ContractN/ContractNV5.sol\":1069:1083  i < ids.length */\n      dup4\n      dup2\n      lt\n        /* \"contracts/ContractN/ContractNV5.sol\":1049:1159  for (uint256 i = 0; i < ids.length; i++) {... */\n      iszero\n      tag_31\n      jumpi\n        /* \"contracts/ContractN/ContractNV5.sol\":1105:1147  updateDescription(ids[i], descriptions[i]) */\n      tag_33\n        /* \"contracts/ContractN/ContractNV5.sol\":1123:1126  ids */\n      dup6\n      dup6\n        /* \"contracts/ContractN/ContractNV5.sol\":1127:1128  i */\n      dup4\n        /* \"contracts/ContractN/ContractNV5.sol\":1123:1129  ids[i] */\n      dup2\n      dup2\n      lt\n      tag_35\n      jumpi\n      tag_35\n      tag_36\n      jump\t// in\n    tag_35:\n      swap1\n      pop\n      0x20\n      mul\n      add\n      calldataload\n        /* \"contracts/ContractN/ContractNV5.sol\":1131:1143  descriptions */\n      dup5\n      dup5\n        /* \"contracts/ContractN/ContractNV5.sol\":1144:1145  i */\n      dup5\n        /* \"contracts/ContractN/ContractNV5.sol\":1131:1146  descriptions[i] */\n      dup2\n      dup2\n      lt\n      tag_38\n      jumpi\n      tag_38\n      tag_36\n      jump\t// in\n    tag_38:\n      swap1\n      pop\n      0x20\n      mul\n      add\n      calldataload\n        /* \"contracts/ContractN/ContractNV5.sol\":1105:1122  updateDescription */\n      tag_39\n        /* \"contracts/ContractN/ContractNV5.sol\":1105:1147  updateDescription(ids[i], descriptions[i]) */\n      jump\t// in\n    tag_33:\n        /* \"contracts/ContractN/ContractNV5.sol\":1085:1088  i++ */\n      0x01\n      add\n        /* \"contracts/ContractN/ContractNV5.sol\":1049:1159  for (uint256 i = 0; i < ids.length; i++) {... */\n      jump(tag_30)\n    tag_31:\n      pop\n        /* \"contracts/ContractN/ContractNV5.sol\":946:1166  function updateDescriptions(uint256[] calldata ids, bytes32[] calldata descriptions) public {... */\n      pop\n      pop\n      pop\n      pop\n      jump\t// out\n        /* \"contracts/ContractN/ContractNV5.sol\":783:938  function addItems(Item[] calldata _items) public {... */\n    tag_20:\n        /* \"contracts/ContractN/ContractNV5.sol\":848:857  uint256 i */\n      0x00\n        /* \"contracts/ContractN/ContractNV5.sol\":843:931  for (uint256 i = 0; i < _items.length; i++) {... */\n    tag_41:\n        /* \"contracts/ContractN/ContractNV5.sol\":863:880  i < _items.length */\n      dup2\n      dup2\n      lt\n        /* \"contracts/ContractN/ContractNV5.sol\":843:931  for (uint256 i = 0; i < _items.length; i++) {... */\n      iszero\n      tag_42\n      jumpi\n        /* \"contracts/ContractN/ContractNV5.sol\":901:919  addItem(_items[i]) */\n      tag_44\n        /* \"contracts/ContractN/ContractNV5.sol\":909:915  _items */\n      dup4\n      dup4\n        /* \"contracts/ContractN/ContractNV5.sol\":916:917  i */\n      dup4\n        /* \"contracts/ContractN/ContractNV5.sol\":909:918  _items[i] */\n      dup2\n      dup2\n      lt\n      tag_46\n      jumpi\n      tag_46\n      tag_36\n      jump\t// in\n    tag_46:\n      swap1\n      pop\n      0x60\n      mul\n      add\n        /* \"contracts/ContractN/ContractNV5.sol\":901:908  addItem */\n      tag_47\n        /* \"contracts/ContractN/ContractNV5.sol\":901:919  addItem(_items[i]) */\n      jump\t// in\n    tag_44:\n        /* \"contracts/ContractN/ContractNV5.sol\":882:885  i++ */\n      0x01\n      add\n        /* \"contracts/ContractN/ContractNV5.sol\":843:931  for (uint256 i = 0; i < _items.length; i++) {... */\n      jump(tag_41)\n    tag_42:\n      pop\n        /* \"contracts/ContractN/ContractNV5.sol\":783:938  function addItems(Item[] calldata _items) public {... */\n      pop\n      pop\n      jump\t// out\n        /* \"contracts/ContractN/ContractNV5.sol\":1429:1641  function updateDescription(uint256 _id, bytes32 _description) private itemExists(_id) isValidDescription(_description) {... */\n    tag_39:\n        /* \"contracts/ContractN/ContractNV5.sol\":1510:1513  _id */\n      dup2\n        /* \"contracts/ContractN/ContractNV5.sol\":605:626  _checkItemExists(_id) */\n      tag_49\n        /* \"contracts/ContractN/ContractNV5.sol\":622:625  _id */\n      dup2\n        /* \"contracts/ContractN/ContractNV5.sol\":605:621  _checkItemExists */\n      tag_50\n        /* \"contracts/ContractN/ContractNV5.sol\":605:626  _checkItemExists(_id) */\n      jump\t// in\n    tag_49:\n        /* \"contracts/ContractN/ContractNV5.sol\":1534:1546  _description */\n      dup2\n        /* \"contracts/ContractN/ContractNV5.sol\":717:753  _checkValidDescription(_description) */\n      tag_52\n        /* \"contracts/ContractN/ContractNV5.sol\":740:752  _description */\n      dup2\n        /* \"contracts/ContractN/ContractNV5.sol\":717:739  _checkValidDescription */\n      tag_53\n        /* \"contracts/ContractN/ContractNV5.sol\":717:753  _checkValidDescription(_description) */\n      jump\t// in\n    tag_52:\n      pop\n      pop\n        /* \"contracts/ContractN/ContractNV5.sol\":1559:1576  Item storage item */\n      0x00\n        /* \"contracts/ContractN/ContractNV5.sol\":1579:1589  items[_id] */\n      swap2\n      dup3\n      mstore\n      0x20\n      dup3\n      swap1\n      mstore\n      0x40\n      swap1\n      swap2\n      keccak256\n        /* \"contracts/ContractN/ContractNV5.sol\":1602:1618  item.description */\n      0x02\n      add\n        /* \"contracts/ContractN/ContractNV5.sol\":1602:1633  item.description = _description */\n      sstore\n        /* \"contracts/ContractN/ContractNV5.sol\":1429:1641  function updateDescription(uint256 _id, bytes32 _description) private itemExists(_id) isValidDescription(_description) {... */\n      jump\t// out\n        /* \"contracts/ContractN/ContractNV5.sol\":1280:1421  function addItem(Item calldata _item) private isValidItem(_item.id, _item.name, _item.description) {... */\n    tag_47:\n        /* \"contracts/ContractN/ContractNV5.sol\":1338:1346  _item.id */\n      dup1\n      calldataload\n        /* \"contracts/ContractN/ContractNV5.sol\":1348:1358  _item.name */\n      0x20\n      dup3\n      add\n      calldataload\n        /* \"contracts/ContractN/ContractNV5.sol\":1360:1377  _item.description */\n      0x40\n      dup4\n      add\n      calldataload\n        /* \"contracts/ContractN/ContractNV5.sol\":490:531  _checkValidItem(_id, _name, _description) */\n      tag_56\n        /* \"contracts/ContractN/ContractNV5.sol\":1338:1346  _item.id */\n      dup4\n        /* \"contracts/ContractN/ContractNV5.sol\":1348:1358  _item.name */\n      dup4\n        /* \"contracts/ContractN/ContractNV5.sol\":1360:1377  _item.description */\n      dup4\n        /* \"contracts/ContractN/ContractNV5.sol\":490:505  _checkValidItem */\n      tag_57\n        /* \"contracts/ContractN/ContractNV5.sol\":490:531  _checkValidItem(_id, _name, _description) */\n      jump\t// in\n    tag_56:\n      pop\n      pop\n      pop\n        /* \"contracts/ContractN/ContractNV5.sol\":1396:1404  _item.id */\n      dup1\n      calldataload\n        /* \"contracts/ContractN/ContractNV5.sol\":1390:1395  items */\n      0x00\n        /* \"contracts/ContractN/ContractNV5.sol\":1390:1405  items[_item.id] */\n      dup2\n      dup2\n      mstore\n      0x20\n      dup2\n      dup2\n      mstore\n      0x40\n      swap2\n      dup3\n      swap1\n      keccak256\n        /* \"#utility.yul\":2984:3017   */\n      swap3\n      dup4\n      sstore\n        /* \"#utility.yul\":3060:3074   */\n      dup4\n      add\n        /* \"#utility.yul\":3047:3075   */\n      calldataload\n        /* \"#utility.yul\":3043:3044   */\n      0x01\n        /* \"#utility.yul\":3033:3045   */\n      dup4\n      add\n        /* \"#utility.yul\":3026:3076   */\n      sstore\n        /* \"#utility.yul\":3119:3133   */\n      swap1\n      swap2\n      add\n        /* \"#utility.yul\":3106:3134   */\n      calldataload\n        /* \"#utility.yul\":3102:3103   */\n      0x02\n        /* \"#utility.yul\":3092:3104   */\n      swap1\n      swap2\n      add\n        /* \"#utility.yul\":3085:3135   */\n      sstore\n        /* \"contracts/ContractN/ContractNV5.sol\":1280:1421  function addItem(Item calldata _item) private isValidItem(_item.id, _item.name, _item.description) {... */\n      jump\t// out\n        /* \"contracts/ContractN/ContractNV5.sol\":2033:2194  function _checkItemExists(uint256 _id) internal view {... */\n    tag_50:\n        /* \"contracts/ContractN/ContractNV5.sol\":2128:2129  0 */\n      0x00\n        /* \"contracts/ContractN/ContractNV5.sol\":2101:2111  items[_id] */\n      dup2\n      dup2\n      mstore\n      0x20\n      dup2\n      swap1\n      mstore\n      0x40\n      swap1\n      keccak256\n        /* \"contracts/ContractN/ContractNV5.sol\":2101:2116  items[_id].name */\n      0x01\n      add\n      sload\n        /* \"contracts/ContractN/ContractNV5.sol\":2097:2187  if (items[_id].name == bytes32(0)) {... */\n      tag_62\n      jumpi\n        /* \"contracts/ContractN/ContractNV5.sol\":2154:2175  ItemDoesNotExist(_id) */\n      mload(0x40)\n      0x0e84ff8a00000000000000000000000000000000000000000000000000000000\n      dup2\n      mstore\n      0x04\n      dup2\n      add\n        /* \"#utility.yul\":3292:3317   */\n      dup3\n      swap1\n      mstore\n        /* \"#utility.yul\":3265:3283   */\n      0x24\n      add\n        /* \"contracts/ContractN/ContractNV5.sol\":2154:2175  ItemDoesNotExist(_id) */\n    tag_63:\n      mload(0x40)\n      dup1\n      swap2\n      sub\n      swap1\n      revert\n        /* \"contracts/ContractN/ContractNV5.sol\":2097:2187  if (items[_id].name == bytes32(0)) {... */\n    tag_62:\n        /* \"contracts/ContractN/ContractNV5.sol\":2033:2194  function _checkItemExists(uint256 _id) internal view {... */\n      pop\n      jump\t// out\n        /* \"contracts/ContractN/ContractNV5.sol\":2202:2374  function _checkValidDescription(bytes32 _description) internal pure {... */\n    tag_53:\n        /* \"contracts/ContractN/ContractNV5.sol\":2285:2297  _description */\n      dup1\n        /* \"contracts/ContractN/ContractNV5.sol\":2281:2367  if (_description == bytes32(0)) {... */\n      tag_62\n      jumpi\n        /* \"contracts/ContractN/ContractNV5.sol\":2335:2355  InvalidDescription() */\n      mload(0x40)\n      shl(0xe0, 0x40132f1f)\n      dup2\n      mstore\n      0x04\n      add\n      mload(0x40)\n      dup1\n      swap2\n      sub\n      swap1\n      revert\n        /* \"contracts/ContractN/ContractNV5.sol\":1649:2025  function _checkValidItem(uint256 _id, bytes32 _name, bytes32 _description) internal view {... */\n    tag_57:\n        /* \"contracts/ContractN/ContractNV5.sol\":1780:1781  0 */\n      0x00\n        /* \"contracts/ContractN/ContractNV5.sol\":1753:1763  items[_id] */\n      dup4\n      dup2\n      mstore\n      0x20\n      dup2\n      swap1\n      mstore\n      0x40\n      swap1\n      keccak256\n        /* \"contracts/ContractN/ContractNV5.sol\":1753:1768  items[_id].name */\n      0x01\n      add\n      sload\n        /* \"contracts/ContractN/ContractNV5.sol\":1753:1782  items[_id].name != bytes32(0) */\n      iszero\n        /* \"contracts/ContractN/ContractNV5.sol\":1749:1840  if (items[_id].name != bytes32(0)) {... */\n      tag_68\n      jumpi\n        /* \"contracts/ContractN/ContractNV5.sol\":1806:1828  ItemAlreadyExists(_id) */\n      mload(0x40)\n      0x672139b300000000000000000000000000000000000000000000000000000000\n      dup2\n      mstore\n      0x04\n      dup2\n      add\n        /* \"#utility.yul\":3292:3317   */\n      dup5\n      swap1\n      mstore\n        /* \"#utility.yul\":3265:3283   */\n      0x24\n      add\n        /* \"contracts/ContractN/ContractNV5.sol\":1806:1828  ItemAlreadyExists(_id) */\n      tag_63\n        /* \"#utility.yul\":3146:3323   */\n      jump\n        /* \"contracts/ContractN/ContractNV5.sol\":1749:1840  if (items[_id].name != bytes32(0)) {... */\n    tag_68:\n        /* \"contracts/ContractN/ContractNV5.sol\":1854:1859  _name */\n      dup2\n        /* \"contracts/ContractN/ContractNV5.sol\":1850:1922  if (_name == bytes32(0)) {... */\n      tag_70\n      jumpi\n        /* \"contracts/ContractN/ContractNV5.sol\":1897:1910  InvalidName() */\n      mload(0x40)\n      0x430f13b300000000000000000000000000000000000000000000000000000000\n      dup2\n      mstore\n      0x04\n      add\n      mload(0x40)\n      dup1\n      swap2\n      sub\n      swap1\n      revert\n        /* \"contracts/ContractN/ContractNV5.sol\":1850:1922  if (_name == bytes32(0)) {... */\n    tag_70:\n        /* \"contracts/ContractN/ContractNV5.sol\":1936:1948  _description */\n      dup1\n        /* \"contracts/ContractN/ContractNV5.sol\":1932:2018  if (_description == bytes32(0)) {... */\n      tag_42\n      jumpi\n        /* \"contracts/ContractN/ContractNV5.sol\":1986:2006  InvalidDescription() */\n      mload(0x40)\n      shl(0xe0, 0x40132f1f)\n      dup2\n      mstore\n      0x04\n      add\n      mload(0x40)\n      dup1\n      swap2\n      sub\n      swap1\n      revert\n        /* \"#utility.yul\":14:194   */\n    tag_9:\n        /* \"#utility.yul\":73:79   */\n      0x00\n        /* \"#utility.yul\":126:128   */\n      0x20\n        /* \"#utility.yul\":114:123   */\n      dup3\n        /* \"#utility.yul\":105:112   */\n      dup5\n        /* \"#utility.yul\":101:124   */\n      sub\n        /* \"#utility.yul\":97:129   */\n      slt\n        /* \"#utility.yul\":94:146   */\n      iszero\n      tag_75\n      jumpi\n        /* \"#utility.yul\":142:143   */\n      0x00\n        /* \"#utility.yul\":139:140   */\n      dup1\n        /* \"#utility.yul\":132:144   */\n      revert\n        /* \"#utility.yul\":94:146   */\n    tag_75:\n      pop\n        /* \"#utility.yul\":165:188   */\n      calldataload\n      swap2\n        /* \"#utility.yul\":14:194   */\n      swap1\n      pop\n      jump\t// out\n        /* \"#utility.yul\":552:919   */\n    tag_72:\n        /* \"#utility.yul\":615:623   */\n      0x00\n        /* \"#utility.yul\":625:631   */\n      dup1\n        /* \"#utility.yul\":679:682   */\n      dup4\n        /* \"#utility.yul\":672:676   */\n      0x1f\n        /* \"#utility.yul\":664:670   */\n      dup5\n        /* \"#utility.yul\":660:677   */\n      add\n        /* \"#utility.yul\":656:683   */\n      slt\n        /* \"#utility.yul\":646:701   */\n      tag_78\n      jumpi\n        /* \"#utility.yul\":697:698   */\n      0x00\n        /* \"#utility.yul\":694:695   */\n      dup1\n        /* \"#utility.yul\":687:699   */\n      revert\n        /* \"#utility.yul\":646:701   */\n    tag_78:\n      pop\n        /* \"#utility.yul\":720:740   */\n      dup2\n      calldataload\n        /* \"#utility.yul\":763:781   */\n      0xffffffffffffffff\n        /* \"#utility.yul\":752:782   */\n      dup2\n      gt\n        /* \"#utility.yul\":749:799   */\n      iszero\n      tag_79\n      jumpi\n        /* \"#utility.yul\":795:796   */\n      0x00\n        /* \"#utility.yul\":792:793   */\n      dup1\n        /* \"#utility.yul\":785:797   */\n      revert\n        /* \"#utility.yul\":749:799   */\n    tag_79:\n        /* \"#utility.yul\":832:836   */\n      0x20\n        /* \"#utility.yul\":824:830   */\n      dup4\n        /* \"#utility.yul\":820:837   */\n      add\n        /* \"#utility.yul\":808:837   */\n      swap2\n      pop\n        /* \"#utility.yul\":892:895   */\n      dup4\n        /* \"#utility.yul\":885:889   */\n      0x20\n        /* \"#utility.yul\":875:881   */\n      dup3\n        /* \"#utility.yul\":872:873   */\n      0x05\n        /* \"#utility.yul\":868:882   */\n      shl\n        /* \"#utility.yul\":860:866   */\n      dup6\n        /* \"#utility.yul\":856:883   */\n      add\n        /* \"#utility.yul\":852:890   */\n      add\n        /* \"#utility.yul\":849:896   */\n      gt\n        /* \"#utility.yul\":846:913   */\n      iszero\n      tag_80\n      jumpi\n        /* \"#utility.yul\":909:910   */\n      0x00\n        /* \"#utility.yul\":906:907   */\n      dup1\n        /* \"#utility.yul\":899:911   */\n      revert\n        /* \"#utility.yul\":846:913   */\n    tag_80:\n        /* \"#utility.yul\":552:919   */\n      swap3\n      pop\n      swap3\n      swap1\n      pop\n      jump\t// out\n        /* \"#utility.yul\":924:1697   */\n    tag_15:\n        /* \"#utility.yul\":1046:1052   */\n      0x00\n        /* \"#utility.yul\":1054:1060   */\n      dup1\n        /* \"#utility.yul\":1062:1068   */\n      0x00\n        /* \"#utility.yul\":1070:1076   */\n      dup1\n        /* \"#utility.yul\":1123:1125   */\n      0x40\n        /* \"#utility.yul\":1111:1120   */\n      dup6\n        /* \"#utility.yul\":1102:1109   */\n      dup8\n        /* \"#utility.yul\":1098:1121   */\n      sub\n        /* \"#utility.yul\":1094:1126   */\n      slt\n        /* \"#utility.yul\":1091:1143   */\n      iszero\n      tag_82\n      jumpi\n        /* \"#utility.yul\":1139:1140   */\n      0x00\n        /* \"#utility.yul\":1136:1137   */\n      dup1\n        /* \"#utility.yul\":1129:1141   */\n      revert\n        /* \"#utility.yul\":1091:1143   */\n    tag_82:\n        /* \"#utility.yul\":1179:1188   */\n      dup5\n        /* \"#utility.yul\":1166:1189   */\n      calldataload\n        /* \"#utility.yul\":1208:1226   */\n      0xffffffffffffffff\n        /* \"#utility.yul\":1249:1251   */\n      dup1\n        /* \"#utility.yul\":1241:1247   */\n      dup3\n        /* \"#utility.yul\":1238:1252   */\n      gt\n        /* \"#utility.yul\":1235:1269   */\n      iszero\n      tag_83\n      jumpi\n        /* \"#utility.yul\":1265:1266   */\n      0x00\n        /* \"#utility.yul\":1262:1263   */\n      dup1\n        /* \"#utility.yul\":1255:1267   */\n      revert\n        /* \"#utility.yul\":1235:1269   */\n    tag_83:\n        /* \"#utility.yul\":1304:1374   */\n      tag_84\n        /* \"#utility.yul\":1366:1373   */\n      dup9\n        /* \"#utility.yul\":1357:1363   */\n      dup4\n        /* \"#utility.yul\":1346:1355   */\n      dup10\n        /* \"#utility.yul\":1342:1364   */\n      add\n        /* \"#utility.yul\":1304:1374   */\n      tag_72\n      jump\t// in\n    tag_84:\n        /* \"#utility.yul\":1393:1401   */\n      swap1\n      swap7\n      pop\n        /* \"#utility.yul\":1278:1374   */\n      swap5\n      pop\n        /* \"#utility.yul\":1481:1483   */\n      0x20\n        /* \"#utility.yul\":1466:1484   */\n      dup8\n      add\n        /* \"#utility.yul\":1453:1485   */\n      calldataload\n      swap2\n      pop\n        /* \"#utility.yul\":1497:1513   */\n      dup1\n      dup3\n      gt\n        /* \"#utility.yul\":1494:1530   */\n      iszero\n      tag_85\n      jumpi\n        /* \"#utility.yul\":1526:1527   */\n      0x00\n        /* \"#utility.yul\":1523:1524   */\n      dup1\n        /* \"#utility.yul\":1516:1528   */\n      revert\n        /* \"#utility.yul\":1494:1530   */\n    tag_85:\n      pop\n        /* \"#utility.yul\":1565:1637   */\n      tag_86\n        /* \"#utility.yul\":1629:1636   */\n      dup8\n        /* \"#utility.yul\":1618:1626   */\n      dup3\n        /* \"#utility.yul\":1607:1616   */\n      dup9\n        /* \"#utility.yul\":1603:1627   */\n      add\n        /* \"#utility.yul\":1565:1637   */\n      tag_72\n      jump\t// in\n    tag_86:\n        /* \"#utility.yul\":924:1697   */\n      swap6\n      swap9\n      swap5\n      swap8\n      pop\n        /* \"#utility.yul\":1656:1664   */\n      swap6\n      pop\n      pop\n      pop\n      pop\n        /* \"#utility.yul\":924:1697   */\n      jump\t// out\n        /* \"#utility.yul\":1702:2341   */\n    tag_19:\n        /* \"#utility.yul\":1809:1815   */\n      0x00\n        /* \"#utility.yul\":1817:1823   */\n      dup1\n        /* \"#utility.yul\":1870:1872   */\n      0x20\n        /* \"#utility.yul\":1858:1867   */\n      dup4\n        /* \"#utility.yul\":1849:1856   */\n      dup6\n        /* \"#utility.yul\":1845:1868   */\n      sub\n        /* \"#utility.yul\":1841:1873   */\n      slt\n        /* \"#utility.yul\":1838:1890   */\n      iszero\n      tag_88\n      jumpi\n        /* \"#utility.yul\":1886:1887   */\n      0x00\n        /* \"#utility.yul\":1883:1884   */\n      dup1\n        /* \"#utility.yul\":1876:1888   */\n      revert\n        /* \"#utility.yul\":1838:1890   */\n    tag_88:\n        /* \"#utility.yul\":1926:1935   */\n      dup3\n        /* \"#utility.yul\":1913:1936   */\n      calldataload\n        /* \"#utility.yul\":1955:1973   */\n      0xffffffffffffffff\n        /* \"#utility.yul\":1996:1998   */\n      dup1\n        /* \"#utility.yul\":1988:1994   */\n      dup3\n        /* \"#utility.yul\":1985:1999   */\n      gt\n        /* \"#utility.yul\":1982:2016   */\n      iszero\n      tag_89\n      jumpi\n        /* \"#utility.yul\":2012:2013   */\n      0x00\n        /* \"#utility.yul\":2009:2010   */\n      dup1\n        /* \"#utility.yul\":2002:2014   */\n      revert\n        /* \"#utility.yul\":1982:2016   */\n    tag_89:\n        /* \"#utility.yul\":2050:2056   */\n      dup2\n        /* \"#utility.yul\":2039:2048   */\n      dup6\n        /* \"#utility.yul\":2035:2057   */\n      add\n        /* \"#utility.yul\":2025:2057   */\n      swap2\n      pop\n        /* \"#utility.yul\":2095:2102   */\n      dup6\n        /* \"#utility.yul\":2088:2092   */\n      0x1f\n        /* \"#utility.yul\":2084:2086   */\n      dup4\n        /* \"#utility.yul\":2080:2093   */\n      add\n        /* \"#utility.yul\":2076:2103   */\n      slt\n        /* \"#utility.yul\":2066:2121   */\n      tag_90\n      jumpi\n        /* \"#utility.yul\":2117:2118   */\n      0x00\n        /* \"#utility.yul\":2114:2115   */\n      dup1\n        /* \"#utility.yul\":2107:2119   */\n      revert\n        /* \"#utility.yul\":2066:2121   */\n    tag_90:\n        /* \"#utility.yul\":2157:2159   */\n      dup2\n        /* \"#utility.yul\":2144:2160   */\n      calldataload\n        /* \"#utility.yul\":2183:2185   */\n      dup2\n        /* \"#utility.yul\":2175:2181   */\n      dup2\n        /* \"#utility.yul\":2172:2186   */\n      gt\n        /* \"#utility.yul\":2169:2203   */\n      iszero\n      tag_91\n      jumpi\n        /* \"#utility.yul\":2199:2200   */\n      0x00\n        /* \"#utility.yul\":2196:2197   */\n      dup1\n        /* \"#utility.yul\":2189:2201   */\n      revert\n        /* \"#utility.yul\":2169:2203   */\n    tag_91:\n        /* \"#utility.yul\":2255:2262   */\n      dup7\n        /* \"#utility.yul\":2250:2252   */\n      0x20\n        /* \"#utility.yul\":2242:2246   */\n      0x60\n        /* \"#utility.yul\":2234:2240   */\n      dup4\n        /* \"#utility.yul\":2230:2247   */\n      mul\n        /* \"#utility.yul\":2226:2228   */\n      dup6\n        /* \"#utility.yul\":2222:2248   */\n      add\n        /* \"#utility.yul\":2218:2253   */\n      add\n        /* \"#utility.yul\":2215:2263   */\n      gt\n        /* \"#utility.yul\":2212:2280   */\n      iszero\n      tag_92\n      jumpi\n        /* \"#utility.yul\":2276:2277   */\n      0x00\n        /* \"#utility.yul\":2273:2274   */\n      dup1\n        /* \"#utility.yul\":2266:2278   */\n      revert\n        /* \"#utility.yul\":2212:2280   */\n    tag_92:\n        /* \"#utility.yul\":2307:2309   */\n      0x20\n        /* \"#utility.yul\":2299:2310   */\n      swap3\n      swap1\n      swap3\n      add\n      swap7\n        /* \"#utility.yul\":2329:2335   */\n      swap2\n      swap6\n      pop\n        /* \"#utility.yul\":1702:2341   */\n      swap1\n      swap4\n      pop\n      pop\n      pop\n      pop\n      jump\t// out\n        /* \"#utility.yul\":2670:2854   */\n    tag_36:\n        /* \"#utility.yul\":2722:2799   */\n      0x4e487b7100000000000000000000000000000000000000000000000000000000\n        /* \"#utility.yul\":2719:2720   */\n      0x00\n        /* \"#utility.yul\":2712:2800   */\n      mstore\n        /* \"#utility.yul\":2819:2823   */\n      0x32\n        /* \"#utility.yul\":2816:2817   */\n      0x04\n        /* \"#utility.yul\":2809:2824   */\n      mstore\n        /* \"#utility.yul\":2843:2847   */\n      0x24\n        /* \"#utility.yul\":2840:2841   */\n      0x00\n        /* \"#utility.yul\":2833:2848   */\n      revert\n\n    auxdata: 0xa264697066735822122016985c28432995dd895c1d9a7b2049e8b74af39c1fcbd0c63870346d408b549c64736f6c63430008190033\n}\n",
				"bytecode": {
					"linkReferences": {},
					"object": "6080604052348015600e575f80fd5b506104db8061001c5f395ff3fe608060405234801561000f575f80fd5b506004361061004a575f3560e01c80633129e7731461004e5780638353cc5a146100cc578063b0be77c5146100e1578063bfb231d2146100f4575b5f80fd5b6100a561005c366004610343565b60408051606080820183525f8083526020808401829052928401819052938452838252928290208251938401835280548452600181015491840191909152600201549082015290565b60408051825181526020808401519082015291810151908201526060015b60405180910390f35b6100df6100da3660046103a2565b61013d565b005b6100df6100ef366004610409565b610190565b610122610102366004610343565b5f6020819052908152604090208054600182015460029092015490919083565b604080519384526020840192909252908201526060016100c3565b5f5b838110156101895761018185858381811061015c5761015c610478565b9050602002013584848481811061017557610175610478565b905060200201356101c7565b60010161013f565b5050505050565b5f5b818110156101c2576101ba8383838181106101af576101af610478565b9050606002016101f1565b600101610192565b505050565b816101d181610233565b816101db81610285565b50505f9182526020829052604090912060020155565b8035602082013560408301356102088383836102a3565b50505080355f8181526020818152604091829020928355830135600183015590910135600290910155565b5f81815260208190526040902060010154610282576040517f0e84ff8a000000000000000000000000000000000000000000000000000000008152600481018290526024015b60405180910390fd5b50565b80610282576040516340132f1f60e01b815260040160405180910390fd5b5f83815260208190526040902060010154156102ee576040517f672139b300000000000000000000000000000000000000000000000000000000815260048101849052602401610279565b81610325576040517f430f13b300000000000000000000000000000000000000000000000000000000815260040160405180910390fd5b806101c2576040516340132f1f60e01b815260040160405180910390fd5b5f60208284031215610353575f80fd5b5035919050565b5f8083601f84011261036a575f80fd5b50813567ffffffffffffffff811115610381575f80fd5b6020830191508360208260051b850101111561039b575f80fd5b9250929050565b5f805f80604085870312156103b5575f80fd5b843567ffffffffffffffff808211156103cc575f80fd5b6103d88883890161035a565b909650945060208701359150808211156103f0575f80fd5b506103fd8782880161035a565b95989497509550505050565b5f806020838503121561041a575f80fd5b823567ffffffffffffffff80821115610431575f80fd5b818501915085601f830112610444575f80fd5b813581811115610452575f80fd5b866020606083028501011115610466575f80fd5b60209290920196919550909350505050565b7f4e487b71000000000000000000000000000000000000000000000000000000005f52603260045260245ffdfea264697066735822122016985c28432995dd895c1d9a7b2049e8b74af39c1fcbd0c63870346d408b549c64736f6c63430008190033",
					"opcodes": "PUSH1 0x80 PUSH1 0x40 MSTORE CALLVALUE DUP1 ISZERO PUSH1 0xE JUMPI PUSH0 DUP1 REVERT JUMPDEST POP PUSH2 0x4DB DUP1 PUSH2 0x1C PUSH0 CODECOPY PUSH0 RETURN INVALID PUSH1 0x80 PUSH1 0x40 MSTORE CALLVALUE DUP1 ISZERO PUSH2 0xF JUMPI PUSH0 DUP1 REVERT JUMPDEST POP PUSH1 0x4 CALLDATASIZE LT PUSH2 0x4A JUMPI PUSH0 CALLDATALOAD PUSH1 0xE0 SHR DUP1 PUSH4 0x3129E773 EQ PUSH2 0x4E JUMPI DUP1 PUSH4 0x8353CC5A EQ PUSH2 0xCC JUMPI DUP1 PUSH4 0xB0BE77C5 EQ PUSH2 0xE1 JUMPI DUP1 PUSH4 0xBFB231D2 EQ PUSH2 0xF4 JUMPI JUMPDEST PUSH0 DUP1 REVERT JUMPDEST PUSH2 0xA5 PUSH2 0x5C CALLDATASIZE PUSH1 0x4 PUSH2 0x343 JUMP JUMPDEST PUSH1 0x40 DUP1 MLOAD PUSH1 0x60 DUP1 DUP3 ADD DUP4 MSTORE PUSH0 DUP1 DUP4 MSTORE PUSH1 0x20 DUP1 DUP5 ADD DUP3 SWAP1 MSTORE SWAP3 DUP5 ADD DUP2 SWAP1 MSTORE SWAP4 DUP5 MSTORE DUP4 DUP3 MSTORE SWAP3 DUP3 SWAP1 KECCAK256 DUP3 MLOAD SWAP4 DUP5 ADD DUP4 MSTORE DUP1 SLOAD DUP5 MSTORE PUSH1 0x1 DUP2 ADD SLOAD SWAP2 DUP5 ADD SWAP2 SWAP1 SWAP2 MSTORE PUSH1 0x2 ADD SLOAD SWAP1 DUP3 ADD MSTORE SWAP1 JUMP JUMPDEST PUSH1 0x40 DUP1 MLOAD DUP3 MLOAD DUP2 MSTORE PUSH1 0x20 DUP1 DUP5 ADD MLOAD SWAP1 DUP3 ADD MSTORE SWAP2 DUP2 ADD MLOAD SWAP1 DUP3 ADD MSTORE PUSH1 0x60 ADD JUMPDEST PUSH1 0x40 MLOAD DUP1 SWAP2 SUB SWAP1 RETURN JUMPDEST PUSH2 0xDF PUSH2 0xDA CALLDATASIZE PUSH1 0x4 PUSH2 0x3A2 JUMP JUMPDEST PUSH2 0x13D JUMP JUMPDEST STOP JUMPDEST PUSH2 0xDF PUSH2 0xEF CALLDATASIZE PUSH1 0x4 PUSH2 0x409 JUMP JUMPDEST PUSH2 0x190 JUMP JUMPDEST PUSH2 0x122 PUSH2 0x102 CALLDATASIZE PUSH1 0x4 PUSH2 0x343 JUMP JUMPDEST PUSH0 PUSH1 0x20 DUP2 SWAP1 MSTORE SWAP1 DUP2 MSTORE PUSH1 0x40 SWAP1 KECCAK256 DUP1 SLOAD PUSH1 0x1 DUP3 ADD SLOAD PUSH1 0x2 SWAP1 SWAP3 ADD SLOAD SWAP1 SWAP2 SWAP1 DUP4 JUMP JUMPDEST PUSH1 0x40 DUP1 MLOAD SWAP4 DUP5 MSTORE PUSH1 0x20 DUP5 ADD SWAP3 SWAP1 SWAP3 MSTORE SWAP1 DUP3 ADD MSTORE PUSH1 0x60 ADD PUSH2 0xC3 JUMP JUMPDEST PUSH0 JUMPDEST DUP4 DUP2 LT ISZERO PUSH2 0x189 JUMPI PUSH2 0x181 DUP6 DUP6 DUP4 DUP2 DUP2 LT PUSH2 0x15C JUMPI PUSH2 0x15C PUSH2 0x478 JUMP JUMPDEST SWAP1 POP PUSH1 0x20 MUL ADD CALLDATALOAD DUP5 DUP5 DUP5 DUP2 DUP2 LT PUSH2 0x175 JUMPI PUSH2 0x175 PUSH2 0x478 JUMP JUMPDEST SWAP1 POP PUSH1 0x20 MUL ADD CALLDATALOAD PUSH2 0x1C7 JUMP JUMPDEST PUSH1 0x1 ADD PUSH2 0x13F JUMP JUMPDEST POP POP POP POP POP JUMP JUMPDEST PUSH0 JUMPDEST DUP2 DUP2 LT ISZERO PUSH2 0x1C2 JUMPI PUSH2 0x1BA DUP4 DUP4 DUP4 DUP2 DUP2 LT PUSH2 0x1AF JUMPI PUSH2 0x1AF PUSH2 0x478 JUMP JUMPDEST SWAP1 POP PUSH1 0x60 MUL ADD PUSH2 0x1F1 JUMP JUMPDEST PUSH1 0x1 ADD PUSH2 0x192 JUMP JUMPDEST POP POP POP JUMP JUMPDEST DUP2 PUSH2 0x1D1 DUP2 PUSH2 0x233 JUMP JUMPDEST DUP2 PUSH2 0x1DB DUP2 PUSH2 0x285 JUMP JUMPDEST POP POP PUSH0 SWAP2 DUP3 MSTORE PUSH1 0x20 DUP3 SWAP1 MSTORE PUSH1 0x40 SWAP1 SWAP2 KECCAK256 PUSH1 0x2 ADD SSTORE JUMP JUMPDEST DUP1 CALLDATALOAD PUSH1 0x20 DUP3 ADD CALLDATALOAD PUSH1 0x40 DUP4 ADD CALLDATALOAD PUSH2 0x208 DUP4 DUP4 DUP4 PUSH2 0x2A3 JUMP JUMPDEST POP POP POP DUP1 CALLDATALOAD PUSH0 DUP2 DUP2 MSTORE PUSH1 0x20 DUP2 DUP2 MSTORE PUSH1 0x40 SWAP2 DUP3 SWAP1 KECCAK256 SWAP3 DUP4 SSTORE DUP4 ADD CALLDATALOAD PUSH1 0x1 DUP4 ADD SSTORE SWAP1 SWAP2 ADD CALLDATALOAD PUSH1 0x2 SWAP1 SWAP2 ADD SSTORE JUMP JUMPDEST PUSH0 DUP2 DUP2 MSTORE PUSH1 0x20 DUP2 SWAP1 MSTORE PUSH1 0x40 SWAP1 KECCAK256 PUSH1 0x1 ADD SLOAD PUSH2 0x282 JUMPI PUSH1 0x40 MLOAD PUSH32 0xE84FF8A00000000000000000000000000000000000000000000000000000000 DUP2 MSTORE PUSH1 0x4 DUP2 ADD DUP3 SWAP1 MSTORE PUSH1 0x24 ADD JUMPDEST PUSH1 0x40 MLOAD DUP1 SWAP2 SUB SWAP1 REVERT JUMPDEST POP JUMP JUMPDEST DUP1 PUSH2 0x282 JUMPI PUSH1 0x40 MLOAD PUSH4 0x40132F1F PUSH1 0xE0 SHL DUP2 MSTORE PUSH1 0x4 ADD PUSH1 0x40 MLOAD DUP1 SWAP2 SUB SWAP1 REVERT JUMPDEST PUSH0 DUP4 DUP2 MSTORE PUSH1 0x20 DUP2 SWAP1 MSTORE PUSH1 0x40 SWAP1 KECCAK256 PUSH1 0x1 ADD SLOAD ISZERO PUSH2 0x2EE JUMPI PUSH1 0x40 MLOAD PUSH32 0x672139B300000000000000000000000000000000000000000000000000000000 DUP2 MSTORE PUSH1 0x4 DUP2 ADD DUP5 SWAP1 MSTORE PUSH1 0x24 ADD PUSH2 0x279 JUMP JUMPDEST DUP2 PUSH2 0x325 JUMPI PUSH1 0x40 MLOAD PUSH32 0x430F13B300000000000000000000000000000000000000000000000000000000 DUP2 MSTORE PUSH1 0x4 ADD PUSH1 0x40 MLOAD DUP1 SWAP2 SUB SWAP1 REVERT JUMPDEST DUP1 PUSH2 0x1C2 JUMPI PUSH1 0x40 MLOAD PUSH4 0x40132F1F PUSH1 0xE0 SHL DUP2 MSTORE PUSH1 0x4 ADD PUSH1 0x40 MLOAD DUP1 SWAP2 SUB SWAP1 REVERT JUMPDEST PUSH0 PUSH1 0x20 DUP3 DUP5 SUB SLT ISZERO PUSH2 0x353 JUMPI PUSH0 DUP1 REVERT JUMPDEST POP CALLDATALOAD SWAP2 SWAP1 POP JUMP JUMPDEST PUSH0 DUP1 DUP4 PUSH1 0x1F DUP5 ADD SLT PUSH2 0x36A JUMPI PUSH0 DUP1 REVERT JUMPDEST POP DUP2 CALLDATALOAD PUSH8 0xFFFFFFFFFFFFFFFF DUP2 GT ISZERO PUSH2 0x381 JUMPI PUSH0 DUP1 REVERT JUMPDEST PUSH1 0x20 DUP4 ADD SWAP2 POP DUP4 PUSH1 0x20 DUP3 PUSH1 0x5 SHL DUP6 ADD ADD GT ISZERO PUSH2 0x39B JUMPI PUSH0 DUP1 REVERT JUMPDEST SWAP3 POP SWAP3 SWAP1 POP JUMP JUMPDEST PUSH0 DUP1 PUSH0 DUP1 PUSH1 0x40 DUP6 DUP8 SUB SLT ISZERO PUSH2 0x3B5 JUMPI PUSH0 DUP1 REVERT JUMPDEST DUP5 CALLDATALOAD PUSH8 0xFFFFFFFFFFFFFFFF DUP1 DUP3 GT ISZERO PUSH2 0x3CC JUMPI PUSH0 DUP1 REVERT JUMPDEST PUSH2 0x3D8 DUP9 DUP4 DUP10 ADD PUSH2 0x35A JUMP JUMPDEST SWAP1 SWAP7 POP SWAP5 POP PUSH1 0x20 DUP8 ADD CALLDATALOAD SWAP2 POP DUP1 DUP3 GT ISZERO PUSH2 0x3F0 JUMPI PUSH0 DUP1 REVERT JUMPDEST POP PUSH2 0x3FD DUP8 DUP3 DUP9 ADD PUSH2 0x35A JUMP JUMPDEST SWAP6 SWAP9 SWAP5 SWAP8 POP SWAP6 POP POP POP POP JUMP JUMPDEST PUSH0 DUP1 PUSH1 0x20 DUP4 DUP6 SUB SLT ISZERO PUSH2 0x41A JUMPI PUSH0 DUP1 REVERT JUMPDEST DUP3 CALLDATALOAD PUSH8 0xFFFFFFFFFFFFFFFF DUP1 DUP3 GT ISZERO PUSH2 0x431 JUMPI PUSH0 DUP1 REVERT JUMPDEST DUP2 DUP6 ADD SWAP2 POP DUP6 PUSH1 0x1F DUP4 ADD SLT PUSH2 0x444 JUMPI PUSH0 DUP1 REVERT JUMPDEST DUP2 CALLDATALOAD DUP2 DUP2 GT ISZERO PUSH2 0x452 JUMPI PUSH0 DUP1 REVERT JUMPDEST DUP7 PUSH1 0x20 PUSH1 0x60 DUP4 MUL DUP6 ADD ADD GT ISZERO PUSH2 0x466 JUMPI PUSH0 DUP1 REVERT JUMPDEST PUSH1 0x20 SWAP3 SWAP1 SWAP3 ADD SWAP7 SWAP2 SWAP6 POP SWAP1 SWAP4 POP POP POP POP JUMP JUMPDEST PUSH32 0x4E487B7100000000000000000000000000000000000000000000000000000000 PUSH0 MSTORE PUSH1 0x32 PUSH1 0x4 MSTORE PUSH1 0x24 PUSH0 REVERT INVALID LOG2 PUSH5 0x6970667358 0x22 SLT KECCAK256 AND SWAP9 TLOAD 0x28 NUMBER 0x29 SWAP6 0xDD DUP10 TLOAD SAR SWAP11 PUSH28 0x2049E8B74AF39C1FCBD0C63870346D408B549C64736F6C6343000819 STOP CALLER "
				},
				"gasEstimates": {
					"creation": {
						"codeDepositCost": "248600",
						"executionCost": "285",
						"totalCost": "248885"
					},
					"external": {
						"addItems((uint256,bytes32,bytes32)[])": "infinite",
						"getItem(uint256)": "6839",
						"items(uint256)": "6757",
						"updateDescriptions(uint256[],bytes32[])": "infinite"
					},
					"internal": {
						"_checkItemExists(uint256)": "infinite",
						"_checkValidDescription(bytes32)": "infinite",
						"_checkValidItem(uint256,bytes32,bytes32)": "infinite",
						"addItem(struct ContractNV5.Item calldata)": "infinite",
						"updateDescription(uint256,bytes32)": "infinite"
					}
				},
				"methodIdentifiers": {
					"addItems((uint256,bytes32,bytes32)[])": "b0be77c5",
					"getItem(uint256)": "3129e773",
					"items(uint256)": "bfb231d2",
					"updateDescriptions(uint256[],bytes32[])": "8353cc5a"
				}
			},
			"storageLayout": {
				"storage": [
					{
						"astId": 13,
						"contract": "contracts/ContractN/ContractNV5.sol:ContractNV5",
						"label": "items",
						"offset": 0,
						"slot": "0",
						"type": "t_mapping(t_uint256,t_struct(Item)8_storage)"
					}
				],
				"types": {
					"t_bytes32": {
						"encoding": "inplace",
						"label": "bytes32",
						"numberOfBytes": "32"
					},
					"t_mapping(t_uint256,t_struct(Item)8_storage)": {
						"encoding": "mapping",
						"key": "t_uint256",
						"label": "mapping(uint256 => struct ContractNV5.Item)",
						"numberOfBytes": "32",
						"value": "t_struct(Item)8_storage"
					},
					"t_struct(Item)8_storage": {
						"encoding": "inplace",
						"label": "struct ContractNV5.Item",
						"members": [
							{
								"astId": 3,
								"contract": "contracts/ContractN/ContractNV5.sol:ContractNV5",
								"label": "id",
								"offset": 0,
								"slot": "0",
								"type": "t_uint256"
							},
							{
								"astId": 5,
								"contract": "contracts/ContractN/ContractNV5.sol:ContractNV5",
								"label": "name",
								"offset": 0,
								"slot": "1",
								"type": "t_bytes32"
							},
							{
								"astId": 7,
								"contract": "contracts/ContractN/ContractNV5.sol:ContractNV5",
								"label": "description",
								"offset": 0,
								"slot": "2",
								"type": "t_bytes32"
							}
						],
						"numberOfBytes": "96"
					},
					"t_uint256": {
						"encoding": "inplace",
						"label": "uint256",
						"numberOfBytes": "32"
					}
				}
			},
			"userdoc": {
				"kind": "user",
				"methods": {},
				"version": 1
			}
		}
	}
}