{
	"contracts/ContractI/ContractIV14.sol": {
		"ContractIV14": {
			"abi": [
				{
					"inputs": [
						{
							"internalType": "string",
							"name": "name",
							"type": "string"
						},
						{
							"internalType": "uint256",
							"name": "age",
							"type": "uint256"
						}
					],
					"name": "addPerson",
					"outputs": [],
					"stateMutability": "nonpayable",
					"type": "function"
				},
				{
					"inputs": [
						{
							"internalType": "uint256",
							"name": "index",
							"type": "uint256"
						}
					],
					"name": "deletePerson",
					"outputs": [],
					"stateMutability": "nonpayable",
					"type": "function"
				},
				{
					"inputs": [
						{
							"internalType": "uint256",
							"name": "",
							"type": "uint256"
						}
					],
					"name": "person",
					"outputs": [
						{
							"internalType": "string",
							"name": "name",
							"type": "string"
						},
						{
							"internalType": "uint256",
							"name": "age",
							"type": "uint256"
						}
					],
					"stateMutability": "view",
					"type": "function"
				}
			],
			"devdoc": {
				"kind": "dev",
				"methods": {},
				"version": 1
			},
			"evm": {
				"assembly": "    /* \"contracts/ContractI/ContractIV14.sol\":63:635  contract ContractIV14 {... */\n  mstore(0x40, 0x80)\n  callvalue\n  dup1\n  iszero\n  tag_1\n  jumpi\n  0x00\n  dup1\n  revert\ntag_1:\n  pop\n  dataSize(sub_0)\n  dup1\n  dataOffset(sub_0)\n  0x00\n  codecopy\n  0x00\n  return\nstop\n\nsub_0: assembly {\n        /* \"contracts/ContractI/ContractIV14.sol\":63:635  contract ContractIV14 {... */\n      mstore(0x40, 0x80)\n      callvalue\n      dup1\n      iszero\n      tag_1\n      jumpi\n      0x00\n      dup1\n      revert\n    tag_1:\n      pop\n      jumpi(tag_2, lt(calldatasize, 0x04))\n      shr(0xe0, calldataload(0x00))\n      dup1\n      0x092a1820\n      eq\n      tag_3\n      jumpi\n      dup1\n      0x6f760f41\n      eq\n      tag_4\n      jumpi\n      dup1\n      0xd08c6803\n      eq\n      tag_5\n      jumpi\n    tag_2:\n      0x00\n      dup1\n      revert\n        /* \"contracts/ContractI/ContractIV14.sol\":344:385  mapping (uint256 => Person) public person */\n    tag_3:\n      tag_6\n      tag_7\n      calldatasize\n      0x04\n      tag_8\n      jump\t// in\n    tag_7:\n      tag_9\n      jump\t// in\n    tag_6:\n      mload(0x40)\n      tag_10\n      swap3\n      swap2\n      swap1\n      tag_11\n      jump\t// in\n    tag_10:\n      mload(0x40)\n      dup1\n      swap2\n      sub\n      swap1\n      return\n        /* \"contracts/ContractI/ContractIV14.sol\":394:541  function addPerson(string calldata name, uint256 age) public {... */\n    tag_4:\n      tag_12\n      tag_13\n      calldatasize\n      0x04\n      tag_14\n      jump\t// in\n    tag_13:\n      tag_15\n      jump\t// in\n    tag_12:\n      stop\n        /* \"contracts/ContractI/ContractIV14.sol\":549:632  function deletePerson(uint256 index) public {... */\n    tag_5:\n      tag_12\n      tag_17\n      calldatasize\n      0x04\n      tag_8\n      jump\t// in\n    tag_17:\n      tag_18\n      jump\t// in\n        /* \"contracts/ContractI/ContractIV14.sol\":344:385  mapping (uint256 => Person) public person */\n    tag_9:\n      mstore(0x20, 0x01)\n      0x00\n      swap1\n      dup2\n      mstore\n      0x40\n      swap1\n      keccak256\n      dup1\n      sload\n      dup2\n      swap1\n      tag_19\n      swap1\n      tag_20\n      jump\t// in\n    tag_19:\n      dup1\n      0x1f\n      add\n      0x20\n      dup1\n      swap2\n      div\n      mul\n      0x20\n      add\n      mload(0x40)\n      swap1\n      dup2\n      add\n      0x40\n      mstore\n      dup1\n      swap3\n      swap2\n      swap1\n      dup2\n      dup2\n      mstore\n      0x20\n      add\n      dup3\n      dup1\n      sload\n      tag_21\n      swap1\n      tag_20\n      jump\t// in\n    tag_21:\n      dup1\n      iszero\n      tag_22\n      jumpi\n      dup1\n      0x1f\n      lt\n      tag_23\n      jumpi\n      0x0100\n      dup1\n      dup4\n      sload\n      div\n      mul\n      dup4\n      mstore\n      swap2\n      0x20\n      add\n      swap2\n      jump(tag_22)\n    tag_23:\n      dup3\n      add\n      swap2\n      swap1\n      0x00\n      mstore\n      keccak256(0x00, 0x20)\n      swap1\n    tag_24:\n      dup2\n      sload\n      dup2\n      mstore\n      swap1\n      0x01\n      add\n      swap1\n      0x20\n      add\n      dup1\n      dup4\n      gt\n      tag_24\n      jumpi\n      dup3\n      swap1\n      sub\n      0x1f\n      and\n      dup3\n      add\n      swap2\n    tag_22:\n      pop\n      pop\n      pop\n      pop\n      pop\n      swap1\n      dup1\n      0x01\n      add\n      sload\n      swap1\n      pop\n      dup3\n      jump\t// out\n        /* \"contracts/ContractI/ContractIV14.sol\":394:541  function addPerson(string calldata name, uint256 age) public {... */\n    tag_15:\n        /* \"contracts/ContractI/ContractIV14.sol\":489:506  Person(name, age) */\n      0x40\n      dup1\n      mload\n      0x60\n      0x20\n      0x1f\n      dup7\n      add\n      dup2\n      swap1\n      div\n      mul\n      dup3\n      add\n      dup2\n      add\n      dup4\n      mstore\n      swap2\n      dup2\n      add\n      dup5\n      dup2\n      mstore\n      swap1\n      swap2\n      dup3\n      swap2\n      swap1\n        /* \"contracts/ContractI/ContractIV14.sol\":496:500  name */\n      dup7\n      swap1\n      dup7\n      swap1\n      dup2\n      swap1\n        /* \"contracts/ContractI/ContractIV14.sol\":489:506  Person(name, age) */\n      dup6\n      add\n        /* \"contracts/ContractI/ContractIV14.sol\":496:500  name */\n      dup4\n      dup3\n      dup1\n      dup3\n        /* \"contracts/ContractI/ContractIV14.sol\":489:506  Person(name, age) */\n      dup5\n      calldatacopy\n      0x00\n      swap3\n      add\n      dup3\n      swap1\n      mstore\n      pop\n      swap4\n      dup6\n      mstore\n      pop\n      pop\n      pop\n      0x20\n      swap2\n      dup3\n      add\n      dup5\n      swap1\n      mstore\n        /* \"contracts/ContractI/ContractIV14.sol\":473:485  currentIndex */\n      dup1\n      sload\n        /* \"contracts/ContractI/ContractIV14.sol\":466:486  person[currentIndex] */\n      dup2\n      mstore\n        /* \"contracts/ContractI/ContractIV14.sol\":466:472  person */\n      0x01\n        /* \"contracts/ContractI/ContractIV14.sol\":466:486  person[currentIndex] */\n      swap1\n      swap2\n      mstore\n      0x40\n      swap1\n      keccak256\n        /* \"contracts/ContractI/ContractIV14.sol\":466:506  person[currentIndex] = Person(name, age) */\n      dup2\n      mload\n        /* \"contracts/ContractI/ContractIV14.sol\":466:486  person[currentIndex] */\n      dup2\n      swap1\n        /* \"contracts/ContractI/ContractIV14.sol\":466:506  person[currentIndex] = Person(name, age) */\n      tag_26\n      swap1\n        /* \"contracts/ContractI/ContractIV14.sol\":466:486  person[currentIndex] */\n      dup3\n        /* \"contracts/ContractI/ContractIV14.sol\":466:506  person[currentIndex] = Person(name, age) */\n      tag_27\n      jump\t// in\n    tag_26:\n      pop\n      0x20\n      swap2\n      swap1\n      swap2\n      add\n      mload\n      0x01\n      swap1\n      swap2\n      add\n      sstore\n        /* \"contracts/ContractI/ContractIV14.sol\":519:531  currentIndex */\n      0x00\n        /* \"contracts/ContractI/ContractIV14.sol\":519:533  currentIndex++ */\n      dup1\n      sload\n      swap1\n        /* \"contracts/ContractI/ContractIV14.sol\":519:531  currentIndex */\n      dup1\n        /* \"contracts/ContractI/ContractIV14.sol\":519:533  currentIndex++ */\n      tag_28\n      dup4\n      tag_29\n      jump\t// in\n    tag_28:\n      swap2\n      swap1\n      pop\n      sstore\n      pop\n        /* \"contracts/ContractI/ContractIV14.sol\":394:541  function addPerson(string calldata name, uint256 age) public {... */\n      pop\n      pop\n      pop\n      jump\t// out\n        /* \"contracts/ContractI/ContractIV14.sol\":549:632  function deletePerson(uint256 index) public {... */\n    tag_18:\n        /* \"contracts/ContractI/ContractIV14.sol\":611:624  person[index] */\n      0x00\n      dup2\n      dup2\n      mstore\n        /* \"contracts/ContractI/ContractIV14.sol\":611:617  person */\n      0x01\n        /* \"contracts/ContractI/ContractIV14.sol\":611:624  person[index] */\n      0x20\n      mstore\n      0x40\n      dup2\n      keccak256\n      swap1\n        /* \"contracts/ContractI/ContractIV14.sol\":604:624  delete person[index] */\n      tag_31\n        /* \"contracts/ContractI/ContractIV14.sol\":611:624  person[index] */\n      dup3\n      dup3\n        /* \"contracts/ContractI/ContractIV14.sol\":604:624  delete person[index] */\n      tag_32\n      jump\t// in\n    tag_31:\n      0x01\n      dup3\n      add\n      0x00\n      swap1\n      sstore\n      pop\n      pop\n        /* \"contracts/ContractI/ContractIV14.sol\":549:632  function deletePerson(uint256 index) public {... */\n      pop\n      jump\t// out\n    tag_32:\n      pop\n      dup1\n      sload\n      tag_33\n      swap1\n      tag_20\n      jump\t// in\n    tag_33:\n      0x00\n      dup3\n      sstore\n      dup1\n      0x1f\n      lt\n      tag_35\n      jumpi\n      pop\n      pop\n      jump\t// out\n    tag_35:\n      0x1f\n      add\n      0x20\n      swap1\n      div\n      swap1\n      0x00\n      mstore\n      keccak256(0x00, 0x20)\n      swap1\n      dup2\n      add\n      swap1\n      tag_36\n      swap2\n      swap1\n      tag_37\n      jump\t// in\n    tag_36:\n      pop\n      jump\t// out\n    tag_37:\n    tag_38:\n      dup1\n      dup3\n      gt\n      iszero\n      tag_39\n      jumpi\n      0x00\n      dup2\n      sstore\n      0x01\n      add\n      jump(tag_38)\n    tag_39:\n      pop\n      swap1\n      jump\t// out\n        /* \"#utility.yul\":14:194   */\n    tag_8:\n        /* \"#utility.yul\":73:79   */\n      0x00\n        /* \"#utility.yul\":126:128   */\n      0x20\n        /* \"#utility.yul\":114:123   */\n      dup3\n        /* \"#utility.yul\":105:112   */\n      dup5\n        /* \"#utility.yul\":101:124   */\n      sub\n        /* \"#utility.yul\":97:129   */\n      slt\n        /* \"#utility.yul\":94:146   */\n      iszero\n      tag_46\n      jumpi\n        /* \"#utility.yul\":142:143   */\n      0x00\n        /* \"#utility.yul\":139:140   */\n      dup1\n        /* \"#utility.yul\":132:144   */\n      revert\n        /* \"#utility.yul\":94:146   */\n    tag_46:\n      pop\n        /* \"#utility.yul\":165:188   */\n      calldataload\n      swap2\n        /* \"#utility.yul\":14:194   */\n      swap1\n      pop\n      jump\t// out\n        /* \"#utility.yul\":199:692   */\n    tag_11:\n        /* \"#utility.yul\":376:378   */\n      0x40\n        /* \"#utility.yul\":365:374   */\n      dup2\n        /* \"#utility.yul\":358:379   */\n      mstore\n        /* \"#utility.yul\":339:343   */\n      0x00\n        /* \"#utility.yul\":408:414   */\n      dup4\n        /* \"#utility.yul\":402:415   */\n      mload\n        /* \"#utility.yul\":451:457   */\n      dup1\n        /* \"#utility.yul\":446:448   */\n      0x40\n        /* \"#utility.yul\":435:444   */\n      dup5\n        /* \"#utility.yul\":431:449   */\n      add\n        /* \"#utility.yul\":424:458   */\n      mstore\n        /* \"#utility.yul\":512:518   */\n      dup1\n        /* \"#utility.yul\":505:509   */\n      0x20\n        /* \"#utility.yul\":497:503   */\n      dup7\n        /* \"#utility.yul\":493:510   */\n      add\n        /* \"#utility.yul\":488:490   */\n      0x60\n        /* \"#utility.yul\":477:486   */\n      dup6\n        /* \"#utility.yul\":473:491   */\n      add\n        /* \"#utility.yul\":467:519   */\n      mcopy\n        /* \"#utility.yul\":568:569   */\n      0x00\n        /* \"#utility.yul\":563:565   */\n      0x60\n        /* \"#utility.yul\":554:560   */\n      dup3\n        /* \"#utility.yul\":543:552   */\n      dup6\n        /* \"#utility.yul\":539:561   */\n      add\n        /* \"#utility.yul\":535:566   */\n      add\n        /* \"#utility.yul\":528:570   */\n      mstore\n        /* \"#utility.yul\":638:640   */\n      0x60\n        /* \"#utility.yul\":631:633   */\n      0x1f\n        /* \"#utility.yul\":627:634   */\n      not\n        /* \"#utility.yul\":622:624   */\n      0x1f\n        /* \"#utility.yul\":614:620   */\n      dup4\n        /* \"#utility.yul\":610:625   */\n      add\n        /* \"#utility.yul\":606:635   */\n      and\n        /* \"#utility.yul\":595:604   */\n      dup5\n        /* \"#utility.yul\":591:636   */\n      add\n        /* \"#utility.yul\":587:641   */\n      add\n        /* \"#utility.yul\":579:641   */\n      swap2\n      pop\n      pop\n        /* \"#utility.yul\":679:685   */\n      dup3\n        /* \"#utility.yul\":672:676   */\n      0x20\n        /* \"#utility.yul\":661:670   */\n      dup4\n        /* \"#utility.yul\":657:677   */\n      add\n        /* \"#utility.yul\":650:686   */\n      mstore\n        /* \"#utility.yul\":199:692   */\n      swap4\n      swap3\n      pop\n      pop\n      pop\n      jump\t// out\n        /* \"#utility.yul\":697:1363   */\n    tag_14:\n        /* \"#utility.yul\":777:783   */\n      0x00\n        /* \"#utility.yul\":785:791   */\n      dup1\n        /* \"#utility.yul\":793:799   */\n      0x00\n        /* \"#utility.yul\":846:848   */\n      0x40\n        /* \"#utility.yul\":834:843   */\n      dup5\n        /* \"#utility.yul\":825:832   */\n      dup7\n        /* \"#utility.yul\":821:844   */\n      sub\n        /* \"#utility.yul\":817:849   */\n      slt\n        /* \"#utility.yul\":814:866   */\n      iszero\n      tag_49\n      jumpi\n        /* \"#utility.yul\":862:863   */\n      0x00\n        /* \"#utility.yul\":859:860   */\n      dup1\n        /* \"#utility.yul\":852:864   */\n      revert\n        /* \"#utility.yul\":814:866   */\n    tag_49:\n        /* \"#utility.yul\":902:911   */\n      dup4\n        /* \"#utility.yul\":889:912   */\n      calldataload\n        /* \"#utility.yul\":931:949   */\n      0xffffffffffffffff\n        /* \"#utility.yul\":972:974   */\n      dup1\n        /* \"#utility.yul\":964:970   */\n      dup3\n        /* \"#utility.yul\":961:975   */\n      gt\n        /* \"#utility.yul\":958:992   */\n      iszero\n      tag_50\n      jumpi\n        /* \"#utility.yul\":988:989   */\n      0x00\n        /* \"#utility.yul\":985:986   */\n      dup1\n        /* \"#utility.yul\":978:990   */\n      revert\n        /* \"#utility.yul\":958:992   */\n    tag_50:\n        /* \"#utility.yul\":1026:1032   */\n      dup2\n        /* \"#utility.yul\":1015:1024   */\n      dup7\n        /* \"#utility.yul\":1011:1033   */\n      add\n        /* \"#utility.yul\":1001:1033   */\n      swap2\n      pop\n        /* \"#utility.yul\":1071:1078   */\n      dup7\n        /* \"#utility.yul\":1064:1068   */\n      0x1f\n        /* \"#utility.yul\":1060:1062   */\n      dup4\n        /* \"#utility.yul\":1056:1069   */\n      add\n        /* \"#utility.yul\":1052:1079   */\n      slt\n        /* \"#utility.yul\":1042:1097   */\n      tag_51\n      jumpi\n        /* \"#utility.yul\":1093:1094   */\n      0x00\n        /* \"#utility.yul\":1090:1091   */\n      dup1\n        /* \"#utility.yul\":1083:1095   */\n      revert\n        /* \"#utility.yul\":1042:1097   */\n    tag_51:\n        /* \"#utility.yul\":1133:1135   */\n      dup2\n        /* \"#utility.yul\":1120:1136   */\n      calldataload\n        /* \"#utility.yul\":1159:1161   */\n      dup2\n        /* \"#utility.yul\":1151:1157   */\n      dup2\n        /* \"#utility.yul\":1148:1162   */\n      gt\n        /* \"#utility.yul\":1145:1179   */\n      iszero\n      tag_52\n      jumpi\n        /* \"#utility.yul\":1175:1176   */\n      0x00\n        /* \"#utility.yul\":1172:1173   */\n      dup1\n        /* \"#utility.yul\":1165:1177   */\n      revert\n        /* \"#utility.yul\":1145:1179   */\n    tag_52:\n        /* \"#utility.yul\":1222:1229   */\n      dup8\n        /* \"#utility.yul\":1215:1219   */\n      0x20\n        /* \"#utility.yul\":1206:1212   */\n      dup3\n        /* \"#utility.yul\":1202:1204   */\n      dup6\n        /* \"#utility.yul\":1198:1213   */\n      add\n        /* \"#utility.yul\":1194:1220   */\n      add\n        /* \"#utility.yul\":1191:1230   */\n      gt\n        /* \"#utility.yul\":1188:1247   */\n      iszero\n      tag_53\n      jumpi\n        /* \"#utility.yul\":1243:1244   */\n      0x00\n        /* \"#utility.yul\":1240:1241   */\n      dup1\n        /* \"#utility.yul\":1233:1245   */\n      revert\n        /* \"#utility.yul\":1188:1247   */\n    tag_53:\n        /* \"#utility.yul\":1274:1278   */\n      0x20\n        /* \"#utility.yul\":1266:1279   */\n      swap3\n      dup4\n      add\n      swap9\n        /* \"#utility.yul\":1298:1304   */\n      swap1\n      swap8\n      pop\n        /* \"#utility.yul\":1336:1356   */\n      swap6\n      swap1\n      swap2\n      add\n        /* \"#utility.yul\":1323:1357   */\n      calldataload\n      swap5\n        /* \"#utility.yul\":697:1363   */\n      swap4\n      pop\n      pop\n      pop\n      pop\n      jump\t// out\n        /* \"#utility.yul\":1368:1805   */\n    tag_20:\n        /* \"#utility.yul\":1447:1448   */\n      0x01\n        /* \"#utility.yul\":1443:1455   */\n      dup2\n      dup2\n      shr\n      swap1\n        /* \"#utility.yul\":1490:1502   */\n      dup3\n      and\n      dup1\n        /* \"#utility.yul\":1511:1572   */\n      tag_55\n      jumpi\n        /* \"#utility.yul\":1565:1569   */\n      0x7f\n        /* \"#utility.yul\":1557:1563   */\n      dup3\n        /* \"#utility.yul\":1553:1570   */\n      and\n        /* \"#utility.yul\":1543:1570   */\n      swap2\n      pop\n        /* \"#utility.yul\":1511:1572   */\n    tag_55:\n        /* \"#utility.yul\":1618:1620   */\n      0x20\n        /* \"#utility.yul\":1610:1616   */\n      dup3\n        /* \"#utility.yul\":1607:1621   */\n      lt\n        /* \"#utility.yul\":1587:1605   */\n      dup2\n        /* \"#utility.yul\":1584:1622   */\n      sub\n        /* \"#utility.yul\":1581:1799   */\n      tag_56\n      jumpi\n      shl(0xe0, 0x4e487b71)\n        /* \"#utility.yul\":1652:1653   */\n      0x00\n        /* \"#utility.yul\":1645:1733   */\n      mstore\n        /* \"#utility.yul\":1756:1760   */\n      0x22\n        /* \"#utility.yul\":1753:1754   */\n      0x04\n        /* \"#utility.yul\":1746:1761   */\n      mstore\n        /* \"#utility.yul\":1784:1788   */\n      0x24\n        /* \"#utility.yul\":1781:1782   */\n      0x00\n        /* \"#utility.yul\":1774:1789   */\n      revert\n        /* \"#utility.yul\":1581:1799   */\n    tag_56:\n      pop\n        /* \"#utility.yul\":1368:1805   */\n      swap2\n      swap1\n      pop\n      jump\t// out\n        /* \"#utility.yul\":1810:1994   */\n    tag_40:\n      shl(0xe0, 0x4e487b71)\n        /* \"#utility.yul\":1859:1860   */\n      0x00\n        /* \"#utility.yul\":1852:1940   */\n      mstore\n        /* \"#utility.yul\":1959:1963   */\n      0x41\n        /* \"#utility.yul\":1956:1957   */\n      0x04\n        /* \"#utility.yul\":1949:1964   */\n      mstore\n        /* \"#utility.yul\":1983:1987   */\n      0x24\n        /* \"#utility.yul\":1980:1981   */\n      0x00\n        /* \"#utility.yul\":1973:1988   */\n      revert\n        /* \"#utility.yul\":2125:2643   */\n    tag_42:\n        /* \"#utility.yul\":2227:2229   */\n      0x1f\n        /* \"#utility.yul\":2222:2225   */\n      dup3\n        /* \"#utility.yul\":2219:2230   */\n      gt\n        /* \"#utility.yul\":2216:2637   */\n      iszero\n      tag_60\n      jumpi\n        /* \"#utility.yul\":2263:2268   */\n      dup1\n        /* \"#utility.yul\":2260:2261   */\n      0x00\n        /* \"#utility.yul\":2253:2269   */\n      mstore\n        /* \"#utility.yul\":2307:2311   */\n      0x20\n        /* \"#utility.yul\":2304:2305   */\n      0x00\n        /* \"#utility.yul\":2294:2312   */\n      keccak256\n        /* \"#utility.yul\":2377:2379   */\n      0x1f\n        /* \"#utility.yul\":2365:2375   */\n      dup5\n        /* \"#utility.yul\":2361:2380   */\n      add\n        /* \"#utility.yul\":2358:2359   */\n      0x05\n        /* \"#utility.yul\":2354:2381   */\n      shr\n        /* \"#utility.yul\":2348:2352   */\n      dup2\n        /* \"#utility.yul\":2344:2382   */\n      add\n        /* \"#utility.yul\":2413:2417   */\n      0x20\n        /* \"#utility.yul\":2401:2411   */\n      dup6\n        /* \"#utility.yul\":2398:2418   */\n      lt\n        /* \"#utility.yul\":2395:2442   */\n      iszero\n      tag_61\n      jumpi\n      pop\n        /* \"#utility.yul\":2436:2440   */\n      dup1\n        /* \"#utility.yul\":2395:2442   */\n    tag_61:\n        /* \"#utility.yul\":2491:2493   */\n      0x1f\n        /* \"#utility.yul\":2486:2489   */\n      dup5\n        /* \"#utility.yul\":2482:2494   */\n      add\n        /* \"#utility.yul\":2479:2480   */\n      0x05\n        /* \"#utility.yul\":2475:2495   */\n      shr\n        /* \"#utility.yul\":2469:2473   */\n      dup3\n        /* \"#utility.yul\":2465:2496   */\n      add\n        /* \"#utility.yul\":2455:2496   */\n      swap2\n      pop\n        /* \"#utility.yul\":2546:2627   */\n    tag_62:\n        /* \"#utility.yul\":2564:2566   */\n      dup2\n        /* \"#utility.yul\":2557:2562   */\n      dup2\n        /* \"#utility.yul\":2554:2567   */\n      lt\n        /* \"#utility.yul\":2546:2627   */\n      iszero\n      tag_64\n      jumpi\n        /* \"#utility.yul\":2623:2624   */\n      0x00\n        /* \"#utility.yul\":2609:2625   */\n      dup2\n      sstore\n        /* \"#utility.yul\":2590:2591   */\n      0x01\n        /* \"#utility.yul\":2579:2592   */\n      add\n        /* \"#utility.yul\":2546:2627   */\n      jump(tag_62)\n    tag_64:\n        /* \"#utility.yul\":2550:2553   */\n      pop\n      pop\n        /* \"#utility.yul\":2216:2637   */\n    tag_60:\n        /* \"#utility.yul\":2125:2643   */\n      pop\n      pop\n      pop\n      jump\t// out\n        /* \"#utility.yul\":2819:4164   */\n    tag_27:\n        /* \"#utility.yul\":2945:2948   */\n      dup2\n        /* \"#utility.yul\":2939:2949   */\n      mload\n        /* \"#utility.yul\":2972:2990   */\n      0xffffffffffffffff\n        /* \"#utility.yul\":2964:2970   */\n      dup2\n        /* \"#utility.yul\":2961:2991   */\n      gt\n        /* \"#utility.yul\":2958:3014   */\n      iszero\n      tag_68\n      jumpi\n        /* \"#utility.yul\":2994:3012   */\n      tag_68\n      tag_40\n      jump\t// in\n    tag_68:\n        /* \"#utility.yul\":3023:3120   */\n      tag_69\n        /* \"#utility.yul\":3113:3119   */\n      dup2\n        /* \"#utility.yul\":3073:3111   */\n      tag_70\n        /* \"#utility.yul\":3105:3109   */\n      dup5\n        /* \"#utility.yul\":3099:3110   */\n      sload\n        /* \"#utility.yul\":3073:3111   */\n      tag_20\n      jump\t// in\n    tag_70:\n        /* \"#utility.yul\":3067:3071   */\n      dup5\n        /* \"#utility.yul\":3023:3120   */\n      tag_42\n      jump\t// in\n    tag_69:\n        /* \"#utility.yul\":3175:3179   */\n      0x20\n      dup1\n        /* \"#utility.yul\":3232:3234   */\n      0x1f\n        /* \"#utility.yul\":3221:3235   */\n      dup4\n      gt\n        /* \"#utility.yul\":3249:3250   */\n      0x01\n        /* \"#utility.yul\":3244:3907   */\n      dup2\n      eq\n      tag_72\n      jumpi\n        /* \"#utility.yul\":3951:3952   */\n      0x00\n        /* \"#utility.yul\":3968:3974   */\n      dup5\n        /* \"#utility.yul\":3965:4054   */\n      iszero\n      tag_73\n      jumpi\n      pop\n        /* \"#utility.yul\":4020:4039   */\n      dup6\n      dup4\n      add\n        /* \"#utility.yul\":4014:4040   */\n      mload\n        /* \"#utility.yul\":3965:4054   */\n    tag_73:\n      not(0x00)\n        /* \"#utility.yul\":2776:2777   */\n      0x03\n        /* \"#utility.yul\":2772:2783   */\n      dup7\n      swap1\n      shl\n        /* \"#utility.yul\":2768:2792   */\n      shr\n        /* \"#utility.yul\":2764:2793   */\n      not\n        /* \"#utility.yul\":2754:2794   */\n      and\n        /* \"#utility.yul\":2800:2801   */\n      0x01\n        /* \"#utility.yul\":2796:2807   */\n      dup6\n      swap1\n      shl\n        /* \"#utility.yul\":2751:2808   */\n      or\n        /* \"#utility.yul\":4067:4148   */\n      dup6\n      sstore\n        /* \"#utility.yul\":3214:4158   */\n      jump(tag_71)\n        /* \"#utility.yul\":3244:3907   */\n    tag_72:\n        /* \"#utility.yul\":2072:2073   */\n      0x00\n        /* \"#utility.yul\":2065:2079   */\n      dup6\n      dup2\n      mstore\n        /* \"#utility.yul\":2109:2113   */\n      0x20\n        /* \"#utility.yul\":2096:2114   */\n      dup2\n      keccak256\n      not(0x1f)\n        /* \"#utility.yul\":3280:3300   */\n      dup7\n      and\n      swap2\n        /* \"#utility.yul\":3398:3634   */\n    tag_76:\n        /* \"#utility.yul\":3412:3419   */\n      dup3\n        /* \"#utility.yul\":3409:3410   */\n      dup2\n        /* \"#utility.yul\":3406:3420   */\n      lt\n        /* \"#utility.yul\":3398:3634   */\n      iszero\n      tag_78\n      jumpi\n        /* \"#utility.yul\":3501:3520   */\n      dup9\n      dup7\n      add\n        /* \"#utility.yul\":3495:3521   */\n      mload\n        /* \"#utility.yul\":3480:3522   */\n      dup3\n      sstore\n        /* \"#utility.yul\":3593:3620   */\n      swap5\n      dup5\n      add\n      swap5\n        /* \"#utility.yul\":3561:3562   */\n      0x01\n        /* \"#utility.yul\":3549:3563   */\n      swap1\n      swap2\n      add\n      swap1\n        /* \"#utility.yul\":3428:3447   */\n      dup5\n      add\n        /* \"#utility.yul\":3398:3634   */\n      jump(tag_76)\n    tag_78:\n        /* \"#utility.yul\":3402:3405   */\n      pop\n        /* \"#utility.yul\":3662:3668   */\n      dup6\n        /* \"#utility.yul\":3653:3660   */\n      dup3\n        /* \"#utility.yul\":3650:3669   */\n      lt\n        /* \"#utility.yul\":3647:3848   */\n      iszero\n      tag_79\n      jumpi\n        /* \"#utility.yul\":3723:3742   */\n      dup8\n      dup6\n      add\n        /* \"#utility.yul\":3717:3743   */\n      mload\n      not(0x00)\n        /* \"#utility.yul\":3806:3807   */\n      0x03\n        /* \"#utility.yul\":3802:3816   */\n      dup9\n      swap1\n      shl\n        /* \"#utility.yul\":3818:3821   */\n      0xf8\n        /* \"#utility.yul\":3798:3822   */\n      and\n        /* \"#utility.yul\":3794:3831   */\n      shr\n        /* \"#utility.yul\":3790:3832   */\n      not\n        /* \"#utility.yul\":3775:3833   */\n      and\n        /* \"#utility.yul\":3760:3834   */\n      dup2\n      sstore\n        /* \"#utility.yul\":3647:3848   */\n    tag_79:\n      pop\n      pop\n        /* \"#utility.yul\":3894:3895   */\n      0x01\n        /* \"#utility.yul\":3885:3891   */\n      dup5\n        /* \"#utility.yul\":3882:3883   */\n      0x01\n        /* \"#utility.yul\":3878:3892   */\n      shl\n        /* \"#utility.yul\":3874:3896   */\n      add\n        /* \"#utility.yul\":3868:3872   */\n      dup6\n        /* \"#utility.yul\":3861:3897   */\n      sstore\n        /* \"#utility.yul\":3214:4158   */\n    tag_71:\n      pop\n      pop\n      pop\n      pop\n        /* \"#utility.yul\":2819:4164   */\n      pop\n      pop\n      jump\t// out\n        /* \"#utility.yul\":4169:4458   */\n    tag_29:\n        /* \"#utility.yul\":4208:4211   */\n      0x00\n        /* \"#utility.yul\":4229:4246   */\n      0x01\n      dup3\n      add\n        /* \"#utility.yul\":4226:4423   */\n      tag_81\n      jumpi\n      shl(0xe0, 0x4e487b71)\n        /* \"#utility.yul\":4276:4277   */\n      0x00\n        /* \"#utility.yul\":4269:4357   */\n      mstore\n        /* \"#utility.yul\":4380:4384   */\n      0x11\n        /* \"#utility.yul\":4377:4378   */\n      0x04\n        /* \"#utility.yul\":4370:4385   */\n      mstore\n        /* \"#utility.yul\":4408:4412   */\n      0x24\n        /* \"#utility.yul\":4405:4406   */\n      0x00\n        /* \"#utility.yul\":4398:4413   */\n      revert\n        /* \"#utility.yul\":4226:4423   */\n    tag_81:\n      pop\n        /* \"#utility.yul\":4450:4451   */\n      0x01\n        /* \"#utility.yul\":4439:4452   */\n      add\n      swap1\n        /* \"#utility.yul\":4169:4458   */\n      jump\t// out\n\n    auxdata: 0xa2646970667358221220d7e48936cfa9bd2d2fa1dad11b51bfbe10390f64475f53784f326ce5c5e60a2b64736f6c63430008190033\n}\n",
				"bytecode": {
					"linkReferences": {},
					"object": "6080604052348015600e575f80fd5b506104a78061001c5f395ff3fe608060405234801561000f575f80fd5b506004361061003f575f3560e01c8063092a1820146100435780636f760f411461006d578063d08c680314610082575b5f80fd5b610056610051366004610231565b610095565b604051610064929190610248565b60405180910390f35b61008061007b366004610284565b610136565b005b610080610090366004610231565b6101bb565b60016020525f90815260409020805481906100af906102f5565b80601f01602080910402602001604051908101604052809291908181526020018280546100db906102f5565b80156101265780601f106100fd57610100808354040283529160200191610126565b820191905f5260205f20905b81548152906001019060200180831161010957829003601f168201915b5050505050908060010154905082565b6040805160606020601f860181900402820181018352918101848152909182919086908690819085018382808284375f92018290525093855250505060209182018490528054815260019091526040902081518190610195908261038d565b50602091909101516001909101555f805490806101b18361044d565b9190505550505050565b5f818152600160205260408120906101d382826101df565b600182015f9055505050565b5080546101eb906102f5565b5f825580601f106101fa575050565b601f0160209004905f5260205f20908101906102169190610219565b50565b5b8082111561022d575f815560010161021a565b5090565b5f60208284031215610241575f80fd5b5035919050565b604081525f83518060408401528060208601606085015e5f606082850101526060601f19601f8301168401019150508260208301529392505050565b5f805f60408486031215610296575f80fd5b833567ffffffffffffffff808211156102ad575f80fd5b818601915086601f8301126102c0575f80fd5b8135818111156102ce575f80fd5b8760208285010111156102df575f80fd5b6020928301989097509590910135949350505050565b600181811c9082168061030957607f821691505b60208210810361032757634e487b7160e01b5f52602260045260245ffd5b50919050565b634e487b7160e01b5f52604160045260245ffd5b601f82111561038857805f5260205f20601f840160051c810160208510156103665750805b601f840160051c820191505b81811015610385575f8155600101610372565b50505b505050565b815167ffffffffffffffff8111156103a7576103a761032d565b6103bb816103b584546102f5565b84610341565b602080601f8311600181146103ee575f84156103d75750858301515b5f19600386901b1c1916600185901b178555610445565b5f85815260208120601f198616915b8281101561041c578886015182559484019460019091019084016103fd565b508582101561043957878501515f19600388901b60f8161c191681555b505060018460011b0185555b505050505050565b5f6001820161046a57634e487b7160e01b5f52601160045260245ffd5b506001019056fea2646970667358221220d7e48936cfa9bd2d2fa1dad11b51bfbe10390f64475f53784f326ce5c5e60a2b64736f6c63430008190033",
					"opcodes": "PUSH1 0x80 PUSH1 0x40 MSTORE CALLVALUE DUP1 ISZERO PUSH1 0xE JUMPI PUSH0 DUP1 REVERT JUMPDEST POP PUSH2 0x4A7 DUP1 PUSH2 0x1C PUSH0 CODECOPY PUSH0 RETURN INVALID PUSH1 0x80 PUSH1 0x40 MSTORE CALLVALUE DUP1 ISZERO PUSH2 0xF JUMPI PUSH0 DUP1 REVERT JUMPDEST POP PUSH1 0x4 CALLDATASIZE LT PUSH2 0x3F JUMPI PUSH0 CALLDATALOAD PUSH1 0xE0 SHR DUP1 PUSH4 0x92A1820 EQ PUSH2 0x43 JUMPI DUP1 PUSH4 0x6F760F41 EQ PUSH2 0x6D JUMPI DUP1 PUSH4 0xD08C6803 EQ PUSH2 0x82 JUMPI JUMPDEST PUSH0 DUP1 REVERT JUMPDEST PUSH2 0x56 PUSH2 0x51 CALLDATASIZE PUSH1 0x4 PUSH2 0x231 JUMP JUMPDEST PUSH2 0x95 JUMP JUMPDEST PUSH1 0x40 MLOAD PUSH2 0x64 SWAP3 SWAP2 SWAP1 PUSH2 0x248 JUMP JUMPDEST PUSH1 0x40 MLOAD DUP1 SWAP2 SUB SWAP1 RETURN JUMPDEST PUSH2 0x80 PUSH2 0x7B CALLDATASIZE PUSH1 0x4 PUSH2 0x284 JUMP JUMPDEST PUSH2 0x136 JUMP JUMPDEST STOP JUMPDEST PUSH2 0x80 PUSH2 0x90 CALLDATASIZE PUSH1 0x4 PUSH2 0x231 JUMP JUMPDEST PUSH2 0x1BB JUMP JUMPDEST PUSH1 0x1 PUSH1 0x20 MSTORE PUSH0 SWAP1 DUP2 MSTORE PUSH1 0x40 SWAP1 KECCAK256 DUP1 SLOAD DUP2 SWAP1 PUSH2 0xAF SWAP1 PUSH2 0x2F5 JUMP JUMPDEST DUP1 PUSH1 0x1F ADD PUSH1 0x20 DUP1 SWAP2 DIV MUL PUSH1 0x20 ADD PUSH1 0x40 MLOAD SWAP1 DUP2 ADD PUSH1 0x40 MSTORE DUP1 SWAP3 SWAP2 SWAP1 DUP2 DUP2 MSTORE PUSH1 0x20 ADD DUP3 DUP1 SLOAD PUSH2 0xDB SWAP1 PUSH2 0x2F5 JUMP JUMPDEST DUP1 ISZERO PUSH2 0x126 JUMPI DUP1 PUSH1 0x1F LT PUSH2 0xFD JUMPI PUSH2 0x100 DUP1 DUP4 SLOAD DIV MUL DUP4 MSTORE SWAP2 PUSH1 0x20 ADD SWAP2 PUSH2 0x126 JUMP JUMPDEST DUP3 ADD SWAP2 SWAP1 PUSH0 MSTORE PUSH1 0x20 PUSH0 KECCAK256 SWAP1 JUMPDEST DUP2 SLOAD DUP2 MSTORE SWAP1 PUSH1 0x1 ADD SWAP1 PUSH1 0x20 ADD DUP1 DUP4 GT PUSH2 0x109 JUMPI DUP3 SWAP1 SUB PUSH1 0x1F AND DUP3 ADD SWAP2 JUMPDEST POP POP POP POP POP SWAP1 DUP1 PUSH1 0x1 ADD SLOAD SWAP1 POP DUP3 JUMP JUMPDEST PUSH1 0x40 DUP1 MLOAD PUSH1 0x60 PUSH1 0x20 PUSH1 0x1F DUP7 ADD DUP2 SWAP1 DIV MUL DUP3 ADD DUP2 ADD DUP4 MSTORE SWAP2 DUP2 ADD DUP5 DUP2 MSTORE SWAP1 SWAP2 DUP3 SWAP2 SWAP1 DUP7 SWAP1 DUP7 SWAP1 DUP2 SWAP1 DUP6 ADD DUP4 DUP3 DUP1 DUP3 DUP5 CALLDATACOPY PUSH0 SWAP3 ADD DUP3 SWAP1 MSTORE POP SWAP4 DUP6 MSTORE POP POP POP PUSH1 0x20 SWAP2 DUP3 ADD DUP5 SWAP1 MSTORE DUP1 SLOAD DUP2 MSTORE PUSH1 0x1 SWAP1 SWAP2 MSTORE PUSH1 0x40 SWAP1 KECCAK256 DUP2 MLOAD DUP2 SWAP1 PUSH2 0x195 SWAP1 DUP3 PUSH2 0x38D JUMP JUMPDEST POP PUSH1 0x20 SWAP2 SWAP1 SWAP2 ADD MLOAD PUSH1 0x1 SWAP1 SWAP2 ADD SSTORE PUSH0 DUP1 SLOAD SWAP1 DUP1 PUSH2 0x1B1 DUP4 PUSH2 0x44D JUMP JUMPDEST SWAP2 SWAP1 POP SSTORE POP POP POP POP JUMP JUMPDEST PUSH0 DUP2 DUP2 MSTORE PUSH1 0x1 PUSH1 0x20 MSTORE PUSH1 0x40 DUP2 KECCAK256 SWAP1 PUSH2 0x1D3 DUP3 DUP3 PUSH2 0x1DF JUMP JUMPDEST PUSH1 0x1 DUP3 ADD PUSH0 SWAP1 SSTORE POP POP POP JUMP JUMPDEST POP DUP1 SLOAD PUSH2 0x1EB SWAP1 PUSH2 0x2F5 JUMP JUMPDEST PUSH0 DUP3 SSTORE DUP1 PUSH1 0x1F LT PUSH2 0x1FA JUMPI POP POP JUMP JUMPDEST PUSH1 0x1F ADD PUSH1 0x20 SWAP1 DIV SWAP1 PUSH0 MSTORE PUSH1 0x20 PUSH0 KECCAK256 SWAP1 DUP2 ADD SWAP1 PUSH2 0x216 SWAP2 SWAP1 PUSH2 0x219 JUMP JUMPDEST POP JUMP JUMPDEST JUMPDEST DUP1 DUP3 GT ISZERO PUSH2 0x22D JUMPI PUSH0 DUP2 SSTORE PUSH1 0x1 ADD PUSH2 0x21A JUMP JUMPDEST POP SWAP1 JUMP JUMPDEST PUSH0 PUSH1 0x20 DUP3 DUP5 SUB SLT ISZERO PUSH2 0x241 JUMPI PUSH0 DUP1 REVERT JUMPDEST POP CALLDATALOAD SWAP2 SWAP1 POP JUMP JUMPDEST PUSH1 0x40 DUP2 MSTORE PUSH0 DUP4 MLOAD DUP1 PUSH1 0x40 DUP5 ADD MSTORE DUP1 PUSH1 0x20 DUP7 ADD PUSH1 0x60 DUP6 ADD MCOPY PUSH0 PUSH1 0x60 DUP3 DUP6 ADD ADD MSTORE PUSH1 0x60 PUSH1 0x1F NOT PUSH1 0x1F DUP4 ADD AND DUP5 ADD ADD SWAP2 POP POP DUP3 PUSH1 0x20 DUP4 ADD MSTORE SWAP4 SWAP3 POP POP POP JUMP JUMPDEST PUSH0 DUP1 PUSH0 PUSH1 0x40 DUP5 DUP7 SUB SLT ISZERO PUSH2 0x296 JUMPI PUSH0 DUP1 REVERT JUMPDEST DUP4 CALLDATALOAD PUSH8 0xFFFFFFFFFFFFFFFF DUP1 DUP3 GT ISZERO PUSH2 0x2AD JUMPI PUSH0 DUP1 REVERT JUMPDEST DUP2 DUP7 ADD SWAP2 POP DUP7 PUSH1 0x1F DUP4 ADD SLT PUSH2 0x2C0 JUMPI PUSH0 DUP1 REVERT JUMPDEST DUP2 CALLDATALOAD DUP2 DUP2 GT ISZERO PUSH2 0x2CE JUMPI PUSH0 DUP1 REVERT JUMPDEST DUP8 PUSH1 0x20 DUP3 DUP6 ADD ADD GT ISZERO PUSH2 0x2DF JUMPI PUSH0 DUP1 REVERT JUMPDEST PUSH1 0x20 SWAP3 DUP4 ADD SWAP9 SWAP1 SWAP8 POP SWAP6 SWAP1 SWAP2 ADD CALLDATALOAD SWAP5 SWAP4 POP POP POP POP JUMP JUMPDEST PUSH1 0x1 DUP2 DUP2 SHR SWAP1 DUP3 AND DUP1 PUSH2 0x309 JUMPI PUSH1 0x7F DUP3 AND SWAP2 POP JUMPDEST PUSH1 0x20 DUP3 LT DUP2 SUB PUSH2 0x327 JUMPI PUSH4 0x4E487B71 PUSH1 0xE0 SHL PUSH0 MSTORE PUSH1 0x22 PUSH1 0x4 MSTORE PUSH1 0x24 PUSH0 REVERT JUMPDEST POP SWAP2 SWAP1 POP JUMP JUMPDEST PUSH4 0x4E487B71 PUSH1 0xE0 SHL PUSH0 MSTORE PUSH1 0x41 PUSH1 0x4 MSTORE PUSH1 0x24 PUSH0 REVERT JUMPDEST PUSH1 0x1F DUP3 GT ISZERO PUSH2 0x388 JUMPI DUP1 PUSH0 MSTORE PUSH1 0x20 PUSH0 KECCAK256 PUSH1 0x1F DUP5 ADD PUSH1 0x5 SHR DUP2 ADD PUSH1 0x20 DUP6 LT ISZERO PUSH2 0x366 JUMPI POP DUP1 JUMPDEST PUSH1 0x1F DUP5 ADD PUSH1 0x5 SHR DUP3 ADD SWAP2 POP JUMPDEST DUP2 DUP2 LT ISZERO PUSH2 0x385 JUMPI PUSH0 DUP2 SSTORE PUSH1 0x1 ADD PUSH2 0x372 JUMP JUMPDEST POP POP JUMPDEST POP POP POP JUMP JUMPDEST DUP2 MLOAD PUSH8 0xFFFFFFFFFFFFFFFF DUP2 GT ISZERO PUSH2 0x3A7 JUMPI PUSH2 0x3A7 PUSH2 0x32D JUMP JUMPDEST PUSH2 0x3BB DUP2 PUSH2 0x3B5 DUP5 SLOAD PUSH2 0x2F5 JUMP JUMPDEST DUP5 PUSH2 0x341 JUMP JUMPDEST PUSH1 0x20 DUP1 PUSH1 0x1F DUP4 GT PUSH1 0x1 DUP2 EQ PUSH2 0x3EE JUMPI PUSH0 DUP5 ISZERO PUSH2 0x3D7 JUMPI POP DUP6 DUP4 ADD MLOAD JUMPDEST PUSH0 NOT PUSH1 0x3 DUP7 SWAP1 SHL SHR NOT AND PUSH1 0x1 DUP6 SWAP1 SHL OR DUP6 SSTORE PUSH2 0x445 JUMP JUMPDEST PUSH0 DUP6 DUP2 MSTORE PUSH1 0x20 DUP2 KECCAK256 PUSH1 0x1F NOT DUP7 AND SWAP2 JUMPDEST DUP3 DUP2 LT ISZERO PUSH2 0x41C JUMPI DUP9 DUP7 ADD MLOAD DUP3 SSTORE SWAP5 DUP5 ADD SWAP5 PUSH1 0x1 SWAP1 SWAP2 ADD SWAP1 DUP5 ADD PUSH2 0x3FD JUMP JUMPDEST POP DUP6 DUP3 LT ISZERO PUSH2 0x439 JUMPI DUP8 DUP6 ADD MLOAD PUSH0 NOT PUSH1 0x3 DUP9 SWAP1 SHL PUSH1 0xF8 AND SHR NOT AND DUP2 SSTORE JUMPDEST POP POP PUSH1 0x1 DUP5 PUSH1 0x1 SHL ADD DUP6 SSTORE JUMPDEST POP POP POP POP POP POP JUMP JUMPDEST PUSH0 PUSH1 0x1 DUP3 ADD PUSH2 0x46A JUMPI PUSH4 0x4E487B71 PUSH1 0xE0 SHL PUSH0 MSTORE PUSH1 0x11 PUSH1 0x4 MSTORE PUSH1 0x24 PUSH0 REVERT JUMPDEST POP PUSH1 0x1 ADD SWAP1 JUMP INVALID LOG2 PUSH5 0x6970667358 0x22 SLT KECCAK256 0xD7 0xE4 DUP10 CALLDATASIZE 0xCF 0xA9 0xBD 0x2D 0x2F LOG1 0xDA 0xD1 SHL MLOAD 0xBF 0xBE LT CODECOPY 0xF PUSH5 0x475F53784F ORIGIN PUSH13 0xE5C5E60A2B64736F6C63430008 NOT STOP CALLER "
				},
				"gasEstimates": {
					"creation": {
						"codeDepositCost": "238200",
						"executionCost": "279",
						"totalCost": "238479"
					},
					"external": {
						"addPerson(string,uint256)": "infinite",
						"deletePerson(uint256)": "infinite",
						"person(uint256)": "infinite"
					}
				},
				"methodIdentifiers": {
					"addPerson(string,uint256)": "6f760f41",
					"deletePerson(uint256)": "d08c6803",
					"person(uint256)": "092a1820"
				}
			},
			"storageLayout": {
				"storage": [
					{
						"astId": 8,
						"contract": "contracts/ContractI/ContractIV14.sol:ContractIV14",
						"label": "currentIndex",
						"offset": 0,
						"slot": "0",
						"type": "t_uint256"
					},
					{
						"astId": 13,
						"contract": "contracts/ContractI/ContractIV14.sol:ContractIV14",
						"label": "person",
						"offset": 0,
						"slot": "1",
						"type": "t_mapping(t_uint256,t_struct(Person)6_storage)"
					}
				],
				"types": {
					"t_mapping(t_uint256,t_struct(Person)6_storage)": {
						"encoding": "mapping",
						"key": "t_uint256",
						"label": "mapping(uint256 => struct ContractIV14.Person)",
						"numberOfBytes": "32",
						"value": "t_struct(Person)6_storage"
					},
					"t_string_storage": {
						"encoding": "bytes",
						"label": "string",
						"numberOfBytes": "32"
					},
					"t_struct(Person)6_storage": {
						"encoding": "inplace",
						"label": "struct ContractIV14.Person",
						"members": [
							{
								"astId": 3,
								"contract": "contracts/ContractI/ContractIV14.sol:ContractIV14",
								"label": "name",
								"offset": 0,
								"slot": "0",
								"type": "t_string_storage"
							},
							{
								"astId": 5,
								"contract": "contracts/ContractI/ContractIV14.sol:ContractIV14",
								"label": "age",
								"offset": 0,
								"slot": "1",
								"type": "t_uint256"
							}
						],
						"numberOfBytes": "64"
					},
					"t_uint256": {
						"encoding": "inplace",
						"label": "uint256",
						"numberOfBytes": "32"
					}
				}
			},
			"userdoc": {
				"kind": "user",
				"methods": {},
				"version": 1
			}
		}
	}
}