{
	"contracts/ContractI/ContractIV10.sol": {
		"ContractIV10": {
			"abi": [
				{
					"inputs": [
						{
							"internalType": "uint256",
							"name": "",
							"type": "uint256"
						},
						{
							"internalType": "uint256",
							"name": "",
							"type": "uint256"
						}
					],
					"name": "people",
					"outputs": [
						{
							"internalType": "string",
							"name": "name",
							"type": "string"
						},
						{
							"internalType": "uint256",
							"name": "age",
							"type": "uint256"
						}
					],
					"stateMutability": "view",
					"type": "function"
				}
			],
			"devdoc": {
				"kind": "dev",
				"methods": {},
				"version": 1
			},
			"evm": {
				"assembly": "    /* \"contracts/ContractI/ContractIV10.sol\":63:459  contract ContractIV10 {... */\n  mstore(0x40, 0x80)\n  callvalue\n  dup1\n  iszero\n  tag_1\n  jumpi\n  0x00\n  dup1\n  revert\ntag_1:\n  pop\n  dataSize(sub_0)\n  dup1\n  dataOffset(sub_0)\n  0x00\n  codecopy\n  0x00\n  return\nstop\n\nsub_0: assembly {\n        /* \"contracts/ContractI/ContractIV10.sol\":63:459  contract ContractIV10 {... */\n      mstore(0x40, 0x80)\n      callvalue\n      dup1\n      iszero\n      tag_1\n      jumpi\n      0x00\n      dup1\n      revert\n    tag_1:\n      pop\n      jumpi(tag_2, lt(calldatasize, 0x04))\n      shr(0xe0, calldataload(0x00))\n      dup1\n      0x173353ed\n      eq\n      tag_3\n      jumpi\n    tag_2:\n      0x00\n      dup1\n      revert\n        /* \"contracts/ContractI/ContractIV10.sol\":431:455  Person[][] public people */\n    tag_3:\n      tag_4\n      tag_5\n      calldatasize\n      0x04\n      tag_6\n      jump\t// in\n    tag_5:\n      tag_7\n      jump\t// in\n    tag_4:\n      mload(0x40)\n      tag_8\n      swap3\n      swap2\n      swap1\n      tag_9\n      jump\t// in\n    tag_8:\n      mload(0x40)\n      dup1\n      swap2\n      sub\n      swap1\n      return\n    tag_7:\n      0x00\n      dup3\n      dup2\n      sload\n      dup2\n      lt\n      tag_10\n      jumpi\n      0x00\n      dup1\n      revert\n    tag_10:\n      swap1\n      0x00\n      mstore\n      keccak256(0x00, 0x20)\n      add\n      dup2\n      dup2\n      sload\n      dup2\n      lt\n      tag_12\n      jumpi\n      0x00\n      dup1\n      revert\n    tag_12:\n      swap1\n      0x00\n      mstore\n      keccak256(0x00, 0x20)\n      swap1\n      0x02\n      mul\n      add\n      0x00\n      swap2\n      pop\n      swap2\n      pop\n      pop\n      dup1\n      0x00\n      add\n      dup1\n      sload\n      tag_14\n      swap1\n      tag_15\n      jump\t// in\n    tag_14:\n      dup1\n      0x1f\n      add\n      0x20\n      dup1\n      swap2\n      div\n      mul\n      0x20\n      add\n      mload(0x40)\n      swap1\n      dup2\n      add\n      0x40\n      mstore\n      dup1\n      swap3\n      swap2\n      swap1\n      dup2\n      dup2\n      mstore\n      0x20\n      add\n      dup3\n      dup1\n      sload\n      tag_16\n      swap1\n      tag_15\n      jump\t// in\n    tag_16:\n      dup1\n      iszero\n      tag_17\n      jumpi\n      dup1\n      0x1f\n      lt\n      tag_18\n      jumpi\n      0x0100\n      dup1\n      dup4\n      sload\n      div\n      mul\n      dup4\n      mstore\n      swap2\n      0x20\n      add\n      swap2\n      jump(tag_17)\n    tag_18:\n      dup3\n      add\n      swap2\n      swap1\n      0x00\n      mstore\n      keccak256(0x00, 0x20)\n      swap1\n    tag_19:\n      dup2\n      sload\n      dup2\n      mstore\n      swap1\n      0x01\n      add\n      swap1\n      0x20\n      add\n      dup1\n      dup4\n      gt\n      tag_19\n      jumpi\n      dup3\n      swap1\n      sub\n      0x1f\n      and\n      dup3\n      add\n      swap2\n    tag_17:\n      pop\n      pop\n      pop\n      pop\n      pop\n      swap1\n      dup1\n      0x01\n      add\n      sload\n      swap1\n      pop\n      dup3\n      jump\t// out\n        /* \"#utility.yul\":14:262   */\n    tag_6:\n        /* \"#utility.yul\":82:88   */\n      0x00\n        /* \"#utility.yul\":90:96   */\n      dup1\n        /* \"#utility.yul\":143:145   */\n      0x40\n        /* \"#utility.yul\":131:140   */\n      dup4\n        /* \"#utility.yul\":122:129   */\n      dup6\n        /* \"#utility.yul\":118:141   */\n      sub\n        /* \"#utility.yul\":114:146   */\n      slt\n        /* \"#utility.yul\":111:163   */\n      iszero\n      tag_22\n      jumpi\n        /* \"#utility.yul\":159:160   */\n      0x00\n        /* \"#utility.yul\":156:157   */\n      dup1\n        /* \"#utility.yul\":149:161   */\n      revert\n        /* \"#utility.yul\":111:163   */\n    tag_22:\n      pop\n      pop\n        /* \"#utility.yul\":182:205   */\n      dup1\n      calldataload\n      swap3\n        /* \"#utility.yul\":252:254   */\n      0x20\n        /* \"#utility.yul\":237:255   */\n      swap1\n      swap2\n      add\n        /* \"#utility.yul\":224:256   */\n      calldataload\n      swap2\n      pop\n        /* \"#utility.yul\":14:262   */\n      jump\t// out\n        /* \"#utility.yul\":267:760   */\n    tag_9:\n        /* \"#utility.yul\":444:446   */\n      0x40\n        /* \"#utility.yul\":433:442   */\n      dup2\n        /* \"#utility.yul\":426:447   */\n      mstore\n        /* \"#utility.yul\":407:411   */\n      0x00\n        /* \"#utility.yul\":476:482   */\n      dup4\n        /* \"#utility.yul\":470:483   */\n      mload\n        /* \"#utility.yul\":519:525   */\n      dup1\n        /* \"#utility.yul\":514:516   */\n      0x40\n        /* \"#utility.yul\":503:512   */\n      dup5\n        /* \"#utility.yul\":499:517   */\n      add\n        /* \"#utility.yul\":492:526   */\n      mstore\n        /* \"#utility.yul\":580:586   */\n      dup1\n        /* \"#utility.yul\":573:577   */\n      0x20\n        /* \"#utility.yul\":565:571   */\n      dup7\n        /* \"#utility.yul\":561:578   */\n      add\n        /* \"#utility.yul\":556:558   */\n      0x60\n        /* \"#utility.yul\":545:554   */\n      dup6\n        /* \"#utility.yul\":541:559   */\n      add\n        /* \"#utility.yul\":535:587   */\n      mcopy\n        /* \"#utility.yul\":636:637   */\n      0x00\n        /* \"#utility.yul\":631:633   */\n      0x60\n        /* \"#utility.yul\":622:628   */\n      dup3\n        /* \"#utility.yul\":611:620   */\n      dup6\n        /* \"#utility.yul\":607:629   */\n      add\n        /* \"#utility.yul\":603:634   */\n      add\n        /* \"#utility.yul\":596:638   */\n      mstore\n        /* \"#utility.yul\":706:708   */\n      0x60\n        /* \"#utility.yul\":699:701   */\n      0x1f\n        /* \"#utility.yul\":695:702   */\n      not\n        /* \"#utility.yul\":690:692   */\n      0x1f\n        /* \"#utility.yul\":682:688   */\n      dup4\n        /* \"#utility.yul\":678:693   */\n      add\n        /* \"#utility.yul\":674:703   */\n      and\n        /* \"#utility.yul\":663:672   */\n      dup5\n        /* \"#utility.yul\":659:704   */\n      add\n        /* \"#utility.yul\":655:709   */\n      add\n        /* \"#utility.yul\":647:709   */\n      swap2\n      pop\n      pop\n        /* \"#utility.yul\":747:753   */\n      dup3\n        /* \"#utility.yul\":740:744   */\n      0x20\n        /* \"#utility.yul\":729:738   */\n      dup4\n        /* \"#utility.yul\":725:745   */\n      add\n        /* \"#utility.yul\":718:754   */\n      mstore\n        /* \"#utility.yul\":267:760   */\n      swap4\n      swap3\n      pop\n      pop\n      pop\n      jump\t// out\n        /* \"#utility.yul\":765:1202   */\n    tag_15:\n        /* \"#utility.yul\":844:845   */\n      0x01\n        /* \"#utility.yul\":840:852   */\n      dup2\n      dup2\n      shr\n      swap1\n        /* \"#utility.yul\":887:899   */\n      dup3\n      and\n      dup1\n        /* \"#utility.yul\":908:969   */\n      tag_25\n      jumpi\n        /* \"#utility.yul\":962:966   */\n      0x7f\n        /* \"#utility.yul\":954:960   */\n      dup3\n        /* \"#utility.yul\":950:967   */\n      and\n        /* \"#utility.yul\":940:967   */\n      swap2\n      pop\n        /* \"#utility.yul\":908:969   */\n    tag_25:\n        /* \"#utility.yul\":1015:1017   */\n      0x20\n        /* \"#utility.yul\":1007:1013   */\n      dup3\n        /* \"#utility.yul\":1004:1018   */\n      lt\n        /* \"#utility.yul\":984:1002   */\n      dup2\n        /* \"#utility.yul\":981:1019   */\n      sub\n        /* \"#utility.yul\":978:1196   */\n      tag_26\n      jumpi\n        /* \"#utility.yul\":1052:1129   */\n      0x4e487b7100000000000000000000000000000000000000000000000000000000\n        /* \"#utility.yul\":1049:1050   */\n      0x00\n        /* \"#utility.yul\":1042:1130   */\n      mstore\n        /* \"#utility.yul\":1153:1157   */\n      0x22\n        /* \"#utility.yul\":1150:1151   */\n      0x04\n        /* \"#utility.yul\":1143:1158   */\n      mstore\n        /* \"#utility.yul\":1181:1185   */\n      0x24\n        /* \"#utility.yul\":1178:1179   */\n      0x00\n        /* \"#utility.yul\":1171:1186   */\n      revert\n        /* \"#utility.yul\":978:1196   */\n    tag_26:\n      pop\n        /* \"#utility.yul\":765:1202   */\n      swap2\n      swap1\n      pop\n      jump\t// out\n\n    auxdata: 0xa2646970667358221220d77c43658921faddbb97688198582dbd318612f3103147a9eb1f67b70daac19264736f6c63430008190033\n}\n",
				"bytecode": {
					"linkReferences": {},
					"object": "6080604052348015600e575f80fd5b506102048061001c5f395ff3fe608060405234801561000f575f80fd5b5060043610610029575f3560e01c8063173353ed1461002d575b5f80fd5b61004061003b366004610121565b610057565b60405161004e929190610141565b60405180910390f35b5f8281548110610065575f80fd5b905f5260205f2001818154811061007a575f80fd5b905f5260205f2090600202015f9150915050805f01805461009a9061017d565b80601f01602080910402602001604051908101604052809291908181526020018280546100c69061017d565b80156101115780601f106100e857610100808354040283529160200191610111565b820191905f5260205f20905b8154815290600101906020018083116100f457829003601f168201915b5050505050908060010154905082565b5f8060408385031215610132575f80fd5b50508035926020909101359150565b604081525f83518060408401528060208601606085015e5f606082850101526060601f19601f8301168401019150508260208301529392505050565b600181811c9082168061019157607f821691505b6020821081036101c8577f4e487b71000000000000000000000000000000000000000000000000000000005f52602260045260245ffd5b5091905056fea2646970667358221220d77c43658921faddbb97688198582dbd318612f3103147a9eb1f67b70daac19264736f6c63430008190033",
					"opcodes": "PUSH1 0x80 PUSH1 0x40 MSTORE CALLVALUE DUP1 ISZERO PUSH1 0xE JUMPI PUSH0 DUP1 REVERT JUMPDEST POP PUSH2 0x204 DUP1 PUSH2 0x1C PUSH0 CODECOPY PUSH0 RETURN INVALID PUSH1 0x80 PUSH1 0x40 MSTORE CALLVALUE DUP1 ISZERO PUSH2 0xF JUMPI PUSH0 DUP1 REVERT JUMPDEST POP PUSH1 0x4 CALLDATASIZE LT PUSH2 0x29 JUMPI PUSH0 CALLDATALOAD PUSH1 0xE0 SHR DUP1 PUSH4 0x173353ED EQ PUSH2 0x2D JUMPI JUMPDEST PUSH0 DUP1 REVERT JUMPDEST PUSH2 0x40 PUSH2 0x3B CALLDATASIZE PUSH1 0x4 PUSH2 0x121 JUMP JUMPDEST PUSH2 0x57 JUMP JUMPDEST PUSH1 0x40 MLOAD PUSH2 0x4E SWAP3 SWAP2 SWAP1 PUSH2 0x141 JUMP JUMPDEST PUSH1 0x40 MLOAD DUP1 SWAP2 SUB SWAP1 RETURN JUMPDEST PUSH0 DUP3 DUP2 SLOAD DUP2 LT PUSH2 0x65 JUMPI PUSH0 DUP1 REVERT JUMPDEST SWAP1 PUSH0 MSTORE PUSH1 0x20 PUSH0 KECCAK256 ADD DUP2 DUP2 SLOAD DUP2 LT PUSH2 0x7A JUMPI PUSH0 DUP1 REVERT JUMPDEST SWAP1 PUSH0 MSTORE PUSH1 0x20 PUSH0 KECCAK256 SWAP1 PUSH1 0x2 MUL ADD PUSH0 SWAP2 POP SWAP2 POP POP DUP1 PUSH0 ADD DUP1 SLOAD PUSH2 0x9A SWAP1 PUSH2 0x17D JUMP JUMPDEST DUP1 PUSH1 0x1F ADD PUSH1 0x20 DUP1 SWAP2 DIV MUL PUSH1 0x20 ADD PUSH1 0x40 MLOAD SWAP1 DUP2 ADD PUSH1 0x40 MSTORE DUP1 SWAP3 SWAP2 SWAP1 DUP2 DUP2 MSTORE PUSH1 0x20 ADD DUP3 DUP1 SLOAD PUSH2 0xC6 SWAP1 PUSH2 0x17D JUMP JUMPDEST DUP1 ISZERO PUSH2 0x111 JUMPI DUP1 PUSH1 0x1F LT PUSH2 0xE8 JUMPI PUSH2 0x100 DUP1 DUP4 SLOAD DIV MUL DUP4 MSTORE SWAP2 PUSH1 0x20 ADD SWAP2 PUSH2 0x111 JUMP JUMPDEST DUP3 ADD SWAP2 SWAP1 PUSH0 MSTORE PUSH1 0x20 PUSH0 KECCAK256 SWAP1 JUMPDEST DUP2 SLOAD DUP2 MSTORE SWAP1 PUSH1 0x1 ADD SWAP1 PUSH1 0x20 ADD DUP1 DUP4 GT PUSH2 0xF4 JUMPI DUP3 SWAP1 SUB PUSH1 0x1F AND DUP3 ADD SWAP2 JUMPDEST POP POP POP POP POP SWAP1 DUP1 PUSH1 0x1 ADD SLOAD SWAP1 POP DUP3 JUMP JUMPDEST PUSH0 DUP1 PUSH1 0x40 DUP4 DUP6 SUB SLT ISZERO PUSH2 0x132 JUMPI PUSH0 DUP1 REVERT JUMPDEST POP POP DUP1 CALLDATALOAD SWAP3 PUSH1 0x20 SWAP1 SWAP2 ADD CALLDATALOAD SWAP2 POP JUMP JUMPDEST PUSH1 0x40 DUP2 MSTORE PUSH0 DUP4 MLOAD DUP1 PUSH1 0x40 DUP5 ADD MSTORE DUP1 PUSH1 0x20 DUP7 ADD PUSH1 0x60 DUP6 ADD MCOPY PUSH0 PUSH1 0x60 DUP3 DUP6 ADD ADD MSTORE PUSH1 0x60 PUSH1 0x1F NOT PUSH1 0x1F DUP4 ADD AND DUP5 ADD ADD SWAP2 POP POP DUP3 PUSH1 0x20 DUP4 ADD MSTORE SWAP4 SWAP3 POP POP POP JUMP JUMPDEST PUSH1 0x1 DUP2 DUP2 SHR SWAP1 DUP3 AND DUP1 PUSH2 0x191 JUMPI PUSH1 0x7F DUP3 AND SWAP2 POP JUMPDEST PUSH1 0x20 DUP3 LT DUP2 SUB PUSH2 0x1C8 JUMPI PUSH32 0x4E487B7100000000000000000000000000000000000000000000000000000000 PUSH0 MSTORE PUSH1 0x22 PUSH1 0x4 MSTORE PUSH1 0x24 PUSH0 REVERT JUMPDEST POP SWAP2 SWAP1 POP JUMP INVALID LOG2 PUSH5 0x6970667358 0x22 SLT KECCAK256 0xD7 PUSH29 0x43658921FADDBB97688198582DBD318612F3103147A9EB1F67B70DAAC1 SWAP3 PUSH5 0x736F6C6343 STOP ADDMOD NOT STOP CALLER "
				},
				"gasEstimates": {
					"creation": {
						"codeDepositCost": "103200",
						"executionCost": "151",
						"totalCost": "103351"
					},
					"external": {
						"people(uint256,uint256)": "infinite"
					}
				},
				"methodIdentifiers": {
					"people(uint256,uint256)": "173353ed"
				}
			},
			"storageLayout": {
				"storage": [
					{
						"astId": 11,
						"contract": "contracts/ContractI/ContractIV10.sol:ContractIV10",
						"label": "people",
						"offset": 0,
						"slot": "0",
						"type": "t_array(t_array(t_struct(Person)6_storage)dyn_storage)dyn_storage"
					}
				],
				"types": {
					"t_array(t_array(t_struct(Person)6_storage)dyn_storage)dyn_storage": {
						"base": "t_array(t_struct(Person)6_storage)dyn_storage",
						"encoding": "dynamic_array",
						"label": "struct ContractIV10.Person[][]",
						"numberOfBytes": "32"
					},
					"t_array(t_struct(Person)6_storage)dyn_storage": {
						"base": "t_struct(Person)6_storage",
						"encoding": "dynamic_array",
						"label": "struct ContractIV10.Person[]",
						"numberOfBytes": "32"
					},
					"t_string_storage": {
						"encoding": "bytes",
						"label": "string",
						"numberOfBytes": "32"
					},
					"t_struct(Person)6_storage": {
						"encoding": "inplace",
						"label": "struct ContractIV10.Person",
						"members": [
							{
								"astId": 3,
								"contract": "contracts/ContractI/ContractIV10.sol:ContractIV10",
								"label": "name",
								"offset": 0,
								"slot": "0",
								"type": "t_string_storage"
							},
							{
								"astId": 5,
								"contract": "contracts/ContractI/ContractIV10.sol:ContractIV10",
								"label": "age",
								"offset": 0,
								"slot": "1",
								"type": "t_uint256"
							}
						],
						"numberOfBytes": "64"
					},
					"t_uint256": {
						"encoding": "inplace",
						"label": "uint256",
						"numberOfBytes": "32"
					}
				}
			},
			"userdoc": {
				"kind": "user",
				"methods": {},
				"version": 1
			}
		}
	}
}