{
	"contracts/ContractI/ContractIV13.sol": {
		"ContractIV13": {
			"abi": [
				{
					"inputs": [
						{
							"internalType": "string",
							"name": "name",
							"type": "string"
						},
						{
							"internalType": "uint256",
							"name": "age",
							"type": "uint256"
						}
					],
					"name": "addPerson",
					"outputs": [],
					"stateMutability": "nonpayable",
					"type": "function"
				},
				{
					"inputs": [
						{
							"internalType": "uint256",
							"name": "index",
							"type": "uint256"
						}
					],
					"name": "deletePerson",
					"outputs": [],
					"stateMutability": "nonpayable",
					"type": "function"
				},
				{
					"inputs": [
						{
							"internalType": "uint256",
							"name": "",
							"type": "uint256"
						}
					],
					"name": "people",
					"outputs": [
						{
							"internalType": "string",
							"name": "name",
							"type": "string"
						},
						{
							"internalType": "uint256",
							"name": "age",
							"type": "uint256"
						}
					],
					"stateMutability": "view",
					"type": "function"
				}
			],
			"devdoc": {
				"kind": "dev",
				"methods": {},
				"version": 1
			},
			"evm": {
				"assembly": "    /* \"contracts/ContractI/ContractIV13.sol\":63:784  contract ContractIV13 {... */\n  mstore(0x40, 0x80)\n  callvalue\n  dup1\n  iszero\n  tag_1\n  jumpi\n  0x00\n  dup1\n  revert\ntag_1:\n  pop\n  dataSize(sub_0)\n  dup1\n  dataOffset(sub_0)\n  0x00\n  codecopy\n  0x00\n  return\nstop\n\nsub_0: assembly {\n        /* \"contracts/ContractI/ContractIV13.sol\":63:784  contract ContractIV13 {... */\n      mstore(0x40, 0x80)\n      callvalue\n      dup1\n      iszero\n      tag_1\n      jumpi\n      0x00\n      dup1\n      revert\n    tag_1:\n      pop\n      jumpi(tag_2, lt(calldatasize, 0x04))\n      shr(0xe0, calldataload(0x00))\n      dup1\n      0x6f760f41\n      eq\n      tag_3\n      jumpi\n      dup1\n      0x9e7a13ad\n      eq\n      tag_4\n      jumpi\n      dup1\n      0xd08c6803\n      eq\n      tag_5\n      jumpi\n    tag_2:\n      0x00\n      dup1\n      revert\n        /* \"contracts/ContractI/ContractIV13.sol\":340:450  function addPerson(string calldata name, uint256 age) public {... */\n    tag_3:\n      tag_6\n      tag_7\n      calldatasize\n      0x04\n      tag_8\n      jump\t// in\n    tag_7:\n      tag_9\n      jump\t// in\n    tag_6:\n      stop\n        /* \"contracts/ContractI/ContractIV13.sol\":309:331  Person[] public people */\n    tag_4:\n      tag_10\n      tag_11\n      calldatasize\n      0x04\n      tag_12\n      jump\t// in\n    tag_11:\n      tag_13\n      jump\t// in\n    tag_10:\n      mload(0x40)\n      tag_14\n      swap3\n      swap2\n      swap1\n      tag_15\n      jump\t// in\n    tag_14:\n      mload(0x40)\n      dup1\n      swap2\n      sub\n      swap1\n      return\n        /* \"contracts/ContractI/ContractIV13.sol\":458:781  function deletePerson(uint256 index) public {... */\n    tag_5:\n      tag_6\n      tag_17\n      calldatasize\n      0x04\n      tag_12\n      jump\t// in\n    tag_17:\n      tag_18\n      jump\t// in\n        /* \"contracts/ContractI/ContractIV13.sol\":340:450  function addPerson(string calldata name, uint256 age) public {... */\n    tag_9:\n        /* \"contracts/ContractI/ContractIV13.sol\":424:441  Person(name, age) */\n      0x40\n      dup1\n      mload\n      0x60\n      0x20\n      0x1f\n      dup7\n      add\n      dup2\n      swap1\n      div\n      mul\n      dup3\n      add\n      dup2\n      add\n      dup4\n      mstore\n      swap2\n      dup2\n      add\n      dup5\n      dup2\n      mstore\n        /* \"contracts/ContractI/ContractIV13.sol\":412:418  people */\n      0x00\n      swap3\n        /* \"contracts/ContractI/ContractIV13.sol\":424:441  Person(name, age) */\n      dup3\n      swap2\n      swap1\n        /* \"contracts/ContractI/ContractIV13.sol\":431:435  name */\n      dup8\n      swap1\n      dup8\n      swap1\n      dup2\n      swap1\n        /* \"contracts/ContractI/ContractIV13.sol\":424:441  Person(name, age) */\n      dup6\n      add\n        /* \"contracts/ContractI/ContractIV13.sol\":431:435  name */\n      dup4\n      dup3\n      dup1\n      dup3\n        /* \"contracts/ContractI/ContractIV13.sol\":424:441  Person(name, age) */\n      dup5\n      calldatacopy\n      0x00\n      swap3\n      add\n      dup3\n      swap1\n      mstore\n      pop\n      swap4\n      dup6\n      mstore\n      pop\n      pop\n      pop\n      0x20\n      swap2\n      dup3\n      add\n      dup6\n      swap1\n      mstore\n        /* \"contracts/ContractI/ContractIV13.sol\":412:442  people.push(Person(name, age)) */\n      dup4\n      sload\n      0x01\n      dup2\n      add\n      dup6\n      sstore\n      swap4\n      dup2\n      mstore\n      keccak256\n      dup2\n      mload\n      swap2\n      swap3\n      0x02\n      mul\n      add\n      swap1\n      dup2\n      swap1\n      tag_21\n      swap1\n      dup3\n      tag_22\n      jump\t// in\n    tag_21:\n      pop\n      0x20\n      dup3\n      add\n      mload\n      dup2\n      0x01\n      add\n      sstore\n      pop\n      pop\n        /* \"contracts/ContractI/ContractIV13.sol\":340:450  function addPerson(string calldata name, uint256 age) public {... */\n      pop\n      pop\n      pop\n      jump\t// out\n        /* \"contracts/ContractI/ContractIV13.sol\":309:331  Person[] public people */\n    tag_13:\n      0x00\n      dup2\n      dup2\n      sload\n      dup2\n      lt\n      tag_23\n      jumpi\n      0x00\n      dup1\n      revert\n    tag_23:\n      swap1\n      0x00\n      mstore\n      keccak256(0x00, 0x20)\n      swap1\n      0x02\n      mul\n      add\n      0x00\n      swap2\n      pop\n      swap1\n      pop\n      dup1\n      0x00\n      add\n      dup1\n      sload\n      tag_25\n      swap1\n      tag_26\n      jump\t// in\n    tag_25:\n      dup1\n      0x1f\n      add\n      0x20\n      dup1\n      swap2\n      div\n      mul\n      0x20\n      add\n      mload(0x40)\n      swap1\n      dup2\n      add\n      0x40\n      mstore\n      dup1\n      swap3\n      swap2\n      swap1\n      dup2\n      dup2\n      mstore\n      0x20\n      add\n      dup3\n      dup1\n      sload\n      tag_27\n      swap1\n      tag_26\n      jump\t// in\n    tag_27:\n      dup1\n      iszero\n      tag_28\n      jumpi\n      dup1\n      0x1f\n      lt\n      tag_29\n      jumpi\n      0x0100\n      dup1\n      dup4\n      sload\n      div\n      mul\n      dup4\n      mstore\n      swap2\n      0x20\n      add\n      swap2\n      jump(tag_28)\n    tag_29:\n      dup3\n      add\n      swap2\n      swap1\n      0x00\n      mstore\n      keccak256(0x00, 0x20)\n      swap1\n    tag_30:\n      dup2\n      sload\n      dup2\n      mstore\n      swap1\n      0x01\n      add\n      swap1\n      0x20\n      add\n      dup1\n      dup4\n      gt\n      tag_30\n      jumpi\n      dup3\n      swap1\n      sub\n      0x1f\n      and\n      dup3\n      add\n      swap2\n    tag_28:\n      pop\n      pop\n      pop\n      pop\n      pop\n      swap1\n      dup1\n      0x01\n      add\n      sload\n      swap1\n      pop\n      dup3\n      jump\t// out\n        /* \"contracts/ContractI/ContractIV13.sol\":458:781  function deletePerson(uint256 index) public {... */\n    tag_18:\n        /* \"contracts/ContractI/ContractIV13.sol\":662:667  index */\n      dup1\n        /* \"contracts/ContractI/ContractIV13.sol\":645:749  for (uint256 i = index; i < people.length - 1; i++) {... */\n    tag_32:\n        /* \"contracts/ContractI/ContractIV13.sol\":673:679  people */\n      0x00\n        /* \"contracts/ContractI/ContractIV13.sol\":673:686  people.length */\n      sload\n        /* \"contracts/ContractI/ContractIV13.sol\":673:690  people.length - 1 */\n      tag_35\n      swap1\n        /* \"contracts/ContractI/ContractIV13.sol\":689:690  1 */\n      0x01\n      swap1\n        /* \"contracts/ContractI/ContractIV13.sol\":673:690  people.length - 1 */\n      tag_36\n      jump\t// in\n    tag_35:\n        /* \"contracts/ContractI/ContractIV13.sol\":669:670  i */\n      dup2\n        /* \"contracts/ContractI/ContractIV13.sol\":669:690  i < people.length - 1 */\n      lt\n        /* \"contracts/ContractI/ContractIV13.sol\":645:749  for (uint256 i = index; i < people.length - 1; i++) {... */\n      iszero\n      tag_33\n      jumpi\n        /* \"contracts/ContractI/ContractIV13.sol\":724:730  people */\n      0x00\n        /* \"contracts/ContractI/ContractIV13.sol\":731:736  i + 1 */\n      tag_37\n        /* \"contracts/ContractI/ContractIV13.sol\":731:732  i */\n      dup3\n        /* \"contracts/ContractI/ContractIV13.sol\":735:736  1 */\n      0x01\n        /* \"contracts/ContractI/ContractIV13.sol\":731:736  i + 1 */\n      tag_38\n      jump\t// in\n    tag_37:\n        /* \"contracts/ContractI/ContractIV13.sol\":724:737  people[i + 1] */\n      dup2\n      sload\n      dup2\n      lt\n      tag_40\n      jumpi\n      tag_40\n      tag_41\n      jump\t// in\n    tag_40:\n      swap1\n      0x00\n      mstore\n      keccak256(0x00, 0x20)\n      swap1\n      0x02\n      mul\n      add\n        /* \"contracts/ContractI/ContractIV13.sol\":712:718  people */\n      0x00\n        /* \"contracts/ContractI/ContractIV13.sol\":719:720  i */\n      dup3\n        /* \"contracts/ContractI/ContractIV13.sol\":712:721  people[i] */\n      dup2\n      sload\n      dup2\n      lt\n      tag_44\n      jumpi\n      tag_44\n      tag_41\n      jump\t// in\n    tag_44:\n      0x00\n      swap2\n      dup3\n      mstore\n      0x20\n      swap1\n      swap2\n      keccak256\n      0x02\n      swap1\n      swap2\n      mul\n      add\n      dup1\n        /* \"contracts/ContractI/ContractIV13.sol\":712:737  people[i] = people[i + 1] */\n      tag_46\n      dup4\n        /* \"contracts/ContractI/ContractIV13.sol\":712:721  people[i] */\n      dup3\n        /* \"contracts/ContractI/ContractIV13.sol\":712:737  people[i] = people[i + 1] */\n      tag_47\n      jump\t// in\n    tag_46:\n      pop\n      0x01\n      swap2\n      dup3\n      add\n      sload\n      swap1\n      dup3\n      add\n      sstore\n        /* \"contracts/ContractI/ContractIV13.sol\":692:695  i++ */\n      add\n        /* \"contracts/ContractI/ContractIV13.sol\":645:749  for (uint256 i = index; i < people.length - 1; i++) {... */\n      jump(tag_32)\n    tag_33:\n      pop\n        /* \"contracts/ContractI/ContractIV13.sol\":761:767  people */\n      0x00\n        /* \"contracts/ContractI/ContractIV13.sol\":761:773  people.pop() */\n      dup1\n      sload\n      dup1\n      tag_49\n      jumpi\n      tag_49\n      tag_50\n      jump\t// in\n    tag_49:\n      0x00\n      dup3\n      dup2\n      mstore\n      0x20\n      dup2\n      keccak256\n      not(0x00)\n      swap1\n      swap3\n      add\n      swap2\n      0x02\n      dup4\n      mul\n      add\n      swap1\n      tag_52\n      dup3\n      dup3\n      tag_53\n      jump\t// in\n    tag_52:\n      0x01\n      dup3\n      add\n      0x00\n      swap1\n      sstore\n      pop\n      pop\n      swap1\n      sstore\n        /* \"contracts/ContractI/ContractIV13.sol\":458:781  function deletePerson(uint256 index) public {... */\n      pop\n      jump\t// out\n    tag_53:\n      pop\n      dup1\n      sload\n      tag_54\n      swap1\n      tag_26\n      jump\t// in\n    tag_54:\n      0x00\n      dup3\n      sstore\n      dup1\n      0x1f\n      lt\n      tag_56\n      jumpi\n      pop\n      pop\n      jump\t// out\n    tag_56:\n      0x1f\n      add\n      0x20\n      swap1\n      div\n      swap1\n      0x00\n      mstore\n      keccak256(0x00, 0x20)\n      swap1\n      dup2\n      add\n      swap1\n      tag_57\n      swap2\n      swap1\n      tag_58\n      jump\t// in\n    tag_57:\n      pop\n      jump\t// out\n    tag_58:\n    tag_59:\n      dup1\n      dup3\n      gt\n      iszero\n      tag_60\n      jumpi\n      0x00\n      dup2\n      sstore\n      0x01\n      add\n      jump(tag_59)\n    tag_60:\n      pop\n      swap1\n      jump\t// out\n        /* \"#utility.yul\":14:680   */\n    tag_8:\n        /* \"#utility.yul\":94:100   */\n      0x00\n        /* \"#utility.yul\":102:108   */\n      dup1\n        /* \"#utility.yul\":110:116   */\n      0x00\n        /* \"#utility.yul\":163:165   */\n      0x40\n        /* \"#utility.yul\":151:160   */\n      dup5\n        /* \"#utility.yul\":142:149   */\n      dup7\n        /* \"#utility.yul\":138:161   */\n      sub\n        /* \"#utility.yul\":134:166   */\n      slt\n        /* \"#utility.yul\":131:183   */\n      iszero\n      tag_68\n      jumpi\n        /* \"#utility.yul\":179:180   */\n      0x00\n        /* \"#utility.yul\":176:177   */\n      dup1\n        /* \"#utility.yul\":169:181   */\n      revert\n        /* \"#utility.yul\":131:183   */\n    tag_68:\n        /* \"#utility.yul\":219:228   */\n      dup4\n        /* \"#utility.yul\":206:229   */\n      calldataload\n        /* \"#utility.yul\":248:266   */\n      0xffffffffffffffff\n        /* \"#utility.yul\":289:291   */\n      dup1\n        /* \"#utility.yul\":281:287   */\n      dup3\n        /* \"#utility.yul\":278:292   */\n      gt\n        /* \"#utility.yul\":275:309   */\n      iszero\n      tag_69\n      jumpi\n        /* \"#utility.yul\":305:306   */\n      0x00\n        /* \"#utility.yul\":302:303   */\n      dup1\n        /* \"#utility.yul\":295:307   */\n      revert\n        /* \"#utility.yul\":275:309   */\n    tag_69:\n        /* \"#utility.yul\":343:349   */\n      dup2\n        /* \"#utility.yul\":332:341   */\n      dup7\n        /* \"#utility.yul\":328:350   */\n      add\n        /* \"#utility.yul\":318:350   */\n      swap2\n      pop\n        /* \"#utility.yul\":388:395   */\n      dup7\n        /* \"#utility.yul\":381:385   */\n      0x1f\n        /* \"#utility.yul\":377:379   */\n      dup4\n        /* \"#utility.yul\":373:386   */\n      add\n        /* \"#utility.yul\":369:396   */\n      slt\n        /* \"#utility.yul\":359:414   */\n      tag_70\n      jumpi\n        /* \"#utility.yul\":410:411   */\n      0x00\n        /* \"#utility.yul\":407:408   */\n      dup1\n        /* \"#utility.yul\":400:412   */\n      revert\n        /* \"#utility.yul\":359:414   */\n    tag_70:\n        /* \"#utility.yul\":450:452   */\n      dup2\n        /* \"#utility.yul\":437:453   */\n      calldataload\n        /* \"#utility.yul\":476:478   */\n      dup2\n        /* \"#utility.yul\":468:474   */\n      dup2\n        /* \"#utility.yul\":465:479   */\n      gt\n        /* \"#utility.yul\":462:496   */\n      iszero\n      tag_71\n      jumpi\n        /* \"#utility.yul\":492:493   */\n      0x00\n        /* \"#utility.yul\":489:490   */\n      dup1\n        /* \"#utility.yul\":482:494   */\n      revert\n        /* \"#utility.yul\":462:496   */\n    tag_71:\n        /* \"#utility.yul\":539:546   */\n      dup8\n        /* \"#utility.yul\":532:536   */\n      0x20\n        /* \"#utility.yul\":523:529   */\n      dup3\n        /* \"#utility.yul\":519:521   */\n      dup6\n        /* \"#utility.yul\":515:530   */\n      add\n        /* \"#utility.yul\":511:537   */\n      add\n        /* \"#utility.yul\":508:547   */\n      gt\n        /* \"#utility.yul\":505:564   */\n      iszero\n      tag_72\n      jumpi\n        /* \"#utility.yul\":560:561   */\n      0x00\n        /* \"#utility.yul\":557:558   */\n      dup1\n        /* \"#utility.yul\":550:562   */\n      revert\n        /* \"#utility.yul\":505:564   */\n    tag_72:\n        /* \"#utility.yul\":591:595   */\n      0x20\n        /* \"#utility.yul\":583:596   */\n      swap3\n      dup4\n      add\n      swap9\n        /* \"#utility.yul\":615:621   */\n      swap1\n      swap8\n      pop\n        /* \"#utility.yul\":653:673   */\n      swap6\n      swap1\n      swap2\n      add\n        /* \"#utility.yul\":640:674   */\n      calldataload\n      swap5\n        /* \"#utility.yul\":14:680   */\n      swap4\n      pop\n      pop\n      pop\n      pop\n      jump\t// out\n        /* \"#utility.yul\":685:865   */\n    tag_12:\n        /* \"#utility.yul\":744:750   */\n      0x00\n        /* \"#utility.yul\":797:799   */\n      0x20\n        /* \"#utility.yul\":785:794   */\n      dup3\n        /* \"#utility.yul\":776:783   */\n      dup5\n        /* \"#utility.yul\":772:795   */\n      sub\n        /* \"#utility.yul\":768:800   */\n      slt\n        /* \"#utility.yul\":765:817   */\n      iszero\n      tag_74\n      jumpi\n        /* \"#utility.yul\":813:814   */\n      0x00\n        /* \"#utility.yul\":810:811   */\n      dup1\n        /* \"#utility.yul\":803:815   */\n      revert\n        /* \"#utility.yul\":765:817   */\n    tag_74:\n      pop\n        /* \"#utility.yul\":836:859   */\n      calldataload\n      swap2\n        /* \"#utility.yul\":685:865   */\n      swap1\n      pop\n      jump\t// out\n        /* \"#utility.yul\":870:1363   */\n    tag_15:\n        /* \"#utility.yul\":1047:1049   */\n      0x40\n        /* \"#utility.yul\":1036:1045   */\n      dup2\n        /* \"#utility.yul\":1029:1050   */\n      mstore\n        /* \"#utility.yul\":1010:1014   */\n      0x00\n        /* \"#utility.yul\":1079:1085   */\n      dup4\n        /* \"#utility.yul\":1073:1086   */\n      mload\n        /* \"#utility.yul\":1122:1128   */\n      dup1\n        /* \"#utility.yul\":1117:1119   */\n      0x40\n        /* \"#utility.yul\":1106:1115   */\n      dup5\n        /* \"#utility.yul\":1102:1120   */\n      add\n        /* \"#utility.yul\":1095:1129   */\n      mstore\n        /* \"#utility.yul\":1183:1189   */\n      dup1\n        /* \"#utility.yul\":1176:1180   */\n      0x20\n        /* \"#utility.yul\":1168:1174   */\n      dup7\n        /* \"#utility.yul\":1164:1181   */\n      add\n        /* \"#utility.yul\":1159:1161   */\n      0x60\n        /* \"#utility.yul\":1148:1157   */\n      dup6\n        /* \"#utility.yul\":1144:1162   */\n      add\n        /* \"#utility.yul\":1138:1190   */\n      mcopy\n        /* \"#utility.yul\":1239:1240   */\n      0x00\n        /* \"#utility.yul\":1234:1236   */\n      0x60\n        /* \"#utility.yul\":1225:1231   */\n      dup3\n        /* \"#utility.yul\":1214:1223   */\n      dup6\n        /* \"#utility.yul\":1210:1232   */\n      add\n        /* \"#utility.yul\":1206:1237   */\n      add\n        /* \"#utility.yul\":1199:1241   */\n      mstore\n        /* \"#utility.yul\":1309:1311   */\n      0x60\n        /* \"#utility.yul\":1302:1304   */\n      0x1f\n        /* \"#utility.yul\":1298:1305   */\n      not\n        /* \"#utility.yul\":1293:1295   */\n      0x1f\n        /* \"#utility.yul\":1285:1291   */\n      dup4\n        /* \"#utility.yul\":1281:1296   */\n      add\n        /* \"#utility.yul\":1277:1306   */\n      and\n        /* \"#utility.yul\":1266:1275   */\n      dup5\n        /* \"#utility.yul\":1262:1307   */\n      add\n        /* \"#utility.yul\":1258:1312   */\n      add\n        /* \"#utility.yul\":1250:1312   */\n      swap2\n      pop\n      pop\n        /* \"#utility.yul\":1350:1356   */\n      dup3\n        /* \"#utility.yul\":1343:1347   */\n      0x20\n        /* \"#utility.yul\":1332:1341   */\n      dup4\n        /* \"#utility.yul\":1328:1348   */\n      add\n        /* \"#utility.yul\":1321:1357   */\n      mstore\n        /* \"#utility.yul\":870:1363   */\n      swap4\n      swap3\n      pop\n      pop\n      pop\n      jump\t// out\n        /* \"#utility.yul\":1368:1552   */\n    tag_61:\n      shl(0xe0, 0x4e487b71)\n        /* \"#utility.yul\":1417:1418   */\n      0x00\n        /* \"#utility.yul\":1410:1498   */\n      mstore\n        /* \"#utility.yul\":1517:1521   */\n      0x41\n        /* \"#utility.yul\":1514:1515   */\n      0x04\n        /* \"#utility.yul\":1507:1522   */\n      mstore\n        /* \"#utility.yul\":1541:1545   */\n      0x24\n        /* \"#utility.yul\":1538:1539   */\n      0x00\n        /* \"#utility.yul\":1531:1546   */\n      revert\n        /* \"#utility.yul\":1557:1994   */\n    tag_26:\n        /* \"#utility.yul\":1636:1637   */\n      0x01\n        /* \"#utility.yul\":1632:1644   */\n      dup2\n      dup2\n      shr\n      swap1\n        /* \"#utility.yul\":1679:1691   */\n      dup3\n      and\n      dup1\n        /* \"#utility.yul\":1700:1761   */\n      tag_78\n      jumpi\n        /* \"#utility.yul\":1754:1758   */\n      0x7f\n        /* \"#utility.yul\":1746:1752   */\n      dup3\n        /* \"#utility.yul\":1742:1759   */\n      and\n        /* \"#utility.yul\":1732:1759   */\n      swap2\n      pop\n        /* \"#utility.yul\":1700:1761   */\n    tag_78:\n        /* \"#utility.yul\":1807:1809   */\n      0x20\n        /* \"#utility.yul\":1799:1805   */\n      dup3\n        /* \"#utility.yul\":1796:1810   */\n      lt\n        /* \"#utility.yul\":1776:1794   */\n      dup2\n        /* \"#utility.yul\":1773:1811   */\n      sub\n        /* \"#utility.yul\":1770:1988   */\n      tag_79\n      jumpi\n      shl(0xe0, 0x4e487b71)\n        /* \"#utility.yul\":1841:1842   */\n      0x00\n        /* \"#utility.yul\":1834:1922   */\n      mstore\n        /* \"#utility.yul\":1945:1949   */\n      0x22\n        /* \"#utility.yul\":1942:1943   */\n      0x04\n        /* \"#utility.yul\":1935:1950   */\n      mstore\n        /* \"#utility.yul\":1973:1977   */\n      0x24\n        /* \"#utility.yul\":1970:1971   */\n      0x00\n        /* \"#utility.yul\":1963:1978   */\n      revert\n        /* \"#utility.yul\":1770:1988   */\n    tag_79:\n      pop\n        /* \"#utility.yul\":1557:1994   */\n      swap2\n      swap1\n      pop\n      jump\t// out\n        /* \"#utility.yul\":2125:2643   */\n    tag_63:\n        /* \"#utility.yul\":2227:2229   */\n      0x1f\n        /* \"#utility.yul\":2222:2225   */\n      dup3\n        /* \"#utility.yul\":2219:2230   */\n      gt\n        /* \"#utility.yul\":2216:2637   */\n      iszero\n      tag_82\n      jumpi\n        /* \"#utility.yul\":2263:2268   */\n      dup1\n        /* \"#utility.yul\":2260:2261   */\n      0x00\n        /* \"#utility.yul\":2253:2269   */\n      mstore\n        /* \"#utility.yul\":2307:2311   */\n      0x20\n        /* \"#utility.yul\":2304:2305   */\n      0x00\n        /* \"#utility.yul\":2294:2312   */\n      keccak256\n        /* \"#utility.yul\":2377:2379   */\n      0x1f\n        /* \"#utility.yul\":2365:2375   */\n      dup5\n        /* \"#utility.yul\":2361:2380   */\n      add\n        /* \"#utility.yul\":2358:2359   */\n      0x05\n        /* \"#utility.yul\":2354:2381   */\n      shr\n        /* \"#utility.yul\":2348:2352   */\n      dup2\n        /* \"#utility.yul\":2344:2382   */\n      add\n        /* \"#utility.yul\":2413:2417   */\n      0x20\n        /* \"#utility.yul\":2401:2411   */\n      dup6\n        /* \"#utility.yul\":2398:2418   */\n      lt\n        /* \"#utility.yul\":2395:2442   */\n      iszero\n      tag_83\n      jumpi\n      pop\n        /* \"#utility.yul\":2436:2440   */\n      dup1\n        /* \"#utility.yul\":2395:2442   */\n    tag_83:\n        /* \"#utility.yul\":2491:2493   */\n      0x1f\n        /* \"#utility.yul\":2486:2489   */\n      dup5\n        /* \"#utility.yul\":2482:2494   */\n      add\n        /* \"#utility.yul\":2479:2480   */\n      0x05\n        /* \"#utility.yul\":2475:2495   */\n      shr\n        /* \"#utility.yul\":2469:2473   */\n      dup3\n        /* \"#utility.yul\":2465:2496   */\n      add\n        /* \"#utility.yul\":2455:2496   */\n      swap2\n      pop\n        /* \"#utility.yul\":2546:2627   */\n    tag_84:\n        /* \"#utility.yul\":2564:2566   */\n      dup2\n        /* \"#utility.yul\":2557:2562   */\n      dup2\n        /* \"#utility.yul\":2554:2567   */\n      lt\n        /* \"#utility.yul\":2546:2627   */\n      iszero\n      tag_86\n      jumpi\n        /* \"#utility.yul\":2623:2624   */\n      0x00\n        /* \"#utility.yul\":2609:2625   */\n      dup2\n      sstore\n        /* \"#utility.yul\":2590:2591   */\n      0x01\n        /* \"#utility.yul\":2579:2592   */\n      add\n        /* \"#utility.yul\":2546:2627   */\n      jump(tag_84)\n    tag_86:\n        /* \"#utility.yul\":2550:2553   */\n      pop\n      pop\n        /* \"#utility.yul\":2216:2637   */\n    tag_82:\n        /* \"#utility.yul\":2125:2643   */\n      pop\n      pop\n      pop\n      jump\t// out\n        /* \"#utility.yul\":2819:4164   */\n    tag_22:\n        /* \"#utility.yul\":2945:2948   */\n      dup2\n        /* \"#utility.yul\":2939:2949   */\n      mload\n        /* \"#utility.yul\":2972:2990   */\n      0xffffffffffffffff\n        /* \"#utility.yul\":2964:2970   */\n      dup2\n        /* \"#utility.yul\":2961:2991   */\n      gt\n        /* \"#utility.yul\":2958:3014   */\n      iszero\n      tag_90\n      jumpi\n        /* \"#utility.yul\":2994:3012   */\n      tag_90\n      tag_61\n      jump\t// in\n    tag_90:\n        /* \"#utility.yul\":3023:3120   */\n      tag_91\n        /* \"#utility.yul\":3113:3119   */\n      dup2\n        /* \"#utility.yul\":3073:3111   */\n      tag_92\n        /* \"#utility.yul\":3105:3109   */\n      dup5\n        /* \"#utility.yul\":3099:3110   */\n      sload\n        /* \"#utility.yul\":3073:3111   */\n      tag_26\n      jump\t// in\n    tag_92:\n        /* \"#utility.yul\":3067:3071   */\n      dup5\n        /* \"#utility.yul\":3023:3120   */\n      tag_63\n      jump\t// in\n    tag_91:\n        /* \"#utility.yul\":3175:3179   */\n      0x20\n      dup1\n        /* \"#utility.yul\":3232:3234   */\n      0x1f\n        /* \"#utility.yul\":3221:3235   */\n      dup4\n      gt\n        /* \"#utility.yul\":3249:3250   */\n      0x01\n        /* \"#utility.yul\":3244:3907   */\n      dup2\n      eq\n      tag_94\n      jumpi\n        /* \"#utility.yul\":3951:3952   */\n      0x00\n        /* \"#utility.yul\":3968:3974   */\n      dup5\n        /* \"#utility.yul\":3965:4054   */\n      iszero\n      tag_95\n      jumpi\n      pop\n        /* \"#utility.yul\":4020:4039   */\n      dup6\n      dup4\n      add\n        /* \"#utility.yul\":4014:4040   */\n      mload\n        /* \"#utility.yul\":3965:4054   */\n    tag_95:\n      not(0x00)\n        /* \"#utility.yul\":2776:2777   */\n      0x03\n        /* \"#utility.yul\":2772:2783   */\n      dup7\n      swap1\n      shl\n        /* \"#utility.yul\":2768:2792   */\n      shr\n        /* \"#utility.yul\":2764:2793   */\n      not\n        /* \"#utility.yul\":2754:2794   */\n      and\n        /* \"#utility.yul\":2800:2801   */\n      0x01\n        /* \"#utility.yul\":2796:2807   */\n      dup6\n      swap1\n      shl\n        /* \"#utility.yul\":2751:2808   */\n      or\n        /* \"#utility.yul\":4067:4148   */\n      dup6\n      sstore\n        /* \"#utility.yul\":3214:4158   */\n      jump(tag_93)\n        /* \"#utility.yul\":3244:3907   */\n    tag_94:\n        /* \"#utility.yul\":2072:2073   */\n      0x00\n        /* \"#utility.yul\":2065:2079   */\n      dup6\n      dup2\n      mstore\n        /* \"#utility.yul\":2109:2113   */\n      0x20\n        /* \"#utility.yul\":2096:2114   */\n      dup2\n      keccak256\n      not(0x1f)\n        /* \"#utility.yul\":3280:3300   */\n      dup7\n      and\n      swap2\n        /* \"#utility.yul\":3398:3634   */\n    tag_98:\n        /* \"#utility.yul\":3412:3419   */\n      dup3\n        /* \"#utility.yul\":3409:3410   */\n      dup2\n        /* \"#utility.yul\":3406:3420   */\n      lt\n        /* \"#utility.yul\":3398:3634   */\n      iszero\n      tag_100\n      jumpi\n        /* \"#utility.yul\":3501:3520   */\n      dup9\n      dup7\n      add\n        /* \"#utility.yul\":3495:3521   */\n      mload\n        /* \"#utility.yul\":3480:3522   */\n      dup3\n      sstore\n        /* \"#utility.yul\":3593:3620   */\n      swap5\n      dup5\n      add\n      swap5\n        /* \"#utility.yul\":3561:3562   */\n      0x01\n        /* \"#utility.yul\":3549:3563   */\n      swap1\n      swap2\n      add\n      swap1\n        /* \"#utility.yul\":3428:3447   */\n      dup5\n      add\n        /* \"#utility.yul\":3398:3634   */\n      jump(tag_98)\n    tag_100:\n        /* \"#utility.yul\":3402:3405   */\n      pop\n        /* \"#utility.yul\":3662:3668   */\n      dup6\n        /* \"#utility.yul\":3653:3660   */\n      dup3\n        /* \"#utility.yul\":3650:3669   */\n      lt\n        /* \"#utility.yul\":3647:3848   */\n      iszero\n      tag_101\n      jumpi\n        /* \"#utility.yul\":3723:3742   */\n      dup8\n      dup6\n      add\n        /* \"#utility.yul\":3717:3743   */\n      mload\n      not(0x00)\n        /* \"#utility.yul\":3806:3807   */\n      0x03\n        /* \"#utility.yul\":3802:3816   */\n      dup9\n      swap1\n      shl\n        /* \"#utility.yul\":3818:3821   */\n      0xf8\n        /* \"#utility.yul\":3798:3822   */\n      and\n        /* \"#utility.yul\":3794:3831   */\n      shr\n        /* \"#utility.yul\":3790:3832   */\n      not\n        /* \"#utility.yul\":3775:3833   */\n      and\n        /* \"#utility.yul\":3760:3834   */\n      dup2\n      sstore\n        /* \"#utility.yul\":3647:3848   */\n    tag_101:\n      pop\n      pop\n        /* \"#utility.yul\":3894:3895   */\n      0x01\n        /* \"#utility.yul\":3885:3891   */\n      dup5\n        /* \"#utility.yul\":3882:3883   */\n      0x01\n        /* \"#utility.yul\":3878:3892   */\n      shl\n        /* \"#utility.yul\":3874:3896   */\n      add\n        /* \"#utility.yul\":3868:3872   */\n      dup6\n        /* \"#utility.yul\":3861:3897   */\n      sstore\n        /* \"#utility.yul\":3214:4158   */\n    tag_93:\n      pop\n      pop\n      pop\n      pop\n        /* \"#utility.yul\":2819:4164   */\n      pop\n      pop\n      jump\t// out\n        /* \"#utility.yul\":4169:4353   */\n    tag_65:\n      shl(0xe0, 0x4e487b71)\n        /* \"#utility.yul\":4218:4219   */\n      0x00\n        /* \"#utility.yul\":4211:4299   */\n      mstore\n        /* \"#utility.yul\":4318:4322   */\n      0x11\n        /* \"#utility.yul\":4315:4316   */\n      0x04\n        /* \"#utility.yul\":4308:4323   */\n      mstore\n        /* \"#utility.yul\":4342:4346   */\n      0x24\n        /* \"#utility.yul\":4339:4340   */\n      0x00\n        /* \"#utility.yul\":4332:4347   */\n      revert\n        /* \"#utility.yul\":4358:4486   */\n    tag_36:\n        /* \"#utility.yul\":4425:4434   */\n      dup2\n      dup2\n      sub\n        /* \"#utility.yul\":4446:4457   */\n      dup2\n      dup2\n      gt\n        /* \"#utility.yul\":4443:4480   */\n      iszero\n      tag_105\n      jumpi\n        /* \"#utility.yul\":4460:4478   */\n      tag_105\n      tag_65\n      jump\t// in\n    tag_105:\n        /* \"#utility.yul\":4358:4486   */\n      swap3\n      swap2\n      pop\n      pop\n      jump\t// out\n        /* \"#utility.yul\":4491:4616   */\n    tag_38:\n        /* \"#utility.yul\":4556:4565   */\n      dup1\n      dup3\n      add\n        /* \"#utility.yul\":4577:4587   */\n      dup1\n      dup3\n      gt\n        /* \"#utility.yul\":4574:4610   */\n      iszero\n      tag_105\n      jumpi\n        /* \"#utility.yul\":4590:4608   */\n      tag_105\n      tag_65\n      jump\t// in\n        /* \"#utility.yul\":4621:4805   */\n    tag_41:\n      shl(0xe0, 0x4e487b71)\n        /* \"#utility.yul\":4670:4671   */\n      0x00\n        /* \"#utility.yul\":4663:4751   */\n      mstore\n        /* \"#utility.yul\":4770:4774   */\n      0x32\n        /* \"#utility.yul\":4767:4768   */\n      0x04\n        /* \"#utility.yul\":4760:4775   */\n      mstore\n        /* \"#utility.yul\":4794:4798   */\n      0x24\n        /* \"#utility.yul\":4791:4792   */\n      0x00\n        /* \"#utility.yul\":4784:4799   */\n      revert\n        /* \"#utility.yul\":4810:6233   */\n    tag_47:\n        /* \"#utility.yul\":4925:4928   */\n      dup2\n        /* \"#utility.yul\":4919:4923   */\n      dup2\n        /* \"#utility.yul\":4916:4929   */\n      sub\n        /* \"#utility.yul\":4913:4939   */\n      tag_111\n      jumpi\n        /* \"#utility.yul\":4932:4937   */\n      pop\n      pop\n        /* \"#utility.yul\":4810:6233   */\n      jump\t// out\n        /* \"#utility.yul\":4913:4939   */\n    tag_111:\n        /* \"#utility.yul\":4962:4999   */\n      tag_112\n        /* \"#utility.yul\":4994:4997   */\n      dup3\n        /* \"#utility.yul\":4988:4998   */\n      sload\n        /* \"#utility.yul\":4962:4999   */\n      tag_26\n      jump\t// in\n    tag_112:\n        /* \"#utility.yul\":5022:5040   */\n      0xffffffffffffffff\n        /* \"#utility.yul\":5014:5020   */\n      dup2\n        /* \"#utility.yul\":5011:5041   */\n      gt\n        /* \"#utility.yul\":5008:5064   */\n      iszero\n      tag_114\n      jumpi\n        /* \"#utility.yul\":5044:5062   */\n      tag_114\n      tag_61\n      jump\t// in\n    tag_114:\n        /* \"#utility.yul\":5073:5170   */\n      tag_115\n        /* \"#utility.yul\":5163:5169   */\n      dup2\n        /* \"#utility.yul\":5123:5161   */\n      tag_92\n        /* \"#utility.yul\":5155:5159   */\n      dup5\n        /* \"#utility.yul\":5149:5160   */\n      sload\n        /* \"#utility.yul\":5123:5161   */\n      tag_26\n      jump\t// in\n        /* \"#utility.yul\":5073:5170   */\n    tag_115:\n        /* \"#utility.yul\":5196:5197   */\n      0x00\n        /* \"#utility.yul\":5224:5226   */\n      0x1f\n        /* \"#utility.yul\":5216:5222   */\n      dup3\n        /* \"#utility.yul\":5213:5227   */\n      gt\n        /* \"#utility.yul\":5241:5242   */\n      0x01\n        /* \"#utility.yul\":5236:5976   */\n      dup2\n      eq\n      tag_118\n      jumpi\n        /* \"#utility.yul\":6020:6021   */\n      0x00\n        /* \"#utility.yul\":6037:6043   */\n      dup4\n        /* \"#utility.yul\":6034:6123   */\n      iszero\n      tag_119\n      jumpi\n      pop\n        /* \"#utility.yul\":6089:6108   */\n      dup5\n      dup3\n      add\n        /* \"#utility.yul\":6083:6109   */\n      sload\n        /* \"#utility.yul\":6034:6123   */\n    tag_119:\n      not(0x00)\n        /* \"#utility.yul\":2776:2777   */\n      0x03\n        /* \"#utility.yul\":2772:2783   */\n      dup6\n      swap1\n      shl\n        /* \"#utility.yul\":2768:2792   */\n      shr\n        /* \"#utility.yul\":2764:2793   */\n      not\n        /* \"#utility.yul\":2754:2794   */\n      and\n        /* \"#utility.yul\":2800:2801   */\n      0x01\n        /* \"#utility.yul\":2796:2807   */\n      dup5\n      swap1\n      shl\n        /* \"#utility.yul\":2751:2808   */\n      or\n        /* \"#utility.yul\":6136:6217   */\n      dup5\n      sstore\n        /* \"#utility.yul\":5206:6227   */\n      jump(tag_86)\n        /* \"#utility.yul\":5236:5976   */\n    tag_118:\n        /* \"#utility.yul\":2072:2073   */\n      0x00\n        /* \"#utility.yul\":2065:2079   */\n      dup6\n      dup2\n      mstore\n        /* \"#utility.yul\":2109:2113   */\n      0x20\n        /* \"#utility.yul\":2096:2114   */\n      dup1\n      dup3\n      keccak256\n        /* \"#utility.yul\":2065:2079   */\n      dup7\n      dup4\n      mstore\n        /* \"#utility.yul\":2096:2114   */\n      swap1\n      dup3\n      keccak256\n      not(0x1f)\n        /* \"#utility.yul\":5272:5292   */\n      dup7\n      and\n      swap3\n        /* \"#utility.yul\":5450:5701   */\n    tag_123:\n        /* \"#utility.yul\":5464:5471   */\n      dup4\n        /* \"#utility.yul\":5461:5462   */\n      dup2\n        /* \"#utility.yul\":5458:5472   */\n      lt\n        /* \"#utility.yul\":5450:5701   */\n      iszero\n      tag_125\n      jumpi\n        /* \"#utility.yul\":5546:5567   */\n      dup3\n      dup7\n      add\n        /* \"#utility.yul\":5540:5568   */\n      sload\n        /* \"#utility.yul\":5525:5569   */\n      dup3\n      sstore\n        /* \"#utility.yul\":5596:5597   */\n      0x01\n        /* \"#utility.yul\":5669:5687   */\n      swap6\n      dup7\n      add\n      swap6\n        /* \"#utility.yul\":5624:5639   */\n      swap1\n      swap2\n      add\n      swap1\n        /* \"#utility.yul\":5487:5491   */\n      0x20\n        /* \"#utility.yul\":5480:5492   */\n      add\n        /* \"#utility.yul\":5450:5701   */\n      jump(tag_123)\n    tag_125:\n        /* \"#utility.yul\":5454:5457   */\n      pop\n        /* \"#utility.yul\":5729:5735   */\n      dup6\n        /* \"#utility.yul\":5720:5727   */\n      dup4\n        /* \"#utility.yul\":5717:5736   */\n      lt\n        /* \"#utility.yul\":5714:5917   */\n      iszero\n      tag_126\n      jumpi\n        /* \"#utility.yul\":5790:5811   */\n      dup2\n      dup6\n      add\n        /* \"#utility.yul\":5784:5812   */\n      sload\n      not(0x00)\n        /* \"#utility.yul\":5875:5876   */\n      0x03\n        /* \"#utility.yul\":5871:5885   */\n      dup9\n      swap1\n      shl\n        /* \"#utility.yul\":5887:5890   */\n      0xf8\n        /* \"#utility.yul\":5867:5891   */\n      and\n        /* \"#utility.yul\":5863:5900   */\n      shr\n        /* \"#utility.yul\":5859:5901   */\n      not\n        /* \"#utility.yul\":5844:5902   */\n      and\n        /* \"#utility.yul\":5829:5903   */\n      dup2\n      sstore\n        /* \"#utility.yul\":5714:5917   */\n    tag_126:\n      pop\n      pop\n      pop\n      pop\n      pop\n        /* \"#utility.yul\":5963:5964   */\n      0x01\n        /* \"#utility.yul\":5947:5961   */\n      swap1\n      dup2\n      shl\n        /* \"#utility.yul\":5943:5965   */\n      add\n        /* \"#utility.yul\":5930:5966   */\n      swap1\n      sstore\n      pop\n        /* \"#utility.yul\":4810:6233   */\n      jump\t// out\n        /* \"#utility.yul\":6238:6422   */\n    tag_50:\n      shl(0xe0, 0x4e487b71)\n        /* \"#utility.yul\":6287:6288   */\n      0x00\n        /* \"#utility.yul\":6280:6368   */\n      mstore\n        /* \"#utility.yul\":6387:6391   */\n      0x31\n        /* \"#utility.yul\":6384:6385   */\n      0x04\n        /* \"#utility.yul\":6377:6392   */\n      mstore\n        /* \"#utility.yul\":6411:6415   */\n      0x24\n        /* \"#utility.yul\":6408:6409   */\n      0x00\n        /* \"#utility.yul\":6401:6416   */\n      revert\n\n    auxdata: 0xa2646970667358221220eab440b4d5a4dcb8ad9485be853453ab9f4cc2638fab2ee3a9a2aa4574a30af764736f6c63430008190033\n}\n",
				"bytecode": {
					"linkReferences": {},
					"object": "6080604052348015600e575f80fd5b506106548061001c5f395ff3fe608060405234801561000f575f80fd5b506004361061003f575f3560e01c80636f760f41146100435780639e7a13ad14610058578063d08c680314610082575b5f80fd5b6100566100513660046102cb565b610095565b005b61006b61006636600461033c565b61010c565b604051610079929190610353565b60405180910390f35b61005661009036600461033c565b6101c0565b6040805160606020601f8601819004028201810183529181018481525f9282919087908790819085018382808284375f920182905250938552505050602091820185905283546001810185559381522081519192600202019081906100fa9082610427565b50602082015181600101555050505050565b5f818154811061011a575f80fd5b905f5260205f2090600202015f91509050805f018054610139906103a3565b80601f0160208091040260200160405190810160405280929190818152602001828054610165906103a3565b80156101b05780601f10610187576101008083540402835291602001916101b0565b820191905f5260205f20905b81548152906001019060200180831161019357829003601f168201915b5050505050908060010154905082565b805b5f546101d0906001906104fb565b81101561023c575f6101e3826001610514565b815481106101f3576101f3610527565b905f5260205f2090600202015f828154811061021157610211610527565b5f91825260209091206002909102018061022b838261053b565b5060019182015490820155016101c2565b505f80548061024d5761024d61060a565b5f828152602081205f199092019160028302019061026b8282610279565b600182015f90555050905550565b508054610285906103a3565b5f825580601f10610294575050565b601f0160209004905f5260205f20908101906102b091906102b3565b50565b5b808211156102c7575f81556001016102b4565b5090565b5f805f604084860312156102dd575f80fd5b833567ffffffffffffffff808211156102f4575f80fd5b818601915086601f830112610307575f80fd5b813581811115610315575f80fd5b876020828501011115610326575f80fd5b6020928301989097509590910135949350505050565b5f6020828403121561034c575f80fd5b5035919050565b604081525f83518060408401528060208601606085015e5f606082850101526060601f19601f8301168401019150508260208301529392505050565b634e487b7160e01b5f52604160045260245ffd5b600181811c908216806103b757607f821691505b6020821081036103d557634e487b7160e01b5f52602260045260245ffd5b50919050565b601f82111561042257805f5260205f20601f840160051c810160208510156104005750805b601f840160051c820191505b8181101561041f575f815560010161040c565b50505b505050565b815167ffffffffffffffff8111156104415761044161038f565b6104558161044f84546103a3565b846103db565b602080601f831160018114610488575f84156104715750858301515b5f19600386901b1c1916600185901b1785556104df565b5f85815260208120601f198616915b828110156104b657888601518255948401946001909101908401610497565b50858210156104d357878501515f19600388901b60f8161c191681555b505060018460011b0185555b505050505050565b634e487b7160e01b5f52601160045260245ffd5b8181038181111561050e5761050e6104e7565b92915050565b8082018082111561050e5761050e6104e7565b634e487b7160e01b5f52603260045260245ffd5b818103610546575050565b61055082546103a3565b67ffffffffffffffff8111156105685761056861038f565b6105768161044f84546103a3565b5f601f8211600181146105a7575f83156105905750848201545b5f19600385901b1c1916600184901b17845561041f565b5f8581526020808220868352908220601f198616925b838110156105dd57828601548255600195860195909101906020016105bd565b50858310156105fa57818501545f19600388901b60f8161c191681555b5050505050600190811b01905550565b634e487b7160e01b5f52603160045260245ffdfea2646970667358221220eab440b4d5a4dcb8ad9485be853453ab9f4cc2638fab2ee3a9a2aa4574a30af764736f6c63430008190033",
					"opcodes": "PUSH1 0x80 PUSH1 0x40 MSTORE CALLVALUE DUP1 ISZERO PUSH1 0xE JUMPI PUSH0 DUP1 REVERT JUMPDEST POP PUSH2 0x654 DUP1 PUSH2 0x1C PUSH0 CODECOPY PUSH0 RETURN INVALID PUSH1 0x80 PUSH1 0x40 MSTORE CALLVALUE DUP1 ISZERO PUSH2 0xF JUMPI PUSH0 DUP1 REVERT JUMPDEST POP PUSH1 0x4 CALLDATASIZE LT PUSH2 0x3F JUMPI PUSH0 CALLDATALOAD PUSH1 0xE0 SHR DUP1 PUSH4 0x6F760F41 EQ PUSH2 0x43 JUMPI DUP1 PUSH4 0x9E7A13AD EQ PUSH2 0x58 JUMPI DUP1 PUSH4 0xD08C6803 EQ PUSH2 0x82 JUMPI JUMPDEST PUSH0 DUP1 REVERT JUMPDEST PUSH2 0x56 PUSH2 0x51 CALLDATASIZE PUSH1 0x4 PUSH2 0x2CB JUMP JUMPDEST PUSH2 0x95 JUMP JUMPDEST STOP JUMPDEST PUSH2 0x6B PUSH2 0x66 CALLDATASIZE PUSH1 0x4 PUSH2 0x33C JUMP JUMPDEST PUSH2 0x10C JUMP JUMPDEST PUSH1 0x40 MLOAD PUSH2 0x79 SWAP3 SWAP2 SWAP1 PUSH2 0x353 JUMP JUMPDEST PUSH1 0x40 MLOAD DUP1 SWAP2 SUB SWAP1 RETURN JUMPDEST PUSH2 0x56 PUSH2 0x90 CALLDATASIZE PUSH1 0x4 PUSH2 0x33C JUMP JUMPDEST PUSH2 0x1C0 JUMP JUMPDEST PUSH1 0x40 DUP1 MLOAD PUSH1 0x60 PUSH1 0x20 PUSH1 0x1F DUP7 ADD DUP2 SWAP1 DIV MUL DUP3 ADD DUP2 ADD DUP4 MSTORE SWAP2 DUP2 ADD DUP5 DUP2 MSTORE PUSH0 SWAP3 DUP3 SWAP2 SWAP1 DUP8 SWAP1 DUP8 SWAP1 DUP2 SWAP1 DUP6 ADD DUP4 DUP3 DUP1 DUP3 DUP5 CALLDATACOPY PUSH0 SWAP3 ADD DUP3 SWAP1 MSTORE POP SWAP4 DUP6 MSTORE POP POP POP PUSH1 0x20 SWAP2 DUP3 ADD DUP6 SWAP1 MSTORE DUP4 SLOAD PUSH1 0x1 DUP2 ADD DUP6 SSTORE SWAP4 DUP2 MSTORE KECCAK256 DUP2 MLOAD SWAP2 SWAP3 PUSH1 0x2 MUL ADD SWAP1 DUP2 SWAP1 PUSH2 0xFA SWAP1 DUP3 PUSH2 0x427 JUMP JUMPDEST POP PUSH1 0x20 DUP3 ADD MLOAD DUP2 PUSH1 0x1 ADD SSTORE POP POP POP POP POP JUMP JUMPDEST PUSH0 DUP2 DUP2 SLOAD DUP2 LT PUSH2 0x11A JUMPI PUSH0 DUP1 REVERT JUMPDEST SWAP1 PUSH0 MSTORE PUSH1 0x20 PUSH0 KECCAK256 SWAP1 PUSH1 0x2 MUL ADD PUSH0 SWAP2 POP SWAP1 POP DUP1 PUSH0 ADD DUP1 SLOAD PUSH2 0x139 SWAP1 PUSH2 0x3A3 JUMP JUMPDEST DUP1 PUSH1 0x1F ADD PUSH1 0x20 DUP1 SWAP2 DIV MUL PUSH1 0x20 ADD PUSH1 0x40 MLOAD SWAP1 DUP2 ADD PUSH1 0x40 MSTORE DUP1 SWAP3 SWAP2 SWAP1 DUP2 DUP2 MSTORE PUSH1 0x20 ADD DUP3 DUP1 SLOAD PUSH2 0x165 SWAP1 PUSH2 0x3A3 JUMP JUMPDEST DUP1 ISZERO PUSH2 0x1B0 JUMPI DUP1 PUSH1 0x1F LT PUSH2 0x187 JUMPI PUSH2 0x100 DUP1 DUP4 SLOAD DIV MUL DUP4 MSTORE SWAP2 PUSH1 0x20 ADD SWAP2 PUSH2 0x1B0 JUMP JUMPDEST DUP3 ADD SWAP2 SWAP1 PUSH0 MSTORE PUSH1 0x20 PUSH0 KECCAK256 SWAP1 JUMPDEST DUP2 SLOAD DUP2 MSTORE SWAP1 PUSH1 0x1 ADD SWAP1 PUSH1 0x20 ADD DUP1 DUP4 GT PUSH2 0x193 JUMPI DUP3 SWAP1 SUB PUSH1 0x1F AND DUP3 ADD SWAP2 JUMPDEST POP POP POP POP POP SWAP1 DUP1 PUSH1 0x1 ADD SLOAD SWAP1 POP DUP3 JUMP JUMPDEST DUP1 JUMPDEST PUSH0 SLOAD PUSH2 0x1D0 SWAP1 PUSH1 0x1 SWAP1 PUSH2 0x4FB JUMP JUMPDEST DUP2 LT ISZERO PUSH2 0x23C JUMPI PUSH0 PUSH2 0x1E3 DUP3 PUSH1 0x1 PUSH2 0x514 JUMP JUMPDEST DUP2 SLOAD DUP2 LT PUSH2 0x1F3 JUMPI PUSH2 0x1F3 PUSH2 0x527 JUMP JUMPDEST SWAP1 PUSH0 MSTORE PUSH1 0x20 PUSH0 KECCAK256 SWAP1 PUSH1 0x2 MUL ADD PUSH0 DUP3 DUP2 SLOAD DUP2 LT PUSH2 0x211 JUMPI PUSH2 0x211 PUSH2 0x527 JUMP JUMPDEST PUSH0 SWAP2 DUP3 MSTORE PUSH1 0x20 SWAP1 SWAP2 KECCAK256 PUSH1 0x2 SWAP1 SWAP2 MUL ADD DUP1 PUSH2 0x22B DUP4 DUP3 PUSH2 0x53B JUMP JUMPDEST POP PUSH1 0x1 SWAP2 DUP3 ADD SLOAD SWAP1 DUP3 ADD SSTORE ADD PUSH2 0x1C2 JUMP JUMPDEST POP PUSH0 DUP1 SLOAD DUP1 PUSH2 0x24D JUMPI PUSH2 0x24D PUSH2 0x60A JUMP JUMPDEST PUSH0 DUP3 DUP2 MSTORE PUSH1 0x20 DUP2 KECCAK256 PUSH0 NOT SWAP1 SWAP3 ADD SWAP2 PUSH1 0x2 DUP4 MUL ADD SWAP1 PUSH2 0x26B DUP3 DUP3 PUSH2 0x279 JUMP JUMPDEST PUSH1 0x1 DUP3 ADD PUSH0 SWAP1 SSTORE POP POP SWAP1 SSTORE POP JUMP JUMPDEST POP DUP1 SLOAD PUSH2 0x285 SWAP1 PUSH2 0x3A3 JUMP JUMPDEST PUSH0 DUP3 SSTORE DUP1 PUSH1 0x1F LT PUSH2 0x294 JUMPI POP POP JUMP JUMPDEST PUSH1 0x1F ADD PUSH1 0x20 SWAP1 DIV SWAP1 PUSH0 MSTORE PUSH1 0x20 PUSH0 KECCAK256 SWAP1 DUP2 ADD SWAP1 PUSH2 0x2B0 SWAP2 SWAP1 PUSH2 0x2B3 JUMP JUMPDEST POP JUMP JUMPDEST JUMPDEST DUP1 DUP3 GT ISZERO PUSH2 0x2C7 JUMPI PUSH0 DUP2 SSTORE PUSH1 0x1 ADD PUSH2 0x2B4 JUMP JUMPDEST POP SWAP1 JUMP JUMPDEST PUSH0 DUP1 PUSH0 PUSH1 0x40 DUP5 DUP7 SUB SLT ISZERO PUSH2 0x2DD JUMPI PUSH0 DUP1 REVERT JUMPDEST DUP4 CALLDATALOAD PUSH8 0xFFFFFFFFFFFFFFFF DUP1 DUP3 GT ISZERO PUSH2 0x2F4 JUMPI PUSH0 DUP1 REVERT JUMPDEST DUP2 DUP7 ADD SWAP2 POP DUP7 PUSH1 0x1F DUP4 ADD SLT PUSH2 0x307 JUMPI PUSH0 DUP1 REVERT JUMPDEST DUP2 CALLDATALOAD DUP2 DUP2 GT ISZERO PUSH2 0x315 JUMPI PUSH0 DUP1 REVERT JUMPDEST DUP8 PUSH1 0x20 DUP3 DUP6 ADD ADD GT ISZERO PUSH2 0x326 JUMPI PUSH0 DUP1 REVERT JUMPDEST PUSH1 0x20 SWAP3 DUP4 ADD SWAP9 SWAP1 SWAP8 POP SWAP6 SWAP1 SWAP2 ADD CALLDATALOAD SWAP5 SWAP4 POP POP POP POP JUMP JUMPDEST PUSH0 PUSH1 0x20 DUP3 DUP5 SUB SLT ISZERO PUSH2 0x34C JUMPI PUSH0 DUP1 REVERT JUMPDEST POP CALLDATALOAD SWAP2 SWAP1 POP JUMP JUMPDEST PUSH1 0x40 DUP2 MSTORE PUSH0 DUP4 MLOAD DUP1 PUSH1 0x40 DUP5 ADD MSTORE DUP1 PUSH1 0x20 DUP7 ADD PUSH1 0x60 DUP6 ADD MCOPY PUSH0 PUSH1 0x60 DUP3 DUP6 ADD ADD MSTORE PUSH1 0x60 PUSH1 0x1F NOT PUSH1 0x1F DUP4 ADD AND DUP5 ADD ADD SWAP2 POP POP DUP3 PUSH1 0x20 DUP4 ADD MSTORE SWAP4 SWAP3 POP POP POP JUMP JUMPDEST PUSH4 0x4E487B71 PUSH1 0xE0 SHL PUSH0 MSTORE PUSH1 0x41 PUSH1 0x4 MSTORE PUSH1 0x24 PUSH0 REVERT JUMPDEST PUSH1 0x1 DUP2 DUP2 SHR SWAP1 DUP3 AND DUP1 PUSH2 0x3B7 JUMPI PUSH1 0x7F DUP3 AND SWAP2 POP JUMPDEST PUSH1 0x20 DUP3 LT DUP2 SUB PUSH2 0x3D5 JUMPI PUSH4 0x4E487B71 PUSH1 0xE0 SHL PUSH0 MSTORE PUSH1 0x22 PUSH1 0x4 MSTORE PUSH1 0x24 PUSH0 REVERT JUMPDEST POP SWAP2 SWAP1 POP JUMP JUMPDEST PUSH1 0x1F DUP3 GT ISZERO PUSH2 0x422 JUMPI DUP1 PUSH0 MSTORE PUSH1 0x20 PUSH0 KECCAK256 PUSH1 0x1F DUP5 ADD PUSH1 0x5 SHR DUP2 ADD PUSH1 0x20 DUP6 LT ISZERO PUSH2 0x400 JUMPI POP DUP1 JUMPDEST PUSH1 0x1F DUP5 ADD PUSH1 0x5 SHR DUP3 ADD SWAP2 POP JUMPDEST DUP2 DUP2 LT ISZERO PUSH2 0x41F JUMPI PUSH0 DUP2 SSTORE PUSH1 0x1 ADD PUSH2 0x40C JUMP JUMPDEST POP POP JUMPDEST POP POP POP JUMP JUMPDEST DUP2 MLOAD PUSH8 0xFFFFFFFFFFFFFFFF DUP2 GT ISZERO PUSH2 0x441 JUMPI PUSH2 0x441 PUSH2 0x38F JUMP JUMPDEST PUSH2 0x455 DUP2 PUSH2 0x44F DUP5 SLOAD PUSH2 0x3A3 JUMP JUMPDEST DUP5 PUSH2 0x3DB JUMP JUMPDEST PUSH1 0x20 DUP1 PUSH1 0x1F DUP4 GT PUSH1 0x1 DUP2 EQ PUSH2 0x488 JUMPI PUSH0 DUP5 ISZERO PUSH2 0x471 JUMPI POP DUP6 DUP4 ADD MLOAD JUMPDEST PUSH0 NOT PUSH1 0x3 DUP7 SWAP1 SHL SHR NOT AND PUSH1 0x1 DUP6 SWAP1 SHL OR DUP6 SSTORE PUSH2 0x4DF JUMP JUMPDEST PUSH0 DUP6 DUP2 MSTORE PUSH1 0x20 DUP2 KECCAK256 PUSH1 0x1F NOT DUP7 AND SWAP2 JUMPDEST DUP3 DUP2 LT ISZERO PUSH2 0x4B6 JUMPI DUP9 DUP7 ADD MLOAD DUP3 SSTORE SWAP5 DUP5 ADD SWAP5 PUSH1 0x1 SWAP1 SWAP2 ADD SWAP1 DUP5 ADD PUSH2 0x497 JUMP JUMPDEST POP DUP6 DUP3 LT ISZERO PUSH2 0x4D3 JUMPI DUP8 DUP6 ADD MLOAD PUSH0 NOT PUSH1 0x3 DUP9 SWAP1 SHL PUSH1 0xF8 AND SHR NOT AND DUP2 SSTORE JUMPDEST POP POP PUSH1 0x1 DUP5 PUSH1 0x1 SHL ADD DUP6 SSTORE JUMPDEST POP POP POP POP POP POP JUMP JUMPDEST PUSH4 0x4E487B71 PUSH1 0xE0 SHL PUSH0 MSTORE PUSH1 0x11 PUSH1 0x4 MSTORE PUSH1 0x24 PUSH0 REVERT JUMPDEST DUP2 DUP2 SUB DUP2 DUP2 GT ISZERO PUSH2 0x50E JUMPI PUSH2 0x50E PUSH2 0x4E7 JUMP JUMPDEST SWAP3 SWAP2 POP POP JUMP JUMPDEST DUP1 DUP3 ADD DUP1 DUP3 GT ISZERO PUSH2 0x50E JUMPI PUSH2 0x50E PUSH2 0x4E7 JUMP JUMPDEST PUSH4 0x4E487B71 PUSH1 0xE0 SHL PUSH0 MSTORE PUSH1 0x32 PUSH1 0x4 MSTORE PUSH1 0x24 PUSH0 REVERT JUMPDEST DUP2 DUP2 SUB PUSH2 0x546 JUMPI POP POP JUMP JUMPDEST PUSH2 0x550 DUP3 SLOAD PUSH2 0x3A3 JUMP JUMPDEST PUSH8 0xFFFFFFFFFFFFFFFF DUP2 GT ISZERO PUSH2 0x568 JUMPI PUSH2 0x568 PUSH2 0x38F JUMP JUMPDEST PUSH2 0x576 DUP2 PUSH2 0x44F DUP5 SLOAD PUSH2 0x3A3 JUMP JUMPDEST PUSH0 PUSH1 0x1F DUP3 GT PUSH1 0x1 DUP2 EQ PUSH2 0x5A7 JUMPI PUSH0 DUP4 ISZERO PUSH2 0x590 JUMPI POP DUP5 DUP3 ADD SLOAD JUMPDEST PUSH0 NOT PUSH1 0x3 DUP6 SWAP1 SHL SHR NOT AND PUSH1 0x1 DUP5 SWAP1 SHL OR DUP5 SSTORE PUSH2 0x41F JUMP JUMPDEST PUSH0 DUP6 DUP2 MSTORE PUSH1 0x20 DUP1 DUP3 KECCAK256 DUP7 DUP4 MSTORE SWAP1 DUP3 KECCAK256 PUSH1 0x1F NOT DUP7 AND SWAP3 JUMPDEST DUP4 DUP2 LT ISZERO PUSH2 0x5DD JUMPI DUP3 DUP7 ADD SLOAD DUP3 SSTORE PUSH1 0x1 SWAP6 DUP7 ADD SWAP6 SWAP1 SWAP2 ADD SWAP1 PUSH1 0x20 ADD PUSH2 0x5BD JUMP JUMPDEST POP DUP6 DUP4 LT ISZERO PUSH2 0x5FA JUMPI DUP2 DUP6 ADD SLOAD PUSH0 NOT PUSH1 0x3 DUP9 SWAP1 SHL PUSH1 0xF8 AND SHR NOT AND DUP2 SSTORE JUMPDEST POP POP POP POP POP PUSH1 0x1 SWAP1 DUP2 SHL ADD SWAP1 SSTORE POP JUMP JUMPDEST PUSH4 0x4E487B71 PUSH1 0xE0 SHL PUSH0 MSTORE PUSH1 0x31 PUSH1 0x4 MSTORE PUSH1 0x24 PUSH0 REVERT INVALID LOG2 PUSH5 0x6970667358 0x22 SLT KECCAK256 0xEA 0xB4 BLOCKHASH 0xB4 0xD5 LOG4 0xDC 0xB8 0xAD SWAP5 DUP6 0xBE DUP6 CALLVALUE MSTORE8 0xAB SWAP16 0x4C 0xC2 PUSH4 0x8FAB2EE3 0xA9 LOG2 0xAA GASLIMIT PUSH21 0xA30AF764736F6C6343000819003300000000000000 "
				},
				"gasEstimates": {
					"creation": {
						"codeDepositCost": "324000",
						"executionCost": "360",
						"totalCost": "324360"
					},
					"external": {
						"addPerson(string,uint256)": "infinite",
						"deletePerson(uint256)": "infinite",
						"people(uint256)": "infinite"
					}
				},
				"methodIdentifiers": {
					"addPerson(string,uint256)": "6f760f41",
					"deletePerson(uint256)": "d08c6803",
					"people(uint256)": "9e7a13ad"
				}
			},
			"storageLayout": {
				"storage": [
					{
						"astId": 10,
						"contract": "contracts/ContractI/ContractIV13.sol:ContractIV13",
						"label": "people",
						"offset": 0,
						"slot": "0",
						"type": "t_array(t_struct(Person)6_storage)dyn_storage"
					}
				],
				"types": {
					"t_array(t_struct(Person)6_storage)dyn_storage": {
						"base": "t_struct(Person)6_storage",
						"encoding": "dynamic_array",
						"label": "struct ContractIV13.Person[]",
						"numberOfBytes": "32"
					},
					"t_string_storage": {
						"encoding": "bytes",
						"label": "string",
						"numberOfBytes": "32"
					},
					"t_struct(Person)6_storage": {
						"encoding": "inplace",
						"label": "struct ContractIV13.Person",
						"members": [
							{
								"astId": 3,
								"contract": "contracts/ContractI/ContractIV13.sol:ContractIV13",
								"label": "name",
								"offset": 0,
								"slot": "0",
								"type": "t_string_storage"
							},
							{
								"astId": 5,
								"contract": "contracts/ContractI/ContractIV13.sol:ContractIV13",
								"label": "age",
								"offset": 0,
								"slot": "1",
								"type": "t_uint256"
							}
						],
						"numberOfBytes": "64"
					},
					"t_uint256": {
						"encoding": "inplace",
						"label": "uint256",
						"numberOfBytes": "32"
					}
				}
			},
			"userdoc": {
				"kind": "user",
				"methods": {},
				"version": 1
			}
		}
	}
}