{
	"contracts/ContractI/ContractIV12.sol": {
		"ContractIV12": {
			"abi": [
				{
					"inputs": [
						{
							"internalType": "string",
							"name": "name",
							"type": "string"
						},
						{
							"internalType": "uint256",
							"name": "age",
							"type": "uint256"
						}
					],
					"name": "addPerson",
					"outputs": [],
					"stateMutability": "nonpayable",
					"type": "function"
				},
				{
					"inputs": [
						{
							"internalType": "uint256",
							"name": "index",
							"type": "uint256"
						}
					],
					"name": "deletePerson",
					"outputs": [],
					"stateMutability": "nonpayable",
					"type": "function"
				},
				{
					"inputs": [
						{
							"internalType": "uint256",
							"name": "",
							"type": "uint256"
						}
					],
					"name": "people",
					"outputs": [
						{
							"internalType": "string",
							"name": "name",
							"type": "string"
						},
						{
							"internalType": "uint256",
							"name": "age",
							"type": "uint256"
						}
					],
					"stateMutability": "view",
					"type": "function"
				}
			],
			"devdoc": {
				"kind": "dev",
				"methods": {},
				"version": 1
			},
			"evm": {
				"assembly": "    /* \"contracts/ContractI/ContractIV12.sol\":63:745  contract ContractIV12 {... */\n  mstore(0x40, 0x80)\n  callvalue\n  dup1\n  iszero\n  tag_1\n  jumpi\n  0x00\n  dup1\n  revert\ntag_1:\n  pop\n  dataSize(sub_0)\n  dup1\n  dataOffset(sub_0)\n  0x00\n  codecopy\n  0x00\n  return\nstop\n\nsub_0: assembly {\n        /* \"contracts/ContractI/ContractIV12.sol\":63:745  contract ContractIV12 {... */\n      mstore(0x40, 0x80)\n      callvalue\n      dup1\n      iszero\n      tag_1\n      jumpi\n      0x00\n      dup1\n      revert\n    tag_1:\n      pop\n      jumpi(tag_2, lt(calldatasize, 0x04))\n      shr(0xe0, calldataload(0x00))\n      dup1\n      0x6f760f41\n      eq\n      tag_3\n      jumpi\n      dup1\n      0x9e7a13ad\n      eq\n      tag_4\n      jumpi\n      dup1\n      0xd08c6803\n      eq\n      tag_5\n      jumpi\n    tag_2:\n      0x00\n      dup1\n      revert\n        /* \"contracts/ContractI/ContractIV12.sol\":340:450  function addPerson(string calldata name, uint256 age) public {... */\n    tag_3:\n      tag_6\n      tag_7\n      calldatasize\n      0x04\n      tag_8\n      jump\t// in\n    tag_7:\n      tag_9\n      jump\t// in\n    tag_6:\n      stop\n        /* \"contracts/ContractI/ContractIV12.sol\":309:331  Person[] public people */\n    tag_4:\n      tag_10\n      tag_11\n      calldatasize\n      0x04\n      tag_12\n      jump\t// in\n    tag_11:\n      tag_13\n      jump\t// in\n    tag_10:\n      mload(0x40)\n      tag_14\n      swap3\n      swap2\n      swap1\n      tag_15\n      jump\t// in\n    tag_14:\n      mload(0x40)\n      dup1\n      swap2\n      sub\n      swap1\n      return\n        /* \"contracts/ContractI/ContractIV12.sol\":458:742  function deletePerson(uint256 index) public {... */\n    tag_5:\n      tag_6\n      tag_17\n      calldatasize\n      0x04\n      tag_12\n      jump\t// in\n    tag_17:\n      tag_18\n      jump\t// in\n        /* \"contracts/ContractI/ContractIV12.sol\":340:450  function addPerson(string calldata name, uint256 age) public {... */\n    tag_9:\n        /* \"contracts/ContractI/ContractIV12.sol\":424:441  Person(name, age) */\n      0x40\n      dup1\n      mload\n      0x60\n      0x20\n      0x1f\n      dup7\n      add\n      dup2\n      swap1\n      div\n      mul\n      dup3\n      add\n      dup2\n      add\n      dup4\n      mstore\n      swap2\n      dup2\n      add\n      dup5\n      dup2\n      mstore\n        /* \"contracts/ContractI/ContractIV12.sol\":412:418  people */\n      0x00\n      swap3\n        /* \"contracts/ContractI/ContractIV12.sol\":424:441  Person(name, age) */\n      dup3\n      swap2\n      swap1\n        /* \"contracts/ContractI/ContractIV12.sol\":431:435  name */\n      dup8\n      swap1\n      dup8\n      swap1\n      dup2\n      swap1\n        /* \"contracts/ContractI/ContractIV12.sol\":424:441  Person(name, age) */\n      dup6\n      add\n        /* \"contracts/ContractI/ContractIV12.sol\":431:435  name */\n      dup4\n      dup3\n      dup1\n      dup3\n        /* \"contracts/ContractI/ContractIV12.sol\":424:441  Person(name, age) */\n      dup5\n      calldatacopy\n      0x00\n      swap3\n      add\n      dup3\n      swap1\n      mstore\n      pop\n      swap4\n      dup6\n      mstore\n      pop\n      pop\n      pop\n      0x20\n      swap2\n      dup3\n      add\n      dup6\n      swap1\n      mstore\n        /* \"contracts/ContractI/ContractIV12.sol\":412:442  people.push(Person(name, age)) */\n      dup4\n      sload\n      0x01\n      dup2\n      add\n      dup6\n      sstore\n      swap4\n      dup2\n      mstore\n      keccak256\n      dup2\n      mload\n      swap2\n      swap3\n      0x02\n      mul\n      add\n      swap1\n      dup2\n      swap1\n      tag_21\n      swap1\n      dup3\n      tag_22\n      jump\t// in\n    tag_21:\n      pop\n      0x20\n      dup3\n      add\n      mload\n      dup2\n      0x01\n      add\n      sstore\n      pop\n      pop\n        /* \"contracts/ContractI/ContractIV12.sol\":340:450  function addPerson(string calldata name, uint256 age) public {... */\n      pop\n      pop\n      pop\n      jump\t// out\n        /* \"contracts/ContractI/ContractIV12.sol\":309:331  Person[] public people */\n    tag_13:\n      0x00\n      dup2\n      dup2\n      sload\n      dup2\n      lt\n      tag_23\n      jumpi\n      0x00\n      dup1\n      revert\n    tag_23:\n      swap1\n      0x00\n      mstore\n      keccak256(0x00, 0x20)\n      swap1\n      0x02\n      mul\n      add\n      0x00\n      swap2\n      pop\n      swap1\n      pop\n      dup1\n      0x00\n      add\n      dup1\n      sload\n      tag_25\n      swap1\n      tag_26\n      jump\t// in\n    tag_25:\n      dup1\n      0x1f\n      add\n      0x20\n      dup1\n      swap2\n      div\n      mul\n      0x20\n      add\n      mload(0x40)\n      swap1\n      dup2\n      add\n      0x40\n      mstore\n      dup1\n      swap3\n      swap2\n      swap1\n      dup2\n      dup2\n      mstore\n      0x20\n      add\n      dup3\n      dup1\n      sload\n      tag_27\n      swap1\n      tag_26\n      jump\t// in\n    tag_27:\n      dup1\n      iszero\n      tag_28\n      jumpi\n      dup1\n      0x1f\n      lt\n      tag_29\n      jumpi\n      0x0100\n      dup1\n      dup4\n      sload\n      div\n      mul\n      dup4\n      mstore\n      swap2\n      0x20\n      add\n      swap2\n      jump(tag_28)\n    tag_29:\n      dup3\n      add\n      swap2\n      swap1\n      0x00\n      mstore\n      keccak256(0x00, 0x20)\n      swap1\n    tag_30:\n      dup2\n      sload\n      dup2\n      mstore\n      swap1\n      0x01\n      add\n      swap1\n      0x20\n      add\n      dup1\n      dup4\n      gt\n      tag_30\n      jumpi\n      dup3\n      swap1\n      sub\n      0x1f\n      and\n      dup3\n      add\n      swap2\n    tag_28:\n      pop\n      pop\n      pop\n      pop\n      pop\n      swap1\n      dup1\n      0x01\n      add\n      sload\n      swap1\n      pop\n      dup3\n      jump\t// out\n        /* \"contracts/ContractI/ContractIV12.sol\":458:742  function deletePerson(uint256 index) public {... */\n    tag_18:\n        /* \"contracts/ContractI/ContractIV12.sol\":721:727  people */\n      0x00\n        /* \"contracts/ContractI/ContractIV12.sol\":728:733  index */\n      dup2\n        /* \"contracts/ContractI/ContractIV12.sol\":721:734  people[index] */\n      dup2\n      sload\n      dup2\n      lt\n      tag_33\n      jumpi\n      tag_33\n      tag_34\n      jump\t// in\n    tag_33:\n      0x00\n      swap2\n      dup3\n      mstore\n      0x20\n      dup3\n      keccak256\n      0x02\n      swap1\n      swap2\n      mul\n      add\n      swap1\n        /* \"contracts/ContractI/ContractIV12.sol\":714:734  delete people[index] */\n      tag_36\n        /* \"contracts/ContractI/ContractIV12.sol\":721:734  people[index] */\n      dup3\n      dup3\n        /* \"contracts/ContractI/ContractIV12.sol\":714:734  delete people[index] */\n      tag_37\n      jump\t// in\n    tag_36:\n      0x01\n      dup3\n      add\n      0x00\n      swap1\n      sstore\n      pop\n      pop\n        /* \"contracts/ContractI/ContractIV12.sol\":458:742  function deletePerson(uint256 index) public {... */\n      pop\n      jump\t// out\n    tag_37:\n      pop\n      dup1\n      sload\n      tag_38\n      swap1\n      tag_26\n      jump\t// in\n    tag_38:\n      0x00\n      dup3\n      sstore\n      dup1\n      0x1f\n      lt\n      tag_40\n      jumpi\n      pop\n      pop\n      jump\t// out\n    tag_40:\n      0x1f\n      add\n      0x20\n      swap1\n      div\n      swap1\n      0x00\n      mstore\n      keccak256(0x00, 0x20)\n      swap1\n      dup2\n      add\n      swap1\n      tag_41\n      swap2\n      swap1\n      tag_42\n      jump\t// in\n    tag_41:\n      pop\n      jump\t// out\n    tag_42:\n    tag_43:\n      dup1\n      dup3\n      gt\n      iszero\n      tag_44\n      jumpi\n      0x00\n      dup2\n      sstore\n      0x01\n      add\n      jump(tag_43)\n    tag_44:\n      pop\n      swap1\n      jump\t// out\n        /* \"#utility.yul\":14:680   */\n    tag_8:\n        /* \"#utility.yul\":94:100   */\n      0x00\n        /* \"#utility.yul\":102:108   */\n      dup1\n        /* \"#utility.yul\":110:116   */\n      0x00\n        /* \"#utility.yul\":163:165   */\n      0x40\n        /* \"#utility.yul\":151:160   */\n      dup5\n        /* \"#utility.yul\":142:149   */\n      dup7\n        /* \"#utility.yul\":138:161   */\n      sub\n        /* \"#utility.yul\":134:166   */\n      slt\n        /* \"#utility.yul\":131:183   */\n      iszero\n      tag_51\n      jumpi\n        /* \"#utility.yul\":179:180   */\n      0x00\n        /* \"#utility.yul\":176:177   */\n      dup1\n        /* \"#utility.yul\":169:181   */\n      revert\n        /* \"#utility.yul\":131:183   */\n    tag_51:\n        /* \"#utility.yul\":219:228   */\n      dup4\n        /* \"#utility.yul\":206:229   */\n      calldataload\n        /* \"#utility.yul\":248:266   */\n      0xffffffffffffffff\n        /* \"#utility.yul\":289:291   */\n      dup1\n        /* \"#utility.yul\":281:287   */\n      dup3\n        /* \"#utility.yul\":278:292   */\n      gt\n        /* \"#utility.yul\":275:309   */\n      iszero\n      tag_52\n      jumpi\n        /* \"#utility.yul\":305:306   */\n      0x00\n        /* \"#utility.yul\":302:303   */\n      dup1\n        /* \"#utility.yul\":295:307   */\n      revert\n        /* \"#utility.yul\":275:309   */\n    tag_52:\n        /* \"#utility.yul\":343:349   */\n      dup2\n        /* \"#utility.yul\":332:341   */\n      dup7\n        /* \"#utility.yul\":328:350   */\n      add\n        /* \"#utility.yul\":318:350   */\n      swap2\n      pop\n        /* \"#utility.yul\":388:395   */\n      dup7\n        /* \"#utility.yul\":381:385   */\n      0x1f\n        /* \"#utility.yul\":377:379   */\n      dup4\n        /* \"#utility.yul\":373:386   */\n      add\n        /* \"#utility.yul\":369:396   */\n      slt\n        /* \"#utility.yul\":359:414   */\n      tag_53\n      jumpi\n        /* \"#utility.yul\":410:411   */\n      0x00\n        /* \"#utility.yul\":407:408   */\n      dup1\n        /* \"#utility.yul\":400:412   */\n      revert\n        /* \"#utility.yul\":359:414   */\n    tag_53:\n        /* \"#utility.yul\":450:452   */\n      dup2\n        /* \"#utility.yul\":437:453   */\n      calldataload\n        /* \"#utility.yul\":476:478   */\n      dup2\n        /* \"#utility.yul\":468:474   */\n      dup2\n        /* \"#utility.yul\":465:479   */\n      gt\n        /* \"#utility.yul\":462:496   */\n      iszero\n      tag_54\n      jumpi\n        /* \"#utility.yul\":492:493   */\n      0x00\n        /* \"#utility.yul\":489:490   */\n      dup1\n        /* \"#utility.yul\":482:494   */\n      revert\n        /* \"#utility.yul\":462:496   */\n    tag_54:\n        /* \"#utility.yul\":539:546   */\n      dup8\n        /* \"#utility.yul\":532:536   */\n      0x20\n        /* \"#utility.yul\":523:529   */\n      dup3\n        /* \"#utility.yul\":519:521   */\n      dup6\n        /* \"#utility.yul\":515:530   */\n      add\n        /* \"#utility.yul\":511:537   */\n      add\n        /* \"#utility.yul\":508:547   */\n      gt\n        /* \"#utility.yul\":505:564   */\n      iszero\n      tag_55\n      jumpi\n        /* \"#utility.yul\":560:561   */\n      0x00\n        /* \"#utility.yul\":557:558   */\n      dup1\n        /* \"#utility.yul\":550:562   */\n      revert\n        /* \"#utility.yul\":505:564   */\n    tag_55:\n        /* \"#utility.yul\":591:595   */\n      0x20\n        /* \"#utility.yul\":583:596   */\n      swap3\n      dup4\n      add\n      swap9\n        /* \"#utility.yul\":615:621   */\n      swap1\n      swap8\n      pop\n        /* \"#utility.yul\":653:673   */\n      swap6\n      swap1\n      swap2\n      add\n        /* \"#utility.yul\":640:674   */\n      calldataload\n      swap5\n        /* \"#utility.yul\":14:680   */\n      swap4\n      pop\n      pop\n      pop\n      pop\n      jump\t// out\n        /* \"#utility.yul\":685:865   */\n    tag_12:\n        /* \"#utility.yul\":744:750   */\n      0x00\n        /* \"#utility.yul\":797:799   */\n      0x20\n        /* \"#utility.yul\":785:794   */\n      dup3\n        /* \"#utility.yul\":776:783   */\n      dup5\n        /* \"#utility.yul\":772:795   */\n      sub\n        /* \"#utility.yul\":768:800   */\n      slt\n        /* \"#utility.yul\":765:817   */\n      iszero\n      tag_57\n      jumpi\n        /* \"#utility.yul\":813:814   */\n      0x00\n        /* \"#utility.yul\":810:811   */\n      dup1\n        /* \"#utility.yul\":803:815   */\n      revert\n        /* \"#utility.yul\":765:817   */\n    tag_57:\n      pop\n        /* \"#utility.yul\":836:859   */\n      calldataload\n      swap2\n        /* \"#utility.yul\":685:865   */\n      swap1\n      pop\n      jump\t// out\n        /* \"#utility.yul\":870:1363   */\n    tag_15:\n        /* \"#utility.yul\":1047:1049   */\n      0x40\n        /* \"#utility.yul\":1036:1045   */\n      dup2\n        /* \"#utility.yul\":1029:1050   */\n      mstore\n        /* \"#utility.yul\":1010:1014   */\n      0x00\n        /* \"#utility.yul\":1079:1085   */\n      dup4\n        /* \"#utility.yul\":1073:1086   */\n      mload\n        /* \"#utility.yul\":1122:1128   */\n      dup1\n        /* \"#utility.yul\":1117:1119   */\n      0x40\n        /* \"#utility.yul\":1106:1115   */\n      dup5\n        /* \"#utility.yul\":1102:1120   */\n      add\n        /* \"#utility.yul\":1095:1129   */\n      mstore\n        /* \"#utility.yul\":1183:1189   */\n      dup1\n        /* \"#utility.yul\":1176:1180   */\n      0x20\n        /* \"#utility.yul\":1168:1174   */\n      dup7\n        /* \"#utility.yul\":1164:1181   */\n      add\n        /* \"#utility.yul\":1159:1161   */\n      0x60\n        /* \"#utility.yul\":1148:1157   */\n      dup6\n        /* \"#utility.yul\":1144:1162   */\n      add\n        /* \"#utility.yul\":1138:1190   */\n      mcopy\n        /* \"#utility.yul\":1239:1240   */\n      0x00\n        /* \"#utility.yul\":1234:1236   */\n      0x60\n        /* \"#utility.yul\":1225:1231   */\n      dup3\n        /* \"#utility.yul\":1214:1223   */\n      dup6\n        /* \"#utility.yul\":1210:1232   */\n      add\n        /* \"#utility.yul\":1206:1237   */\n      add\n        /* \"#utility.yul\":1199:1241   */\n      mstore\n        /* \"#utility.yul\":1309:1311   */\n      0x60\n        /* \"#utility.yul\":1302:1304   */\n      0x1f\n        /* \"#utility.yul\":1298:1305   */\n      not\n        /* \"#utility.yul\":1293:1295   */\n      0x1f\n        /* \"#utility.yul\":1285:1291   */\n      dup4\n        /* \"#utility.yul\":1281:1296   */\n      add\n        /* \"#utility.yul\":1277:1306   */\n      and\n        /* \"#utility.yul\":1266:1275   */\n      dup5\n        /* \"#utility.yul\":1262:1307   */\n      add\n        /* \"#utility.yul\":1258:1312   */\n      add\n        /* \"#utility.yul\":1250:1312   */\n      swap2\n      pop\n      pop\n        /* \"#utility.yul\":1350:1356   */\n      dup3\n        /* \"#utility.yul\":1343:1347   */\n      0x20\n        /* \"#utility.yul\":1332:1341   */\n      dup4\n        /* \"#utility.yul\":1328:1348   */\n      add\n        /* \"#utility.yul\":1321:1357   */\n      mstore\n        /* \"#utility.yul\":870:1363   */\n      swap4\n      swap3\n      pop\n      pop\n      pop\n      jump\t// out\n        /* \"#utility.yul\":1368:1552   */\n    tag_45:\n      shl(0xe0, 0x4e487b71)\n        /* \"#utility.yul\":1417:1418   */\n      0x00\n        /* \"#utility.yul\":1410:1498   */\n      mstore\n        /* \"#utility.yul\":1517:1521   */\n      0x41\n        /* \"#utility.yul\":1514:1515   */\n      0x04\n        /* \"#utility.yul\":1507:1522   */\n      mstore\n        /* \"#utility.yul\":1541:1545   */\n      0x24\n        /* \"#utility.yul\":1538:1539   */\n      0x00\n        /* \"#utility.yul\":1531:1546   */\n      revert\n        /* \"#utility.yul\":1557:1994   */\n    tag_26:\n        /* \"#utility.yul\":1636:1637   */\n      0x01\n        /* \"#utility.yul\":1632:1644   */\n      dup2\n      dup2\n      shr\n      swap1\n        /* \"#utility.yul\":1679:1691   */\n      dup3\n      and\n      dup1\n        /* \"#utility.yul\":1700:1761   */\n      tag_61\n      jumpi\n        /* \"#utility.yul\":1754:1758   */\n      0x7f\n        /* \"#utility.yul\":1746:1752   */\n      dup3\n        /* \"#utility.yul\":1742:1759   */\n      and\n        /* \"#utility.yul\":1732:1759   */\n      swap2\n      pop\n        /* \"#utility.yul\":1700:1761   */\n    tag_61:\n        /* \"#utility.yul\":1807:1809   */\n      0x20\n        /* \"#utility.yul\":1799:1805   */\n      dup3\n        /* \"#utility.yul\":1796:1810   */\n      lt\n        /* \"#utility.yul\":1776:1794   */\n      dup2\n        /* \"#utility.yul\":1773:1811   */\n      sub\n        /* \"#utility.yul\":1770:1988   */\n      tag_62\n      jumpi\n      shl(0xe0, 0x4e487b71)\n        /* \"#utility.yul\":1841:1842   */\n      0x00\n        /* \"#utility.yul\":1834:1922   */\n      mstore\n        /* \"#utility.yul\":1945:1949   */\n      0x22\n        /* \"#utility.yul\":1942:1943   */\n      0x04\n        /* \"#utility.yul\":1935:1950   */\n      mstore\n        /* \"#utility.yul\":1973:1977   */\n      0x24\n        /* \"#utility.yul\":1970:1971   */\n      0x00\n        /* \"#utility.yul\":1963:1978   */\n      revert\n        /* \"#utility.yul\":1770:1988   */\n    tag_62:\n      pop\n        /* \"#utility.yul\":1557:1994   */\n      swap2\n      swap1\n      pop\n      jump\t// out\n        /* \"#utility.yul\":2125:2643   */\n    tag_47:\n        /* \"#utility.yul\":2227:2229   */\n      0x1f\n        /* \"#utility.yul\":2222:2225   */\n      dup3\n        /* \"#utility.yul\":2219:2230   */\n      gt\n        /* \"#utility.yul\":2216:2637   */\n      iszero\n      tag_65\n      jumpi\n        /* \"#utility.yul\":2263:2268   */\n      dup1\n        /* \"#utility.yul\":2260:2261   */\n      0x00\n        /* \"#utility.yul\":2253:2269   */\n      mstore\n        /* \"#utility.yul\":2307:2311   */\n      0x20\n        /* \"#utility.yul\":2304:2305   */\n      0x00\n        /* \"#utility.yul\":2294:2312   */\n      keccak256\n        /* \"#utility.yul\":2377:2379   */\n      0x1f\n        /* \"#utility.yul\":2365:2375   */\n      dup5\n        /* \"#utility.yul\":2361:2380   */\n      add\n        /* \"#utility.yul\":2358:2359   */\n      0x05\n        /* \"#utility.yul\":2354:2381   */\n      shr\n        /* \"#utility.yul\":2348:2352   */\n      dup2\n        /* \"#utility.yul\":2344:2382   */\n      add\n        /* \"#utility.yul\":2413:2417   */\n      0x20\n        /* \"#utility.yul\":2401:2411   */\n      dup6\n        /* \"#utility.yul\":2398:2418   */\n      lt\n        /* \"#utility.yul\":2395:2442   */\n      iszero\n      tag_66\n      jumpi\n      pop\n        /* \"#utility.yul\":2436:2440   */\n      dup1\n        /* \"#utility.yul\":2395:2442   */\n    tag_66:\n        /* \"#utility.yul\":2491:2493   */\n      0x1f\n        /* \"#utility.yul\":2486:2489   */\n      dup5\n        /* \"#utility.yul\":2482:2494   */\n      add\n        /* \"#utility.yul\":2479:2480   */\n      0x05\n        /* \"#utility.yul\":2475:2495   */\n      shr\n        /* \"#utility.yul\":2469:2473   */\n      dup3\n        /* \"#utility.yul\":2465:2496   */\n      add\n        /* \"#utility.yul\":2455:2496   */\n      swap2\n      pop\n        /* \"#utility.yul\":2546:2627   */\n    tag_67:\n        /* \"#utility.yul\":2564:2566   */\n      dup2\n        /* \"#utility.yul\":2557:2562   */\n      dup2\n        /* \"#utility.yul\":2554:2567   */\n      lt\n        /* \"#utility.yul\":2546:2627   */\n      iszero\n      tag_69\n      jumpi\n        /* \"#utility.yul\":2623:2624   */\n      0x00\n        /* \"#utility.yul\":2609:2625   */\n      dup2\n      sstore\n        /* \"#utility.yul\":2590:2591   */\n      0x01\n        /* \"#utility.yul\":2579:2592   */\n      add\n        /* \"#utility.yul\":2546:2627   */\n      jump(tag_67)\n    tag_69:\n        /* \"#utility.yul\":2550:2553   */\n      pop\n      pop\n        /* \"#utility.yul\":2216:2637   */\n    tag_65:\n        /* \"#utility.yul\":2125:2643   */\n      pop\n      pop\n      pop\n      jump\t// out\n        /* \"#utility.yul\":2819:4164   */\n    tag_22:\n        /* \"#utility.yul\":2945:2948   */\n      dup2\n        /* \"#utility.yul\":2939:2949   */\n      mload\n        /* \"#utility.yul\":2972:2990   */\n      0xffffffffffffffff\n        /* \"#utility.yul\":2964:2970   */\n      dup2\n        /* \"#utility.yul\":2961:2991   */\n      gt\n        /* \"#utility.yul\":2958:3014   */\n      iszero\n      tag_73\n      jumpi\n        /* \"#utility.yul\":2994:3012   */\n      tag_73\n      tag_45\n      jump\t// in\n    tag_73:\n        /* \"#utility.yul\":3023:3120   */\n      tag_74\n        /* \"#utility.yul\":3113:3119   */\n      dup2\n        /* \"#utility.yul\":3073:3111   */\n      tag_75\n        /* \"#utility.yul\":3105:3109   */\n      dup5\n        /* \"#utility.yul\":3099:3110   */\n      sload\n        /* \"#utility.yul\":3073:3111   */\n      tag_26\n      jump\t// in\n    tag_75:\n        /* \"#utility.yul\":3067:3071   */\n      dup5\n        /* \"#utility.yul\":3023:3120   */\n      tag_47\n      jump\t// in\n    tag_74:\n        /* \"#utility.yul\":3175:3179   */\n      0x20\n      dup1\n        /* \"#utility.yul\":3232:3234   */\n      0x1f\n        /* \"#utility.yul\":3221:3235   */\n      dup4\n      gt\n        /* \"#utility.yul\":3249:3250   */\n      0x01\n        /* \"#utility.yul\":3244:3907   */\n      dup2\n      eq\n      tag_77\n      jumpi\n        /* \"#utility.yul\":3951:3952   */\n      0x00\n        /* \"#utility.yul\":3968:3974   */\n      dup5\n        /* \"#utility.yul\":3965:4054   */\n      iszero\n      tag_78\n      jumpi\n      pop\n        /* \"#utility.yul\":4020:4039   */\n      dup6\n      dup4\n      add\n        /* \"#utility.yul\":4014:4040   */\n      mload\n        /* \"#utility.yul\":3965:4054   */\n    tag_78:\n      not(0x00)\n        /* \"#utility.yul\":2776:2777   */\n      0x03\n        /* \"#utility.yul\":2772:2783   */\n      dup7\n      swap1\n      shl\n        /* \"#utility.yul\":2768:2792   */\n      shr\n        /* \"#utility.yul\":2764:2793   */\n      not\n        /* \"#utility.yul\":2754:2794   */\n      and\n        /* \"#utility.yul\":2800:2801   */\n      0x01\n        /* \"#utility.yul\":2796:2807   */\n      dup6\n      swap1\n      shl\n        /* \"#utility.yul\":2751:2808   */\n      or\n        /* \"#utility.yul\":4067:4148   */\n      dup6\n      sstore\n        /* \"#utility.yul\":3214:4158   */\n      jump(tag_76)\n        /* \"#utility.yul\":3244:3907   */\n    tag_77:\n        /* \"#utility.yul\":2072:2073   */\n      0x00\n        /* \"#utility.yul\":2065:2079   */\n      dup6\n      dup2\n      mstore\n        /* \"#utility.yul\":2109:2113   */\n      0x20\n        /* \"#utility.yul\":2096:2114   */\n      dup2\n      keccak256\n      not(0x1f)\n        /* \"#utility.yul\":3280:3300   */\n      dup7\n      and\n      swap2\n        /* \"#utility.yul\":3398:3634   */\n    tag_81:\n        /* \"#utility.yul\":3412:3419   */\n      dup3\n        /* \"#utility.yul\":3409:3410   */\n      dup2\n        /* \"#utility.yul\":3406:3420   */\n      lt\n        /* \"#utility.yul\":3398:3634   */\n      iszero\n      tag_83\n      jumpi\n        /* \"#utility.yul\":3501:3520   */\n      dup9\n      dup7\n      add\n        /* \"#utility.yul\":3495:3521   */\n      mload\n        /* \"#utility.yul\":3480:3522   */\n      dup3\n      sstore\n        /* \"#utility.yul\":3593:3620   */\n      swap5\n      dup5\n      add\n      swap5\n        /* \"#utility.yul\":3561:3562   */\n      0x01\n        /* \"#utility.yul\":3549:3563   */\n      swap1\n      swap2\n      add\n      swap1\n        /* \"#utility.yul\":3428:3447   */\n      dup5\n      add\n        /* \"#utility.yul\":3398:3634   */\n      jump(tag_81)\n    tag_83:\n        /* \"#utility.yul\":3402:3405   */\n      pop\n        /* \"#utility.yul\":3662:3668   */\n      dup6\n        /* \"#utility.yul\":3653:3660   */\n      dup3\n        /* \"#utility.yul\":3650:3669   */\n      lt\n        /* \"#utility.yul\":3647:3848   */\n      iszero\n      tag_84\n      jumpi\n        /* \"#utility.yul\":3723:3742   */\n      dup8\n      dup6\n      add\n        /* \"#utility.yul\":3717:3743   */\n      mload\n      not(0x00)\n        /* \"#utility.yul\":3806:3807   */\n      0x03\n        /* \"#utility.yul\":3802:3816   */\n      dup9\n      swap1\n      shl\n        /* \"#utility.yul\":3818:3821   */\n      0xf8\n        /* \"#utility.yul\":3798:3822   */\n      and\n        /* \"#utility.yul\":3794:3831   */\n      shr\n        /* \"#utility.yul\":3790:3832   */\n      not\n        /* \"#utility.yul\":3775:3833   */\n      and\n        /* \"#utility.yul\":3760:3834   */\n      dup2\n      sstore\n        /* \"#utility.yul\":3647:3848   */\n    tag_84:\n      pop\n      pop\n        /* \"#utility.yul\":3894:3895   */\n      0x01\n        /* \"#utility.yul\":3885:3891   */\n      dup5\n        /* \"#utility.yul\":3882:3883   */\n      0x01\n        /* \"#utility.yul\":3878:3892   */\n      shl\n        /* \"#utility.yul\":3874:3896   */\n      add\n        /* \"#utility.yul\":3868:3872   */\n      dup6\n        /* \"#utility.yul\":3861:3897   */\n      sstore\n        /* \"#utility.yul\":3214:4158   */\n    tag_76:\n      pop\n      pop\n      pop\n      pop\n        /* \"#utility.yul\":2819:4164   */\n      pop\n      pop\n      jump\t// out\n        /* \"#utility.yul\":4169:4353   */\n    tag_34:\n      shl(0xe0, 0x4e487b71)\n        /* \"#utility.yul\":4218:4219   */\n      0x00\n        /* \"#utility.yul\":4211:4299   */\n      mstore\n        /* \"#utility.yul\":4318:4322   */\n      0x32\n        /* \"#utility.yul\":4315:4316   */\n      0x04\n        /* \"#utility.yul\":4308:4323   */\n      mstore\n        /* \"#utility.yul\":4342:4346   */\n      0x24\n        /* \"#utility.yul\":4339:4340   */\n      0x00\n        /* \"#utility.yul\":4332:4347   */\n      revert\n\n    auxdata: 0xa2646970667358221220dd58ed85e000ea6ce4aab6c447856f95abc25c5ffc98b1622946969411d7129364736f6c63430008190033\n}\n",
				"bytecode": {
					"linkReferences": {},
					"object": "6080604052348015600e575f80fd5b506104af8061001c5f395ff3fe608060405234801561000f575f80fd5b506004361061003f575f3560e01c80636f760f41146100435780639e7a13ad14610058578063d08c680314610082575b5f80fd5b610056610051366004610249565b610095565b005b61006b6100663660046102ba565b61010c565b6040516100799291906102d1565b60405180910390f35b6100566100903660046102ba565b6101c0565b6040805160606020601f8601819004028201810183529181018481525f9282919087908790819085018382808284375f920182905250938552505050602091820185905283546001810185559381522081519192600202019081906100fa90826103a5565b50602082015181600101555050505050565b5f818154811061011a575f80fd5b905f5260205f2090600202015f91509050805f01805461013990610321565b80601f016020809104026020016040519081016040528092919081815260200182805461016590610321565b80156101b05780601f10610187576101008083540402835291602001916101b0565b820191905f5260205f20905b81548152906001019060200180831161019357829003601f168201915b5050505050908060010154905082565b5f81815481106101d2576101d2610465565b5f91825260208220600290910201906101eb82826101f7565b600182015f9055505050565b50805461020390610321565b5f825580601f10610212575050565b601f0160209004905f5260205f209081019061022e9190610231565b50565b5b80821115610245575f8155600101610232565b5090565b5f805f6040848603121561025b575f80fd5b833567ffffffffffffffff80821115610272575f80fd5b818601915086601f830112610285575f80fd5b813581811115610293575f80fd5b8760208285010111156102a4575f80fd5b6020928301989097509590910135949350505050565b5f602082840312156102ca575f80fd5b5035919050565b604081525f83518060408401528060208601606085015e5f606082850101526060601f19601f8301168401019150508260208301529392505050565b634e487b7160e01b5f52604160045260245ffd5b600181811c9082168061033557607f821691505b60208210810361035357634e487b7160e01b5f52602260045260245ffd5b50919050565b601f8211156103a057805f5260205f20601f840160051c8101602085101561037e5750805b601f840160051c820191505b8181101561039d575f815560010161038a565b50505b505050565b815167ffffffffffffffff8111156103bf576103bf61030d565b6103d3816103cd8454610321565b84610359565b602080601f831160018114610406575f84156103ef5750858301515b5f19600386901b1c1916600185901b17855561045d565b5f85815260208120601f198616915b8281101561043457888601518255948401946001909101908401610415565b508582101561045157878501515f19600388901b60f8161c191681555b505060018460011b0185555b505050505050565b634e487b7160e01b5f52603260045260245ffdfea2646970667358221220dd58ed85e000ea6ce4aab6c447856f95abc25c5ffc98b1622946969411d7129364736f6c63430008190033",
					"opcodes": "PUSH1 0x80 PUSH1 0x40 MSTORE CALLVALUE DUP1 ISZERO PUSH1 0xE JUMPI PUSH0 DUP1 REVERT JUMPDEST POP PUSH2 0x4AF DUP1 PUSH2 0x1C PUSH0 CODECOPY PUSH0 RETURN INVALID PUSH1 0x80 PUSH1 0x40 MSTORE CALLVALUE DUP1 ISZERO PUSH2 0xF JUMPI PUSH0 DUP1 REVERT JUMPDEST POP PUSH1 0x4 CALLDATASIZE LT PUSH2 0x3F JUMPI PUSH0 CALLDATALOAD PUSH1 0xE0 SHR DUP1 PUSH4 0x6F760F41 EQ PUSH2 0x43 JUMPI DUP1 PUSH4 0x9E7A13AD EQ PUSH2 0x58 JUMPI DUP1 PUSH4 0xD08C6803 EQ PUSH2 0x82 JUMPI JUMPDEST PUSH0 DUP1 REVERT JUMPDEST PUSH2 0x56 PUSH2 0x51 CALLDATASIZE PUSH1 0x4 PUSH2 0x249 JUMP JUMPDEST PUSH2 0x95 JUMP JUMPDEST STOP JUMPDEST PUSH2 0x6B PUSH2 0x66 CALLDATASIZE PUSH1 0x4 PUSH2 0x2BA JUMP JUMPDEST PUSH2 0x10C JUMP JUMPDEST PUSH1 0x40 MLOAD PUSH2 0x79 SWAP3 SWAP2 SWAP1 PUSH2 0x2D1 JUMP JUMPDEST PUSH1 0x40 MLOAD DUP1 SWAP2 SUB SWAP1 RETURN JUMPDEST PUSH2 0x56 PUSH2 0x90 CALLDATASIZE PUSH1 0x4 PUSH2 0x2BA JUMP JUMPDEST PUSH2 0x1C0 JUMP JUMPDEST PUSH1 0x40 DUP1 MLOAD PUSH1 0x60 PUSH1 0x20 PUSH1 0x1F DUP7 ADD DUP2 SWAP1 DIV MUL DUP3 ADD DUP2 ADD DUP4 MSTORE SWAP2 DUP2 ADD DUP5 DUP2 MSTORE PUSH0 SWAP3 DUP3 SWAP2 SWAP1 DUP8 SWAP1 DUP8 SWAP1 DUP2 SWAP1 DUP6 ADD DUP4 DUP3 DUP1 DUP3 DUP5 CALLDATACOPY PUSH0 SWAP3 ADD DUP3 SWAP1 MSTORE POP SWAP4 DUP6 MSTORE POP POP POP PUSH1 0x20 SWAP2 DUP3 ADD DUP6 SWAP1 MSTORE DUP4 SLOAD PUSH1 0x1 DUP2 ADD DUP6 SSTORE SWAP4 DUP2 MSTORE KECCAK256 DUP2 MLOAD SWAP2 SWAP3 PUSH1 0x2 MUL ADD SWAP1 DUP2 SWAP1 PUSH2 0xFA SWAP1 DUP3 PUSH2 0x3A5 JUMP JUMPDEST POP PUSH1 0x20 DUP3 ADD MLOAD DUP2 PUSH1 0x1 ADD SSTORE POP POP POP POP POP JUMP JUMPDEST PUSH0 DUP2 DUP2 SLOAD DUP2 LT PUSH2 0x11A JUMPI PUSH0 DUP1 REVERT JUMPDEST SWAP1 PUSH0 MSTORE PUSH1 0x20 PUSH0 KECCAK256 SWAP1 PUSH1 0x2 MUL ADD PUSH0 SWAP2 POP SWAP1 POP DUP1 PUSH0 ADD DUP1 SLOAD PUSH2 0x139 SWAP1 PUSH2 0x321 JUMP JUMPDEST DUP1 PUSH1 0x1F ADD PUSH1 0x20 DUP1 SWAP2 DIV MUL PUSH1 0x20 ADD PUSH1 0x40 MLOAD SWAP1 DUP2 ADD PUSH1 0x40 MSTORE DUP1 SWAP3 SWAP2 SWAP1 DUP2 DUP2 MSTORE PUSH1 0x20 ADD DUP3 DUP1 SLOAD PUSH2 0x165 SWAP1 PUSH2 0x321 JUMP JUMPDEST DUP1 ISZERO PUSH2 0x1B0 JUMPI DUP1 PUSH1 0x1F LT PUSH2 0x187 JUMPI PUSH2 0x100 DUP1 DUP4 SLOAD DIV MUL DUP4 MSTORE SWAP2 PUSH1 0x20 ADD SWAP2 PUSH2 0x1B0 JUMP JUMPDEST DUP3 ADD SWAP2 SWAP1 PUSH0 MSTORE PUSH1 0x20 PUSH0 KECCAK256 SWAP1 JUMPDEST DUP2 SLOAD DUP2 MSTORE SWAP1 PUSH1 0x1 ADD SWAP1 PUSH1 0x20 ADD DUP1 DUP4 GT PUSH2 0x193 JUMPI DUP3 SWAP1 SUB PUSH1 0x1F AND DUP3 ADD SWAP2 JUMPDEST POP POP POP POP POP SWAP1 DUP1 PUSH1 0x1 ADD SLOAD SWAP1 POP DUP3 JUMP JUMPDEST PUSH0 DUP2 DUP2 SLOAD DUP2 LT PUSH2 0x1D2 JUMPI PUSH2 0x1D2 PUSH2 0x465 JUMP JUMPDEST PUSH0 SWAP2 DUP3 MSTORE PUSH1 0x20 DUP3 KECCAK256 PUSH1 0x2 SWAP1 SWAP2 MUL ADD SWAP1 PUSH2 0x1EB DUP3 DUP3 PUSH2 0x1F7 JUMP JUMPDEST PUSH1 0x1 DUP3 ADD PUSH0 SWAP1 SSTORE POP POP POP JUMP JUMPDEST POP DUP1 SLOAD PUSH2 0x203 SWAP1 PUSH2 0x321 JUMP JUMPDEST PUSH0 DUP3 SSTORE DUP1 PUSH1 0x1F LT PUSH2 0x212 JUMPI POP POP JUMP JUMPDEST PUSH1 0x1F ADD PUSH1 0x20 SWAP1 DIV SWAP1 PUSH0 MSTORE PUSH1 0x20 PUSH0 KECCAK256 SWAP1 DUP2 ADD SWAP1 PUSH2 0x22E SWAP2 SWAP1 PUSH2 0x231 JUMP JUMPDEST POP JUMP JUMPDEST JUMPDEST DUP1 DUP3 GT ISZERO PUSH2 0x245 JUMPI PUSH0 DUP2 SSTORE PUSH1 0x1 ADD PUSH2 0x232 JUMP JUMPDEST POP SWAP1 JUMP JUMPDEST PUSH0 DUP1 PUSH0 PUSH1 0x40 DUP5 DUP7 SUB SLT ISZERO PUSH2 0x25B JUMPI PUSH0 DUP1 REVERT JUMPDEST DUP4 CALLDATALOAD PUSH8 0xFFFFFFFFFFFFFFFF DUP1 DUP3 GT ISZERO PUSH2 0x272 JUMPI PUSH0 DUP1 REVERT JUMPDEST DUP2 DUP7 ADD SWAP2 POP DUP7 PUSH1 0x1F DUP4 ADD SLT PUSH2 0x285 JUMPI PUSH0 DUP1 REVERT JUMPDEST DUP2 CALLDATALOAD DUP2 DUP2 GT ISZERO PUSH2 0x293 JUMPI PUSH0 DUP1 REVERT JUMPDEST DUP8 PUSH1 0x20 DUP3 DUP6 ADD ADD GT ISZERO PUSH2 0x2A4 JUMPI PUSH0 DUP1 REVERT JUMPDEST PUSH1 0x20 SWAP3 DUP4 ADD SWAP9 SWAP1 SWAP8 POP SWAP6 SWAP1 SWAP2 ADD CALLDATALOAD SWAP5 SWAP4 POP POP POP POP JUMP JUMPDEST PUSH0 PUSH1 0x20 DUP3 DUP5 SUB SLT ISZERO PUSH2 0x2CA JUMPI PUSH0 DUP1 REVERT JUMPDEST POP CALLDATALOAD SWAP2 SWAP1 POP JUMP JUMPDEST PUSH1 0x40 DUP2 MSTORE PUSH0 DUP4 MLOAD DUP1 PUSH1 0x40 DUP5 ADD MSTORE DUP1 PUSH1 0x20 DUP7 ADD PUSH1 0x60 DUP6 ADD MCOPY PUSH0 PUSH1 0x60 DUP3 DUP6 ADD ADD MSTORE PUSH1 0x60 PUSH1 0x1F NOT PUSH1 0x1F DUP4 ADD AND DUP5 ADD ADD SWAP2 POP POP DUP3 PUSH1 0x20 DUP4 ADD MSTORE SWAP4 SWAP3 POP POP POP JUMP JUMPDEST PUSH4 0x4E487B71 PUSH1 0xE0 SHL PUSH0 MSTORE PUSH1 0x41 PUSH1 0x4 MSTORE PUSH1 0x24 PUSH0 REVERT JUMPDEST PUSH1 0x1 DUP2 DUP2 SHR SWAP1 DUP3 AND DUP1 PUSH2 0x335 JUMPI PUSH1 0x7F DUP3 AND SWAP2 POP JUMPDEST PUSH1 0x20 DUP3 LT DUP2 SUB PUSH2 0x353 JUMPI PUSH4 0x4E487B71 PUSH1 0xE0 SHL PUSH0 MSTORE PUSH1 0x22 PUSH1 0x4 MSTORE PUSH1 0x24 PUSH0 REVERT JUMPDEST POP SWAP2 SWAP1 POP JUMP JUMPDEST PUSH1 0x1F DUP3 GT ISZERO PUSH2 0x3A0 JUMPI DUP1 PUSH0 MSTORE PUSH1 0x20 PUSH0 KECCAK256 PUSH1 0x1F DUP5 ADD PUSH1 0x5 SHR DUP2 ADD PUSH1 0x20 DUP6 LT ISZERO PUSH2 0x37E JUMPI POP DUP1 JUMPDEST PUSH1 0x1F DUP5 ADD PUSH1 0x5 SHR DUP3 ADD SWAP2 POP JUMPDEST DUP2 DUP2 LT ISZERO PUSH2 0x39D JUMPI PUSH0 DUP2 SSTORE PUSH1 0x1 ADD PUSH2 0x38A JUMP JUMPDEST POP POP JUMPDEST POP POP POP JUMP JUMPDEST DUP2 MLOAD PUSH8 0xFFFFFFFFFFFFFFFF DUP2 GT ISZERO PUSH2 0x3BF JUMPI PUSH2 0x3BF PUSH2 0x30D JUMP JUMPDEST PUSH2 0x3D3 DUP2 PUSH2 0x3CD DUP5 SLOAD PUSH2 0x321 JUMP JUMPDEST DUP5 PUSH2 0x359 JUMP JUMPDEST PUSH1 0x20 DUP1 PUSH1 0x1F DUP4 GT PUSH1 0x1 DUP2 EQ PUSH2 0x406 JUMPI PUSH0 DUP5 ISZERO PUSH2 0x3EF JUMPI POP DUP6 DUP4 ADD MLOAD JUMPDEST PUSH0 NOT PUSH1 0x3 DUP7 SWAP1 SHL SHR NOT AND PUSH1 0x1 DUP6 SWAP1 SHL OR DUP6 SSTORE PUSH2 0x45D JUMP JUMPDEST PUSH0 DUP6 DUP2 MSTORE PUSH1 0x20 DUP2 KECCAK256 PUSH1 0x1F NOT DUP7 AND SWAP2 JUMPDEST DUP3 DUP2 LT ISZERO PUSH2 0x434 JUMPI DUP9 DUP7 ADD MLOAD DUP3 SSTORE SWAP5 DUP5 ADD SWAP5 PUSH1 0x1 SWAP1 SWAP2 ADD SWAP1 DUP5 ADD PUSH2 0x415 JUMP JUMPDEST POP DUP6 DUP3 LT ISZERO PUSH2 0x451 JUMPI DUP8 DUP6 ADD MLOAD PUSH0 NOT PUSH1 0x3 DUP9 SWAP1 SHL PUSH1 0xF8 AND SHR NOT AND DUP2 SSTORE JUMPDEST POP POP PUSH1 0x1 DUP5 PUSH1 0x1 SHL ADD DUP6 SSTORE JUMPDEST POP POP POP POP POP POP JUMP JUMPDEST PUSH4 0x4E487B71 PUSH1 0xE0 SHL PUSH0 MSTORE PUSH1 0x32 PUSH1 0x4 MSTORE PUSH1 0x24 PUSH0 REVERT INVALID LOG2 PUSH5 0x6970667358 0x22 SLT KECCAK256 0xDD PC 0xED DUP6 0xE0 STOP 0xEA PUSH13 0xE4AAB6C447856F95ABC25C5FFC SWAP9 0xB1 PUSH3 0x294696 SWAP5 GT 0xD7 SLT SWAP4 PUSH5 0x736F6C6343 STOP ADDMOD NOT STOP CALLER "
				},
				"gasEstimates": {
					"creation": {
						"codeDepositCost": "239800",
						"executionCost": "279",
						"totalCost": "240079"
					},
					"external": {
						"addPerson(string,uint256)": "infinite",
						"deletePerson(uint256)": "infinite",
						"people(uint256)": "infinite"
					}
				},
				"methodIdentifiers": {
					"addPerson(string,uint256)": "6f760f41",
					"deletePerson(uint256)": "d08c6803",
					"people(uint256)": "9e7a13ad"
				}
			},
			"storageLayout": {
				"storage": [
					{
						"astId": 10,
						"contract": "contracts/ContractI/ContractIV12.sol:ContractIV12",
						"label": "people",
						"offset": 0,
						"slot": "0",
						"type": "t_array(t_struct(Person)6_storage)dyn_storage"
					}
				],
				"types": {
					"t_array(t_struct(Person)6_storage)dyn_storage": {
						"base": "t_struct(Person)6_storage",
						"encoding": "dynamic_array",
						"label": "struct ContractIV12.Person[]",
						"numberOfBytes": "32"
					},
					"t_string_storage": {
						"encoding": "bytes",
						"label": "string",
						"numberOfBytes": "32"
					},
					"t_struct(Person)6_storage": {
						"encoding": "inplace",
						"label": "struct ContractIV12.Person",
						"members": [
							{
								"astId": 3,
								"contract": "contracts/ContractI/ContractIV12.sol:ContractIV12",
								"label": "name",
								"offset": 0,
								"slot": "0",
								"type": "t_string_storage"
							},
							{
								"astId": 5,
								"contract": "contracts/ContractI/ContractIV12.sol:ContractIV12",
								"label": "age",
								"offset": 0,
								"slot": "1",
								"type": "t_uint256"
							}
						],
						"numberOfBytes": "64"
					},
					"t_uint256": {
						"encoding": "inplace",
						"label": "uint256",
						"numberOfBytes": "32"
					}
				}
			},
			"userdoc": {
				"kind": "user",
				"methods": {},
				"version": 1
			}
		}
	}
}