{
	"contracts/ContractAC/ContractACV8.sol": {
		"ContractACV8": {
			"abi": [
				{
					"inputs": [
						{
							"internalType": "uint256",
							"name": "x",
							"type": "uint256"
						},
						{
							"internalType": "uint256",
							"name": "y",
							"type": "uint256"
						}
					],
					"name": "add",
					"outputs": [
						{
							"internalType": "uint256",
							"name": "sum",
							"type": "uint256"
						}
					],
					"stateMutability": "pure",
					"type": "function"
				},
				{
					"inputs": [
						{
							"internalType": "uint256",
							"name": "x",
							"type": "uint256"
						},
						{
							"internalType": "uint256",
							"name": "y",
							"type": "uint256"
						}
					],
					"name": "addAndEmitEvent",
					"outputs": [],
					"stateMutability": "nonpayable",
					"type": "function"
				}
			],
			"devdoc": {
				"kind": "dev",
				"methods": {},
				"version": 1
			},
			"evm": {
				"assembly": "    /* \"contracts/ContractAC/ContractACV8.sol\":63:741  contract ContractACV8 {... */\n  mstore(0x40, 0x80)\n  callvalue\n  dup1\n  iszero\n  tag_1\n  jumpi\n  0x00\n  dup1\n  revert\ntag_1:\n  pop\n  dataSize(sub_0)\n  dup1\n  dataOffset(sub_0)\n  0x00\n  codecopy\n  0x00\n  return\nstop\n\nsub_0: assembly {\n        /* \"contracts/ContractAC/ContractACV8.sol\":63:741  contract ContractACV8 {... */\n      mstore(0x40, 0x80)\n      callvalue\n      dup1\n      iszero\n      tag_1\n      jumpi\n      0x00\n      dup1\n      revert\n    tag_1:\n      pop\n      jumpi(tag_2, lt(calldatasize, 0x04))\n      shr(0xe0, calldataload(0x00))\n      dup1\n      0x771602f7\n      eq\n      tag_3\n      jumpi\n      dup1\n      0xe4ed8f78\n      eq\n      tag_4\n      jumpi\n    tag_2:\n      0x00\n      dup1\n      revert\n        /* \"contracts/ContractAC/ContractACV8.sol\":373:511  function add(uint256 x, uint256 y) public pure returns (uint256 sum) {... */\n    tag_3:\n      tag_5\n      tag_6\n      calldatasize\n      0x04\n      tag_7\n      jump\t// in\n    tag_6:\n        /* \"contracts/ContractAC/ContractACV8.sol\":484:493  add(x, y) */\n      add\n      swap1\n        /* \"contracts/ContractAC/ContractACV8.sol\":373:511  function add(uint256 x, uint256 y) public pure returns (uint256 sum) {... */\n      jump\n    tag_5:\n      mload(0x40)\n        /* \"#utility.yul\":413:438   */\n      swap1\n      dup2\n      mstore\n        /* \"#utility.yul\":401:403   */\n      0x20\n        /* \"#utility.yul\":386:404   */\n      add\n        /* \"contracts/ContractAC/ContractACV8.sol\":373:511  function add(uint256 x, uint256 y) public pure returns (uint256 sum) {... */\n      mload(0x40)\n      dup1\n      swap2\n      sub\n      swap1\n      return\n        /* \"contracts/ContractAC/ContractACV8.sol\":519:738  function addAndEmitEvent(uint256 x, uint256 y) public {... */\n    tag_4:\n      tag_11\n      tag_12\n      calldatasize\n      0x04\n      tag_7\n      jump\t// in\n    tag_12:\n      tag_13\n      jump\t// in\n    tag_11:\n      stop\n    tag_13:\n        /* \"contracts/ContractAC/ContractACV8.sol\":718:719  y */\n      dup1\n        /* \"contracts/ContractAC/ContractACV8.sol\":715:716  x */\n      dup3\n        /* \"contracts/ContractAC/ContractACV8.sol\":693:713  _ADD_EVENT_SIGNATURE */\n      0x8ee47376d9c2ec9db9d101531c6bb7e908bd232d71958da5feb9ca0a0c8c8357\n        /* \"contracts/ContractAC/ContractACV8.sol\":690:691  0 */\n      0x00\n        /* \"contracts/ContractAC/ContractACV8.sol\":687:688  0 */\n      dup1\n        /* \"contracts/ContractAC/ContractACV8.sol\":682:720  log3(0, 0, _ADD_EVENT_SIGNATURE, x, y) */\n      log3\n        /* \"contracts/ContractAC/ContractACV8.sol\":519:738  function addAndEmitEvent(uint256 x, uint256 y) public {... */\n      pop\n      pop\n      jump\t// out\n        /* \"#utility.yul\":14:262   */\n    tag_7:\n        /* \"#utility.yul\":82:88   */\n      0x00\n        /* \"#utility.yul\":90:96   */\n      dup1\n        /* \"#utility.yul\":143:145   */\n      0x40\n        /* \"#utility.yul\":131:140   */\n      dup4\n        /* \"#utility.yul\":122:129   */\n      dup6\n        /* \"#utility.yul\":118:141   */\n      sub\n        /* \"#utility.yul\":114:146   */\n      slt\n        /* \"#utility.yul\":111:163   */\n      iszero\n      tag_19\n      jumpi\n        /* \"#utility.yul\":159:160   */\n      0x00\n        /* \"#utility.yul\":156:157   */\n      dup1\n        /* \"#utility.yul\":149:161   */\n      revert\n        /* \"#utility.yul\":111:163   */\n    tag_19:\n      pop\n      pop\n        /* \"#utility.yul\":182:205   */\n      dup1\n      calldataload\n      swap3\n        /* \"#utility.yul\":252:254   */\n      0x20\n        /* \"#utility.yul\":237:255   */\n      swap1\n      swap2\n      add\n        /* \"#utility.yul\":224:256   */\n      calldataload\n      swap2\n      pop\n        /* \"#utility.yul\":14:262   */\n      jump\t// out\n\n    auxdata: 0xa26469706673582212209463010f46c754b108b3c533576156ba6d4a193ade15b7da3f08515220fb78f964736f6c63430008190033\n}\n",
				"bytecode": {
					"linkReferences": {},
					"object": "6080604052348015600e575f80fd5b5060e58061001b5f395ff3fe6080604052348015600e575f80fd5b50600436106030575f3560e01c8063771602f7146034578063e4ed8f78146055575b5f80fd5b6043603f3660046090565b0190565b60405190815260200160405180910390f35b606460603660046090565b6066565b005b80827f8ee47376d9c2ec9db9d101531c6bb7e908bd232d71958da5feb9ca0a0c8c83575f80a35050565b5f806040838503121560a0575f80fd5b5050803592602090910135915056fea26469706673582212209463010f46c754b108b3c533576156ba6d4a193ade15b7da3f08515220fb78f964736f6c63430008190033",
					"opcodes": "PUSH1 0x80 PUSH1 0x40 MSTORE CALLVALUE DUP1 ISZERO PUSH1 0xE JUMPI PUSH0 DUP1 REVERT JUMPDEST POP PUSH1 0xE5 DUP1 PUSH2 0x1B PUSH0 CODECOPY PUSH0 RETURN INVALID PUSH1 0x80 PUSH1 0x40 MSTORE CALLVALUE DUP1 ISZERO PUSH1 0xE JUMPI PUSH0 DUP1 REVERT JUMPDEST POP PUSH1 0x4 CALLDATASIZE LT PUSH1 0x30 JUMPI PUSH0 CALLDATALOAD PUSH1 0xE0 SHR DUP1 PUSH4 0x771602F7 EQ PUSH1 0x34 JUMPI DUP1 PUSH4 0xE4ED8F78 EQ PUSH1 0x55 JUMPI JUMPDEST PUSH0 DUP1 REVERT JUMPDEST PUSH1 0x43 PUSH1 0x3F CALLDATASIZE PUSH1 0x4 PUSH1 0x90 JUMP JUMPDEST ADD SWAP1 JUMP JUMPDEST PUSH1 0x40 MLOAD SWAP1 DUP2 MSTORE PUSH1 0x20 ADD PUSH1 0x40 MLOAD DUP1 SWAP2 SUB SWAP1 RETURN JUMPDEST PUSH1 0x64 PUSH1 0x60 CALLDATASIZE PUSH1 0x4 PUSH1 0x90 JUMP JUMPDEST PUSH1 0x66 JUMP JUMPDEST STOP JUMPDEST DUP1 DUP3 PUSH32 0x8EE47376D9C2EC9DB9D101531C6BB7E908BD232D71958DA5FEB9CA0A0C8C8357 PUSH0 DUP1 LOG3 POP POP JUMP JUMPDEST PUSH0 DUP1 PUSH1 0x40 DUP4 DUP6 SUB SLT ISZERO PUSH1 0xA0 JUMPI PUSH0 DUP1 REVERT JUMPDEST POP POP DUP1 CALLDATALOAD SWAP3 PUSH1 0x20 SWAP1 SWAP2 ADD CALLDATALOAD SWAP2 POP JUMP INVALID LOG2 PUSH5 0x6970667358 0x22 SLT KECCAK256 SWAP5 PUSH4 0x10F46C7 SLOAD 0xB1 ADDMOD 0xB3 0xC5 CALLER JUMPI PUSH2 0x56BA PUSH14 0x4A193ADE15B7DA3F08515220FB78 0xF9 PUSH5 0x736F6C6343 STOP ADDMOD NOT STOP CALLER "
				},
				"gasEstimates": {
					"creation": {
						"codeDepositCost": "45800",
						"executionCost": "97",
						"totalCost": "45897"
					},
					"external": {
						"add(uint256,uint256)": "259",
						"addAndEmitEvent(uint256,uint256)": "1760"
					}
				},
				"methodIdentifiers": {
					"add(uint256,uint256)": "771602f7",
					"addAndEmitEvent(uint256,uint256)": "e4ed8f78"
				}
			},
			"storageLayout": {
				"storage": [],
				"types": null
			},
			"userdoc": {
				"kind": "user",
				"methods": {},
				"version": 1
			}
		}
	}
}