{
	"contracts/ContractAC/ContractACV9.sol": {
		"ContractACV9": {
			"abi": [
				{
					"inputs": [
						{
							"internalType": "uint256",
							"name": "x",
							"type": "uint256"
						},
						{
							"internalType": "uint256",
							"name": "y",
							"type": "uint256"
						}
					],
					"name": "add",
					"outputs": [
						{
							"internalType": "uint256",
							"name": "sum",
							"type": "uint256"
						}
					],
					"stateMutability": "pure",
					"type": "function"
				},
				{
					"inputs": [
						{
							"internalType": "uint256",
							"name": "x",
							"type": "uint256"
						},
						{
							"internalType": "uint256",
							"name": "y",
							"type": "uint256"
						}
					],
					"name": "addAndEmitEvent",
					"outputs": [],
					"stateMutability": "nonpayable",
					"type": "function"
				}
			],
			"devdoc": {
				"kind": "dev",
				"methods": {},
				"version": 1
			},
			"evm": {
				"assembly": "    /* \"contracts/ContractAC/ContractACV9.sol\":63:750  contract ContractACV9 {... */\n  mstore(0x40, 0x80)\n  callvalue\n  dup1\n  iszero\n  tag_1\n  jumpi\n  0x00\n  dup1\n  revert\ntag_1:\n  pop\n  dataSize(sub_0)\n  dup1\n  dataOffset(sub_0)\n  0x00\n  codecopy\n  0x00\n  return\nstop\n\nsub_0: assembly {\n        /* \"contracts/ContractAC/ContractACV9.sol\":63:750  contract ContractACV9 {... */\n      mstore(0x40, 0x80)\n      callvalue\n      dup1\n      iszero\n      tag_1\n      jumpi\n      0x00\n      dup1\n      revert\n    tag_1:\n      pop\n      jumpi(tag_2, lt(calldatasize, 0x04))\n      shr(0xe0, calldataload(0x00))\n      dup1\n      0x771602f7\n      eq\n      tag_3\n      jumpi\n      dup1\n      0xe4ed8f78\n      eq\n      tag_4\n      jumpi\n    tag_2:\n      0x00\n      dup1\n      revert\n        /* \"contracts/ContractAC/ContractACV9.sol\":373:513  function add(uint256 x, uint256 y) external pure returns (uint256 sum) {... */\n    tag_3:\n      tag_5\n      tag_6\n      calldatasize\n      0x04\n      tag_7\n      jump\t// in\n    tag_6:\n        /* \"contracts/ContractAC/ContractACV9.sol\":486:495  add(x, y) */\n      add\n      swap1\n        /* \"contracts/ContractAC/ContractACV9.sol\":373:513  function add(uint256 x, uint256 y) external pure returns (uint256 sum) {... */\n      jump\n    tag_5:\n      mload(0x40)\n        /* \"#utility.yul\":413:438   */\n      swap1\n      dup2\n      mstore\n        /* \"#utility.yul\":401:403   */\n      0x20\n        /* \"#utility.yul\":386:404   */\n      add\n        /* \"contracts/ContractAC/ContractACV9.sol\":373:513  function add(uint256 x, uint256 y) external pure returns (uint256 sum) {... */\n      mload(0x40)\n      dup1\n      swap2\n      sub\n      swap1\n      return\n        /* \"contracts/ContractAC/ContractACV9.sol\":521:747  function addAndEmitEvent(uint256 x, uint256 y) external {... */\n    tag_4:\n      tag_11\n      tag_12\n      calldatasize\n      0x04\n      tag_7\n      jump\t// in\n    tag_12:\n      tag_13\n      jump\t// in\n    tag_11:\n      stop\n    tag_13:\n        /* \"contracts/ContractAC/ContractACV9.sol\":588:602  this.add(x, y) */\n      mload(0x40)\n      0x771602f700000000000000000000000000000000000000000000000000000000\n      dup2\n      mstore\n      0x04\n      dup2\n      add\n        /* \"#utility.yul\":623:648   */\n      dup4\n      swap1\n      mstore\n        /* \"#utility.yul\":664:682   */\n      0x24\n      dup2\n      add\n        /* \"#utility.yul\":657:691   */\n      dup3\n      swap1\n      mstore\n        /* \"contracts/ContractAC/ContractACV9.sol\":588:592  this */\n      address\n      swap1\n        /* \"contracts/ContractAC/ContractACV9.sol\":588:596  this.add */\n      0x771602f7\n      swap1\n        /* \"#utility.yul\":596:614   */\n      0x44\n      add\n        /* \"contracts/ContractAC/ContractACV9.sol\":588:602  this.add(x, y) */\n      0x20\n      mload(0x40)\n      dup1\n      dup4\n      sub\n      dup2\n      dup7\n      gas\n      staticcall\n      iszero\n      dup1\n      iszero\n      tag_19\n      jumpi\n      returndatasize\n      0x00\n      dup1\n      returndatacopy\n      revert(0x00, returndatasize)\n    tag_19:\n      pop\n      pop\n      pop\n      pop\n      mload(0x40)\n      returndatasize\n      not(0x1f)\n      0x1f\n      dup3\n      add\n      and\n      dup3\n      add\n      dup1\n      0x40\n      mstore\n      pop\n      dup2\n      add\n      swap1\n      tag_20\n      swap2\n      swap1\n      tag_21\n      jump\t// in\n    tag_20:\n      pop\n        /* \"contracts/ContractAC/ContractACV9.sol\":727:728  y */\n      dup1\n        /* \"contracts/ContractAC/ContractACV9.sol\":724:725  x */\n      dup3\n        /* \"contracts/ContractAC/ContractACV9.sol\":702:722  _ADD_EVENT_SIGNATURE */\n      0x8ee47376d9c2ec9db9d101531c6bb7e908bd232d71958da5feb9ca0a0c8c8357\n        /* \"contracts/ContractAC/ContractACV9.sol\":699:700  0 */\n      0x00\n        /* \"contracts/ContractAC/ContractACV9.sol\":696:697  0 */\n      dup1\n        /* \"contracts/ContractAC/ContractACV9.sol\":691:729  log3(0, 0, _ADD_EVENT_SIGNATURE, x, y) */\n      log3\n        /* \"contracts/ContractAC/ContractACV9.sol\":521:747  function addAndEmitEvent(uint256 x, uint256 y) external {... */\n      pop\n      pop\n      jump\t// out\n        /* \"#utility.yul\":14:262   */\n    tag_7:\n        /* \"#utility.yul\":82:88   */\n      0x00\n        /* \"#utility.yul\":90:96   */\n      dup1\n        /* \"#utility.yul\":143:145   */\n      0x40\n        /* \"#utility.yul\":131:140   */\n      dup4\n        /* \"#utility.yul\":122:129   */\n      dup6\n        /* \"#utility.yul\":118:141   */\n      sub\n        /* \"#utility.yul\":114:146   */\n      slt\n        /* \"#utility.yul\":111:163   */\n      iszero\n      tag_24\n      jumpi\n        /* \"#utility.yul\":159:160   */\n      0x00\n        /* \"#utility.yul\":156:157   */\n      dup1\n        /* \"#utility.yul\":149:161   */\n      revert\n        /* \"#utility.yul\":111:163   */\n    tag_24:\n      pop\n      pop\n        /* \"#utility.yul\":182:205   */\n      dup1\n      calldataload\n      swap3\n        /* \"#utility.yul\":252:254   */\n      0x20\n        /* \"#utility.yul\":237:255   */\n      swap1\n      swap2\n      add\n        /* \"#utility.yul\":224:256   */\n      calldataload\n      swap2\n      pop\n        /* \"#utility.yul\":14:262   */\n      jump\t// out\n        /* \"#utility.yul\":702:886   */\n    tag_21:\n        /* \"#utility.yul\":772:778   */\n      0x00\n        /* \"#utility.yul\":825:827   */\n      0x20\n        /* \"#utility.yul\":813:822   */\n      dup3\n        /* \"#utility.yul\":804:811   */\n      dup5\n        /* \"#utility.yul\":800:823   */\n      sub\n        /* \"#utility.yul\":796:828   */\n      slt\n        /* \"#utility.yul\":793:845   */\n      iszero\n      tag_28\n      jumpi\n        /* \"#utility.yul\":841:842   */\n      0x00\n        /* \"#utility.yul\":838:839   */\n      dup1\n        /* \"#utility.yul\":831:843   */\n      revert\n        /* \"#utility.yul\":793:845   */\n    tag_28:\n      pop\n        /* \"#utility.yul\":864:880   */\n      mload\n      swap2\n        /* \"#utility.yul\":702:886   */\n      swap1\n      pop\n      jump\t// out\n\n    auxdata: 0xa26469706673582212206299a36726f463854947f78b9ea039a95769414077f5c7876ebeb36fb20b064a64736f6c63430008190033\n}\n",
				"bytecode": {
					"linkReferences": {},
					"object": "6080604052348015600e575f80fd5b506101878061001c5f395ff3fe608060405234801561000f575f80fd5b5060043610610034575f3560e01c8063771602f714610038578063e4ed8f781461005c575b5f80fd5b61004a61004636600461011a565b0190565b60405190815260200160405180910390f35b61006f61006a36600461011a565b610071565b005b6040517f771602f70000000000000000000000000000000000000000000000000000000081526004810183905260248101829052309063771602f790604401602060405180830381865afa1580156100cb573d5f803e3d5ffd5b505050506040513d601f19601f820116820180604052508101906100ef919061013a565b5080827f8ee47376d9c2ec9db9d101531c6bb7e908bd232d71958da5feb9ca0a0c8c83575f80a35050565b5f806040838503121561012b575f80fd5b50508035926020909101359150565b5f6020828403121561014a575f80fd5b505191905056fea26469706673582212206299a36726f463854947f78b9ea039a95769414077f5c7876ebeb36fb20b064a64736f6c63430008190033",
					"opcodes": "PUSH1 0x80 PUSH1 0x40 MSTORE CALLVALUE DUP1 ISZERO PUSH1 0xE JUMPI PUSH0 DUP1 REVERT JUMPDEST POP PUSH2 0x187 DUP1 PUSH2 0x1C PUSH0 CODECOPY PUSH0 RETURN INVALID PUSH1 0x80 PUSH1 0x40 MSTORE CALLVALUE DUP1 ISZERO PUSH2 0xF JUMPI PUSH0 DUP1 REVERT JUMPDEST POP PUSH1 0x4 CALLDATASIZE LT PUSH2 0x34 JUMPI PUSH0 CALLDATALOAD PUSH1 0xE0 SHR DUP1 PUSH4 0x771602F7 EQ PUSH2 0x38 JUMPI DUP1 PUSH4 0xE4ED8F78 EQ PUSH2 0x5C JUMPI JUMPDEST PUSH0 DUP1 REVERT JUMPDEST PUSH2 0x4A PUSH2 0x46 CALLDATASIZE PUSH1 0x4 PUSH2 0x11A JUMP JUMPDEST ADD SWAP1 JUMP JUMPDEST PUSH1 0x40 MLOAD SWAP1 DUP2 MSTORE PUSH1 0x20 ADD PUSH1 0x40 MLOAD DUP1 SWAP2 SUB SWAP1 RETURN JUMPDEST PUSH2 0x6F PUSH2 0x6A CALLDATASIZE PUSH1 0x4 PUSH2 0x11A JUMP JUMPDEST PUSH2 0x71 JUMP JUMPDEST STOP JUMPDEST PUSH1 0x40 MLOAD PUSH32 0x771602F700000000000000000000000000000000000000000000000000000000 DUP2 MSTORE PUSH1 0x4 DUP2 ADD DUP4 SWAP1 MSTORE PUSH1 0x24 DUP2 ADD DUP3 SWAP1 MSTORE ADDRESS SWAP1 PUSH4 0x771602F7 SWAP1 PUSH1 0x44 ADD PUSH1 0x20 PUSH1 0x40 MLOAD DUP1 DUP4 SUB DUP2 DUP7 GAS STATICCALL ISZERO DUP1 ISZERO PUSH2 0xCB JUMPI RETURNDATASIZE PUSH0 DUP1 RETURNDATACOPY RETURNDATASIZE PUSH0 REVERT JUMPDEST POP POP POP POP PUSH1 0x40 MLOAD RETURNDATASIZE PUSH1 0x1F NOT PUSH1 0x1F DUP3 ADD AND DUP3 ADD DUP1 PUSH1 0x40 MSTORE POP DUP2 ADD SWAP1 PUSH2 0xEF SWAP2 SWAP1 PUSH2 0x13A JUMP JUMPDEST POP DUP1 DUP3 PUSH32 0x8EE47376D9C2EC9DB9D101531C6BB7E908BD232D71958DA5FEB9CA0A0C8C8357 PUSH0 DUP1 LOG3 POP POP JUMP JUMPDEST PUSH0 DUP1 PUSH1 0x40 DUP4 DUP6 SUB SLT ISZERO PUSH2 0x12B JUMPI PUSH0 DUP1 REVERT JUMPDEST POP POP DUP1 CALLDATALOAD SWAP3 PUSH1 0x20 SWAP1 SWAP2 ADD CALLDATALOAD SWAP2 POP JUMP JUMPDEST PUSH0 PUSH1 0x20 DUP3 DUP5 SUB SLT ISZERO PUSH2 0x14A JUMPI PUSH0 DUP1 REVERT JUMPDEST POP MLOAD SWAP2 SWAP1 POP JUMP INVALID LOG2 PUSH5 0x6970667358 0x22 SLT KECCAK256 PUSH3 0x99A367 0x26 DELEGATECALL PUSH4 0x854947F7 DUP12 SWAP15 LOG0 CODECOPY 0xA9 JUMPI PUSH10 0x414077F5C7876EBEB36F 0xB2 SIGNEXTEND MOD BLOBBASEFEE PUSH5 0x736F6C6343 STOP ADDMOD NOT STOP CALLER "
				},
				"gasEstimates": {
					"creation": {
						"codeDepositCost": "78200",
						"executionCost": "127",
						"totalCost": "78327"
					},
					"external": {
						"add(uint256,uint256)": "259",
						"addAndEmitEvent(uint256,uint256)": "infinite"
					}
				},
				"methodIdentifiers": {
					"add(uint256,uint256)": "771602f7",
					"addAndEmitEvent(uint256,uint256)": "e4ed8f78"
				}
			},
			"storageLayout": {
				"storage": [],
				"types": null
			},
			"userdoc": {
				"kind": "user",
				"methods": {},
				"version": 1
			}
		}
	}
}