{
	"data": {
		"bytecode": {
			"linkReferences": {},
			"object": "6080604052348015600e575f80fd5b5060e08061001b5f395ff3fe6080604052348015600e575f80fd5b50600436106030575f3560e01c806309bd5a60146034578063f0ff60cf146075575b5f80fd5b5f54603f9060801b81565b6040517fffffffffffffffffffffffffffffffff0000000000000000000000000000000090911681526020015b60405180910390f35b5f5460801b6040517fffffffffffffffffffffffffffffff00000000000000000000000000000000009091168152602001606c56fea26469706673582212203e5ac8865b3accf0b8443bcf6181d553e7a7e8bc64beefb20108b6455b03acdb64736f6c63430008190033",
			"opcodes": "PUSH1 0x80 PUSH1 0x40 MSTORE CALLVALUE DUP1 ISZERO PUSH1 0xE JUMPI PUSH0 DUP1 REVERT JUMPDEST POP PUSH1 0xE0 DUP1 PUSH2 0x1B PUSH0 CODECOPY PUSH0 RETURN INVALID PUSH1 0x80 PUSH1 0x40 MSTORE CALLVALUE DUP1 ISZERO PUSH1 0xE JUMPI PUSH0 DUP1 REVERT JUMPDEST POP PUSH1 0x4 CALLDATASIZE LT PUSH1 0x30 JUMPI PUSH0 CALLDATALOAD PUSH1 0xE0 SHR DUP1 PUSH4 0x9BD5A60 EQ PUSH1 0x34 JUMPI DUP1 PUSH4 0xF0FF60CF EQ PUSH1 0x75 JUMPI JUMPDEST PUSH0 DUP1 REVERT JUMPDEST PUSH0 SLOAD PUSH1 0x3F SWAP1 PUSH1 0x80 SHL DUP2 JUMP JUMPDEST PUSH1 0x40 MLOAD PUSH32 0xFFFFFFFFFFFFFFFFFFFFFFFFFFFFFFFF00000000000000000000000000000000 SWAP1 SWAP2 AND DUP2 MSTORE PUSH1 0x20 ADD JUMPDEST PUSH1 0x40 MLOAD DUP1 SWAP2 SUB SWAP1 RETURN JUMPDEST PUSH0 SLOAD PUSH1 0x80 SHL PUSH1 0x40 MLOAD PUSH32 0xFFFFFFFFFFFFFFFFFFFFFFFFFFFFFF0000000000000000000000000000000000 SWAP1 SWAP2 AND DUP2 MSTORE PUSH1 0x20 ADD PUSH1 0x6C JUMP INVALID LOG2 PUSH5 0x6970667358 0x22 SLT KECCAK256 RETURNDATACOPY GAS 0xC8 DUP7 JUMPDEST GASPRICE 0xCC CREATE 0xB8 PREVRANDAO EXTCODESIZE 0xCF PUSH2 0x81D5 MSTORE8 0xE7 0xA7 0xE8 0xBC PUSH5 0xBEEFB20108 0xB6 GASLIMIT JUMPDEST SUB 0xAC 0xDB PUSH5 0x736F6C6343 STOP ADDMOD NOT STOP CALLER "
		},
		"gasEstimates": {
			"creation": {
				"codeDepositCost": "44800",
				"executionCost": "91",
				"totalCost": "44891"
			},
			"external": {
				"hash()": "2278",
				"readHash()": "2293"
			}
		},
		"methodIdentifiers": {
			"hash()": "09bd5a60",
			"readHash()": "f0ff60cf"
		}
	},
	"abi": [
		{
			"inputs": [],
			"name": "hash",
			"outputs": [
				{
					"internalType": "bytes16",
					"name": "",
					"type": "bytes16"
				}
			],
			"stateMutability": "view",
			"type": "function"
		},
		{
			"inputs": [],
			"name": "readHash",
			"outputs": [
				{
					"internalType": "bytes15",
					"name": "",
					"type": "bytes15"
				}
			],
			"stateMutability": "view",
			"type": "function"
		}
	]
}