{
	"data": {
		"bytecode": {
			"linkReferences": {},
			"object": "6080604052348015600e575f80fd5b5060b680601a5f395ff3fe6080604052348015600e575f80fd5b50600436106030575f3560e01c806309bd5a60146034578063f0ff60cf14604e575b5f80fd5b603b5f5481565b6040519081526020015b60405180910390f35b5f546040517fffffffffffffffffffffffffffffffff000000000000000000000000000000009091168152602001604556fea2646970667358221220f37177123e9945bfd04efb5d965364ba12be70a903e2f5bf495e4777bbb01ca564736f6c63430008190033",
			"opcodes": "PUSH1 0x80 PUSH1 0x40 MSTORE CALLVALUE DUP1 ISZERO PUSH1 0xE JUMPI PUSH0 DUP1 REVERT JUMPDEST POP PUSH1 0xB6 DUP1 PUSH1 0x1A PUSH0 CODECOPY PUSH0 RETURN INVALID PUSH1 0x80 PUSH1 0x40 MSTORE CALLVALUE DUP1 ISZERO PUSH1 0xE JUMPI PUSH0 DUP1 REVERT JUMPDEST POP PUSH1 0x4 CALLDATASIZE LT PUSH1 0x30 JUMPI PUSH0 CALLDATALOAD PUSH1 0xE0 SHR DUP1 PUSH4 0x9BD5A60 EQ PUSH1 0x34 JUMPI DUP1 PUSH4 0xF0FF60CF EQ PUSH1 0x4E JUMPI JUMPDEST PUSH0 DUP1 REVERT JUMPDEST PUSH1 0x3B PUSH0 SLOAD DUP2 JUMP JUMPDEST PUSH1 0x40 MLOAD SWAP1 DUP2 MSTORE PUSH1 0x20 ADD JUMPDEST PUSH1 0x40 MLOAD DUP1 SWAP2 SUB SWAP1 RETURN JUMPDEST PUSH0 SLOAD PUSH1 0x40 MLOAD PUSH32 0xFFFFFFFFFFFFFFFFFFFFFFFFFFFFFFFF00000000000000000000000000000000 SWAP1 SWAP2 AND DUP2 MSTORE PUSH1 0x20 ADD PUSH1 0x45 JUMP INVALID LOG2 PUSH5 0x6970667358 0x22 SLT KECCAK256 RETURN PUSH18 0x77123E9945BFD04EFB5D965364BA12BE70A9 SUB 0xE2 CREATE2 0xBF BLOBHASH MCOPY SELFBALANCE PUSH24 0xBBB01CA564736F6C63430008190033000000000000000000 "
		},
		"gasEstimates": {
			"creation": {
				"codeDepositCost": "36400",
				"executionCost": "85",
				"totalCost": "36485"
			},
			"external": {
				"hash()": "2260",
				"readHash()": "2287"
			}
		},
		"methodIdentifiers": {
			"hash()": "09bd5a60",
			"readHash()": "f0ff60cf"
		}
	},
	"abi": [
		{
			"inputs": [],
			"name": "hash",
			"outputs": [
				{
					"internalType": "bytes32",
					"name": "",
					"type": "bytes32"
				}
			],
			"stateMutability": "view",
			"type": "function"
		},
		{
			"inputs": [],
			"name": "readHash",
			"outputs": [
				{
					"internalType": "bytes16",
					"name": "",
					"type": "bytes16"
				}
			],
			"stateMutability": "view",
			"type": "function"
		}
	]
}